{
    "contractName": "MasterChef",
    "abi": [
        {
            "inputs": [
                {
                    "internalType": "uint256",
                    "name": "_chainId",
                    "type": "uint256"
                },
                {
                    "internalType": "uint256",
                    "name": "_totalChains",
                    "type": "uint256"
                },
                {
                    "internalType": "uint256",
                    "name": "_totalPower",
                    "type": "uint256"
                },
                {
                    "internalType": "uint256",
                    "name": "_power",
                    "type": "uint256"
                }
            ],
            "stateMutability": "nonpayable",
            "type": "constructor"
        },
        {
            "anonymous": false,
            "inputs": [
                {
                    "indexed": true,
                    "internalType": "address",
                    "name": "user",
                    "type": "address"
                }
            ],
            "name": "CreatorAdded",
            "type": "event"
        },
        {
            "anonymous": false,
            "inputs": [
                {
                    "indexed": true,
                    "internalType": "address",
                    "name": "user",
                    "type": "address"
                },
                {
                    "indexed": true,
                    "internalType": "uint256",
                    "name": "pid",
                    "type": "uint256"
                },
                {
                    "indexed": false,
                    "internalType": "uint256",
                    "name": "amount",
                    "type": "uint256"
                }
            ],
            "name": "Deposit",
            "type": "event"
        },
        {
            "anonymous": false,
            "inputs": [
                {
                    "indexed": true,
                    "internalType": "address",
                    "name": "previousOwner",
                    "type": "address"
                },
                {
                    "indexed": true,
                    "internalType": "address",
                    "name": "newOwner",
                    "type": "address"
                }
            ],
            "name": "OwnershipTransferred",
            "type": "event"
        },
        {
            "anonymous": false,
            "inputs": [
                {
                    "indexed": false,
                    "internalType": "uint256",
                    "name": "pid",
                    "type": "uint256"
                },
                {
                    "indexed": false,
                    "internalType": "uint256",
                    "name": "allocPoint",
                    "type": "uint256"
                },
                {
                    "indexed": false,
                    "internalType": "contract IERC20",
                    "name": "lpToken",
                    "type": "address"
                },
                {
                    "indexed": false,
                    "internalType": "uint256",
                    "name": "totalAllocPoint",
                    "type": "uint256"
                }
            ],
            "name": "PoolAdded",
            "type": "event"
        },
        {
            "anonymous": false,
            "inputs": [
                {
                    "indexed": false,
                    "internalType": "uint256",
                    "name": "pid",
                    "type": "uint256"
                },
                {
                    "indexed": false,
                    "internalType": "uint256",
                    "name": "allocPoint",
                    "type": "uint256"
                }
            ],
            "name": "PoolSet",
            "type": "event"
        },
        {
            "anonymous": false,
            "inputs": [
                {
                    "indexed": false,
                    "internalType": "uint256",
                    "name": "power",
                    "type": "uint256"
                },
                {
                    "indexed": false,
                    "internalType": "uint256",
                    "name": "totalPower",
                    "type": "uint256"
                }
            ],
            "name": "PowerUpdated",
            "type": "event"
        },
        {
            "anonymous": false,
            "inputs": [
                {
                    "indexed": false,
                    "internalType": "uint256",
                    "name": "dailySoul",
                    "type": "uint256"
                },
                {
                    "indexed": false,
                    "internalType": "uint256",
                    "name": "soulPerSecond",
                    "type": "uint256"
                }
            ],
            "name": "RewardsUpdated",
            "type": "event"
        },
        {
            "anonymous": false,
            "inputs": [
                {
                    "indexed": true,
                    "internalType": "address",
                    "name": "user",
                    "type": "address"
                },
                {
                    "indexed": true,
                    "internalType": "uint256",
                    "name": "pid",
                    "type": "uint256"
                },
                {
                    "indexed": false,
                    "internalType": "uint256",
                    "name": "amount",
                    "type": "uint256"
                }
            ],
            "name": "Withdraw",
            "type": "event"
        },
        {
            "inputs": [],
            "name": "BONUS_MULTIPLIER",
            "outputs": [
                {
                    "internalType": "uint256",
                    "name": "",
                    "type": "uint256"
                }
            ],
            "stateMutability": "view",
            "type": "function"
        },
        {
            "inputs": [
                {
                    "internalType": "uint256",
                    "name": "_allocPoint",
                    "type": "uint256"
                },
                {
                    "internalType": "contract IERC20",
                    "name": "_lpToken",
                    "type": "address"
                },
                {
                    "internalType": "bool",
                    "name": "_withUpdate",
                    "type": "bool"
                }
            ],
            "name": "add",
            "outputs": [],
            "stateMutability": "nonpayable",
            "type": "function"
        },
        {
            "inputs": [
                {
                    "internalType": "address",
                    "name": "_recipient",
                    "type": "address"
                }
            ],
            "name": "addCreator",
            "outputs": [],
            "stateMutability": "nonpayable",
            "type": "function"
        },
        {
            "inputs": [],
            "name": "chainId",
            "outputs": [
                {
                    "internalType": "uint256",
                    "name": "",
                    "type": "uint256"
                }
            ],
            "stateMutability": "view",
            "type": "function"
        },
        {
            "inputs": [
                {
                    "internalType": "address",
                    "name": "",
                    "type": "address"
                }
            ],
            "name": "creators",
            "outputs": [
                {
                    "internalType": "bool",
                    "name": "",
                    "type": "bool"
                }
            ],
            "stateMutability": "view",
            "type": "function"
        },
        {
            "inputs": [],
            "name": "dailySoul",
            "outputs": [
                {
                    "internalType": "uint256",
                    "name": "",
                    "type": "uint256"
                }
            ],
            "stateMutability": "view",
            "type": "function"
        },
        {
            "inputs": [],
            "name": "dao",
            "outputs": [
                {
                    "internalType": "address",
                    "name": "",
                    "type": "address"
                }
            ],
            "stateMutability": "view",
            "type": "function"
        },
        {
            "inputs": [
                {
                    "internalType": "uint256",
                    "name": "_pid",
                    "type": "uint256"
                },
                {
                    "internalType": "uint256",
                    "name": "_amount",
                    "type": "uint256"
                }
            ],
            "name": "deposit",
            "outputs": [],
            "stateMutability": "nonpayable",
            "type": "function"
        },
        {
            "inputs": [
                {
                    "internalType": "uint256",
                    "name": "_amount",
                    "type": "uint256"
                }
            ],
            "name": "enterStaking",
            "outputs": [],
            "stateMutability": "nonpayable",
            "type": "function"
        },
        {
            "inputs": [
                {
                    "internalType": "uint256",
                    "name": "_from",
                    "type": "uint256"
                },
                {
                    "internalType": "uint256",
                    "name": "_to",
                    "type": "uint256"
                }
            ],
            "name": "getMultiplier",
            "outputs": [
                {
                    "internalType": "uint256",
                    "name": "",
                    "type": "uint256"
                }
            ],
            "stateMutability": "view",
            "type": "function"
        },
        {
            "inputs": [
                {
                    "internalType": "address",
                    "name": "_recipient",
                    "type": "address"
                }
            ],
            "name": "isCreator",
            "outputs": [
                {
                    "internalType": "bool",
                    "name": "",
                    "type": "bool"
                }
            ],
            "stateMutability": "view",
            "type": "function"
        },
        {
            "inputs": [
                {
                    "internalType": "uint256",
                    "name": "_amount",
                    "type": "uint256"
                }
            ],
            "name": "leaveStaking",
            "outputs": [],
            "stateMutability": "nonpayable",
            "type": "function"
        },
        {
            "inputs": [],
            "name": "massUpdatePools",
            "outputs": [],
            "stateMutability": "nonpayable",
            "type": "function"
        },
        {
            "inputs": [
                {
                    "internalType": "uint256",
                    "name": "_pid",
                    "type": "uint256"
                }
            ],
            "name": "migrate",
            "outputs": [],
            "stateMutability": "nonpayable",
            "type": "function"
        },
        {
            "inputs": [],
            "name": "migrator",
            "outputs": [
                {
                    "internalType": "contract IMigratorChef",
                    "name": "",
                    "type": "address"
                }
            ],
            "stateMutability": "view",
            "type": "function"
        },
        {
            "inputs": [
                {
                    "internalType": "address",
                    "name": "_dao",
                    "type": "address"
                }
            ],
            "name": "newDAO",
            "outputs": [],
            "stateMutability": "nonpayable",
            "type": "function"
        },
        {
            "inputs": [
                {
                    "internalType": "address",
                    "name": "_team",
                    "type": "address"
                }
            ],
            "name": "newTeam",
            "outputs": [],
            "stateMutability": "nonpayable",
            "type": "function"
        },
        {
            "inputs": [],
            "name": "owner",
            "outputs": [
                {
                    "internalType": "address",
                    "name": "",
                    "type": "address"
                }
            ],
            "stateMutability": "view",
            "type": "function"
        },
        {
            "inputs": [
                {
                    "internalType": "uint256",
                    "name": "_pid",
                    "type": "uint256"
                },
                {
                    "internalType": "address",
                    "name": "_user",
                    "type": "address"
                }
            ],
            "name": "pendingSoul",
            "outputs": [
                {
                    "internalType": "uint256",
                    "name": "",
                    "type": "uint256"
                }
            ],
            "stateMutability": "view",
            "type": "function"
        },
        {
            "inputs": [
                {
                    "internalType": "uint256",
                    "name": "",
                    "type": "uint256"
                }
            ],
            "name": "poolInfo",
            "outputs": [
                {
                    "internalType": "contract IERC20",
                    "name": "lpToken",
                    "type": "address"
                },
                {
                    "internalType": "uint256",
                    "name": "allocPoint",
                    "type": "uint256"
                },
                {
                    "internalType": "uint256",
                    "name": "lastRewardTime",
                    "type": "uint256"
                },
                {
                    "internalType": "uint256",
                    "name": "accSoulPerShare",
                    "type": "uint256"
                }
            ],
            "stateMutability": "view",
            "type": "function"
        },
        {
            "inputs": [],
            "name": "poolLength",
            "outputs": [
                {
                    "internalType": "uint256",
                    "name": "",
                    "type": "uint256"
                }
            ],
            "stateMutability": "view",
            "type": "function"
        },
        {
            "inputs": [],
            "name": "power",
            "outputs": [
                {
                    "internalType": "uint256",
                    "name": "",
                    "type": "uint256"
                }
            ],
            "stateMutability": "view",
            "type": "function"
        },
        {
            "inputs": [],
            "name": "renounceOwnership",
            "outputs": [],
            "stateMutability": "nonpayable",
            "type": "function"
        },
        {
            "inputs": [],
            "name": "seance",
            "outputs": [
                {
                    "internalType": "contract SeanceCircle",
                    "name": "",
                    "type": "address"
                }
            ],
            "stateMutability": "view",
            "type": "function"
        },
        {
            "inputs": [
                {
                    "internalType": "uint256",
                    "name": "_pid",
                    "type": "uint256"
                },
                {
                    "internalType": "uint256",
                    "name": "_allocPoint",
                    "type": "uint256"
                },
                {
                    "internalType": "bool",
                    "name": "_withUpdate",
                    "type": "bool"
                }
            ],
            "name": "set",
            "outputs": [],
            "stateMutability": "nonpayable",
            "type": "function"
        },
        {
            "inputs": [
                {
                    "internalType": "contract IMigratorChef",
                    "name": "_migrator",
                    "type": "address"
                }
            ],
            "name": "setMigrator",
            "outputs": [],
            "stateMutability": "nonpayable",
            "type": "function"
        },
        {
            "inputs": [],
            "name": "soul",
            "outputs": [
                {
                    "internalType": "contract SoulToken",
                    "name": "",
                    "type": "address"
                }
            ],
            "stateMutability": "view",
            "type": "function"
        },
        {
            "inputs": [],
            "name": "soulPerSecond",
            "outputs": [
                {
                    "internalType": "uint256",
                    "name": "",
                    "type": "uint256"
                }
            ],
            "stateMutability": "view",
            "type": "function"
        },
        {
            "inputs": [],
            "name": "startTime",
            "outputs": [
                {
                    "internalType": "uint256",
                    "name": "",
                    "type": "uint256"
                }
            ],
            "stateMutability": "view",
            "type": "function"
        },
        {
            "inputs": [],
            "name": "team",
            "outputs": [
                {
                    "internalType": "address",
                    "name": "",
                    "type": "address"
                }
            ],
            "stateMutability": "view",
            "type": "function"
        },
        {
            "inputs": [],
            "name": "totalAllocPoint",
            "outputs": [
                {
                    "internalType": "uint256",
                    "name": "",
                    "type": "uint256"
                }
            ],
            "stateMutability": "view",
            "type": "function"
        },
        {
            "inputs": [],
            "name": "totalChains",
            "outputs": [
                {
                    "internalType": "uint256",
                    "name": "",
                    "type": "uint256"
                }
            ],
            "stateMutability": "view",
            "type": "function"
        },
        {
            "inputs": [],
            "name": "totalPower",
            "outputs": [
                {
                    "internalType": "uint256",
                    "name": "",
                    "type": "uint256"
                }
            ],
            "stateMutability": "view",
            "type": "function"
        },
        {
            "inputs": [
                {
                    "internalType": "address",
                    "name": "newOwner",
                    "type": "address"
                }
            ],
            "name": "transferOwnership",
            "outputs": [],
            "stateMutability": "nonpayable",
            "type": "function"
        },
        {
            "inputs": [
                {
                    "internalType": "uint256",
                    "name": "multiplierNumber",
                    "type": "uint256"
                }
            ],
            "name": "updateMultiplier",
            "outputs": [],
            "stateMutability": "nonpayable",
            "type": "function"
        },
        {
            "inputs": [
                {
                    "internalType": "uint256",
                    "name": "_pid",
                    "type": "uint256"
                }
            ],
            "name": "updatePool",
            "outputs": [],
            "stateMutability": "nonpayable",
            "type": "function"
        },
        {
            "inputs": [
                {
                    "internalType": "uint256",
                    "name": "_power",
                    "type": "uint256"
                }
            ],
            "name": "updatePower",
            "outputs": [],
            "stateMutability": "nonpayable",
            "type": "function"
        },
        {
            "inputs": [
                {
                    "internalType": "uint256",
                    "name": "",
                    "type": "uint256"
                },
                {
                    "internalType": "address",
                    "name": "",
                    "type": "address"
                }
            ],
            "name": "userInfo",
            "outputs": [
                {
                    "internalType": "uint256",
                    "name": "amount",
                    "type": "uint256"
                },
                {
                    "internalType": "uint256",
                    "name": "rewardDebt",
                    "type": "uint256"
                }
            ],
            "stateMutability": "view",
            "type": "function"
        },
        {
            "inputs": [
                {
                    "internalType": "uint256",
                    "name": "_pid",
                    "type": "uint256"
                },
                {
                    "internalType": "uint256",
                    "name": "_amount",
                    "type": "uint256"
                }
            ],
            "name": "withdraw",
            "outputs": [],
            "stateMutability": "nonpayable",
            "type": "function"
        }
    ],
    "bytecode": "6080604052600180546001600160a01b031990811673ec51e98b14cc8327110ba25c1395f1006d312e2b17918290556002805482166001600160a01b0393841617905560038054821673f9d9b96f213acc6434f16fff5d932fa85cd179f31790819055600480548316919093161790915560058054821633908117909155600680549092161790556934f086f3b33b68400000600c819055620000a7906201518090620002d4565b600d556001600e5542600f55348015620000c057600080fd5b50604051620026ca380380620026ca833981016040819052620000e39162000283565b620000f7620000f16200022f565b62000233565b600884905560098390556200010d8183620002b9565b600a55600b819055604080516080810182526002546001600160a01b0390811682526103e860208301818152600f549484019485526000606085018181526011805460018101825590835295517f31ecc21a745e3968a04e9570e4425bc18fa8019c68028196b546d1669c200c68600490970296870180546001600160a01b031916919096161790945590517f31ecc21a745e3968a04e9570e4425bc18fa8019c68028196b546d1669c200c6985015593517f31ecc21a745e3968a04e9570e4425bc18fa8019c68028196b546d1669c200c6a84015590517f31ecc21a745e3968a04e9570e4425bc18fa8019c68028196b546d1669c200c6b9092019190915560105560098054916200022083620002f5565b91905055505050505062000329565b3390565b600080546001600160a01b038381166001600160a01b0319831681178455604051919092169283917f8be0079c531659141344cd1fd0a4f28419497f9722a3daafe3b4186f6b6457e09190a35050565b6000806000806080858703121562000299578384fd5b505082516020840151604085015160609095015191969095509092509050565b60008219821115620002cf57620002cf62000313565b500190565b600082620002f057634e487b7160e01b81526012600452602481fd5b500490565b60006000198214156200030c576200030c62000313565b5060010190565b634e487b7160e01b600052601160045260246000fd5b61239180620003396000396000f3fe608060405234801561001057600080fd5b506004361061023d5760003560e01c8063715018a61161013b57806393f1a40b116100b8578063e06f926f1161007c578063e06f926f1461045d578063e2bbb15814610470578063e2f0edf614610483578063efd460651461048b578063f2fde38b1461049e5761023d565b806393f1a40b146104065780639a8a059214610427578063bfafcad51461042f578063d345137914610442578063db3ad22c146104555761023d565b806385f2aef2116100ff57806385f2aef2146103bb5780638aa28550146103c35780638da5cb5b146103cb5780638dbb1e3a146103d3578063933166e1146103e65761023d565b8063715018a61461039357806378e979251461039b5780637cd07e47146103a35780637d500ec8146103ab578063815b7a8c146103b35761023d565b80634162169f116101c957806351eb05a61161018d57806351eb05a61461034a5780635f9bf6891461035d5780635ffe614614610365578063630b5ba11461037857806364482f79146103805761023d565b80634162169f146102ff578063441a3e7014610314578063454b0608146103275780634a4d59fa1461033a5780634ca01d45146103425761023d565b80631eaaa045116102105780631eaaa045146102a057806321687444146102b357806323cf3118146102c65780633b9dce05146102d957806341441d3b146102ec5761023d565b8063081e3eda146102425780631058d281146102605780631526fe271461027557806317caf6f114610298575b600080fd5b61024a6104b1565b604051610257919061225e565b60405180910390f35b61027361026e366004611e47565b6104b7565b005b610288610283366004611e47565b610702565b6040516102579493929190611f91565b61024a610746565b6102736102ae366004611ea6565b61074c565b6102736102c1366004611df3565b61091b565b6102736102d4366004611df3565b61098a565b6102736102e7366004611df3565b6109eb565b6102736102fa366004611e47565b610a9c565b610307610cc4565b6040516102579190611f35565b610273610322366004611ee7565b610cd3565b610273610335366004611e47565b610eaf565b61024a611153565b610307611159565b610273610358366004611e47565b611168565b61024a611410565b610273610373366004611e47565b611416565b61027361145a565b61027361038e366004611f08565b611485565b6102736115b8565b61024a611603565b610307611609565b61024a611618565b61030761161e565b61030761162d565b61024a61163c565b610307611642565b61024a6103e1366004611ee7565b611651565b6103f96103f4366004611df3565b611672565b6040516102579190611f86565b610419610414366004611e77565b611687565b604051610257929190612267565b61024a6116ab565b61024a61043d366004611e77565b6116b1565b610273610450366004611e47565b611842565b61024a6118f1565b61027361046b366004611df3565b6118f7565b61027361047e366004611ee7565b611966565b61024a611b1d565b6103f9610499366004611df3565b611b23565b6102736104ac366004611df3565b611b41565b60115490565b600060116000815481106104db57634e487b7160e01b600052603260045260246000fd5b600091825260208083203384527f7e7fa33969761a458e04f477e039a608702b4f924981d6653935a8319a08ad7b90915260409092208054600490920290920192508311156105455760405162461bcd60e51b815260040161053c906121fb565b60405180910390fd5b61054f6000611168565b6000816001015464e8d4a510008460030154846000015461057091906122d1565b61057a91906122b1565b61058491906122f0565b90508015610596576105963382611baf565b83156106305781546105a99085906122f0565b8255825460405163a9059cbb60e01b81526001600160a01b039091169063a9059cbb906105dc9033908890600401611f6d565b602060405180830381600087803b1580156105f657600080fd5b505af115801561060a573d6000803e3d6000fd5b505050506040513d601f19601f8201168201806040525081019061062e9190611e0f565b505b6003830154825464e8d4a5100091610647916122d1565b61065191906122b1565b600183015560048054604051632770a7eb60e21b81526001600160a01b0390911691639dc29fac91610687913391899101611f6d565b600060405180830381600087803b1580156106a157600080fd5b505af11580156106b5573d6000803e3d6000fd5b505050506000336001600160a01b03167ff279e6a1f5e320cca91135676d9cb6e44ca8a08c0b88342bcdb1144f6511b568866040516106f4919061225e565b60405180910390a350505050565b6011818154811061071257600080fd5b600091825260209091206004909102018054600182015460028301546003909301546001600160a01b039092169350919084565b60105481565b61075533611b23565b806107785750610763611642565b6001600160a01b0316336001600160a01b0316145b8061078d57506006546001600160a01b031633145b6107a95760405162461bcd60e51b815260040161053c90611ffd565b80156107b7576107b761145a565b6000600f5442116107ca57600f546107cc565b425b9050836010546107dc9190612299565b601055604080516080810182526001600160a01b0385811682526020820187815292820184815260006060840181815260118054600181018255925293517f31ecc21a745e3968a04e9570e4425bc18fa8019c68028196b546d1669c200c68600490920291820180546001600160a01b031916919094161790925592517f31ecc21a745e3968a04e9570e4425bc18fa8019c68028196b546d1669c200c6982015591517f31ecc21a745e3968a04e9570e4425bc18fa8019c68028196b546d1669c200c6a830155517f31ecc21a745e3968a04e9570e4425bc18fa8019c68028196b546d1669c200c6b909101556108d1611c16565b6011546010546040517f20b669aa921947a6d9602a921d2db3b6b30f21b9aca98580fa3972530330b27a9161090c9184918991899190612275565b60405180910390a15050505050565b6006546001600160a01b031633148061094c5750610937611642565b6001600160a01b0316336001600160a01b0316145b6109685760405162461bcd60e51b815260040161053c9061211f565b600680546001600160a01b0319166001600160a01b0392909216919091179055565b610992611d18565b6001600160a01b03166109a3611642565b6001600160a01b0316146109c95760405162461bcd60e51b815260040161053c906120ea565b600780546001600160a01b0319166001600160a01b0392909216919091179055565b6109f3611d18565b6001600160a01b0316610a04611642565b6001600160a01b031614610a2a5760405162461bcd60e51b815260040161053c906120ea565b610a3381611b23565b15610a505760405162461bcd60e51b815260040161053c90612034565b6001600160a01b038116600081815260136020526040808220805460ff19166001179055517f021a687fbe334e9e815cee8b399c0bc42e82356eb7f63a09ddb558a25d3dcdbd9190a250565b60006011600081548110610ac057634e487b7160e01b600052603260045260246000fd5b600091825260208083203384527f7e7fa33969761a458e04f477e039a608702b4f924981d6653935a8319a08ad7b90915260408320600490920201925090610b0790611168565b805415610b57576000816001015464e8d4a5100084600301548460000154610b2f91906122d1565b610b3991906122b1565b610b4391906122f0565b90508015610b5557610b553382611baf565b505b8215610bf35781546040516323b872dd60e01b81526001600160a01b03909116906323b872dd90610b9090339030908890600401611f49565b602060405180830381600087803b158015610baa57600080fd5b505af1158015610bbe573d6000803e3d6000fd5b505050506040513d601f19601f82011682018060405250810190610be29190611e0f565b508054610bf0908490612299565b81555b6003820154815464e8d4a5100091610c0a916122d1565b610c1491906122b1565b6001820155600480546040516340c10f1960e01b81526001600160a01b03909116916340c10f1991610c4a913391889101611f6d565b600060405180830381600087803b158015610c6457600080fd5b505af1158015610c78573d6000803e3d6000fd5b505050506000336001600160a01b03167f90890809c654f11d6e72a28fa60149770a0d11ec6c92319d6ceb2bb0a4ea1a1585604051610cb7919061225e565b60405180910390a3505050565b6006546001600160a01b031681565b81610cf05760405162461bcd60e51b815260040161053c9061207c565b600060118381548110610d1357634e487b7160e01b600052603260045260246000fd5b600091825260208083208684526012825260408085203386529092529220805460049092029092019250831115610d5c5760405162461bcd60e51b815260040161053c906121fb565b610d6584611168565b6000816001015464e8d4a5100084600301548460000154610d8691906122d1565b610d9091906122b1565b610d9a91906122f0565b90508015610dac57610dac3382611baf565b8315610e46578154610dbf9085906122f0565b8255825460405163a9059cbb60e01b81526001600160a01b039091169063a9059cbb90610df29033908890600401611f6d565b602060405180830381600087803b158015610e0c57600080fd5b505af1158015610e20573d6000803e3d6000fd5b505050506040513d601f19601f82011682018060405250810190610e449190611e0f565b505b6003830154825464e8d4a5100091610e5d916122d1565b610e6791906122b1565b6001830155604051859033907ff279e6a1f5e320cca91135676d9cb6e44ca8a08c0b88342bcdb1144f6511b56890610ea090889061225e565b60405180910390a35050505050565b6007546001600160a01b0316610ed75760405162461bcd60e51b815260040161053c906121c4565b600060118281548110610efa57634e487b7160e01b600052603260045260246000fd5b60009182526020822060049182020180546040516370a0823160e01b81529194506001600160a01b0316929183916370a0823191610f3a91309101611f35565b60206040518083038186803b158015610f5257600080fd5b505afa158015610f66573d6000803e3d6000fd5b505050506040513d601f19601f82011682018060405250810190610f8a9190611e5f565b60075460405163095ea7b360e01b81529192506001600160a01b038085169263095ea7b392610fbf9216908590600401611f6d565b602060405180830381600087803b158015610fd957600080fd5b505af1158015610fed573d6000803e3d6000fd5b505050506040513d601f19601f820116820180604052508101906110119190611e0f565b5060075460405163ce5494bb60e01b81526000916001600160a01b03169063ce5494bb90611043908690600401611f35565b602060405180830381600087803b15801561105d57600080fd5b505af1158015611071573d6000803e3d6000fd5b505050506040513d601f19601f820116820180604052508101906110959190611e2b565b6040516370a0823160e01b81529091506001600160a01b038216906370a08231906110c4903090600401611f35565b60206040518083038186803b1580156110dc57600080fd5b505afa1580156110f0573d6000803e3d6000fd5b505050506040513d601f19601f820116820180604052508101906111149190611e5f565b82146111325760405162461bcd60e51b815260040161053c90612227565b83546001600160a01b0319166001600160a01b039190911617909255505050565b600b5481565b6004546001600160a01b031681565b60006011828154811061118b57634e487b7160e01b600052603260045260246000fd5b90600052602060002090600402019050806002015442116111ac575061140d565b80546040516370a0823160e01b81526000916001600160a01b0316906370a08231906111dc903090600401611f35565b60206040518083038186803b1580156111f457600080fd5b505afa158015611208573d6000803e3d6000fd5b505050506040513d601f19601f8201168201806040525081019061122c9190611e5f565b90508061124057504260029091015561140d565b6000611250836002015442611651565b905060006010548460010154600d548461126a91906122d1565b61127491906122d1565b61127e91906122b1565b6002546005549192506001600160a01b03908116916340c10f1991166112a56008856122b1565b6040518363ffffffff1660e01b81526004016112c2929190611f6d565b600060405180830381600087803b1580156112dc57600080fd5b505af11580156112f0573d6000803e3d6000fd5b50506002546006546001600160a01b0391821693506340c10f199250166113186008856122b1565b6040518363ffffffff1660e01b8152600401611335929190611f6d565b600060405180830381600087803b15801561134f57600080fd5b505af1158015611363573d6000803e3d6000fd5b5050600254600480546040516340c10f1960e01b81526001600160a01b0393841695506340c10f19945061139d9390911691869101611f6d565b600060405180830381600087803b1580156113b757600080fd5b505af11580156113cb573d6000803e3d6000fd5b50505050828164e8d4a510006113e191906122d1565b6113eb91906122b1565b84600301546113fa9190612299565b6003850155505042600290920191909155505b50565b600d5481565b61141e611d18565b6001600160a01b031661142f611642565b6001600160a01b0316146114555760405162461bcd60e51b815260040161053c906120ea565b600e55565b60115460005b818110156114815761147181611168565b61147a81612307565b9050611460565b5050565b61148d611642565b6001600160a01b0316336001600160a01b031614806114b657506006546001600160a01b031633145b6114d25760405162461bcd60e51b815260040161053c9061218d565b80156114e0576114e061145a565b60006011848154811061150357634e487b7160e01b600052603260045260246000fd5b9060005260206000209060040201600101549050826011858154811061153957634e487b7160e01b600052603260045260246000fd5b90600052602060002090600402016001018190555082811461157957828160105461156491906122f0565b61156e9190612299565b601055611579611c16565b7fd88f859573973e938da5bf3e5100c16eee2090fa720e05ae3d452b4cd05cdcfd84846040516115aa929190612267565b60405180910390a150505050565b6115c0611d18565b6001600160a01b03166115d1611642565b6001600160a01b0316146115f75760405162461bcd60e51b815260040161053c906120ea565b6116016000611d1c565b565b600f5481565b6007546001600160a01b031681565b600c5481565b6002546001600160a01b031681565b6005546001600160a01b031681565b600e5481565b6000546001600160a01b031690565b6000600e548361166191906122d1565b61166b90836122f0565b9392505050565b60136020526000908152604090205460ff1681565b60126020908152600092835260408084209091529082529020805460019091015482565b60085481565b600080601184815481106116d557634e487b7160e01b600052603260045260246000fd5b600091825260208083208784526012825260408085206001600160a01b038981168752935280852060049485029092016003810154815492516370a0823160e01b815291975092959294929391909116916370a082319161173891309101611f35565b60206040518083038186803b15801561175057600080fd5b505afa158015611764573d6000803e3d6000fd5b505050506040513d601f19601f820116820180604052508101906117889190611e5f565b905083600201544211801561179c57508015155b1561180a5760006117b1856002015442611651565b905060006010548660010154600d54846117cb91906122d1565b6117d591906122d1565b6117df91906122b1565b9050826117f18264e8d4a510006122d1565b6117fb91906122b1565b6118059085612299565b935050505b6001830154835464e8d4a51000906118239085906122d1565b61182d91906122b1565b61183791906122f0565b979650505050505050565b61184a611d18565b6001600160a01b031661185b611642565b6001600160a01b0316146118815760405162461bcd60e51b815260040161053c906120ea565b6000600b54600a5461189391906122f0565b905061189f8282612299565b600a819055600b546118b091611d6c565b7f0832fd44307ef52294a57bbef2619785093f4ba38f2c8ee42255c24ee5f7c43c600b54600a546040516118e5929190612267565b60405180910390a15050565b600a5481565b6005546001600160a01b03163314806119285750611913611642565b6001600160a01b0316336001600160a01b0316145b6119445760405162461bcd60e51b815260040161053c90612156565b600580546001600160a01b0319166001600160a01b0392909216919091179055565b816119835760405162461bcd60e51b815260040161053c906120b3565b6000601183815481106119a657634e487b7160e01b600052603260045260246000fd5b600091825260208083208684526012825260408085203386529092529220600490910290910191506119d784611168565b805415611a27576000816001015464e8d4a51000846003015484600001546119ff91906122d1565b611a0991906122b1565b611a1391906122f0565b90508015611a2557611a253382611baf565b505b8215611ac35781546040516323b872dd60e01b81526001600160a01b03909116906323b872dd90611a6090339030908890600401611f49565b602060405180830381600087803b158015611a7a57600080fd5b505af1158015611a8e573d6000803e3d6000fd5b505050506040513d601f19601f82011682018060405250810190611ab29190611e0f565b508054611ac0908490612299565b81555b6003820154815464e8d4a5100091611ada916122d1565b611ae491906122b1565b6001820155604051849033907f90890809c654f11d6e72a28fa60149770a0d11ec6c92319d6ceb2bb0a4ea1a15906106f490879061225e565b60095481565b6001600160a01b031660009081526013602052604090205460ff1690565b611b49611d18565b6001600160a01b0316611b5a611642565b6001600160a01b031614611b805760405162461bcd60e51b815260040161053c906120ea565b6001600160a01b038116611ba65760405162461bcd60e51b815260040161053c90611fb7565b61140d81611d1c565b60048054604051635950a15560e11b81526001600160a01b039091169163b2a142aa91611be0918691869101611f6d565b600060405180830381600087803b158015611bfa57600080fd5b505af1158015611c0e573d6000803e3d6000fd5b505050505050565b601154600060015b82811015611c765760118181548110611c4757634e487b7160e01b600052603260045260246000fd5b90600052602060002090600402016001015482611c649190612299565b9150611c6f81612307565b9050611c1e565b50801561148157611c886003826122b1565b9050806011600081548110611cad57634e487b7160e01b600052603260045260246000fd5b906000526020600020906004020160010154601054611ccc91906122f0565b611cd69190612299565b601081905550806011600081548110611cff57634e487b7160e01b600052603260045260246000fd5b9060005260206000209060040201600101819055505050565b3390565b600080546001600160a01b038381166001600160a01b0319831681178455604051919092169283917f8be0079c531659141344cd1fd0a4f28419497f9722a3daafe3b4186f6b6457e09190a35050565b6000611d7882846122b1565b600954909150611d92826934f086f3b33b684000006122d1565b611d9c91906122b1565b600c819055611daf9062015180906122b1565b600d819055600c546040517fcd7c861d63893659123f817b192b8621ff1923a7c4589c260173cedcf9e986a692611de69291612267565b60405180910390a1505050565b600060208284031215611e04578081fd5b813561166b81612338565b600060208284031215611e20578081fd5b815161166b8161234d565b600060208284031215611e3c578081fd5b815161166b81612338565b600060208284031215611e58578081fd5b5035919050565b600060208284031215611e70578081fd5b5051919050565b60008060408385031215611e89578081fd5b823591506020830135611e9b81612338565b809150509250929050565b600080600060608486031215611eba578081fd5b833592506020840135611ecc81612338565b91506040840135611edc8161234d565b809150509250925092565b60008060408385031215611ef9578182fd5b50508035926020909101359150565b600080600060608486031215611f1c578283fd5b83359250602084013591506040840135611edc8161234d565b6001600160a01b0391909116815260200190565b6001600160a01b039384168152919092166020820152604081019190915260600190565b6001600160a01b03929092168252602082015260400190565b901515815260200190565b6001600160a01b0394909416845260208401929092526040830152606082015260800190565b60208082526026908201527f4f776e61626c653a206e6577206f776e657220697320746865207a65726f206160408201526564647265737360d01b606082015260800190565b6020808252601a908201527f6f6e6c79206d696e74657220616c6c6f77656420746f20616464000000000000604082015260600190565b60208082526028908201527f616464546f43726561746f72733a20616c726561647920616464656420746f2060408201526763726561746f727360c01b606082015260800190565b6020808252601a908201527f776974686472617720534f554c20627920756e7374616b696e67000000000000604082015260600190565b60208082526017908201527f6465706f73697420534f554c206279207374616b696e67000000000000000000604082015260600190565b6020808252818101527f4f776e61626c653a2063616c6c6572206973206e6f7420746865206f776e6572604082015260600190565b6020808252601c908201527f6e657744414f3a206d7573742062652064616f206f72206f776e657200000000604082015260600190565b6020808252601e908201527f6e65775465616d3a206d757374206265207465616d206f72206f776e65720000604082015260600190565b60208082526019908201527f7365743a206d757374206265206f776e6572206f722064616f00000000000000604082015260600190565b60208082526018908201527f6d6967726174653a206e6f206d69677261746f72207365740000000000000000604082015260600190565b6020808252601290820152711dda5d1a191c985dce881b9bdd0819dbdbd960721b604082015260600190565b6020808252601d908201527f6d6967726174653a20696e73756666696369656e742062616c616e6365000000604082015260600190565b90815260200190565b918252602082015260400190565b93845260208401929092526001600160a01b03166040830152606082015260800190565b600082198211156122ac576122ac612322565b500190565b6000826122cc57634e487b7160e01b81526012600452602481fd5b500490565b60008160001904831182151516156122eb576122eb612322565b500290565b60008282101561230257612302612322565b500390565b600060001982141561231b5761231b612322565b5060010190565b634e487b7160e01b600052601160045260246000fd5b6001600160a01b038116811461140d57600080fd5b801515811461140d57600080fdfea2646970667358221220e765b1698ac0b1691cd791fe171721c0a967b05f9b67a01640b7caee9b23ac7564736f6c63430008000033",
    "sourcePath": "/Users/Uni/Documents/GitHub/soulswap/soulswap-farms/contracts/MasterChef.sol",
    "compiler": {
        "name": "solc",
        "version": "0.8.0+commit.c7dfd78e"
    },
    "functionHashes": {
        "BONUS_MULTIPLIER()": "8aa28550",
        "add(uint256,address,bool)": "1eaaa045",
        "addCreator(address)": "3b9dce05",
        "chainId()": "9a8a0592",
        "creators(address)": "933166e1",
        "dailySoul()": "7d500ec8",
        "dao()": "4162169f",
        "deposit(uint256,uint256)": "e2bbb158",
        "enterStaking(uint256)": "41441d3b",
        "getMultiplier(uint256,uint256)": "8dbb1e3a",
        "isCreator(address)": "efd46065",
        "leaveStaking(uint256)": "1058d281",
        "massUpdatePools()": "630b5ba1",
        "migrate(uint256)": "454b0608",
        "migrator()": "7cd07e47",
        "newDAO(address)": "21687444",
        "newTeam(address)": "e06f926f",
        "owner()": "8da5cb5b",
        "pendingSoul(uint256,address)": "bfafcad5",
        "poolInfo(uint256)": "1526fe27",
        "poolLength()": "081e3eda",
        "power()": "4a4d59fa",
        "renounceOwnership()": "715018a6",
        "seance()": "4ca01d45",
        "set(uint256,uint256,bool)": "64482f79",
        "setMigrator(address)": "23cf3118",
        "soul()": "815b7a8c",
        "soulPerSecond()": "5f9bf689",
        "startTime()": "78e97925",
        "team()": "85f2aef2",
        "totalAllocPoint()": "17caf6f1",
        "totalChains()": "e2f0edf6",
        "totalPower()": "db3ad22c",
        "transferOwnership(address)": "f2fde38b",
        "updateMultiplier(uint256)": "5ffe6146",
        "updatePool(uint256)": "51eb05a6",
        "updatePower(uint256)": "d3451379",
        "userInfo(uint256,address)": "93f1a40b",
        "withdraw(uint256,uint256)": "441a3e70"
    },
    "gasEstimates": {
        "creation": {
            "codeDepositCost": "1821000",
            "executionCost": "infinite",
            "totalCost": "infinite"
        },
        "external": {
            "BONUS_MULTIPLIER()": "1095",
            "add(uint256,address,bool)": "infinite",
            "addCreator(address)": "24331",
            "chainId()": "1095",
            "creators(address)": "1391",
            "dailySoul()": "1140",
            "dao()": "1116",
            "deposit(uint256,uint256)": "infinite",
            "enterStaking(uint256)": "infinite",
            "getMultiplier(uint256,uint256)": "1413",
            "isCreator(address)": "1386",
            "leaveStaking(uint256)": "infinite",
            "massUpdatePools()": "infinite",
            "migrate(uint256)": "infinite",
            "migrator()": "1160",
            "newDAO(address)": "22981",
            "newTeam(address)": "22957",
            "owner()": "1159",
            "pendingSoul(uint256,address)": "infinite",
            "poolInfo(uint256)": "4651",
            "poolLength()": "1075",
            "power()": "1140",
            "renounceOwnership()": "23550",
            "seance()": "1204",
            "set(uint256,uint256,bool)": "infinite",
            "setMigrator(address)": "22185",
            "soul()": "1204",
            "soulPerSecond()": "1095",
            "startTime()": "1096",
            "team()": "1115",
            "totalAllocPoint()": "1141",
            "totalChains()": "1116",
            "totalPower()": "1161",
            "transferOwnership(address)": "infinite",
            "updateMultiplier(uint256)": "21243",
            "updatePool(uint256)": "infinite",
            "updatePower(uint256)": "infinite",
            "userInfo(uint256,address)": "2227",
            "withdraw(uint256,uint256)": "infinite"
        },
        "internal": {
            "safeSoulTransfer(address,uint256)": "infinite",
            "updateRewards(uint256,uint256)": "infinite",
            "updateStakingPool()": "infinite"
        }
    }
}