{
    "contractName": "MockSoulSummoner",
    "abi": [
        {
            "inputs": [],
            "stateMutability": "nonpayable",
            "type": "constructor"
        },
        {
            "anonymous": false,
            "inputs": [
                {
                    "indexed": false,
                    "internalType": "address",
                    "name": "dao",
                    "type": "address"
                },
                {
                    "indexed": false,
                    "internalType": "address",
                    "name": "team",
                    "type": "address"
                }
            ],
            "name": "AccountsUpdated",
            "type": "event"
        },
        {
            "anonymous": false,
            "inputs": [
                {
                    "indexed": true,
                    "internalType": "address",
                    "name": "user",
                    "type": "address"
                },
                {
                    "indexed": true,
                    "internalType": "uint256",
                    "name": "pid",
                    "type": "uint256"
                },
                {
                    "indexed": false,
                    "internalType": "uint256",
                    "name": "amount",
                    "type": "uint256"
                }
            ],
            "name": "Deposit",
            "type": "event"
        },
        {
            "anonymous": false,
            "inputs": [
                {
                    "indexed": false,
                    "internalType": "uint256",
                    "name": "_pid",
                    "type": "uint256"
                },
                {
                    "indexed": false,
                    "internalType": "address",
                    "name": "_user",
                    "type": "address"
                },
                {
                    "indexed": false,
                    "internalType": "uint256",
                    "name": "_time",
                    "type": "uint256"
                }
            ],
            "name": "DepositRevised",
            "type": "event"
        },
        {
            "anonymous": false,
            "inputs": [
                {
                    "indexed": false,
                    "internalType": "address",
                    "name": "team",
                    "type": "address"
                },
                {
                    "indexed": false,
                    "internalType": "address",
                    "name": "dao",
                    "type": "address"
                },
                {
                    "indexed": false,
                    "internalType": "address",
                    "name": "soul",
                    "type": "address"
                },
                {
                    "indexed": false,
                    "internalType": "address",
                    "name": "seance",
                    "type": "address"
                },
                {
                    "indexed": false,
                    "internalType": "uint256",
                    "name": "totalAllocPoint",
                    "type": "uint256"
                },
                {
                    "indexed": false,
                    "internalType": "uint256",
                    "name": "weight",
                    "type": "uint256"
                }
            ],
            "name": "Initialized",
            "type": "event"
        },
        {
            "anonymous": false,
            "inputs": [
                {
                    "indexed": true,
                    "internalType": "address",
                    "name": "previousOwner",
                    "type": "address"
                },
                {
                    "indexed": true,
                    "internalType": "address",
                    "name": "newOwner",
                    "type": "address"
                }
            ],
            "name": "OwnershipTransferred",
            "type": "event"
        },
        {
            "anonymous": false,
            "inputs": [
                {
                    "indexed": false,
                    "internalType": "address",
                    "name": "account",
                    "type": "address"
                }
            ],
            "name": "Paused",
            "type": "event"
        },
        {
            "anonymous": false,
            "inputs": [
                {
                    "indexed": false,
                    "internalType": "uint256",
                    "name": "pid",
                    "type": "uint256"
                },
                {
                    "indexed": false,
                    "internalType": "uint256",
                    "name": "allocPoint",
                    "type": "uint256"
                },
                {
                    "indexed": false,
                    "internalType": "contract IERC20",
                    "name": "lpToken",
                    "type": "address"
                },
                {
                    "indexed": false,
                    "internalType": "uint256",
                    "name": "totalAllocPoint",
                    "type": "uint256"
                }
            ],
            "name": "PoolAdded",
            "type": "event"
        },
        {
            "anonymous": false,
            "inputs": [
                {
                    "indexed": false,
                    "internalType": "uint256",
                    "name": "pid",
                    "type": "uint256"
                },
                {
                    "indexed": false,
                    "internalType": "uint256",
                    "name": "allocPoint",
                    "type": "uint256"
                }
            ],
            "name": "PoolSet",
            "type": "event"
        },
        {
            "anonymous": false,
            "inputs": [
                {
                    "indexed": false,
                    "internalType": "uint256",
                    "name": "dailySoul",
                    "type": "uint256"
                },
                {
                    "indexed": false,
                    "internalType": "uint256",
                    "name": "soulPerSecond",
                    "type": "uint256"
                }
            ],
            "name": "RewardsUpdated",
            "type": "event"
        },
        {
            "anonymous": false,
            "inputs": [
                {
                    "indexed": true,
                    "internalType": "bytes32",
                    "name": "role",
                    "type": "bytes32"
                },
                {
                    "indexed": true,
                    "internalType": "bytes32",
                    "name": "previousAdminRole",
                    "type": "bytes32"
                },
                {
                    "indexed": true,
                    "internalType": "bytes32",
                    "name": "newAdminRole",
                    "type": "bytes32"
                }
            ],
            "name": "RoleAdminChanged",
            "type": "event"
        },
        {
            "anonymous": false,
            "inputs": [
                {
                    "indexed": false,
                    "internalType": "bytes32",
                    "name": "role",
                    "type": "bytes32"
                },
                {
                    "indexed": false,
                    "internalType": "bytes32",
                    "name": "supreme",
                    "type": "bytes32"
                }
            ],
            "name": "RoleDivinated",
            "type": "event"
        },
        {
            "anonymous": false,
            "inputs": [
                {
                    "indexed": true,
                    "internalType": "bytes32",
                    "name": "role",
                    "type": "bytes32"
                },
                {
                    "indexed": true,
                    "internalType": "address",
                    "name": "account",
                    "type": "address"
                },
                {
                    "indexed": true,
                    "internalType": "address",
                    "name": "sender",
                    "type": "address"
                }
            ],
            "name": "RoleGranted",
            "type": "event"
        },
        {
            "anonymous": false,
            "inputs": [
                {
                    "indexed": true,
                    "internalType": "bytes32",
                    "name": "role",
                    "type": "bytes32"
                },
                {
                    "indexed": true,
                    "internalType": "address",
                    "name": "account",
                    "type": "address"
                },
                {
                    "indexed": true,
                    "internalType": "address",
                    "name": "sender",
                    "type": "address"
                }
            ],
            "name": "RoleRevoked",
            "type": "event"
        },
        {
            "anonymous": false,
            "inputs": [
                {
                    "indexed": false,
                    "internalType": "address",
                    "name": "soul",
                    "type": "address"
                },
                {
                    "indexed": false,
                    "internalType": "address",
                    "name": "seance",
                    "type": "address"
                }
            ],
            "name": "TokensUpdated",
            "type": "event"
        },
        {
            "anonymous": false,
            "inputs": [
                {
                    "indexed": false,
                    "internalType": "address",
                    "name": "account",
                    "type": "address"
                }
            ],
            "name": "Unpaused",
            "type": "event"
        },
        {
            "anonymous": false,
            "inputs": [
                {
                    "indexed": false,
                    "internalType": "uint256",
                    "name": "weight",
                    "type": "uint256"
                },
                {
                    "indexed": false,
                    "internalType": "uint256",
                    "name": "totalWeight",
                    "type": "uint256"
                }
            ],
            "name": "WeightUpdated",
            "type": "event"
        },
        {
            "anonymous": false,
            "inputs": [
                {
                    "indexed": true,
                    "internalType": "address",
                    "name": "user",
                    "type": "address"
                },
                {
                    "indexed": true,
                    "internalType": "uint256",
                    "name": "pid",
                    "type": "uint256"
                },
                {
                    "indexed": false,
                    "internalType": "uint256",
                    "name": "amount",
                    "type": "uint256"
                },
                {
                    "indexed": false,
                    "internalType": "uint256",
                    "name": "timeStamp",
                    "type": "uint256"
                }
            ],
            "name": "Withdraw",
            "type": "event"
        },
        {
            "inputs": [],
            "name": "DEFAULT_ADMIN_ROLE",
            "outputs": [
                {
                    "internalType": "bytes32",
                    "name": "",
                    "type": "bytes32"
                }
            ],
            "stateMutability": "view",
            "type": "function"
        },
        {
            "inputs": [
                {
                    "internalType": "uint256",
                    "name": "_allocPoint",
                    "type": "uint256"
                },
                {
                    "internalType": "contract IERC20",
                    "name": "_lpToken",
                    "type": "address"
                },
                {
                    "internalType": "bool",
                    "name": "_withUpdate",
                    "type": "bool"
                }
            ],
            "name": "addPool",
            "outputs": [],
            "stateMutability": "nonpayable",
            "type": "function"
        },
        {
            "inputs": [],
            "name": "bonusMultiplier",
            "outputs": [
                {
                    "internalType": "uint256",
                    "name": "",
                    "type": "uint256"
                }
            ],
            "stateMutability": "view",
            "type": "function"
        },
        {
            "inputs": [],
            "name": "dailyDecay",
            "outputs": [
                {
                    "internalType": "uint256",
                    "name": "",
                    "type": "uint256"
                }
            ],
            "stateMutability": "view",
            "type": "function"
        },
        {
            "inputs": [],
            "name": "dailySoul",
            "outputs": [
                {
                    "internalType": "uint256",
                    "name": "",
                    "type": "uint256"
                }
            ],
            "stateMutability": "view",
            "type": "function"
        },
        {
            "inputs": [],
            "name": "dao",
            "outputs": [
                {
                    "internalType": "address",
                    "name": "",
                    "type": "address"
                }
            ],
            "stateMutability": "view",
            "type": "function"
        },
        {
            "inputs": [
                {
                    "internalType": "uint256",
                    "name": "pid",
                    "type": "uint256"
                },
                {
                    "internalType": "uint256",
                    "name": "amount",
                    "type": "uint256"
                }
            ],
            "name": "deposit",
            "outputs": [],
            "stateMutability": "nonpayable",
            "type": "function"
        },
        {
            "inputs": [
                {
                    "internalType": "uint256",
                    "name": "amount",
                    "type": "uint256"
                }
            ],
            "name": "enWei",
            "outputs": [
                {
                    "internalType": "uint256",
                    "name": "",
                    "type": "uint256"
                }
            ],
            "stateMutability": "pure",
            "type": "function"
        },
        {
            "inputs": [
                {
                    "internalType": "uint256",
                    "name": "amount",
                    "type": "uint256"
                }
            ],
            "name": "enterStaking",
            "outputs": [],
            "stateMutability": "nonpayable",
            "type": "function"
        },
        {
            "inputs": [
                {
                    "internalType": "uint256",
                    "name": "pid",
                    "type": "uint256"
                },
                {
                    "internalType": "uint256",
                    "name": "timeDelta",
                    "type": "uint256"
                }
            ],
            "name": "getFeeRate",
            "outputs": [
                {
                    "internalType": "uint256",
                    "name": "feeRate",
                    "type": "uint256"
                }
            ],
            "stateMutability": "view",
            "type": "function"
        },
        {
            "inputs": [
                {
                    "internalType": "uint256",
                    "name": "timeDelta",
                    "type": "uint256"
                }
            ],
            "name": "getFeeRateTime",
            "outputs": [
                {
                    "internalType": "uint256",
                    "name": "feeRateTime",
                    "type": "uint256"
                }
            ],
            "stateMutability": "view",
            "type": "function"
        },
        {
            "inputs": [
                {
                    "internalType": "uint256",
                    "name": "from",
                    "type": "uint256"
                },
                {
                    "internalType": "uint256",
                    "name": "to",
                    "type": "uint256"
                }
            ],
            "name": "getMultiplier",
            "outputs": [
                {
                    "internalType": "uint256",
                    "name": "",
                    "type": "uint256"
                }
            ],
            "stateMutability": "view",
            "type": "function"
        },
        {
            "inputs": [
                {
                    "internalType": "bytes32",
                    "name": "role",
                    "type": "bytes32"
                }
            ],
            "name": "getRoleAdmin",
            "outputs": [
                {
                    "internalType": "bytes32",
                    "name": "",
                    "type": "bytes32"
                }
            ],
            "stateMutability": "view",
            "type": "function"
        },
        {
            "inputs": [
                {
                    "internalType": "uint256",
                    "name": "pid",
                    "type": "uint256"
                },
                {
                    "internalType": "uint256",
                    "name": "timeDelta",
                    "type": "uint256"
                },
                {
                    "internalType": "uint256",
                    "name": "amount",
                    "type": "uint256"
                }
            ],
            "name": "getWithdrawable",
            "outputs": [
                {
                    "internalType": "uint256",
                    "name": "_feeAmount",
                    "type": "uint256"
                },
                {
                    "internalType": "uint256",
                    "name": "_withdrawable",
                    "type": "uint256"
                }
            ],
            "stateMutability": "view",
            "type": "function"
        },
        {
            "inputs": [
                {
                    "internalType": "bytes32",
                    "name": "role",
                    "type": "bytes32"
                },
                {
                    "internalType": "address",
                    "name": "account",
                    "type": "address"
                }
            ],
            "name": "grantRole",
            "outputs": [],
            "stateMutability": "nonpayable",
            "type": "function"
        },
        {
            "inputs": [
                {
                    "internalType": "bytes32",
                    "name": "role",
                    "type": "bytes32"
                }
            ],
            "name": "hasDivineRole",
            "outputs": [
                {
                    "internalType": "bool",
                    "name": "",
                    "type": "bool"
                }
            ],
            "stateMutability": "view",
            "type": "function"
        },
        {
            "inputs": [
                {
                    "internalType": "bytes32",
                    "name": "role",
                    "type": "bytes32"
                },
                {
                    "internalType": "address",
                    "name": "account",
                    "type": "address"
                }
            ],
            "name": "hasRole",
            "outputs": [
                {
                    "internalType": "bool",
                    "name": "",
                    "type": "bool"
                }
            ],
            "stateMutability": "view",
            "type": "function"
        },
        {
            "inputs": [
                {
                    "internalType": "address",
                    "name": "_soulAddress",
                    "type": "address"
                },
                {
                    "internalType": "address",
                    "name": "_seanceAddress",
                    "type": "address"
                },
                {
                    "internalType": "uint256",
                    "name": "_totalWeight",
                    "type": "uint256"
                },
                {
                    "internalType": "uint256",
                    "name": "_weight",
                    "type": "uint256"
                },
                {
                    "internalType": "uint256",
                    "name": "_stakingAlloc",
                    "type": "uint256"
                },
                {
                    "internalType": "uint256",
                    "name": "_startRate",
                    "type": "uint256"
                },
                {
                    "internalType": "uint256",
                    "name": "_dailyDecay",
                    "type": "uint256"
                }
            ],
            "name": "initialize",
            "outputs": [],
            "stateMutability": "nonpayable",
            "type": "function"
        },
        {
            "inputs": [],
            "name": "isInitialized",
            "outputs": [
                {
                    "internalType": "bool",
                    "name": "",
                    "type": "bool"
                }
            ],
            "stateMutability": "view",
            "type": "function"
        },
        {
            "inputs": [],
            "name": "isis",
            "outputs": [
                {
                    "internalType": "bytes32",
                    "name": "",
                    "type": "bytes32"
                }
            ],
            "stateMutability": "view",
            "type": "function"
        },
        {
            "inputs": [
                {
                    "internalType": "uint256",
                    "name": "amount",
                    "type": "uint256"
                }
            ],
            "name": "leaveStaking",
            "outputs": [],
            "stateMutability": "nonpayable",
            "type": "function"
        },
        {
            "inputs": [],
            "name": "maat",
            "outputs": [
                {
                    "internalType": "bytes32",
                    "name": "",
                    "type": "bytes32"
                }
            ],
            "stateMutability": "view",
            "type": "function"
        },
        {
            "inputs": [],
            "name": "massUpdatePools",
            "outputs": [],
            "stateMutability": "nonpayable",
            "type": "function"
        },
        {
            "inputs": [
                {
                    "internalType": "uint256",
                    "name": "pid",
                    "type": "uint256"
                }
            ],
            "name": "migrate",
            "outputs": [],
            "stateMutability": "nonpayable",
            "type": "function"
        },
        {
            "inputs": [],
            "name": "migrator",
            "outputs": [
                {
                    "internalType": "contract IMigrator",
                    "name": "",
                    "type": "address"
                }
            ],
            "stateMutability": "view",
            "type": "function"
        },
        {
            "inputs": [
                {
                    "internalType": "uint256",
                    "name": "amount",
                    "type": "uint256"
                }
            ],
            "name": "oneHundreth",
            "outputs": [
                {
                    "internalType": "uint256",
                    "name": "",
                    "type": "uint256"
                }
            ],
            "stateMutability": "pure",
            "type": "function"
        },
        {
            "inputs": [],
            "name": "owner",
            "outputs": [
                {
                    "internalType": "address",
                    "name": "",
                    "type": "address"
                }
            ],
            "stateMutability": "view",
            "type": "function"
        },
        {
            "inputs": [],
            "name": "paused",
            "outputs": [
                {
                    "internalType": "bool",
                    "name": "",
                    "type": "bool"
                }
            ],
            "stateMutability": "view",
            "type": "function"
        },
        {
            "inputs": [
                {
                    "internalType": "uint256",
                    "name": "pid",
                    "type": "uint256"
                },
                {
                    "internalType": "address",
                    "name": "_user",
                    "type": "address"
                }
            ],
            "name": "pendingSoul",
            "outputs": [
                {
                    "internalType": "uint256",
                    "name": "pendingAmount",
                    "type": "uint256"
                }
            ],
            "stateMutability": "view",
            "type": "function"
        },
        {
            "inputs": [
                {
                    "internalType": "uint256",
                    "name": "",
                    "type": "uint256"
                }
            ],
            "name": "poolInfo",
            "outputs": [
                {
                    "internalType": "contract IERC20",
                    "name": "lpToken",
                    "type": "address"
                },
                {
                    "internalType": "uint256",
                    "name": "allocPoint",
                    "type": "uint256"
                },
                {
                    "internalType": "uint256",
                    "name": "lastRewardTime",
                    "type": "uint256"
                },
                {
                    "internalType": "uint256",
                    "name": "accSoulPerShare",
                    "type": "uint256"
                }
            ],
            "stateMutability": "view",
            "type": "function"
        },
        {
            "inputs": [],
            "name": "poolLength",
            "outputs": [
                {
                    "internalType": "uint256",
                    "name": "",
                    "type": "uint256"
                }
            ],
            "stateMutability": "view",
            "type": "function"
        },
        {
            "inputs": [],
            "name": "renounceOwnership",
            "outputs": [],
            "stateMutability": "nonpayable",
            "type": "function"
        },
        {
            "inputs": [
                {
                    "internalType": "bytes32",
                    "name": "role",
                    "type": "bytes32"
                },
                {
                    "internalType": "address",
                    "name": "account",
                    "type": "address"
                }
            ],
            "name": "renounceRole",
            "outputs": [],
            "stateMutability": "nonpayable",
            "type": "function"
        },
        {
            "inputs": [
                {
                    "internalType": "uint256",
                    "name": "_pid",
                    "type": "uint256"
                },
                {
                    "internalType": "address",
                    "name": "_user",
                    "type": "address"
                },
                {
                    "internalType": "uint256",
                    "name": "_time",
                    "type": "uint256"
                }
            ],
            "name": "reviseDeposit",
            "outputs": [],
            "stateMutability": "nonpayable",
            "type": "function"
        },
        {
            "inputs": [
                {
                    "internalType": "bytes32",
                    "name": "role",
                    "type": "bytes32"
                },
                {
                    "internalType": "address",
                    "name": "account",
                    "type": "address"
                }
            ],
            "name": "revokeRole",
            "outputs": [],
            "stateMutability": "nonpayable",
            "type": "function"
        },
        {
            "inputs": [],
            "name": "seance",
            "outputs": [
                {
                    "internalType": "contract SeanceCircle",
                    "name": "",
                    "type": "address"
                }
            ],
            "stateMutability": "view",
            "type": "function"
        },
        {
            "inputs": [
                {
                    "internalType": "uint256",
                    "name": "pid",
                    "type": "uint256"
                },
                {
                    "internalType": "uint256",
                    "name": "allocPoint",
                    "type": "uint256"
                },
                {
                    "internalType": "bool",
                    "name": "withUpdate",
                    "type": "bool"
                }
            ],
            "name": "set",
            "outputs": [],
            "stateMutability": "nonpayable",
            "type": "function"
        },
        {
            "inputs": [
                {
                    "internalType": "contract IMigrator",
                    "name": "_migrator",
                    "type": "address"
                }
            ],
            "name": "setMigrator",
            "outputs": [],
            "stateMutability": "nonpayable",
            "type": "function"
        },
        {
            "inputs": [],
            "name": "soul",
            "outputs": [
                {
                    "internalType": "contract SoulPower",
                    "name": "",
                    "type": "address"
                }
            ],
            "stateMutability": "view",
            "type": "function"
        },
        {
            "inputs": [],
            "name": "soulPerSecond",
            "outputs": [
                {
                    "internalType": "uint256",
                    "name": "",
                    "type": "uint256"
                }
            ],
            "stateMutability": "view",
            "type": "function"
        },
        {
            "inputs": [],
            "name": "startRate",
            "outputs": [
                {
                    "internalType": "uint256",
                    "name": "",
                    "type": "uint256"
                }
            ],
            "stateMutability": "view",
            "type": "function"
        },
        {
            "inputs": [],
            "name": "startTime",
            "outputs": [
                {
                    "internalType": "uint256",
                    "name": "",
                    "type": "uint256"
                }
            ],
            "stateMutability": "view",
            "type": "function"
        },
        {
            "inputs": [
                {
                    "internalType": "bytes4",
                    "name": "interfaceId",
                    "type": "bytes4"
                }
            ],
            "name": "supportsInterface",
            "outputs": [
                {
                    "internalType": "bool",
                    "name": "",
                    "type": "bool"
                }
            ],
            "stateMutability": "view",
            "type": "function"
        },
        {
            "inputs": [],
            "name": "team",
            "outputs": [
                {
                    "internalType": "address",
                    "name": "",
                    "type": "address"
                }
            ],
            "stateMutability": "view",
            "type": "function"
        },
        {
            "inputs": [
                {
                    "internalType": "uint256",
                    "name": "pid",
                    "type": "uint256"
                }
            ],
            "name": "timeUntilNextDecrease",
            "outputs": [
                {
                    "internalType": "uint256",
                    "name": "untilNextDecay",
                    "type": "uint256"
                }
            ],
            "stateMutability": "view",
            "type": "function"
        },
        {
            "inputs": [],
            "name": "totalAllocPoint",
            "outputs": [
                {
                    "internalType": "uint256",
                    "name": "",
                    "type": "uint256"
                }
            ],
            "stateMutability": "view",
            "type": "function"
        },
        {
            "inputs": [],
            "name": "totalWeight",
            "outputs": [
                {
                    "internalType": "uint256",
                    "name": "",
                    "type": "uint256"
                }
            ],
            "stateMutability": "view",
            "type": "function"
        },
        {
            "inputs": [
                {
                    "internalType": "address",
                    "name": "newOwner",
                    "type": "address"
                }
            ],
            "name": "transferOwnership",
            "outputs": [],
            "stateMutability": "nonpayable",
            "type": "function"
        },
        {
            "inputs": [
                {
                    "internalType": "address",
                    "name": "_dao",
                    "type": "address"
                },
                {
                    "internalType": "address",
                    "name": "_team",
                    "type": "address"
                }
            ],
            "name": "updateAccounts",
            "outputs": [],
            "stateMutability": "nonpayable",
            "type": "function"
        },
        {
            "inputs": [
                {
                    "internalType": "uint256",
                    "name": "_bonusMultiplier",
                    "type": "uint256"
                }
            ],
            "name": "updateMultiplier",
            "outputs": [],
            "stateMutability": "nonpayable",
            "type": "function"
        },
        {
            "inputs": [
                {
                    "internalType": "uint256",
                    "name": "pid",
                    "type": "uint256"
                }
            ],
            "name": "updatePool",
            "outputs": [],
            "stateMutability": "nonpayable",
            "type": "function"
        },
        {
            "inputs": [
                {
                    "internalType": "address",
                    "name": "_soul",
                    "type": "address"
                },
                {
                    "internalType": "address",
                    "name": "_seance",
                    "type": "address"
                }
            ],
            "name": "updateTokens",
            "outputs": [],
            "stateMutability": "nonpayable",
            "type": "function"
        },
        {
            "inputs": [
                {
                    "internalType": "uint256",
                    "name": "_weight",
                    "type": "uint256"
                }
            ],
            "name": "updateWeight",
            "outputs": [],
            "stateMutability": "nonpayable",
            "type": "function"
        },
        {
            "inputs": [
                {
                    "internalType": "uint256",
                    "name": "_pid",
                    "type": "uint256"
                }
            ],
            "name": "userDelta",
            "outputs": [
                {
                    "internalType": "uint256",
                    "name": "",
                    "type": "uint256"
                }
            ],
            "stateMutability": "view",
            "type": "function"
        },
        {
            "inputs": [
                {
                    "internalType": "uint256",
                    "name": "",
                    "type": "uint256"
                },
                {
                    "internalType": "address",
                    "name": "",
                    "type": "address"
                }
            ],
            "name": "userInfo",
            "outputs": [
                {
                    "internalType": "uint256",
                    "name": "amount",
                    "type": "uint256"
                },
                {
                    "internalType": "uint256",
                    "name": "rewardDebt",
                    "type": "uint256"
                },
                {
                    "internalType": "uint256",
                    "name": "rewardDebtAtTime",
                    "type": "uint256"
                },
                {
                    "internalType": "uint256",
                    "name": "lastWithdrawTime",
                    "type": "uint256"
                },
                {
                    "internalType": "uint256",
                    "name": "firstDepositTime",
                    "type": "uint256"
                },
                {
                    "internalType": "uint256",
                    "name": "timeDelta",
                    "type": "uint256"
                },
                {
                    "internalType": "uint256",
                    "name": "lastDepositTime",
                    "type": "uint256"
                }
            ],
            "stateMutability": "view",
            "type": "function"
        },
        {
            "inputs": [],
            "name": "weight",
            "outputs": [
                {
                    "internalType": "uint256",
                    "name": "",
                    "type": "uint256"
                }
            ],
            "stateMutability": "view",
            "type": "function"
        },
        {
            "inputs": [
                {
                    "internalType": "uint256",
                    "name": "pid",
                    "type": "uint256"
                },
                {
                    "internalType": "uint256",
                    "name": "amount",
                    "type": "uint256"
                }
            ],
            "name": "withdraw",
            "outputs": [],
            "stateMutability": "nonpayable",
            "type": "function"
        }
    ],
    "bytecode": "60806040526001600e553480156200001657600080fd5b506200002b620000256200012a565b6200012e565b6001805460ff60a01b19168155600255600780546001600160a01b03199081167381dd37687c74df8f957a370a9a4435d873f5e5a9179182905560088054909116731c63c726926197bd3cb75d86bcfb1daebcd872501790557f36d5d8406f8379c6deba01145ec4f6a2966675cc67d71355b397a2a8e3572b296016557f0811b25c145e1379dc78112dd91057f09150f6db05dfd7e04deb910e6cefd4b7601755620000e59060009081906001600160a01b031662000180565b5060165460075462000103919081906001600160a01b031662000180565b50601754601654600854620001239291906001600160a01b031662000180565b50620002d1565b3390565b600180546001600160a01b038381166001600160a01b0319831681179093556040519116919082907f8be0079c531659141344cd1fd0a4f28419497f9722a3daafe3b4186f6b6457e090600090a35050565b60006200018e8483620001a4565b6200019a8484620001b4565b5060019392505050565b620001b0828262000209565b5050565b6000620001c18362000293565b600084815260208190526040808220600101859055519192508391839186917fbd79b86ffe0ab8e8776151514217cd7cacd52c909f66475c3af44e129f0b00ff9190a4505050565b620002158282620002a8565b620001b0576000828152602081815260408083206001600160a01b03851684529091529020805460ff191660011790556200024f6200012a565b6001600160a01b0316816001600160a01b0316837f2f8788117e7eff1d82e926ec794901d17c78024a50270940304540a733656f0d60405160405180910390a45050565b60009081526020819052604090206001015490565b6000918252602082815260408084206001600160a01b0393909316845291905290205460ff1690565b61367080620002e16000396000f3fe608060405234801561001057600080fd5b50600436106103835760003560e01c80637e668b42116101de578063bfafcad51161010f578063e7aa29e3116100ad578063f2fde38b1161007c578063f2fde38b146106f3578063fb60dc1814610706578063fc90fdc014610719578063fd6f99d01461072157610383565b8063e7aa29e3146106b2578063ea4bf446146106c5578063ec3df6ad146106cd578063edbf4ac2146106e057610383565b8063da755b4b116100e9578063da755b4b14610666578063dbaef9b014610679578063e13e8ec21461068c578063e2bbb1581461069f57610383565b8063bfafcad51461062d578063cf94ee9614610640578063d547741f1461065357610383565b806393f1a40b1161017c578063a1aab33f11610156578063a1aab33f14610602578063a217fddf1461060a578063a8b973a114610612578063b801dc761461061a57610383565b806393f1a40b146105c157806396c82e57146105e75780639f6c5426146105ef57610383565b806385f2aef2116101b857806385f2aef21461058b5780638da5cb5b146105935780638dbb1e3a1461059b57806391d14854146105ae57610383565b80637e668b421461054f578063815b7a8c1461057057806382386d581461057857610383565b8063441a3e70116102b8578063630b5ba11161025657806378e979251161023057806378e97925146105245780637abceffd1461052c5780637cd07e471461053f5780637d500ec81461054757610383565b8063630b5ba11461050157806364482f7914610509578063715018a61461051c57610383565b806351eb05a61161029257806351eb05a6146104cb5780635c975abb146104de5780635f9bf689146104e65780635ffe6146146104ee57610383565b8063441a3e701461049d578063454b0608146104b05780634ca01d45146104c357610383565b806323cf31181161032557806336568abe116102ff57806336568abe1461045a578063392e53cd1461046d57806341441d3b146104755780634162169f1461048857610383565b806323cf311814610421578063248a9ca3146104345780632f2ff15d1461044757610383565b80631058d281116103615780631058d281146103d95780631254f0dc146103ee5780631526fe27146103f657806317caf6f11461041957610383565b806301ffc9a714610388578063081e3eda146103b157806309ae4d2c146103c6575b600080fd5b61039b610396366004612e04565b610729565b6040516103a8919061306b565b60405180910390f35b6103b9610756565b6040516103a89190613076565b6103b96103d4366004612dc8565b61075c565b6103ec6103e7366004612dc8565b6107ad565b005b6103b9610a29565b610409610404366004612dc8565b610a2f565b6040516103a8949392919061307f565b6103b9610a73565b6103ec61042f366004612cf7565b610a79565b6103b9610442366004612dc8565b610ad2565b6103ec610455366004612de0565b610ae7565b6103ec610468366004612de0565b610b0b565b61039b610b51565b6103ec610483366004612dc8565b610b5a565b610490610dd3565b6040516103a89190612fc6565b6103ec6104ab366004612ed8565b610de2565b6103ec6104be366004612dc8565b61110a565b6104906113f4565b6103ec6104d9366004612dc8565b611403565b61039b6116fe565b6103b961170e565b6103ec6104fc366004612dc8565b611714565b6103ec611729565b6103ec610517366004612ef9565b611750565b6103ec61188c565b6103b96118d7565b6103ec61053a366004612e97565b6118dd565b610490611928565b6103b9611937565b61056261055d366004612f26565b61193d565b6040516103a89291906134d3565b610490611983565b6103ec610586366004612e60565b611992565b610490611a0e565b610490611a1d565b6103b96105a9366004612ed8565b611a2c565b61039b6105bc366004612de0565b611a4d565b6105d46105cf366004612de0565b611a76565b6040516103a89796959493929190613505565b6103b9611ac5565b6103b96105fd366004612ed8565b611acb565b6103b9611b3e565b6103b9611b44565b6103b9611b49565b6103b9610628366004612dc8565b611b4f565b6103b961063b366004612de0565b611bad565b6103b961064e366004612dc8565b611d3e565b6103ec610661366004612de0565b611d52565b6103b9610674366004612dc8565b611d71565b61039b610687366004612dc8565b611e1c565b6103ec61069a366004612d13565b611e28565b6103ec6106ad366004612ed8565b611ef0565b6103ec6106c0366004612d13565b61214c565b6103b9612204565b6103ec6106db366004612dc8565b61220a565b6103ec6106ee366004612d4b565b61231b565b6103ec610701366004612cf7565b612576565b6103b9610714366004612dc8565b6125e7565b6103b96125fa565b6103b9612600565b60006001600160e01b03198216637965db0b60e01b148061074e575061074e82612606565b90505b919050565b60145490565b6000818152601560209081526040808320338452909152812060038101541561079b576000816003015443610791919061358c565b9250610751915050565b6000816004015443610791919061358c565b6002805414156107d85760405162461bcd60e51b81526004016107cf906133c0565b60405180910390fd5b600280819055506000601460008154811061080357634e487b7160e01b600052603260045260246000fd5b600091825260208083203384527fa31547ce6245cdb9ecea19cf8c7eb9f5974025bb4075011409251ae855b30aed90915260409092208054600490920290920192508311156108645760405162461bcd60e51b81526004016107cf90613340565b61086e6000611403565b6000816001015464e8d4a510008460030154846000015461088f919061356d565b610899919061354d565b6108a3919061358c565b905080156108b5576108b5338261261f565b831561094f5781546108c890859061358c565b8255825460405163a9059cbb60e01b81526001600160a01b039091169063a9059cbb906108fb9033908890600401613052565b602060405180830381600087803b15801561091557600080fd5b505af1158015610929573d6000803e3d6000fd5b505050506040513d601f19601f8201168201806040525081019061094d9190612dac565b505b6003830154825464e8d4a51000916109669161356d565b610970919061354d565b6001830155600654604051632770a7eb60e21b81526001600160a01b0390911690639dc29fac906109a79033908890600401613052565b600060405180830381600087803b1580156109c157600080fd5b505af11580156109d5573d6000803e3d6000fd5b505050506000336001600160a01b03167f02f25270a4d87bea75db541cdfe559334a275b4a233520ed6c0a2429667cca948642604051610a169291906134d3565b60405180910390a3505060016002555050565b60135481565b60148181548110610a3f57600080fd5b600091825260209091206004909102018054600182015460028301546003909301546001600160a01b039092169350919084565b60105481565b60115460ff16610a9b5760405162461bcd60e51b81526004016107cf9061347d565b601654610aaf81610aaa612687565b61268b565b50600980546001600160a01b0319166001600160a01b0392909216919091179055565b60009081526020819052604090206001015490565b610af082610ad2565b610afc81610aaa612687565b610b0683836126ef565b505050565b610b13612687565b6001600160a01b0316816001600160a01b031614610b435760405162461bcd60e51b81526004016107cf906133f7565b610b4d8282612774565b5050565b60115460ff1681565b600280541415610b7c5760405162461bcd60e51b81526004016107cf906133c0565b60028055610b886116fe565b15610ba55760405162461bcd60e51b81526004016107cf90613153565b60006014600081548110610bc957634e487b7160e01b600052603260045260246000fd5b600091825260208083203384527fa31547ce6245cdb9ecea19cf8c7eb9f5974025bb4075011409251ae855b30aed90915260408320600490920201925090610c1090611403565b805415610c60576000816001015464e8d4a5100084600301548460000154610c38919061356d565b610c42919061354d565b610c4c919061358c565b90508015610c5e57610c5e338261261f565b505b8215610cfc5781546040516323b872dd60e01b81526001600160a01b03909116906323b872dd90610c999033903090889060040161302e565b602060405180830381600087803b158015610cb357600080fd5b505af1158015610cc7573d6000803e3d6000fd5b505050506040513d601f19601f82011682018060405250810190610ceb9190612dac565b508054610cf9908490613535565b81555b6003820154815464e8d4a5100091610d139161356d565b610d1d919061354d565b60018201556006546040516340c10f1960e01b81526001600160a01b03909116906340c10f1990610d549033908790600401613052565b600060405180830381600087803b158015610d6e57600080fd5b505af1158015610d82573d6000803e3d6000fd5b505050506000336001600160a01b03167f90890809c654f11d6e72a28fa60149770a0d11ec6c92319d6ceb2bb0a4ea1a1585604051610dc19190613076565b60405180910390a35050600160025550565b6008546001600160a01b031681565b600280541415610e045760405162461bcd60e51b81526004016107cf906133c0565b6002805560145482908110610e2b5760405162461bcd60e51b81526004016107cf906132dc565b82610e485760405162461bcd60e51b81526004016107cf906131d3565b600060148481548110610e6b57634e487b7160e01b600052603260045260246000fd5b600091825260208083208784526015825260408085203386529092529220805460049092029092019250841115610eb45760405162461bcd60e51b81526004016107cf9061336c565b610ebd85611403565b6000816001015464e8d4a5100084600301548460000154610ede919061356d565b610ee8919061354d565b610ef2919061358c565b90508015610f0457610f04338261261f565b841561109257600682015415610f2d576006820154610f23904261358c565b6005830155610f42565b6004820154610f3c904261358c565b60058301555b8154610f4f90869061358c565b82556005820154600090610f64908890611acb565b90506000610f72828861356d565b90506000610f80828961358c565b865460085460405163a9059cbb60e01b81529293506001600160a01b039182169263a9059cbb92610fb79216908690600401613052565b602060405180830381600087803b158015610fd157600080fd5b505af1158015610fe5573d6000803e3d6000fd5b505050506040513d601f19601f820116820180604052508101906110099190612dac565b50855460405163a9059cbb60e01b81526001600160a01b039091169063a9059cbb9061103b9033908590600401613052565b602060405180830381600087803b15801561105557600080fd5b505af1158015611069573d6000803e3d6000fd5b505050506040513d601f19601f8201168201806040525081019061108d9190612dac565b505050505b6003830154825464e8d4a51000916110a99161356d565b6110b3919061354d565b60018301554260038301819055604051879133917f02f25270a4d87bea75db541cdfe559334a275b4a233520ed6c0a2429667cca94916110f5918a91906134d3565b60405180910390a35050600160025550505050565b60115460ff1661112c5760405162461bcd60e51b81526004016107cf9061347d565b6014548190811061114f5760405162461bcd60e51b81526004016107cf906132dc565b6009546001600160a01b03166111775760405162461bcd60e51b81526004016107cf906131aa565b60006014838154811061119a57634e487b7160e01b600052603260045260246000fd5b60009182526020822060049182020180546040516370a0823160e01b81529194506001600160a01b0316929183916370a08231916111da91309101612fc6565b60206040518083038186803b1580156111f257600080fd5b505afa158015611206573d6000803e3d6000fd5b505050506040513d601f19601f8201168201806040525081019061122a9190612e48565b60095460405163095ea7b360e01b81529192506001600160a01b038085169263095ea7b39261125f9216908590600401613052565b602060405180830381600087803b15801561127957600080fd5b505af115801561128d573d6000803e3d6000fd5b505050506040513d601f19601f820116820180604052508101906112b19190612dac565b5060095460405163ce5494bb60e01b81526000916001600160a01b03169063ce5494bb906112e3908690600401612fc6565b602060405180830381600087803b1580156112fd57600080fd5b505af1158015611311573d6000803e3d6000fd5b505050506040513d601f19601f820116820180604052508101906113359190612e2c565b6040516370a0823160e01b81529091506001600160a01b038216906370a0823190611364903090600401612fc6565b60206040518083038186803b15801561137c57600080fd5b505afa158015611390573d6000803e3d6000fd5b505050506040513d601f19601f820116820180604052508101906113b49190612e48565b82146113d25760405162461bcd60e51b81526004016107cf90613446565b83546001600160a01b0319166001600160a01b03919091161790925550505050565b6006546001600160a01b031681565b601454819081106114265760405162461bcd60e51b81526004016107cf906132dc565b60006014838154811061144957634e487b7160e01b600052603260045260246000fd5b906000526020600020906004020190508060020154421161146a5750610b4d565b80546040516370a0823160e01b81526000916001600160a01b0316906370a082319061149a903090600401612fc6565b60206040518083038186803b1580156114b257600080fd5b505afa1580156114c6573d6000803e3d6000fd5b505050506040513d601f19601f820116820180604052508101906114ea9190612e48565b9050806114fe575042600290910155610b4d565b600061150e836002015442611a2c565b905060006010548460010154600d5484611528919061356d565b611532919061356d565b61153c919061354d565b90506000650746a52880006115568364e8d4a5100061356d565b611560919061354d565b9050600061156f82600261356d565b9050600061157d828561358c565b600480546007546040516340c10f1960e01b81529394506001600160a01b03918216936340c10f19936115b69390921691889101613052565b600060405180830381600087803b1580156115d057600080fd5b505af11580156115e4573d6000803e3d6000fd5b5050600480546008546040516340c10f1960e01b81526001600160a01b0392831695506340c10f19945061161f939190921691889101613052565b600060405180830381600087803b15801561163957600080fd5b505af115801561164d573d6000803e3d6000fd5b5050600480546006546040516340c10f1960e01b81526001600160a01b0392831695506340c10f199450611688939190921691869101613052565b600060405180830381600087803b1580156116a257600080fd5b505af11580156116b6573d6000803e3d6000fd5b50505050858464e8d4a510006116cc919061356d565b6116d6919061354d565b87600301546116e59190613535565b6003880155505042600290950194909455505050505050565b600154600160a01b900460ff1690565b600d5481565b60175461172381610aaa612687565b50600e55565b60145460005b81811015610b4d5761174081611403565b611749816135e6565b905061172f565b60115460ff166117725760405162461bcd60e51b81526004016107cf9061347d565b601454839081106117955760405162461bcd60e51b81526004016107cf906132dc565b6017546117a481610aaa612687565b82156117b2576117b2611729565b6000601486815481106117d557634e487b7160e01b600052603260045260246000fd5b9060005260206000209060040201600101549050846014878154811061180b57634e487b7160e01b600052603260045260246000fd5b90600052602060002090600402016001018190555084811461184b578481601054611836919061358c565b6118409190613535565b60105561184b6127f7565b7fd88f859573973e938da5bf3e5100c16eee2090fa720e05ae3d452b4cd05cdcfd868660405161187c9291906134d3565b60405180910390a1505050505050565b611894612687565b6001600160a01b03166118a5611a1d565b6001600160a01b0316146118cb5760405162461bcd60e51b81526004016107cf90613241565b6118d560006128f9565b565b600f5481565b60115460ff166118ff5760405162461bcd60e51b81526004016107cf9061347d565b60165461190e81610aaa612687565b6119178361294b565b6119228484846129cc565b50505050565b6009546001600160a01b031681565b600c5481565b600080600061194c8686611acb565b90506000606461195c838761356d565b611966919061354d565b90506000611974828761358c565b91989197509095505050505050565b6004546001600160a01b031681565b6017546119a181610aaa612687565b60008481526015602090815260408083206001600160a01b0387168452909152908190206004810184905590517f40d6e8e3d60e4693375c73df2d1a71d582a28197c98fd8d2badad6ead06af64c906119ff908790879087906134b4565b60405180910390a15050505050565b6007546001600160a01b031681565b6001546001600160a01b031690565b600e54600090611a3c848461358c565b611a46919061356d565b9392505050565b6000918252602082815260408084206001600160a01b0393909316845291905290205460ff1690565b6015602052816000526040600020602052806000526040600020600091509150508060000154908060010154908060020154908060030154908060040154908060050154908060060154905087565b600a5481565b600080620151808310611aea57611ae5620151808461354d565b611aed565b60005b9050600060125482611aff919061356d565b90506000601354821015611b205781601354611b1b919061358c565b611b23565b60005b90508515611b315780611b34565b60005b9695505050505050565b600b5481565b600081565b600e5481565b600080620151808310611b6e57611b69620151808461354d565b611b71565b60005b9050600060125482611b83919061356d565b9050601354811015611ba25780601354611b9d919061358c565b611ba5565b60005b949350505050565b60008060148481548110611bd157634e487b7160e01b600052603260045260246000fd5b600091825260208083208784526015825260408085206001600160a01b038981168752935280852060049485029092016003810154815492516370a0823160e01b815291975092959294929391909116916370a0823191611c3491309101612fc6565b60206040518083038186803b158015611c4c57600080fd5b505afa158015611c60573d6000803e3d6000fd5b505050506040513d601f19601f82011682018060405250810190611c849190612e48565b9050836002015442118015611c9857508015155b15611d06576000611cad856002015442611a2c565b905060006010548660010154600d5484611cc7919061356d565b611cd1919061356d565b611cdb919061354d565b905082611ced8264e8d4a5100061356d565b611cf7919061354d565b611d019085613535565b935050505b6001830154835464e8d4a5100090611d1f90859061356d565b611d29919061354d565b611d33919061358c565b979650505050505050565b600061074e82670de0b6b3a764000061356d565b611d5b82610ad2565b611d6781610aaa612687565b610b068383612774565b3360009081527fa31547ce6245cdb9ecea19cf8c7eb9f5974025bb4075011409251ae855b30aed6020526040812060068101548290611dcc576000848152601560209081526040808320338452909152902060050154611ddb565b6006820154611ddb904261358c565b905060008115611df757611df2620151808361354d565b611dfa565b60005b9050611e09816201518061356d565b611e13908361358c565b95945050505050565b600061074e8233611a4d565b601654611e3781610aaa612687565b6008546001600160a01b038481169116141580611e6257506007546001600160a01b03838116911614155b611e7e5760405162461bcd60e51b81526004016107cf906132ad565b600880546001600160a01b038086166001600160a01b0319928316179283905560078054868316931692909217918290556040517fd1c04282701cbf58aa2f0026f6876051cf3feb8ee7b8b5b5532ebb4ab03fb5d493611ee393908316921690612fda565b60405180910390a1505050565b600280541415611f125760405162461bcd60e51b81526004016107cf906133c0565b6002805560145482908110611f395760405162461bcd60e51b81526004016107cf906132dc565b611f416116fe565b15611f5e5760405162461bcd60e51b81526004016107cf90613153565b82611f7b5760405162461bcd60e51b81526004016107cf9061320a565b600060148481548110611f9e57634e487b7160e01b600052603260045260246000fd5b60009182526020808320878452601582526040808520338652909252922060049091029091019150611fcf85611403565b80541561201f576000816001015464e8d4a5100084600301548460000154611ff7919061356d565b612001919061354d565b61200b919061358c565b9050801561201d5761201d338261261f565b505b83156120bb5781546040516323b872dd60e01b81526001600160a01b03909116906323b872dd906120589033903090899060040161302e565b602060405180830381600087803b15801561207257600080fd5b505af1158015612086573d6000803e3d6000fd5b505050506040513d601f19601f820116820180604052508101906120aa9190612dac565b5080546120b8908590613535565b81555b6003820154815464e8d4a51000916120d29161356d565b6120dc919061354d565b600182015560048101546120f75742816004018190556120fd565b60048101545b5084336001600160a01b03167f90890809c654f11d6e72a28fa60149770a0d11ec6c92319d6ceb2bb0a4ea1a15866040516121389190613076565b60405180910390a350506001600255505050565b60165461215b81610aaa612687565b6004546001600160a01b03848116911614158061218657506006546001600160a01b03838116911614155b6121a25760405162461bcd60e51b81526004016107cf90613276565b600480546001600160a01b038086166001600160a01b03199283161790925560068054928516929091169190911790556040517fdcc6331013de89f8c595d5328f0a724194f113cb6f8f2a707b3dff6de13f0d1790611ee39085908590612fda565b60165481565b60115460ff1661222c5760405162461bcd60e51b81526004016107cf9061347d565b60175461223b81610aaa612687565b81600b54141561225d5760405162461bcd60e51b81526004016107cf90613309565b81600b541015612292576000600b5483612277919061358c565b905080600a600082825461228b9190613535565b9091555050505b81600b5411156122c757600082600b546122ac919061358c565b905080600a60008282546122c0919061358c565b9091555050505b600b829055600a546122da908390612ad9565b7fb298bc23e07860d501fddce288f46d761aa04a0c7c3316099eb50f097aacf304600b54600a5460405161230f9291906134d3565b60405180910390a15050565b60165461232a81610aaa612687565b60115460ff161561234d5760405162461bcd60e51b81526004016107cf9061317d565b600380546001600160a01b03808b166001600160a01b03199283161790925560058054928a169290911691909117905542600f5561238b8587613535565b600a55600b85905561239c83611d3e565b6013556123a8826125e7565b601255600354600480546001600160a01b039283166001600160a01b03199182161790915560055460068054919093169116179055600b54600a5485916123ee91612ad9565b60408051608081018252600480546001600160a01b03908116835260208301858152600f54948401948552600060608501818152601480546001808201835591845296517fce6d7b5282bd9a3661ae061feed1dbda4e52ab073b1f9285be6e155d9c38d4ec9790960296870180546001600160a01b031916969095169590951790935590517fce6d7b5282bd9a3661ae061feed1dbda4e52ab073b1f9285be6e155d9c38d4ed85015593517fce6d7b5282bd9a3661ae061feed1dbda4e52ab073b1f9285be6e155d9c38d4ee840155517fce6d7b5282bd9a3661ae061feed1dbda4e52ab073b1f9285be6e155d9c38d4ef909201919091556011805460ff1916909117905560108054839290612505908490613535565b9091555050600754600854600354600554601054600b546040517f0476c5e4920930815a67a5a042e26836431f494d3be0f6e10c3034787a7a15f996612563966001600160a01b039182169690821695908216949116929091612ff4565b60405180910390a1505050505050505050565b61257e612687565b6001600160a01b031661258f611a1d565b6001600160a01b0316146125b55760405162461bcd60e51b81526004016107cf90613241565b6001600160a01b0381166125db5760405162461bcd60e51b81526004016107cf9061310d565b6125e4816128f9565b50565b600061074e82662386f26fc1000061356d565b60125481565b60175481565b6001600160e01b031981166301ffc9a760e01b14919050565b600654604051635950a15560e11b81526001600160a01b039091169063b2a142aa906126519085908590600401613052565b600060405180830381600087803b15801561266b57600080fd5b505af115801561267f573d6000803e3d6000fd5b505050505050565b3390565b6126958282611a4d565b610b4d576126ad816001600160a01b03166014612b45565b6126b8836020612b45565b6040516020016126c9929190612f51565b60408051601f198184030181529082905262461bcd60e51b82526107cf916004016130a5565b6126f98282611a4d565b610b4d576000828152602081815260408083206001600160a01b03851684529091529020805460ff19166001179055612730612687565b6001600160a01b0316816001600160a01b0316837f2f8788117e7eff1d82e926ec794901d17c78024a50270940304540a733656f0d60405160405180910390a45050565b61277e8282611a4d565b15610b4d576000828152602081815260408083206001600160a01b03851684529091529020805460ff191690556127b3612687565b6001600160a01b0316816001600160a01b0316837ff6391f5c32d9c69d2a47ea670b442974b53935d1edc7fd64eb21e047a839171b60405160405180910390a45050565b601454600060015b82811015612857576014818154811061282857634e487b7160e01b600052603260045260246000fd5b906000526020600020906004020160010154826128459190613535565b9150612850816135e6565b90506127ff565b508015610b4d5761286960038261354d565b905080601460008154811061288e57634e487b7160e01b600052603260045260246000fd5b9060005260206000209060040201600101546010546128ad919061358c565b6128b79190613535565b6010819055508060146000815481106128e057634e487b7160e01b600052603260045260246000fd5b9060005260206000209060040201600101819055505050565b600180546001600160a01b038381166001600160a01b0319831681179093556040519116919082907f8be0079c531659141344cd1fd0a4f28419497f9722a3daafe3b4186f6b6457e090600090a35050565b60145460005b81811015610b0657826001600160a01b03166014828154811061298457634e487b7160e01b600052603260045260246000fd5b60009182526020909120600490910201546001600160a01b031614156129bc5760405162461bcd60e51b81526004016107cf90613397565b6129c5816135e6565b9050612951565b80156129da576129da611729565b82601060008282546129ec9190613535565b9250508190555060146040518060800160405280846001600160a01b03168152602001858152602001600f544211612a2657600f54612a28565b425b81526000602091820181905283546001808201865594825290829020835160049092020180546001600160a01b0319166001600160a01b0390921691909117815590820151928101929092556040810151600283015560600151600390910155612a906127f7565b6014546010546040517f20b669aa921947a6d9602a921d2db3b6b30f21b9aca98580fa3972530330b27a91612acb91849188918891906134e1565b60405180910390a150505050565b6000612ae5828461354d565b9050612afb816934f086f3b33b6840000061356d565b600c819055612b0e90620151809061354d565b600d819055600c546040517fcd7c861d63893659123f817b192b8621ff1923a7c4589c260173cedcf9e986a692611ee392916134d3565b60606000612b5483600261356d565b612b5f906002613535565b67ffffffffffffffff811115612b8557634e487b7160e01b600052604160045260246000fd5b6040519080825280601f01601f191660200182016040528015612baf576020820181803683370190505b509050600360fc1b81600081518110612bd857634e487b7160e01b600052603260045260246000fd5b60200101906001600160f81b031916908160001a905350600f60fb1b81600181518110612c1557634e487b7160e01b600052603260045260246000fd5b60200101906001600160f81b031916908160001a9053506000612c3984600261356d565b612c44906001613535565b90505b6001811115612cd8576f181899199a1a9b1b9c1cb0b131b232b360811b85600f1660108110612c8657634e487b7160e01b600052603260045260246000fd5b1a60f81b828281518110612caa57634e487b7160e01b600052603260045260246000fd5b60200101906001600160f81b031916908160001a90535060049490941c93612cd1816135cf565b9050612c47565b508315611a465760405162461bcd60e51b81526004016107cf906130d8565b600060208284031215612d08578081fd5b8135611a4681613617565b60008060408385031215612d25578081fd5b8235612d3081613617565b91506020830135612d4081613617565b809150509250929050565b600080600080600080600060e0888a031215612d65578283fd5b8735612d7081613617565b96506020880135612d8081613617565b96999698505050506040850135946060810135946080820135945060a0820135935060c0909101359150565b600060208284031215612dbd578081fd5b8151611a468161362c565b600060208284031215612dd9578081fd5b5035919050565b60008060408385031215612df2578182fd5b823591506020830135612d4081613617565b600060208284031215612e15578081fd5b81356001600160e01b031981168114611a46578182fd5b600060208284031215612e3d578081fd5b8151611a4681613617565b600060208284031215612e59578081fd5b5051919050565b600080600060608486031215612e74578283fd5b833592506020840135612e8681613617565b929592945050506040919091013590565b600080600060608486031215612eab578283fd5b833592506020840135612ebd81613617565b91506040840135612ecd8161362c565b809150509250925092565b60008060408385031215612eea578182fd5b50508035926020909101359150565b600080600060608486031215612f0d578081fd5b83359250602084013591506040840135612ecd8161362c565b600080600060608486031215612f3a578081fd5b505081359360208301359350604090920135919050565b60007f416363657373436f6e74726f6c3a206163636f756e742000000000000000000082528351612f898160178501602088016135a3565b7001034b99036b4b9b9b4b733903937b6329607d1b6017918401918201528351612fba8160288401602088016135a3565b01602801949350505050565b6001600160a01b0391909116815260200190565b6001600160a01b0392831681529116602082015260400190565b6001600160a01b0396871681529486166020860152928516604085015293166060830152608082019290925260a081019190915260c00190565b6001600160a01b039384168152919092166020820152604081019190915260600190565b6001600160a01b03929092168252602082015260400190565b901515815260200190565b90815260200190565b6001600160a01b0394909416845260208401929092526040830152606082015260800190565b60006020825282518060208401526130c48160408501602087016135a3565b601f01601f19169190910160400192915050565b6020808252818101527f537472696e67733a20686578206c656e67746820696e73756666696369656e74604082015260600190565b60208082526026908201527f4f776e61626c653a206e6577206f776e657220697320746865207a65726f206160408201526564647265737360d01b606082015260800190565b60208082526010908201526f14185d5cd8589b194e881c185d5cd95960821b604082015260600190565b602080825260139082015272185b1c9958591e481a5b9a5d1a585b1a5e9959606a1b604082015260600190565b6020808252600f908201526e1b9bc81b5a59dc985d1bdc881cd95d608a1b604082015260600190565b6020808252601a908201527f776974686472617720534f554c20627920756e7374616b696e67000000000000604082015260600190565b60208082526017908201527f6465706f73697420534f554c206279207374616b696e67000000000000000000604082015260600190565b6020808252818101527f4f776e61626c653a2063616c6c6572206973206e6f7420746865206f776e6572604082015260600190565b6020808252601b908201527f6d7573742062652061206e657720746f6b656e20616464726573730000000000604082015260600190565b6020808252601590820152741b5d5cdd0818994818481b995dc81858d8dbdd5b9d605a1b604082015260600190565b6020808252601390820152721c1bdbdb08191bd95cc81b9bdd08195e1a5cdd606a1b604082015260600190565b60208082526018908201527f6d757374206265206e6577207765696768742076616c75650000000000000000604082015260600190565b6020808252601290820152711dda5d1a191c985dce881b9bdd0819dbdbd960721b604082015260600190565b6020808252601190820152701dda5d1a191c985dc81b9bdd0819dbdbd9607a1b604082015260600190565b6020808252600f908201526e191d5c1b1a58d85d1959081c1bdbdb608a1b604082015260600190565b6020808252601f908201527f5265656e7472616e637947756172643a207265656e7472616e742063616c6c00604082015260600190565b6020808252602f908201527f416363657373436f6e74726f6c3a2063616e206f6e6c792072656e6f756e636560408201526e103937b632b9903337b91039b2b63360891b606082015260800190565b6020808252601d908201527f6d6967726174653a20696e73756666696369656e742062616c616e6365000000604082015260600190565b6020808252601a908201527f726577617264732068617665206e6f742079657420626567756e000000000000604082015260600190565b9283526001600160a01b03919091166020830152604082015260600190565b918252602082015260400190565b93845260208401929092526001600160a01b03166040830152606082015260800190565b968752602087019590955260408601939093526060850191909152608084015260a083015260c082015260e00190565b6000821982111561354857613548613601565b500190565b60008261356857634e487b7160e01b81526012600452602481fd5b500490565b600081600019048311821515161561358757613587613601565b500290565b60008282101561359e5761359e613601565b500390565b60005b838110156135be5781810151838201526020016135a6565b838111156119225750506000910152565b6000816135de576135de613601565b506000190190565b60006000198214156135fa576135fa613601565b5060010190565b634e487b7160e01b600052601160045260246000fd5b6001600160a01b03811681146125e457600080fd5b80151581146125e457600080fdfea2646970667358221220e3d2ac1d51d0849d6d1513713605a26c003b6c4c5fc1a0a34649c9172d203e4b64736f6c63430008000033",
    "sourcePath": "/Users/unico/Documents/GitHub/SoulSwap/soulswap-farms/contracts/SoulSummoner.sol",
    "compiler": {
        "name": "solc",
        "version": "0.8.0+commit.c7dfd78e"
    },
    "functionHashes": {
        "DEFAULT_ADMIN_ROLE()": "a217fddf",
        "addPool(uint256,address,bool)": "7abceffd",
        "bonusMultiplier()": "a8b973a1",
        "dailyDecay()": "fc90fdc0",
        "dailySoul()": "7d500ec8",
        "dao()": "4162169f",
        "deposit(uint256,uint256)": "e2bbb158",
        "enWei(uint256)": "cf94ee96",
        "enterStaking(uint256)": "41441d3b",
        "getFeeRate(uint256,uint256)": "9f6c5426",
        "getFeeRateTime(uint256)": "b801dc76",
        "getMultiplier(uint256,uint256)": "8dbb1e3a",
        "getRoleAdmin(bytes32)": "248a9ca3",
        "getWithdrawable(uint256,uint256,uint256)": "7e668b42",
        "grantRole(bytes32,address)": "2f2ff15d",
        "hasDivineRole(bytes32)": "dbaef9b0",
        "hasRole(bytes32,address)": "91d14854",
        "initialize(address,address,uint256,uint256,uint256,uint256,uint256)": "edbf4ac2",
        "isInitialized()": "392e53cd",
        "isis()": "ea4bf446",
        "leaveStaking(uint256)": "1058d281",
        "maat()": "fd6f99d0",
        "massUpdatePools()": "630b5ba1",
        "migrate(uint256)": "454b0608",
        "migrator()": "7cd07e47",
        "oneHundreth(uint256)": "fb60dc18",
        "owner()": "8da5cb5b",
        "paused()": "5c975abb",
        "pendingSoul(uint256,address)": "bfafcad5",
        "poolInfo(uint256)": "1526fe27",
        "poolLength()": "081e3eda",
        "renounceOwnership()": "715018a6",
        "renounceRole(bytes32,address)": "36568abe",
        "reviseDeposit(uint256,address,uint256)": "82386d58",
        "revokeRole(bytes32,address)": "d547741f",
        "seance()": "4ca01d45",
        "set(uint256,uint256,bool)": "64482f79",
        "setMigrator(address)": "23cf3118",
        "soul()": "815b7a8c",
        "soulPerSecond()": "5f9bf689",
        "startRate()": "1254f0dc",
        "startTime()": "78e97925",
        "supportsInterface(bytes4)": "01ffc9a7",
        "team()": "85f2aef2",
        "timeUntilNextDecrease(uint256)": "da755b4b",
        "totalAllocPoint()": "17caf6f1",
        "totalWeight()": "96c82e57",
        "transferOwnership(address)": "f2fde38b",
        "updateAccounts(address,address)": "e13e8ec2",
        "updateMultiplier(uint256)": "5ffe6146",
        "updatePool(uint256)": "51eb05a6",
        "updateTokens(address,address)": "e7aa29e3",
        "updateWeight(uint256)": "ec3df6ad",
        "userDelta(uint256)": "09ae4d2c",
        "userInfo(uint256,address)": "93f1a40b",
        "weight()": "a1aab33f",
        "withdraw(uint256,uint256)": "441a3e70"
    },
    "gasEstimates": {
        "creation": {
            "codeDepositCost": "2787200",
            "executionCost": "infinite",
            "totalCost": "infinite"
        },
        "external": {
            "DEFAULT_ADMIN_ROLE()": "317",
            "addPool(uint256,address,bool)": "infinite",
            "bonusMultiplier()": "1139",
            "dailyDecay()": "1138",
            "dailySoul()": "1161",
            "dao()": "1204",
            "deposit(uint256,uint256)": "infinite",
            "enWei(uint256)": "498",
            "enterStaking(uint256)": "infinite",
            "getFeeRate(uint256,uint256)": "3215",
            "getFeeRateTime(uint256)": "3167",
            "getMultiplier(uint256,uint256)": "1414",
            "getRoleAdmin(bytes32)": "1271",
            "getWithdrawable(uint256,uint256,uint256)": "infinite",
            "grantRole(bytes32,address)": "infinite",
            "hasDivineRole(bytes32)": "1411",
            "hasRole(bytes32,address)": "1516",
            "initialize(address,address,uint256,uint256,uint256,uint256,uint256)": "infinite",
            "isInitialized()": "1130",
            "isis()": "1117",
            "leaveStaking(uint256)": "infinite",
            "maat()": "1160",
            "massUpdatePools()": "infinite",
            "migrate(uint256)": "infinite",
            "migrator()": "1181",
            "oneHundreth(uint256)": "496",
            "owner()": "1160",
            "paused()": "1147",
            "pendingSoul(uint256,address)": "infinite",
            "poolInfo(uint256)": "4673",
            "poolLength()": "1120",
            "renounceOwnership()": "23619",
            "renounceRole(bytes32,address)": "infinite",
            "reviseDeposit(uint256,address,uint256)": "infinite",
            "revokeRole(bytes32,address)": "infinite",
            "seance()": "1183",
            "set(uint256,uint256,bool)": "infinite",
            "setMigrator(address)": "infinite",
            "soul()": "1161",
            "soulPerSecond()": "1140",
            "startRate()": "1119",
            "startTime()": "1095",
            "supportsInterface(bytes4)": "566",
            "team()": "1138",
            "timeUntilNextDecrease(uint256)": "2502",
            "totalAllocPoint()": "1163",
            "totalWeight()": "1118",
            "transferOwnership(address)": "infinite",
            "updateAccounts(address,address)": "infinite",
            "updateMultiplier(uint256)": "infinite",
            "updatePool(uint256)": "infinite",
            "updateTokens(address,address)": "infinite",
            "updateWeight(uint256)": "infinite",
            "userDelta(uint256)": "2292",
            "userInfo(uint256,address)": "6441",
            "weight()": "1095",
            "withdraw(uint256,uint256)": "infinite"
        },
        "internal": {
            "_addPool(uint256,contract IERC20,bool)": "infinite",
            "_divinationCeremony(bytes32,bytes32,address)": "infinite",
            "checkPoolDuplicate(contract IERC20)": "infinite",
            "safeSoulTransfer(address,uint256)": "infinite",
            "updateRewards(uint256,uint256)": "infinite",
            "updateStakingPool()": "infinite"
        }
    }
}