{
    "contractName": "Outcaster",
    "abi": [
        {
            "anonymous": false,
            "inputs": [
                {
                    "indexed": true,
                    "internalType": "address",
                    "name": "previousOwner",
                    "type": "address"
                },
                {
                    "indexed": true,
                    "internalType": "address",
                    "name": "newOwner",
                    "type": "address"
                }
            ],
            "name": "OwnershipTransferred",
            "type": "event"
        },
        {
            "anonymous": false,
            "inputs": [
                {
                    "indexed": false,
                    "internalType": "uint256",
                    "name": "amount",
                    "type": "uint256"
                }
            ],
            "name": "SeanceOutCasted",
            "type": "event"
        },
        {
            "inputs": [],
            "name": "combust",
            "outputs": [],
            "stateMutability": "nonpayable",
            "type": "function"
        },
        {
            "inputs": [
                {
                    "internalType": "uint256",
                    "name": "amount",
                    "type": "uint256"
                }
            ],
            "name": "outCast",
            "outputs": [],
            "stateMutability": "nonpayable",
            "type": "function"
        },
        {
            "inputs": [],
            "name": "owner",
            "outputs": [
                {
                    "internalType": "address",
                    "name": "",
                    "type": "address"
                }
            ],
            "stateMutability": "view",
            "type": "function"
        },
        {
            "inputs": [],
            "name": "renounceOwnership",
            "outputs": [],
            "stateMutability": "nonpayable",
            "type": "function"
        },
        {
            "inputs": [],
            "name": "seance",
            "outputs": [
                {
                    "internalType": "contract SeanceCircle",
                    "name": "",
                    "type": "address"
                }
            ],
            "stateMutability": "view",
            "type": "function"
        },
        {
            "inputs": [],
            "name": "totalContributions",
            "outputs": [
                {
                    "internalType": "uint256",
                    "name": "",
                    "type": "uint256"
                }
            ],
            "stateMutability": "view",
            "type": "function"
        },
        {
            "inputs": [
                {
                    "internalType": "address",
                    "name": "newOwner",
                    "type": "address"
                }
            ],
            "name": "transferOwnership",
            "outputs": [],
            "stateMutability": "nonpayable",
            "type": "function"
        }
    ],
    "bytecode": "60a06040527f124b06c5ce47de7a6e9efda71a946717130079e600000000000000000000000060805234801561003457600080fd5b5061004561004061004a565b61004e565b61009e565b3390565b600080546001600160a01b038381166001600160a01b0319831681178455604051919092169283917f8be0079c531659141344cd1fd0a4f28419497f9722a3daafe3b4186f6b6457e09190a35050565b60805160601c6105726100d16000396000818161010c015281816101cf0152818161026e015261030d01526105726000f3fe608060405234801561001057600080fd5b506004361061007d5760003560e01c8063715018a61161005b578063715018a6146100ca5780638da5cb5b146100d2578063e56879b9146100da578063f2fde38b146100e25761007d565b80633595fb761461008257806337c08923146100975780634ca01d45146100b5575b600080fd5b610095610090366004610437565b6100f5565b005b61009f6101c7565b6040516100ac919061050f565b60405180910390f35b6100bd6101cd565b6040516100ac9190610467565b6100956101f1565b6100bd610245565b610095610254565b6100956100f0366004610409565b610344565b604051632770a7eb60e21b81526001600160a01b037f00000000000000000000000000000000000000000000000000000000000000001690639dc29fac90610143903390859060040161047b565b600060405180830381600087803b15801561015d57600080fd5b505af1158015610171573d6000803e3d6000fd5b5050505080600160008282546101879190610518565b90915550506040517fbecd5177a0e1462ba64350d5dda3755c374460a3ce6351d88bd31acfda392012906101bc90839061050f565b60405180910390a150565b60015481565b7f000000000000000000000000000000000000000000000000000000000000000081565b6101f96103b5565b6001600160a01b031661020a610245565b6001600160a01b0316146102395760405162461bcd60e51b8152600401610230906104da565b60405180910390fd5b61024360006103b9565b565b6000546001600160a01b031690565b6040516370a0823160e01b81526000906001600160a01b037f000000000000000000000000000000000000000000000000000000000000000016906370a08231906102a3903090600401610467565b60206040518083038186803b1580156102bb57600080fd5b505afa1580156102cf573d6000803e3d6000fd5b505050506040513d601f19601f820116820180604052508101906102f3919061044f565b604051632770a7eb60e21b81529091506001600160a01b037f00000000000000000000000000000000000000000000000000000000000000001690639dc29fac90610143903090859060040161047b565b61034c6103b5565b6001600160a01b031661035d610245565b6001600160a01b0316146103835760405162461bcd60e51b8152600401610230906104da565b6001600160a01b0381166103a95760405162461bcd60e51b815260040161023090610494565b6103b2816103b9565b50565b3390565b600080546001600160a01b038381166001600160a01b0319831681178455604051919092169283917f8be0079c531659141344cd1fd0a4f28419497f9722a3daafe3b4186f6b6457e09190a35050565b60006020828403121561041a578081fd5b81356001600160a01b0381168114610430578182fd5b9392505050565b600060208284031215610448578081fd5b5035919050565b600060208284031215610460578081fd5b5051919050565b6001600160a01b0391909116815260200190565b6001600160a01b03929092168252602082015260400190565b60208082526026908201527f4f776e61626c653a206e6577206f776e657220697320746865207a65726f206160408201526564647265737360d01b606082015260800190565b6020808252818101527f4f776e61626c653a2063616c6c6572206973206e6f7420746865206f776e6572604082015260600190565b90815260200190565b6000821982111561053757634e487b7160e01b81526011600452602481fd5b50019056fea264697066735822122009460fc49b13c9d64f761ae06f218fa8419f1c70bbb07d15aa31bc6a3cb8ccdb64736f6c63430008000033",
    "sourcePath": "/Users/unico/Documents/GitHub/SoulSwap/soulswap-farms/contracts/Outcaster.sol",
    "compiler": {
        "name": "solc",
        "version": "0.8.0+commit.c7dfd78e"
    },
    "functionHashes": {
        "combust()": "e56879b9",
        "outCast(uint256)": "3595fb76",
        "owner()": "8da5cb5b",
        "renounceOwnership()": "715018a6",
        "seance()": "4ca01d45",
        "totalContributions()": "37c08923",
        "transferOwnership(address)": "f2fde38b"
    },
    "gasEstimates": {
        "creation": {
            "codeDepositCost": "278800",
            "executionCost": "infinite",
            "totalCost": "infinite"
        },
        "external": {
            "combust()": "infinite",
            "outCast(uint256)": "infinite",
            "owner()": "1092",
            "renounceOwnership()": "23504",
            "seance()": "infinite",
            "totalContributions()": "1051",
            "transferOwnership(address)": "23730"
        }
    }
}