{
    "contractName": "Outcaster",
    "abi": [
        {
            "anonymous": false,
            "inputs": [
                {
                    "indexed": true,
                    "internalType": "address",
                    "name": "previousOwner",
                    "type": "address"
                },
                {
                    "indexed": true,
                    "internalType": "address",
                    "name": "newOwner",
                    "type": "address"
                }
            ],
            "name": "OwnershipTransferred",
            "type": "event"
        },
        {
            "anonymous": false,
            "inputs": [
                {
                    "indexed": false,
                    "internalType": "uint256",
                    "name": "amount",
                    "type": "uint256"
                }
            ],
            "name": "SeanceOutCasted",
            "type": "event"
        },
        {
            "inputs": [],
            "name": "combust",
            "outputs": [],
            "stateMutability": "nonpayable",
            "type": "function"
        },
        {
            "inputs": [
                {
                    "internalType": "uint256",
                    "name": "amount",
                    "type": "uint256"
                }
            ],
            "name": "outCast",
            "outputs": [],
            "stateMutability": "nonpayable",
            "type": "function"
        },
        {
            "inputs": [],
            "name": "owner",
            "outputs": [
                {
                    "internalType": "address",
                    "name": "",
                    "type": "address"
                }
            ],
            "stateMutability": "view",
            "type": "function"
        },
        {
            "inputs": [],
            "name": "renounceOwnership",
            "outputs": [],
            "stateMutability": "nonpayable",
            "type": "function"
        },
        {
            "inputs": [],
            "name": "seance",
            "outputs": [
                {
                    "internalType": "contract SeanceCircle",
                    "name": "",
                    "type": "address"
                }
            ],
            "stateMutability": "view",
            "type": "function"
        },
        {
            "inputs": [
                {
                    "internalType": "address",
                    "name": "newOwner",
                    "type": "address"
                }
            ],
            "name": "transferOwnership",
            "outputs": [],
            "stateMutability": "nonpayable",
            "type": "function"
        }
    ],
    "bytecode": "60a06040527f124b06c5ce47de7a6e9efda71a946717130079e600000000000000000000000060805234801561003457600080fd5b5061004561004061004a565b61004e565b61009e565b3390565b600080546001600160a01b038381166001600160a01b0319831681178455604051919092169283917f8be0079c531659141344cd1fd0a4f28419497f9722a3daafe3b4186f6b6457e09190a35050565b60805160601c6105006100d06000396000818160dc015281816101810152818161022001526102bf01526105006000f3fe608060405234801561001057600080fd5b50600436106100625760003560e01c80633595fb76146100675780634ca01d451461007c578063715018a61461009a5780638da5cb5b146100a2578063e56879b9146100aa578063f2fde38b146100b2575b600080fd5b61007a6100753660046103e9565b6100c5565b005b61008461017f565b6040516100919190610419565b60405180910390f35b61007a6101a3565b6100846101f7565b61007a610206565b61007a6100c03660046103bb565b6102f6565b604051632770a7eb60e21b81526001600160a01b037f00000000000000000000000000000000000000000000000000000000000000001690639dc29fac90610113903390859060040161042d565b600060405180830381600087803b15801561012d57600080fd5b505af1158015610141573d6000803e3d6000fd5b505050507fbecd5177a0e1462ba64350d5dda3755c374460a3ce6351d88bd31acfda3920128160405161017491906104c1565b60405180910390a150565b7f000000000000000000000000000000000000000000000000000000000000000081565b6101ab610367565b6001600160a01b03166101bc6101f7565b6001600160a01b0316146101eb5760405162461bcd60e51b81526004016101e29061048c565b60405180910390fd5b6101f5600061036b565b565b6000546001600160a01b031690565b6040516370a0823160e01b81526000906001600160a01b037f000000000000000000000000000000000000000000000000000000000000000016906370a0823190610255903090600401610419565b60206040518083038186803b15801561026d57600080fd5b505afa158015610281573d6000803e3d6000fd5b505050506040513d601f19601f820116820180604052508101906102a59190610401565b604051632770a7eb60e21b81529091506001600160a01b037f00000000000000000000000000000000000000000000000000000000000000001690639dc29fac90610113903090859060040161042d565b6102fe610367565b6001600160a01b031661030f6101f7565b6001600160a01b0316146103355760405162461bcd60e51b81526004016101e29061048c565b6001600160a01b03811661035b5760405162461bcd60e51b81526004016101e290610446565b6103648161036b565b50565b3390565b600080546001600160a01b038381166001600160a01b0319831681178455604051919092169283917f8be0079c531659141344cd1fd0a4f28419497f9722a3daafe3b4186f6b6457e09190a35050565b6000602082840312156103cc578081fd5b81356001600160a01b03811681146103e2578182fd5b9392505050565b6000602082840312156103fa578081fd5b5035919050565b600060208284031215610412578081fd5b5051919050565b6001600160a01b0391909116815260200190565b6001600160a01b03929092168252602082015260400190565b60208082526026908201527f4f776e61626c653a206e6577206f776e657220697320746865207a65726f206160408201526564647265737360d01b606082015260800190565b6020808252818101527f4f776e61626c653a2063616c6c6572206973206e6f7420746865206f776e6572604082015260600190565b9081526020019056fea26469706673582212206b780cf0f861d82d7b69005f94d69692c29b9a816646da97d06e14399c2b71ee64736f6c63430008000033",
    "sourcePath": "/Users/unico/Documents/GitHub/SoulSwap/soulswap-farms/contracts/Outcaster.sol",
    "compiler": {
        "name": "solc",
        "version": "0.8.0+commit.c7dfd78e"
    },
    "functionHashes": {
        "combust()": "e56879b9",
        "outCast(uint256)": "3595fb76",
        "owner()": "8da5cb5b",
        "renounceOwnership()": "715018a6",
        "seance()": "4ca01d45",
        "transferOwnership(address)": "f2fde38b"
    },
    "gasEstimates": {
        "creation": {
            "codeDepositCost": "256000",
            "executionCost": "infinite",
            "totalCost": "infinite"
        },
        "external": {
            "combust()": "infinite",
            "outCast(uint256)": "infinite",
            "owner()": "1114",
            "renounceOwnership()": "23526",
            "seance()": "infinite",
            "transferOwnership(address)": "23752"
        }
    }
}