{
    "contractName": "SoulToken",
    "abi": [
        {
            "anonymous": false,
            "inputs": [
                {
                    "indexed": true,
                    "internalType": "address",
                    "name": "owner",
                    "type": "address"
                },
                {
                    "indexed": true,
                    "internalType": "address",
                    "name": "spender",
                    "type": "address"
                },
                {
                    "indexed": false,
                    "internalType": "uint256",
                    "name": "value",
                    "type": "uint256"
                }
            ],
            "name": "Approval",
            "type": "event"
        },
        {
            "anonymous": false,
            "inputs": [
                {
                    "indexed": true,
                    "internalType": "address",
                    "name": "delegator",
                    "type": "address"
                },
                {
                    "indexed": true,
                    "internalType": "address",
                    "name": "fromDelegate",
                    "type": "address"
                },
                {
                    "indexed": true,
                    "internalType": "address",
                    "name": "toDelegate",
                    "type": "address"
                }
            ],
            "name": "DelegateChanged",
            "type": "event"
        },
        {
            "anonymous": false,
            "inputs": [
                {
                    "indexed": true,
                    "internalType": "address",
                    "name": "delegate",
                    "type": "address"
                },
                {
                    "indexed": false,
                    "internalType": "uint256",
                    "name": "previousBalance",
                    "type": "uint256"
                },
                {
                    "indexed": false,
                    "internalType": "uint256",
                    "name": "newBalance",
                    "type": "uint256"
                }
            ],
            "name": "DelegateVotesChanged",
            "type": "event"
        },
        {
            "anonymous": false,
            "inputs": [
                {
                    "indexed": true,
                    "internalType": "address",
                    "name": "account",
                    "type": "address"
                }
            ],
            "name": "MinterAdded",
            "type": "event"
        },
        {
            "anonymous": false,
            "inputs": [
                {
                    "indexed": true,
                    "internalType": "address",
                    "name": "previousOwner",
                    "type": "address"
                },
                {
                    "indexed": true,
                    "internalType": "address",
                    "name": "newOwner",
                    "type": "address"
                }
            ],
            "name": "OwnershipTransferred",
            "type": "event"
        },
        {
            "anonymous": false,
            "inputs": [
                {
                    "indexed": true,
                    "internalType": "address",
                    "name": "from",
                    "type": "address"
                },
                {
                    "indexed": true,
                    "internalType": "address",
                    "name": "to",
                    "type": "address"
                },
                {
                    "indexed": false,
                    "internalType": "uint256",
                    "name": "value",
                    "type": "uint256"
                }
            ],
            "name": "Transfer",
            "type": "event"
        },
        {
            "inputs": [],
            "name": "DELEGATION_TYPEHASH",
            "outputs": [
                {
                    "internalType": "bytes32",
                    "name": "",
                    "type": "bytes32"
                }
            ],
            "stateMutability": "view",
            "type": "function"
        },
        {
            "inputs": [],
            "name": "DOMAIN_TYPEHASH",
            "outputs": [
                {
                    "internalType": "bytes32",
                    "name": "",
                    "type": "bytes32"
                }
            ],
            "stateMutability": "view",
            "type": "function"
        },
        {
            "inputs": [
                {
                    "internalType": "address",
                    "name": "_recipient",
                    "type": "address"
                }
            ],
            "name": "addMinter",
            "outputs": [],
            "stateMutability": "nonpayable",
            "type": "function"
        },
        {
            "inputs": [
                {
                    "internalType": "address",
                    "name": "owner",
                    "type": "address"
                },
                {
                    "internalType": "address",
                    "name": "spender",
                    "type": "address"
                }
            ],
            "name": "allowance",
            "outputs": [
                {
                    "internalType": "uint256",
                    "name": "",
                    "type": "uint256"
                }
            ],
            "stateMutability": "view",
            "type": "function"
        },
        {
            "inputs": [
                {
                    "internalType": "address",
                    "name": "spender",
                    "type": "address"
                },
                {
                    "internalType": "uint256",
                    "name": "amount",
                    "type": "uint256"
                }
            ],
            "name": "approve",
            "outputs": [
                {
                    "internalType": "bool",
                    "name": "",
                    "type": "bool"
                }
            ],
            "stateMutability": "nonpayable",
            "type": "function"
        },
        {
            "inputs": [
                {
                    "internalType": "address",
                    "name": "account",
                    "type": "address"
                }
            ],
            "name": "balanceOf",
            "outputs": [
                {
                    "internalType": "uint256",
                    "name": "",
                    "type": "uint256"
                }
            ],
            "stateMutability": "view",
            "type": "function"
        },
        {
            "inputs": [
                {
                    "internalType": "address",
                    "name": "",
                    "type": "address"
                },
                {
                    "internalType": "uint256",
                    "name": "",
                    "type": "uint256"
                }
            ],
            "name": "checkpoints",
            "outputs": [
                {
                    "internalType": "uint256",
                    "name": "fromTime",
                    "type": "uint256"
                },
                {
                    "internalType": "uint256",
                    "name": "votes",
                    "type": "uint256"
                }
            ],
            "stateMutability": "view",
            "type": "function"
        },
        {
            "inputs": [],
            "name": "decimals",
            "outputs": [
                {
                    "internalType": "uint8",
                    "name": "",
                    "type": "uint8"
                }
            ],
            "stateMutability": "view",
            "type": "function"
        },
        {
            "inputs": [
                {
                    "internalType": "address",
                    "name": "spender",
                    "type": "address"
                },
                {
                    "internalType": "uint256",
                    "name": "subtractedValue",
                    "type": "uint256"
                }
            ],
            "name": "decreaseAllowance",
            "outputs": [
                {
                    "internalType": "bool",
                    "name": "",
                    "type": "bool"
                }
            ],
            "stateMutability": "nonpayable",
            "type": "function"
        },
        {
            "inputs": [
                {
                    "internalType": "address",
                    "name": "delegatee",
                    "type": "address"
                }
            ],
            "name": "delegate",
            "outputs": [],
            "stateMutability": "nonpayable",
            "type": "function"
        },
        {
            "inputs": [
                {
                    "internalType": "address",
                    "name": "delegatee",
                    "type": "address"
                },
                {
                    "internalType": "uint256",
                    "name": "nonce",
                    "type": "uint256"
                },
                {
                    "internalType": "uint256",
                    "name": "expiry",
                    "type": "uint256"
                },
                {
                    "internalType": "uint8",
                    "name": "v",
                    "type": "uint8"
                },
                {
                    "internalType": "bytes32",
                    "name": "r",
                    "type": "bytes32"
                },
                {
                    "internalType": "bytes32",
                    "name": "s",
                    "type": "bytes32"
                }
            ],
            "name": "delegateBySig",
            "outputs": [],
            "stateMutability": "nonpayable",
            "type": "function"
        },
        {
            "inputs": [
                {
                    "internalType": "address",
                    "name": "delegator",
                    "type": "address"
                }
            ],
            "name": "delegates",
            "outputs": [
                {
                    "internalType": "address",
                    "name": "",
                    "type": "address"
                }
            ],
            "stateMutability": "view",
            "type": "function"
        },
        {
            "inputs": [
                {
                    "internalType": "address",
                    "name": "account",
                    "type": "address"
                }
            ],
            "name": "getCurrentVotes",
            "outputs": [
                {
                    "internalType": "uint256",
                    "name": "",
                    "type": "uint256"
                }
            ],
            "stateMutability": "view",
            "type": "function"
        },
        {
            "inputs": [
                {
                    "internalType": "address",
                    "name": "account",
                    "type": "address"
                },
                {
                    "internalType": "uint256",
                    "name": "blockTimestamp",
                    "type": "uint256"
                }
            ],
            "name": "getPriorVotes",
            "outputs": [
                {
                    "internalType": "uint256",
                    "name": "",
                    "type": "uint256"
                }
            ],
            "stateMutability": "view",
            "type": "function"
        },
        {
            "inputs": [
                {
                    "internalType": "address",
                    "name": "spender",
                    "type": "address"
                },
                {
                    "internalType": "uint256",
                    "name": "addedValue",
                    "type": "uint256"
                }
            ],
            "name": "increaseAllowance",
            "outputs": [
                {
                    "internalType": "bool",
                    "name": "",
                    "type": "bool"
                }
            ],
            "stateMutability": "nonpayable",
            "type": "function"
        },
        {
            "inputs": [
                {
                    "internalType": "address",
                    "name": "_recipient",
                    "type": "address"
                }
            ],
            "name": "isMinter",
            "outputs": [
                {
                    "internalType": "bool",
                    "name": "",
                    "type": "bool"
                }
            ],
            "stateMutability": "view",
            "type": "function"
        },
        {
            "inputs": [
                {
                    "internalType": "address",
                    "name": "_to",
                    "type": "address"
                },
                {
                    "internalType": "uint256",
                    "name": "_amount",
                    "type": "uint256"
                }
            ],
            "name": "mint",
            "outputs": [],
            "stateMutability": "nonpayable",
            "type": "function"
        },
        {
            "inputs": [
                {
                    "internalType": "address",
                    "name": "",
                    "type": "address"
                }
            ],
            "name": "minters",
            "outputs": [
                {
                    "internalType": "bool",
                    "name": "",
                    "type": "bool"
                }
            ],
            "stateMutability": "view",
            "type": "function"
        },
        {
            "inputs": [],
            "name": "name",
            "outputs": [
                {
                    "internalType": "string",
                    "name": "",
                    "type": "string"
                }
            ],
            "stateMutability": "view",
            "type": "function"
        },
        {
            "inputs": [
                {
                    "internalType": "address",
                    "name": "",
                    "type": "address"
                }
            ],
            "name": "nonces",
            "outputs": [
                {
                    "internalType": "uint256",
                    "name": "",
                    "type": "uint256"
                }
            ],
            "stateMutability": "view",
            "type": "function"
        },
        {
            "inputs": [
                {
                    "internalType": "address",
                    "name": "",
                    "type": "address"
                }
            ],
            "name": "numCheckpoints",
            "outputs": [
                {
                    "internalType": "uint256",
                    "name": "",
                    "type": "uint256"
                }
            ],
            "stateMutability": "view",
            "type": "function"
        },
        {
            "inputs": [],
            "name": "owner",
            "outputs": [
                {
                    "internalType": "address",
                    "name": "",
                    "type": "address"
                }
            ],
            "stateMutability": "view",
            "type": "function"
        },
        {
            "inputs": [],
            "name": "renounceOwnership",
            "outputs": [],
            "stateMutability": "nonpayable",
            "type": "function"
        },
        {
            "inputs": [],
            "name": "symbol",
            "outputs": [
                {
                    "internalType": "string",
                    "name": "",
                    "type": "string"
                }
            ],
            "stateMutability": "view",
            "type": "function"
        },
        {
            "inputs": [],
            "name": "totalSupply",
            "outputs": [
                {
                    "internalType": "uint256",
                    "name": "",
                    "type": "uint256"
                }
            ],
            "stateMutability": "view",
            "type": "function"
        },
        {
            "inputs": [
                {
                    "internalType": "address",
                    "name": "recipient",
                    "type": "address"
                },
                {
                    "internalType": "uint256",
                    "name": "amount",
                    "type": "uint256"
                }
            ],
            "name": "transfer",
            "outputs": [
                {
                    "internalType": "bool",
                    "name": "",
                    "type": "bool"
                }
            ],
            "stateMutability": "nonpayable",
            "type": "function"
        },
        {
            "inputs": [
                {
                    "internalType": "address",
                    "name": "sender",
                    "type": "address"
                },
                {
                    "internalType": "address",
                    "name": "recipient",
                    "type": "address"
                },
                {
                    "internalType": "uint256",
                    "name": "amount",
                    "type": "uint256"
                }
            ],
            "name": "transferFrom",
            "outputs": [
                {
                    "internalType": "bool",
                    "name": "",
                    "type": "bool"
                }
            ],
            "stateMutability": "nonpayable",
            "type": "function"
        },
        {
            "inputs": [
                {
                    "internalType": "address",
                    "name": "newOwner",
                    "type": "address"
                }
            ],
            "name": "transferOwnership",
            "outputs": [],
            "stateMutability": "nonpayable",
            "type": "function"
        }
    ],
    "bytecode": "60806040523480156200001157600080fd5b50604080518082018252600a81526929b7bab6102a37b5b2b760b11b60208083019182528351808501909452600484526314d3d55360e21b9084015281519192916200006091600391620000ef565b50805162000076906004906020840190620000ef565b505050620000936200008d6200009960201b60201c565b6200009d565b620001d2565b3390565b600580546001600160a01b038381166001600160a01b0319831681179093556040519116919082907f8be0079c531659141344cd1fd0a4f28419497f9722a3daafe3b4186f6b6457e090600090a35050565b828054620000fd9062000195565b90600052602060002090601f0160209004810192826200012157600085556200016c565b82601f106200013c57805160ff19168380011785556200016c565b828001600101855582156200016c579182015b828111156200016c5782518255916020019190600101906200014f565b506200017a9291506200017e565b5090565b5b808211156200017a57600081556001016200017f565b600281046001821680620001aa57607f821691505b60208210811415620001cc57634e487b7160e01b600052602260045260246000fd5b50919050565b611b3e80620001e26000396000f3fe608060405234801561001057600080fd5b50600436106101c45760003560e01c8063782d6fe1116100f9578063aa271e1a11610097578063dd62ed3e11610071578063dd62ed3e1461039e578063e7a324dc146103b1578063f2fde38b146103b9578063f46eccc4146103cc576101c4565b8063aa271e1a14610365578063b4b5ea5714610378578063c3cda5201461038b576101c4565b806395d89b41116100d357806395d89b4114610324578063983b2d561461032c578063a457c2d71461033f578063a9059cbb14610352576101c4565b8063782d6fe1146102f65780637ecebe00146103095780638da5cb5b1461031c576101c4565b806339509351116101665780635c19a95c116101405780635c19a95c146102b55780636fcfff45146102c857806370a08231146102db578063715018a6146102ee576101c4565b8063395093511461026d57806340c10f1914610280578063587cde1e14610295576101c4565b806318160ddd116101a257806318160ddd1461022857806320606b701461023d57806323b872dd14610245578063313ce56714610258576101c4565b806306fdde03146101c9578063095ea7b3146101e75780630cdfebfa14610207575b600080fd5b6101d16103df565b6040516101de919061157d565b60405180910390f35b6101fa6101f536600461144d565b610471565b6040516101de9190611503565b61021a61021536600461144d565b61048f565b6040516101de9291906119f9565b6102306104b3565b6040516101de919061150e565b6102306104b9565b6101fa610253366004611412565b6104dd565b61026061057d565b6040516101de9190611a07565b6101fa61027b36600461144d565b610582565b61029361028e36600461144d565b6105d1565b005b6102a86102a33660046113c6565b610629565b6040516101de91906114ef565b6102936102c33660046113c6565b61064a565b6102306102d63660046113c6565b610657565b6102306102e93660046113c6565b610669565b610293610684565b61023061030436600461144d565b6106cf565b6102306103173660046113c6565b6108b1565b6102a86108c3565b6101d16108d2565b61029361033a3660046113c6565b6108e1565b6101fa61034d36600461144d565b610992565b6101fa61036036600461144d565b610a0d565b6101fa6103733660046113c6565b610a21565b6102306103863660046113c6565b610a3f565b610293610399366004611476565b610aa2565b6102306103ac3660046113e0565b610c7d565b610230610ca8565b6102936103c73660046113c6565b610ccc565b6101fa6103da3660046113c6565b610d3a565b6060600380546103ee90611a64565b80601f016020809104026020016040519081016040528092919081815260200182805461041a90611a64565b80156104675780601f1061043c57610100808354040283529160200191610467565b820191906000526020600020905b81548152906001019060200180831161044a57829003601f168201915b5050505050905090565b600061048561047e610d4f565b8484610d53565b5060015b92915050565b60086020908152600092835260408084209091529082529020805460019091015482565b60025490565b7f8cad95687ba82c2ce50e74f7b754645e5117c3a5bec8151c0726d5857980a86681565b60006104ea848484610e07565b6001600160a01b03841660009081526001602052604081208161050b610d4f565b6001600160a01b03166001600160a01b03168152602001908152602001600020549050828110156105575760405162461bcd60e51b815260040161054e906117ea565b60405180910390fd5b61057285610563610d4f565b61056d8685611a4d565b610d53565b506001949350505050565b601290565b600061048561058f610d4f565b84846001600061059d610d4f565b6001600160a01b03908116825260208083019390935260409182016000908120918b168152925290205461056d9190611a15565b6105da33610a21565b6105f65760405162461bcd60e51b815260040161054e90611613565b6106008282610f3a565b6001600160a01b03808316600090815260066020526040812054610625921683611002565b5050565b6001600160a01b03808216600090815260066020526040902054165b919050565b6106543382611142565b50565b60096020526000908152604090205481565b6001600160a01b031660009081526020819052604090205490565b61068c610d4f565b6001600160a01b031661069d6108c3565b6001600160a01b0316146106c35760405162461bcd60e51b815260040161054e90611879565b6106cd60006111d1565b565b60004282106106f05760405162461bcd60e51b815260040161054e90611832565b6001600160a01b03831660009081526009602052604090205480610718576000915050610489565b6001600160a01b0384166000908152600860205260408120849161073d600185611a4d565b81526020019081526020016000206000015411610792576001600160a01b038416600090815260086020526040812090610778600184611a4d565b815260200190815260200160002060010154915050610489565b6001600160a01b03841660009081526008602090815260408083208380529091529020548310156107c7576000915050610489565b6000806107d5600184611a4d565b90505b8181111561088157600060026107ee8484611a4d565b6107f89190611a2d565b6108029083611a4d565b6001600160a01b038816600090815260086020908152604080832084845282529182902082518084019093528054808452600190910154918301919091529192509087141561085b576020015194506104899350505050565b805187111561086c5781935061087a565b610877600183611a4d565b92505b50506107d8565b506001600160a01b0385166000908152600860209081526040808320938352929052206001015491505092915050565b600a6020526000908152604090205481565b6005546001600160a01b031690565b6060600480546103ee90611a64565b6108e9610d4f565b6001600160a01b03166108fa6108c3565b6001600160a01b0316146109205760405162461bcd60e51b815260040161054e90611879565b61092981610a21565b156109465760405162461bcd60e51b815260040161054e906117a0565b6001600160a01b038116600081815260076020526040808220805460ff19166001179055517f6ae172837ea30b801fbfcdd4108aa1d5bf8ff775444fd70256b44e6bf3dfc3f69190a250565b600080600160006109a1610d4f565b6001600160a01b03908116825260208083019390935260409182016000908120918816815292529020549050828110156109ed5760405162461bcd60e51b815260040161054e9061197d565b610a036109f8610d4f565b8561056d8685611a4d565b5060019392505050565b6000610485610a1a610d4f565b8484610e07565b6001600160a01b031660009081526007602052604090205460ff1690565b6001600160a01b03811660009081526009602052604081205480610a64576000610a9b565b6001600160a01b038316600090815260086020526040812090610a88600184611a4d565b8152602001908152602001600020600101545b9392505050565b60007f8cad95687ba82c2ce50e74f7b754645e5117c3a5bec8151c0726d5857980a866610acd6103df565b80519060200120610adc611223565b30604051602001610af0949392919061153b565b60405160208183030381529060405280519060200120905060007fe48329057bfd03d55e49b547132e39cffd9c1820ad7b9d4c5307691425d15adf888888604051602001610b419493929190611517565b60405160208183030381529060405280519060200120905060008282604051602001610b6e9291906114d4565b604051602081830303815290604052805190602001209050600060018288888860405160008152602001604052604051610bab949392919061155f565b6020604051602081039080840390855afa158015610bcd573d6000803e3d6000fd5b5050604051601f1901519150506001600160a01b038116610c005760405162461bcd60e51b815260040161054e9061175a565b6001600160a01b0381166000908152600a60205260408120805491610c2483611a9f565b919050558914610c465760405162461bcd60e51b815260040161054e906116d2565b87421115610c665760405162461bcd60e51b815260040161054e90611937565b610c70818b611142565b505050505b505050505050565b6001600160a01b03918216600090815260016020908152604080832093909416825291909152205490565b7fe48329057bfd03d55e49b547132e39cffd9c1820ad7b9d4c5307691425d15adf81565b610cd4610d4f565b6001600160a01b0316610ce56108c3565b6001600160a01b031614610d0b5760405162461bcd60e51b815260040161054e90611879565b6001600160a01b038116610d315760405162461bcd60e51b815260040161054e9061164a565b610654816111d1565b60076020526000908152604090205460ff1681565b3390565b6001600160a01b038316610d795760405162461bcd60e51b815260040161054e906118f3565b6001600160a01b038216610d9f5760405162461bcd60e51b815260040161054e90611690565b6001600160a01b0380841660008181526001602090815260408083209487168084529490915290819020849055517f8c5be1e5ebec7d5bd14f71427d1e84f3dd0314c0f7b2291e5b200ac8c7c3b92590610dfa90859061150e565b60405180910390a3505050565b6001600160a01b038316610e2d5760405162461bcd60e51b815260040161054e906118ae565b6001600160a01b038216610e535760405162461bcd60e51b815260040161054e906115d0565b610e5e83838361113d565b6001600160a01b03831660009081526020819052604090205481811015610e975760405162461bcd60e51b815260040161054e90611714565b610ea18282611a4d565b6001600160a01b038086166000908152602081905260408082209390935590851681529081208054849290610ed7908490611a15565b92505081905550826001600160a01b0316846001600160a01b03167fddf252ad1be2c89b69c2b068fc378daa952ba7f163c4a11628f55a4df523b3ef84604051610f21919061150e565b60405180910390a3610f3484848461113d565b50505050565b6001600160a01b038216610f605760405162461bcd60e51b815260040161054e906119c2565b610f6c6000838361113d565b8060026000828254610f7e9190611a15565b90915550506001600160a01b03821660009081526020819052604081208054839290610fab908490611a15565b90915550506040516001600160a01b038316906000907fddf252ad1be2c89b69c2b068fc378daa952ba7f163c4a11628f55a4df523b3ef90610fee90859061150e565b60405180910390a36106256000838361113d565b816001600160a01b0316836001600160a01b0316141580156110245750600081115b1561113d576001600160a01b038316156110b5576001600160a01b038316600090815260096020526040812054908161105e576000611095565b6001600160a01b038516600090815260086020526040812090611082600185611a4d565b8152602001908152602001600020600101545b905060006110a38483611a4d565b90506110b186848484611227565b5050505b6001600160a01b0382161561113d576001600160a01b03821660009081526009602052604081205490816110ea576000611121565b6001600160a01b03841660009081526008602052604081209061110e600185611a4d565b8152602001908152602001600020600101545b9050600061112f8483611a15565b9050610c7585848484611227565b505050565b6001600160a01b038083166000908152600660205260408120549091169061116984610669565b6001600160a01b0385811660008181526006602052604080822080546001600160a01b031916898616908117909155905194955093928616927f3134e8a2e6d97e929a7e54011ea5485d7d196dd5f0ba4d4ef95803e8e3fc257f9190a4610f34828483611002565b600580546001600160a01b038381166001600160a01b0319831681179093556040519116919082907f8be0079c531659141344cd1fd0a4f28419497f9722a3daafe3b4186f6b6457e090600090a35050565b4690565b600061124b42604051806060016040528060388152602001611ad160389139611382565b905060008411801561129157506001600160a01b0385166000908152600860205260408120829161127d600188611a4d565b815260200190815260200160002060000154145b156112d4576001600160a01b038516600090815260086020526040812083916112bb600188611a4d565b8152602081019190915260400160002060010155611338565b60408051808201825282815260208082018581526001600160a01b03891660009081526008835284812089825290925292902090518155905160019182015561131e908590611a15565b6001600160a01b0386166000908152600960205260409020555b846001600160a01b03167fdec2bacdd2f05b59de34da9b523dff8be42e5e38e818c82fdb0bae774387a72484846040516113739291906119f9565b60405180910390a25050505050565b60008160001984106113a75760405162461bcd60e51b815260040161054e919061157d565b509192915050565b80356001600160a01b038116811461064557600080fd5b6000602082840312156113d7578081fd5b610a9b826113af565b600080604083850312156113f2578081fd5b6113fb836113af565b9150611409602084016113af565b90509250929050565b600080600060608486031215611426578081fd5b61142f846113af565b925061143d602085016113af565b9150604084013590509250925092565b6000806040838503121561145f578182fd5b611468836113af565b946020939093013593505050565b60008060008060008060c0878903121561148e578182fd5b611497876113af565b95506020870135945060408701359350606087013560ff811681146114ba578283fd5b9598949750929560808101359460a0909101359350915050565b61190160f01b81526002810192909252602282015260420190565b6001600160a01b0391909116815260200190565b901515815260200190565b90815260200190565b9384526001600160a01b039290921660208401526040830152606082015260800190565b938452602084019290925260408301526001600160a01b0316606082015260800190565b93845260ff9290921660208401526040830152606082015260800190565b6000602080835283518082850152825b818110156115a95785810183015185820160400152820161158d565b818111156115ba5783604083870101525b50601f01601f1916929092016040019392505050565b60208082526023908201527f45524332303a207472616e7366657220746f20746865207a65726f206164647260408201526265737360e81b606082015260800190565b6020808252601b908201527f6f6e6c79206d696e74657220616c6c6f77656420746f206d696e740000000000604082015260600190565b60208082526026908201527f4f776e61626c653a206e6577206f776e657220697320746865207a65726f206160408201526564647265737360d01b606082015260800190565b60208082526022908201527f45524332303a20617070726f766520746f20746865207a65726f206164647265604082015261737360f01b606082015260800190565b60208082526022908201527f534f554c3a3a64656c656761746542795369673a20696e76616c6964206e6f6e604082015261636560f01b606082015260800190565b60208082526026908201527f45524332303a207472616e7366657220616d6f756e7420657863656564732062604082015265616c616e636560d01b606082015260800190565b60208082526026908201527f534f554c3a3a64656c656761746542795369673a20696e76616c6964207369676040820152656e617475726560d01b606082015260800190565b6020808252602a908201527f616464546f57686974656c6973743a20616c726561647920616464656420746f604082015269081dda1a5d195b1a5cdd60b21b606082015260800190565b60208082526028908201527f45524332303a207472616e7366657220616d6f756e74206578636565647320616040820152676c6c6f77616e636560c01b606082015260800190565b60208082526027908201527f534f554c3a3a6765745072696f72566f7465733a206e6f742079657420646574604082015266195c9b5a5b995960ca1b606082015260800190565b6020808252818101527f4f776e61626c653a2063616c6c6572206973206e6f7420746865206f776e6572604082015260600190565b60208082526025908201527f45524332303a207472616e736665722066726f6d20746865207a65726f206164604082015264647265737360d81b606082015260800190565b60208082526024908201527f45524332303a20617070726f76652066726f6d20746865207a65726f206164646040820152637265737360e01b606082015260800190565b60208082526026908201527f534f554c3a3a64656c656761746542795369673a207369676e617475726520656040820152651e1c1a5c995960d21b606082015260800190565b60208082526025908201527f45524332303a2064656372656173656420616c6c6f77616e63652062656c6f77604082015264207a65726f60d81b606082015260800190565b6020808252601f908201527f45524332303a206d696e7420746f20746865207a65726f206164647265737300604082015260600190565b918252602082015260400190565b60ff91909116815260200190565b60008219821115611a2857611a28611aba565b500190565b600082611a4857634e487b7160e01b81526012600452602481fd5b500490565b600082821015611a5f57611a5f611aba565b500390565b600281046001821680611a7857607f821691505b60208210811415611a9957634e487b7160e01b600052602260045260246000fd5b50919050565b6000600019821415611ab357611ab3611aba565b5060010190565b634e487b7160e01b600052601160045260246000fdfe534f554c3a3a5f7772697465436865636b706f696e743a20626c6f636b2074696d657374616d702065786365656473203235362062697473a26469706673582212208b80155a0720de0850bee96bf455575828a5bb92e648d9c9b3d57a32aa0aa33764736f6c63430008000033",
    "sourcePath": "/Users/Uni/Documents/GitHub/soulswap/soulswap-farms/contracts/SoulToken.sol",
    "compiler": {
        "name": "solc",
        "version": "0.8.0+commit.c7dfd78e"
    },
    "functionHashes": {
        "DELEGATION_TYPEHASH()": "e7a324dc",
        "DOMAIN_TYPEHASH()": "20606b70",
        "addMinter(address)": "983b2d56",
        "allowance(address,address)": "dd62ed3e",
        "approve(address,uint256)": "095ea7b3",
        "balanceOf(address)": "70a08231",
        "checkpoints(address,uint256)": "0cdfebfa",
        "decimals()": "313ce567",
        "decreaseAllowance(address,uint256)": "a457c2d7",
        "delegate(address)": "5c19a95c",
        "delegateBySig(address,uint256,uint256,uint8,bytes32,bytes32)": "c3cda520",
        "delegates(address)": "587cde1e",
        "getCurrentVotes(address)": "b4b5ea57",
        "getPriorVotes(address,uint256)": "782d6fe1",
        "increaseAllowance(address,uint256)": "39509351",
        "isMinter(address)": "aa271e1a",
        "mint(address,uint256)": "40c10f19",
        "minters(address)": "f46eccc4",
        "name()": "06fdde03",
        "nonces(address)": "7ecebe00",
        "numCheckpoints(address)": "6fcfff45",
        "owner()": "8da5cb5b",
        "renounceOwnership()": "715018a6",
        "symbol()": "95d89b41",
        "totalSupply()": "18160ddd",
        "transfer(address,uint256)": "a9059cbb",
        "transferFrom(address,address,uint256)": "23b872dd",
        "transferOwnership(address)": "f2fde38b"
    },
    "gasEstimates": {
        "creation": {
            "codeDepositCost": "1394800",
            "executionCost": "infinite",
            "totalCost": "infinite"
        },
        "external": {
            "DELEGATION_TYPEHASH()": "294",
            "DOMAIN_TYPEHASH()": "296",
            "addMinter(address)": "24292",
            "allowance(address,address)": "infinite",
            "approve(address,uint256)": "22653",
            "balanceOf(address)": "1362",
            "checkpoints(address,uint256)": "2269",
            "decimals()": "352",
            "decreaseAllowance(address,uint256)": "infinite",
            "delegate(address)": "infinite",
            "delegateBySig(address,uint256,uint256,uint8,bytes32,bytes32)": "infinite",
            "delegates(address)": "infinite",
            "getCurrentVotes(address)": "infinite",
            "getPriorVotes(address,uint256)": "infinite",
            "increaseAllowance(address,uint256)": "infinite",
            "isMinter(address)": "1327",
            "mint(address,uint256)": "infinite",
            "minters(address)": "1374",
            "name()": "infinite",
            "nonces(address)": "1320",
            "numCheckpoints(address)": "1319",
            "owner()": "1160",
            "renounceOwnership()": "23618",
            "symbol()": "infinite",
            "totalSupply()": "1074",
            "transfer(address,uint256)": "infinite",
            "transferFrom(address,address,uint256)": "infinite",
            "transferOwnership(address)": "23790"
        },
        "internal": {
            "_delegate(address,address)": "infinite",
            "_moveDelegates(address,address,uint256)": "infinite",
            "_writeCheckpoint(address,uint256,uint256,uint256)": "infinite",
            "getChainId()": "14",
            "safe256(uint256,string memory)": "infinite"
        }
    }
}