{
    "contractName": "SoulScarab",
    "abi": [
        {
            "inputs": [],
            "stateMutability": "nonpayable",
            "type": "constructor"
        },
        {
            "anonymous": false,
            "inputs": [
                {
                    "indexed": false,
                    "internalType": "uint256",
                    "name": "feeRate",
                    "type": "uint256"
                }
            ],
            "name": "FeeRateUpdated",
            "type": "event"
        },
        {
            "anonymous": false,
            "inputs": [
                {
                    "indexed": false,
                    "internalType": "address",
                    "name": "token",
                    "type": "address"
                },
                {
                    "indexed": false,
                    "internalType": "uint256",
                    "name": "amount",
                    "type": "uint256"
                },
                {
                    "indexed": false,
                    "internalType": "uint256",
                    "name": "id",
                    "type": "uint256"
                }
            ],
            "name": "Lock",
            "type": "event"
        },
        {
            "anonymous": false,
            "inputs": [
                {
                    "indexed": true,
                    "internalType": "address",
                    "name": "previousOwner",
                    "type": "address"
                },
                {
                    "indexed": true,
                    "internalType": "address",
                    "name": "newOwner",
                    "type": "address"
                }
            ],
            "name": "OwnershipTransferred",
            "type": "event"
        },
        {
            "anonymous": false,
            "inputs": [
                {
                    "indexed": false,
                    "internalType": "address",
                    "name": "recipient",
                    "type": "address"
                },
                {
                    "indexed": false,
                    "internalType": "uint256",
                    "name": "amount",
                    "type": "uint256"
                }
            ],
            "name": "Withdraw",
            "type": "event"
        },
        {
            "inputs": [
                {
                    "internalType": "address",
                    "name": "",
                    "type": "address"
                },
                {
                    "internalType": "uint256",
                    "name": "",
                    "type": "uint256"
                }
            ],
            "name": "depositsByWithdrawer",
            "outputs": [
                {
                    "internalType": "uint256",
                    "name": "",
                    "type": "uint256"
                }
            ],
            "stateMutability": "view",
            "type": "function"
        },
        {
            "inputs": [],
            "name": "depositsCount",
            "outputs": [
                {
                    "internalType": "uint256",
                    "name": "",
                    "type": "uint256"
                }
            ],
            "stateMutability": "view",
            "type": "function"
        },
        {
            "inputs": [
                {
                    "internalType": "address",
                    "name": "_recipient",
                    "type": "address"
                }
            ],
            "name": "getDepositsByWithdrawer",
            "outputs": [
                {
                    "internalType": "uint256[]",
                    "name": "",
                    "type": "uint256[]"
                }
            ],
            "stateMutability": "view",
            "type": "function"
        },
        {
            "inputs": [],
            "name": "getTotalLockedBalance",
            "outputs": [
                {
                    "internalType": "uint256",
                    "name": "",
                    "type": "uint256"
                }
            ],
            "stateMutability": "view",
            "type": "function"
        },
        {
            "inputs": [
                {
                    "internalType": "uint256",
                    "name": "amount",
                    "type": "uint256"
                }
            ],
            "name": "getTribute",
            "outputs": [
                {
                    "internalType": "uint256",
                    "name": "fee",
                    "type": "uint256"
                }
            ],
            "stateMutability": "view",
            "type": "function"
        },
        {
            "inputs": [
                {
                    "internalType": "address",
                    "name": "_recipient",
                    "type": "address"
                },
                {
                    "internalType": "uint256",
                    "name": "_amount",
                    "type": "uint256"
                },
                {
                    "internalType": "uint256",
                    "name": "_unlockTimestamp",
                    "type": "uint256"
                }
            ],
            "name": "lockTokens",
            "outputs": [
                {
                    "internalType": "uint256",
                    "name": "id",
                    "type": "uint256"
                }
            ],
            "stateMutability": "nonpayable",
            "type": "function"
        },
        {
            "inputs": [
                {
                    "internalType": "uint256",
                    "name": "",
                    "type": "uint256"
                }
            ],
            "name": "lockedToken",
            "outputs": [
                {
                    "internalType": "address",
                    "name": "recipient",
                    "type": "address"
                },
                {
                    "internalType": "uint256",
                    "name": "amount",
                    "type": "uint256"
                },
                {
                    "internalType": "uint256",
                    "name": "tribute",
                    "type": "uint256"
                },
                {
                    "internalType": "uint256",
                    "name": "unlockTimestamp",
                    "type": "uint256"
                },
                {
                    "internalType": "bool",
                    "name": "withdrawn",
                    "type": "bool"
                }
            ],
            "stateMutability": "view",
            "type": "function"
        },
        {
            "inputs": [],
            "name": "manifestor",
            "outputs": [
                {
                    "internalType": "address",
                    "name": "",
                    "type": "address"
                }
            ],
            "stateMutability": "view",
            "type": "function"
        },
        {
            "inputs": [],
            "name": "owner",
            "outputs": [
                {
                    "internalType": "address",
                    "name": "",
                    "type": "address"
                }
            ],
            "stateMutability": "view",
            "type": "function"
        },
        {
            "inputs": [],
            "name": "renounceOwnership",
            "outputs": [],
            "stateMutability": "nonpayable",
            "type": "function"
        },
        {
            "inputs": [],
            "name": "seance",
            "outputs": [
                {
                    "internalType": "contract SeanceCircle",
                    "name": "",
                    "type": "address"
                }
            ],
            "stateMutability": "view",
            "type": "function"
        },
        {
            "inputs": [
                {
                    "internalType": "address",
                    "name": "_manifestor",
                    "type": "address"
                }
            ],
            "name": "setManifestor",
            "outputs": [],
            "stateMutability": "nonpayable",
            "type": "function"
        },
        {
            "inputs": [],
            "name": "soul",
            "outputs": [
                {
                    "internalType": "contract SoulPower",
                    "name": "",
                    "type": "address"
                }
            ],
            "stateMutability": "view",
            "type": "function"
        },
        {
            "inputs": [
                {
                    "internalType": "address",
                    "name": "newOwner",
                    "type": "address"
                }
            ],
            "name": "transferOwnership",
            "outputs": [],
            "stateMutability": "nonpayable",
            "type": "function"
        },
        {
            "inputs": [],
            "name": "tributeRate",
            "outputs": [
                {
                    "internalType": "uint256",
                    "name": "",
                    "type": "uint256"
                }
            ],
            "stateMutability": "view",
            "type": "function"
        },
        {
            "inputs": [
                {
                    "internalType": "address",
                    "name": "",
                    "type": "address"
                }
            ],
            "name": "walletBalance",
            "outputs": [
                {
                    "internalType": "uint256",
                    "name": "",
                    "type": "uint256"
                }
            ],
            "stateMutability": "view",
            "type": "function"
        },
        {
            "inputs": [
                {
                    "internalType": "uint256",
                    "name": "id",
                    "type": "uint256"
                }
            ],
            "name": "withdrawTokens",
            "outputs": [],
            "stateMutability": "nonpayable",
            "type": "function"
        }
    ],
    "bytecode": "60e06040527f124b06c5ce47de7a6e9efda71a946717130079e60000000000000000000000006080527fe2fb177009ff39f52c0134e8007fa0e4baacbd0700000000000000000000000060a0527ffd63bf84471bc55dd9a83fdfa293ccbd27e1f4c800000000000000000000000060c052678ac7230489e8000060065534801561008857600080fd5b506100996100946100b0565b6100b4565b600580546001600160a01b03191633179055610104565b3390565b600080546001600160a01b038381166001600160a01b0319831681178455604051919092169283917f8be0079c531659141344cd1fd0a4f28419497f9722a3daafe3b4186f6b6457e09190a35050565b60805160601c60a05160601c60c05160601c6111d861017460003960006104720152600081816103800152818161066401528181610712015281816107d1015281816108700152818161091601528181610a8c0152610ba601526000818161044301526105b401526111d86000f3fe608060405234801561001057600080fd5b506004361061010b5760003560e01c80638da5cb5b116100a2578063bb941cff11610071578063bb941cff146101e4578063cf616f4014610208578063cf9cd8f814610210578063d5c2589014610223578063f2fde38b1461022b5761010b565b80638da5cb5b146101ae578063a25983e5146101b6578063a7953e5e146101c9578063b2f4a91f146101dc5761010b565b80634ca01d45116100de5780634ca01d45146101765780636f8dfd091461018b578063715018a61461019e578063815b7a8c146101a65761010b565b806323c4a92114610110578063315a095d146101395780634506e9351461014e578063469d86e214610156575b600080fd5b61012361011e366004610d2d565b61023e565b60405161013091906110fa565b60405180910390f35b61014c610147366004610da8565b61026f565b005b61012361053f565b610169610164366004610d0c565b610545565b6040516101309190610e94565b61017e6105b2565b6040516101309190610dd8565b610123610199366004610da8565b6105d6565b61014c610617565b61017e610662565b61017e610686565b6101236101c4366004610d56565b610695565b61014c6101d7366004610d0c565b610ac7565b61017e610b28565b6101f76101f2366004610da8565b610b37565b604051610130959493929190610e64565b610123610b74565b61012361021e366004610d0c565b610b7a565b610123610b8c565b61014c610239366004610d0c565b610c30565b6002602052816000526040600020818154811061025a57600080fd5b90600052602060002001600091509150505481565b600081815260036020819052604090912001544210156102aa5760405162461bcd60e51b81526004016102a190610f7d565b60405180910390fd5b6000818152600360205260409020546001600160a01b031633146102e05760405162461bcd60e51b81526004016102a190611095565b60008181526003602052604090206004015460ff166103115760405162461bcd60e51b81526004016102a190610ffa565b60008181526003602090815260408083206004808201805460ff19166001908117909155919091015433855292529091205461034d919061115a565b33600081815260046020818152604080842095909555858352600390529083902060010154925163a9059cbb60e01b81527f00000000000000000000000000000000000000000000000000000000000000006001600160a01b03169363a9059cbb936103bb93909201610e2a565b602060405180830381600087803b1580156103d557600080fd5b505af11580156103e9573d6000803e3d6000fd5b505050506040513d601f19601f8201168201806040525081019061040d9190610d88565b50600081815260036020526040812060010154610429906105d6565b6040516323b872dd60e01b81529091506001600160a01b037f000000000000000000000000000000000000000000000000000000000000000016906323b872dd9061049c9033907f0000000000000000000000000000000000000000000000000000000000000000908690600401610e06565b602060405180830381600087803b1580156104b657600080fd5b505af11580156104ca573d6000803e3d6000fd5b505050506040513d601f19601f820116820180604052508101906104ee9190610d88565b50600082815260036020526040908190206001015490517f884edad9ce6fa2440d8a54cc123490eb96d2768479d49ff9c7366125a94243649161053391339190610e2a565b60405180910390a15050565b60015481565b6001600160a01b0381166000908152600260209081526040918290208054835181840281018401909452808452606093928301828280156105a557602002820191906000526020600020905b815481526020019060010190808311610591575b505050505090505b919050565b7f000000000000000000000000000000000000000000000000000000000000000081565b60008082116105f75760405162461bcd60e51b81526004016102a1906110cc565b606460065483610607919061113b565b610611919061111b565b92915050565b61061f610ca1565b6001600160a01b0316610630610686565b6001600160a01b0316146106565760405162461bcd60e51b81526004016102a190611060565b6106606000610ca5565b565b7f000000000000000000000000000000000000000000000000000000000000000081565b6000546001600160a01b031690565b60008083116106b65760405162461bcd60e51b81526004016102a190610ed8565b6402540be40082106106da5760405162461bcd60e51b81526004016102a190610f46565b4282116106f95760405162461bcd60e51b81526004016102a190610f0f565b604051636eb1769f60e11b815283906001600160a01b037f0000000000000000000000000000000000000000000000000000000000000000169063dd62ed3e906107499033903090600401610dec565b60206040518083038186803b15801561076157600080fd5b505afa158015610775573d6000803e3d6000fd5b505050506040513d601f19601f820116820180604052508101906107999190610dc0565b10156107b75760405162461bcd60e51b81526004016102a190611031565b6040516370a0823160e01b81526000906001600160a01b037f000000000000000000000000000000000000000000000000000000000000000016906370a0823190610806903090600401610dd8565b60206040518083038186803b15801561081e57600080fd5b505afa158015610832573d6000803e3d6000fd5b505050506040513d601f19601f820116820180604052508101906108569190610dc0565b6040516323b872dd60e01b81529091506001600160a01b037f000000000000000000000000000000000000000000000000000000000000000016906323b872dd906108a990339030908990600401610e06565b602060405180830381600087803b1580156108c357600080fd5b505af11580156108d7573d6000803e3d6000fd5b505050506040513d601f19601f820116820180604052508101906108fb9190610d88565b506040516370a0823160e01b81526000906001600160a01b037f000000000000000000000000000000000000000000000000000000000000000016906370a082319061094b903090600401610dd8565b60206040518083038186803b15801561096357600080fd5b505afa158015610977573d6000803e3d6000fd5b505050506040513d601f19601f8201168201806040525081019061099b9190610dc0565b90506109a7828261115a565b945060006109b4866105d6565b336000908152600460205260409020549091506109d2908790611103565b33600090815260046020526040812091909155600180549091906109f590611171565b9182905550600081815260036020818152604080842080546001600160a01b0319166001600160a01b038e16908117825560018083018e905560028084018a90559583018d90556004909201805460ff191690558552928252808420805493840181558452922001829055519094507f49eaf4942f1237055eb4cfa5f31c9dfe50d5b4ade01e021f7de8be2fbbde557b90610ab5907f00000000000000000000000000000000000000000000000000000000000000009089908890610e43565b60405180910390a15050509392505050565b610acf610ca1565b6001600160a01b0316610ae0610686565b6001600160a01b031614610b065760405162461bcd60e51b81526004016102a190611060565b600580546001600160a01b0319166001600160a01b0392909216919091179055565b6005546001600160a01b031681565b6003602081905260009182526040909120805460018201546002830154938301546004909301546001600160a01b03909216939092909160ff1685565b60065481565b60046020526000908152604090205481565b6040516370a0823160e01b81526000906001600160a01b037f000000000000000000000000000000000000000000000000000000000000000016906370a0823190610bdb903090600401610dd8565b60206040518083038186803b158015610bf357600080fd5b505afa158015610c07573d6000803e3d6000fd5b505050506040513d601f19601f82011682018060405250810190610c2b9190610dc0565b905090565b610c38610ca1565b6001600160a01b0316610c49610686565b6001600160a01b031614610c6f5760405162461bcd60e51b81526004016102a190611060565b6001600160a01b038116610c955760405162461bcd60e51b81526004016102a190610fb4565b610c9e81610ca5565b50565b3390565b600080546001600160a01b038381166001600160a01b0319831681178455604051919092169283917f8be0079c531659141344cd1fd0a4f28419497f9722a3daafe3b4186f6b6457e09190a35050565b80356001600160a01b03811681146105ad57600080fd5b600060208284031215610d1d578081fd5b610d2682610cf5565b9392505050565b60008060408385031215610d3f578081fd5b610d4883610cf5565b946020939093013593505050565b600080600060608486031215610d6a578081fd5b610d7384610cf5565b95602085013595506040909401359392505050565b600060208284031215610d99578081fd5b81518015158114610d26578182fd5b600060208284031215610db9578081fd5b5035919050565b600060208284031215610dd1578081fd5b5051919050565b6001600160a01b0391909116815260200190565b6001600160a01b0392831681529116602082015260400190565b6001600160a01b039384168152919092166020820152604081019190915260600190565b6001600160a01b03929092168252602082015260400190565b6001600160a01b039390931683526020830191909152604082015260600190565b6001600160a01b039590951685526020850193909352604084019190915260608301521515608082015260a00190565b6020808252825182820181905260009190848201906040850190845b81811015610ecc57835183529284019291840191600101610eb0565b50909695505050505050565b6020808252601a908201527f496e73756666696369656e7420536f756c2062616c616e63652e000000000000604082015260600190565b6020808252601c908201527f556e6c6f636b206973206e6f7420696e20746865206675747572652e00000000604082015260600190565b60208082526018908201527f556e6c6f636b206973206e6f7420696e207365636f6e642e0000000000000000604082015260600190565b60208082526018908201527f546f6b656e7320617265207374696c6c206c6f636b65642e0000000000000000604082015260600190565b60208082526026908201527f4f776e61626c653a206e6577206f776e657220697320746865207a65726f206160408201526564647265737360d01b606082015260800190565b6020808252601d908201527f546f6b656e732061726520616c72656164792077697468647261776e2e000000604082015260600190565b60208082526015908201527420b8383937bb32903a37b5b2b739903334b939ba1760591b604082015260600190565b6020808252818101527f4f776e61626c653a2063616c6c6572206973206e6f7420746865206f776e6572604082015260600190565b6020808252601a908201527f596f7520617265206e6f742074686520726563697069656e742e000000000000604082015260600190565b60208082526014908201527363616e6e6f742068617665207a65726f2066656560601b604082015260600190565b90815260200190565b600082198211156111165761111661118c565b500190565b60008261113657634e487b7160e01b81526012600452602481fd5b500490565b60008160001904831182151516156111555761115561118c565b500290565b60008282101561116c5761116c61118c565b500390565b60006000198214156111855761118561118c565b5060010190565b634e487b7160e01b600052601160045260246000fdfea26469706673582212205b41a8a066bef67acd7ff0db6a500807ce73035817ec838c348866c6403d8f4464736f6c63430008000033",
    "sourcePath": "/Users/unico/Documents/GitHub/SoulSwap/soulswap-farms/contracts/SoulScarab.sol",
    "compiler": {
        "name": "solc",
        "version": "0.8.0+commit.c7dfd78e"
    },
    "functionHashes": {
        "depositsByWithdrawer(address,uint256)": "23c4a921",
        "depositsCount()": "4506e935",
        "getDepositsByWithdrawer(address)": "469d86e2",
        "getTotalLockedBalance()": "d5c25890",
        "getTribute(uint256)": "6f8dfd09",
        "lockTokens(address,uint256,uint256)": "a25983e5",
        "lockedToken(uint256)": "bb941cff",
        "manifestor()": "b2f4a91f",
        "owner()": "8da5cb5b",
        "renounceOwnership()": "715018a6",
        "seance()": "4ca01d45",
        "setManifestor(address)": "a7953e5e",
        "soul()": "815b7a8c",
        "transferOwnership(address)": "f2fde38b",
        "tributeRate()": "cf616f40",
        "walletBalance(address)": "cf9cd8f8",
        "withdrawTokens(uint256)": "315a095d"
    },
    "gasEstimates": {
        "creation": {
            "codeDepositCost": "913600",
            "executionCost": "infinite",
            "totalCost": "infinite"
        },
        "external": {
            "depositsByWithdrawer(address,uint256)": "2189",
            "depositsCount()": "1096",
            "getDepositsByWithdrawer(address)": "infinite",
            "getTotalLockedBalance()": "infinite",
            "getTribute(uint256)": "1341",
            "lockTokens(address,uint256,uint256)": "infinite",
            "lockedToken(uint256)": "4609",
            "manifestor()": "1159",
            "owner()": "1093",
            "renounceOwnership()": "23571",
            "seance()": "infinite",
            "setManifestor(address)": "22168",
            "soul()": "infinite",
            "transferOwnership(address)": "23809",
            "tributeRate()": "1072",
            "walletBalance(address)": "1318",
            "withdrawTokens(uint256)": "infinite"
        }
    }
}