{
    "contractName": "SoulSummoner",
    "abi": [
        {
            "inputs": [],
            "stateMutability": "nonpayable",
            "type": "constructor"
        },
        {
            "anonymous": false,
            "inputs": [
                {
                    "indexed": false,
                    "internalType": "address",
                    "name": "dao",
                    "type": "address"
                },
                {
                    "indexed": false,
                    "internalType": "address",
                    "name": "team",
                    "type": "address"
                }
            ],
            "name": "AccountsUpdated",
            "type": "event"
        },
        {
            "anonymous": false,
            "inputs": [
                {
                    "indexed": true,
                    "internalType": "address",
                    "name": "user",
                    "type": "address"
                },
                {
                    "indexed": true,
                    "internalType": "uint256",
                    "name": "pid",
                    "type": "uint256"
                },
                {
                    "indexed": false,
                    "internalType": "uint256",
                    "name": "amount",
                    "type": "uint256"
                }
            ],
            "name": "Deposit",
            "type": "event"
        },
        {
            "anonymous": false,
            "inputs": [
                {
                    "indexed": false,
                    "internalType": "address",
                    "name": "team",
                    "type": "address"
                },
                {
                    "indexed": false,
                    "internalType": "address",
                    "name": "dao",
                    "type": "address"
                },
                {
                    "indexed": false,
                    "internalType": "address",
                    "name": "soul",
                    "type": "address"
                },
                {
                    "indexed": false,
                    "internalType": "address",
                    "name": "seance",
                    "type": "address"
                },
                {
                    "indexed": false,
                    "internalType": "uint256",
                    "name": "totalAllocPoint",
                    "type": "uint256"
                },
                {
                    "indexed": false,
                    "internalType": "uint256",
                    "name": "weight",
                    "type": "uint256"
                }
            ],
            "name": "Initialized",
            "type": "event"
        },
        {
            "anonymous": false,
            "inputs": [
                {
                    "indexed": true,
                    "internalType": "address",
                    "name": "previousOwner",
                    "type": "address"
                },
                {
                    "indexed": true,
                    "internalType": "address",
                    "name": "newOwner",
                    "type": "address"
                }
            ],
            "name": "OwnershipTransferred",
            "type": "event"
        },
        {
            "anonymous": false,
            "inputs": [
                {
                    "indexed": false,
                    "internalType": "address",
                    "name": "account",
                    "type": "address"
                }
            ],
            "name": "Paused",
            "type": "event"
        },
        {
            "anonymous": false,
            "inputs": [
                {
                    "indexed": false,
                    "internalType": "uint256",
                    "name": "pid",
                    "type": "uint256"
                },
                {
                    "indexed": false,
                    "internalType": "uint256",
                    "name": "allocPoint",
                    "type": "uint256"
                },
                {
                    "indexed": false,
                    "internalType": "contract IERC20",
                    "name": "lpToken",
                    "type": "address"
                },
                {
                    "indexed": false,
                    "internalType": "uint256",
                    "name": "totalAllocPoint",
                    "type": "uint256"
                }
            ],
            "name": "PoolAdded",
            "type": "event"
        },
        {
            "anonymous": false,
            "inputs": [
                {
                    "indexed": false,
                    "internalType": "uint256",
                    "name": "pid",
                    "type": "uint256"
                },
                {
                    "indexed": false,
                    "internalType": "uint256",
                    "name": "allocPoint",
                    "type": "uint256"
                }
            ],
            "name": "PoolSet",
            "type": "event"
        },
        {
            "anonymous": false,
            "inputs": [
                {
                    "indexed": false,
                    "internalType": "uint256",
                    "name": "dailySoul",
                    "type": "uint256"
                },
                {
                    "indexed": false,
                    "internalType": "uint256",
                    "name": "soulPerSecond",
                    "type": "uint256"
                }
            ],
            "name": "RewardsUpdated",
            "type": "event"
        },
        {
            "anonymous": false,
            "inputs": [
                {
                    "indexed": true,
                    "internalType": "bytes32",
                    "name": "role",
                    "type": "bytes32"
                },
                {
                    "indexed": true,
                    "internalType": "bytes32",
                    "name": "previousAdminRole",
                    "type": "bytes32"
                },
                {
                    "indexed": true,
                    "internalType": "bytes32",
                    "name": "newAdminRole",
                    "type": "bytes32"
                }
            ],
            "name": "RoleAdminChanged",
            "type": "event"
        },
        {
            "anonymous": false,
            "inputs": [
                {
                    "indexed": false,
                    "internalType": "bytes32",
                    "name": "role",
                    "type": "bytes32"
                },
                {
                    "indexed": false,
                    "internalType": "bytes32",
                    "name": "supreme",
                    "type": "bytes32"
                }
            ],
            "name": "RoleDivinated",
            "type": "event"
        },
        {
            "anonymous": false,
            "inputs": [
                {
                    "indexed": true,
                    "internalType": "bytes32",
                    "name": "role",
                    "type": "bytes32"
                },
                {
                    "indexed": true,
                    "internalType": "address",
                    "name": "account",
                    "type": "address"
                },
                {
                    "indexed": true,
                    "internalType": "address",
                    "name": "sender",
                    "type": "address"
                }
            ],
            "name": "RoleGranted",
            "type": "event"
        },
        {
            "anonymous": false,
            "inputs": [
                {
                    "indexed": true,
                    "internalType": "bytes32",
                    "name": "role",
                    "type": "bytes32"
                },
                {
                    "indexed": true,
                    "internalType": "address",
                    "name": "account",
                    "type": "address"
                },
                {
                    "indexed": true,
                    "internalType": "address",
                    "name": "sender",
                    "type": "address"
                }
            ],
            "name": "RoleRevoked",
            "type": "event"
        },
        {
            "anonymous": false,
            "inputs": [
                {
                    "indexed": false,
                    "internalType": "address",
                    "name": "soul",
                    "type": "address"
                },
                {
                    "indexed": false,
                    "internalType": "address",
                    "name": "seance",
                    "type": "address"
                }
            ],
            "name": "TokensUpdated",
            "type": "event"
        },
        {
            "anonymous": false,
            "inputs": [
                {
                    "indexed": false,
                    "internalType": "address",
                    "name": "account",
                    "type": "address"
                }
            ],
            "name": "Unpaused",
            "type": "event"
        },
        {
            "anonymous": false,
            "inputs": [
                {
                    "indexed": false,
                    "internalType": "uint256",
                    "name": "weight",
                    "type": "uint256"
                },
                {
                    "indexed": false,
                    "internalType": "uint256",
                    "name": "totalWeight",
                    "type": "uint256"
                }
            ],
            "name": "WeightUpdated",
            "type": "event"
        },
        {
            "anonymous": false,
            "inputs": [
                {
                    "indexed": true,
                    "internalType": "address",
                    "name": "user",
                    "type": "address"
                },
                {
                    "indexed": true,
                    "internalType": "uint256",
                    "name": "pid",
                    "type": "uint256"
                },
                {
                    "indexed": false,
                    "internalType": "uint256",
                    "name": "amount",
                    "type": "uint256"
                }
            ],
            "name": "Withdraw",
            "type": "event"
        },
        {
            "inputs": [],
            "name": "DEFAULT_ADMIN_ROLE",
            "outputs": [
                {
                    "internalType": "bytes32",
                    "name": "",
                    "type": "bytes32"
                }
            ],
            "stateMutability": "view",
            "type": "function"
        },
        {
            "inputs": [
                {
                    "internalType": "uint256",
                    "name": "_allocPoint",
                    "type": "uint256"
                },
                {
                    "internalType": "contract IERC20",
                    "name": "_lpToken",
                    "type": "address"
                },
                {
                    "internalType": "bool",
                    "name": "_withUpdate",
                    "type": "bool"
                }
            ],
            "name": "addPool",
            "outputs": [],
            "stateMutability": "nonpayable",
            "type": "function"
        },
        {
            "inputs": [],
            "name": "bonusMultiplier",
            "outputs": [
                {
                    "internalType": "uint256",
                    "name": "",
                    "type": "uint256"
                }
            ],
            "stateMutability": "view",
            "type": "function"
        },
        {
            "inputs": [],
            "name": "dailySoul",
            "outputs": [
                {
                    "internalType": "uint256",
                    "name": "",
                    "type": "uint256"
                }
            ],
            "stateMutability": "view",
            "type": "function"
        },
        {
            "inputs": [],
            "name": "dao",
            "outputs": [
                {
                    "internalType": "address",
                    "name": "",
                    "type": "address"
                }
            ],
            "stateMutability": "view",
            "type": "function"
        },
        {
            "inputs": [
                {
                    "internalType": "uint256",
                    "name": "pid",
                    "type": "uint256"
                },
                {
                    "internalType": "uint256",
                    "name": "amount",
                    "type": "uint256"
                }
            ],
            "name": "deposit",
            "outputs": [],
            "stateMutability": "nonpayable",
            "type": "function"
        },
        {
            "inputs": [
                {
                    "internalType": "uint256",
                    "name": "amount",
                    "type": "uint256"
                }
            ],
            "name": "enterStaking",
            "outputs": [],
            "stateMutability": "nonpayable",
            "type": "function"
        },
        {
            "inputs": [
                {
                    "internalType": "uint256",
                    "name": "from",
                    "type": "uint256"
                },
                {
                    "internalType": "uint256",
                    "name": "to",
                    "type": "uint256"
                }
            ],
            "name": "getMultiplier",
            "outputs": [
                {
                    "internalType": "uint256",
                    "name": "",
                    "type": "uint256"
                }
            ],
            "stateMutability": "view",
            "type": "function"
        },
        {
            "inputs": [
                {
                    "internalType": "bytes32",
                    "name": "role",
                    "type": "bytes32"
                }
            ],
            "name": "getRoleAdmin",
            "outputs": [
                {
                    "internalType": "bytes32",
                    "name": "",
                    "type": "bytes32"
                }
            ],
            "stateMutability": "view",
            "type": "function"
        },
        {
            "inputs": [
                {
                    "internalType": "bytes32",
                    "name": "role",
                    "type": "bytes32"
                },
                {
                    "internalType": "address",
                    "name": "account",
                    "type": "address"
                }
            ],
            "name": "grantRole",
            "outputs": [],
            "stateMutability": "nonpayable",
            "type": "function"
        },
        {
            "inputs": [
                {
                    "internalType": "bytes32",
                    "name": "role",
                    "type": "bytes32"
                }
            ],
            "name": "hasDivineRole",
            "outputs": [
                {
                    "internalType": "bool",
                    "name": "",
                    "type": "bool"
                }
            ],
            "stateMutability": "view",
            "type": "function"
        },
        {
            "inputs": [
                {
                    "internalType": "bytes32",
                    "name": "role",
                    "type": "bytes32"
                },
                {
                    "internalType": "address",
                    "name": "account",
                    "type": "address"
                }
            ],
            "name": "hasRole",
            "outputs": [
                {
                    "internalType": "bool",
                    "name": "",
                    "type": "bool"
                }
            ],
            "stateMutability": "view",
            "type": "function"
        },
        {
            "inputs": [
                {
                    "internalType": "address",
                    "name": "_soulAddress",
                    "type": "address"
                },
                {
                    "internalType": "address",
                    "name": "_seanceAddress",
                    "type": "address"
                },
                {
                    "internalType": "uint256",
                    "name": "_totalWeight",
                    "type": "uint256"
                },
                {
                    "internalType": "uint256",
                    "name": "_weight",
                    "type": "uint256"
                },
                {
                    "internalType": "uint256",
                    "name": "_stakingAlloc",
                    "type": "uint256"
                }
            ],
            "name": "initialize",
            "outputs": [],
            "stateMutability": "nonpayable",
            "type": "function"
        },
        {
            "inputs": [],
            "name": "isInitialized",
            "outputs": [
                {
                    "internalType": "bool",
                    "name": "",
                    "type": "bool"
                }
            ],
            "stateMutability": "view",
            "type": "function"
        },
        {
            "inputs": [],
            "name": "isis",
            "outputs": [
                {
                    "internalType": "bytes32",
                    "name": "",
                    "type": "bytes32"
                }
            ],
            "stateMutability": "view",
            "type": "function"
        },
        {
            "inputs": [
                {
                    "internalType": "uint256",
                    "name": "amount",
                    "type": "uint256"
                }
            ],
            "name": "leaveStaking",
            "outputs": [],
            "stateMutability": "nonpayable",
            "type": "function"
        },
        {
            "inputs": [],
            "name": "maat",
            "outputs": [
                {
                    "internalType": "bytes32",
                    "name": "",
                    "type": "bytes32"
                }
            ],
            "stateMutability": "view",
            "type": "function"
        },
        {
            "inputs": [],
            "name": "massUpdatePools",
            "outputs": [],
            "stateMutability": "nonpayable",
            "type": "function"
        },
        {
            "inputs": [
                {
                    "internalType": "uint256",
                    "name": "pid",
                    "type": "uint256"
                }
            ],
            "name": "migrate",
            "outputs": [],
            "stateMutability": "nonpayable",
            "type": "function"
        },
        {
            "inputs": [],
            "name": "migrator",
            "outputs": [
                {
                    "internalType": "contract IMigrator",
                    "name": "",
                    "type": "address"
                }
            ],
            "stateMutability": "view",
            "type": "function"
        },
        {
            "inputs": [],
            "name": "owner",
            "outputs": [
                {
                    "internalType": "address",
                    "name": "",
                    "type": "address"
                }
            ],
            "stateMutability": "view",
            "type": "function"
        },
        {
            "inputs": [],
            "name": "paused",
            "outputs": [
                {
                    "internalType": "bool",
                    "name": "",
                    "type": "bool"
                }
            ],
            "stateMutability": "view",
            "type": "function"
        },
        {
            "inputs": [
                {
                    "internalType": "uint256",
                    "name": "pid",
                    "type": "uint256"
                },
                {
                    "internalType": "address",
                    "name": "_user",
                    "type": "address"
                }
            ],
            "name": "pendingSoul",
            "outputs": [
                {
                    "internalType": "uint256",
                    "name": "",
                    "type": "uint256"
                }
            ],
            "stateMutability": "view",
            "type": "function"
        },
        {
            "inputs": [
                {
                    "internalType": "uint256",
                    "name": "",
                    "type": "uint256"
                }
            ],
            "name": "poolInfo",
            "outputs": [
                {
                    "internalType": "contract IERC20",
                    "name": "lpToken",
                    "type": "address"
                },
                {
                    "internalType": "uint256",
                    "name": "allocPoint",
                    "type": "uint256"
                },
                {
                    "internalType": "uint256",
                    "name": "lastRewardTime",
                    "type": "uint256"
                },
                {
                    "internalType": "uint256",
                    "name": "accSoulPerShare",
                    "type": "uint256"
                }
            ],
            "stateMutability": "view",
            "type": "function"
        },
        {
            "inputs": [],
            "name": "poolLength",
            "outputs": [
                {
                    "internalType": "uint256",
                    "name": "",
                    "type": "uint256"
                }
            ],
            "stateMutability": "view",
            "type": "function"
        },
        {
            "inputs": [],
            "name": "renounceOwnership",
            "outputs": [],
            "stateMutability": "nonpayable",
            "type": "function"
        },
        {
            "inputs": [
                {
                    "internalType": "bytes32",
                    "name": "role",
                    "type": "bytes32"
                },
                {
                    "internalType": "address",
                    "name": "account",
                    "type": "address"
                }
            ],
            "name": "renounceRole",
            "outputs": [],
            "stateMutability": "nonpayable",
            "type": "function"
        },
        {
            "inputs": [
                {
                    "internalType": "bytes32",
                    "name": "role",
                    "type": "bytes32"
                },
                {
                    "internalType": "address",
                    "name": "account",
                    "type": "address"
                }
            ],
            "name": "revokeRole",
            "outputs": [],
            "stateMutability": "nonpayable",
            "type": "function"
        },
        {
            "inputs": [],
            "name": "seance",
            "outputs": [
                {
                    "internalType": "contract SeanceCircle",
                    "name": "",
                    "type": "address"
                }
            ],
            "stateMutability": "view",
            "type": "function"
        },
        {
            "inputs": [
                {
                    "internalType": "uint256",
                    "name": "pid",
                    "type": "uint256"
                },
                {
                    "internalType": "uint256",
                    "name": "allocPoint",
                    "type": "uint256"
                },
                {
                    "internalType": "bool",
                    "name": "withUpdate",
                    "type": "bool"
                }
            ],
            "name": "set",
            "outputs": [],
            "stateMutability": "nonpayable",
            "type": "function"
        },
        {
            "inputs": [
                {
                    "internalType": "contract IMigrator",
                    "name": "_migrator",
                    "type": "address"
                }
            ],
            "name": "setMigrator",
            "outputs": [],
            "stateMutability": "nonpayable",
            "type": "function"
        },
        {
            "inputs": [],
            "name": "soul",
            "outputs": [
                {
                    "internalType": "contract SoulPower",
                    "name": "",
                    "type": "address"
                }
            ],
            "stateMutability": "view",
            "type": "function"
        },
        {
            "inputs": [],
            "name": "soulPerSecond",
            "outputs": [
                {
                    "internalType": "uint256",
                    "name": "",
                    "type": "uint256"
                }
            ],
            "stateMutability": "view",
            "type": "function"
        },
        {
            "inputs": [],
            "name": "startTime",
            "outputs": [
                {
                    "internalType": "uint256",
                    "name": "",
                    "type": "uint256"
                }
            ],
            "stateMutability": "view",
            "type": "function"
        },
        {
            "inputs": [
                {
                    "internalType": "bytes4",
                    "name": "interfaceId",
                    "type": "bytes4"
                }
            ],
            "name": "supportsInterface",
            "outputs": [
                {
                    "internalType": "bool",
                    "name": "",
                    "type": "bool"
                }
            ],
            "stateMutability": "view",
            "type": "function"
        },
        {
            "inputs": [],
            "name": "team",
            "outputs": [
                {
                    "internalType": "address",
                    "name": "",
                    "type": "address"
                }
            ],
            "stateMutability": "view",
            "type": "function"
        },
        {
            "inputs": [],
            "name": "totalAllocPoint",
            "outputs": [
                {
                    "internalType": "uint256",
                    "name": "",
                    "type": "uint256"
                }
            ],
            "stateMutability": "view",
            "type": "function"
        },
        {
            "inputs": [],
            "name": "totalWeight",
            "outputs": [
                {
                    "internalType": "uint256",
                    "name": "",
                    "type": "uint256"
                }
            ],
            "stateMutability": "view",
            "type": "function"
        },
        {
            "inputs": [
                {
                    "internalType": "address",
                    "name": "newOwner",
                    "type": "address"
                }
            ],
            "name": "transferOwnership",
            "outputs": [],
            "stateMutability": "nonpayable",
            "type": "function"
        },
        {
            "inputs": [
                {
                    "internalType": "address",
                    "name": "_dao",
                    "type": "address"
                },
                {
                    "internalType": "address",
                    "name": "_team",
                    "type": "address"
                }
            ],
            "name": "updateAccounts",
            "outputs": [],
            "stateMutability": "nonpayable",
            "type": "function"
        },
        {
            "inputs": [
                {
                    "internalType": "uint256",
                    "name": "_bonusMultiplier",
                    "type": "uint256"
                }
            ],
            "name": "updateMultiplier",
            "outputs": [],
            "stateMutability": "nonpayable",
            "type": "function"
        },
        {
            "inputs": [
                {
                    "internalType": "uint256",
                    "name": "pid",
                    "type": "uint256"
                }
            ],
            "name": "updatePool",
            "outputs": [],
            "stateMutability": "nonpayable",
            "type": "function"
        },
        {
            "inputs": [
                {
                    "internalType": "address",
                    "name": "_soul",
                    "type": "address"
                },
                {
                    "internalType": "address",
                    "name": "_seance",
                    "type": "address"
                }
            ],
            "name": "updateTokens",
            "outputs": [],
            "stateMutability": "nonpayable",
            "type": "function"
        },
        {
            "inputs": [
                {
                    "internalType": "uint256",
                    "name": "_weight",
                    "type": "uint256"
                }
            ],
            "name": "updateWeight",
            "outputs": [],
            "stateMutability": "nonpayable",
            "type": "function"
        },
        {
            "inputs": [
                {
                    "internalType": "uint256",
                    "name": "",
                    "type": "uint256"
                },
                {
                    "internalType": "address",
                    "name": "",
                    "type": "address"
                }
            ],
            "name": "userInfo",
            "outputs": [
                {
                    "internalType": "uint256",
                    "name": "amount",
                    "type": "uint256"
                },
                {
                    "internalType": "uint256",
                    "name": "rewardDebt",
                    "type": "uint256"
                }
            ],
            "stateMutability": "view",
            "type": "function"
        },
        {
            "inputs": [],
            "name": "weight",
            "outputs": [
                {
                    "internalType": "uint256",
                    "name": "",
                    "type": "uint256"
                }
            ],
            "stateMutability": "view",
            "type": "function"
        },
        {
            "inputs": [
                {
                    "internalType": "uint256",
                    "name": "pid",
                    "type": "uint256"
                },
                {
                    "internalType": "uint256",
                    "name": "amount",
                    "type": "uint256"
                }
            ],
            "name": "withdraw",
            "outputs": [],
            "stateMutability": "nonpayable",
            "type": "function"
        }
    ],
    "bytecode": "60806040526001600e553480156200001657600080fd5b506200002b620000256200012a565b6200012e565b6001805460ff60a01b19168155600255600780546001600160a01b03199081167324d9e0ba5d79c15d7eeabd632214430d6f1677ca179182905560088054909116732ffbdfb8f48edd34cb2727f4357d321bd71ddf251790557f36d5d8406f8379c6deba01145ec4f6a2966675cc67d71355b397a2a8e3572b296014557f0811b25c145e1379dc78112dd91057f09150f6db05dfd7e04deb910e6cefd4b7601555620000e59060009081906001600160a01b031662000180565b5060145460075462000103919081906001600160a01b031662000180565b50601554601454600854620001239291906001600160a01b031662000180565b50620002c8565b3390565b600180546001600160a01b038381166001600160a01b0319831681179093556040519116919082907f8be0079c531659141344cd1fd0a4f28419497f9722a3daafe3b4186f6b6457e090600090a35050565b60006200018e8483620001a4565b6200019a8484620001b4565b5060019392505050565b620001b0828262000200565b5050565b80620001c0836200028a565b60405184907fbd79b86ffe0ab8e8776151514217cd7cacd52c909f66475c3af44e129f0b00ff90600090a460009182526020829052604090912060010155565b6200020c82826200029f565b620001b0576000828152602081815260408083206001600160a01b03851684529091529020805460ff19166001179055620002466200012a565b6001600160a01b0316816001600160a01b0316837f2f8788117e7eff1d82e926ec794901d17c78024a50270940304540a733656f0d60405160405180910390a45050565b60009081526020819052604090206001015490565b6000918252602082815260408084206001600160a01b0393909316845291905290205460ff1690565b612fef80620002d86000396000f3fe608060405234801561001057600080fd5b50600436106102955760003560e01c80637abceffd11610167578063a8b973a1116100ce578063e2bbb15811610087578063e2bbb15814610524578063e7aa29e314610537578063ea4bf4461461054a578063ec3df6ad14610552578063f2fde38b14610565578063fd6f99d01461057857610295565b8063a8b973a1146104bd578063bfafcad5146104c5578063d13f90b4146104d8578063d547741f146104eb578063dbaef9b0146104fe578063e13e8ec21461051157610295565b80638dbb1e3a116101205780638dbb1e3a1461045e57806391d148541461047157806393f1a40b1461048457806396c82e57146104a5578063a1aab33f146104ad578063a217fddf146104b557610295565b80637abceffd146104235780637cd07e47146104365780637d500ec81461043e578063815b7a8c1461044657806385f2aef21461044e5780638da5cb5b1461045657610295565b80634162169f1161020b5780635f9bf689116101c45780635f9bf689146103dd5780635ffe6146146103e5578063630b5ba1146103f857806364482f7914610400578063715018a61461041357806378e979251461041b57610295565b80634162169f1461037f578063441a3e7014610394578063454b0608146103a75780634ca01d45146103ba57806351eb05a6146103c25780635c975abb146103d557610295565b806323cf31181161025d57806323cf311814610318578063248a9ca31461032b5780632f2ff15d1461033e57806336568abe14610351578063392e53cd1461036457806341441d3b1461036c57610295565b806301ffc9a71461029a578063081e3eda146102c35780631058d281146102d85780631526fe27146102ed57806317caf6f114610310575b600080fd5b6102ad6102a8366004612834565b610580565b6040516102ba9190612a39565b60405180910390f35b6102cb6105ab565b6040516102ba9190612a44565b6102eb6102e63660046127f8565b6105b1565b005b6103006102fb3660046127f8565b61082b565b6040516102ba9493929190612a4d565b6102cb61086f565b6102eb610326366004612738565b610875565b6102cb6103393660046127f8565b6108ce565b6102eb61034c366004612810565b6108e3565b6102eb61035f366004612810565b610907565b6102ad61094d565b6102eb61037a3660046127f8565b610956565b610387610bcf565b6040516102ba9190612994565b6102eb6103a23660046128d1565b610bde565b6102eb6103b53660046127f8565b610e09565b6103876110f3565b6102eb6103d03660046127f8565b611102565b6102ad6113fd565b6102cb61140d565b6102eb6103f33660046127f8565b611413565b6102eb611428565b6102eb61040e3660046128f2565b61144f565b6102eb61158b565b6102cb6115d6565b6102eb610431366004612890565b6115dc565b610387611627565b6102cb611636565b61038761163c565b61038761164b565b61038761165a565b6102cb61046c3660046128d1565b611669565b6102ad61047f366004612810565b61168a565b610497610492366004612810565b6116b3565b6040516102ba929190612e82565b6102cb6116d7565b6102cb6116dd565b6102cb6116e3565b6102cb6116e8565b6102cb6104d3366004612810565b6116ee565b6102eb6104e636600461278c565b61187f565b6102eb6104f9366004612810565b611ad5565b6102ad61050c3660046127f8565b611af4565b6102eb61051f366004612754565b611b00565b6102eb6105323660046128d1565b611bc8565b6102eb610545366004612754565b611e01565b6102cb611eb9565b6102eb6105603660046127f8565b611ebf565b6102eb610573366004612738565b611fd0565b6102cb612041565b60006001600160e01b03198216637965db0b60e01b14806105a557506105a582612047565b92915050565b60125490565b6002805414156105dc5760405162461bcd60e51b81526004016105d390612d8e565b60405180910390fd5b600280819055506000601260008154811061060757634e487b7160e01b600052603260045260246000fd5b600091825260208083203384527f8fa6efc3be94b5b348b21fea823fe8d100408cee9b7f90524494500445d8ff6c90915260409092208054600490920290920192508311156106685760405162461bcd60e51b81526004016105d390612d0e565b6106726000611102565b6000816001015464e8d4a51000846003015484600001546106939190612eec565b61069d9190612ecc565b6106a79190612f0b565b905080156106b9576106b93382612060565b83156107535781546106cc908590612f0b565b8255825460405163a9059cbb60e01b81526001600160a01b039091169063a9059cbb906106ff9033908890600401612a20565b602060405180830381600087803b15801561071957600080fd5b505af115801561072d573d6000803e3d6000fd5b505050506040513d601f19601f8201168201806040525081019061075191906127dc565b505b6003830154825464e8d4a510009161076a91612eec565b6107749190612ecc565b6001830155600654604051632770a7eb60e21b81526001600160a01b0390911690639dc29fac906107ab9033908890600401612a20565b600060405180830381600087803b1580156107c557600080fd5b505af11580156107d9573d6000803e3d6000fd5b505050506000336001600160a01b03167ff279e6a1f5e320cca91135676d9cb6e44ca8a08c0b88342bcdb1144f6511b568866040516108189190612a44565b60405180910390a3505060016002555050565b6012818154811061083b57600080fd5b600091825260209091206004909102018054600182015460028301546003909301546001600160a01b039092169350919084565b60105481565b60115460ff166108975760405162461bcd60e51b81526004016105d390612e4b565b6014546108ab816108a66120c8565b6120cc565b50600980546001600160a01b0319166001600160a01b0392909216919091179055565b60009081526020819052604090206001015490565b6108ec826108ce565b6108f8816108a66120c8565b6109028383612130565b505050565b61090f6120c8565b6001600160a01b0316816001600160a01b03161461093f5760405162461bcd60e51b81526004016105d390612dc5565b61094982826121b5565b5050565b60115460ff1681565b6002805414156109785760405162461bcd60e51b81526004016105d390612d8e565b600280556109846113fd565b156109a15760405162461bcd60e51b81526004016105d390612b21565b600060126000815481106109c557634e487b7160e01b600052603260045260246000fd5b600091825260208083203384527f8fa6efc3be94b5b348b21fea823fe8d100408cee9b7f90524494500445d8ff6c90915260408320600490920201925090610a0c90611102565b805415610a5c576000816001015464e8d4a5100084600301548460000154610a349190612eec565b610a3e9190612ecc565b610a489190612f0b565b90508015610a5a57610a5a3382612060565b505b8215610af85781546040516323b872dd60e01b81526001600160a01b03909116906323b872dd90610a95903390309088906004016129fc565b602060405180830381600087803b158015610aaf57600080fd5b505af1158015610ac3573d6000803e3d6000fd5b505050506040513d601f19601f82011682018060405250810190610ae791906127dc565b508054610af5908490612eb4565b81555b6003820154815464e8d4a5100091610b0f91612eec565b610b199190612ecc565b60018201556006546040516340c10f1960e01b81526001600160a01b03909116906340c10f1990610b509033908790600401612a20565b600060405180830381600087803b158015610b6a57600080fd5b505af1158015610b7e573d6000803e3d6000fd5b505050506000336001600160a01b03167f90890809c654f11d6e72a28fa60149770a0d11ec6c92319d6ceb2bb0a4ea1a1585604051610bbd9190612a44565b60405180910390a35050600160025550565b6008546001600160a01b031681565b600280541415610c005760405162461bcd60e51b81526004016105d390612d8e565b6002805560125482908110610c275760405162461bcd60e51b81526004016105d390612caa565b82610c445760405162461bcd60e51b81526004016105d390612ba1565b600060128481548110610c6757634e487b7160e01b600052603260045260246000fd5b600091825260208083208784526013825260408085203386529092529220805460049092029092019250841115610cb05760405162461bcd60e51b81526004016105d390612d3a565b610cb985611102565b6000816001015464e8d4a5100084600301548460000154610cda9190612eec565b610ce49190612ecc565b610cee9190612f0b565b90508015610d0057610d003382612060565b8415610d9a578154610d13908690612f0b565b8255825460405163a9059cbb60e01b81526001600160a01b039091169063a9059cbb90610d469033908990600401612a20565b602060405180830381600087803b158015610d6057600080fd5b505af1158015610d74573d6000803e3d6000fd5b505050506040513d601f19601f82011682018060405250810190610d9891906127dc565b505b6003830154825464e8d4a5100091610db191612eec565b610dbb9190612ecc565b6001830155604051869033907ff279e6a1f5e320cca91135676d9cb6e44ca8a08c0b88342bcdb1144f6511b56890610df4908990612a44565b60405180910390a35050600160025550505050565b60115460ff16610e2b5760405162461bcd60e51b81526004016105d390612e4b565b60125481908110610e4e5760405162461bcd60e51b81526004016105d390612caa565b6009546001600160a01b0316610e765760405162461bcd60e51b81526004016105d390612b78565b600060128381548110610e9957634e487b7160e01b600052603260045260246000fd5b60009182526020822060049182020180546040516370a0823160e01b81529194506001600160a01b0316929183916370a0823191610ed991309101612994565b60206040518083038186803b158015610ef157600080fd5b505afa158015610f05573d6000803e3d6000fd5b505050506040513d601f19601f82011682018060405250810190610f299190612878565b60095460405163095ea7b360e01b81529192506001600160a01b038085169263095ea7b392610f5e9216908590600401612a20565b602060405180830381600087803b158015610f7857600080fd5b505af1158015610f8c573d6000803e3d6000fd5b505050506040513d601f19601f82011682018060405250810190610fb091906127dc565b5060095460405163ce5494bb60e01b81526000916001600160a01b03169063ce5494bb90610fe2908690600401612994565b602060405180830381600087803b158015610ffc57600080fd5b505af1158015611010573d6000803e3d6000fd5b505050506040513d601f19601f82011682018060405250810190611034919061285c565b6040516370a0823160e01b81529091506001600160a01b038216906370a0823190611063903090600401612994565b60206040518083038186803b15801561107b57600080fd5b505afa15801561108f573d6000803e3d6000fd5b505050506040513d601f19601f820116820180604052508101906110b39190612878565b82146110d15760405162461bcd60e51b81526004016105d390612e14565b83546001600160a01b0319166001600160a01b03919091161790925550505050565b6006546001600160a01b031681565b601254819081106111255760405162461bcd60e51b81526004016105d390612caa565b60006012838154811061114857634e487b7160e01b600052603260045260246000fd5b90600052602060002090600402019050806002015442116111695750610949565b80546040516370a0823160e01b81526000916001600160a01b0316906370a0823190611199903090600401612994565b60206040518083038186803b1580156111b157600080fd5b505afa1580156111c5573d6000803e3d6000fd5b505050506040513d601f19601f820116820180604052508101906111e99190612878565b9050806111fd575042600290910155610949565b600061120d836002015442611669565b905060006010548460010154600d54846112279190612eec565b6112319190612eec565b61123b9190612ecc565b90506000650746a52880006112558364e8d4a51000612eec565b61125f9190612ecc565b9050600061126e826002612eec565b9050600061127c8285612f0b565b600480546007546040516340c10f1960e01b81529394506001600160a01b03918216936340c10f19936112b59390921691889101612a20565b600060405180830381600087803b1580156112cf57600080fd5b505af11580156112e3573d6000803e3d6000fd5b5050600480546008546040516340c10f1960e01b81526001600160a01b0392831695506340c10f19945061131e939190921691889101612a20565b600060405180830381600087803b15801561133857600080fd5b505af115801561134c573d6000803e3d6000fd5b5050600480546006546040516340c10f1960e01b81526001600160a01b0392831695506340c10f199450611387939190921691869101612a20565b600060405180830381600087803b1580156113a157600080fd5b505af11580156113b5573d6000803e3d6000fd5b50505050858464e8d4a510006113cb9190612eec565b6113d59190612ecc565b87600301546113e49190612eb4565b6003880155505042600290950194909455505050505050565b600154600160a01b900460ff1690565b600d5481565b601554611422816108a66120c8565b50600e55565b60125460005b818110156109495761143f81611102565b61144881612f65565b905061142e565b60115460ff166114715760405162461bcd60e51b81526004016105d390612e4b565b601254839081106114945760405162461bcd60e51b81526004016105d390612caa565b6015546114a3816108a66120c8565b82156114b1576114b1611428565b6000601286815481106114d457634e487b7160e01b600052603260045260246000fd5b9060005260206000209060040201600101549050846012878154811061150a57634e487b7160e01b600052603260045260246000fd5b90600052602060002090600402016001018190555084811461154a5784816010546115359190612f0b565b61153f9190612eb4565b60105561154a612238565b7fd88f859573973e938da5bf3e5100c16eee2090fa720e05ae3d452b4cd05cdcfd868660405161157b929190612e82565b60405180910390a1505050505050565b6115936120c8565b6001600160a01b03166115a461165a565b6001600160a01b0316146115ca5760405162461bcd60e51b81526004016105d390612c0f565b6115d4600061233a565b565b600f5481565b60115460ff166115fe5760405162461bcd60e51b81526004016105d390612e4b565b60145461160d816108a66120c8565b6116168361238c565b61162184848461240d565b50505050565b6009546001600160a01b031681565b600c5481565b6004546001600160a01b031681565b6007546001600160a01b031681565b6001546001600160a01b031690565b600e546000906116798484612f0b565b6116839190612eec565b9392505050565b6000918252602082815260408084206001600160a01b0393909316845291905290205460ff1690565b60136020908152600092835260408084209091529082529020805460019091015482565b600a5481565b600b5481565b600081565b600e5481565b6000806012848154811061171257634e487b7160e01b600052603260045260246000fd5b600091825260208083208784526013825260408085206001600160a01b038981168752935280852060049485029092016003810154815492516370a0823160e01b815291975092959294929391909116916370a082319161177591309101612994565b60206040518083038186803b15801561178d57600080fd5b505afa1580156117a1573d6000803e3d6000fd5b505050506040513d601f19601f820116820180604052508101906117c59190612878565b90508360020154421180156117d957508015155b156118475760006117ee856002015442611669565b905060006010548660010154600d54846118089190612eec565b6118129190612eec565b61181c9190612ecc565b90508261182e8264e8d4a51000612eec565b6118389190612ecc565b6118429085612eb4565b935050505b6001830154835464e8d4a5100090611860908590612eec565b61186a9190612ecc565b6118749190612f0b565b979650505050505050565b60145461188e816108a66120c8565b60115460ff16156118b15760405162461bcd60e51b81526004016105d390612b4b565b600380546001600160a01b038089166001600160a01b0319928316179092556005805492881692821692909217909155600880548216339081179091556007805490921617905542600f556119068385612eb4565b600a819055600b849055600354600480546001600160a01b039283166001600160a01b03199182161790915560055460068054919093169116179055829061194f90859061251a565b60408051608081018252600480546001600160a01b03908116835260208301858152600f54948401948552600060608501818152601280546001808201835591845296517fbb8a6a4669ba250d26cd7a459eca9d215f8307e33aebe50379bc5a3617ec34449790960296870180546001600160a01b031916969095169590951790935590517fbb8a6a4669ba250d26cd7a459eca9d215f8307e33aebe50379bc5a3617ec344585015593517fbb8a6a4669ba250d26cd7a459eca9d215f8307e33aebe50379bc5a3617ec3446840155517fbb8a6a4669ba250d26cd7a459eca9d215f8307e33aebe50379bc5a3617ec3447909201919091556011805460ff1916909117905560108054839290611a66908490612eb4565b9091555050600754600854600354600554601054600b546040517f0476c5e4920930815a67a5a042e26836431f494d3be0f6e10c3034787a7a15f996611ac4966001600160a01b0391821696908216959082169491169290916129c2565b60405180910390a150505050505050565b611ade826108ce565b611aea816108a66120c8565b61090283836121b5565b60006105a5823361168a565b601454611b0f816108a66120c8565b6008546001600160a01b038481169116141580611b3a57506007546001600160a01b03838116911614155b611b565760405162461bcd60e51b81526004016105d390612c7b565b600880546001600160a01b038086166001600160a01b0319928316179283905560078054868316931692909217918290556040517fd1c04282701cbf58aa2f0026f6876051cf3feb8ee7b8b5b5532ebb4ab03fb5d493611bbb939083169216906129a8565b60405180910390a1505050565b600280541415611bea5760405162461bcd60e51b81526004016105d390612d8e565b6002805560125482908110611c115760405162461bcd60e51b81526004016105d390612caa565b611c196113fd565b15611c365760405162461bcd60e51b81526004016105d390612b21565b82611c535760405162461bcd60e51b81526004016105d390612bd8565b600060128481548110611c7657634e487b7160e01b600052603260045260246000fd5b60009182526020808320878452601382526040808520338652909252922060049091029091019150611ca785611102565b805415611cf7576000816001015464e8d4a5100084600301548460000154611ccf9190612eec565b611cd99190612ecc565b611ce39190612f0b565b90508015611cf557611cf53382612060565b505b8315611d935781546040516323b872dd60e01b81526001600160a01b03909116906323b872dd90611d30903390309089906004016129fc565b602060405180830381600087803b158015611d4a57600080fd5b505af1158015611d5e573d6000803e3d6000fd5b505050506040513d601f19601f82011682018060405250810190611d8291906127dc565b508054611d90908590612eb4565b81555b6003820154815464e8d4a5100091611daa91612eec565b611db49190612ecc565b6001820155604051859033907f90890809c654f11d6e72a28fa60149770a0d11ec6c92319d6ceb2bb0a4ea1a1590611ded908890612a44565b60405180910390a350506001600255505050565b601454611e10816108a66120c8565b6004546001600160a01b038481169116141580611e3b57506006546001600160a01b03838116911614155b611e575760405162461bcd60e51b81526004016105d390612c44565b600480546001600160a01b038086166001600160a01b03199283161790925560068054928516929091169190911790556040517fdcc6331013de89f8c595d5328f0a724194f113cb6f8f2a707b3dff6de13f0d1790611bbb90859085906129a8565b60145481565b60115460ff16611ee15760405162461bcd60e51b81526004016105d390612e4b565b601554611ef0816108a66120c8565b81600b541415611f125760405162461bcd60e51b81526004016105d390612cd7565b81600b541015611f47576000600b5483611f2c9190612f0b565b905080600a6000828254611f409190612eb4565b9091555050505b81600b541115611f7c57600082600b54611f619190612f0b565b905080600a6000828254611f759190612f0b565b9091555050505b600b829055600a54611f8f90839061251a565b7fb298bc23e07860d501fddce288f46d761aa04a0c7c3316099eb50f097aacf304600b54600a54604051611fc4929190612e82565b60405180910390a15050565b611fd86120c8565b6001600160a01b0316611fe961165a565b6001600160a01b03161461200f5760405162461bcd60e51b81526004016105d390612c0f565b6001600160a01b0381166120355760405162461bcd60e51b81526004016105d390612adb565b61203e8161233a565b50565b60155481565b6001600160e01b031981166301ffc9a760e01b14919050565b600654604051635950a15560e11b81526001600160a01b039091169063b2a142aa906120929085908590600401612a20565b600060405180830381600087803b1580156120ac57600080fd5b505af11580156120c0573d6000803e3d6000fd5b505050505050565b3390565b6120d6828261168a565b610949576120ee816001600160a01b03166014612586565b6120f9836020612586565b60405160200161210a92919061291f565b60408051601f198184030181529082905262461bcd60e51b82526105d391600401612a73565b61213a828261168a565b610949576000828152602081815260408083206001600160a01b03851684529091529020805460ff191660011790556121716120c8565b6001600160a01b0316816001600160a01b0316837f2f8788117e7eff1d82e926ec794901d17c78024a50270940304540a733656f0d60405160405180910390a45050565b6121bf828261168a565b15610949576000828152602081815260408083206001600160a01b03851684529091529020805460ff191690556121f46120c8565b6001600160a01b0316816001600160a01b0316837ff6391f5c32d9c69d2a47ea670b442974b53935d1edc7fd64eb21e047a839171b60405160405180910390a45050565b601254600060015b82811015612298576012818154811061226957634e487b7160e01b600052603260045260246000fd5b906000526020600020906004020160010154826122869190612eb4565b915061229181612f65565b9050612240565b508015610949576122aa600382612ecc565b90508060126000815481106122cf57634e487b7160e01b600052603260045260246000fd5b9060005260206000209060040201600101546010546122ee9190612f0b565b6122f89190612eb4565b60108190555080601260008154811061232157634e487b7160e01b600052603260045260246000fd5b9060005260206000209060040201600101819055505050565b600180546001600160a01b038381166001600160a01b0319831681179093556040519116919082907f8be0079c531659141344cd1fd0a4f28419497f9722a3daafe3b4186f6b6457e090600090a35050565b60125460005b8181101561090257826001600160a01b0316601282815481106123c557634e487b7160e01b600052603260045260246000fd5b60009182526020909120600490910201546001600160a01b031614156123fd5760405162461bcd60e51b81526004016105d390612d65565b61240681612f65565b9050612392565b801561241b5761241b611428565b826010600082825461242d9190612eb4565b9250508190555060126040518060800160405280846001600160a01b03168152602001858152602001600f54421161246757600f54612469565b425b81526000602091820181905283546001808201865594825290829020835160049092020180546001600160a01b0319166001600160a01b03909216919091178155908201519281019290925560408101516002830155606001516003909101556124d1612238565b6012546010546040517f20b669aa921947a6d9602a921d2db3b6b30f21b9aca98580fa3972530330b27a9161250c9184918891889190612e90565b60405180910390a150505050565b60006125268284612ecc565b905061253c816934f086f3b33b68400000612eec565b600c81905561254f906201518090612ecc565b600d819055600c546040517fcd7c861d63893659123f817b192b8621ff1923a7c4589c260173cedcf9e986a692611bbb9291612e82565b60606000612595836002612eec565b6125a0906002612eb4565b67ffffffffffffffff8111156125c657634e487b7160e01b600052604160045260246000fd5b6040519080825280601f01601f1916602001820160405280156125f0576020820181803683370190505b509050600360fc1b8160008151811061261957634e487b7160e01b600052603260045260246000fd5b60200101906001600160f81b031916908160001a905350600f60fb1b8160018151811061265657634e487b7160e01b600052603260045260246000fd5b60200101906001600160f81b031916908160001a905350600061267a846002612eec565b612685906001612eb4565b90505b6001811115612719576f181899199a1a9b1b9c1cb0b131b232b360811b85600f16601081106126c757634e487b7160e01b600052603260045260246000fd5b1a60f81b8282815181106126eb57634e487b7160e01b600052603260045260246000fd5b60200101906001600160f81b031916908160001a90535060049490941c9361271281612f4e565b9050612688565b5083156116835760405162461bcd60e51b81526004016105d390612aa6565b600060208284031215612749578081fd5b813561168381612f96565b60008060408385031215612766578081fd5b823561277181612f96565b9150602083013561278181612f96565b809150509250929050565b600080600080600060a086880312156127a3578081fd5b85356127ae81612f96565b945060208601356127be81612f96565b94979496505050506040830135926060810135926080909101359150565b6000602082840312156127ed578081fd5b815161168381612fab565b600060208284031215612809578081fd5b5035919050565b60008060408385031215612822578182fd5b82359150602083013561278181612f96565b600060208284031215612845578081fd5b81356001600160e01b031981168114611683578182fd5b60006020828403121561286d578081fd5b815161168381612f96565b600060208284031215612889578081fd5b5051919050565b6000806000606084860312156128a4578283fd5b8335925060208401356128b681612f96565b915060408401356128c681612fab565b809150509250925092565b600080604083850312156128e3578182fd5b50508035926020909101359150565b600080600060608486031215612906578081fd5b833592506020840135915060408401356128c681612fab565b60007f416363657373436f6e74726f6c3a206163636f756e742000000000000000000082528351612957816017850160208801612f22565b7001034b99036b4b9b9b4b733903937b6329607d1b6017918401918201528351612988816028840160208801612f22565b01602801949350505050565b6001600160a01b0391909116815260200190565b6001600160a01b0392831681529116602082015260400190565b6001600160a01b0396871681529486166020860152928516604085015293166060830152608082019290925260a081019190915260c00190565b6001600160a01b039384168152919092166020820152604081019190915260600190565b6001600160a01b03929092168252602082015260400190565b901515815260200190565b90815260200190565b6001600160a01b0394909416845260208401929092526040830152606082015260800190565b6000602082528251806020840152612a92816040850160208701612f22565b601f01601f19169190910160400192915050565b6020808252818101527f537472696e67733a20686578206c656e67746820696e73756666696369656e74604082015260600190565b60208082526026908201527f4f776e61626c653a206e6577206f776e657220697320746865207a65726f206160408201526564647265737360d01b606082015260800190565b60208082526010908201526f14185d5cd8589b194e881c185d5cd95960821b604082015260600190565b602080825260139082015272185b1c9958591e481a5b9a5d1a585b1a5e9959606a1b604082015260600190565b6020808252600f908201526e1b9bc81b5a59dc985d1bdc881cd95d608a1b604082015260600190565b6020808252601a908201527f776974686472617720534f554c20627920756e7374616b696e67000000000000604082015260600190565b60208082526017908201527f6465706f73697420534f554c206279207374616b696e67000000000000000000604082015260600190565b6020808252818101527f4f776e61626c653a2063616c6c6572206973206e6f7420746865206f776e6572604082015260600190565b6020808252601b908201527f6d7573742062652061206e657720746f6b656e20616464726573730000000000604082015260600190565b6020808252601590820152741b5d5cdd0818994818481b995dc81858d8dbdd5b9d605a1b604082015260600190565b6020808252601390820152721c1bdbdb08191bd95cc81b9bdd08195e1a5cdd606a1b604082015260600190565b60208082526018908201527f6d757374206265206e6577207765696768742076616c75650000000000000000604082015260600190565b6020808252601290820152711dda5d1a191c985dce881b9bdd0819dbdbd960721b604082015260600190565b6020808252601190820152701dda5d1a191c985dc81b9bdd0819dbdbd9607a1b604082015260600190565b6020808252600f908201526e191d5c1b1a58d85d1959081c1bdbdb608a1b604082015260600190565b6020808252601f908201527f5265656e7472616e637947756172643a207265656e7472616e742063616c6c00604082015260600190565b6020808252602f908201527f416363657373436f6e74726f6c3a2063616e206f6e6c792072656e6f756e636560408201526e103937b632b9903337b91039b2b63360891b606082015260800190565b6020808252601d908201527f6d6967726174653a20696e73756666696369656e742062616c616e6365000000604082015260600190565b6020808252601a908201527f726577617264732068617665206e6f742079657420626567756e000000000000604082015260600190565b918252602082015260400190565b93845260208401929092526001600160a01b03166040830152606082015260800190565b60008219821115612ec757612ec7612f80565b500190565b600082612ee757634e487b7160e01b81526012600452602481fd5b500490565b6000816000190483118215151615612f0657612f06612f80565b500290565b600082821015612f1d57612f1d612f80565b500390565b60005b83811015612f3d578181015183820152602001612f25565b838111156116215750506000910152565b600081612f5d57612f5d612f80565b506000190190565b6000600019821415612f7957612f79612f80565b5060010190565b634e487b7160e01b600052601160045260246000fd5b6001600160a01b038116811461203e57600080fd5b801515811461203e57600080fdfea2646970667358221220962ad8cbbfd3bdb5c46ad6462e41cee750d4e3b230b306c649295aae4c06169964736f6c63430008000033",
    "sourcePath": "/Users/Uni/Documents/GitHub/soulswap/soulswap-farms/contracts/SoulSummoner.sol",
    "compiler": {
        "name": "solc",
        "version": "0.8.0+commit.c7dfd78e"
    },
    "functionHashes": {
        "DEFAULT_ADMIN_ROLE()": "a217fddf",
        "addPool(uint256,address,bool)": "7abceffd",
        "bonusMultiplier()": "a8b973a1",
        "dailySoul()": "7d500ec8",
        "dao()": "4162169f",
        "deposit(uint256,uint256)": "e2bbb158",
        "enterStaking(uint256)": "41441d3b",
        "getMultiplier(uint256,uint256)": "8dbb1e3a",
        "getRoleAdmin(bytes32)": "248a9ca3",
        "grantRole(bytes32,address)": "2f2ff15d",
        "hasDivineRole(bytes32)": "dbaef9b0",
        "hasRole(bytes32,address)": "91d14854",
        "initialize(address,address,uint256,uint256,uint256)": "d13f90b4",
        "isInitialized()": "392e53cd",
        "isis()": "ea4bf446",
        "leaveStaking(uint256)": "1058d281",
        "maat()": "fd6f99d0",
        "massUpdatePools()": "630b5ba1",
        "migrate(uint256)": "454b0608",
        "migrator()": "7cd07e47",
        "owner()": "8da5cb5b",
        "paused()": "5c975abb",
        "pendingSoul(uint256,address)": "bfafcad5",
        "poolInfo(uint256)": "1526fe27",
        "poolLength()": "081e3eda",
        "renounceOwnership()": "715018a6",
        "renounceRole(bytes32,address)": "36568abe",
        "revokeRole(bytes32,address)": "d547741f",
        "seance()": "4ca01d45",
        "set(uint256,uint256,bool)": "64482f79",
        "setMigrator(address)": "23cf3118",
        "soul()": "815b7a8c",
        "soulPerSecond()": "5f9bf689",
        "startTime()": "78e97925",
        "supportsInterface(bytes4)": "01ffc9a7",
        "team()": "85f2aef2",
        "totalAllocPoint()": "17caf6f1",
        "totalWeight()": "96c82e57",
        "transferOwnership(address)": "f2fde38b",
        "updateAccounts(address,address)": "e13e8ec2",
        "updateMultiplier(uint256)": "5ffe6146",
        "updatePool(uint256)": "51eb05a6",
        "updateTokens(address,address)": "e7aa29e3",
        "updateWeight(uint256)": "ec3df6ad",
        "userInfo(uint256,address)": "93f1a40b",
        "weight()": "a1aab33f",
        "withdraw(uint256,uint256)": "441a3e70"
    },
    "gasEstimates": {
        "creation": {
            "codeDepositCost": "2454200",
            "executionCost": "infinite",
            "totalCost": "infinite"
        },
        "external": {
            "DEFAULT_ADMIN_ROLE()": "383",
            "addPool(uint256,address,bool)": "infinite",
            "bonusMultiplier()": "1073",
            "dailySoul()": "1118",
            "dao()": "1116",
            "deposit(uint256,uint256)": "infinite",
            "enterStaking(uint256)": "infinite",
            "getMultiplier(uint256,uint256)": "1347",
            "getRoleAdmin(bytes32)": "1248",
            "grantRole(bytes32,address)": "infinite",
            "hasDivineRole(bytes32)": "1451",
            "hasRole(bytes32,address)": "1449",
            "initialize(address,address,uint256,uint256,uint256)": "infinite",
            "isInitialized()": "1174",
            "isis()": "1116",
            "leaveStaking(uint256)": "infinite",
            "maat()": "1182",
            "massUpdatePools()": "infinite",
            "migrate(uint256)": "infinite",
            "migrator()": "1138",
            "owner()": "1226",
            "paused()": "1213",
            "pendingSoul(uint256,address)": "infinite",
            "poolInfo(uint256)": "4673",
            "poolLength()": "1097",
            "renounceOwnership()": "23640",
            "renounceRole(bytes32,address)": "infinite",
            "revokeRole(bytes32,address)": "infinite",
            "seance()": "1182",
            "set(uint256,uint256,bool)": "infinite",
            "setMigrator(address)": "infinite",
            "soul()": "1182",
            "soulPerSecond()": "1073",
            "startTime()": "1183",
            "supportsInterface(bytes4)": "539",
            "team()": "1204",
            "totalAllocPoint()": "1163",
            "totalWeight()": "1139",
            "transferOwnership(address)": "infinite",
            "updateAccounts(address,address)": "infinite",
            "updateMultiplier(uint256)": "infinite",
            "updatePool(uint256)": "infinite",
            "updateTokens(address,address)": "infinite",
            "updateWeight(uint256)": "infinite",
            "userInfo(uint256,address)": "2271",
            "weight()": "1161",
            "withdraw(uint256,uint256)": "infinite"
        },
        "internal": {
            "_addPool(uint256,contract IERC20,bool)": "infinite",
            "_divinationCeremony(bytes32,bytes32,address)": "infinite",
            "checkPoolDuplicate(contract IERC20)": "infinite",
            "safeSoulTransfer(address,uint256)": "infinite",
            "updateRewards(uint256,uint256)": "infinite",
            "updateStakingPool()": "infinite"
        }
    }
}