{
    "contractName": "SoulSummoner",
    "abi": [
        {
            "inputs": [],
            "stateMutability": "nonpayable",
            "type": "constructor"
        },
        {
            "anonymous": false,
            "inputs": [
                {
                    "indexed": false,
                    "internalType": "address",
                    "name": "dao",
                    "type": "address"
                },
                {
                    "indexed": false,
                    "internalType": "address",
                    "name": "team",
                    "type": "address"
                }
            ],
            "name": "AccountsUpdated",
            "type": "event"
        },
        {
            "anonymous": false,
            "inputs": [
                {
                    "indexed": true,
                    "internalType": "address",
                    "name": "user",
                    "type": "address"
                },
                {
                    "indexed": true,
                    "internalType": "uint256",
                    "name": "pid",
                    "type": "uint256"
                },
                {
                    "indexed": false,
                    "internalType": "uint256",
                    "name": "amount",
                    "type": "uint256"
                }
            ],
            "name": "Deposit",
            "type": "event"
        },
        {
            "anonymous": false,
            "inputs": [
                {
                    "indexed": false,
                    "internalType": "address",
                    "name": "team",
                    "type": "address"
                },
                {
                    "indexed": false,
                    "internalType": "address",
                    "name": "dao",
                    "type": "address"
                },
                {
                    "indexed": false,
                    "internalType": "address",
                    "name": "soul",
                    "type": "address"
                },
                {
                    "indexed": false,
                    "internalType": "address",
                    "name": "seance",
                    "type": "address"
                },
                {
                    "indexed": false,
                    "internalType": "uint256",
                    "name": "totalAllocPoint",
                    "type": "uint256"
                },
                {
                    "indexed": false,
                    "internalType": "uint256",
                    "name": "weight",
                    "type": "uint256"
                }
            ],
            "name": "Initialized",
            "type": "event"
        },
        {
            "anonymous": false,
            "inputs": [
                {
                    "indexed": true,
                    "internalType": "address",
                    "name": "previousOwner",
                    "type": "address"
                },
                {
                    "indexed": true,
                    "internalType": "address",
                    "name": "newOwner",
                    "type": "address"
                }
            ],
            "name": "OwnershipTransferred",
            "type": "event"
        },
        {
            "anonymous": false,
            "inputs": [
                {
                    "indexed": false,
                    "internalType": "address",
                    "name": "account",
                    "type": "address"
                }
            ],
            "name": "Paused",
            "type": "event"
        },
        {
            "anonymous": false,
            "inputs": [
                {
                    "indexed": false,
                    "internalType": "uint256",
                    "name": "pid",
                    "type": "uint256"
                },
                {
                    "indexed": false,
                    "internalType": "uint256",
                    "name": "allocPoint",
                    "type": "uint256"
                },
                {
                    "indexed": false,
                    "internalType": "contract IERC20",
                    "name": "lpToken",
                    "type": "address"
                },
                {
                    "indexed": false,
                    "internalType": "uint256",
                    "name": "totalAllocPoint",
                    "type": "uint256"
                }
            ],
            "name": "PoolAdded",
            "type": "event"
        },
        {
            "anonymous": false,
            "inputs": [
                {
                    "indexed": false,
                    "internalType": "uint256",
                    "name": "pid",
                    "type": "uint256"
                },
                {
                    "indexed": false,
                    "internalType": "uint256",
                    "name": "allocPoint",
                    "type": "uint256"
                }
            ],
            "name": "PoolSet",
            "type": "event"
        },
        {
            "anonymous": false,
            "inputs": [
                {
                    "indexed": false,
                    "internalType": "uint256",
                    "name": "dailySoul",
                    "type": "uint256"
                },
                {
                    "indexed": false,
                    "internalType": "uint256",
                    "name": "soulPerSecond",
                    "type": "uint256"
                }
            ],
            "name": "RewardsUpdated",
            "type": "event"
        },
        {
            "anonymous": false,
            "inputs": [
                {
                    "indexed": true,
                    "internalType": "bytes32",
                    "name": "role",
                    "type": "bytes32"
                },
                {
                    "indexed": true,
                    "internalType": "bytes32",
                    "name": "previousAdminRole",
                    "type": "bytes32"
                },
                {
                    "indexed": true,
                    "internalType": "bytes32",
                    "name": "newAdminRole",
                    "type": "bytes32"
                }
            ],
            "name": "RoleAdminChanged",
            "type": "event"
        },
        {
            "anonymous": false,
            "inputs": [
                {
                    "indexed": false,
                    "internalType": "bytes32",
                    "name": "role",
                    "type": "bytes32"
                },
                {
                    "indexed": false,
                    "internalType": "bytes32",
                    "name": "supreme",
                    "type": "bytes32"
                }
            ],
            "name": "RoleDivinated",
            "type": "event"
        },
        {
            "anonymous": false,
            "inputs": [
                {
                    "indexed": true,
                    "internalType": "bytes32",
                    "name": "role",
                    "type": "bytes32"
                },
                {
                    "indexed": true,
                    "internalType": "address",
                    "name": "account",
                    "type": "address"
                },
                {
                    "indexed": true,
                    "internalType": "address",
                    "name": "sender",
                    "type": "address"
                }
            ],
            "name": "RoleGranted",
            "type": "event"
        },
        {
            "anonymous": false,
            "inputs": [
                {
                    "indexed": true,
                    "internalType": "bytes32",
                    "name": "role",
                    "type": "bytes32"
                },
                {
                    "indexed": true,
                    "internalType": "address",
                    "name": "account",
                    "type": "address"
                },
                {
                    "indexed": true,
                    "internalType": "address",
                    "name": "sender",
                    "type": "address"
                }
            ],
            "name": "RoleRevoked",
            "type": "event"
        },
        {
            "anonymous": false,
            "inputs": [
                {
                    "indexed": false,
                    "internalType": "address",
                    "name": "soul",
                    "type": "address"
                },
                {
                    "indexed": false,
                    "internalType": "address",
                    "name": "seance",
                    "type": "address"
                }
            ],
            "name": "TokensUpdated",
            "type": "event"
        },
        {
            "anonymous": false,
            "inputs": [
                {
                    "indexed": false,
                    "internalType": "address",
                    "name": "account",
                    "type": "address"
                }
            ],
            "name": "Unpaused",
            "type": "event"
        },
        {
            "anonymous": false,
            "inputs": [
                {
                    "indexed": false,
                    "internalType": "uint256",
                    "name": "weight",
                    "type": "uint256"
                },
                {
                    "indexed": false,
                    "internalType": "uint256",
                    "name": "totalWeight",
                    "type": "uint256"
                }
            ],
            "name": "WeightUpdated",
            "type": "event"
        },
        {
            "anonymous": false,
            "inputs": [
                {
                    "indexed": true,
                    "internalType": "address",
                    "name": "user",
                    "type": "address"
                },
                {
                    "indexed": true,
                    "internalType": "uint256",
                    "name": "pid",
                    "type": "uint256"
                },
                {
                    "indexed": false,
                    "internalType": "uint256",
                    "name": "amount",
                    "type": "uint256"
                },
                {
                    "indexed": false,
                    "internalType": "uint256",
                    "name": "timeStamp",
                    "type": "uint256"
                }
            ],
            "name": "Withdraw",
            "type": "event"
        },
        {
            "inputs": [],
            "name": "DEFAULT_ADMIN_ROLE",
            "outputs": [
                {
                    "internalType": "bytes32",
                    "name": "",
                    "type": "bytes32"
                }
            ],
            "stateMutability": "view",
            "type": "function"
        },
        {
            "inputs": [
                {
                    "internalType": "uint256",
                    "name": "_allocPoint",
                    "type": "uint256"
                },
                {
                    "internalType": "contract IERC20",
                    "name": "_lpToken",
                    "type": "address"
                },
                {
                    "internalType": "bool",
                    "name": "_withUpdate",
                    "type": "bool"
                }
            ],
            "name": "addPool",
            "outputs": [],
            "stateMutability": "nonpayable",
            "type": "function"
        },
        {
            "inputs": [],
            "name": "bonusMultiplier",
            "outputs": [
                {
                    "internalType": "uint256",
                    "name": "",
                    "type": "uint256"
                }
            ],
            "stateMutability": "view",
            "type": "function"
        },
        {
            "inputs": [],
            "name": "dailyDecay",
            "outputs": [
                {
                    "internalType": "uint256",
                    "name": "",
                    "type": "uint256"
                }
            ],
            "stateMutability": "view",
            "type": "function"
        },
        {
            "inputs": [],
            "name": "dailySoul",
            "outputs": [
                {
                    "internalType": "uint256",
                    "name": "",
                    "type": "uint256"
                }
            ],
            "stateMutability": "view",
            "type": "function"
        },
        {
            "inputs": [],
            "name": "dao",
            "outputs": [
                {
                    "internalType": "address",
                    "name": "",
                    "type": "address"
                }
            ],
            "stateMutability": "view",
            "type": "function"
        },
        {
            "inputs": [
                {
                    "internalType": "uint256",
                    "name": "pid",
                    "type": "uint256"
                },
                {
                    "internalType": "uint256",
                    "name": "amount",
                    "type": "uint256"
                }
            ],
            "name": "deposit",
            "outputs": [],
            "stateMutability": "nonpayable",
            "type": "function"
        },
        {
            "inputs": [
                {
                    "internalType": "uint256",
                    "name": "amount",
                    "type": "uint256"
                }
            ],
            "name": "enWei",
            "outputs": [
                {
                    "internalType": "uint256",
                    "name": "",
                    "type": "uint256"
                }
            ],
            "stateMutability": "pure",
            "type": "function"
        },
        {
            "inputs": [
                {
                    "internalType": "uint256",
                    "name": "amount",
                    "type": "uint256"
                }
            ],
            "name": "enterStaking",
            "outputs": [],
            "stateMutability": "nonpayable",
            "type": "function"
        },
        {
            "inputs": [
                {
                    "internalType": "uint256",
                    "name": "pid",
                    "type": "uint256"
                }
            ],
            "name": "getFee",
            "outputs": [
                {
                    "internalType": "uint256",
                    "name": "",
                    "type": "uint256"
                }
            ],
            "stateMutability": "view",
            "type": "function"
        },
        {
            "inputs": [
                {
                    "internalType": "uint256",
                    "name": "from",
                    "type": "uint256"
                },
                {
                    "internalType": "uint256",
                    "name": "to",
                    "type": "uint256"
                }
            ],
            "name": "getMultiplier",
            "outputs": [
                {
                    "internalType": "uint256",
                    "name": "",
                    "type": "uint256"
                }
            ],
            "stateMutability": "view",
            "type": "function"
        },
        {
            "inputs": [
                {
                    "internalType": "bytes32",
                    "name": "role",
                    "type": "bytes32"
                }
            ],
            "name": "getRoleAdmin",
            "outputs": [
                {
                    "internalType": "bytes32",
                    "name": "",
                    "type": "bytes32"
                }
            ],
            "stateMutability": "view",
            "type": "function"
        },
        {
            "inputs": [
                {
                    "internalType": "uint256",
                    "name": "pid",
                    "type": "uint256"
                },
                {
                    "internalType": "uint256",
                    "name": "amount",
                    "type": "uint256"
                }
            ],
            "name": "getWithdrawable",
            "outputs": [
                {
                    "internalType": "uint256",
                    "name": "fee",
                    "type": "uint256"
                },
                {
                    "internalType": "uint256",
                    "name": "withdrawable",
                    "type": "uint256"
                }
            ],
            "stateMutability": "view",
            "type": "function"
        },
        {
            "inputs": [
                {
                    "internalType": "bytes32",
                    "name": "role",
                    "type": "bytes32"
                },
                {
                    "internalType": "address",
                    "name": "account",
                    "type": "address"
                }
            ],
            "name": "grantRole",
            "outputs": [],
            "stateMutability": "nonpayable",
            "type": "function"
        },
        {
            "inputs": [
                {
                    "internalType": "bytes32",
                    "name": "role",
                    "type": "bytes32"
                }
            ],
            "name": "hasDivineRole",
            "outputs": [
                {
                    "internalType": "bool",
                    "name": "",
                    "type": "bool"
                }
            ],
            "stateMutability": "view",
            "type": "function"
        },
        {
            "inputs": [
                {
                    "internalType": "bytes32",
                    "name": "role",
                    "type": "bytes32"
                },
                {
                    "internalType": "address",
                    "name": "account",
                    "type": "address"
                }
            ],
            "name": "hasRole",
            "outputs": [
                {
                    "internalType": "bool",
                    "name": "",
                    "type": "bool"
                }
            ],
            "stateMutability": "view",
            "type": "function"
        },
        {
            "inputs": [
                {
                    "internalType": "address",
                    "name": "_soulAddress",
                    "type": "address"
                },
                {
                    "internalType": "address",
                    "name": "_seanceAddress",
                    "type": "address"
                },
                {
                    "internalType": "uint256",
                    "name": "_totalWeight",
                    "type": "uint256"
                },
                {
                    "internalType": "uint256",
                    "name": "_weight",
                    "type": "uint256"
                },
                {
                    "internalType": "uint256",
                    "name": "_stakingAlloc",
                    "type": "uint256"
                },
                {
                    "internalType": "uint256",
                    "name": "_startRate",
                    "type": "uint256"
                },
                {
                    "internalType": "uint256",
                    "name": "_dailyDecay",
                    "type": "uint256"
                }
            ],
            "name": "initialize",
            "outputs": [],
            "stateMutability": "nonpayable",
            "type": "function"
        },
        {
            "inputs": [],
            "name": "isInitialized",
            "outputs": [
                {
                    "internalType": "bool",
                    "name": "",
                    "type": "bool"
                }
            ],
            "stateMutability": "view",
            "type": "function"
        },
        {
            "inputs": [],
            "name": "isis",
            "outputs": [
                {
                    "internalType": "bytes32",
                    "name": "",
                    "type": "bytes32"
                }
            ],
            "stateMutability": "view",
            "type": "function"
        },
        {
            "inputs": [
                {
                    "internalType": "uint256",
                    "name": "amount",
                    "type": "uint256"
                }
            ],
            "name": "leaveStaking",
            "outputs": [],
            "stateMutability": "nonpayable",
            "type": "function"
        },
        {
            "inputs": [],
            "name": "maat",
            "outputs": [
                {
                    "internalType": "bytes32",
                    "name": "",
                    "type": "bytes32"
                }
            ],
            "stateMutability": "view",
            "type": "function"
        },
        {
            "inputs": [],
            "name": "massUpdatePools",
            "outputs": [],
            "stateMutability": "nonpayable",
            "type": "function"
        },
        {
            "inputs": [
                {
                    "internalType": "uint256",
                    "name": "pid",
                    "type": "uint256"
                }
            ],
            "name": "migrate",
            "outputs": [],
            "stateMutability": "nonpayable",
            "type": "function"
        },
        {
            "inputs": [],
            "name": "migrator",
            "outputs": [
                {
                    "internalType": "contract IMigrator",
                    "name": "",
                    "type": "address"
                }
            ],
            "stateMutability": "view",
            "type": "function"
        },
        {
            "inputs": [
                {
                    "internalType": "uint256",
                    "name": "amount",
                    "type": "uint256"
                }
            ],
            "name": "oneHundreth",
            "outputs": [
                {
                    "internalType": "uint256",
                    "name": "",
                    "type": "uint256"
                }
            ],
            "stateMutability": "pure",
            "type": "function"
        },
        {
            "inputs": [],
            "name": "owner",
            "outputs": [
                {
                    "internalType": "address",
                    "name": "",
                    "type": "address"
                }
            ],
            "stateMutability": "view",
            "type": "function"
        },
        {
            "inputs": [],
            "name": "paused",
            "outputs": [
                {
                    "internalType": "bool",
                    "name": "",
                    "type": "bool"
                }
            ],
            "stateMutability": "view",
            "type": "function"
        },
        {
            "inputs": [
                {
                    "internalType": "uint256",
                    "name": "pid",
                    "type": "uint256"
                },
                {
                    "internalType": "address",
                    "name": "_user",
                    "type": "address"
                }
            ],
            "name": "pendingSoul",
            "outputs": [
                {
                    "internalType": "uint256",
                    "name": "",
                    "type": "uint256"
                }
            ],
            "stateMutability": "view",
            "type": "function"
        },
        {
            "inputs": [
                {
                    "internalType": "uint256",
                    "name": "",
                    "type": "uint256"
                }
            ],
            "name": "poolInfo",
            "outputs": [
                {
                    "internalType": "contract IERC20",
                    "name": "lpToken",
                    "type": "address"
                },
                {
                    "internalType": "uint256",
                    "name": "allocPoint",
                    "type": "uint256"
                },
                {
                    "internalType": "uint256",
                    "name": "lastRewardTime",
                    "type": "uint256"
                },
                {
                    "internalType": "uint256",
                    "name": "accSoulPerShare",
                    "type": "uint256"
                }
            ],
            "stateMutability": "view",
            "type": "function"
        },
        {
            "inputs": [],
            "name": "poolLength",
            "outputs": [
                {
                    "internalType": "uint256",
                    "name": "",
                    "type": "uint256"
                }
            ],
            "stateMutability": "view",
            "type": "function"
        },
        {
            "inputs": [],
            "name": "renounceOwnership",
            "outputs": [],
            "stateMutability": "nonpayable",
            "type": "function"
        },
        {
            "inputs": [
                {
                    "internalType": "bytes32",
                    "name": "role",
                    "type": "bytes32"
                },
                {
                    "internalType": "address",
                    "name": "account",
                    "type": "address"
                }
            ],
            "name": "renounceRole",
            "outputs": [],
            "stateMutability": "nonpayable",
            "type": "function"
        },
        {
            "inputs": [
                {
                    "internalType": "uint256",
                    "name": "_pid",
                    "type": "uint256"
                },
                {
                    "internalType": "address",
                    "name": "_user",
                    "type": "address"
                },
                {
                    "internalType": "uint256",
                    "name": "_time",
                    "type": "uint256"
                }
            ],
            "name": "reviseDeposit",
            "outputs": [],
            "stateMutability": "nonpayable",
            "type": "function"
        },
        {
            "inputs": [
                {
                    "internalType": "bytes32",
                    "name": "role",
                    "type": "bytes32"
                },
                {
                    "internalType": "address",
                    "name": "account",
                    "type": "address"
                }
            ],
            "name": "revokeRole",
            "outputs": [],
            "stateMutability": "nonpayable",
            "type": "function"
        },
        {
            "inputs": [],
            "name": "seance",
            "outputs": [
                {
                    "internalType": "contract SeanceCircle",
                    "name": "",
                    "type": "address"
                }
            ],
            "stateMutability": "view",
            "type": "function"
        },
        {
            "inputs": [
                {
                    "internalType": "uint256",
                    "name": "pid",
                    "type": "uint256"
                },
                {
                    "internalType": "uint256",
                    "name": "allocPoint",
                    "type": "uint256"
                },
                {
                    "internalType": "bool",
                    "name": "withUpdate",
                    "type": "bool"
                }
            ],
            "name": "set",
            "outputs": [],
            "stateMutability": "nonpayable",
            "type": "function"
        },
        {
            "inputs": [
                {
                    "internalType": "contract IMigrator",
                    "name": "_migrator",
                    "type": "address"
                }
            ],
            "name": "setMigrator",
            "outputs": [],
            "stateMutability": "nonpayable",
            "type": "function"
        },
        {
            "inputs": [],
            "name": "soul",
            "outputs": [
                {
                    "internalType": "contract SoulPower",
                    "name": "",
                    "type": "address"
                }
            ],
            "stateMutability": "view",
            "type": "function"
        },
        {
            "inputs": [],
            "name": "soulPerSecond",
            "outputs": [
                {
                    "internalType": "uint256",
                    "name": "",
                    "type": "uint256"
                }
            ],
            "stateMutability": "view",
            "type": "function"
        },
        {
            "inputs": [],
            "name": "startRate",
            "outputs": [
                {
                    "internalType": "uint256",
                    "name": "",
                    "type": "uint256"
                }
            ],
            "stateMutability": "view",
            "type": "function"
        },
        {
            "inputs": [],
            "name": "startTime",
            "outputs": [
                {
                    "internalType": "uint256",
                    "name": "",
                    "type": "uint256"
                }
            ],
            "stateMutability": "view",
            "type": "function"
        },
        {
            "inputs": [
                {
                    "internalType": "bytes4",
                    "name": "interfaceId",
                    "type": "bytes4"
                }
            ],
            "name": "supportsInterface",
            "outputs": [
                {
                    "internalType": "bool",
                    "name": "",
                    "type": "bool"
                }
            ],
            "stateMutability": "view",
            "type": "function"
        },
        {
            "inputs": [],
            "name": "team",
            "outputs": [
                {
                    "internalType": "address",
                    "name": "",
                    "type": "address"
                }
            ],
            "stateMutability": "view",
            "type": "function"
        },
        {
            "inputs": [
                {
                    "internalType": "uint256",
                    "name": "pid",
                    "type": "uint256"
                }
            ],
            "name": "timeUntilNextDecrease",
            "outputs": [
                {
                    "internalType": "uint256",
                    "name": "",
                    "type": "uint256"
                }
            ],
            "stateMutability": "view",
            "type": "function"
        },
        {
            "inputs": [],
            "name": "totalAllocPoint",
            "outputs": [
                {
                    "internalType": "uint256",
                    "name": "",
                    "type": "uint256"
                }
            ],
            "stateMutability": "view",
            "type": "function"
        },
        {
            "inputs": [],
            "name": "totalWeight",
            "outputs": [
                {
                    "internalType": "uint256",
                    "name": "",
                    "type": "uint256"
                }
            ],
            "stateMutability": "view",
            "type": "function"
        },
        {
            "inputs": [
                {
                    "internalType": "address",
                    "name": "newOwner",
                    "type": "address"
                }
            ],
            "name": "transferOwnership",
            "outputs": [],
            "stateMutability": "nonpayable",
            "type": "function"
        },
        {
            "inputs": [
                {
                    "internalType": "address",
                    "name": "_dao",
                    "type": "address"
                },
                {
                    "internalType": "address",
                    "name": "_team",
                    "type": "address"
                }
            ],
            "name": "updateAccounts",
            "outputs": [],
            "stateMutability": "nonpayable",
            "type": "function"
        },
        {
            "inputs": [
                {
                    "internalType": "uint256",
                    "name": "_bonusMultiplier",
                    "type": "uint256"
                }
            ],
            "name": "updateMultiplier",
            "outputs": [],
            "stateMutability": "nonpayable",
            "type": "function"
        },
        {
            "inputs": [
                {
                    "internalType": "uint256",
                    "name": "pid",
                    "type": "uint256"
                }
            ],
            "name": "updatePool",
            "outputs": [],
            "stateMutability": "nonpayable",
            "type": "function"
        },
        {
            "inputs": [
                {
                    "internalType": "address",
                    "name": "_soul",
                    "type": "address"
                },
                {
                    "internalType": "address",
                    "name": "_seance",
                    "type": "address"
                }
            ],
            "name": "updateTokens",
            "outputs": [],
            "stateMutability": "nonpayable",
            "type": "function"
        },
        {
            "inputs": [
                {
                    "internalType": "uint256",
                    "name": "_weight",
                    "type": "uint256"
                }
            ],
            "name": "updateWeight",
            "outputs": [],
            "stateMutability": "nonpayable",
            "type": "function"
        },
        {
            "inputs": [
                {
                    "internalType": "uint256",
                    "name": "_pid",
                    "type": "uint256"
                }
            ],
            "name": "userDelta",
            "outputs": [
                {
                    "internalType": "uint256",
                    "name": "",
                    "type": "uint256"
                }
            ],
            "stateMutability": "view",
            "type": "function"
        },
        {
            "inputs": [
                {
                    "internalType": "uint256",
                    "name": "",
                    "type": "uint256"
                },
                {
                    "internalType": "address",
                    "name": "",
                    "type": "address"
                }
            ],
            "name": "userInfo",
            "outputs": [
                {
                    "internalType": "uint256",
                    "name": "amount",
                    "type": "uint256"
                },
                {
                    "internalType": "uint256",
                    "name": "rewardDebt",
                    "type": "uint256"
                },
                {
                    "internalType": "uint256",
                    "name": "rewardDebtAtTime",
                    "type": "uint256"
                },
                {
                    "internalType": "uint256",
                    "name": "lastWithdrawTime",
                    "type": "uint256"
                },
                {
                    "internalType": "uint256",
                    "name": "firstDepositTime",
                    "type": "uint256"
                },
                {
                    "internalType": "uint256",
                    "name": "timeDelta",
                    "type": "uint256"
                },
                {
                    "internalType": "uint256",
                    "name": "lastDepositTime",
                    "type": "uint256"
                }
            ],
            "stateMutability": "view",
            "type": "function"
        },
        {
            "inputs": [],
            "name": "weight",
            "outputs": [
                {
                    "internalType": "uint256",
                    "name": "",
                    "type": "uint256"
                }
            ],
            "stateMutability": "view",
            "type": "function"
        },
        {
            "inputs": [
                {
                    "internalType": "uint256",
                    "name": "pid",
                    "type": "uint256"
                },
                {
                    "internalType": "uint256",
                    "name": "amount",
                    "type": "uint256"
                }
            ],
            "name": "withdraw",
            "outputs": [],
            "stateMutability": "nonpayable",
            "type": "function"
        }
    ],
    "bytecode": "60806040526001600e553480156200001657600080fd5b506200002b6200002562000102565b62000106565b6001805460ff60a01b1916815560025560078054336001600160a01b0319918216811792839055600880549092161790557f36d5d8406f8379c6deba01145ec4f6a2966675cc67d71355b397a2a8e3572b296016557f0811b25c145e1379dc78112dd91057f09150f6db05dfd7e04deb910e6cefd4b7601755620000bd9060009081906001600160a01b031662000158565b50601654600754620000db919081906001600160a01b031662000158565b50601754601654600854620000fb9291906001600160a01b031662000158565b50620002a9565b3390565b600180546001600160a01b038381166001600160a01b0319831681179093556040519116919082907f8be0079c531659141344cd1fd0a4f28419497f9722a3daafe3b4186f6b6457e090600090a35050565b60006200016684836200017c565b6200017284846200018c565b5060019392505050565b620001888282620001e1565b5050565b600062000199836200026b565b600084815260208190526040808220600101859055519192508391839186917fbd79b86ffe0ab8e8776151514217cd7cacd52c909f66475c3af44e129f0b00ff9190a4505050565b620001ed828262000280565b62000188576000828152602081815260408083206001600160a01b03851684529091529020805460ff191660011790556200022762000102565b6001600160a01b0316816001600160a01b0316837f2f8788117e7eff1d82e926ec794901d17c78024a50270940304540a733656f0d60405160405180910390a45050565b60009081526020819052604090206001015490565b6000918252602082815260408084206001600160a01b0393909316845291905290205460ff1690565b61345780620002b96000396000f3fe608060405234801561001057600080fd5b50600436106103785760003560e01c8063815b7a8c116101d3578063d547741f11610104578063ec3df6ad116100a2578063fb60dc181161007c578063fb60dc18146106d5578063fc90fdc0146106e8578063fcee45f4146106f0578063fd6f99d01461070357610378565b8063ec3df6ad1461069c578063edbf4ac2146106af578063f2fde38b146106c257610378565b8063e13e8ec2116100de578063e13e8ec21461065b578063e2bbb1581461066e578063e7aa29e314610681578063ea4bf4461461069457610378565b8063d547741f14610622578063da755b4b14610635578063dbaef9b01461064857610378565b806393f1a40b11610171578063a217fddf1161014b578063a217fddf146105ec578063a8b973a1146105f4578063bfafcad5146105fc578063cf94ee961461060f57610378565b806393f1a40b146105b657806396c82e57146105dc578063a1aab33f146105e457610378565b80638da5cb5b116101ad5780638da5cb5b146105675780638dbb1e3a1461056f57806390fb575b1461058257806391d14854146105a357610378565b8063815b7a8c1461054457806382386d581461054c57806385f2aef21461055f57610378565b8063441a3e70116102ad578063630b5ba11161024b57806378e979251161022557806378e97925146105195780637abceffd146105215780637cd07e47146105345780637d500ec81461053c57610378565b8063630b5ba1146104f657806364482f79146104fe578063715018a61461051157610378565b806351eb05a61161028757806351eb05a6146104c05780635c975abb146104d35780635f9bf689146104db5780635ffe6146146104e357610378565b8063441a3e7014610492578063454b0608146104a55780634ca01d45146104b857610378565b806323cf31181161031a57806336568abe116102f457806336568abe1461044f578063392e53cd1461046257806341441d3b1461046a5780634162169f1461047d57610378565b806323cf311814610416578063248a9ca3146104295780632f2ff15d1461043c57610378565b80631058d281116103565780631058d281146103ce5780631254f0dc146103e35780631526fe27146103eb57806317caf6f11461040e57610378565b806301ffc9a71461037d578063081e3eda146103a657806309ae4d2c146103bb575b600080fd5b61039061038b366004612c35565b61070b565b60405161039d9190612e71565b60405180910390f35b6103ae610738565b60405161039d9190612e7c565b6103ae6103c9366004612bf9565b61073e565b6103e16103dc366004612bf9565b61078f565b005b6103ae610a0b565b6103fe6103f9366004612bf9565b610a11565b60405161039d9493929190612e85565b6103ae610a55565b6103e1610424366004612b28565b610a5b565b6103ae610437366004612bf9565b610ab4565b6103e161044a366004612c11565b610ac9565b6103e161045d366004612c11565b610aed565b610390610b33565b6103e1610478366004612bf9565b610b3c565b610485610db5565b60405161039d9190612dcc565b6103e16104a0366004612d09565b610dc4565b6103e16104b3366004612bf9565b61103f565b610485611329565b6103e16104ce366004612bf9565b611338565b610390611633565b6103ae611643565b6103e16104f1366004612bf9565b611649565b6103e161165e565b6103e161050c366004612d2a565b611685565b6103e16117c1565b6103ae61180c565b6103e161052f366004612cc8565b611812565b61048561185d565b6103ae61186c565b610485611872565b6103e161055a366004612c91565b611881565b6104856118ba565b6104856118c9565b6103ae61057d366004612d09565b6118d8565b610595610590366004612d09565b6118f9565b60405161039d9291906132ba565b6103906105b1366004612c11565b611922565b6105c96105c4366004612c11565b61194b565b60405161039d97969594939291906132ec565b6103ae61199a565b6103ae6119a0565b6103ae6119a6565b6103ae6119ab565b6103ae61060a366004612c11565b6119b1565b6103ae61061d366004612bf9565b611b42565b6103e1610630366004612c11565b611b56565b6103ae610643366004612bf9565b611b75565b610390610656366004612bf9565b611bd4565b6103e1610669366004612b44565b611be0565b6103e161067c366004612d09565b611ca8565b6103e161068f366004612b44565b611f04565b6103ae611fbc565b6103e16106aa366004612bf9565b611fc2565b6103e16106bd366004612b7c565b6120d3565b6103e16106d0366004612b28565b61232e565b6103ae6106e3366004612bf9565b61239f565b6103ae6123b2565b6103ae6106fe366004612bf9565b6123b8565b6103ae612431565b60006001600160e01b03198216637965db0b60e01b1480610730575061073082612437565b90505b919050565b60145490565b6000818152601560209081526040808320338452909152812060038101541561077d5760008160030154436107739190613373565b9250610733915050565b60008160040154436107739190613373565b6002805414156107ba5760405162461bcd60e51b81526004016107b1906131c6565b60405180910390fd5b60028081905550600060146000815481106107e557634e487b7160e01b600052603260045260246000fd5b600091825260208083203384527fa31547ce6245cdb9ecea19cf8c7eb9f5974025bb4075011409251ae855b30aed90915260409092208054600490920290920192508311156108465760405162461bcd60e51b81526004016107b190613146565b6108506000611338565b6000816001015464e8d4a51000846003015484600001546108719190613354565b61087b9190613334565b6108859190613373565b90508015610897576108973382612450565b83156109315781546108aa908590613373565b8255825460405163a9059cbb60e01b81526001600160a01b039091169063a9059cbb906108dd9033908890600401612e58565b602060405180830381600087803b1580156108f757600080fd5b505af115801561090b573d6000803e3d6000fd5b505050506040513d601f19601f8201168201806040525081019061092f9190612bdd565b505b6003830154825464e8d4a510009161094891613354565b6109529190613334565b6001830155600654604051632770a7eb60e21b81526001600160a01b0390911690639dc29fac906109899033908890600401612e58565b600060405180830381600087803b1580156109a357600080fd5b505af11580156109b7573d6000803e3d6000fd5b505050506000336001600160a01b03167f02f25270a4d87bea75db541cdfe559334a275b4a233520ed6c0a2429667cca9486426040516109f89291906132ba565b60405180910390a3505060016002555050565b60135481565b60148181548110610a2157600080fd5b600091825260209091206004909102018054600182015460028301546003909301546001600160a01b039092169350919084565b60105481565b60115460ff16610a7d5760405162461bcd60e51b81526004016107b190613283565b601654610a9181610a8c6124b8565b6124bc565b50600980546001600160a01b0319166001600160a01b0392909216919091179055565b60009081526020819052604090206001015490565b610ad282610ab4565b610ade81610a8c6124b8565b610ae88383612520565b505050565b610af56124b8565b6001600160a01b0316816001600160a01b031614610b255760405162461bcd60e51b81526004016107b1906131fd565b610b2f82826125a5565b5050565b60115460ff1681565b600280541415610b5e5760405162461bcd60e51b81526004016107b1906131c6565b60028055610b6a611633565b15610b875760405162461bcd60e51b81526004016107b190612f59565b60006014600081548110610bab57634e487b7160e01b600052603260045260246000fd5b600091825260208083203384527fa31547ce6245cdb9ecea19cf8c7eb9f5974025bb4075011409251ae855b30aed90915260408320600490920201925090610bf290611338565b805415610c42576000816001015464e8d4a5100084600301548460000154610c1a9190613354565b610c249190613334565b610c2e9190613373565b90508015610c4057610c403382612450565b505b8215610cde5781546040516323b872dd60e01b81526001600160a01b03909116906323b872dd90610c7b90339030908890600401612e34565b602060405180830381600087803b158015610c9557600080fd5b505af1158015610ca9573d6000803e3d6000fd5b505050506040513d601f19601f82011682018060405250810190610ccd9190612bdd565b508054610cdb90849061331c565b81555b6003820154815464e8d4a5100091610cf591613354565b610cff9190613334565b60018201556006546040516340c10f1960e01b81526001600160a01b03909116906340c10f1990610d369033908790600401612e58565b600060405180830381600087803b158015610d5057600080fd5b505af1158015610d64573d6000803e3d6000fd5b505050506000336001600160a01b03167f90890809c654f11d6e72a28fa60149770a0d11ec6c92319d6ceb2bb0a4ea1a1585604051610da39190612e7c565b60405180910390a35050600160025550565b6008546001600160a01b031681565b600280541415610de65760405162461bcd60e51b81526004016107b1906131c6565b6002805560145482908110610e0d5760405162461bcd60e51b81526004016107b1906130e2565b82610e2a5760405162461bcd60e51b81526004016107b190612fd9565b600060148481548110610e4d57634e487b7160e01b600052603260045260246000fd5b600091825260208083208784526015825260408085203386529092529220805460049092029092019250841115610e965760405162461bcd60e51b81526004016107b190613172565b610e9f85611338565b6000816001015464e8d4a5100084600301548460000154610ec09190613354565b610eca9190613334565b610ed49190613373565b90508015610ee657610ee63382612450565b8415610fc757600682015415610f0f576006820154610f059042613373565b6005830155610f24565b6004820154610f1e9042613373565b60058301555b8154610f31908690613373565b82556000610f3f87876118f9565b855460405163a9059cbb60e01b81529193506001600160a01b0316915063a9059cbb90610f729033908590600401612e58565b602060405180830381600087803b158015610f8c57600080fd5b505af1158015610fa0573d6000803e3d6000fd5b505050506040513d601f19601f82011682018060405250810190610fc49190612bdd565b50505b6003830154825464e8d4a5100091610fde91613354565b610fe89190613334565b60018301554260038301819055604051879133917f02f25270a4d87bea75db541cdfe559334a275b4a233520ed6c0a2429667cca949161102a918a91906132ba565b60405180910390a35050600160025550505050565b60115460ff166110615760405162461bcd60e51b81526004016107b190613283565b601454819081106110845760405162461bcd60e51b81526004016107b1906130e2565b6009546001600160a01b03166110ac5760405162461bcd60e51b81526004016107b190612fb0565b6000601483815481106110cf57634e487b7160e01b600052603260045260246000fd5b60009182526020822060049182020180546040516370a0823160e01b81529194506001600160a01b0316929183916370a082319161110f91309101612dcc565b60206040518083038186803b15801561112757600080fd5b505afa15801561113b573d6000803e3d6000fd5b505050506040513d601f19601f8201168201806040525081019061115f9190612c79565b60095460405163095ea7b360e01b81529192506001600160a01b038085169263095ea7b3926111949216908590600401612e58565b602060405180830381600087803b1580156111ae57600080fd5b505af11580156111c2573d6000803e3d6000fd5b505050506040513d601f19601f820116820180604052508101906111e69190612bdd565b5060095460405163ce5494bb60e01b81526000916001600160a01b03169063ce5494bb90611218908690600401612dcc565b602060405180830381600087803b15801561123257600080fd5b505af1158015611246573d6000803e3d6000fd5b505050506040513d601f19601f8201168201806040525081019061126a9190612c5d565b6040516370a0823160e01b81529091506001600160a01b038216906370a0823190611299903090600401612dcc565b60206040518083038186803b1580156112b157600080fd5b505afa1580156112c5573d6000803e3d6000fd5b505050506040513d601f19601f820116820180604052508101906112e99190612c79565b82146113075760405162461bcd60e51b81526004016107b19061324c565b83546001600160a01b0319166001600160a01b03919091161790925550505050565b6006546001600160a01b031681565b6014548190811061135b5760405162461bcd60e51b81526004016107b1906130e2565b60006014838154811061137e57634e487b7160e01b600052603260045260246000fd5b906000526020600020906004020190508060020154421161139f5750610b2f565b80546040516370a0823160e01b81526000916001600160a01b0316906370a08231906113cf903090600401612dcc565b60206040518083038186803b1580156113e757600080fd5b505afa1580156113fb573d6000803e3d6000fd5b505050506040513d601f19601f8201168201806040525081019061141f9190612c79565b905080611433575042600290910155610b2f565b60006114438360020154426118d8565b905060006010548460010154600d548461145d9190613354565b6114679190613354565b6114719190613334565b90506000650746a528800061148b8364e8d4a51000613354565b6114959190613334565b905060006114a4826002613354565b905060006114b28285613373565b600480546007546040516340c10f1960e01b81529394506001600160a01b03918216936340c10f19936114eb9390921691889101612e58565b600060405180830381600087803b15801561150557600080fd5b505af1158015611519573d6000803e3d6000fd5b5050600480546008546040516340c10f1960e01b81526001600160a01b0392831695506340c10f199450611554939190921691889101612e58565b600060405180830381600087803b15801561156e57600080fd5b505af1158015611582573d6000803e3d6000fd5b5050600480546006546040516340c10f1960e01b81526001600160a01b0392831695506340c10f1994506115bd939190921691869101612e58565b600060405180830381600087803b1580156115d757600080fd5b505af11580156115eb573d6000803e3d6000fd5b50505050858464e8d4a510006116019190613354565b61160b9190613334565b876003015461161a919061331c565b6003880155505042600290950194909455505050505050565b600154600160a01b900460ff1690565b600d5481565b60175461165881610a8c6124b8565b50600e55565b60145460005b81811015610b2f5761167581611338565b61167e816133cd565b9050611664565b60115460ff166116a75760405162461bcd60e51b81526004016107b190613283565b601454839081106116ca5760405162461bcd60e51b81526004016107b1906130e2565b6017546116d981610a8c6124b8565b82156116e7576116e761165e565b60006014868154811061170a57634e487b7160e01b600052603260045260246000fd5b9060005260206000209060040201600101549050846014878154811061174057634e487b7160e01b600052603260045260246000fd5b90600052602060002090600402016001018190555084811461178057848160105461176b9190613373565b611775919061331c565b601055611780612628565b7fd88f859573973e938da5bf3e5100c16eee2090fa720e05ae3d452b4cd05cdcfd86866040516117b19291906132ba565b60405180910390a1505050505050565b6117c96124b8565b6001600160a01b03166117da6118c9565b6001600160a01b0316146118005760405162461bcd60e51b81526004016107b190613047565b61180a600061272a565b565b600f5481565b60115460ff166118345760405162461bcd60e51b81526004016107b190613283565b60165461184381610a8c6124b8565b61184c8361277c565b6118578484846127fd565b50505050565b6009546001600160a01b031681565b600c5481565b6004546001600160a01b031681565b60175461189081610a8c6124b8565b5060009283526015602090815260408085206001600160a01b039094168552929052912060040155565b6007546001600160a01b031681565b6001546001600160a01b031690565b600e546000906118e88484613373565b6118f29190613354565b9392505050565b6000806000611907856123b8565b905060006119158486613373565b9196919550909350505050565b6000918252602082815260408084206001600160a01b0393909316845291905290205460ff1690565b6015602052816000526040600020602052806000526040600020600091509150508060000154908060010154908060020154908060030154908060040154908060050154908060060154905087565b600a5481565b600b5481565b600081565b600e5481565b600080601484815481106119d557634e487b7160e01b600052603260045260246000fd5b600091825260208083208784526015825260408085206001600160a01b038981168752935280852060049485029092016003810154815492516370a0823160e01b815291975092959294929391909116916370a0823191611a3891309101612dcc565b60206040518083038186803b158015611a5057600080fd5b505afa158015611a64573d6000803e3d6000fd5b505050506040513d601f19601f82011682018060405250810190611a889190612c79565b9050836002015442118015611a9c57508015155b15611b0a576000611ab18560020154426118d8565b905060006010548660010154600d5484611acb9190613354565b611ad59190613354565b611adf9190613334565b905082611af18264e8d4a51000613354565b611afb9190613334565b611b05908561331c565b935050505b6001830154835464e8d4a5100090611b23908590613354565b611b2d9190613334565b611b379190613373565b979650505050505050565b600061073082670de0b6b3a7640000613354565b611b5f82610ab4565b611b6b81610a8c6124b8565b610ae883836125a5565b600081815260156020908152604080832033845290915281206005015480611ba1576000915050610733565b6000611bb06201518083613334565b90506000611bc18262015180613354565b611bcb9084613373565b95945050505050565b60006107308233611922565b601654611bef81610a8c6124b8565b6008546001600160a01b038481169116141580611c1a57506007546001600160a01b03838116911614155b611c365760405162461bcd60e51b81526004016107b1906130b3565b600880546001600160a01b038086166001600160a01b0319928316179283905560078054868316931692909217918290556040517fd1c04282701cbf58aa2f0026f6876051cf3feb8ee7b8b5b5532ebb4ab03fb5d493611c9b93908316921690612de0565b60405180910390a1505050565b600280541415611cca5760405162461bcd60e51b81526004016107b1906131c6565b6002805560145482908110611cf15760405162461bcd60e51b81526004016107b1906130e2565b611cf9611633565b15611d165760405162461bcd60e51b81526004016107b190612f59565b82611d335760405162461bcd60e51b81526004016107b190613010565b600060148481548110611d5657634e487b7160e01b600052603260045260246000fd5b60009182526020808320878452601582526040808520338652909252922060049091029091019150611d8785611338565b805415611dd7576000816001015464e8d4a5100084600301548460000154611daf9190613354565b611db99190613334565b611dc39190613373565b90508015611dd557611dd53382612450565b505b8315611e735781546040516323b872dd60e01b81526001600160a01b03909116906323b872dd90611e1090339030908990600401612e34565b602060405180830381600087803b158015611e2a57600080fd5b505af1158015611e3e573d6000803e3d6000fd5b505050506040513d601f19601f82011682018060405250810190611e629190612bdd565b508054611e7090859061331c565b81555b6003820154815464e8d4a5100091611e8a91613354565b611e949190613334565b60018201556004810154611eaf574281600401819055611eb5565b60048101545b5084336001600160a01b03167f90890809c654f11d6e72a28fa60149770a0d11ec6c92319d6ceb2bb0a4ea1a1586604051611ef09190612e7c565b60405180910390a350506001600255505050565b601654611f1381610a8c6124b8565b6004546001600160a01b038481169116141580611f3e57506006546001600160a01b03838116911614155b611f5a5760405162461bcd60e51b81526004016107b19061307c565b600480546001600160a01b038086166001600160a01b03199283161790925560068054928516929091169190911790556040517fdcc6331013de89f8c595d5328f0a724194f113cb6f8f2a707b3dff6de13f0d1790611c9b9085908590612de0565b60165481565b60115460ff16611fe45760405162461bcd60e51b81526004016107b190613283565b601754611ff381610a8c6124b8565b81600b5414156120155760405162461bcd60e51b81526004016107b19061310f565b81600b54101561204a576000600b548361202f9190613373565b905080600a6000828254612043919061331c565b9091555050505b81600b54111561207f57600082600b546120649190613373565b905080600a60008282546120789190613373565b9091555050505b600b829055600a5461209290839061290a565b7fb298bc23e07860d501fddce288f46d761aa04a0c7c3316099eb50f097aacf304600b54600a546040516120c79291906132ba565b60405180910390a15050565b6016546120e281610a8c6124b8565b60115460ff16156121055760405162461bcd60e51b81526004016107b190612f83565b600380546001600160a01b03808b166001600160a01b03199283161790925560058054928a169290911691909117905542600f55612143858761331c565b600a55600b85905561215483611b42565b6013556121608261239f565b601255600354600480546001600160a01b039283166001600160a01b03199182161790915560055460068054919093169116179055600b54600a5485916121a69161290a565b60408051608081018252600480546001600160a01b03908116835260208301858152600f54948401948552600060608501818152601480546001808201835591845296517fce6d7b5282bd9a3661ae061feed1dbda4e52ab073b1f9285be6e155d9c38d4ec9790960296870180546001600160a01b031916969095169590951790935590517fce6d7b5282bd9a3661ae061feed1dbda4e52ab073b1f9285be6e155d9c38d4ed85015593517fce6d7b5282bd9a3661ae061feed1dbda4e52ab073b1f9285be6e155d9c38d4ee840155517fce6d7b5282bd9a3661ae061feed1dbda4e52ab073b1f9285be6e155d9c38d4ef909201919091556011805460ff19169091179055601080548392906122bd90849061331c565b9091555050600754600854600354600554601054600b546040517f0476c5e4920930815a67a5a042e26836431f494d3be0f6e10c3034787a7a15f99661231b966001600160a01b039182169690821695908216949116929091612dfa565b60405180910390a1505050505050505050565b6123366124b8565b6001600160a01b03166123476118c9565b6001600160a01b03161461236d5760405162461bcd60e51b81526004016107b190613047565b6001600160a01b0381166123935760405162461bcd60e51b81526004016107b190612f13565b61239c8161272a565b50565b600061073082662386f26fc10000613354565b60125481565b6000818152601560209081526040808320338452909152812060050154816201518082106123f2576123ed6201518083613334565b6123f5565b60005b90506000601254826124079190613354565b905060135481101561242657806013546124219190613373565b611bcb565b600095945050505050565b60175481565b6001600160e01b031981166301ffc9a760e01b14919050565b600654604051635950a15560e11b81526001600160a01b039091169063b2a142aa906124829085908590600401612e58565b600060405180830381600087803b15801561249c57600080fd5b505af11580156124b0573d6000803e3d6000fd5b505050505050565b3390565b6124c68282611922565b610b2f576124de816001600160a01b03166014612976565b6124e9836020612976565b6040516020016124fa929190612d57565b60408051601f198184030181529082905262461bcd60e51b82526107b191600401612eab565b61252a8282611922565b610b2f576000828152602081815260408083206001600160a01b03851684529091529020805460ff191660011790556125616124b8565b6001600160a01b0316816001600160a01b0316837f2f8788117e7eff1d82e926ec794901d17c78024a50270940304540a733656f0d60405160405180910390a45050565b6125af8282611922565b15610b2f576000828152602081815260408083206001600160a01b03851684529091529020805460ff191690556125e46124b8565b6001600160a01b0316816001600160a01b0316837ff6391f5c32d9c69d2a47ea670b442974b53935d1edc7fd64eb21e047a839171b60405160405180910390a45050565b601454600060015b82811015612688576014818154811061265957634e487b7160e01b600052603260045260246000fd5b90600052602060002090600402016001015482612676919061331c565b9150612681816133cd565b9050612630565b508015610b2f5761269a600382613334565b90508060146000815481106126bf57634e487b7160e01b600052603260045260246000fd5b9060005260206000209060040201600101546010546126de9190613373565b6126e8919061331c565b60108190555080601460008154811061271157634e487b7160e01b600052603260045260246000fd5b9060005260206000209060040201600101819055505050565b600180546001600160a01b038381166001600160a01b0319831681179093556040519116919082907f8be0079c531659141344cd1fd0a4f28419497f9722a3daafe3b4186f6b6457e090600090a35050565b60145460005b81811015610ae857826001600160a01b0316601482815481106127b557634e487b7160e01b600052603260045260246000fd5b60009182526020909120600490910201546001600160a01b031614156127ed5760405162461bcd60e51b81526004016107b19061319d565b6127f6816133cd565b9050612782565b801561280b5761280b61165e565b826010600082825461281d919061331c565b9250508190555060146040518060800160405280846001600160a01b03168152602001858152602001600f54421161285757600f54612859565b425b81526000602091820181905283546001808201865594825290829020835160049092020180546001600160a01b0319166001600160a01b03909216919091178155908201519281019290925560408101516002830155606001516003909101556128c1612628565b6014546010546040517f20b669aa921947a6d9602a921d2db3b6b30f21b9aca98580fa3972530330b27a916128fc91849188918891906132c8565b60405180910390a150505050565b60006129168284613334565b905061292c816934f086f3b33b68400000613354565b600c81905561293f906201518090613334565b600d819055600c546040517fcd7c861d63893659123f817b192b8621ff1923a7c4589c260173cedcf9e986a692611c9b92916132ba565b60606000612985836002613354565b61299090600261331c565b67ffffffffffffffff8111156129b657634e487b7160e01b600052604160045260246000fd5b6040519080825280601f01601f1916602001820160405280156129e0576020820181803683370190505b509050600360fc1b81600081518110612a0957634e487b7160e01b600052603260045260246000fd5b60200101906001600160f81b031916908160001a905350600f60fb1b81600181518110612a4657634e487b7160e01b600052603260045260246000fd5b60200101906001600160f81b031916908160001a9053506000612a6a846002613354565b612a7590600161331c565b90505b6001811115612b09576f181899199a1a9b1b9c1cb0b131b232b360811b85600f1660108110612ab757634e487b7160e01b600052603260045260246000fd5b1a60f81b828281518110612adb57634e487b7160e01b600052603260045260246000fd5b60200101906001600160f81b031916908160001a90535060049490941c93612b02816133b6565b9050612a78565b5083156118f25760405162461bcd60e51b81526004016107b190612ede565b600060208284031215612b39578081fd5b81356118f2816133fe565b60008060408385031215612b56578081fd5b8235612b61816133fe565b91506020830135612b71816133fe565b809150509250929050565b600080600080600080600060e0888a031215612b96578283fd5b8735612ba1816133fe565b96506020880135612bb1816133fe565b96999698505050506040850135946060810135946080820135945060a0820135935060c0909101359150565b600060208284031215612bee578081fd5b81516118f281613413565b600060208284031215612c0a578081fd5b5035919050565b60008060408385031215612c23578182fd5b823591506020830135612b71816133fe565b600060208284031215612c46578081fd5b81356001600160e01b0319811681146118f2578182fd5b600060208284031215612c6e578081fd5b81516118f2816133fe565b600060208284031215612c8a578081fd5b5051919050565b600080600060608486031215612ca5578283fd5b833592506020840135612cb7816133fe565b929592945050506040919091013590565b600080600060608486031215612cdc578283fd5b833592506020840135612cee816133fe565b91506040840135612cfe81613413565b809150509250925092565b60008060408385031215612d1b578182fd5b50508035926020909101359150565b600080600060608486031215612d3e578081fd5b83359250602084013591506040840135612cfe81613413565b60007f416363657373436f6e74726f6c3a206163636f756e742000000000000000000082528351612d8f81601785016020880161338a565b7001034b99036b4b9b9b4b733903937b6329607d1b6017918401918201528351612dc081602884016020880161338a565b01602801949350505050565b6001600160a01b0391909116815260200190565b6001600160a01b0392831681529116602082015260400190565b6001600160a01b0396871681529486166020860152928516604085015293166060830152608082019290925260a081019190915260c00190565b6001600160a01b039384168152919092166020820152604081019190915260600190565b6001600160a01b03929092168252602082015260400190565b901515815260200190565b90815260200190565b6001600160a01b0394909416845260208401929092526040830152606082015260800190565b6000602082528251806020840152612eca81604085016020870161338a565b601f01601f19169190910160400192915050565b6020808252818101527f537472696e67733a20686578206c656e67746820696e73756666696369656e74604082015260600190565b60208082526026908201527f4f776e61626c653a206e6577206f776e657220697320746865207a65726f206160408201526564647265737360d01b606082015260800190565b60208082526010908201526f14185d5cd8589b194e881c185d5cd95960821b604082015260600190565b602080825260139082015272185b1c9958591e481a5b9a5d1a585b1a5e9959606a1b604082015260600190565b6020808252600f908201526e1b9bc81b5a59dc985d1bdc881cd95d608a1b604082015260600190565b6020808252601a908201527f776974686472617720534f554c20627920756e7374616b696e67000000000000604082015260600190565b60208082526017908201527f6465706f73697420534f554c206279207374616b696e67000000000000000000604082015260600190565b6020808252818101527f4f776e61626c653a2063616c6c6572206973206e6f7420746865206f776e6572604082015260600190565b6020808252601b908201527f6d7573742062652061206e657720746f6b656e20616464726573730000000000604082015260600190565b6020808252601590820152741b5d5cdd0818994818481b995dc81858d8dbdd5b9d605a1b604082015260600190565b6020808252601390820152721c1bdbdb08191bd95cc81b9bdd08195e1a5cdd606a1b604082015260600190565b60208082526018908201527f6d757374206265206e6577207765696768742076616c75650000000000000000604082015260600190565b6020808252601290820152711dda5d1a191c985dce881b9bdd0819dbdbd960721b604082015260600190565b6020808252601190820152701dda5d1a191c985dc81b9bdd0819dbdbd9607a1b604082015260600190565b6020808252600f908201526e191d5c1b1a58d85d1959081c1bdbdb608a1b604082015260600190565b6020808252601f908201527f5265656e7472616e637947756172643a207265656e7472616e742063616c6c00604082015260600190565b6020808252602f908201527f416363657373436f6e74726f6c3a2063616e206f6e6c792072656e6f756e636560408201526e103937b632b9903337b91039b2b63360891b606082015260800190565b6020808252601d908201527f6d6967726174653a20696e73756666696369656e742062616c616e6365000000604082015260600190565b6020808252601a908201527f726577617264732068617665206e6f742079657420626567756e000000000000604082015260600190565b918252602082015260400190565b93845260208401929092526001600160a01b03166040830152606082015260800190565b968752602087019590955260408601939093526060850191909152608084015260a083015260c082015260e00190565b6000821982111561332f5761332f6133e8565b500190565b60008261334f57634e487b7160e01b81526012600452602481fd5b500490565b600081600019048311821515161561336e5761336e6133e8565b500290565b600082821015613385576133856133e8565b500390565b60005b838110156133a557818101518382015260200161338d565b838111156118575750506000910152565b6000816133c5576133c56133e8565b506000190190565b60006000198214156133e1576133e16133e8565b5060010190565b634e487b7160e01b600052601160045260246000fd5b6001600160a01b038116811461239c57600080fd5b801515811461239c57600080fdfea26469706673582212207717389e1d3cad8002f673e0e9a5d4e6c4218e6f4211002af9a80f5a05d0738f64736f6c63430008000033",
    "sourcePath": "/Users/unico/Documents/GitHub/SoulSwap/soulswap-farms/contracts/SoulSummoner.sol",
    "compiler": {
        "name": "solc",
        "version": "0.8.0+commit.c7dfd78e"
    },
    "functionHashes": {
        "DEFAULT_ADMIN_ROLE()": "a217fddf",
        "addPool(uint256,address,bool)": "7abceffd",
        "bonusMultiplier()": "a8b973a1",
        "dailyDecay()": "fc90fdc0",
        "dailySoul()": "7d500ec8",
        "dao()": "4162169f",
        "deposit(uint256,uint256)": "e2bbb158",
        "enWei(uint256)": "cf94ee96",
        "enterStaking(uint256)": "41441d3b",
        "getFee(uint256)": "fcee45f4",
        "getMultiplier(uint256,uint256)": "8dbb1e3a",
        "getRoleAdmin(bytes32)": "248a9ca3",
        "getWithdrawable(uint256,uint256)": "90fb575b",
        "grantRole(bytes32,address)": "2f2ff15d",
        "hasDivineRole(bytes32)": "dbaef9b0",
        "hasRole(bytes32,address)": "91d14854",
        "initialize(address,address,uint256,uint256,uint256,uint256,uint256)": "edbf4ac2",
        "isInitialized()": "392e53cd",
        "isis()": "ea4bf446",
        "leaveStaking(uint256)": "1058d281",
        "maat()": "fd6f99d0",
        "massUpdatePools()": "630b5ba1",
        "migrate(uint256)": "454b0608",
        "migrator()": "7cd07e47",
        "oneHundreth(uint256)": "fb60dc18",
        "owner()": "8da5cb5b",
        "paused()": "5c975abb",
        "pendingSoul(uint256,address)": "bfafcad5",
        "poolInfo(uint256)": "1526fe27",
        "poolLength()": "081e3eda",
        "renounceOwnership()": "715018a6",
        "renounceRole(bytes32,address)": "36568abe",
        "reviseDeposit(uint256,address,uint256)": "82386d58",
        "revokeRole(bytes32,address)": "d547741f",
        "seance()": "4ca01d45",
        "set(uint256,uint256,bool)": "64482f79",
        "setMigrator(address)": "23cf3118",
        "soul()": "815b7a8c",
        "soulPerSecond()": "5f9bf689",
        "startRate()": "1254f0dc",
        "startTime()": "78e97925",
        "supportsInterface(bytes4)": "01ffc9a7",
        "team()": "85f2aef2",
        "timeUntilNextDecrease(uint256)": "da755b4b",
        "totalAllocPoint()": "17caf6f1",
        "totalWeight()": "96c82e57",
        "transferOwnership(address)": "f2fde38b",
        "updateAccounts(address,address)": "e13e8ec2",
        "updateMultiplier(uint256)": "5ffe6146",
        "updatePool(uint256)": "51eb05a6",
        "updateTokens(address,address)": "e7aa29e3",
        "updateWeight(uint256)": "ec3df6ad",
        "userDelta(uint256)": "09ae4d2c",
        "userInfo(uint256,address)": "93f1a40b",
        "weight()": "a1aab33f",
        "withdraw(uint256,uint256)": "441a3e70"
    },
    "gasEstimates": {
        "creation": {
            "codeDepositCost": "2679800",
            "executionCost": "infinite",
            "totalCost": "infinite"
        },
        "external": {
            "DEFAULT_ADMIN_ROLE()": "295",
            "addPool(uint256,address,bool)": "infinite",
            "bonusMultiplier()": "1117",
            "dailyDecay()": "1116",
            "dailySoul()": "1161",
            "dao()": "1204",
            "deposit(uint256,uint256)": "infinite",
            "enWei(uint256)": "541",
            "enterStaking(uint256)": "infinite",
            "getFee(uint256)": "4089",
            "getMultiplier(uint256,uint256)": "1392",
            "getRoleAdmin(bytes32)": "1271",
            "getWithdrawable(uint256,uint256)": "infinite",
            "grantRole(bytes32,address)": "infinite",
            "hasDivineRole(bytes32)": "1434",
            "hasRole(bytes32,address)": "1516",
            "initialize(address,address,uint256,uint256,uint256,uint256,uint256)": "infinite",
            "isInitialized()": "1130",
            "isis()": "1161",
            "leaveStaking(uint256)": "infinite",
            "maat()": "1160",
            "massUpdatePools()": "infinite",
            "migrate(uint256)": "infinite",
            "migrator()": "1181",
            "oneHundreth(uint256)": "474",
            "owner()": "1138",
            "paused()": "1147",
            "pendingSoul(uint256,address)": "infinite",
            "poolInfo(uint256)": "4673",
            "poolLength()": "1120",
            "renounceOwnership()": "23619",
            "renounceRole(bytes32,address)": "infinite",
            "reviseDeposit(uint256,address,uint256)": "infinite",
            "revokeRole(bytes32,address)": "infinite",
            "seance()": "1183",
            "set(uint256,uint256,bool)": "infinite",
            "setMigrator(address)": "infinite",
            "soul()": "1139",
            "soulPerSecond()": "1140",
            "startRate()": "1119",
            "startTime()": "1095",
            "supportsInterface(bytes4)": "566",
            "team()": "1183",
            "timeUntilNextDecrease(uint256)": "1598",
            "totalAllocPoint()": "1163",
            "totalWeight()": "1118",
            "transferOwnership(address)": "infinite",
            "updateAccounts(address,address)": "infinite",
            "updateMultiplier(uint256)": "infinite",
            "updatePool(uint256)": "infinite",
            "updateTokens(address,address)": "infinite",
            "updateWeight(uint256)": "infinite",
            "userDelta(uint256)": "2292",
            "userInfo(uint256,address)": "6441",
            "weight()": "1140",
            "withdraw(uint256,uint256)": "infinite"
        },
        "internal": {
            "_addPool(uint256,contract IERC20,bool)": "infinite",
            "_divinationCeremony(bytes32,bytes32,address)": "infinite",
            "checkPoolDuplicate(contract IERC20)": "infinite",
            "safeSoulTransfer(address,uint256)": "infinite",
            "updateRewards(uint256,uint256)": "infinite",
            "updateStakingPool()": "infinite"
        }
    }
}