{
    "contractName": "SoulMaker",
    "abi": [
        {
            "inputs": [
                {
                    "internalType": "address",
                    "name": "_factory",
                    "type": "address"
                },
                {
                    "internalType": "address",
                    "name": "_bound",
                    "type": "address"
                },
                {
                    "internalType": "address",
                    "name": "_soul",
                    "type": "address"
                },
                {
                    "internalType": "address",
                    "name": "_weth",
                    "type": "address"
                }
            ],
            "stateMutability": "nonpayable",
            "type": "constructor"
        },
        {
            "anonymous": false,
            "inputs": [
                {
                    "indexed": true,
                    "internalType": "address",
                    "name": "token",
                    "type": "address"
                },
                {
                    "indexed": true,
                    "internalType": "address",
                    "name": "bridge",
                    "type": "address"
                }
            ],
            "name": "LogBridgeSet",
            "type": "event"
        },
        {
            "anonymous": false,
            "inputs": [
                {
                    "indexed": true,
                    "internalType": "address",
                    "name": "server",
                    "type": "address"
                },
                {
                    "indexed": true,
                    "internalType": "address",
                    "name": "token0",
                    "type": "address"
                },
                {
                    "indexed": true,
                    "internalType": "address",
                    "name": "token1",
                    "type": "address"
                },
                {
                    "indexed": false,
                    "internalType": "uint256",
                    "name": "amount0",
                    "type": "uint256"
                },
                {
                    "indexed": false,
                    "internalType": "uint256",
                    "name": "amount1",
                    "type": "uint256"
                },
                {
                    "indexed": false,
                    "internalType": "uint256",
                    "name": "amountSOUL",
                    "type": "uint256"
                }
            ],
            "name": "LogConvert",
            "type": "event"
        },
        {
            "anonymous": false,
            "inputs": [
                {
                    "indexed": true,
                    "internalType": "address",
                    "name": "operator",
                    "type": "address"
                },
                {
                    "indexed": true,
                    "internalType": "bool",
                    "name": "access",
                    "type": "bool"
                }
            ],
            "name": "OperatorUpdated",
            "type": "event"
        },
        {
            "anonymous": false,
            "inputs": [
                {
                    "indexed": true,
                    "internalType": "address",
                    "name": "previousOwner",
                    "type": "address"
                },
                {
                    "indexed": true,
                    "internalType": "address",
                    "name": "newOwner",
                    "type": "address"
                }
            ],
            "name": "OwnershipTransferred",
            "type": "event"
        },
        {
            "inputs": [
                {
                    "internalType": "address",
                    "name": "newOperator",
                    "type": "address"
                }
            ],
            "name": "addOperator",
            "outputs": [],
            "stateMutability": "nonpayable",
            "type": "function"
        },
        {
            "inputs": [],
            "name": "bound",
            "outputs": [
                {
                    "internalType": "address",
                    "name": "",
                    "type": "address"
                }
            ],
            "stateMutability": "view",
            "type": "function"
        },
        {
            "inputs": [
                {
                    "internalType": "address",
                    "name": "token",
                    "type": "address"
                }
            ],
            "name": "bridgeFor",
            "outputs": [
                {
                    "internalType": "address",
                    "name": "bridge",
                    "type": "address"
                }
            ],
            "stateMutability": "view",
            "type": "function"
        },
        {
            "inputs": [
                {
                    "internalType": "address",
                    "name": "token0",
                    "type": "address"
                },
                {
                    "internalType": "address",
                    "name": "token1",
                    "type": "address"
                }
            ],
            "name": "convert",
            "outputs": [],
            "stateMutability": "nonpayable",
            "type": "function"
        },
        {
            "inputs": [
                {
                    "internalType": "address[]",
                    "name": "token0",
                    "type": "address[]"
                },
                {
                    "internalType": "address[]",
                    "name": "token1",
                    "type": "address[]"
                }
            ],
            "name": "convertMultiple",
            "outputs": [],
            "stateMutability": "nonpayable",
            "type": "function"
        },
        {
            "inputs": [],
            "name": "factory",
            "outputs": [
                {
                    "internalType": "contract ISoulSwapFactory",
                    "name": "",
                    "type": "address"
                }
            ],
            "stateMutability": "view",
            "type": "function"
        },
        {
            "inputs": [
                {
                    "internalType": "address",
                    "name": "",
                    "type": "address"
                }
            ],
            "name": "operator",
            "outputs": [
                {
                    "internalType": "bool",
                    "name": "",
                    "type": "bool"
                }
            ],
            "stateMutability": "view",
            "type": "function"
        },
        {
            "inputs": [
                {
                    "internalType": "uint256",
                    "name": "",
                    "type": "uint256"
                }
            ],
            "name": "operators",
            "outputs": [
                {
                    "internalType": "address",
                    "name": "",
                    "type": "address"
                }
            ],
            "stateMutability": "view",
            "type": "function"
        },
        {
            "inputs": [],
            "name": "owner",
            "outputs": [
                {
                    "internalType": "address",
                    "name": "",
                    "type": "address"
                }
            ],
            "stateMutability": "view",
            "type": "function"
        },
        {
            "inputs": [
                {
                    "internalType": "address",
                    "name": "removingOperator",
                    "type": "address"
                }
            ],
            "name": "removeOperator",
            "outputs": [],
            "stateMutability": "nonpayable",
            "type": "function"
        },
        {
            "inputs": [],
            "name": "renounceOwnership",
            "outputs": [],
            "stateMutability": "nonpayable",
            "type": "function"
        },
        {
            "inputs": [
                {
                    "internalType": "address",
                    "name": "token",
                    "type": "address"
                },
                {
                    "internalType": "address",
                    "name": "bridge",
                    "type": "address"
                }
            ],
            "name": "setBridge",
            "outputs": [],
            "stateMutability": "nonpayable",
            "type": "function"
        },
        {
            "inputs": [
                {
                    "internalType": "address",
                    "name": "newOwner",
                    "type": "address"
                }
            ],
            "name": "transferOwnership",
            "outputs": [],
            "stateMutability": "nonpayable",
            "type": "function"
        }
    ],
    "bytecode": "6101006040523480156200001257600080fd5b5060405162001fd538038062001fd5833981016040819052620000359162000184565b620000496200004362000113565b62000117565b60006200005562000113565b6001600160a01b038116600081815260026020526040808220805460ff19166001908117909155805480820182558184527fb10e2d527612073b26eecdfd717e6a320cf44b4afac2b0732d9fcbe2b7fa0cf60180546001600160a01b031916851790559051939450927f966c160e1c4dbc7df8d69af4ace01e9297c3cf016397b7914971f2fbfa32672d9190a3506001600160601b0319606094851b811660805292841b831660a05290831b821660c05290911b1660e052620001e0565b3390565b600080546001600160a01b038381166001600160a01b0319831681178455604051919092169283917f8be0079c531659141344cd1fd0a4f28419497f9722a3daafe3b4186f6b6457e09190a35050565b80516001600160a01b03811681146200017f57600080fd5b919050565b600080600080608085870312156200019a578384fd5b620001a58562000167565b9350620001b56020860162000167565b9250620001c56040860162000167565b9150620001d56060860162000167565b905092959194509250565b60805160601c60a05160601c60c05160601c60e05160601c611d15620002c0600039600081816104aa0152818161059401528181610d1701528181610d5401528181610ef701528181610f3401528181610f5a01528181610f9101528181610fce0152610ff401526000818161046d01528181610c8101528181610cc601528181610db401528181610df901528181610e5e01528181610ea3015261115f01526000818161080501528181610ce801528181610e1b01528181610ec501526111810152600081816108290152818161090001526111b10152611d156000f3fe608060405234801561001057600080fd5b50600436106100cf5760003560e01c8063a761a9391161008c578063be4df7d611610066578063be4df7d61461018e578063c45a015514610196578063e28d49061461019e578063f2fde38b146101b1576100cf565b8063a761a93914610155578063ac8a584a14610168578063bd1b820c1461017b576100cf565b8063303e6aa4146100d4578063715018a6146100e95780638da5cb5b146100f15780639870d7fe1461010f5780639a307391146101225780639d22ae8c14610142575b600080fd5b6100e76100e23660046116b8565b6101c4565b005b6100e7610284565b6100f96102cf565b604051610106919061182a565b60405180910390f35b6100e761011d366004611648565b6102de565b610135610130366004611648565b610411565b6040516101069190611871565b6100e7610150366004611680565b610426565b6100f9610163366004611648565b610571565b6100e7610176366004611648565b6105b9565b6100e7610189366004611680565b6107da565b6100f9610803565b6100f9610827565b6100f96101ac36600461178f565b61084b565b6100e76101bf366004611648565b610875565b3332146101ec5760405162461bcd60e51b81526004016101e3906118c6565b60405180910390fd5b8260005b8181101561027c5761026a86868381811061021b57634e487b7160e01b600052603260045260246000fd5b90506020020160208101906102309190611648565b85858481811061025057634e487b7160e01b600052603260045260246000fd5b90506020020160208101906102659190611648565b6108e6565b8061027481611c79565b9150506101f0565b505050505050565b61028c610bab565b6001600160a01b031661029d6102cf565b6001600160a01b0316146102c35760405162461bcd60e51b81526004016101e390611a08565b6102cd6000610baf565b565b6000546001600160a01b031690565b60006102e8610bab565b6001600160a01b03811660009081526002602052604090205490915060ff166103235760405162461bcd60e51b81526004016101e390611a85565b6001600160a01b0382166103495760405162461bcd60e51b81526004016101e39061197a565b6001600160a01b03821660009081526002602052604090205460ff16156103825760405162461bcd60e51b81526004016101e390611a3d565b6001600160a01b038216600081815260026020526040808220805460ff19166001908117909155805480820182558184527fb10e2d527612073b26eecdfd717e6a320cf44b4afac2b0732d9fcbe2b7fa0cf60180546001600160a01b0319168517905590519092917f966c160e1c4dbc7df8d69af4ace01e9297c3cf016397b7914971f2fbfa32672d91a35050565b60026020526000908152604090205460ff1681565b6000610430610bab565b6001600160a01b03811660009081526002602052604090205490915060ff1661046b5760405162461bcd60e51b81526004016101e390611a85565b7f00000000000000000000000000000000000000000000000000000000000000006001600160a01b0316836001600160a01b0316141580156104df57507f00000000000000000000000000000000000000000000000000000000000000006001600160a01b0316836001600160a01b031614155b80156104fd5750816001600160a01b0316836001600160a01b031614155b6105195760405162461bcd60e51b81526004016101e390611b80565b6001600160a01b0383811660008181526003602052604080822080546001600160a01b0319169487169485179055517f2e103aa707acc565f9a1547341914802b2bfe977fd79c595209f248ae4b006139190a3505050565b6001600160a01b0380821660009081526003602052604090205416806105b457507f00000000000000000000000000000000000000000000000000000000000000005b919050565b60006105c3610bab565b6001600160a01b03811660009081526002602052604090205490915060ff166105fe5760405162461bcd60e51b81526004016101e390611a85565b6001600160a01b03821660009081526002602052604090205460ff166106365760405162461bcd60e51b81526004016101e3906119c4565b6001600160a01b0382166000908152600260205260408120805460ff191690555b60015460ff821610156107d457826001600160a01b031660018260ff168154811061069257634e487b7160e01b600052603260045260246000fd5b6000918252602090912001546001600160a01b031614156107c25760016106b98282611be5565b60ff16815481106106da57634e487b7160e01b600052603260045260246000fd5b600091825260209091200154600180546001600160a01b039092169160ff841690811061071757634e487b7160e01b600052603260045260246000fd5b9060005260206000200160006101000a8154816001600160a01b0302191690836001600160a01b03160217905550600180548061076457634e487b7160e01b600052603160045260246000fd5b600082815260208120820160001990810180546001600160a01b03191690559091019091556040516001600160a01b038516907f966c160e1c4dbc7df8d69af4ace01e9297c3cf016397b7914971f2fbfa32672d908390a3506107d6565b806107cc81611c94565b915050610657565b505b5050565b3332146107f95760405162461bcd60e51b81526004016101e3906118c6565b6107d682826108e6565b7f000000000000000000000000000000000000000000000000000000000000000081565b7f000000000000000000000000000000000000000000000000000000000000000081565b6001818154811061085b57600080fd5b6000918252602090912001546001600160a01b0316905081565b61087d610bab565b6001600160a01b031661088e6102cf565b6001600160a01b0316146108b45760405162461bcd60e51b81526004016101e390611a08565b6001600160a01b0381166108da5760405162461bcd60e51b81526004016101e390611934565b6108e381610baf565b50565b60405163e6a4390560e01b81526000906001600160a01b037f0000000000000000000000000000000000000000000000000000000000000000169063e6a4390590610937908690869060040161183e565b60206040518083038186803b15801561094f57600080fd5b505afa158015610963573d6000803e3d6000fd5b505050506040513d601f19601f820116820180604052508101906109879190611664565b90506001600160a01b0381166109af5760405162461bcd60e51b81526004016101e3906118fd565b610a4081826001600160a01b03166370a08231306040518263ffffffff1660e01b81526004016109df919061182a565b60206040518083038186803b1580156109f757600080fd5b505afa158015610a0b573d6000803e3d6000fd5b505050506040513d601f19601f82011682018060405250810190610a2f91906117a7565b6001600160a01b0384169190610bff565b600080826001600160a01b03166389afcb44306040518263ffffffff1660e01b8152600401610a6f919061182a565b6040805180830381600087803b158015610a8857600080fd5b505af1158015610a9c573d6000803e3d6000fd5b505050506040513d601f19601f82011682018060405250810190610ac091906117bf565b91509150826001600160a01b0316630dfe16816040518163ffffffff1660e01b815260040160206040518083038186803b158015610afd57600080fd5b505afa158015610b11573d6000803e3d6000fd5b505050506040513d601f19601f82011682018060405250810190610b359190611664565b6001600160a01b0316856001600160a01b031614610b4f57905b6001600160a01b03808516908616337fd06b1d7ed79b664d17472c6f6997b929f1abe463ccccb4e5b6a0038f2f730c158585610b8d8b8b8484610c55565b604051610b9c93929190611bb7565b60405180910390a45050505050565b3390565b600080546001600160a01b038381166001600160a01b0319831681178455604051919092169283917f8be0079c531659141344cd1fd0a4f28419497f9722a3daafe3b4186f6b6457e09190a35050565b6107d48363a9059cbb60e01b8484604051602401610c1e929190611858565b60408051601f198184030181529190526020810180516001600160e01b03166001600160e01b0319909316929092179091526110c8565b6000836001600160a01b0316856001600160a01b03161415610db2576000610c7d8385611bcd565b90507f00000000000000000000000000000000000000000000000000000000000000006001600160a01b0316866001600160a01b03161415610d1557610d0d6001600160a01b037f0000000000000000000000000000000000000000000000000000000000000000167f000000000000000000000000000000000000000000000000000000000000000083610bff565b809150610dac565b7f00000000000000000000000000000000000000000000000000000000000000006001600160a01b0316866001600160a01b03161415610d8057610d797f000000000000000000000000000000000000000000000000000000000000000082611157565b9150610dac565b6000610d8b87610571565b9050610d99878284306111ac565b9150610da88182846000610c55565b9250505b506110c0565b7f00000000000000000000000000000000000000000000000000000000000000006001600160a01b0316856001600160a01b03161415610e5c57610e406001600160a01b037f0000000000000000000000000000000000000000000000000000000000000000167f000000000000000000000000000000000000000000000000000000000000000085610bff565b82610e4b8584611157565b610e559190611bcd565b90506110c0565b7f00000000000000000000000000000000000000000000000000000000000000006001600160a01b0316846001600160a01b03161415610ef557610eea6001600160a01b037f0000000000000000000000000000000000000000000000000000000000000000167f000000000000000000000000000000000000000000000000000000000000000084610bff565b81610e4b8685611157565b7f00000000000000000000000000000000000000000000000000000000000000006001600160a01b0316856001600160a01b03161415610f8f57610e557f000000000000000000000000000000000000000000000000000000000000000084610f80877f000000000000000000000000000000000000000000000000000000000000000087306111ac565b610f8a9190611bcd565b611157565b7f00000000000000000000000000000000000000000000000000000000000000006001600160a01b0316846001600160a01b0316141561101a57610e557f000000000000000000000000000000000000000000000000000000000000000083610f80887f000000000000000000000000000000000000000000000000000000000000000088306111ac565b600061102586610571565b9050600061103286610571565b9050856001600160a01b0316826001600160a01b0316141561106c57611065828761105f8a868a306111ac565b87610c55565b92506110bd565b866001600160a01b0316816001600160a01b0316141561109d576110658782876110988a868a306111ac565b610c55565b6110ba82826110ae8a868a306111ac565b6110988a868a306111ac565b92505b50505b949350505050565b600061111d826040518060400160405280602081526020017f5361666545524332303a206c6f772d6c6576656c2063616c6c206661696c6564815250856001600160a01b031661150b9092919063ffffffff16565b8051909150156107d4578080602001905181019061113b9190611721565b6107d45760405162461bcd60e51b81526004016101e390611b36565b60006111a5837f0000000000000000000000000000000000000000000000000000000000000000847f00000000000000000000000000000000000000000000000000000000000000006111ac565b9392505050565b6000807f00000000000000000000000000000000000000000000000000000000000000006001600160a01b031663e6a4390587876040518363ffffffff1660e01b81526004016111fd92919061183e565b60206040518083038186803b15801561121557600080fd5b505afa158015611229573d6000803e3d6000fd5b505050506040513d601f19601f8201168201806040525081019061124d9190611664565b90506001600160a01b0381166112755760405162461bcd60e51b81526004016101e390611aff565b600080826001600160a01b0316630902f1ac6040518163ffffffff1660e01b815260040160606040518083038186803b1580156112b157600080fd5b505afa1580156112c5573d6000803e3d6000fd5b505050506040513d601f19601f820116820180604052508101906112e99190611741565b506001600160701b0391821693501690506000611308876103e5611c2a565b9050836001600160a01b0316630dfe16816040518163ffffffff1660e01b815260040160206040518083038186803b15801561134357600080fd5b505afa158015611357573d6000803e3d6000fd5b505050506040513d601f19601f8201168201806040525081019061137b9190611664565b6001600160a01b0316896001600160a01b0316141561144c5780836113a08483611c2a565b6113aa9190611c0a565b6113b6906103e8611c2a565b6113c09190611bcd565b94506113d66001600160a01b038a168589610bff565b604080516000808252602082019283905263022c0d9f60e01b9092526001600160a01b0386169163022c0d9f91611415919089908b906024810161187c565b600060405180830381600087803b15801561142f57600080fd5b505af1158015611443573d6000803e3d6000fd5b505050506114ff565b80826114588583611c2a565b6114629190611c0a565b61146e906103e8611c2a565b6114789190611bcd565b945061148e6001600160a01b038a168589610bff565b604080516000808252602082019283905263022c0d9f60e01b9092526001600160a01b0386169163022c0d9f916114cc9189918b906024810161187c565b600060405180830381600087803b1580156114e657600080fd5b505af11580156114fa573d6000803e3d6000fd5b505050505b50505050949350505050565b60606110c084846000858561151f856115a9565b61153b5760405162461bcd60e51b81526004016101e390611ac8565b600080866001600160a01b03168587604051611557919061180e565b60006040518083038185875af1925050503d8060008114611594576040519150601f19603f3d011682016040523d82523d6000602084013e611599565b606091505b50915091506110ba8282866115af565b3b151590565b606083156115be5750816111a5565b8251156115ce5782518084602001fd5b8160405162461bcd60e51b81526004016101e391906118b3565b60008083601f8401126115f9578182fd5b50813567ffffffffffffffff811115611610578182fd5b602083019150836020808302850101111561162a57600080fd5b9250929050565b80516001600160701b03811681146105b457600080fd5b600060208284031215611659578081fd5b81356111a581611cca565b600060208284031215611675578081fd5b81516111a581611cca565b60008060408385031215611692578081fd5b823561169d81611cca565b915060208301356116ad81611cca565b809150509250929050565b600080600080604085870312156116cd578182fd5b843567ffffffffffffffff808211156116e4578384fd5b6116f0888389016115e8565b90965094506020870135915080821115611708578384fd5b50611715878288016115e8565b95989497509550505050565b600060208284031215611732578081fd5b815180151581146111a5578182fd5b600080600060608486031215611755578283fd5b61175e84611631565b925061176c60208501611631565b9150604084015163ffffffff81168114611784578182fd5b809150509250925092565b6000602082840312156117a0578081fd5b5035919050565b6000602082840312156117b8578081fd5b5051919050565b600080604083850312156117d1578182fd5b505080516020909101519092909150565b600081518084526117fa816020860160208601611c49565b601f01601f19169290920160200192915050565b60008251611820818460208701611c49565b9190910192915050565b6001600160a01b0391909116815260200190565b6001600160a01b0392831681529116602082015260400190565b6001600160a01b03929092168252602082015260400190565b901515815260200190565b600085825284602083015260018060a01b0384166040830152608060608301526118a960808301846117e2565b9695505050505050565b6000602082526111a560208301846117e2565b60208082526017908201527f536f756c4d616b65723a206d7573742075736520454f41000000000000000000604082015260600190565b60208082526017908201527f536f756c4d616b65723a20496e76616c69642070616972000000000000000000604082015260600190565b60208082526026908201527f4f776e61626c653a206e6577206f776e657220697320746865207a65726f206160408201526564647265737360d01b606082015260800190565b6020808252602a908201527f4f70657261626c653a206e6577206f70657261746f7220697320746865207a65604082015269726f206164647265737360b01b606082015260800190565b60208082526024908201527f4f70657261626c653a2061646472657373206973206e6f7420616e206f70657260408201526330ba37b960e11b606082015260800190565b6020808252818101527f4f776e61626c653a2063616c6c6572206973206e6f7420746865206f776e6572604082015260600190565b60208082526028908201527f4f70657261626c653a206164647265737320697320616c726561647920616e2060408201526737b832b930ba37b960c11b606082015260800190565b60208082526023908201527f4f70657261746f723a2063616c6c6572206973206e6f7420616e206f706572616040820152623a37b960e91b606082015260800190565b6020808252601d908201527f416464726573733a2063616c6c20746f206e6f6e2d636f6e7472616374000000604082015260600190565b60208082526019908201527f536f756c4d616b65723a2043616e6e6f7420636f6e7665727400000000000000604082015260600190565b6020808252602a908201527f5361666545524332303a204552433230206f7065726174696f6e20646964206e6040820152691bdd081cdd58d8d9595960b21b606082015260800190565b60208082526019908201527f536f756c4d616b65723a20496e76616c69642062726964676500000000000000604082015260600190565b9283526020830191909152604082015260600190565b60008219821115611be057611be0611cb4565b500190565b600060ff821660ff84168060ff03821115611c0257611c02611cb4565b019392505050565b600082611c2557634e487b7160e01b81526012600452602481fd5b500490565b6000816000190483118215151615611c4457611c44611cb4565b500290565b60005b83811015611c64578181015183820152602001611c4c565b83811115611c73576000848401525b50505050565b6000600019821415611c8d57611c8d611cb4565b5060010190565b600060ff821660ff811415611cab57611cab611cb4565b60010192915050565b634e487b7160e01b600052601160045260246000fd5b6001600160a01b03811681146108e357600080fdfea2646970667358221220cfb60042fcd0fd730aff2867400dfe7b70bcf525290c1aeb67dba063349ba14964736f6c63430008000033",
    "sourcePath": "/Users/unico/Documents/GitHub/SoulSwap/soulswap-farms/contracts/SoulMaker.sol",
    "compiler": {
        "name": "solc",
        "version": "0.8.0+commit.c7dfd78e"
    },
    "functionHashes": {
        "addOperator(address)": "9870d7fe",
        "bound()": "be4df7d6",
        "bridgeFor(address)": "a761a939",
        "convert(address,address)": "bd1b820c",
        "convertMultiple(address[],address[])": "303e6aa4",
        "factory()": "c45a0155",
        "operator(address)": "9a307391",
        "operators(uint256)": "e28d4906",
        "owner()": "8da5cb5b",
        "removeOperator(address)": "ac8a584a",
        "renounceOwnership()": "715018a6",
        "setBridge(address,address)": "9d22ae8c",
        "transferOwnership(address)": "f2fde38b"
    },
    "gasEstimates": {
        "creation": {
            "codeDepositCost": "1489000",
            "executionCost": "infinite",
            "totalCost": "infinite"
        },
        "external": {
            "addOperator(address)": "66372",
            "bound()": "infinite",
            "bridgeFor(address)": "infinite",
            "convert(address,address)": "infinite",
            "convertMultiple(address[],address[])": "infinite",
            "factory()": "infinite",
            "operator(address)": "1347",
            "operators(uint256)": "2104",
            "owner()": "1115",
            "removeOperator(address)": "infinite",
            "renounceOwnership()": "23527",
            "setBridge(address,address)": "infinite",
            "transferOwnership(address)": "infinite"
        },
        "internal": {
            "_convert(address,address)": "infinite",
            "_convertStep(address,address,uint256,uint256)": "infinite",
            "_swap(address,address,uint256,address)": "infinite",
            "_toSOUL(address,uint256)": "infinite"
        }
    }
}