{
    "contractName": "SoulSummoner",
    "abi": [
        {
            "inputs": [],
            "stateMutability": "nonpayable",
            "type": "constructor"
        },
        {
            "anonymous": false,
            "inputs": [
                {
                    "indexed": false,
                    "internalType": "address",
                    "name": "dao",
                    "type": "address"
                },
                {
                    "indexed": false,
                    "internalType": "address",
                    "name": "team",
                    "type": "address"
                }
            ],
            "name": "AccountsUpdated",
            "type": "event"
        },
        {
            "anonymous": false,
            "inputs": [
                {
                    "indexed": true,
                    "internalType": "address",
                    "name": "user",
                    "type": "address"
                },
                {
                    "indexed": true,
                    "internalType": "uint256",
                    "name": "pid",
                    "type": "uint256"
                },
                {
                    "indexed": false,
                    "internalType": "uint256",
                    "name": "amount",
                    "type": "uint256"
                }
            ],
            "name": "Deposit",
            "type": "event"
        },
        {
            "anonymous": false,
            "inputs": [
                {
                    "indexed": false,
                    "internalType": "uint256",
                    "name": "_pid",
                    "type": "uint256"
                },
                {
                    "indexed": false,
                    "internalType": "address",
                    "name": "_user",
                    "type": "address"
                },
                {
                    "indexed": false,
                    "internalType": "uint256",
                    "name": "_time",
                    "type": "uint256"
                }
            ],
            "name": "DepositRevised",
            "type": "event"
        },
        {
            "anonymous": false,
            "inputs": [
                {
                    "indexed": false,
                    "internalType": "address",
                    "name": "team",
                    "type": "address"
                },
                {
                    "indexed": false,
                    "internalType": "address",
                    "name": "dao",
                    "type": "address"
                },
                {
                    "indexed": false,
                    "internalType": "address",
                    "name": "soul",
                    "type": "address"
                },
                {
                    "indexed": false,
                    "internalType": "address",
                    "name": "seance",
                    "type": "address"
                },
                {
                    "indexed": false,
                    "internalType": "uint256",
                    "name": "totalAllocPoint",
                    "type": "uint256"
                },
                {
                    "indexed": false,
                    "internalType": "uint256",
                    "name": "weight",
                    "type": "uint256"
                }
            ],
            "name": "Initialized",
            "type": "event"
        },
        {
            "anonymous": false,
            "inputs": [
                {
                    "indexed": true,
                    "internalType": "address",
                    "name": "previousOwner",
                    "type": "address"
                },
                {
                    "indexed": true,
                    "internalType": "address",
                    "name": "newOwner",
                    "type": "address"
                }
            ],
            "name": "OwnershipTransferred",
            "type": "event"
        },
        {
            "anonymous": false,
            "inputs": [
                {
                    "indexed": false,
                    "internalType": "address",
                    "name": "account",
                    "type": "address"
                }
            ],
            "name": "Paused",
            "type": "event"
        },
        {
            "anonymous": false,
            "inputs": [
                {
                    "indexed": false,
                    "internalType": "uint256",
                    "name": "pid",
                    "type": "uint256"
                },
                {
                    "indexed": false,
                    "internalType": "uint256",
                    "name": "allocPoint",
                    "type": "uint256"
                },
                {
                    "indexed": false,
                    "internalType": "contract IERC20",
                    "name": "lpToken",
                    "type": "address"
                },
                {
                    "indexed": false,
                    "internalType": "uint256",
                    "name": "totalAllocPoint",
                    "type": "uint256"
                }
            ],
            "name": "PoolAdded",
            "type": "event"
        },
        {
            "anonymous": false,
            "inputs": [
                {
                    "indexed": false,
                    "internalType": "uint256",
                    "name": "pid",
                    "type": "uint256"
                },
                {
                    "indexed": false,
                    "internalType": "uint256",
                    "name": "allocPoint",
                    "type": "uint256"
                }
            ],
            "name": "PoolSet",
            "type": "event"
        },
        {
            "anonymous": false,
            "inputs": [
                {
                    "indexed": false,
                    "internalType": "uint256",
                    "name": "dailySoul",
                    "type": "uint256"
                },
                {
                    "indexed": false,
                    "internalType": "uint256",
                    "name": "soulPerSecond",
                    "type": "uint256"
                }
            ],
            "name": "RewardsUpdated",
            "type": "event"
        },
        {
            "anonymous": false,
            "inputs": [
                {
                    "indexed": true,
                    "internalType": "bytes32",
                    "name": "role",
                    "type": "bytes32"
                },
                {
                    "indexed": true,
                    "internalType": "bytes32",
                    "name": "previousAdminRole",
                    "type": "bytes32"
                },
                {
                    "indexed": true,
                    "internalType": "bytes32",
                    "name": "newAdminRole",
                    "type": "bytes32"
                }
            ],
            "name": "RoleAdminChanged",
            "type": "event"
        },
        {
            "anonymous": false,
            "inputs": [
                {
                    "indexed": false,
                    "internalType": "bytes32",
                    "name": "role",
                    "type": "bytes32"
                },
                {
                    "indexed": false,
                    "internalType": "bytes32",
                    "name": "supreme",
                    "type": "bytes32"
                }
            ],
            "name": "RoleDivinated",
            "type": "event"
        },
        {
            "anonymous": false,
            "inputs": [
                {
                    "indexed": true,
                    "internalType": "bytes32",
                    "name": "role",
                    "type": "bytes32"
                },
                {
                    "indexed": true,
                    "internalType": "address",
                    "name": "account",
                    "type": "address"
                },
                {
                    "indexed": true,
                    "internalType": "address",
                    "name": "sender",
                    "type": "address"
                }
            ],
            "name": "RoleGranted",
            "type": "event"
        },
        {
            "anonymous": false,
            "inputs": [
                {
                    "indexed": true,
                    "internalType": "bytes32",
                    "name": "role",
                    "type": "bytes32"
                },
                {
                    "indexed": true,
                    "internalType": "address",
                    "name": "account",
                    "type": "address"
                },
                {
                    "indexed": true,
                    "internalType": "address",
                    "name": "sender",
                    "type": "address"
                }
            ],
            "name": "RoleRevoked",
            "type": "event"
        },
        {
            "anonymous": false,
            "inputs": [
                {
                    "indexed": false,
                    "internalType": "uint256",
                    "name": "startRate",
                    "type": "uint256"
                }
            ],
            "name": "StartRateUpdated",
            "type": "event"
        },
        {
            "anonymous": false,
            "inputs": [
                {
                    "indexed": false,
                    "internalType": "address",
                    "name": "soul",
                    "type": "address"
                },
                {
                    "indexed": false,
                    "internalType": "address",
                    "name": "seance",
                    "type": "address"
                }
            ],
            "name": "TokensUpdated",
            "type": "event"
        },
        {
            "anonymous": false,
            "inputs": [
                {
                    "indexed": false,
                    "internalType": "address",
                    "name": "account",
                    "type": "address"
                }
            ],
            "name": "Unpaused",
            "type": "event"
        },
        {
            "anonymous": false,
            "inputs": [
                {
                    "indexed": false,
                    "internalType": "uint256",
                    "name": "weight",
                    "type": "uint256"
                },
                {
                    "indexed": false,
                    "internalType": "uint256",
                    "name": "totalWeight",
                    "type": "uint256"
                }
            ],
            "name": "WeightUpdated",
            "type": "event"
        },
        {
            "anonymous": false,
            "inputs": [
                {
                    "indexed": true,
                    "internalType": "address",
                    "name": "user",
                    "type": "address"
                },
                {
                    "indexed": true,
                    "internalType": "uint256",
                    "name": "pid",
                    "type": "uint256"
                },
                {
                    "indexed": false,
                    "internalType": "uint256",
                    "name": "amount",
                    "type": "uint256"
                },
                {
                    "indexed": false,
                    "internalType": "uint256",
                    "name": "timeStamp",
                    "type": "uint256"
                }
            ],
            "name": "Withdraw",
            "type": "event"
        },
        {
            "inputs": [],
            "name": "DEFAULT_ADMIN_ROLE",
            "outputs": [
                {
                    "internalType": "bytes32",
                    "name": "",
                    "type": "bytes32"
                }
            ],
            "stateMutability": "view",
            "type": "function"
        },
        {
            "inputs": [
                {
                    "internalType": "uint256",
                    "name": "_allocPoint",
                    "type": "uint256"
                },
                {
                    "internalType": "contract IERC20",
                    "name": "_lpToken",
                    "type": "address"
                },
                {
                    "internalType": "bool",
                    "name": "_withUpdate",
                    "type": "bool"
                }
            ],
            "name": "addPool",
            "outputs": [],
            "stateMutability": "nonpayable",
            "type": "function"
        },
        {
            "inputs": [],
            "name": "bonusMultiplier",
            "outputs": [
                {
                    "internalType": "uint256",
                    "name": "",
                    "type": "uint256"
                }
            ],
            "stateMutability": "view",
            "type": "function"
        },
        {
            "inputs": [],
            "name": "dailyDecay",
            "outputs": [
                {
                    "internalType": "uint256",
                    "name": "",
                    "type": "uint256"
                }
            ],
            "stateMutability": "view",
            "type": "function"
        },
        {
            "inputs": [],
            "name": "dailySoul",
            "outputs": [
                {
                    "internalType": "uint256",
                    "name": "",
                    "type": "uint256"
                }
            ],
            "stateMutability": "view",
            "type": "function"
        },
        {
            "inputs": [],
            "name": "dao",
            "outputs": [
                {
                    "internalType": "address",
                    "name": "",
                    "type": "address"
                }
            ],
            "stateMutability": "view",
            "type": "function"
        },
        {
            "inputs": [
                {
                    "internalType": "uint256",
                    "name": "pid",
                    "type": "uint256"
                },
                {
                    "internalType": "uint256",
                    "name": "amount",
                    "type": "uint256"
                }
            ],
            "name": "deposit",
            "outputs": [],
            "stateMutability": "nonpayable",
            "type": "function"
        },
        {
            "inputs": [
                {
                    "internalType": "uint256",
                    "name": "amount",
                    "type": "uint256"
                }
            ],
            "name": "enWei",
            "outputs": [
                {
                    "internalType": "uint256",
                    "name": "",
                    "type": "uint256"
                }
            ],
            "stateMutability": "pure",
            "type": "function"
        },
        {
            "inputs": [
                {
                    "internalType": "uint256",
                    "name": "amount",
                    "type": "uint256"
                }
            ],
            "name": "enterStaking",
            "outputs": [],
            "stateMutability": "nonpayable",
            "type": "function"
        },
        {
            "inputs": [
                {
                    "internalType": "uint256",
                    "name": "amount",
                    "type": "uint256"
                }
            ],
            "name": "fromWei",
            "outputs": [
                {
                    "internalType": "uint256",
                    "name": "",
                    "type": "uint256"
                }
            ],
            "stateMutability": "pure",
            "type": "function"
        },
        {
            "inputs": [
                {
                    "internalType": "uint256",
                    "name": "pid",
                    "type": "uint256"
                },
                {
                    "internalType": "uint256",
                    "name": "timeDelta",
                    "type": "uint256"
                }
            ],
            "name": "getFeeRate",
            "outputs": [
                {
                    "internalType": "uint256",
                    "name": "feeRate",
                    "type": "uint256"
                }
            ],
            "stateMutability": "view",
            "type": "function"
        },
        {
            "inputs": [
                {
                    "internalType": "uint256",
                    "name": "from",
                    "type": "uint256"
                },
                {
                    "internalType": "uint256",
                    "name": "to",
                    "type": "uint256"
                }
            ],
            "name": "getMultiplier",
            "outputs": [
                {
                    "internalType": "uint256",
                    "name": "",
                    "type": "uint256"
                }
            ],
            "stateMutability": "view",
            "type": "function"
        },
        {
            "inputs": [
                {
                    "internalType": "bytes32",
                    "name": "role",
                    "type": "bytes32"
                }
            ],
            "name": "getRoleAdmin",
            "outputs": [
                {
                    "internalType": "bytes32",
                    "name": "",
                    "type": "bytes32"
                }
            ],
            "stateMutability": "view",
            "type": "function"
        },
        {
            "inputs": [
                {
                    "internalType": "uint256",
                    "name": "pid",
                    "type": "uint256"
                },
                {
                    "internalType": "uint256",
                    "name": "timeDelta",
                    "type": "uint256"
                },
                {
                    "internalType": "uint256",
                    "name": "amount",
                    "type": "uint256"
                }
            ],
            "name": "getWithdrawable",
            "outputs": [
                {
                    "internalType": "uint256",
                    "name": "_feeAmount",
                    "type": "uint256"
                },
                {
                    "internalType": "uint256",
                    "name": "_withdrawable",
                    "type": "uint256"
                }
            ],
            "stateMutability": "view",
            "type": "function"
        },
        {
            "inputs": [
                {
                    "internalType": "bytes32",
                    "name": "role",
                    "type": "bytes32"
                },
                {
                    "internalType": "address",
                    "name": "account",
                    "type": "address"
                }
            ],
            "name": "grantRole",
            "outputs": [],
            "stateMutability": "nonpayable",
            "type": "function"
        },
        {
            "inputs": [
                {
                    "internalType": "bytes32",
                    "name": "role",
                    "type": "bytes32"
                },
                {
                    "internalType": "address",
                    "name": "account",
                    "type": "address"
                }
            ],
            "name": "hasRole",
            "outputs": [
                {
                    "internalType": "bool",
                    "name": "",
                    "type": "bool"
                }
            ],
            "stateMutability": "view",
            "type": "function"
        },
        {
            "inputs": [
                {
                    "internalType": "address",
                    "name": "_soulAddress",
                    "type": "address"
                },
                {
                    "internalType": "address",
                    "name": "_seanceAddress",
                    "type": "address"
                },
                {
                    "internalType": "uint256",
                    "name": "_totalWeight",
                    "type": "uint256"
                },
                {
                    "internalType": "uint256",
                    "name": "_weight",
                    "type": "uint256"
                },
                {
                    "internalType": "uint256",
                    "name": "_stakingAlloc",
                    "type": "uint256"
                },
                {
                    "internalType": "uint256",
                    "name": "_startRate",
                    "type": "uint256"
                }
            ],
            "name": "initialize",
            "outputs": [],
            "stateMutability": "nonpayable",
            "type": "function"
        },
        {
            "inputs": [],
            "name": "isInitialized",
            "outputs": [
                {
                    "internalType": "bool",
                    "name": "",
                    "type": "bool"
                }
            ],
            "stateMutability": "view",
            "type": "function"
        },
        {
            "inputs": [],
            "name": "isis",
            "outputs": [
                {
                    "internalType": "bytes32",
                    "name": "",
                    "type": "bytes32"
                }
            ],
            "stateMutability": "view",
            "type": "function"
        },
        {
            "inputs": [
                {
                    "internalType": "uint256",
                    "name": "amount",
                    "type": "uint256"
                }
            ],
            "name": "leaveStaking",
            "outputs": [],
            "stateMutability": "nonpayable",
            "type": "function"
        },
        {
            "inputs": [],
            "name": "maat",
            "outputs": [
                {
                    "internalType": "bytes32",
                    "name": "",
                    "type": "bytes32"
                }
            ],
            "stateMutability": "view",
            "type": "function"
        },
        {
            "inputs": [],
            "name": "massUpdatePools",
            "outputs": [],
            "stateMutability": "nonpayable",
            "type": "function"
        },
        {
            "inputs": [
                {
                    "internalType": "uint256",
                    "name": "pid",
                    "type": "uint256"
                }
            ],
            "name": "migrate",
            "outputs": [],
            "stateMutability": "nonpayable",
            "type": "function"
        },
        {
            "inputs": [],
            "name": "migrator",
            "outputs": [
                {
                    "internalType": "contract IMigrator",
                    "name": "",
                    "type": "address"
                }
            ],
            "stateMutability": "view",
            "type": "function"
        },
        {
            "inputs": [],
            "name": "owner",
            "outputs": [
                {
                    "internalType": "address",
                    "name": "",
                    "type": "address"
                }
            ],
            "stateMutability": "view",
            "type": "function"
        },
        {
            "inputs": [],
            "name": "paused",
            "outputs": [
                {
                    "internalType": "bool",
                    "name": "",
                    "type": "bool"
                }
            ],
            "stateMutability": "view",
            "type": "function"
        },
        {
            "inputs": [
                {
                    "internalType": "uint256",
                    "name": "pid",
                    "type": "uint256"
                },
                {
                    "internalType": "address",
                    "name": "_user",
                    "type": "address"
                }
            ],
            "name": "pendingSoul",
            "outputs": [
                {
                    "internalType": "uint256",
                    "name": "pendingAmount",
                    "type": "uint256"
                }
            ],
            "stateMutability": "view",
            "type": "function"
        },
        {
            "inputs": [
                {
                    "internalType": "uint256",
                    "name": "",
                    "type": "uint256"
                }
            ],
            "name": "poolInfo",
            "outputs": [
                {
                    "internalType": "contract IERC20",
                    "name": "lpToken",
                    "type": "address"
                },
                {
                    "internalType": "uint256",
                    "name": "allocPoint",
                    "type": "uint256"
                },
                {
                    "internalType": "uint256",
                    "name": "lastRewardTime",
                    "type": "uint256"
                },
                {
                    "internalType": "uint256",
                    "name": "accSoulPerShare",
                    "type": "uint256"
                }
            ],
            "stateMutability": "view",
            "type": "function"
        },
        {
            "inputs": [],
            "name": "poolLength",
            "outputs": [
                {
                    "internalType": "uint256",
                    "name": "",
                    "type": "uint256"
                }
            ],
            "stateMutability": "view",
            "type": "function"
        },
        {
            "inputs": [],
            "name": "renounceOwnership",
            "outputs": [],
            "stateMutability": "nonpayable",
            "type": "function"
        },
        {
            "inputs": [
                {
                    "internalType": "bytes32",
                    "name": "role",
                    "type": "bytes32"
                },
                {
                    "internalType": "address",
                    "name": "account",
                    "type": "address"
                }
            ],
            "name": "renounceRole",
            "outputs": [],
            "stateMutability": "nonpayable",
            "type": "function"
        },
        {
            "inputs": [
                {
                    "internalType": "uint256",
                    "name": "_pid",
                    "type": "uint256"
                },
                {
                    "internalType": "address",
                    "name": "_user",
                    "type": "address"
                },
                {
                    "internalType": "uint256",
                    "name": "_time",
                    "type": "uint256"
                }
            ],
            "name": "reviseDeposit",
            "outputs": [],
            "stateMutability": "nonpayable",
            "type": "function"
        },
        {
            "inputs": [
                {
                    "internalType": "bytes32",
                    "name": "role",
                    "type": "bytes32"
                },
                {
                    "internalType": "address",
                    "name": "account",
                    "type": "address"
                }
            ],
            "name": "revokeRole",
            "outputs": [],
            "stateMutability": "nonpayable",
            "type": "function"
        },
        {
            "inputs": [],
            "name": "seance",
            "outputs": [
                {
                    "internalType": "contract SeanceCircle",
                    "name": "",
                    "type": "address"
                }
            ],
            "stateMutability": "view",
            "type": "function"
        },
        {
            "inputs": [
                {
                    "internalType": "uint256",
                    "name": "pid",
                    "type": "uint256"
                },
                {
                    "internalType": "uint256",
                    "name": "allocPoint",
                    "type": "uint256"
                },
                {
                    "internalType": "bool",
                    "name": "withUpdate",
                    "type": "bool"
                }
            ],
            "name": "set",
            "outputs": [],
            "stateMutability": "nonpayable",
            "type": "function"
        },
        {
            "inputs": [
                {
                    "internalType": "contract IMigrator",
                    "name": "_migrator",
                    "type": "address"
                }
            ],
            "name": "setMigrator",
            "outputs": [],
            "stateMutability": "nonpayable",
            "type": "function"
        },
        {
            "inputs": [],
            "name": "soul",
            "outputs": [
                {
                    "internalType": "contract SoulPower",
                    "name": "",
                    "type": "address"
                }
            ],
            "stateMutability": "view",
            "type": "function"
        },
        {
            "inputs": [],
            "name": "soulPerSecond",
            "outputs": [
                {
                    "internalType": "uint256",
                    "name": "",
                    "type": "uint256"
                }
            ],
            "stateMutability": "view",
            "type": "function"
        },
        {
            "inputs": [],
            "name": "startRate",
            "outputs": [
                {
                    "internalType": "uint256",
                    "name": "",
                    "type": "uint256"
                }
            ],
            "stateMutability": "view",
            "type": "function"
        },
        {
            "inputs": [],
            "name": "startTime",
            "outputs": [
                {
                    "internalType": "uint256",
                    "name": "",
                    "type": "uint256"
                }
            ],
            "stateMutability": "view",
            "type": "function"
        },
        {
            "inputs": [
                {
                    "internalType": "bytes4",
                    "name": "interfaceId",
                    "type": "bytes4"
                }
            ],
            "name": "supportsInterface",
            "outputs": [
                {
                    "internalType": "bool",
                    "name": "",
                    "type": "bool"
                }
            ],
            "stateMutability": "view",
            "type": "function"
        },
        {
            "inputs": [],
            "name": "team",
            "outputs": [
                {
                    "internalType": "address",
                    "name": "",
                    "type": "address"
                }
            ],
            "stateMutability": "view",
            "type": "function"
        },
        {
            "inputs": [],
            "name": "totalAllocPoint",
            "outputs": [
                {
                    "internalType": "uint256",
                    "name": "",
                    "type": "uint256"
                }
            ],
            "stateMutability": "view",
            "type": "function"
        },
        {
            "inputs": [],
            "name": "totalWeight",
            "outputs": [
                {
                    "internalType": "uint256",
                    "name": "",
                    "type": "uint256"
                }
            ],
            "stateMutability": "view",
            "type": "function"
        },
        {
            "inputs": [
                {
                    "internalType": "address",
                    "name": "newOwner",
                    "type": "address"
                }
            ],
            "name": "transferOwnership",
            "outputs": [],
            "stateMutability": "nonpayable",
            "type": "function"
        },
        {
            "inputs": [
                {
                    "internalType": "address",
                    "name": "_dao",
                    "type": "address"
                },
                {
                    "internalType": "address",
                    "name": "_team",
                    "type": "address"
                }
            ],
            "name": "updateAccounts",
            "outputs": [],
            "stateMutability": "nonpayable",
            "type": "function"
        },
        {
            "inputs": [
                {
                    "internalType": "uint256",
                    "name": "_bonusMultiplier",
                    "type": "uint256"
                }
            ],
            "name": "updateMultiplier",
            "outputs": [],
            "stateMutability": "nonpayable",
            "type": "function"
        },
        {
            "inputs": [
                {
                    "internalType": "uint256",
                    "name": "pid",
                    "type": "uint256"
                }
            ],
            "name": "updatePool",
            "outputs": [],
            "stateMutability": "nonpayable",
            "type": "function"
        },
        {
            "inputs": [
                {
                    "internalType": "uint256",
                    "name": "_startRate",
                    "type": "uint256"
                }
            ],
            "name": "updateStartRate",
            "outputs": [],
            "stateMutability": "nonpayable",
            "type": "function"
        },
        {
            "inputs": [
                {
                    "internalType": "address",
                    "name": "_soul",
                    "type": "address"
                },
                {
                    "internalType": "address",
                    "name": "_seance",
                    "type": "address"
                }
            ],
            "name": "updateTokens",
            "outputs": [],
            "stateMutability": "nonpayable",
            "type": "function"
        },
        {
            "inputs": [
                {
                    "internalType": "uint256",
                    "name": "_weight",
                    "type": "uint256"
                },
                {
                    "internalType": "uint256",
                    "name": "_totalWeight",
                    "type": "uint256"
                }
            ],
            "name": "updateWeights",
            "outputs": [],
            "stateMutability": "nonpayable",
            "type": "function"
        },
        {
            "inputs": [
                {
                    "internalType": "uint256",
                    "name": "_pid",
                    "type": "uint256"
                },
                {
                    "internalType": "address",
                    "name": "_user",
                    "type": "address"
                }
            ],
            "name": "userDelta",
            "outputs": [
                {
                    "internalType": "uint256",
                    "name": "delta",
                    "type": "uint256"
                }
            ],
            "stateMutability": "view",
            "type": "function"
        },
        {
            "inputs": [
                {
                    "internalType": "uint256",
                    "name": "",
                    "type": "uint256"
                },
                {
                    "internalType": "address",
                    "name": "",
                    "type": "address"
                }
            ],
            "name": "userInfo",
            "outputs": [
                {
                    "internalType": "uint256",
                    "name": "amount",
                    "type": "uint256"
                },
                {
                    "internalType": "uint256",
                    "name": "rewardDebt",
                    "type": "uint256"
                },
                {
                    "internalType": "uint256",
                    "name": "rewardDebtAtTime",
                    "type": "uint256"
                },
                {
                    "internalType": "uint256",
                    "name": "lastWithdrawTime",
                    "type": "uint256"
                },
                {
                    "internalType": "uint256",
                    "name": "firstDepositTime",
                    "type": "uint256"
                },
                {
                    "internalType": "uint256",
                    "name": "timeDelta",
                    "type": "uint256"
                },
                {
                    "internalType": "uint256",
                    "name": "lastDepositTime",
                    "type": "uint256"
                }
            ],
            "stateMutability": "view",
            "type": "function"
        },
        {
            "inputs": [],
            "name": "weight",
            "outputs": [
                {
                    "internalType": "uint256",
                    "name": "",
                    "type": "uint256"
                }
            ],
            "stateMutability": "view",
            "type": "function"
        },
        {
            "inputs": [
                {
                    "internalType": "uint256",
                    "name": "pid",
                    "type": "uint256"
                },
                {
                    "internalType": "uint256",
                    "name": "amount",
                    "type": "uint256"
                }
            ],
            "name": "withdraw",
            "outputs": [],
            "stateMutability": "nonpayable",
            "type": "function"
        }
    ],
    "bytecode": "60a06040526001600e556200001b60016200011760201b60201c565b6080523480156200002b57600080fd5b50620000406200003a62000133565b62000137565b6001805460ff60a01b1916815560025560078054336001600160a01b0319918216811792839055600880549092161790557f36d5d8406f8379c6deba01145ec4f6a2966675cc67d71355b397a2a8e3572b296015557f0811b25c145e1379dc78112dd91057f09150f6db05dfd7e04deb910e6cefd4b7601655620000d29060009081906001600160a01b031662000189565b50601554600754620000f0919081906001600160a01b031662000189565b50601654601554600854620001109291906001600160a01b031662000189565b5062000306565b60006200012d82670de0b6b3a7640000620002da565b92915050565b3390565b600180546001600160a01b038381166001600160a01b0319831681179093556040519116919082907f8be0079c531659141344cd1fd0a4f28419497f9722a3daafe3b4186f6b6457e090600090a35050565b6000620001978483620001ad565b620001a38484620001bd565b5060019392505050565b620001b9828262000212565b5050565b6000620001ca836200029c565b600084815260208190526040808220600101859055519192508391839186917fbd79b86ffe0ab8e8776151514217cd7cacd52c909f66475c3af44e129f0b00ff9190a4505050565b6200021e8282620002b1565b620001b9576000828152602081815260408083206001600160a01b03851684529091529020805460ff191660011790556200025862000133565b6001600160a01b0316816001600160a01b0316837f2f8788117e7eff1d82e926ec794901d17c78024a50270940304540a733656f0d60405160405180910390a45050565b60009081526020819052604090206001015490565b6000918252602082815260408084206001600160a01b0393909316845291905290205460ff1690565b60008160001904831182151516156200030157634e487b7160e01b81526011600452602481fd5b500290565b6080516135cd62000322600039600061250c01526135cd6000f3fe608060405234801561001057600080fd5b506004361061035d5760003560e01c80637d500ec8116101d3578063a8b973a111610104578063e7aa29e3116100a2578063f2fde38b1161007c578063f2fde38b146106a7578063fb39d1e3146106ba578063fc90fdc0146106cd578063fd6f99d0146106d55761035d565b8063e7aa29e314610679578063ea4bf4461461068c578063f107fd85146106945761035d565b8063d547741f116100de578063d547741f1461062d578063e13e8ec214610640578063e2bbb15814610653578063e65d1522146106665761035d565b8063a8b973a1146105ff578063bfafcad514610607578063cf94ee961461061a5761035d565b80638dbb1e3a1161017157806396c82e571161014b57806396c82e57146105d45780639f6c5426146105dc578063a1aab33f146105ef578063a217fddf146105f75761035d565b80638dbb1e3a1461058857806391d148541461059b57806393f1a40b146105ae5761035d565b806382386d58116101ad57806382386d581461055257806385f2aef21461056557806386489ba91461056d5780638da5cb5b146105805761035d565b80637d500ec8146105215780637e668b4214610529578063815b7a8c1461054a5761035d565b8063441a3e70116102ad5780635ffe61461161024b578063715018a611610225578063715018a6146104f657806378e97925146104fe5780637abceffd146105065780637cd07e47146105195761035d565b80635ffe6146146104c8578063630b5ba1146104db57806364482f79146104e35761035d565b80634ca01d45116102875780634ca01d451461049d57806351eb05a6146104a55780635c975abb146104b85780635f9bf689146104c05761035d565b8063441a3e7014610464578063454b0608146104775780634a9628291461048a5761035d565b806323cf31181161031a57806336568abe116102f457806336568abe14610421578063392e53cd1461043457806341441d3b1461043c5780634162169f1461044f5761035d565b806323cf3118146103e8578063248a9ca3146103fb5780632f2ff15d1461040e5761035d565b806301ffc9a714610362578063081e3eda1461038b5780631058d281146103a05780631254f0dc146103b55780631526fe27146103bd57806317caf6f1146103e0575b600080fd5b610375610370366004612d2c565b6106dd565b6040516103829190612f93565b60405180910390f35b610393610708565b6040516103829190612f9e565b6103b36103ae366004612cf0565b61070e565b005b610393610990565b6103d06103cb366004612cf0565b610996565b6040516103829493929190612fa7565b6103936109da565b6103b36103f6366004612c28565b6109e0565b610393610409366004612cf0565b610a39565b6103b361041c366004612d08565b610a4e565b6103b361042f366004612d08565b610a72565b610375610ab8565b6103b361044a366004612cf0565b610ac1565b610457610d57565b6040516103829190612eee565b6103b3610472366004612e00565b610d66565b6103b3610485366004612cf0565b611098565b6103b3610498366004612cf0565b611382565b6104576113f0565b6103b36104b3366004612cf0565b6113ff565b6103756116fa565b61039361170a565b6103b36104d6366004612cf0565b611710565b6103b3611725565b6103b36104f1366004612e21565b61174c565b6103b3611888565b6103936118d3565b6103b3610514366004612dbf565b6118d9565b610457611924565b610393611933565b61053c610537366004612e4e565b611939565b604051610382929190613430565b610457611982565b6103b3610560366004612d88565b611991565b610457611a0d565b6103b361057b366004612c7c565b611a1c565b610457611c6a565b610393610596366004612e00565b611c79565b6103756105a9366004612d08565b611c9a565b6105c16105bc366004612d08565b611cc3565b6040516103829796959493929190613462565b610393611d12565b6103936105ea366004612e00565b611d18565b610393611d86565b610393611d8c565b610393611d91565b610393610615366004612d08565b611d97565b610393610628366004612cf0565b611f28565b6103b361063b366004612d08565b611f3c565b6103b361064e366004612c44565b611f5b565b6103b3610661366004612e00565b612023565b610393610674366004612cf0565b612280565b6103b3610687366004612c44565b612294565b61039361234c565b6103b36106a2366004612e00565b612352565b6103b36106b5366004612c28565b6123f9565b6103936106c8366004612d08565b61246a565b61039361250a565b61039361252e565b60006001600160e01b03198216637965db0b60e01b1480610702575061070282612534565b92915050565b60135490565b6002805414156107395760405162461bcd60e51b8152600401610730906132e8565b60405180910390fd5b600280819055506000601360008154811061076457634e487b7160e01b600052603260045260246000fd5b600091825260208083203384527f4f26c3876aa9f4b92579780beea1161a61f87ebf1ec6ee865b299e447ecba99c90915260409092208054600490920290920192508311156107c55760405162461bcd60e51b815260040161073090613268565b6107cf60006113ff565b6000816001015464e8d4a51000846003015484600001546107f091906134ca565b6107fa91906134aa565b61080491906134e9565b9050801561081657610816338261254d565b83156108b05781546108299085906134e9565b8255825460405163a9059cbb60e01b81526001600160a01b039091169063a9059cbb9061085c9033908890600401612f7a565b602060405180830381600087803b15801561087657600080fd5b505af115801561088a573d6000803e3d6000fd5b505050506040513d601f19601f820116820180604052508101906108ae9190612cd4565b505b6003830154825464e8d4a51000916108c7916134ca565b6108d191906134aa565b6001830155426003830155600654604051632770a7eb60e21b81526001600160a01b0390911690639dc29fac9061090e9033908890600401612f7a565b600060405180830381600087803b15801561092857600080fd5b505af115801561093c573d6000803e3d6000fd5b505050506000336001600160a01b03167f02f25270a4d87bea75db541cdfe559334a275b4a233520ed6c0a2429667cca94864260405161097d929190613430565b60405180910390a3505060016002555050565b60125481565b601381815481106109a657600080fd5b600091825260209091206004909102018054600182015460028301546003909301546001600160a01b039092169350919084565b60105481565b60115460ff16610a025760405162461bcd60e51b8152600401610730906133a5565b601554610a1681610a116125b5565b6125b9565b50600980546001600160a01b0319166001600160a01b0392909216919091179055565b60009081526020819052604090206001015490565b610a5782610a39565b610a6381610a116125b5565b610a6d838361261d565b505050565b610a7a6125b5565b6001600160a01b0316816001600160a01b031614610aaa5760405162461bcd60e51b81526004016107309061331f565b610ab482826126a2565b5050565b60115460ff1681565b600280541415610ae35760405162461bcd60e51b8152600401610730906132e8565b60028055610aef6116fa565b15610b0c5760405162461bcd60e51b8152600401610730906130b2565b60006013600081548110610b3057634e487b7160e01b600052603260045260246000fd5b600091825260208083203384527f4f26c3876aa9f4b92579780beea1161a61f87ebf1ec6ee865b299e447ecba99c90915260408320600490920201925090610b77906113ff565b805415610bc7576000816001015464e8d4a5100084600301548460000154610b9f91906134ca565b610ba991906134aa565b610bb391906134e9565b90508015610bc557610bc5338261254d565b505b8215610c635781546040516323b872dd60e01b81526001600160a01b03909116906323b872dd90610c0090339030908890600401612f56565b602060405180830381600087803b158015610c1a57600080fd5b505af1158015610c2e573d6000803e3d6000fd5b505050506040513d601f19601f82011682018060405250810190610c529190612cd4565b508054610c60908490613492565b81555b6000816004015411610c755742610c7b565b80600401545b60048201556003820154815464e8d4a5100091610c97916134ca565b610ca191906134aa565b60018201556006546040516340c10f1960e01b81526001600160a01b03909116906340c10f1990610cd89033908790600401612f7a565b600060405180830381600087803b158015610cf257600080fd5b505af1158015610d06573d6000803e3d6000fd5b505050506000336001600160a01b03167f90890809c654f11d6e72a28fa60149770a0d11ec6c92319d6ceb2bb0a4ea1a1585604051610d459190612f9e565b60405180910390a35050600160025550565b6008546001600160a01b031681565b600280541415610d885760405162461bcd60e51b8152600401610730906132e8565b6002805560135482908110610daf5760405162461bcd60e51b81526004016107309061323b565b82610dcc5760405162461bcd60e51b815260040161073090613132565b600060138481548110610def57634e487b7160e01b600052603260045260246000fd5b600091825260208083208784526014825260408085203386529092529220805460049092029092019250841115610e385760405162461bcd60e51b815260040161073090613294565b610e41856113ff565b6000816001015464e8d4a5100084600301548460000154610e6291906134ca565b610e6c91906134aa565b610e7691906134e9565b90508015610e8857610e88338261254d565b8415610ed657600682015415610eb1576006820154610ea790426134e9565b6005830155610ec6565b6004820154610ec090426134e9565b60058301555b8154610ed39086906134e9565b82555b600086815260146020908152604080832033845290915281206005015490610eff888389611939565b915060009050610f0f82896134e9565b865460085460405163a9059cbb60e01b81529293506001600160a01b039182169263a9059cbb92610f469216908590600401612f7a565b602060405180830381600087803b158015610f6057600080fd5b505af1158015610f74573d6000803e3d6000fd5b505050506040513d601f19601f82011682018060405250810190610f989190612cd4565b50855460405163a9059cbb60e01b81526001600160a01b039091169063a9059cbb90610fca9033908690600401612f7a565b602060405180830381600087803b158015610fe457600080fd5b505af1158015610ff8573d6000803e3d6000fd5b505050506040513d601f19601f8201168201806040525081019061101c9190612cd4565b506003860154855464e8d4a5100091611034916134ca565b61103e91906134aa565b600186015542600386018190556040518a9133917f02f25270a4d87bea75db541cdfe559334a275b4a233520ed6c0a2429667cca9491611080918d9190613430565b60405180910390a35050600160025550505050505050565b60115460ff166110ba5760405162461bcd60e51b8152600401610730906133a5565b601354819081106110dd5760405162461bcd60e51b81526004016107309061323b565b6009546001600160a01b03166111055760405162461bcd60e51b815260040161073090613109565b60006013838154811061112857634e487b7160e01b600052603260045260246000fd5b60009182526020822060049182020180546040516370a0823160e01b81529194506001600160a01b0316929183916370a082319161116891309101612eee565b60206040518083038186803b15801561118057600080fd5b505afa158015611194573d6000803e3d6000fd5b505050506040513d601f19601f820116820180604052508101906111b89190612d70565b60095460405163095ea7b360e01b81529192506001600160a01b038085169263095ea7b3926111ed9216908590600401612f7a565b602060405180830381600087803b15801561120757600080fd5b505af115801561121b573d6000803e3d6000fd5b505050506040513d601f19601f8201168201806040525081019061123f9190612cd4565b5060095460405163ce5494bb60e01b81526000916001600160a01b03169063ce5494bb90611271908690600401612eee565b602060405180830381600087803b15801561128b57600080fd5b505af115801561129f573d6000803e3d6000fd5b505050506040513d601f19601f820116820180604052508101906112c39190612d54565b6040516370a0823160e01b81529091506001600160a01b038216906370a08231906112f2903090600401612eee565b60206040518083038186803b15801561130a57600080fd5b505afa15801561131e573d6000803e3d6000fd5b505050506040513d601f19601f820116820180604052508101906113429190612d70565b82146113605760405162461bcd60e51b81526004016107309061336e565b83546001600160a01b0319166001600160a01b03919091161790925550505050565b60165461139181610a116125b5565b61139a82611f28565b60125414156113a857600080fd5b6113b182611f28565b60128190556040517f580e2348a4d1118e1f915eeffd71aec4938e749307b28e67f19841ca64117df7916113e491612f9e565b60405180910390a15050565b6006546001600160a01b031681565b601354819081106114225760405162461bcd60e51b81526004016107309061323b565b60006013838154811061144557634e487b7160e01b600052603260045260246000fd5b90600052602060002090600402019050806002015442116114665750610ab4565b80546040516370a0823160e01b81526000916001600160a01b0316906370a0823190611496903090600401612eee565b60206040518083038186803b1580156114ae57600080fd5b505afa1580156114c2573d6000803e3d6000fd5b505050506040513d601f19601f820116820180604052508101906114e69190612d70565b9050806114fa575042600290910155610ab4565b600061150a836002015442611c79565b905060006010548460010154600d548461152491906134ca565b61152e91906134ca565b61153891906134aa565b90506000650746a52880006115528364e8d4a510006134ca565b61155c91906134aa565b9050600061156b8260026134ca565b9050600061157982856134e9565b600480546007546040516340c10f1960e01b81529394506001600160a01b03918216936340c10f19936115b29390921691889101612f7a565b600060405180830381600087803b1580156115cc57600080fd5b505af11580156115e0573d6000803e3d6000fd5b5050600480546008546040516340c10f1960e01b81526001600160a01b0392831695506340c10f19945061161b939190921691889101612f7a565b600060405180830381600087803b15801561163557600080fd5b505af1158015611649573d6000803e3d6000fd5b5050600480546006546040516340c10f1960e01b81526001600160a01b0392831695506340c10f199450611684939190921691869101612f7a565b600060405180830381600087803b15801561169e57600080fd5b505af11580156116b2573d6000803e3d6000fd5b50505050858464e8d4a510006116c891906134ca565b6116d291906134aa565b87600301546116e19190613492565b6003880155505042600290950194909455505050505050565b600154600160a01b900460ff1690565b600d5481565b60165461171f81610a116125b5565b50600e55565b60135460005b81811015610ab45761173c816113ff565b61174581613543565b905061172b565b60115460ff1661176e5760405162461bcd60e51b8152600401610730906133a5565b601354839081106117915760405162461bcd60e51b81526004016107309061323b565b6016546117a081610a116125b5565b82156117ae576117ae611725565b6000601386815481106117d157634e487b7160e01b600052603260045260246000fd5b9060005260206000209060040201600101549050846013878154811061180757634e487b7160e01b600052603260045260246000fd5b90600052602060002090600402016001018190555084811461184757848160105461183291906134e9565b61183c9190613492565b601055611847612725565b7fd88f859573973e938da5bf3e5100c16eee2090fa720e05ae3d452b4cd05cdcfd8686604051611878929190613430565b60405180910390a1505050505050565b6118906125b5565b6001600160a01b03166118a1611c6a565b6001600160a01b0316146118c75760405162461bcd60e51b8152600401610730906131a0565b6118d16000612827565b565b600f5481565b60115460ff166118fb5760405162461bcd60e51b8152600401610730906133a5565b60155461190a81610a116125b5565b61191383612879565b61191e8484846128fa565b50505050565b6009546001600160a01b031681565b600c5481565b600080600061194b6106748787611d18565b90506000606461195b83876134ca565b61196591906134aa565b9050600061197382876134e9565b91989197509095505050505050565b6004546001600160a01b031681565b6016546119a081610a116125b5565b60008481526014602090815260408083206001600160a01b0387168452909152908190206004810184905590517f40d6e8e3d60e4693375c73df2d1a71d582a28197c98fd8d2badad6ead06af64c906119fe90879087908790613411565b60405180910390a15050505050565b6007546001600160a01b031681565b601554611a2b81610a116125b5565b60115460ff1615611a4e5760405162461bcd60e51b8152600401610730906130dc565b600380546001600160a01b03808a166001600160a01b031992831617909255600580549289169290911691909117905542600f55611a8c8486613492565b600a55600b849055611a9d82611f28565b601255600354600480546001600160a01b039283166001600160a01b03199182161790915560055460068054919093169116179055600b54600a548491611ae391612a07565b60408051608081018252600480546001600160a01b03908116835260208301858152600f54948401948552600060608501818152601380546001808201835591845296517f66de8ffda797e3de9c05e8fc57b3bf0ec28a930d40b0d285d93c06501cf6a0909790960296870180546001600160a01b031916969095169590951790935590517f66de8ffda797e3de9c05e8fc57b3bf0ec28a930d40b0d285d93c06501cf6a09185015593517f66de8ffda797e3de9c05e8fc57b3bf0ec28a930d40b0d285d93c06501cf6a092840155517f66de8ffda797e3de9c05e8fc57b3bf0ec28a930d40b0d285d93c06501cf6a093909201919091556011805460ff1916909117905560108054839290611bfa908490613492565b9091555050600754600854600354600554601054600b546040517f0476c5e4920930815a67a5a042e26836431f494d3be0f6e10c3034787a7a15f996611c58966001600160a01b039182169690821695908216949116929091612f1c565b60405180910390a15050505050505050565b6001546001600160a01b031690565b600e54600090611c8984846134e9565b611c9391906134ca565b9392505050565b6000918252602082815260408084206001600160a01b0393909316845291905290205460ff1690565b6014602052816000526040600020602052806000526040600020600091509150508060000154908060010154908060020154908060030154908060040154908060050154908060060154905087565b600a5481565b600080620151808310611d3757611d3262015180846134aa565b611d3a565b60005b90506000611d4782611f28565b90506000601254821015611d685781601254611d6391906134e9565b611d6b565b60005b90508515611d795780611d7c565b60005b9695505050505050565b600b5481565b600081565b600e5481565b60008060138481548110611dbb57634e487b7160e01b600052603260045260246000fd5b600091825260208083208784526014825260408085206001600160a01b038981168752935280852060049485029092016003810154815492516370a0823160e01b815291975092959294929391909116916370a0823191611e1e91309101612eee565b60206040518083038186803b158015611e3657600080fd5b505afa158015611e4a573d6000803e3d6000fd5b505050506040513d601f19601f82011682018060405250810190611e6e9190612d70565b9050836002015442118015611e8257508015155b15611ef0576000611e97856002015442611c79565b905060006010548660010154600d5484611eb191906134ca565b611ebb91906134ca565b611ec591906134aa565b905082611ed78264e8d4a510006134ca565b611ee191906134aa565b611eeb9085613492565b935050505b6001830154835464e8d4a5100090611f099085906134ca565b611f1391906134aa565b611f1d91906134e9565b979650505050505050565b600061070282670de0b6b3a76400006134ca565b611f4582610a39565b611f5181610a116125b5565b610a6d83836126a2565b601554611f6a81610a116125b5565b6008546001600160a01b038481169116141580611f9557506007546001600160a01b03838116911614155b611fb15760405162461bcd60e51b81526004016107309061320c565b600880546001600160a01b038086166001600160a01b0319928316179283905560078054868316931692909217918290556040517fd1c04282701cbf58aa2f0026f6876051cf3feb8ee7b8b5b5532ebb4ab03fb5d49361201693908316921690612f02565b60405180910390a1505050565b6002805414156120455760405162461bcd60e51b8152600401610730906132e8565b600280556013548290811061206c5760405162461bcd60e51b81526004016107309061323b565b6120746116fa565b156120915760405162461bcd60e51b8152600401610730906130b2565b826120ae5760405162461bcd60e51b815260040161073090613169565b6000601384815481106120d157634e487b7160e01b600052603260045260246000fd5b60009182526020808320878452601482526040808520338652909252922060049091029091019150612102856113ff565b805415612152576000816001015464e8d4a510008460030154846000015461212a91906134ca565b61213491906134aa565b61213e91906134e9565b9050801561215057612150338261254d565b505b83156121f85781546040516323b872dd60e01b81526001600160a01b03909116906323b872dd9061218b90339030908990600401612f56565b602060405180830381600087803b1580156121a557600080fd5b505af11580156121b9573d6000803e3d6000fd5b505050506040513d601f19601f820116820180604052508101906121dd9190612cd4565b50838160000160008282546121f29190613492565b90915550505b6003820154815464e8d4a510009161220f916134ca565b61221991906134aa565b6001820155600481015461222d5742612233565b80600401545b6004820155604051859033907f90890809c654f11d6e72a28fa60149770a0d11ec6c92319d6ceb2bb0a4ea1a159061226c908890612f9e565b60405180910390a350506001600255505050565b6000610702670de0b6b3a7640000836134aa565b6015546122a381610a116125b5565b6004546001600160a01b0384811691161415806122ce57506006546001600160a01b03838116911614155b6122ea5760405162461bcd60e51b8152600401610730906131d5565b600480546001600160a01b038086166001600160a01b03199283161790925560068054928516929091169190911790556040517fdcc6331013de89f8c595d5328f0a724194f113cb6f8f2a707b3dff6de13f0d17906120169085908590612f02565b60155481565b60165461236181610a116125b5565b82600b54141580612374575081600a5414155b6123905760405162461bcd60e51b81526004016107309061307b565b828210156123b05760405162461bcd60e51b8152600401610730906133dc565b600b839055600a8290556123c48383612a07565b7fb298bc23e07860d501fddce288f46d761aa04a0c7c3316099eb50f097aacf304600b54600a54604051612016929190613430565b6124016125b5565b6001600160a01b0316612412611c6a565b6001600160a01b0316146124385760405162461bcd60e51b8152600401610730906131a0565b6001600160a01b03811661245e5760405162461bcd60e51b815260040161073090613035565b61246781612827565b50565b60008281526014602090815260408083206001600160a01b03851684528252808320815160e0810183528154815260018201549381019390935260028101549183019190915260038101546060830181905260048201546080840152600582015460a084015260069091015460c08301526124f35760808101516124ee90426134e9565b612502565b606081015161250290426134e9565b949350505050565b7f000000000000000000000000000000000000000000000000000000000000000081565b60165481565b6001600160e01b031981166301ffc9a760e01b14919050565b600654604051635950a15560e11b81526001600160a01b039091169063b2a142aa9061257f9085908590600401612f7a565b600060405180830381600087803b15801561259957600080fd5b505af11580156125ad573d6000803e3d6000fd5b505050505050565b3390565b6125c38282611c9a565b610ab4576125db816001600160a01b03166014612a76565b6125e6836020612a76565b6040516020016125f7929190612e79565b60408051601f198184030181529082905262461bcd60e51b825261073091600401612fcd565b6126278282611c9a565b610ab4576000828152602081815260408083206001600160a01b03851684529091529020805460ff1916600117905561265e6125b5565b6001600160a01b0316816001600160a01b0316837f2f8788117e7eff1d82e926ec794901d17c78024a50270940304540a733656f0d60405160405180910390a45050565b6126ac8282611c9a565b15610ab4576000828152602081815260408083206001600160a01b03851684529091529020805460ff191690556126e16125b5565b6001600160a01b0316816001600160a01b0316837ff6391f5c32d9c69d2a47ea670b442974b53935d1edc7fd64eb21e047a839171b60405160405180910390a45050565b601354600060015b82811015612785576013818154811061275657634e487b7160e01b600052603260045260246000fd5b906000526020600020906004020160010154826127739190613492565b915061277e81613543565b905061272d565b508015610ab4576127976003826134aa565b90508060136000815481106127bc57634e487b7160e01b600052603260045260246000fd5b9060005260206000209060040201600101546010546127db91906134e9565b6127e59190613492565b60108190555080601360008154811061280e57634e487b7160e01b600052603260045260246000fd5b9060005260206000209060040201600101819055505050565b600180546001600160a01b038381166001600160a01b0319831681179093556040519116919082907f8be0079c531659141344cd1fd0a4f28419497f9722a3daafe3b4186f6b6457e090600090a35050565b60135460005b81811015610a6d57826001600160a01b0316601382815481106128b257634e487b7160e01b600052603260045260246000fd5b60009182526020909120600490910201546001600160a01b031614156128ea5760405162461bcd60e51b8152600401610730906132bf565b6128f381613543565b905061287f565b801561290857612908611725565b826010600082825461291a9190613492565b9250508190555060136040518060800160405280846001600160a01b03168152602001858152602001600f54421161295457600f54612956565b425b81526000602091820181905283546001808201865594825290829020835160049092020180546001600160a01b0319166001600160a01b03909216919091178155908201519281019290925560408101516002830155606001516003909101556129be612725565b6013546010546040517f20b669aa921947a6d9602a921d2db3b6b30f21b9aca98580fa3972530330b27a916129f9918491889188919061343e565b60405180910390a150505050565b600081612a1384611f28565b612a1d91906134aa565b9050612a2c816203d0906134ca565b600c819055612a3f9062015180906134aa565b600d819055600c546040517fcd7c861d63893659123f817b192b8621ff1923a7c4589c260173cedcf9e986a6926120169291613430565b60606000612a858360026134ca565b612a90906002613492565b67ffffffffffffffff811115612ab657634e487b7160e01b600052604160045260246000fd5b6040519080825280601f01601f191660200182016040528015612ae0576020820181803683370190505b509050600360fc1b81600081518110612b0957634e487b7160e01b600052603260045260246000fd5b60200101906001600160f81b031916908160001a905350600f60fb1b81600181518110612b4657634e487b7160e01b600052603260045260246000fd5b60200101906001600160f81b031916908160001a9053506000612b6a8460026134ca565b612b75906001613492565b90505b6001811115612c09576f181899199a1a9b1b9c1cb0b131b232b360811b85600f1660108110612bb757634e487b7160e01b600052603260045260246000fd5b1a60f81b828281518110612bdb57634e487b7160e01b600052603260045260246000fd5b60200101906001600160f81b031916908160001a90535060049490941c93612c028161352c565b9050612b78565b508315611c935760405162461bcd60e51b815260040161073090613000565b600060208284031215612c39578081fd5b8135611c9381613574565b60008060408385031215612c56578081fd5b8235612c6181613574565b91506020830135612c7181613574565b809150509250929050565b60008060008060008060c08789031215612c94578182fd5b8635612c9f81613574565b95506020870135612caf81613574565b95989597505050506040840135936060810135936080820135935060a0909101359150565b600060208284031215612ce5578081fd5b8151611c9381613589565b600060208284031215612d01578081fd5b5035919050565b60008060408385031215612d1a578182fd5b823591506020830135612c7181613574565b600060208284031215612d3d578081fd5b81356001600160e01b031981168114611c93578182fd5b600060208284031215612d65578081fd5b8151611c9381613574565b600060208284031215612d81578081fd5b5051919050565b600080600060608486031215612d9c578283fd5b833592506020840135612dae81613574565b929592945050506040919091013590565b600080600060608486031215612dd3578283fd5b833592506020840135612de581613574565b91506040840135612df581613589565b809150509250925092565b60008060408385031215612e12578182fd5b50508035926020909101359150565b600080600060608486031215612e35578081fd5b83359250602084013591506040840135612df581613589565b600080600060608486031215612e62578081fd5b505081359360208301359350604090920135919050565b60007f416363657373436f6e74726f6c3a206163636f756e742000000000000000000082528351612eb1816017850160208801613500565b7001034b99036b4b9b9b4b733903937b6329607d1b6017918401918201528351612ee2816028840160208801613500565b01602801949350505050565b6001600160a01b0391909116815260200190565b6001600160a01b0392831681529116602082015260400190565b6001600160a01b0396871681529486166020860152928516604085015293166060830152608082019290925260a081019190915260c00190565b6001600160a01b039384168152919092166020820152604081019190915260600190565b6001600160a01b03929092168252602082015260400190565b901515815260200190565b90815260200190565b6001600160a01b0394909416845260208401929092526040830152606082015260800190565b6000602082528251806020840152612fec816040850160208701613500565b601f01601f19169190910160400192915050565b6020808252818101527f537472696e67733a20686578206c656e67746820696e73756666696369656e74604082015260600190565b60208082526026908201527f4f776e61626c653a206e6577206f776e657220697320746865207a65726f206160408201526564647265737360d01b606082015260800190565b6020808252601e908201527f6d757374206265206174206c65617374206f6e65206e65772076616c75650000604082015260600190565b60208082526010908201526f14185d5cd8589b194e881c185d5cd95960821b604082015260600190565b602080825260139082015272185b1c9958591e481a5b9a5d1a585b1a5e9959606a1b604082015260600190565b6020808252600f908201526e1b9bc81b5a59dc985d1bdc881cd95d608a1b604082015260600190565b6020808252601a908201527f776974686472617720534f554c20627920756e7374616b696e67000000000000604082015260600190565b60208082526017908201527f6465706f73697420534f554c206279207374616b696e67000000000000000000604082015260600190565b6020808252818101527f4f776e61626c653a2063616c6c6572206973206e6f7420746865206f776e6572604082015260600190565b6020808252601b908201527f6d7573742062652061206e657720746f6b656e20616464726573730000000000604082015260600190565b6020808252601590820152741b5d5cdd0818994818481b995dc81858d8dbdd5b9d605a1b604082015260600190565b6020808252601390820152721c1bdbdb08191bd95cc81b9bdd08195e1a5cdd606a1b604082015260600190565b6020808252601290820152711dda5d1a191c985dce881b9bdd0819dbdbd960721b604082015260600190565b6020808252601190820152701dda5d1a191c985dc81b9bdd0819dbdbd9607a1b604082015260600190565b6020808252600f908201526e191d5c1b1a58d85d1959081c1bdbdb608a1b604082015260600190565b6020808252601f908201527f5265656e7472616e637947756172643a207265656e7472616e742063616c6c00604082015260600190565b6020808252602f908201527f416363657373436f6e74726f6c3a2063616e206f6e6c792072656e6f756e636560408201526e103937b632b9903337b91039b2b63360891b606082015260800190565b6020808252601d908201527f6d6967726174653a20696e73756666696369656e742062616c616e6365000000604082015260600190565b6020808252601a908201527f726577617264732068617665206e6f742079657420626567756e000000000000604082015260600190565b6020808252818101527f7765696768742063616e6e6f742065786365656420746f74616c576569676874604082015260600190565b9283526001600160a01b03919091166020830152604082015260600190565b918252602082015260400190565b93845260208401929092526001600160a01b03166040830152606082015260800190565b968752602087019590955260408601939093526060850191909152608084015260a083015260c082015260e00190565b600082198211156134a5576134a561355e565b500190565b6000826134c557634e487b7160e01b81526012600452602481fd5b500490565b60008160001904831182151516156134e4576134e461355e565b500290565b6000828210156134fb576134fb61355e565b500390565b60005b8381101561351b578181015183820152602001613503565b8381111561191e5750506000910152565b60008161353b5761353b61355e565b506000190190565b60006000198214156135575761355761355e565b5060010190565b634e487b7160e01b600052601160045260246000fd5b6001600160a01b038116811461246757600080fd5b801515811461246757600080fdfea26469706673582212208a4995f70dbbbd8481d7a3947a2f17006e7b33a169b9c4fac9db2b614964cb7d64736f6c63430008000033",
    "sourcePath": "/Users/unico/Documents/GitHub/SoulSwap/soulswap-farms/contracts/SoulSummoner.sol",
    "compiler": {
        "name": "solc",
        "version": "0.8.0+commit.c7dfd78e"
    },
    "functionHashes": {
        "DEFAULT_ADMIN_ROLE()": "a217fddf",
        "addPool(uint256,address,bool)": "7abceffd",
        "bonusMultiplier()": "a8b973a1",
        "dailyDecay()": "fc90fdc0",
        "dailySoul()": "7d500ec8",
        "dao()": "4162169f",
        "deposit(uint256,uint256)": "e2bbb158",
        "enWei(uint256)": "cf94ee96",
        "enterStaking(uint256)": "41441d3b",
        "fromWei(uint256)": "e65d1522",
        "getFeeRate(uint256,uint256)": "9f6c5426",
        "getMultiplier(uint256,uint256)": "8dbb1e3a",
        "getRoleAdmin(bytes32)": "248a9ca3",
        "getWithdrawable(uint256,uint256,uint256)": "7e668b42",
        "grantRole(bytes32,address)": "2f2ff15d",
        "hasRole(bytes32,address)": "91d14854",
        "initialize(address,address,uint256,uint256,uint256,uint256)": "86489ba9",
        "isInitialized()": "392e53cd",
        "isis()": "ea4bf446",
        "leaveStaking(uint256)": "1058d281",
        "maat()": "fd6f99d0",
        "massUpdatePools()": "630b5ba1",
        "migrate(uint256)": "454b0608",
        "migrator()": "7cd07e47",
        "owner()": "8da5cb5b",
        "paused()": "5c975abb",
        "pendingSoul(uint256,address)": "bfafcad5",
        "poolInfo(uint256)": "1526fe27",
        "poolLength()": "081e3eda",
        "renounceOwnership()": "715018a6",
        "renounceRole(bytes32,address)": "36568abe",
        "reviseDeposit(uint256,address,uint256)": "82386d58",
        "revokeRole(bytes32,address)": "d547741f",
        "seance()": "4ca01d45",
        "set(uint256,uint256,bool)": "64482f79",
        "setMigrator(address)": "23cf3118",
        "soul()": "815b7a8c",
        "soulPerSecond()": "5f9bf689",
        "startRate()": "1254f0dc",
        "startTime()": "78e97925",
        "supportsInterface(bytes4)": "01ffc9a7",
        "team()": "85f2aef2",
        "totalAllocPoint()": "17caf6f1",
        "totalWeight()": "96c82e57",
        "transferOwnership(address)": "f2fde38b",
        "updateAccounts(address,address)": "e13e8ec2",
        "updateMultiplier(uint256)": "5ffe6146",
        "updatePool(uint256)": "51eb05a6",
        "updateStartRate(uint256)": "4a962829",
        "updateTokens(address,address)": "e7aa29e3",
        "updateWeights(uint256,uint256)": "f107fd85",
        "userDelta(uint256,address)": "fb39d1e3",
        "userInfo(uint256,address)": "93f1a40b",
        "weight()": "a1aab33f",
        "withdraw(uint256,uint256)": "441a3e70"
    },
    "gasEstimates": {
        "creation": {
            "codeDepositCost": "2754600",
            "executionCost": "infinite",
            "totalCost": "infinite"
        },
        "external": {
            "DEFAULT_ADMIN_ROLE()": "361",
            "addPool(uint256,address,bool)": "infinite",
            "bonusMultiplier()": "1096",
            "dailyDecay()": "infinite",
            "dailySoul()": "1097",
            "dao()": "1204",
            "deposit(uint256,uint256)": "infinite",
            "enWei(uint256)": "516",
            "enterStaking(uint256)": "infinite",
            "fromWei(uint256)": "505",
            "getFeeRate(uint256,uint256)": "2426",
            "getMultiplier(uint256,uint256)": "1370",
            "getRoleAdmin(bytes32)": "1271",
            "getWithdrawable(uint256,uint256,uint256)": "infinite",
            "grantRole(bytes32,address)": "infinite",
            "hasRole(bytes32,address)": "1472",
            "initialize(address,address,uint256,uint256,uint256,uint256)": "infinite",
            "isInitialized()": "1130",
            "isis()": "1117",
            "leaveStaking(uint256)": "infinite",
            "maat()": "1160",
            "massUpdatePools()": "infinite",
            "migrate(uint256)": "infinite",
            "migrator()": "1203",
            "owner()": "1204",
            "paused()": "1169",
            "pendingSoul(uint256,address)": "infinite",
            "poolInfo(uint256)": "4695",
            "poolLength()": "1097",
            "renounceOwnership()": "23574",
            "renounceRole(bytes32,address)": "infinite",
            "reviseDeposit(uint256,address,uint256)": "infinite",
            "revokeRole(bytes32,address)": "infinite",
            "seance()": "1138",
            "set(uint256,uint256,bool)": "infinite",
            "setMigrator(address)": "infinite",
            "soul()": "1183",
            "soulPerSecond()": "1162",
            "startRate()": "1141",
            "startTime()": "1117",
            "supportsInterface(bytes4)": "539",
            "team()": "1160",
            "totalAllocPoint()": "1185",
            "totalWeight()": "1095",
            "transferOwnership(address)": "infinite",
            "updateAccounts(address,address)": "infinite",
            "updateMultiplier(uint256)": "infinite",
            "updatePool(uint256)": "infinite",
            "updateStartRate(uint256)": "infinite",
            "updateTokens(address,address)": "infinite",
            "updateWeights(uint256,uint256)": "infinite",
            "userDelta(uint256,address)": "6573",
            "userInfo(uint256,address)": "6485",
            "weight()": "1139",
            "withdraw(uint256,uint256)": "infinite"
        },
        "internal": {
            "_addPool(uint256,contract IERC20,bool)": "infinite",
            "_divinationCeremony(bytes32,bytes32,address)": "infinite",
            "checkPoolDuplicate(contract IERC20)": "infinite",
            "safeSoulTransfer(address,uint256)": "infinite",
            "updateRewards(uint256,uint256)": "infinite",
            "updateStakingPool()": "infinite"
        }
    }
}