{
    "contractName": "SoulToken",
    "abi": [
        {
            "anonymous": false,
            "inputs": [
                {
                    "indexed": true,
                    "internalType": "address",
                    "name": "owner",
                    "type": "address"
                },
                {
                    "indexed": true,
                    "internalType": "address",
                    "name": "spender",
                    "type": "address"
                },
                {
                    "indexed": false,
                    "internalType": "uint256",
                    "name": "value",
                    "type": "uint256"
                }
            ],
            "name": "Approval",
            "type": "event"
        },
        {
            "anonymous": false,
            "inputs": [
                {
                    "indexed": true,
                    "internalType": "address",
                    "name": "delegator",
                    "type": "address"
                },
                {
                    "indexed": true,
                    "internalType": "address",
                    "name": "fromDelegate",
                    "type": "address"
                },
                {
                    "indexed": true,
                    "internalType": "address",
                    "name": "toDelegate",
                    "type": "address"
                }
            ],
            "name": "DelegateChanged",
            "type": "event"
        },
        {
            "anonymous": false,
            "inputs": [
                {
                    "indexed": true,
                    "internalType": "address",
                    "name": "delegate",
                    "type": "address"
                },
                {
                    "indexed": false,
                    "internalType": "uint256",
                    "name": "previousBalance",
                    "type": "uint256"
                },
                {
                    "indexed": false,
                    "internalType": "uint256",
                    "name": "newBalance",
                    "type": "uint256"
                }
            ],
            "name": "DelegateVotesChanged",
            "type": "event"
        },
        {
            "anonymous": false,
            "inputs": [
                {
                    "indexed": true,
                    "internalType": "address",
                    "name": "previousOwner",
                    "type": "address"
                },
                {
                    "indexed": true,
                    "internalType": "address",
                    "name": "newOwner",
                    "type": "address"
                }
            ],
            "name": "OwnershipTransferred",
            "type": "event"
        },
        {
            "anonymous": false,
            "inputs": [
                {
                    "indexed": true,
                    "internalType": "address",
                    "name": "from",
                    "type": "address"
                },
                {
                    "indexed": true,
                    "internalType": "address",
                    "name": "to",
                    "type": "address"
                },
                {
                    "indexed": false,
                    "internalType": "uint256",
                    "name": "value",
                    "type": "uint256"
                }
            ],
            "name": "Transfer",
            "type": "event"
        },
        {
            "inputs": [],
            "name": "DELEGATION_TYPEHASH",
            "outputs": [
                {
                    "internalType": "bytes32",
                    "name": "",
                    "type": "bytes32"
                }
            ],
            "stateMutability": "view",
            "type": "function"
        },
        {
            "inputs": [],
            "name": "DOMAIN_TYPEHASH",
            "outputs": [
                {
                    "internalType": "bytes32",
                    "name": "",
                    "type": "bytes32"
                }
            ],
            "stateMutability": "view",
            "type": "function"
        },
        {
            "inputs": [
                {
                    "internalType": "address",
                    "name": "owner",
                    "type": "address"
                },
                {
                    "internalType": "address",
                    "name": "spender",
                    "type": "address"
                }
            ],
            "name": "allowance",
            "outputs": [
                {
                    "internalType": "uint256",
                    "name": "",
                    "type": "uint256"
                }
            ],
            "stateMutability": "view",
            "type": "function"
        },
        {
            "inputs": [
                {
                    "internalType": "address",
                    "name": "spender",
                    "type": "address"
                },
                {
                    "internalType": "uint256",
                    "name": "amount",
                    "type": "uint256"
                }
            ],
            "name": "approve",
            "outputs": [
                {
                    "internalType": "bool",
                    "name": "",
                    "type": "bool"
                }
            ],
            "stateMutability": "nonpayable",
            "type": "function"
        },
        {
            "inputs": [
                {
                    "internalType": "address",
                    "name": "account",
                    "type": "address"
                }
            ],
            "name": "balanceOf",
            "outputs": [
                {
                    "internalType": "uint256",
                    "name": "",
                    "type": "uint256"
                }
            ],
            "stateMutability": "view",
            "type": "function"
        },
        {
            "inputs": [
                {
                    "internalType": "address",
                    "name": "",
                    "type": "address"
                },
                {
                    "internalType": "uint256",
                    "name": "",
                    "type": "uint256"
                }
            ],
            "name": "checkpoints",
            "outputs": [
                {
                    "internalType": "uint256",
                    "name": "fromTime",
                    "type": "uint256"
                },
                {
                    "internalType": "uint256",
                    "name": "votes",
                    "type": "uint256"
                }
            ],
            "stateMutability": "view",
            "type": "function"
        },
        {
            "inputs": [],
            "name": "decimals",
            "outputs": [
                {
                    "internalType": "uint8",
                    "name": "",
                    "type": "uint8"
                }
            ],
            "stateMutability": "view",
            "type": "function"
        },
        {
            "inputs": [
                {
                    "internalType": "address",
                    "name": "spender",
                    "type": "address"
                },
                {
                    "internalType": "uint256",
                    "name": "subtractedValue",
                    "type": "uint256"
                }
            ],
            "name": "decreaseAllowance",
            "outputs": [
                {
                    "internalType": "bool",
                    "name": "",
                    "type": "bool"
                }
            ],
            "stateMutability": "nonpayable",
            "type": "function"
        },
        {
            "inputs": [
                {
                    "internalType": "address",
                    "name": "delegatee",
                    "type": "address"
                }
            ],
            "name": "delegate",
            "outputs": [],
            "stateMutability": "nonpayable",
            "type": "function"
        },
        {
            "inputs": [
                {
                    "internalType": "address",
                    "name": "delegatee",
                    "type": "address"
                },
                {
                    "internalType": "uint256",
                    "name": "nonce",
                    "type": "uint256"
                },
                {
                    "internalType": "uint256",
                    "name": "expiry",
                    "type": "uint256"
                },
                {
                    "internalType": "uint8",
                    "name": "v",
                    "type": "uint8"
                },
                {
                    "internalType": "bytes32",
                    "name": "r",
                    "type": "bytes32"
                },
                {
                    "internalType": "bytes32",
                    "name": "s",
                    "type": "bytes32"
                }
            ],
            "name": "delegateBySig",
            "outputs": [],
            "stateMutability": "nonpayable",
            "type": "function"
        },
        {
            "inputs": [
                {
                    "internalType": "address",
                    "name": "delegator",
                    "type": "address"
                }
            ],
            "name": "delegates",
            "outputs": [
                {
                    "internalType": "address",
                    "name": "",
                    "type": "address"
                }
            ],
            "stateMutability": "view",
            "type": "function"
        },
        {
            "inputs": [
                {
                    "internalType": "address",
                    "name": "account",
                    "type": "address"
                }
            ],
            "name": "getCurrentVotes",
            "outputs": [
                {
                    "internalType": "uint256",
                    "name": "",
                    "type": "uint256"
                }
            ],
            "stateMutability": "view",
            "type": "function"
        },
        {
            "inputs": [
                {
                    "internalType": "address",
                    "name": "account",
                    "type": "address"
                },
                {
                    "internalType": "uint256",
                    "name": "blockTimestamp",
                    "type": "uint256"
                }
            ],
            "name": "getPriorVotes",
            "outputs": [
                {
                    "internalType": "uint256",
                    "name": "",
                    "type": "uint256"
                }
            ],
            "stateMutability": "view",
            "type": "function"
        },
        {
            "inputs": [
                {
                    "internalType": "address",
                    "name": "spender",
                    "type": "address"
                },
                {
                    "internalType": "uint256",
                    "name": "addedValue",
                    "type": "uint256"
                }
            ],
            "name": "increaseAllowance",
            "outputs": [
                {
                    "internalType": "bool",
                    "name": "",
                    "type": "bool"
                }
            ],
            "stateMutability": "nonpayable",
            "type": "function"
        },
        {
            "inputs": [
                {
                    "internalType": "address",
                    "name": "_to",
                    "type": "address"
                },
                {
                    "internalType": "uint256",
                    "name": "_amount",
                    "type": "uint256"
                }
            ],
            "name": "mint",
            "outputs": [],
            "stateMutability": "nonpayable",
            "type": "function"
        },
        {
            "inputs": [],
            "name": "name",
            "outputs": [
                {
                    "internalType": "string",
                    "name": "",
                    "type": "string"
                }
            ],
            "stateMutability": "view",
            "type": "function"
        },
        {
            "inputs": [
                {
                    "internalType": "address",
                    "name": "",
                    "type": "address"
                }
            ],
            "name": "nonces",
            "outputs": [
                {
                    "internalType": "uint256",
                    "name": "",
                    "type": "uint256"
                }
            ],
            "stateMutability": "view",
            "type": "function"
        },
        {
            "inputs": [
                {
                    "internalType": "address",
                    "name": "",
                    "type": "address"
                }
            ],
            "name": "numCheckpoints",
            "outputs": [
                {
                    "internalType": "uint256",
                    "name": "",
                    "type": "uint256"
                }
            ],
            "stateMutability": "view",
            "type": "function"
        },
        {
            "inputs": [],
            "name": "owner",
            "outputs": [
                {
                    "internalType": "address",
                    "name": "",
                    "type": "address"
                }
            ],
            "stateMutability": "view",
            "type": "function"
        },
        {
            "inputs": [],
            "name": "renounceOwnership",
            "outputs": [],
            "stateMutability": "nonpayable",
            "type": "function"
        },
        {
            "inputs": [],
            "name": "symbol",
            "outputs": [
                {
                    "internalType": "string",
                    "name": "",
                    "type": "string"
                }
            ],
            "stateMutability": "view",
            "type": "function"
        },
        {
            "inputs": [],
            "name": "totalSupply",
            "outputs": [
                {
                    "internalType": "uint256",
                    "name": "",
                    "type": "uint256"
                }
            ],
            "stateMutability": "view",
            "type": "function"
        },
        {
            "inputs": [
                {
                    "internalType": "address",
                    "name": "recipient",
                    "type": "address"
                },
                {
                    "internalType": "uint256",
                    "name": "amount",
                    "type": "uint256"
                }
            ],
            "name": "transfer",
            "outputs": [
                {
                    "internalType": "bool",
                    "name": "",
                    "type": "bool"
                }
            ],
            "stateMutability": "nonpayable",
            "type": "function"
        },
        {
            "inputs": [
                {
                    "internalType": "address",
                    "name": "sender",
                    "type": "address"
                },
                {
                    "internalType": "address",
                    "name": "recipient",
                    "type": "address"
                },
                {
                    "internalType": "uint256",
                    "name": "amount",
                    "type": "uint256"
                }
            ],
            "name": "transferFrom",
            "outputs": [
                {
                    "internalType": "bool",
                    "name": "",
                    "type": "bool"
                }
            ],
            "stateMutability": "nonpayable",
            "type": "function"
        },
        {
            "inputs": [
                {
                    "internalType": "address",
                    "name": "newOwner",
                    "type": "address"
                }
            ],
            "name": "transferOwnership",
            "outputs": [],
            "stateMutability": "nonpayable",
            "type": "function"
        }
    ],
    "bytecode": "60806040523480156200001157600080fd5b50604080518082018252600a81526929b7bab6102a37b5b2b760b11b60208083019182528351808501909452600484526314d3d55360e21b9084015281519192916200006091600391620000ef565b50805162000076906004906020840190620000ef565b505050620000936200008d6200009960201b60201c565b6200009d565b620001d2565b3390565b600580546001600160a01b038381166001600160a01b0319831681179093556040519116919082907f8be0079c531659141344cd1fd0a4f28419497f9722a3daafe3b4186f6b6457e090600090a35050565b828054620000fd9062000195565b90600052602060002090601f0160209004810192826200012157600085556200016c565b82601f106200013c57805160ff19168380011785556200016c565b828001600101855582156200016c579182015b828111156200016c5782518255916020019190600101906200014f565b506200017a9291506200017e565b5090565b5b808211156200017a57600081556001016200017f565b600281046001821680620001aa57607f821691505b60208210811415620001cc57634e487b7160e01b600052602260045260246000fd5b50919050565b61195c80620001e26000396000f3fe608060405234801561001057600080fd5b50600436106101735760003560e01c806370a08231116100de578063a457c2d711610097578063c3cda52011610071578063c3cda52014610314578063dd62ed3e14610327578063e7a324dc1461033a578063f2fde38b1461034257610173565b8063a457c2d7146102db578063a9059cbb146102ee578063b4b5ea571461030157610173565b806370a082311461028a578063715018a61461029d578063782d6fe1146102a55780637ecebe00146102b85780638da5cb5b146102cb57806395d89b41146102d357610173565b8063313ce56711610130578063313ce56714610207578063395093511461021c57806340c10f191461022f578063587cde1e146102445780635c19a95c146102645780636fcfff451461027757610173565b806306fdde0314610178578063095ea7b3146101965780630cdfebfa146101b657806318160ddd146101d757806320606b70146101ec57806323b872dd146101f4575b600080fd5b610180610355565b60405161018d919061141c565b60405180910390f35b6101a96101a43660046112ec565b6103e7565b60405161018d91906113a2565b6101c96101c43660046112ec565b610405565b60405161018d929190611817565b6101df610429565b60405161018d91906113ad565b6101df61042f565b6101a96102023660046112b1565b610453565b61020f6104ec565b60405161018d9190611825565b6101a961022a3660046112ec565b6104f1565b61024261023d3660046112ec565b610545565b005b610257610252366004611265565b6105b7565b60405161018d919061138e565b610242610272366004611265565b6105d8565b6101df610285366004611265565b6105e5565b6101df610298366004611265565b6105f7565b610242610612565b6101df6102b33660046112ec565b61065d565b6101df6102c6366004611265565b61083f565b610257610851565b610180610860565b6101a96102e93660046112ec565b61086f565b6101a96102fc3660046112ec565b6108e8565b6101df61030f366004611265565b6108fc565b610242610322366004611315565b61095f565b6101df61033536600461127f565b610b3a565b6101df610b65565b610242610350366004611265565b610b89565b60606003805461036490611882565b80601f016020809104026020016040519081016040528092919081815260200182805461039090611882565b80156103dd5780601f106103b2576101008083540402835291602001916103dd565b820191906000526020600020905b8154815290600101906020018083116103c057829003601f168201915b5050505050905090565b60006103fb6103f4610bf7565b8484610bfb565b5060015b92915050565b60076020908152600092835260408084209091529082529020805460019091015482565b60025490565b7f8cad95687ba82c2ce50e74f7b754645e5117c3a5bec8151c0726d5857980a86681565b6000610460848484610caf565b6001600160a01b038416600090815260016020526040812081610481610bf7565b6001600160a01b03166001600160a01b03168152602001908152602001600020549050828110156104cd5760405162461bcd60e51b81526004016104c490611608565b60405180910390fd5b6104e1856104d9610bf7565b858403610bfb565b506001949350505050565b601290565b60006103fb6104fe610bf7565b84846001600061050c610bf7565b6001600160a01b03908116825260208083019390935260409182016000908120918b16815292529020546105409190611833565b610bfb565b61054d610bf7565b6001600160a01b031661055e610851565b6001600160a01b0316146105845760405162461bcd60e51b81526004016104c490611697565b61058e8282610dd9565b6001600160a01b038083166000908152600660205260408120546105b3921683610ea1565b5050565b6001600160a01b03808216600090815260066020526040902054165b919050565b6105e23382610fe1565b50565b60086020526000908152604090205481565b6001600160a01b031660009081526020819052604090205490565b61061a610bf7565b6001600160a01b031661062b610851565b6001600160a01b0316146106515760405162461bcd60e51b81526004016104c490611697565b61065b6000611070565b565b600042821061067e5760405162461bcd60e51b81526004016104c490611650565b6001600160a01b038316600090815260086020526040902054806106a65760009150506103ff565b6001600160a01b038416600090815260076020526040812084916106cb60018561186b565b81526020019081526020016000206000015411610720576001600160a01b03841660009081526007602052604081209061070660018461186b565b8152602001908152602001600020600101549150506103ff565b6001600160a01b03841660009081526007602090815260408083208380529091529020548310156107555760009150506103ff565b60008061076360018461186b565b90505b8181111561080f576000600261077c848461186b565b610786919061184b565b610790908361186b565b6001600160a01b03881660009081526007602090815260408083208484528252918290208251808401909352805480845260019091015491830191909152919250908714156107e9576020015194506103ff9350505050565b80518711156107fa57819350610808565b61080560018361186b565b92505b5050610766565b506001600160a01b0385166000908152600760209081526040808320938352929052206001015491505092915050565b60096020526000908152604090205481565b6005546001600160a01b031690565b60606004805461036490611882565b6000806001600061087e610bf7565b6001600160a01b03908116825260208083019390935260409182016000908120918816815292529020549050828110156108ca5760405162461bcd60e51b81526004016104c49061179b565b6108de6108d5610bf7565b85858403610bfb565b5060019392505050565b60006103fb6108f5610bf7565b8484610caf565b6001600160a01b03811660009081526008602052604081205480610921576000610958565b6001600160a01b03831660009081526007602052604081209061094560018461186b565b8152602001908152602001600020600101545b9392505050565b60007f8cad95687ba82c2ce50e74f7b754645e5117c3a5bec8151c0726d5857980a86661098a610355565b805190602001206109996110c2565b306040516020016109ad94939291906113da565b60405160208183030381529060405280519060200120905060007fe48329057bfd03d55e49b547132e39cffd9c1820ad7b9d4c5307691425d15adf8888886040516020016109fe94939291906113b6565b60405160208183030381529060405280519060200120905060008282604051602001610a2b929190611373565b604051602081830303815290604052805190602001209050600060018288888860405160008152602001604052604051610a6894939291906113fe565b6020604051602081039080840390855afa158015610a8a573d6000803e3d6000fd5b5050604051601f1901519150506001600160a01b038116610abd5760405162461bcd60e51b81526004016104c4906115c2565b6001600160a01b0381166000908152600960205260408120805491610ae1836118bd565b919050558914610b035760405162461bcd60e51b81526004016104c49061153a565b87421115610b235760405162461bcd60e51b81526004016104c490611755565b610b2d818b610fe1565b505050505b505050505050565b6001600160a01b03918216600090815260016020908152604080832093909416825291909152205490565b7fe48329057bfd03d55e49b547132e39cffd9c1820ad7b9d4c5307691425d15adf81565b610b91610bf7565b6001600160a01b0316610ba2610851565b6001600160a01b031614610bc85760405162461bcd60e51b81526004016104c490611697565b6001600160a01b038116610bee5760405162461bcd60e51b81526004016104c4906114b2565b6105e281611070565b3390565b6001600160a01b038316610c215760405162461bcd60e51b81526004016104c490611711565b6001600160a01b038216610c475760405162461bcd60e51b81526004016104c4906114f8565b6001600160a01b0380841660008181526001602090815260408083209487168084529490915290819020849055517f8c5be1e5ebec7d5bd14f71427d1e84f3dd0314c0f7b2291e5b200ac8c7c3b92590610ca29085906113ad565b60405180910390a3505050565b6001600160a01b038316610cd55760405162461bcd60e51b81526004016104c4906116cc565b6001600160a01b038216610cfb5760405162461bcd60e51b81526004016104c49061146f565b610d06838383610fdc565b6001600160a01b03831660009081526020819052604090205481811015610d3f5760405162461bcd60e51b81526004016104c49061157c565b6001600160a01b03808516600090815260208190526040808220858503905591851681529081208054849290610d76908490611833565b92505081905550826001600160a01b0316846001600160a01b03167fddf252ad1be2c89b69c2b068fc378daa952ba7f163c4a11628f55a4df523b3ef84604051610dc091906113ad565b60405180910390a3610dd3848484610fdc565b50505050565b6001600160a01b038216610dff5760405162461bcd60e51b81526004016104c4906117e0565b610e0b60008383610fdc565b8060026000828254610e1d9190611833565b90915550506001600160a01b03821660009081526020819052604081208054839290610e4a908490611833565b90915550506040516001600160a01b038316906000907fddf252ad1be2c89b69c2b068fc378daa952ba7f163c4a11628f55a4df523b3ef90610e8d9085906113ad565b60405180910390a36105b360008383610fdc565b816001600160a01b0316836001600160a01b031614158015610ec35750600081115b15610fdc576001600160a01b03831615610f54576001600160a01b0383166000908152600860205260408120549081610efd576000610f34565b6001600160a01b038516600090815260076020526040812090610f2160018561186b565b8152602001908152602001600020600101545b90506000610f42848361186b565b9050610f50868484846110c6565b5050505b6001600160a01b03821615610fdc576001600160a01b0382166000908152600860205260408120549081610f89576000610fc0565b6001600160a01b038416600090815260076020526040812090610fad60018561186b565b8152602001908152602001600020600101545b90506000610fce8483611833565b9050610b32858484846110c6565b505050565b6001600160a01b0380831660009081526006602052604081205490911690611008846105f7565b6001600160a01b0385811660008181526006602052604080822080546001600160a01b031916898616908117909155905194955093928616927f3134e8a2e6d97e929a7e54011ea5485d7d196dd5f0ba4d4ef95803e8e3fc257f9190a4610dd3828483610ea1565b600580546001600160a01b038381166001600160a01b0319831681179093556040519116919082907f8be0079c531659141344cd1fd0a4f28419497f9722a3daafe3b4186f6b6457e090600090a35050565b4690565b60006110ea426040518060600160405280603881526020016118ef60389139611221565b905060008411801561113057506001600160a01b0385166000908152600760205260408120829161111c60018861186b565b815260200190815260200160002060000154145b15611173576001600160a01b0385166000908152600760205260408120839161115a60018861186b565b81526020810191909152604001600020600101556111d7565b60408051808201825282815260208082018581526001600160a01b0389166000908152600783528481208982529092529290209051815590516001918201556111bd908590611833565b6001600160a01b0386166000908152600860205260409020555b846001600160a01b03167fdec2bacdd2f05b59de34da9b523dff8be42e5e38e818c82fdb0bae774387a7248484604051611212929190611817565b60405180910390a25050505050565b60008160001984106112465760405162461bcd60e51b81526004016104c4919061141c565b509192915050565b80356001600160a01b03811681146105d357600080fd5b600060208284031215611276578081fd5b6109588261124e565b60008060408385031215611291578081fd5b61129a8361124e565b91506112a86020840161124e565b90509250929050565b6000806000606084860312156112c5578081fd5b6112ce8461124e565b92506112dc6020850161124e565b9150604084013590509250925092565b600080604083850312156112fe578182fd5b6113078361124e565b946020939093013593505050565b60008060008060008060c0878903121561132d578182fd5b6113368761124e565b95506020870135945060408701359350606087013560ff81168114611359578283fd5b9598949750929560808101359460a0909101359350915050565b61190160f01b81526002810192909252602282015260420190565b6001600160a01b0391909116815260200190565b901515815260200190565b90815260200190565b9384526001600160a01b039290921660208401526040830152606082015260800190565b938452602084019290925260408301526001600160a01b0316606082015260800190565b93845260ff9290921660208401526040830152606082015260800190565b6000602080835283518082850152825b818110156114485785810183015185820160400152820161142c565b818111156114595783604083870101525b50601f01601f1916929092016040019392505050565b60208082526023908201527f45524332303a207472616e7366657220746f20746865207a65726f206164647260408201526265737360e81b606082015260800190565b60208082526026908201527f4f776e61626c653a206e6577206f776e657220697320746865207a65726f206160408201526564647265737360d01b606082015260800190565b60208082526022908201527f45524332303a20617070726f766520746f20746865207a65726f206164647265604082015261737360f01b606082015260800190565b60208082526022908201527f534f554c3a3a64656c656761746542795369673a20696e76616c6964206e6f6e604082015261636560f01b606082015260800190565b60208082526026908201527f45524332303a207472616e7366657220616d6f756e7420657863656564732062604082015265616c616e636560d01b606082015260800190565b60208082526026908201527f534f554c3a3a64656c656761746542795369673a20696e76616c6964207369676040820152656e617475726560d01b606082015260800190565b60208082526028908201527f45524332303a207472616e7366657220616d6f756e74206578636565647320616040820152676c6c6f77616e636560c01b606082015260800190565b60208082526027908201527f534f554c3a3a6765745072696f72566f7465733a206e6f742079657420646574604082015266195c9b5a5b995960ca1b606082015260800190565b6020808252818101527f4f776e61626c653a2063616c6c6572206973206e6f7420746865206f776e6572604082015260600190565b60208082526025908201527f45524332303a207472616e736665722066726f6d20746865207a65726f206164604082015264647265737360d81b606082015260800190565b60208082526024908201527f45524332303a20617070726f76652066726f6d20746865207a65726f206164646040820152637265737360e01b606082015260800190565b60208082526026908201527f534f554c3a3a64656c656761746542795369673a207369676e617475726520656040820152651e1c1a5c995960d21b606082015260800190565b60208082526025908201527f45524332303a2064656372656173656420616c6c6f77616e63652062656c6f77604082015264207a65726f60d81b606082015260800190565b6020808252601f908201527f45524332303a206d696e7420746f20746865207a65726f206164647265737300604082015260600190565b918252602082015260400190565b60ff91909116815260200190565b60008219821115611846576118466118d8565b500190565b60008261186657634e487b7160e01b81526012600452602481fd5b500490565b60008282101561187d5761187d6118d8565b500390565b60028104600182168061189657607f821691505b602082108114156118b757634e487b7160e01b600052602260045260246000fd5b50919050565b60006000198214156118d1576118d16118d8565b5060010190565b634e487b7160e01b600052601160045260246000fdfe534f554c3a3a5f7772697465436865636b706f696e743a20626c6f636b2074696d657374616d702065786365656473203235362062697473a26469706673582212202da4d33ef37834ad618f6b633f3e9c55aadb9242c03f13d528d1859a4ed7a3a264736f6c63430008000033",
    "sourcePath": "/Users/unico/Documents/GitHub/SoulSwap/soulswap-farms/contracts/SoulToken.sol",
    "compiler": {
        "name": "solc",
        "version": "0.8.0+commit.c7dfd78e"
    },
    "functionHashes": {
        "DELEGATION_TYPEHASH()": "e7a324dc",
        "DOMAIN_TYPEHASH()": "20606b70",
        "allowance(address,address)": "dd62ed3e",
        "approve(address,uint256)": "095ea7b3",
        "balanceOf(address)": "70a08231",
        "checkpoints(address,uint256)": "0cdfebfa",
        "decimals()": "313ce567",
        "decreaseAllowance(address,uint256)": "a457c2d7",
        "delegate(address)": "5c19a95c",
        "delegateBySig(address,uint256,uint256,uint8,bytes32,bytes32)": "c3cda520",
        "delegates(address)": "587cde1e",
        "getCurrentVotes(address)": "b4b5ea57",
        "getPriorVotes(address,uint256)": "782d6fe1",
        "increaseAllowance(address,uint256)": "39509351",
        "mint(address,uint256)": "40c10f19",
        "name()": "06fdde03",
        "nonces(address)": "7ecebe00",
        "numCheckpoints(address)": "6fcfff45",
        "owner()": "8da5cb5b",
        "renounceOwnership()": "715018a6",
        "symbol()": "95d89b41",
        "totalSupply()": "18160ddd",
        "transfer(address,uint256)": "a9059cbb",
        "transferFrom(address,address,uint256)": "23b872dd",
        "transferOwnership(address)": "f2fde38b"
    },
    "gasEstimates": {
        "creation": {
            "codeDepositCost": "1298400",
            "executionCost": "infinite",
            "totalCost": "infinite"
        },
        "external": {
            "DELEGATION_TYPEHASH()": "316",
            "DOMAIN_TYPEHASH()": "340",
            "allowance(address,address)": "infinite",
            "approve(address,uint256)": "22630",
            "balanceOf(address)": "1296",
            "checkpoints(address,uint256)": "2246",
            "decimals()": "263",
            "decreaseAllowance(address,uint256)": "infinite",
            "delegate(address)": "infinite",
            "delegateBySig(address,uint256,uint256,uint8,bytes32,bytes32)": "infinite",
            "delegates(address)": "infinite",
            "getCurrentVotes(address)": "infinite",
            "getPriorVotes(address,uint256)": "infinite",
            "increaseAllowance(address,uint256)": "infinite",
            "mint(address,uint256)": "infinite",
            "name()": "infinite",
            "nonces(address)": "1341",
            "numCheckpoints(address)": "1385",
            "owner()": "1181",
            "renounceOwnership()": "23552",
            "symbol()": "infinite",
            "totalSupply()": "1118",
            "transfer(address,uint256)": "infinite",
            "transferFrom(address,address,uint256)": "infinite",
            "transferOwnership(address)": "23812"
        },
        "internal": {
            "_delegate(address,address)": "infinite",
            "_moveDelegates(address,address,uint256)": "infinite",
            "_writeCheckpoint(address,uint256,uint256,uint256)": "infinite",
            "getChainId()": "14",
            "safe256(uint256,string memory)": "infinite"
        }
    }
}