{
    "contractName": "SoulSummoner",
    "abi": [
        {
            "inputs": [],
            "stateMutability": "nonpayable",
            "type": "constructor"
        },
        {
            "anonymous": false,
            "inputs": [
                {
                    "indexed": false,
                    "internalType": "address",
                    "name": "dao",
                    "type": "address"
                },
                {
                    "indexed": false,
                    "internalType": "address",
                    "name": "team",
                    "type": "address"
                },
                {
                    "indexed": false,
                    "internalType": "address",
                    "name": "admin",
                    "type": "address"
                }
            ],
            "name": "AccountsUpdated",
            "type": "event"
        },
        {
            "anonymous": false,
            "inputs": [
                {
                    "indexed": true,
                    "internalType": "address",
                    "name": "user",
                    "type": "address"
                },
                {
                    "indexed": true,
                    "internalType": "uint256",
                    "name": "pid",
                    "type": "uint256"
                },
                {
                    "indexed": false,
                    "internalType": "uint256",
                    "name": "amount",
                    "type": "uint256"
                }
            ],
            "name": "Deposit",
            "type": "event"
        },
        {
            "anonymous": false,
            "inputs": [
                {
                    "indexed": false,
                    "internalType": "uint256",
                    "name": "_pid",
                    "type": "uint256"
                },
                {
                    "indexed": false,
                    "internalType": "address",
                    "name": "_user",
                    "type": "address"
                },
                {
                    "indexed": false,
                    "internalType": "uint256",
                    "name": "_time",
                    "type": "uint256"
                }
            ],
            "name": "DepositRevised",
            "type": "event"
        },
        {
            "anonymous": false,
            "inputs": [
                {
                    "indexed": false,
                    "internalType": "address",
                    "name": "team",
                    "type": "address"
                },
                {
                    "indexed": false,
                    "internalType": "address",
                    "name": "dao",
                    "type": "address"
                },
                {
                    "indexed": false,
                    "internalType": "address",
                    "name": "soul",
                    "type": "address"
                },
                {
                    "indexed": false,
                    "internalType": "address",
                    "name": "seance",
                    "type": "address"
                },
                {
                    "indexed": false,
                    "internalType": "uint256",
                    "name": "totalAllocPoint",
                    "type": "uint256"
                },
                {
                    "indexed": false,
                    "internalType": "uint256",
                    "name": "weight",
                    "type": "uint256"
                }
            ],
            "name": "Initialized",
            "type": "event"
        },
        {
            "anonymous": false,
            "inputs": [
                {
                    "indexed": false,
                    "internalType": "address",
                    "name": "account",
                    "type": "address"
                }
            ],
            "name": "Paused",
            "type": "event"
        },
        {
            "anonymous": false,
            "inputs": [
                {
                    "indexed": false,
                    "internalType": "uint256",
                    "name": "pid",
                    "type": "uint256"
                },
                {
                    "indexed": false,
                    "internalType": "uint256",
                    "name": "allocPoint",
                    "type": "uint256"
                },
                {
                    "indexed": false,
                    "internalType": "contract IERC20",
                    "name": "lpToken",
                    "type": "address"
                },
                {
                    "indexed": false,
                    "internalType": "uint256",
                    "name": "totalAllocPoint",
                    "type": "uint256"
                }
            ],
            "name": "PoolAdded",
            "type": "event"
        },
        {
            "anonymous": false,
            "inputs": [
                {
                    "indexed": false,
                    "internalType": "uint256",
                    "name": "pid",
                    "type": "uint256"
                },
                {
                    "indexed": false,
                    "internalType": "uint256",
                    "name": "allocPoint",
                    "type": "uint256"
                }
            ],
            "name": "PoolSet",
            "type": "event"
        },
        {
            "anonymous": false,
            "inputs": [
                {
                    "indexed": false,
                    "internalType": "uint256",
                    "name": "dailySoul",
                    "type": "uint256"
                },
                {
                    "indexed": false,
                    "internalType": "uint256",
                    "name": "soulPerSecond",
                    "type": "uint256"
                }
            ],
            "name": "RewardsUpdated",
            "type": "event"
        },
        {
            "anonymous": false,
            "inputs": [
                {
                    "indexed": true,
                    "internalType": "bytes32",
                    "name": "role",
                    "type": "bytes32"
                },
                {
                    "indexed": true,
                    "internalType": "bytes32",
                    "name": "previousAdminRole",
                    "type": "bytes32"
                },
                {
                    "indexed": true,
                    "internalType": "bytes32",
                    "name": "newAdminRole",
                    "type": "bytes32"
                }
            ],
            "name": "RoleAdminChanged",
            "type": "event"
        },
        {
            "anonymous": false,
            "inputs": [
                {
                    "indexed": false,
                    "internalType": "bytes32",
                    "name": "role",
                    "type": "bytes32"
                },
                {
                    "indexed": false,
                    "internalType": "bytes32",
                    "name": "supreme",
                    "type": "bytes32"
                }
            ],
            "name": "RoleDivinated",
            "type": "event"
        },
        {
            "anonymous": false,
            "inputs": [
                {
                    "indexed": true,
                    "internalType": "bytes32",
                    "name": "role",
                    "type": "bytes32"
                },
                {
                    "indexed": true,
                    "internalType": "address",
                    "name": "account",
                    "type": "address"
                },
                {
                    "indexed": true,
                    "internalType": "address",
                    "name": "sender",
                    "type": "address"
                }
            ],
            "name": "RoleGranted",
            "type": "event"
        },
        {
            "anonymous": false,
            "inputs": [
                {
                    "indexed": true,
                    "internalType": "bytes32",
                    "name": "role",
                    "type": "bytes32"
                },
                {
                    "indexed": true,
                    "internalType": "address",
                    "name": "account",
                    "type": "address"
                },
                {
                    "indexed": true,
                    "internalType": "address",
                    "name": "sender",
                    "type": "address"
                }
            ],
            "name": "RoleRevoked",
            "type": "event"
        },
        {
            "anonymous": false,
            "inputs": [
                {
                    "indexed": false,
                    "internalType": "uint256",
                    "name": "startRate",
                    "type": "uint256"
                }
            ],
            "name": "StartRateUpdated",
            "type": "event"
        },
        {
            "anonymous": false,
            "inputs": [
                {
                    "indexed": false,
                    "internalType": "address",
                    "name": "soul",
                    "type": "address"
                },
                {
                    "indexed": false,
                    "internalType": "address",
                    "name": "seance",
                    "type": "address"
                }
            ],
            "name": "TokensUpdated",
            "type": "event"
        },
        {
            "anonymous": false,
            "inputs": [
                {
                    "indexed": false,
                    "internalType": "address",
                    "name": "account",
                    "type": "address"
                }
            ],
            "name": "Unpaused",
            "type": "event"
        },
        {
            "anonymous": false,
            "inputs": [
                {
                    "indexed": false,
                    "internalType": "uint256",
                    "name": "weight",
                    "type": "uint256"
                },
                {
                    "indexed": false,
                    "internalType": "uint256",
                    "name": "totalWeight",
                    "type": "uint256"
                }
            ],
            "name": "WeightUpdated",
            "type": "event"
        },
        {
            "anonymous": false,
            "inputs": [
                {
                    "indexed": true,
                    "internalType": "address",
                    "name": "user",
                    "type": "address"
                },
                {
                    "indexed": true,
                    "internalType": "uint256",
                    "name": "pid",
                    "type": "uint256"
                },
                {
                    "indexed": false,
                    "internalType": "uint256",
                    "name": "amount",
                    "type": "uint256"
                },
                {
                    "indexed": false,
                    "internalType": "uint256",
                    "name": "timeStamp",
                    "type": "uint256"
                }
            ],
            "name": "Withdraw",
            "type": "event"
        },
        {
            "inputs": [],
            "name": "DEFAULT_ADMIN_ROLE",
            "outputs": [
                {
                    "internalType": "bytes32",
                    "name": "",
                    "type": "bytes32"
                }
            ],
            "stateMutability": "view",
            "type": "function"
        },
        {
            "inputs": [
                {
                    "internalType": "uint256",
                    "name": "_allocPoint",
                    "type": "uint256"
                },
                {
                    "internalType": "contract IERC20",
                    "name": "_lpToken",
                    "type": "address"
                },
                {
                    "internalType": "bool",
                    "name": "_withUpdate",
                    "type": "bool"
                }
            ],
            "name": "addPool",
            "outputs": [],
            "stateMutability": "nonpayable",
            "type": "function"
        },
        {
            "inputs": [],
            "name": "bonusMultiplier",
            "outputs": [
                {
                    "internalType": "uint256",
                    "name": "",
                    "type": "uint256"
                }
            ],
            "stateMutability": "view",
            "type": "function"
        },
        {
            "inputs": [],
            "name": "dailyDecay",
            "outputs": [
                {
                    "internalType": "uint256",
                    "name": "",
                    "type": "uint256"
                }
            ],
            "stateMutability": "view",
            "type": "function"
        },
        {
            "inputs": [],
            "name": "dailySoul",
            "outputs": [
                {
                    "internalType": "uint256",
                    "name": "",
                    "type": "uint256"
                }
            ],
            "stateMutability": "view",
            "type": "function"
        },
        {
            "inputs": [],
            "name": "dao",
            "outputs": [
                {
                    "internalType": "address",
                    "name": "",
                    "type": "address"
                }
            ],
            "stateMutability": "view",
            "type": "function"
        },
        {
            "inputs": [
                {
                    "internalType": "uint256",
                    "name": "pid",
                    "type": "uint256"
                },
                {
                    "internalType": "uint256",
                    "name": "amount",
                    "type": "uint256"
                }
            ],
            "name": "deposit",
            "outputs": [],
            "stateMutability": "nonpayable",
            "type": "function"
        },
        {
            "inputs": [
                {
                    "internalType": "uint256",
                    "name": "amount",
                    "type": "uint256"
                }
            ],
            "name": "enWei",
            "outputs": [
                {
                    "internalType": "uint256",
                    "name": "",
                    "type": "uint256"
                }
            ],
            "stateMutability": "pure",
            "type": "function"
        },
        {
            "inputs": [
                {
                    "internalType": "uint256",
                    "name": "amount",
                    "type": "uint256"
                }
            ],
            "name": "enterStaking",
            "outputs": [],
            "stateMutability": "nonpayable",
            "type": "function"
        },
        {
            "inputs": [
                {
                    "internalType": "uint256",
                    "name": "amount",
                    "type": "uint256"
                }
            ],
            "name": "fromWei",
            "outputs": [
                {
                    "internalType": "uint256",
                    "name": "",
                    "type": "uint256"
                }
            ],
            "stateMutability": "pure",
            "type": "function"
        },
        {
            "inputs": [
                {
                    "internalType": "uint256",
                    "name": "pid",
                    "type": "uint256"
                },
                {
                    "internalType": "uint256",
                    "name": "timeDelta",
                    "type": "uint256"
                }
            ],
            "name": "getFeeRate",
            "outputs": [
                {
                    "internalType": "uint256",
                    "name": "feeRate",
                    "type": "uint256"
                }
            ],
            "stateMutability": "view",
            "type": "function"
        },
        {
            "inputs": [
                {
                    "internalType": "uint256",
                    "name": "from",
                    "type": "uint256"
                },
                {
                    "internalType": "uint256",
                    "name": "to",
                    "type": "uint256"
                }
            ],
            "name": "getMultiplier",
            "outputs": [
                {
                    "internalType": "uint256",
                    "name": "",
                    "type": "uint256"
                }
            ],
            "stateMutability": "view",
            "type": "function"
        },
        {
            "inputs": [
                {
                    "internalType": "bytes32",
                    "name": "role",
                    "type": "bytes32"
                }
            ],
            "name": "getRoleAdmin",
            "outputs": [
                {
                    "internalType": "bytes32",
                    "name": "",
                    "type": "bytes32"
                }
            ],
            "stateMutability": "view",
            "type": "function"
        },
        {
            "inputs": [
                {
                    "internalType": "uint256",
                    "name": "pid",
                    "type": "uint256"
                },
                {
                    "internalType": "uint256",
                    "name": "timeDelta",
                    "type": "uint256"
                },
                {
                    "internalType": "uint256",
                    "name": "amount",
                    "type": "uint256"
                }
            ],
            "name": "getWithdrawable",
            "outputs": [
                {
                    "internalType": "uint256",
                    "name": "_feeAmount",
                    "type": "uint256"
                },
                {
                    "internalType": "uint256",
                    "name": "_withdrawable",
                    "type": "uint256"
                }
            ],
            "stateMutability": "view",
            "type": "function"
        },
        {
            "inputs": [
                {
                    "internalType": "bytes32",
                    "name": "role",
                    "type": "bytes32"
                },
                {
                    "internalType": "address",
                    "name": "account",
                    "type": "address"
                }
            ],
            "name": "grantRole",
            "outputs": [],
            "stateMutability": "nonpayable",
            "type": "function"
        },
        {
            "inputs": [
                {
                    "internalType": "bytes32",
                    "name": "role",
                    "type": "bytes32"
                },
                {
                    "internalType": "address",
                    "name": "account",
                    "type": "address"
                }
            ],
            "name": "hasRole",
            "outputs": [
                {
                    "internalType": "bool",
                    "name": "",
                    "type": "bool"
                }
            ],
            "stateMutability": "view",
            "type": "function"
        },
        {
            "inputs": [
                {
                    "internalType": "uint256",
                    "name": "_totalWeight",
                    "type": "uint256"
                },
                {
                    "internalType": "uint256",
                    "name": "_weight",
                    "type": "uint256"
                },
                {
                    "internalType": "uint256",
                    "name": "_stakingAlloc",
                    "type": "uint256"
                },
                {
                    "internalType": "uint256",
                    "name": "_startRate",
                    "type": "uint256"
                }
            ],
            "name": "initialize",
            "outputs": [],
            "stateMutability": "nonpayable",
            "type": "function"
        },
        {
            "inputs": [],
            "name": "isInitialized",
            "outputs": [
                {
                    "internalType": "bool",
                    "name": "",
                    "type": "bool"
                }
            ],
            "stateMutability": "view",
            "type": "function"
        },
        {
            "inputs": [],
            "name": "isis",
            "outputs": [
                {
                    "internalType": "bytes32",
                    "name": "",
                    "type": "bytes32"
                }
            ],
            "stateMutability": "view",
            "type": "function"
        },
        {
            "inputs": [
                {
                    "internalType": "uint256",
                    "name": "amount",
                    "type": "uint256"
                }
            ],
            "name": "leaveStaking",
            "outputs": [],
            "stateMutability": "nonpayable",
            "type": "function"
        },
        {
            "inputs": [],
            "name": "maat",
            "outputs": [
                {
                    "internalType": "bytes32",
                    "name": "",
                    "type": "bytes32"
                }
            ],
            "stateMutability": "view",
            "type": "function"
        },
        {
            "inputs": [],
            "name": "massUpdatePools",
            "outputs": [],
            "stateMutability": "nonpayable",
            "type": "function"
        },
        {
            "inputs": [
                {
                    "internalType": "uint256",
                    "name": "pid",
                    "type": "uint256"
                }
            ],
            "name": "migrate",
            "outputs": [],
            "stateMutability": "nonpayable",
            "type": "function"
        },
        {
            "inputs": [],
            "name": "migrator",
            "outputs": [
                {
                    "internalType": "contract IMigrator",
                    "name": "",
                    "type": "address"
                }
            ],
            "stateMutability": "view",
            "type": "function"
        },
        {
            "inputs": [],
            "name": "paused",
            "outputs": [
                {
                    "internalType": "bool",
                    "name": "",
                    "type": "bool"
                }
            ],
            "stateMutability": "view",
            "type": "function"
        },
        {
            "inputs": [
                {
                    "internalType": "uint256",
                    "name": "pid",
                    "type": "uint256"
                },
                {
                    "internalType": "address",
                    "name": "_user",
                    "type": "address"
                }
            ],
            "name": "pendingSoul",
            "outputs": [
                {
                    "internalType": "uint256",
                    "name": "pendingAmount",
                    "type": "uint256"
                }
            ],
            "stateMutability": "view",
            "type": "function"
        },
        {
            "inputs": [
                {
                    "internalType": "uint256",
                    "name": "",
                    "type": "uint256"
                }
            ],
            "name": "poolInfo",
            "outputs": [
                {
                    "internalType": "contract IERC20",
                    "name": "lpToken",
                    "type": "address"
                },
                {
                    "internalType": "uint256",
                    "name": "allocPoint",
                    "type": "uint256"
                },
                {
                    "internalType": "uint256",
                    "name": "lastRewardTime",
                    "type": "uint256"
                },
                {
                    "internalType": "uint256",
                    "name": "accSoulPerShare",
                    "type": "uint256"
                }
            ],
            "stateMutability": "view",
            "type": "function"
        },
        {
            "inputs": [],
            "name": "poolLength",
            "outputs": [
                {
                    "internalType": "uint256",
                    "name": "",
                    "type": "uint256"
                }
            ],
            "stateMutability": "view",
            "type": "function"
        },
        {
            "inputs": [
                {
                    "internalType": "bytes32",
                    "name": "role",
                    "type": "bytes32"
                },
                {
                    "internalType": "address",
                    "name": "account",
                    "type": "address"
                }
            ],
            "name": "renounceRole",
            "outputs": [],
            "stateMutability": "nonpayable",
            "type": "function"
        },
        {
            "inputs": [
                {
                    "internalType": "uint256",
                    "name": "_pid",
                    "type": "uint256"
                },
                {
                    "internalType": "address",
                    "name": "_user",
                    "type": "address"
                },
                {
                    "internalType": "uint256",
                    "name": "_time",
                    "type": "uint256"
                }
            ],
            "name": "reviseDeposit",
            "outputs": [],
            "stateMutability": "nonpayable",
            "type": "function"
        },
        {
            "inputs": [
                {
                    "internalType": "bytes32",
                    "name": "role",
                    "type": "bytes32"
                },
                {
                    "internalType": "address",
                    "name": "account",
                    "type": "address"
                }
            ],
            "name": "revokeRole",
            "outputs": [],
            "stateMutability": "nonpayable",
            "type": "function"
        },
        {
            "inputs": [],
            "name": "seance",
            "outputs": [
                {
                    "internalType": "contract SeanceCircle",
                    "name": "",
                    "type": "address"
                }
            ],
            "stateMutability": "view",
            "type": "function"
        },
        {
            "inputs": [
                {
                    "internalType": "uint256",
                    "name": "pid",
                    "type": "uint256"
                },
                {
                    "internalType": "uint256",
                    "name": "allocPoint",
                    "type": "uint256"
                },
                {
                    "internalType": "bool",
                    "name": "withUpdate",
                    "type": "bool"
                }
            ],
            "name": "set",
            "outputs": [],
            "stateMutability": "nonpayable",
            "type": "function"
        },
        {
            "inputs": [
                {
                    "internalType": "contract IMigrator",
                    "name": "_migrator",
                    "type": "address"
                }
            ],
            "name": "setMigrator",
            "outputs": [],
            "stateMutability": "nonpayable",
            "type": "function"
        },
        {
            "inputs": [],
            "name": "soul",
            "outputs": [
                {
                    "internalType": "contract SoulPower",
                    "name": "",
                    "type": "address"
                }
            ],
            "stateMutability": "view",
            "type": "function"
        },
        {
            "inputs": [],
            "name": "soulPerSecond",
            "outputs": [
                {
                    "internalType": "uint256",
                    "name": "",
                    "type": "uint256"
                }
            ],
            "stateMutability": "view",
            "type": "function"
        },
        {
            "inputs": [],
            "name": "startRate",
            "outputs": [
                {
                    "internalType": "uint256",
                    "name": "",
                    "type": "uint256"
                }
            ],
            "stateMutability": "view",
            "type": "function"
        },
        {
            "inputs": [],
            "name": "startTime",
            "outputs": [
                {
                    "internalType": "uint256",
                    "name": "",
                    "type": "uint256"
                }
            ],
            "stateMutability": "view",
            "type": "function"
        },
        {
            "inputs": [
                {
                    "internalType": "bytes4",
                    "name": "interfaceId",
                    "type": "bytes4"
                }
            ],
            "name": "supportsInterface",
            "outputs": [
                {
                    "internalType": "bool",
                    "name": "",
                    "type": "bool"
                }
            ],
            "stateMutability": "view",
            "type": "function"
        },
        {
            "inputs": [],
            "name": "supreme",
            "outputs": [
                {
                    "internalType": "address",
                    "name": "",
                    "type": "address"
                }
            ],
            "stateMutability": "view",
            "type": "function"
        },
        {
            "inputs": [],
            "name": "team",
            "outputs": [
                {
                    "internalType": "address",
                    "name": "",
                    "type": "address"
                }
            ],
            "stateMutability": "view",
            "type": "function"
        },
        {
            "inputs": [],
            "name": "totalAllocPoint",
            "outputs": [
                {
                    "internalType": "uint256",
                    "name": "",
                    "type": "uint256"
                }
            ],
            "stateMutability": "view",
            "type": "function"
        },
        {
            "inputs": [],
            "name": "totalWeight",
            "outputs": [
                {
                    "internalType": "uint256",
                    "name": "",
                    "type": "uint256"
                }
            ],
            "stateMutability": "view",
            "type": "function"
        },
        {
            "inputs": [
                {
                    "internalType": "address",
                    "name": "_dao",
                    "type": "address"
                },
                {
                    "internalType": "address",
                    "name": "_team",
                    "type": "address"
                },
                {
                    "internalType": "address",
                    "name": "_supreme",
                    "type": "address"
                }
            ],
            "name": "updateAccounts",
            "outputs": [],
            "stateMutability": "nonpayable",
            "type": "function"
        },
        {
            "inputs": [
                {
                    "internalType": "uint256",
                    "name": "_bonusMultiplier",
                    "type": "uint256"
                }
            ],
            "name": "updateMultiplier",
            "outputs": [],
            "stateMutability": "nonpayable",
            "type": "function"
        },
        {
            "inputs": [
                {
                    "internalType": "uint256",
                    "name": "pid",
                    "type": "uint256"
                }
            ],
            "name": "updatePool",
            "outputs": [],
            "stateMutability": "nonpayable",
            "type": "function"
        },
        {
            "inputs": [
                {
                    "internalType": "uint256",
                    "name": "_startRate",
                    "type": "uint256"
                }
            ],
            "name": "updateStartRate",
            "outputs": [],
            "stateMutability": "nonpayable",
            "type": "function"
        },
        {
            "inputs": [
                {
                    "internalType": "address",
                    "name": "_soul",
                    "type": "address"
                },
                {
                    "internalType": "address",
                    "name": "_seance",
                    "type": "address"
                }
            ],
            "name": "updateTokens",
            "outputs": [],
            "stateMutability": "nonpayable",
            "type": "function"
        },
        {
            "inputs": [
                {
                    "internalType": "uint256",
                    "name": "_weight",
                    "type": "uint256"
                },
                {
                    "internalType": "uint256",
                    "name": "_totalWeight",
                    "type": "uint256"
                }
            ],
            "name": "updateWeights",
            "outputs": [],
            "stateMutability": "nonpayable",
            "type": "function"
        },
        {
            "inputs": [
                {
                    "internalType": "uint256",
                    "name": "_pid",
                    "type": "uint256"
                },
                {
                    "internalType": "address",
                    "name": "_user",
                    "type": "address"
                }
            ],
            "name": "userDelta",
            "outputs": [
                {
                    "internalType": "uint256",
                    "name": "delta",
                    "type": "uint256"
                }
            ],
            "stateMutability": "view",
            "type": "function"
        },
        {
            "inputs": [
                {
                    "internalType": "uint256",
                    "name": "",
                    "type": "uint256"
                },
                {
                    "internalType": "address",
                    "name": "",
                    "type": "address"
                }
            ],
            "name": "userInfo",
            "outputs": [
                {
                    "internalType": "uint256",
                    "name": "amount",
                    "type": "uint256"
                },
                {
                    "internalType": "uint256",
                    "name": "rewardDebt",
                    "type": "uint256"
                },
                {
                    "internalType": "uint256",
                    "name": "rewardDebtAtTime",
                    "type": "uint256"
                },
                {
                    "internalType": "uint256",
                    "name": "lastWithdrawTime",
                    "type": "uint256"
                },
                {
                    "internalType": "uint256",
                    "name": "firstDepositTime",
                    "type": "uint256"
                },
                {
                    "internalType": "uint256",
                    "name": "timeDelta",
                    "type": "uint256"
                },
                {
                    "internalType": "uint256",
                    "name": "lastDepositTime",
                    "type": "uint256"
                }
            ],
            "stateMutability": "view",
            "type": "function"
        },
        {
            "inputs": [],
            "name": "weight",
            "outputs": [
                {
                    "internalType": "uint256",
                    "name": "",
                    "type": "uint256"
                }
            ],
            "stateMutability": "view",
            "type": "function"
        },
        {
            "inputs": [
                {
                    "internalType": "uint256",
                    "name": "pid",
                    "type": "uint256"
                },
                {
                    "internalType": "uint256",
                    "name": "amount",
                    "type": "uint256"
                }
            ],
            "name": "withdraw",
            "outputs": [],
            "stateMutability": "nonpayable",
            "type": "function"
        }
    ],
    "bytecode": "60a06040526001600f556200001b60016200014660201b60201c565b6080523480156200002b57600080fd5b506001805460ff19168155600255600980546001600160a01b03199081167381dd37687c74df8f957a370a9a4435d873f5e5a917918290556007805482167336d0164e87b58427c4153c089aedda8ec0b80b9d17905560088054909116731c63c726926197bd3cb75d86bcfb1daebcd872501790557f36d5d8406f8379c6deba01145ec4f6a2966675cc67d71355b397a2a8e3572b296016557f0811b25c145e1379dc78112dd91057f09150f6db05dfd7e04deb910e6cefd4b7601755620001019060009081906001600160a01b031662000162565b506016546009546200011f919081906001600160a01b031662000162565b506017546016546008546200013f9291906001600160a01b031662000162565b50620002e3565b60006200015c82670de0b6b3a7640000620002b7565b92915050565b600062000170848362000186565b6200017c848462000196565b5060019392505050565b620001928282620001eb565b5050565b6000620001a38362000275565b600084815260208190526040808220600101859055519192508391839186917fbd79b86ffe0ab8e8776151514217cd7cacd52c909f66475c3af44e129f0b00ff9190a4505050565b620001f782826200028a565b62000192576000828152602081815260408083206001600160a01b03851684529091529020805460ff1916600117905562000231620002b3565b6001600160a01b0316816001600160a01b0316837f2f8788117e7eff1d82e926ec794901d17c78024a50270940304540a733656f0d60405160405180910390a45050565b60009081526020819052604090206001015490565b6000918252602082815260408084206001600160a01b0393909316845291905290205460ff1690565b3390565b6000816000190483118215151615620002de57634e487b7160e01b81526011600452602481fd5b500290565b60805161345c620002ff6000396000612438015261345c6000f3fe608060405234801561001057600080fd5b50600436106103275760003560e01c80637abceffd116101b8578063a217fddf11610104578063e65d1522116100a2578063f107fd851161007c578063f107fd8514610656578063fb39d1e314610669578063fc90fdc01461067c578063fd6f99d01461068457610327565b8063e65d152214610628578063e7aa29e31461063b578063ea4bf4461461064e57610327565b8063cf94ee96116100de578063cf94ee96146105dc578063d547741f146105ef578063e2bbb15814610602578063e40903311461061557610327565b8063a217fddf146105b9578063a8b973a1146105c1578063bfafcad5146105c957610327565b806385f2aef21161017157806393f1a40b1161014b57806393f1a40b1461057057806396c82e57146105965780639f6c54261461059e578063a1aab33f146105b157610327565b806385f2aef2146105425780638dbb1e3a1461054a57806391d148541461055d57610327565b80637abceffd146104e35780637cd07e47146104f65780637d500ec8146104fe5780637e668b4214610506578063815b7a8c1461052757806382386d581461052f57610327565b8063441a3e70116102775780635c975abb1161023057806360a2da441161020a57806360a2da44146104ad578063630b5ba1146104c057806364482f79146104c857806378e97925146104db57610327565b80635c975abb1461048a5780635f9bf689146104925780635ffe61461461049a57610327565b8063441a3e701461042e578063454b06081461044157806348f8bfea146104545780634a9628291461045c5780634ca01d451461046f57806351eb05a61461047757610327565b806323cf3118116102e457806336568abe116102be57806336568abe146103eb578063392e53cd146103fe57806341441d3b146104065780634162169f1461041957610327565b806323cf3118146103b2578063248a9ca3146103c55780632f2ff15d146103d857610327565b806301ffc9a71461032c578063081e3eda146103555780631058d2811461036a5780631254f0dc1461037f5780631526fe271461038757806317caf6f1146103aa575b600080fd5b61033f61033a366004612bce565b61068c565b60405161034c9190612e9a565b60405180910390f35b61035d6106b7565b60405161034c9190612ea5565b61037d610378366004612b92565b6106bd565b005b61035d61093f565b61039a610395366004612b92565b610945565b60405161034c9493929190612eae565b61035d610989565b61037d6103c0366004612c12565b61098f565b61035d6103d3366004612b92565b6109e8565b61037d6103e6366004612baa565b6109fd565b61037d6103f9366004612baa565b610a21565b61033f610a67565b61037d610414366004612b92565b610a70565b610421610d06565b60405161034c9190612dd2565b61037d61043c366004612cb3565b610d15565b61037d61044f366004612b92565b611047565b610421611331565b61037d61046a366004612b92565b611340565b6104216113ae565b61037d610485366004612b92565b6113bd565b61033f6116b8565b61035d6116c1565b61037d6104a8366004612b92565b6116c7565b61037d6104bb366004612d2c565b6116dc565b61037d611940565b61037d6104d6366004612cd4565b611967565b61035d611a93565b61037d6104f1366004612c7d565b611a99565b610421611ae4565b61035d611af3565b610519610514366004612d01565b611af9565b60405161034c9291906132bc565b610421611b42565b61037d61053d366004612c46565b611b51565b610421611bcd565b61035d610558366004612cb3565b611bdc565b61033f61056b366004612baa565b611bfd565b61058361057e366004612baa565b611c26565b60405161034c97969594939291906132ee565b61035d611c75565b61035d6105ac366004612cb3565b611c7b565b61035d611ce9565b61035d611cef565b61035d611cf4565b61035d6105d7366004612baa565b611cfa565b61035d6105ea366004612b92565b611e8b565b61037d6105fd366004612baa565b611e9f565b61037d610610366004612cb3565b611ebe565b61037d610623366004612b2c565b61211b565b61035d610636366004612b92565b612210565b61037d610649366004612af4565b612224565b61035d6122e9565b61037d610664366004612cb3565b6122ef565b61035d610677366004612baa565b612396565b61035d612436565b61035d61245a565b60006001600160e01b03198216637965db0b60e01b14806106b157506106b182612460565b92915050565b60145490565b6002805414156106e85760405162461bcd60e51b81526004016106df90613174565b60405180910390fd5b600280819055506000601460008154811061071357634e487b7160e01b600052603260045260246000fd5b600091825260208083203384527fa31547ce6245cdb9ecea19cf8c7eb9f5974025bb4075011409251ae855b30aed90915260409092208054600490920290920192508311156107745760405162461bcd60e51b81526004016106df906130f4565b61077e60006113bd565b6000816001015464e8d4a510008460030154846000015461079f9190613356565b6107a99190613336565b6107b39190613375565b905080156107c5576107c53382612479565b831561085f5781546107d8908590613375565b8255825460405163a9059cbb60e01b81526001600160a01b039091169063a9059cbb9061080b9033908890600401612e81565b602060405180830381600087803b15801561082557600080fd5b505af1158015610839573d6000803e3d6000fd5b505050506040513d601f19601f8201168201806040525081019061085d9190612b76565b505b6003830154825464e8d4a510009161087691613356565b6108809190613336565b6001830155426003830155600654604051632770a7eb60e21b81526001600160a01b0390911690639dc29fac906108bd9033908890600401612e81565b600060405180830381600087803b1580156108d757600080fd5b505af11580156108eb573d6000803e3d6000fd5b505050506000336001600160a01b03167f02f25270a4d87bea75db541cdfe559334a275b4a233520ed6c0a2429667cca94864260405161092c9291906132bc565b60405180910390a3505060016002555050565b60135481565b6014818154811061095557600080fd5b600091825260209091206004909102018054600182015460028301546003909301546001600160a01b039092169350919084565b60115481565b60125460ff166109b15760405162461bcd60e51b81526004016106df90613231565b6016546109c5816109c06124e1565b6124e5565b50600a80546001600160a01b0319166001600160a01b0392909216919091179055565b60009081526020819052604090206001015490565b610a06826109e8565b610a12816109c06124e1565b610a1c8383612549565b505050565b610a296124e1565b6001600160a01b0316816001600160a01b031614610a595760405162461bcd60e51b81526004016106df906131ab565b610a6382826125ce565b5050565b60125460ff1681565b600280541415610a925760405162461bcd60e51b81526004016106df90613174565b60028055610a9e6116b8565b15610abb5760405162461bcd60e51b81526004016106df90612f73565b60006014600081548110610adf57634e487b7160e01b600052603260045260246000fd5b600091825260208083203384527fa31547ce6245cdb9ecea19cf8c7eb9f5974025bb4075011409251ae855b30aed90915260408320600490920201925090610b26906113bd565b805415610b76576000816001015464e8d4a5100084600301548460000154610b4e9190613356565b610b589190613336565b610b629190613375565b90508015610b7457610b743382612479565b505b8215610c125781546040516323b872dd60e01b81526001600160a01b03909116906323b872dd90610baf90339030908890600401612e5d565b602060405180830381600087803b158015610bc957600080fd5b505af1158015610bdd573d6000803e3d6000fd5b505050506040513d601f19601f82011682018060405250810190610c019190612b76565b508054610c0f90849061331e565b81555b6000816004015411610c245742610c2a565b80600401545b60048201556003820154815464e8d4a5100091610c4691613356565b610c509190613336565b60018201556006546040516340c10f1960e01b81526001600160a01b03909116906340c10f1990610c879033908790600401612e81565b600060405180830381600087803b158015610ca157600080fd5b505af1158015610cb5573d6000803e3d6000fd5b505050506000336001600160a01b03167f90890809c654f11d6e72a28fa60149770a0d11ec6c92319d6ceb2bb0a4ea1a1585604051610cf49190612ea5565b60405180910390a35050600160025550565b6008546001600160a01b031681565b600280541415610d375760405162461bcd60e51b81526004016106df90613174565b6002805560145482908110610d5e5760405162461bcd60e51b81526004016106df906130c7565b82610d7b5760405162461bcd60e51b81526004016106df90612ff3565b600060148481548110610d9e57634e487b7160e01b600052603260045260246000fd5b600091825260208083208784526015825260408085203386529092529220805460049092029092019250841115610de75760405162461bcd60e51b81526004016106df90613120565b610df0856113bd565b6000816001015464e8d4a5100084600301548460000154610e119190613356565b610e1b9190613336565b610e259190613375565b90508015610e3757610e373382612479565b8415610e8557600682015415610e60576006820154610e569042613375565b6005830155610e75565b6004820154610e6f9042613375565b60058301555b8154610e82908690613375565b82555b600086815260156020908152604080832033845290915281206005015490610eae888389611af9565b915060009050610ebe8289613375565b865460085460405163a9059cbb60e01b81529293506001600160a01b039182169263a9059cbb92610ef59216908590600401612e81565b602060405180830381600087803b158015610f0f57600080fd5b505af1158015610f23573d6000803e3d6000fd5b505050506040513d601f19601f82011682018060405250810190610f479190612b76565b50855460405163a9059cbb60e01b81526001600160a01b039091169063a9059cbb90610f799033908690600401612e81565b602060405180830381600087803b158015610f9357600080fd5b505af1158015610fa7573d6000803e3d6000fd5b505050506040513d601f19601f82011682018060405250810190610fcb9190612b76565b506003860154855464e8d4a5100091610fe391613356565b610fed9190613336565b600186015542600386018190556040518a9133917f02f25270a4d87bea75db541cdfe559334a275b4a233520ed6c0a2429667cca949161102f918d91906132bc565b60405180910390a35050600160025550505050505050565b60125460ff166110695760405162461bcd60e51b81526004016106df90613231565b6014548190811061108c5760405162461bcd60e51b81526004016106df906130c7565b600a546001600160a01b03166110b45760405162461bcd60e51b81526004016106df90612fca565b6000601483815481106110d757634e487b7160e01b600052603260045260246000fd5b60009182526020822060049182020180546040516370a0823160e01b81529194506001600160a01b0316929183916370a082319161111791309101612dd2565b60206040518083038186803b15801561112f57600080fd5b505afa158015611143573d6000803e3d6000fd5b505050506040513d601f19601f820116820180604052508101906111679190612c2e565b600a5460405163095ea7b360e01b81529192506001600160a01b038085169263095ea7b39261119c9216908590600401612e81565b602060405180830381600087803b1580156111b657600080fd5b505af11580156111ca573d6000803e3d6000fd5b505050506040513d601f19601f820116820180604052508101906111ee9190612b76565b50600a5460405163ce5494bb60e01b81526000916001600160a01b03169063ce5494bb90611220908690600401612dd2565b602060405180830381600087803b15801561123a57600080fd5b505af115801561124e573d6000803e3d6000fd5b505050506040513d601f19601f820116820180604052508101906112729190612bf6565b6040516370a0823160e01b81529091506001600160a01b038216906370a08231906112a1903090600401612dd2565b60206040518083038186803b1580156112b957600080fd5b505afa1580156112cd573d6000803e3d6000fd5b505050506040513d601f19601f820116820180604052508101906112f19190612c2e565b821461130f5760405162461bcd60e51b81526004016106df906131fa565b83546001600160a01b0319166001600160a01b03919091161790925550505050565b6009546001600160a01b031681565b60175461134f816109c06124e1565b61135882611e8b565b601354141561136657600080fd5b61136f82611e8b565b60138190556040517f580e2348a4d1118e1f915eeffd71aec4938e749307b28e67f19841ca64117df7916113a291612ea5565b60405180910390a15050565b6006546001600160a01b031681565b601454819081106113e05760405162461bcd60e51b81526004016106df906130c7565b60006014838154811061140357634e487b7160e01b600052603260045260246000fd5b90600052602060002090600402019050806002015442116114245750610a63565b80546040516370a0823160e01b81526000916001600160a01b0316906370a0823190611454903090600401612dd2565b60206040518083038186803b15801561146c57600080fd5b505afa158015611480573d6000803e3d6000fd5b505050506040513d601f19601f820116820180604052508101906114a49190612c2e565b9050806114b8575042600290910155610a63565b60006114c8836002015442611bdc565b905060006011548460010154600e54846114e29190613356565b6114ec9190613356565b6114f69190613336565b90506000650746a52880006115108364e8d4a51000613356565b61151a9190613336565b90506000611529826002613356565b905060006115378285613375565b600480546007546040516340c10f1960e01b81529394506001600160a01b03918216936340c10f19936115709390921691889101612e81565b600060405180830381600087803b15801561158a57600080fd5b505af115801561159e573d6000803e3d6000fd5b5050600480546008546040516340c10f1960e01b81526001600160a01b0392831695506340c10f1994506115d9939190921691889101612e81565b600060405180830381600087803b1580156115f357600080fd5b505af1158015611607573d6000803e3d6000fd5b5050600480546006546040516340c10f1960e01b81526001600160a01b0392831695506340c10f199450611642939190921691869101612e81565b600060405180830381600087803b15801561165c57600080fd5b505af1158015611670573d6000803e3d6000fd5b50505050858464e8d4a510006116869190613356565b6116909190613336565b876003015461169f919061331e565b6003880155505042600290950194909455505050505050565b60015460ff1690565b600e5481565b6017546116d6816109c06124e1565b50600f55565b6016546116eb816109c06124e1565b60125460ff161561170e5760405162461bcd60e51b81526004016106df90612f9d565b600380546001600160a01b031990811673e2fb177009ff39f52c0134e8007fa0e4baacbd07179091556005805490911673124b06c5ce47de7a6e9efda71a946717130079e617905542601055611764848661331e565b600b55600c84905561177582611e8b565b601355600354600480546001600160a01b039283166001600160a01b03199182161790915560055460068054919093169116179055600c54600b5484916117bb91612651565b60408051608081018252600480546001600160a01b03908116835260208301858152601054948401948552600060608501818152601480546001808201835591845296517fce6d7b5282bd9a3661ae061feed1dbda4e52ab073b1f9285be6e155d9c38d4ec9790960296870180546001600160a01b031916969095169590951790935590517fce6d7b5282bd9a3661ae061feed1dbda4e52ab073b1f9285be6e155d9c38d4ed85015593517fce6d7b5282bd9a3661ae061feed1dbda4e52ab073b1f9285be6e155d9c38d4ee840155517fce6d7b5282bd9a3661ae061feed1dbda4e52ab073b1f9285be6e155d9c38d4ef909201919091556012805460ff19169091179055601180548392906118d290849061331e565b9091555050600754600854600354600554601154600c546040517f0476c5e4920930815a67a5a042e26836431f494d3be0f6e10c3034787a7a15f996611930966001600160a01b039182169690821695908216949116929091612e23565b60405180910390a1505050505050565b60145460005b81811015610a6357611957816113bd565b611960816133cf565b9050611946565b60125460ff166119895760405162461bcd60e51b81526004016106df90613231565b601454839081106119ac5760405162461bcd60e51b81526004016106df906130c7565b6017546119bb816109c06124e1565b82156119c9576119c9611940565b6000601486815481106119ec57634e487b7160e01b600052603260045260246000fd5b90600052602060002090600402016001015490508460148781548110611a2257634e487b7160e01b600052603260045260246000fd5b906000526020600020906004020160010181905550848114611a62578481601154611a4d9190613375565b611a57919061331e565b601155611a626126c0565b7fd88f859573973e938da5bf3e5100c16eee2090fa720e05ae3d452b4cd05cdcfd86866040516119309291906132bc565b60105481565b60125460ff16611abb5760405162461bcd60e51b81526004016106df90613231565b601654611aca816109c06124e1565b611ad3836127c2565b611ade848484612843565b50505050565b600a546001600160a01b031681565b600d5481565b6000806000611b0b6106368787611c7b565b905060006064611b1b8387613356565b611b259190613336565b90506000611b338287613375565b91989197509095505050505050565b6004546001600160a01b031681565b601754611b60816109c06124e1565b60008481526015602090815260408083206001600160a01b0387168452909152908190206004810184905590517f40d6e8e3d60e4693375c73df2d1a71d582a28197c98fd8d2badad6ead06af64c90611bbe9087908790879061329d565b60405180910390a15050505050565b6007546001600160a01b031681565b600f54600090611bec8484613375565b611bf69190613356565b9392505050565b6000918252602082815260408084206001600160a01b0393909316845291905290205460ff1690565b6015602052816000526040600020602052806000526040600020600091509150508060000154908060010154908060020154908060030154908060040154908060050154908060060154905087565b600b5481565b600080620151808310611c9a57611c956201518084613336565b611c9d565b60005b90506000611caa82611e8b565b90506000601354821015611ccb5781601354611cc69190613375565b611cce565b60005b90508515611cdc5780611cdf565b60005b9695505050505050565b600c5481565b600081565b600f5481565b60008060148481548110611d1e57634e487b7160e01b600052603260045260246000fd5b600091825260208083208784526015825260408085206001600160a01b038981168752935280852060049485029092016003810154815492516370a0823160e01b815291975092959294929391909116916370a0823191611d8191309101612dd2565b60206040518083038186803b158015611d9957600080fd5b505afa158015611dad573d6000803e3d6000fd5b505050506040513d601f19601f82011682018060405250810190611dd19190612c2e565b9050836002015442118015611de557508015155b15611e53576000611dfa856002015442611bdc565b905060006011548660010154600e5484611e149190613356565b611e1e9190613356565b611e289190613336565b905082611e3a8264e8d4a51000613356565b611e449190613336565b611e4e908561331e565b935050505b6001830154835464e8d4a5100090611e6c908590613356565b611e769190613336565b611e809190613375565b979650505050505050565b60006106b182670de0b6b3a7640000613356565b611ea8826109e8565b611eb4816109c06124e1565b610a1c83836125ce565b600280541415611ee05760405162461bcd60e51b81526004016106df90613174565b6002805560145482908110611f075760405162461bcd60e51b81526004016106df906130c7565b611f0f6116b8565b15611f2c5760405162461bcd60e51b81526004016106df90612f73565b82611f495760405162461bcd60e51b81526004016106df9061302a565b600060148481548110611f6c57634e487b7160e01b600052603260045260246000fd5b60009182526020808320878452601582526040808520338652909252922060049091029091019150611f9d856113bd565b805415611fed576000816001015464e8d4a5100084600301548460000154611fc59190613356565b611fcf9190613336565b611fd99190613375565b90508015611feb57611feb3382612479565b505b83156120935781546040516323b872dd60e01b81526001600160a01b03909116906323b872dd9061202690339030908990600401612e5d565b602060405180830381600087803b15801561204057600080fd5b505af1158015612054573d6000803e3d6000fd5b505050506040513d601f19601f820116820180604052508101906120789190612b76565b508381600001600082825461208d919061331e565b90915550505b6003820154815464e8d4a51000916120aa91613356565b6120b49190613336565b600182015560048101546120c857426120ce565b80600401545b6004820155604051859033907f90890809c654f11d6e72a28fa60149770a0d11ec6c92319d6ceb2bb0a4ea1a1590612107908890612ea5565b60405180910390a350506001600255505050565b60165461212a816109c06124e1565b6008546001600160a01b03858116911614158061215557506007546001600160a01b03848116911614155b8061216e57506009546001600160a01b03838116911614155b61218a5760405162461bcd60e51b81526004016106df90613098565b600880546001600160a01b038087166001600160a01b0319928316179283905560078054878316908416179081905560098054878416941693909317928390556040517f1af7fb2dca603676776ebce7af5086b001c893239c7e2a241e7184e6f3cf9282946122029490841693928316921690612e00565b60405180910390a150505050565b60006106b1670de0b6b3a764000083613336565b601654612233816109c06124e1565b6004546001600160a01b03848116911614158061225e57506006546001600160a01b03838116911614155b61227a5760405162461bcd60e51b81526004016106df90613061565b600480546001600160a01b038086166001600160a01b03199283161790925560068054928516929091169190911790556040517fdcc6331013de89f8c595d5328f0a724194f113cb6f8f2a707b3dff6de13f0d17906122dc9085908590612de6565b60405180910390a1505050565b60165481565b6017546122fe816109c06124e1565b82600c54141580612311575081600b5414155b61232d5760405162461bcd60e51b81526004016106df90612f3c565b8282101561234d5760405162461bcd60e51b81526004016106df90613268565b600c839055600b8290556123618383612651565b7fb298bc23e07860d501fddce288f46d761aa04a0c7c3316099eb50f097aacf304600c54600b546040516122dc9291906132bc565b60008281526015602090815260408083206001600160a01b03851684528252808320815160e0810183528154815260018201549381019390935260028101549183019190915260038101546060830181905260048201546080840152600582015460a084015260069091015460c083015261241f57608081015161241a9042613375565b61242e565b606081015161242e9042613375565b949350505050565b7f000000000000000000000000000000000000000000000000000000000000000081565b60175481565b6001600160e01b031981166301ffc9a760e01b14919050565b600654604051635950a15560e11b81526001600160a01b039091169063b2a142aa906124ab9085908590600401612e81565b600060405180830381600087803b1580156124c557600080fd5b505af11580156124d9573d6000803e3d6000fd5b505050505050565b3390565b6124ef8282611bfd565b610a6357612507816001600160a01b03166014612942565b612512836020612942565b604051602001612523929190612d5d565b60408051601f198184030181529082905262461bcd60e51b82526106df91600401612ed4565b6125538282611bfd565b610a63576000828152602081815260408083206001600160a01b03851684529091529020805460ff1916600117905561258a6124e1565b6001600160a01b0316816001600160a01b0316837f2f8788117e7eff1d82e926ec794901d17c78024a50270940304540a733656f0d60405160405180910390a45050565b6125d88282611bfd565b15610a63576000828152602081815260408083206001600160a01b03851684529091529020805460ff1916905561260d6124e1565b6001600160a01b0316816001600160a01b0316837ff6391f5c32d9c69d2a47ea670b442974b53935d1edc7fd64eb21e047a839171b60405160405180910390a45050565b60008161265d84611e8b565b6126679190613336565b9050612676816203d090613356565b600d819055612689906201518090613336565b600e819055600d546040517fcd7c861d63893659123f817b192b8621ff1923a7c4589c260173cedcf9e986a6926122dc92916132bc565b601454600060015b8281101561272057601481815481106126f157634e487b7160e01b600052603260045260246000fd5b9060005260206000209060040201600101548261270e919061331e565b9150612719816133cf565b90506126c8565b508015610a6357612732600382613336565b905080601460008154811061275757634e487b7160e01b600052603260045260246000fd5b9060005260206000209060040201600101546011546127769190613375565b612780919061331e565b6011819055508060146000815481106127a957634e487b7160e01b600052603260045260246000fd5b9060005260206000209060040201600101819055505050565b60145460005b81811015610a1c57826001600160a01b0316601482815481106127fb57634e487b7160e01b600052603260045260246000fd5b60009182526020909120600490910201546001600160a01b031614156128335760405162461bcd60e51b81526004016106df9061314b565b61283c816133cf565b90506127c8565b801561285157612851611940565b8260116000828254612863919061331e565b9250508190555060146040518060800160405280846001600160a01b03168152602001858152602001601054421161289d5760105461289f565b425b81526000602091820181905283546001808201865594825290829020835160049092020180546001600160a01b0319166001600160a01b03909216919091178155908201519281019290925560408101516002830155606001516003909101556129076126c0565b6014546011546040517f20b669aa921947a6d9602a921d2db3b6b30f21b9aca98580fa3972530330b27a9161220291849188918891906132ca565b60606000612951836002613356565b61295c90600261331e565b67ffffffffffffffff81111561298257634e487b7160e01b600052604160045260246000fd5b6040519080825280601f01601f1916602001820160405280156129ac576020820181803683370190505b509050600360fc1b816000815181106129d557634e487b7160e01b600052603260045260246000fd5b60200101906001600160f81b031916908160001a905350600f60fb1b81600181518110612a1257634e487b7160e01b600052603260045260246000fd5b60200101906001600160f81b031916908160001a9053506000612a36846002613356565b612a4190600161331e565b90505b6001811115612ad5576f181899199a1a9b1b9c1cb0b131b232b360811b85600f1660108110612a8357634e487b7160e01b600052603260045260246000fd5b1a60f81b828281518110612aa757634e487b7160e01b600052603260045260246000fd5b60200101906001600160f81b031916908160001a90535060049490941c93612ace816133b8565b9050612a44565b508315611bf65760405162461bcd60e51b81526004016106df90612f07565b60008060408385031215612b06578182fd5b8235612b1181613400565b91506020830135612b2181613400565b809150509250929050565b600080600060608486031215612b40578081fd5b8335612b4b81613400565b92506020840135612b5b81613400565b91506040840135612b6b81613400565b809150509250925092565b600060208284031215612b87578081fd5b8151611bf681613418565b600060208284031215612ba3578081fd5b5035919050565b60008060408385031215612bbc578182fd5b823591506020830135612b2181613400565b600060208284031215612bdf578081fd5b81356001600160e01b031981168114611bf6578182fd5b600060208284031215612c07578081fd5b8151611bf681613400565b600060208284031215612c23578081fd5b8135611bf681613400565b600060208284031215612c3f578081fd5b5051919050565b600080600060608486031215612c5a578283fd5b833592506020840135612c6c81613400565b929592945050506040919091013590565b600080600060608486031215612c91578283fd5b833592506020840135612ca381613400565b91506040840135612b6b81613418565b60008060408385031215612cc5578182fd5b50508035926020909101359150565b600080600060608486031215612ce8578081fd5b83359250602084013591506040840135612b6b81613418565b600080600060608486031215612d15578081fd5b505081359360208301359350604090920135919050565b60008060008060808587031215612d41578182fd5b5050823594602084013594506040840135936060013592509050565b60007f416363657373436f6e74726f6c3a206163636f756e742000000000000000000082528351612d9581601785016020880161338c565b7001034b99036b4b9b9b4b733903937b6329607d1b6017918401918201528351612dc681602884016020880161338c565b01602801949350505050565b6001600160a01b0391909116815260200190565b6001600160a01b0392831681529116602082015260400190565b6001600160a01b0393841681529183166020830152909116604082015260600190565b6001600160a01b0396871681529486166020860152928516604085015293166060830152608082019290925260a081019190915260c00190565b6001600160a01b039384168152919092166020820152604081019190915260600190565b6001600160a01b03929092168252602082015260400190565b901515815260200190565b90815260200190565b6001600160a01b0394909416845260208401929092526040830152606082015260800190565b6000602082528251806020840152612ef381604085016020870161338c565b601f01601f19169190910160400192915050565b6020808252818101527f537472696e67733a20686578206c656e67746820696e73756666696369656e74604082015260600190565b6020808252601e908201527f6d757374206265206174206c65617374206f6e65206e65772076616c75650000604082015260600190565b60208082526010908201526f14185d5cd8589b194e881c185d5cd95960821b604082015260600190565b602080825260139082015272185b1c9958591e481a5b9a5d1a585b1a5e9959606a1b604082015260600190565b6020808252600f908201526e1b9bc81b5a59dc985d1bdc881cd95d608a1b604082015260600190565b6020808252601a908201527f776974686472617720534f554c20627920756e7374616b696e67000000000000604082015260600190565b60208082526017908201527f6465706f73697420534f554c206279207374616b696e67000000000000000000604082015260600190565b6020808252601b908201527f6d7573742062652061206e657720746f6b656e20616464726573730000000000604082015260600190565b6020808252601590820152741b5d5cdd0818994818481b995dc81858d8dbdd5b9d605a1b604082015260600190565b6020808252601390820152721c1bdbdb08191bd95cc81b9bdd08195e1a5cdd606a1b604082015260600190565b6020808252601290820152711dda5d1a191c985dce881b9bdd0819dbdbd960721b604082015260600190565b6020808252601190820152701dda5d1a191c985dc81b9bdd0819dbdbd9607a1b604082015260600190565b6020808252600f908201526e191d5c1b1a58d85d1959081c1bdbdb608a1b604082015260600190565b6020808252601f908201527f5265656e7472616e637947756172643a207265656e7472616e742063616c6c00604082015260600190565b6020808252602f908201527f416363657373436f6e74726f6c3a2063616e206f6e6c792072656e6f756e636560408201526e103937b632b9903337b91039b2b63360891b606082015260800190565b6020808252601d908201527f6d6967726174653a20696e73756666696369656e742062616c616e6365000000604082015260600190565b6020808252601a908201527f726577617264732068617665206e6f742079657420626567756e000000000000604082015260600190565b6020808252818101527f7765696768742063616e6e6f742065786365656420746f74616c576569676874604082015260600190565b9283526001600160a01b03919091166020830152604082015260600190565b918252602082015260400190565b93845260208401929092526001600160a01b03166040830152606082015260800190565b968752602087019590955260408601939093526060850191909152608084015260a083015260c082015260e00190565b60008219821115613331576133316133ea565b500190565b60008261335157634e487b7160e01b81526012600452602481fd5b500490565b6000816000190483118215151615613370576133706133ea565b500290565b600082821015613387576133876133ea565b500390565b60005b838110156133a757818101518382015260200161338f565b83811115611ade5750506000910152565b6000816133c7576133c76133ea565b506000190190565b60006000198214156133e3576133e36133ea565b5060010190565b634e487b7160e01b600052601160045260246000fd5b6001600160a01b038116811461341557600080fd5b50565b801515811461341557600080fdfea2646970667358221220cfde280c84bff1e36c08eb00177a2ce56c945c49679279bf9047423c166c09f864736f6c63430008000033",
    "sourcePath": "/Users/unico/Documents/GitHub/SoulSwap/soulswap-farms/contracts/SoulSummonerFantom.sol",
    "compiler": {
        "name": "solc",
        "version": "0.8.0+commit.c7dfd78e"
    },
    "functionHashes": {
        "DEFAULT_ADMIN_ROLE()": "a217fddf",
        "addPool(uint256,address,bool)": "7abceffd",
        "bonusMultiplier()": "a8b973a1",
        "dailyDecay()": "fc90fdc0",
        "dailySoul()": "7d500ec8",
        "dao()": "4162169f",
        "deposit(uint256,uint256)": "e2bbb158",
        "enWei(uint256)": "cf94ee96",
        "enterStaking(uint256)": "41441d3b",
        "fromWei(uint256)": "e65d1522",
        "getFeeRate(uint256,uint256)": "9f6c5426",
        "getMultiplier(uint256,uint256)": "8dbb1e3a",
        "getRoleAdmin(bytes32)": "248a9ca3",
        "getWithdrawable(uint256,uint256,uint256)": "7e668b42",
        "grantRole(bytes32,address)": "2f2ff15d",
        "hasRole(bytes32,address)": "91d14854",
        "initialize(uint256,uint256,uint256,uint256)": "60a2da44",
        "isInitialized()": "392e53cd",
        "isis()": "ea4bf446",
        "leaveStaking(uint256)": "1058d281",
        "maat()": "fd6f99d0",
        "massUpdatePools()": "630b5ba1",
        "migrate(uint256)": "454b0608",
        "migrator()": "7cd07e47",
        "paused()": "5c975abb",
        "pendingSoul(uint256,address)": "bfafcad5",
        "poolInfo(uint256)": "1526fe27",
        "poolLength()": "081e3eda",
        "renounceRole(bytes32,address)": "36568abe",
        "reviseDeposit(uint256,address,uint256)": "82386d58",
        "revokeRole(bytes32,address)": "d547741f",
        "seance()": "4ca01d45",
        "set(uint256,uint256,bool)": "64482f79",
        "setMigrator(address)": "23cf3118",
        "soul()": "815b7a8c",
        "soulPerSecond()": "5f9bf689",
        "startRate()": "1254f0dc",
        "startTime()": "78e97925",
        "supportsInterface(bytes4)": "01ffc9a7",
        "supreme()": "48f8bfea",
        "team()": "85f2aef2",
        "totalAllocPoint()": "17caf6f1",
        "totalWeight()": "96c82e57",
        "updateAccounts(address,address,address)": "e4090331",
        "updateMultiplier(uint256)": "5ffe6146",
        "updatePool(uint256)": "51eb05a6",
        "updateStartRate(uint256)": "4a962829",
        "updateTokens(address,address)": "e7aa29e3",
        "updateWeights(uint256,uint256)": "f107fd85",
        "userDelta(uint256,address)": "fb39d1e3",
        "userInfo(uint256,address)": "93f1a40b",
        "weight()": "a1aab33f",
        "withdraw(uint256,uint256)": "441a3e70"
    },
    "gasEstimates": {
        "creation": {
            "codeDepositCost": "2680800",
            "executionCost": "infinite",
            "totalCost": "infinite"
        },
        "external": {
            "DEFAULT_ADMIN_ROLE()": "296",
            "addPool(uint256,address,bool)": "infinite",
            "bonusMultiplier()": "1118",
            "dailyDecay()": "infinite",
            "dailySoul()": "1118",
            "dao()": "1204",
            "deposit(uint256,uint256)": "infinite",
            "enWei(uint256)": "471",
            "enterStaking(uint256)": "infinite",
            "fromWei(uint256)": "439",
            "getFeeRate(uint256,uint256)": "2448",
            "getMultiplier(uint256,uint256)": "1392",
            "getRoleAdmin(bytes32)": "1271",
            "getWithdrawable(uint256,uint256,uint256)": "infinite",
            "grantRole(bytes32,address)": "infinite",
            "hasRole(bytes32,address)": "1494",
            "initialize(uint256,uint256,uint256,uint256)": "infinite",
            "isInitialized()": "1130",
            "isis()": "1139",
            "leaveStaking(uint256)": "infinite",
            "maat()": "1160",
            "massUpdatePools()": "infinite",
            "migrate(uint256)": "infinite",
            "migrator()": "1138",
            "paused()": "1108",
            "pendingSoul(uint256,address)": "infinite",
            "poolInfo(uint256)": "4695",
            "poolLength()": "1097",
            "renounceRole(bytes32,address)": "infinite",
            "reviseDeposit(uint256,address,uint256)": "infinite",
            "revokeRole(bytes32,address)": "infinite",
            "seance()": "1204",
            "set(uint256,uint256,bool)": "infinite",
            "setMigrator(address)": "infinite",
            "soul()": "1204",
            "soulPerSecond()": "1118",
            "startRate()": "1141",
            "startTime()": "1161",
            "supportsInterface(bytes4)": "539",
            "supreme()": "1160",
            "team()": "1138",
            "totalAllocPoint()": "1185",
            "totalWeight()": "1117",
            "updateAccounts(address,address,address)": "infinite",
            "updateMultiplier(uint256)": "infinite",
            "updatePool(uint256)": "infinite",
            "updateStartRate(uint256)": "infinite",
            "updateTokens(address,address)": "infinite",
            "updateWeights(uint256,uint256)": "infinite",
            "userDelta(uint256,address)": "6573",
            "userInfo(uint256,address)": "6440",
            "weight()": "1161",
            "withdraw(uint256,uint256)": "infinite"
        },
        "internal": {
            "_addPool(uint256,contract IERC20,bool)": "infinite",
            "_divinationCeremony(bytes32,bytes32,address)": "infinite",
            "checkPoolDuplicate(contract IERC20)": "infinite",
            "safeSoulTransfer(address,uint256)": "infinite",
            "updateRewards(uint256,uint256)": "infinite",
            "updateStakingPool()": "infinite"
        }
    }
}