{
    "contractName": "SoulScarab",
    "abi": [
        {
            "anonymous": false,
            "inputs": [
                {
                    "indexed": false,
                    "internalType": "address",
                    "name": "manifestor",
                    "type": "address"
                }
            ],
            "name": "ManifestorUpdated",
            "type": "event"
        },
        {
            "anonymous": false,
            "inputs": [
                {
                    "indexed": false,
                    "internalType": "uint256",
                    "name": "amount",
                    "type": "uint256"
                },
                {
                    "indexed": false,
                    "internalType": "uint256",
                    "name": "id",
                    "type": "uint256"
                }
            ],
            "name": "ScarabSummoned",
            "type": "event"
        },
        {
            "anonymous": false,
            "inputs": [
                {
                    "indexed": false,
                    "internalType": "address",
                    "name": "recipient",
                    "type": "address"
                },
                {
                    "indexed": false,
                    "internalType": "uint256",
                    "name": "amount",
                    "type": "uint256"
                }
            ],
            "name": "Withdraw",
            "type": "event"
        },
        {
            "inputs": [
                {
                    "internalType": "address",
                    "name": "",
                    "type": "address"
                },
                {
                    "internalType": "uint256",
                    "name": "",
                    "type": "uint256"
                }
            ],
            "name": "depositsByRecipient",
            "outputs": [
                {
                    "internalType": "uint256",
                    "name": "",
                    "type": "uint256"
                }
            ],
            "stateMutability": "view",
            "type": "function"
        },
        {
            "inputs": [],
            "name": "depositsCount",
            "outputs": [
                {
                    "internalType": "uint256",
                    "name": "",
                    "type": "uint256"
                }
            ],
            "stateMutability": "view",
            "type": "function"
        },
        {
            "inputs": [
                {
                    "internalType": "address",
                    "name": "_recipient",
                    "type": "address"
                }
            ],
            "name": "getDepositsByRecipient",
            "outputs": [
                {
                    "internalType": "uint256[]",
                    "name": "",
                    "type": "uint256[]"
                }
            ],
            "stateMutability": "view",
            "type": "function"
        },
        {
            "inputs": [],
            "name": "getTotalLockedBalance",
            "outputs": [
                {
                    "internalType": "uint256",
                    "name": "",
                    "type": "uint256"
                }
            ],
            "stateMutability": "view",
            "type": "function"
        },
        {
            "inputs": [
                {
                    "internalType": "uint256",
                    "name": "amount",
                    "type": "uint256"
                }
            ],
            "name": "getTribute",
            "outputs": [
                {
                    "internalType": "uint256",
                    "name": "fee",
                    "type": "uint256"
                }
            ],
            "stateMutability": "view",
            "type": "function"
        },
        {
            "inputs": [
                {
                    "internalType": "address",
                    "name": "_recipient",
                    "type": "address"
                },
                {
                    "internalType": "uint256",
                    "name": "_amount",
                    "type": "uint256"
                },
                {
                    "internalType": "uint256",
                    "name": "_unlockTimestamp",
                    "type": "uint256"
                }
            ],
            "name": "lockSouls",
            "outputs": [
                {
                    "internalType": "uint256",
                    "name": "id",
                    "type": "uint256"
                }
            ],
            "stateMutability": "nonpayable",
            "type": "function"
        },
        {
            "inputs": [],
            "name": "manifestor",
            "outputs": [
                {
                    "internalType": "address",
                    "name": "",
                    "type": "address"
                }
            ],
            "stateMutability": "view",
            "type": "function"
        },
        {
            "inputs": [],
            "name": "outcaster",
            "outputs": [
                {
                    "internalType": "contract Outcaster",
                    "name": "",
                    "type": "address"
                }
            ],
            "stateMutability": "view",
            "type": "function"
        },
        {
            "inputs": [
                {
                    "internalType": "uint256",
                    "name": "",
                    "type": "uint256"
                }
            ],
            "name": "scarabs",
            "outputs": [
                {
                    "internalType": "address",
                    "name": "recipient",
                    "type": "address"
                },
                {
                    "internalType": "uint256",
                    "name": "amount",
                    "type": "uint256"
                },
                {
                    "internalType": "uint256",
                    "name": "tribute",
                    "type": "uint256"
                },
                {
                    "internalType": "uint256",
                    "name": "unlockTimestamp",
                    "type": "uint256"
                },
                {
                    "internalType": "bool",
                    "name": "withdrawn",
                    "type": "bool"
                }
            ],
            "stateMutability": "view",
            "type": "function"
        },
        {
            "inputs": [],
            "name": "seance",
            "outputs": [
                {
                    "internalType": "contract SeanceCircle",
                    "name": "",
                    "type": "address"
                }
            ],
            "stateMutability": "view",
            "type": "function"
        },
        {
            "inputs": [
                {
                    "internalType": "address",
                    "name": "_manifestor",
                    "type": "address"
                }
            ],
            "name": "setManifestor",
            "outputs": [],
            "stateMutability": "nonpayable",
            "type": "function"
        },
        {
            "inputs": [],
            "name": "soul",
            "outputs": [
                {
                    "internalType": "contract SoulPower",
                    "name": "",
                    "type": "address"
                }
            ],
            "stateMutability": "view",
            "type": "function"
        },
        {
            "inputs": [],
            "name": "tributeRate",
            "outputs": [
                {
                    "internalType": "uint256",
                    "name": "",
                    "type": "uint256"
                }
            ],
            "stateMutability": "view",
            "type": "function"
        },
        {
            "inputs": [
                {
                    "internalType": "address",
                    "name": "",
                    "type": "address"
                }
            ],
            "name": "walletBalance",
            "outputs": [
                {
                    "internalType": "uint256",
                    "name": "",
                    "type": "uint256"
                }
            ],
            "stateMutability": "view",
            "type": "function"
        },
        {
            "inputs": [
                {
                    "internalType": "uint256",
                    "name": "id",
                    "type": "uint256"
                }
            ],
            "name": "withdrawTokens",
            "outputs": [],
            "stateMutability": "nonpayable",
            "type": "function"
        }
    ],
    "bytecode": "60e06040527f124b06c5ce47de7a6e9efda71a946717130079e60000000000000000000000006080527fe2fb177009ff39f52c0134e8007fa0e4baacbd0700000000000000000000000060a0527fce530f22d82a2437f2fb4b43df0e1e4fd446f0ff00000000000000000000000060c052600480546001600160a01b03191633179055600a60055534801561009357600080fd5b5060805160601c60a05160601c60c05160601c61104b6101046000396000818161020f01526103e801526000818161048f0152818161067701528181610736015281816107d50152818161087b01528181610a430152610b2c0152600081816103b901526105ab015261104b6000f3fe608060405234801561001057600080fd5b50600436106100f55760003560e01c8063671070fa11610097578063b2f4a91f11610066578063b2f4a91f146101e2578063cf616f40146101ea578063cf9cd8f8146101f2578063d5c2589014610205576100f5565b8063671070fa146101a15780636f8dfd09146101b4578063815b7a8c146101c7578063a7953e5e146101cf576100f5565b80633cd2e4ec116100d35780633cd2e4ec1461014d5780634506e935146101715780634ca01d4514610186578063670306371461018e576100f5565b8063072824fe146100fa578063077891f914610118578063315a095d14610138575b600080fd5b61010261020d565b60405161010f9190610c99565b60405180910390f35b61012b610126366004610bcd565b610231565b60405161010f9190610d34565b61014b610146366004610c69565b61029e565b005b61016061015b366004610c69565b610567565b60405161010f959493929190610d04565b6101796105a3565b60405161010f9190610f5f565b6101026105a9565b61017961019c366004610bee565b6105cd565b6101796101af366004610c17565b6105fe565b6101796101c2366004610c69565b610a00565b610102610a41565b61014b6101dd366004610bcd565b610a65565b610102610aeb565b610179610afa565b610179610200366004610bcd565b610b00565b610179610b12565b7f000000000000000000000000000000000000000000000000000000000000000081565b6001600160a01b03811660009081526001602090815260409182902080548351818402810184019094528084526060939283018282801561029157602002820191906000526020600020905b81548152602001906001019080831161027d575b505050505090505b919050565b6000818152600260205260409020600301544210156102d85760405162461bcd60e51b81526004016102cf90610df1565b60405180910390fd5b6000818152600260205260409020546001600160a01b0316331461030e5760405162461bcd60e51b81526004016102cf90610ecd565b60008181526002602052604090206004015460ff1661033f5760405162461bcd60e51b81526004016102cf90610e28565b600081815260026020908152604080832060048101805460ff1916600190811790915501543384526003909252822080549192909161037f908490610fcd565b909155505060008181526002602052604081206001015461039f90610a00565b6040516323b872dd60e01b81529091506001600160a01b037f000000000000000000000000000000000000000000000000000000000000000016906323b872dd906104129033907f0000000000000000000000000000000000000000000000000000000000000000908690600401610cc7565b602060405180830381600087803b15801561042c57600080fd5b505af1158015610440573d6000803e3d6000fd5b505050506040513d601f19601f820116820180604052508101906104649190610c49565b506000828152600260205260409081902060010154905163a9059cbb60e01b81526001600160a01b037f0000000000000000000000000000000000000000000000000000000000000000169163a9059cbb916104c4913391600401610ceb565b602060405180830381600087803b1580156104de57600080fd5b505af11580156104f2573d6000803e3d6000fd5b505050506040513d601f19601f820116820180604052508101906105169190610c49565b50600082815260026020526040908190206001015490517f884edad9ce6fa2440d8a54cc123490eb96d2768479d49ff9c7366125a94243649161055b91339190610ceb565b60405180910390a15050565b6002602081905260009182526040909120805460018201549282015460038301546004909301546001600160a01b039092169392909160ff1685565b60005481565b7f000000000000000000000000000000000000000000000000000000000000000081565b600160205281600052604060002081815481106105e957600080fd5b90600052602060002001600091509150505481565b600080831161061f5760405162461bcd60e51b81526004016102cf90610e96565b600a821061063f5760405162461bcd60e51b81526004016102cf90610e5f565b42821161065e5760405162461bcd60e51b81526004016102cf90610d78565b604051636eb1769f60e11b815283906001600160a01b037f0000000000000000000000000000000000000000000000000000000000000000169063dd62ed3e906106ae9033903090600401610cad565b60206040518083038186803b1580156106c657600080fd5b505afa1580156106da573d6000803e3d6000fd5b505050506040513d601f19601f820116820180604052508101906106fe9190610c81565b101561071c5760405162461bcd60e51b81526004016102cf90610f32565b6040516370a0823160e01b81526000906001600160a01b037f000000000000000000000000000000000000000000000000000000000000000016906370a082319061076b903090600401610c99565b60206040518083038186803b15801561078357600080fd5b505afa158015610797573d6000803e3d6000fd5b505050506040513d601f19601f820116820180604052508101906107bb9190610c81565b6040516323b872dd60e01b81529091506001600160a01b037f000000000000000000000000000000000000000000000000000000000000000016906323b872dd9061080e90339030908990600401610cc7565b602060405180830381600087803b15801561082857600080fd5b505af115801561083c573d6000803e3d6000fd5b505050506040513d601f19601f820116820180604052508101906108609190610c49565b506040516370a0823160e01b81526000906001600160a01b037f000000000000000000000000000000000000000000000000000000000000000016906370a08231906108b0903090600401610c99565b60206040518083038186803b1580156108c857600080fd5b505afa1580156108dc573d6000803e3d6000fd5b505050506040513d601f19601f820116820180604052508101906109009190610c81565b905061090c8282610fcd565b9450600061091986610a00565b3360009081526003602052604081208054929350889290919061093d908490610f76565b909155505060008054819061095190610fe4565b9182905550600081815260026020818152604080842080546001600160a01b0319166001600160a01b038e16908117825560018083018e9055948201889055600382018c90556004909101805460ff191690558452828252808420805493840181558452922001829055519094507fd17981b1afb7bf9743fe0e201535996fcbbd54c07ce342a74f7a8f1150326ea2906109ee9088908790610f68565b60405180910390a15050509392505050565b6000808211610a215760405162461bcd60e51b81526004016102cf90610f04565b606460055483610a319190610fae565b610a3b9190610f8e565b92915050565b7f000000000000000000000000000000000000000000000000000000000000000081565b6004546001600160a01b03163314610a8f5760405162461bcd60e51b81526004016102cf90610daf565b600480546001600160a01b0319166001600160a01b0383811691909117918290556040517f03187f57de180913dd54ab73364e9f5490a059eb94bb41bc9d63cfcc4bb7f70892610ae0921690610c99565b60405180910390a150565b6004546001600160a01b031681565b60055481565b60036020526000908152604090205481565b6040516370a0823160e01b81526000906001600160a01b037f000000000000000000000000000000000000000000000000000000000000000016906370a0823190610b61903090600401610c99565b60206040518083038186803b158015610b7957600080fd5b505afa158015610b8d573d6000803e3d6000fd5b505050506040513d601f19601f82011682018060405250810190610bb19190610c81565b905090565b80356001600160a01b038116811461029957600080fd5b600060208284031215610bde578081fd5b610be782610bb6565b9392505050565b60008060408385031215610c00578081fd5b610c0983610bb6565b946020939093013593505050565b600080600060608486031215610c2b578081fd5b610c3484610bb6565b95602085013595506040909401359392505050565b600060208284031215610c5a578081fd5b81518015158114610be7578182fd5b600060208284031215610c7a578081fd5b5035919050565b600060208284031215610c92578081fd5b5051919050565b6001600160a01b0391909116815260200190565b6001600160a01b0392831681529116602082015260400190565b6001600160a01b039384168152919092166020820152604081019190915260600190565b6001600160a01b03929092168252602082015260400190565b6001600160a01b039590951685526020850193909352604084019190915260608301521515608082015260a00190565b6020808252825182820181905260009190848201906040850190845b81811015610d6c57835183529284019291840191600101610d50565b50909695505050505050565b6020808252601c908201527f556e6c6f636b206973206e6f7420696e20746865206675747572652e00000000604082015260600190565b60208082526022908201527f596f7520617265206e6f74207468652063757272656e74206d616e696665737460408201526137b960f11b606082015260800190565b60208082526018908201527f546f6b656e7320617265207374696c6c206c6f636b65642e0000000000000000604082015260600190565b6020808252601d908201527f546f6b656e732061726520616c72656164792077697468647261776e2e000000604082015260600190565b60208082526019908201527f556e6c6f636b206973206e6f7420696e207365636f6e64732e00000000000000604082015260600190565b6020808252601a908201527f496e73756666696369656e7420534f554c2062616c616e63652e000000000000604082015260600190565b6020808252601a908201527f596f7520617265206e6f742074686520726563697069656e742e000000000000604082015260600190565b60208082526014908201527363616e6e6f742068617665207a65726f2066656560601b604082015260600190565b60208082526013908201527220b8383937bb329029a7aaa6103334b939ba1760691b604082015260600190565b90815260200190565b918252602082015260400190565b60008219821115610f8957610f89610fff565b500190565b600082610fa957634e487b7160e01b81526012600452602481fd5b500490565b6000816000190483118215151615610fc857610fc8610fff565b500290565b600082821015610fdf57610fdf610fff565b500390565b6000600019821415610ff857610ff8610fff565b5060010190565b634e487b7160e01b600052601160045260246000fdfea2646970667358221220f308bb62998a20940eb7f2374f0ec8ea5f99a9f98121bcf9415ab5a5c486024b64736f6c63430008000033",
    "sourcePath": "/Users/unico/Documents/GitHub/SoulSwap/soulswap-farms/contracts/SoulScarab.sol",
    "compiler": {
        "name": "solc",
        "version": "0.8.0+commit.c7dfd78e"
    },
    "functionHashes": {
        "depositsByRecipient(address,uint256)": "67030637",
        "depositsCount()": "4506e935",
        "getDepositsByRecipient(address)": "077891f9",
        "getTotalLockedBalance()": "d5c25890",
        "getTribute(uint256)": "6f8dfd09",
        "lockSouls(address,uint256,uint256)": "671070fa",
        "manifestor()": "b2f4a91f",
        "outcaster()": "072824fe",
        "scarabs(uint256)": "3cd2e4ec",
        "seance()": "4ca01d45",
        "setManifestor(address)": "a7953e5e",
        "soul()": "815b7a8c",
        "tributeRate()": "cf616f40",
        "walletBalance(address)": "cf9cd8f8",
        "withdrawTokens(uint256)": "315a095d"
    },
    "gasEstimates": {
        "creation": {
            "codeDepositCost": "834200",
            "executionCost": "infinite",
            "totalCost": "infinite"
        },
        "external": {
            "depositsByRecipient(address,uint256)": "2254",
            "depositsCount()": "1073",
            "getDepositsByRecipient(address)": "infinite",
            "getTotalLockedBalance()": "infinite",
            "getTribute(uint256)": "1341",
            "lockSouls(address,uint256,uint256)": "infinite",
            "manifestor()": "1092",
            "outcaster()": "infinite",
            "scarabs(uint256)": "4607",
            "seance()": "infinite",
            "setManifestor(address)": "23222",
            "soul()": "infinite",
            "tributeRate()": "1072",
            "walletBalance(address)": "1318",
            "withdrawTokens(uint256)": "infinite"
        }
    }
}