{
    "contractName": "SoulVault",
    "abi": [
        {
            "inputs": [
                {
                    "internalType": "contract IERC20",
                    "name": "_token",
                    "type": "address"
                },
                {
                    "internalType": "contract IERC20",
                    "name": "_receiptToken",
                    "type": "address"
                },
                {
                    "internalType": "contract IMasterChef",
                    "name": "_masterchef",
                    "type": "address"
                },
                {
                    "internalType": "address",
                    "name": "_admin",
                    "type": "address"
                },
                {
                    "internalType": "address",
                    "name": "_treasury",
                    "type": "address"
                }
            ],
            "stateMutability": "nonpayable",
            "type": "constructor"
        },
        {
            "anonymous": false,
            "inputs": [
                {
                    "indexed": true,
                    "internalType": "address",
                    "name": "sender",
                    "type": "address"
                },
                {
                    "indexed": false,
                    "internalType": "uint256",
                    "name": "amount",
                    "type": "uint256"
                },
                {
                    "indexed": false,
                    "internalType": "uint256",
                    "name": "shares",
                    "type": "uint256"
                },
                {
                    "indexed": false,
                    "internalType": "uint256",
                    "name": "lastDepositedTime",
                    "type": "uint256"
                }
            ],
            "name": "Deposit",
            "type": "event"
        },
        {
            "anonymous": false,
            "inputs": [
                {
                    "indexed": true,
                    "internalType": "address",
                    "name": "sender",
                    "type": "address"
                },
                {
                    "indexed": false,
                    "internalType": "uint256",
                    "name": "performanceFee",
                    "type": "uint256"
                },
                {
                    "indexed": false,
                    "internalType": "uint256",
                    "name": "callFee",
                    "type": "uint256"
                }
            ],
            "name": "Harvest",
            "type": "event"
        },
        {
            "anonymous": false,
            "inputs": [
                {
                    "indexed": true,
                    "internalType": "address",
                    "name": "previousOwner",
                    "type": "address"
                },
                {
                    "indexed": true,
                    "internalType": "address",
                    "name": "newOwner",
                    "type": "address"
                }
            ],
            "name": "OwnershipTransferred",
            "type": "event"
        },
        {
            "anonymous": false,
            "inputs": [],
            "name": "Pause",
            "type": "event"
        },
        {
            "anonymous": false,
            "inputs": [
                {
                    "indexed": false,
                    "internalType": "address",
                    "name": "account",
                    "type": "address"
                }
            ],
            "name": "Paused",
            "type": "event"
        },
        {
            "anonymous": false,
            "inputs": [],
            "name": "Unpause",
            "type": "event"
        },
        {
            "anonymous": false,
            "inputs": [
                {
                    "indexed": false,
                    "internalType": "address",
                    "name": "account",
                    "type": "address"
                }
            ],
            "name": "Unpaused",
            "type": "event"
        },
        {
            "anonymous": false,
            "inputs": [
                {
                    "indexed": true,
                    "internalType": "address",
                    "name": "sender",
                    "type": "address"
                },
                {
                    "indexed": false,
                    "internalType": "uint256",
                    "name": "amount",
                    "type": "uint256"
                },
                {
                    "indexed": false,
                    "internalType": "uint256",
                    "name": "shares",
                    "type": "uint256"
                }
            ],
            "name": "Withdraw",
            "type": "event"
        },
        {
            "inputs": [],
            "name": "MAX_CALL_FEE",
            "outputs": [
                {
                    "internalType": "uint256",
                    "name": "",
                    "type": "uint256"
                }
            ],
            "stateMutability": "view",
            "type": "function"
        },
        {
            "inputs": [],
            "name": "MAX_PERFORMANCE_FEE",
            "outputs": [
                {
                    "internalType": "uint256",
                    "name": "",
                    "type": "uint256"
                }
            ],
            "stateMutability": "view",
            "type": "function"
        },
        {
            "inputs": [],
            "name": "MAX_WITHDRAW_FEE",
            "outputs": [
                {
                    "internalType": "uint256",
                    "name": "",
                    "type": "uint256"
                }
            ],
            "stateMutability": "view",
            "type": "function"
        },
        {
            "inputs": [],
            "name": "MAX_WITHDRAW_FEE_PERIOD",
            "outputs": [
                {
                    "internalType": "uint256",
                    "name": "",
                    "type": "uint256"
                }
            ],
            "stateMutability": "view",
            "type": "function"
        },
        {
            "inputs": [],
            "name": "admin",
            "outputs": [
                {
                    "internalType": "address",
                    "name": "",
                    "type": "address"
                }
            ],
            "stateMutability": "view",
            "type": "function"
        },
        {
            "inputs": [],
            "name": "available",
            "outputs": [
                {
                    "internalType": "uint256",
                    "name": "",
                    "type": "uint256"
                }
            ],
            "stateMutability": "view",
            "type": "function"
        },
        {
            "inputs": [],
            "name": "balanceOf",
            "outputs": [
                {
                    "internalType": "uint256",
                    "name": "",
                    "type": "uint256"
                }
            ],
            "stateMutability": "view",
            "type": "function"
        },
        {
            "inputs": [],
            "name": "calculateHarvestSoulRewards",
            "outputs": [
                {
                    "internalType": "uint256",
                    "name": "",
                    "type": "uint256"
                }
            ],
            "stateMutability": "view",
            "type": "function"
        },
        {
            "inputs": [],
            "name": "calculateTotalPendingSoulRewards",
            "outputs": [
                {
                    "internalType": "uint256",
                    "name": "",
                    "type": "uint256"
                }
            ],
            "stateMutability": "view",
            "type": "function"
        },
        {
            "inputs": [],
            "name": "callFee",
            "outputs": [
                {
                    "internalType": "uint256",
                    "name": "",
                    "type": "uint256"
                }
            ],
            "stateMutability": "view",
            "type": "function"
        },
        {
            "inputs": [
                {
                    "internalType": "uint256",
                    "name": "_amount",
                    "type": "uint256"
                }
            ],
            "name": "deposit",
            "outputs": [],
            "stateMutability": "nonpayable",
            "type": "function"
        },
        {
            "inputs": [],
            "name": "emergencyWithdraw",
            "outputs": [],
            "stateMutability": "nonpayable",
            "type": "function"
        },
        {
            "inputs": [],
            "name": "getPricePerFullShare",
            "outputs": [
                {
                    "internalType": "uint256",
                    "name": "",
                    "type": "uint256"
                }
            ],
            "stateMutability": "view",
            "type": "function"
        },
        {
            "inputs": [],
            "name": "harvest",
            "outputs": [],
            "stateMutability": "nonpayable",
            "type": "function"
        },
        {
            "inputs": [
                {
                    "internalType": "address",
                    "name": "_token",
                    "type": "address"
                }
            ],
            "name": "inCaseTokensGetStuck",
            "outputs": [],
            "stateMutability": "nonpayable",
            "type": "function"
        },
        {
            "inputs": [],
            "name": "lastHarvestedTime",
            "outputs": [
                {
                    "internalType": "uint256",
                    "name": "",
                    "type": "uint256"
                }
            ],
            "stateMutability": "view",
            "type": "function"
        },
        {
            "inputs": [],
            "name": "masterchef",
            "outputs": [
                {
                    "internalType": "contract IMasterChef",
                    "name": "",
                    "type": "address"
                }
            ],
            "stateMutability": "view",
            "type": "function"
        },
        {
            "inputs": [],
            "name": "owner",
            "outputs": [
                {
                    "internalType": "address",
                    "name": "",
                    "type": "address"
                }
            ],
            "stateMutability": "view",
            "type": "function"
        },
        {
            "inputs": [],
            "name": "pause",
            "outputs": [],
            "stateMutability": "nonpayable",
            "type": "function"
        },
        {
            "inputs": [],
            "name": "paused",
            "outputs": [
                {
                    "internalType": "bool",
                    "name": "",
                    "type": "bool"
                }
            ],
            "stateMutability": "view",
            "type": "function"
        },
        {
            "inputs": [],
            "name": "performanceFee",
            "outputs": [
                {
                    "internalType": "uint256",
                    "name": "",
                    "type": "uint256"
                }
            ],
            "stateMutability": "view",
            "type": "function"
        },
        {
            "inputs": [],
            "name": "receiptToken",
            "outputs": [
                {
                    "internalType": "contract IERC20",
                    "name": "",
                    "type": "address"
                }
            ],
            "stateMutability": "view",
            "type": "function"
        },
        {
            "inputs": [],
            "name": "renounceOwnership",
            "outputs": [],
            "stateMutability": "nonpayable",
            "type": "function"
        },
        {
            "inputs": [
                {
                    "internalType": "address",
                    "name": "_admin",
                    "type": "address"
                }
            ],
            "name": "setAdmin",
            "outputs": [],
            "stateMutability": "nonpayable",
            "type": "function"
        },
        {
            "inputs": [
                {
                    "internalType": "uint256",
                    "name": "_callFee",
                    "type": "uint256"
                }
            ],
            "name": "setCallFee",
            "outputs": [],
            "stateMutability": "nonpayable",
            "type": "function"
        },
        {
            "inputs": [
                {
                    "internalType": "uint256",
                    "name": "_performanceFee",
                    "type": "uint256"
                }
            ],
            "name": "setPerformanceFee",
            "outputs": [],
            "stateMutability": "nonpayable",
            "type": "function"
        },
        {
            "inputs": [
                {
                    "internalType": "address",
                    "name": "_treasury",
                    "type": "address"
                }
            ],
            "name": "setTreasury",
            "outputs": [],
            "stateMutability": "nonpayable",
            "type": "function"
        },
        {
            "inputs": [
                {
                    "internalType": "uint256",
                    "name": "_withdrawFee",
                    "type": "uint256"
                }
            ],
            "name": "setWithdrawFee",
            "outputs": [],
            "stateMutability": "nonpayable",
            "type": "function"
        },
        {
            "inputs": [
                {
                    "internalType": "uint256",
                    "name": "_withdrawFeePeriod",
                    "type": "uint256"
                }
            ],
            "name": "setWithdrawFeePeriod",
            "outputs": [],
            "stateMutability": "nonpayable",
            "type": "function"
        },
        {
            "inputs": [],
            "name": "token",
            "outputs": [
                {
                    "internalType": "contract IERC20",
                    "name": "",
                    "type": "address"
                }
            ],
            "stateMutability": "view",
            "type": "function"
        },
        {
            "inputs": [],
            "name": "totalShares",
            "outputs": [
                {
                    "internalType": "uint256",
                    "name": "",
                    "type": "uint256"
                }
            ],
            "stateMutability": "view",
            "type": "function"
        },
        {
            "inputs": [
                {
                    "internalType": "address",
                    "name": "newOwner",
                    "type": "address"
                }
            ],
            "name": "transferOwnership",
            "outputs": [],
            "stateMutability": "nonpayable",
            "type": "function"
        },
        {
            "inputs": [],
            "name": "treasury",
            "outputs": [
                {
                    "internalType": "address",
                    "name": "",
                    "type": "address"
                }
            ],
            "stateMutability": "view",
            "type": "function"
        },
        {
            "inputs": [],
            "name": "unpause",
            "outputs": [],
            "stateMutability": "nonpayable",
            "type": "function"
        },
        {
            "inputs": [
                {
                    "internalType": "address",
                    "name": "",
                    "type": "address"
                }
            ],
            "name": "userInfo",
            "outputs": [
                {
                    "internalType": "uint256",
                    "name": "shares",
                    "type": "uint256"
                },
                {
                    "internalType": "uint256",
                    "name": "lastDepositedTime",
                    "type": "uint256"
                },
                {
                    "internalType": "uint256",
                    "name": "soulAtLastUserAction",
                    "type": "uint256"
                },
                {
                    "internalType": "uint256",
                    "name": "lastUserActionTime",
                    "type": "uint256"
                }
            ],
            "stateMutability": "view",
            "type": "function"
        },
        {
            "inputs": [
                {
                    "internalType": "uint256",
                    "name": "_shares",
                    "type": "uint256"
                }
            ],
            "name": "withdraw",
            "outputs": [],
            "stateMutability": "nonpayable",
            "type": "function"
        },
        {
            "inputs": [],
            "name": "withdrawAll",
            "outputs": [],
            "stateMutability": "nonpayable",
            "type": "function"
        },
        {
            "inputs": [],
            "name": "withdrawFee",
            "outputs": [
                {
                    "internalType": "uint256",
                    "name": "",
                    "type": "uint256"
                }
            ],
            "stateMutability": "view",
            "type": "function"
        },
        {
            "inputs": [],
            "name": "withdrawFeePeriod",
            "outputs": [
                {
                    "internalType": "uint256",
                    "name": "",
                    "type": "uint256"
                }
            ],
            "stateMutability": "view",
            "type": "function"
        }
    ],
    "bytecode": "60e060405260c86006556019600755600a6008556203f4806009553480156200002757600080fd5b5060405162002372380380620023728339810160408190526200004a91620001c3565b6200005e6200005862000146565b6200014a565b6000805460ff60a01b191690556001600160601b0319606086811b821660805285811b821660a05284901b1660c052600480546001600160a01b038481166001600160a01b03199283161783556005805485831693169290921790915560405163095ea7b360e01b81529087169163095ea7b391620000e4918791600019910162000242565b602060405180830381600087803b158015620000ff57600080fd5b505af115801562000114573d6000803e3d6000fd5b505050506040513d601f19601f820116820180604052508101906200013a91906200019a565b50505050505062000274565b3390565b600080546001600160a01b038381166001600160a01b0319831681178455604051919092169283917f8be0079c531659141344cd1fd0a4f28419497f9722a3daafe3b4186f6b6457e09190a35050565b600060208284031215620001ac578081fd5b81518015158114620001bc578182fd5b9392505050565b600080600080600060a08688031215620001db578081fd5b8551620001e8816200025b565b6020870151909550620001fb816200025b565b60408701519094506200020e816200025b565b606087015190935062000221816200025b565b608087015190925062000234816200025b565b809150509295509295909350565b6001600160a01b03929092168252602082015260400190565b6001600160a01b03811681146200027157600080fd5b50565b60805160601c60a05160601c60c05160601c6120556200031d600039600081816104b5015281816106f901528181610ab101528181610ee3015281816113d8015281816114d001528181611848015261192e0152600081816115b8015261171d0152600081816107e6015281816108d601528181610b5f01528181610c2101528181610d1201528181610f850152818161127301528181611566015261186c01526120556000f3fe608060405234801561001057600080fd5b506004361061023d5760003560e01c8063853828b61161013b578063db2e21bc116100b8578063f0f442601161007c578063f0f44260146103ef578063f2fde38b14610402578063f851a44014610415578063fb1db2781461041d578063fc0c546a146104255761023d565b8063db2e21bc146103bc578063def68a9c146103c4578063df10b4e6146103d7578063e941fa78146103df578063ec78e832146103e75761023d565b8063b6ac642a116100ff578063b6ac642a14610386578063b6b55f2514610399578063bb5505e2146103ac578063bdca9165146103b4578063d4b0de2f146102ab5761023d565b8063853828b61461035e57806387788782146103665780638da5cb5b1461036e57806390321e1a14610376578063b60f05311461037e5761023d565b80634641257d116101c957806370897b231161018d57806370897b231461032b578063715018a61461033e578063722713f71461034657806377c7b8fc1461034e5780638456cb59146103565761023d565b80634641257d146102de57806348a0d754146102e65780635c975abb146102ee57806361d027b314610303578063704b6c02146103185761023d565b80632ad5a53f116102105780632ad5a53f146102ab5780632cfc5f01146102b35780632e1a7d4d146102bb5780633a98ef39146102ce5780633f4ba83a146102d65761023d565b80631959a002146102425780631efac1b81461026e57806325b29804146102835780632646582614610298575b600080fd5b610255610250366004611a4d565b61042d565b6040516102659493929190611f80565b60405180910390f35b61028161027c366004611a9b565b610455565b005b61028b6104b0565b6040516102659190611b4a565b6102816102a6366004611a9b565b61058c565b61028b6105dc565b61028b6105e1565b6102816102c9366004611a9b565b6105e8565b61028b6109a9565b6102816109af565b610281610a30565b61028b610cf8565b6102f6610d9c565b6040516102659190611b3f565b61030b610dac565b6040516102659190611aee565b610281610326366004611a4d565b610dbb565b610281610339366004611a9b565b610e42565b610281610e93565b61028b610ede565b61028b61102f565b610281611074565b6102816110f6565b61028b611154565b61030b61115a565b61028b611169565b61028b61116f565b610281610394366004611a9b565b611175565b6102816103a7366004611a9b565b6111c5565b61028b6113d3565b61028b611489565b61028161148f565b6102816103d2366004611a4d565b61153a565b61028b61170f565b61028b611715565b61030b61171b565b6102816103fd366004611a4d565b61173f565b610281610410366004611a4d565b6117c6565b61030b611837565b61030b611846565b61030b61186a565b6001602081905260009182526040909120805491810154600282015460039092015490919084565b6004546001600160a01b031633146104885760405162461bcd60e51b815260040161047f90611e8a565b60405180910390fd5b6203f4808111156104ab5760405162461bcd60e51b815260040161047f90611eaf565b600955565b6000807f00000000000000000000000000000000000000000000000000000000000000006001600160a01b031663bfafcad56000306040518363ffffffff1660e01b8152600401610502929190611b53565b60206040518083038186803b15801561051a57600080fd5b505afa15801561052e573d6000803e3d6000fd5b505050506040513d601f19601f820116820180604052508101906105529190611ab3565b905061055c610cf8565b6105669082611f9b565b905060006127106007548361057b9190611fd3565b6105859190611fb3565b9250505090565b6004546001600160a01b031633146105b65760405162461bcd60e51b815260040161047f90611e8a565b60648111156105d75760405162461bcd60e51b815260040161047f90611d2f565b600755565b606481565b6203f48081565b6105f13361188e565b1561060e5760405162461bcd60e51b815260040161047f90611e5c565b33321461062d5760405162461bcd60e51b815260040161047f90611b96565b336000908152600160205260409020816106595760405162461bcd60e51b815260040161047f90611bfb565b805482111561067a5760405162461bcd60e51b815260040161047f90611cb3565b600060025483610688610ede565b6106929190611fd3565b61069c9190611fb3565b82549091506106ac908490611ff2565b82556002546106bc908490611ff2565b60025560006106c9610cf8565b9050818110156107935760006106df8284611ff2565b604051631058d28160e01b81529091506001600160a01b037f00000000000000000000000000000000000000000000000000000000000000001690631058d2819061072e908490600401611b4a565b600060405180830381600087803b15801561074857600080fd5b505af115801561075c573d6000803e3d6000fd5b50505050600061076a610cf8565b905060006107788483611ff2565b90508281101561078f5761078c8185611f9b565b94505b5050505b60095483600101546107a59190611f9b565b42101561087f576000612710600854846107bf9190611fd3565b6107c99190611fb3565b60055460405163a9059cbb60e01b81529192506001600160a01b037f000000000000000000000000000000000000000000000000000000000000000081169263a9059cbb9261081e9216908590600401611b26565b602060405180830381600087803b15801561083857600080fd5b505af115801561084c573d6000803e3d6000fd5b505050506040513d601f19601f820116820180604052508101906108709190611a7b565b5061087b8184611ff2565b9250505b8254156108b157600254610891610ede565b845461089d9190611fd3565b6108a79190611fb3565b60028401556108b9565b600060028401555b42600384015560405163a9059cbb60e01b81526001600160a01b037f0000000000000000000000000000000000000000000000000000000000000000169063a9059cbb9061090d9033908690600401611b26565b602060405180830381600087803b15801561092757600080fd5b505af115801561093b573d6000803e3d6000fd5b505050506040513d601f19601f8201168201806040525081019061095f9190611a7b565b50336001600160a01b03167ff279e6a1f5e320cca91135676d9cb6e44ca8a08c0b88342bcdb1144f6511b568838660405161099b929190611f5c565b60405180910390a250505050565b60025481565b6004546001600160a01b031633146109d95760405162461bcd60e51b815260040161047f90611e8a565b6109e1610d9c565b6109fd5760405162461bcd60e51b815260040161047f90611bcd565b610a05611894565b6040517f7805862f689e2f13df9f062ff482ad3ad112aca9e0847911ed832e158c525b3390600090a1565b610a393361188e565b15610a565760405162461bcd60e51b815260040161047f90611e5c565b333214610a755760405162461bcd60e51b815260040161047f90611b96565b610a7d610d9c565b15610a9a5760405162461bcd60e51b815260040161047f90611dcd565b604051631058d28160e01b81526001600160a01b037f00000000000000000000000000000000000000000000000000000000000000001690631058d28190610ae790600090600401611b4a565b600060405180830381600087803b158015610b0157600080fd5b505af1158015610b15573d6000803e3d6000fd5b505050506000610b23610cf8565b9050600061271060065483610b389190611fd3565b610b429190611fb3565b60055460405163a9059cbb60e01b81529192506001600160a01b037f000000000000000000000000000000000000000000000000000000000000000081169263a9059cbb92610b979216908590600401611b26565b602060405180830381600087803b158015610bb157600080fd5b505af1158015610bc5573d6000803e3d6000fd5b505050506040513d601f19601f82011682018060405250810190610be99190611a7b565b50600061271060075484610bfd9190611fd3565b610c079190611fb3565b60405163a9059cbb60e01b81529091506001600160a01b037f0000000000000000000000000000000000000000000000000000000000000000169063a9059cbb90610c589033908590600401611b26565b602060405180830381600087803b158015610c7257600080fd5b505af1158015610c86573d6000803e3d6000fd5b505050506040513d601f19601f82011682018060405250810190610caa9190611a7b565b50610cb3611905565b4260035560405133907f71bab65ced2e5750775a0613be067df48ef06cf92a496ebf7663ae066092495490610ceb9085908590611f5c565b60405180910390a2505050565b6040516370a0823160e01b81526000906001600160a01b037f000000000000000000000000000000000000000000000000000000000000000016906370a0823190610d47903090600401611aee565b60206040518083038186803b158015610d5f57600080fd5b505afa158015610d73573d6000803e3d6000fd5b505050506040513d601f19601f82011682018060405250810190610d979190611ab3565b905090565b600054600160a01b900460ff1690565b6005546001600160a01b031681565b610dc3611998565b6001600160a01b0316610dd461115a565b6001600160a01b031614610dfa5760405162461bcd60e51b815260040161047f90611e27565b6001600160a01b038116610e205760405162461bcd60e51b815260040161047f90611df7565b600480546001600160a01b0319166001600160a01b0392909216919091179055565b6004546001600160a01b03163314610e6c5760405162461bcd60e51b815260040161047f90611e8a565b6101f4811115610e8e5760405162461bcd60e51b815260040161047f90611d77565b600655565b610e9b611998565b6001600160a01b0316610eac61115a565b6001600160a01b031614610ed25760405162461bcd60e51b815260040161047f90611e27565b610edc600061199c565b565b6000807f00000000000000000000000000000000000000000000000000000000000000006001600160a01b03166393f1a40b6000306040518363ffffffff1660e01b8152600401610f30929190611b53565b604080518083038186803b158015610f4757600080fd5b505afa158015610f5b573d6000803e3d6000fd5b505050506040513d601f19601f82011682018060405250810190610f7f9190611acb565b509050807f00000000000000000000000000000000000000000000000000000000000000006001600160a01b03166370a08231306040518263ffffffff1660e01b8152600401610fcf9190611aee565b60206040518083038186803b158015610fe757600080fd5b505afa158015610ffb573d6000803e3d6000fd5b505050506040513d601f19601f8201168201806040525081019061101f9190611ab3565b6110299190611f9b565b91505090565b600060025460001461106757600254611046610ede565b61105890670de0b6b3a7640000611fd3565b6110629190611fb3565b610d97565b50670de0b6b3a764000090565b6004546001600160a01b0316331461109e5760405162461bcd60e51b815260040161047f90611e8a565b6110a6610d9c565b156110c35760405162461bcd60e51b815260040161047f90611dcd565b6110cb6119ec565b6040517f6985a02210a168e66602d3235cb6db0e70f92b3ba4d376a33c0f3d9434bff62590600090a1565b6110ff3361188e565b1561111c5760405162461bcd60e51b815260040161047f90611e5c565b33321461113b5760405162461bcd60e51b815260040161047f90611b96565b33600090815260016020526040902054610edc906105e8565b60065481565b6000546001600160a01b031690565b60075481565b60035481565b6004546001600160a01b0316331461119f5760405162461bcd60e51b815260040161047f90611e8a565b60648111156111c05760405162461bcd60e51b815260040161047f90611f0c565b600855565b6111cd610d9c565b156111ea5760405162461bcd60e51b815260040161047f90611dcd565b6111f33361188e565b156112105760405162461bcd60e51b815260040161047f90611e5c565b33321461122f5760405162461bcd60e51b815260040161047f90611b96565b6000811161124f5760405162461bcd60e51b815260040161047f90611b6a565b6000611259610ede565b6040516323b872dd60e01b81529091506001600160a01b037f000000000000000000000000000000000000000000000000000000000000000016906323b872dd906112ac90339030908790600401611b02565b602060405180830381600087803b1580156112c657600080fd5b505af11580156112da573d6000803e3d6000fd5b505050506040513d601f19601f820116820180604052508101906112fe9190611a7b565b50600060025460001461132b57816002548461131a9190611fd3565b6113249190611fb3565b905061132e565b50815b336000908152600160205260409020805461134a908390611f9b565b8155426001820155600254611360908390611f9b565b600281905561136d610ede565b82546113799190611fd3565b6113839190611fb3565b6002820155426003820155611396611905565b336001600160a01b03167f36af321ec8d3c75236829c5317affd40ddb308863a1236d2d277a4025cccee1e85844260405161099b93929190611f6a565b6000807f00000000000000000000000000000000000000000000000000000000000000006001600160a01b031663bfafcad56000306040518363ffffffff1660e01b8152600401611425929190611b53565b60206040518083038186803b15801561143d57600080fd5b505afa158015611451573d6000803e3d6000fd5b505050506040513d601f19601f820116820180604052508101906114759190611ab3565b905061147f610cf8565b6110299082611f9b565b6101f481565b6004546001600160a01b031633146114b95760405162461bcd60e51b815260040161047f90611e8a565b604051632989754760e11b81526001600160a01b037f00000000000000000000000000000000000000000000000000000000000000001690635312ea8e9061150690600090600401611b4a565b600060405180830381600087803b15801561152057600080fd5b505af1158015611534573d6000803e3d6000fd5b50505050565b6004546001600160a01b031633146115645760405162461bcd60e51b815260040161047f90611e8a565b7f00000000000000000000000000000000000000000000000000000000000000006001600160a01b0316816001600160a01b031614156115b65760405162461bcd60e51b815260040161047f90611c6e565b7f00000000000000000000000000000000000000000000000000000000000000006001600160a01b0316816001600160a01b031614156116085760405162461bcd60e51b815260040161047f90611cea565b6040516370a0823160e01b81526000906001600160a01b038316906370a0823190611637903090600401611aee565b60206040518083038186803b15801561164f57600080fd5b505afa158015611663573d6000803e3d6000fd5b505050506040513d601f19601f820116820180604052508101906116879190611ab3565b60405163a9059cbb60e01b81529091506001600160a01b0383169063a9059cbb906116b89033908590600401611b26565b602060405180830381600087803b1580156116d257600080fd5b505af11580156116e6573d6000803e3d6000fd5b505050506040513d601f19601f8201168201806040525081019061170a9190611a7b565b505050565b60095481565b60085481565b7f000000000000000000000000000000000000000000000000000000000000000081565b611747611998565b6001600160a01b031661175861115a565b6001600160a01b03161461177e5760405162461bcd60e51b815260040161047f90611e27565b6001600160a01b0381166117a45760405162461bcd60e51b815260040161047f90611df7565b600580546001600160a01b0319166001600160a01b0392909216919091179055565b6117ce611998565b6001600160a01b03166117df61115a565b6001600160a01b0316146118055760405162461bcd60e51b815260040161047f90611e27565b6001600160a01b03811661182b5760405162461bcd60e51b815260040161047f90611c28565b6118348161199c565b50565b6004546001600160a01b031681565b7f000000000000000000000000000000000000000000000000000000000000000081565b7f000000000000000000000000000000000000000000000000000000000000000081565b3b151590565b61189c610d9c565b6118b85760405162461bcd60e51b815260040161047f90611bcd565b6000805460ff60a01b191690557f5db9ee0a495bf2e6ff9c91a7834c1ba4fdd244a5e8aa4e537bd38aeae4b073aa6118ee611998565b6040516118fb9190611aee565b60405180910390a1565b600061190f610cf8565b90508015611834576040516341441d3b60e01b81526001600160a01b037f000000000000000000000000000000000000000000000000000000000000000016906341441d3b90611963908490600401611b4a565b600060405180830381600087803b15801561197d57600080fd5b505af1158015611991573d6000803e3d6000fd5b5050505050565b3390565b600080546001600160a01b038381166001600160a01b0319831681178455604051919092169283917f8be0079c531659141344cd1fd0a4f28419497f9722a3daafe3b4186f6b6457e09190a35050565b6119f4610d9c565b15611a115760405162461bcd60e51b815260040161047f90611dcd565b6000805460ff60a01b1916600160a01b1790557f62e78cea01bee320cd4e420270b5ea74000d11b0c9f74754ebdbfc544b05a2586118ee611998565b600060208284031215611a5e578081fd5b81356001600160a01b0381168114611a74578182fd5b9392505050565b600060208284031215611a8c578081fd5b81518015158114611a74578182fd5b600060208284031215611aac578081fd5b5035919050565b600060208284031215611ac4578081fd5b5051919050565b60008060408385031215611add578081fd5b505080516020909101519092909150565b6001600160a01b0391909116815260200190565b6001600160a01b039384168152919092166020820152604081019190915260600190565b6001600160a01b03929092168252602082015260400190565b901515815260200190565b90815260200190565b9182526001600160a01b0316602082015260400190565b602080825260129082015271139bdd1a1a5b99c81d1bc819195c1bdcda5d60721b604082015260600190565b6020808252601a908201527f70726f787920636f6e7472616374206e6f7420616c6c6f776564000000000000604082015260600190565b60208082526014908201527314185d5cd8589b194e881b9bdd081c185d5cd95960621b604082015260600190565b6020808252601390820152724e6f7468696e6720746f20776974686472617760681b604082015260600190565b60208082526026908201527f4f776e61626c653a206e6577206f776e657220697320746865207a65726f206160408201526564647265737360d01b606082015260800190565b60208082526025908201527f546f6b656e2063616e6e6f742062652073616d65206173206465706f736974206040820152643a37b5b2b760d91b606082015260800190565b6020808252601f908201527f576974686472617720616d6f756e7420657863656564732062616c616e636500604082015260600190565b60208082526025908201527f546f6b656e2063616e6e6f742062652073616d652061732072656365697074206040820152643a37b5b2b760d91b606082015260800190565b60208082526028908201527f63616c6c4665652063616e6e6f74206265206d6f7265207468616e204d41585f60408201526743414c4c5f46454560c01b606082015260800190565b60208082526036908201527f706572666f726d616e63654665652063616e6e6f74206265206d6f7265207468604082015275616e204d41585f504552464f524d414e43455f46454560501b606082015260800190565b60208082526010908201526f14185d5cd8589b194e881c185d5cd95960821b604082015260600190565b60208082526016908201527543616e6e6f74206265207a65726f206164647265737360501b604082015260600190565b6020808252818101527f4f776e61626c653a2063616c6c6572206973206e6f7420746865206f776e6572604082015260600190565b60208082526014908201527318dbdb9d1c9858dd081b9bdd08185b1b1bddd95960621b604082015260600190565b6020808252600b908201526a61646d696e3a207775743f60a81b604082015260600190565b6020808252603d908201527f7769746864726177466565506572696f642063616e6e6f74206265206d6f726560408201527f207468616e204d41585f57495448445241575f4645455f504552494f44000000606082015260800190565b60208082526030908201527f77697468647261774665652063616e6e6f74206265206d6f7265207468616e2060408201526f4d41585f57495448445241575f46454560801b606082015260800190565b918252602082015260400190565b9283526020830191909152604082015260600190565b93845260208401929092526040830152606082015260800190565b60008219821115611fae57611fae612009565b500190565b600082611fce57634e487b7160e01b81526012600452602481fd5b500490565b6000816000190483118215151615611fed57611fed612009565b500290565b60008282101561200457612004612009565b500390565b634e487b7160e01b600052601160045260246000fdfea264697066735822122006d99ee8c7bfb267881014d15f931bc0fecacc89fff29d03dac89d750724bdb764736f6c63430008000033",
    "sourcePath": "/Users/unico/Documents/GitHub/SoulSwap/soulswap-farms/contracts/SoulVault.sol",
    "compiler": {
        "name": "solc",
        "version": "0.8.0+commit.c7dfd78e"
    },
    "functionHashes": {
        "MAX_CALL_FEE()": "2ad5a53f",
        "MAX_PERFORMANCE_FEE()": "bdca9165",
        "MAX_WITHDRAW_FEE()": "d4b0de2f",
        "MAX_WITHDRAW_FEE_PERIOD()": "2cfc5f01",
        "admin()": "f851a440",
        "available()": "48a0d754",
        "balanceOf()": "722713f7",
        "calculateHarvestSoulRewards()": "25b29804",
        "calculateTotalPendingSoulRewards()": "bb5505e2",
        "callFee()": "90321e1a",
        "deposit(uint256)": "b6b55f25",
        "emergencyWithdraw()": "db2e21bc",
        "getPricePerFullShare()": "77c7b8fc",
        "harvest()": "4641257d",
        "inCaseTokensGetStuck(address)": "def68a9c",
        "lastHarvestedTime()": "b60f0531",
        "masterchef()": "fb1db278",
        "owner()": "8da5cb5b",
        "pause()": "8456cb59",
        "paused()": "5c975abb",
        "performanceFee()": "87788782",
        "receiptToken()": "ec78e832",
        "renounceOwnership()": "715018a6",
        "setAdmin(address)": "704b6c02",
        "setCallFee(uint256)": "26465826",
        "setPerformanceFee(uint256)": "70897b23",
        "setTreasury(address)": "f0f44260",
        "setWithdrawFee(uint256)": "b6ac642a",
        "setWithdrawFeePeriod(uint256)": "1efac1b8",
        "token()": "fc0c546a",
        "totalShares()": "3a98ef39",
        "transferOwnership(address)": "f2fde38b",
        "treasury()": "61d027b3",
        "unpause()": "3f4ba83a",
        "userInfo(address)": "1959a002",
        "withdraw(uint256)": "2e1a7d4d",
        "withdrawAll()": "853828b6",
        "withdrawFee()": "e941fa78",
        "withdrawFeePeriod()": "df10b4e6"
    },
    "gasEstimates": {
        "creation": {
            "codeDepositCost": "1655400",
            "executionCost": "infinite",
            "totalCost": "infinite"
        },
        "external": {
            "MAX_CALL_FEE()": "274",
            "MAX_PERFORMANCE_FEE()": "339",
            "MAX_WITHDRAW_FEE()": "361",
            "MAX_WITHDRAW_FEE_PERIOD()": "296",
            "admin()": "1158",
            "available()": "infinite",
            "balanceOf()": "infinite",
            "calculateHarvestSoulRewards()": "infinite",
            "calculateTotalPendingSoulRewards()": "infinite",
            "callFee()": "1140",
            "deposit(uint256)": "infinite",
            "emergencyWithdraw()": "infinite",
            "getPricePerFullShare()": "infinite",
            "harvest()": "infinite",
            "inCaseTokensGetStuck(address)": "infinite",
            "lastHarvestedTime()": "1162",
            "masterchef()": "infinite",
            "owner()": "1160",
            "pause()": "infinite",
            "paused()": "1147",
            "performanceFee()": "1096",
            "receiptToken()": "infinite",
            "renounceOwnership()": "23571",
            "setAdmin(address)": "22235",
            "setCallFee(uint256)": "21203",
            "setPerformanceFee(uint256)": "21135",
            "setTreasury(address)": "22145",
            "setWithdrawFee(uint256)": "21135",
            "setWithdrawFeePeriod(uint256)": "21159",
            "token()": "infinite",
            "totalShares()": "1140",
            "transferOwnership(address)": "23730",
            "treasury()": "1182",
            "unpause()": "infinite",
            "userInfo(address)": "3778",
            "withdraw(uint256)": "infinite",
            "withdrawAll()": "infinite",
            "withdrawFee()": "1139",
            "withdrawFeePeriod()": "1117"
        },
        "internal": {
            "_earn()": "infinite",
            "_isContract(address)": "718"
        }
    }
}