{
    "contractName": "SoulSummoner",
    "abi": [
        {
            "anonymous": false,
            "inputs": [
                {
                    "indexed": false,
                    "internalType": "address",
                    "name": "dao",
                    "type": "address"
                },
                {
                    "indexed": false,
                    "internalType": "address",
                    "name": "team",
                    "type": "address"
                }
            ],
            "name": "AccountsUpdated",
            "type": "event"
        },
        {
            "anonymous": false,
            "inputs": [
                {
                    "indexed": true,
                    "internalType": "address",
                    "name": "user",
                    "type": "address"
                },
                {
                    "indexed": true,
                    "internalType": "uint256",
                    "name": "pid",
                    "type": "uint256"
                },
                {
                    "indexed": false,
                    "internalType": "uint256",
                    "name": "amount",
                    "type": "uint256"
                }
            ],
            "name": "Deposit",
            "type": "event"
        },
        {
            "anonymous": false,
            "inputs": [
                {
                    "indexed": false,
                    "internalType": "address",
                    "name": "team",
                    "type": "address"
                },
                {
                    "indexed": false,
                    "internalType": "address",
                    "name": "dao",
                    "type": "address"
                },
                {
                    "indexed": false,
                    "internalType": "address",
                    "name": "soul",
                    "type": "address"
                },
                {
                    "indexed": false,
                    "internalType": "address",
                    "name": "seance",
                    "type": "address"
                },
                {
                    "indexed": false,
                    "internalType": "uint256",
                    "name": "totalAllocPoint",
                    "type": "uint256"
                },
                {
                    "indexed": false,
                    "internalType": "uint256",
                    "name": "weight",
                    "type": "uint256"
                }
            ],
            "name": "Initialized",
            "type": "event"
        },
        {
            "anonymous": false,
            "inputs": [
                {
                    "indexed": true,
                    "internalType": "address",
                    "name": "operator",
                    "type": "address"
                },
                {
                    "indexed": true,
                    "internalType": "bool",
                    "name": "access",
                    "type": "bool"
                }
            ],
            "name": "OperatorUpdated",
            "type": "event"
        },
        {
            "anonymous": false,
            "inputs": [
                {
                    "indexed": true,
                    "internalType": "address",
                    "name": "previousOwner",
                    "type": "address"
                },
                {
                    "indexed": true,
                    "internalType": "address",
                    "name": "newOwner",
                    "type": "address"
                }
            ],
            "name": "OwnershipTransferred",
            "type": "event"
        },
        {
            "anonymous": false,
            "inputs": [
                {
                    "indexed": false,
                    "internalType": "uint256",
                    "name": "pid",
                    "type": "uint256"
                },
                {
                    "indexed": false,
                    "internalType": "uint256",
                    "name": "allocPoint",
                    "type": "uint256"
                },
                {
                    "indexed": false,
                    "internalType": "contract IERC20",
                    "name": "lpToken",
                    "type": "address"
                },
                {
                    "indexed": false,
                    "internalType": "uint256",
                    "name": "totalAllocPoint",
                    "type": "uint256"
                }
            ],
            "name": "PoolAdded",
            "type": "event"
        },
        {
            "anonymous": false,
            "inputs": [
                {
                    "indexed": false,
                    "internalType": "uint256",
                    "name": "pid",
                    "type": "uint256"
                },
                {
                    "indexed": false,
                    "internalType": "uint256",
                    "name": "allocPoint",
                    "type": "uint256"
                }
            ],
            "name": "PoolSet",
            "type": "event"
        },
        {
            "anonymous": false,
            "inputs": [
                {
                    "indexed": false,
                    "internalType": "uint256",
                    "name": "dailySoul",
                    "type": "uint256"
                },
                {
                    "indexed": false,
                    "internalType": "uint256",
                    "name": "soulPerSecond",
                    "type": "uint256"
                }
            ],
            "name": "RewardsUpdated",
            "type": "event"
        },
        {
            "anonymous": false,
            "inputs": [
                {
                    "indexed": false,
                    "internalType": "address",
                    "name": "soul",
                    "type": "address"
                },
                {
                    "indexed": false,
                    "internalType": "address",
                    "name": "seance",
                    "type": "address"
                }
            ],
            "name": "TokensUpdated",
            "type": "event"
        },
        {
            "anonymous": false,
            "inputs": [
                {
                    "indexed": false,
                    "internalType": "uint256",
                    "name": "weight",
                    "type": "uint256"
                },
                {
                    "indexed": false,
                    "internalType": "uint256",
                    "name": "totalWeight",
                    "type": "uint256"
                }
            ],
            "name": "WeightUpdated",
            "type": "event"
        },
        {
            "anonymous": false,
            "inputs": [
                {
                    "indexed": true,
                    "internalType": "address",
                    "name": "user",
                    "type": "address"
                },
                {
                    "indexed": true,
                    "internalType": "uint256",
                    "name": "pid",
                    "type": "uint256"
                },
                {
                    "indexed": false,
                    "internalType": "uint256",
                    "name": "amount",
                    "type": "uint256"
                }
            ],
            "name": "Withdraw",
            "type": "event"
        },
        {
            "inputs": [
                {
                    "internalType": "address",
                    "name": "newOperator",
                    "type": "address"
                }
            ],
            "name": "addOperator",
            "outputs": [],
            "stateMutability": "nonpayable",
            "type": "function"
        },
        {
            "inputs": [
                {
                    "internalType": "uint256",
                    "name": "_allocPoint",
                    "type": "uint256"
                },
                {
                    "internalType": "contract IERC20",
                    "name": "_lpToken",
                    "type": "address"
                },
                {
                    "internalType": "bool",
                    "name": "_withUpdate",
                    "type": "bool"
                }
            ],
            "name": "addPool",
            "outputs": [],
            "stateMutability": "nonpayable",
            "type": "function"
        },
        {
            "inputs": [],
            "name": "bonusMultiplier",
            "outputs": [
                {
                    "internalType": "uint256",
                    "name": "",
                    "type": "uint256"
                }
            ],
            "stateMutability": "view",
            "type": "function"
        },
        {
            "inputs": [],
            "name": "dailySoul",
            "outputs": [
                {
                    "internalType": "uint256",
                    "name": "",
                    "type": "uint256"
                }
            ],
            "stateMutability": "view",
            "type": "function"
        },
        {
            "inputs": [],
            "name": "dao",
            "outputs": [
                {
                    "internalType": "address",
                    "name": "",
                    "type": "address"
                }
            ],
            "stateMutability": "view",
            "type": "function"
        },
        {
            "inputs": [
                {
                    "internalType": "uint256",
                    "name": "pid",
                    "type": "uint256"
                },
                {
                    "internalType": "uint256",
                    "name": "amount",
                    "type": "uint256"
                }
            ],
            "name": "deposit",
            "outputs": [],
            "stateMutability": "nonpayable",
            "type": "function"
        },
        {
            "inputs": [
                {
                    "internalType": "uint256",
                    "name": "_amount",
                    "type": "uint256"
                }
            ],
            "name": "enterStaking",
            "outputs": [],
            "stateMutability": "nonpayable",
            "type": "function"
        },
        {
            "inputs": [
                {
                    "internalType": "uint256",
                    "name": "_from",
                    "type": "uint256"
                },
                {
                    "internalType": "uint256",
                    "name": "_to",
                    "type": "uint256"
                }
            ],
            "name": "getMultiplier",
            "outputs": [
                {
                    "internalType": "uint256",
                    "name": "",
                    "type": "uint256"
                }
            ],
            "stateMutability": "view",
            "type": "function"
        },
        {
            "inputs": [
                {
                    "internalType": "address",
                    "name": "_soulAddress",
                    "type": "address"
                },
                {
                    "internalType": "address",
                    "name": "_seanceAddress",
                    "type": "address"
                },
                {
                    "internalType": "uint256",
                    "name": "_totalWeight",
                    "type": "uint256"
                },
                {
                    "internalType": "uint256",
                    "name": "_weight",
                    "type": "uint256"
                },
                {
                    "internalType": "uint256",
                    "name": "_stakingAlloc",
                    "type": "uint256"
                }
            ],
            "name": "initialize",
            "outputs": [],
            "stateMutability": "nonpayable",
            "type": "function"
        },
        {
            "inputs": [],
            "name": "isInitialized",
            "outputs": [
                {
                    "internalType": "bool",
                    "name": "",
                    "type": "bool"
                }
            ],
            "stateMutability": "view",
            "type": "function"
        },
        {
            "inputs": [
                {
                    "internalType": "uint256",
                    "name": "amount",
                    "type": "uint256"
                }
            ],
            "name": "leaveStaking",
            "outputs": [],
            "stateMutability": "nonpayable",
            "type": "function"
        },
        {
            "inputs": [],
            "name": "massUpdatePools",
            "outputs": [],
            "stateMutability": "nonpayable",
            "type": "function"
        },
        {
            "inputs": [
                {
                    "internalType": "uint256",
                    "name": "pid",
                    "type": "uint256"
                }
            ],
            "name": "migrate",
            "outputs": [],
            "stateMutability": "nonpayable",
            "type": "function"
        },
        {
            "inputs": [],
            "name": "migrator",
            "outputs": [
                {
                    "internalType": "contract IMigrator",
                    "name": "",
                    "type": "address"
                }
            ],
            "stateMutability": "view",
            "type": "function"
        },
        {
            "inputs": [
                {
                    "internalType": "address",
                    "name": "",
                    "type": "address"
                }
            ],
            "name": "operator",
            "outputs": [
                {
                    "internalType": "bool",
                    "name": "",
                    "type": "bool"
                }
            ],
            "stateMutability": "view",
            "type": "function"
        },
        {
            "inputs": [
                {
                    "internalType": "uint256",
                    "name": "",
                    "type": "uint256"
                }
            ],
            "name": "operators",
            "outputs": [
                {
                    "internalType": "address",
                    "name": "",
                    "type": "address"
                }
            ],
            "stateMutability": "view",
            "type": "function"
        },
        {
            "inputs": [],
            "name": "owner",
            "outputs": [
                {
                    "internalType": "address",
                    "name": "",
                    "type": "address"
                }
            ],
            "stateMutability": "view",
            "type": "function"
        },
        {
            "inputs": [
                {
                    "internalType": "uint256",
                    "name": "pid",
                    "type": "uint256"
                },
                {
                    "internalType": "address",
                    "name": "_user",
                    "type": "address"
                }
            ],
            "name": "pendingSoul",
            "outputs": [
                {
                    "internalType": "uint256",
                    "name": "",
                    "type": "uint256"
                }
            ],
            "stateMutability": "view",
            "type": "function"
        },
        {
            "inputs": [
                {
                    "internalType": "uint256",
                    "name": "",
                    "type": "uint256"
                }
            ],
            "name": "poolInfo",
            "outputs": [
                {
                    "internalType": "contract IERC20",
                    "name": "lpToken",
                    "type": "address"
                },
                {
                    "internalType": "uint256",
                    "name": "allocPoint",
                    "type": "uint256"
                },
                {
                    "internalType": "uint256",
                    "name": "lastRewardTime",
                    "type": "uint256"
                },
                {
                    "internalType": "uint256",
                    "name": "accSoulPerShare",
                    "type": "uint256"
                }
            ],
            "stateMutability": "view",
            "type": "function"
        },
        {
            "inputs": [],
            "name": "poolLength",
            "outputs": [
                {
                    "internalType": "uint256",
                    "name": "",
                    "type": "uint256"
                }
            ],
            "stateMutability": "view",
            "type": "function"
        },
        {
            "inputs": [
                {
                    "internalType": "address",
                    "name": "removingOperator",
                    "type": "address"
                }
            ],
            "name": "removeOperator",
            "outputs": [],
            "stateMutability": "nonpayable",
            "type": "function"
        },
        {
            "inputs": [],
            "name": "renounceOwnership",
            "outputs": [],
            "stateMutability": "nonpayable",
            "type": "function"
        },
        {
            "inputs": [],
            "name": "seance",
            "outputs": [
                {
                    "internalType": "contract SeanceCircle",
                    "name": "",
                    "type": "address"
                }
            ],
            "stateMutability": "view",
            "type": "function"
        },
        {
            "inputs": [
                {
                    "internalType": "uint256",
                    "name": "pid",
                    "type": "uint256"
                },
                {
                    "internalType": "uint256",
                    "name": "allocPoint",
                    "type": "uint256"
                },
                {
                    "internalType": "bool",
                    "name": "withUpdate",
                    "type": "bool"
                }
            ],
            "name": "set",
            "outputs": [],
            "stateMutability": "nonpayable",
            "type": "function"
        },
        {
            "inputs": [
                {
                    "internalType": "contract IMigrator",
                    "name": "_migrator",
                    "type": "address"
                }
            ],
            "name": "setMigrator",
            "outputs": [],
            "stateMutability": "nonpayable",
            "type": "function"
        },
        {
            "inputs": [],
            "name": "soul",
            "outputs": [
                {
                    "internalType": "contract SoulPower",
                    "name": "",
                    "type": "address"
                }
            ],
            "stateMutability": "view",
            "type": "function"
        },
        {
            "inputs": [],
            "name": "soulPerSecond",
            "outputs": [
                {
                    "internalType": "uint256",
                    "name": "",
                    "type": "uint256"
                }
            ],
            "stateMutability": "view",
            "type": "function"
        },
        {
            "inputs": [],
            "name": "startTime",
            "outputs": [
                {
                    "internalType": "uint256",
                    "name": "",
                    "type": "uint256"
                }
            ],
            "stateMutability": "view",
            "type": "function"
        },
        {
            "inputs": [],
            "name": "team",
            "outputs": [
                {
                    "internalType": "address",
                    "name": "",
                    "type": "address"
                }
            ],
            "stateMutability": "view",
            "type": "function"
        },
        {
            "inputs": [],
            "name": "totalAllocPoint",
            "outputs": [
                {
                    "internalType": "uint256",
                    "name": "",
                    "type": "uint256"
                }
            ],
            "stateMutability": "view",
            "type": "function"
        },
        {
            "inputs": [],
            "name": "totalWeight",
            "outputs": [
                {
                    "internalType": "uint256",
                    "name": "",
                    "type": "uint256"
                }
            ],
            "stateMutability": "view",
            "type": "function"
        },
        {
            "inputs": [
                {
                    "internalType": "address",
                    "name": "newOwner",
                    "type": "address"
                }
            ],
            "name": "transferOwnership",
            "outputs": [],
            "stateMutability": "nonpayable",
            "type": "function"
        },
        {
            "inputs": [
                {
                    "internalType": "address",
                    "name": "_dao",
                    "type": "address"
                },
                {
                    "internalType": "address",
                    "name": "_team",
                    "type": "address"
                }
            ],
            "name": "updateAccounts",
            "outputs": [],
            "stateMutability": "nonpayable",
            "type": "function"
        },
        {
            "inputs": [
                {
                    "internalType": "uint256",
                    "name": "_bonusMultiplier",
                    "type": "uint256"
                }
            ],
            "name": "updateMultiplier",
            "outputs": [],
            "stateMutability": "nonpayable",
            "type": "function"
        },
        {
            "inputs": [
                {
                    "internalType": "uint256",
                    "name": "pid",
                    "type": "uint256"
                }
            ],
            "name": "updatePool",
            "outputs": [],
            "stateMutability": "nonpayable",
            "type": "function"
        },
        {
            "inputs": [
                {
                    "internalType": "address",
                    "name": "_soul",
                    "type": "address"
                },
                {
                    "internalType": "address",
                    "name": "_seance",
                    "type": "address"
                }
            ],
            "name": "updateTokens",
            "outputs": [],
            "stateMutability": "nonpayable",
            "type": "function"
        },
        {
            "inputs": [
                {
                    "internalType": "uint256",
                    "name": "updatedWeight",
                    "type": "uint256"
                }
            ],
            "name": "updateWeight",
            "outputs": [],
            "stateMutability": "nonpayable",
            "type": "function"
        },
        {
            "inputs": [
                {
                    "internalType": "uint256",
                    "name": "",
                    "type": "uint256"
                },
                {
                    "internalType": "address",
                    "name": "",
                    "type": "address"
                }
            ],
            "name": "userInfo",
            "outputs": [
                {
                    "internalType": "uint256",
                    "name": "amount",
                    "type": "uint256"
                },
                {
                    "internalType": "uint256",
                    "name": "rewardDebt",
                    "type": "uint256"
                }
            ],
            "stateMutability": "view",
            "type": "function"
        },
        {
            "inputs": [],
            "name": "weight",
            "outputs": [
                {
                    "internalType": "uint256",
                    "name": "",
                    "type": "uint256"
                }
            ],
            "stateMutability": "view",
            "type": "function"
        },
        {
            "inputs": [
                {
                    "internalType": "uint256",
                    "name": "pid",
                    "type": "uint256"
                },
                {
                    "internalType": "uint256",
                    "name": "amount",
                    "type": "uint256"
                }
            ],
            "name": "withdraw",
            "outputs": [],
            "stateMutability": "nonpayable",
            "type": "function"
        }
    ],
    "bytecode": "60806040526001600f553480156200001657600080fd5b506200002b62000025620000d0565b620000d4565b600062000037620000d0565b6001600160a01b038116600081815260026020526040808220805460ff19166001908117909155805480820182558184527fb10e2d527612073b26eecdfd717e6a320cf44b4afac2b0732d9fcbe2b7fa0cf60180546001600160a01b031916851790559051939450927f966c160e1c4dbc7df8d69af4ace01e9297c3cf016397b7914971f2fbfa32672d9190a350600160035562000124565b3390565b600080546001600160a01b038381166001600160a01b0319831681178455604051919092169283917f8be0079c531659141344cd1fd0a4f28419497f9722a3daafe3b4186f6b6457e09190a35050565b612f8480620001346000396000f3fe608060405234801561001057600080fd5b50600436106102485760003560e01c80637d500ec81161013b578063a8b973a1116100b8578063e28d49061161007c578063e28d49061461047b578063e2bbb1581461048e578063e7aa29e3146104a1578063ec3df6ad146104b4578063f2fde38b146104c757610248565b8063a8b973a114610427578063ac8a584a1461042f578063bfafcad514610442578063d13f90b414610455578063e13e8ec21461046857610248565b806393f1a40b116100ff57806393f1a40b146103d057806396c82e57146103f15780639870d7fe146103f95780639a3073911461040c578063a1aab33f1461041f57610248565b80637d500ec81461039d578063815b7a8c146103a557806385f2aef2146103ad5780638da5cb5b146103b55780638dbb1e3a146103bd57610248565b80634ca01d45116101c957806364482f791161018d57806364482f791461035f578063715018a61461037257806378e979251461037a5780637abceffd146103825780637cd07e471461039557610248565b80634ca01d451461032157806351eb05a6146103295780635f9bf6891461033c5780635ffe614614610344578063630b5ba11461035757610248565b8063392e53cd11610210578063392e53cd146102be57806341441d3b146102d35780634162169f146102e6578063441a3e70146102fb578063454b06081461030e57610248565b8063081e3eda1461024d5780631058d2811461026b5780631526fe271461028057806317caf6f1146102a357806323cf3118146102ab575b600080fd5b6102556104da565b6040516102629190612e0c565b60405180910390f35b61027e61027936600461280c565b6104e0565b005b61029361028e36600461280c565b61075c565b604051610262949392919061299f565b6102556107a0565b61027e6102b9366004612730565b6107a6565b6102c6610829565b6040516102629190612994565b61027e6102e136600461280c565b610832565b6102ee610a8b565b60405161026291906128ef565b61027e6103093660046128a1565b610a9a565b61027e61031c36600461280c565b610cc7565b6102ee610fb1565b61027e61033736600461280c565b610fc0565b6102556112b6565b61027e61035236600461280c565b6112bc565b61027e611307565b61027e61036d3660046128c2565b61132e565b61027e6114a0565b6102556114eb565b61027e610390366004612860565b6114f1565b6102ee611572565b610255611581565b6102ee611587565b6102ee611596565b6102ee6115a5565b6102556103cb3660046128a1565b6115b4565b6103e36103de36600461283c565b6115d5565b604051610262929190612e15565b6102556115f9565b61027e610407366004612730565b6115ff565b6102c661041a366004612730565b611732565b610255611747565b61025561174d565b61027e61043d366004612730565b611753565b61025561045036600461283c565b611973565b61027e610463366004612784565b611b04565b61027e61047636600461274c565b611d76565b6102ee61048936600461280c565b611e82565b61027e61049c3660046128a1565b611eac565b61027e6104af36600461274c565b6120c2565b61027e6104c236600461280c565b6121bf565b61027e6104d5366004612730565b6122fa565b60135490565b6002600354141561050c5760405162461bcd60e51b815260040161050390612d67565b60405180910390fd5b60026003819055506000601360008154811061053857634e487b7160e01b600052603260045260246000fd5b600091825260208083203384527f4f26c3876aa9f4b92579780beea1161a61f87ebf1ec6ee865b299e447ecba99c90915260409092208054600490920290920192508311156105995760405162461bcd60e51b815260040161050390612ce7565b6105a36000610fc0565b6000816001015464e8d4a51000846003015484600001546105c49190612ea4565b6105ce9190612e84565b6105d89190612ec3565b905080156105ea576105ea338261236b565b83156106845781546105fd908590612ec3565b8255825460405163a9059cbb60e01b81526001600160a01b039091169063a9059cbb90610630903390889060040161297b565b602060405180830381600087803b15801561064a57600080fd5b505af115801561065e573d6000803e3d6000fd5b505050506040513d601f19601f8201168201806040525081019061068291906127d4565b505b6003830154825464e8d4a510009161069b91612ea4565b6106a59190612e84565b6001830155600754604051632770a7eb60e21b81526001600160a01b0390911690639dc29fac906106dc903390889060040161297b565b600060405180830381600087803b1580156106f657600080fd5b505af115801561070a573d6000803e3d6000fd5b505050506000336001600160a01b03167ff279e6a1f5e320cca91135676d9cb6e44ca8a08c0b88342bcdb1144f6511b568866040516107499190612e0c565b60405180910390a3505060016003555050565b6013818154811061076c57600080fd5b600091825260209091206004909102018054600182015460028301546003909301546001600160a01b039092169350919084565b60115481565b60125460ff166107c85760405162461bcd60e51b815260040161050390612dd5565b6107d06123d3565b6001600160a01b03166107e16115a5565b6001600160a01b0316146108075760405162461bcd60e51b815260040161050390612b5d565b600a80546001600160a01b0319166001600160a01b0392909216919091179055565b60125460ff1681565b600260035414156108555760405162461bcd60e51b815260040161050390612d67565b60026003819055506000601360008154811061088157634e487b7160e01b600052603260045260246000fd5b600091825260208083203384527f4f26c3876aa9f4b92579780beea1161a61f87ebf1ec6ee865b299e447ecba99c909152604083206004909202019250906108c890610fc0565b805415610918576000816001015464e8d4a51000846003015484600001546108f09190612ea4565b6108fa9190612e84565b6109049190612ec3565b9050801561091657610916338261236b565b505b82156109b45781546040516323b872dd60e01b81526001600160a01b03909116906323b872dd9061095190339030908890600401612957565b602060405180830381600087803b15801561096b57600080fd5b505af115801561097f573d6000803e3d6000fd5b505050506040513d601f19601f820116820180604052508101906109a391906127d4565b5080546109b1908490612e47565b81555b6003820154815464e8d4a51000916109cb91612ea4565b6109d59190612e84565b60018201556007546040516340c10f1960e01b81526001600160a01b03909116906340c10f1990610a0c903390879060040161297b565b600060405180830381600087803b158015610a2657600080fd5b505af1158015610a3a573d6000803e3d6000fd5b505050506000336001600160a01b03167f90890809c654f11d6e72a28fa60149770a0d11ec6c92319d6ceb2bb0a4ea1a1585604051610a799190612e0c565b60405180910390a35050600160035550565b6009546001600160a01b031681565b60026003541415610abd5760405162461bcd60e51b815260040161050390612d67565b600260035560135482908110610ae55760405162461bcd60e51b815260040161050390612c40565b82610b025760405162461bcd60e51b815260040161050390612aef565b600060138481548110610b2557634e487b7160e01b600052603260045260246000fd5b600091825260208083208784526014825260408085203386529092529220805460049092029092019250841115610b6e5760405162461bcd60e51b815260040161050390612d13565b610b7785610fc0565b6000816001015464e8d4a5100084600301548460000154610b989190612ea4565b610ba29190612e84565b610bac9190612ec3565b90508015610bbe57610bbe338261236b565b8415610c58578154610bd1908690612ec3565b8255825460405163a9059cbb60e01b81526001600160a01b039091169063a9059cbb90610c04903390899060040161297b565b602060405180830381600087803b158015610c1e57600080fd5b505af1158015610c32573d6000803e3d6000fd5b505050506040513d601f19601f82011682018060405250810190610c5691906127d4565b505b6003830154825464e8d4a5100091610c6f91612ea4565b610c799190612e84565b6001830155604051869033907ff279e6a1f5e320cca91135676d9cb6e44ca8a08c0b88342bcdb1144f6511b56890610cb2908990612e0c565b60405180910390a35050600160035550505050565b60125460ff16610ce95760405162461bcd60e51b815260040161050390612dd5565b60135481908110610d0c5760405162461bcd60e51b815260040161050390612c40565b600a546001600160a01b0316610d345760405162461bcd60e51b815260040161050390612ac6565b600060138381548110610d5757634e487b7160e01b600052603260045260246000fd5b60009182526020822060049182020180546040516370a0823160e01b81529194506001600160a01b0316929183916370a0823191610d97913091016128ef565b60206040518083038186803b158015610daf57600080fd5b505afa158015610dc3573d6000803e3d6000fd5b505050506040513d601f19601f82011682018060405250810190610de79190612824565b600a5460405163095ea7b360e01b81529192506001600160a01b038085169263095ea7b392610e1c921690859060040161297b565b602060405180830381600087803b158015610e3657600080fd5b505af1158015610e4a573d6000803e3d6000fd5b505050506040513d601f19601f82011682018060405250810190610e6e91906127d4565b50600a5460405163ce5494bb60e01b81526000916001600160a01b03169063ce5494bb90610ea09086906004016128ef565b602060405180830381600087803b158015610eba57600080fd5b505af1158015610ece573d6000803e3d6000fd5b505050506040513d601f19601f82011682018060405250810190610ef291906127f0565b6040516370a0823160e01b81529091506001600160a01b038216906370a0823190610f219030906004016128ef565b60206040518083038186803b158015610f3957600080fd5b505afa158015610f4d573d6000803e3d6000fd5b505050506040513d601f19601f82011682018060405250810190610f719190612824565b8214610f8f5760405162461bcd60e51b815260040161050390612d9e565b83546001600160a01b0319166001600160a01b03919091161790925550505050565b6007546001600160a01b031681565b60135481908110610fe35760405162461bcd60e51b815260040161050390612c40565b60006013838154811061100657634e487b7160e01b600052603260045260246000fd5b906000526020600020906004020190508060020154421161102757506112b2565b80546040516370a0823160e01b81526000916001600160a01b0316906370a08231906110579030906004016128ef565b60206040518083038186803b15801561106f57600080fd5b505afa158015611083573d6000803e3d6000fd5b505050506040513d601f19601f820116820180604052508101906110a79190612824565b9050806110bb5750426002909101556112b2565b60006110cb8360020154426115b4565b905060006011548460010154600e54846110e59190612ea4565b6110ef9190612ea4565b6110f99190612e84565b90506000650746a52880006111138364e8d4a51000612ea4565b61111d9190612e84565b9050600061112c826002612ea4565b9050600061113a8285612ec3565b6005546008546040516340c10f1960e01b81529293506001600160a01b03918216926340c10f1992611172921690879060040161297b565b600060405180830381600087803b15801561118c57600080fd5b505af11580156111a0573d6000803e3d6000fd5b50506005546009546040516340c10f1960e01b81526001600160a01b0392831694506340c10f1993506111db9290911690879060040161297b565b600060405180830381600087803b1580156111f557600080fd5b505af1158015611209573d6000803e3d6000fd5b50506005546007546040516340c10f1960e01b81526001600160a01b0392831694506340c10f1993506112449290911690859060040161297b565b600060405180830381600087803b15801561125e57600080fd5b505af1158015611272573d6000803e3d6000fd5b505050508581856112839190612ea4565b61128d9190612e84565b876003015461129c9190612e47565b6003880155505042600290950194909455505050505b5050565b600e5481565b60006112c66123d3565b6001600160a01b03811660009081526002602052604090205490915060ff166113015760405162461bcd60e51b815260040161050390612c6d565b50600f55565b60135460005b818110156112b25761131e81610fc0565b61132781612eda565b905061130d565b60125460ff166113505760405162461bcd60e51b815260040161050390612dd5565b601354839081106113735760405162461bcd60e51b815260040161050390612c40565b600061137d6123d3565b6001600160a01b03811660009081526002602052604090205490915060ff166113b85760405162461bcd60e51b815260040161050390612c6d565b82156113c6576113c6611307565b6000601386815481106113e957634e487b7160e01b600052603260045260246000fd5b9060005260206000209060040201600101549050846013878154811061141f57634e487b7160e01b600052603260045260246000fd5b90600052602060002090600402016001018190555084811461145f57848160115461144a9190612ec3565b6114549190612e47565b60115561145f6123d7565b7fd88f859573973e938da5bf3e5100c16eee2090fa720e05ae3d452b4cd05cdcfd8686604051611490929190612e15565b60405180910390a1505050505050565b6114a86123d3565b6001600160a01b03166114b96115a5565b6001600160a01b0316146114df5760405162461bcd60e51b815260040161050390612b5d565b6114e960006124d9565b565b60105481565b60125460ff166115135760405162461bcd60e51b815260040161050390612dd5565b600061151d6123d3565b6001600160a01b03811660009081526002602052604090205490915060ff166115585760405162461bcd60e51b815260040161050390612c6d565b61156183612529565b61156c8484846125aa565b50505050565b600a546001600160a01b031681565b600d5481565b6005546001600160a01b031681565b6008546001600160a01b031681565b6000546001600160a01b031690565b600f546000906115c48484612ec3565b6115ce9190612ea4565b9392505050565b60146020908152600092835260408084209091529082529020805460019091015482565b600b5481565b60006116096123d3565b6001600160a01b03811660009081526002602052604090205490915060ff166116445760405162461bcd60e51b815260040161050390612c6d565b6001600160a01b03821661166a5760405162461bcd60e51b815260040161050390612a0b565b6001600160a01b03821660009081526002602052604090205460ff16156116a35760405162461bcd60e51b815260040161050390612bc9565b6001600160a01b038216600081815260026020526040808220805460ff19166001908117909155805480820182558184527fb10e2d527612073b26eecdfd717e6a320cf44b4afac2b0732d9fcbe2b7fa0cf60180546001600160a01b0319168517905590519092917f966c160e1c4dbc7df8d69af4ace01e9297c3cf016397b7914971f2fbfa32672d91a35050565b60026020526000908152604090205460ff1681565b600c5481565b600f5481565b600061175d6123d3565b6001600160a01b03811660009081526002602052604090205490915060ff166117985760405162461bcd60e51b815260040161050390612c6d565b6001600160a01b03821660009081526002602052604090205460ff166117d05760405162461bcd60e51b815260040161050390612a82565b6001600160a01b0382166000908152600260205260408120805460ff191690555b60015460ff8216101561196e57826001600160a01b031660018260ff168154811061182c57634e487b7160e01b600052603260045260246000fd5b6000918252602090912001546001600160a01b0316141561195c5760016118538282612e5f565b60ff168154811061187457634e487b7160e01b600052603260045260246000fd5b600091825260209091200154600180546001600160a01b039092169160ff84169081106118b157634e487b7160e01b600052603260045260246000fd5b9060005260206000200160006101000a8154816001600160a01b0302191690836001600160a01b0316021790555060018054806118fe57634e487b7160e01b600052603160045260246000fd5b600082815260208120820160001990810180546001600160a01b03191690559091019091556040516001600160a01b038516907f966c160e1c4dbc7df8d69af4ace01e9297c3cf016397b7914971f2fbfa32672d908390a3506112b2565b8061196681612ef5565b9150506117f1565b505050565b6000806013848154811061199757634e487b7160e01b600052603260045260246000fd5b600091825260208083208784526014825260408085206001600160a01b038981168752935280852060049485029092016003810154815492516370a0823160e01b815291975092959294929391909116916370a08231916119fa913091016128ef565b60206040518083038186803b158015611a1257600080fd5b505afa158015611a26573d6000803e3d6000fd5b505050506040513d601f19601f82011682018060405250810190611a4a9190612824565b9050836002015442118015611a5e57508015155b15611acc576000611a738560020154426115b4565b905060006011548660010154600e5484611a8d9190612ea4565b611a979190612ea4565b611aa19190612e84565b905082611ab38264e8d4a51000612ea4565b611abd9190612e84565b611ac79085612e47565b935050505b6001830154835464e8d4a5100090611ae5908590612ea4565b611aef9190612e84565b611af99190612ec3565b979650505050505050565b611b0c6123d3565b6001600160a01b0316611b1d6115a5565b6001600160a01b031614611b435760405162461bcd60e51b815260040161050390612b5d565b60125460ff1615611b665760405162461bcd60e51b815260040161050390612a55565b600480546001600160a01b038088166001600160a01b0319928316179092556006805492871692821692909217909155600980548216339081179091556008805490921617905542601055611bbb8284612e47565b600b819055600c839055600454600580546001600160a01b039283166001600160a01b031991821617909155600654600780549190931691161790558190611c049084906126b7565b604080516080810182526005546001600160a01b03908116825260208201848152601054938301938452600060608401818152601380546001808201835591845295517f66de8ffda797e3de9c05e8fc57b3bf0ec28a930d40b0d285d93c06501cf6a090600490970296870180546001600160a01b031916919096161790945591517f66de8ffda797e3de9c05e8fc57b3bf0ec28a930d40b0d285d93c06501cf6a09185015593517f66de8ffda797e3de9c05e8fc57b3bf0ec28a930d40b0d285d93c06501cf6a092840155517f66de8ffda797e3de9c05e8fc57b3bf0ec28a930d40b0d285d93c06501cf6a093909201919091556012805460ff1916909117905560118054839290611d18908490612e47565b9091555050600854600954600454600654601154600c546040517f0476c5e4920930815a67a5a042e26836431f494d3be0f6e10c3034787a7a15f996611490966001600160a01b03918216969082169590821694911692909161291d565b611d7e6123d3565b6001600160a01b0316611d8f6115a5565b6001600160a01b031614611db55760405162461bcd60e51b815260040161050390612b5d565b6009546001600160a01b0383811691161415611de35760405162461bcd60e51b815260040161050390612c11565b6008546001600160a01b0382811691161415611e115760405162461bcd60e51b815260040161050390612c11565b600980546001600160a01b038085166001600160a01b0319928316179283905560088054858316931692909217918290556040517fd1c04282701cbf58aa2f0026f6876051cf3feb8ee7b8b5b5532ebb4ab03fb5d493611e7693908316921690612903565b60405180910390a15050565b60018181548110611e9257600080fd5b6000918252602090912001546001600160a01b0316905081565b60026003541415611ecf5760405162461bcd60e51b815260040161050390612d67565b600260035560135482908110611ef75760405162461bcd60e51b815260040161050390612c40565b82611f145760405162461bcd60e51b815260040161050390612b26565b600060138481548110611f3757634e487b7160e01b600052603260045260246000fd5b60009182526020808320878452601482526040808520338652909252922060049091029091019150611f6885610fc0565b805415611fb8576000816001015464e8d4a5100084600301548460000154611f909190612ea4565b611f9a9190612e84565b611fa49190612ec3565b90508015611fb657611fb6338261236b565b505b83156120545781546040516323b872dd60e01b81526001600160a01b03909116906323b872dd90611ff190339030908990600401612957565b602060405180830381600087803b15801561200b57600080fd5b505af115801561201f573d6000803e3d6000fd5b505050506040513d601f19601f8201168201806040525081019061204391906127d4565b508054612051908590612e47565b81555b6003820154815464e8d4a510009161206b91612ea4565b6120759190612e84565b6001820155604051859033907f90890809c654f11d6e72a28fa60149770a0d11ec6c92319d6ceb2bb0a4ea1a15906120ae908890612e0c565b60405180910390a350506001600355505050565b6120ca6123d3565b6001600160a01b03166120db6115a5565b6001600160a01b0316146121015760405162461bcd60e51b815260040161050390612b5d565b6005546001600160a01b038381169116141561212f5760405162461bcd60e51b815260040161050390612b92565b6007546001600160a01b038281169116141561215d5760405162461bcd60e51b815260040161050390612b92565b600580546001600160a01b038085166001600160a01b03199283161790925560078054928416929091169190911790556040517fdcc6331013de89f8c595d5328f0a724194f113cb6f8f2a707b3dff6de13f0d1790611e769084908490612903565b60125460ff166121e15760405162461bcd60e51b815260040161050390612dd5565b60006121eb6123d3565b6001600160a01b03811660009081526002602052604090205490915060ff166122265760405162461bcd60e51b815260040161050390612c6d565b81600c5414156122485760405162461bcd60e51b815260040161050390612cb0565b81600c5410156122b7576000600c54836122629190612ec3565b905080600b60008282546122769190612e47565b9091555050600c548310156122b057600083600c546122959190612ec3565b905080600b60008282546122a99190612ec3565b9091555050505b50600c8290555b6122c5600c54600b546126b7565b7fb298bc23e07860d501fddce288f46d761aa04a0c7c3316099eb50f097aacf304600c54600b54604051611e76929190612e15565b6123026123d3565b6001600160a01b03166123136115a5565b6001600160a01b0316146123395760405162461bcd60e51b815260040161050390612b5d565b6001600160a01b03811661235f5760405162461bcd60e51b8152600401610503906129c5565b612368816124d9565b50565b600754604051635950a15560e11b81526001600160a01b039091169063b2a142aa9061239d908590859060040161297b565b600060405180830381600087803b1580156123b757600080fd5b505af11580156123cb573d6000803e3d6000fd5b505050505050565b3390565b601354600060015b82811015612437576013818154811061240857634e487b7160e01b600052603260045260246000fd5b906000526020600020906004020160010154826124259190612e47565b915061243081612eda565b90506123df565b5080156112b257612449600382612e84565b905080601360008154811061246e57634e487b7160e01b600052603260045260246000fd5b90600052602060002090600402016001015460115461248d9190612ec3565b6124979190612e47565b6011819055508060136000815481106124c057634e487b7160e01b600052603260045260246000fd5b9060005260206000209060040201600101819055505050565b600080546001600160a01b038381166001600160a01b0319831681178455604051919092169283917f8be0079c531659141344cd1fd0a4f28419497f9722a3daafe3b4186f6b6457e09190a35050565b60135460005b8181101561196e57826001600160a01b03166013828154811061256257634e487b7160e01b600052603260045260246000fd5b60009182526020909120600490910201546001600160a01b0316141561259a5760405162461bcd60e51b815260040161050390612d3e565b6125a381612eda565b905061252f565b80156125b8576125b8611307565b82601160008282546125ca9190612e47565b9250508190555060136040518060800160405280846001600160a01b03168152602001858152602001601054421161260457601054612606565b425b81526000602091820181905283546001808201865594825290829020835160049092020180546001600160a01b0319166001600160a01b039092169190911781559082015192810192909255604081015160028301556060015160039091015561266e6123d7565b6013546011546040517f20b669aa921947a6d9602a921d2db3b6b30f21b9aca98580fa3972530330b27a916126a99184918891889190612e23565b60405180910390a150505050565b60006126c38284612e84565b90506126d9816934f086f3b33b68400000612ea4565b600d8190556126ec906201518090612e84565b600e819055600d546040517fcd7c861d63893659123f817b192b8621ff1923a7c4589c260173cedcf9e986a6926127239291612e15565b60405180910390a1505050565b600060208284031215612741578081fd5b81356115ce81612f2b565b6000806040838503121561275e578081fd5b823561276981612f2b565b9150602083013561277981612f2b565b809150509250929050565b600080600080600060a0868803121561279b578081fd5b85356127a681612f2b565b945060208601356127b681612f2b565b94979496505050506040830135926060810135926080909101359150565b6000602082840312156127e5578081fd5b81516115ce81612f40565b600060208284031215612801578081fd5b81516115ce81612f2b565b60006020828403121561281d578081fd5b5035919050565b600060208284031215612835578081fd5b5051919050565b6000806040838503121561284e578182fd5b82359150602083013561277981612f2b565b600080600060608486031215612874578283fd5b83359250602084013561288681612f2b565b9150604084013561289681612f40565b809150509250925092565b600080604083850312156128b3578182fd5b50508035926020909101359150565b6000806000606084860312156128d6578283fd5b8335925060208401359150604084013561289681612f40565b6001600160a01b0391909116815260200190565b6001600160a01b0392831681529116602082015260400190565b6001600160a01b0396871681529486166020860152928516604085015293166060830152608082019290925260a081019190915260c00190565b6001600160a01b039384168152919092166020820152604081019190915260600190565b6001600160a01b03929092168252602082015260400190565b901515815260200190565b6001600160a01b0394909416845260208401929092526040830152606082015260800190565b60208082526026908201527f4f776e61626c653a206e6577206f776e657220697320746865207a65726f206160408201526564647265737360d01b606082015260800190565b6020808252602a908201527f4f70657261626c653a206e6577206f70657261746f7220697320746865207a65604082015269726f206164647265737360b01b606082015260800190565b602080825260139082015272185b1c9958591e481a5b9a5d1a585b1a5e9959606a1b604082015260600190565b60208082526024908201527f4f70657261626c653a2061646472657373206973206e6f7420616e206f70657260408201526330ba37b960e11b606082015260800190565b6020808252600f908201526e1b9bc81b5a59dc985d1bdc881cd95d608a1b604082015260600190565b6020808252601a908201527f776974686472617720534f554c20627920756e7374616b696e67000000000000604082015260600190565b60208082526017908201527f6465706f73697420534f554c206279207374616b696e67000000000000000000604082015260600190565b6020808252818101527f4f776e61626c653a2063616c6c6572206973206e6f7420746865206f776e6572604082015260600190565b6020808252601b908201527f6d7573742062652061206e657720746f6b656e20616464726573730000000000604082015260600190565b60208082526028908201527f4f70657261626c653a206164647265737320697320616c726561647920616e2060408201526737b832b930ba37b960c11b606082015260800190565b6020808252601590820152741b5d5cdd0818994818481b995dc81858d8dbdd5b9d605a1b604082015260600190565b6020808252601390820152721c1bdbdb08191bd95cc81b9bdd08195e1a5cdd606a1b604082015260600190565b60208082526023908201527f4f70657261746f723a2063616c6c6572206973206e6f7420616e206f706572616040820152623a37b960e91b606082015260800190565b60208082526018908201527f6d757374206265206e6577207765696768742076616c75650000000000000000604082015260600190565b6020808252601290820152711dda5d1a191c985dce881b9bdd0819dbdbd960721b604082015260600190565b6020808252601190820152701dda5d1a191c985dc81b9bdd0819dbdbd9607a1b604082015260600190565b6020808252600f908201526e191d5c1b1a58d85d1959081c1bdbdb608a1b604082015260600190565b6020808252601f908201527f5265656e7472616e637947756172643a207265656e7472616e742063616c6c00604082015260600190565b6020808252601d908201527f6d6967726174653a20696e73756666696369656e742062616c616e6365000000604082015260600190565b6020808252601a908201527f726577617264732068617665206e6f742079657420626567756e000000000000604082015260600190565b90815260200190565b918252602082015260400190565b93845260208401929092526001600160a01b03166040830152606082015260800190565b60008219821115612e5a57612e5a612f15565b500190565b600060ff821660ff84168060ff03821115612e7c57612e7c612f15565b019392505050565b600082612e9f57634e487b7160e01b81526012600452602481fd5b500490565b6000816000190483118215151615612ebe57612ebe612f15565b500290565b600082821015612ed557612ed5612f15565b500390565b6000600019821415612eee57612eee612f15565b5060010190565b600060ff821660ff811415612f0c57612f0c612f15565b60010192915050565b634e487b7160e01b600052601160045260246000fd5b6001600160a01b038116811461236857600080fd5b801515811461236857600080fdfea2646970667358221220c01784ea64784f2f7741314c5be3728011976c0560c5d8171c99f92156f659bd64736f6c63430008000033",
    "sourcePath": "/Users/unico/Documents/GitHub/SoulSwap/soulswap-farms/contracts/SoulSummoner.sol",
    "compiler": {
        "name": "solc",
        "version": "0.8.0+commit.c7dfd78e"
    },
    "functionHashes": {
        "addOperator(address)": "9870d7fe",
        "addPool(uint256,address,bool)": "7abceffd",
        "bonusMultiplier()": "a8b973a1",
        "dailySoul()": "7d500ec8",
        "dao()": "4162169f",
        "deposit(uint256,uint256)": "e2bbb158",
        "enterStaking(uint256)": "41441d3b",
        "getMultiplier(uint256,uint256)": "8dbb1e3a",
        "initialize(address,address,uint256,uint256,uint256)": "d13f90b4",
        "isInitialized()": "392e53cd",
        "leaveStaking(uint256)": "1058d281",
        "massUpdatePools()": "630b5ba1",
        "migrate(uint256)": "454b0608",
        "migrator()": "7cd07e47",
        "operator(address)": "9a307391",
        "operators(uint256)": "e28d4906",
        "owner()": "8da5cb5b",
        "pendingSoul(uint256,address)": "bfafcad5",
        "poolInfo(uint256)": "1526fe27",
        "poolLength()": "081e3eda",
        "removeOperator(address)": "ac8a584a",
        "renounceOwnership()": "715018a6",
        "seance()": "4ca01d45",
        "set(uint256,uint256,bool)": "64482f79",
        "setMigrator(address)": "23cf3118",
        "soul()": "815b7a8c",
        "soulPerSecond()": "5f9bf689",
        "startTime()": "78e97925",
        "team()": "85f2aef2",
        "totalAllocPoint()": "17caf6f1",
        "totalWeight()": "96c82e57",
        "transferOwnership(address)": "f2fde38b",
        "updateAccounts(address,address)": "e13e8ec2",
        "updateMultiplier(uint256)": "5ffe6146",
        "updatePool(uint256)": "51eb05a6",
        "updateTokens(address,address)": "e7aa29e3",
        "updateWeight(uint256)": "ec3df6ad",
        "userInfo(uint256,address)": "93f1a40b",
        "weight()": "a1aab33f",
        "withdraw(uint256,uint256)": "441a3e70"
    },
    "gasEstimates": {
        "creation": {
            "codeDepositCost": "2432800",
            "executionCost": "infinite",
            "totalCost": "infinite"
        },
        "external": {
            "addOperator(address)": "66394",
            "addPool(uint256,address,bool)": "infinite",
            "bonusMultiplier()": "1073",
            "dailySoul()": "1074",
            "dao()": "1160",
            "deposit(uint256,uint256)": "infinite",
            "enterStaking(uint256)": "infinite",
            "getMultiplier(uint256,uint256)": "1436",
            "initialize(address,address,uint256,uint256,uint256)": "infinite",
            "isInitialized()": "1086",
            "leaveStaking(uint256)": "infinite",
            "massUpdatePools()": "infinite",
            "migrate(uint256)": "infinite",
            "migrator()": "1203",
            "operator(address)": "1369",
            "operators(uint256)": "2082",
            "owner()": "1182",
            "pendingSoul(uint256,address)": "infinite",
            "poolInfo(uint256)": "4651",
            "poolLength()": "1075",
            "removeOperator(address)": "infinite",
            "renounceOwnership()": "23571",
            "seance()": "1116",
            "set(uint256,uint256,bool)": "infinite",
            "setMigrator(address)": "23053",
            "soul()": "1138",
            "soulPerSecond()": "1118",
            "startTime()": "1117",
            "team()": "1160",
            "totalAllocPoint()": "1141",
            "totalWeight()": "1095",
            "transferOwnership(address)": "infinite",
            "updateAccounts(address,address)": "infinite",
            "updateMultiplier(uint256)": "21288",
            "updatePool(uint256)": "infinite",
            "updateTokens(address,address)": "infinite",
            "updateWeight(uint256)": "infinite",
            "userInfo(uint256,address)": "2227",
            "weight()": "1161",
            "withdraw(uint256,uint256)": "infinite"
        },
        "internal": {
            "_addPool(uint256,contract IERC20,bool)": "infinite",
            "checkPoolDuplicate(contract IERC20)": "infinite",
            "safeSoulTransfer(address,uint256)": "infinite",
            "updateRewards(uint256,uint256)": "infinite",
            "updateStakingPool()": "infinite"
        }
    }
}