{
    "contractName": "SoulVault",
    "abi": [
        {
            "inputs": [
                {
                    "internalType": "contract IERC20",
                    "name": "_soul",
                    "type": "address"
                },
                {
                    "internalType": "contract IERC20",
                    "name": "_seance",
                    "type": "address"
                },
                {
                    "internalType": "contract ISummoner",
                    "name": "_summoner",
                    "type": "address"
                }
            ],
            "stateMutability": "nonpayable",
            "type": "constructor"
        },
        {
            "anonymous": false,
            "inputs": [
                {
                    "indexed": true,
                    "internalType": "address",
                    "name": "sender",
                    "type": "address"
                },
                {
                    "indexed": false,
                    "internalType": "uint256",
                    "name": "amount",
                    "type": "uint256"
                },
                {
                    "indexed": false,
                    "internalType": "uint256",
                    "name": "shares",
                    "type": "uint256"
                },
                {
                    "indexed": false,
                    "internalType": "uint256",
                    "name": "lastDepositedTime",
                    "type": "uint256"
                }
            ],
            "name": "Deposit",
            "type": "event"
        },
        {
            "anonymous": false,
            "inputs": [
                {
                    "indexed": true,
                    "internalType": "address",
                    "name": "sender",
                    "type": "address"
                },
                {
                    "indexed": false,
                    "internalType": "uint256",
                    "name": "performanceFee",
                    "type": "uint256"
                },
                {
                    "indexed": false,
                    "internalType": "uint256",
                    "name": "callFee",
                    "type": "uint256"
                }
            ],
            "name": "Harvest",
            "type": "event"
        },
        {
            "anonymous": false,
            "inputs": [
                {
                    "indexed": true,
                    "internalType": "address",
                    "name": "previousOwner",
                    "type": "address"
                },
                {
                    "indexed": true,
                    "internalType": "address",
                    "name": "newOwner",
                    "type": "address"
                }
            ],
            "name": "OwnershipTransferred",
            "type": "event"
        },
        {
            "anonymous": false,
            "inputs": [],
            "name": "Pause",
            "type": "event"
        },
        {
            "anonymous": false,
            "inputs": [
                {
                    "indexed": false,
                    "internalType": "address",
                    "name": "account",
                    "type": "address"
                }
            ],
            "name": "Paused",
            "type": "event"
        },
        {
            "anonymous": false,
            "inputs": [],
            "name": "Unpause",
            "type": "event"
        },
        {
            "anonymous": false,
            "inputs": [
                {
                    "indexed": false,
                    "internalType": "address",
                    "name": "account",
                    "type": "address"
                }
            ],
            "name": "Unpaused",
            "type": "event"
        },
        {
            "anonymous": false,
            "inputs": [
                {
                    "indexed": true,
                    "internalType": "address",
                    "name": "sender",
                    "type": "address"
                },
                {
                    "indexed": false,
                    "internalType": "uint256",
                    "name": "amount",
                    "type": "uint256"
                },
                {
                    "indexed": false,
                    "internalType": "uint256",
                    "name": "shares",
                    "type": "uint256"
                }
            ],
            "name": "Withdraw",
            "type": "event"
        },
        {
            "inputs": [],
            "name": "MAX_CALL_FEE",
            "outputs": [
                {
                    "internalType": "uint256",
                    "name": "",
                    "type": "uint256"
                }
            ],
            "stateMutability": "view",
            "type": "function"
        },
        {
            "inputs": [],
            "name": "MAX_PERFORMANCE_FEE",
            "outputs": [
                {
                    "internalType": "uint256",
                    "name": "",
                    "type": "uint256"
                }
            ],
            "stateMutability": "view",
            "type": "function"
        },
        {
            "inputs": [],
            "name": "MAX_WITHDRAW_FEE",
            "outputs": [
                {
                    "internalType": "uint256",
                    "name": "",
                    "type": "uint256"
                }
            ],
            "stateMutability": "view",
            "type": "function"
        },
        {
            "inputs": [],
            "name": "MAX_WITHDRAW_FEE_PERIOD",
            "outputs": [
                {
                    "internalType": "uint256",
                    "name": "",
                    "type": "uint256"
                }
            ],
            "stateMutability": "view",
            "type": "function"
        },
        {
            "inputs": [],
            "name": "admin",
            "outputs": [
                {
                    "internalType": "address",
                    "name": "",
                    "type": "address"
                }
            ],
            "stateMutability": "view",
            "type": "function"
        },
        {
            "inputs": [],
            "name": "available",
            "outputs": [
                {
                    "internalType": "uint256",
                    "name": "",
                    "type": "uint256"
                }
            ],
            "stateMutability": "view",
            "type": "function"
        },
        {
            "inputs": [],
            "name": "balanceOf",
            "outputs": [
                {
                    "internalType": "uint256",
                    "name": "",
                    "type": "uint256"
                }
            ],
            "stateMutability": "view",
            "type": "function"
        },
        {
            "inputs": [],
            "name": "calculateHarvestSoulRewards",
            "outputs": [
                {
                    "internalType": "uint256",
                    "name": "",
                    "type": "uint256"
                }
            ],
            "stateMutability": "view",
            "type": "function"
        },
        {
            "inputs": [],
            "name": "calculateTotalPendingSoulRewards",
            "outputs": [
                {
                    "internalType": "uint256",
                    "name": "",
                    "type": "uint256"
                }
            ],
            "stateMutability": "view",
            "type": "function"
        },
        {
            "inputs": [],
            "name": "callFee",
            "outputs": [
                {
                    "internalType": "uint256",
                    "name": "",
                    "type": "uint256"
                }
            ],
            "stateMutability": "view",
            "type": "function"
        },
        {
            "inputs": [
                {
                    "internalType": "uint256",
                    "name": "_amount",
                    "type": "uint256"
                }
            ],
            "name": "deposit",
            "outputs": [],
            "stateMutability": "nonpayable",
            "type": "function"
        },
        {
            "inputs": [],
            "name": "getPricePerFullShare",
            "outputs": [
                {
                    "internalType": "uint256",
                    "name": "",
                    "type": "uint256"
                }
            ],
            "stateMutability": "view",
            "type": "function"
        },
        {
            "inputs": [],
            "name": "harvest",
            "outputs": [],
            "stateMutability": "nonpayable",
            "type": "function"
        },
        {
            "inputs": [
                {
                    "internalType": "address",
                    "name": "_token",
                    "type": "address"
                }
            ],
            "name": "inCaseTokensGetStuck",
            "outputs": [],
            "stateMutability": "nonpayable",
            "type": "function"
        },
        {
            "inputs": [],
            "name": "lastHarvestedTime",
            "outputs": [
                {
                    "internalType": "uint256",
                    "name": "",
                    "type": "uint256"
                }
            ],
            "stateMutability": "view",
            "type": "function"
        },
        {
            "inputs": [],
            "name": "owner",
            "outputs": [
                {
                    "internalType": "address",
                    "name": "",
                    "type": "address"
                }
            ],
            "stateMutability": "view",
            "type": "function"
        },
        {
            "inputs": [],
            "name": "pause",
            "outputs": [],
            "stateMutability": "nonpayable",
            "type": "function"
        },
        {
            "inputs": [],
            "name": "paused",
            "outputs": [
                {
                    "internalType": "bool",
                    "name": "",
                    "type": "bool"
                }
            ],
            "stateMutability": "view",
            "type": "function"
        },
        {
            "inputs": [],
            "name": "performanceFee",
            "outputs": [
                {
                    "internalType": "uint256",
                    "name": "",
                    "type": "uint256"
                }
            ],
            "stateMutability": "view",
            "type": "function"
        },
        {
            "inputs": [],
            "name": "renounceOwnership",
            "outputs": [],
            "stateMutability": "nonpayable",
            "type": "function"
        },
        {
            "inputs": [],
            "name": "seance",
            "outputs": [
                {
                    "internalType": "contract IERC20",
                    "name": "",
                    "type": "address"
                }
            ],
            "stateMutability": "view",
            "type": "function"
        },
        {
            "inputs": [
                {
                    "internalType": "address",
                    "name": "_admin",
                    "type": "address"
                }
            ],
            "name": "setAdmin",
            "outputs": [],
            "stateMutability": "nonpayable",
            "type": "function"
        },
        {
            "inputs": [
                {
                    "internalType": "uint256",
                    "name": "_callFee",
                    "type": "uint256"
                }
            ],
            "name": "setCallFee",
            "outputs": [],
            "stateMutability": "nonpayable",
            "type": "function"
        },
        {
            "inputs": [
                {
                    "internalType": "uint256",
                    "name": "_performanceFee",
                    "type": "uint256"
                }
            ],
            "name": "setPerformanceFee",
            "outputs": [],
            "stateMutability": "nonpayable",
            "type": "function"
        },
        {
            "inputs": [
                {
                    "internalType": "address",
                    "name": "_treasury",
                    "type": "address"
                }
            ],
            "name": "setTreasury",
            "outputs": [],
            "stateMutability": "nonpayable",
            "type": "function"
        },
        {
            "inputs": [
                {
                    "internalType": "uint256",
                    "name": "_withdrawFee",
                    "type": "uint256"
                }
            ],
            "name": "setWithdrawFee",
            "outputs": [],
            "stateMutability": "nonpayable",
            "type": "function"
        },
        {
            "inputs": [
                {
                    "internalType": "uint256",
                    "name": "_withdrawFeePeriod",
                    "type": "uint256"
                }
            ],
            "name": "setWithdrawFeePeriod",
            "outputs": [],
            "stateMutability": "nonpayable",
            "type": "function"
        },
        {
            "inputs": [],
            "name": "soul",
            "outputs": [
                {
                    "internalType": "contract IERC20",
                    "name": "",
                    "type": "address"
                }
            ],
            "stateMutability": "view",
            "type": "function"
        },
        {
            "inputs": [],
            "name": "summoner",
            "outputs": [
                {
                    "internalType": "contract ISummoner",
                    "name": "",
                    "type": "address"
                }
            ],
            "stateMutability": "view",
            "type": "function"
        },
        {
            "inputs": [],
            "name": "totalShares",
            "outputs": [
                {
                    "internalType": "uint256",
                    "name": "",
                    "type": "uint256"
                }
            ],
            "stateMutability": "view",
            "type": "function"
        },
        {
            "inputs": [
                {
                    "internalType": "address",
                    "name": "newOwner",
                    "type": "address"
                }
            ],
            "name": "transferOwnership",
            "outputs": [],
            "stateMutability": "nonpayable",
            "type": "function"
        },
        {
            "inputs": [],
            "name": "treasury",
            "outputs": [
                {
                    "internalType": "address",
                    "name": "",
                    "type": "address"
                }
            ],
            "stateMutability": "view",
            "type": "function"
        },
        {
            "inputs": [],
            "name": "unpause",
            "outputs": [],
            "stateMutability": "nonpayable",
            "type": "function"
        },
        {
            "inputs": [
                {
                    "internalType": "address",
                    "name": "",
                    "type": "address"
                }
            ],
            "name": "userInfo",
            "outputs": [
                {
                    "internalType": "uint256",
                    "name": "shares",
                    "type": "uint256"
                },
                {
                    "internalType": "uint256",
                    "name": "lastDepositedTime",
                    "type": "uint256"
                },
                {
                    "internalType": "uint256",
                    "name": "soulAtLastUserAction",
                    "type": "uint256"
                },
                {
                    "internalType": "uint256",
                    "name": "lastUserActionTime",
                    "type": "uint256"
                }
            ],
            "stateMutability": "view",
            "type": "function"
        },
        {
            "inputs": [
                {
                    "internalType": "uint256",
                    "name": "_shares",
                    "type": "uint256"
                }
            ],
            "name": "withdraw",
            "outputs": [],
            "stateMutability": "nonpayable",
            "type": "function"
        },
        {
            "inputs": [],
            "name": "withdrawAll",
            "outputs": [],
            "stateMutability": "nonpayable",
            "type": "function"
        },
        {
            "inputs": [],
            "name": "withdrawFee",
            "outputs": [
                {
                    "internalType": "uint256",
                    "name": "",
                    "type": "uint256"
                }
            ],
            "stateMutability": "view",
            "type": "function"
        },
        {
            "inputs": [],
            "name": "withdrawFeePeriod",
            "outputs": [
                {
                    "internalType": "uint256",
                    "name": "",
                    "type": "uint256"
                }
            ],
            "stateMutability": "view",
            "type": "function"
        }
    ],
    "bytecode": "60a060405260068054336001600160a01b0319918216811790925560078054909116909117905560c86008556019600955600a80556203f480600b553480156200004857600080fd5b50604051620020ff380380620020ff8339810160408190526200006b91620001d5565b6200007f6200007962000158565b6200015c565b6000805460ff60a01b19169055600180546001600160a01b038086166001600160a01b03199283161792839055600280548683169316929092179091556001600160601b0319606084901b1660805260405163095ea7b360e01b815291169063095ea7b390620000f89084906000199060040162000228565b602060405180830381600087803b1580156200011357600080fd5b505af115801562000128573d6000803e3d6000fd5b505050506040513d601f19601f820116820180604052508101906200014e9190620001ac565b505050506200025a565b3390565b600080546001600160a01b038381166001600160a01b0319831681178455604051919092169283917f8be0079c531659141344cd1fd0a4f28419497f9722a3daafe3b4186f6b6457e09190a35050565b600060208284031215620001be578081fd5b81518015158114620001ce578182fd5b9392505050565b600080600060608486031215620001ea578182fd5b8351620001f78162000241565b60208501519093506200020a8162000241565b60408501519092506200021d8162000241565b809150509250925092565b6001600160a01b03929092168252602082015260400190565b6001600160a01b03811681146200025757600080fd5b50565b60805160601c611e5c620002a3600039600081816104a3015281816106e701528181610a6601528181610e4e0152818161131a015281816113d301526117350152611e5c6000f3fe608060405234801561001057600080fd5b50600436106102325760003560e01c8063815b7a8c11610130578063bb5505e2116100b8578063df10b4e61161007c578063df10b4e6146103dc578063e941fa78146103e4578063f0f44260146103ec578063f2fde38b146103ff578063f851a4401461041257610232565b8063bb5505e2146103b1578063bdca9165146103b9578063d4b0de2f146102a0578063dacaa9d1146103c1578063def68a9c146103c957610232565b80638da5cb5b116100ff5780638da5cb5b1461037357806390321e1a1461037b578063b60f053114610383578063b6ac642a1461038b578063b6b55f251461039e57610232565b8063815b7a8c146103535780638456cb591461035b578063853828b614610363578063877887821461036b57610232565b80634641257d116101be578063704b6c0211610182578063704b6c021461031557806370897b2314610328578063715018a61461033b578063722713f71461034357806377c7b8fc1461034b57610232565b80634641257d146102d357806348a0d754146102db5780634ca01d45146102e35780635c975abb146102f857806361d027b31461030d57610232565b80632ad5a53f116102055780632ad5a53f146102a05780632cfc5f01146102a85780632e1a7d4d146102b05780633a98ef39146102c35780633f4ba83a146102cb57610232565b80631959a002146102375780631efac1b81461026357806325b2980414610278578063264658261461028d575b600080fd5b61024a610245366004611854565b61041a565b60405161025a9493929190611d87565b60405180910390f35b6102766102713660046118a2565b610443565b005b61028061049e565b60405161025a9190611951565b61027661029b3660046118a2565b61057a565b6102806105ca565b6102806105cf565b6102766102be3660046118a2565b6105d6565b61028061095e565b610276610964565b6102766109e5565b610280610c72565b6102eb610cf8565b60405161025a91906118f5565b610300610d07565b60405161025a9190611946565b6102eb610d17565b610276610323366004611854565b610d26565b6102766103363660046118a2565b610dad565b610276610dfe565b610280610e49565b610280610f80565b6102eb610fc5565b610276610fd4565b610276611056565b6102806110b4565b6102eb6110ba565b6102806110c9565b6102806110cf565b6102766103993660046118a2565b6110d5565b6102766103ac3660046118a2565b611125565b610280611315565b6102806113cb565b6102eb6113d1565b6102766103d7366004611854565b6113f5565b610280611582565b610280611588565b6102766103fa366004611854565b61158e565b61027661040d366004611854565b611615565b6102eb611686565b600360208190526000918252604090912080546001820154600283015492909301549092919084565b6006546001600160a01b031633146104765760405162461bcd60e51b815260040161046d90611c91565b60405180910390fd5b6203f4808111156104995760405162461bcd60e51b815260040161046d90611cb6565b600b55565b6000807f00000000000000000000000000000000000000000000000000000000000000006001600160a01b031663bfafcad56000306040518363ffffffff1660e01b81526004016104f092919061195a565b60206040518083038186803b15801561050857600080fd5b505afa15801561051c573d6000803e3d6000fd5b505050506040513d601f19601f8201168201806040525081019061054091906118ba565b905061054a610c72565b6105549082611da2565b90506000612710600954836105699190611dda565b6105739190611dba565b9250505090565b6006546001600160a01b031633146105a45760405162461bcd60e51b815260040161046d90611c91565b60648111156105c55760405162461bcd60e51b815260040161046d90611b36565b600955565b606481565b6203f48081565b6105df33611695565b156105fc5760405162461bcd60e51b815260040161046d90611c63565b33321461061b5760405162461bcd60e51b815260040161046d9061199d565b336000908152600360205260409020816106475760405162461bcd60e51b815260040161046d90611a02565b80548211156106685760405162461bcd60e51b815260040161046d90611aba565b600060045483610676610e49565b6106809190611dda565b61068a9190611dba565b825490915061069a908490611df9565b82556004546106aa908490611df9565b60045560006106b7610c72565b9050818110156107815760006106cd8284611df9565b604051631058d28160e01b81529091506001600160a01b037f00000000000000000000000000000000000000000000000000000000000000001690631058d2819061071c908490600401611951565b600060405180830381600087803b15801561073657600080fd5b505af115801561074a573d6000803e3d6000fd5b505050506000610758610c72565b905060006107668483611df9565b90508281101561077d5761077a8185611da2565b94505b5050505b600b5483600101546107939190611da2565b421015610850576000612710600a54846107ad9190611dda565b6107b79190611dba565b60015460075460405163a9059cbb60e01b81529293506001600160a01b039182169263a9059cbb926107ef921690859060040161192d565b602060405180830381600087803b15801561080957600080fd5b505af115801561081d573d6000803e3d6000fd5b505050506040513d601f19601f820116820180604052508101906108419190611882565b5061084c8184611df9565b9250505b82541561088257600454610862610e49565b845461086e9190611dda565b6108789190611dba565b600284015561088a565b600060028401555b42600384015560015460405163a9059cbb60e01b81526001600160a01b039091169063a9059cbb906108c2903390869060040161192d565b602060405180830381600087803b1580156108dc57600080fd5b505af11580156108f0573d6000803e3d6000fd5b505050506040513d601f19601f820116820180604052508101906109149190611882565b50336001600160a01b03167ff279e6a1f5e320cca91135676d9cb6e44ca8a08c0b88342bcdb1144f6511b5688386604051610950929190611d63565b60405180910390a250505050565b60045481565b6006546001600160a01b0316331461098e5760405162461bcd60e51b815260040161046d90611c91565b610996610d07565b6109b25760405162461bcd60e51b815260040161046d906119d4565b6109ba61169b565b6040517f7805862f689e2f13df9f062ff482ad3ad112aca9e0847911ed832e158c525b3390600090a1565b6109ee33611695565b15610a0b5760405162461bcd60e51b815260040161046d90611c63565b333214610a2a5760405162461bcd60e51b815260040161046d9061199d565b610a32610d07565b15610a4f5760405162461bcd60e51b815260040161046d90611bd4565b604051631058d28160e01b81526001600160a01b037f00000000000000000000000000000000000000000000000000000000000000001690631058d28190610a9c90600090600401611951565b600060405180830381600087803b158015610ab657600080fd5b505af1158015610aca573d6000803e3d6000fd5b505050506000610ad8610c72565b9050600061271060085483610aed9190611dda565b610af79190611dba565b60015460075460405163a9059cbb60e01b81529293506001600160a01b039182169263a9059cbb92610b2f921690859060040161192d565b602060405180830381600087803b158015610b4957600080fd5b505af1158015610b5d573d6000803e3d6000fd5b505050506040513d601f19601f82011682018060405250810190610b819190611882565b50600061271060095484610b959190611dda565b610b9f9190611dba565b60015460405163a9059cbb60e01b81529192506001600160a01b03169063a9059cbb90610bd2903390859060040161192d565b602060405180830381600087803b158015610bec57600080fd5b505af1158015610c00573d6000803e3d6000fd5b505050506040513d601f19601f82011682018060405250810190610c249190611882565b50610c2d61170c565b4260055560405133907f71bab65ced2e5750775a0613be067df48ef06cf92a496ebf7663ae066092495490610c659085908590611d63565b60405180910390a2505050565b6001546040516370a0823160e01b81526000916001600160a01b0316906370a0823190610ca39030906004016118f5565b60206040518083038186803b158015610cbb57600080fd5b505afa158015610ccf573d6000803e3d6000fd5b505050506040513d601f19601f82011682018060405250810190610cf391906118ba565b905090565b6002546001600160a01b031681565b600054600160a01b900460ff1690565b6007546001600160a01b031681565b610d2e61179f565b6001600160a01b0316610d3f6110ba565b6001600160a01b031614610d655760405162461bcd60e51b815260040161046d90611c2e565b6001600160a01b038116610d8b5760405162461bcd60e51b815260040161046d90611bfe565b600680546001600160a01b0319166001600160a01b0392909216919091179055565b6006546001600160a01b03163314610dd75760405162461bcd60e51b815260040161046d90611c91565b6101f4811115610df95760405162461bcd60e51b815260040161046d90611b7e565b600855565b610e0661179f565b6001600160a01b0316610e176110ba565b6001600160a01b031614610e3d5760405162461bcd60e51b815260040161046d90611c2e565b610e4760006117a3565b565b6000807f00000000000000000000000000000000000000000000000000000000000000006001600160a01b03166393f1a40b6000306040518363ffffffff1660e01b8152600401610e9b92919061195a565b604080518083038186803b158015610eb257600080fd5b505afa158015610ec6573d6000803e3d6000fd5b505050506040513d601f19601f82011682018060405250810190610eea91906118d2565b506001546040516370a0823160e01b815291925082916001600160a01b03909116906370a0823190610f209030906004016118f5565b60206040518083038186803b158015610f3857600080fd5b505afa158015610f4c573d6000803e3d6000fd5b505050506040513d601f19601f82011682018060405250810190610f7091906118ba565b610f7a9190611da2565b91505090565b6000600454600014610fb857600454610f97610e49565b610fa990670de0b6b3a7640000611dda565b610fb39190611dba565b610cf3565b50670de0b6b3a764000090565b6001546001600160a01b031681565b6006546001600160a01b03163314610ffe5760405162461bcd60e51b815260040161046d90611c91565b611006610d07565b156110235760405162461bcd60e51b815260040161046d90611bd4565b61102b6117f3565b6040517f6985a02210a168e66602d3235cb6db0e70f92b3ba4d376a33c0f3d9434bff62590600090a1565b61105f33611695565b1561107c5760405162461bcd60e51b815260040161046d90611c63565b33321461109b5760405162461bcd60e51b815260040161046d9061199d565b33600090815260036020526040902054610e47906105d6565b60085481565b6000546001600160a01b031690565b60095481565b60055481565b6006546001600160a01b031633146110ff5760405162461bcd60e51b815260040161046d90611c91565b60648111156111205760405162461bcd60e51b815260040161046d90611d13565b600a55565b61112d610d07565b1561114a5760405162461bcd60e51b815260040161046d90611bd4565b61115333611695565b156111705760405162461bcd60e51b815260040161046d90611c63565b33321461118f5760405162461bcd60e51b815260040161046d9061199d565b600081116111af5760405162461bcd60e51b815260040161046d90611971565b60006111b9610e49565b6001546040516323b872dd60e01b81529192506001600160a01b0316906323b872dd906111ee90339030908790600401611909565b602060405180830381600087803b15801561120857600080fd5b505af115801561121c573d6000803e3d6000fd5b505050506040513d601f19601f820116820180604052508101906112409190611882565b50600060045460001461126d57816004548461125c9190611dda565b6112669190611dba565b9050611270565b50815b336000908152600360205260409020805461128c908390611da2565b81554260018201556004546112a2908390611da2565b60048190556112af610e49565b82546112bb9190611dda565b6112c59190611dba565b60028201554260038201556112d861170c565b336001600160a01b03167f36af321ec8d3c75236829c5317affd40ddb308863a1236d2d277a4025cccee1e85844260405161095093929190611d71565b6000807f00000000000000000000000000000000000000000000000000000000000000006001600160a01b031663bfafcad56000306040518363ffffffff1660e01b815260040161136792919061195a565b60206040518083038186803b15801561137f57600080fd5b505afa158015611393573d6000803e3d6000fd5b505050506040513d601f19601f820116820180604052508101906113b791906118ba565b90506113c1610c72565b610f7a9082611da2565b6101f481565b7f000000000000000000000000000000000000000000000000000000000000000081565b6006546001600160a01b0316331461141f5760405162461bcd60e51b815260040161046d90611c91565b6001546001600160a01b038281169116141561144d5760405162461bcd60e51b815260040161046d90611a75565b6002546001600160a01b038281169116141561147b5760405162461bcd60e51b815260040161046d90611af1565b6040516370a0823160e01b81526000906001600160a01b038316906370a08231906114aa9030906004016118f5565b60206040518083038186803b1580156114c257600080fd5b505afa1580156114d6573d6000803e3d6000fd5b505050506040513d601f19601f820116820180604052508101906114fa91906118ba565b60405163a9059cbb60e01b81529091506001600160a01b0383169063a9059cbb9061152b903390859060040161192d565b602060405180830381600087803b15801561154557600080fd5b505af1158015611559573d6000803e3d6000fd5b505050506040513d601f19601f8201168201806040525081019061157d9190611882565b505050565b600b5481565b600a5481565b61159661179f565b6001600160a01b03166115a76110ba565b6001600160a01b0316146115cd5760405162461bcd60e51b815260040161046d90611c2e565b6001600160a01b0381166115f35760405162461bcd60e51b815260040161046d90611bfe565b600780546001600160a01b0319166001600160a01b0392909216919091179055565b61161d61179f565b6001600160a01b031661162e6110ba565b6001600160a01b0316146116545760405162461bcd60e51b815260040161046d90611c2e565b6001600160a01b03811661167a5760405162461bcd60e51b815260040161046d90611a2f565b611683816117a3565b50565b6006546001600160a01b031681565b3b151590565b6116a3610d07565b6116bf5760405162461bcd60e51b815260040161046d906119d4565b6000805460ff60a01b191690557f5db9ee0a495bf2e6ff9c91a7834c1ba4fdd244a5e8aa4e537bd38aeae4b073aa6116f561179f565b60405161170291906118f5565b60405180910390a1565b6000611716610c72565b90508015611683576040516341441d3b60e01b81526001600160a01b037f000000000000000000000000000000000000000000000000000000000000000016906341441d3b9061176a908490600401611951565b600060405180830381600087803b15801561178457600080fd5b505af1158015611798573d6000803e3d6000fd5b5050505050565b3390565b600080546001600160a01b038381166001600160a01b0319831681178455604051919092169283917f8be0079c531659141344cd1fd0a4f28419497f9722a3daafe3b4186f6b6457e09190a35050565b6117fb610d07565b156118185760405162461bcd60e51b815260040161046d90611bd4565b6000805460ff60a01b1916600160a01b1790557f62e78cea01bee320cd4e420270b5ea74000d11b0c9f74754ebdbfc544b05a2586116f561179f565b600060208284031215611865578081fd5b81356001600160a01b038116811461187b578182fd5b9392505050565b600060208284031215611893578081fd5b8151801515811461187b578182fd5b6000602082840312156118b3578081fd5b5035919050565b6000602082840312156118cb578081fd5b5051919050565b600080604083850312156118e4578081fd5b505080516020909101519092909150565b6001600160a01b0391909116815260200190565b6001600160a01b039384168152919092166020820152604081019190915260600190565b6001600160a01b03929092168252602082015260400190565b901515815260200190565b90815260200190565b9182526001600160a01b0316602082015260400190565b602080825260129082015271139bdd1a1a5b99c81d1bc819195c1bdcda5d60721b604082015260600190565b6020808252601a908201527f70726f787920636f6e7472616374206e6f7420616c6c6f776564000000000000604082015260600190565b60208082526014908201527314185d5cd8589b194e881b9bdd081c185d5cd95960621b604082015260600190565b6020808252601390820152724e6f7468696e6720746f20776974686472617760681b604082015260600190565b60208082526026908201527f4f776e61626c653a206e6577206f776e657220697320746865207a65726f206160408201526564647265737360d01b606082015260800190565b60208082526025908201527f546f6b656e2063616e6e6f742062652073616d65206173206465706f736974206040820152643a37b5b2b760d91b606082015260800190565b6020808252601f908201527f576974686472617720616d6f756e7420657863656564732062616c616e636500604082015260600190565b60208082526025908201527f546f6b656e2063616e6e6f742062652073616d652061732072656365697074206040820152643a37b5b2b760d91b606082015260800190565b60208082526028908201527f63616c6c4665652063616e6e6f74206265206d6f7265207468616e204d41585f60408201526743414c4c5f46454560c01b606082015260800190565b60208082526036908201527f706572666f726d616e63654665652063616e6e6f74206265206d6f7265207468604082015275616e204d41585f504552464f524d414e43455f46454560501b606082015260800190565b60208082526010908201526f14185d5cd8589b194e881c185d5cd95960821b604082015260600190565b60208082526016908201527543616e6e6f74206265207a65726f206164647265737360501b604082015260600190565b6020808252818101527f4f776e61626c653a2063616c6c6572206973206e6f7420746865206f776e6572604082015260600190565b60208082526014908201527318dbdb9d1c9858dd081b9bdd08185b1b1bddd95960621b604082015260600190565b6020808252600b908201526a61646d696e3a207775743f60a81b604082015260600190565b6020808252603d908201527f7769746864726177466565506572696f642063616e6e6f74206265206d6f726560408201527f207468616e204d41585f57495448445241575f4645455f504552494f44000000606082015260800190565b60208082526030908201527f77697468647261774665652063616e6e6f74206265206d6f7265207468616e2060408201526f4d41585f57495448445241575f46454560801b606082015260800190565b918252602082015260400190565b9283526020830191909152604082015260600190565b93845260208401929092526040830152606082015260800190565b60008219821115611db557611db5611e10565b500190565b600082611dd557634e487b7160e01b81526012600452602481fd5b500490565b6000816000190483118215151615611df457611df4611e10565b500290565b600082821015611e0b57611e0b611e10565b500390565b634e487b7160e01b600052601160045260246000fdfea264697066735822122048eb8c5e69d1d81104333a47e398ac39a8eaa567defd0bb9c7c5cfbb8892ae4064736f6c63430008000033",
    "sourcePath": "/Users/unico/Documents/GitHub/SoulSwap/soulswap-farms/contracts/SoulVault.sol",
    "compiler": {
        "name": "solc",
        "version": "0.8.0+commit.c7dfd78e"
    },
    "functionHashes": {
        "MAX_CALL_FEE()": "2ad5a53f",
        "MAX_PERFORMANCE_FEE()": "bdca9165",
        "MAX_WITHDRAW_FEE()": "d4b0de2f",
        "MAX_WITHDRAW_FEE_PERIOD()": "2cfc5f01",
        "admin()": "f851a440",
        "available()": "48a0d754",
        "balanceOf()": "722713f7",
        "calculateHarvestSoulRewards()": "25b29804",
        "calculateTotalPendingSoulRewards()": "bb5505e2",
        "callFee()": "90321e1a",
        "deposit(uint256)": "b6b55f25",
        "getPricePerFullShare()": "77c7b8fc",
        "harvest()": "4641257d",
        "inCaseTokensGetStuck(address)": "def68a9c",
        "lastHarvestedTime()": "b60f0531",
        "owner()": "8da5cb5b",
        "pause()": "8456cb59",
        "paused()": "5c975abb",
        "performanceFee()": "87788782",
        "renounceOwnership()": "715018a6",
        "seance()": "4ca01d45",
        "setAdmin(address)": "704b6c02",
        "setCallFee(uint256)": "26465826",
        "setPerformanceFee(uint256)": "70897b23",
        "setTreasury(address)": "f0f44260",
        "setWithdrawFee(uint256)": "b6ac642a",
        "setWithdrawFeePeriod(uint256)": "1efac1b8",
        "soul()": "815b7a8c",
        "summoner()": "dacaa9d1",
        "totalShares()": "3a98ef39",
        "transferOwnership(address)": "f2fde38b",
        "treasury()": "61d027b3",
        "unpause()": "3f4ba83a",
        "userInfo(address)": "1959a002",
        "withdraw(uint256)": "2e1a7d4d",
        "withdrawAll()": "853828b6",
        "withdrawFee()": "e941fa78",
        "withdrawFeePeriod()": "df10b4e6"
    },
    "gasEstimates": {
        "creation": {
            "codeDepositCost": "1554400",
            "executionCost": "infinite",
            "totalCost": "infinite"
        },
        "external": {
            "MAX_CALL_FEE()": "274",
            "MAX_PERFORMANCE_FEE()": "295",
            "MAX_WITHDRAW_FEE()": "317",
            "MAX_WITHDRAW_FEE_PERIOD()": "296",
            "admin()": "1202",
            "available()": "infinite",
            "balanceOf()": "infinite",
            "calculateHarvestSoulRewards()": "infinite",
            "calculateTotalPendingSoulRewards()": "infinite",
            "callFee()": "1095",
            "deposit(uint256)": "infinite",
            "getPricePerFullShare()": "infinite",
            "harvest()": "infinite",
            "inCaseTokensGetStuck(address)": "infinite",
            "lastHarvestedTime()": "1117",
            "owner()": "1115",
            "pause()": "infinite",
            "paused()": "1169",
            "performanceFee()": "1140",
            "renounceOwnership()": "23593",
            "seance()": "1160",
            "setAdmin(address)": "22146",
            "setCallFee(uint256)": "21203",
            "setPerformanceFee(uint256)": "21157",
            "setTreasury(address)": "22189",
            "setWithdrawFee(uint256)": "21201",
            "setWithdrawFeePeriod(uint256)": "21159",
            "soul()": "1116",
            "summoner()": "infinite",
            "totalShares()": "1140",
            "transferOwnership(address)": "23774",
            "treasury()": "1204",
            "unpause()": "infinite",
            "userInfo(address)": "3781",
            "withdraw(uint256)": "infinite",
            "withdrawAll()": "infinite",
            "withdrawFee()": "1094",
            "withdrawFeePeriod()": "1072"
        },
        "internal": {
            "_earn()": "infinite",
            "_isContract(address)": "718"
        }
    }
}