{
    "contractName": "SoulPower",
    "abi": [
        {
            "inputs": [],
            "stateMutability": "nonpayable",
            "type": "constructor"
        },
        {
            "anonymous": false,
            "inputs": [
                {
                    "indexed": true,
                    "internalType": "address",
                    "name": "owner",
                    "type": "address"
                },
                {
                    "indexed": true,
                    "internalType": "address",
                    "name": "spender",
                    "type": "address"
                },
                {
                    "indexed": false,
                    "internalType": "uint256",
                    "name": "value",
                    "type": "uint256"
                }
            ],
            "name": "Approval",
            "type": "event"
        },
        {
            "anonymous": false,
            "inputs": [
                {
                    "indexed": true,
                    "internalType": "address",
                    "name": "delegator",
                    "type": "address"
                },
                {
                    "indexed": true,
                    "internalType": "address",
                    "name": "fromDelegate",
                    "type": "address"
                },
                {
                    "indexed": true,
                    "internalType": "address",
                    "name": "toDelegate",
                    "type": "address"
                }
            ],
            "name": "DelegateChanged",
            "type": "event"
        },
        {
            "anonymous": false,
            "inputs": [
                {
                    "indexed": true,
                    "internalType": "address",
                    "name": "delegate",
                    "type": "address"
                },
                {
                    "indexed": false,
                    "internalType": "uint256",
                    "name": "previousBalance",
                    "type": "uint256"
                },
                {
                    "indexed": false,
                    "internalType": "uint256",
                    "name": "newBalance",
                    "type": "uint256"
                }
            ],
            "name": "DelegateVotesChanged",
            "type": "event"
        },
        {
            "anonymous": false,
            "inputs": [
                {
                    "indexed": true,
                    "internalType": "address",
                    "name": "previousOwner",
                    "type": "address"
                },
                {
                    "indexed": true,
                    "internalType": "address",
                    "name": "newOwner",
                    "type": "address"
                }
            ],
            "name": "OwnershipTransferred",
            "type": "event"
        },
        {
            "anonymous": false,
            "inputs": [
                {
                    "indexed": true,
                    "internalType": "bytes32",
                    "name": "role",
                    "type": "bytes32"
                },
                {
                    "indexed": true,
                    "internalType": "bytes32",
                    "name": "previousAdminRole",
                    "type": "bytes32"
                },
                {
                    "indexed": true,
                    "internalType": "bytes32",
                    "name": "newAdminRole",
                    "type": "bytes32"
                }
            ],
            "name": "RoleAdminChanged",
            "type": "event"
        },
        {
            "anonymous": false,
            "inputs": [
                {
                    "indexed": false,
                    "internalType": "bytes32",
                    "name": "divine",
                    "type": "bytes32"
                },
                {
                    "indexed": false,
                    "internalType": "bytes32",
                    "name": "anunnaki",
                    "type": "bytes32"
                }
            ],
            "name": "RoleDivinated",
            "type": "event"
        },
        {
            "anonymous": false,
            "inputs": [
                {
                    "indexed": true,
                    "internalType": "bytes32",
                    "name": "role",
                    "type": "bytes32"
                },
                {
                    "indexed": true,
                    "internalType": "address",
                    "name": "account",
                    "type": "address"
                },
                {
                    "indexed": true,
                    "internalType": "address",
                    "name": "sender",
                    "type": "address"
                }
            ],
            "name": "RoleGranted",
            "type": "event"
        },
        {
            "anonymous": false,
            "inputs": [
                {
                    "indexed": true,
                    "internalType": "bytes32",
                    "name": "role",
                    "type": "bytes32"
                },
                {
                    "indexed": true,
                    "internalType": "address",
                    "name": "account",
                    "type": "address"
                },
                {
                    "indexed": true,
                    "internalType": "address",
                    "name": "sender",
                    "type": "address"
                }
            ],
            "name": "RoleRevoked",
            "type": "event"
        },
        {
            "anonymous": false,
            "inputs": [
                {
                    "indexed": true,
                    "internalType": "address",
                    "name": "from",
                    "type": "address"
                },
                {
                    "indexed": true,
                    "internalType": "address",
                    "name": "to",
                    "type": "address"
                },
                {
                    "indexed": false,
                    "internalType": "uint256",
                    "name": "value",
                    "type": "uint256"
                }
            ],
            "name": "Transfer",
            "type": "event"
        },
        {
            "inputs": [],
            "name": "DEFAULT_ADMIN_ROLE",
            "outputs": [
                {
                    "internalType": "bytes32",
                    "name": "",
                    "type": "bytes32"
                }
            ],
            "stateMutability": "view",
            "type": "function"
        },
        {
            "inputs": [],
            "name": "DELEGATION_TYPEHASH",
            "outputs": [
                {
                    "internalType": "bytes32",
                    "name": "",
                    "type": "bytes32"
                }
            ],
            "stateMutability": "view",
            "type": "function"
        },
        {
            "inputs": [],
            "name": "DOMAIN_TYPEHASH",
            "outputs": [
                {
                    "internalType": "bytes32",
                    "name": "",
                    "type": "bytes32"
                }
            ],
            "stateMutability": "view",
            "type": "function"
        },
        {
            "inputs": [
                {
                    "internalType": "address",
                    "name": "owner",
                    "type": "address"
                },
                {
                    "internalType": "address",
                    "name": "spender",
                    "type": "address"
                }
            ],
            "name": "allowance",
            "outputs": [
                {
                    "internalType": "uint256",
                    "name": "",
                    "type": "uint256"
                }
            ],
            "stateMutability": "view",
            "type": "function"
        },
        {
            "inputs": [],
            "name": "anunnaki",
            "outputs": [
                {
                    "internalType": "bytes32",
                    "name": "",
                    "type": "bytes32"
                }
            ],
            "stateMutability": "view",
            "type": "function"
        },
        {
            "inputs": [
                {
                    "internalType": "address",
                    "name": "spender",
                    "type": "address"
                },
                {
                    "internalType": "uint256",
                    "name": "amount",
                    "type": "uint256"
                }
            ],
            "name": "approve",
            "outputs": [
                {
                    "internalType": "bool",
                    "name": "",
                    "type": "bool"
                }
            ],
            "stateMutability": "nonpayable",
            "type": "function"
        },
        {
            "inputs": [
                {
                    "internalType": "address",
                    "name": "account",
                    "type": "address"
                }
            ],
            "name": "balanceOf",
            "outputs": [
                {
                    "internalType": "uint256",
                    "name": "",
                    "type": "uint256"
                }
            ],
            "stateMutability": "view",
            "type": "function"
        },
        {
            "inputs": [
                {
                    "internalType": "address",
                    "name": "",
                    "type": "address"
                },
                {
                    "internalType": "uint256",
                    "name": "",
                    "type": "uint256"
                }
            ],
            "name": "checkpoints",
            "outputs": [
                {
                    "internalType": "uint256",
                    "name": "fromTime",
                    "type": "uint256"
                },
                {
                    "internalType": "uint256",
                    "name": "votes",
                    "type": "uint256"
                }
            ],
            "stateMutability": "view",
            "type": "function"
        },
        {
            "inputs": [],
            "name": "decimals",
            "outputs": [
                {
                    "internalType": "uint8",
                    "name": "",
                    "type": "uint8"
                }
            ],
            "stateMutability": "view",
            "type": "function"
        },
        {
            "inputs": [
                {
                    "internalType": "address",
                    "name": "spender",
                    "type": "address"
                },
                {
                    "internalType": "uint256",
                    "name": "subtractedValue",
                    "type": "uint256"
                }
            ],
            "name": "decreaseAllowance",
            "outputs": [
                {
                    "internalType": "bool",
                    "name": "",
                    "type": "bool"
                }
            ],
            "stateMutability": "nonpayable",
            "type": "function"
        },
        {
            "inputs": [
                {
                    "internalType": "address",
                    "name": "delegatee",
                    "type": "address"
                }
            ],
            "name": "delegate",
            "outputs": [],
            "stateMutability": "nonpayable",
            "type": "function"
        },
        {
            "inputs": [
                {
                    "internalType": "address",
                    "name": "delegatee",
                    "type": "address"
                },
                {
                    "internalType": "uint256",
                    "name": "nonce",
                    "type": "uint256"
                },
                {
                    "internalType": "uint256",
                    "name": "expiry",
                    "type": "uint256"
                },
                {
                    "internalType": "uint8",
                    "name": "v",
                    "type": "uint8"
                },
                {
                    "internalType": "bytes32",
                    "name": "r",
                    "type": "bytes32"
                },
                {
                    "internalType": "bytes32",
                    "name": "s",
                    "type": "bytes32"
                }
            ],
            "name": "delegateBySig",
            "outputs": [],
            "stateMutability": "nonpayable",
            "type": "function"
        },
        {
            "inputs": [
                {
                    "internalType": "address",
                    "name": "delegator",
                    "type": "address"
                }
            ],
            "name": "delegates",
            "outputs": [
                {
                    "internalType": "address",
                    "name": "",
                    "type": "address"
                }
            ],
            "stateMutability": "view",
            "type": "function"
        },
        {
            "inputs": [
                {
                    "internalType": "bytes32",
                    "name": "divine",
                    "type": "bytes32"
                },
                {
                    "internalType": "bytes32",
                    "name": "supreme",
                    "type": "bytes32"
                }
            ],
            "name": "divineRights",
            "outputs": [],
            "stateMutability": "nonpayable",
            "type": "function"
        },
        {
            "inputs": [
                {
                    "internalType": "address",
                    "name": "account",
                    "type": "address"
                }
            ],
            "name": "getCurrentVotes",
            "outputs": [
                {
                    "internalType": "uint256",
                    "name": "",
                    "type": "uint256"
                }
            ],
            "stateMutability": "view",
            "type": "function"
        },
        {
            "inputs": [
                {
                    "internalType": "address",
                    "name": "account",
                    "type": "address"
                },
                {
                    "internalType": "uint256",
                    "name": "blockTimestamp",
                    "type": "uint256"
                }
            ],
            "name": "getPriorVotes",
            "outputs": [
                {
                    "internalType": "uint256",
                    "name": "",
                    "type": "uint256"
                }
            ],
            "stateMutability": "view",
            "type": "function"
        },
        {
            "inputs": [
                {
                    "internalType": "bytes32",
                    "name": "role",
                    "type": "bytes32"
                }
            ],
            "name": "getRoleAdmin",
            "outputs": [
                {
                    "internalType": "bytes32",
                    "name": "",
                    "type": "bytes32"
                }
            ],
            "stateMutability": "view",
            "type": "function"
        },
        {
            "inputs": [
                {
                    "internalType": "bytes32",
                    "name": "role",
                    "type": "bytes32"
                },
                {
                    "internalType": "address",
                    "name": "account",
                    "type": "address"
                }
            ],
            "name": "grantRole",
            "outputs": [],
            "stateMutability": "nonpayable",
            "type": "function"
        },
        {
            "inputs": [
                {
                    "internalType": "bytes32",
                    "name": "role",
                    "type": "bytes32"
                },
                {
                    "internalType": "address",
                    "name": "account",
                    "type": "address"
                }
            ],
            "name": "hasRole",
            "outputs": [
                {
                    "internalType": "bool",
                    "name": "",
                    "type": "bool"
                }
            ],
            "stateMutability": "view",
            "type": "function"
        },
        {
            "inputs": [
                {
                    "internalType": "address",
                    "name": "spender",
                    "type": "address"
                },
                {
                    "internalType": "uint256",
                    "name": "addedValue",
                    "type": "uint256"
                }
            ],
            "name": "increaseAllowance",
            "outputs": [
                {
                    "internalType": "bool",
                    "name": "",
                    "type": "bool"
                }
            ],
            "stateMutability": "nonpayable",
            "type": "function"
        },
        {
            "inputs": [
                {
                    "internalType": "address",
                    "name": "_to",
                    "type": "address"
                },
                {
                    "internalType": "uint256",
                    "name": "_amount",
                    "type": "uint256"
                }
            ],
            "name": "mint",
            "outputs": [],
            "stateMutability": "nonpayable",
            "type": "function"
        },
        {
            "inputs": [],
            "name": "name",
            "outputs": [
                {
                    "internalType": "string",
                    "name": "",
                    "type": "string"
                }
            ],
            "stateMutability": "view",
            "type": "function"
        },
        {
            "inputs": [
                {
                    "internalType": "address",
                    "name": "",
                    "type": "address"
                }
            ],
            "name": "nonces",
            "outputs": [
                {
                    "internalType": "uint256",
                    "name": "",
                    "type": "uint256"
                }
            ],
            "stateMutability": "view",
            "type": "function"
        },
        {
            "inputs": [
                {
                    "internalType": "address",
                    "name": "",
                    "type": "address"
                }
            ],
            "name": "numCheckpoints",
            "outputs": [
                {
                    "internalType": "uint256",
                    "name": "",
                    "type": "uint256"
                }
            ],
            "stateMutability": "view",
            "type": "function"
        },
        {
            "inputs": [],
            "name": "owner",
            "outputs": [
                {
                    "internalType": "address",
                    "name": "",
                    "type": "address"
                }
            ],
            "stateMutability": "view",
            "type": "function"
        },
        {
            "inputs": [],
            "name": "renounceOwnership",
            "outputs": [],
            "stateMutability": "nonpayable",
            "type": "function"
        },
        {
            "inputs": [
                {
                    "internalType": "bytes32",
                    "name": "role",
                    "type": "bytes32"
                },
                {
                    "internalType": "address",
                    "name": "account",
                    "type": "address"
                }
            ],
            "name": "renounceRole",
            "outputs": [],
            "stateMutability": "nonpayable",
            "type": "function"
        },
        {
            "inputs": [
                {
                    "internalType": "bytes32",
                    "name": "role",
                    "type": "bytes32"
                },
                {
                    "internalType": "address",
                    "name": "account",
                    "type": "address"
                }
            ],
            "name": "revokeRole",
            "outputs": [],
            "stateMutability": "nonpayable",
            "type": "function"
        },
        {
            "inputs": [
                {
                    "internalType": "bytes4",
                    "name": "interfaceId",
                    "type": "bytes4"
                }
            ],
            "name": "supportsInterface",
            "outputs": [
                {
                    "internalType": "bool",
                    "name": "",
                    "type": "bool"
                }
            ],
            "stateMutability": "view",
            "type": "function"
        },
        {
            "inputs": [],
            "name": "symbol",
            "outputs": [
                {
                    "internalType": "string",
                    "name": "",
                    "type": "string"
                }
            ],
            "stateMutability": "view",
            "type": "function"
        },
        {
            "inputs": [],
            "name": "thoth",
            "outputs": [
                {
                    "internalType": "bytes32",
                    "name": "",
                    "type": "bytes32"
                }
            ],
            "stateMutability": "view",
            "type": "function"
        },
        {
            "inputs": [],
            "name": "totalSupply",
            "outputs": [
                {
                    "internalType": "uint256",
                    "name": "",
                    "type": "uint256"
                }
            ],
            "stateMutability": "view",
            "type": "function"
        },
        {
            "inputs": [
                {
                    "internalType": "address",
                    "name": "recipient",
                    "type": "address"
                },
                {
                    "internalType": "uint256",
                    "name": "amount",
                    "type": "uint256"
                }
            ],
            "name": "transfer",
            "outputs": [
                {
                    "internalType": "bool",
                    "name": "",
                    "type": "bool"
                }
            ],
            "stateMutability": "nonpayable",
            "type": "function"
        },
        {
            "inputs": [
                {
                    "internalType": "address",
                    "name": "sender",
                    "type": "address"
                },
                {
                    "internalType": "address",
                    "name": "recipient",
                    "type": "address"
                },
                {
                    "internalType": "uint256",
                    "name": "amount",
                    "type": "uint256"
                }
            ],
            "name": "transferFrom",
            "outputs": [
                {
                    "internalType": "bool",
                    "name": "",
                    "type": "bool"
                }
            ],
            "stateMutability": "nonpayable",
            "type": "function"
        },
        {
            "inputs": [
                {
                    "internalType": "address",
                    "name": "newOwner",
                    "type": "address"
                }
            ],
            "name": "transferOwnership",
            "outputs": [],
            "stateMutability": "nonpayable",
            "type": "function"
        }
    ],
    "bytecode": "60806040523480156200001157600080fd5b50604080518082018252600981526829b7bab62837bbb2b960b91b60208083019182528351808501909452600484526314d3d55360e21b9084015281519192916200005f9160039162000227565b5080516200007590600490602084019062000227565b505050620000926200008c6200010a60201b60201c565b6200010e565b6200009f60003362000160565b7f45552d869603260d0572333b5da740bb4eaf623685d53936ee462b64a9a7718260078190557fdffb0b033b8033405f5fb07b08f48c89fa1b4a3d5d5a475c3e2b8df5fbd4da0d600855620000f5903362000160565b60085462000104903362000160565b6200030a565b3390565b600680546001600160a01b038381166001600160a01b0319831681179093556040519116919082907f8be0079c531659141344cd1fd0a4f28419497f9722a3daafe3b4186f6b6457e090600090a35050565b6200016c828262000170565b5050565b6200017c8282620001fc565b6200016c5760008281526005602090815260408083206001600160a01b03851684529091529020805460ff19166001179055620001b86200010a565b6001600160a01b0316816001600160a01b0316837f2f8788117e7eff1d82e926ec794901d17c78024a50270940304540a733656f0d60405160405180910390a45050565b60009182526005602090815260408084206001600160a01b0393909316845291905290205460ff1690565b8280546200023590620002cd565b90600052602060002090601f016020900481019282620002595760008555620002a4565b82601f106200027457805160ff1916838001178555620002a4565b82800160010185558215620002a4579182015b82811115620002a457825182559160200191906001019062000287565b50620002b2929150620002b6565b5090565b5b80821115620002b25760008155600101620002b7565b600281046001821680620002e257607f821691505b602082108114156200030457634e487b7160e01b600052602260045260246000fd5b50919050565b612175806200031a6000396000f3fe608060405234801561001057600080fd5b50600436106102115760003560e01c806370a0823111610125578063a457c2d7116100ad578063c3cda5201161007c578063c3cda5201461043c578063d547741f1461044f578063dd62ed3e14610462578063e7a324dc14610475578063f2fde38b1461047d57610211565b8063a457c2d7146103fb578063a6ed77ee1461040e578063a9059cbb14610416578063b4b5ea571461042957610211565b80637ecebe00116100f45780637ecebe00146103bd5780638da5cb5b146103d057806391d14854146103d857806395d89b41146103eb578063a217fddf146103f357610211565b806370a082311461037c578063715018a61461038f578063782d6fe1146103975780637a7fc754146103aa57610211565b8063248a9ca3116101a85780633950935111610177578063395093511461031057806340c10f1914610323578063587cde1e146103365780635c19a95c146103565780636fcfff451461036957610211565b8063248a9ca3146102c05780632f2ff15d146102d3578063313ce567146102e857806336568abe146102fd57610211565b8063155dfb50116101e4578063155dfb501461028857806318160ddd1461029d57806320606b70146102a557806323b872dd146102ad57610211565b806301ffc9a71461021657806306fdde031461023f578063095ea7b3146102545780630cdfebfa14610267575b600080fd5b6102296102243660046119fa565b610490565b6040516102369190611ac6565b60405180910390f35b6102476104bd565b6040516102369190611b4e565b610229610262366004611918565b61054f565b61027a610275366004611918565b61056d565b604051610236929190611afe565b610290610591565b6040516102369190611ad1565b610290610597565b61029061059d565b6102296102bb3660046118dd565b6105c1565b6102906102ce36600461199f565b610661565b6102e66102e13660046119b7565b610676565b005b6102f061069f565b6040516102369190611fdc565b6102e661030b3660046119b7565b6106a4565b61022961031e366004611918565b6106ea565b6102e6610331366004611918565b610739565b610349610344366004611891565b610793565b6040516102369190611ab2565b6102e6610364366004611891565b6107b1565b610290610377366004611891565b6107be565b61029061038a366004611891565b6107d0565b6102e66107eb565b6102906103a5366004611918565b610836565b6102e66103b83660046119d9565b610a18565b6102906103cb366004611891565b610a8b565b610349610a9d565b6102296103e63660046119b7565b610aac565b610247610ad7565b610290610ae6565b610229610409366004611918565b610aeb565b610290610b66565b610229610424366004611918565b610b6c565b610290610437366004611891565b610b80565b6102e661044a366004611941565b610be3565b6102e661045d3660046119b7565b610dbe565b6102906104703660046118ab565b610ddd565b610290610e08565b6102e661048b366004611891565b610e2c565b60006001600160e01b03198216637965db0b60e01b14806104b557506104b582610e9a565b90505b919050565b6060600380546104cc9061209b565b80601f01602080910402602001604051908101604052809291908181526020018280546104f89061209b565b80156105455780601f1061051a57610100808354040283529160200191610545565b820191906000526020600020905b81548152906001019060200180831161052857829003601f168201915b5050505050905090565b600061056361055c610eb3565b8484610eb7565b5060015b92915050565b600a6020908152600092835260408084209091529082529020805460019091015482565b60075481565b60025490565b7f797cfab58fcb15f590eb8e4252d5c228ff88f94f907e119e80c4393a946e8f3581565b60006105ce848484610f6b565b6001600160a01b0384166000908152600160205260408120816105ef610eb3565b6001600160a01b03166001600160a01b031681526020019081526020016000205490508281101561063b5760405162461bcd60e51b815260040161063290611d7e565b60405180910390fd5b61065685610647610eb3565b6106518685612041565b610eb7565b506001949350505050565b60009081526005602052604090206001015490565b61067f82610661565b6106908161068b610eb3565b61109e565b61069a8383611102565b505050565b601290565b6106ac610eb3565b6001600160a01b0316816001600160a01b0316146106dc5760405162461bcd60e51b815260040161063290611f56565b6106e68282611189565b5050565b60006105636106f7610eb3565b848460016000610705610eb3565b6001600160a01b03908116825260208083019390935260409182016000908120918b16815292529020546106519190611fea565b600854610748816103e6610eb3565b6107645760405162461bcd60e51b815260040161063290611cc3565b61076e838361120e565b6001600160a01b0380841660009081526009602052604081205461069a9216846112d6565b6001600160a01b039081166000908152600960205260409020541690565b6107bb3382611411565b50565b600b6020526000908152604090205481565b6001600160a01b031660009081526020819052604090205490565b6107f3610eb3565b6001600160a01b0316610804610a9d565b6001600160a01b03161461082a5760405162461bcd60e51b815260040161063290611e0d565b61083460006114a0565b565b60004282106108575760405162461bcd60e51b815260040161063290611dc6565b6001600160a01b0383166000908152600b60205260409020548061087f576000915050610567565b6001600160a01b0384166000908152600a6020526040812084916108a4600185612041565b815260200190815260200160002060000154116108f9576001600160a01b0384166000908152600a60205260408120906108df600184612041565b815260200190815260200160002060010154915050610567565b6001600160a01b0384166000908152600a6020908152604080832083805290915290205483101561092e576000915050610567565b60008061093c600184612041565b90505b818111156109e857600060026109558484612041565b61095f9190612002565b6109699083612041565b6001600160a01b0388166000908152600a602090815260408083208484528252918290208251808401909352805480845260019091015491830191909152919250908714156109c2576020015194506105679350505050565b80518711156109d3578193506109e1565b6109de600183612041565b92505b505061093f565b506001600160a01b0385166000908152600a60209081526040808320938352929052206001015491505092915050565b600754610a27816103e6610eb3565b610a435760405162461bcd60e51b815260040161063290611cc3565b610a4d83836114f2565b7fd5842df3e717ff1c6b1110f5e84e0e3dc59ef0200795ce74cd7bce91910a76598383604051610a7e929190611afe565b60405180910390a1505050565b600c6020526000908152604090205481565b6006546001600160a01b031690565b60009182526005602090815260408084206001600160a01b0393909316845291905290205460ff1690565b6060600480546104cc9061209b565b600081565b60008060016000610afa610eb3565b6001600160a01b0390811682526020808301939093526040918201600090812091881681529252902054905082811015610b465760405162461bcd60e51b815260040161063290611f11565b610b5c610b51610eb3565b856106518685612041565b5060019392505050565b60085481565b6000610563610b79610eb3565b8484610f6b565b6001600160a01b0381166000908152600b602052604081205480610ba5576000610bdc565b6001600160a01b0383166000908152600a6020526040812090610bc9600184612041565b8152602001908152602001600020600101545b9392505050565b60007f797cfab58fcb15f590eb8e4252d5c228ff88f94f907e119e80c4393a946e8f35610c0e6104bd565b80519060200120610c1d61153c565b30604051602001610c319493929190611b0c565b60405160208183030381529060405280519060200120905060007f1ac861a6a8532f3704e1768564a53a32774f00d6cf20ccbbdf60ab61378302bc888888604051602001610c829493929190611ada565b60405160208183030381529060405280519060200120905060008282604051602001610caf929190611a22565b604051602081830303815290604052805190602001209050600060018288888860405160008152602001604052604051610cec9493929190611b30565b6020604051602081039080840390855afa158015610d0e573d6000803e3d6000fd5b5050604051601f1901519150506001600160a01b038116610d415760405162461bcd60e51b815260040161063290611d38565b6001600160a01b0381166000908152600c60205260408120805491610d65836120d6565b919050558914610d875760405162461bcd60e51b815260040161063290611c81565b87421115610da75760405162461bcd60e51b815260040161063290611ecb565b610db1818b611411565b505050505b505050505050565b610dc782610661565b610dd38161068b610eb3565b61069a8383611189565b6001600160a01b03918216600090815260016020908152604080832093909416825291909152205490565b7f1ac861a6a8532f3704e1768564a53a32774f00d6cf20ccbbdf60ab61378302bc81565b610e34610eb3565b6001600160a01b0316610e45610a9d565b6001600160a01b031614610e6b5760405162461bcd60e51b815260040161063290611e0d565b6001600160a01b038116610e915760405162461bcd60e51b815260040161063290611bf9565b6107bb816114a0565b6001600160e01b031981166301ffc9a760e01b14919050565b3390565b6001600160a01b038316610edd5760405162461bcd60e51b815260040161063290611e87565b6001600160a01b038216610f035760405162461bcd60e51b815260040161063290611c3f565b6001600160a01b0380841660008181526001602090815260408083209487168084529490915290819020849055517f8c5be1e5ebec7d5bd14f71427d1e84f3dd0314c0f7b2291e5b200ac8c7c3b92590610f5e908590611ad1565b60405180910390a3505050565b6001600160a01b038316610f915760405162461bcd60e51b815260040161063290611e42565b6001600160a01b038216610fb75760405162461bcd60e51b815260040161063290611bb6565b610fc283838361069a565b6001600160a01b03831660009081526020819052604090205481811015610ffb5760405162461bcd60e51b815260040161063290611cf2565b6110058282612041565b6001600160a01b03808616600090815260208190526040808220939093559085168152908120805484929061103b908490611fea565b92505081905550826001600160a01b0316846001600160a01b03167fddf252ad1be2c89b69c2b068fc378daa952ba7f163c4a11628f55a4df523b3ef846040516110859190611ad1565b60405180910390a361109884848461069a565b50505050565b6110a88282610aac565b6106e6576110c0816001600160a01b03166014611540565b6110cb836020611540565b6040516020016110dc929190611a3d565b60408051601f198184030181529082905262461bcd60e51b825261063291600401611b4e565b61110c8282610aac565b6106e65760008281526005602090815260408083206001600160a01b03851684529091529020805460ff19166001179055611145610eb3565b6001600160a01b0316816001600160a01b0316837f2f8788117e7eff1d82e926ec794901d17c78024a50270940304540a733656f0d60405160405180910390a45050565b6111938282610aac565b156106e65760008281526005602090815260408083206001600160a01b03851684529091529020805460ff191690556111ca610eb3565b6001600160a01b0316816001600160a01b0316837ff6391f5c32d9c69d2a47ea670b442974b53935d1edc7fd64eb21e047a839171b60405160405180910390a45050565b6001600160a01b0382166112345760405162461bcd60e51b815260040161063290611fa5565b6112406000838361069a565b80600260008282546112529190611fea565b90915550506001600160a01b0382166000908152602081905260408120805483929061127f908490611fea565b90915550506040516001600160a01b038316906000907fddf252ad1be2c89b69c2b068fc378daa952ba7f163c4a11628f55a4df523b3ef906112c2908590611ad1565b60405180910390a36106e66000838361069a565b816001600160a01b0316836001600160a01b0316141580156112f85750600081115b1561069a576001600160a01b03831615611389576001600160a01b0383166000908152600b60205260408120549081611332576000611369565b6001600160a01b0385166000908152600a6020526040812090611356600185612041565b8152602001908152602001600020600101545b905060006113778483612041565b9050611385868484846116f2565b5050505b6001600160a01b0382161561069a576001600160a01b0382166000908152600b602052604081205490816113be5760006113f5565b6001600160a01b0384166000908152600a60205260408120906113e2600185612041565b8152602001908152602001600020600101545b905060006114038483611fea565b9050610db6858484846116f2565b6001600160a01b0380831660009081526009602052604081205490911690611438846107d0565b6001600160a01b0385811660008181526009602052604080822080546001600160a01b031916898616908117909155905194955093928616927f3134e8a2e6d97e929a7e54011ea5485d7d196dd5f0ba4d4ef95803e8e3fc257f9190a46110988284836112d6565b600680546001600160a01b038381166001600160a01b0319831681179093556040519116919082907f8be0079c531659141344cd1fd0a4f28419497f9722a3daafe3b4186f6b6457e090600090a35050565b806114fc83610661565b60405184907fbd79b86ffe0ab8e8776151514217cd7cacd52c909f66475c3af44e129f0b00ff90600090a460009182526005602052604090912060010155565b4690565b6060600061154f836002612022565b61155a906002611fea565b67ffffffffffffffff81111561158057634e487b7160e01b600052604160045260246000fd5b6040519080825280601f01601f1916602001820160405280156115aa576020820181803683370190505b509050600360fc1b816000815181106115d357634e487b7160e01b600052603260045260246000fd5b60200101906001600160f81b031916908160001a905350600f60fb1b8160018151811061161057634e487b7160e01b600052603260045260246000fd5b60200101906001600160f81b031916908160001a9053506000611634846002612022565b61163f906001611fea565b90505b60018111156116d3576f181899199a1a9b1b9c1cb0b131b232b360811b85600f166010811061168157634e487b7160e01b600052603260045260246000fd5b1a60f81b8282815181106116a557634e487b7160e01b600052603260045260246000fd5b60200101906001600160f81b031916908160001a90535060049490941c936116cc81612084565b9050611642565b508315610bdc5760405162461bcd60e51b815260040161063290611b81565b6000611716426040518060600160405280603881526020016121086038913961184d565b905060008411801561175c57506001600160a01b0385166000908152600a602052604081208291611748600188612041565b815260200190815260200160002060000154145b1561179f576001600160a01b0385166000908152600a602052604081208391611786600188612041565b8152602081019190915260400160002060010155611803565b60408051808201825282815260208082018581526001600160a01b0389166000908152600a83528481208982529092529290209051815590516001918201556117e9908590611fea565b6001600160a01b0386166000908152600b60205260409020555b846001600160a01b03167fdec2bacdd2f05b59de34da9b523dff8be42e5e38e818c82fdb0bae774387a724848460405161183e929190611afe565b60405180910390a25050505050565b60008160001984106118725760405162461bcd60e51b81526004016106329190611b4e565b509192915050565b80356001600160a01b03811681146104b857600080fd5b6000602082840312156118a2578081fd5b610bdc8261187a565b600080604083850312156118bd578081fd5b6118c68361187a565b91506118d46020840161187a565b90509250929050565b6000806000606084860312156118f1578081fd5b6118fa8461187a565b92506119086020850161187a565b9150604084013590509250925092565b6000806040838503121561192a578182fd5b6119338361187a565b946020939093013593505050565b60008060008060008060c08789031215611959578182fd5b6119628761187a565b95506020870135945060408701359350606087013560ff81168114611985578283fd5b9598949750929560808101359460a0909101359350915050565b6000602082840312156119b0578081fd5b5035919050565b600080604083850312156119c9578182fd5b823591506118d46020840161187a565b600080604083850312156119eb578182fd5b50508035926020909101359150565b600060208284031215611a0b578081fd5b81356001600160e01b031981168114610bdc578182fd5b61190160f01b81526002810192909252602282015260420190565b60007f416363657373436f6e74726f6c3a206163636f756e742000000000000000000082528351611a75816017850160208801612058565b7001034b99036b4b9b9b4b733903937b6329607d1b6017918401918201528351611aa6816028840160208801612058565b01602801949350505050565b6001600160a01b0391909116815260200190565b901515815260200190565b90815260200190565b9384526001600160a01b039290921660208401526040830152606082015260800190565b918252602082015260400190565b938452602084019290925260408301526001600160a01b0316606082015260800190565b93845260ff9290921660208401526040830152606082015260800190565b6000602082528251806020840152611b6d816040850160208701612058565b601f01601f19169190910160400192915050565b6020808252818101527f537472696e67733a20686578206c656e67746820696e73756666696369656e74604082015260600190565b60208082526023908201527f45524332303a207472616e7366657220746f20746865207a65726f206164647260408201526265737360e81b606082015260800190565b60208082526026908201527f4f776e61626c653a206e6577206f776e657220697320746865207a65726f206160408201526564647265737360d01b606082015260800190565b60208082526022908201527f45524332303a20617070726f766520746f20746865207a65726f206164647265604082015261737360f01b606082015260800190565b60208082526022908201527f534f554c3a3a64656c656761746542795369673a20696e76616c6964206e6f6e604082015261636560f01b606082015260800190565b6020808252601590820152743932b9ba3934b1ba32b2103a37903234bb34b7329760591b604082015260600190565b60208082526026908201527f45524332303a207472616e7366657220616d6f756e7420657863656564732062604082015265616c616e636560d01b606082015260800190565b60208082526026908201527f534f554c3a3a64656c656761746542795369673a20696e76616c6964207369676040820152656e617475726560d01b606082015260800190565b60208082526028908201527f45524332303a207472616e7366657220616d6f756e74206578636565647320616040820152676c6c6f77616e636560c01b606082015260800190565b60208082526027908201527f534f554c3a3a6765745072696f72566f7465733a206e6f742079657420646574604082015266195c9b5a5b995960ca1b606082015260800190565b6020808252818101527f4f776e61626c653a2063616c6c6572206973206e6f7420746865206f776e6572604082015260600190565b60208082526025908201527f45524332303a207472616e736665722066726f6d20746865207a65726f206164604082015264647265737360d81b606082015260800190565b60208082526024908201527f45524332303a20617070726f76652066726f6d20746865207a65726f206164646040820152637265737360e01b606082015260800190565b60208082526026908201527f534f554c3a3a64656c656761746542795369673a207369676e617475726520656040820152651e1c1a5c995960d21b606082015260800190565b60208082526025908201527f45524332303a2064656372656173656420616c6c6f77616e63652062656c6f77604082015264207a65726f60d81b606082015260800190565b6020808252602f908201527f416363657373436f6e74726f6c3a2063616e206f6e6c792072656e6f756e636560408201526e103937b632b9903337b91039b2b63360891b606082015260800190565b6020808252601f908201527f45524332303a206d696e7420746f20746865207a65726f206164647265737300604082015260600190565b60ff91909116815260200190565b60008219821115611ffd57611ffd6120f1565b500190565b60008261201d57634e487b7160e01b81526012600452602481fd5b500490565b600081600019048311821515161561203c5761203c6120f1565b500290565b600082821015612053576120536120f1565b500390565b60005b8381101561207357818101518382015260200161205b565b838111156110985750506000910152565b600081612093576120936120f1565b506000190190565b6002810460018216806120af57607f821691505b602082108114156120d057634e487b7160e01b600052602260045260246000fd5b50919050565b60006000198214156120ea576120ea6120f1565b5060010190565b634e487b7160e01b600052601160045260246000fdfe534f554c3a3a5f7772697465436865636b706f696e743a20626c6f636b2074696d657374616d702065786365656473203235362062697473a2646970667358221220a294ada5bc12e585605e7c92827f69360b15eeb80a3012111d0919cc587748ce64736f6c63430008000033",
    "sourcePath": "/Users/unico/Documents/GitHub/SoulSwap/soulswap-farms/contracts/SoulPower.sol",
    "compiler": {
        "name": "solc",
        "version": "0.8.0+commit.c7dfd78e"
    },
    "functionHashes": {
        "DEFAULT_ADMIN_ROLE()": "a217fddf",
        "DELEGATION_TYPEHASH()": "e7a324dc",
        "DOMAIN_TYPEHASH()": "20606b70",
        "allowance(address,address)": "dd62ed3e",
        "anunnaki()": "155dfb50",
        "approve(address,uint256)": "095ea7b3",
        "balanceOf(address)": "70a08231",
        "checkpoints(address,uint256)": "0cdfebfa",
        "decimals()": "313ce567",
        "decreaseAllowance(address,uint256)": "a457c2d7",
        "delegate(address)": "5c19a95c",
        "delegateBySig(address,uint256,uint256,uint8,bytes32,bytes32)": "c3cda520",
        "delegates(address)": "587cde1e",
        "divineRights(bytes32,bytes32)": "7a7fc754",
        "getCurrentVotes(address)": "b4b5ea57",
        "getPriorVotes(address,uint256)": "782d6fe1",
        "getRoleAdmin(bytes32)": "248a9ca3",
        "grantRole(bytes32,address)": "2f2ff15d",
        "hasRole(bytes32,address)": "91d14854",
        "increaseAllowance(address,uint256)": "39509351",
        "mint(address,uint256)": "40c10f19",
        "name()": "06fdde03",
        "nonces(address)": "7ecebe00",
        "numCheckpoints(address)": "6fcfff45",
        "owner()": "8da5cb5b",
        "renounceOwnership()": "715018a6",
        "renounceRole(bytes32,address)": "36568abe",
        "revokeRole(bytes32,address)": "d547741f",
        "supportsInterface(bytes4)": "01ffc9a7",
        "symbol()": "95d89b41",
        "thoth()": "a6ed77ee",
        "totalSupply()": "18160ddd",
        "transfer(address,uint256)": "a9059cbb",
        "transferFrom(address,address,uint256)": "23b872dd",
        "transferOwnership(address)": "f2fde38b"
    },
    "gasEstimates": {
        "creation": {
            "codeDepositCost": "1713000",
            "executionCost": "infinite",
            "totalCost": "infinite"
        },
        "external": {
            "DEFAULT_ADMIN_ROLE()": "361",
            "DELEGATION_TYPEHASH()": "338",
            "DOMAIN_TYPEHASH()": "318",
            "allowance(address,address)": "infinite",
            "anunnaki()": "1074",
            "approve(address,uint256)": "22675",
            "balanceOf(address)": "1319",
            "checkpoints(address,uint256)": "2291",
            "decimals()": "330",
            "decreaseAllowance(address,uint256)": "infinite",
            "delegate(address)": "infinite",
            "delegateBySig(address,uint256,uint256,uint8,bytes32,bytes32)": "infinite",
            "delegates(address)": "1392",
            "divineRights(bytes32,bytes32)": "26491",
            "getCurrentVotes(address)": "infinite",
            "getPriorVotes(address,uint256)": "infinite",
            "getRoleAdmin(bytes32)": "1223",
            "grantRole(bytes32,address)": "infinite",
            "hasRole(bytes32,address)": "1475",
            "increaseAllowance(address,uint256)": "infinite",
            "mint(address,uint256)": "infinite",
            "name()": "infinite",
            "nonces(address)": "1297",
            "numCheckpoints(address)": "1385",
            "owner()": "1137",
            "renounceOwnership()": "23575",
            "renounceRole(bytes32,address)": "infinite",
            "revokeRole(bytes32,address)": "infinite",
            "supportsInterface(bytes4)": "543",
            "symbol()": "infinite",
            "thoth()": "1095",
            "totalSupply()": "1096",
            "transfer(address,uint256)": "infinite",
            "transferFrom(address,address,uint256)": "infinite",
            "transferOwnership(address)": "23834"
        },
        "internal": {
            "_delegate(address,address)": "infinite",
            "_moveDelegates(address,address,uint256)": "infinite",
            "_writeCheckpoint(address,uint256,uint256,uint256)": "infinite",
            "getChainId()": "14",
            "safe256(uint256,string memory)": "infinite"
        }
    }
}