{
    "contractName": "SoulSummoner",
    "abi": [
        {
            "inputs": [],
            "stateMutability": "nonpayable",
            "type": "constructor"
        },
        {
            "anonymous": false,
            "inputs": [
                {
                    "indexed": false,
                    "internalType": "address",
                    "name": "dao",
                    "type": "address"
                },
                {
                    "indexed": false,
                    "internalType": "address",
                    "name": "team",
                    "type": "address"
                }
            ],
            "name": "AccountsUpdated",
            "type": "event"
        },
        {
            "anonymous": false,
            "inputs": [
                {
                    "indexed": true,
                    "internalType": "address",
                    "name": "user",
                    "type": "address"
                },
                {
                    "indexed": true,
                    "internalType": "uint256",
                    "name": "pid",
                    "type": "uint256"
                },
                {
                    "indexed": false,
                    "internalType": "uint256",
                    "name": "amount",
                    "type": "uint256"
                }
            ],
            "name": "Deposit",
            "type": "event"
        },
        {
            "anonymous": false,
            "inputs": [
                {
                    "indexed": false,
                    "internalType": "uint256",
                    "name": "_pid",
                    "type": "uint256"
                },
                {
                    "indexed": false,
                    "internalType": "address",
                    "name": "_user",
                    "type": "address"
                },
                {
                    "indexed": false,
                    "internalType": "uint256",
                    "name": "_time",
                    "type": "uint256"
                }
            ],
            "name": "DepositRevised",
            "type": "event"
        },
        {
            "anonymous": false,
            "inputs": [
                {
                    "indexed": false,
                    "internalType": "address",
                    "name": "team",
                    "type": "address"
                },
                {
                    "indexed": false,
                    "internalType": "address",
                    "name": "dao",
                    "type": "address"
                },
                {
                    "indexed": false,
                    "internalType": "address",
                    "name": "soul",
                    "type": "address"
                },
                {
                    "indexed": false,
                    "internalType": "address",
                    "name": "seance",
                    "type": "address"
                },
                {
                    "indexed": false,
                    "internalType": "uint256",
                    "name": "totalAllocPoint",
                    "type": "uint256"
                },
                {
                    "indexed": false,
                    "internalType": "uint256",
                    "name": "weight",
                    "type": "uint256"
                }
            ],
            "name": "Initialized",
            "type": "event"
        },
        {
            "anonymous": false,
            "inputs": [
                {
                    "indexed": true,
                    "internalType": "address",
                    "name": "previousOwner",
                    "type": "address"
                },
                {
                    "indexed": true,
                    "internalType": "address",
                    "name": "newOwner",
                    "type": "address"
                }
            ],
            "name": "OwnershipTransferred",
            "type": "event"
        },
        {
            "anonymous": false,
            "inputs": [
                {
                    "indexed": false,
                    "internalType": "address",
                    "name": "account",
                    "type": "address"
                }
            ],
            "name": "Paused",
            "type": "event"
        },
        {
            "anonymous": false,
            "inputs": [
                {
                    "indexed": false,
                    "internalType": "uint256",
                    "name": "pid",
                    "type": "uint256"
                },
                {
                    "indexed": false,
                    "internalType": "uint256",
                    "name": "allocPoint",
                    "type": "uint256"
                },
                {
                    "indexed": false,
                    "internalType": "contract IERC20",
                    "name": "lpToken",
                    "type": "address"
                },
                {
                    "indexed": false,
                    "internalType": "uint256",
                    "name": "totalAllocPoint",
                    "type": "uint256"
                }
            ],
            "name": "PoolAdded",
            "type": "event"
        },
        {
            "anonymous": false,
            "inputs": [
                {
                    "indexed": false,
                    "internalType": "uint256",
                    "name": "pid",
                    "type": "uint256"
                },
                {
                    "indexed": false,
                    "internalType": "uint256",
                    "name": "allocPoint",
                    "type": "uint256"
                }
            ],
            "name": "PoolSet",
            "type": "event"
        },
        {
            "anonymous": false,
            "inputs": [
                {
                    "indexed": false,
                    "internalType": "uint256",
                    "name": "dailySoul",
                    "type": "uint256"
                },
                {
                    "indexed": false,
                    "internalType": "uint256",
                    "name": "soulPerSecond",
                    "type": "uint256"
                }
            ],
            "name": "RewardsUpdated",
            "type": "event"
        },
        {
            "anonymous": false,
            "inputs": [
                {
                    "indexed": true,
                    "internalType": "bytes32",
                    "name": "role",
                    "type": "bytes32"
                },
                {
                    "indexed": true,
                    "internalType": "bytes32",
                    "name": "previousAdminRole",
                    "type": "bytes32"
                },
                {
                    "indexed": true,
                    "internalType": "bytes32",
                    "name": "newAdminRole",
                    "type": "bytes32"
                }
            ],
            "name": "RoleAdminChanged",
            "type": "event"
        },
        {
            "anonymous": false,
            "inputs": [
                {
                    "indexed": false,
                    "internalType": "bytes32",
                    "name": "role",
                    "type": "bytes32"
                },
                {
                    "indexed": false,
                    "internalType": "bytes32",
                    "name": "supreme",
                    "type": "bytes32"
                }
            ],
            "name": "RoleDivinated",
            "type": "event"
        },
        {
            "anonymous": false,
            "inputs": [
                {
                    "indexed": true,
                    "internalType": "bytes32",
                    "name": "role",
                    "type": "bytes32"
                },
                {
                    "indexed": true,
                    "internalType": "address",
                    "name": "account",
                    "type": "address"
                },
                {
                    "indexed": true,
                    "internalType": "address",
                    "name": "sender",
                    "type": "address"
                }
            ],
            "name": "RoleGranted",
            "type": "event"
        },
        {
            "anonymous": false,
            "inputs": [
                {
                    "indexed": true,
                    "internalType": "bytes32",
                    "name": "role",
                    "type": "bytes32"
                },
                {
                    "indexed": true,
                    "internalType": "address",
                    "name": "account",
                    "type": "address"
                },
                {
                    "indexed": true,
                    "internalType": "address",
                    "name": "sender",
                    "type": "address"
                }
            ],
            "name": "RoleRevoked",
            "type": "event"
        },
        {
            "anonymous": false,
            "inputs": [
                {
                    "indexed": false,
                    "internalType": "address",
                    "name": "soul",
                    "type": "address"
                },
                {
                    "indexed": false,
                    "internalType": "address",
                    "name": "seance",
                    "type": "address"
                }
            ],
            "name": "TokensUpdated",
            "type": "event"
        },
        {
            "anonymous": false,
            "inputs": [
                {
                    "indexed": false,
                    "internalType": "address",
                    "name": "account",
                    "type": "address"
                }
            ],
            "name": "Unpaused",
            "type": "event"
        },
        {
            "anonymous": false,
            "inputs": [
                {
                    "indexed": false,
                    "internalType": "uint256",
                    "name": "weight",
                    "type": "uint256"
                },
                {
                    "indexed": false,
                    "internalType": "uint256",
                    "name": "totalWeight",
                    "type": "uint256"
                }
            ],
            "name": "WeightUpdated",
            "type": "event"
        },
        {
            "anonymous": false,
            "inputs": [
                {
                    "indexed": true,
                    "internalType": "address",
                    "name": "user",
                    "type": "address"
                },
                {
                    "indexed": true,
                    "internalType": "uint256",
                    "name": "pid",
                    "type": "uint256"
                },
                {
                    "indexed": false,
                    "internalType": "uint256",
                    "name": "amount",
                    "type": "uint256"
                },
                {
                    "indexed": false,
                    "internalType": "uint256",
                    "name": "timeStamp",
                    "type": "uint256"
                }
            ],
            "name": "Withdraw",
            "type": "event"
        },
        {
            "inputs": [],
            "name": "DEFAULT_ADMIN_ROLE",
            "outputs": [
                {
                    "internalType": "bytes32",
                    "name": "",
                    "type": "bytes32"
                }
            ],
            "stateMutability": "view",
            "type": "function"
        },
        {
            "inputs": [
                {
                    "internalType": "uint256",
                    "name": "_allocPoint",
                    "type": "uint256"
                },
                {
                    "internalType": "contract IERC20",
                    "name": "_lpToken",
                    "type": "address"
                },
                {
                    "internalType": "bool",
                    "name": "_withUpdate",
                    "type": "bool"
                }
            ],
            "name": "addPool",
            "outputs": [],
            "stateMutability": "nonpayable",
            "type": "function"
        },
        {
            "inputs": [],
            "name": "bonusMultiplier",
            "outputs": [
                {
                    "internalType": "uint256",
                    "name": "",
                    "type": "uint256"
                }
            ],
            "stateMutability": "view",
            "type": "function"
        },
        {
            "inputs": [],
            "name": "dailyDecay",
            "outputs": [
                {
                    "internalType": "uint256",
                    "name": "",
                    "type": "uint256"
                }
            ],
            "stateMutability": "view",
            "type": "function"
        },
        {
            "inputs": [],
            "name": "dailySoul",
            "outputs": [
                {
                    "internalType": "uint256",
                    "name": "",
                    "type": "uint256"
                }
            ],
            "stateMutability": "view",
            "type": "function"
        },
        {
            "inputs": [],
            "name": "dao",
            "outputs": [
                {
                    "internalType": "address",
                    "name": "",
                    "type": "address"
                }
            ],
            "stateMutability": "view",
            "type": "function"
        },
        {
            "inputs": [
                {
                    "internalType": "uint256",
                    "name": "pid",
                    "type": "uint256"
                },
                {
                    "internalType": "uint256",
                    "name": "amount",
                    "type": "uint256"
                }
            ],
            "name": "deposit",
            "outputs": [],
            "stateMutability": "nonpayable",
            "type": "function"
        },
        {
            "inputs": [
                {
                    "internalType": "uint256",
                    "name": "amount",
                    "type": "uint256"
                }
            ],
            "name": "enWei",
            "outputs": [
                {
                    "internalType": "uint256",
                    "name": "",
                    "type": "uint256"
                }
            ],
            "stateMutability": "pure",
            "type": "function"
        },
        {
            "inputs": [
                {
                    "internalType": "uint256",
                    "name": "amount",
                    "type": "uint256"
                }
            ],
            "name": "enterStaking",
            "outputs": [],
            "stateMutability": "nonpayable",
            "type": "function"
        },
        {
            "inputs": [
                {
                    "internalType": "uint256",
                    "name": "amount",
                    "type": "uint256"
                }
            ],
            "name": "fromWei",
            "outputs": [
                {
                    "internalType": "uint256",
                    "name": "",
                    "type": "uint256"
                }
            ],
            "stateMutability": "pure",
            "type": "function"
        },
        {
            "inputs": [
                {
                    "internalType": "uint256",
                    "name": "pid",
                    "type": "uint256"
                },
                {
                    "internalType": "uint256",
                    "name": "timeDelta",
                    "type": "uint256"
                }
            ],
            "name": "getFeeRate",
            "outputs": [
                {
                    "internalType": "uint256",
                    "name": "feeRate",
                    "type": "uint256"
                }
            ],
            "stateMutability": "view",
            "type": "function"
        },
        {
            "inputs": [
                {
                    "internalType": "uint256",
                    "name": "from",
                    "type": "uint256"
                },
                {
                    "internalType": "uint256",
                    "name": "to",
                    "type": "uint256"
                }
            ],
            "name": "getMultiplier",
            "outputs": [
                {
                    "internalType": "uint256",
                    "name": "",
                    "type": "uint256"
                }
            ],
            "stateMutability": "view",
            "type": "function"
        },
        {
            "inputs": [
                {
                    "internalType": "bytes32",
                    "name": "role",
                    "type": "bytes32"
                }
            ],
            "name": "getRoleAdmin",
            "outputs": [
                {
                    "internalType": "bytes32",
                    "name": "",
                    "type": "bytes32"
                }
            ],
            "stateMutability": "view",
            "type": "function"
        },
        {
            "inputs": [
                {
                    "internalType": "uint256",
                    "name": "pid",
                    "type": "uint256"
                },
                {
                    "internalType": "uint256",
                    "name": "timeDelta",
                    "type": "uint256"
                },
                {
                    "internalType": "uint256",
                    "name": "amount",
                    "type": "uint256"
                }
            ],
            "name": "getWithdrawable",
            "outputs": [
                {
                    "internalType": "uint256",
                    "name": "_feeAmount",
                    "type": "uint256"
                },
                {
                    "internalType": "uint256",
                    "name": "_withdrawable",
                    "type": "uint256"
                }
            ],
            "stateMutability": "view",
            "type": "function"
        },
        {
            "inputs": [
                {
                    "internalType": "bytes32",
                    "name": "role",
                    "type": "bytes32"
                },
                {
                    "internalType": "address",
                    "name": "account",
                    "type": "address"
                }
            ],
            "name": "grantRole",
            "outputs": [],
            "stateMutability": "nonpayable",
            "type": "function"
        },
        {
            "inputs": [
                {
                    "internalType": "bytes32",
                    "name": "role",
                    "type": "bytes32"
                }
            ],
            "name": "hasDivineRole",
            "outputs": [
                {
                    "internalType": "bool",
                    "name": "",
                    "type": "bool"
                }
            ],
            "stateMutability": "view",
            "type": "function"
        },
        {
            "inputs": [
                {
                    "internalType": "bytes32",
                    "name": "role",
                    "type": "bytes32"
                },
                {
                    "internalType": "address",
                    "name": "account",
                    "type": "address"
                }
            ],
            "name": "hasRole",
            "outputs": [
                {
                    "internalType": "bool",
                    "name": "",
                    "type": "bool"
                }
            ],
            "stateMutability": "view",
            "type": "function"
        },
        {
            "inputs": [
                {
                    "internalType": "address",
                    "name": "_soulAddress",
                    "type": "address"
                },
                {
                    "internalType": "address",
                    "name": "_seanceAddress",
                    "type": "address"
                },
                {
                    "internalType": "uint256",
                    "name": "_totalWeight",
                    "type": "uint256"
                },
                {
                    "internalType": "uint256",
                    "name": "_weight",
                    "type": "uint256"
                },
                {
                    "internalType": "uint256",
                    "name": "_stakingAlloc",
                    "type": "uint256"
                },
                {
                    "internalType": "uint256",
                    "name": "_startRate",
                    "type": "uint256"
                },
                {
                    "internalType": "uint256",
                    "name": "_dailyDecay",
                    "type": "uint256"
                }
            ],
            "name": "initialize",
            "outputs": [],
            "stateMutability": "nonpayable",
            "type": "function"
        },
        {
            "inputs": [],
            "name": "isInitialized",
            "outputs": [
                {
                    "internalType": "bool",
                    "name": "",
                    "type": "bool"
                }
            ],
            "stateMutability": "view",
            "type": "function"
        },
        {
            "inputs": [],
            "name": "isis",
            "outputs": [
                {
                    "internalType": "bytes32",
                    "name": "",
                    "type": "bytes32"
                }
            ],
            "stateMutability": "view",
            "type": "function"
        },
        {
            "inputs": [
                {
                    "internalType": "uint256",
                    "name": "amount",
                    "type": "uint256"
                }
            ],
            "name": "leaveStaking",
            "outputs": [],
            "stateMutability": "nonpayable",
            "type": "function"
        },
        {
            "inputs": [],
            "name": "maat",
            "outputs": [
                {
                    "internalType": "bytes32",
                    "name": "",
                    "type": "bytes32"
                }
            ],
            "stateMutability": "view",
            "type": "function"
        },
        {
            "inputs": [],
            "name": "massUpdatePools",
            "outputs": [],
            "stateMutability": "nonpayable",
            "type": "function"
        },
        {
            "inputs": [
                {
                    "internalType": "uint256",
                    "name": "pid",
                    "type": "uint256"
                }
            ],
            "name": "migrate",
            "outputs": [],
            "stateMutability": "nonpayable",
            "type": "function"
        },
        {
            "inputs": [],
            "name": "migrator",
            "outputs": [
                {
                    "internalType": "contract IMigrator",
                    "name": "",
                    "type": "address"
                }
            ],
            "stateMutability": "view",
            "type": "function"
        },
        {
            "inputs": [],
            "name": "owner",
            "outputs": [
                {
                    "internalType": "address",
                    "name": "",
                    "type": "address"
                }
            ],
            "stateMutability": "view",
            "type": "function"
        },
        {
            "inputs": [],
            "name": "paused",
            "outputs": [
                {
                    "internalType": "bool",
                    "name": "",
                    "type": "bool"
                }
            ],
            "stateMutability": "view",
            "type": "function"
        },
        {
            "inputs": [
                {
                    "internalType": "uint256",
                    "name": "pid",
                    "type": "uint256"
                },
                {
                    "internalType": "address",
                    "name": "_user",
                    "type": "address"
                }
            ],
            "name": "pendingSoul",
            "outputs": [
                {
                    "internalType": "uint256",
                    "name": "pendingAmount",
                    "type": "uint256"
                }
            ],
            "stateMutability": "view",
            "type": "function"
        },
        {
            "inputs": [
                {
                    "internalType": "uint256",
                    "name": "",
                    "type": "uint256"
                }
            ],
            "name": "poolInfo",
            "outputs": [
                {
                    "internalType": "contract IERC20",
                    "name": "lpToken",
                    "type": "address"
                },
                {
                    "internalType": "uint256",
                    "name": "allocPoint",
                    "type": "uint256"
                },
                {
                    "internalType": "uint256",
                    "name": "lastRewardTime",
                    "type": "uint256"
                },
                {
                    "internalType": "uint256",
                    "name": "accSoulPerShare",
                    "type": "uint256"
                }
            ],
            "stateMutability": "view",
            "type": "function"
        },
        {
            "inputs": [],
            "name": "poolLength",
            "outputs": [
                {
                    "internalType": "uint256",
                    "name": "",
                    "type": "uint256"
                }
            ],
            "stateMutability": "view",
            "type": "function"
        },
        {
            "inputs": [],
            "name": "renounceOwnership",
            "outputs": [],
            "stateMutability": "nonpayable",
            "type": "function"
        },
        {
            "inputs": [
                {
                    "internalType": "bytes32",
                    "name": "role",
                    "type": "bytes32"
                },
                {
                    "internalType": "address",
                    "name": "account",
                    "type": "address"
                }
            ],
            "name": "renounceRole",
            "outputs": [],
            "stateMutability": "nonpayable",
            "type": "function"
        },
        {
            "inputs": [
                {
                    "internalType": "uint256",
                    "name": "_pid",
                    "type": "uint256"
                },
                {
                    "internalType": "address",
                    "name": "_user",
                    "type": "address"
                },
                {
                    "internalType": "uint256",
                    "name": "_time",
                    "type": "uint256"
                }
            ],
            "name": "reviseDeposit",
            "outputs": [],
            "stateMutability": "nonpayable",
            "type": "function"
        },
        {
            "inputs": [
                {
                    "internalType": "bytes32",
                    "name": "role",
                    "type": "bytes32"
                },
                {
                    "internalType": "address",
                    "name": "account",
                    "type": "address"
                }
            ],
            "name": "revokeRole",
            "outputs": [],
            "stateMutability": "nonpayable",
            "type": "function"
        },
        {
            "inputs": [],
            "name": "seance",
            "outputs": [
                {
                    "internalType": "contract SeanceCircle",
                    "name": "",
                    "type": "address"
                }
            ],
            "stateMutability": "view",
            "type": "function"
        },
        {
            "inputs": [
                {
                    "internalType": "uint256",
                    "name": "pid",
                    "type": "uint256"
                },
                {
                    "internalType": "uint256",
                    "name": "allocPoint",
                    "type": "uint256"
                },
                {
                    "internalType": "bool",
                    "name": "withUpdate",
                    "type": "bool"
                }
            ],
            "name": "set",
            "outputs": [],
            "stateMutability": "nonpayable",
            "type": "function"
        },
        {
            "inputs": [
                {
                    "internalType": "contract IMigrator",
                    "name": "_migrator",
                    "type": "address"
                }
            ],
            "name": "setMigrator",
            "outputs": [],
            "stateMutability": "nonpayable",
            "type": "function"
        },
        {
            "inputs": [],
            "name": "soul",
            "outputs": [
                {
                    "internalType": "contract SoulPower",
                    "name": "",
                    "type": "address"
                }
            ],
            "stateMutability": "view",
            "type": "function"
        },
        {
            "inputs": [],
            "name": "soulPerSecond",
            "outputs": [
                {
                    "internalType": "uint256",
                    "name": "",
                    "type": "uint256"
                }
            ],
            "stateMutability": "view",
            "type": "function"
        },
        {
            "inputs": [],
            "name": "startRate",
            "outputs": [
                {
                    "internalType": "uint256",
                    "name": "",
                    "type": "uint256"
                }
            ],
            "stateMutability": "view",
            "type": "function"
        },
        {
            "inputs": [],
            "name": "startTime",
            "outputs": [
                {
                    "internalType": "uint256",
                    "name": "",
                    "type": "uint256"
                }
            ],
            "stateMutability": "view",
            "type": "function"
        },
        {
            "inputs": [
                {
                    "internalType": "bytes4",
                    "name": "interfaceId",
                    "type": "bytes4"
                }
            ],
            "name": "supportsInterface",
            "outputs": [
                {
                    "internalType": "bool",
                    "name": "",
                    "type": "bool"
                }
            ],
            "stateMutability": "view",
            "type": "function"
        },
        {
            "inputs": [],
            "name": "team",
            "outputs": [
                {
                    "internalType": "address",
                    "name": "",
                    "type": "address"
                }
            ],
            "stateMutability": "view",
            "type": "function"
        },
        {
            "inputs": [
                {
                    "internalType": "uint256",
                    "name": "pid",
                    "type": "uint256"
                },
                {
                    "internalType": "uint256",
                    "name": "lastDepositTime",
                    "type": "uint256"
                }
            ],
            "name": "timeUntilNextDecrease",
            "outputs": [
                {
                    "internalType": "uint256",
                    "name": "untilNextDecay",
                    "type": "uint256"
                }
            ],
            "stateMutability": "view",
            "type": "function"
        },
        {
            "inputs": [],
            "name": "totalAllocPoint",
            "outputs": [
                {
                    "internalType": "uint256",
                    "name": "",
                    "type": "uint256"
                }
            ],
            "stateMutability": "view",
            "type": "function"
        },
        {
            "inputs": [],
            "name": "totalWeight",
            "outputs": [
                {
                    "internalType": "uint256",
                    "name": "",
                    "type": "uint256"
                }
            ],
            "stateMutability": "view",
            "type": "function"
        },
        {
            "inputs": [
                {
                    "internalType": "address",
                    "name": "newOwner",
                    "type": "address"
                }
            ],
            "name": "transferOwnership",
            "outputs": [],
            "stateMutability": "nonpayable",
            "type": "function"
        },
        {
            "inputs": [
                {
                    "internalType": "address",
                    "name": "_dao",
                    "type": "address"
                },
                {
                    "internalType": "address",
                    "name": "_team",
                    "type": "address"
                }
            ],
            "name": "updateAccounts",
            "outputs": [],
            "stateMutability": "nonpayable",
            "type": "function"
        },
        {
            "inputs": [
                {
                    "internalType": "uint256",
                    "name": "_bonusMultiplier",
                    "type": "uint256"
                }
            ],
            "name": "updateMultiplier",
            "outputs": [],
            "stateMutability": "nonpayable",
            "type": "function"
        },
        {
            "inputs": [
                {
                    "internalType": "uint256",
                    "name": "pid",
                    "type": "uint256"
                }
            ],
            "name": "updatePool",
            "outputs": [],
            "stateMutability": "nonpayable",
            "type": "function"
        },
        {
            "inputs": [
                {
                    "internalType": "address",
                    "name": "_soul",
                    "type": "address"
                },
                {
                    "internalType": "address",
                    "name": "_seance",
                    "type": "address"
                }
            ],
            "name": "updateTokens",
            "outputs": [],
            "stateMutability": "nonpayable",
            "type": "function"
        },
        {
            "inputs": [
                {
                    "internalType": "uint256",
                    "name": "_weight",
                    "type": "uint256"
                }
            ],
            "name": "updateWeight",
            "outputs": [],
            "stateMutability": "nonpayable",
            "type": "function"
        },
        {
            "inputs": [
                {
                    "internalType": "uint256",
                    "name": "_pid",
                    "type": "uint256"
                }
            ],
            "name": "userDelta",
            "outputs": [
                {
                    "internalType": "uint256",
                    "name": "",
                    "type": "uint256"
                }
            ],
            "stateMutability": "view",
            "type": "function"
        },
        {
            "inputs": [
                {
                    "internalType": "uint256",
                    "name": "",
                    "type": "uint256"
                },
                {
                    "internalType": "address",
                    "name": "",
                    "type": "address"
                }
            ],
            "name": "userInfo",
            "outputs": [
                {
                    "internalType": "uint256",
                    "name": "amount",
                    "type": "uint256"
                },
                {
                    "internalType": "uint256",
                    "name": "rewardDebt",
                    "type": "uint256"
                },
                {
                    "internalType": "uint256",
                    "name": "rewardDebtAtTime",
                    "type": "uint256"
                },
                {
                    "internalType": "uint256",
                    "name": "lastWithdrawTime",
                    "type": "uint256"
                },
                {
                    "internalType": "uint256",
                    "name": "firstDepositTime",
                    "type": "uint256"
                },
                {
                    "internalType": "uint256",
                    "name": "timeDelta",
                    "type": "uint256"
                },
                {
                    "internalType": "uint256",
                    "name": "lastDepositTime",
                    "type": "uint256"
                }
            ],
            "stateMutability": "view",
            "type": "function"
        },
        {
            "inputs": [],
            "name": "weight",
            "outputs": [
                {
                    "internalType": "uint256",
                    "name": "",
                    "type": "uint256"
                }
            ],
            "stateMutability": "view",
            "type": "function"
        },
        {
            "inputs": [
                {
                    "internalType": "uint256",
                    "name": "pid",
                    "type": "uint256"
                },
                {
                    "internalType": "uint256",
                    "name": "amount",
                    "type": "uint256"
                }
            ],
            "name": "withdraw",
            "outputs": [],
            "stateMutability": "nonpayable",
            "type": "function"
        }
    ],
    "bytecode": "60806040526001600e553480156200001657600080fd5b506200002b6200002562000102565b62000106565b6001805460ff60a01b1916815560025560078054336001600160a01b0319918216811792839055600880549092161790557f36d5d8406f8379c6deba01145ec4f6a2966675cc67d71355b397a2a8e3572b296016557f0811b25c145e1379dc78112dd91057f09150f6db05dfd7e04deb910e6cefd4b7601755620000bd9060009081906001600160a01b031662000158565b50601654600754620000db919081906001600160a01b031662000158565b50601754601654600854620000fb9291906001600160a01b031662000158565b50620002a9565b3390565b600180546001600160a01b038381166001600160a01b0319831681179093556040519116919082907f8be0079c531659141344cd1fd0a4f28419497f9722a3daafe3b4186f6b6457e090600090a35050565b60006200016684836200017c565b6200017284846200018c565b5060019392505050565b620001888282620001e1565b5050565b600062000199836200026b565b600084815260208190526040808220600101859055519192508391839186917fbd79b86ffe0ab8e8776151514217cd7cacd52c909f66475c3af44e129f0b00ff9190a4505050565b620001ed828262000280565b62000188576000828152602081815260408083206001600160a01b03851684529091529020805460ff191660011790556200022762000102565b6001600160a01b0316816001600160a01b0316837f2f8788117e7eff1d82e926ec794901d17c78024a50270940304540a733656f0d60405160405180910390a45050565b60009081526020819052604090206001015490565b6000918252602082815260408084206001600160a01b0393909316845291905290205460ff1690565b6135b480620002b96000396000f3fe608060405234801561001057600080fd5b50600436106103785760003560e01c80637d500ec8116101d3578063bfafcad511610104578063e7aa29e3116100a2578063edbf4ac21161007c578063edbf4ac2146106d5578063f2fde38b146106e8578063fc90fdc0146106fb578063fd6f99d01461070357610378565b8063e7aa29e3146106a7578063ea4bf446146106ba578063ec3df6ad146106c257610378565b8063dbaef9b0116100de578063dbaef9b01461065b578063e13e8ec21461066e578063e2bbb15814610681578063e65d15221461069457610378565b8063bfafcad514610622578063cf94ee9614610635578063d547741f1461064857610378565b806391d14854116101715780639f6c54261161014b5780639f6c5426146105f7578063a1aab33f1461060a578063a217fddf14610612578063a8b973a11461061a57610378565b806391d14854146105b657806393f1a40b146105c957806396c82e57146105ef57610378565b806382386d58116101ad57806382386d581461058057806385f2aef2146105935780638da5cb5b1461059b5780638dbb1e3a146105a357610378565b80637d500ec81461054f5780637e668b4214610557578063815b7a8c1461057857610378565b80634162169f116102ad5780635ffe61461161024b578063715018a611610225578063715018a61461052457806378e979251461052c5780637abceffd146105345780637cd07e471461054757610378565b80635ffe6146146104f6578063630b5ba11461050957806364482f791461051157610378565b80634ca01d45116102875780634ca01d45146104cb57806351eb05a6146104d35780635c975abb146104e65780635f9bf689146104ee57610378565b80634162169f14610490578063441a3e70146104a5578063454b0608146104b857610378565b806317caf6f11161031a5780632f2ff15d116102f45780632f2ff15d1461044f57806336568abe14610462578063392e53cd1461047557806341441d3b1461047d57610378565b806317caf6f11461042157806323cf311814610429578063248a9ca31461043c57610378565b806309ae4d2c1161035657806309ae4d2c146103ce5780631058d281146103e15780631254f0dc146103f65780631526fe27146103fe57610378565b806301ffc9a71461037d578063037729c4146103a6578063081e3eda146103c6575b600080fd5b61039061038b366004612d48565b61070b565b60405161039d9190612faf565b60405180910390f35b6103b96103b4366004612e1c565b610738565b60405161039d9190612fba565b6103b9610795565b6103b96103dc366004612d0c565b61079b565b6103f46103ef366004612d0c565b6107ec565b005b6103b9610a68565b61041161040c366004612d0c565b610a6e565b60405161039d9493929190612fc3565b6103b9610ab2565b6103f4610437366004612c3b565b610ab8565b6103b961044a366004612d0c565b610b11565b6103f461045d366004612d24565b610b26565b6103f4610470366004612d24565b610b4a565b610390610b90565b6103f461048b366004612d0c565b610b99565b610498610e12565b60405161039d9190612f0a565b6103f46104b3366004612e1c565b610e21565b6103f46104c6366004612d0c565b611153565b61049861143d565b6103f46104e1366004612d0c565b61144c565b610390611747565b6103b9611757565b6103f4610504366004612d0c565b61175d565b6103f4611772565b6103f461051f366004612e3d565b611799565b6103f46118d5565b6103b9611920565b6103f4610542366004612ddb565b611926565b610498611971565b6103b9611980565b61056a610565366004612e6a565b611986565b60405161039d929190613417565b6104986119cf565b6103f461058e366004612da4565b6119de565b610498611a5a565b610498611a69565b6103b96105b1366004612e1c565b611a78565b6103906105c4366004612d24565b611a99565b6105dc6105d7366004612d24565b611ac2565b60405161039d9796959493929190613449565b6103b9611b11565b6103b9610605366004612e1c565b611b17565b6103b9611b8a565b6103b9611b90565b6103b9611b95565b6103b9610630366004612d24565b611b9b565b6103b9610643366004612d0c565b611d2c565b6103f4610656366004612d24565b611d40565b610390610669366004612d0c565b611d5f565b6103f461067c366004612c57565b611d6b565b6103f461068f366004612e1c565b611e33565b6103b96106a2366004612d0c565b61208f565b6103f46106b5366004612c57565b6120a3565b6103b961215b565b6103f46106d0366004612d0c565b612161565b6103f46106e3366004612c8f565b612272565b6103f46106f6366004612c3b565b6124cd565b6103b961253e565b6103b9612544565b60006001600160e01b03198216637965db0b60e01b148061073057506107308261254a565b90505b919050565b6000806000831161074a576000610754565b61075483426134d0565b9050600081156107705761076b6201518083613491565b610773565b60005b905061078281620151806134b1565b61078c90836134d0565b95945050505050565b60145490565b600081815260156020908152604080832033845290915281206003810154156107da5760008160030154436107d091906134d0565b9250610733915050565b60008160040154436107d091906134d0565b6002805414156108175760405162461bcd60e51b815260040161080e90613304565b60405180910390fd5b600280819055506000601460008154811061084257634e487b7160e01b600052603260045260246000fd5b600091825260208083203384527fa31547ce6245cdb9ecea19cf8c7eb9f5974025bb4075011409251ae855b30aed90915260409092208054600490920290920192508311156108a35760405162461bcd60e51b815260040161080e90613284565b6108ad600061144c565b6000816001015464e8d4a51000846003015484600001546108ce91906134b1565b6108d89190613491565b6108e291906134d0565b905080156108f4576108f43382612563565b831561098e5781546109079085906134d0565b8255825460405163a9059cbb60e01b81526001600160a01b039091169063a9059cbb9061093a9033908890600401612f96565b602060405180830381600087803b15801561095457600080fd5b505af1158015610968573d6000803e3d6000fd5b505050506040513d601f19601f8201168201806040525081019061098c9190612cf0565b505b6003830154825464e8d4a51000916109a5916134b1565b6109af9190613491565b6001830155600654604051632770a7eb60e21b81526001600160a01b0390911690639dc29fac906109e69033908890600401612f96565b600060405180830381600087803b158015610a0057600080fd5b505af1158015610a14573d6000803e3d6000fd5b505050506000336001600160a01b03167f02f25270a4d87bea75db541cdfe559334a275b4a233520ed6c0a2429667cca948642604051610a55929190613417565b60405180910390a3505060016002555050565b60135481565b60148181548110610a7e57600080fd5b600091825260209091206004909102018054600182015460028301546003909301546001600160a01b039092169350919084565b60105481565b60115460ff16610ada5760405162461bcd60e51b815260040161080e906133c1565b601654610aee81610ae96125cb565b6125cf565b50600980546001600160a01b0319166001600160a01b0392909216919091179055565b60009081526020819052604090206001015490565b610b2f82610b11565b610b3b81610ae96125cb565b610b458383612633565b505050565b610b526125cb565b6001600160a01b0316816001600160a01b031614610b825760405162461bcd60e51b815260040161080e9061333b565b610b8c82826126b8565b5050565b60115460ff1681565b600280541415610bbb5760405162461bcd60e51b815260040161080e90613304565b60028055610bc7611747565b15610be45760405162461bcd60e51b815260040161080e90613097565b60006014600081548110610c0857634e487b7160e01b600052603260045260246000fd5b600091825260208083203384527fa31547ce6245cdb9ecea19cf8c7eb9f5974025bb4075011409251ae855b30aed90915260408320600490920201925090610c4f9061144c565b805415610c9f576000816001015464e8d4a5100084600301548460000154610c7791906134b1565b610c819190613491565b610c8b91906134d0565b90508015610c9d57610c9d3382612563565b505b8215610d3b5781546040516323b872dd60e01b81526001600160a01b03909116906323b872dd90610cd890339030908890600401612f72565b602060405180830381600087803b158015610cf257600080fd5b505af1158015610d06573d6000803e3d6000fd5b505050506040513d601f19601f82011682018060405250810190610d2a9190612cf0565b508054610d38908490613479565b81555b6003820154815464e8d4a5100091610d52916134b1565b610d5c9190613491565b60018201556006546040516340c10f1960e01b81526001600160a01b03909116906340c10f1990610d939033908790600401612f96565b600060405180830381600087803b158015610dad57600080fd5b505af1158015610dc1573d6000803e3d6000fd5b505050506000336001600160a01b03167f90890809c654f11d6e72a28fa60149770a0d11ec6c92319d6ceb2bb0a4ea1a1585604051610e009190612fba565b60405180910390a35050600160025550565b6008546001600160a01b031681565b600280541415610e435760405162461bcd60e51b815260040161080e90613304565b6002805560145482908110610e6a5760405162461bcd60e51b815260040161080e90613220565b82610e875760405162461bcd60e51b815260040161080e90613117565b600060148481548110610eaa57634e487b7160e01b600052603260045260246000fd5b600091825260208083208784526015825260408085203386529092529220805460049092029092019250841115610ef35760405162461bcd60e51b815260040161080e906132b0565b610efc8561144c565b6000816001015464e8d4a5100084600301548460000154610f1d91906134b1565b610f279190613491565b610f3191906134d0565b90508015610f4357610f433382612563565b8415610f9157600682015415610f6c576006820154610f6290426134d0565b6005830155610f81565b6004820154610f7b90426134d0565b60058301555b8154610f8e9086906134d0565b82555b600086815260156020908152604080832033845290915281206005015490610fba888389611986565b915060009050610fca82896134d0565b865460085460405163a9059cbb60e01b81529293506001600160a01b039182169263a9059cbb926110019216908590600401612f96565b602060405180830381600087803b15801561101b57600080fd5b505af115801561102f573d6000803e3d6000fd5b505050506040513d601f19601f820116820180604052508101906110539190612cf0565b50855460405163a9059cbb60e01b81526001600160a01b039091169063a9059cbb906110859033908690600401612f96565b602060405180830381600087803b15801561109f57600080fd5b505af11580156110b3573d6000803e3d6000fd5b505050506040513d601f19601f820116820180604052508101906110d79190612cf0565b506003860154855464e8d4a51000916110ef916134b1565b6110f99190613491565b600186015542600386018190556040518a9133917f02f25270a4d87bea75db541cdfe559334a275b4a233520ed6c0a2429667cca949161113b918d9190613417565b60405180910390a35050600160025550505050505050565b60115460ff166111755760405162461bcd60e51b815260040161080e906133c1565b601454819081106111985760405162461bcd60e51b815260040161080e90613220565b6009546001600160a01b03166111c05760405162461bcd60e51b815260040161080e906130ee565b6000601483815481106111e357634e487b7160e01b600052603260045260246000fd5b60009182526020822060049182020180546040516370a0823160e01b81529194506001600160a01b0316929183916370a082319161122391309101612f0a565b60206040518083038186803b15801561123b57600080fd5b505afa15801561124f573d6000803e3d6000fd5b505050506040513d601f19601f820116820180604052508101906112739190612d8c565b60095460405163095ea7b360e01b81529192506001600160a01b038085169263095ea7b3926112a89216908590600401612f96565b602060405180830381600087803b1580156112c257600080fd5b505af11580156112d6573d6000803e3d6000fd5b505050506040513d601f19601f820116820180604052508101906112fa9190612cf0565b5060095460405163ce5494bb60e01b81526000916001600160a01b03169063ce5494bb9061132c908690600401612f0a565b602060405180830381600087803b15801561134657600080fd5b505af115801561135a573d6000803e3d6000fd5b505050506040513d601f19601f8201168201806040525081019061137e9190612d70565b6040516370a0823160e01b81529091506001600160a01b038216906370a08231906113ad903090600401612f0a565b60206040518083038186803b1580156113c557600080fd5b505afa1580156113d9573d6000803e3d6000fd5b505050506040513d601f19601f820116820180604052508101906113fd9190612d8c565b821461141b5760405162461bcd60e51b815260040161080e9061338a565b83546001600160a01b0319166001600160a01b03919091161790925550505050565b6006546001600160a01b031681565b6014548190811061146f5760405162461bcd60e51b815260040161080e90613220565b60006014838154811061149257634e487b7160e01b600052603260045260246000fd5b90600052602060002090600402019050806002015442116114b35750610b8c565b80546040516370a0823160e01b81526000916001600160a01b0316906370a08231906114e3903090600401612f0a565b60206040518083038186803b1580156114fb57600080fd5b505afa15801561150f573d6000803e3d6000fd5b505050506040513d601f19601f820116820180604052508101906115339190612d8c565b905080611547575042600290910155610b8c565b6000611557836002015442611a78565b905060006010548460010154600d548461157191906134b1565b61157b91906134b1565b6115859190613491565b90506000650746a528800061159f8364e8d4a510006134b1565b6115a99190613491565b905060006115b88260026134b1565b905060006115c682856134d0565b600480546007546040516340c10f1960e01b81529394506001600160a01b03918216936340c10f19936115ff9390921691889101612f96565b600060405180830381600087803b15801561161957600080fd5b505af115801561162d573d6000803e3d6000fd5b5050600480546008546040516340c10f1960e01b81526001600160a01b0392831695506340c10f199450611668939190921691889101612f96565b600060405180830381600087803b15801561168257600080fd5b505af1158015611696573d6000803e3d6000fd5b5050600480546006546040516340c10f1960e01b81526001600160a01b0392831695506340c10f1994506116d1939190921691869101612f96565b600060405180830381600087803b1580156116eb57600080fd5b505af11580156116ff573d6000803e3d6000fd5b50505050858464e8d4a5100061171591906134b1565b61171f9190613491565b876003015461172e9190613479565b6003880155505042600290950194909455505050505050565b600154600160a01b900460ff1690565b600d5481565b60175461176c81610ae96125cb565b50600e55565b60145460005b81811015610b8c576117898161144c565b6117928161352a565b9050611778565b60115460ff166117bb5760405162461bcd60e51b815260040161080e906133c1565b601454839081106117de5760405162461bcd60e51b815260040161080e90613220565b6017546117ed81610ae96125cb565b82156117fb576117fb611772565b60006014868154811061181e57634e487b7160e01b600052603260045260246000fd5b9060005260206000209060040201600101549050846014878154811061185457634e487b7160e01b600052603260045260246000fd5b90600052602060002090600402016001018190555084811461189457848160105461187f91906134d0565b6118899190613479565b60105561189461273b565b7fd88f859573973e938da5bf3e5100c16eee2090fa720e05ae3d452b4cd05cdcfd86866040516118c5929190613417565b60405180910390a1505050505050565b6118dd6125cb565b6001600160a01b03166118ee611a69565b6001600160a01b0316146119145760405162461bcd60e51b815260040161080e90613185565b61191e600061283d565b565b600f5481565b60115460ff166119485760405162461bcd60e51b815260040161080e906133c1565b60165461195781610ae96125cb565b6119608361288f565b61196b848484612910565b50505050565b6009546001600160a01b031681565b600c5481565b60008060006119986106a28787611b17565b9050600060646119a883876134b1565b6119b29190613491565b905060006119c082876134d0565b91989197509095505050505050565b6004546001600160a01b031681565b6017546119ed81610ae96125cb565b60008481526015602090815260408083206001600160a01b0387168452909152908190206004810184905590517f40d6e8e3d60e4693375c73df2d1a71d582a28197c98fd8d2badad6ead06af64c90611a4b908790879087906133f8565b60405180910390a15050505050565b6007546001600160a01b031681565b6001546001600160a01b031690565b600e54600090611a8884846134d0565b611a9291906134b1565b9392505050565b6000918252602082815260408084206001600160a01b0393909316845291905290205460ff1690565b6015602052816000526040600020602052806000526040600020600091509150508060000154908060010154908060020154908060030154908060040154908060050154908060060154905087565b600a5481565b600080620151808310611b3657611b316201518084613491565b611b39565b60005b9050600060125482611b4b91906134b1565b90506000601354821015611b6c5781601354611b6791906134d0565b611b6f565b60005b90508515611b7d5780611b80565b60005b9695505050505050565b600b5481565b600081565b600e5481565b60008060148481548110611bbf57634e487b7160e01b600052603260045260246000fd5b600091825260208083208784526015825260408085206001600160a01b038981168752935280852060049485029092016003810154815492516370a0823160e01b815291975092959294929391909116916370a0823191611c2291309101612f0a565b60206040518083038186803b158015611c3a57600080fd5b505afa158015611c4e573d6000803e3d6000fd5b505050506040513d601f19601f82011682018060405250810190611c729190612d8c565b9050836002015442118015611c8657508015155b15611cf4576000611c9b856002015442611a78565b905060006010548660010154600d5484611cb591906134b1565b611cbf91906134b1565b611cc99190613491565b905082611cdb8264e8d4a510006134b1565b611ce59190613491565b611cef9085613479565b935050505b6001830154835464e8d4a5100090611d0d9085906134b1565b611d179190613491565b611d2191906134d0565b979650505050505050565b600061073082670de0b6b3a76400006134b1565b611d4982610b11565b611d5581610ae96125cb565b610b4583836126b8565b60006107308233611a99565b601654611d7a81610ae96125cb565b6008546001600160a01b038481169116141580611da557506007546001600160a01b03838116911614155b611dc15760405162461bcd60e51b815260040161080e906131f1565b600880546001600160a01b038086166001600160a01b0319928316179283905560078054868316931692909217918290556040517fd1c04282701cbf58aa2f0026f6876051cf3feb8ee7b8b5b5532ebb4ab03fb5d493611e2693908316921690612f1e565b60405180910390a1505050565b600280541415611e555760405162461bcd60e51b815260040161080e90613304565b6002805560145482908110611e7c5760405162461bcd60e51b815260040161080e90613220565b611e84611747565b15611ea15760405162461bcd60e51b815260040161080e90613097565b82611ebe5760405162461bcd60e51b815260040161080e9061314e565b600060148481548110611ee157634e487b7160e01b600052603260045260246000fd5b60009182526020808320878452601582526040808520338652909252922060049091029091019150611f128561144c565b805415611f62576000816001015464e8d4a5100084600301548460000154611f3a91906134b1565b611f449190613491565b611f4e91906134d0565b90508015611f6057611f603382612563565b505b8315611ffe5781546040516323b872dd60e01b81526001600160a01b03909116906323b872dd90611f9b90339030908990600401612f72565b602060405180830381600087803b158015611fb557600080fd5b505af1158015611fc9573d6000803e3d6000fd5b505050506040513d601f19601f82011682018060405250810190611fed9190612cf0565b508054611ffb908590613479565b81555b6003820154815464e8d4a5100091612015916134b1565b61201f9190613491565b6001820155600481015461203a574281600401819055612040565b60048101545b5084336001600160a01b03167f90890809c654f11d6e72a28fa60149770a0d11ec6c92319d6ceb2bb0a4ea1a158660405161207b9190612fba565b60405180910390a350506001600255505050565b6000610730670de0b6b3a764000083613491565b6016546120b281610ae96125cb565b6004546001600160a01b0384811691161415806120dd57506006546001600160a01b03838116911614155b6120f95760405162461bcd60e51b815260040161080e906131ba565b600480546001600160a01b038086166001600160a01b03199283161790925560068054928516929091169190911790556040517fdcc6331013de89f8c595d5328f0a724194f113cb6f8f2a707b3dff6de13f0d1790611e269085908590612f1e565b60165481565b60115460ff166121835760405162461bcd60e51b815260040161080e906133c1565b60175461219281610ae96125cb565b81600b5414156121b45760405162461bcd60e51b815260040161080e9061324d565b81600b5410156121e9576000600b54836121ce91906134d0565b905080600a60008282546121e29190613479565b9091555050505b81600b54111561221e57600082600b5461220391906134d0565b905080600a600082825461221791906134d0565b9091555050505b600b829055600a54612231908390612a1d565b7fb298bc23e07860d501fddce288f46d761aa04a0c7c3316099eb50f097aacf304600b54600a54604051612266929190613417565b60405180910390a15050565b60165461228181610ae96125cb565b60115460ff16156122a45760405162461bcd60e51b815260040161080e906130c1565b600380546001600160a01b03808b166001600160a01b03199283161790925560058054928a169290911691909117905542600f556122e28587613479565b600a55600b8590556122f383611d2c565b6013556122ff82611d2c565b601255600354600480546001600160a01b039283166001600160a01b03199182161790915560055460068054919093169116179055600b54600a54859161234591612a1d565b60408051608081018252600480546001600160a01b03908116835260208301858152600f54948401948552600060608501818152601480546001808201835591845296517fce6d7b5282bd9a3661ae061feed1dbda4e52ab073b1f9285be6e155d9c38d4ec9790960296870180546001600160a01b031916969095169590951790935590517fce6d7b5282bd9a3661ae061feed1dbda4e52ab073b1f9285be6e155d9c38d4ed85015593517fce6d7b5282bd9a3661ae061feed1dbda4e52ab073b1f9285be6e155d9c38d4ee840155517fce6d7b5282bd9a3661ae061feed1dbda4e52ab073b1f9285be6e155d9c38d4ef909201919091556011805460ff191690911790556010805483929061245c908490613479565b9091555050600754600854600354600554601054600b546040517f0476c5e4920930815a67a5a042e26836431f494d3be0f6e10c3034787a7a15f9966124ba966001600160a01b039182169690821695908216949116929091612f38565b60405180910390a1505050505050505050565b6124d56125cb565b6001600160a01b03166124e6611a69565b6001600160a01b03161461250c5760405162461bcd60e51b815260040161080e90613185565b6001600160a01b0381166125325760405162461bcd60e51b815260040161080e90613051565b61253b8161283d565b50565b60125481565b60175481565b6001600160e01b031981166301ffc9a760e01b14919050565b600654604051635950a15560e11b81526001600160a01b039091169063b2a142aa906125959085908590600401612f96565b600060405180830381600087803b1580156125af57600080fd5b505af11580156125c3573d6000803e3d6000fd5b505050505050565b3390565b6125d98282611a99565b610b8c576125f1816001600160a01b03166014612a89565b6125fc836020612a89565b60405160200161260d929190612e95565b60408051601f198184030181529082905262461bcd60e51b825261080e91600401612fe9565b61263d8282611a99565b610b8c576000828152602081815260408083206001600160a01b03851684529091529020805460ff191660011790556126746125cb565b6001600160a01b0316816001600160a01b0316837f2f8788117e7eff1d82e926ec794901d17c78024a50270940304540a733656f0d60405160405180910390a45050565b6126c28282611a99565b15610b8c576000828152602081815260408083206001600160a01b03851684529091529020805460ff191690556126f76125cb565b6001600160a01b0316816001600160a01b0316837ff6391f5c32d9c69d2a47ea670b442974b53935d1edc7fd64eb21e047a839171b60405160405180910390a45050565b601454600060015b8281101561279b576014818154811061276c57634e487b7160e01b600052603260045260246000fd5b906000526020600020906004020160010154826127899190613479565b91506127948161352a565b9050612743565b508015610b8c576127ad600382613491565b90508060146000815481106127d257634e487b7160e01b600052603260045260246000fd5b9060005260206000209060040201600101546010546127f191906134d0565b6127fb9190613479565b60108190555080601460008154811061282457634e487b7160e01b600052603260045260246000fd5b9060005260206000209060040201600101819055505050565b600180546001600160a01b038381166001600160a01b0319831681179093556040519116919082907f8be0079c531659141344cd1fd0a4f28419497f9722a3daafe3b4186f6b6457e090600090a35050565b60145460005b81811015610b4557826001600160a01b0316601482815481106128c857634e487b7160e01b600052603260045260246000fd5b60009182526020909120600490910201546001600160a01b031614156129005760405162461bcd60e51b815260040161080e906132db565b6129098161352a565b9050612895565b801561291e5761291e611772565b82601060008282546129309190613479565b9250508190555060146040518060800160405280846001600160a01b03168152602001858152602001600f54421161296a57600f5461296c565b425b81526000602091820181905283546001808201865594825290829020835160049092020180546001600160a01b0319166001600160a01b03909216919091178155908201519281019290925560408101516002830155606001516003909101556129d461273b565b6014546010546040517f20b669aa921947a6d9602a921d2db3b6b30f21b9aca98580fa3972530330b27a91612a0f9184918891889190613425565b60405180910390a150505050565b6000612a298284613491565b9050612a3f816934f086f3b33b684000006134b1565b600c819055612a52906201518090613491565b600d819055600c546040517fcd7c861d63893659123f817b192b8621ff1923a7c4589c260173cedcf9e986a692611e269291613417565b60606000612a988360026134b1565b612aa3906002613479565b67ffffffffffffffff811115612ac957634e487b7160e01b600052604160045260246000fd5b6040519080825280601f01601f191660200182016040528015612af3576020820181803683370190505b509050600360fc1b81600081518110612b1c57634e487b7160e01b600052603260045260246000fd5b60200101906001600160f81b031916908160001a905350600f60fb1b81600181518110612b5957634e487b7160e01b600052603260045260246000fd5b60200101906001600160f81b031916908160001a9053506000612b7d8460026134b1565b612b88906001613479565b90505b6001811115612c1c576f181899199a1a9b1b9c1cb0b131b232b360811b85600f1660108110612bca57634e487b7160e01b600052603260045260246000fd5b1a60f81b828281518110612bee57634e487b7160e01b600052603260045260246000fd5b60200101906001600160f81b031916908160001a90535060049490941c93612c1581613513565b9050612b8b565b508315611a925760405162461bcd60e51b815260040161080e9061301c565b600060208284031215612c4c578081fd5b8135611a928161355b565b60008060408385031215612c69578081fd5b8235612c748161355b565b91506020830135612c848161355b565b809150509250929050565b600080600080600080600060e0888a031215612ca9578283fd5b8735612cb48161355b565b96506020880135612cc48161355b565b96999698505050506040850135946060810135946080820135945060a0820135935060c0909101359150565b600060208284031215612d01578081fd5b8151611a9281613570565b600060208284031215612d1d578081fd5b5035919050565b60008060408385031215612d36578182fd5b823591506020830135612c848161355b565b600060208284031215612d59578081fd5b81356001600160e01b031981168114611a92578182fd5b600060208284031215612d81578081fd5b8151611a928161355b565b600060208284031215612d9d578081fd5b5051919050565b600080600060608486031215612db8578283fd5b833592506020840135612dca8161355b565b929592945050506040919091013590565b600080600060608486031215612def578283fd5b833592506020840135612e018161355b565b91506040840135612e1181613570565b809150509250925092565b60008060408385031215612e2e578182fd5b50508035926020909101359150565b600080600060608486031215612e51578081fd5b83359250602084013591506040840135612e1181613570565b600080600060608486031215612e7e578081fd5b505081359360208301359350604090920135919050565b60007f416363657373436f6e74726f6c3a206163636f756e742000000000000000000082528351612ecd8160178501602088016134e7565b7001034b99036b4b9b9b4b733903937b6329607d1b6017918401918201528351612efe8160288401602088016134e7565b01602801949350505050565b6001600160a01b0391909116815260200190565b6001600160a01b0392831681529116602082015260400190565b6001600160a01b0396871681529486166020860152928516604085015293166060830152608082019290925260a081019190915260c00190565b6001600160a01b039384168152919092166020820152604081019190915260600190565b6001600160a01b03929092168252602082015260400190565b901515815260200190565b90815260200190565b6001600160a01b0394909416845260208401929092526040830152606082015260800190565b60006020825282518060208401526130088160408501602087016134e7565b601f01601f19169190910160400192915050565b6020808252818101527f537472696e67733a20686578206c656e67746820696e73756666696369656e74604082015260600190565b60208082526026908201527f4f776e61626c653a206e6577206f776e657220697320746865207a65726f206160408201526564647265737360d01b606082015260800190565b60208082526010908201526f14185d5cd8589b194e881c185d5cd95960821b604082015260600190565b602080825260139082015272185b1c9958591e481a5b9a5d1a585b1a5e9959606a1b604082015260600190565b6020808252600f908201526e1b9bc81b5a59dc985d1bdc881cd95d608a1b604082015260600190565b6020808252601a908201527f776974686472617720534f554c20627920756e7374616b696e67000000000000604082015260600190565b60208082526017908201527f6465706f73697420534f554c206279207374616b696e67000000000000000000604082015260600190565b6020808252818101527f4f776e61626c653a2063616c6c6572206973206e6f7420746865206f776e6572604082015260600190565b6020808252601b908201527f6d7573742062652061206e657720746f6b656e20616464726573730000000000604082015260600190565b6020808252601590820152741b5d5cdd0818994818481b995dc81858d8dbdd5b9d605a1b604082015260600190565b6020808252601390820152721c1bdbdb08191bd95cc81b9bdd08195e1a5cdd606a1b604082015260600190565b60208082526018908201527f6d757374206265206e6577207765696768742076616c75650000000000000000604082015260600190565b6020808252601290820152711dda5d1a191c985dce881b9bdd0819dbdbd960721b604082015260600190565b6020808252601190820152701dda5d1a191c985dc81b9bdd0819dbdbd9607a1b604082015260600190565b6020808252600f908201526e191d5c1b1a58d85d1959081c1bdbdb608a1b604082015260600190565b6020808252601f908201527f5265656e7472616e637947756172643a207265656e7472616e742063616c6c00604082015260600190565b6020808252602f908201527f416363657373436f6e74726f6c3a2063616e206f6e6c792072656e6f756e636560408201526e103937b632b9903337b91039b2b63360891b606082015260800190565b6020808252601d908201527f6d6967726174653a20696e73756666696369656e742062616c616e6365000000604082015260600190565b6020808252601a908201527f726577617264732068617665206e6f742079657420626567756e000000000000604082015260600190565b9283526001600160a01b03919091166020830152604082015260600190565b918252602082015260400190565b93845260208401929092526001600160a01b03166040830152606082015260800190565b968752602087019590955260408601939093526060850191909152608084015260a083015260c082015260e00190565b6000821982111561348c5761348c613545565b500190565b6000826134ac57634e487b7160e01b81526012600452602481fd5b500490565b60008160001904831182151516156134cb576134cb613545565b500290565b6000828210156134e2576134e2613545565b500390565b60005b838110156135025781810151838201526020016134ea565b8381111561196b5750506000910152565b60008161352257613522613545565b506000190190565b600060001982141561353e5761353e613545565b5060010190565b634e487b7160e01b600052601160045260246000fd5b6001600160a01b038116811461253b57600080fd5b801515811461253b57600080fdfea264697066735822122068def1acf362290544670e9f5a3bbe9dd597a3762ea1b8ecc779719e8a4ac32864736f6c63430008000033",
    "sourcePath": "/Users/unico/Documents/GitHub/SoulSwap/soulswap-farms/contracts/SoulSummoner.sol",
    "compiler": {
        "name": "solc",
        "version": "0.8.0+commit.c7dfd78e"
    },
    "functionHashes": {
        "DEFAULT_ADMIN_ROLE()": "a217fddf",
        "addPool(uint256,address,bool)": "7abceffd",
        "bonusMultiplier()": "a8b973a1",
        "dailyDecay()": "fc90fdc0",
        "dailySoul()": "7d500ec8",
        "dao()": "4162169f",
        "deposit(uint256,uint256)": "e2bbb158",
        "enWei(uint256)": "cf94ee96",
        "enterStaking(uint256)": "41441d3b",
        "fromWei(uint256)": "e65d1522",
        "getFeeRate(uint256,uint256)": "9f6c5426",
        "getMultiplier(uint256,uint256)": "8dbb1e3a",
        "getRoleAdmin(bytes32)": "248a9ca3",
        "getWithdrawable(uint256,uint256,uint256)": "7e668b42",
        "grantRole(bytes32,address)": "2f2ff15d",
        "hasDivineRole(bytes32)": "dbaef9b0",
        "hasRole(bytes32,address)": "91d14854",
        "initialize(address,address,uint256,uint256,uint256,uint256,uint256)": "edbf4ac2",
        "isInitialized()": "392e53cd",
        "isis()": "ea4bf446",
        "leaveStaking(uint256)": "1058d281",
        "maat()": "fd6f99d0",
        "massUpdatePools()": "630b5ba1",
        "migrate(uint256)": "454b0608",
        "migrator()": "7cd07e47",
        "owner()": "8da5cb5b",
        "paused()": "5c975abb",
        "pendingSoul(uint256,address)": "bfafcad5",
        "poolInfo(uint256)": "1526fe27",
        "poolLength()": "081e3eda",
        "renounceOwnership()": "715018a6",
        "renounceRole(bytes32,address)": "36568abe",
        "reviseDeposit(uint256,address,uint256)": "82386d58",
        "revokeRole(bytes32,address)": "d547741f",
        "seance()": "4ca01d45",
        "set(uint256,uint256,bool)": "64482f79",
        "setMigrator(address)": "23cf3118",
        "soul()": "815b7a8c",
        "soulPerSecond()": "5f9bf689",
        "startRate()": "1254f0dc",
        "startTime()": "78e97925",
        "supportsInterface(bytes4)": "01ffc9a7",
        "team()": "85f2aef2",
        "timeUntilNextDecrease(uint256,uint256)": "037729c4",
        "totalAllocPoint()": "17caf6f1",
        "totalWeight()": "96c82e57",
        "transferOwnership(address)": "f2fde38b",
        "updateAccounts(address,address)": "e13e8ec2",
        "updateMultiplier(uint256)": "5ffe6146",
        "updatePool(uint256)": "51eb05a6",
        "updateTokens(address,address)": "e7aa29e3",
        "updateWeight(uint256)": "ec3df6ad",
        "userDelta(uint256)": "09ae4d2c",
        "userInfo(uint256,address)": "93f1a40b",
        "weight()": "a1aab33f",
        "withdraw(uint256,uint256)": "441a3e70"
    },
    "gasEstimates": {
        "creation": {
            "codeDepositCost": "2749600",
            "executionCost": "infinite",
            "totalCost": "infinite"
        },
        "external": {
            "DEFAULT_ADMIN_ROLE()": "339",
            "addPool(uint256,address,bool)": "infinite",
            "bonusMultiplier()": "1161",
            "dailyDecay()": "1138",
            "dailySoul()": "1097",
            "dao()": "1139",
            "deposit(uint256,uint256)": "infinite",
            "enWei(uint256)": "498",
            "enterStaking(uint256)": "infinite",
            "fromWei(uint256)": "509",
            "getFeeRate(uint256,uint256)": "3170",
            "getMultiplier(uint256,uint256)": "1436",
            "getRoleAdmin(bytes32)": "1293",
            "getWithdrawable(uint256,uint256,uint256)": "infinite",
            "grantRole(bytes32,address)": "infinite",
            "hasDivineRole(bytes32)": "1389",
            "hasRole(bytes32,address)": "1450",
            "initialize(address,address,uint256,uint256,uint256,uint256,uint256)": "infinite",
            "isInitialized()": "1152",
            "isis()": "1117",
            "leaveStaking(uint256)": "infinite",
            "maat()": "1160",
            "massUpdatePools()": "infinite",
            "migrate(uint256)": "infinite",
            "migrator()": "1203",
            "owner()": "1182",
            "paused()": "1169",
            "pendingSoul(uint256,address)": "infinite",
            "poolInfo(uint256)": "4695",
            "poolLength()": "1142",
            "renounceOwnership()": "23574",
            "renounceRole(bytes32,address)": "infinite",
            "reviseDeposit(uint256,address,uint256)": "infinite",
            "revokeRole(bytes32,address)": "infinite",
            "seance()": "1138",
            "set(uint256,uint256,bool)": "infinite",
            "setMigrator(address)": "infinite",
            "soul()": "1183",
            "soulPerSecond()": "1162",
            "startRate()": "1141",
            "startTime()": "1117",
            "supportsInterface(bytes4)": "566",
            "team()": "1160",
            "timeUntilNextDecrease(uint256,uint256)": "669",
            "totalAllocPoint()": "1097",
            "totalWeight()": "1140",
            "transferOwnership(address)": "infinite",
            "updateAccounts(address,address)": "infinite",
            "updateMultiplier(uint256)": "infinite",
            "updatePool(uint256)": "infinite",
            "updateTokens(address,address)": "infinite",
            "updateWeight(uint256)": "infinite",
            "userDelta(uint256)": "2247",
            "userInfo(uint256,address)": "6463",
            "weight()": "1117",
            "withdraw(uint256,uint256)": "infinite"
        },
        "internal": {
            "_addPool(uint256,contract IERC20,bool)": "infinite",
            "_divinationCeremony(bytes32,bytes32,address)": "infinite",
            "checkPoolDuplicate(contract IERC20)": "infinite",
            "safeSoulTransfer(address,uint256)": "infinite",
            "updateRewards(uint256,uint256)": "infinite",
            "updateStakingPool()": "infinite"
        }
    }
}