{
    "contractName": "SoulPower",
    "abi": [
        {
            "anonymous": false,
            "inputs": [
                {
                    "indexed": true,
                    "internalType": "address",
                    "name": "owner",
                    "type": "address"
                },
                {
                    "indexed": true,
                    "internalType": "address",
                    "name": "spender",
                    "type": "address"
                },
                {
                    "indexed": false,
                    "internalType": "uint256",
                    "name": "value",
                    "type": "uint256"
                }
            ],
            "name": "Approval",
            "type": "event"
        },
        {
            "anonymous": false,
            "inputs": [
                {
                    "indexed": true,
                    "internalType": "address",
                    "name": "delegator",
                    "type": "address"
                },
                {
                    "indexed": true,
                    "internalType": "address",
                    "name": "fromDelegate",
                    "type": "address"
                },
                {
                    "indexed": true,
                    "internalType": "address",
                    "name": "toDelegate",
                    "type": "address"
                }
            ],
            "name": "DelegateChanged",
            "type": "event"
        },
        {
            "anonymous": false,
            "inputs": [
                {
                    "indexed": true,
                    "internalType": "address",
                    "name": "delegate",
                    "type": "address"
                },
                {
                    "indexed": false,
                    "internalType": "uint256",
                    "name": "previousBalance",
                    "type": "uint256"
                },
                {
                    "indexed": false,
                    "internalType": "uint256",
                    "name": "newBalance",
                    "type": "uint256"
                }
            ],
            "name": "DelegateVotesChanged",
            "type": "event"
        },
        {
            "anonymous": false,
            "inputs": [
                {
                    "indexed": true,
                    "internalType": "address",
                    "name": "operator",
                    "type": "address"
                },
                {
                    "indexed": true,
                    "internalType": "bool",
                    "name": "access",
                    "type": "bool"
                }
            ],
            "name": "OperatorUpdated",
            "type": "event"
        },
        {
            "anonymous": false,
            "inputs": [
                {
                    "indexed": true,
                    "internalType": "address",
                    "name": "previousOwner",
                    "type": "address"
                },
                {
                    "indexed": true,
                    "internalType": "address",
                    "name": "newOwner",
                    "type": "address"
                }
            ],
            "name": "OwnershipTransferred",
            "type": "event"
        },
        {
            "anonymous": false,
            "inputs": [
                {
                    "indexed": true,
                    "internalType": "address",
                    "name": "from",
                    "type": "address"
                },
                {
                    "indexed": true,
                    "internalType": "address",
                    "name": "to",
                    "type": "address"
                },
                {
                    "indexed": false,
                    "internalType": "uint256",
                    "name": "value",
                    "type": "uint256"
                }
            ],
            "name": "Transfer",
            "type": "event"
        },
        {
            "inputs": [],
            "name": "DELEGATION_TYPEHASH",
            "outputs": [
                {
                    "internalType": "bytes32",
                    "name": "",
                    "type": "bytes32"
                }
            ],
            "stateMutability": "view",
            "type": "function"
        },
        {
            "inputs": [],
            "name": "DOMAIN_TYPEHASH",
            "outputs": [
                {
                    "internalType": "bytes32",
                    "name": "",
                    "type": "bytes32"
                }
            ],
            "stateMutability": "view",
            "type": "function"
        },
        {
            "inputs": [
                {
                    "internalType": "address",
                    "name": "newOperator",
                    "type": "address"
                }
            ],
            "name": "addOperator",
            "outputs": [],
            "stateMutability": "nonpayable",
            "type": "function"
        },
        {
            "inputs": [
                {
                    "internalType": "address",
                    "name": "owner",
                    "type": "address"
                },
                {
                    "internalType": "address",
                    "name": "spender",
                    "type": "address"
                }
            ],
            "name": "allowance",
            "outputs": [
                {
                    "internalType": "uint256",
                    "name": "",
                    "type": "uint256"
                }
            ],
            "stateMutability": "view",
            "type": "function"
        },
        {
            "inputs": [
                {
                    "internalType": "address",
                    "name": "spender",
                    "type": "address"
                },
                {
                    "internalType": "uint256",
                    "name": "amount",
                    "type": "uint256"
                }
            ],
            "name": "approve",
            "outputs": [
                {
                    "internalType": "bool",
                    "name": "",
                    "type": "bool"
                }
            ],
            "stateMutability": "nonpayable",
            "type": "function"
        },
        {
            "inputs": [
                {
                    "internalType": "address",
                    "name": "account",
                    "type": "address"
                }
            ],
            "name": "balanceOf",
            "outputs": [
                {
                    "internalType": "uint256",
                    "name": "",
                    "type": "uint256"
                }
            ],
            "stateMutability": "view",
            "type": "function"
        },
        {
            "inputs": [
                {
                    "internalType": "address",
                    "name": "",
                    "type": "address"
                },
                {
                    "internalType": "uint256",
                    "name": "",
                    "type": "uint256"
                }
            ],
            "name": "checkpoints",
            "outputs": [
                {
                    "internalType": "uint256",
                    "name": "fromTime",
                    "type": "uint256"
                },
                {
                    "internalType": "uint256",
                    "name": "votes",
                    "type": "uint256"
                }
            ],
            "stateMutability": "view",
            "type": "function"
        },
        {
            "inputs": [],
            "name": "decimals",
            "outputs": [
                {
                    "internalType": "uint8",
                    "name": "",
                    "type": "uint8"
                }
            ],
            "stateMutability": "view",
            "type": "function"
        },
        {
            "inputs": [
                {
                    "internalType": "address",
                    "name": "spender",
                    "type": "address"
                },
                {
                    "internalType": "uint256",
                    "name": "subtractedValue",
                    "type": "uint256"
                }
            ],
            "name": "decreaseAllowance",
            "outputs": [
                {
                    "internalType": "bool",
                    "name": "",
                    "type": "bool"
                }
            ],
            "stateMutability": "nonpayable",
            "type": "function"
        },
        {
            "inputs": [
                {
                    "internalType": "address",
                    "name": "delegatee",
                    "type": "address"
                }
            ],
            "name": "delegate",
            "outputs": [],
            "stateMutability": "nonpayable",
            "type": "function"
        },
        {
            "inputs": [
                {
                    "internalType": "address",
                    "name": "delegatee",
                    "type": "address"
                },
                {
                    "internalType": "uint256",
                    "name": "nonce",
                    "type": "uint256"
                },
                {
                    "internalType": "uint256",
                    "name": "expiry",
                    "type": "uint256"
                },
                {
                    "internalType": "uint8",
                    "name": "v",
                    "type": "uint8"
                },
                {
                    "internalType": "bytes32",
                    "name": "r",
                    "type": "bytes32"
                },
                {
                    "internalType": "bytes32",
                    "name": "s",
                    "type": "bytes32"
                }
            ],
            "name": "delegateBySig",
            "outputs": [],
            "stateMutability": "nonpayable",
            "type": "function"
        },
        {
            "inputs": [
                {
                    "internalType": "address",
                    "name": "delegator",
                    "type": "address"
                }
            ],
            "name": "delegates",
            "outputs": [
                {
                    "internalType": "address",
                    "name": "",
                    "type": "address"
                }
            ],
            "stateMutability": "view",
            "type": "function"
        },
        {
            "inputs": [
                {
                    "internalType": "address",
                    "name": "account",
                    "type": "address"
                }
            ],
            "name": "getCurrentVotes",
            "outputs": [
                {
                    "internalType": "uint256",
                    "name": "",
                    "type": "uint256"
                }
            ],
            "stateMutability": "view",
            "type": "function"
        },
        {
            "inputs": [
                {
                    "internalType": "address",
                    "name": "account",
                    "type": "address"
                },
                {
                    "internalType": "uint256",
                    "name": "blockTimestamp",
                    "type": "uint256"
                }
            ],
            "name": "getPriorVotes",
            "outputs": [
                {
                    "internalType": "uint256",
                    "name": "",
                    "type": "uint256"
                }
            ],
            "stateMutability": "view",
            "type": "function"
        },
        {
            "inputs": [
                {
                    "internalType": "address",
                    "name": "spender",
                    "type": "address"
                },
                {
                    "internalType": "uint256",
                    "name": "addedValue",
                    "type": "uint256"
                }
            ],
            "name": "increaseAllowance",
            "outputs": [
                {
                    "internalType": "bool",
                    "name": "",
                    "type": "bool"
                }
            ],
            "stateMutability": "nonpayable",
            "type": "function"
        },
        {
            "inputs": [
                {
                    "internalType": "address",
                    "name": "_to",
                    "type": "address"
                },
                {
                    "internalType": "uint256",
                    "name": "_amount",
                    "type": "uint256"
                }
            ],
            "name": "mint",
            "outputs": [],
            "stateMutability": "nonpayable",
            "type": "function"
        },
        {
            "inputs": [],
            "name": "name",
            "outputs": [
                {
                    "internalType": "string",
                    "name": "",
                    "type": "string"
                }
            ],
            "stateMutability": "view",
            "type": "function"
        },
        {
            "inputs": [
                {
                    "internalType": "address",
                    "name": "",
                    "type": "address"
                }
            ],
            "name": "nonces",
            "outputs": [
                {
                    "internalType": "uint256",
                    "name": "",
                    "type": "uint256"
                }
            ],
            "stateMutability": "view",
            "type": "function"
        },
        {
            "inputs": [
                {
                    "internalType": "address",
                    "name": "",
                    "type": "address"
                }
            ],
            "name": "numCheckpoints",
            "outputs": [
                {
                    "internalType": "uint256",
                    "name": "",
                    "type": "uint256"
                }
            ],
            "stateMutability": "view",
            "type": "function"
        },
        {
            "inputs": [
                {
                    "internalType": "address",
                    "name": "",
                    "type": "address"
                }
            ],
            "name": "operator",
            "outputs": [
                {
                    "internalType": "bool",
                    "name": "",
                    "type": "bool"
                }
            ],
            "stateMutability": "view",
            "type": "function"
        },
        {
            "inputs": [
                {
                    "internalType": "uint256",
                    "name": "",
                    "type": "uint256"
                }
            ],
            "name": "operators",
            "outputs": [
                {
                    "internalType": "address",
                    "name": "",
                    "type": "address"
                }
            ],
            "stateMutability": "view",
            "type": "function"
        },
        {
            "inputs": [],
            "name": "owner",
            "outputs": [
                {
                    "internalType": "address",
                    "name": "",
                    "type": "address"
                }
            ],
            "stateMutability": "view",
            "type": "function"
        },
        {
            "inputs": [
                {
                    "internalType": "address",
                    "name": "removingOperator",
                    "type": "address"
                }
            ],
            "name": "removeOperator",
            "outputs": [],
            "stateMutability": "nonpayable",
            "type": "function"
        },
        {
            "inputs": [],
            "name": "renounceOwnership",
            "outputs": [],
            "stateMutability": "nonpayable",
            "type": "function"
        },
        {
            "inputs": [],
            "name": "symbol",
            "outputs": [
                {
                    "internalType": "string",
                    "name": "",
                    "type": "string"
                }
            ],
            "stateMutability": "view",
            "type": "function"
        },
        {
            "inputs": [],
            "name": "totalSupply",
            "outputs": [
                {
                    "internalType": "uint256",
                    "name": "",
                    "type": "uint256"
                }
            ],
            "stateMutability": "view",
            "type": "function"
        },
        {
            "inputs": [
                {
                    "internalType": "address",
                    "name": "recipient",
                    "type": "address"
                },
                {
                    "internalType": "uint256",
                    "name": "amount",
                    "type": "uint256"
                }
            ],
            "name": "transfer",
            "outputs": [
                {
                    "internalType": "bool",
                    "name": "",
                    "type": "bool"
                }
            ],
            "stateMutability": "nonpayable",
            "type": "function"
        },
        {
            "inputs": [
                {
                    "internalType": "address",
                    "name": "sender",
                    "type": "address"
                },
                {
                    "internalType": "address",
                    "name": "recipient",
                    "type": "address"
                },
                {
                    "internalType": "uint256",
                    "name": "amount",
                    "type": "uint256"
                }
            ],
            "name": "transferFrom",
            "outputs": [
                {
                    "internalType": "bool",
                    "name": "",
                    "type": "bool"
                }
            ],
            "stateMutability": "nonpayable",
            "type": "function"
        },
        {
            "inputs": [
                {
                    "internalType": "address",
                    "name": "newOwner",
                    "type": "address"
                }
            ],
            "name": "transferOwnership",
            "outputs": [],
            "stateMutability": "nonpayable",
            "type": "function"
        }
    ],
    "bytecode": "60806040523480156200001157600080fd5b50604080518082018252600981526829b7bab62837bbb2b960b91b60208083019182528351808501909452600484526314d3d55360e21b9084015281519192916200005f916003916200018a565b508051620000759060049060208401906200018a565b505050620000926200008c6200013460201b60201c565b62000138565b60006200009e62000134565b6001600160a01b038116600081815260076020526040808220805460ff191660019081179091556006805480830182559084527ff652222313e28459528d920b65115c16c04f3efc82aaedc97be59f3f377c0d3f0180546001600160a01b031916851790559051939450927f966c160e1c4dbc7df8d69af4ace01e9297c3cf016397b7914971f2fbfa32672d9190a3506200026d565b3390565b600580546001600160a01b038381166001600160a01b0319831681179093556040519116919082907f8be0079c531659141344cd1fd0a4f28419497f9722a3daafe3b4186f6b6457e090600090a35050565b828054620001989062000230565b90600052602060002090601f016020900481019282620001bc576000855562000207565b82601f10620001d757805160ff191683800117855562000207565b8280016001018555821562000207579182015b8281111562000207578251825591602001919060010190620001ea565b506200021592915062000219565b5090565b5b808211156200021557600081556001016200021a565b6002810460018216806200024557607f821691505b602082108114156200026757634e487b7160e01b600052602260045260246000fd5b50919050565b611f10806200027d6000396000f3fe608060405234801561001057600080fd5b50600436106101cf5760003560e01c8063782d6fe111610104578063a9059cbb116100a2578063dd62ed3e11610071578063dd62ed3e146103bc578063e28d4906146103cf578063e7a324dc146103e2578063f2fde38b146103ea576101cf565b8063a9059cbb14610370578063ac8a584a14610383578063b4b5ea5714610396578063c3cda520146103a9576101cf565b806395d89b41116100de57806395d89b411461032f5780639870d7fe146103375780639a3073911461034a578063a457c2d71461035d576101cf565b8063782d6fe1146103015780637ecebe00146103145780638da5cb5b14610327576101cf565b806339509351116101715780635c19a95c1161014b5780635c19a95c146102c05780636fcfff45146102d357806370a08231146102e6578063715018a6146102f9576101cf565b8063395093511461027857806340c10f191461028b578063587cde1e146102a0576101cf565b806318160ddd116101ad57806318160ddd1461023357806320606b701461024857806323b872dd14610250578063313ce56714610263576101cf565b806306fdde03146101d4578063095ea7b3146101f25780630cdfebfa14610212575b600080fd5b6101dc6103fd565b6040516101e99190611872565b60405180910390f35b61020561020036600461172a565b61048f565b6040516101e991906117f8565b61022561022036600461172a565b6104ad565b6040516101e9929190611d86565b61023b6104d1565b6040516101e99190611803565b61023b6104d7565b61020561025e3660046116ef565b6104fb565b61026b610594565b6040516101e99190611d94565b61020561028636600461172a565b610599565b61029e61029936600461172a565b6105ed565b005b6102b36102ae3660046116a3565b610666565b6040516101e991906117e4565b61029e6102ce3660046116a3565b610687565b61023b6102e13660046116a3565b610694565b61023b6102f43660046116a3565b6106a6565b61029e6106c1565b61023b61030f36600461172a565b61070c565b61023b6103223660046116a3565b6108ee565b6102b3610900565b6101dc61090f565b61029e6103453660046116a3565b61091e565b6102056103583660046116a3565b610a53565b61020561036b36600461172a565b610a68565b61020561037e36600461172a565b610ae1565b61029e6103913660046116a3565b610af5565b61023b6103a43660046116a3565b610d15565b61029e6103b7366004611753565b610d78565b61023b6103ca3660046116bd565b610f53565b6102b36103dd3660046117b1565b610f7e565b61023b610fa8565b61029e6103f83660046116a3565b610fcc565b60606003805461040c90611e16565b80601f016020809104026020016040519081016040528092919081815260200182805461043890611e16565b80156104855780601f1061045a57610100808354040283529160200191610485565b820191906000526020600020905b81548152906001019060200180831161046857829003601f168201915b5050505050905090565b60006104a361049c61103a565b848461103e565b5060015b92915050565b60096020908152600092835260408084209091529082529020805460019091015482565b60025490565b7f8cad95687ba82c2ce50e74f7b754645e5117c3a5bec8151c0726d5857980a86681565b60006105088484846110f2565b6001600160a01b03841660009081526001602052604081208161052961103a565b6001600160a01b03166001600160a01b03168152602001908152602001600020549050828110156105755760405162461bcd60e51b815260040161056c90611aec565b60405180910390fd5b6105898561058161103a565b85840361103e565b506001949350505050565b601290565b60006104a36105a661103a565b8484600160006105b461103a565b6001600160a01b03908116825260208083019390935260409182016000908120918b16815292529020546105e89190611da2565b61103e565b60006105f761103a565b6001600160a01b03811660009081526007602052604090205490915060ff166106325760405162461bcd60e51b815260040161056c90611c3d565b61063c838361121c565b6001600160a01b038084166000908152600860205260408120546106619216846112e4565b505050565b6001600160a01b03808216600090815260086020526040902054165b919050565b610691338261141f565b50565b600a6020526000908152604090205481565b6001600160a01b031660009081526020819052604090205490565b6106c961103a565b6001600160a01b03166106da610900565b6001600160a01b0316146107005760405162461bcd60e51b815260040161056c90611b7b565b61070a60006114ae565b565b600042821061072d5760405162461bcd60e51b815260040161056c90611b34565b6001600160a01b0383166000908152600a6020526040902054806107555760009150506104a7565b6001600160a01b0384166000908152600960205260408120849161077a600185611dff565b815260200190815260200160002060000154116107cf576001600160a01b0384166000908152600960205260408120906107b5600184611dff565b8152602001908152602001600020600101549150506104a7565b6001600160a01b03841660009081526009602090815260408083208380529091529020548310156108045760009150506104a7565b600080610812600184611dff565b90505b818111156108be576000600261082b8484611dff565b6108359190611ddf565b61083f9083611dff565b6001600160a01b0388166000908152600960209081526040808320848452825291829020825180840190935280548084526001909101549183019190915291925090871415610898576020015194506104a79350505050565b80518711156108a9578193506108b7565b6108b4600183611dff565b92505b5050610815565b506001600160a01b0385166000908152600960209081526040808320938352929052206001015491505092915050565b600b6020526000908152604090205481565b6005546001600160a01b031690565b60606004805461040c90611e16565b600061092861103a565b6001600160a01b03811660009081526007602052604090205490915060ff166109635760405162461bcd60e51b815260040161056c90611c3d565b6001600160a01b0382166109895760405162461bcd60e51b815260040161056c90611990565b6001600160a01b03821660009081526007602052604090205460ff16156109c25760405162461bcd60e51b815260040161056c90611bb0565b6001600160a01b038216600081815260076020526040808220805460ff191660019081179091556006805480830182559084527ff652222313e28459528d920b65115c16c04f3efc82aaedc97be59f3f377c0d3f0180546001600160a01b0319168517905590519092917f966c160e1c4dbc7df8d69af4ace01e9297c3cf016397b7914971f2fbfa32672d91a35050565b60076020526000908152604090205460ff1681565b60008060016000610a7761103a565b6001600160a01b0390811682526020808301939093526040918201600090812091881681529252902054905082811015610ac35760405162461bcd60e51b815260040161056c90611d0a565b610ad7610ace61103a565b8585840361103e565b5060019392505050565b60006104a3610aee61103a565b84846110f2565b6000610aff61103a565b6001600160a01b03811660009081526007602052604090205490915060ff16610b3a5760405162461bcd60e51b815260040161056c90611c3d565b6001600160a01b03821660009081526007602052604090205460ff16610b725760405162461bcd60e51b815260040161056c90611a62565b6001600160a01b0382166000908152600760205260408120805460ff191690555b60065460ff8216101561066157826001600160a01b031660068260ff1681548110610bce57634e487b7160e01b600052603260045260246000fd5b6000918252602090912001546001600160a01b03161415610cff576006610bf6826001611dba565b60ff1681548110610c1757634e487b7160e01b600052603260045260246000fd5b600091825260209091200154600680546001600160a01b039092169160ff8416908110610c5457634e487b7160e01b600052603260045260246000fd5b9060005260206000200160006101000a8154816001600160a01b0302191690836001600160a01b031602179055506006805480610ca157634e487b7160e01b600052603160045260246000fd5b600082815260208120820160001990810180546001600160a01b03191690559091019091556040516001600160a01b038516907f966c160e1c4dbc7df8d69af4ace01e9297c3cf016397b7914971f2fbfa32672d908390a350610d11565b80610d0981611e6c565b915050610b93565b5050565b6001600160a01b0381166000908152600a602052604081205480610d3a576000610d71565b6001600160a01b038316600090815260096020526040812090610d5e600184611dff565b8152602001908152602001600020600101545b9392505050565b60007f8cad95687ba82c2ce50e74f7b754645e5117c3a5bec8151c0726d5857980a866610da36103fd565b80519060200120610db2611500565b30604051602001610dc69493929190611830565b60405160208183030381529060405280519060200120905060007fe48329057bfd03d55e49b547132e39cffd9c1820ad7b9d4c5307691425d15adf888888604051602001610e17949392919061180c565b60405160208183030381529060405280519060200120905060008282604051602001610e449291906117c9565b604051602081830303815290604052805190602001209050600060018288888860405160008152602001604052604051610e819493929190611854565b6020604051602081039080840390855afa158015610ea3573d6000803e3d6000fd5b5050604051601f1901519150506001600160a01b038116610ed65760405162461bcd60e51b815260040161056c90611aa6565b6001600160a01b0381166000908152600b60205260408120805491610efa83611e51565b919050558914610f1c5760405162461bcd60e51b815260040161056c906119da565b87421115610f3c5760405162461bcd60e51b815260040161056c90611cc4565b610f46818b61141f565b505050505b505050505050565b6001600160a01b03918216600090815260016020908152604080832093909416825291909152205490565b60068181548110610f8e57600080fd5b6000918252602090912001546001600160a01b0316905081565b7fe48329057bfd03d55e49b547132e39cffd9c1820ad7b9d4c5307691425d15adf81565b610fd461103a565b6001600160a01b0316610fe5610900565b6001600160a01b03161461100b5760405162461bcd60e51b815260040161056c90611b7b565b6001600160a01b0381166110315760405162461bcd60e51b815260040161056c90611908565b610691816114ae565b3390565b6001600160a01b0383166110645760405162461bcd60e51b815260040161056c90611c80565b6001600160a01b03821661108a5760405162461bcd60e51b815260040161056c9061194e565b6001600160a01b0380841660008181526001602090815260408083209487168084529490915290819020849055517f8c5be1e5ebec7d5bd14f71427d1e84f3dd0314c0f7b2291e5b200ac8c7c3b925906110e5908590611803565b60405180910390a3505050565b6001600160a01b0383166111185760405162461bcd60e51b815260040161056c90611bf8565b6001600160a01b03821661113e5760405162461bcd60e51b815260040161056c906118c5565b611149838383610661565b6001600160a01b038316600090815260208190526040902054818110156111825760405162461bcd60e51b815260040161056c90611a1c565b6001600160a01b038085166000908152602081905260408082208585039055918516815290812080548492906111b9908490611da2565b92505081905550826001600160a01b0316846001600160a01b03167fddf252ad1be2c89b69c2b068fc378daa952ba7f163c4a11628f55a4df523b3ef846040516112039190611803565b60405180910390a3611216848484610661565b50505050565b6001600160a01b0382166112425760405162461bcd60e51b815260040161056c90611d4f565b61124e60008383610661565b80600260008282546112609190611da2565b90915550506001600160a01b0382166000908152602081905260408120805483929061128d908490611da2565b90915550506040516001600160a01b038316906000907fddf252ad1be2c89b69c2b068fc378daa952ba7f163c4a11628f55a4df523b3ef906112d0908590611803565b60405180910390a3610d1160008383610661565b816001600160a01b0316836001600160a01b0316141580156113065750600081115b15610661576001600160a01b03831615611397576001600160a01b0383166000908152600a60205260408120549081611340576000611377565b6001600160a01b038516600090815260096020526040812090611364600185611dff565b8152602001908152602001600020600101545b905060006113858483611dff565b905061139386848484611504565b5050505b6001600160a01b03821615610661576001600160a01b0382166000908152600a602052604081205490816113cc576000611403565b6001600160a01b0384166000908152600960205260408120906113f0600185611dff565b8152602001908152602001600020600101545b905060006114118483611da2565b9050610f4b85848484611504565b6001600160a01b0380831660009081526008602052604081205490911690611446846106a6565b6001600160a01b0385811660008181526008602052604080822080546001600160a01b031916898616908117909155905194955093928616927f3134e8a2e6d97e929a7e54011ea5485d7d196dd5f0ba4d4ef95803e8e3fc257f9190a46112168284836112e4565b600580546001600160a01b038381166001600160a01b0319831681179093556040519116919082907f8be0079c531659141344cd1fd0a4f28419497f9722a3daafe3b4186f6b6457e090600090a35050565b4690565b600061152842604051806060016040528060388152602001611ea36038913961165f565b905060008411801561156e57506001600160a01b0385166000908152600960205260408120829161155a600188611dff565b815260200190815260200160002060000154145b156115b1576001600160a01b03851660009081526009602052604081208391611598600188611dff565b8152602081019190915260400160002060010155611615565b60408051808201825282815260208082018581526001600160a01b0389166000908152600983528481208982529092529290209051815590516001918201556115fb908590611da2565b6001600160a01b0386166000908152600a60205260409020555b846001600160a01b03167fdec2bacdd2f05b59de34da9b523dff8be42e5e38e818c82fdb0bae774387a7248484604051611650929190611d86565b60405180910390a25050505050565b60008160001984106116845760405162461bcd60e51b815260040161056c9190611872565b509192915050565b80356001600160a01b038116811461068257600080fd5b6000602082840312156116b4578081fd5b610d718261168c565b600080604083850312156116cf578081fd5b6116d88361168c565b91506116e66020840161168c565b90509250929050565b600080600060608486031215611703578081fd5b61170c8461168c565b925061171a6020850161168c565b9150604084013590509250925092565b6000806040838503121561173c578182fd5b6117458361168c565b946020939093013593505050565b60008060008060008060c0878903121561176b578182fd5b6117748761168c565b95506020870135945060408701359350606087013560ff81168114611797578283fd5b9598949750929560808101359460a0909101359350915050565b6000602082840312156117c2578081fd5b5035919050565b61190160f01b81526002810192909252602282015260420190565b6001600160a01b0391909116815260200190565b901515815260200190565b90815260200190565b9384526001600160a01b039290921660208401526040830152606082015260800190565b938452602084019290925260408301526001600160a01b0316606082015260800190565b93845260ff9290921660208401526040830152606082015260800190565b6000602080835283518082850152825b8181101561189e57858101830151858201604001528201611882565b818111156118af5783604083870101525b50601f01601f1916929092016040019392505050565b60208082526023908201527f45524332303a207472616e7366657220746f20746865207a65726f206164647260408201526265737360e81b606082015260800190565b60208082526026908201527f4f776e61626c653a206e6577206f776e657220697320746865207a65726f206160408201526564647265737360d01b606082015260800190565b60208082526022908201527f45524332303a20617070726f766520746f20746865207a65726f206164647265604082015261737360f01b606082015260800190565b6020808252602a908201527f4f70657261626c653a206e6577206f70657261746f7220697320746865207a65604082015269726f206164647265737360b01b606082015260800190565b60208082526022908201527f534f554c3a3a64656c656761746542795369673a20696e76616c6964206e6f6e604082015261636560f01b606082015260800190565b60208082526026908201527f45524332303a207472616e7366657220616d6f756e7420657863656564732062604082015265616c616e636560d01b606082015260800190565b60208082526024908201527f4f70657261626c653a2061646472657373206973206e6f7420616e206f70657260408201526330ba37b960e11b606082015260800190565b60208082526026908201527f534f554c3a3a64656c656761746542795369673a20696e76616c6964207369676040820152656e617475726560d01b606082015260800190565b60208082526028908201527f45524332303a207472616e7366657220616d6f756e74206578636565647320616040820152676c6c6f77616e636560c01b606082015260800190565b60208082526027908201527f534f554c3a3a6765745072696f72566f7465733a206e6f742079657420646574604082015266195c9b5a5b995960ca1b606082015260800190565b6020808252818101527f4f776e61626c653a2063616c6c6572206973206e6f7420746865206f776e6572604082015260600190565b60208082526028908201527f4f70657261626c653a206164647265737320697320616c726561647920616e2060408201526737b832b930ba37b960c11b606082015260800190565b60208082526025908201527f45524332303a207472616e736665722066726f6d20746865207a65726f206164604082015264647265737360d81b606082015260800190565b60208082526023908201527f4f70657261746f723a2063616c6c6572206973206e6f7420616e206f706572616040820152623a37b960e91b606082015260800190565b60208082526024908201527f45524332303a20617070726f76652066726f6d20746865207a65726f206164646040820152637265737360e01b606082015260800190565b60208082526026908201527f534f554c3a3a64656c656761746542795369673a207369676e617475726520656040820152651e1c1a5c995960d21b606082015260800190565b60208082526025908201527f45524332303a2064656372656173656420616c6c6f77616e63652062656c6f77604082015264207a65726f60d81b606082015260800190565b6020808252601f908201527f45524332303a206d696e7420746f20746865207a65726f206164647265737300604082015260600190565b918252602082015260400190565b60ff91909116815260200190565b60008219821115611db557611db5611e8c565b500190565b600060ff821660ff84168060ff03821115611dd757611dd7611e8c565b019392505050565b600082611dfa57634e487b7160e01b81526012600452602481fd5b500490565b600082821015611e1157611e11611e8c565b500390565b600281046001821680611e2a57607f821691505b60208210811415611e4b57634e487b7160e01b600052602260045260246000fd5b50919050565b6000600019821415611e6557611e65611e8c565b5060010190565b600060ff821660ff811415611e8357611e83611e8c565b60010192915050565b634e487b7160e01b600052601160045260246000fdfe534f554c3a3a5f7772697465436865636b706f696e743a20626c6f636b2074696d657374616d702065786365656473203235362062697473a2646970667358221220842dd8a05d1a351b7c8576037324563241ca414f2fa2ae977640fc331fe311b764736f6c63430008000033",
    "sourcePath": "/Users/unico/Documents/GitHub/SoulSwap/soulswap-farms/contracts/SoulPower.sol",
    "compiler": {
        "name": "solc",
        "version": "0.8.0+commit.c7dfd78e"
    },
    "functionHashes": {
        "DELEGATION_TYPEHASH()": "e7a324dc",
        "DOMAIN_TYPEHASH()": "20606b70",
        "addOperator(address)": "9870d7fe",
        "allowance(address,address)": "dd62ed3e",
        "approve(address,uint256)": "095ea7b3",
        "balanceOf(address)": "70a08231",
        "checkpoints(address,uint256)": "0cdfebfa",
        "decimals()": "313ce567",
        "decreaseAllowance(address,uint256)": "a457c2d7",
        "delegate(address)": "5c19a95c",
        "delegateBySig(address,uint256,uint256,uint8,bytes32,bytes32)": "c3cda520",
        "delegates(address)": "587cde1e",
        "getCurrentVotes(address)": "b4b5ea57",
        "getPriorVotes(address,uint256)": "782d6fe1",
        "increaseAllowance(address,uint256)": "39509351",
        "mint(address,uint256)": "40c10f19",
        "name()": "06fdde03",
        "nonces(address)": "7ecebe00",
        "numCheckpoints(address)": "6fcfff45",
        "operator(address)": "9a307391",
        "operators(uint256)": "e28d4906",
        "owner()": "8da5cb5b",
        "removeOperator(address)": "ac8a584a",
        "renounceOwnership()": "715018a6",
        "symbol()": "95d89b41",
        "totalSupply()": "18160ddd",
        "transfer(address,uint256)": "a9059cbb",
        "transferFrom(address,address,uint256)": "23b872dd",
        "transferOwnership(address)": "f2fde38b"
    },
    "gasEstimates": {
        "creation": {
            "codeDepositCost": "1590400",
            "executionCost": "infinite",
            "totalCost": "infinite"
        },
        "external": {
            "DELEGATION_TYPEHASH()": "316",
            "DOMAIN_TYPEHASH()": "296",
            "addOperator(address)": "66381",
            "allowance(address,address)": "infinite",
            "approve(address,uint256)": "22653",
            "balanceOf(address)": "1362",
            "checkpoints(address,uint256)": "2269",
            "decimals()": "352",
            "decreaseAllowance(address,uint256)": "infinite",
            "delegate(address)": "infinite",
            "delegateBySig(address,uint256,uint256,uint8,bytes32,bytes32)": "infinite",
            "delegates(address)": "infinite",
            "getCurrentVotes(address)": "infinite",
            "getPriorVotes(address,uint256)": "infinite",
            "increaseAllowance(address,uint256)": "infinite",
            "mint(address,uint256)": "infinite",
            "name()": "infinite",
            "nonces(address)": "1320",
            "numCheckpoints(address)": "1319",
            "operator(address)": "1353",
            "operators(uint256)": "2104",
            "owner()": "1160",
            "removeOperator(address)": "infinite",
            "renounceOwnership()": "23618",
            "symbol()": "infinite",
            "totalSupply()": "1074",
            "transfer(address,uint256)": "infinite",
            "transferFrom(address,address,uint256)": "infinite",
            "transferOwnership(address)": "23812"
        },
        "internal": {
            "_delegate(address,address)": "infinite",
            "_moveDelegates(address,address,uint256)": "infinite",
            "_writeCheckpoint(address,uint256,uint256,uint256)": "infinite",
            "getChainId()": "14",
            "safe256(uint256,string memory)": "infinite"
        }
    }
}