{
    "contractName": "SoulScarab",
    "abi": [
        {
            "anonymous": false,
            "inputs": [
                {
                    "indexed": false,
                    "internalType": "address",
                    "name": "manifestor",
                    "type": "address"
                }
            ],
            "name": "ManifestorUpdated",
            "type": "event"
        },
        {
            "anonymous": false,
            "inputs": [
                {
                    "indexed": false,
                    "internalType": "uint256",
                    "name": "amount",
                    "type": "uint256"
                },
                {
                    "indexed": false,
                    "internalType": "uint256",
                    "name": "id",
                    "type": "uint256"
                }
            ],
            "name": "ScarabSummoned",
            "type": "event"
        },
        {
            "anonymous": false,
            "inputs": [
                {
                    "indexed": false,
                    "internalType": "address",
                    "name": "recipient",
                    "type": "address"
                },
                {
                    "indexed": false,
                    "internalType": "uint256",
                    "name": "amount",
                    "type": "uint256"
                }
            ],
            "name": "Withdraw",
            "type": "event"
        },
        {
            "inputs": [
                {
                    "internalType": "address",
                    "name": "",
                    "type": "address"
                },
                {
                    "internalType": "uint256",
                    "name": "",
                    "type": "uint256"
                }
            ],
            "name": "depositsByRecipient",
            "outputs": [
                {
                    "internalType": "uint256",
                    "name": "",
                    "type": "uint256"
                }
            ],
            "stateMutability": "view",
            "type": "function"
        },
        {
            "inputs": [],
            "name": "depositsCount",
            "outputs": [
                {
                    "internalType": "uint256",
                    "name": "",
                    "type": "uint256"
                }
            ],
            "stateMutability": "view",
            "type": "function"
        },
        {
            "inputs": [
                {
                    "internalType": "uint256",
                    "name": "amount",
                    "type": "uint256"
                }
            ],
            "name": "enWei",
            "outputs": [
                {
                    "internalType": "uint256",
                    "name": "",
                    "type": "uint256"
                }
            ],
            "stateMutability": "pure",
            "type": "function"
        },
        {
            "inputs": [
                {
                    "internalType": "uint256",
                    "name": "amount",
                    "type": "uint256"
                }
            ],
            "name": "fromWei",
            "outputs": [
                {
                    "internalType": "uint256",
                    "name": "",
                    "type": "uint256"
                }
            ],
            "stateMutability": "pure",
            "type": "function"
        },
        {
            "inputs": [
                {
                    "internalType": "address",
                    "name": "_recipient",
                    "type": "address"
                }
            ],
            "name": "getDepositsByRecipient",
            "outputs": [
                {
                    "internalType": "uint256[]",
                    "name": "",
                    "type": "uint256[]"
                }
            ],
            "stateMutability": "view",
            "type": "function"
        },
        {
            "inputs": [],
            "name": "getTotalLockedBalance",
            "outputs": [
                {
                    "internalType": "uint256",
                    "name": "",
                    "type": "uint256"
                }
            ],
            "stateMutability": "view",
            "type": "function"
        },
        {
            "inputs": [
                {
                    "internalType": "uint256",
                    "name": "amount",
                    "type": "uint256"
                }
            ],
            "name": "getTribute",
            "outputs": [
                {
                    "internalType": "uint256",
                    "name": "fee",
                    "type": "uint256"
                }
            ],
            "stateMutability": "view",
            "type": "function"
        },
        {
            "inputs": [
                {
                    "internalType": "address",
                    "name": "_recipient",
                    "type": "address"
                },
                {
                    "internalType": "uint256",
                    "name": "_amount",
                    "type": "uint256"
                },
                {
                    "internalType": "uint256",
                    "name": "_unlockTimestamp",
                    "type": "uint256"
                }
            ],
            "name": "lockSouls",
            "outputs": [
                {
                    "internalType": "uint256",
                    "name": "id",
                    "type": "uint256"
                }
            ],
            "stateMutability": "nonpayable",
            "type": "function"
        },
        {
            "inputs": [],
            "name": "manifestor",
            "outputs": [
                {
                    "internalType": "address",
                    "name": "",
                    "type": "address"
                }
            ],
            "stateMutability": "view",
            "type": "function"
        },
        {
            "inputs": [],
            "name": "outcaster",
            "outputs": [
                {
                    "internalType": "contract Outcaster",
                    "name": "",
                    "type": "address"
                }
            ],
            "stateMutability": "view",
            "type": "function"
        },
        {
            "inputs": [
                {
                    "internalType": "uint256",
                    "name": "",
                    "type": "uint256"
                }
            ],
            "name": "scarabs",
            "outputs": [
                {
                    "internalType": "address",
                    "name": "recipient",
                    "type": "address"
                },
                {
                    "internalType": "uint256",
                    "name": "amount",
                    "type": "uint256"
                },
                {
                    "internalType": "uint256",
                    "name": "tribute",
                    "type": "uint256"
                },
                {
                    "internalType": "uint256",
                    "name": "unlockTimestamp",
                    "type": "uint256"
                },
                {
                    "internalType": "bool",
                    "name": "withdrawn",
                    "type": "bool"
                }
            ],
            "stateMutability": "view",
            "type": "function"
        },
        {
            "inputs": [],
            "name": "seance",
            "outputs": [
                {
                    "internalType": "contract SeanceCircle",
                    "name": "",
                    "type": "address"
                }
            ],
            "stateMutability": "view",
            "type": "function"
        },
        {
            "inputs": [
                {
                    "internalType": "address",
                    "name": "_manifestor",
                    "type": "address"
                }
            ],
            "name": "setManifestor",
            "outputs": [],
            "stateMutability": "nonpayable",
            "type": "function"
        },
        {
            "inputs": [],
            "name": "soul",
            "outputs": [
                {
                    "internalType": "contract SoulPower",
                    "name": "",
                    "type": "address"
                }
            ],
            "stateMutability": "view",
            "type": "function"
        },
        {
            "inputs": [],
            "name": "tributeRate",
            "outputs": [
                {
                    "internalType": "uint256",
                    "name": "",
                    "type": "uint256"
                }
            ],
            "stateMutability": "view",
            "type": "function"
        },
        {
            "inputs": [
                {
                    "internalType": "address",
                    "name": "",
                    "type": "address"
                }
            ],
            "name": "walletBalance",
            "outputs": [
                {
                    "internalType": "uint256",
                    "name": "",
                    "type": "uint256"
                }
            ],
            "stateMutability": "view",
            "type": "function"
        },
        {
            "inputs": [
                {
                    "internalType": "uint256",
                    "name": "id",
                    "type": "uint256"
                }
            ],
            "name": "withdrawTokens",
            "outputs": [],
            "stateMutability": "nonpayable",
            "type": "function"
        }
    ],
    "bytecode": "60e06040527f124b06c5ce47de7a6e9efda71a946717130079e60000000000000000000000006080527fe2fb177009ff39f52c0134e8007fa0e4baacbd0700000000000000000000000060a0527fce530f22d82a2437f2fb4b43df0e1e4fd446f0ff00000000000000000000000060c052600480546001600160a01b0319163317905561008c600a6100a1565b60055534801561009b57600080fd5b506100e6565b60006100b582670de0b6b3a76400006100bb565b92915050565b60008160001904831182151516156100e157634e487b7160e01b81526011600452602481fd5b500290565b60805160601c60a05160601c60c05160601c61111a6101566000396000818161024b01526104970152600081816105270152818161071e015281816107dd0152818161087c0152818161092201528181610aea0152610be70152600081816103f60152610645015261111a6000f3fe608060405234801561001057600080fd5b506004361061010b5760003560e01c80636f8dfd09116100a2578063cf616f4011610071578063cf616f4014610200578063cf94ee9614610208578063cf9cd8f81461021b578063d5c258901461022e578063e65d1522146102365761010b565b80636f8dfd09146101ca578063815b7a8c146101dd578063a7953e5e146101e5578063b2f4a91f146101f85761010b565b80634506e935116100de5780634506e935146101875780634ca01d451461019c57806367030637146101a4578063671070fa146101b75761010b565b8063072824fe14610110578063077891f91461012e578063315a095d1461014e5780633cd2e4ec14610163575b600080fd5b610118610249565b6040516101259190610d68565b60405180910390f35b61014161013c366004610c9c565b61026d565b6040516101259190610e03565b61016161015c366004610d38565b6102da565b005b610176610171366004610d38565b610601565b604051610125959493929190610dd3565b61018f61063d565b604051610125919061102e565b610118610643565b61018f6101b2366004610cbd565b610667565b61018f6101c5366004610ce6565b610698565b61018f6101d8366004610d38565b610aa7565b610118610ae8565b6101616101f3366004610c9c565b610b0c565b610118610b92565b61018f610ba1565b61018f610216366004610d38565b610ba7565b61018f610229366004610c9c565b610bbb565b61018f610bcd565b61018f610244366004610d38565b610c71565b7f000000000000000000000000000000000000000000000000000000000000000081565b6001600160a01b0381166000908152600160209081526040918290208054835181840281018401909452808452606093928301828280156102cd57602002820191906000526020600020905b8154815260200190600101908083116102b9575b505050505090505b919050565b6000818152600260205260409020600301544210156103145760405162461bcd60e51b815260040161030b90610ec0565b60405180910390fd5b6000818152600260205260409020546001600160a01b0316331461034a5760405162461bcd60e51b815260040161030b90610f9c565b60008181526002602052604090206004015460ff161561037c5760405162461bcd60e51b815260040161030b90610ef7565b600081815260026020908152604080832060048101805460ff191660019081179091550154338452600390925282208054919290916103bc90849061109c565b90915550506000818152600260205260408120600101546103dc90610aa7565b60405163a9059cbb60e01b81529091506001600160a01b037f0000000000000000000000000000000000000000000000000000000000000000169063a9059cbb9061042d9030908590600401610dba565b602060405180830381600087803b15801561044757600080fd5b505af115801561045b573d6000803e3d6000fd5b505050506040513d601f19601f8201168201806040525081019061047f9190610d18565b50604051631acafdbb60e11b81526001600160a01b037f00000000000000000000000000000000000000000000000000000000000000001690633595fb76906104cc90849060040161102e565b600060405180830381600087803b1580156104e657600080fd5b505af11580156104fa573d6000803e3d6000fd5b5050506000838152600260205260409081902060010154905163a9059cbb60e01b81526001600160a01b037f000000000000000000000000000000000000000000000000000000000000000016925063a9059cbb9161055e91339190600401610dba565b602060405180830381600087803b15801561057857600080fd5b505af115801561058c573d6000803e3d6000fd5b505050506040513d601f19601f820116820180604052508101906105b09190610d18565b50600082815260026020526040908190206001015490517f884edad9ce6fa2440d8a54cc123490eb96d2768479d49ff9c7366125a9424364916105f591339190610dba565b60405180910390a15050565b6002602081905260009182526040909120805460018201549282015460038301546004909301546001600160a01b039092169392909160ff1685565b60005481565b7f000000000000000000000000000000000000000000000000000000000000000081565b6001602052816000526040600020818154811061068357600080fd5b90600052602060002001600091509150505481565b60008083116106b95760405162461bcd60e51b815260040161030b90610f65565b6106c7426301e13380611045565b8211156106e65760405162461bcd60e51b815260040161030b90610f2e565b4282116107055760405162461bcd60e51b815260040161030b90610e47565b604051636eb1769f60e11b815283906001600160a01b037f0000000000000000000000000000000000000000000000000000000000000000169063dd62ed3e906107559033903090600401610d7c565b60206040518083038186803b15801561076d57600080fd5b505afa158015610781573d6000803e3d6000fd5b505050506040513d601f19601f820116820180604052508101906107a59190610d50565b10156107c35760405162461bcd60e51b815260040161030b90611001565b6040516370a0823160e01b81526000906001600160a01b037f000000000000000000000000000000000000000000000000000000000000000016906370a0823190610812903090600401610d68565b60206040518083038186803b15801561082a57600080fd5b505afa15801561083e573d6000803e3d6000fd5b505050506040513d601f19601f820116820180604052508101906108629190610d50565b6040516323b872dd60e01b81529091506001600160a01b037f000000000000000000000000000000000000000000000000000000000000000016906323b872dd906108b590339030908990600401610d96565b602060405180830381600087803b1580156108cf57600080fd5b505af11580156108e3573d6000803e3d6000fd5b505050506040513d601f19601f820116820180604052508101906109079190610d18565b506040516370a0823160e01b81526000906001600160a01b037f000000000000000000000000000000000000000000000000000000000000000016906370a0823190610957903090600401610d68565b60206040518083038186803b15801561096f57600080fd5b505afa158015610983573d6000803e3d6000fd5b505050506040513d601f19601f820116820180604052508101906109a79190610d50565b90506109b3828261109c565b945060006109c086610aa7565b336000908152600360205260408120805492935088929091906109e4908490611045565b90915550506000805481906109f8906110b3565b9182905550600081815260026020818152604080842080546001600160a01b0319166001600160a01b038e16908117825560018083018e9055948201889055600382018c90556004909101805460ff191690558452828252808420805493840181558452922001829055519094507fd17981b1afb7bf9743fe0e201535996fcbbd54c07ce342a74f7a8f1150326ea290610a959088908790611037565b60405180910390a15050509392505050565b6000808211610ac85760405162461bcd60e51b815260040161030b90610fd3565b606460055483610ad8919061107d565b610ae2919061105d565b92915050565b7f000000000000000000000000000000000000000000000000000000000000000081565b6004546001600160a01b03163314610b365760405162461bcd60e51b815260040161030b90610e7e565b600480546001600160a01b0319166001600160a01b0383811691909117918290556040517f03187f57de180913dd54ab73364e9f5490a059eb94bb41bc9d63cfcc4bb7f70892610b87921690610d68565b60405180910390a150565b6004546001600160a01b031681565b60055481565b6000610ae282670de0b6b3a764000061107d565b60036020526000908152604090205481565b6040516370a0823160e01b81526000906001600160a01b037f000000000000000000000000000000000000000000000000000000000000000016906370a0823190610c1c903090600401610d68565b60206040518083038186803b158015610c3457600080fd5b505afa158015610c48573d6000803e3d6000fd5b505050506040513d601f19601f82011682018060405250810190610c6c9190610d50565b905090565b6000610ae2670de0b6b3a76400008361105d565b80356001600160a01b03811681146102d557600080fd5b600060208284031215610cad578081fd5b610cb682610c85565b9392505050565b60008060408385031215610ccf578081fd5b610cd883610c85565b946020939093013593505050565b600080600060608486031215610cfa578081fd5b610d0384610c85565b95602085013595506040909401359392505050565b600060208284031215610d29578081fd5b81518015158114610cb6578182fd5b600060208284031215610d49578081fd5b5035919050565b600060208284031215610d61578081fd5b5051919050565b6001600160a01b0391909116815260200190565b6001600160a01b0392831681529116602082015260400190565b6001600160a01b039384168152919092166020820152604081019190915260600190565b6001600160a01b03929092168252602082015260400190565b6001600160a01b039590951685526020850193909352604084019190915260608301521515608082015260a00190565b6020808252825182820181905260009190848201906040850190845b81811015610e3b57835183529284019291840191600101610e1f565b50909695505050505050565b6020808252601c908201527f556e6c6f636b206973206e6f7420696e20746865206675747572652e00000000604082015260600190565b60208082526022908201527f596f7520617265206e6f74207468652063757272656e74206d616e696665737460408201526137b960f11b606082015260800190565b60208082526018908201527f546f6b656e7320617265207374696c6c206c6f636b65642e0000000000000000604082015260600190565b6020808252601d908201527f546f6b656e732061726520616c72656164792077697468647261776e2e000000604082015260600190565b6020808252601f908201527f556e6c6f636b206d7573742062652077697468696e206f6e6520796561722e00604082015260600190565b6020808252601a908201527f496e73756666696369656e7420534f554c2062616c616e63652e000000000000604082015260600190565b6020808252601a908201527f596f7520617265206e6f742074686520726563697069656e742e000000000000604082015260600190565b60208082526014908201527363616e6e6f742068617665207a65726f2066656560601b604082015260600190565b60208082526013908201527220b8383937bb329029a7aaa6103334b939ba1760691b604082015260600190565b90815260200190565b918252602082015260400190565b60008219821115611058576110586110ce565b500190565b60008261107857634e487b7160e01b81526012600452602481fd5b500490565b6000816000190483118215151615611097576110976110ce565b500290565b6000828210156110ae576110ae6110ce565b500390565b60006000198214156110c7576110c76110ce565b5060010190565b634e487b7160e01b600052601160045260246000fdfea2646970667358221220071232df6706299101444299ef4476d2eaecd21ee5f8ccc688d3942a06e8a0bd64736f6c63430008000033",
    "sourcePath": "/Users/unico/Documents/GitHub/SoulSwap/soulswap-farms/contracts/SoulScarab.sol",
    "compiler": {
        "name": "solc",
        "version": "0.8.0+commit.c7dfd78e"
    },
    "functionHashes": {
        "depositsByRecipient(address,uint256)": "67030637",
        "depositsCount()": "4506e935",
        "enWei(uint256)": "cf94ee96",
        "fromWei(uint256)": "e65d1522",
        "getDepositsByRecipient(address)": "077891f9",
        "getTotalLockedBalance()": "d5c25890",
        "getTribute(uint256)": "6f8dfd09",
        "lockSouls(address,uint256,uint256)": "671070fa",
        "manifestor()": "b2f4a91f",
        "outcaster()": "072824fe",
        "scarabs(uint256)": "3cd2e4ec",
        "seance()": "4ca01d45",
        "setManifestor(address)": "a7953e5e",
        "soul()": "815b7a8c",
        "tributeRate()": "cf616f40",
        "walletBalance(address)": "cf9cd8f8",
        "withdrawTokens(uint256)": "315a095d"
    },
    "gasEstimates": {
        "creation": {
            "codeDepositCost": "875600",
            "executionCost": "infinite",
            "totalCost": "infinite"
        },
        "external": {
            "depositsByRecipient(address,uint256)": "2232",
            "depositsCount()": "1051",
            "enWei(uint256)": "448",
            "fromWei(uint256)": "482",
            "getDepositsByRecipient(address)": "infinite",
            "getTotalLockedBalance()": "infinite",
            "getTribute(uint256)": "1319",
            "lockSouls(address,uint256,uint256)": "infinite",
            "manifestor()": "1159",
            "outcaster()": "infinite",
            "scarabs(uint256)": "4674",
            "seance()": "infinite",
            "setManifestor(address)": "23200",
            "soul()": "infinite",
            "tributeRate()": "1050",
            "walletBalance(address)": "1318",
            "withdrawTokens(uint256)": "infinite"
        }
    }
}