{
    "contractName": "SoulSummoner",
    "abi": [
        {
            "anonymous": false,
            "inputs": [
                {
                    "indexed": true,
                    "internalType": "address",
                    "name": "user",
                    "type": "address"
                },
                {
                    "indexed": true,
                    "internalType": "uint256",
                    "name": "pid",
                    "type": "uint256"
                },
                {
                    "indexed": false,
                    "internalType": "uint256",
                    "name": "amount",
                    "type": "uint256"
                }
            ],
            "name": "Deposit",
            "type": "event"
        },
        {
            "anonymous": false,
            "inputs": [
                {
                    "indexed": false,
                    "internalType": "address",
                    "name": "team",
                    "type": "address"
                },
                {
                    "indexed": false,
                    "internalType": "address",
                    "name": "dev",
                    "type": "address"
                },
                {
                    "indexed": false,
                    "internalType": "address",
                    "name": "soul",
                    "type": "address"
                },
                {
                    "indexed": false,
                    "internalType": "address",
                    "name": "seance",
                    "type": "address"
                },
                {
                    "indexed": false,
                    "internalType": "uint256",
                    "name": "chainId",
                    "type": "uint256"
                },
                {
                    "indexed": false,
                    "internalType": "uint256",
                    "name": "power",
                    "type": "uint256"
                }
            ],
            "name": "Initialized",
            "type": "event"
        },
        {
            "anonymous": false,
            "inputs": [
                {
                    "indexed": true,
                    "internalType": "address",
                    "name": "operator",
                    "type": "address"
                },
                {
                    "indexed": true,
                    "internalType": "bool",
                    "name": "access",
                    "type": "bool"
                }
            ],
            "name": "OperatorUpdated",
            "type": "event"
        },
        {
            "anonymous": false,
            "inputs": [
                {
                    "indexed": true,
                    "internalType": "address",
                    "name": "previousOwner",
                    "type": "address"
                },
                {
                    "indexed": true,
                    "internalType": "address",
                    "name": "newOwner",
                    "type": "address"
                }
            ],
            "name": "OwnershipTransferred",
            "type": "event"
        },
        {
            "anonymous": false,
            "inputs": [
                {
                    "indexed": false,
                    "internalType": "uint256",
                    "name": "pid",
                    "type": "uint256"
                },
                {
                    "indexed": false,
                    "internalType": "uint256",
                    "name": "allocPoint",
                    "type": "uint256"
                },
                {
                    "indexed": false,
                    "internalType": "contract IERC20",
                    "name": "lpToken",
                    "type": "address"
                },
                {
                    "indexed": false,
                    "internalType": "uint256",
                    "name": "totalAllocPoint",
                    "type": "uint256"
                }
            ],
            "name": "PoolAdded",
            "type": "event"
        },
        {
            "anonymous": false,
            "inputs": [
                {
                    "indexed": false,
                    "internalType": "uint256",
                    "name": "pid",
                    "type": "uint256"
                },
                {
                    "indexed": false,
                    "internalType": "uint256",
                    "name": "allocPoint",
                    "type": "uint256"
                }
            ],
            "name": "PoolSet",
            "type": "event"
        },
        {
            "anonymous": false,
            "inputs": [
                {
                    "indexed": false,
                    "internalType": "uint256",
                    "name": "dailySoul",
                    "type": "uint256"
                },
                {
                    "indexed": false,
                    "internalType": "uint256",
                    "name": "soulPerSecond",
                    "type": "uint256"
                }
            ],
            "name": "RewardsUpdated",
            "type": "event"
        },
        {
            "anonymous": false,
            "inputs": [
                {
                    "indexed": false,
                    "internalType": "uint256",
                    "name": "weight",
                    "type": "uint256"
                },
                {
                    "indexed": false,
                    "internalType": "uint256",
                    "name": "totalWeight",
                    "type": "uint256"
                }
            ],
            "name": "WeightUpdated",
            "type": "event"
        },
        {
            "anonymous": false,
            "inputs": [
                {
                    "indexed": true,
                    "internalType": "address",
                    "name": "user",
                    "type": "address"
                },
                {
                    "indexed": true,
                    "internalType": "uint256",
                    "name": "pid",
                    "type": "uint256"
                },
                {
                    "indexed": false,
                    "internalType": "uint256",
                    "name": "amount",
                    "type": "uint256"
                }
            ],
            "name": "Withdraw",
            "type": "event"
        },
        {
            "inputs": [
                {
                    "internalType": "uint256",
                    "name": "_allocPoint",
                    "type": "uint256"
                },
                {
                    "internalType": "contract IERC20",
                    "name": "_lpToken",
                    "type": "address"
                },
                {
                    "internalType": "bool",
                    "name": "_withUpdate",
                    "type": "bool"
                }
            ],
            "name": "add",
            "outputs": [],
            "stateMutability": "nonpayable",
            "type": "function"
        },
        {
            "inputs": [
                {
                    "internalType": "address",
                    "name": "newOperator",
                    "type": "address"
                }
            ],
            "name": "addOperator",
            "outputs": [],
            "stateMutability": "nonpayable",
            "type": "function"
        },
        {
            "inputs": [],
            "name": "bonusMultiplier",
            "outputs": [
                {
                    "internalType": "uint256",
                    "name": "",
                    "type": "uint256"
                }
            ],
            "stateMutability": "view",
            "type": "function"
        },
        {
            "inputs": [],
            "name": "chainId",
            "outputs": [
                {
                    "internalType": "uint256",
                    "name": "",
                    "type": "uint256"
                }
            ],
            "stateMutability": "view",
            "type": "function"
        },
        {
            "inputs": [],
            "name": "dailySoul",
            "outputs": [
                {
                    "internalType": "uint256",
                    "name": "",
                    "type": "uint256"
                }
            ],
            "stateMutability": "view",
            "type": "function"
        },
        {
            "inputs": [],
            "name": "dao",
            "outputs": [
                {
                    "internalType": "address",
                    "name": "",
                    "type": "address"
                }
            ],
            "stateMutability": "view",
            "type": "function"
        },
        {
            "inputs": [
                {
                    "internalType": "uint256",
                    "name": "_pid",
                    "type": "uint256"
                },
                {
                    "internalType": "uint256",
                    "name": "_amount",
                    "type": "uint256"
                }
            ],
            "name": "deposit",
            "outputs": [],
            "stateMutability": "nonpayable",
            "type": "function"
        },
        {
            "inputs": [
                {
                    "internalType": "uint256",
                    "name": "_amount",
                    "type": "uint256"
                }
            ],
            "name": "enterStaking",
            "outputs": [],
            "stateMutability": "nonpayable",
            "type": "function"
        },
        {
            "inputs": [
                {
                    "internalType": "uint256",
                    "name": "_weight",
                    "type": "uint256"
                }
            ],
            "name": "gainWeight",
            "outputs": [],
            "stateMutability": "nonpayable",
            "type": "function"
        },
        {
            "inputs": [
                {
                    "internalType": "uint256",
                    "name": "_from",
                    "type": "uint256"
                },
                {
                    "internalType": "uint256",
                    "name": "_to",
                    "type": "uint256"
                }
            ],
            "name": "getMultiplier",
            "outputs": [
                {
                    "internalType": "uint256",
                    "name": "",
                    "type": "uint256"
                }
            ],
            "stateMutability": "view",
            "type": "function"
        },
        {
            "inputs": [
                {
                    "internalType": "address",
                    "name": "_soulAddress",
                    "type": "address"
                },
                {
                    "internalType": "address",
                    "name": "_seanceAddress",
                    "type": "address"
                },
                {
                    "internalType": "uint256",
                    "name": "_chainId",
                    "type": "uint256"
                },
                {
                    "internalType": "uint256",
                    "name": "_totalChains",
                    "type": "uint256"
                },
                {
                    "internalType": "uint256",
                    "name": "_totalWeight",
                    "type": "uint256"
                },
                {
                    "internalType": "uint256",
                    "name": "_weight",
                    "type": "uint256"
                }
            ],
            "name": "initialize",
            "outputs": [],
            "stateMutability": "nonpayable",
            "type": "function"
        },
        {
            "inputs": [],
            "name": "isInitialized",
            "outputs": [
                {
                    "internalType": "bool",
                    "name": "",
                    "type": "bool"
                }
            ],
            "stateMutability": "view",
            "type": "function"
        },
        {
            "inputs": [
                {
                    "internalType": "uint256",
                    "name": "_amount",
                    "type": "uint256"
                }
            ],
            "name": "leaveStaking",
            "outputs": [],
            "stateMutability": "nonpayable",
            "type": "function"
        },
        {
            "inputs": [
                {
                    "internalType": "uint256",
                    "name": "_weight",
                    "type": "uint256"
                }
            ],
            "name": "loseWeight",
            "outputs": [],
            "stateMutability": "nonpayable",
            "type": "function"
        },
        {
            "inputs": [],
            "name": "massUpdatePools",
            "outputs": [],
            "stateMutability": "nonpayable",
            "type": "function"
        },
        {
            "inputs": [
                {
                    "internalType": "uint256",
                    "name": "_pid",
                    "type": "uint256"
                }
            ],
            "name": "migrate",
            "outputs": [],
            "stateMutability": "nonpayable",
            "type": "function"
        },
        {
            "inputs": [],
            "name": "migrator",
            "outputs": [
                {
                    "internalType": "contract IMigrator",
                    "name": "",
                    "type": "address"
                }
            ],
            "stateMutability": "view",
            "type": "function"
        },
        {
            "inputs": [
                {
                    "internalType": "address",
                    "name": "_dao",
                    "type": "address"
                }
            ],
            "name": "newDAO",
            "outputs": [],
            "stateMutability": "nonpayable",
            "type": "function"
        },
        {
            "inputs": [
                {
                    "internalType": "contract SeanceCircle",
                    "name": "_seance",
                    "type": "address"
                }
            ],
            "name": "newSeance",
            "outputs": [],
            "stateMutability": "nonpayable",
            "type": "function"
        },
        {
            "inputs": [
                {
                    "internalType": "contract SoulPower",
                    "name": "_soul",
                    "type": "address"
                }
            ],
            "name": "newSoul",
            "outputs": [],
            "stateMutability": "nonpayable",
            "type": "function"
        },
        {
            "inputs": [
                {
                    "internalType": "address",
                    "name": "_team",
                    "type": "address"
                }
            ],
            "name": "newTeam",
            "outputs": [],
            "stateMutability": "nonpayable",
            "type": "function"
        },
        {
            "inputs": [
                {
                    "internalType": "address",
                    "name": "",
                    "type": "address"
                }
            ],
            "name": "operator",
            "outputs": [
                {
                    "internalType": "bool",
                    "name": "",
                    "type": "bool"
                }
            ],
            "stateMutability": "view",
            "type": "function"
        },
        {
            "inputs": [
                {
                    "internalType": "uint256",
                    "name": "",
                    "type": "uint256"
                }
            ],
            "name": "operators",
            "outputs": [
                {
                    "internalType": "address",
                    "name": "",
                    "type": "address"
                }
            ],
            "stateMutability": "view",
            "type": "function"
        },
        {
            "inputs": [],
            "name": "owner",
            "outputs": [
                {
                    "internalType": "address",
                    "name": "",
                    "type": "address"
                }
            ],
            "stateMutability": "view",
            "type": "function"
        },
        {
            "inputs": [
                {
                    "internalType": "uint256",
                    "name": "_pid",
                    "type": "uint256"
                },
                {
                    "internalType": "address",
                    "name": "_user",
                    "type": "address"
                }
            ],
            "name": "pendingSoul",
            "outputs": [
                {
                    "internalType": "uint256",
                    "name": "",
                    "type": "uint256"
                }
            ],
            "stateMutability": "view",
            "type": "function"
        },
        {
            "inputs": [
                {
                    "internalType": "uint256",
                    "name": "",
                    "type": "uint256"
                }
            ],
            "name": "poolInfo",
            "outputs": [
                {
                    "internalType": "contract IERC20",
                    "name": "lpToken",
                    "type": "address"
                },
                {
                    "internalType": "uint256",
                    "name": "allocPoint",
                    "type": "uint256"
                },
                {
                    "internalType": "uint256",
                    "name": "lastRewardTime",
                    "type": "uint256"
                },
                {
                    "internalType": "uint256",
                    "name": "accSoulPerShare",
                    "type": "uint256"
                }
            ],
            "stateMutability": "view",
            "type": "function"
        },
        {
            "inputs": [],
            "name": "poolLength",
            "outputs": [
                {
                    "internalType": "uint256",
                    "name": "",
                    "type": "uint256"
                }
            ],
            "stateMutability": "view",
            "type": "function"
        },
        {
            "inputs": [
                {
                    "internalType": "address",
                    "name": "removingOperator",
                    "type": "address"
                }
            ],
            "name": "removeOperator",
            "outputs": [],
            "stateMutability": "nonpayable",
            "type": "function"
        },
        {
            "inputs": [],
            "name": "renounceOwnership",
            "outputs": [],
            "stateMutability": "nonpayable",
            "type": "function"
        },
        {
            "inputs": [],
            "name": "seance",
            "outputs": [
                {
                    "internalType": "contract SeanceCircle",
                    "name": "",
                    "type": "address"
                }
            ],
            "stateMutability": "view",
            "type": "function"
        },
        {
            "inputs": [
                {
                    "internalType": "uint256",
                    "name": "_pid",
                    "type": "uint256"
                },
                {
                    "internalType": "uint256",
                    "name": "_allocPoint",
                    "type": "uint256"
                },
                {
                    "internalType": "bool",
                    "name": "_withUpdate",
                    "type": "bool"
                }
            ],
            "name": "set",
            "outputs": [],
            "stateMutability": "nonpayable",
            "type": "function"
        },
        {
            "inputs": [
                {
                    "internalType": "contract IMigrator",
                    "name": "_migrator",
                    "type": "address"
                }
            ],
            "name": "setMigrator",
            "outputs": [],
            "stateMutability": "nonpayable",
            "type": "function"
        },
        {
            "inputs": [],
            "name": "soul",
            "outputs": [
                {
                    "internalType": "contract SoulPower",
                    "name": "",
                    "type": "address"
                }
            ],
            "stateMutability": "view",
            "type": "function"
        },
        {
            "inputs": [],
            "name": "soulPerSecond",
            "outputs": [
                {
                    "internalType": "uint256",
                    "name": "",
                    "type": "uint256"
                }
            ],
            "stateMutability": "view",
            "type": "function"
        },
        {
            "inputs": [],
            "name": "startTime",
            "outputs": [
                {
                    "internalType": "uint256",
                    "name": "",
                    "type": "uint256"
                }
            ],
            "stateMutability": "view",
            "type": "function"
        },
        {
            "inputs": [],
            "name": "team",
            "outputs": [
                {
                    "internalType": "address",
                    "name": "",
                    "type": "address"
                }
            ],
            "stateMutability": "view",
            "type": "function"
        },
        {
            "inputs": [],
            "name": "totalAllocPoint",
            "outputs": [
                {
                    "internalType": "uint256",
                    "name": "",
                    "type": "uint256"
                }
            ],
            "stateMutability": "view",
            "type": "function"
        },
        {
            "inputs": [],
            "name": "totalChains",
            "outputs": [
                {
                    "internalType": "uint256",
                    "name": "",
                    "type": "uint256"
                }
            ],
            "stateMutability": "view",
            "type": "function"
        },
        {
            "inputs": [],
            "name": "totalWeight",
            "outputs": [
                {
                    "internalType": "uint256",
                    "name": "",
                    "type": "uint256"
                }
            ],
            "stateMutability": "view",
            "type": "function"
        },
        {
            "inputs": [
                {
                    "internalType": "address",
                    "name": "newOwner",
                    "type": "address"
                }
            ],
            "name": "transferOwnership",
            "outputs": [],
            "stateMutability": "nonpayable",
            "type": "function"
        },
        {
            "inputs": [
                {
                    "internalType": "uint256",
                    "name": "_bonusMultiplier",
                    "type": "uint256"
                }
            ],
            "name": "updateMultiplier",
            "outputs": [],
            "stateMutability": "nonpayable",
            "type": "function"
        },
        {
            "inputs": [
                {
                    "internalType": "uint256",
                    "name": "_pid",
                    "type": "uint256"
                }
            ],
            "name": "updatePool",
            "outputs": [],
            "stateMutability": "nonpayable",
            "type": "function"
        },
        {
            "inputs": [
                {
                    "internalType": "uint256",
                    "name": "",
                    "type": "uint256"
                },
                {
                    "internalType": "address",
                    "name": "",
                    "type": "address"
                }
            ],
            "name": "userInfo",
            "outputs": [
                {
                    "internalType": "uint256",
                    "name": "amount",
                    "type": "uint256"
                },
                {
                    "internalType": "uint256",
                    "name": "rewardDebt",
                    "type": "uint256"
                }
            ],
            "stateMutability": "view",
            "type": "function"
        },
        {
            "inputs": [],
            "name": "weight",
            "outputs": [
                {
                    "internalType": "uint256",
                    "name": "",
                    "type": "uint256"
                }
            ],
            "stateMutability": "view",
            "type": "function"
        },
        {
            "inputs": [
                {
                    "internalType": "uint256",
                    "name": "_pid",
                    "type": "uint256"
                },
                {
                    "internalType": "uint256",
                    "name": "_amount",
                    "type": "uint256"
                }
            ],
            "name": "withdraw",
            "outputs": [],
            "stateMutability": "nonpayable",
            "type": "function"
        }
    ],
    "bytecode": "60806040526934f086f3b33b68400000600f5562015180600f5462000025919062000148565b60105560016011553480156200003a57600080fd5b506200004f62000049620000f4565b620000f8565b60006200005b620000f4565b6001600160a01b038116600081815260026020526040808220805460ff19166001908117909155805480820182558184527fb10e2d527612073b26eecdfd717e6a320cf44b4afac2b0732d9fcbe2b7fa0cf60180546001600160a01b031916851790559051939450927f966c160e1c4dbc7df8d69af4ace01e9297c3cf016397b7914971f2fbfa32672d9190a350600160035562000169565b3390565b600080546001600160a01b038381166001600160a01b0319831681178455604051919092169283917f8be0079c531659141344cd1fd0a4f28419497f9722a3daafe3b4186f6b6457e09190a35050565b6000826200016457634e487b7160e01b81526012600452602481fd5b500490565b61307980620001796000396000f3fe608060405234801561001057600080fd5b506004361061027f5760003560e01c80637d500ec81161015c578063a1aab33f116100ce578063e2bbb15811610087578063e2bbb158146104f3578063e2f0edf614610506578063e8ceedbe1461050e578063f2fde38b14610521578063f4081cc514610534578063f8a44b67146105475761027f565b8063a1aab33f14610497578063a8b973a11461049f578063ac8a584a146104a7578063bfafcad5146104ba578063e06f926f146104cd578063e28d4906146104e05761027f565b80638dbb1e3a116101205780638dbb1e3a1461042d57806393f1a40b1461044057806396c82e57146104615780639870d7fe146104695780639a3073911461047c5780639a8a05921461048f5761027f565b80637d500ec8146103fa578063815b7a8c1461040257806385f2aef21461040a57806386489ba9146104125780638da5cb5b146104255761027f565b8063441a3e70116101f55780635ffe6146116101b95780635ffe6146146103b4578063630b5ba1146103c757806364482f79146103cf578063715018a6146103e257806378e97925146103ea5780637cd07e47146103f25761027f565b8063441a3e701461036b578063454b06081461037e5780634ca01d451461039157806351eb05a6146103995780635f9bf689146103ac5761027f565b8063216874441161024757806321687444146102f557806323cf311814610308578063260cf9961461031b578063392e53cd1461032e57806341441d3b146103435780634162169f146103565761027f565b8063081e3eda146102845780631058d281146102a25780631526fe27146102b757806317caf6f1146102da5780631eaaa045146102e2575b600080fd5b61028c61055a565b6040516102999190612f01565b60405180910390f35b6102b56102b036600461291f565b610560565b005b6102ca6102c536600461291f565b6107dc565b6040516102999493929190612aa3565b61028c610820565b6102b56102f036600461297e565b610826565b6102b5610303366004612873565b6108a7565b6102b5610316366004612873565b610936565b6102b5610329366004612873565b6109b9565b610336610a48565b6040516102999190612a98565b6102b561035136600461291f565b610a51565b61035e610caa565b6040516102999190612a0d565b6102b56103793660046129bf565b610cb9565b6102b561038c36600461291f565b610ee6565b61035e6111d0565b6102b56103a736600461291f565b6111df565b61028c6114d5565b6102b56103c236600461291f565b6114db565b6102b5611526565b6102b56103dd3660046129e0565b61154d565b6102b56116bf565b61028c61170a565b61035e611710565b61028c61171f565b61035e611725565b61035e611734565b6102b561042036600461288f565b611743565b61035e6119a7565b61028c61043b3660046129bf565b6119b6565b61045361044e36600461294f565b6119d7565b604051610299929190612f0a565b61028c6119fb565b6102b5610477366004612873565b611a01565b61033661048a366004612873565b611b34565b61028c611b49565b61028c611b4f565b61028c611b55565b6102b56104b5366004612873565b611b5b565b61028c6104c836600461294f565b611d7b565b6102b56104db366004612873565b611f0c565b61035e6104ee36600461291f565b611f9b565b6102b56105013660046129bf565b611fc5565b61028c6121db565b6102b561051c36600461291f565b6121e1565b6102b561052f366004612873565b6122b9565b6102b561054236600461291f565b61232a565b6102b5610555366004612873565b6123ac565b60155490565b6002600354141561058c5760405162461bcd60e51b815260040161058390612e93565b60405180910390fd5b6002600381905550600060156000815481106105b857634e487b7160e01b600052603260045260246000fd5b600091825260208083203384527f0263c2b778d062355049effc2dece97bc6547ff8a88a3258daa512061c2153dd90915260409092208054600490920290920192508311156106195760405162461bcd60e51b815260040161058390612e3c565b61062360006111df565b6000816001015464e8d4a51000846003015484600001546106449190612f99565b61064e9190612f79565b6106589190612fb8565b9050801561066a5761066a338261243b565b831561070457815461067d908590612fb8565b8255825460405163a9059cbb60e01b81526001600160a01b039091169063a9059cbb906106b09033908890600401612a7f565b602060405180830381600087803b1580156106ca57600080fd5b505af11580156106de573d6000803e3d6000fd5b505050506040513d601f19601f8201168201806040525081019061070291906128e7565b505b6003830154825464e8d4a510009161071b91612f99565b6107259190612f79565b6001830155600754604051632770a7eb60e21b81526001600160a01b0390911690639dc29fac9061075c9033908890600401612a7f565b600060405180830381600087803b15801561077657600080fd5b505af115801561078a573d6000803e3d6000fd5b505050506000336001600160a01b03167ff279e6a1f5e320cca91135676d9cb6e44ca8a08c0b88342bcdb1144f6511b568866040516107c99190612f01565b60405180910390a3505060016003555050565b601581815481106107ec57600080fd5b600091825260209091206004909102018054600182015460028301546003909301546001600160a01b039092169350919084565b60135481565b60006108306124a3565b6001600160a01b03811660009081526002602052604090205490915060ff1661086b5760405162461bcd60e51b815260040161058390612dc2565b60145460ff1661088d5760405162461bcd60e51b815260040161058390612b59565b610896836124a7565b6108a1848484612528565b50505050565b6108af6124a3565b6001600160a01b03166108c06119a7565b6001600160a01b0316146108e65760405162461bcd60e51b815260040161058390612c98565b6009546001600160a01b03828116911614156109145760405162461bcd60e51b815260040161058390612ccd565b600980546001600160a01b0319166001600160a01b0392909216919091179055565b61093e6124a3565b6001600160a01b031661094f6119a7565b6001600160a01b0316146109755760405162461bcd60e51b815260040161058390612c98565b60145460ff166109975760405162461bcd60e51b815260040161058390612d28565b600a80546001600160a01b0319166001600160a01b0392909216919091179055565b6109c16124a3565b6001600160a01b03166109d26119a7565b6001600160a01b0316146109f85760405162461bcd60e51b815260040161058390612c98565b6005546001600160a01b0382811691161415610a265760405162461bcd60e51b815260040161058390612ccd565b600580546001600160a01b0319166001600160a01b0392909216919091179055565b60145460ff1681565b60026003541415610a745760405162461bcd60e51b815260040161058390612e93565b600260038190555060006015600081548110610aa057634e487b7160e01b600052603260045260246000fd5b600091825260208083203384527f0263c2b778d062355049effc2dece97bc6547ff8a88a3258daa512061c2153dd90915260408320600490920201925090610ae7906111df565b805415610b37576000816001015464e8d4a5100084600301548460000154610b0f9190612f99565b610b199190612f79565b610b239190612fb8565b90508015610b3557610b35338261243b565b505b8215610bd35781546040516323b872dd60e01b81526001600160a01b03909116906323b872dd90610b7090339030908890600401612a5b565b602060405180830381600087803b158015610b8a57600080fd5b505af1158015610b9e573d6000803e3d6000fd5b505050506040513d601f19601f82011682018060405250810190610bc291906128e7565b508054610bd0908490612f3c565b81555b6003820154815464e8d4a5100091610bea91612f99565b610bf49190612f79565b60018201556007546040516340c10f1960e01b81526001600160a01b03909116906340c10f1990610c2b9033908790600401612a7f565b600060405180830381600087803b158015610c4557600080fd5b505af1158015610c59573d6000803e3d6000fd5b505050506000336001600160a01b03167f90890809c654f11d6e72a28fa60149770a0d11ec6c92319d6ceb2bb0a4ea1a1585604051610c989190612f01565b60405180910390a35050600160035550565b6009546001600160a01b031681565b60026003541415610cdc5760405162461bcd60e51b815260040161058390612e93565b600260035560155482908110610d045760405162461bcd60e51b815260040161058390612d95565b82610d215760405162461bcd60e51b815260040161058390612c2a565b600060158481548110610d4457634e487b7160e01b600052603260045260246000fd5b600091825260208083208784526016825260408085203386529092529220805460049092029092019250841115610d8d5760405162461bcd60e51b815260040161058390612e68565b610d96856111df565b6000816001015464e8d4a5100084600301548460000154610db79190612f99565b610dc19190612f79565b610dcb9190612fb8565b90508015610ddd57610ddd338261243b565b8415610e77578154610df0908690612fb8565b8255825460405163a9059cbb60e01b81526001600160a01b039091169063a9059cbb90610e239033908990600401612a7f565b602060405180830381600087803b158015610e3d57600080fd5b505af1158015610e51573d6000803e3d6000fd5b505050506040513d601f19601f82011682018060405250810190610e7591906128e7565b505b6003830154825464e8d4a5100091610e8e91612f99565b610e989190612f79565b6001830155604051869033907ff279e6a1f5e320cca91135676d9cb6e44ca8a08c0b88342bcdb1144f6511b56890610ed1908990612f01565b60405180910390a35050600160035550505050565b60155481908110610f095760405162461bcd60e51b815260040161058390612d95565b60145460ff16610f2b5760405162461bcd60e51b815260040161058390612d28565b600a546001600160a01b0316610f535760405162461bcd60e51b815260040161058390612c01565b600060158381548110610f7657634e487b7160e01b600052603260045260246000fd5b60009182526020822060049182020180546040516370a0823160e01b81529194506001600160a01b0316929183916370a0823191610fb691309101612a0d565b60206040518083038186803b158015610fce57600080fd5b505afa158015610fe2573d6000803e3d6000fd5b505050506040513d601f19601f820116820180604052508101906110069190612937565b600a5460405163095ea7b360e01b81529192506001600160a01b038085169263095ea7b39261103b9216908590600401612a7f565b602060405180830381600087803b15801561105557600080fd5b505af1158015611069573d6000803e3d6000fd5b505050506040513d601f19601f8201168201806040525081019061108d91906128e7565b50600a5460405163ce5494bb60e01b81526000916001600160a01b03169063ce5494bb906110bf908690600401612a0d565b602060405180830381600087803b1580156110d957600080fd5b505af11580156110ed573d6000803e3d6000fd5b505050506040513d601f19601f820116820180604052508101906111119190612903565b6040516370a0823160e01b81529091506001600160a01b038216906370a0823190611140903090600401612a0d565b60206040518083038186803b15801561115857600080fd5b505afa15801561116c573d6000803e3d6000fd5b505050506040513d601f19601f820116820180604052508101906111909190612937565b82146111ae5760405162461bcd60e51b815260040161058390612eca565b83546001600160a01b0319166001600160a01b03919091161790925550505050565b6007546001600160a01b031681565b601554819081106112025760405162461bcd60e51b815260040161058390612d95565b60006015838154811061122557634e487b7160e01b600052603260045260246000fd5b906000526020600020906004020190508060020154421161124657506114d1565b80546040516370a0823160e01b81526000916001600160a01b0316906370a0823190611276903090600401612a0d565b60206040518083038186803b15801561128e57600080fd5b505afa1580156112a2573d6000803e3d6000fd5b505050506040513d601f19601f820116820180604052508101906112c69190612937565b9050806112da5750426002909101556114d1565b60006112ea8360020154426119b6565b905060006013548460010154601054846113049190612f99565b61130e9190612f99565b6113189190612f79565b90506000650746a52880006113328364e8d4a51000612f99565b61133c9190612f79565b9050600061134b826002612f99565b905060006113598285612fb8565b6005546008546040516340c10f1960e01b81529293506001600160a01b03918216926340c10f19926113919216908790600401612a7f565b600060405180830381600087803b1580156113ab57600080fd5b505af11580156113bf573d6000803e3d6000fd5b50506005546009546040516340c10f1960e01b81526001600160a01b0392831694506340c10f1993506113fa92909116908790600401612a7f565b600060405180830381600087803b15801561141457600080fd5b505af1158015611428573d6000803e3d6000fd5b50506005546007546040516340c10f1960e01b81526001600160a01b0392831694506340c10f19935061146392909116908590600401612a7f565b600060405180830381600087803b15801561147d57600080fd5b505af1158015611491573d6000803e3d6000fd5b505050508581856114a29190612f99565b6114ac9190612f79565b87600301546114bb9190612f3c565b6003880155505042600290950194909455505050505b5050565b60105481565b60006114e56124a3565b6001600160a01b03811660009081526002602052604090205490915060ff166115205760405162461bcd60e51b815260040161058390612dc2565b50601155565b60155460005b818110156114d15761153d816111df565b61154681612fcf565b905061152c565b60006115576124a3565b6001600160a01b03811660009081526002602052604090205490915060ff166115925760405162461bcd60e51b815260040161058390612dc2565b601554849081106115b55760405162461bcd60e51b815260040161058390612d95565b60145460ff166115d75760405162461bcd60e51b815260040161058390612e05565b82156115e5576115e5611526565b60006015868154811061160857634e487b7160e01b600052603260045260246000fd5b9060005260206000209060040201600101549050846015878154811061163e57634e487b7160e01b600052603260045260246000fd5b90600052602060002090600402016001018190555084811461167e5784816013546116699190612fb8565b6116739190612f3c565b60135561167e61269a565b7fd88f859573973e938da5bf3e5100c16eee2090fa720e05ae3d452b4cd05cdcfd86866040516116af929190612f0a565b60405180910390a1505050505050565b6116c76124a3565b6001600160a01b03166116d86119a7565b6001600160a01b0316146116fe5760405162461bcd60e51b815260040161058390612c98565b611708600061279c565b565b60125481565b600a546001600160a01b031681565b600f5481565b6005546001600160a01b031681565b6008546001600160a01b031681565b61174b6124a3565b6001600160a01b031661175c6119a7565b6001600160a01b0316146117825760405162461bcd60e51b815260040161058390612c98565b60145460ff16156117a55760405162461bcd60e51b815260040161058390612b90565b600480546001600160a01b038089166001600160a01b0319928316179092556006805492881692821692909217909155600980548216339081179091556008805490921617905542601255600b849055600c8390556118048183612f3c565b600d55600e81905560048054600580546001600160a01b03199081166001600160a01b0393841617918290556006546007805483169185169190911790556040805160808101825292841683526103e86020840181815260125492850192835260006060860181815260158054600181810183559184529751979099027f55f448fdea98c4d29eb340757ef0a66cd03dbb9538908a6a81d96026b71ec47581018054989099169790961696909617909655517f55f448fdea98c4d29eb340757ef0a66cd03dbb9538908a6a81d96026b71ec47684015590517f55f448fdea98c4d29eb340757ef0a66cd03dbb9538908a6a81d96026b71ec47783015591517f55f448fdea98c4d29eb340757ef0a66cd03dbb9538908a6a81d96026b71ec478909101556014805460ff1916909317909255601391909155600c80549161194983612fcf565b9091555050600854600954600454600654600b54600e546040517f0476c5e4920930815a67a5a042e26836431f494d3be0f6e10c3034787a7a15f9966116af966001600160a01b039182169690821695908216949116929091612a21565b6000546001600160a01b031690565b6011546000906119c68484612fb8565b6119d09190612f99565b9392505050565b60166020908152600092835260408084209091529082529020805460019091015482565b600d5481565b6000611a0b6124a3565b6001600160a01b03811660009081526002602052604090205490915060ff16611a465760405162461bcd60e51b815260040161058390612dc2565b6001600160a01b038216611a6c5760405162461bcd60e51b815260040161058390612b0f565b6001600160a01b03821660009081526002602052604090205460ff1615611aa55760405162461bcd60e51b815260040161058390612d4d565b6001600160a01b038216600081815260026020526040808220805460ff19166001908117909155805480820182558184527fb10e2d527612073b26eecdfd717e6a320cf44b4afac2b0732d9fcbe2b7fa0cf60180546001600160a01b0319168517905590519092917f966c160e1c4dbc7df8d69af4ace01e9297c3cf016397b7914971f2fbfa32672d91a35050565b60026020526000908152604090205460ff1681565b600b5481565b600e5481565b60115481565b6000611b656124a3565b6001600160a01b03811660009081526002602052604090205490915060ff16611ba05760405162461bcd60e51b815260040161058390612dc2565b6001600160a01b03821660009081526002602052604090205460ff16611bd85760405162461bcd60e51b815260040161058390612bbd565b6001600160a01b0382166000908152600260205260408120805460ff191690555b60015460ff82161015611d7657826001600160a01b031660018260ff1681548110611c3457634e487b7160e01b600052603260045260246000fd5b6000918252602090912001546001600160a01b03161415611d64576001611c5b8282612f54565b60ff1681548110611c7c57634e487b7160e01b600052603260045260246000fd5b600091825260209091200154600180546001600160a01b039092169160ff8416908110611cb957634e487b7160e01b600052603260045260246000fd5b9060005260206000200160006101000a8154816001600160a01b0302191690836001600160a01b031602179055506001805480611d0657634e487b7160e01b600052603160045260246000fd5b600082815260208120820160001990810180546001600160a01b03191690559091019091556040516001600160a01b038516907f966c160e1c4dbc7df8d69af4ace01e9297c3cf016397b7914971f2fbfa32672d908390a3506114d1565b80611d6e81612fea565b915050611bf9565b505050565b60008060158481548110611d9f57634e487b7160e01b600052603260045260246000fd5b600091825260208083208784526016825260408085206001600160a01b038981168752935280852060049485029092016003810154815492516370a0823160e01b815291975092959294929391909116916370a0823191611e0291309101612a0d565b60206040518083038186803b158015611e1a57600080fd5b505afa158015611e2e573d6000803e3d6000fd5b505050506040513d601f19601f82011682018060405250810190611e529190612937565b9050836002015442118015611e6657508015155b15611ed4576000611e7b8560020154426119b6565b90506000601354866001015460105484611e959190612f99565b611e9f9190612f99565b611ea99190612f79565b905082611ebb8264e8d4a51000612f99565b611ec59190612f79565b611ecf9085612f3c565b935050505b6001830154835464e8d4a5100090611eed908590612f99565b611ef79190612f79565b611f019190612fb8565b979650505050505050565b611f146124a3565b6001600160a01b0316611f256119a7565b6001600160a01b031614611f4b5760405162461bcd60e51b815260040161058390612c98565b6008546001600160a01b0382811691161415611f795760405162461bcd60e51b815260040161058390612ccd565b600880546001600160a01b0319166001600160a01b0392909216919091179055565b60018181548110611fab57600080fd5b6000918252602090912001546001600160a01b0316905081565b60026003541415611fe85760405162461bcd60e51b815260040161058390612e93565b6002600355601554829081106120105760405162461bcd60e51b815260040161058390612d95565b8261202d5760405162461bcd60e51b815260040161058390612c61565b60006015848154811061205057634e487b7160e01b600052603260045260246000fd5b60009182526020808320878452601682526040808520338652909252922060049091029091019150612081856111df565b8054156120d1576000816001015464e8d4a51000846003015484600001546120a99190612f99565b6120b39190612f79565b6120bd9190612fb8565b905080156120cf576120cf338261243b565b505b831561216d5781546040516323b872dd60e01b81526001600160a01b03909116906323b872dd9061210a90339030908990600401612a5b565b602060405180830381600087803b15801561212457600080fd5b505af1158015612138573d6000803e3d6000fd5b505050506040513d601f19601f8201168201806040525081019061215c91906128e7565b50805461216a908590612f3c565b81555b6003820154815464e8d4a510009161218491612f99565b61218e9190612f79565b6001820155604051859033907f90890809c654f11d6e72a28fa60149770a0d11ec6c92319d6ceb2bb0a4ea1a15906121c7908890612f01565b60405180910390a350506001600355505050565b600c5481565b60006121eb6124a3565b6001600160a01b03811660009081526002602052604090205490915060ff166122265760405162461bcd60e51b815260040161058390612dc2565b60145460ff166122485760405162461bcd60e51b815260040161058390612d28565b81600e81905550600e54600d60008282546122639190612fb8565b92505081905550612278600e54600d546127ec565b7fb298bc23e07860d501fddce288f46d761aa04a0c7c3316099eb50f097aacf304600e54600d546040516122ad929190612f0a565b60405180910390a15050565b6122c16124a3565b6001600160a01b03166122d26119a7565b6001600160a01b0316146122f85760405162461bcd60e51b815260040161058390612c98565b6001600160a01b03811661231e5760405162461bcd60e51b815260040161058390612ac9565b6123278161279c565b50565b60006123346124a3565b6001600160a01b03811660009081526002602052604090205490915060ff1661236f5760405162461bcd60e51b815260040161058390612dc2565b60145460ff166123915760405162461bcd60e51b815260040161058390612d28565b81600e81905550600e54600d60008282546122639190612f3c565b6123b46124a3565b6001600160a01b03166123c56119a7565b6001600160a01b0316146123eb5760405162461bcd60e51b815260040161058390612c98565b6007546001600160a01b03828116911614156124195760405162461bcd60e51b815260040161058390612ccd565b600780546001600160a01b0319166001600160a01b0392909216919091179055565b600754604051635950a15560e11b81526001600160a01b039091169063b2a142aa9061246d9085908590600401612a7f565b600060405180830381600087803b15801561248757600080fd5b505af115801561249b573d6000803e3d6000fd5b505050505050565b3390565b60155460005b81811015611d7657826001600160a01b0316601582815481106124e057634e487b7160e01b600052603260045260246000fd5b60009182526020909120600490910201546001600160a01b031614156125185760405162461bcd60e51b815260040161058390612cfc565b61252181612fcf565b90506124ad565b801561253657612536611526565b600060125442116125495760125461254b565b425b90508360135461255b9190612f3c565b601355604080516080810182526001600160a01b0385811682526020820187815292820184815260006060840181815260158054600181018255925293517f55f448fdea98c4d29eb340757ef0a66cd03dbb9538908a6a81d96026b71ec475600490920291820180546001600160a01b031916919094161790925592517f55f448fdea98c4d29eb340757ef0a66cd03dbb9538908a6a81d96026b71ec47682015591517f55f448fdea98c4d29eb340757ef0a66cd03dbb9538908a6a81d96026b71ec477830155517f55f448fdea98c4d29eb340757ef0a66cd03dbb9538908a6a81d96026b71ec4789091015561265061269a565b6015546013546040517f20b669aa921947a6d9602a921d2db3b6b30f21b9aca98580fa3972530330b27a9161268b9184918991899190612f18565b60405180910390a15050505050565b601554600060015b828110156126fa57601581815481106126cb57634e487b7160e01b600052603260045260246000fd5b906000526020600020906004020160010154826126e89190612f3c565b91506126f381612fcf565b90506126a2565b5080156114d15761270c600382612f79565b905080601560008154811061273157634e487b7160e01b600052603260045260246000fd5b9060005260206000209060040201600101546013546127509190612fb8565b61275a9190612f3c565b60138190555080601560008154811061278357634e487b7160e01b600052603260045260246000fd5b9060005260206000209060040201600101819055505050565b600080546001600160a01b038381166001600160a01b0319831681178455604051919092169283917f8be0079c531659141344cd1fd0a4f28419497f9722a3daafe3b4186f6b6457e09190a35050565b60006127f88284612f79565b600c54909150612812826934f086f3b33b68400000612f99565b61281c9190612f79565b600f81905561282f906201518090612f79565b6010819055600f546040517fcd7c861d63893659123f817b192b8621ff1923a7c4589c260173cedcf9e986a6926128669291612f0a565b60405180910390a1505050565b600060208284031215612884578081fd5b81356119d081613020565b60008060008060008060c087890312156128a7578182fd5b86356128b281613020565b955060208701356128c281613020565b95989597505050506040840135936060810135936080820135935060a0909101359150565b6000602082840312156128f8578081fd5b81516119d081613035565b600060208284031215612914578081fd5b81516119d081613020565b600060208284031215612930578081fd5b5035919050565b600060208284031215612948578081fd5b5051919050565b60008060408385031215612961578182fd5b82359150602083013561297381613020565b809150509250929050565b600080600060608486031215612992578283fd5b8335925060208401356129a481613020565b915060408401356129b481613035565b809150509250925092565b600080604083850312156129d1578182fd5b50508035926020909101359150565b6000806000606084860312156129f4578283fd5b833592506020840135915060408401356129b481613035565b6001600160a01b0391909116815260200190565b6001600160a01b0396871681529486166020860152928516604085015293166060830152608082019290925260a081019190915260c00190565b6001600160a01b039384168152919092166020820152604081019190915260600190565b6001600160a01b03929092168252602082015260400190565b901515815260200190565b6001600160a01b0394909416845260208401929092526040830152606082015260800190565b60208082526026908201527f4f776e61626c653a206e6577206f776e657220697320746865207a65726f206160408201526564647265737360d01b606082015260800190565b6020808252602a908201527f4f70657261626c653a206e6577206f70657261746f7220697320746865207a65604082015269726f206164647265737360b01b606082015260800190565b6020808252601b908201527f636f6e7472616374206973206e6f7420696e697469616c697a65640000000000604082015260600190565b602080825260139082015272185b1c9958591e481a5b9a5d1a585b1a5e9959606a1b604082015260600190565b60208082526024908201527f4f70657261626c653a2061646472657373206973206e6f7420616e206f70657260408201526330ba37b960e11b606082015260800190565b6020808252600f908201526e1b9bc81b5a59dc985d1bdc881cd95d608a1b604082015260600190565b6020808252601a908201527f776974686472617720534f554c20627920756e7374616b696e67000000000000604082015260600190565b60208082526017908201527f6465706f73697420534f554c206279207374616b696e67000000000000000000604082015260600190565b6020808252818101527f4f776e61626c653a2063616c6c6572206973206e6f7420746865206f776e6572604082015260600190565b6020808252601590820152746d7573742062652061206e6577206164647265737360581b604082015260600190565b6020808252601290820152711859190e88195e1a5cdd1a5b99c81c1bdbdb60721b604082015260600190565b6020808252600b908201526a3737ba1039b79039b7b7b760a91b604082015260600190565b60208082526028908201527f4f70657261626c653a206164647265737320697320616c726561647920616e2060408201526737b832b930ba37b960c11b606082015260800190565b6020808252601390820152721c1bdbdb08191bd95cc81b9bdd08195e1a5cdd606a1b604082015260600190565b60208082526023908201527f4f70657261746f723a2063616c6c6572206973206e6f7420616e206f706572616040820152623a37b960e91b606082015260800190565b60208082526019908201527f6661726d696e6720686173206e6f742079657420626567756e00000000000000604082015260600190565b6020808252601290820152711dda5d1a191c985dce881b9bdd0819dbdbd960721b604082015260600190565b6020808252601190820152701dda5d1a191c985dc81b9bdd0819dbdbd9607a1b604082015260600190565b6020808252601f908201527f5265656e7472616e637947756172643a207265656e7472616e742063616c6c00604082015260600190565b6020808252601d908201527f6d6967726174653a20696e73756666696369656e742062616c616e6365000000604082015260600190565b90815260200190565b918252602082015260400190565b93845260208401929092526001600160a01b03166040830152606082015260800190565b60008219821115612f4f57612f4f61300a565b500190565b600060ff821660ff84168060ff03821115612f7157612f7161300a565b019392505050565b600082612f9457634e487b7160e01b81526012600452602481fd5b500490565b6000816000190483118215151615612fb357612fb361300a565b500290565b600082821015612fca57612fca61300a565b500390565b6000600019821415612fe357612fe361300a565b5060010190565b600060ff821660ff8114156130015761300161300a565b60010192915050565b634e487b7160e01b600052601160045260246000fd5b6001600160a01b038116811461232757600080fd5b801515811461232757600080fdfea2646970667358221220b55bc1702f8040feca9622d76fc3d740b70610fee07306f375066b2ed011950c64736f6c63430008000033",
    "sourcePath": "/Users/unico/Documents/GitHub/SoulSwap/soulswap-farms/contracts/SoulSummoner.sol",
    "compiler": {
        "name": "solc",
        "version": "0.8.0+commit.c7dfd78e"
    },
    "functionHashes": {
        "add(uint256,address,bool)": "1eaaa045",
        "addOperator(address)": "9870d7fe",
        "bonusMultiplier()": "a8b973a1",
        "chainId()": "9a8a0592",
        "dailySoul()": "7d500ec8",
        "dao()": "4162169f",
        "deposit(uint256,uint256)": "e2bbb158",
        "enterStaking(uint256)": "41441d3b",
        "gainWeight(uint256)": "f4081cc5",
        "getMultiplier(uint256,uint256)": "8dbb1e3a",
        "initialize(address,address,uint256,uint256,uint256,uint256)": "86489ba9",
        "isInitialized()": "392e53cd",
        "leaveStaking(uint256)": "1058d281",
        "loseWeight(uint256)": "e8ceedbe",
        "massUpdatePools()": "630b5ba1",
        "migrate(uint256)": "454b0608",
        "migrator()": "7cd07e47",
        "newDAO(address)": "21687444",
        "newSeance(address)": "f8a44b67",
        "newSoul(address)": "260cf996",
        "newTeam(address)": "e06f926f",
        "operator(address)": "9a307391",
        "operators(uint256)": "e28d4906",
        "owner()": "8da5cb5b",
        "pendingSoul(uint256,address)": "bfafcad5",
        "poolInfo(uint256)": "1526fe27",
        "poolLength()": "081e3eda",
        "removeOperator(address)": "ac8a584a",
        "renounceOwnership()": "715018a6",
        "seance()": "4ca01d45",
        "set(uint256,uint256,bool)": "64482f79",
        "setMigrator(address)": "23cf3118",
        "soul()": "815b7a8c",
        "soulPerSecond()": "5f9bf689",
        "startTime()": "78e97925",
        "team()": "85f2aef2",
        "totalAllocPoint()": "17caf6f1",
        "totalChains()": "e2f0edf6",
        "totalWeight()": "96c82e57",
        "transferOwnership(address)": "f2fde38b",
        "updateMultiplier(uint256)": "5ffe6146",
        "updatePool(uint256)": "51eb05a6",
        "userInfo(uint256,address)": "93f1a40b",
        "weight()": "a1aab33f",
        "withdraw(uint256,uint256)": "441a3e70"
    },
    "gasEstimates": {
        "creation": {
            "codeDepositCost": "2481800",
            "executionCost": "infinite",
            "totalCost": "infinite"
        },
        "external": {
            "add(uint256,address,bool)": "infinite",
            "addOperator(address)": "66416",
            "bonusMultiplier()": "1095",
            "chainId()": "1183",
            "dailySoul()": "1074",
            "dao()": "1226",
            "deposit(uint256,uint256)": "infinite",
            "enterStaking(uint256)": "infinite",
            "gainWeight(uint256)": "infinite",
            "getMultiplier(uint256,uint256)": "1347",
            "initialize(address,address,uint256,uint256,uint256,uint256)": "infinite",
            "isInitialized()": "1152",
            "leaveStaking(uint256)": "infinite",
            "loseWeight(uint256)": "infinite",
            "massUpdatePools()": "infinite",
            "migrate(uint256)": "infinite",
            "migrator()": "1225",
            "newDAO(address)": "22994",
            "newSeance(address)": "23102",
            "newSoul(address)": "23038",
            "newTeam(address)": "23081",
            "operator(address)": "1391",
            "operators(uint256)": "2193",
            "owner()": "1204",
            "pendingSoul(uint256,address)": "infinite",
            "poolInfo(uint256)": "4651",
            "poolLength()": "1075",
            "removeOperator(address)": "infinite",
            "renounceOwnership()": "23615",
            "seance()": "1160",
            "set(uint256,uint256,bool)": "infinite",
            "setMigrator(address)": "22986",
            "soul()": "1138",
            "soulPerSecond()": "1162",
            "startTime()": "1161",
            "team()": "1160",
            "totalAllocPoint()": "1141",
            "totalChains()": "1094",
            "totalWeight()": "1117",
            "transferOwnership(address)": "infinite",
            "updateMultiplier(uint256)": "21221",
            "updatePool(uint256)": "infinite",
            "userInfo(uint256,address)": "2249",
            "weight()": "1073",
            "withdraw(uint256,uint256)": "infinite"
        },
        "internal": {
            "addPool(uint256,contract IERC20,bool)": "infinite",
            "checkPoolDuplicate(contract IERC20)": "infinite",
            "safeSoulTransfer(address,uint256)": "infinite",
            "updateRewards(uint256,uint256)": "infinite",
            "updateStakingPool()": "infinite"
        }
    }
}