{
    "contractName": "SoulSummoner",
    "abi": [
        {
            "inputs": [],
            "stateMutability": "nonpayable",
            "type": "constructor"
        },
        {
            "anonymous": false,
            "inputs": [
                {
                    "indexed": false,
                    "internalType": "address",
                    "name": "dao",
                    "type": "address"
                },
                {
                    "indexed": false,
                    "internalType": "address",
                    "name": "team",
                    "type": "address"
                }
            ],
            "name": "AccountsUpdated",
            "type": "event"
        },
        {
            "anonymous": false,
            "inputs": [
                {
                    "indexed": true,
                    "internalType": "address",
                    "name": "user",
                    "type": "address"
                },
                {
                    "indexed": true,
                    "internalType": "uint256",
                    "name": "pid",
                    "type": "uint256"
                },
                {
                    "indexed": false,
                    "internalType": "uint256",
                    "name": "amount",
                    "type": "uint256"
                }
            ],
            "name": "Deposit",
            "type": "event"
        },
        {
            "anonymous": false,
            "inputs": [
                {
                    "indexed": false,
                    "internalType": "address",
                    "name": "team",
                    "type": "address"
                },
                {
                    "indexed": false,
                    "internalType": "address",
                    "name": "dao",
                    "type": "address"
                },
                {
                    "indexed": false,
                    "internalType": "address",
                    "name": "soul",
                    "type": "address"
                },
                {
                    "indexed": false,
                    "internalType": "address",
                    "name": "seance",
                    "type": "address"
                },
                {
                    "indexed": false,
                    "internalType": "uint256",
                    "name": "totalAllocPoint",
                    "type": "uint256"
                },
                {
                    "indexed": false,
                    "internalType": "uint256",
                    "name": "weight",
                    "type": "uint256"
                }
            ],
            "name": "Initialized",
            "type": "event"
        },
        {
            "anonymous": false,
            "inputs": [
                {
                    "indexed": true,
                    "internalType": "address",
                    "name": "previousOwner",
                    "type": "address"
                },
                {
                    "indexed": true,
                    "internalType": "address",
                    "name": "newOwner",
                    "type": "address"
                }
            ],
            "name": "OwnershipTransferred",
            "type": "event"
        },
        {
            "anonymous": false,
            "inputs": [
                {
                    "indexed": false,
                    "internalType": "uint256",
                    "name": "pid",
                    "type": "uint256"
                },
                {
                    "indexed": false,
                    "internalType": "uint256",
                    "name": "allocPoint",
                    "type": "uint256"
                },
                {
                    "indexed": false,
                    "internalType": "contract IERC20",
                    "name": "lpToken",
                    "type": "address"
                },
                {
                    "indexed": false,
                    "internalType": "uint256",
                    "name": "totalAllocPoint",
                    "type": "uint256"
                }
            ],
            "name": "PoolAdded",
            "type": "event"
        },
        {
            "anonymous": false,
            "inputs": [
                {
                    "indexed": false,
                    "internalType": "uint256",
                    "name": "pid",
                    "type": "uint256"
                },
                {
                    "indexed": false,
                    "internalType": "uint256",
                    "name": "allocPoint",
                    "type": "uint256"
                }
            ],
            "name": "PoolSet",
            "type": "event"
        },
        {
            "anonymous": false,
            "inputs": [
                {
                    "indexed": false,
                    "internalType": "uint256",
                    "name": "dailySoul",
                    "type": "uint256"
                },
                {
                    "indexed": false,
                    "internalType": "uint256",
                    "name": "soulPerSecond",
                    "type": "uint256"
                }
            ],
            "name": "RewardsUpdated",
            "type": "event"
        },
        {
            "anonymous": false,
            "inputs": [
                {
                    "indexed": true,
                    "internalType": "bytes32",
                    "name": "role",
                    "type": "bytes32"
                },
                {
                    "indexed": true,
                    "internalType": "bytes32",
                    "name": "previousAdminRole",
                    "type": "bytes32"
                },
                {
                    "indexed": true,
                    "internalType": "bytes32",
                    "name": "newAdminRole",
                    "type": "bytes32"
                }
            ],
            "name": "RoleAdminChanged",
            "type": "event"
        },
        {
            "anonymous": false,
            "inputs": [
                {
                    "indexed": false,
                    "internalType": "bytes32",
                    "name": "role",
                    "type": "bytes32"
                },
                {
                    "indexed": false,
                    "internalType": "bytes32",
                    "name": "supreme",
                    "type": "bytes32"
                }
            ],
            "name": "RoleDivinated",
            "type": "event"
        },
        {
            "anonymous": false,
            "inputs": [
                {
                    "indexed": true,
                    "internalType": "bytes32",
                    "name": "role",
                    "type": "bytes32"
                },
                {
                    "indexed": true,
                    "internalType": "address",
                    "name": "account",
                    "type": "address"
                },
                {
                    "indexed": true,
                    "internalType": "address",
                    "name": "sender",
                    "type": "address"
                }
            ],
            "name": "RoleGranted",
            "type": "event"
        },
        {
            "anonymous": false,
            "inputs": [
                {
                    "indexed": true,
                    "internalType": "bytes32",
                    "name": "role",
                    "type": "bytes32"
                },
                {
                    "indexed": true,
                    "internalType": "address",
                    "name": "account",
                    "type": "address"
                },
                {
                    "indexed": true,
                    "internalType": "address",
                    "name": "sender",
                    "type": "address"
                }
            ],
            "name": "RoleRevoked",
            "type": "event"
        },
        {
            "anonymous": false,
            "inputs": [
                {
                    "indexed": false,
                    "internalType": "address",
                    "name": "soul",
                    "type": "address"
                },
                {
                    "indexed": false,
                    "internalType": "address",
                    "name": "seance",
                    "type": "address"
                }
            ],
            "name": "TokensUpdated",
            "type": "event"
        },
        {
            "anonymous": false,
            "inputs": [
                {
                    "indexed": false,
                    "internalType": "uint256",
                    "name": "weight",
                    "type": "uint256"
                },
                {
                    "indexed": false,
                    "internalType": "uint256",
                    "name": "totalWeight",
                    "type": "uint256"
                }
            ],
            "name": "WeightUpdated",
            "type": "event"
        },
        {
            "anonymous": false,
            "inputs": [
                {
                    "indexed": true,
                    "internalType": "address",
                    "name": "user",
                    "type": "address"
                },
                {
                    "indexed": true,
                    "internalType": "uint256",
                    "name": "pid",
                    "type": "uint256"
                },
                {
                    "indexed": false,
                    "internalType": "uint256",
                    "name": "amount",
                    "type": "uint256"
                }
            ],
            "name": "Withdraw",
            "type": "event"
        },
        {
            "inputs": [],
            "name": "DEFAULT_ADMIN_ROLE",
            "outputs": [
                {
                    "internalType": "bytes32",
                    "name": "",
                    "type": "bytes32"
                }
            ],
            "stateMutability": "view",
            "type": "function"
        },
        {
            "inputs": [
                {
                    "internalType": "uint256",
                    "name": "_allocPoint",
                    "type": "uint256"
                },
                {
                    "internalType": "contract IERC20",
                    "name": "_lpToken",
                    "type": "address"
                },
                {
                    "internalType": "bool",
                    "name": "_withUpdate",
                    "type": "bool"
                }
            ],
            "name": "addPool",
            "outputs": [],
            "stateMutability": "nonpayable",
            "type": "function"
        },
        {
            "inputs": [],
            "name": "bonusMultiplier",
            "outputs": [
                {
                    "internalType": "uint256",
                    "name": "",
                    "type": "uint256"
                }
            ],
            "stateMutability": "view",
            "type": "function"
        },
        {
            "inputs": [],
            "name": "dailySoul",
            "outputs": [
                {
                    "internalType": "uint256",
                    "name": "",
                    "type": "uint256"
                }
            ],
            "stateMutability": "view",
            "type": "function"
        },
        {
            "inputs": [],
            "name": "dao",
            "outputs": [
                {
                    "internalType": "address",
                    "name": "",
                    "type": "address"
                }
            ],
            "stateMutability": "view",
            "type": "function"
        },
        {
            "inputs": [
                {
                    "internalType": "uint256",
                    "name": "pid",
                    "type": "uint256"
                },
                {
                    "internalType": "uint256",
                    "name": "amount",
                    "type": "uint256"
                }
            ],
            "name": "deposit",
            "outputs": [],
            "stateMutability": "nonpayable",
            "type": "function"
        },
        {
            "inputs": [
                {
                    "internalType": "uint256",
                    "name": "_amount",
                    "type": "uint256"
                }
            ],
            "name": "enterStaking",
            "outputs": [],
            "stateMutability": "nonpayable",
            "type": "function"
        },
        {
            "inputs": [
                {
                    "internalType": "uint256",
                    "name": "_from",
                    "type": "uint256"
                },
                {
                    "internalType": "uint256",
                    "name": "_to",
                    "type": "uint256"
                }
            ],
            "name": "getMultiplier",
            "outputs": [
                {
                    "internalType": "uint256",
                    "name": "",
                    "type": "uint256"
                }
            ],
            "stateMutability": "view",
            "type": "function"
        },
        {
            "inputs": [
                {
                    "internalType": "bytes32",
                    "name": "role",
                    "type": "bytes32"
                }
            ],
            "name": "getRoleAdmin",
            "outputs": [
                {
                    "internalType": "bytes32",
                    "name": "",
                    "type": "bytes32"
                }
            ],
            "stateMutability": "view",
            "type": "function"
        },
        {
            "inputs": [
                {
                    "internalType": "bytes32",
                    "name": "role",
                    "type": "bytes32"
                },
                {
                    "internalType": "address",
                    "name": "account",
                    "type": "address"
                }
            ],
            "name": "grantRole",
            "outputs": [],
            "stateMutability": "nonpayable",
            "type": "function"
        },
        {
            "inputs": [
                {
                    "internalType": "bytes32",
                    "name": "role",
                    "type": "bytes32"
                }
            ],
            "name": "hasDivineRole",
            "outputs": [
                {
                    "internalType": "bool",
                    "name": "",
                    "type": "bool"
                }
            ],
            "stateMutability": "view",
            "type": "function"
        },
        {
            "inputs": [
                {
                    "internalType": "bytes32",
                    "name": "role",
                    "type": "bytes32"
                },
                {
                    "internalType": "address",
                    "name": "account",
                    "type": "address"
                }
            ],
            "name": "hasRole",
            "outputs": [
                {
                    "internalType": "bool",
                    "name": "",
                    "type": "bool"
                }
            ],
            "stateMutability": "view",
            "type": "function"
        },
        {
            "inputs": [
                {
                    "internalType": "address",
                    "name": "_soulAddress",
                    "type": "address"
                },
                {
                    "internalType": "address",
                    "name": "_seanceAddress",
                    "type": "address"
                },
                {
                    "internalType": "uint256",
                    "name": "_totalWeight",
                    "type": "uint256"
                },
                {
                    "internalType": "uint256",
                    "name": "_weight",
                    "type": "uint256"
                },
                {
                    "internalType": "uint256",
                    "name": "_stakingAlloc",
                    "type": "uint256"
                }
            ],
            "name": "initialize",
            "outputs": [],
            "stateMutability": "nonpayable",
            "type": "function"
        },
        {
            "inputs": [],
            "name": "isInitialized",
            "outputs": [
                {
                    "internalType": "bool",
                    "name": "",
                    "type": "bool"
                }
            ],
            "stateMutability": "view",
            "type": "function"
        },
        {
            "inputs": [],
            "name": "isis",
            "outputs": [
                {
                    "internalType": "bytes32",
                    "name": "",
                    "type": "bytes32"
                }
            ],
            "stateMutability": "view",
            "type": "function"
        },
        {
            "inputs": [
                {
                    "internalType": "uint256",
                    "name": "amount",
                    "type": "uint256"
                }
            ],
            "name": "leaveStaking",
            "outputs": [],
            "stateMutability": "nonpayable",
            "type": "function"
        },
        {
            "inputs": [],
            "name": "maat",
            "outputs": [
                {
                    "internalType": "bytes32",
                    "name": "",
                    "type": "bytes32"
                }
            ],
            "stateMutability": "view",
            "type": "function"
        },
        {
            "inputs": [],
            "name": "massUpdatePools",
            "outputs": [],
            "stateMutability": "nonpayable",
            "type": "function"
        },
        {
            "inputs": [
                {
                    "internalType": "uint256",
                    "name": "pid",
                    "type": "uint256"
                }
            ],
            "name": "migrate",
            "outputs": [],
            "stateMutability": "nonpayable",
            "type": "function"
        },
        {
            "inputs": [],
            "name": "migrator",
            "outputs": [
                {
                    "internalType": "contract IMigrator",
                    "name": "",
                    "type": "address"
                }
            ],
            "stateMutability": "view",
            "type": "function"
        },
        {
            "inputs": [],
            "name": "owner",
            "outputs": [
                {
                    "internalType": "address",
                    "name": "",
                    "type": "address"
                }
            ],
            "stateMutability": "view",
            "type": "function"
        },
        {
            "inputs": [
                {
                    "internalType": "uint256",
                    "name": "pid",
                    "type": "uint256"
                },
                {
                    "internalType": "address",
                    "name": "_user",
                    "type": "address"
                }
            ],
            "name": "pendingSoul",
            "outputs": [
                {
                    "internalType": "uint256",
                    "name": "",
                    "type": "uint256"
                }
            ],
            "stateMutability": "view",
            "type": "function"
        },
        {
            "inputs": [
                {
                    "internalType": "uint256",
                    "name": "",
                    "type": "uint256"
                }
            ],
            "name": "poolInfo",
            "outputs": [
                {
                    "internalType": "contract IERC20",
                    "name": "lpToken",
                    "type": "address"
                },
                {
                    "internalType": "uint256",
                    "name": "allocPoint",
                    "type": "uint256"
                },
                {
                    "internalType": "uint256",
                    "name": "lastRewardTime",
                    "type": "uint256"
                },
                {
                    "internalType": "uint256",
                    "name": "accSoulPerShare",
                    "type": "uint256"
                }
            ],
            "stateMutability": "view",
            "type": "function"
        },
        {
            "inputs": [],
            "name": "poolLength",
            "outputs": [
                {
                    "internalType": "uint256",
                    "name": "",
                    "type": "uint256"
                }
            ],
            "stateMutability": "view",
            "type": "function"
        },
        {
            "inputs": [],
            "name": "renounceOwnership",
            "outputs": [],
            "stateMutability": "nonpayable",
            "type": "function"
        },
        {
            "inputs": [
                {
                    "internalType": "bytes32",
                    "name": "role",
                    "type": "bytes32"
                },
                {
                    "internalType": "address",
                    "name": "account",
                    "type": "address"
                }
            ],
            "name": "renounceRole",
            "outputs": [],
            "stateMutability": "nonpayable",
            "type": "function"
        },
        {
            "inputs": [
                {
                    "internalType": "bytes32",
                    "name": "role",
                    "type": "bytes32"
                },
                {
                    "internalType": "address",
                    "name": "account",
                    "type": "address"
                }
            ],
            "name": "revokeRole",
            "outputs": [],
            "stateMutability": "nonpayable",
            "type": "function"
        },
        {
            "inputs": [],
            "name": "seance",
            "outputs": [
                {
                    "internalType": "contract SeanceCircle",
                    "name": "",
                    "type": "address"
                }
            ],
            "stateMutability": "view",
            "type": "function"
        },
        {
            "inputs": [
                {
                    "internalType": "uint256",
                    "name": "pid",
                    "type": "uint256"
                },
                {
                    "internalType": "uint256",
                    "name": "allocPoint",
                    "type": "uint256"
                },
                {
                    "internalType": "bool",
                    "name": "withUpdate",
                    "type": "bool"
                }
            ],
            "name": "set",
            "outputs": [],
            "stateMutability": "nonpayable",
            "type": "function"
        },
        {
            "inputs": [
                {
                    "internalType": "contract IMigrator",
                    "name": "_migrator",
                    "type": "address"
                }
            ],
            "name": "setMigrator",
            "outputs": [],
            "stateMutability": "nonpayable",
            "type": "function"
        },
        {
            "inputs": [],
            "name": "soul",
            "outputs": [
                {
                    "internalType": "contract SoulPower",
                    "name": "",
                    "type": "address"
                }
            ],
            "stateMutability": "view",
            "type": "function"
        },
        {
            "inputs": [],
            "name": "soulPerSecond",
            "outputs": [
                {
                    "internalType": "uint256",
                    "name": "",
                    "type": "uint256"
                }
            ],
            "stateMutability": "view",
            "type": "function"
        },
        {
            "inputs": [],
            "name": "startTime",
            "outputs": [
                {
                    "internalType": "uint256",
                    "name": "",
                    "type": "uint256"
                }
            ],
            "stateMutability": "view",
            "type": "function"
        },
        {
            "inputs": [
                {
                    "internalType": "bytes4",
                    "name": "interfaceId",
                    "type": "bytes4"
                }
            ],
            "name": "supportsInterface",
            "outputs": [
                {
                    "internalType": "bool",
                    "name": "",
                    "type": "bool"
                }
            ],
            "stateMutability": "view",
            "type": "function"
        },
        {
            "inputs": [],
            "name": "team",
            "outputs": [
                {
                    "internalType": "address",
                    "name": "",
                    "type": "address"
                }
            ],
            "stateMutability": "view",
            "type": "function"
        },
        {
            "inputs": [],
            "name": "totalAllocPoint",
            "outputs": [
                {
                    "internalType": "uint256",
                    "name": "",
                    "type": "uint256"
                }
            ],
            "stateMutability": "view",
            "type": "function"
        },
        {
            "inputs": [],
            "name": "totalWeight",
            "outputs": [
                {
                    "internalType": "uint256",
                    "name": "",
                    "type": "uint256"
                }
            ],
            "stateMutability": "view",
            "type": "function"
        },
        {
            "inputs": [
                {
                    "internalType": "address",
                    "name": "newOwner",
                    "type": "address"
                }
            ],
            "name": "transferOwnership",
            "outputs": [],
            "stateMutability": "nonpayable",
            "type": "function"
        },
        {
            "inputs": [
                {
                    "internalType": "address",
                    "name": "_dao",
                    "type": "address"
                },
                {
                    "internalType": "address",
                    "name": "_team",
                    "type": "address"
                }
            ],
            "name": "updateAccounts",
            "outputs": [],
            "stateMutability": "nonpayable",
            "type": "function"
        },
        {
            "inputs": [
                {
                    "internalType": "uint256",
                    "name": "_bonusMultiplier",
                    "type": "uint256"
                }
            ],
            "name": "updateMultiplier",
            "outputs": [],
            "stateMutability": "nonpayable",
            "type": "function"
        },
        {
            "inputs": [
                {
                    "internalType": "uint256",
                    "name": "pid",
                    "type": "uint256"
                }
            ],
            "name": "updatePool",
            "outputs": [],
            "stateMutability": "nonpayable",
            "type": "function"
        },
        {
            "inputs": [
                {
                    "internalType": "address",
                    "name": "_soul",
                    "type": "address"
                },
                {
                    "internalType": "address",
                    "name": "_seance",
                    "type": "address"
                }
            ],
            "name": "updateTokens",
            "outputs": [],
            "stateMutability": "nonpayable",
            "type": "function"
        },
        {
            "inputs": [
                {
                    "internalType": "uint256",
                    "name": "_weight",
                    "type": "uint256"
                }
            ],
            "name": "updateWeight",
            "outputs": [],
            "stateMutability": "nonpayable",
            "type": "function"
        },
        {
            "inputs": [
                {
                    "internalType": "uint256",
                    "name": "",
                    "type": "uint256"
                },
                {
                    "internalType": "address",
                    "name": "",
                    "type": "address"
                }
            ],
            "name": "userInfo",
            "outputs": [
                {
                    "internalType": "uint256",
                    "name": "amount",
                    "type": "uint256"
                },
                {
                    "internalType": "uint256",
                    "name": "rewardDebt",
                    "type": "uint256"
                }
            ],
            "stateMutability": "view",
            "type": "function"
        },
        {
            "inputs": [],
            "name": "weight",
            "outputs": [
                {
                    "internalType": "uint256",
                    "name": "",
                    "type": "uint256"
                }
            ],
            "stateMutability": "view",
            "type": "function"
        },
        {
            "inputs": [
                {
                    "internalType": "uint256",
                    "name": "pid",
                    "type": "uint256"
                },
                {
                    "internalType": "uint256",
                    "name": "amount",
                    "type": "uint256"
                }
            ],
            "name": "withdraw",
            "outputs": [],
            "stateMutability": "nonpayable",
            "type": "function"
        }
    ],
    "bytecode": "60806040526001600e553480156200001657600080fd5b506200002b62000025620000b9565b620000bd565b60016002557f36d5d8406f8379c6deba01145ec4f6a2966675cc67d71355b397a2a8e3572b2960148190557f0811b25c145e1379dc78112dd91057f09150f6db05dfd7e04deb910e6cefd4b76015556200008990600090336200010f565b506014546200009a9080336200010f565b50620000b2601554601454336200010f60201b60201c565b5062000257565b3390565b600180546001600160a01b038381166001600160a01b0319831681179093556040519116919082907f8be0079c531659141344cd1fd0a4f28419497f9722a3daafe3b4186f6b6457e090600090a35050565b60006200011d848362000133565b62000129848462000143565b5060019392505050565b6200013f82826200018f565b5050565b806200014f8362000219565b60405184907fbd79b86ffe0ab8e8776151514217cd7cacd52c909f66475c3af44e129f0b00ff90600090a460009182526020829052604090912060010155565b6200019b82826200022e565b6200013f576000828152602081815260408083206001600160a01b03851684529091529020805460ff19166001179055620001d5620000b9565b6001600160a01b0316816001600160a01b0316837f2f8788117e7eff1d82e926ec794901d17c78024a50270940304540a733656f0d60405160405180910390a45050565b60009081526020819052604090206001015490565b6000918252602082815260408084206001600160a01b0393909316845291905290205460ff1690565b61302e80620002676000396000f3fe608060405234801561001057600080fd5b506004361061028a5760003560e01c80637cd07e471161015c578063a8b973a1116100ce578063e2bbb15811610087578063e2bbb15814610511578063e7aa29e314610524578063ea4bf44614610537578063ec3df6ad1461053f578063f2fde38b14610552578063fd6f99d0146105655761028a565b8063a8b973a1146104aa578063bfafcad5146104b2578063d13f90b4146104c5578063d547741f146104d8578063dbaef9b0146104eb578063e13e8ec2146104fe5761028a565b80638dbb1e3a116101205780638dbb1e3a1461044b57806391d148541461045e57806393f1a40b1461047157806396c82e5714610492578063a1aab33f1461049a578063a217fddf146104a25761028a565b80637cd07e47146104235780637d500ec81461042b578063815b7a8c1461043357806385f2aef21461043b5780638da5cb5b146104435761028a565b80634162169f116102005780635ffe6146116101b95780635ffe6146146103d2578063630b5ba1146103e557806364482f79146103ed578063715018a61461040057806378e97925146104085780637abceffd146104105761028a565b80634162169f14610374578063441a3e7014610389578063454b06081461039c5780634ca01d45146103af57806351eb05a6146103b75780635f9bf689146103ca5761028a565b806323cf31181161025257806323cf31181461030d578063248a9ca3146103205780632f2ff15d1461033357806336568abe14610346578063392e53cd1461035957806341441d3b146103615761028a565b806301ffc9a71461028f578063081e3eda146102b85780631058d281146102cd5780631526fe27146102e257806317caf6f114610305575b600080fd5b6102a261029d36600461289d565b61056d565b6040516102af9190612aa2565b60405180910390f35b6102c0610598565b6040516102af9190612aad565b6102e06102db366004612861565b61059e565b005b6102f56102f0366004612861565b610818565b6040516102af9493929190612ab6565b6102c061085c565b6102e061031b3660046127a1565b610862565b6102c061032e366004612861565b6108e5565b6102e0610341366004612879565b6108fa565b6102e0610354366004612879565b610923565b6102a2610969565b6102e061036f366004612861565b610972565b61037c610bc9565b6040516102af91906129fd565b6102e061039736600461293a565b610bd8565b6102e06103aa366004612861565b610e03565b61037c6110ed565b6102e06103c5366004612861565b6110fc565b6102c06113f2565b6102e06103e0366004612861565b6113f8565b6102e061140d565b6102e06103fb36600461295b565b611434565b6102e0611570565b6102c06115bb565b6102e061041e3660046128f9565b6115c1565b61037c61160c565b6102c061161b565b61037c611621565b61037c611630565b61037c61163f565b6102c061045936600461293a565b61164e565b6102a261046c366004612879565b61166f565b61048461047f366004612879565b611698565b6040516102af929190612ec1565b6102c06116bc565b6102c06116c2565b6102c06116c8565b6102c06116cd565b6102c06104c0366004612879565b6116d3565b6102e06104d33660046127f5565b611864565b6102e06104e6366004612879565b611ad9565b6102a26104f9366004612861565b611af8565b6102e061050c3660046127bd565b611b04565b6102e061051f36600461293a565b611c10565b6102e06105323660046127bd565b611e24565b6102c0611f21565b6102e061054d366004612861565b611f27565b6102e06105603660046127a1565b61202c565b6102c061209d565b60006001600160e01b03198216637965db0b60e01b14806105925750610592826120a3565b92915050565b60125490565b6002805414156105c95760405162461bcd60e51b81526004016105c090612dcd565b60405180910390fd5b60028081905550600060126000815481106105f457634e487b7160e01b600052603260045260246000fd5b600091825260208083203384527f8fa6efc3be94b5b348b21fea823fe8d100408cee9b7f90524494500445d8ff6c90915260409092208054600490920290920192508311156106555760405162461bcd60e51b81526004016105c090612d4d565b61065f60006110fc565b6000816001015464e8d4a51000846003015484600001546106809190612f2b565b61068a9190612f0b565b6106949190612f4a565b905080156106a6576106a633826120bc565b83156107405781546106b9908590612f4a565b8255825460405163a9059cbb60e01b81526001600160a01b039091169063a9059cbb906106ec9033908890600401612a89565b602060405180830381600087803b15801561070657600080fd5b505af115801561071a573d6000803e3d6000fd5b505050506040513d601f19601f8201168201806040525081019061073e9190612845565b505b6003830154825464e8d4a510009161075791612f2b565b6107619190612f0b565b6001830155600654604051632770a7eb60e21b81526001600160a01b0390911690639dc29fac906107989033908890600401612a89565b600060405180830381600087803b1580156107b257600080fd5b505af11580156107c6573d6000803e3d6000fd5b505050506000336001600160a01b03167ff279e6a1f5e320cca91135676d9cb6e44ca8a08c0b88342bcdb1144f6511b568866040516108059190612aad565b60405180910390a3505060016002555050565b6012818154811061082857600080fd5b600091825260209091206004909102018054600182015460028301546003909301546001600160a01b039092169350919084565b60105481565b60115460ff166108845760405162461bcd60e51b81526004016105c090612e8a565b61088c612124565b6001600160a01b031661089d61163f565b6001600160a01b0316146108c35760405162461bcd60e51b81526004016105c090612c4e565b600980546001600160a01b0319166001600160a01b0392909216919091179055565b60009081526020819052604090206001015490565b610903826108e5565b6109148161090f612124565b612128565b61091e838361218c565b505050565b61092b612124565b6001600160a01b0316816001600160a01b03161461095b5760405162461bcd60e51b81526004016105c090612e04565b6109658282612211565b5050565b60115460ff1681565b6002805414156109945760405162461bcd60e51b81526004016105c090612dcd565b60028081905550600060126000815481106109bf57634e487b7160e01b600052603260045260246000fd5b600091825260208083203384527f8fa6efc3be94b5b348b21fea823fe8d100408cee9b7f90524494500445d8ff6c90915260408320600490920201925090610a06906110fc565b805415610a56576000816001015464e8d4a5100084600301548460000154610a2e9190612f2b565b610a389190612f0b565b610a429190612f4a565b90508015610a5457610a5433826120bc565b505b8215610af25781546040516323b872dd60e01b81526001600160a01b03909116906323b872dd90610a8f90339030908890600401612a65565b602060405180830381600087803b158015610aa957600080fd5b505af1158015610abd573d6000803e3d6000fd5b505050506040513d601f19601f82011682018060405250810190610ae19190612845565b508054610aef908490612ef3565b81555b6003820154815464e8d4a5100091610b0991612f2b565b610b139190612f0b565b60018201556006546040516340c10f1960e01b81526001600160a01b03909116906340c10f1990610b4a9033908790600401612a89565b600060405180830381600087803b158015610b6457600080fd5b505af1158015610b78573d6000803e3d6000fd5b505050506000336001600160a01b03167f90890809c654f11d6e72a28fa60149770a0d11ec6c92319d6ceb2bb0a4ea1a1585604051610bb79190612aad565b60405180910390a35050600160025550565b6008546001600160a01b031681565b600280541415610bfa5760405162461bcd60e51b81526004016105c090612dcd565b6002805560125482908110610c215760405162461bcd60e51b81526004016105c090612ce9565b82610c3e5760405162461bcd60e51b81526004016105c090612be0565b600060128481548110610c6157634e487b7160e01b600052603260045260246000fd5b600091825260208083208784526013825260408085203386529092529220805460049092029092019250841115610caa5760405162461bcd60e51b81526004016105c090612d79565b610cb3856110fc565b6000816001015464e8d4a5100084600301548460000154610cd49190612f2b565b610cde9190612f0b565b610ce89190612f4a565b90508015610cfa57610cfa33826120bc565b8415610d94578154610d0d908690612f4a565b8255825460405163a9059cbb60e01b81526001600160a01b039091169063a9059cbb90610d409033908990600401612a89565b602060405180830381600087803b158015610d5a57600080fd5b505af1158015610d6e573d6000803e3d6000fd5b505050506040513d601f19601f82011682018060405250810190610d929190612845565b505b6003830154825464e8d4a5100091610dab91612f2b565b610db59190612f0b565b6001830155604051869033907ff279e6a1f5e320cca91135676d9cb6e44ca8a08c0b88342bcdb1144f6511b56890610dee908990612aad565b60405180910390a35050600160025550505050565b60115460ff16610e255760405162461bcd60e51b81526004016105c090612e8a565b60125481908110610e485760405162461bcd60e51b81526004016105c090612ce9565b6009546001600160a01b0316610e705760405162461bcd60e51b81526004016105c090612bb7565b600060128381548110610e9357634e487b7160e01b600052603260045260246000fd5b60009182526020822060049182020180546040516370a0823160e01b81529194506001600160a01b0316929183916370a0823191610ed3913091016129fd565b60206040518083038186803b158015610eeb57600080fd5b505afa158015610eff573d6000803e3d6000fd5b505050506040513d601f19601f82011682018060405250810190610f2391906128e1565b60095460405163095ea7b360e01b81529192506001600160a01b038085169263095ea7b392610f589216908590600401612a89565b602060405180830381600087803b158015610f7257600080fd5b505af1158015610f86573d6000803e3d6000fd5b505050506040513d601f19601f82011682018060405250810190610faa9190612845565b5060095460405163ce5494bb60e01b81526000916001600160a01b03169063ce5494bb90610fdc9086906004016129fd565b602060405180830381600087803b158015610ff657600080fd5b505af115801561100a573d6000803e3d6000fd5b505050506040513d601f19601f8201168201806040525081019061102e91906128c5565b6040516370a0823160e01b81529091506001600160a01b038216906370a082319061105d9030906004016129fd565b60206040518083038186803b15801561107557600080fd5b505afa158015611089573d6000803e3d6000fd5b505050506040513d601f19601f820116820180604052508101906110ad91906128e1565b82146110cb5760405162461bcd60e51b81526004016105c090612e53565b83546001600160a01b0319166001600160a01b03919091161790925550505050565b6006546001600160a01b031681565b6012548190811061111f5760405162461bcd60e51b81526004016105c090612ce9565b60006012838154811061114257634e487b7160e01b600052603260045260246000fd5b90600052602060002090600402019050806002015442116111635750610965565b80546040516370a0823160e01b81526000916001600160a01b0316906370a08231906111939030906004016129fd565b60206040518083038186803b1580156111ab57600080fd5b505afa1580156111bf573d6000803e3d6000fd5b505050506040513d601f19601f820116820180604052508101906111e391906128e1565b9050806111f7575042600290910155610965565b600061120783600201544261164e565b905060006010548460010154600d54846112219190612f2b565b61122b9190612f2b565b6112359190612f0b565b90506000650746a528800061124f8364e8d4a51000612f2b565b6112599190612f0b565b90506000611268826002612f2b565b905060006112768285612f4a565b600480546007546040516340c10f1960e01b81529394506001600160a01b03918216936340c10f19936112af9390921691889101612a89565b600060405180830381600087803b1580156112c957600080fd5b505af11580156112dd573d6000803e3d6000fd5b5050600480546008546040516340c10f1960e01b81526001600160a01b0392831695506340c10f199450611318939190921691889101612a89565b600060405180830381600087803b15801561133257600080fd5b505af1158015611346573d6000803e3d6000fd5b5050600480546006546040516340c10f1960e01b81526001600160a01b0392831695506340c10f199450611381939190921691869101612a89565b600060405180830381600087803b15801561139b57600080fd5b505af11580156113af573d6000803e3d6000fd5b505050508581856113c09190612f2b565b6113ca9190612f0b565b87600301546113d99190612ef3565b6003880155505042600290950194909455505050505050565b600d5481565b6015546114078161090f612124565b50600e55565b60125460005b8181101561096557611424816110fc565b61142d81612fa4565b9050611413565b60115460ff166114565760405162461bcd60e51b81526004016105c090612e8a565b601254839081106114795760405162461bcd60e51b81526004016105c090612ce9565b6015546114888161090f612124565b82156114965761149661140d565b6000601286815481106114b957634e487b7160e01b600052603260045260246000fd5b906000526020600020906004020160010154905084601287815481106114ef57634e487b7160e01b600052603260045260246000fd5b90600052602060002090600402016001018190555084811461152f57848160105461151a9190612f4a565b6115249190612ef3565b60105561152f612294565b7fd88f859573973e938da5bf3e5100c16eee2090fa720e05ae3d452b4cd05cdcfd8686604051611560929190612ec1565b60405180910390a1505050505050565b611578612124565b6001600160a01b031661158961163f565b6001600160a01b0316146115af5760405162461bcd60e51b81526004016105c090612c4e565b6115b96000612396565b565b600f5481565b60115460ff166115e35760405162461bcd60e51b81526004016105c090612e8a565b6014546115f28161090f612124565b6115fb836123e8565b611606848484612469565b50505050565b6009546001600160a01b031681565b600c5481565b6004546001600160a01b031681565b6007546001600160a01b031681565b6001546001600160a01b031690565b600e5460009061165e8484612f4a565b6116689190612f2b565b9392505050565b6000918252602082815260408084206001600160a01b0393909316845291905290205460ff1690565b60136020908152600092835260408084209091529082529020805460019091015482565b600a5481565b600b5481565b600081565b600e5481565b600080601284815481106116f757634e487b7160e01b600052603260045260246000fd5b600091825260208083208784526013825260408085206001600160a01b038981168752935280852060049485029092016003810154815492516370a0823160e01b815291975092959294929391909116916370a082319161175a913091016129fd565b60206040518083038186803b15801561177257600080fd5b505afa158015611786573d6000803e3d6000fd5b505050506040513d601f19601f820116820180604052508101906117aa91906128e1565b90508360020154421180156117be57508015155b1561182c5760006117d385600201544261164e565b905060006010548660010154600d54846117ed9190612f2b565b6117f79190612f2b565b6118019190612f0b565b9050826118138264e8d4a51000612f2b565b61181d9190612f0b565b6118279085612ef3565b935050505b6001830154835464e8d4a5100090611845908590612f2b565b61184f9190612f0b565b6118599190612f4a565b979650505050505050565b61186c612124565b6001600160a01b031661187d61163f565b6001600160a01b0316146118a35760405162461bcd60e51b81526004016105c090612c4e565b60115460ff16156118c65760405162461bcd60e51b81526004016105c090612b8a565b600380546001600160a01b038088166001600160a01b0319928316179092556005805492871692821692909217909155600880548216339081179091556007805490921617905542600f5561191b8284612ef3565b600a819055600b839055600354600480546001600160a01b039283166001600160a01b031991821617909155600554600680549190931691161790558190611964908490612576565b60408051608081018252600480546001600160a01b03908116835260208301858152600f54948401948552600060608501818152601280546001808201835591845296517fbb8a6a4669ba250d26cd7a459eca9d215f8307e33aebe50379bc5a3617ec34449790960296870180546001600160a01b031916969095169590951790935590517fbb8a6a4669ba250d26cd7a459eca9d215f8307e33aebe50379bc5a3617ec344585015593517fbb8a6a4669ba250d26cd7a459eca9d215f8307e33aebe50379bc5a3617ec3446840155517fbb8a6a4669ba250d26cd7a459eca9d215f8307e33aebe50379bc5a3617ec3447909201919091556011805460ff1916909117905560108054839290611a7b908490612ef3565b9091555050600754600854600354600554601054600b546040517f0476c5e4920930815a67a5a042e26836431f494d3be0f6e10c3034787a7a15f996611560966001600160a01b039182169690821695908216949116929091612a2b565b611ae2826108e5565b611aee8161090f612124565b61091e8383612211565b6000610592823361166f565b611b0c612124565b6001600160a01b0316611b1d61163f565b6001600160a01b031614611b435760405162461bcd60e51b81526004016105c090612c4e565b6008546001600160a01b0383811691161415611b715760405162461bcd60e51b81526004016105c090612cba565b6007546001600160a01b0382811691161415611b9f5760405162461bcd60e51b81526004016105c090612cba565b600880546001600160a01b038085166001600160a01b0319928316179283905560078054858316931692909217918290556040517fd1c04282701cbf58aa2f0026f6876051cf3feb8ee7b8b5b5532ebb4ab03fb5d493611c0493908316921690612a11565b60405180910390a15050565b600280541415611c325760405162461bcd60e51b81526004016105c090612dcd565b6002805560125482908110611c595760405162461bcd60e51b81526004016105c090612ce9565b82611c765760405162461bcd60e51b81526004016105c090612c17565b600060128481548110611c9957634e487b7160e01b600052603260045260246000fd5b60009182526020808320878452601382526040808520338652909252922060049091029091019150611cca856110fc565b805415611d1a576000816001015464e8d4a5100084600301548460000154611cf29190612f2b565b611cfc9190612f0b565b611d069190612f4a565b90508015611d1857611d1833826120bc565b505b8315611db65781546040516323b872dd60e01b81526001600160a01b03909116906323b872dd90611d5390339030908990600401612a65565b602060405180830381600087803b158015611d6d57600080fd5b505af1158015611d81573d6000803e3d6000fd5b505050506040513d601f19601f82011682018060405250810190611da59190612845565b508054611db3908590612ef3565b81555b6003820154815464e8d4a5100091611dcd91612f2b565b611dd79190612f0b565b6001820155604051859033907f90890809c654f11d6e72a28fa60149770a0d11ec6c92319d6ceb2bb0a4ea1a1590611e10908890612aad565b60405180910390a350506001600255505050565b611e2c612124565b6001600160a01b0316611e3d61163f565b6001600160a01b031614611e635760405162461bcd60e51b81526004016105c090612c4e565b6004546001600160a01b0383811691161415611e915760405162461bcd60e51b81526004016105c090612c83565b6006546001600160a01b0382811691161415611ebf5760405162461bcd60e51b81526004016105c090612c83565b600480546001600160a01b038085166001600160a01b03199283161790925560068054928416929091169190911790556040517fdcc6331013de89f8c595d5328f0a724194f113cb6f8f2a707b3dff6de13f0d1790611c049084908490612a11565b60145481565b60115460ff16611f495760405162461bcd60e51b81526004016105c090612e8a565b601554611f588161090f612124565b81600b541415611f7a5760405162461bcd60e51b81526004016105c090612d16565b81600b541015611faf576000600b5483611f949190612f4a565b905080600a6000828254611fa89190612ef3565b9091555050505b81600b541115611fe457600082600b54611fc99190612f4a565b905080600a6000828254611fdd9190612f4a565b9091555050505b600b829055600a54611ff7908390612576565b7fb298bc23e07860d501fddce288f46d761aa04a0c7c3316099eb50f097aacf304600b54600a54604051611c04929190612ec1565b612034612124565b6001600160a01b031661204561163f565b6001600160a01b03161461206b5760405162461bcd60e51b81526004016105c090612c4e565b6001600160a01b0381166120915760405162461bcd60e51b81526004016105c090612b44565b61209a81612396565b50565b60155481565b6001600160e01b031981166301ffc9a760e01b14919050565b600654604051635950a15560e11b81526001600160a01b039091169063b2a142aa906120ee9085908590600401612a89565b600060405180830381600087803b15801561210857600080fd5b505af115801561211c573d6000803e3d6000fd5b505050505050565b3390565b612132828261166f565b6109655761214a816001600160a01b031660146125ef565b6121558360206125ef565b604051602001612166929190612988565b60408051601f198184030181529082905262461bcd60e51b82526105c091600401612adc565b612196828261166f565b610965576000828152602081815260408083206001600160a01b03851684529091529020805460ff191660011790556121cd612124565b6001600160a01b0316816001600160a01b0316837f2f8788117e7eff1d82e926ec794901d17c78024a50270940304540a733656f0d60405160405180910390a45050565b61221b828261166f565b15610965576000828152602081815260408083206001600160a01b03851684529091529020805460ff19169055612250612124565b6001600160a01b0316816001600160a01b0316837ff6391f5c32d9c69d2a47ea670b442974b53935d1edc7fd64eb21e047a839171b60405160405180910390a45050565b601254600060015b828110156122f457601281815481106122c557634e487b7160e01b600052603260045260246000fd5b906000526020600020906004020160010154826122e29190612ef3565b91506122ed81612fa4565b905061229c565b50801561096557612306600382612f0b565b905080601260008154811061232b57634e487b7160e01b600052603260045260246000fd5b90600052602060002090600402016001015460105461234a9190612f4a565b6123549190612ef3565b60108190555080601260008154811061237d57634e487b7160e01b600052603260045260246000fd5b9060005260206000209060040201600101819055505050565b600180546001600160a01b038381166001600160a01b0319831681179093556040519116919082907f8be0079c531659141344cd1fd0a4f28419497f9722a3daafe3b4186f6b6457e090600090a35050565b60125460005b8181101561091e57826001600160a01b03166012828154811061242157634e487b7160e01b600052603260045260246000fd5b60009182526020909120600490910201546001600160a01b031614156124595760405162461bcd60e51b81526004016105c090612da4565b61246281612fa4565b90506123ee565b80156124775761247761140d565b82601060008282546124899190612ef3565b9250508190555060126040518060800160405280846001600160a01b03168152602001858152602001600f5442116124c357600f546124c5565b425b81526000602091820181905283546001808201865594825290829020835160049092020180546001600160a01b0319166001600160a01b039092169190911781559082015192810192909255604081015160028301556060015160039091015561252d612294565b6012546010546040517f20b669aa921947a6d9602a921d2db3b6b30f21b9aca98580fa3972530330b27a916125689184918891889190612ecf565b60405180910390a150505050565b60006125828284612f0b565b9050612598816934f086f3b33b68400000612f2b565b600c8190556125ab906201518090612f0b565b600d819055600c546040517fcd7c861d63893659123f817b192b8621ff1923a7c4589c260173cedcf9e986a6926125e29291612ec1565b60405180910390a1505050565b606060006125fe836002612f2b565b612609906002612ef3565b67ffffffffffffffff81111561262f57634e487b7160e01b600052604160045260246000fd5b6040519080825280601f01601f191660200182016040528015612659576020820181803683370190505b509050600360fc1b8160008151811061268257634e487b7160e01b600052603260045260246000fd5b60200101906001600160f81b031916908160001a905350600f60fb1b816001815181106126bf57634e487b7160e01b600052603260045260246000fd5b60200101906001600160f81b031916908160001a90535060006126e3846002612f2b565b6126ee906001612ef3565b90505b6001811115612782576f181899199a1a9b1b9c1cb0b131b232b360811b85600f166010811061273057634e487b7160e01b600052603260045260246000fd5b1a60f81b82828151811061275457634e487b7160e01b600052603260045260246000fd5b60200101906001600160f81b031916908160001a90535060049490941c9361277b81612f8d565b90506126f1565b5083156116685760405162461bcd60e51b81526004016105c090612b0f565b6000602082840312156127b2578081fd5b813561166881612fd5565b600080604083850312156127cf578081fd5b82356127da81612fd5565b915060208301356127ea81612fd5565b809150509250929050565b600080600080600060a0868803121561280c578081fd5b853561281781612fd5565b9450602086013561282781612fd5565b94979496505050506040830135926060810135926080909101359150565b600060208284031215612856578081fd5b815161166881612fea565b600060208284031215612872578081fd5b5035919050565b6000806040838503121561288b578182fd5b8235915060208301356127ea81612fd5565b6000602082840312156128ae578081fd5b81356001600160e01b031981168114611668578182fd5b6000602082840312156128d6578081fd5b815161166881612fd5565b6000602082840312156128f2578081fd5b5051919050565b60008060006060848603121561290d578283fd5b83359250602084013561291f81612fd5565b9150604084013561292f81612fea565b809150509250925092565b6000806040838503121561294c578182fd5b50508035926020909101359150565b60008060006060848603121561296f578081fd5b8335925060208401359150604084013561292f81612fea565b60007f416363657373436f6e74726f6c3a206163636f756e7420000000000000000000825283516129c0816017850160208801612f61565b7001034b99036b4b9b9b4b733903937b6329607d1b60179184019182015283516129f1816028840160208801612f61565b01602801949350505050565b6001600160a01b0391909116815260200190565b6001600160a01b0392831681529116602082015260400190565b6001600160a01b0396871681529486166020860152928516604085015293166060830152608082019290925260a081019190915260c00190565b6001600160a01b039384168152919092166020820152604081019190915260600190565b6001600160a01b03929092168252602082015260400190565b901515815260200190565b90815260200190565b6001600160a01b0394909416845260208401929092526040830152606082015260800190565b6000602082528251806020840152612afb816040850160208701612f61565b601f01601f19169190910160400192915050565b6020808252818101527f537472696e67733a20686578206c656e67746820696e73756666696369656e74604082015260600190565b60208082526026908201527f4f776e61626c653a206e6577206f776e657220697320746865207a65726f206160408201526564647265737360d01b606082015260800190565b602080825260139082015272185b1c9958591e481a5b9a5d1a585b1a5e9959606a1b604082015260600190565b6020808252600f908201526e1b9bc81b5a59dc985d1bdc881cd95d608a1b604082015260600190565b6020808252601a908201527f776974686472617720534f554c20627920756e7374616b696e67000000000000604082015260600190565b60208082526017908201527f6465706f73697420534f554c206279207374616b696e67000000000000000000604082015260600190565b6020808252818101527f4f776e61626c653a2063616c6c6572206973206e6f7420746865206f776e6572604082015260600190565b6020808252601b908201527f6d7573742062652061206e657720746f6b656e20616464726573730000000000604082015260600190565b6020808252601590820152741b5d5cdd0818994818481b995dc81858d8dbdd5b9d605a1b604082015260600190565b6020808252601390820152721c1bdbdb08191bd95cc81b9bdd08195e1a5cdd606a1b604082015260600190565b60208082526018908201527f6d757374206265206e6577207765696768742076616c75650000000000000000604082015260600190565b6020808252601290820152711dda5d1a191c985dce881b9bdd0819dbdbd960721b604082015260600190565b6020808252601190820152701dda5d1a191c985dc81b9bdd0819dbdbd9607a1b604082015260600190565b6020808252600f908201526e191d5c1b1a58d85d1959081c1bdbdb608a1b604082015260600190565b6020808252601f908201527f5265656e7472616e637947756172643a207265656e7472616e742063616c6c00604082015260600190565b6020808252602f908201527f416363657373436f6e74726f6c3a2063616e206f6e6c792072656e6f756e636560408201526e103937b632b9903337b91039b2b63360891b606082015260800190565b6020808252601d908201527f6d6967726174653a20696e73756666696369656e742062616c616e6365000000604082015260600190565b6020808252601a908201527f726577617264732068617665206e6f742079657420626567756e000000000000604082015260600190565b918252602082015260400190565b93845260208401929092526001600160a01b03166040830152606082015260800190565b60008219821115612f0657612f06612fbf565b500190565b600082612f2657634e487b7160e01b81526012600452602481fd5b500490565b6000816000190483118215151615612f4557612f45612fbf565b500290565b600082821015612f5c57612f5c612fbf565b500390565b60005b83811015612f7c578181015183820152602001612f64565b838111156116065750506000910152565b600081612f9c57612f9c612fbf565b506000190190565b6000600019821415612fb857612fb8612fbf565b5060010190565b634e487b7160e01b600052601160045260246000fd5b6001600160a01b038116811461209a57600080fd5b801515811461209a57600080fdfea2646970667358221220b32e7723044c3dce000990e8237d97d424e34042590b5d3005aa16fe3343ab7564736f6c63430008000033",
    "sourcePath": "/Users/unico/Documents/GitHub/SoulSwap/soulswap-farms/contracts/SoulSummoner.sol",
    "compiler": {
        "name": "solc",
        "version": "0.8.0+commit.c7dfd78e"
    },
    "functionHashes": {
        "DEFAULT_ADMIN_ROLE()": "a217fddf",
        "addPool(uint256,address,bool)": "7abceffd",
        "bonusMultiplier()": "a8b973a1",
        "dailySoul()": "7d500ec8",
        "dao()": "4162169f",
        "deposit(uint256,uint256)": "e2bbb158",
        "enterStaking(uint256)": "41441d3b",
        "getMultiplier(uint256,uint256)": "8dbb1e3a",
        "getRoleAdmin(bytes32)": "248a9ca3",
        "grantRole(bytes32,address)": "2f2ff15d",
        "hasDivineRole(bytes32)": "dbaef9b0",
        "hasRole(bytes32,address)": "91d14854",
        "initialize(address,address,uint256,uint256,uint256)": "d13f90b4",
        "isInitialized()": "392e53cd",
        "isis()": "ea4bf446",
        "leaveStaking(uint256)": "1058d281",
        "maat()": "fd6f99d0",
        "massUpdatePools()": "630b5ba1",
        "migrate(uint256)": "454b0608",
        "migrator()": "7cd07e47",
        "owner()": "8da5cb5b",
        "pendingSoul(uint256,address)": "bfafcad5",
        "poolInfo(uint256)": "1526fe27",
        "poolLength()": "081e3eda",
        "renounceOwnership()": "715018a6",
        "renounceRole(bytes32,address)": "36568abe",
        "revokeRole(bytes32,address)": "d547741f",
        "seance()": "4ca01d45",
        "set(uint256,uint256,bool)": "64482f79",
        "setMigrator(address)": "23cf3118",
        "soul()": "815b7a8c",
        "soulPerSecond()": "5f9bf689",
        "startTime()": "78e97925",
        "supportsInterface(bytes4)": "01ffc9a7",
        "team()": "85f2aef2",
        "totalAllocPoint()": "17caf6f1",
        "totalWeight()": "96c82e57",
        "transferOwnership(address)": "f2fde38b",
        "updateAccounts(address,address)": "e13e8ec2",
        "updateMultiplier(uint256)": "5ffe6146",
        "updatePool(uint256)": "51eb05a6",
        "updateTokens(address,address)": "e7aa29e3",
        "updateWeight(uint256)": "ec3df6ad",
        "userInfo(uint256,address)": "93f1a40b",
        "weight()": "a1aab33f",
        "withdraw(uint256,uint256)": "441a3e70"
    },
    "gasEstimates": {
        "creation": {
            "codeDepositCost": "2466800",
            "executionCost": "infinite",
            "totalCost": "infinite"
        },
        "external": {
            "DEFAULT_ADMIN_ROLE()": "383",
            "addPool(uint256,address,bool)": "infinite",
            "bonusMultiplier()": "1073",
            "dailySoul()": "1096",
            "dao()": "1116",
            "deposit(uint256,uint256)": "infinite",
            "enterStaking(uint256)": "infinite",
            "getMultiplier(uint256,uint256)": "1347",
            "getRoleAdmin(bytes32)": "1248",
            "grantRole(bytes32,address)": "infinite",
            "hasDivineRole(bytes32)": "1451",
            "hasRole(bytes32,address)": "1449",
            "initialize(address,address,uint256,uint256,uint256)": "infinite",
            "isInitialized()": "1174",
            "isis()": "1116",
            "leaveStaking(uint256)": "infinite",
            "maat()": "1182",
            "massUpdatePools()": "infinite",
            "migrate(uint256)": "infinite",
            "migrator()": "1116",
            "owner()": "1204",
            "pendingSoul(uint256,address)": "infinite",
            "poolInfo(uint256)": "4673",
            "poolLength()": "1097",
            "renounceOwnership()": "23618",
            "renounceRole(bytes32,address)": "infinite",
            "revokeRole(bytes32,address)": "infinite",
            "seance()": "1182",
            "set(uint256,uint256,bool)": "infinite",
            "setMigrator(address)": "22964",
            "soul()": "1160",
            "soulPerSecond()": "1184",
            "startTime()": "1161",
            "supportsInterface(bytes4)": "539",
            "team()": "1182",
            "totalAllocPoint()": "1163",
            "totalWeight()": "1139",
            "transferOwnership(address)": "infinite",
            "updateAccounts(address,address)": "infinite",
            "updateMultiplier(uint256)": "infinite",
            "updatePool(uint256)": "infinite",
            "updateTokens(address,address)": "infinite",
            "updateWeight(uint256)": "infinite",
            "userInfo(uint256,address)": "2271",
            "weight()": "1161",
            "withdraw(uint256,uint256)": "infinite"
        },
        "internal": {
            "_addPool(uint256,contract IERC20,bool)": "infinite",
            "_divinationCeremony(bytes32,bytes32,address)": "infinite",
            "checkPoolDuplicate(contract IERC20)": "infinite",
            "safeSoulTransfer(address,uint256)": "infinite",
            "updateRewards(uint256,uint256)": "infinite",
            "updateStakingPool()": "infinite"
        }
    }
}