{
    "contractName": "SoulPower",
    "abi": [
        {
            "inputs": [],
            "stateMutability": "nonpayable",
            "type": "constructor"
        },
        {
            "anonymous": false,
            "inputs": [
                {
                    "indexed": true,
                    "internalType": "address",
                    "name": "owner",
                    "type": "address"
                },
                {
                    "indexed": true,
                    "internalType": "address",
                    "name": "spender",
                    "type": "address"
                },
                {
                    "indexed": false,
                    "internalType": "uint256",
                    "name": "value",
                    "type": "uint256"
                }
            ],
            "name": "Approval",
            "type": "event"
        },
        {
            "anonymous": false,
            "inputs": [
                {
                    "indexed": true,
                    "internalType": "address",
                    "name": "delegator",
                    "type": "address"
                },
                {
                    "indexed": true,
                    "internalType": "address",
                    "name": "fromDelegate",
                    "type": "address"
                },
                {
                    "indexed": true,
                    "internalType": "address",
                    "name": "toDelegate",
                    "type": "address"
                }
            ],
            "name": "DelegateChanged",
            "type": "event"
        },
        {
            "anonymous": false,
            "inputs": [
                {
                    "indexed": true,
                    "internalType": "address",
                    "name": "delegate",
                    "type": "address"
                },
                {
                    "indexed": false,
                    "internalType": "uint256",
                    "name": "previousBalance",
                    "type": "uint256"
                },
                {
                    "indexed": false,
                    "internalType": "uint256",
                    "name": "newBalance",
                    "type": "uint256"
                }
            ],
            "name": "DelegateVotesChanged",
            "type": "event"
        },
        {
            "anonymous": false,
            "inputs": [
                {
                    "indexed": true,
                    "internalType": "address",
                    "name": "previousOwner",
                    "type": "address"
                },
                {
                    "indexed": true,
                    "internalType": "address",
                    "name": "newOwner",
                    "type": "address"
                }
            ],
            "name": "OwnershipTransferred",
            "type": "event"
        },
        {
            "anonymous": false,
            "inputs": [
                {
                    "indexed": true,
                    "internalType": "bytes32",
                    "name": "role",
                    "type": "bytes32"
                },
                {
                    "indexed": true,
                    "internalType": "bytes32",
                    "name": "previousAdminRole",
                    "type": "bytes32"
                },
                {
                    "indexed": true,
                    "internalType": "bytes32",
                    "name": "newAdminRole",
                    "type": "bytes32"
                }
            ],
            "name": "RoleAdminChanged",
            "type": "event"
        },
        {
            "anonymous": false,
            "inputs": [
                {
                    "indexed": false,
                    "internalType": "bytes32",
                    "name": "role",
                    "type": "bytes32"
                },
                {
                    "indexed": false,
                    "internalType": "bytes32",
                    "name": "anunnaki",
                    "type": "bytes32"
                }
            ],
            "name": "RoleDivinated",
            "type": "event"
        },
        {
            "anonymous": false,
            "inputs": [
                {
                    "indexed": true,
                    "internalType": "bytes32",
                    "name": "role",
                    "type": "bytes32"
                },
                {
                    "indexed": true,
                    "internalType": "address",
                    "name": "account",
                    "type": "address"
                },
                {
                    "indexed": true,
                    "internalType": "address",
                    "name": "sender",
                    "type": "address"
                }
            ],
            "name": "RoleGranted",
            "type": "event"
        },
        {
            "anonymous": false,
            "inputs": [
                {
                    "indexed": true,
                    "internalType": "bytes32",
                    "name": "role",
                    "type": "bytes32"
                },
                {
                    "indexed": true,
                    "internalType": "address",
                    "name": "account",
                    "type": "address"
                },
                {
                    "indexed": true,
                    "internalType": "address",
                    "name": "sender",
                    "type": "address"
                }
            ],
            "name": "RoleRevoked",
            "type": "event"
        },
        {
            "anonymous": false,
            "inputs": [
                {
                    "indexed": true,
                    "internalType": "address",
                    "name": "from",
                    "type": "address"
                },
                {
                    "indexed": true,
                    "internalType": "address",
                    "name": "to",
                    "type": "address"
                },
                {
                    "indexed": false,
                    "internalType": "uint256",
                    "name": "value",
                    "type": "uint256"
                }
            ],
            "name": "Transfer",
            "type": "event"
        },
        {
            "inputs": [],
            "name": "DEFAULT_ADMIN_ROLE",
            "outputs": [
                {
                    "internalType": "bytes32",
                    "name": "",
                    "type": "bytes32"
                }
            ],
            "stateMutability": "view",
            "type": "function"
        },
        {
            "inputs": [],
            "name": "DELEGATION_TYPEHASH",
            "outputs": [
                {
                    "internalType": "bytes32",
                    "name": "",
                    "type": "bytes32"
                }
            ],
            "stateMutability": "view",
            "type": "function"
        },
        {
            "inputs": [],
            "name": "DOMAIN_TYPEHASH",
            "outputs": [
                {
                    "internalType": "bytes32",
                    "name": "",
                    "type": "bytes32"
                }
            ],
            "stateMutability": "view",
            "type": "function"
        },
        {
            "inputs": [
                {
                    "internalType": "address",
                    "name": "owner",
                    "type": "address"
                },
                {
                    "internalType": "address",
                    "name": "spender",
                    "type": "address"
                }
            ],
            "name": "allowance",
            "outputs": [
                {
                    "internalType": "uint256",
                    "name": "",
                    "type": "uint256"
                }
            ],
            "stateMutability": "view",
            "type": "function"
        },
        {
            "inputs": [],
            "name": "anunnaki",
            "outputs": [
                {
                    "internalType": "bytes32",
                    "name": "",
                    "type": "bytes32"
                }
            ],
            "stateMutability": "view",
            "type": "function"
        },
        {
            "inputs": [
                {
                    "internalType": "address",
                    "name": "spender",
                    "type": "address"
                },
                {
                    "internalType": "uint256",
                    "name": "amount",
                    "type": "uint256"
                }
            ],
            "name": "approve",
            "outputs": [
                {
                    "internalType": "bool",
                    "name": "",
                    "type": "bool"
                }
            ],
            "stateMutability": "nonpayable",
            "type": "function"
        },
        {
            "inputs": [
                {
                    "internalType": "address",
                    "name": "account",
                    "type": "address"
                }
            ],
            "name": "balanceOf",
            "outputs": [
                {
                    "internalType": "uint256",
                    "name": "",
                    "type": "uint256"
                }
            ],
            "stateMutability": "view",
            "type": "function"
        },
        {
            "inputs": [
                {
                    "internalType": "uint256",
                    "name": "amount",
                    "type": "uint256"
                }
            ],
            "name": "burn",
            "outputs": [],
            "stateMutability": "nonpayable",
            "type": "function"
        },
        {
            "inputs": [
                {
                    "internalType": "address",
                    "name": "account",
                    "type": "address"
                },
                {
                    "internalType": "uint256",
                    "name": "amount",
                    "type": "uint256"
                }
            ],
            "name": "burnFrom",
            "outputs": [],
            "stateMutability": "nonpayable",
            "type": "function"
        },
        {
            "inputs": [
                {
                    "internalType": "address",
                    "name": "",
                    "type": "address"
                },
                {
                    "internalType": "uint256",
                    "name": "",
                    "type": "uint256"
                }
            ],
            "name": "checkpoints",
            "outputs": [
                {
                    "internalType": "uint256",
                    "name": "fromTime",
                    "type": "uint256"
                },
                {
                    "internalType": "uint256",
                    "name": "votes",
                    "type": "uint256"
                }
            ],
            "stateMutability": "view",
            "type": "function"
        },
        {
            "inputs": [],
            "name": "decimals",
            "outputs": [
                {
                    "internalType": "uint8",
                    "name": "",
                    "type": "uint8"
                }
            ],
            "stateMutability": "view",
            "type": "function"
        },
        {
            "inputs": [
                {
                    "internalType": "address",
                    "name": "spender",
                    "type": "address"
                },
                {
                    "internalType": "uint256",
                    "name": "subtractedValue",
                    "type": "uint256"
                }
            ],
            "name": "decreaseAllowance",
            "outputs": [
                {
                    "internalType": "bool",
                    "name": "",
                    "type": "bool"
                }
            ],
            "stateMutability": "nonpayable",
            "type": "function"
        },
        {
            "inputs": [
                {
                    "internalType": "address",
                    "name": "delegatee",
                    "type": "address"
                }
            ],
            "name": "delegate",
            "outputs": [],
            "stateMutability": "nonpayable",
            "type": "function"
        },
        {
            "inputs": [
                {
                    "internalType": "address",
                    "name": "delegatee",
                    "type": "address"
                },
                {
                    "internalType": "uint256",
                    "name": "nonce",
                    "type": "uint256"
                },
                {
                    "internalType": "uint256",
                    "name": "expiry",
                    "type": "uint256"
                },
                {
                    "internalType": "uint8",
                    "name": "v",
                    "type": "uint8"
                },
                {
                    "internalType": "bytes32",
                    "name": "r",
                    "type": "bytes32"
                },
                {
                    "internalType": "bytes32",
                    "name": "s",
                    "type": "bytes32"
                }
            ],
            "name": "delegateBySig",
            "outputs": [],
            "stateMutability": "nonpayable",
            "type": "function"
        },
        {
            "inputs": [
                {
                    "internalType": "address",
                    "name": "delegator",
                    "type": "address"
                }
            ],
            "name": "delegates",
            "outputs": [
                {
                    "internalType": "address",
                    "name": "",
                    "type": "address"
                }
            ],
            "stateMutability": "view",
            "type": "function"
        },
        {
            "inputs": [
                {
                    "internalType": "address",
                    "name": "account",
                    "type": "address"
                }
            ],
            "name": "getCurrentVotes",
            "outputs": [
                {
                    "internalType": "uint256",
                    "name": "",
                    "type": "uint256"
                }
            ],
            "stateMutability": "view",
            "type": "function"
        },
        {
            "inputs": [
                {
                    "internalType": "address",
                    "name": "account",
                    "type": "address"
                },
                {
                    "internalType": "uint256",
                    "name": "blockTimestamp",
                    "type": "uint256"
                }
            ],
            "name": "getPriorVotes",
            "outputs": [
                {
                    "internalType": "uint256",
                    "name": "",
                    "type": "uint256"
                }
            ],
            "stateMutability": "view",
            "type": "function"
        },
        {
            "inputs": [
                {
                    "internalType": "bytes32",
                    "name": "role",
                    "type": "bytes32"
                }
            ],
            "name": "getRoleAdmin",
            "outputs": [
                {
                    "internalType": "bytes32",
                    "name": "",
                    "type": "bytes32"
                }
            ],
            "stateMutability": "view",
            "type": "function"
        },
        {
            "inputs": [
                {
                    "internalType": "bytes32",
                    "name": "role",
                    "type": "bytes32"
                },
                {
                    "internalType": "address",
                    "name": "account",
                    "type": "address"
                }
            ],
            "name": "grantRole",
            "outputs": [],
            "stateMutability": "nonpayable",
            "type": "function"
        },
        {
            "inputs": [
                {
                    "internalType": "bytes32",
                    "name": "role",
                    "type": "bytes32"
                }
            ],
            "name": "hasDivineRole",
            "outputs": [
                {
                    "internalType": "bool",
                    "name": "",
                    "type": "bool"
                }
            ],
            "stateMutability": "view",
            "type": "function"
        },
        {
            "inputs": [
                {
                    "internalType": "bytes32",
                    "name": "role",
                    "type": "bytes32"
                },
                {
                    "internalType": "address",
                    "name": "account",
                    "type": "address"
                }
            ],
            "name": "hasRole",
            "outputs": [
                {
                    "internalType": "bool",
                    "name": "",
                    "type": "bool"
                }
            ],
            "stateMutability": "view",
            "type": "function"
        },
        {
            "inputs": [
                {
                    "internalType": "address",
                    "name": "spender",
                    "type": "address"
                },
                {
                    "internalType": "uint256",
                    "name": "addedValue",
                    "type": "uint256"
                }
            ],
            "name": "increaseAllowance",
            "outputs": [
                {
                    "internalType": "bool",
                    "name": "",
                    "type": "bool"
                }
            ],
            "stateMutability": "nonpayable",
            "type": "function"
        },
        {
            "inputs": [
                {
                    "internalType": "address",
                    "name": "_to",
                    "type": "address"
                },
                {
                    "internalType": "uint256",
                    "name": "_amount",
                    "type": "uint256"
                }
            ],
            "name": "mint",
            "outputs": [],
            "stateMutability": "nonpayable",
            "type": "function"
        },
        {
            "inputs": [],
            "name": "name",
            "outputs": [
                {
                    "internalType": "string",
                    "name": "",
                    "type": "string"
                }
            ],
            "stateMutability": "view",
            "type": "function"
        },
        {
            "inputs": [
                {
                    "internalType": "address",
                    "name": "",
                    "type": "address"
                }
            ],
            "name": "nonces",
            "outputs": [
                {
                    "internalType": "uint256",
                    "name": "",
                    "type": "uint256"
                }
            ],
            "stateMutability": "view",
            "type": "function"
        },
        {
            "inputs": [
                {
                    "internalType": "address",
                    "name": "",
                    "type": "address"
                }
            ],
            "name": "numCheckpoints",
            "outputs": [
                {
                    "internalType": "uint256",
                    "name": "",
                    "type": "uint256"
                }
            ],
            "stateMutability": "view",
            "type": "function"
        },
        {
            "inputs": [],
            "name": "owner",
            "outputs": [
                {
                    "internalType": "address",
                    "name": "",
                    "type": "address"
                }
            ],
            "stateMutability": "view",
            "type": "function"
        },
        {
            "inputs": [],
            "name": "renounceOwnership",
            "outputs": [],
            "stateMutability": "nonpayable",
            "type": "function"
        },
        {
            "inputs": [
                {
                    "internalType": "bytes32",
                    "name": "role",
                    "type": "bytes32"
                },
                {
                    "internalType": "address",
                    "name": "account",
                    "type": "address"
                }
            ],
            "name": "renounceRole",
            "outputs": [],
            "stateMutability": "nonpayable",
            "type": "function"
        },
        {
            "inputs": [
                {
                    "internalType": "bytes32",
                    "name": "role",
                    "type": "bytes32"
                },
                {
                    "internalType": "address",
                    "name": "account",
                    "type": "address"
                }
            ],
            "name": "revokeRole",
            "outputs": [],
            "stateMutability": "nonpayable",
            "type": "function"
        },
        {
            "inputs": [
                {
                    "internalType": "bytes4",
                    "name": "interfaceId",
                    "type": "bytes4"
                }
            ],
            "name": "supportsInterface",
            "outputs": [
                {
                    "internalType": "bool",
                    "name": "",
                    "type": "bool"
                }
            ],
            "stateMutability": "view",
            "type": "function"
        },
        {
            "inputs": [],
            "name": "symbol",
            "outputs": [
                {
                    "internalType": "string",
                    "name": "",
                    "type": "string"
                }
            ],
            "stateMutability": "view",
            "type": "function"
        },
        {
            "inputs": [],
            "name": "thoth",
            "outputs": [
                {
                    "internalType": "bytes32",
                    "name": "",
                    "type": "bytes32"
                }
            ],
            "stateMutability": "view",
            "type": "function"
        },
        {
            "inputs": [],
            "name": "totalSupply",
            "outputs": [
                {
                    "internalType": "uint256",
                    "name": "",
                    "type": "uint256"
                }
            ],
            "stateMutability": "view",
            "type": "function"
        },
        {
            "inputs": [
                {
                    "internalType": "address",
                    "name": "recipient",
                    "type": "address"
                },
                {
                    "internalType": "uint256",
                    "name": "amount",
                    "type": "uint256"
                }
            ],
            "name": "transfer",
            "outputs": [
                {
                    "internalType": "bool",
                    "name": "",
                    "type": "bool"
                }
            ],
            "stateMutability": "nonpayable",
            "type": "function"
        },
        {
            "inputs": [
                {
                    "internalType": "address",
                    "name": "sender",
                    "type": "address"
                },
                {
                    "internalType": "address",
                    "name": "recipient",
                    "type": "address"
                },
                {
                    "internalType": "uint256",
                    "name": "amount",
                    "type": "uint256"
                }
            ],
            "name": "transferFrom",
            "outputs": [
                {
                    "internalType": "bool",
                    "name": "",
                    "type": "bool"
                }
            ],
            "stateMutability": "nonpayable",
            "type": "function"
        },
        {
            "inputs": [
                {
                    "internalType": "address",
                    "name": "newOwner",
                    "type": "address"
                }
            ],
            "name": "transferOwnership",
            "outputs": [],
            "stateMutability": "nonpayable",
            "type": "function"
        }
    ],
    "bytecode": "60806040523480156200001157600080fd5b50604080518082018252600981526829b7bab62837bbb2b960b91b60208083019182528351808501909452600484526314d3d55360e21b9084015281519192916200005f91600391620002ba565b50805162000075906004906020840190620002ba565b505050620000926200008c6200011860201b60201c565b6200011c565b7f45552d869603260d0572333b5da740bb4eaf623685d53936ee462b64a9a771826007557fdffb0b033b8033405f5fb07b08f48c89fa1b4a3d5d5a475c3e2b8df5fbd4da0d600855620000e8600080336200016e565b50600754620000f99080336200016e565b5062000111600854600754336200016e60201b60201c565b506200039d565b3390565b600680546001600160a01b038381166001600160a01b0319831681179093556040519116919082907f8be0079c531659141344cd1fd0a4f28419497f9722a3daafe3b4186f6b6457e090600090a35050565b60006200017c848362000192565b620001888484620001a2565b5060019392505050565b6200019e8282620001ee565b5050565b80620001ae836200027a565b60405184907fbd79b86ffe0ab8e8776151514217cd7cacd52c909f66475c3af44e129f0b00ff90600090a460009182526005602052604090912060010155565b620001fa82826200028f565b6200019e5760008281526005602090815260408083206001600160a01b03851684529091529020805460ff191660011790556200023662000118565b6001600160a01b0316816001600160a01b0316837f2f8788117e7eff1d82e926ec794901d17c78024a50270940304540a733656f0d60405160405180910390a45050565b60009081526005602052604090206001015490565b60009182526005602090815260408084206001600160a01b0393909316845291905290205460ff1690565b828054620002c89062000360565b90600052602060002090601f016020900481019282620002ec576000855562000337565b82601f106200030757805160ff191683800117855562000337565b8280016001018555821562000337579182015b82811115620003375782518255916020019190600101906200031a565b506200034592915062000349565b5090565b5b808211156200034557600081556001016200034a565b6002810460018216806200037557607f821691505b602082108114156200039757634e487b7160e01b600052602260045260246000fd5b50919050565b61231380620003ad6000396000f3fe608060405234801561001057600080fd5b50600436106102275760003560e01c806370a0823111610130578063a457c2d7116100b8578063d547741f1161007c578063d547741f14610478578063dbaef9b01461048b578063dd62ed3e1461049e578063e7a324dc146104b1578063f2fde38b146104b957610227565b8063a457c2d714610424578063a6ed77ee14610437578063a9059cbb1461043f578063b4b5ea5714610452578063c3cda5201461046557610227565b80637ecebe00116100ff5780637ecebe00146103e65780638da5cb5b146103f957806391d148541461040157806395d89b4114610414578063a217fddf1461041c57610227565b806370a08231146103a5578063715018a6146103b8578063782d6fe1146103c057806379cc6790146103d357610227565b80632f2ff15d116101b357806340c10f191161018257806340c10f191461033957806342966c681461034c578063587cde1e1461035f5780635c19a95c1461037f5780636fcfff451461039257610227565b80632f2ff15d146102e9578063313ce567146102fe57806336568abe14610313578063395093511461032657610227565b8063155dfb50116101fa578063155dfb501461029e57806318160ddd146102b357806320606b70146102bb57806323b872dd146102c3578063248a9ca3146102d657610227565b806301ffc9a71461022c57806306fdde0314610255578063095ea7b31461026a5780630cdfebfa1461027d575b600080fd5b61023f61023a366004611b00565b6104cc565b60405161024c9190611bcc565b60405180910390f35b61025d6104f9565b60405161024c9190611c46565b61023f610278366004611a3f565b61058b565b61029061028b366004611a3f565b6105a9565b60405161024c92919061216c565b6102a66105cd565b60405161024c9190611bd7565b6102a66105d3565b6102a66105d9565b61023f6102d1366004611a04565b6105fd565b6102a66102e4366004611ac6565b61069d565b6102fc6102f7366004611ade565b6106b2565b005b6103066106db565b60405161024c919061217a565b6102fc610321366004611ade565b6106e0565b61023f610334366004611a3f565b610726565b6102fc610347366004611a3f565b610775565b6102fc61035a366004611ac6565b6107b3565b61037261036d3660046119b8565b6107fe565b60405161024c9190611bb8565b6102fc61038d3660046119b8565b61081c565b6102a66103a03660046119b8565b610826565b6102a66103b33660046119b8565b610838565b6102fc610853565b6102a66103ce366004611a3f565b61089e565b6102fc6103e1366004611a3f565b610a80565b6102a66103f43660046119b8565b610af6565b610372610b08565b61023f61040f366004611ade565b610b17565b61025d610b42565b6102a6610b51565b61023f610432366004611a3f565b610b56565b6102a6610bd1565b61023f61044d366004611a3f565b610bd7565b6102a66104603660046119b8565b610beb565b6102fc610473366004611a68565b610c4e565b6102fc610486366004611ade565b610e29565b61023f610499366004611ac6565b610e48565b6102a66104ac3660046119d2565b610e54565b6102a6610e7f565b6102fc6104c73660046119b8565b610ea3565b60006001600160e01b03198216637965db0b60e01b14806104f157506104f182610f11565b90505b919050565b60606003805461050890612239565b80601f016020809104026020016040519081016040528092919081815260200182805461053490612239565b80156105815780601f1061055657610100808354040283529160200191610581565b820191906000526020600020905b81548152906001019060200180831161056457829003601f168201915b5050505050905090565b600061059f610598610f2a565b8484610f2e565b5060015b92915050565b600a6020908152600092835260408084209091529082529020805460019091015482565b60075481565b60025490565b7f797cfab58fcb15f590eb8e4252d5c228ff88f94f907e119e80c4393a946e8f3581565b600061060a848484610fe2565b6001600160a01b03841660009081526001602052604081208161062b610f2a565b6001600160a01b03166001600160a01b03168152602001908152602001600020549050828110156106775760405162461bcd60e51b815260040161066e90611e89565b60405180910390fd5b61069285610683610f2a565b61068d86856121df565b610f2e565b506001949350505050565b60009081526005602052604090206001015490565b6106bb8261069d565b6106cc816106c7610f2a565b611115565b6106d68383611179565b505050565b601290565b6106e8610f2a565b6001600160a01b0316816001600160a01b0316146107185760405162461bcd60e51b815260040161066e906120e6565b6107228282611200565b5050565b600061059f610733610f2a565b848460016000610741610f2a565b6001600160a01b03908116825260208083019390935260409182016000908120918b168152925290205461068d9190612188565b600854610784816106c7610f2a565b61078e8383611285565b6001600160a01b038084166000908152600960205260408120546106d692168461134d565b6107c46107be610f2a565b82611488565b6107fb600960006107d3610f2a565b6001600160a01b0390811682526020820192909252604001600090812054909116908361134d565b50565b6001600160a01b039081166000908152600960205260409020541690565b6107fb3382611582565b600b6020526000908152604090205481565b6001600160a01b031660009081526020819052604090205490565b61085b610f2a565b6001600160a01b031661086c610b08565b6001600160a01b0316146108925760405162461bcd60e51b815260040161066e90611f18565b61089c6000611611565b565b60004282106108bf5760405162461bcd60e51b815260040161066e90611ed1565b6001600160a01b0383166000908152600b6020526040902054806108e75760009150506105a3565b6001600160a01b0384166000908152600a60205260408120849161090c6001856121df565b81526020019081526020016000206000015411610961576001600160a01b0384166000908152600a60205260408120906109476001846121df565b8152602001908152602001600020600101549150506105a3565b6001600160a01b0384166000908152600a602090815260408083208380529091529020548310156109965760009150506105a3565b6000806109a46001846121df565b90505b81811115610a5057600060026109bd84846121df565b6109c791906121a0565b6109d190836121df565b6001600160a01b0388166000908152600a60209081526040808320848452825291829020825180840190935280548084526001909101549183019190915291925090871415610a2a576020015194506105a39350505050565b8051871115610a3b57819350610a49565b610a466001836121df565b92505b50506109a7565b506001600160a01b0385166000908152600a60209081526040808320938352929052206001015491505092915050565b6000610a8e836104ac610f2a565b905081811015610ab05760405162461bcd60e51b815260040161066e90611f4d565b610ac683610abc610f2a565b61068d85856121df565b610ad08383611488565b6001600160a01b038084166000908152600960205260408120546106d69216908461134d565b600c6020526000908152604090205481565b6006546001600160a01b031690565b60009182526005602090815260408084206001600160a01b0393909316845291905290205460ff1690565b60606004805461050890612239565b600081565b60008060016000610b65610f2a565b6001600160a01b0390811682526020808301939093526040918201600090812091881681529252902054905082811015610bb15760405162461bcd60e51b815260040161066e906120a1565b610bc7610bbc610f2a565b8561068d86856121df565b5060019392505050565b60085481565b600061059f610be4610f2a565b8484610fe2565b6001600160a01b0381166000908152600b602052604081205480610c10576000610c47565b6001600160a01b0383166000908152600a6020526040812090610c346001846121df565b8152602001908152602001600020600101545b9392505050565b60007f797cfab58fcb15f590eb8e4252d5c228ff88f94f907e119e80c4393a946e8f35610c796104f9565b80519060200120610c88611663565b30604051602001610c9c9493929190611c04565b60405160208183030381529060405280519060200120905060007f1ac861a6a8532f3704e1768564a53a32774f00d6cf20ccbbdf60ab61378302bc888888604051602001610ced9493929190611be0565b60405160208183030381529060405280519060200120905060008282604051602001610d1a929190611b28565b604051602081830303815290604052805190602001209050600060018288888860405160008152602001604052604051610d579493929190611c28565b6020604051602081039080840390855afa158015610d79573d6000803e3d6000fd5b5050604051601f1901519150506001600160a01b038116610dac5760405162461bcd60e51b815260040161066e90611e43565b6001600160a01b0381166000908152600c60205260408120805491610dd083612274565b919050558914610df25760405162461bcd60e51b815260040161066e90611dbb565b87421115610e125760405162461bcd60e51b815260040161066e9061205b565b610e1c818b611582565b505050505b505050505050565b610e328261069d565b610e3e816106c7610f2a565b6106d68383611200565b60006104f18233610b17565b6001600160a01b03918216600090815260016020908152604080832093909416825291909152205490565b7f1ac861a6a8532f3704e1768564a53a32774f00d6cf20ccbbdf60ab61378302bc81565b610eab610f2a565b6001600160a01b0316610ebc610b08565b6001600160a01b031614610ee25760405162461bcd60e51b815260040161066e90611f18565b6001600160a01b038116610f085760405162461bcd60e51b815260040161066e90611d33565b6107fb81611611565b6001600160e01b031981166301ffc9a760e01b14919050565b3390565b6001600160a01b038316610f545760405162461bcd60e51b815260040161066e90612017565b6001600160a01b038216610f7a5760405162461bcd60e51b815260040161066e90611d79565b6001600160a01b0380841660008181526001602090815260408083209487168084529490915290819020849055517f8c5be1e5ebec7d5bd14f71427d1e84f3dd0314c0f7b2291e5b200ac8c7c3b92590610fd5908590611bd7565b60405180910390a3505050565b6001600160a01b0383166110085760405162461bcd60e51b815260040161066e90611fd2565b6001600160a01b03821661102e5760405162461bcd60e51b815260040161066e90611cae565b6110398383836106d6565b6001600160a01b038316600090815260208190526040902054818110156110725760405162461bcd60e51b815260040161066e90611dfd565b61107c82826121df565b6001600160a01b0380861660009081526020819052604080822093909355908516815290812080548492906110b2908490612188565b92505081905550826001600160a01b0316846001600160a01b03167fddf252ad1be2c89b69c2b068fc378daa952ba7f163c4a11628f55a4df523b3ef846040516110fc9190611bd7565b60405180910390a361110f8484846106d6565b50505050565b61111f8282610b17565b61072257611137816001600160a01b03166014611667565b611142836020611667565b604051602001611153929190611b43565b60408051601f198184030181529082905262461bcd60e51b825261066e91600401611c46565b6111838282610b17565b6107225760008281526005602090815260408083206001600160a01b03851684529091529020805460ff191660011790556111bc610f2a565b6001600160a01b0316816001600160a01b0316837f2f8788117e7eff1d82e926ec794901d17c78024a50270940304540a733656f0d60405160405180910390a45050565b61120a8282610b17565b156107225760008281526005602090815260408083206001600160a01b03851684529091529020805460ff19169055611241610f2a565b6001600160a01b0316816001600160a01b0316837ff6391f5c32d9c69d2a47ea670b442974b53935d1edc7fd64eb21e047a839171b60405160405180910390a45050565b6001600160a01b0382166112ab5760405162461bcd60e51b815260040161066e90612135565b6112b7600083836106d6565b80600260008282546112c99190612188565b90915550506001600160a01b038216600090815260208190526040812080548392906112f6908490612188565b90915550506040516001600160a01b038316906000907fddf252ad1be2c89b69c2b068fc378daa952ba7f163c4a11628f55a4df523b3ef90611339908590611bd7565b60405180910390a3610722600083836106d6565b816001600160a01b0316836001600160a01b03161415801561136f5750600081115b156106d6576001600160a01b03831615611400576001600160a01b0383166000908152600b602052604081205490816113a95760006113e0565b6001600160a01b0385166000908152600a60205260408120906113cd6001856121df565b8152602001908152602001600020600101545b905060006113ee84836121df565b90506113fc86848484611819565b5050505b6001600160a01b038216156106d6576001600160a01b0382166000908152600b6020526040812054908161143557600061146c565b6001600160a01b0384166000908152600a60205260408120906114596001856121df565b8152602001908152602001600020600101545b9050600061147a8483612188565b9050610e2185848484611819565b6001600160a01b0382166114ae5760405162461bcd60e51b815260040161066e90611f91565b6114ba826000836106d6565b6001600160a01b038216600090815260208190526040902054818110156114f35760405162461bcd60e51b815260040161066e90611cf1565b6114fd82826121df565b6001600160a01b0384166000908152602081905260408120919091556002805484929061152b9084906121df565b90915550506040516000906001600160a01b038516907fddf252ad1be2c89b69c2b068fc378daa952ba7f163c4a11628f55a4df523b3ef9061156e908690611bd7565b60405180910390a36106d6836000846106d6565b6001600160a01b03808316600090815260096020526040812054909116906115a984610838565b6001600160a01b0385811660008181526009602052604080822080546001600160a01b031916898616908117909155905194955093928616927f3134e8a2e6d97e929a7e54011ea5485d7d196dd5f0ba4d4ef95803e8e3fc257f9190a461110f82848361134d565b600680546001600160a01b038381166001600160a01b0319831681179093556040519116919082907f8be0079c531659141344cd1fd0a4f28419497f9722a3daafe3b4186f6b6457e090600090a35050565b4690565b606060006116768360026121c0565b611681906002612188565b67ffffffffffffffff8111156116a757634e487b7160e01b600052604160045260246000fd5b6040519080825280601f01601f1916602001820160405280156116d1576020820181803683370190505b509050600360fc1b816000815181106116fa57634e487b7160e01b600052603260045260246000fd5b60200101906001600160f81b031916908160001a905350600f60fb1b8160018151811061173757634e487b7160e01b600052603260045260246000fd5b60200101906001600160f81b031916908160001a905350600061175b8460026121c0565b611766906001612188565b90505b60018111156117fa576f181899199a1a9b1b9c1cb0b131b232b360811b85600f16601081106117a857634e487b7160e01b600052603260045260246000fd5b1a60f81b8282815181106117cc57634e487b7160e01b600052603260045260246000fd5b60200101906001600160f81b031916908160001a90535060049490941c936117f381612222565b9050611769565b508315610c475760405162461bcd60e51b815260040161066e90611c79565b600061183d426040518060600160405280603881526020016122a660389139611974565b905060008411801561188357506001600160a01b0385166000908152600a60205260408120829161186f6001886121df565b815260200190815260200160002060000154145b156118c6576001600160a01b0385166000908152600a6020526040812083916118ad6001886121df565b815260208101919091526040016000206001015561192a565b60408051808201825282815260208082018581526001600160a01b0389166000908152600a8352848120898252909252929020905181559051600191820155611910908590612188565b6001600160a01b0386166000908152600b60205260409020555b846001600160a01b03167fdec2bacdd2f05b59de34da9b523dff8be42e5e38e818c82fdb0bae774387a724848460405161196592919061216c565b60405180910390a25050505050565b60008160001984106119995760405162461bcd60e51b815260040161066e9190611c46565b509192915050565b80356001600160a01b03811681146104f457600080fd5b6000602082840312156119c9578081fd5b610c47826119a1565b600080604083850312156119e4578081fd5b6119ed836119a1565b91506119fb602084016119a1565b90509250929050565b600080600060608486031215611a18578081fd5b611a21846119a1565b9250611a2f602085016119a1565b9150604084013590509250925092565b60008060408385031215611a51578182fd5b611a5a836119a1565b946020939093013593505050565b60008060008060008060c08789031215611a80578182fd5b611a89876119a1565b95506020870135945060408701359350606087013560ff81168114611aac578283fd5b9598949750929560808101359460a0909101359350915050565b600060208284031215611ad7578081fd5b5035919050565b60008060408385031215611af0578182fd5b823591506119fb602084016119a1565b600060208284031215611b11578081fd5b81356001600160e01b031981168114610c47578182fd5b61190160f01b81526002810192909252602282015260420190565b60007f416363657373436f6e74726f6c3a206163636f756e742000000000000000000082528351611b7b8160178501602088016121f6565b7001034b99036b4b9b9b4b733903937b6329607d1b6017918401918201528351611bac8160288401602088016121f6565b01602801949350505050565b6001600160a01b0391909116815260200190565b901515815260200190565b90815260200190565b9384526001600160a01b039290921660208401526040830152606082015260800190565b938452602084019290925260408301526001600160a01b0316606082015260800190565b93845260ff9290921660208401526040830152606082015260800190565b6000602082528251806020840152611c658160408501602087016121f6565b601f01601f19169190910160400192915050565b6020808252818101527f537472696e67733a20686578206c656e67746820696e73756666696369656e74604082015260600190565b60208082526023908201527f45524332303a207472616e7366657220746f20746865207a65726f206164647260408201526265737360e81b606082015260800190565b60208082526022908201527f45524332303a206275726e20616d6f756e7420657863656564732062616c616e604082015261636560f01b606082015260800190565b60208082526026908201527f4f776e61626c653a206e6577206f776e657220697320746865207a65726f206160408201526564647265737360d01b606082015260800190565b60208082526022908201527f45524332303a20617070726f766520746f20746865207a65726f206164647265604082015261737360f01b606082015260800190565b60208082526022908201527f534f554c3a3a64656c656761746542795369673a20696e76616c6964206e6f6e604082015261636560f01b606082015260800190565b60208082526026908201527f45524332303a207472616e7366657220616d6f756e7420657863656564732062604082015265616c616e636560d01b606082015260800190565b60208082526026908201527f534f554c3a3a64656c656761746542795369673a20696e76616c6964207369676040820152656e617475726560d01b606082015260800190565b60208082526028908201527f45524332303a207472616e7366657220616d6f756e74206578636565647320616040820152676c6c6f77616e636560c01b606082015260800190565b60208082526027908201527f534f554c3a3a6765745072696f72566f7465733a206e6f742079657420646574604082015266195c9b5a5b995960ca1b606082015260800190565b6020808252818101527f4f776e61626c653a2063616c6c6572206973206e6f7420746865206f776e6572604082015260600190565b60208082526024908201527f45524332303a206275726e20616d6f756e74206578636565647320616c6c6f77604082015263616e636560e01b606082015260800190565b60208082526021908201527f45524332303a206275726e2066726f6d20746865207a65726f206164647265736040820152607360f81b606082015260800190565b60208082526025908201527f45524332303a207472616e736665722066726f6d20746865207a65726f206164604082015264647265737360d81b606082015260800190565b60208082526024908201527f45524332303a20617070726f76652066726f6d20746865207a65726f206164646040820152637265737360e01b606082015260800190565b60208082526026908201527f534f554c3a3a64656c656761746542795369673a207369676e617475726520656040820152651e1c1a5c995960d21b606082015260800190565b60208082526025908201527f45524332303a2064656372656173656420616c6c6f77616e63652062656c6f77604082015264207a65726f60d81b606082015260800190565b6020808252602f908201527f416363657373436f6e74726f6c3a2063616e206f6e6c792072656e6f756e636560408201526e103937b632b9903337b91039b2b63360891b606082015260800190565b6020808252601f908201527f45524332303a206d696e7420746f20746865207a65726f206164647265737300604082015260600190565b918252602082015260400190565b60ff91909116815260200190565b6000821982111561219b5761219b61228f565b500190565b6000826121bb57634e487b7160e01b81526012600452602481fd5b500490565b60008160001904831182151516156121da576121da61228f565b500290565b6000828210156121f1576121f161228f565b500390565b60005b838110156122115781810151838201526020016121f9565b8381111561110f5750506000910152565b6000816122315761223161228f565b506000190190565b60028104600182168061224d57607f821691505b6020821081141561226e57634e487b7160e01b600052602260045260246000fd5b50919050565b60006000198214156122885761228861228f565b5060010190565b634e487b7160e01b600052601160045260246000fdfe534f554c3a3a5f7772697465436865636b706f696e743a20626c6f636b2074696d657374616d702065786365656473203235362062697473a264697066735822122029487d9abc490995f319739cbec26b86cddeb895ce8f5e5c9e1c541604cf240f64736f6c63430008000033",
    "sourcePath": "/Users/unico/Documents/GitHub/SoulSwap/soulswap-farms/contracts/SoulPower.sol",
    "compiler": {
        "name": "solc",
        "version": "0.8.0+commit.c7dfd78e"
    },
    "functionHashes": {
        "DEFAULT_ADMIN_ROLE()": "a217fddf",
        "DELEGATION_TYPEHASH()": "e7a324dc",
        "DOMAIN_TYPEHASH()": "20606b70",
        "allowance(address,address)": "dd62ed3e",
        "anunnaki()": "155dfb50",
        "approve(address,uint256)": "095ea7b3",
        "balanceOf(address)": "70a08231",
        "burn(uint256)": "42966c68",
        "burnFrom(address,uint256)": "79cc6790",
        "checkpoints(address,uint256)": "0cdfebfa",
        "decimals()": "313ce567",
        "decreaseAllowance(address,uint256)": "a457c2d7",
        "delegate(address)": "5c19a95c",
        "delegateBySig(address,uint256,uint256,uint8,bytes32,bytes32)": "c3cda520",
        "delegates(address)": "587cde1e",
        "getCurrentVotes(address)": "b4b5ea57",
        "getPriorVotes(address,uint256)": "782d6fe1",
        "getRoleAdmin(bytes32)": "248a9ca3",
        "grantRole(bytes32,address)": "2f2ff15d",
        "hasDivineRole(bytes32)": "dbaef9b0",
        "hasRole(bytes32,address)": "91d14854",
        "increaseAllowance(address,uint256)": "39509351",
        "mint(address,uint256)": "40c10f19",
        "name()": "06fdde03",
        "nonces(address)": "7ecebe00",
        "numCheckpoints(address)": "6fcfff45",
        "owner()": "8da5cb5b",
        "renounceOwnership()": "715018a6",
        "renounceRole(bytes32,address)": "36568abe",
        "revokeRole(bytes32,address)": "d547741f",
        "supportsInterface(bytes4)": "01ffc9a7",
        "symbol()": "95d89b41",
        "thoth()": "a6ed77ee",
        "totalSupply()": "18160ddd",
        "transfer(address,uint256)": "a9059cbb",
        "transferFrom(address,address,uint256)": "23b872dd",
        "transferOwnership(address)": "f2fde38b"
    },
    "gasEstimates": {
        "creation": {
            "codeDepositCost": "1795800",
            "executionCost": "infinite",
            "totalCost": "infinite"
        },
        "external": {
            "DEFAULT_ADMIN_ROLE()": "361",
            "DELEGATION_TYPEHASH()": "338",
            "DOMAIN_TYPEHASH()": "318",
            "allowance(address,address)": "infinite",
            "anunnaki()": "1074",
            "approve(address,uint256)": "22675",
            "balanceOf(address)": "1319",
            "burn(uint256)": "infinite",
            "burnFrom(address,uint256)": "infinite",
            "checkpoints(address,uint256)": "2291",
            "decimals()": "308",
            "decreaseAllowance(address,uint256)": "infinite",
            "delegate(address)": "infinite",
            "delegateBySig(address,uint256,uint256,uint8,bytes32,bytes32)": "infinite",
            "delegates(address)": "1392",
            "getCurrentVotes(address)": "infinite",
            "getPriorVotes(address,uint256)": "infinite",
            "getRoleAdmin(bytes32)": "1311",
            "grantRole(bytes32,address)": "infinite",
            "hasDivineRole(bytes32)": "1391",
            "hasRole(bytes32,address)": "1475",
            "increaseAllowance(address,uint256)": "infinite",
            "mint(address,uint256)": "infinite",
            "name()": "infinite",
            "nonces(address)": "1297",
            "numCheckpoints(address)": "1385",
            "owner()": "1137",
            "renounceOwnership()": "23575",
            "renounceRole(bytes32,address)": "infinite",
            "revokeRole(bytes32,address)": "infinite",
            "supportsInterface(bytes4)": "543",
            "symbol()": "infinite",
            "thoth()": "1095",
            "totalSupply()": "1096",
            "transfer(address,uint256)": "infinite",
            "transferFrom(address,address,uint256)": "infinite",
            "transferOwnership(address)": "23834"
        },
        "internal": {
            "_delegate(address,address)": "infinite",
            "_divinationCeremony(bytes32,bytes32,address)": "infinite",
            "_moveDelegates(address,address,uint256)": "infinite",
            "_writeCheckpoint(address,uint256,uint256,uint256)": "infinite",
            "getChainId()": "14",
            "safe256(uint256,string memory)": "infinite"
        }
    }
}