{
    "contractName": "SoulSummoner",
    "abi": [
        {
            "inputs": [],
            "stateMutability": "nonpayable",
            "type": "constructor"
        },
        {
            "anonymous": false,
            "inputs": [
                {
                    "indexed": false,
                    "internalType": "address",
                    "name": "dao",
                    "type": "address"
                },
                {
                    "indexed": false,
                    "internalType": "address",
                    "name": "team",
                    "type": "address"
                }
            ],
            "name": "AccountsUpdated",
            "type": "event"
        },
        {
            "anonymous": false,
            "inputs": [
                {
                    "indexed": true,
                    "internalType": "address",
                    "name": "user",
                    "type": "address"
                },
                {
                    "indexed": true,
                    "internalType": "uint256",
                    "name": "pid",
                    "type": "uint256"
                },
                {
                    "indexed": false,
                    "internalType": "uint256",
                    "name": "amount",
                    "type": "uint256"
                }
            ],
            "name": "Deposit",
            "type": "event"
        },
        {
            "anonymous": false,
            "inputs": [
                {
                    "indexed": false,
                    "internalType": "address",
                    "name": "team",
                    "type": "address"
                },
                {
                    "indexed": false,
                    "internalType": "address",
                    "name": "dao",
                    "type": "address"
                },
                {
                    "indexed": false,
                    "internalType": "address",
                    "name": "soul",
                    "type": "address"
                },
                {
                    "indexed": false,
                    "internalType": "address",
                    "name": "seance",
                    "type": "address"
                },
                {
                    "indexed": false,
                    "internalType": "uint256",
                    "name": "totalAllocPoint",
                    "type": "uint256"
                },
                {
                    "indexed": false,
                    "internalType": "uint256",
                    "name": "weight",
                    "type": "uint256"
                }
            ],
            "name": "Initialized",
            "type": "event"
        },
        {
            "anonymous": false,
            "inputs": [
                {
                    "indexed": true,
                    "internalType": "address",
                    "name": "previousOwner",
                    "type": "address"
                },
                {
                    "indexed": true,
                    "internalType": "address",
                    "name": "newOwner",
                    "type": "address"
                }
            ],
            "name": "OwnershipTransferred",
            "type": "event"
        },
        {
            "anonymous": false,
            "inputs": [
                {
                    "indexed": false,
                    "internalType": "address",
                    "name": "account",
                    "type": "address"
                }
            ],
            "name": "Paused",
            "type": "event"
        },
        {
            "anonymous": false,
            "inputs": [
                {
                    "indexed": false,
                    "internalType": "uint256",
                    "name": "pid",
                    "type": "uint256"
                },
                {
                    "indexed": false,
                    "internalType": "uint256",
                    "name": "allocPoint",
                    "type": "uint256"
                },
                {
                    "indexed": false,
                    "internalType": "contract IERC20",
                    "name": "lpToken",
                    "type": "address"
                },
                {
                    "indexed": false,
                    "internalType": "uint256",
                    "name": "totalAllocPoint",
                    "type": "uint256"
                }
            ],
            "name": "PoolAdded",
            "type": "event"
        },
        {
            "anonymous": false,
            "inputs": [
                {
                    "indexed": false,
                    "internalType": "uint256",
                    "name": "pid",
                    "type": "uint256"
                },
                {
                    "indexed": false,
                    "internalType": "uint256",
                    "name": "allocPoint",
                    "type": "uint256"
                }
            ],
            "name": "PoolSet",
            "type": "event"
        },
        {
            "anonymous": false,
            "inputs": [
                {
                    "indexed": false,
                    "internalType": "uint256",
                    "name": "dailySoul",
                    "type": "uint256"
                },
                {
                    "indexed": false,
                    "internalType": "uint256",
                    "name": "soulPerSecond",
                    "type": "uint256"
                }
            ],
            "name": "RewardsUpdated",
            "type": "event"
        },
        {
            "anonymous": false,
            "inputs": [
                {
                    "indexed": true,
                    "internalType": "bytes32",
                    "name": "role",
                    "type": "bytes32"
                },
                {
                    "indexed": true,
                    "internalType": "bytes32",
                    "name": "previousAdminRole",
                    "type": "bytes32"
                },
                {
                    "indexed": true,
                    "internalType": "bytes32",
                    "name": "newAdminRole",
                    "type": "bytes32"
                }
            ],
            "name": "RoleAdminChanged",
            "type": "event"
        },
        {
            "anonymous": false,
            "inputs": [
                {
                    "indexed": false,
                    "internalType": "bytes32",
                    "name": "role",
                    "type": "bytes32"
                },
                {
                    "indexed": false,
                    "internalType": "bytes32",
                    "name": "supreme",
                    "type": "bytes32"
                }
            ],
            "name": "RoleDivinated",
            "type": "event"
        },
        {
            "anonymous": false,
            "inputs": [
                {
                    "indexed": true,
                    "internalType": "bytes32",
                    "name": "role",
                    "type": "bytes32"
                },
                {
                    "indexed": true,
                    "internalType": "address",
                    "name": "account",
                    "type": "address"
                },
                {
                    "indexed": true,
                    "internalType": "address",
                    "name": "sender",
                    "type": "address"
                }
            ],
            "name": "RoleGranted",
            "type": "event"
        },
        {
            "anonymous": false,
            "inputs": [
                {
                    "indexed": true,
                    "internalType": "bytes32",
                    "name": "role",
                    "type": "bytes32"
                },
                {
                    "indexed": true,
                    "internalType": "address",
                    "name": "account",
                    "type": "address"
                },
                {
                    "indexed": true,
                    "internalType": "address",
                    "name": "sender",
                    "type": "address"
                }
            ],
            "name": "RoleRevoked",
            "type": "event"
        },
        {
            "anonymous": false,
            "inputs": [
                {
                    "indexed": false,
                    "internalType": "address",
                    "name": "soul",
                    "type": "address"
                },
                {
                    "indexed": false,
                    "internalType": "address",
                    "name": "seance",
                    "type": "address"
                }
            ],
            "name": "TokensUpdated",
            "type": "event"
        },
        {
            "anonymous": false,
            "inputs": [
                {
                    "indexed": false,
                    "internalType": "address",
                    "name": "account",
                    "type": "address"
                }
            ],
            "name": "Unpaused",
            "type": "event"
        },
        {
            "anonymous": false,
            "inputs": [
                {
                    "indexed": false,
                    "internalType": "uint256",
                    "name": "weight",
                    "type": "uint256"
                },
                {
                    "indexed": false,
                    "internalType": "uint256",
                    "name": "totalWeight",
                    "type": "uint256"
                }
            ],
            "name": "WeightUpdated",
            "type": "event"
        },
        {
            "anonymous": false,
            "inputs": [
                {
                    "indexed": true,
                    "internalType": "address",
                    "name": "user",
                    "type": "address"
                },
                {
                    "indexed": true,
                    "internalType": "uint256",
                    "name": "pid",
                    "type": "uint256"
                },
                {
                    "indexed": false,
                    "internalType": "uint256",
                    "name": "amount",
                    "type": "uint256"
                },
                {
                    "indexed": false,
                    "internalType": "uint256",
                    "name": "timeStamp",
                    "type": "uint256"
                }
            ],
            "name": "Withdraw",
            "type": "event"
        },
        {
            "inputs": [],
            "name": "DEFAULT_ADMIN_ROLE",
            "outputs": [
                {
                    "internalType": "bytes32",
                    "name": "",
                    "type": "bytes32"
                }
            ],
            "stateMutability": "view",
            "type": "function"
        },
        {
            "inputs": [
                {
                    "internalType": "uint256",
                    "name": "_allocPoint",
                    "type": "uint256"
                },
                {
                    "internalType": "contract IERC20",
                    "name": "_lpToken",
                    "type": "address"
                },
                {
                    "internalType": "bool",
                    "name": "_withUpdate",
                    "type": "bool"
                }
            ],
            "name": "addPool",
            "outputs": [],
            "stateMutability": "nonpayable",
            "type": "function"
        },
        {
            "inputs": [],
            "name": "bonusMultiplier",
            "outputs": [
                {
                    "internalType": "uint256",
                    "name": "",
                    "type": "uint256"
                }
            ],
            "stateMutability": "view",
            "type": "function"
        },
        {
            "inputs": [],
            "name": "dailySoul",
            "outputs": [
                {
                    "internalType": "uint256",
                    "name": "",
                    "type": "uint256"
                }
            ],
            "stateMutability": "view",
            "type": "function"
        },
        {
            "inputs": [],
            "name": "dao",
            "outputs": [
                {
                    "internalType": "address",
                    "name": "",
                    "type": "address"
                }
            ],
            "stateMutability": "view",
            "type": "function"
        },
        {
            "inputs": [
                {
                    "internalType": "uint256",
                    "name": "pid",
                    "type": "uint256"
                },
                {
                    "internalType": "uint256",
                    "name": "amount",
                    "type": "uint256"
                }
            ],
            "name": "deposit",
            "outputs": [],
            "stateMutability": "nonpayable",
            "type": "function"
        },
        {
            "inputs": [
                {
                    "internalType": "uint256",
                    "name": "amount",
                    "type": "uint256"
                }
            ],
            "name": "enWei",
            "outputs": [
                {
                    "internalType": "uint256",
                    "name": "",
                    "type": "uint256"
                }
            ],
            "stateMutability": "pure",
            "type": "function"
        },
        {
            "inputs": [
                {
                    "internalType": "uint256",
                    "name": "amount",
                    "type": "uint256"
                }
            ],
            "name": "enterStaking",
            "outputs": [],
            "stateMutability": "nonpayable",
            "type": "function"
        },
        {
            "inputs": [
                {
                    "internalType": "uint256",
                    "name": "timeDelta",
                    "type": "uint256"
                }
            ],
            "name": "getFee",
            "outputs": [
                {
                    "internalType": "uint256",
                    "name": "",
                    "type": "uint256"
                }
            ],
            "stateMutability": "view",
            "type": "function"
        },
        {
            "inputs": [
                {
                    "internalType": "uint256",
                    "name": "from",
                    "type": "uint256"
                },
                {
                    "internalType": "uint256",
                    "name": "to",
                    "type": "uint256"
                }
            ],
            "name": "getMultiplier",
            "outputs": [
                {
                    "internalType": "uint256",
                    "name": "",
                    "type": "uint256"
                }
            ],
            "stateMutability": "view",
            "type": "function"
        },
        {
            "inputs": [
                {
                    "internalType": "bytes32",
                    "name": "role",
                    "type": "bytes32"
                }
            ],
            "name": "getRoleAdmin",
            "outputs": [
                {
                    "internalType": "bytes32",
                    "name": "",
                    "type": "bytes32"
                }
            ],
            "stateMutability": "view",
            "type": "function"
        },
        {
            "inputs": [
                {
                    "internalType": "bytes32",
                    "name": "role",
                    "type": "bytes32"
                },
                {
                    "internalType": "address",
                    "name": "account",
                    "type": "address"
                }
            ],
            "name": "grantRole",
            "outputs": [],
            "stateMutability": "nonpayable",
            "type": "function"
        },
        {
            "inputs": [
                {
                    "internalType": "bytes32",
                    "name": "role",
                    "type": "bytes32"
                }
            ],
            "name": "hasDivineRole",
            "outputs": [
                {
                    "internalType": "bool",
                    "name": "",
                    "type": "bool"
                }
            ],
            "stateMutability": "view",
            "type": "function"
        },
        {
            "inputs": [
                {
                    "internalType": "bytes32",
                    "name": "role",
                    "type": "bytes32"
                },
                {
                    "internalType": "address",
                    "name": "account",
                    "type": "address"
                }
            ],
            "name": "hasRole",
            "outputs": [
                {
                    "internalType": "bool",
                    "name": "",
                    "type": "bool"
                }
            ],
            "stateMutability": "view",
            "type": "function"
        },
        {
            "inputs": [
                {
                    "internalType": "address",
                    "name": "_soulAddress",
                    "type": "address"
                },
                {
                    "internalType": "address",
                    "name": "_seanceAddress",
                    "type": "address"
                },
                {
                    "internalType": "uint256",
                    "name": "_totalWeight",
                    "type": "uint256"
                },
                {
                    "internalType": "uint256",
                    "name": "_weight",
                    "type": "uint256"
                },
                {
                    "internalType": "uint256",
                    "name": "_stakingAlloc",
                    "type": "uint256"
                },
                {
                    "internalType": "uint256",
                    "name": "_startRate",
                    "type": "uint256"
                },
                {
                    "internalType": "uint256",
                    "name": "_dailyDecay",
                    "type": "uint256"
                }
            ],
            "name": "initialize",
            "outputs": [],
            "stateMutability": "nonpayable",
            "type": "function"
        },
        {
            "inputs": [],
            "name": "isInitialized",
            "outputs": [
                {
                    "internalType": "bool",
                    "name": "",
                    "type": "bool"
                }
            ],
            "stateMutability": "view",
            "type": "function"
        },
        {
            "inputs": [],
            "name": "isis",
            "outputs": [
                {
                    "internalType": "bytes32",
                    "name": "",
                    "type": "bytes32"
                }
            ],
            "stateMutability": "view",
            "type": "function"
        },
        {
            "inputs": [
                {
                    "internalType": "uint256",
                    "name": "amount",
                    "type": "uint256"
                }
            ],
            "name": "leaveStaking",
            "outputs": [],
            "stateMutability": "nonpayable",
            "type": "function"
        },
        {
            "inputs": [],
            "name": "maat",
            "outputs": [
                {
                    "internalType": "bytes32",
                    "name": "",
                    "type": "bytes32"
                }
            ],
            "stateMutability": "view",
            "type": "function"
        },
        {
            "inputs": [],
            "name": "massUpdatePools",
            "outputs": [],
            "stateMutability": "nonpayable",
            "type": "function"
        },
        {
            "inputs": [
                {
                    "internalType": "uint256",
                    "name": "pid",
                    "type": "uint256"
                }
            ],
            "name": "migrate",
            "outputs": [],
            "stateMutability": "nonpayable",
            "type": "function"
        },
        {
            "inputs": [],
            "name": "migrator",
            "outputs": [
                {
                    "internalType": "contract IMigrator",
                    "name": "",
                    "type": "address"
                }
            ],
            "stateMutability": "view",
            "type": "function"
        },
        {
            "inputs": [
                {
                    "internalType": "uint256",
                    "name": "amount",
                    "type": "uint256"
                }
            ],
            "name": "oneHundreth",
            "outputs": [
                {
                    "internalType": "uint256",
                    "name": "",
                    "type": "uint256"
                }
            ],
            "stateMutability": "pure",
            "type": "function"
        },
        {
            "inputs": [],
            "name": "owner",
            "outputs": [
                {
                    "internalType": "address",
                    "name": "",
                    "type": "address"
                }
            ],
            "stateMutability": "view",
            "type": "function"
        },
        {
            "inputs": [],
            "name": "paused",
            "outputs": [
                {
                    "internalType": "bool",
                    "name": "",
                    "type": "bool"
                }
            ],
            "stateMutability": "view",
            "type": "function"
        },
        {
            "inputs": [
                {
                    "internalType": "uint256",
                    "name": "pid",
                    "type": "uint256"
                },
                {
                    "internalType": "address",
                    "name": "_user",
                    "type": "address"
                }
            ],
            "name": "pendingSoul",
            "outputs": [
                {
                    "internalType": "uint256",
                    "name": "",
                    "type": "uint256"
                }
            ],
            "stateMutability": "view",
            "type": "function"
        },
        {
            "inputs": [
                {
                    "internalType": "uint256",
                    "name": "",
                    "type": "uint256"
                }
            ],
            "name": "poolInfo",
            "outputs": [
                {
                    "internalType": "contract IERC20",
                    "name": "lpToken",
                    "type": "address"
                },
                {
                    "internalType": "uint256",
                    "name": "allocPoint",
                    "type": "uint256"
                },
                {
                    "internalType": "uint256",
                    "name": "lastRewardTime",
                    "type": "uint256"
                },
                {
                    "internalType": "uint256",
                    "name": "accSoulPerShare",
                    "type": "uint256"
                }
            ],
            "stateMutability": "view",
            "type": "function"
        },
        {
            "inputs": [],
            "name": "poolLength",
            "outputs": [
                {
                    "internalType": "uint256",
                    "name": "",
                    "type": "uint256"
                }
            ],
            "stateMutability": "view",
            "type": "function"
        },
        {
            "inputs": [],
            "name": "renounceOwnership",
            "outputs": [],
            "stateMutability": "nonpayable",
            "type": "function"
        },
        {
            "inputs": [
                {
                    "internalType": "bytes32",
                    "name": "role",
                    "type": "bytes32"
                },
                {
                    "internalType": "address",
                    "name": "account",
                    "type": "address"
                }
            ],
            "name": "renounceRole",
            "outputs": [],
            "stateMutability": "nonpayable",
            "type": "function"
        },
        {
            "inputs": [
                {
                    "internalType": "uint256",
                    "name": "_pid",
                    "type": "uint256"
                },
                {
                    "internalType": "address",
                    "name": "_user",
                    "type": "address"
                },
                {
                    "internalType": "uint256",
                    "name": "_time",
                    "type": "uint256"
                }
            ],
            "name": "reviseDeposit",
            "outputs": [],
            "stateMutability": "nonpayable",
            "type": "function"
        },
        {
            "inputs": [
                {
                    "internalType": "bytes32",
                    "name": "role",
                    "type": "bytes32"
                },
                {
                    "internalType": "address",
                    "name": "account",
                    "type": "address"
                }
            ],
            "name": "revokeRole",
            "outputs": [],
            "stateMutability": "nonpayable",
            "type": "function"
        },
        {
            "inputs": [],
            "name": "seance",
            "outputs": [
                {
                    "internalType": "contract SeanceCircle",
                    "name": "",
                    "type": "address"
                }
            ],
            "stateMutability": "view",
            "type": "function"
        },
        {
            "inputs": [
                {
                    "internalType": "uint256",
                    "name": "pid",
                    "type": "uint256"
                },
                {
                    "internalType": "uint256",
                    "name": "allocPoint",
                    "type": "uint256"
                },
                {
                    "internalType": "bool",
                    "name": "withUpdate",
                    "type": "bool"
                }
            ],
            "name": "set",
            "outputs": [],
            "stateMutability": "nonpayable",
            "type": "function"
        },
        {
            "inputs": [
                {
                    "internalType": "contract IMigrator",
                    "name": "_migrator",
                    "type": "address"
                }
            ],
            "name": "setMigrator",
            "outputs": [],
            "stateMutability": "nonpayable",
            "type": "function"
        },
        {
            "inputs": [],
            "name": "soul",
            "outputs": [
                {
                    "internalType": "contract SoulPower",
                    "name": "",
                    "type": "address"
                }
            ],
            "stateMutability": "view",
            "type": "function"
        },
        {
            "inputs": [],
            "name": "soulPerSecond",
            "outputs": [
                {
                    "internalType": "uint256",
                    "name": "",
                    "type": "uint256"
                }
            ],
            "stateMutability": "view",
            "type": "function"
        },
        {
            "inputs": [],
            "name": "startTime",
            "outputs": [
                {
                    "internalType": "uint256",
                    "name": "",
                    "type": "uint256"
                }
            ],
            "stateMutability": "view",
            "type": "function"
        },
        {
            "inputs": [
                {
                    "internalType": "bytes4",
                    "name": "interfaceId",
                    "type": "bytes4"
                }
            ],
            "name": "supportsInterface",
            "outputs": [
                {
                    "internalType": "bool",
                    "name": "",
                    "type": "bool"
                }
            ],
            "stateMutability": "view",
            "type": "function"
        },
        {
            "inputs": [],
            "name": "team",
            "outputs": [
                {
                    "internalType": "address",
                    "name": "",
                    "type": "address"
                }
            ],
            "stateMutability": "view",
            "type": "function"
        },
        {
            "inputs": [],
            "name": "totalAllocPoint",
            "outputs": [
                {
                    "internalType": "uint256",
                    "name": "",
                    "type": "uint256"
                }
            ],
            "stateMutability": "view",
            "type": "function"
        },
        {
            "inputs": [],
            "name": "totalWeight",
            "outputs": [
                {
                    "internalType": "uint256",
                    "name": "",
                    "type": "uint256"
                }
            ],
            "stateMutability": "view",
            "type": "function"
        },
        {
            "inputs": [
                {
                    "internalType": "address",
                    "name": "newOwner",
                    "type": "address"
                }
            ],
            "name": "transferOwnership",
            "outputs": [],
            "stateMutability": "nonpayable",
            "type": "function"
        },
        {
            "inputs": [
                {
                    "internalType": "address",
                    "name": "_dao",
                    "type": "address"
                },
                {
                    "internalType": "address",
                    "name": "_team",
                    "type": "address"
                }
            ],
            "name": "updateAccounts",
            "outputs": [],
            "stateMutability": "nonpayable",
            "type": "function"
        },
        {
            "inputs": [
                {
                    "internalType": "uint256",
                    "name": "_bonusMultiplier",
                    "type": "uint256"
                }
            ],
            "name": "updateMultiplier",
            "outputs": [],
            "stateMutability": "nonpayable",
            "type": "function"
        },
        {
            "inputs": [
                {
                    "internalType": "uint256",
                    "name": "pid",
                    "type": "uint256"
                }
            ],
            "name": "updatePool",
            "outputs": [],
            "stateMutability": "nonpayable",
            "type": "function"
        },
        {
            "inputs": [
                {
                    "internalType": "address",
                    "name": "_soul",
                    "type": "address"
                },
                {
                    "internalType": "address",
                    "name": "_seance",
                    "type": "address"
                }
            ],
            "name": "updateTokens",
            "outputs": [],
            "stateMutability": "nonpayable",
            "type": "function"
        },
        {
            "inputs": [
                {
                    "internalType": "uint256",
                    "name": "_weight",
                    "type": "uint256"
                }
            ],
            "name": "updateWeight",
            "outputs": [],
            "stateMutability": "nonpayable",
            "type": "function"
        },
        {
            "inputs": [
                {
                    "internalType": "uint256",
                    "name": "_pid",
                    "type": "uint256"
                }
            ],
            "name": "userDelta",
            "outputs": [
                {
                    "internalType": "uint256",
                    "name": "",
                    "type": "uint256"
                }
            ],
            "stateMutability": "view",
            "type": "function"
        },
        {
            "inputs": [
                {
                    "internalType": "uint256",
                    "name": "",
                    "type": "uint256"
                },
                {
                    "internalType": "address",
                    "name": "",
                    "type": "address"
                }
            ],
            "name": "userInfo",
            "outputs": [
                {
                    "internalType": "uint256",
                    "name": "amount",
                    "type": "uint256"
                },
                {
                    "internalType": "uint256",
                    "name": "rewardDebt",
                    "type": "uint256"
                },
                {
                    "internalType": "uint256",
                    "name": "rewardDebtAtTime",
                    "type": "uint256"
                },
                {
                    "internalType": "uint256",
                    "name": "lastWithdrawTime",
                    "type": "uint256"
                },
                {
                    "internalType": "uint256",
                    "name": "firstDepositTime",
                    "type": "uint256"
                },
                {
                    "internalType": "uint256",
                    "name": "timeDelta",
                    "type": "uint256"
                },
                {
                    "internalType": "uint256",
                    "name": "lastDepositTime",
                    "type": "uint256"
                }
            ],
            "stateMutability": "view",
            "type": "function"
        },
        {
            "inputs": [],
            "name": "weight",
            "outputs": [
                {
                    "internalType": "uint256",
                    "name": "",
                    "type": "uint256"
                }
            ],
            "stateMutability": "view",
            "type": "function"
        },
        {
            "inputs": [
                {
                    "internalType": "uint256",
                    "name": "pid",
                    "type": "uint256"
                },
                {
                    "internalType": "uint256",
                    "name": "amount",
                    "type": "uint256"
                }
            ],
            "name": "withdraw",
            "outputs": [],
            "stateMutability": "nonpayable",
            "type": "function"
        }
    ],
    "bytecode": "60806040526001600e553480156200001657600080fd5b506200002b6200002562000102565b62000106565b6001805460ff60a01b1916815560025560078054336001600160a01b0319918216811792839055600880549092161790557f36d5d8406f8379c6deba01145ec4f6a2966675cc67d71355b397a2a8e3572b296016557f0811b25c145e1379dc78112dd91057f09150f6db05dfd7e04deb910e6cefd4b7601755620000bd9060009081906001600160a01b031662000158565b50601654600754620000db919081906001600160a01b031662000158565b50601754601654600854620000fb9291906001600160a01b031662000158565b50620002a9565b3390565b600180546001600160a01b038381166001600160a01b0319831681179093556040519116919082907f8be0079c531659141344cd1fd0a4f28419497f9722a3daafe3b4186f6b6457e090600090a35050565b60006200016684836200017c565b6200017284846200018c565b5060019392505050565b620001888282620001e1565b5050565b600062000199836200026b565b600084815260208190526040808220600101859055519192508391839186917fbd79b86ffe0ab8e8776151514217cd7cacd52c909f66475c3af44e129f0b00ff9190a4505050565b620001ed828262000280565b62000188576000828152602081815260408083206001600160a01b03851684529091529020805460ff191660011790556200022762000102565b6001600160a01b0316816001600160a01b0316837f2f8788117e7eff1d82e926ec794901d17c78024a50270940304540a733656f0d60405160405180910390a45050565b60009081526020819052604090206001015490565b6000918252602082815260408084206001600160a01b0393909316845291905290205460ff1690565b61330b80620002b96000396000f3fe608060405234801561001057600080fd5b506004361061030c5760003560e01c80637d500ec81161019d578063cf94ee96116100e9578063ea4bf446116100a2578063f2fde38b1161007c578063f2fde38b1461061a578063fb60dc181461062d578063fcee45f414610640578063fd6f99d0146106535761030c565b8063ea4bf446146105ec578063ec3df6ad146105f4578063edbf4ac2146106075761030c565b8063cf94ee961461057a578063d547741f1461058d578063dbaef9b0146105a0578063e13e8ec2146105b3578063e2bbb158146105c6578063e7aa29e3146105d95761030c565b806391d1485411610156578063a1aab33f11610130578063a1aab33f1461054f578063a217fddf14610557578063a8b973a11461055f578063bfafcad5146105675761030c565b806391d148541461050e57806393f1a40b1461052157806396c82e57146105475761030c565b80637d500ec8146104c8578063815b7a8c146104d057806382386d58146104d857806385f2aef2146104eb5780638da5cb5b146104f35780638dbb1e3a146104fb5761030c565b8063441a3e701161025c5780635ffe614611610215578063715018a6116101ef578063715018a61461049d57806378e97925146104a55780637abceffd146104ad5780637cd07e47146104c05761030c565b80635ffe61461461046f578063630b5ba11461048257806364482f791461048a5761030c565b8063441a3e701461041e578063454b0608146104315780634ca01d451461044457806351eb05a61461044c5780635c975abb1461045f5780635f9bf689146104675761030c565b806323cf3118116102c957806336568abe116102a357806336568abe146103db578063392e53cd146103ee57806341441d3b146103f65780634162169f146104095761030c565b806323cf3118146103a2578063248a9ca3146103b55780632f2ff15d146103c85761030c565b806301ffc9a714610311578063081e3eda1461033a57806309ae4d2c1461034f5780631058d281146103625780631526fe271461037757806317caf6f11461039a575b600080fd5b61032461031f366004612ae9565b61065b565b6040516103319190612d25565b60405180910390f35b610342610688565b6040516103319190612d30565b61034261035d366004612aad565b61068e565b610375610370366004612aad565b6106df565b005b61038a610385366004612aad565b61095b565b6040516103319493929190612d39565b61034261099f565b6103756103b03660046129dc565b6109a5565b6103426103c3366004612aad565b6109fe565b6103756103d6366004612ac5565b610a13565b6103756103e9366004612ac5565b610a37565b610324610a7d565b610375610404366004612aad565b610a86565b610411610cff565b6040516103319190612c80565b61037561042c366004612bbd565b610d0e565b61037561043f366004612aad565b610f9c565b610411611286565b61037561045a366004612aad565b611295565b610324611590565b6103426115a0565b61037561047d366004612aad565b6115a6565b6103756115bb565b610375610498366004612bde565b6115e2565b61037561171e565b610342611769565b6103756104bb366004612b7c565b61176f565b6104116117ba565b6103426117c9565b6104116117cf565b6103756104e6366004612b45565b6117de565b610411611817565b610411611826565b610342610509366004612bbd565b611835565b61032461051c366004612ac5565b611856565b61053461052f366004612ac5565b61187f565b60405161033197969594939291906131a0565b6103426118ce565b6103426118d4565b6103426118da565b6103426118df565b610342610575366004612ac5565b6118e5565b610342610588366004612aad565b611a76565b61037561059b366004612ac5565b611a8a565b6103246105ae366004612aad565b611aa9565b6103756105c13660046129f8565b611ab5565b6103756105d4366004612bbd565b611b7d565b6103756105e73660046129f8565b611dd9565b610342611e91565b610375610602366004612aad565b611e97565b610375610615366004612a30565b611fa8565b6103756106283660046129dc565b612203565b61034261063b366004612aad565b612274565b61034261064e366004612aad565b612287565b6103426122e5565b60006001600160e01b03198216637965db0b60e01b14806106805750610680826122eb565b90505b919050565b60145490565b600081815260156020908152604080832033845290915281206003810154156106cd5760008160030154436106c39190613227565b9250610683915050565b60008160040154436106c39190613227565b60028054141561070a5760405162461bcd60e51b81526004016107019061307a565b60405180910390fd5b600280819055506000601460008154811061073557634e487b7160e01b600052603260045260246000fd5b600091825260208083203384527fa31547ce6245cdb9ecea19cf8c7eb9f5974025bb4075011409251ae855b30aed90915260409092208054600490920290920192508311156107965760405162461bcd60e51b815260040161070190612ffa565b6107a06000611295565b6000816001015464e8d4a51000846003015484600001546107c19190613208565b6107cb91906131e8565b6107d59190613227565b905080156107e7576107e73382612304565b83156108815781546107fa908590613227565b8255825460405163a9059cbb60e01b81526001600160a01b039091169063a9059cbb9061082d9033908890600401612d0c565b602060405180830381600087803b15801561084757600080fd5b505af115801561085b573d6000803e3d6000fd5b505050506040513d601f19601f8201168201806040525081019061087f9190612a91565b505b6003830154825464e8d4a510009161089891613208565b6108a291906131e8565b6001830155600654604051632770a7eb60e21b81526001600160a01b0390911690639dc29fac906108d99033908890600401612d0c565b600060405180830381600087803b1580156108f357600080fd5b505af1158015610907573d6000803e3d6000fd5b505050506000336001600160a01b03167f02f25270a4d87bea75db541cdfe559334a275b4a233520ed6c0a2429667cca94864260405161094892919061316e565b60405180910390a3505060016002555050565b6014818154811061096b57600080fd5b600091825260209091206004909102018054600182015460028301546003909301546001600160a01b039092169350919084565b60105481565b60115460ff166109c75760405162461bcd60e51b815260040161070190613137565b6016546109db816109d661236c565b612370565b50600980546001600160a01b0319166001600160a01b0392909216919091179055565b60009081526020819052604090206001015490565b610a1c826109fe565b610a28816109d661236c565b610a3283836123d4565b505050565b610a3f61236c565b6001600160a01b0316816001600160a01b031614610a6f5760405162461bcd60e51b8152600401610701906130b1565b610a798282612459565b5050565b60115460ff1681565b600280541415610aa85760405162461bcd60e51b81526004016107019061307a565b60028055610ab4611590565b15610ad15760405162461bcd60e51b815260040161070190612e0d565b60006014600081548110610af557634e487b7160e01b600052603260045260246000fd5b600091825260208083203384527fa31547ce6245cdb9ecea19cf8c7eb9f5974025bb4075011409251ae855b30aed90915260408320600490920201925090610b3c90611295565b805415610b8c576000816001015464e8d4a5100084600301548460000154610b649190613208565b610b6e91906131e8565b610b789190613227565b90508015610b8a57610b8a3382612304565b505b8215610c285781546040516323b872dd60e01b81526001600160a01b03909116906323b872dd90610bc590339030908890600401612ce8565b602060405180830381600087803b158015610bdf57600080fd5b505af1158015610bf3573d6000803e3d6000fd5b505050506040513d601f19601f82011682018060405250810190610c179190612a91565b508054610c259084906131d0565b81555b6003820154815464e8d4a5100091610c3f91613208565b610c4991906131e8565b60018201556006546040516340c10f1960e01b81526001600160a01b03909116906340c10f1990610c809033908790600401612d0c565b600060405180830381600087803b158015610c9a57600080fd5b505af1158015610cae573d6000803e3d6000fd5b505050506000336001600160a01b03167f90890809c654f11d6e72a28fa60149770a0d11ec6c92319d6ceb2bb0a4ea1a1585604051610ced9190612d30565b60405180910390a35050600160025550565b6008546001600160a01b031681565b600280541415610d305760405162461bcd60e51b81526004016107019061307a565b6002805560145482908110610d575760405162461bcd60e51b815260040161070190612f96565b82610d745760405162461bcd60e51b815260040161070190612e8d565b600060148481548110610d9757634e487b7160e01b600052603260045260246000fd5b600091825260208083208784526015825260408085203386529092529220805460049092029092019250841115610de05760405162461bcd60e51b815260040161070190613026565b610de985611295565b6000816001015464e8d4a5100084600301548460000154610e0a9190613208565b610e1491906131e8565b610e1e9190613227565b90508015610e3057610e303382612304565b8415610f2457600682015415610e59576006820154610e4f9042613227565b6005830155610e6e565b6004820154610e689042613227565b60058301555b8154610e7b908690613227565b82556005820154600090610e8e90612287565b90506000610e9c8288613227565b855460405163a9059cbb60e01b81529192506001600160a01b03169063a9059cbb90610ece9033908590600401612d0c565b602060405180830381600087803b158015610ee857600080fd5b505af1158015610efc573d6000803e3d6000fd5b505050506040513d601f19601f82011682018060405250810190610f209190612a91565b5050505b6003830154825464e8d4a5100091610f3b91613208565b610f4591906131e8565b60018301554260038301819055604051879133917f02f25270a4d87bea75db541cdfe559334a275b4a233520ed6c0a2429667cca9491610f87918a919061316e565b60405180910390a35050600160025550505050565b60115460ff16610fbe5760405162461bcd60e51b815260040161070190613137565b60145481908110610fe15760405162461bcd60e51b815260040161070190612f96565b6009546001600160a01b03166110095760405162461bcd60e51b815260040161070190612e64565b60006014838154811061102c57634e487b7160e01b600052603260045260246000fd5b60009182526020822060049182020180546040516370a0823160e01b81529194506001600160a01b0316929183916370a082319161106c91309101612c80565b60206040518083038186803b15801561108457600080fd5b505afa158015611098573d6000803e3d6000fd5b505050506040513d601f19601f820116820180604052508101906110bc9190612b2d565b60095460405163095ea7b360e01b81529192506001600160a01b038085169263095ea7b3926110f19216908590600401612d0c565b602060405180830381600087803b15801561110b57600080fd5b505af115801561111f573d6000803e3d6000fd5b505050506040513d601f19601f820116820180604052508101906111439190612a91565b5060095460405163ce5494bb60e01b81526000916001600160a01b03169063ce5494bb90611175908690600401612c80565b602060405180830381600087803b15801561118f57600080fd5b505af11580156111a3573d6000803e3d6000fd5b505050506040513d601f19601f820116820180604052508101906111c79190612b11565b6040516370a0823160e01b81529091506001600160a01b038216906370a08231906111f6903090600401612c80565b60206040518083038186803b15801561120e57600080fd5b505afa158015611222573d6000803e3d6000fd5b505050506040513d601f19601f820116820180604052508101906112469190612b2d565b82146112645760405162461bcd60e51b815260040161070190613100565b83546001600160a01b0319166001600160a01b03919091161790925550505050565b6006546001600160a01b031681565b601454819081106112b85760405162461bcd60e51b815260040161070190612f96565b6000601483815481106112db57634e487b7160e01b600052603260045260246000fd5b90600052602060002090600402019050806002015442116112fc5750610a79565b80546040516370a0823160e01b81526000916001600160a01b0316906370a082319061132c903090600401612c80565b60206040518083038186803b15801561134457600080fd5b505afa158015611358573d6000803e3d6000fd5b505050506040513d601f19601f8201168201806040525081019061137c9190612b2d565b905080611390575042600290910155610a79565b60006113a0836002015442611835565b905060006010548460010154600d54846113ba9190613208565b6113c49190613208565b6113ce91906131e8565b90506000650746a52880006113e88364e8d4a51000613208565b6113f291906131e8565b90506000611401826002613208565b9050600061140f8285613227565b600480546007546040516340c10f1960e01b81529394506001600160a01b03918216936340c10f19936114489390921691889101612d0c565b600060405180830381600087803b15801561146257600080fd5b505af1158015611476573d6000803e3d6000fd5b5050600480546008546040516340c10f1960e01b81526001600160a01b0392831695506340c10f1994506114b1939190921691889101612d0c565b600060405180830381600087803b1580156114cb57600080fd5b505af11580156114df573d6000803e3d6000fd5b5050600480546006546040516340c10f1960e01b81526001600160a01b0392831695506340c10f19945061151a939190921691869101612d0c565b600060405180830381600087803b15801561153457600080fd5b505af1158015611548573d6000803e3d6000fd5b50505050858464e8d4a5100061155e9190613208565b61156891906131e8565b876003015461157791906131d0565b6003880155505042600290950194909455505050505050565b600154600160a01b900460ff1690565b600d5481565b6017546115b5816109d661236c565b50600e55565b60145460005b81811015610a79576115d281611295565b6115db81613281565b90506115c1565b60115460ff166116045760405162461bcd60e51b815260040161070190613137565b601454839081106116275760405162461bcd60e51b815260040161070190612f96565b601754611636816109d661236c565b8215611644576116446115bb565b60006014868154811061166757634e487b7160e01b600052603260045260246000fd5b9060005260206000209060040201600101549050846014878154811061169d57634e487b7160e01b600052603260045260246000fd5b9060005260206000209060040201600101819055508481146116dd5784816010546116c89190613227565b6116d291906131d0565b6010556116dd6124dc565b7fd88f859573973e938da5bf3e5100c16eee2090fa720e05ae3d452b4cd05cdcfd868660405161170e92919061316e565b60405180910390a1505050505050565b61172661236c565b6001600160a01b0316611737611826565b6001600160a01b03161461175d5760405162461bcd60e51b815260040161070190612efb565b61176760006125de565b565b600f5481565b60115460ff166117915760405162461bcd60e51b815260040161070190613137565b6016546117a0816109d661236c565b6117a983612630565b6117b48484846126b1565b50505050565b6009546001600160a01b031681565b600c5481565b6004546001600160a01b031681565b6017546117ed816109d661236c565b5060009283526015602090815260408085206001600160a01b039094168552929052912060040155565b6007546001600160a01b031681565b6001546001600160a01b031690565b600e546000906118458484613227565b61184f9190613208565b9392505050565b6000918252602082815260408084206001600160a01b0393909316845291905290205460ff1690565b6015602052816000526040600020602052806000526040600020600091509150508060000154908060010154908060020154908060030154908060040154908060050154908060060154905087565b600a5481565b600b5481565b600081565b600e5481565b6000806014848154811061190957634e487b7160e01b600052603260045260246000fd5b600091825260208083208784526015825260408085206001600160a01b038981168752935280852060049485029092016003810154815492516370a0823160e01b815291975092959294929391909116916370a082319161196c91309101612c80565b60206040518083038186803b15801561198457600080fd5b505afa158015611998573d6000803e3d6000fd5b505050506040513d601f19601f820116820180604052508101906119bc9190612b2d565b90508360020154421180156119d057508015155b15611a3e5760006119e5856002015442611835565b905060006010548660010154600d54846119ff9190613208565b611a099190613208565b611a1391906131e8565b905082611a258264e8d4a51000613208565b611a2f91906131e8565b611a3990856131d0565b935050505b6001830154835464e8d4a5100090611a57908590613208565b611a6191906131e8565b611a6b9190613227565b979650505050505050565b600061068082670de0b6b3a7640000613208565b611a93826109fe565b611a9f816109d661236c565b610a328383612459565b60006106808233611856565b601654611ac4816109d661236c565b6008546001600160a01b038481169116141580611aef57506007546001600160a01b03838116911614155b611b0b5760405162461bcd60e51b815260040161070190612f67565b600880546001600160a01b038086166001600160a01b0319928316179283905560078054868316931692909217918290556040517fd1c04282701cbf58aa2f0026f6876051cf3feb8ee7b8b5b5532ebb4ab03fb5d493611b7093908316921690612c94565b60405180910390a1505050565b600280541415611b9f5760405162461bcd60e51b81526004016107019061307a565b6002805560145482908110611bc65760405162461bcd60e51b815260040161070190612f96565b611bce611590565b15611beb5760405162461bcd60e51b815260040161070190612e0d565b82611c085760405162461bcd60e51b815260040161070190612ec4565b600060148481548110611c2b57634e487b7160e01b600052603260045260246000fd5b60009182526020808320878452601582526040808520338652909252922060049091029091019150611c5c85611295565b805415611cac576000816001015464e8d4a5100084600301548460000154611c849190613208565b611c8e91906131e8565b611c989190613227565b90508015611caa57611caa3382612304565b505b8315611d485781546040516323b872dd60e01b81526001600160a01b03909116906323b872dd90611ce590339030908990600401612ce8565b602060405180830381600087803b158015611cff57600080fd5b505af1158015611d13573d6000803e3d6000fd5b505050506040513d601f19601f82011682018060405250810190611d379190612a91565b508054611d459085906131d0565b81555b6003820154815464e8d4a5100091611d5f91613208565b611d6991906131e8565b60018201556004810154611d84574281600401819055611d8a565b60048101545b5084336001600160a01b03167f90890809c654f11d6e72a28fa60149770a0d11ec6c92319d6ceb2bb0a4ea1a1586604051611dc59190612d30565b60405180910390a350506001600255505050565b601654611de8816109d661236c565b6004546001600160a01b038481169116141580611e1357506006546001600160a01b03838116911614155b611e2f5760405162461bcd60e51b815260040161070190612f30565b600480546001600160a01b038086166001600160a01b03199283161790925560068054928516929091169190911790556040517fdcc6331013de89f8c595d5328f0a724194f113cb6f8f2a707b3dff6de13f0d1790611b709085908590612c94565b60165481565b60115460ff16611eb95760405162461bcd60e51b815260040161070190613137565b601754611ec8816109d661236c565b81600b541415611eea5760405162461bcd60e51b815260040161070190612fc3565b81600b541015611f1f576000600b5483611f049190613227565b905080600a6000828254611f1891906131d0565b9091555050505b81600b541115611f5457600082600b54611f399190613227565b905080600a6000828254611f4d9190613227565b9091555050505b600b829055600a54611f679083906127be565b7fb298bc23e07860d501fddce288f46d761aa04a0c7c3316099eb50f097aacf304600b54600a54604051611f9c92919061316e565b60405180910390a15050565b601654611fb7816109d661236c565b60115460ff1615611fda5760405162461bcd60e51b815260040161070190612e37565b600380546001600160a01b03808b166001600160a01b03199283161790925560058054928a169290911691909117905542600f5561201885876131d0565b600a55600b85905561202983611a76565b60135561203582612274565b601255600354600480546001600160a01b039283166001600160a01b03199182161790915560055460068054919093169116179055600b54600a54859161207b916127be565b60408051608081018252600480546001600160a01b03908116835260208301858152600f54948401948552600060608501818152601480546001808201835591845296517fce6d7b5282bd9a3661ae061feed1dbda4e52ab073b1f9285be6e155d9c38d4ec9790960296870180546001600160a01b031916969095169590951790935590517fce6d7b5282bd9a3661ae061feed1dbda4e52ab073b1f9285be6e155d9c38d4ed85015593517fce6d7b5282bd9a3661ae061feed1dbda4e52ab073b1f9285be6e155d9c38d4ee840155517fce6d7b5282bd9a3661ae061feed1dbda4e52ab073b1f9285be6e155d9c38d4ef909201919091556011805460ff19169091179055601080548392906121929084906131d0565b9091555050600754600854600354600554601054600b546040517f0476c5e4920930815a67a5a042e26836431f494d3be0f6e10c3034787a7a15f9966121f0966001600160a01b039182169690821695908216949116929091612cae565b60405180910390a1505050505050505050565b61220b61236c565b6001600160a01b031661221c611826565b6001600160a01b0316146122425760405162461bcd60e51b815260040161070190612efb565b6001600160a01b0381166122685760405162461bcd60e51b815260040161070190612dc7565b612271816125de565b50565b600061068082662386f26fc10000613208565b6000806201518083106122a6576122a162015180846131e8565b6122a9565b60005b90506000601254826122bb9190613208565b90506013548110156122da57806013546122d59190613227565b6122dd565b60005b949350505050565b60175481565b6001600160e01b031981166301ffc9a760e01b14919050565b600654604051635950a15560e11b81526001600160a01b039091169063b2a142aa906123369085908590600401612d0c565b600060405180830381600087803b15801561235057600080fd5b505af1158015612364573d6000803e3d6000fd5b505050505050565b3390565b61237a8282611856565b610a7957612392816001600160a01b0316601461282a565b61239d83602061282a565b6040516020016123ae929190612c0b565b60408051601f198184030181529082905262461bcd60e51b825261070191600401612d5f565b6123de8282611856565b610a79576000828152602081815260408083206001600160a01b03851684529091529020805460ff1916600117905561241561236c565b6001600160a01b0316816001600160a01b0316837f2f8788117e7eff1d82e926ec794901d17c78024a50270940304540a733656f0d60405160405180910390a45050565b6124638282611856565b15610a79576000828152602081815260408083206001600160a01b03851684529091529020805460ff1916905561249861236c565b6001600160a01b0316816001600160a01b0316837ff6391f5c32d9c69d2a47ea670b442974b53935d1edc7fd64eb21e047a839171b60405160405180910390a45050565b601454600060015b8281101561253c576014818154811061250d57634e487b7160e01b600052603260045260246000fd5b9060005260206000209060040201600101548261252a91906131d0565b915061253581613281565b90506124e4565b508015610a795761254e6003826131e8565b905080601460008154811061257357634e487b7160e01b600052603260045260246000fd5b9060005260206000209060040201600101546010546125929190613227565b61259c91906131d0565b6010819055508060146000815481106125c557634e487b7160e01b600052603260045260246000fd5b9060005260206000209060040201600101819055505050565b600180546001600160a01b038381166001600160a01b0319831681179093556040519116919082907f8be0079c531659141344cd1fd0a4f28419497f9722a3daafe3b4186f6b6457e090600090a35050565b60145460005b81811015610a3257826001600160a01b03166014828154811061266957634e487b7160e01b600052603260045260246000fd5b60009182526020909120600490910201546001600160a01b031614156126a15760405162461bcd60e51b815260040161070190613051565b6126aa81613281565b9050612636565b80156126bf576126bf6115bb565b82601060008282546126d191906131d0565b9250508190555060146040518060800160405280846001600160a01b03168152602001858152602001600f54421161270b57600f5461270d565b425b81526000602091820181905283546001808201865594825290829020835160049092020180546001600160a01b0319166001600160a01b03909216919091178155908201519281019290925560408101516002830155606001516003909101556127756124dc565b6014546010546040517f20b669aa921947a6d9602a921d2db3b6b30f21b9aca98580fa3972530330b27a916127b0918491889188919061317c565b60405180910390a150505050565b60006127ca82846131e8565b90506127e0816934f086f3b33b68400000613208565b600c8190556127f39062015180906131e8565b600d819055600c546040517fcd7c861d63893659123f817b192b8621ff1923a7c4589c260173cedcf9e986a692611b70929161316e565b60606000612839836002613208565b6128449060026131d0565b67ffffffffffffffff81111561286a57634e487b7160e01b600052604160045260246000fd5b6040519080825280601f01601f191660200182016040528015612894576020820181803683370190505b509050600360fc1b816000815181106128bd57634e487b7160e01b600052603260045260246000fd5b60200101906001600160f81b031916908160001a905350600f60fb1b816001815181106128fa57634e487b7160e01b600052603260045260246000fd5b60200101906001600160f81b031916908160001a905350600061291e846002613208565b6129299060016131d0565b90505b60018111156129bd576f181899199a1a9b1b9c1cb0b131b232b360811b85600f166010811061296b57634e487b7160e01b600052603260045260246000fd5b1a60f81b82828151811061298f57634e487b7160e01b600052603260045260246000fd5b60200101906001600160f81b031916908160001a90535060049490941c936129b68161326a565b905061292c565b50831561184f5760405162461bcd60e51b815260040161070190612d92565b6000602082840312156129ed578081fd5b813561184f816132b2565b60008060408385031215612a0a578081fd5b8235612a15816132b2565b91506020830135612a25816132b2565b809150509250929050565b600080600080600080600060e0888a031215612a4a578283fd5b8735612a55816132b2565b96506020880135612a65816132b2565b96999698505050506040850135946060810135946080820135945060a0820135935060c0909101359150565b600060208284031215612aa2578081fd5b815161184f816132c7565b600060208284031215612abe578081fd5b5035919050565b60008060408385031215612ad7578182fd5b823591506020830135612a25816132b2565b600060208284031215612afa578081fd5b81356001600160e01b03198116811461184f578182fd5b600060208284031215612b22578081fd5b815161184f816132b2565b600060208284031215612b3e578081fd5b5051919050565b600080600060608486031215612b59578283fd5b833592506020840135612b6b816132b2565b929592945050506040919091013590565b600080600060608486031215612b90578283fd5b833592506020840135612ba2816132b2565b91506040840135612bb2816132c7565b809150509250925092565b60008060408385031215612bcf578182fd5b50508035926020909101359150565b600080600060608486031215612bf2578081fd5b83359250602084013591506040840135612bb2816132c7565b60007f416363657373436f6e74726f6c3a206163636f756e742000000000000000000082528351612c4381601785016020880161323e565b7001034b99036b4b9b9b4b733903937b6329607d1b6017918401918201528351612c7481602884016020880161323e565b01602801949350505050565b6001600160a01b0391909116815260200190565b6001600160a01b0392831681529116602082015260400190565b6001600160a01b0396871681529486166020860152928516604085015293166060830152608082019290925260a081019190915260c00190565b6001600160a01b039384168152919092166020820152604081019190915260600190565b6001600160a01b03929092168252602082015260400190565b901515815260200190565b90815260200190565b6001600160a01b0394909416845260208401929092526040830152606082015260800190565b6000602082528251806020840152612d7e81604085016020870161323e565b601f01601f19169190910160400192915050565b6020808252818101527f537472696e67733a20686578206c656e67746820696e73756666696369656e74604082015260600190565b60208082526026908201527f4f776e61626c653a206e6577206f776e657220697320746865207a65726f206160408201526564647265737360d01b606082015260800190565b60208082526010908201526f14185d5cd8589b194e881c185d5cd95960821b604082015260600190565b602080825260139082015272185b1c9958591e481a5b9a5d1a585b1a5e9959606a1b604082015260600190565b6020808252600f908201526e1b9bc81b5a59dc985d1bdc881cd95d608a1b604082015260600190565b6020808252601a908201527f776974686472617720534f554c20627920756e7374616b696e67000000000000604082015260600190565b60208082526017908201527f6465706f73697420534f554c206279207374616b696e67000000000000000000604082015260600190565b6020808252818101527f4f776e61626c653a2063616c6c6572206973206e6f7420746865206f776e6572604082015260600190565b6020808252601b908201527f6d7573742062652061206e657720746f6b656e20616464726573730000000000604082015260600190565b6020808252601590820152741b5d5cdd0818994818481b995dc81858d8dbdd5b9d605a1b604082015260600190565b6020808252601390820152721c1bdbdb08191bd95cc81b9bdd08195e1a5cdd606a1b604082015260600190565b60208082526018908201527f6d757374206265206e6577207765696768742076616c75650000000000000000604082015260600190565b6020808252601290820152711dda5d1a191c985dce881b9bdd0819dbdbd960721b604082015260600190565b6020808252601190820152701dda5d1a191c985dc81b9bdd0819dbdbd9607a1b604082015260600190565b6020808252600f908201526e191d5c1b1a58d85d1959081c1bdbdb608a1b604082015260600190565b6020808252601f908201527f5265656e7472616e637947756172643a207265656e7472616e742063616c6c00604082015260600190565b6020808252602f908201527f416363657373436f6e74726f6c3a2063616e206f6e6c792072656e6f756e636560408201526e103937b632b9903337b91039b2b63360891b606082015260800190565b6020808252601d908201527f6d6967726174653a20696e73756666696369656e742062616c616e6365000000604082015260600190565b6020808252601a908201527f726577617264732068617665206e6f742079657420626567756e000000000000604082015260600190565b918252602082015260400190565b93845260208401929092526001600160a01b03166040830152606082015260800190565b968752602087019590955260408601939093526060850191909152608084015260a083015260c082015260e00190565b600082198211156131e3576131e361329c565b500190565b60008261320357634e487b7160e01b81526012600452602481fd5b500490565b60008160001904831182151516156132225761322261329c565b500290565b6000828210156132395761323961329c565b500390565b60005b83811015613259578181015183820152602001613241565b838111156117b45750506000910152565b6000816132795761327961329c565b506000190190565b60006000198214156132955761329561329c565b5060010190565b634e487b7160e01b600052601160045260246000fd5b6001600160a01b038116811461227157600080fd5b801515811461227157600080fdfea26469706673582212203b66dcdebf415c270aa59add5281d03c5332c5b8b92a3635403f9cdf7050de7e64736f6c63430008000033",
    "sourcePath": "/Users/Uni/Documents/GitHub/soulswap/soulswap-farms/contracts/SoulSummoner.sol",
    "compiler": {
        "name": "solc",
        "version": "0.8.0+commit.c7dfd78e"
    },
    "functionHashes": {
        "DEFAULT_ADMIN_ROLE()": "a217fddf",
        "addPool(uint256,address,bool)": "7abceffd",
        "bonusMultiplier()": "a8b973a1",
        "dailySoul()": "7d500ec8",
        "dao()": "4162169f",
        "deposit(uint256,uint256)": "e2bbb158",
        "enWei(uint256)": "cf94ee96",
        "enterStaking(uint256)": "41441d3b",
        "getFee(uint256)": "fcee45f4",
        "getMultiplier(uint256,uint256)": "8dbb1e3a",
        "getRoleAdmin(bytes32)": "248a9ca3",
        "grantRole(bytes32,address)": "2f2ff15d",
        "hasDivineRole(bytes32)": "dbaef9b0",
        "hasRole(bytes32,address)": "91d14854",
        "initialize(address,address,uint256,uint256,uint256,uint256,uint256)": "edbf4ac2",
        "isInitialized()": "392e53cd",
        "isis()": "ea4bf446",
        "leaveStaking(uint256)": "1058d281",
        "maat()": "fd6f99d0",
        "massUpdatePools()": "630b5ba1",
        "migrate(uint256)": "454b0608",
        "migrator()": "7cd07e47",
        "oneHundreth(uint256)": "fb60dc18",
        "owner()": "8da5cb5b",
        "paused()": "5c975abb",
        "pendingSoul(uint256,address)": "bfafcad5",
        "poolInfo(uint256)": "1526fe27",
        "poolLength()": "081e3eda",
        "renounceOwnership()": "715018a6",
        "renounceRole(bytes32,address)": "36568abe",
        "reviseDeposit(uint256,address,uint256)": "82386d58",
        "revokeRole(bytes32,address)": "d547741f",
        "seance()": "4ca01d45",
        "set(uint256,uint256,bool)": "64482f79",
        "setMigrator(address)": "23cf3118",
        "soul()": "815b7a8c",
        "soulPerSecond()": "5f9bf689",
        "startTime()": "78e97925",
        "supportsInterface(bytes4)": "01ffc9a7",
        "team()": "85f2aef2",
        "totalAllocPoint()": "17caf6f1",
        "totalWeight()": "96c82e57",
        "transferOwnership(address)": "f2fde38b",
        "updateAccounts(address,address)": "e13e8ec2",
        "updateMultiplier(uint256)": "5ffe6146",
        "updatePool(uint256)": "51eb05a6",
        "updateTokens(address,address)": "e7aa29e3",
        "updateWeight(uint256)": "ec3df6ad",
        "userDelta(uint256)": "09ae4d2c",
        "userInfo(uint256,address)": "93f1a40b",
        "weight()": "a1aab33f",
        "withdraw(uint256,uint256)": "441a3e70"
    },
    "gasEstimates": {
        "creation": {
            "codeDepositCost": "2613400",
            "executionCost": "infinite",
            "totalCost": "infinite"
        },
        "external": {
            "DEFAULT_ADMIN_ROLE()": "317",
            "addPool(uint256,address,bool)": "infinite",
            "bonusMultiplier()": "1139",
            "dailySoul()": "1074",
            "dao()": "1204",
            "deposit(uint256,uint256)": "infinite",
            "enWei(uint256)": "453",
            "enterStaking(uint256)": "infinite",
            "getFee(uint256)": "3144",
            "getMultiplier(uint256,uint256)": "1458",
            "getRoleAdmin(bytes32)": "1271",
            "grantRole(bytes32,address)": "infinite",
            "hasDivineRole(bytes32)": "1411",
            "hasRole(bytes32,address)": "1450",
            "initialize(address,address,uint256,uint256,uint256,uint256,uint256)": "infinite",
            "isInitialized()": "1130",
            "isis()": "1095",
            "leaveStaking(uint256)": "infinite",
            "maat()": "1160",
            "massUpdatePools()": "infinite",
            "migrate(uint256)": "infinite",
            "migrator()": "1203",
            "oneHundreth(uint256)": "496",
            "owner()": "1204",
            "paused()": "1191",
            "pendingSoul(uint256,address)": "infinite",
            "poolInfo(uint256)": "4695",
            "poolLength()": "1097",
            "renounceOwnership()": "23574",
            "renounceRole(bytes32,address)": "infinite",
            "reviseDeposit(uint256,address,uint256)": "infinite",
            "revokeRole(bytes32,address)": "infinite",
            "seance()": "1160",
            "set(uint256,uint256,bool)": "infinite",
            "setMigrator(address)": "infinite",
            "soul()": "1138",
            "soulPerSecond()": "1184",
            "startTime()": "1117",
            "supportsInterface(bytes4)": "543",
            "team()": "1182",
            "totalAllocPoint()": "1185",
            "totalWeight()": "1140",
            "transferOwnership(address)": "infinite",
            "updateAccounts(address,address)": "infinite",
            "updateMultiplier(uint256)": "infinite",
            "updatePool(uint256)": "infinite",
            "updateTokens(address,address)": "infinite",
            "updateWeight(uint256)": "infinite",
            "userDelta(uint256)": "2269",
            "userInfo(uint256,address)": "6463",
            "weight()": "1095",
            "withdraw(uint256,uint256)": "infinite"
        },
        "internal": {
            "_addPool(uint256,contract IERC20,bool)": "infinite",
            "_divinationCeremony(bytes32,bytes32,address)": "infinite",
            "checkPoolDuplicate(contract IERC20)": "infinite",
            "safeSoulTransfer(address,uint256)": "infinite",
            "updateRewards(uint256,uint256)": "infinite",
            "updateStakingPool()": "infinite"
        }
    }
}