{
    "contractName": "SpellBound",
    "abi": [
        {
            "anonymous": false,
            "inputs": [
                {
                    "indexed": true,
                    "internalType": "address",
                    "name": "owner",
                    "type": "address"
                },
                {
                    "indexed": true,
                    "internalType": "address",
                    "name": "spender",
                    "type": "address"
                },
                {
                    "indexed": false,
                    "internalType": "uint256",
                    "name": "value",
                    "type": "uint256"
                }
            ],
            "name": "Approval",
            "type": "event"
        },
        {
            "anonymous": false,
            "inputs": [
                {
                    "indexed": true,
                    "internalType": "address",
                    "name": "operator",
                    "type": "address"
                },
                {
                    "indexed": true,
                    "internalType": "bool",
                    "name": "access",
                    "type": "bool"
                }
            ],
            "name": "OperatorUpdated",
            "type": "event"
        },
        {
            "anonymous": false,
            "inputs": [
                {
                    "indexed": true,
                    "internalType": "address",
                    "name": "previousOwner",
                    "type": "address"
                },
                {
                    "indexed": true,
                    "internalType": "address",
                    "name": "newOwner",
                    "type": "address"
                }
            ],
            "name": "OwnershipTransferred",
            "type": "event"
        },
        {
            "anonymous": false,
            "inputs": [
                {
                    "indexed": true,
                    "internalType": "address",
                    "name": "from",
                    "type": "address"
                },
                {
                    "indexed": true,
                    "internalType": "address",
                    "name": "to",
                    "type": "address"
                },
                {
                    "indexed": false,
                    "internalType": "uint256",
                    "name": "value",
                    "type": "uint256"
                }
            ],
            "name": "Transfer",
            "type": "event"
        },
        {
            "inputs": [
                {
                    "internalType": "address",
                    "name": "newOperator",
                    "type": "address"
                }
            ],
            "name": "addOperator",
            "outputs": [],
            "stateMutability": "nonpayable",
            "type": "function"
        },
        {
            "inputs": [
                {
                    "internalType": "address",
                    "name": "owner",
                    "type": "address"
                },
                {
                    "internalType": "address",
                    "name": "spender",
                    "type": "address"
                }
            ],
            "name": "allowance",
            "outputs": [
                {
                    "internalType": "uint256",
                    "name": "",
                    "type": "uint256"
                }
            ],
            "stateMutability": "view",
            "type": "function"
        },
        {
            "inputs": [
                {
                    "internalType": "address",
                    "name": "spender",
                    "type": "address"
                },
                {
                    "internalType": "uint256",
                    "name": "amount",
                    "type": "uint256"
                }
            ],
            "name": "approve",
            "outputs": [
                {
                    "internalType": "bool",
                    "name": "",
                    "type": "bool"
                }
            ],
            "stateMutability": "nonpayable",
            "type": "function"
        },
        {
            "inputs": [
                {
                    "internalType": "address",
                    "name": "account",
                    "type": "address"
                }
            ],
            "name": "balanceOf",
            "outputs": [
                {
                    "internalType": "uint256",
                    "name": "",
                    "type": "uint256"
                }
            ],
            "stateMutability": "view",
            "type": "function"
        },
        {
            "inputs": [
                {
                    "internalType": "uint256",
                    "name": "soulQty",
                    "type": "uint256"
                }
            ],
            "name": "boundSpell",
            "outputs": [],
            "stateMutability": "nonpayable",
            "type": "function"
        },
        {
            "inputs": [],
            "name": "decimals",
            "outputs": [
                {
                    "internalType": "uint8",
                    "name": "",
                    "type": "uint8"
                }
            ],
            "stateMutability": "view",
            "type": "function"
        },
        {
            "inputs": [
                {
                    "internalType": "address",
                    "name": "spender",
                    "type": "address"
                },
                {
                    "internalType": "uint256",
                    "name": "subtractedValue",
                    "type": "uint256"
                }
            ],
            "name": "decreaseAllowance",
            "outputs": [
                {
                    "internalType": "bool",
                    "name": "",
                    "type": "bool"
                }
            ],
            "stateMutability": "nonpayable",
            "type": "function"
        },
        {
            "inputs": [
                {
                    "internalType": "uint256",
                    "name": "soulQty",
                    "type": "uint256"
                }
            ],
            "name": "enter",
            "outputs": [],
            "stateMutability": "nonpayable",
            "type": "function"
        },
        {
            "inputs": [
                {
                    "internalType": "address",
                    "name": "spender",
                    "type": "address"
                },
                {
                    "internalType": "uint256",
                    "name": "addedValue",
                    "type": "uint256"
                }
            ],
            "name": "increaseAllowance",
            "outputs": [
                {
                    "internalType": "bool",
                    "name": "",
                    "type": "bool"
                }
            ],
            "stateMutability": "nonpayable",
            "type": "function"
        },
        {
            "inputs": [
                {
                    "internalType": "contract IERC20",
                    "name": "_soul",
                    "type": "address"
                }
            ],
            "name": "initialize",
            "outputs": [],
            "stateMutability": "nonpayable",
            "type": "function"
        },
        {
            "inputs": [
                {
                    "internalType": "uint256",
                    "name": "spellQty",
                    "type": "uint256"
                }
            ],
            "name": "leave",
            "outputs": [],
            "stateMutability": "nonpayable",
            "type": "function"
        },
        {
            "inputs": [],
            "name": "name",
            "outputs": [
                {
                    "internalType": "string",
                    "name": "",
                    "type": "string"
                }
            ],
            "stateMutability": "view",
            "type": "function"
        },
        {
            "inputs": [
                {
                    "internalType": "address",
                    "name": "",
                    "type": "address"
                }
            ],
            "name": "operator",
            "outputs": [
                {
                    "internalType": "bool",
                    "name": "",
                    "type": "bool"
                }
            ],
            "stateMutability": "view",
            "type": "function"
        },
        {
            "inputs": [
                {
                    "internalType": "uint256",
                    "name": "",
                    "type": "uint256"
                }
            ],
            "name": "operators",
            "outputs": [
                {
                    "internalType": "address",
                    "name": "",
                    "type": "address"
                }
            ],
            "stateMutability": "view",
            "type": "function"
        },
        {
            "inputs": [],
            "name": "owner",
            "outputs": [
                {
                    "internalType": "address",
                    "name": "",
                    "type": "address"
                }
            ],
            "stateMutability": "view",
            "type": "function"
        },
        {
            "inputs": [
                {
                    "internalType": "address",
                    "name": "removingOperator",
                    "type": "address"
                }
            ],
            "name": "removeOperator",
            "outputs": [],
            "stateMutability": "nonpayable",
            "type": "function"
        },
        {
            "inputs": [],
            "name": "renounceOwnership",
            "outputs": [],
            "stateMutability": "nonpayable",
            "type": "function"
        },
        {
            "inputs": [],
            "name": "soul",
            "outputs": [
                {
                    "internalType": "contract IERC20",
                    "name": "",
                    "type": "address"
                }
            ],
            "stateMutability": "view",
            "type": "function"
        },
        {
            "inputs": [],
            "name": "symbol",
            "outputs": [
                {
                    "internalType": "string",
                    "name": "",
                    "type": "string"
                }
            ],
            "stateMutability": "view",
            "type": "function"
        },
        {
            "inputs": [],
            "name": "totalSupply",
            "outputs": [
                {
                    "internalType": "uint256",
                    "name": "",
                    "type": "uint256"
                }
            ],
            "stateMutability": "view",
            "type": "function"
        },
        {
            "inputs": [
                {
                    "internalType": "address",
                    "name": "recipient",
                    "type": "address"
                },
                {
                    "internalType": "uint256",
                    "name": "amount",
                    "type": "uint256"
                }
            ],
            "name": "transfer",
            "outputs": [
                {
                    "internalType": "bool",
                    "name": "",
                    "type": "bool"
                }
            ],
            "stateMutability": "nonpayable",
            "type": "function"
        },
        {
            "inputs": [
                {
                    "internalType": "address",
                    "name": "sender",
                    "type": "address"
                },
                {
                    "internalType": "address",
                    "name": "recipient",
                    "type": "address"
                },
                {
                    "internalType": "uint256",
                    "name": "amount",
                    "type": "uint256"
                }
            ],
            "name": "transferFrom",
            "outputs": [
                {
                    "internalType": "bool",
                    "name": "",
                    "type": "bool"
                }
            ],
            "stateMutability": "nonpayable",
            "type": "function"
        },
        {
            "inputs": [
                {
                    "internalType": "address",
                    "name": "newOwner",
                    "type": "address"
                }
            ],
            "name": "transferOwnership",
            "outputs": [],
            "stateMutability": "nonpayable",
            "type": "function"
        }
    ],
    "bytecode": "60806040523480156200001157600080fd5b50604080518082018252600a81526914dc195b1b109bdd5b9960b21b60208083019182528351808501909452600584526414d411531360da1b908401528151919291620000619160039162000191565b5080516200007790600490602084019062000191565b505050620000946200008e6200013b60201b60201c565b6200013f565b6000620000a06200013b565b6001600160a01b038116600081815260076020526040808220805460ff191660019081179091556006805480830182559084527ff652222313e28459528d920b65115c16c04f3efc82aaedc97be59f3f377c0d3f0180546001600160a01b031916851790559051939450927f966c160e1c4dbc7df8d69af4ace01e9297c3cf016397b7914971f2fbfa32672d9190a350600160085562000274565b3390565b600580546001600160a01b038381166001600160a01b0319831681179093556040519116919082907f8be0079c531659141344cd1fd0a4f28419497f9722a3daafe3b4186f6b6457e090600090a35050565b8280546200019f9062000237565b90600052602060002090601f016020900481019282620001c357600085556200020e565b82601f10620001de57805160ff19168380011785556200020e565b828001600101855582156200020e579182015b828111156200020e578251825591602001919060010190620001f1565b506200021c92915062000220565b5090565b5b808211156200021c576000815560010162000221565b6002810460018216806200024c57607f821691505b602082108114156200026e57634e487b7160e01b600052602260045260246000fd5b50919050565b611a9780620002846000396000f3fe608060405234801561001057600080fd5b506004361061014d5760003560e01c80638da5cb5b116100c3578063a9059cbb1161007c578063a9059cbb14610294578063ac8a584a146102a7578063c4d66de8146102ba578063dd62ed3e146102cd578063e28d4906146102e0578063f2fde38b146102f35761014d565b80638da5cb5b1461023857806395d89b41146102405780639870d7fe146102485780639a3073911461025b578063a457c2d71461026e578063a59f3e0c146102815761014d565b8063395093511161011557806339509351146101cd57806357f96501146101e057806367dfd4c9146101f557806370a0823114610208578063715018a61461021b578063815b7a8c146102235761014d565b806306fdde0314610152578063095ea7b31461017057806318160ddd1461019057806323b872dd146101a5578063313ce567146101b8575b600080fd5b61015a610306565b6040516101679190611441565b60405180910390f35b61018361017e36600461136a565b610398565b6040516101679190611436565b6101986103b5565b6040516101679190611931565b6101836101b336600461132a565b6103bb565b6101c0610454565b604051610167919061193a565b6101836101db36600461136a565b610459565b6101f36101ee3660046113b5565b6104ad565b005b6101f36102033660046113b5565b6105d3565b6101986102163660046112cf565b610768565b6101f3610783565b61022b6107ce565b60405161016791906113e5565b61022b6107dd565b61015a6107ec565b6101f36102563660046112cf565b6107fb565b6101836102693660046112cf565b610930565b61018361027c36600461136a565b610945565b6101f361028f3660046113b5565b6109be565b6101836102a236600461136a565b610b77565b6101f36102b53660046112cf565b610b8b565b6101f36102c83660046112cf565b610dad565b6101986102db3660046112f2565b610e1c565b61022b6102ee3660046113b5565b610e47565b6101f36103013660046112cf565b610e71565b606060038054610315906119db565b80601f0160208091040260200160405190810160405280929190818152602001828054610341906119db565b801561038e5780601f106103635761010080835404028352916020019161038e565b820191906000526020600020905b81548152906001019060200180831161037157829003601f168201915b5050505050905090565b60006103ac6103a5610ee2565b8484610ee6565b50600192915050565b60025490565b60006103c8848484610f9a565b6001600160a01b0384166000908152600160205260408120816103e9610ee2565b6001600160a01b03166001600160a01b03168152602001908152602001600020549050828110156104355760405162461bcd60e51b815260040161042c906116ac565b60405180910390fd5b61044985610441610ee2565b858403610ee6565b506001949350505050565b601290565b60006103ac610466610ee2565b848460016000610474610ee2565b6001600160a01b03908116825260208083019390935260409182016000908120918b16815292529020546104a89190611948565b610ee6565b600260085414156104d05760405162461bcd60e51b815260040161042c9061187e565b600260085560006104df610ee2565b6001600160a01b03811660009081526007602052604090205490915060ff1661051a5760405162461bcd60e51b815260040161042c906117f7565b600954600160a01b900460ff166105435760405162461bcd60e51b815260040161042c906115eb565b6009546040516323b872dd60e01b81526001600160a01b03909116906323b872dd90610577903390309087906004016113f9565b602060405180830381600087803b15801561059157600080fd5b505af11580156105a5573d6000803e3d6000fd5b505050506040513d601f19601f820116820180604052508101906105c99190611395565b5050600160085550565b600260085414156105f65760405162461bcd60e51b815260040161042c9061187e565b6002600855600954600160a01b900460ff166106245760405162461bcd60e51b815260040161042c906115eb565b600061062e6103b5565b6009546040516370a0823160e01b815291925060009183916001600160a01b0316906370a08231906106649030906004016113e5565b60206040518083038186803b15801561067c57600080fd5b505afa158015610690573d6000803e3d6000fd5b505050506040513d601f19601f820116820180604052508101906106b491906113cd565b6106be9190611985565b905060006106cc82856119a5565b90506106d833856110c4565b60095460405163a9059cbb60e01b81526001600160a01b039091169063a9059cbb9061070a903390859060040161141d565b602060405180830381600087803b15801561072457600080fd5b505af1158015610738573d6000803e3d6000fd5b505050506040513d601f19601f8201168201806040525081019061075c9190611395565b50506001600855505050565b6001600160a01b031660009081526020819052604090205490565b61078b610ee2565b6001600160a01b031661079c6107dd565b6001600160a01b0316146107c25760405162461bcd60e51b815260040161042c906116f4565b6107cc60006111b5565b565b6009546001600160a01b031681565b6005546001600160a01b031690565b606060048054610315906119db565b6000610805610ee2565b6001600160a01b03811660009081526007602052604090205490915060ff166108405760405162461bcd60e51b815260040161042c906117f7565b6001600160a01b0382166108665760405162461bcd60e51b815260040161042c906115a1565b6001600160a01b03821660009081526007602052604090205460ff161561089f5760405162461bcd60e51b815260040161042c90611729565b6001600160a01b038216600081815260076020526040808220805460ff191660019081179091556006805480830182559084527ff652222313e28459528d920b65115c16c04f3efc82aaedc97be59f3f377c0d3f0180546001600160a01b0319168517905590519092917f966c160e1c4dbc7df8d69af4ace01e9297c3cf016397b7914971f2fbfa32672d91a35050565b60076020526000908152604090205460ff1681565b60008060016000610954610ee2565b6001600160a01b03908116825260208083019390935260409182016000908120918816815292529020549050828110156109a05760405162461bcd60e51b815260040161042c906118b5565b6109b46109ab610ee2565b85858403610ee6565b5060019392505050565b600260085414156109e15760405162461bcd60e51b815260040161042c9061187e565b6002600855600954600160a01b900460ff16610a0f5760405162461bcd60e51b815260040161042c906115eb565b6009546040516370a0823160e01b81526000916001600160a01b0316906370a0823190610a409030906004016113e5565b60206040518083038186803b158015610a5857600080fd5b505afa158015610a6c573d6000803e3d6000fd5b505050506040513d601f19601f82011682018060405250810190610a9091906113cd565b90506000610a9c6103b5565b9050801580610aa9575081155b15610abd57610ab83384611207565b610ae6565b6000610ac98383611985565b90506000610ad782866119a5565b9050610ae33382611207565b50505b6009546040516323b872dd60e01b81526001600160a01b03909116906323b872dd90610b1a903390309088906004016113f9565b602060405180830381600087803b158015610b3457600080fd5b505af1158015610b48573d6000803e3d6000fd5b505050506040513d601f19601f82011682018060405250810190610b6c9190611395565b505060016008555050565b60006103ac610b84610ee2565b8484610f9a565b6000610b95610ee2565b6001600160a01b03811660009081526007602052604090205490915060ff16610bd05760405162461bcd60e51b815260040161042c906117f7565b6001600160a01b03821660009081526007602052604090205460ff16610c085760405162461bcd60e51b815260040161042c90611668565b6001600160a01b0382166000908152600760205260408120805460ff191690555b60065460ff82161015610da757826001600160a01b031660068260ff1681548110610c6457634e487b7160e01b600052603260045260246000fd5b6000918252602090912001546001600160a01b03161415610d95576006610c8c826001611960565b60ff1681548110610cad57634e487b7160e01b600052603260045260246000fd5b600091825260209091200154600680546001600160a01b039092169160ff8416908110610cea57634e487b7160e01b600052603260045260246000fd5b9060005260206000200160006101000a8154816001600160a01b0302191690836001600160a01b031602179055506006805480610d3757634e487b7160e01b600052603160045260246000fd5b600082815260208120820160001990810180546001600160a01b03191690559091019091556040516001600160a01b038516907f966c160e1c4dbc7df8d69af4ace01e9297c3cf016397b7914971f2fbfa32672d908390a350610da9565b80610d9f81611a16565b915050610c29565b505b5050565b610db5610ee2565b6001600160a01b0316610dc66107dd565b6001600160a01b031614610dec5760405162461bcd60e51b815260040161042c906116f4565b6009805460ff60a01b196001600160a01b039093166001600160a01b03199091161791909116600160a01b179055565b6001600160a01b03918216600090815260016020908152604080832093909416825291909152205490565b60068181548110610e5757600080fd5b6000918252602090912001546001600160a01b0316905081565b610e79610ee2565b6001600160a01b0316610e8a6107dd565b6001600160a01b031614610eb05760405162461bcd60e51b815260040161042c906116f4565b6001600160a01b038116610ed65760405162461bcd60e51b815260040161042c90611519565b610edf816111b5565b50565b3390565b6001600160a01b038316610f0c5760405162461bcd60e51b815260040161042c9061183a565b6001600160a01b038216610f325760405162461bcd60e51b815260040161042c9061155f565b6001600160a01b0380841660008181526001602090815260408083209487168084529490915290819020849055517f8c5be1e5ebec7d5bd14f71427d1e84f3dd0314c0f7b2291e5b200ac8c7c3b92590610f8d908590611931565b60405180910390a3505050565b6001600160a01b038316610fc05760405162461bcd60e51b815260040161042c906117b2565b6001600160a01b038216610fe65760405162461bcd60e51b815260040161042c90611494565b610ff1838383610da7565b6001600160a01b0383166000908152602081905260409020548181101561102a5760405162461bcd60e51b815260040161042c90611622565b6001600160a01b03808516600090815260208190526040808220858503905591851681529081208054849290611061908490611948565b92505081905550826001600160a01b0316846001600160a01b03167fddf252ad1be2c89b69c2b068fc378daa952ba7f163c4a11628f55a4df523b3ef846040516110ab9190611931565b60405180910390a36110be848484610da7565b50505050565b6001600160a01b0382166110ea5760405162461bcd60e51b815260040161042c90611771565b6110f682600083610da7565b6001600160a01b0382166000908152602081905260409020548181101561112f5760405162461bcd60e51b815260040161042c906114d7565b6001600160a01b038316600090815260208190526040812083830390556002805484929061115e9084906119c4565b90915550506040516000906001600160a01b038516907fddf252ad1be2c89b69c2b068fc378daa952ba7f163c4a11628f55a4df523b3ef906111a1908690611931565b60405180910390a3610da783600084610da7565b600580546001600160a01b038381166001600160a01b0319831681179093556040519116919082907f8be0079c531659141344cd1fd0a4f28419497f9722a3daafe3b4186f6b6457e090600090a35050565b6001600160a01b03821661122d5760405162461bcd60e51b815260040161042c906118fa565b61123960008383610da7565b806002600082825461124b9190611948565b90915550506001600160a01b03821660009081526020819052604081208054839290611278908490611948565b90915550506040516001600160a01b038316906000907fddf252ad1be2c89b69c2b068fc378daa952ba7f163c4a11628f55a4df523b3ef906112bb908590611931565b60405180910390a3610da960008383610da7565b6000602082840312156112e0578081fd5b81356112eb81611a4c565b9392505050565b60008060408385031215611304578081fd5b823561130f81611a4c565b9150602083013561131f81611a4c565b809150509250929050565b60008060006060848603121561133e578081fd5b833561134981611a4c565b9250602084013561135981611a4c565b929592945050506040919091013590565b6000806040838503121561137c578182fd5b823561138781611a4c565b946020939093013593505050565b6000602082840312156113a6578081fd5b815180151581146112eb578182fd5b6000602082840312156113c6578081fd5b5035919050565b6000602082840312156113de578081fd5b5051919050565b6001600160a01b0391909116815260200190565b6001600160a01b039384168152919092166020820152604081019190915260600190565b6001600160a01b03929092168252602082015260400190565b901515815260200190565b6000602080835283518082850152825b8181101561146d57858101830151858201604001528201611451565b8181111561147e5783604083870101525b50601f01601f1916929092016040019392505050565b60208082526023908201527f45524332303a207472616e7366657220746f20746865207a65726f206164647260408201526265737360e81b606082015260800190565b60208082526022908201527f45524332303a206275726e20616d6f756e7420657863656564732062616c616e604082015261636560f01b606082015260800190565b60208082526026908201527f4f776e61626c653a206e6577206f776e657220697320746865207a65726f206160408201526564647265737360d01b606082015260800190565b60208082526022908201527f45524332303a20617070726f766520746f20746865207a65726f206164647265604082015261737360f01b606082015260800190565b6020808252602a908201527f4f70657261626c653a206e6577206f70657261746f7220697320746865207a65604082015269726f206164647265737360b01b606082015260800190565b60208082526019908201527f7374616b696e6720686173206e6f742079657420626567756e00000000000000604082015260600190565b60208082526026908201527f45524332303a207472616e7366657220616d6f756e7420657863656564732062604082015265616c616e636560d01b606082015260800190565b60208082526024908201527f4f70657261626c653a2061646472657373206973206e6f7420616e206f70657260408201526330ba37b960e11b606082015260800190565b60208082526028908201527f45524332303a207472616e7366657220616d6f756e74206578636565647320616040820152676c6c6f77616e636560c01b606082015260800190565b6020808252818101527f4f776e61626c653a2063616c6c6572206973206e6f7420746865206f776e6572604082015260600190565b60208082526028908201527f4f70657261626c653a206164647265737320697320616c726561647920616e2060408201526737b832b930ba37b960c11b606082015260800190565b60208082526021908201527f45524332303a206275726e2066726f6d20746865207a65726f206164647265736040820152607360f81b606082015260800190565b60208082526025908201527f45524332303a207472616e736665722066726f6d20746865207a65726f206164604082015264647265737360d81b606082015260800190565b60208082526023908201527f4f70657261746f723a2063616c6c6572206973206e6f7420616e206f706572616040820152623a37b960e91b606082015260800190565b60208082526024908201527f45524332303a20617070726f76652066726f6d20746865207a65726f206164646040820152637265737360e01b606082015260800190565b6020808252601f908201527f5265656e7472616e637947756172643a207265656e7472616e742063616c6c00604082015260600190565b60208082526025908201527f45524332303a2064656372656173656420616c6c6f77616e63652062656c6f77604082015264207a65726f60d81b606082015260800190565b6020808252601f908201527f45524332303a206d696e7420746f20746865207a65726f206164647265737300604082015260600190565b90815260200190565b60ff91909116815260200190565b6000821982111561195b5761195b611a36565b500190565b600060ff821660ff84168060ff0382111561197d5761197d611a36565b019392505050565b6000826119a057634e487b7160e01b81526012600452602481fd5b500490565b60008160001904831182151516156119bf576119bf611a36565b500290565b6000828210156119d6576119d6611a36565b500390565b6002810460018216806119ef57607f821691505b60208210811415611a1057634e487b7160e01b600052602260045260246000fd5b50919050565b600060ff821660ff811415611a2d57611a2d611a36565b60010192915050565b634e487b7160e01b600052601160045260246000fd5b6001600160a01b0381168114610edf57600080fdfea2646970667358221220ddc5bd55d463c6af8e00b99fda7bbd421bcf02b9d78a873821afd00a379bea6064736f6c63430008000033",
    "sourcePath": "/Users/unico/Documents/GitHub/SoulSwap/soulswap-farms/contracts/SpellBound.sol",
    "compiler": {
        "name": "solc",
        "version": "0.8.0+commit.c7dfd78e"
    },
    "functionHashes": {
        "addOperator(address)": "9870d7fe",
        "allowance(address,address)": "dd62ed3e",
        "approve(address,uint256)": "095ea7b3",
        "balanceOf(address)": "70a08231",
        "boundSpell(uint256)": "57f96501",
        "decimals()": "313ce567",
        "decreaseAllowance(address,uint256)": "a457c2d7",
        "enter(uint256)": "a59f3e0c",
        "increaseAllowance(address,uint256)": "39509351",
        "initialize(address)": "c4d66de8",
        "leave(uint256)": "67dfd4c9",
        "name()": "06fdde03",
        "operator(address)": "9a307391",
        "operators(uint256)": "e28d4906",
        "owner()": "8da5cb5b",
        "removeOperator(address)": "ac8a584a",
        "renounceOwnership()": "715018a6",
        "soul()": "815b7a8c",
        "symbol()": "95d89b41",
        "totalSupply()": "18160ddd",
        "transfer(address,uint256)": "a9059cbb",
        "transferFrom(address,address,uint256)": "23b872dd",
        "transferOwnership(address)": "f2fde38b"
    },
    "gasEstimates": {
        "creation": {
            "codeDepositCost": "1361400",
            "executionCost": "infinite",
            "totalCost": "infinite"
        },
        "external": {
            "addOperator(address)": "66375",
            "allowance(address,address)": "infinite",
            "approve(address,uint256)": "22623",
            "balanceOf(address)": "1356",
            "boundSpell(uint256)": "infinite",
            "decimals()": "352",
            "decreaseAllowance(address,uint256)": "infinite",
            "enter(uint256)": "infinite",
            "increaseAllowance(address,uint256)": "infinite",
            "initialize(address)": "22191",
            "leave(uint256)": "infinite",
            "name()": "infinite",
            "operator(address)": "1347",
            "operators(uint256)": "2148",
            "owner()": "1093",
            "removeOperator(address)": "infinite",
            "renounceOwnership()": "23618",
            "soul()": "1203",
            "symbol()": "infinite",
            "totalSupply()": "1096",
            "transfer(address,uint256)": "infinite",
            "transferFrom(address,address,uint256)": "infinite",
            "transferOwnership(address)": "infinite"
        }
    }
}