{
    "contractName": "MockSoulSummoner",
    "abi": [
        {
            "inputs": [],
            "stateMutability": "nonpayable",
            "type": "constructor"
        },
        {
            "anonymous": false,
            "inputs": [
                {
                    "indexed": false,
                    "internalType": "address",
                    "name": "dao",
                    "type": "address"
                },
                {
                    "indexed": false,
                    "internalType": "address",
                    "name": "team",
                    "type": "address"
                }
            ],
            "name": "AccountsUpdated",
            "type": "event"
        },
        {
            "anonymous": false,
            "inputs": [
                {
                    "indexed": true,
                    "internalType": "address",
                    "name": "user",
                    "type": "address"
                },
                {
                    "indexed": true,
                    "internalType": "uint256",
                    "name": "pid",
                    "type": "uint256"
                },
                {
                    "indexed": false,
                    "internalType": "uint256",
                    "name": "amount",
                    "type": "uint256"
                }
            ],
            "name": "Deposit",
            "type": "event"
        },
        {
            "anonymous": false,
            "inputs": [
                {
                    "indexed": false,
                    "internalType": "uint256",
                    "name": "_pid",
                    "type": "uint256"
                },
                {
                    "indexed": false,
                    "internalType": "address",
                    "name": "_user",
                    "type": "address"
                },
                {
                    "indexed": false,
                    "internalType": "uint256",
                    "name": "_time",
                    "type": "uint256"
                }
            ],
            "name": "DepositRevised",
            "type": "event"
        },
        {
            "anonymous": false,
            "inputs": [
                {
                    "indexed": false,
                    "internalType": "address",
                    "name": "team",
                    "type": "address"
                },
                {
                    "indexed": false,
                    "internalType": "address",
                    "name": "dao",
                    "type": "address"
                },
                {
                    "indexed": false,
                    "internalType": "address",
                    "name": "soul",
                    "type": "address"
                },
                {
                    "indexed": false,
                    "internalType": "address",
                    "name": "seance",
                    "type": "address"
                },
                {
                    "indexed": false,
                    "internalType": "uint256",
                    "name": "totalAllocPoint",
                    "type": "uint256"
                },
                {
                    "indexed": false,
                    "internalType": "uint256",
                    "name": "weight",
                    "type": "uint256"
                }
            ],
            "name": "Initialized",
            "type": "event"
        },
        {
            "anonymous": false,
            "inputs": [
                {
                    "indexed": true,
                    "internalType": "address",
                    "name": "previousOwner",
                    "type": "address"
                },
                {
                    "indexed": true,
                    "internalType": "address",
                    "name": "newOwner",
                    "type": "address"
                }
            ],
            "name": "OwnershipTransferred",
            "type": "event"
        },
        {
            "anonymous": false,
            "inputs": [
                {
                    "indexed": false,
                    "internalType": "address",
                    "name": "account",
                    "type": "address"
                }
            ],
            "name": "Paused",
            "type": "event"
        },
        {
            "anonymous": false,
            "inputs": [
                {
                    "indexed": false,
                    "internalType": "uint256",
                    "name": "pid",
                    "type": "uint256"
                },
                {
                    "indexed": false,
                    "internalType": "uint256",
                    "name": "allocPoint",
                    "type": "uint256"
                },
                {
                    "indexed": false,
                    "internalType": "contract IERC20",
                    "name": "lpToken",
                    "type": "address"
                },
                {
                    "indexed": false,
                    "internalType": "uint256",
                    "name": "totalAllocPoint",
                    "type": "uint256"
                }
            ],
            "name": "PoolAdded",
            "type": "event"
        },
        {
            "anonymous": false,
            "inputs": [
                {
                    "indexed": false,
                    "internalType": "uint256",
                    "name": "pid",
                    "type": "uint256"
                },
                {
                    "indexed": false,
                    "internalType": "uint256",
                    "name": "allocPoint",
                    "type": "uint256"
                }
            ],
            "name": "PoolSet",
            "type": "event"
        },
        {
            "anonymous": false,
            "inputs": [
                {
                    "indexed": false,
                    "internalType": "uint256",
                    "name": "dailySoul",
                    "type": "uint256"
                },
                {
                    "indexed": false,
                    "internalType": "uint256",
                    "name": "soulPerSecond",
                    "type": "uint256"
                }
            ],
            "name": "RewardsUpdated",
            "type": "event"
        },
        {
            "anonymous": false,
            "inputs": [
                {
                    "indexed": true,
                    "internalType": "bytes32",
                    "name": "role",
                    "type": "bytes32"
                },
                {
                    "indexed": true,
                    "internalType": "bytes32",
                    "name": "previousAdminRole",
                    "type": "bytes32"
                },
                {
                    "indexed": true,
                    "internalType": "bytes32",
                    "name": "newAdminRole",
                    "type": "bytes32"
                }
            ],
            "name": "RoleAdminChanged",
            "type": "event"
        },
        {
            "anonymous": false,
            "inputs": [
                {
                    "indexed": false,
                    "internalType": "bytes32",
                    "name": "role",
                    "type": "bytes32"
                },
                {
                    "indexed": false,
                    "internalType": "bytes32",
                    "name": "supreme",
                    "type": "bytes32"
                }
            ],
            "name": "RoleDivinated",
            "type": "event"
        },
        {
            "anonymous": false,
            "inputs": [
                {
                    "indexed": true,
                    "internalType": "bytes32",
                    "name": "role",
                    "type": "bytes32"
                },
                {
                    "indexed": true,
                    "internalType": "address",
                    "name": "account",
                    "type": "address"
                },
                {
                    "indexed": true,
                    "internalType": "address",
                    "name": "sender",
                    "type": "address"
                }
            ],
            "name": "RoleGranted",
            "type": "event"
        },
        {
            "anonymous": false,
            "inputs": [
                {
                    "indexed": true,
                    "internalType": "bytes32",
                    "name": "role",
                    "type": "bytes32"
                },
                {
                    "indexed": true,
                    "internalType": "address",
                    "name": "account",
                    "type": "address"
                },
                {
                    "indexed": true,
                    "internalType": "address",
                    "name": "sender",
                    "type": "address"
                }
            ],
            "name": "RoleRevoked",
            "type": "event"
        },
        {
            "anonymous": false,
            "inputs": [
                {
                    "indexed": false,
                    "internalType": "uint256",
                    "name": "startRate",
                    "type": "uint256"
                }
            ],
            "name": "StartRateUpdated",
            "type": "event"
        },
        {
            "anonymous": false,
            "inputs": [
                {
                    "indexed": false,
                    "internalType": "address",
                    "name": "soul",
                    "type": "address"
                },
                {
                    "indexed": false,
                    "internalType": "address",
                    "name": "seance",
                    "type": "address"
                }
            ],
            "name": "TokensUpdated",
            "type": "event"
        },
        {
            "anonymous": false,
            "inputs": [
                {
                    "indexed": false,
                    "internalType": "address",
                    "name": "account",
                    "type": "address"
                }
            ],
            "name": "Unpaused",
            "type": "event"
        },
        {
            "anonymous": false,
            "inputs": [
                {
                    "indexed": false,
                    "internalType": "uint256",
                    "name": "weight",
                    "type": "uint256"
                },
                {
                    "indexed": false,
                    "internalType": "uint256",
                    "name": "totalWeight",
                    "type": "uint256"
                }
            ],
            "name": "WeightUpdated",
            "type": "event"
        },
        {
            "anonymous": false,
            "inputs": [
                {
                    "indexed": true,
                    "internalType": "address",
                    "name": "user",
                    "type": "address"
                },
                {
                    "indexed": true,
                    "internalType": "uint256",
                    "name": "pid",
                    "type": "uint256"
                },
                {
                    "indexed": false,
                    "internalType": "uint256",
                    "name": "amount",
                    "type": "uint256"
                },
                {
                    "indexed": false,
                    "internalType": "uint256",
                    "name": "timeStamp",
                    "type": "uint256"
                }
            ],
            "name": "Withdraw",
            "type": "event"
        },
        {
            "inputs": [],
            "name": "DEFAULT_ADMIN_ROLE",
            "outputs": [
                {
                    "internalType": "bytes32",
                    "name": "",
                    "type": "bytes32"
                }
            ],
            "stateMutability": "view",
            "type": "function"
        },
        {
            "inputs": [
                {
                    "internalType": "uint256",
                    "name": "_allocPoint",
                    "type": "uint256"
                },
                {
                    "internalType": "contract IERC20",
                    "name": "_lpToken",
                    "type": "address"
                },
                {
                    "internalType": "bool",
                    "name": "_withUpdate",
                    "type": "bool"
                }
            ],
            "name": "addPool",
            "outputs": [],
            "stateMutability": "nonpayable",
            "type": "function"
        },
        {
            "inputs": [],
            "name": "bonusMultiplier",
            "outputs": [
                {
                    "internalType": "uint256",
                    "name": "",
                    "type": "uint256"
                }
            ],
            "stateMutability": "view",
            "type": "function"
        },
        {
            "inputs": [],
            "name": "dailyDecay",
            "outputs": [
                {
                    "internalType": "uint256",
                    "name": "",
                    "type": "uint256"
                }
            ],
            "stateMutability": "view",
            "type": "function"
        },
        {
            "inputs": [],
            "name": "dailySoul",
            "outputs": [
                {
                    "internalType": "uint256",
                    "name": "",
                    "type": "uint256"
                }
            ],
            "stateMutability": "view",
            "type": "function"
        },
        {
            "inputs": [],
            "name": "dao",
            "outputs": [
                {
                    "internalType": "address",
                    "name": "",
                    "type": "address"
                }
            ],
            "stateMutability": "view",
            "type": "function"
        },
        {
            "inputs": [
                {
                    "internalType": "uint256",
                    "name": "pid",
                    "type": "uint256"
                },
                {
                    "internalType": "uint256",
                    "name": "amount",
                    "type": "uint256"
                }
            ],
            "name": "deposit",
            "outputs": [],
            "stateMutability": "nonpayable",
            "type": "function"
        },
        {
            "inputs": [
                {
                    "internalType": "uint256",
                    "name": "amount",
                    "type": "uint256"
                }
            ],
            "name": "enWei",
            "outputs": [
                {
                    "internalType": "uint256",
                    "name": "",
                    "type": "uint256"
                }
            ],
            "stateMutability": "pure",
            "type": "function"
        },
        {
            "inputs": [
                {
                    "internalType": "uint256",
                    "name": "amount",
                    "type": "uint256"
                }
            ],
            "name": "enterStaking",
            "outputs": [],
            "stateMutability": "nonpayable",
            "type": "function"
        },
        {
            "inputs": [
                {
                    "internalType": "uint256",
                    "name": "amount",
                    "type": "uint256"
                }
            ],
            "name": "fromWei",
            "outputs": [
                {
                    "internalType": "uint256",
                    "name": "",
                    "type": "uint256"
                }
            ],
            "stateMutability": "pure",
            "type": "function"
        },
        {
            "inputs": [
                {
                    "internalType": "uint256",
                    "name": "pid",
                    "type": "uint256"
                },
                {
                    "internalType": "uint256",
                    "name": "timeDelta",
                    "type": "uint256"
                }
            ],
            "name": "getFeeRate",
            "outputs": [
                {
                    "internalType": "uint256",
                    "name": "feeRate",
                    "type": "uint256"
                }
            ],
            "stateMutability": "view",
            "type": "function"
        },
        {
            "inputs": [
                {
                    "internalType": "uint256",
                    "name": "from",
                    "type": "uint256"
                },
                {
                    "internalType": "uint256",
                    "name": "to",
                    "type": "uint256"
                }
            ],
            "name": "getMultiplier",
            "outputs": [
                {
                    "internalType": "uint256",
                    "name": "",
                    "type": "uint256"
                }
            ],
            "stateMutability": "view",
            "type": "function"
        },
        {
            "inputs": [
                {
                    "internalType": "bytes32",
                    "name": "role",
                    "type": "bytes32"
                }
            ],
            "name": "getRoleAdmin",
            "outputs": [
                {
                    "internalType": "bytes32",
                    "name": "",
                    "type": "bytes32"
                }
            ],
            "stateMutability": "view",
            "type": "function"
        },
        {
            "inputs": [
                {
                    "internalType": "uint256",
                    "name": "pid",
                    "type": "uint256"
                },
                {
                    "internalType": "uint256",
                    "name": "timeDelta",
                    "type": "uint256"
                },
                {
                    "internalType": "uint256",
                    "name": "amount",
                    "type": "uint256"
                }
            ],
            "name": "getWithdrawable",
            "outputs": [
                {
                    "internalType": "uint256",
                    "name": "_feeAmount",
                    "type": "uint256"
                },
                {
                    "internalType": "uint256",
                    "name": "_withdrawable",
                    "type": "uint256"
                }
            ],
            "stateMutability": "view",
            "type": "function"
        },
        {
            "inputs": [
                {
                    "internalType": "bytes32",
                    "name": "role",
                    "type": "bytes32"
                },
                {
                    "internalType": "address",
                    "name": "account",
                    "type": "address"
                }
            ],
            "name": "grantRole",
            "outputs": [],
            "stateMutability": "nonpayable",
            "type": "function"
        },
        {
            "inputs": [
                {
                    "internalType": "bytes32",
                    "name": "role",
                    "type": "bytes32"
                }
            ],
            "name": "hasDivineRole",
            "outputs": [
                {
                    "internalType": "bool",
                    "name": "",
                    "type": "bool"
                }
            ],
            "stateMutability": "view",
            "type": "function"
        },
        {
            "inputs": [
                {
                    "internalType": "bytes32",
                    "name": "role",
                    "type": "bytes32"
                },
                {
                    "internalType": "address",
                    "name": "account",
                    "type": "address"
                }
            ],
            "name": "hasRole",
            "outputs": [
                {
                    "internalType": "bool",
                    "name": "",
                    "type": "bool"
                }
            ],
            "stateMutability": "view",
            "type": "function"
        },
        {
            "inputs": [
                {
                    "internalType": "address",
                    "name": "_soulAddress",
                    "type": "address"
                },
                {
                    "internalType": "address",
                    "name": "_seanceAddress",
                    "type": "address"
                },
                {
                    "internalType": "uint256",
                    "name": "_totalWeight",
                    "type": "uint256"
                },
                {
                    "internalType": "uint256",
                    "name": "_weight",
                    "type": "uint256"
                },
                {
                    "internalType": "uint256",
                    "name": "_stakingAlloc",
                    "type": "uint256"
                },
                {
                    "internalType": "uint256",
                    "name": "_startRate",
                    "type": "uint256"
                },
                {
                    "internalType": "uint256",
                    "name": "_dailyDecay",
                    "type": "uint256"
                }
            ],
            "name": "initialize",
            "outputs": [],
            "stateMutability": "nonpayable",
            "type": "function"
        },
        {
            "inputs": [],
            "name": "isInitialized",
            "outputs": [
                {
                    "internalType": "bool",
                    "name": "",
                    "type": "bool"
                }
            ],
            "stateMutability": "view",
            "type": "function"
        },
        {
            "inputs": [],
            "name": "isis",
            "outputs": [
                {
                    "internalType": "bytes32",
                    "name": "",
                    "type": "bytes32"
                }
            ],
            "stateMutability": "view",
            "type": "function"
        },
        {
            "inputs": [
                {
                    "internalType": "uint256",
                    "name": "amount",
                    "type": "uint256"
                }
            ],
            "name": "leaveStaking",
            "outputs": [],
            "stateMutability": "nonpayable",
            "type": "function"
        },
        {
            "inputs": [],
            "name": "maat",
            "outputs": [
                {
                    "internalType": "bytes32",
                    "name": "",
                    "type": "bytes32"
                }
            ],
            "stateMutability": "view",
            "type": "function"
        },
        {
            "inputs": [],
            "name": "massUpdatePools",
            "outputs": [],
            "stateMutability": "nonpayable",
            "type": "function"
        },
        {
            "inputs": [
                {
                    "internalType": "uint256",
                    "name": "pid",
                    "type": "uint256"
                }
            ],
            "name": "migrate",
            "outputs": [],
            "stateMutability": "nonpayable",
            "type": "function"
        },
        {
            "inputs": [],
            "name": "migrator",
            "outputs": [
                {
                    "internalType": "contract IMigrator",
                    "name": "",
                    "type": "address"
                }
            ],
            "stateMutability": "view",
            "type": "function"
        },
        {
            "inputs": [],
            "name": "owner",
            "outputs": [
                {
                    "internalType": "address",
                    "name": "",
                    "type": "address"
                }
            ],
            "stateMutability": "view",
            "type": "function"
        },
        {
            "inputs": [],
            "name": "paused",
            "outputs": [
                {
                    "internalType": "bool",
                    "name": "",
                    "type": "bool"
                }
            ],
            "stateMutability": "view",
            "type": "function"
        },
        {
            "inputs": [
                {
                    "internalType": "uint256",
                    "name": "pid",
                    "type": "uint256"
                },
                {
                    "internalType": "address",
                    "name": "_user",
                    "type": "address"
                }
            ],
            "name": "pendingSoul",
            "outputs": [
                {
                    "internalType": "uint256",
                    "name": "pendingAmount",
                    "type": "uint256"
                }
            ],
            "stateMutability": "view",
            "type": "function"
        },
        {
            "inputs": [
                {
                    "internalType": "uint256",
                    "name": "",
                    "type": "uint256"
                }
            ],
            "name": "poolInfo",
            "outputs": [
                {
                    "internalType": "contract IERC20",
                    "name": "lpToken",
                    "type": "address"
                },
                {
                    "internalType": "uint256",
                    "name": "allocPoint",
                    "type": "uint256"
                },
                {
                    "internalType": "uint256",
                    "name": "lastRewardTime",
                    "type": "uint256"
                },
                {
                    "internalType": "uint256",
                    "name": "accSoulPerShare",
                    "type": "uint256"
                }
            ],
            "stateMutability": "view",
            "type": "function"
        },
        {
            "inputs": [],
            "name": "poolLength",
            "outputs": [
                {
                    "internalType": "uint256",
                    "name": "",
                    "type": "uint256"
                }
            ],
            "stateMutability": "view",
            "type": "function"
        },
        {
            "inputs": [],
            "name": "renounceOwnership",
            "outputs": [],
            "stateMutability": "nonpayable",
            "type": "function"
        },
        {
            "inputs": [
                {
                    "internalType": "bytes32",
                    "name": "role",
                    "type": "bytes32"
                },
                {
                    "internalType": "address",
                    "name": "account",
                    "type": "address"
                }
            ],
            "name": "renounceRole",
            "outputs": [],
            "stateMutability": "nonpayable",
            "type": "function"
        },
        {
            "inputs": [
                {
                    "internalType": "uint256",
                    "name": "_pid",
                    "type": "uint256"
                },
                {
                    "internalType": "address",
                    "name": "_user",
                    "type": "address"
                },
                {
                    "internalType": "uint256",
                    "name": "_time",
                    "type": "uint256"
                }
            ],
            "name": "reviseDeposit",
            "outputs": [],
            "stateMutability": "nonpayable",
            "type": "function"
        },
        {
            "inputs": [
                {
                    "internalType": "bytes32",
                    "name": "role",
                    "type": "bytes32"
                },
                {
                    "internalType": "address",
                    "name": "account",
                    "type": "address"
                }
            ],
            "name": "revokeRole",
            "outputs": [],
            "stateMutability": "nonpayable",
            "type": "function"
        },
        {
            "inputs": [],
            "name": "seance",
            "outputs": [
                {
                    "internalType": "contract MockSeanceCircle",
                    "name": "",
                    "type": "address"
                }
            ],
            "stateMutability": "view",
            "type": "function"
        },
        {
            "inputs": [
                {
                    "internalType": "uint256",
                    "name": "pid",
                    "type": "uint256"
                },
                {
                    "internalType": "uint256",
                    "name": "allocPoint",
                    "type": "uint256"
                },
                {
                    "internalType": "bool",
                    "name": "withUpdate",
                    "type": "bool"
                }
            ],
            "name": "set",
            "outputs": [],
            "stateMutability": "nonpayable",
            "type": "function"
        },
        {
            "inputs": [
                {
                    "internalType": "contract IMigrator",
                    "name": "_migrator",
                    "type": "address"
                }
            ],
            "name": "setMigrator",
            "outputs": [],
            "stateMutability": "nonpayable",
            "type": "function"
        },
        {
            "inputs": [],
            "name": "soul",
            "outputs": [
                {
                    "internalType": "contract MockSoulPower",
                    "name": "",
                    "type": "address"
                }
            ],
            "stateMutability": "view",
            "type": "function"
        },
        {
            "inputs": [],
            "name": "soulPerSecond",
            "outputs": [
                {
                    "internalType": "uint256",
                    "name": "",
                    "type": "uint256"
                }
            ],
            "stateMutability": "view",
            "type": "function"
        },
        {
            "inputs": [],
            "name": "startRate",
            "outputs": [
                {
                    "internalType": "uint256",
                    "name": "",
                    "type": "uint256"
                }
            ],
            "stateMutability": "view",
            "type": "function"
        },
        {
            "inputs": [],
            "name": "startTime",
            "outputs": [
                {
                    "internalType": "uint256",
                    "name": "",
                    "type": "uint256"
                }
            ],
            "stateMutability": "view",
            "type": "function"
        },
        {
            "inputs": [
                {
                    "internalType": "bytes4",
                    "name": "interfaceId",
                    "type": "bytes4"
                }
            ],
            "name": "supportsInterface",
            "outputs": [
                {
                    "internalType": "bool",
                    "name": "",
                    "type": "bool"
                }
            ],
            "stateMutability": "view",
            "type": "function"
        },
        {
            "inputs": [],
            "name": "team",
            "outputs": [
                {
                    "internalType": "address",
                    "name": "",
                    "type": "address"
                }
            ],
            "stateMutability": "view",
            "type": "function"
        },
        {
            "inputs": [],
            "name": "totalAllocPoint",
            "outputs": [
                {
                    "internalType": "uint256",
                    "name": "",
                    "type": "uint256"
                }
            ],
            "stateMutability": "view",
            "type": "function"
        },
        {
            "inputs": [],
            "name": "totalWeight",
            "outputs": [
                {
                    "internalType": "uint256",
                    "name": "",
                    "type": "uint256"
                }
            ],
            "stateMutability": "view",
            "type": "function"
        },
        {
            "inputs": [
                {
                    "internalType": "address",
                    "name": "newOwner",
                    "type": "address"
                }
            ],
            "name": "transferOwnership",
            "outputs": [],
            "stateMutability": "nonpayable",
            "type": "function"
        },
        {
            "inputs": [
                {
                    "internalType": "address",
                    "name": "_dao",
                    "type": "address"
                },
                {
                    "internalType": "address",
                    "name": "_team",
                    "type": "address"
                }
            ],
            "name": "updateAccounts",
            "outputs": [],
            "stateMutability": "nonpayable",
            "type": "function"
        },
        {
            "inputs": [
                {
                    "internalType": "uint256",
                    "name": "_bonusMultiplier",
                    "type": "uint256"
                }
            ],
            "name": "updateMultiplier",
            "outputs": [],
            "stateMutability": "nonpayable",
            "type": "function"
        },
        {
            "inputs": [
                {
                    "internalType": "uint256",
                    "name": "pid",
                    "type": "uint256"
                }
            ],
            "name": "updatePool",
            "outputs": [],
            "stateMutability": "nonpayable",
            "type": "function"
        },
        {
            "inputs": [
                {
                    "internalType": "uint256",
                    "name": "_startRate",
                    "type": "uint256"
                }
            ],
            "name": "updateStartRate",
            "outputs": [],
            "stateMutability": "nonpayable",
            "type": "function"
        },
        {
            "inputs": [
                {
                    "internalType": "address",
                    "name": "_soul",
                    "type": "address"
                },
                {
                    "internalType": "address",
                    "name": "_seance",
                    "type": "address"
                }
            ],
            "name": "updateTokens",
            "outputs": [],
            "stateMutability": "nonpayable",
            "type": "function"
        },
        {
            "inputs": [
                {
                    "internalType": "uint256",
                    "name": "_weight",
                    "type": "uint256"
                },
                {
                    "internalType": "uint256",
                    "name": "_totalWeight",
                    "type": "uint256"
                }
            ],
            "name": "updateWeights",
            "outputs": [],
            "stateMutability": "nonpayable",
            "type": "function"
        },
        {
            "inputs": [
                {
                    "internalType": "uint256",
                    "name": "_pid",
                    "type": "uint256"
                },
                {
                    "internalType": "address",
                    "name": "_user",
                    "type": "address"
                }
            ],
            "name": "userDelta",
            "outputs": [
                {
                    "internalType": "uint256",
                    "name": "delta",
                    "type": "uint256"
                }
            ],
            "stateMutability": "view",
            "type": "function"
        },
        {
            "inputs": [
                {
                    "internalType": "uint256",
                    "name": "",
                    "type": "uint256"
                },
                {
                    "internalType": "address",
                    "name": "",
                    "type": "address"
                }
            ],
            "name": "userInfo",
            "outputs": [
                {
                    "internalType": "uint256",
                    "name": "amount",
                    "type": "uint256"
                },
                {
                    "internalType": "uint256",
                    "name": "rewardDebt",
                    "type": "uint256"
                },
                {
                    "internalType": "uint256",
                    "name": "rewardDebtAtTime",
                    "type": "uint256"
                },
                {
                    "internalType": "uint256",
                    "name": "lastWithdrawTime",
                    "type": "uint256"
                },
                {
                    "internalType": "uint256",
                    "name": "firstDepositTime",
                    "type": "uint256"
                },
                {
                    "internalType": "uint256",
                    "name": "timeDelta",
                    "type": "uint256"
                },
                {
                    "internalType": "uint256",
                    "name": "lastDepositTime",
                    "type": "uint256"
                }
            ],
            "stateMutability": "view",
            "type": "function"
        },
        {
            "inputs": [],
            "name": "weight",
            "outputs": [
                {
                    "internalType": "uint256",
                    "name": "",
                    "type": "uint256"
                }
            ],
            "stateMutability": "view",
            "type": "function"
        },
        {
            "inputs": [
                {
                    "internalType": "uint256",
                    "name": "pid",
                    "type": "uint256"
                },
                {
                    "internalType": "uint256",
                    "name": "amount",
                    "type": "uint256"
                }
            ],
            "name": "withdraw",
            "outputs": [],
            "stateMutability": "nonpayable",
            "type": "function"
        }
    ],
    "bytecode": "60806040526001600e553480156200001657600080fd5b506200002b6200002562000102565b62000106565b6001805460ff60a01b1916815560025560078054336001600160a01b0319918216811792839055600880549092161790557f36d5d8406f8379c6deba01145ec4f6a2966675cc67d71355b397a2a8e3572b296016557f0811b25c145e1379dc78112dd91057f09150f6db05dfd7e04deb910e6cefd4b7601755620000bd9060009081906001600160a01b031662000158565b50601654600754620000db919081906001600160a01b031662000158565b50601754601654600854620000fb9291906001600160a01b031662000158565b50620002a9565b3390565b600180546001600160a01b038381166001600160a01b0319831681179093556040519116919082907f8be0079c531659141344cd1fd0a4f28419497f9722a3daafe3b4186f6b6457e090600090a35050565b60006200016684836200017c565b6200017284846200018c565b5060019392505050565b620001888282620001e1565b5050565b600062000199836200026b565b600084815260208190526040808220600101859055519192508391839186917fbd79b86ffe0ab8e8776151514217cd7cacd52c909f66475c3af44e129f0b00ff9190a4505050565b620001ed828262000280565b62000188576000828152602081815260408083206001600160a01b03851684529091529020805460ff191660011790556200022762000102565b6001600160a01b0316816001600160a01b0316837f2f8788117e7eff1d82e926ec794901d17c78024a50270940304540a733656f0d60405160405180910390a45050565b60009081526020819052604090206001015490565b6000918252602082815260408084206001600160a01b0393909316845291905290205460ff1690565b61394180620002b96000396000f3fe608060405234801561001057600080fd5b50600436106103785760003560e01c80637e668b42116101d3578063cf94ee9611610104578063ea4bf446116100a2578063f2fde38b1161007c578063f2fde38b146106d5578063fb39d1e3146106e8578063fc90fdc0146106fb578063fd6f99d01461070357610378565b8063ea4bf446146106a7578063edbf4ac2146106af578063f107fd85146106c257610378565b8063e13e8ec2116100de578063e13e8ec21461065b578063e2bbb1581461066e578063e65d152214610681578063e7aa29e31461069457610378565b8063cf94ee9614610622578063d547741f14610635578063dbaef9b01461064857610378565b806393f1a40b11610171578063a1aab33f1161014b578063a1aab33f146105f7578063a217fddf146105ff578063a8b973a114610607578063bfafcad51461060f57610378565b806393f1a40b146105b657806396c82e57146105dc5780639f6c5426146105e457610378565b806385f2aef2116101ad57806385f2aef2146105805780638da5cb5b146105885780638dbb1e3a1461059057806391d14854146105a357610378565b80637e668b4214610544578063815b7a8c1461056557806382386d581461056d57610378565b8063454b0608116102ad578063630b5ba11161024b57806378e979251161022557806378e97925146105195780637abceffd146105215780637cd07e47146105345780637d500ec81461053c57610378565b8063630b5ba1146104f657806364482f79146104fe578063715018a61461051157610378565b806351eb05a61161028757806351eb05a6146104c05780635c975abb146104d35780635f9bf689146104db5780635ffe6146146104e357610378565b8063454b0608146104925780634a962829146104a55780634ca01d45146104b857610378565b8063248a9ca31161031a578063392e53cd116102f4578063392e53cd1461044f57806341441d3b146104575780634162169f1461046a578063441a3e701461047f57610378565b8063248a9ca3146104165780632f2ff15d1461042957806336568abe1461043c57610378565b80631254f0dc116103565780631254f0dc146103d05780631526fe27146103d857806317caf6f1146103fb57806323cf31181461040357610378565b806301ffc9a71461037d578063081e3eda146103a65780631058d281146103bb575b600080fd5b61039061038b366004613021565b61070b565b60405161039d91906132b4565b60405180910390f35b6103ae610736565b60405161039d91906132bf565b6103ce6103c9366004612fe5565b61073c565b005b6103ae6109fd565b6103eb6103e6366004612fe5565b610a03565b60405161039d94939291906132c8565b6103ae610a47565b6103ce610411366004612f14565b610a4d565b6103ae610424366004612fe5565b610aa6565b6103ce610437366004612ffd565b610abb565b6103ce61044a366004612ffd565b610adf565b610390610b25565b6103ce610465366004612fe5565b610b2e565b610472610dff565b60405161039d919061320f565b6103ce61048d3660046130f5565b610e0e565b6103ce6104a0366004612fe5565b611140565b6103ce6104b3366004612fe5565b61142a565b6104726114c0565b6103ce6104ce366004612fe5565b6114cf565b6103906117ca565b6103ae6117da565b6103ce6104f1366004612fe5565b6117e0565b6103ce6117f5565b6103ce61050c366004613116565b61181c565b6103ce611958565b6103ae6119a3565b6103ce61052f3660046130b4565b6119a9565b6104726119f4565b6103ae611a03565b610557610552366004613143565b611a09565b60405161039d929190613778565b610472611ab6565b6103ce61057b36600461307d565b611ac5565b610472611b41565b610472611b50565b6103ae61059e3660046130f5565b611b5f565b6103906105b1366004612ffd565b611b80565b6105c96105c4366004612ffd565b611ba9565b60405161039d97969594939291906137aa565b6103ae611bf8565b6103ae6105f23660046130f5565b611bfe565b6103ae611c71565b6103ae611c77565b6103ae611c7c565b6103ae61061d366004612ffd565b611c82565b6103ae610630366004612fe5565b611e13565b6103ce610643366004612ffd565b611e27565b610390610656366004612fe5565b611e46565b6103ce610669366004612f30565b611e52565b6103ce61067c3660046130f5565b611f1a565b6103ae61068f366004612fe5565b6121b8565b6103ce6106a2366004612f30565b6121cc565b6103ae612284565b6103ce6106bd366004612f68565b61228a565b6103ce6106d03660046130f5565b6124e5565b6103ce6106e3366004612f14565b6125cf565b6103ae6106f6366004612ffd565b612640565b6103ae61273d565b6103ae612743565b60006001600160e01b03198216637965db0b60e01b1480610730575061073082612749565b92915050565b60145490565b6002805414156107675760405162461bcd60e51b815260040161075e90613630565b60405180910390fd5b600280819055506000601460008154811061079257634e487b7160e01b600052603260045260246000fd5b600091825260208083203384527fa31547ce6245cdb9ecea19cf8c7eb9f5974025bb4075011409251ae855b30aed90915260409092208054600490920290920192508311156107f35760405162461bcd60e51b815260040161075e906135b0565b6107fd60006114cf565b6000816001015464e8d4a510008460030154846000015461081e9190613812565b61082891906137f2565b6108329190613831565b90508015610844576108443382612762565b83156108de578154610857908590613831565b8255825460405163a9059cbb60e01b81526001600160a01b039091169063a9059cbb9061088a903390889060040161329b565b602060405180830381600087803b1580156108a457600080fd5b505af11580156108b8573d6000803e3d6000fd5b505050506040513d601f19601f820116820180604052508101906108dc9190612fc9565b505b6003830154825464e8d4a51000916108f591613812565b6108ff91906137f2565b6001830155426003830181905560408051808201909152601881527f6c617374207769746864726177616c2074696d653a20257300000000000000006020820152610949916127ca565b600654604051632770a7eb60e21b81526001600160a01b0390911690639dc29fac9061097b903390889060040161329b565b600060405180830381600087803b15801561099557600080fd5b505af11580156109a9573d6000803e3d6000fd5b505050506000336001600160a01b03167f02f25270a4d87bea75db541cdfe559334a275b4a233520ed6c0a2429667cca9486426040516109ea929190613778565b60405180910390a3505060016002555050565b60135481565b60148181548110610a1357600080fd5b600091825260209091206004909102018054600182015460028301546003909301546001600160a01b039092169350919084565b60105481565b60115460ff16610a6f5760405162461bcd60e51b815260040161075e906136ed565b601654610a8381610a7e61280f565b612813565b50600980546001600160a01b0319166001600160a01b0392909216919091179055565b60009081526020819052604090206001015490565b610ac482610aa6565b610ad081610a7e61280f565b610ada8383612877565b505050565b610ae761280f565b6001600160a01b0316816001600160a01b031614610b175760405162461bcd60e51b815260040161075e90613667565b610b2182826128fc565b5050565b60115460ff1681565b600280541415610b505760405162461bcd60e51b815260040161075e90613630565b60028055610b5c6117ca565b15610b795760405162461bcd60e51b815260040161075e906133fa565b60006014600081548110610b9d57634e487b7160e01b600052603260045260246000fd5b600091825260208083203384527fa31547ce6245cdb9ecea19cf8c7eb9f5974025bb4075011409251ae855b30aed90915260408320600490920201925090610be4906114cf565b805415610c34576000816001015464e8d4a5100084600301548460000154610c0c9190613812565b610c1691906137f2565b610c209190613831565b90508015610c3257610c323382612762565b505b8215610cd05781546040516323b872dd60e01b81526001600160a01b03909116906323b872dd90610c6d90339030908890600401613277565b602060405180830381600087803b158015610c8757600080fd5b505af1158015610c9b573d6000803e3d6000fd5b505050506040513d601f19601f82011682018060405250810190610cbf9190612fc9565b508054610ccd9084906137da565b81555b6000816004015411610ce25742610ce8565b80600401545b600482018190556040805180820190915260198152786669727374206465706f736974206d6164652061743a20257360381b6020820152610d28916127ca565b6003820154815464e8d4a5100091610d3f91613812565b610d4991906137f2565b60018201556006546040516340c10f1960e01b81526001600160a01b03909116906340c10f1990610d80903390879060040161329b565b600060405180830381600087803b158015610d9a57600080fd5b505af1158015610dae573d6000803e3d6000fd5b505050506000336001600160a01b03167f90890809c654f11d6e72a28fa60149770a0d11ec6c92319d6ceb2bb0a4ea1a1585604051610ded91906132bf565b60405180910390a35050600160025550565b6008546001600160a01b031681565b600280541415610e305760405162461bcd60e51b815260040161075e90613630565b6002805560145482908110610e575760405162461bcd60e51b815260040161075e90613583565b82610e745760405162461bcd60e51b815260040161075e9061347a565b600060148481548110610e9757634e487b7160e01b600052603260045260246000fd5b600091825260208083208784526015825260408085203386529092529220805460049092029092019250841115610ee05760405162461bcd60e51b815260040161075e906135dc565b610ee9856114cf565b6000816001015464e8d4a5100084600301548460000154610f0a9190613812565b610f1491906137f2565b610f1e9190613831565b90508015610f3057610f303382612762565b8415610f7e57600682015415610f59576006820154610f4f9042613831565b6005830155610f6e565b6004820154610f689042613831565b60058301555b8154610f7b908690613831565b82555b600086815260156020908152604080832033845290915281206005015490610fa7888389611a09565b915060009050610fb78289613831565b865460085460405163a9059cbb60e01b81529293506001600160a01b039182169263a9059cbb92610fee921690859060040161329b565b602060405180830381600087803b15801561100857600080fd5b505af115801561101c573d6000803e3d6000fd5b505050506040513d601f19601f820116820180604052508101906110409190612fc9565b50855460405163a9059cbb60e01b81526001600160a01b039091169063a9059cbb90611072903390869060040161329b565b602060405180830381600087803b15801561108c57600080fd5b505af11580156110a0573d6000803e3d6000fd5b505050506040513d601f19601f820116820180604052508101906110c49190612fc9565b506003860154855464e8d4a51000916110dc91613812565b6110e691906137f2565b600186015542600386018190556040518a9133917f02f25270a4d87bea75db541cdfe559334a275b4a233520ed6c0a2429667cca9491611128918d9190613778565b60405180910390a35050600160025550505050505050565b60115460ff166111625760405162461bcd60e51b815260040161075e906136ed565b601454819081106111855760405162461bcd60e51b815260040161075e90613583565b6009546001600160a01b03166111ad5760405162461bcd60e51b815260040161075e90613451565b6000601483815481106111d057634e487b7160e01b600052603260045260246000fd5b60009182526020822060049182020180546040516370a0823160e01b81529194506001600160a01b0316929183916370a08231916112109130910161320f565b60206040518083038186803b15801561122857600080fd5b505afa15801561123c573d6000803e3d6000fd5b505050506040513d601f19601f820116820180604052508101906112609190613065565b60095460405163095ea7b360e01b81529192506001600160a01b038085169263095ea7b392611295921690859060040161329b565b602060405180830381600087803b1580156112af57600080fd5b505af11580156112c3573d6000803e3d6000fd5b505050506040513d601f19601f820116820180604052508101906112e79190612fc9565b5060095460405163ce5494bb60e01b81526000916001600160a01b03169063ce5494bb9061131990869060040161320f565b602060405180830381600087803b15801561133357600080fd5b505af1158015611347573d6000803e3d6000fd5b505050506040513d601f19601f8201168201806040525081019061136b9190613049565b6040516370a0823160e01b81529091506001600160a01b038216906370a082319061139a90309060040161320f565b60206040518083038186803b1580156113b257600080fd5b505afa1580156113c6573d6000803e3d6000fd5b505050506040513d601f19601f820116820180604052508101906113ea9190613065565b82146114085760405162461bcd60e51b815260040161075e906136b6565b83546001600160a01b0319166001600160a01b03919091161790925550505050565b60175461143981610a7e61280f565b81601354141561144857600080fd5b60138290556040805180820190915260158152746e657720737461727420726174652069733a20257360581b602082015261148390836127ca565b7f580e2348a4d1118e1f915eeffd71aec4938e749307b28e67f19841ca64117df76013546040516114b491906132bf565b60405180910390a15050565b6006546001600160a01b031681565b601454819081106114f25760405162461bcd60e51b815260040161075e90613583565b60006014838154811061151557634e487b7160e01b600052603260045260246000fd5b90600052602060002090600402019050806002015442116115365750610b21565b80546040516370a0823160e01b81526000916001600160a01b0316906370a082319061156690309060040161320f565b60206040518083038186803b15801561157e57600080fd5b505afa158015611592573d6000803e3d6000fd5b505050506040513d601f19601f820116820180604052508101906115b69190613065565b9050806115ca575042600290910155610b21565b60006115da836002015442611b5f565b905060006010548460010154600d54846115f49190613812565b6115fe9190613812565b61160891906137f2565b90506000650746a52880006116228364e8d4a51000613812565b61162c91906137f2565b9050600061163b826002613812565b905060006116498285613831565b600480546007546040516340c10f1960e01b81529394506001600160a01b03918216936340c10f1993611682939092169188910161329b565b600060405180830381600087803b15801561169c57600080fd5b505af11580156116b0573d6000803e3d6000fd5b5050600480546008546040516340c10f1960e01b81526001600160a01b0392831695506340c10f1994506116eb93919092169188910161329b565b600060405180830381600087803b15801561170557600080fd5b505af1158015611719573d6000803e3d6000fd5b5050600480546006546040516340c10f1960e01b81526001600160a01b0392831695506340c10f19945061175493919092169186910161329b565b600060405180830381600087803b15801561176e57600080fd5b505af1158015611782573d6000803e3d6000fd5b50505050858464e8d4a510006117989190613812565b6117a291906137f2565b87600301546117b191906137da565b6003880155505042600290950194909455505050505050565b600154600160a01b900460ff1690565b600d5481565b6017546117ef81610a7e61280f565b50600e55565b60145460005b81811015610b215761180c816114cf565b6118158161388b565b90506117fb565b60115460ff1661183e5760405162461bcd60e51b815260040161075e906136ed565b601454839081106118615760405162461bcd60e51b815260040161075e90613583565b60175461187081610a7e61280f565b821561187e5761187e6117f5565b6000601486815481106118a157634e487b7160e01b600052603260045260246000fd5b906000526020600020906004020160010154905084601487815481106118d757634e487b7160e01b600052603260045260246000fd5b9060005260206000209060040201600101819055508481146119175784816010546119029190613831565b61190c91906137da565b60105561191761297f565b7fd88f859573973e938da5bf3e5100c16eee2090fa720e05ae3d452b4cd05cdcfd8686604051611948929190613778565b60405180910390a1505050505050565b61196061280f565b6001600160a01b0316611971611b50565b6001600160a01b0316146119975760405162461bcd60e51b815260040161075e906134e8565b6119a16000612a81565b565b600f5481565b60115460ff166119cb5760405162461bcd60e51b815260040161075e906136ed565b6016546119da81610a7e61280f565b6119e383612ad3565b6119ee848484612b54565b50505050565b6009546001600160a01b031681565b600c5481565b6000806000611a1b61068f8787611bfe565b905060006064611a2b8387613812565b611a3591906137f2565b9050611a646040518060400160405280600b81526020016a666565526174653a20257360a81b815250836127ca565b611a9b6040518060400160405280600d81526020016c666565416d6f756e743a20257360981b815250611a96836121b8565b6127ca565b6000611aa78287613831565b91989197509095505050505050565b6004546001600160a01b031681565b601754611ad481610a7e61280f565b60008481526015602090815260408083206001600160a01b0387168452909152908190206004810184905590517f40d6e8e3d60e4693375c73df2d1a71d582a28197c98fd8d2badad6ead06af64c90611b3290879087908790613759565b60405180910390a15050505050565b6007546001600160a01b031681565b6001546001600160a01b031690565b600e54600090611b6f8484613831565b611b799190613812565b9392505050565b6000918252602082815260408084206001600160a01b0393909316845291905290205460ff1690565b6015602052816000526040600020602052806000526040600020600091509150508060000154908060010154908060020154908060030154908060040154908060050154908060060154905087565b600a5481565b600080620151808310611c1d57611c1862015180846137f2565b611c20565b60005b9050600060125482611c329190613812565b90506000601354821015611c535781601354611c4e9190613831565b611c56565b60005b90508515611c645780611c67565b60005b9695505050505050565b600b5481565b600081565b600e5481565b60008060148481548110611ca657634e487b7160e01b600052603260045260246000fd5b600091825260208083208784526015825260408085206001600160a01b038981168752935280852060049485029092016003810154815492516370a0823160e01b815291975092959294929391909116916370a0823191611d099130910161320f565b60206040518083038186803b158015611d2157600080fd5b505afa158015611d35573d6000803e3d6000fd5b505050506040513d601f19601f82011682018060405250810190611d599190613065565b9050836002015442118015611d6d57508015155b15611ddb576000611d82856002015442611b5f565b905060006010548660010154600d5484611d9c9190613812565b611da69190613812565b611db091906137f2565b905082611dc28264e8d4a51000613812565b611dcc91906137f2565b611dd690856137da565b935050505b6001830154835464e8d4a5100090611df4908590613812565b611dfe91906137f2565b611e089190613831565b979650505050505050565b600061073082670de0b6b3a7640000613812565b611e3082610aa6565b611e3c81610a7e61280f565b610ada83836128fc565b60006107308233611b80565b601654611e6181610a7e61280f565b6008546001600160a01b038481169116141580611e8c57506007546001600160a01b03838116911614155b611ea85760405162461bcd60e51b815260040161075e90613554565b600880546001600160a01b038086166001600160a01b0319928316179283905560078054868316931692909217918290556040517fd1c04282701cbf58aa2f0026f6876051cf3feb8ee7b8b5b5532ebb4ab03fb5d493611f0d93908316921690613223565b60405180910390a1505050565b600280541415611f3c5760405162461bcd60e51b815260040161075e90613630565b6002805560145482908110611f635760405162461bcd60e51b815260040161075e90613583565b611f6b6117ca565b15611f885760405162461bcd60e51b815260040161075e906133fa565b82611fa55760405162461bcd60e51b815260040161075e906134b1565b600060148481548110611fc857634e487b7160e01b600052603260045260246000fd5b60009182526020808320878452601582526040808520338652909252922060049091029091019150611ff9856114cf565b805415612049576000816001015464e8d4a51000846003015484600001546120219190613812565b61202b91906137f2565b6120359190613831565b90508015612047576120473382612762565b505b83156120ef5781546040516323b872dd60e01b81526001600160a01b03909116906323b872dd9061208290339030908990600401613277565b602060405180830381600087803b15801561209c57600080fd5b505af11580156120b0573d6000803e3d6000fd5b505050506040513d601f19601f820116820180604052508101906120d49190612fc9565b50838160000160008282546120e991906137da565b90915550505b6003820154815464e8d4a510009161210691613812565b61211091906137f2565b60018201556004810154612124574261212a565b80600401545b600482018190556040805180820190915260198152786669727374206465706f736974206d6164652061743a20257360381b602082015261216a916127ca565b84336001600160a01b03167f90890809c654f11d6e72a28fa60149770a0d11ec6c92319d6ceb2bb0a4ea1a15866040516121a491906132bf565b60405180910390a350506001600255505050565b6000610730670de0b6b3a7640000836137f2565b6016546121db81610a7e61280f565b6004546001600160a01b03848116911614158061220657506006546001600160a01b03838116911614155b6122225760405162461bcd60e51b815260040161075e9061351d565b600480546001600160a01b038086166001600160a01b03199283161790925560068054928516929091169190911790556040517fdcc6331013de89f8c595d5328f0a724194f113cb6f8f2a707b3dff6de13f0d1790611f0d9085908590613223565b60165481565b60165461229981610a7e61280f565b60115460ff16156122bc5760405162461bcd60e51b815260040161075e90613424565b600380546001600160a01b03808b166001600160a01b03199283161790925560058054928a169290911691909117905542600f556122fa85876137da565b600a55600b85905561230b83611e13565b60135561231782611e13565b601255600354600480546001600160a01b039283166001600160a01b03199182161790915560055460068054919093169116179055600b54600a54859161235d91612c61565b60408051608081018252600480546001600160a01b03908116835260208301858152600f54948401948552600060608501818152601480546001808201835591845296517fce6d7b5282bd9a3661ae061feed1dbda4e52ab073b1f9285be6e155d9c38d4ec9790960296870180546001600160a01b031916969095169590951790935590517fce6d7b5282bd9a3661ae061feed1dbda4e52ab073b1f9285be6e155d9c38d4ed85015593517fce6d7b5282bd9a3661ae061feed1dbda4e52ab073b1f9285be6e155d9c38d4ee840155517fce6d7b5282bd9a3661ae061feed1dbda4e52ab073b1f9285be6e155d9c38d4ef909201919091556011805460ff19169091179055601080548392906124749084906137da565b9091555050600754600854600354600554601054600b546040517f0476c5e4920930815a67a5a042e26836431f494d3be0f6e10c3034787a7a15f9966124d2966001600160a01b03918216969082169590821694911692909161323d565b60405180910390a1505050505050505050565b6017546124f481610a7e61280f565b82600b54141580612507575081600a5414155b6125235760405162461bcd60e51b815260040161075e906133c3565b828210156125435760405162461bcd60e51b815260040161075e90613724565b600b839055600a82905560408051808201909152601981527f6e657720776569676874733a202573206f7574206f6620257300000000000000602082015261258c908484612cfe565b61259a600b54600a54612c61565b7fb298bc23e07860d501fddce288f46d761aa04a0c7c3316099eb50f097aacf304600b54600a54604051611f0d929190613778565b6125d761280f565b6001600160a01b03166125e8611b50565b6001600160a01b03161461260e5760405162461bcd60e51b815260040161075e906134e8565b6001600160a01b0381166126345760405162461bcd60e51b815260040161075e9061337d565b61263d81612a81565b50565b60008281526015602090815260408083206001600160a01b03851684528252808320815160e08101835281548152600182015481850152600282015481840152600382015460608083019190915260048301546080830152600583015460a083015260069092015460c08201528251918201909252602c80825291926126d792906138e09083013982608001518360600151612cfe565b6127066040518060400160405280600d81526020016c74696d657374616d703a20257360981b815250426127ca565b60008160600151116127265760808101516127219042613831565b612735565b60608101516127359042613831565b949350505050565b60125481565b60175481565b6001600160e01b031981166301ffc9a760e01b14919050565b600654604051635950a15560e11b81526001600160a01b039091169063b2a142aa90612794908590859060040161329b565b600060405180830381600087803b1580156127ae57600080fd5b505af11580156127c2573d6000803e3d6000fd5b505050505050565b610b2182826040516024016127e0929190613301565b60408051601f198184030181529190526020810180516001600160e01b03166309710a9d60e41b179052612d41565b3390565b61281d8282611b80565b610b2157612835816001600160a01b03166014612d62565b612840836020612d62565b60405160200161285192919061319a565b60408051601f198184030181529082905262461bcd60e51b825261075e916004016132ee565b6128818282611b80565b610b21576000828152602081815260408083206001600160a01b03851684529091529020805460ff191660011790556128b861280f565b6001600160a01b0316816001600160a01b0316837f2f8788117e7eff1d82e926ec794901d17c78024a50270940304540a733656f0d60405160405180910390a45050565b6129068282611b80565b15610b21576000828152602081815260408083206001600160a01b03851684529091529020805460ff1916905561293b61280f565b6001600160a01b0316816001600160a01b0316837ff6391f5c32d9c69d2a47ea670b442974b53935d1edc7fd64eb21e047a839171b60405160405180910390a45050565b601454600060015b828110156129df57601481815481106129b057634e487b7160e01b600052603260045260246000fd5b906000526020600020906004020160010154826129cd91906137da565b91506129d88161388b565b9050612987565b508015610b21576129f16003826137f2565b9050806014600081548110612a1657634e487b7160e01b600052603260045260246000fd5b906000526020600020906004020160010154601054612a359190613831565b612a3f91906137da565b601081905550806014600081548110612a6857634e487b7160e01b600052603260045260246000fd5b9060005260206000209060040201600101819055505050565b600180546001600160a01b038381166001600160a01b0319831681179093556040519116919082907f8be0079c531659141344cd1fd0a4f28419497f9722a3daafe3b4186f6b6457e090600090a35050565b60145460005b81811015610ada57826001600160a01b031660148281548110612b0c57634e487b7160e01b600052603260045260246000fd5b60009182526020909120600490910201546001600160a01b03161415612b445760405162461bcd60e51b815260040161075e90613607565b612b4d8161388b565b9050612ad9565b8015612b6257612b626117f5565b8260106000828254612b7491906137da565b9250508190555060146040518060800160405280846001600160a01b03168152602001858152602001600f544211612bae57600f54612bb0565b425b81526000602091820181905283546001808201865594825290829020835160049092020180546001600160a01b0319166001600160a01b0390921691909117815590820151928101929092556040810151600283015560600151600390910155612c1861297f565b6014546010546040517f20b669aa921947a6d9602a921d2db3b6b30f21b9aca98580fa3972530330b27a91612c539184918891889190613786565b60405180910390a150505050565b600081612c6d84611e13565b612c7791906137f2565b9050612ca76040518060400160405280600981526020016873686172653a20257360b81b815250611a96836121b8565b612cb4816203d090613812565b600c819055612cc79062015180906137f2565b600d819055600c546040517fcd7c861d63893659123f817b192b8621ff1923a7c4589c260173cedcf9e986a692611f0d9291613778565b610ada838383604051602401612d1693929190613323565b60408051601f198184030181529190526020810180516001600160e01b031663969cdd0360e01b1790525b80516a636f6e736f6c652e6c6f67602083016000808483855afa5050505050565b60606000612d71836002613812565b612d7c9060026137da565b67ffffffffffffffff811115612da257634e487b7160e01b600052604160045260246000fd5b6040519080825280601f01601f191660200182016040528015612dcc576020820181803683370190505b509050600360fc1b81600081518110612df557634e487b7160e01b600052603260045260246000fd5b60200101906001600160f81b031916908160001a905350600f60fb1b81600181518110612e3257634e487b7160e01b600052603260045260246000fd5b60200101906001600160f81b031916908160001a9053506000612e56846002613812565b612e619060016137da565b90505b6001811115612ef5576f181899199a1a9b1b9c1cb0b131b232b360811b85600f1660108110612ea357634e487b7160e01b600052603260045260246000fd5b1a60f81b828281518110612ec757634e487b7160e01b600052603260045260246000fd5b60200101906001600160f81b031916908160001a90535060049490941c93612eee81613874565b9050612e64565b508315611b795760405162461bcd60e51b815260040161075e90613348565b600060208284031215612f25578081fd5b8135611b79816138bc565b60008060408385031215612f42578081fd5b8235612f4d816138bc565b91506020830135612f5d816138bc565b809150509250929050565b600080600080600080600060e0888a031215612f82578283fd5b8735612f8d816138bc565b96506020880135612f9d816138bc565b96999698505050506040850135946060810135946080820135945060a0820135935060c0909101359150565b600060208284031215612fda578081fd5b8151611b79816138d1565b600060208284031215612ff6578081fd5b5035919050565b6000806040838503121561300f578182fd5b823591506020830135612f5d816138bc565b600060208284031215613032578081fd5b81356001600160e01b031981168114611b79578182fd5b60006020828403121561305a578081fd5b8151611b79816138bc565b600060208284031215613076578081fd5b5051919050565b600080600060608486031215613091578283fd5b8335925060208401356130a3816138bc565b929592945050506040919091013590565b6000806000606084860312156130c8578283fd5b8335925060208401356130da816138bc565b915060408401356130ea816138d1565b809150509250925092565b60008060408385031215613107578182fd5b50508035926020909101359150565b60008060006060848603121561312a578081fd5b833592506020840135915060408401356130ea816138d1565b600080600060608486031215613157578081fd5b505081359360208301359350604090920135919050565b60008151808452613186816020860160208601613848565b601f01601f19169290920160200192915050565b60007f416363657373436f6e74726f6c3a206163636f756e7420000000000000000000825283516131d2816017850160208801613848565b7001034b99036b4b9b9b4b733903937b6329607d1b6017918401918201528351613203816028840160208801613848565b01602801949350505050565b6001600160a01b0391909116815260200190565b6001600160a01b0392831681529116602082015260400190565b6001600160a01b0396871681529486166020860152928516604085015293166060830152608082019290925260a081019190915260c00190565b6001600160a01b039384168152919092166020820152604081019190915260600190565b6001600160a01b03929092168252602082015260400190565b901515815260200190565b90815260200190565b6001600160a01b0394909416845260208401929092526040830152606082015260800190565b600060208252611b79602083018461316e565b600060408252613314604083018561316e565b90508260208301529392505050565b600060608252613336606083018661316e565b60208301949094525060400152919050565b6020808252818101527f537472696e67733a20686578206c656e67746820696e73756666696369656e74604082015260600190565b60208082526026908201527f4f776e61626c653a206e6577206f776e657220697320746865207a65726f206160408201526564647265737360d01b606082015260800190565b6020808252601e908201527f6d757374206265206174206c65617374206f6e65206e65772076616c75650000604082015260600190565b60208082526010908201526f14185d5cd8589b194e881c185d5cd95960821b604082015260600190565b602080825260139082015272185b1c9958591e481a5b9a5d1a585b1a5e9959606a1b604082015260600190565b6020808252600f908201526e1b9bc81b5a59dc985d1bdc881cd95d608a1b604082015260600190565b6020808252601a908201527f776974686472617720534f554c20627920756e7374616b696e67000000000000604082015260600190565b60208082526017908201527f6465706f73697420534f554c206279207374616b696e67000000000000000000604082015260600190565b6020808252818101527f4f776e61626c653a2063616c6c6572206973206e6f7420746865206f776e6572604082015260600190565b6020808252601b908201527f6d7573742062652061206e657720746f6b656e20616464726573730000000000604082015260600190565b6020808252601590820152741b5d5cdd0818994818481b995dc81858d8dbdd5b9d605a1b604082015260600190565b6020808252601390820152721c1bdbdb08191bd95cc81b9bdd08195e1a5cdd606a1b604082015260600190565b6020808252601290820152711dda5d1a191c985dce881b9bdd0819dbdbd960721b604082015260600190565b6020808252601190820152701dda5d1a191c985dc81b9bdd0819dbdbd9607a1b604082015260600190565b6020808252600f908201526e191d5c1b1a58d85d1959081c1bdbdb608a1b604082015260600190565b6020808252601f908201527f5265656e7472616e637947756172643a207265656e7472616e742063616c6c00604082015260600190565b6020808252602f908201527f416363657373436f6e74726f6c3a2063616e206f6e6c792072656e6f756e636560408201526e103937b632b9903337b91039b2b63360891b606082015260800190565b6020808252601d908201527f6d6967726174653a20696e73756666696369656e742062616c616e6365000000604082015260600190565b6020808252601a908201527f726577617264732068617665206e6f742079657420626567756e000000000000604082015260600190565b6020808252818101527f7765696768742063616e6e6f742065786365656420746f74616c576569676874604082015260600190565b9283526001600160a01b03919091166020830152604082015260600190565b918252602082015260400190565b93845260208401929092526001600160a01b03166040830152606082015260800190565b968752602087019590955260408601939093526060850191909152608084015260a083015260c082015260e00190565b600082198211156137ed576137ed6138a6565b500190565b60008261380d57634e487b7160e01b81526012600452602481fd5b500490565b600081600019048311821515161561382c5761382c6138a6565b500290565b600082821015613843576138436138a6565b500390565b60005b8381101561386357818101518382015260200161384b565b838111156119ee5750506000910152565b600081613883576138836138a6565b506000190190565b600060001982141561389f5761389f6138a6565b5060010190565b634e487b7160e01b600052601160045260246000fd5b6001600160a01b038116811461263d57600080fd5b801515811461263d57600080fdfe6669727374206465706f73697420616e64206c617374207769746864726177616c3a20257320616e64202573a2646970667358221220bf925ad5504aeb3f026d4181ed26974ecdb389d1550834b177babb000109577264736f6c63430008000033",
    "sourcePath": "/Users/unico/Documents/GitHub/SoulSwap/soulswap-farms/contracts/mocks/MockSoulSummoner.sol",
    "compiler": {
        "name": "solc",
        "version": "0.8.0+commit.c7dfd78e"
    },
    "functionHashes": {
        "DEFAULT_ADMIN_ROLE()": "a217fddf",
        "addPool(uint256,address,bool)": "7abceffd",
        "bonusMultiplier()": "a8b973a1",
        "dailyDecay()": "fc90fdc0",
        "dailySoul()": "7d500ec8",
        "dao()": "4162169f",
        "deposit(uint256,uint256)": "e2bbb158",
        "enWei(uint256)": "cf94ee96",
        "enterStaking(uint256)": "41441d3b",
        "fromWei(uint256)": "e65d1522",
        "getFeeRate(uint256,uint256)": "9f6c5426",
        "getMultiplier(uint256,uint256)": "8dbb1e3a",
        "getRoleAdmin(bytes32)": "248a9ca3",
        "getWithdrawable(uint256,uint256,uint256)": "7e668b42",
        "grantRole(bytes32,address)": "2f2ff15d",
        "hasDivineRole(bytes32)": "dbaef9b0",
        "hasRole(bytes32,address)": "91d14854",
        "initialize(address,address,uint256,uint256,uint256,uint256,uint256)": "edbf4ac2",
        "isInitialized()": "392e53cd",
        "isis()": "ea4bf446",
        "leaveStaking(uint256)": "1058d281",
        "maat()": "fd6f99d0",
        "massUpdatePools()": "630b5ba1",
        "migrate(uint256)": "454b0608",
        "migrator()": "7cd07e47",
        "owner()": "8da5cb5b",
        "paused()": "5c975abb",
        "pendingSoul(uint256,address)": "bfafcad5",
        "poolInfo(uint256)": "1526fe27",
        "poolLength()": "081e3eda",
        "renounceOwnership()": "715018a6",
        "renounceRole(bytes32,address)": "36568abe",
        "reviseDeposit(uint256,address,uint256)": "82386d58",
        "revokeRole(bytes32,address)": "d547741f",
        "seance()": "4ca01d45",
        "set(uint256,uint256,bool)": "64482f79",
        "setMigrator(address)": "23cf3118",
        "soul()": "815b7a8c",
        "soulPerSecond()": "5f9bf689",
        "startRate()": "1254f0dc",
        "startTime()": "78e97925",
        "supportsInterface(bytes4)": "01ffc9a7",
        "team()": "85f2aef2",
        "totalAllocPoint()": "17caf6f1",
        "totalWeight()": "96c82e57",
        "transferOwnership(address)": "f2fde38b",
        "updateAccounts(address,address)": "e13e8ec2",
        "updateMultiplier(uint256)": "5ffe6146",
        "updatePool(uint256)": "51eb05a6",
        "updateStartRate(uint256)": "4a962829",
        "updateTokens(address,address)": "e7aa29e3",
        "updateWeights(uint256,uint256)": "f107fd85",
        "userDelta(uint256,address)": "fb39d1e3",
        "userInfo(uint256,address)": "93f1a40b",
        "weight()": "a1aab33f",
        "withdraw(uint256,uint256)": "441a3e70"
    },
    "gasEstimates": {
        "creation": {
            "codeDepositCost": "2931400",
            "executionCost": "infinite",
            "totalCost": "infinite"
        },
        "external": {
            "DEFAULT_ADMIN_ROLE()": "317",
            "addPool(uint256,address,bool)": "infinite",
            "bonusMultiplier()": "1139",
            "dailyDecay()": "1138",
            "dailySoul()": "1161",
            "dao()": "1182",
            "deposit(uint256,uint256)": "infinite",
            "enWei(uint256)": "472",
            "enterStaking(uint256)": "infinite",
            "fromWei(uint256)": "483",
            "getFeeRate(uint256,uint256)": "3215",
            "getMultiplier(uint256,uint256)": "1414",
            "getRoleAdmin(bytes32)": "1249",
            "getWithdrawable(uint256,uint256,uint256)": "infinite",
            "grantRole(bytes32,address)": "infinite",
            "hasDivineRole(bytes32)": "1430",
            "hasRole(bytes32,address)": "1516",
            "initialize(address,address,uint256,uint256,uint256,uint256,uint256)": "infinite",
            "isInitialized()": "1108",
            "isis()": "1095",
            "leaveStaking(uint256)": "infinite",
            "maat()": "1160",
            "massUpdatePools()": "infinite",
            "migrate(uint256)": "infinite",
            "migrator()": "1181",
            "owner()": "1160",
            "paused()": "1147",
            "pendingSoul(uint256,address)": "infinite",
            "poolInfo(uint256)": "4651",
            "poolLength()": "1120",
            "renounceOwnership()": "23619",
            "renounceRole(bytes32,address)": "infinite",
            "reviseDeposit(uint256,address,uint256)": "infinite",
            "revokeRole(bytes32,address)": "infinite",
            "seance()": "1183",
            "set(uint256,uint256,bool)": "infinite",
            "setMigrator(address)": "infinite",
            "soul()": "1161",
            "soulPerSecond()": "1140",
            "startRate()": "1097",
            "startTime()": "1095",
            "supportsInterface(bytes4)": "562",
            "team()": "1138",
            "totalAllocPoint()": "1141",
            "totalWeight()": "1118",
            "transferOwnership(address)": "infinite",
            "updateAccounts(address,address)": "infinite",
            "updateMultiplier(uint256)": "infinite",
            "updatePool(uint256)": "infinite",
            "updateStartRate(uint256)": "infinite",
            "updateTokens(address,address)": "infinite",
            "updateWeights(uint256,uint256)": "infinite",
            "userDelta(uint256,address)": "infinite",
            "userInfo(uint256,address)": "6441",
            "weight()": "1095",
            "withdraw(uint256,uint256)": "infinite"
        },
        "internal": {
            "_addPool(uint256,contract IERC20,bool)": "infinite",
            "_divinationCeremony(bytes32,bytes32,address)": "infinite",
            "checkPoolDuplicate(contract IERC20)": "infinite",
            "safeSoulTransfer(address,uint256)": "infinite",
            "updateRewards(uint256,uint256)": "infinite",
            "updateStakingPool()": "infinite"
        }
    }
}