{
    "contractName": "MockSoulSummoner",
    "abi": [
        {
            "inputs": [],
            "stateMutability": "nonpayable",
            "type": "constructor"
        },
        {
            "anonymous": false,
            "inputs": [
                {
                    "indexed": false,
                    "internalType": "address",
                    "name": "dao",
                    "type": "address"
                },
                {
                    "indexed": false,
                    "internalType": "address",
                    "name": "team",
                    "type": "address"
                }
            ],
            "name": "AccountsUpdated",
            "type": "event"
        },
        {
            "anonymous": false,
            "inputs": [
                {
                    "indexed": true,
                    "internalType": "address",
                    "name": "user",
                    "type": "address"
                },
                {
                    "indexed": true,
                    "internalType": "uint256",
                    "name": "pid",
                    "type": "uint256"
                },
                {
                    "indexed": false,
                    "internalType": "uint256",
                    "name": "amount",
                    "type": "uint256"
                }
            ],
            "name": "Deposit",
            "type": "event"
        },
        {
            "anonymous": false,
            "inputs": [
                {
                    "indexed": false,
                    "internalType": "uint256",
                    "name": "_pid",
                    "type": "uint256"
                },
                {
                    "indexed": false,
                    "internalType": "address",
                    "name": "_user",
                    "type": "address"
                },
                {
                    "indexed": false,
                    "internalType": "uint256",
                    "name": "_time",
                    "type": "uint256"
                }
            ],
            "name": "DepositRevised",
            "type": "event"
        },
        {
            "anonymous": false,
            "inputs": [
                {
                    "indexed": false,
                    "internalType": "address",
                    "name": "team",
                    "type": "address"
                },
                {
                    "indexed": false,
                    "internalType": "address",
                    "name": "dao",
                    "type": "address"
                },
                {
                    "indexed": false,
                    "internalType": "address",
                    "name": "soul",
                    "type": "address"
                },
                {
                    "indexed": false,
                    "internalType": "address",
                    "name": "seance",
                    "type": "address"
                },
                {
                    "indexed": false,
                    "internalType": "uint256",
                    "name": "totalAllocPoint",
                    "type": "uint256"
                },
                {
                    "indexed": false,
                    "internalType": "uint256",
                    "name": "weight",
                    "type": "uint256"
                }
            ],
            "name": "Initialized",
            "type": "event"
        },
        {
            "anonymous": false,
            "inputs": [
                {
                    "indexed": true,
                    "internalType": "address",
                    "name": "previousOwner",
                    "type": "address"
                },
                {
                    "indexed": true,
                    "internalType": "address",
                    "name": "newOwner",
                    "type": "address"
                }
            ],
            "name": "OwnershipTransferred",
            "type": "event"
        },
        {
            "anonymous": false,
            "inputs": [
                {
                    "indexed": false,
                    "internalType": "address",
                    "name": "account",
                    "type": "address"
                }
            ],
            "name": "Paused",
            "type": "event"
        },
        {
            "anonymous": false,
            "inputs": [
                {
                    "indexed": false,
                    "internalType": "uint256",
                    "name": "pid",
                    "type": "uint256"
                },
                {
                    "indexed": false,
                    "internalType": "uint256",
                    "name": "allocPoint",
                    "type": "uint256"
                },
                {
                    "indexed": false,
                    "internalType": "contract IERC20",
                    "name": "lpToken",
                    "type": "address"
                },
                {
                    "indexed": false,
                    "internalType": "uint256",
                    "name": "totalAllocPoint",
                    "type": "uint256"
                }
            ],
            "name": "PoolAdded",
            "type": "event"
        },
        {
            "anonymous": false,
            "inputs": [
                {
                    "indexed": false,
                    "internalType": "uint256",
                    "name": "pid",
                    "type": "uint256"
                },
                {
                    "indexed": false,
                    "internalType": "uint256",
                    "name": "allocPoint",
                    "type": "uint256"
                }
            ],
            "name": "PoolSet",
            "type": "event"
        },
        {
            "anonymous": false,
            "inputs": [
                {
                    "indexed": false,
                    "internalType": "uint256",
                    "name": "dailySoul",
                    "type": "uint256"
                },
                {
                    "indexed": false,
                    "internalType": "uint256",
                    "name": "soulPerSecond",
                    "type": "uint256"
                }
            ],
            "name": "RewardsUpdated",
            "type": "event"
        },
        {
            "anonymous": false,
            "inputs": [
                {
                    "indexed": true,
                    "internalType": "bytes32",
                    "name": "role",
                    "type": "bytes32"
                },
                {
                    "indexed": true,
                    "internalType": "bytes32",
                    "name": "previousAdminRole",
                    "type": "bytes32"
                },
                {
                    "indexed": true,
                    "internalType": "bytes32",
                    "name": "newAdminRole",
                    "type": "bytes32"
                }
            ],
            "name": "RoleAdminChanged",
            "type": "event"
        },
        {
            "anonymous": false,
            "inputs": [
                {
                    "indexed": false,
                    "internalType": "bytes32",
                    "name": "role",
                    "type": "bytes32"
                },
                {
                    "indexed": false,
                    "internalType": "bytes32",
                    "name": "supreme",
                    "type": "bytes32"
                }
            ],
            "name": "RoleDivinated",
            "type": "event"
        },
        {
            "anonymous": false,
            "inputs": [
                {
                    "indexed": true,
                    "internalType": "bytes32",
                    "name": "role",
                    "type": "bytes32"
                },
                {
                    "indexed": true,
                    "internalType": "address",
                    "name": "account",
                    "type": "address"
                },
                {
                    "indexed": true,
                    "internalType": "address",
                    "name": "sender",
                    "type": "address"
                }
            ],
            "name": "RoleGranted",
            "type": "event"
        },
        {
            "anonymous": false,
            "inputs": [
                {
                    "indexed": true,
                    "internalType": "bytes32",
                    "name": "role",
                    "type": "bytes32"
                },
                {
                    "indexed": true,
                    "internalType": "address",
                    "name": "account",
                    "type": "address"
                },
                {
                    "indexed": true,
                    "internalType": "address",
                    "name": "sender",
                    "type": "address"
                }
            ],
            "name": "RoleRevoked",
            "type": "event"
        },
        {
            "anonymous": false,
            "inputs": [
                {
                    "indexed": false,
                    "internalType": "address",
                    "name": "soul",
                    "type": "address"
                },
                {
                    "indexed": false,
                    "internalType": "address",
                    "name": "seance",
                    "type": "address"
                }
            ],
            "name": "TokensUpdated",
            "type": "event"
        },
        {
            "anonymous": false,
            "inputs": [
                {
                    "indexed": false,
                    "internalType": "address",
                    "name": "account",
                    "type": "address"
                }
            ],
            "name": "Unpaused",
            "type": "event"
        },
        {
            "anonymous": false,
            "inputs": [
                {
                    "indexed": false,
                    "internalType": "uint256",
                    "name": "weight",
                    "type": "uint256"
                },
                {
                    "indexed": false,
                    "internalType": "uint256",
                    "name": "totalWeight",
                    "type": "uint256"
                }
            ],
            "name": "WeightUpdated",
            "type": "event"
        },
        {
            "anonymous": false,
            "inputs": [
                {
                    "indexed": true,
                    "internalType": "address",
                    "name": "user",
                    "type": "address"
                },
                {
                    "indexed": true,
                    "internalType": "uint256",
                    "name": "pid",
                    "type": "uint256"
                },
                {
                    "indexed": false,
                    "internalType": "uint256",
                    "name": "amount",
                    "type": "uint256"
                },
                {
                    "indexed": false,
                    "internalType": "uint256",
                    "name": "timeStamp",
                    "type": "uint256"
                }
            ],
            "name": "Withdraw",
            "type": "event"
        },
        {
            "inputs": [],
            "name": "DEFAULT_ADMIN_ROLE",
            "outputs": [
                {
                    "internalType": "bytes32",
                    "name": "",
                    "type": "bytes32"
                }
            ],
            "stateMutability": "view",
            "type": "function"
        },
        {
            "inputs": [
                {
                    "internalType": "uint256",
                    "name": "_allocPoint",
                    "type": "uint256"
                },
                {
                    "internalType": "contract IERC20",
                    "name": "_lpToken",
                    "type": "address"
                },
                {
                    "internalType": "bool",
                    "name": "_withUpdate",
                    "type": "bool"
                }
            ],
            "name": "addPool",
            "outputs": [],
            "stateMutability": "nonpayable",
            "type": "function"
        },
        {
            "inputs": [],
            "name": "bonusMultiplier",
            "outputs": [
                {
                    "internalType": "uint256",
                    "name": "",
                    "type": "uint256"
                }
            ],
            "stateMutability": "view",
            "type": "function"
        },
        {
            "inputs": [],
            "name": "dailyDecay",
            "outputs": [
                {
                    "internalType": "uint256",
                    "name": "",
                    "type": "uint256"
                }
            ],
            "stateMutability": "view",
            "type": "function"
        },
        {
            "inputs": [],
            "name": "dailySoul",
            "outputs": [
                {
                    "internalType": "uint256",
                    "name": "",
                    "type": "uint256"
                }
            ],
            "stateMutability": "view",
            "type": "function"
        },
        {
            "inputs": [],
            "name": "dao",
            "outputs": [
                {
                    "internalType": "address",
                    "name": "",
                    "type": "address"
                }
            ],
            "stateMutability": "view",
            "type": "function"
        },
        {
            "inputs": [
                {
                    "internalType": "uint256",
                    "name": "pid",
                    "type": "uint256"
                },
                {
                    "internalType": "uint256",
                    "name": "amount",
                    "type": "uint256"
                }
            ],
            "name": "deposit",
            "outputs": [],
            "stateMutability": "nonpayable",
            "type": "function"
        },
        {
            "inputs": [
                {
                    "internalType": "uint256",
                    "name": "amount",
                    "type": "uint256"
                }
            ],
            "name": "enWei",
            "outputs": [
                {
                    "internalType": "uint256",
                    "name": "",
                    "type": "uint256"
                }
            ],
            "stateMutability": "pure",
            "type": "function"
        },
        {
            "inputs": [
                {
                    "internalType": "uint256",
                    "name": "amount",
                    "type": "uint256"
                }
            ],
            "name": "enterStaking",
            "outputs": [],
            "stateMutability": "nonpayable",
            "type": "function"
        },
        {
            "inputs": [
                {
                    "internalType": "uint256",
                    "name": "amount",
                    "type": "uint256"
                }
            ],
            "name": "fromWei",
            "outputs": [
                {
                    "internalType": "uint256",
                    "name": "",
                    "type": "uint256"
                }
            ],
            "stateMutability": "pure",
            "type": "function"
        },
        {
            "inputs": [
                {
                    "internalType": "uint256",
                    "name": "pid",
                    "type": "uint256"
                },
                {
                    "internalType": "uint256",
                    "name": "timeDelta",
                    "type": "uint256"
                }
            ],
            "name": "getFeeRate",
            "outputs": [
                {
                    "internalType": "uint256",
                    "name": "feeRate",
                    "type": "uint256"
                }
            ],
            "stateMutability": "view",
            "type": "function"
        },
        {
            "inputs": [
                {
                    "internalType": "uint256",
                    "name": "from",
                    "type": "uint256"
                },
                {
                    "internalType": "uint256",
                    "name": "to",
                    "type": "uint256"
                }
            ],
            "name": "getMultiplier",
            "outputs": [
                {
                    "internalType": "uint256",
                    "name": "",
                    "type": "uint256"
                }
            ],
            "stateMutability": "view",
            "type": "function"
        },
        {
            "inputs": [
                {
                    "internalType": "bytes32",
                    "name": "role",
                    "type": "bytes32"
                }
            ],
            "name": "getRoleAdmin",
            "outputs": [
                {
                    "internalType": "bytes32",
                    "name": "",
                    "type": "bytes32"
                }
            ],
            "stateMutability": "view",
            "type": "function"
        },
        {
            "inputs": [
                {
                    "internalType": "uint256",
                    "name": "pid",
                    "type": "uint256"
                },
                {
                    "internalType": "uint256",
                    "name": "timeDelta",
                    "type": "uint256"
                },
                {
                    "internalType": "uint256",
                    "name": "amount",
                    "type": "uint256"
                }
            ],
            "name": "getWithdrawable",
            "outputs": [
                {
                    "internalType": "uint256",
                    "name": "_feeAmount",
                    "type": "uint256"
                },
                {
                    "internalType": "uint256",
                    "name": "_withdrawable",
                    "type": "uint256"
                }
            ],
            "stateMutability": "view",
            "type": "function"
        },
        {
            "inputs": [
                {
                    "internalType": "bytes32",
                    "name": "role",
                    "type": "bytes32"
                },
                {
                    "internalType": "address",
                    "name": "account",
                    "type": "address"
                }
            ],
            "name": "grantRole",
            "outputs": [],
            "stateMutability": "nonpayable",
            "type": "function"
        },
        {
            "inputs": [
                {
                    "internalType": "bytes32",
                    "name": "role",
                    "type": "bytes32"
                }
            ],
            "name": "hasDivineRole",
            "outputs": [
                {
                    "internalType": "bool",
                    "name": "",
                    "type": "bool"
                }
            ],
            "stateMutability": "view",
            "type": "function"
        },
        {
            "inputs": [
                {
                    "internalType": "bytes32",
                    "name": "role",
                    "type": "bytes32"
                },
                {
                    "internalType": "address",
                    "name": "account",
                    "type": "address"
                }
            ],
            "name": "hasRole",
            "outputs": [
                {
                    "internalType": "bool",
                    "name": "",
                    "type": "bool"
                }
            ],
            "stateMutability": "view",
            "type": "function"
        },
        {
            "inputs": [
                {
                    "internalType": "address",
                    "name": "_soulAddress",
                    "type": "address"
                },
                {
                    "internalType": "address",
                    "name": "_seanceAddress",
                    "type": "address"
                },
                {
                    "internalType": "uint256",
                    "name": "_totalWeight",
                    "type": "uint256"
                },
                {
                    "internalType": "uint256",
                    "name": "_weight",
                    "type": "uint256"
                },
                {
                    "internalType": "uint256",
                    "name": "_stakingAlloc",
                    "type": "uint256"
                },
                {
                    "internalType": "uint256",
                    "name": "_startRate",
                    "type": "uint256"
                },
                {
                    "internalType": "uint256",
                    "name": "_dailyDecay",
                    "type": "uint256"
                }
            ],
            "name": "initialize",
            "outputs": [],
            "stateMutability": "nonpayable",
            "type": "function"
        },
        {
            "inputs": [],
            "name": "isInitialized",
            "outputs": [
                {
                    "internalType": "bool",
                    "name": "",
                    "type": "bool"
                }
            ],
            "stateMutability": "view",
            "type": "function"
        },
        {
            "inputs": [],
            "name": "isis",
            "outputs": [
                {
                    "internalType": "bytes32",
                    "name": "",
                    "type": "bytes32"
                }
            ],
            "stateMutability": "view",
            "type": "function"
        },
        {
            "inputs": [
                {
                    "internalType": "uint256",
                    "name": "amount",
                    "type": "uint256"
                }
            ],
            "name": "leaveStaking",
            "outputs": [],
            "stateMutability": "nonpayable",
            "type": "function"
        },
        {
            "inputs": [],
            "name": "maat",
            "outputs": [
                {
                    "internalType": "bytes32",
                    "name": "",
                    "type": "bytes32"
                }
            ],
            "stateMutability": "view",
            "type": "function"
        },
        {
            "inputs": [],
            "name": "massUpdatePools",
            "outputs": [],
            "stateMutability": "nonpayable",
            "type": "function"
        },
        {
            "inputs": [
                {
                    "internalType": "uint256",
                    "name": "pid",
                    "type": "uint256"
                }
            ],
            "name": "migrate",
            "outputs": [],
            "stateMutability": "nonpayable",
            "type": "function"
        },
        {
            "inputs": [],
            "name": "migrator",
            "outputs": [
                {
                    "internalType": "contract IMigrator",
                    "name": "",
                    "type": "address"
                }
            ],
            "stateMutability": "view",
            "type": "function"
        },
        {
            "inputs": [],
            "name": "owner",
            "outputs": [
                {
                    "internalType": "address",
                    "name": "",
                    "type": "address"
                }
            ],
            "stateMutability": "view",
            "type": "function"
        },
        {
            "inputs": [],
            "name": "paused",
            "outputs": [
                {
                    "internalType": "bool",
                    "name": "",
                    "type": "bool"
                }
            ],
            "stateMutability": "view",
            "type": "function"
        },
        {
            "inputs": [
                {
                    "internalType": "uint256",
                    "name": "pid",
                    "type": "uint256"
                },
                {
                    "internalType": "address",
                    "name": "_user",
                    "type": "address"
                }
            ],
            "name": "pendingSoul",
            "outputs": [
                {
                    "internalType": "uint256",
                    "name": "pendingAmount",
                    "type": "uint256"
                }
            ],
            "stateMutability": "view",
            "type": "function"
        },
        {
            "inputs": [
                {
                    "internalType": "uint256",
                    "name": "",
                    "type": "uint256"
                }
            ],
            "name": "poolInfo",
            "outputs": [
                {
                    "internalType": "contract IERC20",
                    "name": "lpToken",
                    "type": "address"
                },
                {
                    "internalType": "uint256",
                    "name": "allocPoint",
                    "type": "uint256"
                },
                {
                    "internalType": "uint256",
                    "name": "lastRewardTime",
                    "type": "uint256"
                },
                {
                    "internalType": "uint256",
                    "name": "accSoulPerShare",
                    "type": "uint256"
                }
            ],
            "stateMutability": "view",
            "type": "function"
        },
        {
            "inputs": [],
            "name": "poolLength",
            "outputs": [
                {
                    "internalType": "uint256",
                    "name": "",
                    "type": "uint256"
                }
            ],
            "stateMutability": "view",
            "type": "function"
        },
        {
            "inputs": [],
            "name": "renounceOwnership",
            "outputs": [],
            "stateMutability": "nonpayable",
            "type": "function"
        },
        {
            "inputs": [
                {
                    "internalType": "bytes32",
                    "name": "role",
                    "type": "bytes32"
                },
                {
                    "internalType": "address",
                    "name": "account",
                    "type": "address"
                }
            ],
            "name": "renounceRole",
            "outputs": [],
            "stateMutability": "nonpayable",
            "type": "function"
        },
        {
            "inputs": [
                {
                    "internalType": "uint256",
                    "name": "_pid",
                    "type": "uint256"
                },
                {
                    "internalType": "address",
                    "name": "_user",
                    "type": "address"
                },
                {
                    "internalType": "uint256",
                    "name": "_time",
                    "type": "uint256"
                }
            ],
            "name": "reviseDeposit",
            "outputs": [],
            "stateMutability": "nonpayable",
            "type": "function"
        },
        {
            "inputs": [
                {
                    "internalType": "bytes32",
                    "name": "role",
                    "type": "bytes32"
                },
                {
                    "internalType": "address",
                    "name": "account",
                    "type": "address"
                }
            ],
            "name": "revokeRole",
            "outputs": [],
            "stateMutability": "nonpayable",
            "type": "function"
        },
        {
            "inputs": [],
            "name": "seance",
            "outputs": [
                {
                    "internalType": "contract MockSeanceCircle",
                    "name": "",
                    "type": "address"
                }
            ],
            "stateMutability": "view",
            "type": "function"
        },
        {
            "inputs": [
                {
                    "internalType": "uint256",
                    "name": "pid",
                    "type": "uint256"
                },
                {
                    "internalType": "uint256",
                    "name": "allocPoint",
                    "type": "uint256"
                },
                {
                    "internalType": "bool",
                    "name": "withUpdate",
                    "type": "bool"
                }
            ],
            "name": "set",
            "outputs": [],
            "stateMutability": "nonpayable",
            "type": "function"
        },
        {
            "inputs": [
                {
                    "internalType": "contract IMigrator",
                    "name": "_migrator",
                    "type": "address"
                }
            ],
            "name": "setMigrator",
            "outputs": [],
            "stateMutability": "nonpayable",
            "type": "function"
        },
        {
            "inputs": [],
            "name": "soul",
            "outputs": [
                {
                    "internalType": "contract MockSoulPower",
                    "name": "",
                    "type": "address"
                }
            ],
            "stateMutability": "view",
            "type": "function"
        },
        {
            "inputs": [],
            "name": "soulPerSecond",
            "outputs": [
                {
                    "internalType": "uint256",
                    "name": "",
                    "type": "uint256"
                }
            ],
            "stateMutability": "view",
            "type": "function"
        },
        {
            "inputs": [],
            "name": "startRate",
            "outputs": [
                {
                    "internalType": "uint256",
                    "name": "",
                    "type": "uint256"
                }
            ],
            "stateMutability": "view",
            "type": "function"
        },
        {
            "inputs": [],
            "name": "startTime",
            "outputs": [
                {
                    "internalType": "uint256",
                    "name": "",
                    "type": "uint256"
                }
            ],
            "stateMutability": "view",
            "type": "function"
        },
        {
            "inputs": [
                {
                    "internalType": "bytes4",
                    "name": "interfaceId",
                    "type": "bytes4"
                }
            ],
            "name": "supportsInterface",
            "outputs": [
                {
                    "internalType": "bool",
                    "name": "",
                    "type": "bool"
                }
            ],
            "stateMutability": "view",
            "type": "function"
        },
        {
            "inputs": [],
            "name": "team",
            "outputs": [
                {
                    "internalType": "address",
                    "name": "",
                    "type": "address"
                }
            ],
            "stateMutability": "view",
            "type": "function"
        },
        {
            "inputs": [
                {
                    "internalType": "uint256",
                    "name": "pid",
                    "type": "uint256"
                }
            ],
            "name": "timeUntilNextDecrease",
            "outputs": [
                {
                    "internalType": "uint256",
                    "name": "untilNextDecay",
                    "type": "uint256"
                }
            ],
            "stateMutability": "view",
            "type": "function"
        },
        {
            "inputs": [],
            "name": "totalAllocPoint",
            "outputs": [
                {
                    "internalType": "uint256",
                    "name": "",
                    "type": "uint256"
                }
            ],
            "stateMutability": "view",
            "type": "function"
        },
        {
            "inputs": [],
            "name": "totalWeight",
            "outputs": [
                {
                    "internalType": "uint256",
                    "name": "",
                    "type": "uint256"
                }
            ],
            "stateMutability": "view",
            "type": "function"
        },
        {
            "inputs": [
                {
                    "internalType": "address",
                    "name": "newOwner",
                    "type": "address"
                }
            ],
            "name": "transferOwnership",
            "outputs": [],
            "stateMutability": "nonpayable",
            "type": "function"
        },
        {
            "inputs": [
                {
                    "internalType": "address",
                    "name": "_dao",
                    "type": "address"
                },
                {
                    "internalType": "address",
                    "name": "_team",
                    "type": "address"
                }
            ],
            "name": "updateAccounts",
            "outputs": [],
            "stateMutability": "nonpayable",
            "type": "function"
        },
        {
            "inputs": [
                {
                    "internalType": "uint256",
                    "name": "_bonusMultiplier",
                    "type": "uint256"
                }
            ],
            "name": "updateMultiplier",
            "outputs": [],
            "stateMutability": "nonpayable",
            "type": "function"
        },
        {
            "inputs": [
                {
                    "internalType": "uint256",
                    "name": "pid",
                    "type": "uint256"
                }
            ],
            "name": "updatePool",
            "outputs": [],
            "stateMutability": "nonpayable",
            "type": "function"
        },
        {
            "inputs": [
                {
                    "internalType": "address",
                    "name": "_soul",
                    "type": "address"
                },
                {
                    "internalType": "address",
                    "name": "_seance",
                    "type": "address"
                }
            ],
            "name": "updateTokens",
            "outputs": [],
            "stateMutability": "nonpayable",
            "type": "function"
        },
        {
            "inputs": [
                {
                    "internalType": "uint256",
                    "name": "_weight",
                    "type": "uint256"
                }
            ],
            "name": "updateWeight",
            "outputs": [],
            "stateMutability": "nonpayable",
            "type": "function"
        },
        {
            "inputs": [
                {
                    "internalType": "uint256",
                    "name": "_pid",
                    "type": "uint256"
                }
            ],
            "name": "userDelta",
            "outputs": [
                {
                    "internalType": "uint256",
                    "name": "",
                    "type": "uint256"
                }
            ],
            "stateMutability": "view",
            "type": "function"
        },
        {
            "inputs": [
                {
                    "internalType": "uint256",
                    "name": "",
                    "type": "uint256"
                },
                {
                    "internalType": "address",
                    "name": "",
                    "type": "address"
                }
            ],
            "name": "userInfo",
            "outputs": [
                {
                    "internalType": "uint256",
                    "name": "amount",
                    "type": "uint256"
                },
                {
                    "internalType": "uint256",
                    "name": "rewardDebt",
                    "type": "uint256"
                },
                {
                    "internalType": "uint256",
                    "name": "rewardDebtAtTime",
                    "type": "uint256"
                },
                {
                    "internalType": "uint256",
                    "name": "lastWithdrawTime",
                    "type": "uint256"
                },
                {
                    "internalType": "uint256",
                    "name": "firstDepositTime",
                    "type": "uint256"
                },
                {
                    "internalType": "uint256",
                    "name": "timeDelta",
                    "type": "uint256"
                },
                {
                    "internalType": "uint256",
                    "name": "lastDepositTime",
                    "type": "uint256"
                }
            ],
            "stateMutability": "view",
            "type": "function"
        },
        {
            "inputs": [],
            "name": "weight",
            "outputs": [
                {
                    "internalType": "uint256",
                    "name": "",
                    "type": "uint256"
                }
            ],
            "stateMutability": "view",
            "type": "function"
        },
        {
            "inputs": [
                {
                    "internalType": "uint256",
                    "name": "pid",
                    "type": "uint256"
                },
                {
                    "internalType": "uint256",
                    "name": "amount",
                    "type": "uint256"
                }
            ],
            "name": "withdraw",
            "outputs": [],
            "stateMutability": "nonpayable",
            "type": "function"
        }
    ],
    "bytecode": "60806040526001600e553480156200001657600080fd5b506200002b6200002562000102565b62000106565b6001805460ff60a01b1916815560025560078054336001600160a01b0319918216811792839055600880549092161790557f36d5d8406f8379c6deba01145ec4f6a2966675cc67d71355b397a2a8e3572b296016557f0811b25c145e1379dc78112dd91057f09150f6db05dfd7e04deb910e6cefd4b7601755620000bd9060009081906001600160a01b031662000158565b50601654600754620000db919081906001600160a01b031662000158565b50601754601654600854620000fb9291906001600160a01b031662000158565b50620002a9565b3390565b600180546001600160a01b038381166001600160a01b0319831681179093556040519116919082907f8be0079c531659141344cd1fd0a4f28419497f9722a3daafe3b4186f6b6457e090600090a35050565b60006200016684836200017c565b6200017284846200018c565b5060019392505050565b620001888282620001e1565b5050565b600062000199836200026b565b600084815260208190526040808220600101859055519192508391839186917fbd79b86ffe0ab8e8776151514217cd7cacd52c909f66475c3af44e129f0b00ff9190a4505050565b620001ed828262000280565b62000188576000828152602081815260408083206001600160a01b03851684529091529020805460ff191660011790556200022762000102565b6001600160a01b0316816001600160a01b0316837f2f8788117e7eff1d82e926ec794901d17c78024a50270940304540a733656f0d60405160405180910390a45050565b60009081526020819052604090206001015490565b6000918252602082815260408084206001600160a01b0393909316845291905290205460ff1690565b6136fa80620002b96000396000f3fe608060405234801561001057600080fd5b50600436106103785760003560e01c80637e668b42116101d3578063cf94ee9611610104578063e7aa29e3116100a2578063edbf4ac21161007c578063edbf4ac2146106d5578063f2fde38b146106e8578063fc90fdc0146106fb578063fd6f99d01461070357610378565b8063e7aa29e3146106a7578063ea4bf446146106ba578063ec3df6ad146106c257610378565b8063dbaef9b0116100de578063dbaef9b01461065b578063e13e8ec21461066e578063e2bbb15814610681578063e65d15221461069457610378565b8063cf94ee9614610622578063d547741f14610635578063da755b4b1461064857610378565b806393f1a40b11610171578063a1aab33f1161014b578063a1aab33f146105f7578063a217fddf146105ff578063a8b973a114610607578063bfafcad51461060f57610378565b806393f1a40b146105b657806396c82e57146105dc5780639f6c5426146105e457610378565b806385f2aef2116101ad57806385f2aef2146105805780638da5cb5b146105885780638dbb1e3a1461059057806391d14854146105a357610378565b80637e668b4214610544578063815b7a8c1461056557806382386d581461056d57610378565b8063441a3e70116102ad578063630b5ba11161024b57806378e979251161022557806378e97925146105195780637abceffd146105215780637cd07e47146105345780637d500ec81461053c57610378565b8063630b5ba1146104f657806364482f79146104fe578063715018a61461051157610378565b806351eb05a61161028757806351eb05a6146104c05780635c975abb146104d35780635f9bf689146104db5780635ffe6146146104e357610378565b8063441a3e7014610492578063454b0608146104a55780634ca01d45146104b857610378565b806323cf31181161031a57806336568abe116102f457806336568abe1461044f578063392e53cd1461046257806341441d3b1461046a5780634162169f1461047d57610378565b806323cf311814610416578063248a9ca3146104295780632f2ff15d1461043c57610378565b80631058d281116103565780631058d281146103ce5780631254f0dc146103e35780631526fe27146103eb57806317caf6f11461040e57610378565b806301ffc9a71461037d578063081e3eda146103a657806309ae4d2c146103bb575b600080fd5b61039061038b366004612e60565b61070b565b60405161039d91906130f3565b60405180910390f35b6103ae610738565b60405161039d91906130fe565b6103ae6103c9366004612e24565b61073e565b6103e16103dc366004612e24565b61078f565b005b6103ae610a0b565b6103fe6103f9366004612e24565b610a11565b60405161039d9493929190613107565b6103ae610a55565b6103e1610424366004612d53565b610a5b565b6103ae610437366004612e24565b610ab4565b6103e161044a366004612e3c565b610ac9565b6103e161045d366004612e3c565b610aed565b610390610b33565b6103e1610478366004612e24565b610b3c565b610485610db5565b60405161039d919061304e565b6103e16104a0366004612f34565b610dc4565b6103e16104b3366004612e24565b6110f6565b6104856113e0565b6103e16104ce366004612e24565b6113ef565b6103906116ea565b6103ae6116fa565b6103e16104f1366004612e24565b611700565b6103e1611715565b6103e161050c366004612f55565b61173c565b6103e1611878565b6103ae6118c3565b6103e161052f366004612ef3565b6118c9565b610485611914565b6103ae611923565b610557610552366004612f82565b611929565b60405161039d92919061355d565b6104856119d6565b6103e161057b366004612ebc565b6119e5565b610485611a61565b610485611a70565b6103ae61059e366004612f34565b611a7f565b6103906105b1366004612e3c565b611aa0565b6105c96105c4366004612e3c565b611ac9565b60405161039d979695949392919061358f565b6103ae611b18565b6103ae6105f2366004612f34565b611b1e565b6103ae611b91565b6103ae611b97565b6103ae611b9c565b6103ae61061d366004612e3c565b611ba2565b6103ae610630366004612e24565b611d33565b6103e1610643366004612e3c565b611d47565b6103ae610656366004612e24565b611d66565b610390610669366004612e24565b611e11565b6103e161067c366004612d6f565b611e1d565b6103e161068f366004612f34565b611ee5565b6103ae6106a2366004612e24565b612141565b6103e16106b5366004612d6f565b612155565b6103ae61220d565b6103e16106d0366004612e24565b612213565b6103e16106e3366004612da7565b612324565b6103e16106f6366004612d53565b61257f565b6103ae6125f0565b6103ae6125f6565b60006001600160e01b03198216637965db0b60e01b14806107305750610730826125fc565b90505b919050565b60145490565b6000818152601560209081526040808320338452909152812060038101541561077d5760008160030154436107739190613616565b9250610733915050565b60008160040154436107739190613616565b6002805414156107ba5760405162461bcd60e51b81526004016107b19061344a565b60405180910390fd5b60028081905550600060146000815481106107e557634e487b7160e01b600052603260045260246000fd5b600091825260208083203384527fa31547ce6245cdb9ecea19cf8c7eb9f5974025bb4075011409251ae855b30aed90915260409092208054600490920290920192508311156108465760405162461bcd60e51b81526004016107b1906133ca565b61085060006113ef565b6000816001015464e8d4a510008460030154846000015461087191906135f7565b61087b91906135d7565b6108859190613616565b90508015610897576108973382612615565b83156109315781546108aa908590613616565b8255825460405163a9059cbb60e01b81526001600160a01b039091169063a9059cbb906108dd90339088906004016130da565b602060405180830381600087803b1580156108f757600080fd5b505af115801561090b573d6000803e3d6000fd5b505050506040513d601f19601f8201168201806040525081019061092f9190612e08565b505b6003830154825464e8d4a5100091610948916135f7565b61095291906135d7565b6001830155600654604051632770a7eb60e21b81526001600160a01b0390911690639dc29fac9061098990339088906004016130da565b600060405180830381600087803b1580156109a357600080fd5b505af11580156109b7573d6000803e3d6000fd5b505050506000336001600160a01b03167f02f25270a4d87bea75db541cdfe559334a275b4a233520ed6c0a2429667cca9486426040516109f892919061355d565b60405180910390a3505060016002555050565b60135481565b60148181548110610a2157600080fd5b600091825260209091206004909102018054600182015460028301546003909301546001600160a01b039092169350919084565b60105481565b60115460ff16610a7d5760405162461bcd60e51b81526004016107b190613507565b601654610a9181610a8c61267d565b612681565b50600980546001600160a01b0319166001600160a01b0392909216919091179055565b60009081526020819052604090206001015490565b610ad282610ab4565b610ade81610a8c61267d565b610ae883836126e5565b505050565b610af561267d565b6001600160a01b0316816001600160a01b031614610b255760405162461bcd60e51b81526004016107b190613481565b610b2f828261276a565b5050565b60115460ff1681565b600280541415610b5e5760405162461bcd60e51b81526004016107b19061344a565b60028055610b6a6116ea565b15610b875760405162461bcd60e51b81526004016107b1906131dd565b60006014600081548110610bab57634e487b7160e01b600052603260045260246000fd5b600091825260208083203384527fa31547ce6245cdb9ecea19cf8c7eb9f5974025bb4075011409251ae855b30aed90915260408320600490920201925090610bf2906113ef565b805415610c42576000816001015464e8d4a5100084600301548460000154610c1a91906135f7565b610c2491906135d7565b610c2e9190613616565b90508015610c4057610c403382612615565b505b8215610cde5781546040516323b872dd60e01b81526001600160a01b03909116906323b872dd90610c7b903390309088906004016130b6565b602060405180830381600087803b158015610c9557600080fd5b505af1158015610ca9573d6000803e3d6000fd5b505050506040513d601f19601f82011682018060405250810190610ccd9190612e08565b508054610cdb9084906135bf565b81555b6003820154815464e8d4a5100091610cf5916135f7565b610cff91906135d7565b60018201556006546040516340c10f1960e01b81526001600160a01b03909116906340c10f1990610d3690339087906004016130da565b600060405180830381600087803b158015610d5057600080fd5b505af1158015610d64573d6000803e3d6000fd5b505050506000336001600160a01b03167f90890809c654f11d6e72a28fa60149770a0d11ec6c92319d6ceb2bb0a4ea1a1585604051610da391906130fe565b60405180910390a35050600160025550565b6008546001600160a01b031681565b600280541415610de65760405162461bcd60e51b81526004016107b19061344a565b6002805560145482908110610e0d5760405162461bcd60e51b81526004016107b190613366565b82610e2a5760405162461bcd60e51b81526004016107b19061325d565b600060148481548110610e4d57634e487b7160e01b600052603260045260246000fd5b600091825260208083208784526015825260408085203386529092529220805460049092029092019250841115610e965760405162461bcd60e51b81526004016107b1906133f6565b610e9f856113ef565b6000816001015464e8d4a5100084600301548460000154610ec091906135f7565b610eca91906135d7565b610ed49190613616565b90508015610ee657610ee63382612615565b8415610f3457600682015415610f0f576006820154610f059042613616565b6005830155610f24565b6004820154610f1e9042613616565b60058301555b8154610f31908690613616565b82555b600086815260156020908152604080832033845290915281206005015490610f5d888389611929565b915060009050610f6d8289613616565b865460085460405163a9059cbb60e01b81529293506001600160a01b039182169263a9059cbb92610fa492169085906004016130da565b602060405180830381600087803b158015610fbe57600080fd5b505af1158015610fd2573d6000803e3d6000fd5b505050506040513d601f19601f82011682018060405250810190610ff69190612e08565b50855460405163a9059cbb60e01b81526001600160a01b039091169063a9059cbb9061102890339086906004016130da565b602060405180830381600087803b15801561104257600080fd5b505af1158015611056573d6000803e3d6000fd5b505050506040513d601f19601f8201168201806040525081019061107a9190612e08565b506003860154855464e8d4a5100091611092916135f7565b61109c91906135d7565b600186015542600386018190556040518a9133917f02f25270a4d87bea75db541cdfe559334a275b4a233520ed6c0a2429667cca94916110de918d919061355d565b60405180910390a35050600160025550505050505050565b60115460ff166111185760405162461bcd60e51b81526004016107b190613507565b6014548190811061113b5760405162461bcd60e51b81526004016107b190613366565b6009546001600160a01b03166111635760405162461bcd60e51b81526004016107b190613234565b60006014838154811061118657634e487b7160e01b600052603260045260246000fd5b60009182526020822060049182020180546040516370a0823160e01b81529194506001600160a01b0316929183916370a08231916111c69130910161304e565b60206040518083038186803b1580156111de57600080fd5b505afa1580156111f2573d6000803e3d6000fd5b505050506040513d601f19601f820116820180604052508101906112169190612ea4565b60095460405163095ea7b360e01b81529192506001600160a01b038085169263095ea7b39261124b92169085906004016130da565b602060405180830381600087803b15801561126557600080fd5b505af1158015611279573d6000803e3d6000fd5b505050506040513d601f19601f8201168201806040525081019061129d9190612e08565b5060095460405163ce5494bb60e01b81526000916001600160a01b03169063ce5494bb906112cf90869060040161304e565b602060405180830381600087803b1580156112e957600080fd5b505af11580156112fd573d6000803e3d6000fd5b505050506040513d601f19601f820116820180604052508101906113219190612e88565b6040516370a0823160e01b81529091506001600160a01b038216906370a082319061135090309060040161304e565b60206040518083038186803b15801561136857600080fd5b505afa15801561137c573d6000803e3d6000fd5b505050506040513d601f19601f820116820180604052508101906113a09190612ea4565b82146113be5760405162461bcd60e51b81526004016107b1906134d0565b83546001600160a01b0319166001600160a01b03919091161790925550505050565b6006546001600160a01b031681565b601454819081106114125760405162461bcd60e51b81526004016107b190613366565b60006014838154811061143557634e487b7160e01b600052603260045260246000fd5b90600052602060002090600402019050806002015442116114565750610b2f565b80546040516370a0823160e01b81526000916001600160a01b0316906370a082319061148690309060040161304e565b60206040518083038186803b15801561149e57600080fd5b505afa1580156114b2573d6000803e3d6000fd5b505050506040513d601f19601f820116820180604052508101906114d69190612ea4565b9050806114ea575042600290910155610b2f565b60006114fa836002015442611a7f565b905060006010548460010154600d548461151491906135f7565b61151e91906135f7565b61152891906135d7565b90506000650746a52880006115428364e8d4a510006135f7565b61154c91906135d7565b9050600061155b8260026135f7565b905060006115698285613616565b600480546007546040516340c10f1960e01b81529394506001600160a01b03918216936340c10f19936115a293909216918891016130da565b600060405180830381600087803b1580156115bc57600080fd5b505af11580156115d0573d6000803e3d6000fd5b5050600480546008546040516340c10f1960e01b81526001600160a01b0392831695506340c10f19945061160b9391909216918891016130da565b600060405180830381600087803b15801561162557600080fd5b505af1158015611639573d6000803e3d6000fd5b5050600480546006546040516340c10f1960e01b81526001600160a01b0392831695506340c10f1994506116749391909216918691016130da565b600060405180830381600087803b15801561168e57600080fd5b505af11580156116a2573d6000803e3d6000fd5b50505050858464e8d4a510006116b891906135f7565b6116c291906135d7565b87600301546116d191906135bf565b6003880155505042600290950194909455505050505050565b600154600160a01b900460ff1690565b600d5481565b60175461170f81610a8c61267d565b50600e55565b60145460005b81811015610b2f5761172c816113ef565b61173581613670565b905061171b565b60115460ff1661175e5760405162461bcd60e51b81526004016107b190613507565b601454839081106117815760405162461bcd60e51b81526004016107b190613366565b60175461179081610a8c61267d565b821561179e5761179e611715565b6000601486815481106117c157634e487b7160e01b600052603260045260246000fd5b906000526020600020906004020160010154905084601487815481106117f757634e487b7160e01b600052603260045260246000fd5b9060005260206000209060040201600101819055508481146118375784816010546118229190613616565b61182c91906135bf565b6010556118376127ed565b7fd88f859573973e938da5bf3e5100c16eee2090fa720e05ae3d452b4cd05cdcfd868660405161186892919061355d565b60405180910390a1505050505050565b61188061267d565b6001600160a01b0316611891611a70565b6001600160a01b0316146118b75760405162461bcd60e51b81526004016107b1906132cb565b6118c160006128ef565b565b600f5481565b60115460ff166118eb5760405162461bcd60e51b81526004016107b190613507565b6016546118fa81610a8c61267d565b61190383612941565b61190e8484846129c2565b50505050565b6009546001600160a01b031681565b600c5481565b600080600061193b6106a28787611b1e565b90506000606461194b83876135f7565b61195591906135d7565b90506119846040518060400160405280600b81526020016a666565526174653a20257360a81b81525083612acf565b6119bb6040518060400160405280600d81526020016c666565416d6f756e743a20257360981b8152506119b683612141565b612acf565b60006119c78287613616565b91989197509095505050505050565b6004546001600160a01b031681565b6017546119f481610a8c61267d565b60008481526015602090815260408083206001600160a01b0387168452909152908190206004810184905590517f40d6e8e3d60e4693375c73df2d1a71d582a28197c98fd8d2badad6ead06af64c90611a529087908790879061353e565b60405180910390a15050505050565b6007546001600160a01b031681565b6001546001600160a01b031690565b600e54600090611a8f8484613616565b611a9991906135f7565b9392505050565b6000918252602082815260408084206001600160a01b0393909316845291905290205460ff1690565b6015602052816000526040600020602052806000526040600020600091509150508060000154908060010154908060020154908060030154908060040154908060050154908060060154905087565b600a5481565b600080620151808310611b3d57611b3862015180846135d7565b611b40565b60005b9050600060125482611b5291906135f7565b90506000601354821015611b735781601354611b6e9190613616565b611b76565b60005b90508515611b845780611b87565b60005b9695505050505050565b600b5481565b600081565b600e5481565b60008060148481548110611bc657634e487b7160e01b600052603260045260246000fd5b600091825260208083208784526015825260408085206001600160a01b038981168752935280852060049485029092016003810154815492516370a0823160e01b815291975092959294929391909116916370a0823191611c299130910161304e565b60206040518083038186803b158015611c4157600080fd5b505afa158015611c55573d6000803e3d6000fd5b505050506040513d601f19601f82011682018060405250810190611c799190612ea4565b9050836002015442118015611c8d57508015155b15611cfb576000611ca2856002015442611a7f565b905060006010548660010154600d5484611cbc91906135f7565b611cc691906135f7565b611cd091906135d7565b905082611ce28264e8d4a510006135f7565b611cec91906135d7565b611cf690856135bf565b935050505b6001830154835464e8d4a5100090611d149085906135f7565b611d1e91906135d7565b611d289190613616565b979650505050505050565b600061073082670de0b6b3a76400006135f7565b611d5082610ab4565b611d5c81610a8c61267d565b610ae8838361276a565b3360009081527fa31547ce6245cdb9ecea19cf8c7eb9f5974025bb4075011409251ae855b30aed6020526040812060068101548290611dc1576000848152601560209081526040808320338452909152902060050154611dd0565b6006820154611dd09042613616565b905060008115611dec57611de762015180836135d7565b611def565b60005b9050611dfe81620151806135f7565b611e089083613616565b95945050505050565b60006107308233611aa0565b601654611e2c81610a8c61267d565b6008546001600160a01b038481169116141580611e5757506007546001600160a01b03838116911614155b611e735760405162461bcd60e51b81526004016107b190613337565b600880546001600160a01b038086166001600160a01b0319928316179283905560078054868316931692909217918290556040517fd1c04282701cbf58aa2f0026f6876051cf3feb8ee7b8b5b5532ebb4ab03fb5d493611ed893908316921690613062565b60405180910390a1505050565b600280541415611f075760405162461bcd60e51b81526004016107b19061344a565b6002805560145482908110611f2e5760405162461bcd60e51b81526004016107b190613366565b611f366116ea565b15611f535760405162461bcd60e51b81526004016107b1906131dd565b82611f705760405162461bcd60e51b81526004016107b190613294565b600060148481548110611f9357634e487b7160e01b600052603260045260246000fd5b60009182526020808320878452601582526040808520338652909252922060049091029091019150611fc4856113ef565b805415612014576000816001015464e8d4a5100084600301548460000154611fec91906135f7565b611ff691906135d7565b6120009190613616565b90508015612012576120123382612615565b505b83156120b05781546040516323b872dd60e01b81526001600160a01b03909116906323b872dd9061204d903390309089906004016130b6565b602060405180830381600087803b15801561206757600080fd5b505af115801561207b573d6000803e3d6000fd5b505050506040513d601f19601f8201168201806040525081019061209f9190612e08565b5080546120ad9085906135bf565b81555b6003820154815464e8d4a51000916120c7916135f7565b6120d191906135d7565b600182015560048101546120ec5742816004018190556120f2565b60048101545b5084336001600160a01b03167f90890809c654f11d6e72a28fa60149770a0d11ec6c92319d6ceb2bb0a4ea1a158660405161212d91906130fe565b60405180910390a350506001600255505050565b6000610730670de0b6b3a7640000836135d7565b60165461216481610a8c61267d565b6004546001600160a01b03848116911614158061218f57506006546001600160a01b03838116911614155b6121ab5760405162461bcd60e51b81526004016107b190613300565b600480546001600160a01b038086166001600160a01b03199283161790925560068054928516929091169190911790556040517fdcc6331013de89f8c595d5328f0a724194f113cb6f8f2a707b3dff6de13f0d1790611ed89085908590613062565b60165481565b60115460ff166122355760405162461bcd60e51b81526004016107b190613507565b60175461224481610a8c61267d565b81600b5414156122665760405162461bcd60e51b81526004016107b190613393565b81600b54101561229b576000600b54836122809190613616565b905080600a600082825461229491906135bf565b9091555050505b81600b5411156122d057600082600b546122b59190613616565b905080600a60008282546122c99190613616565b9091555050505b600b829055600a546122e3908390612b14565b7fb298bc23e07860d501fddce288f46d761aa04a0c7c3316099eb50f097aacf304600b54600a5460405161231892919061355d565b60405180910390a15050565b60165461233381610a8c61267d565b60115460ff16156123565760405162461bcd60e51b81526004016107b190613207565b600380546001600160a01b03808b166001600160a01b03199283161790925560058054928a169290911691909117905542600f5561239485876135bf565b600a55600b8590556123a583611d33565b6013556123b182611d33565b601255600354600480546001600160a01b039283166001600160a01b03199182161790915560055460068054919093169116179055600b54600a5485916123f791612b14565b60408051608081018252600480546001600160a01b03908116835260208301858152600f54948401948552600060608501818152601480546001808201835591845296517fce6d7b5282bd9a3661ae061feed1dbda4e52ab073b1f9285be6e155d9c38d4ec9790960296870180546001600160a01b031916969095169590951790935590517fce6d7b5282bd9a3661ae061feed1dbda4e52ab073b1f9285be6e155d9c38d4ed85015593517fce6d7b5282bd9a3661ae061feed1dbda4e52ab073b1f9285be6e155d9c38d4ee840155517fce6d7b5282bd9a3661ae061feed1dbda4e52ab073b1f9285be6e155d9c38d4ef909201919091556011805460ff191690911790556010805483929061250e9084906135bf565b9091555050600754600854600354600554601054600b546040517f0476c5e4920930815a67a5a042e26836431f494d3be0f6e10c3034787a7a15f99661256c966001600160a01b03918216969082169590821694911692909161307c565b60405180910390a1505050505050505050565b61258761267d565b6001600160a01b0316612598611a70565b6001600160a01b0316146125be5760405162461bcd60e51b81526004016107b1906132cb565b6001600160a01b0381166125e45760405162461bcd60e51b81526004016107b190613197565b6125ed816128ef565b50565b60125481565b60175481565b6001600160e01b031981166301ffc9a760e01b14919050565b600654604051635950a15560e11b81526001600160a01b039091169063b2a142aa9061264790859085906004016130da565b600060405180830381600087803b15801561266157600080fd5b505af1158015612675573d6000803e3d6000fd5b505050505050565b3390565b61268b8282611aa0565b610b2f576126a3816001600160a01b03166014612b80565b6126ae836020612b80565b6040516020016126bf929190612fd9565b60408051601f198184030181529082905262461bcd60e51b82526107b19160040161312d565b6126ef8282611aa0565b610b2f576000828152602081815260408083206001600160a01b03851684529091529020805460ff1916600117905561272661267d565b6001600160a01b0316816001600160a01b0316837f2f8788117e7eff1d82e926ec794901d17c78024a50270940304540a733656f0d60405160405180910390a45050565b6127748282611aa0565b15610b2f576000828152602081815260408083206001600160a01b03851684529091529020805460ff191690556127a961267d565b6001600160a01b0316816001600160a01b0316837ff6391f5c32d9c69d2a47ea670b442974b53935d1edc7fd64eb21e047a839171b60405160405180910390a45050565b601454600060015b8281101561284d576014818154811061281e57634e487b7160e01b600052603260045260246000fd5b9060005260206000209060040201600101548261283b91906135bf565b915061284681613670565b90506127f5565b508015610b2f5761285f6003826135d7565b905080601460008154811061288457634e487b7160e01b600052603260045260246000fd5b9060005260206000209060040201600101546010546128a39190613616565b6128ad91906135bf565b6010819055508060146000815481106128d657634e487b7160e01b600052603260045260246000fd5b9060005260206000209060040201600101819055505050565b600180546001600160a01b038381166001600160a01b0319831681179093556040519116919082907f8be0079c531659141344cd1fd0a4f28419497f9722a3daafe3b4186f6b6457e090600090a35050565b60145460005b81811015610ae857826001600160a01b03166014828154811061297a57634e487b7160e01b600052603260045260246000fd5b60009182526020909120600490910201546001600160a01b031614156129b25760405162461bcd60e51b81526004016107b190613421565b6129bb81613670565b9050612947565b80156129d0576129d0611715565b82601060008282546129e291906135bf565b9250508190555060146040518060800160405280846001600160a01b03168152602001858152602001600f544211612a1c57600f54612a1e565b425b81526000602091820181905283546001808201865594825290829020835160049092020180546001600160a01b0319166001600160a01b0390921691909117815590820151928101929092556040810151600283015560600151600390910155612a866127ed565b6014546010546040517f20b669aa921947a6d9602a921d2db3b6b30f21b9aca98580fa3972530330b27a91612ac1918491889188919061356b565b60405180910390a150505050565b610b2f8282604051602401612ae5929190613140565b60408051601f198184030181529190526020810180516001600160e01b03166309710a9d60e41b179052612d32565b6000612b2082846135d7565b9050612b36816934f086f3b33b684000006135f7565b600c819055612b499062015180906135d7565b600d819055600c546040517fcd7c861d63893659123f817b192b8621ff1923a7c4589c260173cedcf9e986a692611ed8929161355d565b60606000612b8f8360026135f7565b612b9a9060026135bf565b67ffffffffffffffff811115612bc057634e487b7160e01b600052604160045260246000fd5b6040519080825280601f01601f191660200182016040528015612bea576020820181803683370190505b509050600360fc1b81600081518110612c1357634e487b7160e01b600052603260045260246000fd5b60200101906001600160f81b031916908160001a905350600f60fb1b81600181518110612c5057634e487b7160e01b600052603260045260246000fd5b60200101906001600160f81b031916908160001a9053506000612c748460026135f7565b612c7f9060016135bf565b90505b6001811115612d13576f181899199a1a9b1b9c1cb0b131b232b360811b85600f1660108110612cc157634e487b7160e01b600052603260045260246000fd5b1a60f81b828281518110612ce557634e487b7160e01b600052603260045260246000fd5b60200101906001600160f81b031916908160001a90535060049490941c93612d0c81613659565b9050612c82565b508315611a995760405162461bcd60e51b81526004016107b190613162565b80516a636f6e736f6c652e6c6f67602083016000808483855afa5050505050565b600060208284031215612d64578081fd5b8135611a99816136a1565b60008060408385031215612d81578081fd5b8235612d8c816136a1565b91506020830135612d9c816136a1565b809150509250929050565b600080600080600080600060e0888a031215612dc1578283fd5b8735612dcc816136a1565b96506020880135612ddc816136a1565b96999698505050506040850135946060810135946080820135945060a0820135935060c0909101359150565b600060208284031215612e19578081fd5b8151611a99816136b6565b600060208284031215612e35578081fd5b5035919050565b60008060408385031215612e4e578182fd5b823591506020830135612d9c816136a1565b600060208284031215612e71578081fd5b81356001600160e01b031981168114611a99578182fd5b600060208284031215612e99578081fd5b8151611a99816136a1565b600060208284031215612eb5578081fd5b5051919050565b600080600060608486031215612ed0578283fd5b833592506020840135612ee2816136a1565b929592945050506040919091013590565b600080600060608486031215612f07578283fd5b833592506020840135612f19816136a1565b91506040840135612f29816136b6565b809150509250925092565b60008060408385031215612f46578182fd5b50508035926020909101359150565b600080600060608486031215612f69578081fd5b83359250602084013591506040840135612f29816136b6565b600080600060608486031215612f96578081fd5b505081359360208301359350604090920135919050565b60008151808452612fc581602086016020860161362d565b601f01601f19169290920160200192915050565b60007f416363657373436f6e74726f6c3a206163636f756e74200000000000000000008252835161301181601785016020880161362d565b7001034b99036b4b9b9b4b733903937b6329607d1b601791840191820152835161304281602884016020880161362d565b01602801949350505050565b6001600160a01b0391909116815260200190565b6001600160a01b0392831681529116602082015260400190565b6001600160a01b0396871681529486166020860152928516604085015293166060830152608082019290925260a081019190915260c00190565b6001600160a01b039384168152919092166020820152604081019190915260600190565b6001600160a01b03929092168252602082015260400190565b901515815260200190565b90815260200190565b6001600160a01b0394909416845260208401929092526040830152606082015260800190565b600060208252611a996020830184612fad565b6000604082526131536040830185612fad565b90508260208301529392505050565b6020808252818101527f537472696e67733a20686578206c656e67746820696e73756666696369656e74604082015260600190565b60208082526026908201527f4f776e61626c653a206e6577206f776e657220697320746865207a65726f206160408201526564647265737360d01b606082015260800190565b60208082526010908201526f14185d5cd8589b194e881c185d5cd95960821b604082015260600190565b602080825260139082015272185b1c9958591e481a5b9a5d1a585b1a5e9959606a1b604082015260600190565b6020808252600f908201526e1b9bc81b5a59dc985d1bdc881cd95d608a1b604082015260600190565b6020808252601a908201527f776974686472617720534f554c20627920756e7374616b696e67000000000000604082015260600190565b60208082526017908201527f6465706f73697420534f554c206279207374616b696e67000000000000000000604082015260600190565b6020808252818101527f4f776e61626c653a2063616c6c6572206973206e6f7420746865206f776e6572604082015260600190565b6020808252601b908201527f6d7573742062652061206e657720746f6b656e20616464726573730000000000604082015260600190565b6020808252601590820152741b5d5cdd0818994818481b995dc81858d8dbdd5b9d605a1b604082015260600190565b6020808252601390820152721c1bdbdb08191bd95cc81b9bdd08195e1a5cdd606a1b604082015260600190565b60208082526018908201527f6d757374206265206e6577207765696768742076616c75650000000000000000604082015260600190565b6020808252601290820152711dda5d1a191c985dce881b9bdd0819dbdbd960721b604082015260600190565b6020808252601190820152701dda5d1a191c985dc81b9bdd0819dbdbd9607a1b604082015260600190565b6020808252600f908201526e191d5c1b1a58d85d1959081c1bdbdb608a1b604082015260600190565b6020808252601f908201527f5265656e7472616e637947756172643a207265656e7472616e742063616c6c00604082015260600190565b6020808252602f908201527f416363657373436f6e74726f6c3a2063616e206f6e6c792072656e6f756e636560408201526e103937b632b9903337b91039b2b63360891b606082015260800190565b6020808252601d908201527f6d6967726174653a20696e73756666696369656e742062616c616e6365000000604082015260600190565b6020808252601a908201527f726577617264732068617665206e6f742079657420626567756e000000000000604082015260600190565b9283526001600160a01b03919091166020830152604082015260600190565b918252602082015260400190565b93845260208401929092526001600160a01b03166040830152606082015260800190565b968752602087019590955260408601939093526060850191909152608084015260a083015260c082015260e00190565b600082198211156135d2576135d261368b565b500190565b6000826135f257634e487b7160e01b81526012600452602481fd5b500490565b60008160001904831182151516156136115761361161368b565b500290565b6000828210156136285761362861368b565b500390565b60005b83811015613648578181015183820152602001613630565b8381111561190e5750506000910152565b6000816136685761366861368b565b506000190190565b60006000198214156136845761368461368b565b5060010190565b634e487b7160e01b600052601160045260246000fd5b6001600160a01b03811681146125ed57600080fd5b80151581146125ed57600080fdfea2646970667358221220dc3e64f1f97a221acf2b69a8d0928dc89e69fdb3265ed70a8ec521f0308cdb6e64736f6c63430008000033",
    "sourcePath": "/Users/unico/Documents/GitHub/SoulSwap/soulswap-farms/contracts/mocks/MockSoulSummoner.sol",
    "compiler": {
        "name": "solc",
        "version": "0.8.0+commit.c7dfd78e"
    },
    "functionHashes": {
        "DEFAULT_ADMIN_ROLE()": "a217fddf",
        "addPool(uint256,address,bool)": "7abceffd",
        "bonusMultiplier()": "a8b973a1",
        "dailyDecay()": "fc90fdc0",
        "dailySoul()": "7d500ec8",
        "dao()": "4162169f",
        "deposit(uint256,uint256)": "e2bbb158",
        "enWei(uint256)": "cf94ee96",
        "enterStaking(uint256)": "41441d3b",
        "fromWei(uint256)": "e65d1522",
        "getFeeRate(uint256,uint256)": "9f6c5426",
        "getMultiplier(uint256,uint256)": "8dbb1e3a",
        "getRoleAdmin(bytes32)": "248a9ca3",
        "getWithdrawable(uint256,uint256,uint256)": "7e668b42",
        "grantRole(bytes32,address)": "2f2ff15d",
        "hasDivineRole(bytes32)": "dbaef9b0",
        "hasRole(bytes32,address)": "91d14854",
        "initialize(address,address,uint256,uint256,uint256,uint256,uint256)": "edbf4ac2",
        "isInitialized()": "392e53cd",
        "isis()": "ea4bf446",
        "leaveStaking(uint256)": "1058d281",
        "maat()": "fd6f99d0",
        "massUpdatePools()": "630b5ba1",
        "migrate(uint256)": "454b0608",
        "migrator()": "7cd07e47",
        "owner()": "8da5cb5b",
        "paused()": "5c975abb",
        "pendingSoul(uint256,address)": "bfafcad5",
        "poolInfo(uint256)": "1526fe27",
        "poolLength()": "081e3eda",
        "renounceOwnership()": "715018a6",
        "renounceRole(bytes32,address)": "36568abe",
        "reviseDeposit(uint256,address,uint256)": "82386d58",
        "revokeRole(bytes32,address)": "d547741f",
        "seance()": "4ca01d45",
        "set(uint256,uint256,bool)": "64482f79",
        "setMigrator(address)": "23cf3118",
        "soul()": "815b7a8c",
        "soulPerSecond()": "5f9bf689",
        "startRate()": "1254f0dc",
        "startTime()": "78e97925",
        "supportsInterface(bytes4)": "01ffc9a7",
        "team()": "85f2aef2",
        "timeUntilNextDecrease(uint256)": "da755b4b",
        "totalAllocPoint()": "17caf6f1",
        "totalWeight()": "96c82e57",
        "transferOwnership(address)": "f2fde38b",
        "updateAccounts(address,address)": "e13e8ec2",
        "updateMultiplier(uint256)": "5ffe6146",
        "updatePool(uint256)": "51eb05a6",
        "updateTokens(address,address)": "e7aa29e3",
        "updateWeight(uint256)": "ec3df6ad",
        "userDelta(uint256)": "09ae4d2c",
        "userInfo(uint256,address)": "93f1a40b",
        "weight()": "a1aab33f",
        "withdraw(uint256,uint256)": "441a3e70"
    },
    "gasEstimates": {
        "creation": {
            "codeDepositCost": "2814800",
            "executionCost": "infinite",
            "totalCost": "infinite"
        },
        "external": {
            "DEFAULT_ADMIN_ROLE()": "317",
            "addPool(uint256,address,bool)": "infinite",
            "bonusMultiplier()": "1139",
            "dailyDecay()": "1138",
            "dailySoul()": "1161",
            "dao()": "1204",
            "deposit(uint256,uint256)": "infinite",
            "enWei(uint256)": "476",
            "enterStaking(uint256)": "infinite",
            "fromWei(uint256)": "509",
            "getFeeRate(uint256,uint256)": "3215",
            "getMultiplier(uint256,uint256)": "1414",
            "getRoleAdmin(bytes32)": "1271",
            "getWithdrawable(uint256,uint256,uint256)": "infinite",
            "grantRole(bytes32,address)": "infinite",
            "hasDivineRole(bytes32)": "1389",
            "hasRole(bytes32,address)": "1516",
            "initialize(address,address,uint256,uint256,uint256,uint256,uint256)": "infinite",
            "isInitialized()": "1130",
            "isis()": "1117",
            "leaveStaking(uint256)": "infinite",
            "maat()": "1160",
            "massUpdatePools()": "infinite",
            "migrate(uint256)": "infinite",
            "migrator()": "1181",
            "owner()": "1160",
            "paused()": "1147",
            "pendingSoul(uint256,address)": "infinite",
            "poolInfo(uint256)": "4673",
            "poolLength()": "1120",
            "renounceOwnership()": "23619",
            "renounceRole(bytes32,address)": "infinite",
            "reviseDeposit(uint256,address,uint256)": "infinite",
            "revokeRole(bytes32,address)": "infinite",
            "seance()": "1183",
            "set(uint256,uint256,bool)": "infinite",
            "setMigrator(address)": "infinite",
            "soul()": "1161",
            "soulPerSecond()": "1140",
            "startRate()": "1119",
            "startTime()": "1095",
            "supportsInterface(bytes4)": "566",
            "team()": "1138",
            "timeUntilNextDecrease(uint256)": "2547",
            "totalAllocPoint()": "1163",
            "totalWeight()": "1118",
            "transferOwnership(address)": "infinite",
            "updateAccounts(address,address)": "infinite",
            "updateMultiplier(uint256)": "infinite",
            "updatePool(uint256)": "infinite",
            "updateTokens(address,address)": "infinite",
            "updateWeight(uint256)": "infinite",
            "userDelta(uint256)": "2292",
            "userInfo(uint256,address)": "6441",
            "weight()": "1095",
            "withdraw(uint256,uint256)": "infinite"
        },
        "internal": {
            "_addPool(uint256,contract IERC20,bool)": "infinite",
            "_divinationCeremony(bytes32,bytes32,address)": "infinite",
            "checkPoolDuplicate(contract IERC20)": "infinite",
            "safeSoulTransfer(address,uint256)": "infinite",
            "updateRewards(uint256,uint256)": "infinite",
            "updateStakingPool()": "infinite"
        }
    }
}