{
    "contractName": "MockSoulSummoner",
    "abi": [
        {
            "inputs": [],
            "stateMutability": "nonpayable",
            "type": "constructor"
        },
        {
            "anonymous": false,
            "inputs": [
                {
                    "indexed": false,
                    "internalType": "address",
                    "name": "dao",
                    "type": "address"
                },
                {
                    "indexed": false,
                    "internalType": "address",
                    "name": "team",
                    "type": "address"
                }
            ],
            "name": "AccountsUpdated",
            "type": "event"
        },
        {
            "anonymous": false,
            "inputs": [
                {
                    "indexed": true,
                    "internalType": "address",
                    "name": "user",
                    "type": "address"
                },
                {
                    "indexed": true,
                    "internalType": "uint256",
                    "name": "pid",
                    "type": "uint256"
                },
                {
                    "indexed": false,
                    "internalType": "uint256",
                    "name": "amount",
                    "type": "uint256"
                }
            ],
            "name": "Deposit",
            "type": "event"
        },
        {
            "anonymous": false,
            "inputs": [
                {
                    "indexed": false,
                    "internalType": "address",
                    "name": "team",
                    "type": "address"
                },
                {
                    "indexed": false,
                    "internalType": "address",
                    "name": "dao",
                    "type": "address"
                },
                {
                    "indexed": false,
                    "internalType": "address",
                    "name": "soul",
                    "type": "address"
                },
                {
                    "indexed": false,
                    "internalType": "address",
                    "name": "seance",
                    "type": "address"
                },
                {
                    "indexed": false,
                    "internalType": "uint256",
                    "name": "totalAllocPoint",
                    "type": "uint256"
                },
                {
                    "indexed": false,
                    "internalType": "uint256",
                    "name": "weight",
                    "type": "uint256"
                }
            ],
            "name": "Initialized",
            "type": "event"
        },
        {
            "anonymous": false,
            "inputs": [
                {
                    "indexed": true,
                    "internalType": "address",
                    "name": "previousOwner",
                    "type": "address"
                },
                {
                    "indexed": true,
                    "internalType": "address",
                    "name": "newOwner",
                    "type": "address"
                }
            ],
            "name": "OwnershipTransferred",
            "type": "event"
        },
        {
            "anonymous": false,
            "inputs": [
                {
                    "indexed": false,
                    "internalType": "address",
                    "name": "account",
                    "type": "address"
                }
            ],
            "name": "Paused",
            "type": "event"
        },
        {
            "anonymous": false,
            "inputs": [
                {
                    "indexed": false,
                    "internalType": "uint256",
                    "name": "pid",
                    "type": "uint256"
                },
                {
                    "indexed": false,
                    "internalType": "uint256",
                    "name": "allocPoint",
                    "type": "uint256"
                },
                {
                    "indexed": false,
                    "internalType": "contract IERC20",
                    "name": "lpToken",
                    "type": "address"
                },
                {
                    "indexed": false,
                    "internalType": "uint256",
                    "name": "totalAllocPoint",
                    "type": "uint256"
                }
            ],
            "name": "PoolAdded",
            "type": "event"
        },
        {
            "anonymous": false,
            "inputs": [
                {
                    "indexed": false,
                    "internalType": "uint256",
                    "name": "pid",
                    "type": "uint256"
                },
                {
                    "indexed": false,
                    "internalType": "uint256",
                    "name": "allocPoint",
                    "type": "uint256"
                }
            ],
            "name": "PoolSet",
            "type": "event"
        },
        {
            "anonymous": false,
            "inputs": [
                {
                    "indexed": false,
                    "internalType": "uint256",
                    "name": "dailySoul",
                    "type": "uint256"
                },
                {
                    "indexed": false,
                    "internalType": "uint256",
                    "name": "soulPerSecond",
                    "type": "uint256"
                }
            ],
            "name": "RewardsUpdated",
            "type": "event"
        },
        {
            "anonymous": false,
            "inputs": [
                {
                    "indexed": true,
                    "internalType": "bytes32",
                    "name": "role",
                    "type": "bytes32"
                },
                {
                    "indexed": true,
                    "internalType": "bytes32",
                    "name": "previousAdminRole",
                    "type": "bytes32"
                },
                {
                    "indexed": true,
                    "internalType": "bytes32",
                    "name": "newAdminRole",
                    "type": "bytes32"
                }
            ],
            "name": "RoleAdminChanged",
            "type": "event"
        },
        {
            "anonymous": false,
            "inputs": [
                {
                    "indexed": false,
                    "internalType": "bytes32",
                    "name": "role",
                    "type": "bytes32"
                },
                {
                    "indexed": false,
                    "internalType": "bytes32",
                    "name": "supreme",
                    "type": "bytes32"
                }
            ],
            "name": "RoleDivinated",
            "type": "event"
        },
        {
            "anonymous": false,
            "inputs": [
                {
                    "indexed": true,
                    "internalType": "bytes32",
                    "name": "role",
                    "type": "bytes32"
                },
                {
                    "indexed": true,
                    "internalType": "address",
                    "name": "account",
                    "type": "address"
                },
                {
                    "indexed": true,
                    "internalType": "address",
                    "name": "sender",
                    "type": "address"
                }
            ],
            "name": "RoleGranted",
            "type": "event"
        },
        {
            "anonymous": false,
            "inputs": [
                {
                    "indexed": true,
                    "internalType": "bytes32",
                    "name": "role",
                    "type": "bytes32"
                },
                {
                    "indexed": true,
                    "internalType": "address",
                    "name": "account",
                    "type": "address"
                },
                {
                    "indexed": true,
                    "internalType": "address",
                    "name": "sender",
                    "type": "address"
                }
            ],
            "name": "RoleRevoked",
            "type": "event"
        },
        {
            "anonymous": false,
            "inputs": [
                {
                    "indexed": false,
                    "internalType": "address",
                    "name": "soul",
                    "type": "address"
                },
                {
                    "indexed": false,
                    "internalType": "address",
                    "name": "seance",
                    "type": "address"
                }
            ],
            "name": "TokensUpdated",
            "type": "event"
        },
        {
            "anonymous": false,
            "inputs": [
                {
                    "indexed": false,
                    "internalType": "address",
                    "name": "account",
                    "type": "address"
                }
            ],
            "name": "Unpaused",
            "type": "event"
        },
        {
            "anonymous": false,
            "inputs": [
                {
                    "indexed": false,
                    "internalType": "uint256",
                    "name": "weight",
                    "type": "uint256"
                },
                {
                    "indexed": false,
                    "internalType": "uint256",
                    "name": "totalWeight",
                    "type": "uint256"
                }
            ],
            "name": "WeightUpdated",
            "type": "event"
        },
        {
            "anonymous": false,
            "inputs": [
                {
                    "indexed": true,
                    "internalType": "address",
                    "name": "user",
                    "type": "address"
                },
                {
                    "indexed": true,
                    "internalType": "uint256",
                    "name": "pid",
                    "type": "uint256"
                },
                {
                    "indexed": false,
                    "internalType": "uint256",
                    "name": "amount",
                    "type": "uint256"
                },
                {
                    "indexed": false,
                    "internalType": "uint256",
                    "name": "timeStamp",
                    "type": "uint256"
                }
            ],
            "name": "Withdraw",
            "type": "event"
        },
        {
            "inputs": [],
            "name": "DEFAULT_ADMIN_ROLE",
            "outputs": [
                {
                    "internalType": "bytes32",
                    "name": "",
                    "type": "bytes32"
                }
            ],
            "stateMutability": "view",
            "type": "function"
        },
        {
            "inputs": [
                {
                    "internalType": "uint256",
                    "name": "_allocPoint",
                    "type": "uint256"
                },
                {
                    "internalType": "contract IERC20",
                    "name": "_lpToken",
                    "type": "address"
                },
                {
                    "internalType": "bool",
                    "name": "_withUpdate",
                    "type": "bool"
                }
            ],
            "name": "addPool",
            "outputs": [],
            "stateMutability": "nonpayable",
            "type": "function"
        },
        {
            "inputs": [],
            "name": "bonusMultiplier",
            "outputs": [
                {
                    "internalType": "uint256",
                    "name": "",
                    "type": "uint256"
                }
            ],
            "stateMutability": "view",
            "type": "function"
        },
        {
            "inputs": [],
            "name": "dailyDecay",
            "outputs": [
                {
                    "internalType": "uint256",
                    "name": "",
                    "type": "uint256"
                }
            ],
            "stateMutability": "view",
            "type": "function"
        },
        {
            "inputs": [],
            "name": "dailySoul",
            "outputs": [
                {
                    "internalType": "uint256",
                    "name": "",
                    "type": "uint256"
                }
            ],
            "stateMutability": "view",
            "type": "function"
        },
        {
            "inputs": [],
            "name": "dao",
            "outputs": [
                {
                    "internalType": "address",
                    "name": "",
                    "type": "address"
                }
            ],
            "stateMutability": "view",
            "type": "function"
        },
        {
            "inputs": [
                {
                    "internalType": "uint256",
                    "name": "pid",
                    "type": "uint256"
                },
                {
                    "internalType": "uint256",
                    "name": "amount",
                    "type": "uint256"
                }
            ],
            "name": "deposit",
            "outputs": [],
            "stateMutability": "nonpayable",
            "type": "function"
        },
        {
            "inputs": [
                {
                    "internalType": "uint256",
                    "name": "amount",
                    "type": "uint256"
                }
            ],
            "name": "enWei",
            "outputs": [
                {
                    "internalType": "uint256",
                    "name": "",
                    "type": "uint256"
                }
            ],
            "stateMutability": "pure",
            "type": "function"
        },
        {
            "inputs": [
                {
                    "internalType": "uint256",
                    "name": "amount",
                    "type": "uint256"
                }
            ],
            "name": "enterStaking",
            "outputs": [],
            "stateMutability": "nonpayable",
            "type": "function"
        },
        {
            "inputs": [
                {
                    "internalType": "uint256",
                    "name": "pid",
                    "type": "uint256"
                }
            ],
            "name": "getFeeRate",
            "outputs": [
                {
                    "internalType": "uint256",
                    "name": "",
                    "type": "uint256"
                }
            ],
            "stateMutability": "view",
            "type": "function"
        },
        {
            "inputs": [
                {
                    "internalType": "uint256",
                    "name": "timeDelta",
                    "type": "uint256"
                }
            ],
            "name": "getFeeRateTime",
            "outputs": [
                {
                    "internalType": "uint256",
                    "name": "",
                    "type": "uint256"
                }
            ],
            "stateMutability": "view",
            "type": "function"
        },
        {
            "inputs": [
                {
                    "internalType": "uint256",
                    "name": "from",
                    "type": "uint256"
                },
                {
                    "internalType": "uint256",
                    "name": "to",
                    "type": "uint256"
                }
            ],
            "name": "getMultiplier",
            "outputs": [
                {
                    "internalType": "uint256",
                    "name": "",
                    "type": "uint256"
                }
            ],
            "stateMutability": "view",
            "type": "function"
        },
        {
            "inputs": [
                {
                    "internalType": "bytes32",
                    "name": "role",
                    "type": "bytes32"
                }
            ],
            "name": "getRoleAdmin",
            "outputs": [
                {
                    "internalType": "bytes32",
                    "name": "",
                    "type": "bytes32"
                }
            ],
            "stateMutability": "view",
            "type": "function"
        },
        {
            "inputs": [
                {
                    "internalType": "bytes32",
                    "name": "role",
                    "type": "bytes32"
                },
                {
                    "internalType": "address",
                    "name": "account",
                    "type": "address"
                }
            ],
            "name": "grantRole",
            "outputs": [],
            "stateMutability": "nonpayable",
            "type": "function"
        },
        {
            "inputs": [
                {
                    "internalType": "bytes32",
                    "name": "role",
                    "type": "bytes32"
                }
            ],
            "name": "hasDivineRole",
            "outputs": [
                {
                    "internalType": "bool",
                    "name": "",
                    "type": "bool"
                }
            ],
            "stateMutability": "view",
            "type": "function"
        },
        {
            "inputs": [
                {
                    "internalType": "bytes32",
                    "name": "role",
                    "type": "bytes32"
                },
                {
                    "internalType": "address",
                    "name": "account",
                    "type": "address"
                }
            ],
            "name": "hasRole",
            "outputs": [
                {
                    "internalType": "bool",
                    "name": "",
                    "type": "bool"
                }
            ],
            "stateMutability": "view",
            "type": "function"
        },
        {
            "inputs": [
                {
                    "internalType": "address",
                    "name": "_soulAddress",
                    "type": "address"
                },
                {
                    "internalType": "address",
                    "name": "_seanceAddress",
                    "type": "address"
                },
                {
                    "internalType": "uint256",
                    "name": "_totalWeight",
                    "type": "uint256"
                },
                {
                    "internalType": "uint256",
                    "name": "_weight",
                    "type": "uint256"
                },
                {
                    "internalType": "uint256",
                    "name": "_stakingAlloc",
                    "type": "uint256"
                },
                {
                    "internalType": "uint256",
                    "name": "_startRate",
                    "type": "uint256"
                },
                {
                    "internalType": "uint256",
                    "name": "_dailyDecay",
                    "type": "uint256"
                }
            ],
            "name": "initialize",
            "outputs": [],
            "stateMutability": "nonpayable",
            "type": "function"
        },
        {
            "inputs": [],
            "name": "isInitialized",
            "outputs": [
                {
                    "internalType": "bool",
                    "name": "",
                    "type": "bool"
                }
            ],
            "stateMutability": "view",
            "type": "function"
        },
        {
            "inputs": [],
            "name": "isis",
            "outputs": [
                {
                    "internalType": "bytes32",
                    "name": "",
                    "type": "bytes32"
                }
            ],
            "stateMutability": "view",
            "type": "function"
        },
        {
            "inputs": [
                {
                    "internalType": "uint256",
                    "name": "amount",
                    "type": "uint256"
                }
            ],
            "name": "leaveStaking",
            "outputs": [],
            "stateMutability": "nonpayable",
            "type": "function"
        },
        {
            "inputs": [],
            "name": "maat",
            "outputs": [
                {
                    "internalType": "bytes32",
                    "name": "",
                    "type": "bytes32"
                }
            ],
            "stateMutability": "view",
            "type": "function"
        },
        {
            "inputs": [],
            "name": "massUpdatePools",
            "outputs": [],
            "stateMutability": "nonpayable",
            "type": "function"
        },
        {
            "inputs": [
                {
                    "internalType": "uint256",
                    "name": "pid",
                    "type": "uint256"
                }
            ],
            "name": "migrate",
            "outputs": [],
            "stateMutability": "nonpayable",
            "type": "function"
        },
        {
            "inputs": [],
            "name": "migrator",
            "outputs": [
                {
                    "internalType": "contract IMigrator",
                    "name": "",
                    "type": "address"
                }
            ],
            "stateMutability": "view",
            "type": "function"
        },
        {
            "inputs": [
                {
                    "internalType": "uint256",
                    "name": "amount",
                    "type": "uint256"
                }
            ],
            "name": "oneHundreth",
            "outputs": [
                {
                    "internalType": "uint256",
                    "name": "",
                    "type": "uint256"
                }
            ],
            "stateMutability": "pure",
            "type": "function"
        },
        {
            "inputs": [],
            "name": "owner",
            "outputs": [
                {
                    "internalType": "address",
                    "name": "",
                    "type": "address"
                }
            ],
            "stateMutability": "view",
            "type": "function"
        },
        {
            "inputs": [],
            "name": "paused",
            "outputs": [
                {
                    "internalType": "bool",
                    "name": "",
                    "type": "bool"
                }
            ],
            "stateMutability": "view",
            "type": "function"
        },
        {
            "inputs": [
                {
                    "internalType": "uint256",
                    "name": "pid",
                    "type": "uint256"
                },
                {
                    "internalType": "address",
                    "name": "_user",
                    "type": "address"
                }
            ],
            "name": "pendingSoul",
            "outputs": [
                {
                    "internalType": "uint256",
                    "name": "pendingAmount",
                    "type": "uint256"
                }
            ],
            "stateMutability": "view",
            "type": "function"
        },
        {
            "inputs": [
                {
                    "internalType": "uint256",
                    "name": "",
                    "type": "uint256"
                }
            ],
            "name": "poolInfo",
            "outputs": [
                {
                    "internalType": "contract IERC20",
                    "name": "lpToken",
                    "type": "address"
                },
                {
                    "internalType": "uint256",
                    "name": "allocPoint",
                    "type": "uint256"
                },
                {
                    "internalType": "uint256",
                    "name": "lastRewardTime",
                    "type": "uint256"
                },
                {
                    "internalType": "uint256",
                    "name": "accSoulPerShare",
                    "type": "uint256"
                }
            ],
            "stateMutability": "view",
            "type": "function"
        },
        {
            "inputs": [],
            "name": "poolLength",
            "outputs": [
                {
                    "internalType": "uint256",
                    "name": "",
                    "type": "uint256"
                }
            ],
            "stateMutability": "view",
            "type": "function"
        },
        {
            "inputs": [],
            "name": "renounceOwnership",
            "outputs": [],
            "stateMutability": "nonpayable",
            "type": "function"
        },
        {
            "inputs": [
                {
                    "internalType": "bytes32",
                    "name": "role",
                    "type": "bytes32"
                },
                {
                    "internalType": "address",
                    "name": "account",
                    "type": "address"
                }
            ],
            "name": "renounceRole",
            "outputs": [],
            "stateMutability": "nonpayable",
            "type": "function"
        },
        {
            "inputs": [
                {
                    "internalType": "uint256",
                    "name": "_pid",
                    "type": "uint256"
                },
                {
                    "internalType": "address",
                    "name": "_user",
                    "type": "address"
                },
                {
                    "internalType": "uint256",
                    "name": "_time",
                    "type": "uint256"
                }
            ],
            "name": "reviseDeposit",
            "outputs": [],
            "stateMutability": "nonpayable",
            "type": "function"
        },
        {
            "inputs": [
                {
                    "internalType": "bytes32",
                    "name": "role",
                    "type": "bytes32"
                },
                {
                    "internalType": "address",
                    "name": "account",
                    "type": "address"
                }
            ],
            "name": "revokeRole",
            "outputs": [],
            "stateMutability": "nonpayable",
            "type": "function"
        },
        {
            "inputs": [],
            "name": "seance",
            "outputs": [
                {
                    "internalType": "contract MockSeanceCircle",
                    "name": "",
                    "type": "address"
                }
            ],
            "stateMutability": "view",
            "type": "function"
        },
        {
            "inputs": [
                {
                    "internalType": "uint256",
                    "name": "pid",
                    "type": "uint256"
                },
                {
                    "internalType": "uint256",
                    "name": "allocPoint",
                    "type": "uint256"
                },
                {
                    "internalType": "bool",
                    "name": "withUpdate",
                    "type": "bool"
                }
            ],
            "name": "set",
            "outputs": [],
            "stateMutability": "nonpayable",
            "type": "function"
        },
        {
            "inputs": [
                {
                    "internalType": "contract IMigrator",
                    "name": "_migrator",
                    "type": "address"
                }
            ],
            "name": "setMigrator",
            "outputs": [],
            "stateMutability": "nonpayable",
            "type": "function"
        },
        {
            "inputs": [],
            "name": "soul",
            "outputs": [
                {
                    "internalType": "contract MockSoulPower",
                    "name": "",
                    "type": "address"
                }
            ],
            "stateMutability": "view",
            "type": "function"
        },
        {
            "inputs": [],
            "name": "soulPerSecond",
            "outputs": [
                {
                    "internalType": "uint256",
                    "name": "",
                    "type": "uint256"
                }
            ],
            "stateMutability": "view",
            "type": "function"
        },
        {
            "inputs": [],
            "name": "startRate",
            "outputs": [
                {
                    "internalType": "uint256",
                    "name": "",
                    "type": "uint256"
                }
            ],
            "stateMutability": "view",
            "type": "function"
        },
        {
            "inputs": [],
            "name": "startTime",
            "outputs": [
                {
                    "internalType": "uint256",
                    "name": "",
                    "type": "uint256"
                }
            ],
            "stateMutability": "view",
            "type": "function"
        },
        {
            "inputs": [
                {
                    "internalType": "bytes4",
                    "name": "interfaceId",
                    "type": "bytes4"
                }
            ],
            "name": "supportsInterface",
            "outputs": [
                {
                    "internalType": "bool",
                    "name": "",
                    "type": "bool"
                }
            ],
            "stateMutability": "view",
            "type": "function"
        },
        {
            "inputs": [],
            "name": "team",
            "outputs": [
                {
                    "internalType": "address",
                    "name": "",
                    "type": "address"
                }
            ],
            "stateMutability": "view",
            "type": "function"
        },
        {
            "inputs": [
                {
                    "internalType": "uint256",
                    "name": "pid",
                    "type": "uint256"
                }
            ],
            "name": "timeUntilNextDecrease",
            "outputs": [
                {
                    "internalType": "uint256",
                    "name": "",
                    "type": "uint256"
                }
            ],
            "stateMutability": "view",
            "type": "function"
        },
        {
            "inputs": [],
            "name": "totalAllocPoint",
            "outputs": [
                {
                    "internalType": "uint256",
                    "name": "",
                    "type": "uint256"
                }
            ],
            "stateMutability": "view",
            "type": "function"
        },
        {
            "inputs": [],
            "name": "totalWeight",
            "outputs": [
                {
                    "internalType": "uint256",
                    "name": "",
                    "type": "uint256"
                }
            ],
            "stateMutability": "view",
            "type": "function"
        },
        {
            "inputs": [
                {
                    "internalType": "address",
                    "name": "newOwner",
                    "type": "address"
                }
            ],
            "name": "transferOwnership",
            "outputs": [],
            "stateMutability": "nonpayable",
            "type": "function"
        },
        {
            "inputs": [
                {
                    "internalType": "address",
                    "name": "_dao",
                    "type": "address"
                },
                {
                    "internalType": "address",
                    "name": "_team",
                    "type": "address"
                }
            ],
            "name": "updateAccounts",
            "outputs": [],
            "stateMutability": "nonpayable",
            "type": "function"
        },
        {
            "inputs": [
                {
                    "internalType": "uint256",
                    "name": "_bonusMultiplier",
                    "type": "uint256"
                }
            ],
            "name": "updateMultiplier",
            "outputs": [],
            "stateMutability": "nonpayable",
            "type": "function"
        },
        {
            "inputs": [
                {
                    "internalType": "uint256",
                    "name": "pid",
                    "type": "uint256"
                }
            ],
            "name": "updatePool",
            "outputs": [],
            "stateMutability": "nonpayable",
            "type": "function"
        },
        {
            "inputs": [
                {
                    "internalType": "address",
                    "name": "_soul",
                    "type": "address"
                },
                {
                    "internalType": "address",
                    "name": "_seance",
                    "type": "address"
                }
            ],
            "name": "updateTokens",
            "outputs": [],
            "stateMutability": "nonpayable",
            "type": "function"
        },
        {
            "inputs": [
                {
                    "internalType": "uint256",
                    "name": "_weight",
                    "type": "uint256"
                }
            ],
            "name": "updateWeight",
            "outputs": [],
            "stateMutability": "nonpayable",
            "type": "function"
        },
        {
            "inputs": [
                {
                    "internalType": "uint256",
                    "name": "_pid",
                    "type": "uint256"
                }
            ],
            "name": "userDelta",
            "outputs": [
                {
                    "internalType": "uint256",
                    "name": "",
                    "type": "uint256"
                }
            ],
            "stateMutability": "view",
            "type": "function"
        },
        {
            "inputs": [
                {
                    "internalType": "uint256",
                    "name": "",
                    "type": "uint256"
                },
                {
                    "internalType": "address",
                    "name": "",
                    "type": "address"
                }
            ],
            "name": "userInfo",
            "outputs": [
                {
                    "internalType": "uint256",
                    "name": "amount",
                    "type": "uint256"
                },
                {
                    "internalType": "uint256",
                    "name": "rewardDebt",
                    "type": "uint256"
                },
                {
                    "internalType": "uint256",
                    "name": "rewardDebtAtTime",
                    "type": "uint256"
                },
                {
                    "internalType": "uint256",
                    "name": "lastWithdrawTime",
                    "type": "uint256"
                },
                {
                    "internalType": "uint256",
                    "name": "firstDepositTime",
                    "type": "uint256"
                },
                {
                    "internalType": "uint256",
                    "name": "timeDelta",
                    "type": "uint256"
                },
                {
                    "internalType": "uint256",
                    "name": "lastDepositTime",
                    "type": "uint256"
                }
            ],
            "stateMutability": "view",
            "type": "function"
        },
        {
            "inputs": [],
            "name": "weight",
            "outputs": [
                {
                    "internalType": "uint256",
                    "name": "",
                    "type": "uint256"
                }
            ],
            "stateMutability": "view",
            "type": "function"
        },
        {
            "inputs": [
                {
                    "internalType": "uint256",
                    "name": "pid",
                    "type": "uint256"
                },
                {
                    "internalType": "uint256",
                    "name": "amount",
                    "type": "uint256"
                }
            ],
            "name": "withdraw",
            "outputs": [],
            "stateMutability": "nonpayable",
            "type": "function"
        }
    ],
    "bytecode": "60806040526001600e553480156200001657600080fd5b506200002b6200002562000102565b62000106565b6001805460ff60a01b1916815560025560078054336001600160a01b0319918216811792839055600880549092161790557f36d5d8406f8379c6deba01145ec4f6a2966675cc67d71355b397a2a8e3572b296016557f0811b25c145e1379dc78112dd91057f09150f6db05dfd7e04deb910e6cefd4b7601755620000bd9060009081906001600160a01b031662000158565b50601654600754620000db919081906001600160a01b031662000158565b50601754601654600854620000fb9291906001600160a01b031662000158565b50620002a9565b3390565b600180546001600160a01b038381166001600160a01b0319831681179093556040519116919082907f8be0079c531659141344cd1fd0a4f28419497f9722a3daafe3b4186f6b6457e090600090a35050565b60006200016684836200017c565b6200017284846200018c565b5060019392505050565b620001888282620001e1565b5050565b600062000199836200026b565b600084815260208190526040808220600101859055519192508391839186917fbd79b86ffe0ab8e8776151514217cd7cacd52c909f66475c3af44e129f0b00ff9190a4505050565b620001ed828262000280565b62000188576000828152602081815260408083206001600160a01b03851684529091529020805460ff191660011790556200022762000102565b6001600160a01b0316816001600160a01b0316837f2f8788117e7eff1d82e926ec794901d17c78024a50270940304540a733656f0d60405160405180910390a45050565b60009081526020819052604090206001015490565b6000918252602082815260408084206001600160a01b0393909316845291905290205460ff1690565b61349280620002b96000396000f3fe608060405234801561001057600080fd5b50600436106103785760003560e01c8063815b7a8c116101d3578063d2aaef4e11610104578063ea4bf446116100a2578063f2fde38b1161007c578063f2fde38b146106c7578063fb60dc18146106da578063fc90fdc0146106ed578063fd6f99d0146106f557610378565b8063ea4bf44614610699578063ec3df6ad146106a1578063edbf4ac2146106b457610378565b8063dbaef9b0116100de578063dbaef9b01461064d578063e13e8ec214610660578063e2bbb15814610673578063e7aa29e31461068657610378565b8063d2aaef4e14610614578063d547741f14610627578063da755b4b1461063a57610378565b806396c82e5711610171578063a8b973a11161014b578063a8b973a1146105d3578063b801dc76146105db578063bfafcad5146105ee578063cf94ee961461060157610378565b806396c82e57146105bb578063a1aab33f146105c3578063a217fddf146105cb57610378565b80638da5cb5b116101ad5780638da5cb5b146105675780638dbb1e3a1461056f57806391d148541461058257806393f1a40b1461059557610378565b8063815b7a8c1461054457806382386d581461054c57806385f2aef21461055f57610378565b8063441a3e70116102ad578063630b5ba11161024b57806378e979251161022557806378e97925146105195780637abceffd146105215780637cd07e47146105345780637d500ec81461053c57610378565b8063630b5ba1146104f657806364482f79146104fe578063715018a61461051157610378565b806351eb05a61161028757806351eb05a6146104c05780635c975abb146104d35780635f9bf689146104db5780635ffe6146146104e357610378565b8063441a3e7014610492578063454b0608146104a55780634ca01d45146104b857610378565b806323cf31181161031a57806336568abe116102f457806336568abe1461044f578063392e53cd1461046257806341441d3b1461046a5780634162169f1461047d57610378565b806323cf311814610416578063248a9ca3146104295780632f2ff15d1461043c57610378565b80631058d281116103565780631058d281146103ce5780631254f0dc146103e35780631526fe27146103eb57806317caf6f11461040e57610378565b806301ffc9a71461037d578063081e3eda146103a657806309ae4d2c146103bb575b600080fd5b61039061038b366004612c70565b6106fd565b60405161039d9190612eac565b60405180910390f35b6103ae61072a565b60405161039d9190612eb7565b6103ae6103c9366004612c34565b610730565b6103e16103dc366004612c34565b610781565b005b6103ae6109fd565b6103fe6103f9366004612c34565b610a03565b60405161039d9493929190612ec0565b6103ae610a47565b6103e1610424366004612b63565b610a4d565b6103ae610437366004612c34565b610aa6565b6103e161044a366004612c4c565b610abb565b6103e161045d366004612c4c565b610adf565b610390610b25565b6103e1610478366004612c34565b610b2e565b610485610da7565b60405161039d9190612e07565b6103e16104a0366004612d44565b610db6565b6103e16104b3366004612c34565b61104d565b610485611337565b6103e16104ce366004612c34565b611346565b610390611641565b6103ae611651565b6103e16104f1366004612c34565b611657565b6103e161166c565b6103e161050c366004612d65565b611693565b6103e16117cf565b6103ae61181a565b6103e161052f366004612d03565b611820565b61048561186b565b6103ae61187a565b610485611880565b6103e161055a366004612ccc565b61188f565b6104856118c8565b6104856118d7565b6103ae61057d366004612d44565b6118e6565b610390610590366004612c4c565b611907565b6105a86105a3366004612c4c565b611930565b60405161039d9796959493929190613327565b6103ae61197f565b6103ae611985565b6103ae61198b565b6103ae611990565b6103ae6105e9366004612c34565b611996565b6103ae6105fc366004612c4c565b6119f4565b6103ae61060f366004612c34565b611b85565b6103ae610622366004612c34565b611b99565b6103e1610635366004612c4c565b611c13565b6103ae610648366004612c34565b611c32565b61039061065b366004612c34565b611c88565b6103e161066e366004612b7f565b611c94565b6103e1610681366004612d44565b611d5c565b6103e1610694366004612b7f565b611fb8565b6103ae612070565b6103e16106af366004612c34565b612076565b6103e16106c2366004612bb7565b612187565b6103e16106d5366004612b63565b6123e2565b6103ae6106e8366004612c34565b612453565b6103ae612466565b6103ae61246c565b60006001600160e01b03198216637965db0b60e01b1480610722575061072282612472565b90505b919050565b60145490565b6000818152601560209081526040808320338452909152812060038101541561076f57600081600301544361076591906133ae565b9250610725915050565b600081600401544361076591906133ae565b6002805414156107ac5760405162461bcd60e51b81526004016107a390613201565b60405180910390fd5b60028081905550600060146000815481106107d757634e487b7160e01b600052603260045260246000fd5b600091825260208083203384527fa31547ce6245cdb9ecea19cf8c7eb9f5974025bb4075011409251ae855b30aed90915260409092208054600490920290920192508311156108385760405162461bcd60e51b81526004016107a390613181565b6108426000611346565b6000816001015464e8d4a5100084600301548460000154610863919061338f565b61086d919061336f565b61087791906133ae565b9050801561088957610889338261248b565b831561092357815461089c9085906133ae565b8255825460405163a9059cbb60e01b81526001600160a01b039091169063a9059cbb906108cf9033908890600401612e93565b602060405180830381600087803b1580156108e957600080fd5b505af11580156108fd573d6000803e3d6000fd5b505050506040513d601f19601f820116820180604052508101906109219190612c18565b505b6003830154825464e8d4a510009161093a9161338f565b610944919061336f565b6001830155600654604051632770a7eb60e21b81526001600160a01b0390911690639dc29fac9061097b9033908890600401612e93565b600060405180830381600087803b15801561099557600080fd5b505af11580156109a9573d6000803e3d6000fd5b505050506000336001600160a01b03167f02f25270a4d87bea75db541cdfe559334a275b4a233520ed6c0a2429667cca9486426040516109ea9291906132f5565b60405180910390a3505060016002555050565b60135481565b60148181548110610a1357600080fd5b600091825260209091206004909102018054600182015460028301546003909301546001600160a01b039092169350919084565b60105481565b60115460ff16610a6f5760405162461bcd60e51b81526004016107a3906132be565b601654610a8381610a7e6124f3565b6124f7565b50600980546001600160a01b0319166001600160a01b0392909216919091179055565b60009081526020819052604090206001015490565b610ac482610aa6565b610ad081610a7e6124f3565b610ada838361255b565b505050565b610ae76124f3565b6001600160a01b0316816001600160a01b031614610b175760405162461bcd60e51b81526004016107a390613238565b610b2182826125e0565b5050565b60115460ff1681565b600280541415610b505760405162461bcd60e51b81526004016107a390613201565b60028055610b5c611641565b15610b795760405162461bcd60e51b81526004016107a390612f94565b60006014600081548110610b9d57634e487b7160e01b600052603260045260246000fd5b600091825260208083203384527fa31547ce6245cdb9ecea19cf8c7eb9f5974025bb4075011409251ae855b30aed90915260408320600490920201925090610be490611346565b805415610c34576000816001015464e8d4a5100084600301548460000154610c0c919061338f565b610c16919061336f565b610c2091906133ae565b90508015610c3257610c32338261248b565b505b8215610cd05781546040516323b872dd60e01b81526001600160a01b03909116906323b872dd90610c6d90339030908890600401612e6f565b602060405180830381600087803b158015610c8757600080fd5b505af1158015610c9b573d6000803e3d6000fd5b505050506040513d601f19601f82011682018060405250810190610cbf9190612c18565b508054610ccd908490613357565b81555b6003820154815464e8d4a5100091610ce79161338f565b610cf1919061336f565b60018201556006546040516340c10f1960e01b81526001600160a01b03909116906340c10f1990610d289033908790600401612e93565b600060405180830381600087803b158015610d4257600080fd5b505af1158015610d56573d6000803e3d6000fd5b505050506000336001600160a01b03167f90890809c654f11d6e72a28fa60149770a0d11ec6c92319d6ceb2bb0a4ea1a1585604051610d959190612eb7565b60405180910390a35050600160025550565b6008546001600160a01b031681565b600280541415610dd85760405162461bcd60e51b81526004016107a390613201565b6002805560145482908110610dff5760405162461bcd60e51b81526004016107a39061311d565b82610e1c5760405162461bcd60e51b81526004016107a390613014565b600060148481548110610e3f57634e487b7160e01b600052603260045260246000fd5b600091825260208083208784526015825260408085203386529092529220805460049092029092019250841115610e885760405162461bcd60e51b81526004016107a3906131ad565b610e9185611346565b6000816001015464e8d4a5100084600301548460000154610eb2919061338f565b610ebc919061336f565b610ec691906133ae565b90508015610ed857610ed8338261248b565b8415610fd557600682015415610f01576006820154610ef790426133ae565b6005830155610f16565b6004820154610f1090426133ae565b60058301555b8154610f239086906133ae565b82556000610f3087611b99565b90506000610f3e828861338f565b90506000610f4c82896133ae565b865460405163a9059cbb60e01b81529192506001600160a01b03169063a9059cbb90610f7e9033908590600401612e93565b602060405180830381600087803b158015610f9857600080fd5b505af1158015610fac573d6000803e3d6000fd5b505050506040513d601f19601f82011682018060405250810190610fd09190612c18565b505050505b6003830154825464e8d4a5100091610fec9161338f565b610ff6919061336f565b60018301554260038301819055604051879133917f02f25270a4d87bea75db541cdfe559334a275b4a233520ed6c0a2429667cca9491611038918a91906132f5565b60405180910390a35050600160025550505050565b60115460ff1661106f5760405162461bcd60e51b81526004016107a3906132be565b601454819081106110925760405162461bcd60e51b81526004016107a39061311d565b6009546001600160a01b03166110ba5760405162461bcd60e51b81526004016107a390612feb565b6000601483815481106110dd57634e487b7160e01b600052603260045260246000fd5b60009182526020822060049182020180546040516370a0823160e01b81529194506001600160a01b0316929183916370a082319161111d91309101612e07565b60206040518083038186803b15801561113557600080fd5b505afa158015611149573d6000803e3d6000fd5b505050506040513d601f19601f8201168201806040525081019061116d9190612cb4565b60095460405163095ea7b360e01b81529192506001600160a01b038085169263095ea7b3926111a29216908590600401612e93565b602060405180830381600087803b1580156111bc57600080fd5b505af11580156111d0573d6000803e3d6000fd5b505050506040513d601f19601f820116820180604052508101906111f49190612c18565b5060095460405163ce5494bb60e01b81526000916001600160a01b03169063ce5494bb90611226908690600401612e07565b602060405180830381600087803b15801561124057600080fd5b505af1158015611254573d6000803e3d6000fd5b505050506040513d601f19601f820116820180604052508101906112789190612c98565b6040516370a0823160e01b81529091506001600160a01b038216906370a08231906112a7903090600401612e07565b60206040518083038186803b1580156112bf57600080fd5b505afa1580156112d3573d6000803e3d6000fd5b505050506040513d601f19601f820116820180604052508101906112f79190612cb4565b82146113155760405162461bcd60e51b81526004016107a390613287565b83546001600160a01b0319166001600160a01b03919091161790925550505050565b6006546001600160a01b031681565b601454819081106113695760405162461bcd60e51b81526004016107a39061311d565b60006014838154811061138c57634e487b7160e01b600052603260045260246000fd5b90600052602060002090600402019050806002015442116113ad5750610b21565b80546040516370a0823160e01b81526000916001600160a01b0316906370a08231906113dd903090600401612e07565b60206040518083038186803b1580156113f557600080fd5b505afa158015611409573d6000803e3d6000fd5b505050506040513d601f19601f8201168201806040525081019061142d9190612cb4565b905080611441575042600290910155610b21565b60006114518360020154426118e6565b905060006010548460010154600d548461146b919061338f565b611475919061338f565b61147f919061336f565b90506000650746a52880006114998364e8d4a5100061338f565b6114a3919061336f565b905060006114b282600261338f565b905060006114c082856133ae565b600480546007546040516340c10f1960e01b81529394506001600160a01b03918216936340c10f19936114f99390921691889101612e93565b600060405180830381600087803b15801561151357600080fd5b505af1158015611527573d6000803e3d6000fd5b5050600480546008546040516340c10f1960e01b81526001600160a01b0392831695506340c10f199450611562939190921691889101612e93565b600060405180830381600087803b15801561157c57600080fd5b505af1158015611590573d6000803e3d6000fd5b5050600480546006546040516340c10f1960e01b81526001600160a01b0392831695506340c10f1994506115cb939190921691869101612e93565b600060405180830381600087803b1580156115e557600080fd5b505af11580156115f9573d6000803e3d6000fd5b50505050858464e8d4a5100061160f919061338f565b611619919061336f565b87600301546116289190613357565b6003880155505042600290950194909455505050505050565b600154600160a01b900460ff1690565b600d5481565b60175461166681610a7e6124f3565b50600e55565b60145460005b81811015610b215761168381611346565b61168c81613408565b9050611672565b60115460ff166116b55760405162461bcd60e51b81526004016107a3906132be565b601454839081106116d85760405162461bcd60e51b81526004016107a39061311d565b6017546116e781610a7e6124f3565b82156116f5576116f561166c565b60006014868154811061171857634e487b7160e01b600052603260045260246000fd5b9060005260206000209060040201600101549050846014878154811061174e57634e487b7160e01b600052603260045260246000fd5b90600052602060002090600402016001018190555084811461178e57848160105461177991906133ae565b6117839190613357565b60105561178e612663565b7fd88f859573973e938da5bf3e5100c16eee2090fa720e05ae3d452b4cd05cdcfd86866040516117bf9291906132f5565b60405180910390a1505050505050565b6117d76124f3565b6001600160a01b03166117e86118d7565b6001600160a01b03161461180e5760405162461bcd60e51b81526004016107a390613082565b6118186000612765565b565b600f5481565b60115460ff166118425760405162461bcd60e51b81526004016107a3906132be565b60165461185181610a7e6124f3565b61185a836127b7565b611865848484612838565b50505050565b6009546001600160a01b031681565b600c5481565b6004546001600160a01b031681565b60175461189e81610a7e6124f3565b5060009283526015602090815260408085206001600160a01b039094168552929052912060040155565b6007546001600160a01b031681565b6001546001600160a01b031690565b600e546000906118f684846133ae565b611900919061338f565b9392505050565b6000918252602082815260408084206001600160a01b0393909316845291905290205460ff1690565b6015602052816000526040600020602052806000526040600020600091509150508060000154908060010154908060020154908060030154908060040154908060050154908060060154905087565b600a5481565b600b5481565b600081565b600e5481565b6000806201518083106119b5576119b0620151808461336f565b6119b8565b60005b90506000601254826119ca919061338f565b90506013548110156119e957806013546119e491906133ae565b6119ec565b60005b949350505050565b60008060148481548110611a1857634e487b7160e01b600052603260045260246000fd5b600091825260208083208784526015825260408085206001600160a01b038981168752935280852060049485029092016003810154815492516370a0823160e01b815291975092959294929391909116916370a0823191611a7b91309101612e07565b60206040518083038186803b158015611a9357600080fd5b505afa158015611aa7573d6000803e3d6000fd5b505050506040513d601f19601f82011682018060405250810190611acb9190612cb4565b9050836002015442118015611adf57508015155b15611b4d576000611af48560020154426118e6565b905060006010548660010154600d5484611b0e919061338f565b611b18919061338f565b611b22919061336f565b905082611b348264e8d4a5100061338f565b611b3e919061336f565b611b489085613357565b935050505b6001830154835464e8d4a5100090611b6690859061338f565b611b70919061336f565b611b7a91906133ae565b979650505050505050565b600061072282670de0b6b3a764000061338f565b600081815260156020908152604080832033845290915281206005015481620151808210611bd357611bce620151808361336f565b611bd6565b60005b9050600060125482611be8919061338f565b9050601354811015611c075780601354611c0291906133ae565b611c0a565b60005b95945050505050565b611c1c82610aa6565b611c2881610a7e6124f3565b610ada83836125e0565b600081815260156020908152604080832033845290915281206005015480611c5e576000915050610725565b6000611c6d620151808361336f565b90506000611c7e826201518061338f565b611c0a90846133ae565b60006107228233611907565b601654611ca381610a7e6124f3565b6008546001600160a01b038481169116141580611cce57506007546001600160a01b03838116911614155b611cea5760405162461bcd60e51b81526004016107a3906130ee565b600880546001600160a01b038086166001600160a01b0319928316179283905560078054868316931692909217918290556040517fd1c04282701cbf58aa2f0026f6876051cf3feb8ee7b8b5b5532ebb4ab03fb5d493611d4f93908316921690612e1b565b60405180910390a1505050565b600280541415611d7e5760405162461bcd60e51b81526004016107a390613201565b6002805560145482908110611da55760405162461bcd60e51b81526004016107a39061311d565b611dad611641565b15611dca5760405162461bcd60e51b81526004016107a390612f94565b82611de75760405162461bcd60e51b81526004016107a39061304b565b600060148481548110611e0a57634e487b7160e01b600052603260045260246000fd5b60009182526020808320878452601582526040808520338652909252922060049091029091019150611e3b85611346565b805415611e8b576000816001015464e8d4a5100084600301548460000154611e63919061338f565b611e6d919061336f565b611e7791906133ae565b90508015611e8957611e89338261248b565b505b8315611f275781546040516323b872dd60e01b81526001600160a01b03909116906323b872dd90611ec490339030908990600401612e6f565b602060405180830381600087803b158015611ede57600080fd5b505af1158015611ef2573d6000803e3d6000fd5b505050506040513d601f19601f82011682018060405250810190611f169190612c18565b508054611f24908590613357565b81555b6003820154815464e8d4a5100091611f3e9161338f565b611f48919061336f565b60018201556004810154611f63574281600401819055611f69565b60048101545b5084336001600160a01b03167f90890809c654f11d6e72a28fa60149770a0d11ec6c92319d6ceb2bb0a4ea1a1586604051611fa49190612eb7565b60405180910390a350506001600255505050565b601654611fc781610a7e6124f3565b6004546001600160a01b038481169116141580611ff257506006546001600160a01b03838116911614155b61200e5760405162461bcd60e51b81526004016107a3906130b7565b600480546001600160a01b038086166001600160a01b03199283161790925560068054928516929091169190911790556040517fdcc6331013de89f8c595d5328f0a724194f113cb6f8f2a707b3dff6de13f0d1790611d4f9085908590612e1b565b60165481565b60115460ff166120985760405162461bcd60e51b81526004016107a3906132be565b6017546120a781610a7e6124f3565b81600b5414156120c95760405162461bcd60e51b81526004016107a39061314a565b81600b5410156120fe576000600b54836120e391906133ae565b905080600a60008282546120f79190613357565b9091555050505b81600b54111561213357600082600b5461211891906133ae565b905080600a600082825461212c91906133ae565b9091555050505b600b829055600a54612146908390612945565b7fb298bc23e07860d501fddce288f46d761aa04a0c7c3316099eb50f097aacf304600b54600a5460405161217b9291906132f5565b60405180910390a15050565b60165461219681610a7e6124f3565b60115460ff16156121b95760405162461bcd60e51b81526004016107a390612fbe565b600380546001600160a01b03808b166001600160a01b03199283161790925560058054928a169290911691909117905542600f556121f78587613357565b600a55600b85905561220883611b85565b60135561221482612453565b601255600354600480546001600160a01b039283166001600160a01b03199182161790915560055460068054919093169116179055600b54600a54859161225a91612945565b60408051608081018252600480546001600160a01b03908116835260208301858152600f54948401948552600060608501818152601480546001808201835591845296517fce6d7b5282bd9a3661ae061feed1dbda4e52ab073b1f9285be6e155d9c38d4ec9790960296870180546001600160a01b031916969095169590951790935590517fce6d7b5282bd9a3661ae061feed1dbda4e52ab073b1f9285be6e155d9c38d4ed85015593517fce6d7b5282bd9a3661ae061feed1dbda4e52ab073b1f9285be6e155d9c38d4ee840155517fce6d7b5282bd9a3661ae061feed1dbda4e52ab073b1f9285be6e155d9c38d4ef909201919091556011805460ff1916909117905560108054839290612371908490613357565b9091555050600754600854600354600554601054600b546040517f0476c5e4920930815a67a5a042e26836431f494d3be0f6e10c3034787a7a15f9966123cf966001600160a01b039182169690821695908216949116929091612e35565b60405180910390a1505050505050505050565b6123ea6124f3565b6001600160a01b03166123fb6118d7565b6001600160a01b0316146124215760405162461bcd60e51b81526004016107a390613082565b6001600160a01b0381166124475760405162461bcd60e51b81526004016107a390612f4e565b61245081612765565b50565b600061072282662386f26fc1000061338f565b60125481565b60175481565b6001600160e01b031981166301ffc9a760e01b14919050565b600654604051635950a15560e11b81526001600160a01b039091169063b2a142aa906124bd9085908590600401612e93565b600060405180830381600087803b1580156124d757600080fd5b505af11580156124eb573d6000803e3d6000fd5b505050505050565b3390565b6125018282611907565b610b2157612519816001600160a01b031660146129b1565b6125248360206129b1565b604051602001612535929190612d92565b60408051601f198184030181529082905262461bcd60e51b82526107a391600401612ee6565b6125658282611907565b610b21576000828152602081815260408083206001600160a01b03851684529091529020805460ff1916600117905561259c6124f3565b6001600160a01b0316816001600160a01b0316837f2f8788117e7eff1d82e926ec794901d17c78024a50270940304540a733656f0d60405160405180910390a45050565b6125ea8282611907565b15610b21576000828152602081815260408083206001600160a01b03851684529091529020805460ff1916905561261f6124f3565b6001600160a01b0316816001600160a01b0316837ff6391f5c32d9c69d2a47ea670b442974b53935d1edc7fd64eb21e047a839171b60405160405180910390a45050565b601454600060015b828110156126c3576014818154811061269457634e487b7160e01b600052603260045260246000fd5b906000526020600020906004020160010154826126b19190613357565b91506126bc81613408565b905061266b565b508015610b21576126d560038261336f565b90508060146000815481106126fa57634e487b7160e01b600052603260045260246000fd5b90600052602060002090600402016001015460105461271991906133ae565b6127239190613357565b60108190555080601460008154811061274c57634e487b7160e01b600052603260045260246000fd5b9060005260206000209060040201600101819055505050565b600180546001600160a01b038381166001600160a01b0319831681179093556040519116919082907f8be0079c531659141344cd1fd0a4f28419497f9722a3daafe3b4186f6b6457e090600090a35050565b60145460005b81811015610ada57826001600160a01b0316601482815481106127f057634e487b7160e01b600052603260045260246000fd5b60009182526020909120600490910201546001600160a01b031614156128285760405162461bcd60e51b81526004016107a3906131d8565b61283181613408565b90506127bd565b80156128465761284661166c565b82601060008282546128589190613357565b9250508190555060146040518060800160405280846001600160a01b03168152602001858152602001600f54421161289257600f54612894565b425b81526000602091820181905283546001808201865594825290829020835160049092020180546001600160a01b0319166001600160a01b03909216919091178155908201519281019290925560408101516002830155606001516003909101556128fc612663565b6014546010546040517f20b669aa921947a6d9602a921d2db3b6b30f21b9aca98580fa3972530330b27a916129379184918891889190613303565b60405180910390a150505050565b6000612951828461336f565b9050612967816934f086f3b33b6840000061338f565b600c81905561297a90620151809061336f565b600d819055600c546040517fcd7c861d63893659123f817b192b8621ff1923a7c4589c260173cedcf9e986a692611d4f92916132f5565b606060006129c083600261338f565b6129cb906002613357565b67ffffffffffffffff8111156129f157634e487b7160e01b600052604160045260246000fd5b6040519080825280601f01601f191660200182016040528015612a1b576020820181803683370190505b509050600360fc1b81600081518110612a4457634e487b7160e01b600052603260045260246000fd5b60200101906001600160f81b031916908160001a905350600f60fb1b81600181518110612a8157634e487b7160e01b600052603260045260246000fd5b60200101906001600160f81b031916908160001a9053506000612aa584600261338f565b612ab0906001613357565b90505b6001811115612b44576f181899199a1a9b1b9c1cb0b131b232b360811b85600f1660108110612af257634e487b7160e01b600052603260045260246000fd5b1a60f81b828281518110612b1657634e487b7160e01b600052603260045260246000fd5b60200101906001600160f81b031916908160001a90535060049490941c93612b3d816133f1565b9050612ab3565b5083156119005760405162461bcd60e51b81526004016107a390612f19565b600060208284031215612b74578081fd5b813561190081613439565b60008060408385031215612b91578081fd5b8235612b9c81613439565b91506020830135612bac81613439565b809150509250929050565b600080600080600080600060e0888a031215612bd1578283fd5b8735612bdc81613439565b96506020880135612bec81613439565b96999698505050506040850135946060810135946080820135945060a0820135935060c0909101359150565b600060208284031215612c29578081fd5b81516119008161344e565b600060208284031215612c45578081fd5b5035919050565b60008060408385031215612c5e578182fd5b823591506020830135612bac81613439565b600060208284031215612c81578081fd5b81356001600160e01b031981168114611900578182fd5b600060208284031215612ca9578081fd5b815161190081613439565b600060208284031215612cc5578081fd5b5051919050565b600080600060608486031215612ce0578283fd5b833592506020840135612cf281613439565b929592945050506040919091013590565b600080600060608486031215612d17578283fd5b833592506020840135612d2981613439565b91506040840135612d398161344e565b809150509250925092565b60008060408385031215612d56578182fd5b50508035926020909101359150565b600080600060608486031215612d79578081fd5b83359250602084013591506040840135612d398161344e565b60007f416363657373436f6e74726f6c3a206163636f756e742000000000000000000082528351612dca8160178501602088016133c5565b7001034b99036b4b9b9b4b733903937b6329607d1b6017918401918201528351612dfb8160288401602088016133c5565b01602801949350505050565b6001600160a01b0391909116815260200190565b6001600160a01b0392831681529116602082015260400190565b6001600160a01b0396871681529486166020860152928516604085015293166060830152608082019290925260a081019190915260c00190565b6001600160a01b039384168152919092166020820152604081019190915260600190565b6001600160a01b03929092168252602082015260400190565b901515815260200190565b90815260200190565b6001600160a01b0394909416845260208401929092526040830152606082015260800190565b6000602082528251806020840152612f058160408501602087016133c5565b601f01601f19169190910160400192915050565b6020808252818101527f537472696e67733a20686578206c656e67746820696e73756666696369656e74604082015260600190565b60208082526026908201527f4f776e61626c653a206e6577206f776e657220697320746865207a65726f206160408201526564647265737360d01b606082015260800190565b60208082526010908201526f14185d5cd8589b194e881c185d5cd95960821b604082015260600190565b602080825260139082015272185b1c9958591e481a5b9a5d1a585b1a5e9959606a1b604082015260600190565b6020808252600f908201526e1b9bc81b5a59dc985d1bdc881cd95d608a1b604082015260600190565b6020808252601a908201527f776974686472617720534f554c20627920756e7374616b696e67000000000000604082015260600190565b60208082526017908201527f6465706f73697420534f554c206279207374616b696e67000000000000000000604082015260600190565b6020808252818101527f4f776e61626c653a2063616c6c6572206973206e6f7420746865206f776e6572604082015260600190565b6020808252601b908201527f6d7573742062652061206e657720746f6b656e20616464726573730000000000604082015260600190565b6020808252601590820152741b5d5cdd0818994818481b995dc81858d8dbdd5b9d605a1b604082015260600190565b6020808252601390820152721c1bdbdb08191bd95cc81b9bdd08195e1a5cdd606a1b604082015260600190565b60208082526018908201527f6d757374206265206e6577207765696768742076616c75650000000000000000604082015260600190565b6020808252601290820152711dda5d1a191c985dce881b9bdd0819dbdbd960721b604082015260600190565b6020808252601190820152701dda5d1a191c985dc81b9bdd0819dbdbd9607a1b604082015260600190565b6020808252600f908201526e191d5c1b1a58d85d1959081c1bdbdb608a1b604082015260600190565b6020808252601f908201527f5265656e7472616e637947756172643a207265656e7472616e742063616c6c00604082015260600190565b6020808252602f908201527f416363657373436f6e74726f6c3a2063616e206f6e6c792072656e6f756e636560408201526e103937b632b9903337b91039b2b63360891b606082015260800190565b6020808252601d908201527f6d6967726174653a20696e73756666696369656e742062616c616e6365000000604082015260600190565b6020808252601a908201527f726577617264732068617665206e6f742079657420626567756e000000000000604082015260600190565b918252602082015260400190565b93845260208401929092526001600160a01b03166040830152606082015260800190565b968752602087019590955260408601939093526060850191909152608084015260a083015260c082015260e00190565b6000821982111561336a5761336a613423565b500190565b60008261338a57634e487b7160e01b81526012600452602481fd5b500490565b60008160001904831182151516156133a9576133a9613423565b500290565b6000828210156133c0576133c0613423565b500390565b60005b838110156133e05781810151838201526020016133c8565b838111156118655750506000910152565b60008161340057613400613423565b506000190190565b600060001982141561341c5761341c613423565b5060010190565b634e487b7160e01b600052601160045260246000fd5b6001600160a01b038116811461245057600080fd5b801515811461245057600080fdfea26469706673582212202a784a077b449dee139185a796023fb04f51dae03815b2fad2ad57787b77a52564736f6c63430008000033",
    "sourcePath": "/Users/unico/Documents/GitHub/SoulSwap/soulswap-farms/contracts/mocks/MockSoulSummoner.sol",
    "compiler": {
        "name": "solc",
        "version": "0.8.0+commit.c7dfd78e"
    },
    "functionHashes": {
        "DEFAULT_ADMIN_ROLE()": "a217fddf",
        "addPool(uint256,address,bool)": "7abceffd",
        "bonusMultiplier()": "a8b973a1",
        "dailyDecay()": "fc90fdc0",
        "dailySoul()": "7d500ec8",
        "dao()": "4162169f",
        "deposit(uint256,uint256)": "e2bbb158",
        "enWei(uint256)": "cf94ee96",
        "enterStaking(uint256)": "41441d3b",
        "getFeeRate(uint256)": "d2aaef4e",
        "getFeeRateTime(uint256)": "b801dc76",
        "getMultiplier(uint256,uint256)": "8dbb1e3a",
        "getRoleAdmin(bytes32)": "248a9ca3",
        "grantRole(bytes32,address)": "2f2ff15d",
        "hasDivineRole(bytes32)": "dbaef9b0",
        "hasRole(bytes32,address)": "91d14854",
        "initialize(address,address,uint256,uint256,uint256,uint256,uint256)": "edbf4ac2",
        "isInitialized()": "392e53cd",
        "isis()": "ea4bf446",
        "leaveStaking(uint256)": "1058d281",
        "maat()": "fd6f99d0",
        "massUpdatePools()": "630b5ba1",
        "migrate(uint256)": "454b0608",
        "migrator()": "7cd07e47",
        "oneHundreth(uint256)": "fb60dc18",
        "owner()": "8da5cb5b",
        "paused()": "5c975abb",
        "pendingSoul(uint256,address)": "bfafcad5",
        "poolInfo(uint256)": "1526fe27",
        "poolLength()": "081e3eda",
        "renounceOwnership()": "715018a6",
        "renounceRole(bytes32,address)": "36568abe",
        "reviseDeposit(uint256,address,uint256)": "82386d58",
        "revokeRole(bytes32,address)": "d547741f",
        "seance()": "4ca01d45",
        "set(uint256,uint256,bool)": "64482f79",
        "setMigrator(address)": "23cf3118",
        "soul()": "815b7a8c",
        "soulPerSecond()": "5f9bf689",
        "startRate()": "1254f0dc",
        "startTime()": "78e97925",
        "supportsInterface(bytes4)": "01ffc9a7",
        "team()": "85f2aef2",
        "timeUntilNextDecrease(uint256)": "da755b4b",
        "totalAllocPoint()": "17caf6f1",
        "totalWeight()": "96c82e57",
        "transferOwnership(address)": "f2fde38b",
        "updateAccounts(address,address)": "e13e8ec2",
        "updateMultiplier(uint256)": "5ffe6146",
        "updatePool(uint256)": "51eb05a6",
        "updateTokens(address,address)": "e7aa29e3",
        "updateWeight(uint256)": "ec3df6ad",
        "userDelta(uint256)": "09ae4d2c",
        "userInfo(uint256,address)": "93f1a40b",
        "weight()": "a1aab33f",
        "withdraw(uint256,uint256)": "441a3e70"
    },
    "gasEstimates": {
        "creation": {
            "codeDepositCost": "2691600",
            "executionCost": "infinite",
            "totalCost": "infinite"
        },
        "external": {
            "DEFAULT_ADMIN_ROLE()": "340",
            "addPool(uint256,address,bool)": "infinite",
            "bonusMultiplier()": "1095",
            "dailyDecay()": "1138",
            "dailySoul()": "1161",
            "dao()": "1204",
            "deposit(uint256,uint256)": "infinite",
            "enWei(uint256)": "541",
            "enterStaking(uint256)": "infinite",
            "getFeeRate(uint256)": "4047",
            "getFeeRateTime(uint256)": "3123",
            "getMultiplier(uint256,uint256)": "1392",
            "getRoleAdmin(bytes32)": "1271",
            "grantRole(bytes32,address)": "infinite",
            "hasDivineRole(bytes32)": "1389",
            "hasRole(bytes32,address)": "1494",
            "initialize(address,address,uint256,uint256,uint256,uint256,uint256)": "infinite",
            "isInitialized()": "1130",
            "isis()": "1095",
            "leaveStaking(uint256)": "infinite",
            "maat()": "1160",
            "massUpdatePools()": "infinite",
            "migrate(uint256)": "infinite",
            "migrator()": "1181",
            "oneHundreth(uint256)": "496",
            "owner()": "1138",
            "paused()": "1147",
            "pendingSoul(uint256,address)": "infinite",
            "poolInfo(uint256)": "4673",
            "poolLength()": "1120",
            "renounceOwnership()": "23619",
            "renounceRole(bytes32,address)": "infinite",
            "reviseDeposit(uint256,address,uint256)": "infinite",
            "revokeRole(bytes32,address)": "infinite",
            "seance()": "1183",
            "set(uint256,uint256,bool)": "infinite",
            "setMigrator(address)": "infinite",
            "soul()": "1139",
            "soulPerSecond()": "1140",
            "startRate()": "1119",
            "startTime()": "1095",
            "supportsInterface(bytes4)": "566",
            "team()": "1183",
            "timeUntilNextDecrease(uint256)": "1620",
            "totalAllocPoint()": "1163",
            "totalWeight()": "1096",
            "transferOwnership(address)": "infinite",
            "updateAccounts(address,address)": "infinite",
            "updateMultiplier(uint256)": "infinite",
            "updatePool(uint256)": "infinite",
            "updateTokens(address,address)": "infinite",
            "updateWeight(uint256)": "infinite",
            "userDelta(uint256)": "2292",
            "userInfo(uint256,address)": "6507",
            "weight()": "1118",
            "withdraw(uint256,uint256)": "infinite"
        },
        "internal": {
            "_addPool(uint256,contract IERC20,bool)": "infinite",
            "_divinationCeremony(bytes32,bytes32,address)": "infinite",
            "checkPoolDuplicate(contract IERC20)": "infinite",
            "safeSoulTransfer(address,uint256)": "infinite",
            "updateRewards(uint256,uint256)": "infinite",
            "updateStakingPool()": "infinite"
        }
    }
}