{
    "contractName": "MockSoulSummoner",
    "abi": [
        {
            "inputs": [],
            "stateMutability": "nonpayable",
            "type": "constructor"
        },
        {
            "anonymous": false,
            "inputs": [
                {
                    "indexed": false,
                    "internalType": "address",
                    "name": "dao",
                    "type": "address"
                },
                {
                    "indexed": false,
                    "internalType": "address",
                    "name": "team",
                    "type": "address"
                }
            ],
            "name": "AccountsUpdated",
            "type": "event"
        },
        {
            "anonymous": false,
            "inputs": [
                {
                    "indexed": true,
                    "internalType": "address",
                    "name": "user",
                    "type": "address"
                },
                {
                    "indexed": true,
                    "internalType": "uint256",
                    "name": "pid",
                    "type": "uint256"
                },
                {
                    "indexed": false,
                    "internalType": "uint256",
                    "name": "amount",
                    "type": "uint256"
                }
            ],
            "name": "Deposit",
            "type": "event"
        },
        {
            "anonymous": false,
            "inputs": [
                {
                    "indexed": false,
                    "internalType": "uint256",
                    "name": "_pid",
                    "type": "uint256"
                },
                {
                    "indexed": false,
                    "internalType": "address",
                    "name": "_user",
                    "type": "address"
                },
                {
                    "indexed": false,
                    "internalType": "uint256",
                    "name": "_time",
                    "type": "uint256"
                }
            ],
            "name": "DepositRevised",
            "type": "event"
        },
        {
            "anonymous": false,
            "inputs": [
                {
                    "indexed": false,
                    "internalType": "address",
                    "name": "team",
                    "type": "address"
                },
                {
                    "indexed": false,
                    "internalType": "address",
                    "name": "dao",
                    "type": "address"
                },
                {
                    "indexed": false,
                    "internalType": "address",
                    "name": "soul",
                    "type": "address"
                },
                {
                    "indexed": false,
                    "internalType": "address",
                    "name": "seance",
                    "type": "address"
                },
                {
                    "indexed": false,
                    "internalType": "uint256",
                    "name": "totalAllocPoint",
                    "type": "uint256"
                },
                {
                    "indexed": false,
                    "internalType": "uint256",
                    "name": "weight",
                    "type": "uint256"
                }
            ],
            "name": "Initialized",
            "type": "event"
        },
        {
            "anonymous": false,
            "inputs": [
                {
                    "indexed": true,
                    "internalType": "address",
                    "name": "previousOwner",
                    "type": "address"
                },
                {
                    "indexed": true,
                    "internalType": "address",
                    "name": "newOwner",
                    "type": "address"
                }
            ],
            "name": "OwnershipTransferred",
            "type": "event"
        },
        {
            "anonymous": false,
            "inputs": [
                {
                    "indexed": false,
                    "internalType": "address",
                    "name": "account",
                    "type": "address"
                }
            ],
            "name": "Paused",
            "type": "event"
        },
        {
            "anonymous": false,
            "inputs": [
                {
                    "indexed": false,
                    "internalType": "uint256",
                    "name": "pid",
                    "type": "uint256"
                },
                {
                    "indexed": false,
                    "internalType": "uint256",
                    "name": "allocPoint",
                    "type": "uint256"
                },
                {
                    "indexed": false,
                    "internalType": "contract IERC20",
                    "name": "lpToken",
                    "type": "address"
                },
                {
                    "indexed": false,
                    "internalType": "uint256",
                    "name": "totalAllocPoint",
                    "type": "uint256"
                }
            ],
            "name": "PoolAdded",
            "type": "event"
        },
        {
            "anonymous": false,
            "inputs": [
                {
                    "indexed": false,
                    "internalType": "uint256",
                    "name": "pid",
                    "type": "uint256"
                },
                {
                    "indexed": false,
                    "internalType": "uint256",
                    "name": "allocPoint",
                    "type": "uint256"
                }
            ],
            "name": "PoolSet",
            "type": "event"
        },
        {
            "anonymous": false,
            "inputs": [
                {
                    "indexed": false,
                    "internalType": "uint256",
                    "name": "dailySoul",
                    "type": "uint256"
                },
                {
                    "indexed": false,
                    "internalType": "uint256",
                    "name": "soulPerSecond",
                    "type": "uint256"
                }
            ],
            "name": "RewardsUpdated",
            "type": "event"
        },
        {
            "anonymous": false,
            "inputs": [
                {
                    "indexed": true,
                    "internalType": "bytes32",
                    "name": "role",
                    "type": "bytes32"
                },
                {
                    "indexed": true,
                    "internalType": "bytes32",
                    "name": "previousAdminRole",
                    "type": "bytes32"
                },
                {
                    "indexed": true,
                    "internalType": "bytes32",
                    "name": "newAdminRole",
                    "type": "bytes32"
                }
            ],
            "name": "RoleAdminChanged",
            "type": "event"
        },
        {
            "anonymous": false,
            "inputs": [
                {
                    "indexed": false,
                    "internalType": "bytes32",
                    "name": "role",
                    "type": "bytes32"
                },
                {
                    "indexed": false,
                    "internalType": "bytes32",
                    "name": "supreme",
                    "type": "bytes32"
                }
            ],
            "name": "RoleDivinated",
            "type": "event"
        },
        {
            "anonymous": false,
            "inputs": [
                {
                    "indexed": true,
                    "internalType": "bytes32",
                    "name": "role",
                    "type": "bytes32"
                },
                {
                    "indexed": true,
                    "internalType": "address",
                    "name": "account",
                    "type": "address"
                },
                {
                    "indexed": true,
                    "internalType": "address",
                    "name": "sender",
                    "type": "address"
                }
            ],
            "name": "RoleGranted",
            "type": "event"
        },
        {
            "anonymous": false,
            "inputs": [
                {
                    "indexed": true,
                    "internalType": "bytes32",
                    "name": "role",
                    "type": "bytes32"
                },
                {
                    "indexed": true,
                    "internalType": "address",
                    "name": "account",
                    "type": "address"
                },
                {
                    "indexed": true,
                    "internalType": "address",
                    "name": "sender",
                    "type": "address"
                }
            ],
            "name": "RoleRevoked",
            "type": "event"
        },
        {
            "anonymous": false,
            "inputs": [
                {
                    "indexed": false,
                    "internalType": "address",
                    "name": "soul",
                    "type": "address"
                },
                {
                    "indexed": false,
                    "internalType": "address",
                    "name": "seance",
                    "type": "address"
                }
            ],
            "name": "TokensUpdated",
            "type": "event"
        },
        {
            "anonymous": false,
            "inputs": [
                {
                    "indexed": false,
                    "internalType": "address",
                    "name": "account",
                    "type": "address"
                }
            ],
            "name": "Unpaused",
            "type": "event"
        },
        {
            "anonymous": false,
            "inputs": [
                {
                    "indexed": false,
                    "internalType": "uint256",
                    "name": "weight",
                    "type": "uint256"
                },
                {
                    "indexed": false,
                    "internalType": "uint256",
                    "name": "totalWeight",
                    "type": "uint256"
                }
            ],
            "name": "WeightUpdated",
            "type": "event"
        },
        {
            "anonymous": false,
            "inputs": [
                {
                    "indexed": true,
                    "internalType": "address",
                    "name": "user",
                    "type": "address"
                },
                {
                    "indexed": true,
                    "internalType": "uint256",
                    "name": "pid",
                    "type": "uint256"
                },
                {
                    "indexed": false,
                    "internalType": "uint256",
                    "name": "amount",
                    "type": "uint256"
                },
                {
                    "indexed": false,
                    "internalType": "uint256",
                    "name": "timeStamp",
                    "type": "uint256"
                }
            ],
            "name": "Withdraw",
            "type": "event"
        },
        {
            "inputs": [],
            "name": "DEFAULT_ADMIN_ROLE",
            "outputs": [
                {
                    "internalType": "bytes32",
                    "name": "",
                    "type": "bytes32"
                }
            ],
            "stateMutability": "view",
            "type": "function"
        },
        {
            "inputs": [
                {
                    "internalType": "uint256",
                    "name": "_allocPoint",
                    "type": "uint256"
                },
                {
                    "internalType": "contract IERC20",
                    "name": "_lpToken",
                    "type": "address"
                },
                {
                    "internalType": "bool",
                    "name": "_withUpdate",
                    "type": "bool"
                }
            ],
            "name": "addPool",
            "outputs": [],
            "stateMutability": "nonpayable",
            "type": "function"
        },
        {
            "inputs": [],
            "name": "bonusMultiplier",
            "outputs": [
                {
                    "internalType": "uint256",
                    "name": "",
                    "type": "uint256"
                }
            ],
            "stateMutability": "view",
            "type": "function"
        },
        {
            "inputs": [],
            "name": "dailyDecay",
            "outputs": [
                {
                    "internalType": "uint256",
                    "name": "",
                    "type": "uint256"
                }
            ],
            "stateMutability": "view",
            "type": "function"
        },
        {
            "inputs": [],
            "name": "dailySoul",
            "outputs": [
                {
                    "internalType": "uint256",
                    "name": "",
                    "type": "uint256"
                }
            ],
            "stateMutability": "view",
            "type": "function"
        },
        {
            "inputs": [],
            "name": "dao",
            "outputs": [
                {
                    "internalType": "address",
                    "name": "",
                    "type": "address"
                }
            ],
            "stateMutability": "view",
            "type": "function"
        },
        {
            "inputs": [
                {
                    "internalType": "uint256",
                    "name": "pid",
                    "type": "uint256"
                },
                {
                    "internalType": "uint256",
                    "name": "amount",
                    "type": "uint256"
                }
            ],
            "name": "deposit",
            "outputs": [],
            "stateMutability": "nonpayable",
            "type": "function"
        },
        {
            "inputs": [
                {
                    "internalType": "uint256",
                    "name": "amount",
                    "type": "uint256"
                }
            ],
            "name": "enWei",
            "outputs": [
                {
                    "internalType": "uint256",
                    "name": "",
                    "type": "uint256"
                }
            ],
            "stateMutability": "pure",
            "type": "function"
        },
        {
            "inputs": [
                {
                    "internalType": "uint256",
                    "name": "amount",
                    "type": "uint256"
                }
            ],
            "name": "enterStaking",
            "outputs": [],
            "stateMutability": "nonpayable",
            "type": "function"
        },
        {
            "inputs": [
                {
                    "internalType": "uint256",
                    "name": "amount",
                    "type": "uint256"
                }
            ],
            "name": "fromWei",
            "outputs": [
                {
                    "internalType": "uint256",
                    "name": "",
                    "type": "uint256"
                }
            ],
            "stateMutability": "pure",
            "type": "function"
        },
        {
            "inputs": [
                {
                    "internalType": "uint256",
                    "name": "pid",
                    "type": "uint256"
                },
                {
                    "internalType": "uint256",
                    "name": "timeDelta",
                    "type": "uint256"
                }
            ],
            "name": "getFeeRate",
            "outputs": [
                {
                    "internalType": "uint256",
                    "name": "feeRate",
                    "type": "uint256"
                }
            ],
            "stateMutability": "view",
            "type": "function"
        },
        {
            "inputs": [
                {
                    "internalType": "uint256",
                    "name": "from",
                    "type": "uint256"
                },
                {
                    "internalType": "uint256",
                    "name": "to",
                    "type": "uint256"
                }
            ],
            "name": "getMultiplier",
            "outputs": [
                {
                    "internalType": "uint256",
                    "name": "",
                    "type": "uint256"
                }
            ],
            "stateMutability": "view",
            "type": "function"
        },
        {
            "inputs": [
                {
                    "internalType": "bytes32",
                    "name": "role",
                    "type": "bytes32"
                }
            ],
            "name": "getRoleAdmin",
            "outputs": [
                {
                    "internalType": "bytes32",
                    "name": "",
                    "type": "bytes32"
                }
            ],
            "stateMutability": "view",
            "type": "function"
        },
        {
            "inputs": [
                {
                    "internalType": "uint256",
                    "name": "pid",
                    "type": "uint256"
                },
                {
                    "internalType": "uint256",
                    "name": "timeDelta",
                    "type": "uint256"
                },
                {
                    "internalType": "uint256",
                    "name": "amount",
                    "type": "uint256"
                }
            ],
            "name": "getWithdrawable",
            "outputs": [
                {
                    "internalType": "uint256",
                    "name": "_feeAmount",
                    "type": "uint256"
                },
                {
                    "internalType": "uint256",
                    "name": "_withdrawable",
                    "type": "uint256"
                }
            ],
            "stateMutability": "view",
            "type": "function"
        },
        {
            "inputs": [
                {
                    "internalType": "bytes32",
                    "name": "role",
                    "type": "bytes32"
                },
                {
                    "internalType": "address",
                    "name": "account",
                    "type": "address"
                }
            ],
            "name": "grantRole",
            "outputs": [],
            "stateMutability": "nonpayable",
            "type": "function"
        },
        {
            "inputs": [
                {
                    "internalType": "bytes32",
                    "name": "role",
                    "type": "bytes32"
                }
            ],
            "name": "hasDivineRole",
            "outputs": [
                {
                    "internalType": "bool",
                    "name": "",
                    "type": "bool"
                }
            ],
            "stateMutability": "view",
            "type": "function"
        },
        {
            "inputs": [
                {
                    "internalType": "bytes32",
                    "name": "role",
                    "type": "bytes32"
                },
                {
                    "internalType": "address",
                    "name": "account",
                    "type": "address"
                }
            ],
            "name": "hasRole",
            "outputs": [
                {
                    "internalType": "bool",
                    "name": "",
                    "type": "bool"
                }
            ],
            "stateMutability": "view",
            "type": "function"
        },
        {
            "inputs": [
                {
                    "internalType": "address",
                    "name": "_soulAddress",
                    "type": "address"
                },
                {
                    "internalType": "address",
                    "name": "_seanceAddress",
                    "type": "address"
                },
                {
                    "internalType": "uint256",
                    "name": "_totalWeight",
                    "type": "uint256"
                },
                {
                    "internalType": "uint256",
                    "name": "_weight",
                    "type": "uint256"
                },
                {
                    "internalType": "uint256",
                    "name": "_stakingAlloc",
                    "type": "uint256"
                },
                {
                    "internalType": "uint256",
                    "name": "_startRate",
                    "type": "uint256"
                },
                {
                    "internalType": "uint256",
                    "name": "_dailyDecay",
                    "type": "uint256"
                }
            ],
            "name": "initialize",
            "outputs": [],
            "stateMutability": "nonpayable",
            "type": "function"
        },
        {
            "inputs": [],
            "name": "isInitialized",
            "outputs": [
                {
                    "internalType": "bool",
                    "name": "",
                    "type": "bool"
                }
            ],
            "stateMutability": "view",
            "type": "function"
        },
        {
            "inputs": [],
            "name": "isis",
            "outputs": [
                {
                    "internalType": "bytes32",
                    "name": "",
                    "type": "bytes32"
                }
            ],
            "stateMutability": "view",
            "type": "function"
        },
        {
            "inputs": [
                {
                    "internalType": "uint256",
                    "name": "amount",
                    "type": "uint256"
                }
            ],
            "name": "leaveStaking",
            "outputs": [],
            "stateMutability": "nonpayable",
            "type": "function"
        },
        {
            "inputs": [],
            "name": "maat",
            "outputs": [
                {
                    "internalType": "bytes32",
                    "name": "",
                    "type": "bytes32"
                }
            ],
            "stateMutability": "view",
            "type": "function"
        },
        {
            "inputs": [],
            "name": "massUpdatePools",
            "outputs": [],
            "stateMutability": "nonpayable",
            "type": "function"
        },
        {
            "inputs": [
                {
                    "internalType": "uint256",
                    "name": "pid",
                    "type": "uint256"
                }
            ],
            "name": "migrate",
            "outputs": [],
            "stateMutability": "nonpayable",
            "type": "function"
        },
        {
            "inputs": [],
            "name": "migrator",
            "outputs": [
                {
                    "internalType": "contract IMigrator",
                    "name": "",
                    "type": "address"
                }
            ],
            "stateMutability": "view",
            "type": "function"
        },
        {
            "inputs": [],
            "name": "owner",
            "outputs": [
                {
                    "internalType": "address",
                    "name": "",
                    "type": "address"
                }
            ],
            "stateMutability": "view",
            "type": "function"
        },
        {
            "inputs": [],
            "name": "paused",
            "outputs": [
                {
                    "internalType": "bool",
                    "name": "",
                    "type": "bool"
                }
            ],
            "stateMutability": "view",
            "type": "function"
        },
        {
            "inputs": [
                {
                    "internalType": "uint256",
                    "name": "pid",
                    "type": "uint256"
                },
                {
                    "internalType": "address",
                    "name": "_user",
                    "type": "address"
                }
            ],
            "name": "pendingSoul",
            "outputs": [
                {
                    "internalType": "uint256",
                    "name": "pendingAmount",
                    "type": "uint256"
                }
            ],
            "stateMutability": "view",
            "type": "function"
        },
        {
            "inputs": [
                {
                    "internalType": "uint256",
                    "name": "",
                    "type": "uint256"
                }
            ],
            "name": "poolInfo",
            "outputs": [
                {
                    "internalType": "contract IERC20",
                    "name": "lpToken",
                    "type": "address"
                },
                {
                    "internalType": "uint256",
                    "name": "allocPoint",
                    "type": "uint256"
                },
                {
                    "internalType": "uint256",
                    "name": "lastRewardTime",
                    "type": "uint256"
                },
                {
                    "internalType": "uint256",
                    "name": "accSoulPerShare",
                    "type": "uint256"
                }
            ],
            "stateMutability": "view",
            "type": "function"
        },
        {
            "inputs": [],
            "name": "poolLength",
            "outputs": [
                {
                    "internalType": "uint256",
                    "name": "",
                    "type": "uint256"
                }
            ],
            "stateMutability": "view",
            "type": "function"
        },
        {
            "inputs": [],
            "name": "renounceOwnership",
            "outputs": [],
            "stateMutability": "nonpayable",
            "type": "function"
        },
        {
            "inputs": [
                {
                    "internalType": "bytes32",
                    "name": "role",
                    "type": "bytes32"
                },
                {
                    "internalType": "address",
                    "name": "account",
                    "type": "address"
                }
            ],
            "name": "renounceRole",
            "outputs": [],
            "stateMutability": "nonpayable",
            "type": "function"
        },
        {
            "inputs": [
                {
                    "internalType": "uint256",
                    "name": "_pid",
                    "type": "uint256"
                },
                {
                    "internalType": "address",
                    "name": "_user",
                    "type": "address"
                },
                {
                    "internalType": "uint256",
                    "name": "_time",
                    "type": "uint256"
                }
            ],
            "name": "reviseDeposit",
            "outputs": [],
            "stateMutability": "nonpayable",
            "type": "function"
        },
        {
            "inputs": [
                {
                    "internalType": "bytes32",
                    "name": "role",
                    "type": "bytes32"
                },
                {
                    "internalType": "address",
                    "name": "account",
                    "type": "address"
                }
            ],
            "name": "revokeRole",
            "outputs": [],
            "stateMutability": "nonpayable",
            "type": "function"
        },
        {
            "inputs": [],
            "name": "seance",
            "outputs": [
                {
                    "internalType": "contract MockSeanceCircle",
                    "name": "",
                    "type": "address"
                }
            ],
            "stateMutability": "view",
            "type": "function"
        },
        {
            "inputs": [
                {
                    "internalType": "uint256",
                    "name": "pid",
                    "type": "uint256"
                },
                {
                    "internalType": "uint256",
                    "name": "allocPoint",
                    "type": "uint256"
                },
                {
                    "internalType": "bool",
                    "name": "withUpdate",
                    "type": "bool"
                }
            ],
            "name": "set",
            "outputs": [],
            "stateMutability": "nonpayable",
            "type": "function"
        },
        {
            "inputs": [
                {
                    "internalType": "contract IMigrator",
                    "name": "_migrator",
                    "type": "address"
                }
            ],
            "name": "setMigrator",
            "outputs": [],
            "stateMutability": "nonpayable",
            "type": "function"
        },
        {
            "inputs": [],
            "name": "soul",
            "outputs": [
                {
                    "internalType": "contract MockSoulPower",
                    "name": "",
                    "type": "address"
                }
            ],
            "stateMutability": "view",
            "type": "function"
        },
        {
            "inputs": [],
            "name": "soulPerSecond",
            "outputs": [
                {
                    "internalType": "uint256",
                    "name": "",
                    "type": "uint256"
                }
            ],
            "stateMutability": "view",
            "type": "function"
        },
        {
            "inputs": [],
            "name": "startRate",
            "outputs": [
                {
                    "internalType": "uint256",
                    "name": "",
                    "type": "uint256"
                }
            ],
            "stateMutability": "view",
            "type": "function"
        },
        {
            "inputs": [],
            "name": "startTime",
            "outputs": [
                {
                    "internalType": "uint256",
                    "name": "",
                    "type": "uint256"
                }
            ],
            "stateMutability": "view",
            "type": "function"
        },
        {
            "inputs": [
                {
                    "internalType": "bytes4",
                    "name": "interfaceId",
                    "type": "bytes4"
                }
            ],
            "name": "supportsInterface",
            "outputs": [
                {
                    "internalType": "bool",
                    "name": "",
                    "type": "bool"
                }
            ],
            "stateMutability": "view",
            "type": "function"
        },
        {
            "inputs": [],
            "name": "team",
            "outputs": [
                {
                    "internalType": "address",
                    "name": "",
                    "type": "address"
                }
            ],
            "stateMutability": "view",
            "type": "function"
        },
        {
            "inputs": [],
            "name": "totalAllocPoint",
            "outputs": [
                {
                    "internalType": "uint256",
                    "name": "",
                    "type": "uint256"
                }
            ],
            "stateMutability": "view",
            "type": "function"
        },
        {
            "inputs": [],
            "name": "totalWeight",
            "outputs": [
                {
                    "internalType": "uint256",
                    "name": "",
                    "type": "uint256"
                }
            ],
            "stateMutability": "view",
            "type": "function"
        },
        {
            "inputs": [
                {
                    "internalType": "address",
                    "name": "newOwner",
                    "type": "address"
                }
            ],
            "name": "transferOwnership",
            "outputs": [],
            "stateMutability": "nonpayable",
            "type": "function"
        },
        {
            "inputs": [
                {
                    "internalType": "address",
                    "name": "_dao",
                    "type": "address"
                },
                {
                    "internalType": "address",
                    "name": "_team",
                    "type": "address"
                }
            ],
            "name": "updateAccounts",
            "outputs": [],
            "stateMutability": "nonpayable",
            "type": "function"
        },
        {
            "inputs": [
                {
                    "internalType": "uint256",
                    "name": "_bonusMultiplier",
                    "type": "uint256"
                }
            ],
            "name": "updateMultiplier",
            "outputs": [],
            "stateMutability": "nonpayable",
            "type": "function"
        },
        {
            "inputs": [
                {
                    "internalType": "uint256",
                    "name": "pid",
                    "type": "uint256"
                }
            ],
            "name": "updatePool",
            "outputs": [],
            "stateMutability": "nonpayable",
            "type": "function"
        },
        {
            "inputs": [
                {
                    "internalType": "address",
                    "name": "_soul",
                    "type": "address"
                },
                {
                    "internalType": "address",
                    "name": "_seance",
                    "type": "address"
                }
            ],
            "name": "updateTokens",
            "outputs": [],
            "stateMutability": "nonpayable",
            "type": "function"
        },
        {
            "inputs": [
                {
                    "internalType": "uint256",
                    "name": "_weight",
                    "type": "uint256"
                },
                {
                    "internalType": "uint256",
                    "name": "_totalWeight",
                    "type": "uint256"
                }
            ],
            "name": "updateWeights",
            "outputs": [],
            "stateMutability": "nonpayable",
            "type": "function"
        },
        {
            "inputs": [
                {
                    "internalType": "uint256",
                    "name": "_pid",
                    "type": "uint256"
                },
                {
                    "internalType": "address",
                    "name": "_user",
                    "type": "address"
                }
            ],
            "name": "userDelta",
            "outputs": [
                {
                    "internalType": "uint256",
                    "name": "delta",
                    "type": "uint256"
                }
            ],
            "stateMutability": "view",
            "type": "function"
        },
        {
            "inputs": [
                {
                    "internalType": "uint256",
                    "name": "",
                    "type": "uint256"
                },
                {
                    "internalType": "address",
                    "name": "",
                    "type": "address"
                }
            ],
            "name": "userInfo",
            "outputs": [
                {
                    "internalType": "uint256",
                    "name": "amount",
                    "type": "uint256"
                },
                {
                    "internalType": "uint256",
                    "name": "rewardDebt",
                    "type": "uint256"
                },
                {
                    "internalType": "uint256",
                    "name": "rewardDebtAtTime",
                    "type": "uint256"
                },
                {
                    "internalType": "uint256",
                    "name": "lastWithdrawTime",
                    "type": "uint256"
                },
                {
                    "internalType": "uint256",
                    "name": "firstDepositTime",
                    "type": "uint256"
                },
                {
                    "internalType": "uint256",
                    "name": "timeDelta",
                    "type": "uint256"
                },
                {
                    "internalType": "uint256",
                    "name": "lastDepositTime",
                    "type": "uint256"
                }
            ],
            "stateMutability": "view",
            "type": "function"
        },
        {
            "inputs": [],
            "name": "weight",
            "outputs": [
                {
                    "internalType": "uint256",
                    "name": "",
                    "type": "uint256"
                }
            ],
            "stateMutability": "view",
            "type": "function"
        },
        {
            "inputs": [
                {
                    "internalType": "uint256",
                    "name": "pid",
                    "type": "uint256"
                },
                {
                    "internalType": "uint256",
                    "name": "amount",
                    "type": "uint256"
                }
            ],
            "name": "withdraw",
            "outputs": [],
            "stateMutability": "nonpayable",
            "type": "function"
        }
    ],
    "bytecode": "60806040526001600e553480156200001657600080fd5b506200002b6200002562000102565b62000106565b6001805460ff60a01b1916815560025560078054336001600160a01b0319918216811792839055600880549092161790557f36d5d8406f8379c6deba01145ec4f6a2966675cc67d71355b397a2a8e3572b296016557f0811b25c145e1379dc78112dd91057f09150f6db05dfd7e04deb910e6cefd4b7601755620000bd9060009081906001600160a01b031662000158565b50601654600754620000db919081906001600160a01b031662000158565b50601754601654600854620000fb9291906001600160a01b031662000158565b50620002a9565b3390565b600180546001600160a01b038381166001600160a01b0319831681179093556040519116919082907f8be0079c531659141344cd1fd0a4f28419497f9722a3daafe3b4186f6b6457e090600090a35050565b60006200016684836200017c565b6200017284846200018c565b5060019392505050565b620001888282620001e1565b5050565b600062000199836200026b565b600084815260208190526040808220600101859055519192508391839186917fbd79b86ffe0ab8e8776151514217cd7cacd52c909f66475c3af44e129f0b00ff9190a4505050565b620001ed828262000280565b62000188576000828152602081815260408083206001600160a01b03851684529091529020805460ff191660011790556200022762000102565b6001600160a01b0316816001600160a01b0316837f2f8788117e7eff1d82e926ec794901d17c78024a50270940304540a733656f0d60405160405180910390a45050565b60009081526020819052604090206001015490565b6000918252602082815260408084206001600160a01b0393909316845291905290205460ff1690565b61387d80620002b96000396000f3fe608060405234801561001057600080fd5b506004361061035d5760003560e01c80637e668b42116101d3578063cf94ee9611610104578063ea4bf446116100a2578063f2fde38b1161007c578063f2fde38b146106a7578063fb39d1e3146106ba578063fc90fdc0146106cd578063fd6f99d0146106d55761035d565b8063ea4bf44614610679578063edbf4ac214610681578063f107fd85146106945761035d565b8063e13e8ec2116100de578063e13e8ec21461062d578063e2bbb15814610640578063e65d152214610653578063e7aa29e3146106665761035d565b8063cf94ee96146105f4578063d547741f14610607578063dbaef9b01461061a5761035d565b806393f1a40b11610171578063a1aab33f1161014b578063a1aab33f146105c9578063a217fddf146105d1578063a8b973a1146105d9578063bfafcad5146105e15761035d565b806393f1a40b1461058857806396c82e57146105ae5780639f6c5426146105b65761035d565b806385f2aef2116101ad57806385f2aef2146105525780638da5cb5b1461055a5780638dbb1e3a1461056257806391d14854146105755761035d565b80637e668b4214610516578063815b7a8c1461053757806382386d581461053f5761035d565b8063441a3e70116102ad578063630b5ba11161024b57806378e979251161022557806378e97925146104eb5780637abceffd146104f35780637cd07e47146105065780637d500ec81461050e5761035d565b8063630b5ba1146104c857806364482f79146104d0578063715018a6146104e35761035d565b806351eb05a61161028757806351eb05a6146104925780635c975abb146104a55780635f9bf689146104ad5780635ffe6146146104b55761035d565b8063441a3e7014610464578063454b0608146104775780634ca01d451461048a5761035d565b806323cf31181161031a57806336568abe116102f457806336568abe14610421578063392e53cd1461043457806341441d3b1461043c5780634162169f1461044f5761035d565b806323cf3118146103e8578063248a9ca3146103fb5780632f2ff15d1461040e5761035d565b806301ffc9a714610362578063081e3eda1461038b5780631058d281146103a05780631254f0dc146103b55780631526fe27146103bd57806317caf6f1146103e0575b600080fd5b610375610370366004612f5d565b6106dd565b60405161038291906131f0565b60405180910390f35b610393610708565b60405161038291906131fb565b6103b36103ae366004612f21565b61070e565b005b6103936109cf565b6103d06103cb366004612f21565b6109d5565b6040516103829493929190613204565b610393610a19565b6103b36103f6366004612e50565b610a1f565b610393610409366004612f21565b610a78565b6103b361041c366004612f39565b610a8d565b6103b361042f366004612f39565b610ab1565b610375610af7565b6103b361044a366004612f21565b610b00565b610457610dd1565b604051610382919061314b565b6103b3610472366004613031565b610de0565b6103b3610485366004612f21565b611112565b6104576113fc565b6103b36104a0366004612f21565b61140b565b610375611706565b610393611716565b6103b36104c3366004612f21565b61171c565b6103b3611731565b6103b36104de366004613052565b611758565b6103b3611894565b6103936118df565b6103b3610501366004612ff0565b6118e5565b610457611930565b61039361193f565b61052961052436600461307f565b611945565b6040516103829291906136b4565b6104576119f2565b6103b361054d366004612fb9565b611a01565b610457611a7d565b610457611a8c565b610393610570366004613031565b611a9b565b610375610583366004612f39565b611abc565b61059b610596366004612f39565b611ae5565b60405161038297969594939291906136e6565b610393611b34565b6103936105c4366004613031565b611b3a565b610393611bad565b610393611bb3565b610393611bb8565b6103936105ef366004612f39565b611bbe565b610393610602366004612f21565b611d4f565b6103b3610615366004612f39565b611d63565b610375610628366004612f21565b611d82565b6103b361063b366004612e6c565b611d8e565b6103b361064e366004613031565b611e56565b610393610661366004612f21565b6120f4565b6103b3610674366004612e6c565b612108565b6103936121c0565b6103b361068f366004612ea4565b6121c6565b6103b36106a2366004613031565b612421565b6103b36106b5366004612e50565b61250b565b6103936106c8366004612f39565b61257c565b610393612679565b61039361267f565b60006001600160e01b03198216637965db0b60e01b1480610702575061070282612685565b92915050565b60145490565b6002805414156107395760405162461bcd60e51b81526004016107309061356c565b60405180910390fd5b600280819055506000601460008154811061076457634e487b7160e01b600052603260045260246000fd5b600091825260208083203384527fa31547ce6245cdb9ecea19cf8c7eb9f5974025bb4075011409251ae855b30aed90915260409092208054600490920290920192508311156107c55760405162461bcd60e51b8152600401610730906134ec565b6107cf600061140b565b6000816001015464e8d4a51000846003015484600001546107f0919061374e565b6107fa919061372e565b610804919061376d565b9050801561081657610816338261269e565b83156108b057815461082990859061376d565b8255825460405163a9059cbb60e01b81526001600160a01b039091169063a9059cbb9061085c90339088906004016131d7565b602060405180830381600087803b15801561087657600080fd5b505af115801561088a573d6000803e3d6000fd5b505050506040513d601f19601f820116820180604052508101906108ae9190612f05565b505b6003830154825464e8d4a51000916108c79161374e565b6108d1919061372e565b6001830155426003830181905560408051808201909152601881527f6c617374207769746864726177616c2074696d653a2025730000000000000000602082015261091b91612706565b600654604051632770a7eb60e21b81526001600160a01b0390911690639dc29fac9061094d90339088906004016131d7565b600060405180830381600087803b15801561096757600080fd5b505af115801561097b573d6000803e3d6000fd5b505050506000336001600160a01b03167f02f25270a4d87bea75db541cdfe559334a275b4a233520ed6c0a2429667cca9486426040516109bc9291906136b4565b60405180910390a3505060016002555050565b60135481565b601481815481106109e557600080fd5b600091825260209091206004909102018054600182015460028301546003909301546001600160a01b039092169350919084565b60105481565b60115460ff16610a415760405162461bcd60e51b815260040161073090613629565b601654610a5581610a5061274b565b61274f565b50600980546001600160a01b0319166001600160a01b0392909216919091179055565b60009081526020819052604090206001015490565b610a9682610a78565b610aa281610a5061274b565b610aac83836127b3565b505050565b610ab961274b565b6001600160a01b0316816001600160a01b031614610ae95760405162461bcd60e51b8152600401610730906135a3565b610af38282612838565b5050565b60115460ff1681565b600280541415610b225760405162461bcd60e51b81526004016107309061356c565b60028055610b2e611706565b15610b4b5760405162461bcd60e51b815260040161073090613336565b60006014600081548110610b6f57634e487b7160e01b600052603260045260246000fd5b600091825260208083203384527fa31547ce6245cdb9ecea19cf8c7eb9f5974025bb4075011409251ae855b30aed90915260408320600490920201925090610bb69061140b565b805415610c06576000816001015464e8d4a5100084600301548460000154610bde919061374e565b610be8919061372e565b610bf2919061376d565b90508015610c0457610c04338261269e565b505b8215610ca25781546040516323b872dd60e01b81526001600160a01b03909116906323b872dd90610c3f903390309088906004016131b3565b602060405180830381600087803b158015610c5957600080fd5b505af1158015610c6d573d6000803e3d6000fd5b505050506040513d601f19601f82011682018060405250810190610c919190612f05565b508054610c9f908490613716565b81555b6000816004015411610cb45742610cba565b80600401545b600482018190556040805180820190915260198152786669727374206465706f736974206d6164652061743a20257360381b6020820152610cfa91612706565b6003820154815464e8d4a5100091610d119161374e565b610d1b919061372e565b60018201556006546040516340c10f1960e01b81526001600160a01b03909116906340c10f1990610d5290339087906004016131d7565b600060405180830381600087803b158015610d6c57600080fd5b505af1158015610d80573d6000803e3d6000fd5b505050506000336001600160a01b03167f90890809c654f11d6e72a28fa60149770a0d11ec6c92319d6ceb2bb0a4ea1a1585604051610dbf91906131fb565b60405180910390a35050600160025550565b6008546001600160a01b031681565b600280541415610e025760405162461bcd60e51b81526004016107309061356c565b6002805560145482908110610e295760405162461bcd60e51b8152600401610730906134bf565b82610e465760405162461bcd60e51b8152600401610730906133b6565b600060148481548110610e6957634e487b7160e01b600052603260045260246000fd5b600091825260208083208784526015825260408085203386529092529220805460049092029092019250841115610eb25760405162461bcd60e51b815260040161073090613518565b610ebb8561140b565b6000816001015464e8d4a5100084600301548460000154610edc919061374e565b610ee6919061372e565b610ef0919061376d565b90508015610f0257610f02338261269e565b8415610f5057600682015415610f2b576006820154610f21904261376d565b6005830155610f40565b6004820154610f3a904261376d565b60058301555b8154610f4d90869061376d565b82555b600086815260156020908152604080832033845290915281206005015490610f79888389611945565b915060009050610f89828961376d565b865460085460405163a9059cbb60e01b81529293506001600160a01b039182169263a9059cbb92610fc092169085906004016131d7565b602060405180830381600087803b158015610fda57600080fd5b505af1158015610fee573d6000803e3d6000fd5b505050506040513d601f19601f820116820180604052508101906110129190612f05565b50855460405163a9059cbb60e01b81526001600160a01b039091169063a9059cbb9061104490339086906004016131d7565b602060405180830381600087803b15801561105e57600080fd5b505af1158015611072573d6000803e3d6000fd5b505050506040513d601f19601f820116820180604052508101906110969190612f05565b506003860154855464e8d4a51000916110ae9161374e565b6110b8919061372e565b600186015542600386018190556040518a9133917f02f25270a4d87bea75db541cdfe559334a275b4a233520ed6c0a2429667cca94916110fa918d91906136b4565b60405180910390a35050600160025550505050505050565b60115460ff166111345760405162461bcd60e51b815260040161073090613629565b601454819081106111575760405162461bcd60e51b8152600401610730906134bf565b6009546001600160a01b031661117f5760405162461bcd60e51b81526004016107309061338d565b6000601483815481106111a257634e487b7160e01b600052603260045260246000fd5b60009182526020822060049182020180546040516370a0823160e01b81529194506001600160a01b0316929183916370a08231916111e29130910161314b565b60206040518083038186803b1580156111fa57600080fd5b505afa15801561120e573d6000803e3d6000fd5b505050506040513d601f19601f820116820180604052508101906112329190612fa1565b60095460405163095ea7b360e01b81529192506001600160a01b038085169263095ea7b39261126792169085906004016131d7565b602060405180830381600087803b15801561128157600080fd5b505af1158015611295573d6000803e3d6000fd5b505050506040513d601f19601f820116820180604052508101906112b99190612f05565b5060095460405163ce5494bb60e01b81526000916001600160a01b03169063ce5494bb906112eb90869060040161314b565b602060405180830381600087803b15801561130557600080fd5b505af1158015611319573d6000803e3d6000fd5b505050506040513d601f19601f8201168201806040525081019061133d9190612f85565b6040516370a0823160e01b81529091506001600160a01b038216906370a082319061136c90309060040161314b565b60206040518083038186803b15801561138457600080fd5b505afa158015611398573d6000803e3d6000fd5b505050506040513d601f19601f820116820180604052508101906113bc9190612fa1565b82146113da5760405162461bcd60e51b8152600401610730906135f2565b83546001600160a01b0319166001600160a01b03919091161790925550505050565b6006546001600160a01b031681565b6014548190811061142e5760405162461bcd60e51b8152600401610730906134bf565b60006014838154811061145157634e487b7160e01b600052603260045260246000fd5b90600052602060002090600402019050806002015442116114725750610af3565b80546040516370a0823160e01b81526000916001600160a01b0316906370a08231906114a290309060040161314b565b60206040518083038186803b1580156114ba57600080fd5b505afa1580156114ce573d6000803e3d6000fd5b505050506040513d601f19601f820116820180604052508101906114f29190612fa1565b905080611506575042600290910155610af3565b6000611516836002015442611a9b565b905060006010548460010154600d5484611530919061374e565b61153a919061374e565b611544919061372e565b90506000650746a528800061155e8364e8d4a5100061374e565b611568919061372e565b9050600061157782600261374e565b90506000611585828561376d565b600480546007546040516340c10f1960e01b81529394506001600160a01b03918216936340c10f19936115be93909216918891016131d7565b600060405180830381600087803b1580156115d857600080fd5b505af11580156115ec573d6000803e3d6000fd5b5050600480546008546040516340c10f1960e01b81526001600160a01b0392831695506340c10f1994506116279391909216918891016131d7565b600060405180830381600087803b15801561164157600080fd5b505af1158015611655573d6000803e3d6000fd5b5050600480546006546040516340c10f1960e01b81526001600160a01b0392831695506340c10f1994506116909391909216918691016131d7565b600060405180830381600087803b1580156116aa57600080fd5b505af11580156116be573d6000803e3d6000fd5b50505050858464e8d4a510006116d4919061374e565b6116de919061372e565b87600301546116ed9190613716565b6003880155505042600290950194909455505050505050565b600154600160a01b900460ff1690565b600d5481565b60175461172b81610a5061274b565b50600e55565b60145460005b81811015610af3576117488161140b565b611751816137c7565b9050611737565b60115460ff1661177a5760405162461bcd60e51b815260040161073090613629565b6014548390811061179d5760405162461bcd60e51b8152600401610730906134bf565b6017546117ac81610a5061274b565b82156117ba576117ba611731565b6000601486815481106117dd57634e487b7160e01b600052603260045260246000fd5b9060005260206000209060040201600101549050846014878154811061181357634e487b7160e01b600052603260045260246000fd5b90600052602060002090600402016001018190555084811461185357848160105461183e919061376d565b6118489190613716565b6010556118536128bb565b7fd88f859573973e938da5bf3e5100c16eee2090fa720e05ae3d452b4cd05cdcfd86866040516118849291906136b4565b60405180910390a1505050505050565b61189c61274b565b6001600160a01b03166118ad611a8c565b6001600160a01b0316146118d35760405162461bcd60e51b815260040161073090613424565b6118dd60006129bd565b565b600f5481565b60115460ff166119075760405162461bcd60e51b815260040161073090613629565b60165461191681610a5061274b565b61191f83612a0f565b61192a848484612a90565b50505050565b6009546001600160a01b031681565b600c5481565b60008060006119576106618787611b3a565b905060006064611967838761374e565b611971919061372e565b90506119a06040518060400160405280600b81526020016a666565526174653a20257360a81b81525083612706565b6119d76040518060400160405280600d81526020016c666565416d6f756e743a20257360981b8152506119d2836120f4565b612706565b60006119e3828761376d565b91989197509095505050505050565b6004546001600160a01b031681565b601754611a1081610a5061274b565b60008481526015602090815260408083206001600160a01b0387168452909152908190206004810184905590517f40d6e8e3d60e4693375c73df2d1a71d582a28197c98fd8d2badad6ead06af64c90611a6e90879087908790613695565b60405180910390a15050505050565b6007546001600160a01b031681565b6001546001600160a01b031690565b600e54600090611aab848461376d565b611ab5919061374e565b9392505050565b6000918252602082815260408084206001600160a01b0393909316845291905290205460ff1690565b6015602052816000526040600020602052806000526040600020600091509150508060000154908060010154908060020154908060030154908060040154908060050154908060060154905087565b600a5481565b600080620151808310611b5957611b54620151808461372e565b611b5c565b60005b9050600060125482611b6e919061374e565b90506000601354821015611b8f5781601354611b8a919061376d565b611b92565b60005b90508515611ba05780611ba3565b60005b9695505050505050565b600b5481565b600081565b600e5481565b60008060148481548110611be257634e487b7160e01b600052603260045260246000fd5b600091825260208083208784526015825260408085206001600160a01b038981168752935280852060049485029092016003810154815492516370a0823160e01b815291975092959294929391909116916370a0823191611c459130910161314b565b60206040518083038186803b158015611c5d57600080fd5b505afa158015611c71573d6000803e3d6000fd5b505050506040513d601f19601f82011682018060405250810190611c959190612fa1565b9050836002015442118015611ca957508015155b15611d17576000611cbe856002015442611a9b565b905060006010548660010154600d5484611cd8919061374e565b611ce2919061374e565b611cec919061372e565b905082611cfe8264e8d4a5100061374e565b611d08919061372e565b611d129085613716565b935050505b6001830154835464e8d4a5100090611d3090859061374e565b611d3a919061372e565b611d44919061376d565b979650505050505050565b600061070282670de0b6b3a764000061374e565b611d6c82610a78565b611d7881610a5061274b565b610aac8383612838565b60006107028233611abc565b601654611d9d81610a5061274b565b6008546001600160a01b038481169116141580611dc857506007546001600160a01b03838116911614155b611de45760405162461bcd60e51b815260040161073090613490565b600880546001600160a01b038086166001600160a01b0319928316179283905560078054868316931692909217918290556040517fd1c04282701cbf58aa2f0026f6876051cf3feb8ee7b8b5b5532ebb4ab03fb5d493611e499390831692169061315f565b60405180910390a1505050565b600280541415611e785760405162461bcd60e51b81526004016107309061356c565b6002805560145482908110611e9f5760405162461bcd60e51b8152600401610730906134bf565b611ea7611706565b15611ec45760405162461bcd60e51b815260040161073090613336565b82611ee15760405162461bcd60e51b8152600401610730906133ed565b600060148481548110611f0457634e487b7160e01b600052603260045260246000fd5b60009182526020808320878452601582526040808520338652909252922060049091029091019150611f358561140b565b805415611f85576000816001015464e8d4a5100084600301548460000154611f5d919061374e565b611f67919061372e565b611f71919061376d565b90508015611f8357611f83338261269e565b505b831561202b5781546040516323b872dd60e01b81526001600160a01b03909116906323b872dd90611fbe903390309089906004016131b3565b602060405180830381600087803b158015611fd857600080fd5b505af1158015611fec573d6000803e3d6000fd5b505050506040513d601f19601f820116820180604052508101906120109190612f05565b50838160000160008282546120259190613716565b90915550505b6003820154815464e8d4a51000916120429161374e565b61204c919061372e565b600182015560048101546120605742612066565b80600401545b600482018190556040805180820190915260198152786669727374206465706f736974206d6164652061743a20257360381b60208201526120a691612706565b84336001600160a01b03167f90890809c654f11d6e72a28fa60149770a0d11ec6c92319d6ceb2bb0a4ea1a15866040516120e091906131fb565b60405180910390a350506001600255505050565b6000610702670de0b6b3a76400008361372e565b60165461211781610a5061274b565b6004546001600160a01b03848116911614158061214257506006546001600160a01b03838116911614155b61215e5760405162461bcd60e51b815260040161073090613459565b600480546001600160a01b038086166001600160a01b03199283161790925560068054928516929091169190911790556040517fdcc6331013de89f8c595d5328f0a724194f113cb6f8f2a707b3dff6de13f0d1790611e49908590859061315f565b60165481565b6016546121d581610a5061274b565b60115460ff16156121f85760405162461bcd60e51b815260040161073090613360565b600380546001600160a01b03808b166001600160a01b03199283161790925560058054928a169290911691909117905542600f556122368587613716565b600a55600b85905561224783611d4f565b60135561225382611d4f565b601255600354600480546001600160a01b039283166001600160a01b03199182161790915560055460068054919093169116179055600b54600a54859161229991612b9d565b60408051608081018252600480546001600160a01b03908116835260208301858152600f54948401948552600060608501818152601480546001808201835591845296517fce6d7b5282bd9a3661ae061feed1dbda4e52ab073b1f9285be6e155d9c38d4ec9790960296870180546001600160a01b031916969095169590951790935590517fce6d7b5282bd9a3661ae061feed1dbda4e52ab073b1f9285be6e155d9c38d4ed85015593517fce6d7b5282bd9a3661ae061feed1dbda4e52ab073b1f9285be6e155d9c38d4ee840155517fce6d7b5282bd9a3661ae061feed1dbda4e52ab073b1f9285be6e155d9c38d4ef909201919091556011805460ff19169091179055601080548392906123b0908490613716565b9091555050600754600854600354600554601054600b546040517f0476c5e4920930815a67a5a042e26836431f494d3be0f6e10c3034787a7a15f99661240e966001600160a01b039182169690821695908216949116929091613179565b60405180910390a1505050505050505050565b60175461243081610a5061274b565b82600b54141580612443575081600a5414155b61245f5760405162461bcd60e51b8152600401610730906132ff565b8282101561247f5760405162461bcd60e51b815260040161073090613660565b600b839055600a82905560408051808201909152601981527f6e657720776569676874733a202573206f7574206f662025730000000000000060208201526124c8908484612c3a565b6124d6600b54600a54612b9d565b7fb298bc23e07860d501fddce288f46d761aa04a0c7c3316099eb50f097aacf304600b54600a54604051611e499291906136b4565b61251361274b565b6001600160a01b0316612524611a8c565b6001600160a01b03161461254a5760405162461bcd60e51b815260040161073090613424565b6001600160a01b0381166125705760405162461bcd60e51b8152600401610730906132b9565b612579816129bd565b50565b60008281526015602090815260408083206001600160a01b03851684528252808320815160e08101835281548152600182015481850152600282015481840152600382015460608083019190915260048301546080830152600583015460a083015260069092015460c08201528251918201909252602c8082529192612613929061381c9083013982608001518360600151612c3a565b6126426040518060400160405280600d81526020016c74696d657374616d703a20257360981b81525042612706565b600081606001511161266257608081015161265d904261376d565b612671565b6060810151612671904261376d565b949350505050565b60125481565b60175481565b6001600160e01b031981166301ffc9a760e01b14919050565b600654604051635950a15560e11b81526001600160a01b039091169063b2a142aa906126d090859085906004016131d7565b600060405180830381600087803b1580156126ea57600080fd5b505af11580156126fe573d6000803e3d6000fd5b505050505050565b610af3828260405160240161271c92919061323d565b60408051601f198184030181529190526020810180516001600160e01b03166309710a9d60e41b179052612c7d565b3390565b6127598282611abc565b610af357612771816001600160a01b03166014612c9e565b61277c836020612c9e565b60405160200161278d9291906130d6565b60408051601f198184030181529082905262461bcd60e51b82526107309160040161322a565b6127bd8282611abc565b610af3576000828152602081815260408083206001600160a01b03851684529091529020805460ff191660011790556127f461274b565b6001600160a01b0316816001600160a01b0316837f2f8788117e7eff1d82e926ec794901d17c78024a50270940304540a733656f0d60405160405180910390a45050565b6128428282611abc565b15610af3576000828152602081815260408083206001600160a01b03851684529091529020805460ff1916905561287761274b565b6001600160a01b0316816001600160a01b0316837ff6391f5c32d9c69d2a47ea670b442974b53935d1edc7fd64eb21e047a839171b60405160405180910390a45050565b601454600060015b8281101561291b57601481815481106128ec57634e487b7160e01b600052603260045260246000fd5b906000526020600020906004020160010154826129099190613716565b9150612914816137c7565b90506128c3565b508015610af35761292d60038261372e565b905080601460008154811061295257634e487b7160e01b600052603260045260246000fd5b906000526020600020906004020160010154601054612971919061376d565b61297b9190613716565b6010819055508060146000815481106129a457634e487b7160e01b600052603260045260246000fd5b9060005260206000209060040201600101819055505050565b600180546001600160a01b038381166001600160a01b0319831681179093556040519116919082907f8be0079c531659141344cd1fd0a4f28419497f9722a3daafe3b4186f6b6457e090600090a35050565b60145460005b81811015610aac57826001600160a01b031660148281548110612a4857634e487b7160e01b600052603260045260246000fd5b60009182526020909120600490910201546001600160a01b03161415612a805760405162461bcd60e51b815260040161073090613543565b612a89816137c7565b9050612a15565b8015612a9e57612a9e611731565b8260106000828254612ab09190613716565b9250508190555060146040518060800160405280846001600160a01b03168152602001858152602001600f544211612aea57600f54612aec565b425b81526000602091820181905283546001808201865594825290829020835160049092020180546001600160a01b0319166001600160a01b0390921691909117815590820151928101929092556040810151600283015560600151600390910155612b546128bb565b6014546010546040517f20b669aa921947a6d9602a921d2db3b6b30f21b9aca98580fa3972530330b27a91612b8f91849188918891906136c2565b60405180910390a150505050565b600081612ba984611d4f565b612bb3919061372e565b9050612be36040518060400160405280600981526020016873686172653a20257360b81b8152506119d2836120f4565b612bf0816203d09061374e565b600c819055612c0390620151809061372e565b600d819055600c546040517fcd7c861d63893659123f817b192b8621ff1923a7c4589c260173cedcf9e986a692611e4992916136b4565b610aac838383604051602401612c529392919061325f565b60408051601f198184030181529190526020810180516001600160e01b031663969cdd0360e01b1790525b80516a636f6e736f6c652e6c6f67602083016000808483855afa5050505050565b60606000612cad83600261374e565b612cb8906002613716565b67ffffffffffffffff811115612cde57634e487b7160e01b600052604160045260246000fd5b6040519080825280601f01601f191660200182016040528015612d08576020820181803683370190505b509050600360fc1b81600081518110612d3157634e487b7160e01b600052603260045260246000fd5b60200101906001600160f81b031916908160001a905350600f60fb1b81600181518110612d6e57634e487b7160e01b600052603260045260246000fd5b60200101906001600160f81b031916908160001a9053506000612d9284600261374e565b612d9d906001613716565b90505b6001811115612e31576f181899199a1a9b1b9c1cb0b131b232b360811b85600f1660108110612ddf57634e487b7160e01b600052603260045260246000fd5b1a60f81b828281518110612e0357634e487b7160e01b600052603260045260246000fd5b60200101906001600160f81b031916908160001a90535060049490941c93612e2a816137b0565b9050612da0565b508315611ab55760405162461bcd60e51b815260040161073090613284565b600060208284031215612e61578081fd5b8135611ab5816137f8565b60008060408385031215612e7e578081fd5b8235612e89816137f8565b91506020830135612e99816137f8565b809150509250929050565b600080600080600080600060e0888a031215612ebe578283fd5b8735612ec9816137f8565b96506020880135612ed9816137f8565b96999698505050506040850135946060810135946080820135945060a0820135935060c0909101359150565b600060208284031215612f16578081fd5b8151611ab58161380d565b600060208284031215612f32578081fd5b5035919050565b60008060408385031215612f4b578182fd5b823591506020830135612e99816137f8565b600060208284031215612f6e578081fd5b81356001600160e01b031981168114611ab5578182fd5b600060208284031215612f96578081fd5b8151611ab5816137f8565b600060208284031215612fb2578081fd5b5051919050565b600080600060608486031215612fcd578283fd5b833592506020840135612fdf816137f8565b929592945050506040919091013590565b600080600060608486031215613004578283fd5b833592506020840135613016816137f8565b915060408401356130268161380d565b809150509250925092565b60008060408385031215613043578182fd5b50508035926020909101359150565b600080600060608486031215613066578081fd5b833592506020840135915060408401356130268161380d565b600080600060608486031215613093578081fd5b505081359360208301359350604090920135919050565b600081518084526130c2816020860160208601613784565b601f01601f19169290920160200192915050565b60007f416363657373436f6e74726f6c3a206163636f756e74200000000000000000008252835161310e816017850160208801613784565b7001034b99036b4b9b9b4b733903937b6329607d1b601791840191820152835161313f816028840160208801613784565b01602801949350505050565b6001600160a01b0391909116815260200190565b6001600160a01b0392831681529116602082015260400190565b6001600160a01b0396871681529486166020860152928516604085015293166060830152608082019290925260a081019190915260c00190565b6001600160a01b039384168152919092166020820152604081019190915260600190565b6001600160a01b03929092168252602082015260400190565b901515815260200190565b90815260200190565b6001600160a01b0394909416845260208401929092526040830152606082015260800190565b600060208252611ab560208301846130aa565b60006040825261325060408301856130aa565b90508260208301529392505050565b60006060825261327260608301866130aa565b60208301949094525060400152919050565b6020808252818101527f537472696e67733a20686578206c656e67746820696e73756666696369656e74604082015260600190565b60208082526026908201527f4f776e61626c653a206e6577206f776e657220697320746865207a65726f206160408201526564647265737360d01b606082015260800190565b6020808252601e908201527f6d757374206265206174206c65617374206f6e65206e65772076616c75650000604082015260600190565b60208082526010908201526f14185d5cd8589b194e881c185d5cd95960821b604082015260600190565b602080825260139082015272185b1c9958591e481a5b9a5d1a585b1a5e9959606a1b604082015260600190565b6020808252600f908201526e1b9bc81b5a59dc985d1bdc881cd95d608a1b604082015260600190565b6020808252601a908201527f776974686472617720534f554c20627920756e7374616b696e67000000000000604082015260600190565b60208082526017908201527f6465706f73697420534f554c206279207374616b696e67000000000000000000604082015260600190565b6020808252818101527f4f776e61626c653a2063616c6c6572206973206e6f7420746865206f776e6572604082015260600190565b6020808252601b908201527f6d7573742062652061206e657720746f6b656e20616464726573730000000000604082015260600190565b6020808252601590820152741b5d5cdd0818994818481b995dc81858d8dbdd5b9d605a1b604082015260600190565b6020808252601390820152721c1bdbdb08191bd95cc81b9bdd08195e1a5cdd606a1b604082015260600190565b6020808252601290820152711dda5d1a191c985dce881b9bdd0819dbdbd960721b604082015260600190565b6020808252601190820152701dda5d1a191c985dc81b9bdd0819dbdbd9607a1b604082015260600190565b6020808252600f908201526e191d5c1b1a58d85d1959081c1bdbdb608a1b604082015260600190565b6020808252601f908201527f5265656e7472616e637947756172643a207265656e7472616e742063616c6c00604082015260600190565b6020808252602f908201527f416363657373436f6e74726f6c3a2063616e206f6e6c792072656e6f756e636560408201526e103937b632b9903337b91039b2b63360891b606082015260800190565b6020808252601d908201527f6d6967726174653a20696e73756666696369656e742062616c616e6365000000604082015260600190565b6020808252601a908201527f726577617264732068617665206e6f742079657420626567756e000000000000604082015260600190565b6020808252818101527f7765696768742063616e6e6f742065786365656420746f74616c576569676874604082015260600190565b9283526001600160a01b03919091166020830152604082015260600190565b918252602082015260400190565b93845260208401929092526001600160a01b03166040830152606082015260800190565b968752602087019590955260408601939093526060850191909152608084015260a083015260c082015260e00190565b60008219821115613729576137296137e2565b500190565b60008261374957634e487b7160e01b81526012600452602481fd5b500490565b6000816000190483118215151615613768576137686137e2565b500290565b60008282101561377f5761377f6137e2565b500390565b60005b8381101561379f578181015183820152602001613787565b8381111561192a5750506000910152565b6000816137bf576137bf6137e2565b506000190190565b60006000198214156137db576137db6137e2565b5060010190565b634e487b7160e01b600052601160045260246000fd5b6001600160a01b038116811461257957600080fd5b801515811461257957600080fdfe6669727374206465706f73697420616e64206c617374207769746864726177616c3a20257320616e64202573a2646970667358221220eff2d346a0106907ce0aa65931166c0fe29a7b9a2c275b2af809f7c43665c04364736f6c63430008000033",
    "sourcePath": "/Users/unico/Documents/GitHub/SoulSwap/soulswap-farms/contracts/mocks/MockSoulSummoner.sol",
    "compiler": {
        "name": "solc",
        "version": "0.8.0+commit.c7dfd78e"
    },
    "functionHashes": {
        "DEFAULT_ADMIN_ROLE()": "a217fddf",
        "addPool(uint256,address,bool)": "7abceffd",
        "bonusMultiplier()": "a8b973a1",
        "dailyDecay()": "fc90fdc0",
        "dailySoul()": "7d500ec8",
        "dao()": "4162169f",
        "deposit(uint256,uint256)": "e2bbb158",
        "enWei(uint256)": "cf94ee96",
        "enterStaking(uint256)": "41441d3b",
        "fromWei(uint256)": "e65d1522",
        "getFeeRate(uint256,uint256)": "9f6c5426",
        "getMultiplier(uint256,uint256)": "8dbb1e3a",
        "getRoleAdmin(bytes32)": "248a9ca3",
        "getWithdrawable(uint256,uint256,uint256)": "7e668b42",
        "grantRole(bytes32,address)": "2f2ff15d",
        "hasDivineRole(bytes32)": "dbaef9b0",
        "hasRole(bytes32,address)": "91d14854",
        "initialize(address,address,uint256,uint256,uint256,uint256,uint256)": "edbf4ac2",
        "isInitialized()": "392e53cd",
        "isis()": "ea4bf446",
        "leaveStaking(uint256)": "1058d281",
        "maat()": "fd6f99d0",
        "massUpdatePools()": "630b5ba1",
        "migrate(uint256)": "454b0608",
        "migrator()": "7cd07e47",
        "owner()": "8da5cb5b",
        "paused()": "5c975abb",
        "pendingSoul(uint256,address)": "bfafcad5",
        "poolInfo(uint256)": "1526fe27",
        "poolLength()": "081e3eda",
        "renounceOwnership()": "715018a6",
        "renounceRole(bytes32,address)": "36568abe",
        "reviseDeposit(uint256,address,uint256)": "82386d58",
        "revokeRole(bytes32,address)": "d547741f",
        "seance()": "4ca01d45",
        "set(uint256,uint256,bool)": "64482f79",
        "setMigrator(address)": "23cf3118",
        "soul()": "815b7a8c",
        "soulPerSecond()": "5f9bf689",
        "startRate()": "1254f0dc",
        "startTime()": "78e97925",
        "supportsInterface(bytes4)": "01ffc9a7",
        "team()": "85f2aef2",
        "totalAllocPoint()": "17caf6f1",
        "totalWeight()": "96c82e57",
        "transferOwnership(address)": "f2fde38b",
        "updateAccounts(address,address)": "e13e8ec2",
        "updateMultiplier(uint256)": "5ffe6146",
        "updatePool(uint256)": "51eb05a6",
        "updateTokens(address,address)": "e7aa29e3",
        "updateWeights(uint256,uint256)": "f107fd85",
        "userDelta(uint256,address)": "fb39d1e3",
        "userInfo(uint256,address)": "93f1a40b",
        "weight()": "a1aab33f",
        "withdraw(uint256,uint256)": "441a3e70"
    },
    "gasEstimates": {
        "creation": {
            "codeDepositCost": "2892200",
            "executionCost": "infinite",
            "totalCost": "infinite"
        },
        "external": {
            "DEFAULT_ADMIN_ROLE()": "317",
            "addPool(uint256,address,bool)": "infinite",
            "bonusMultiplier()": "1139",
            "dailyDecay()": "1138",
            "dailySoul()": "1161",
            "dao()": "1204",
            "deposit(uint256,uint256)": "infinite",
            "enWei(uint256)": "472",
            "enterStaking(uint256)": "infinite",
            "fromWei(uint256)": "483",
            "getFeeRate(uint256,uint256)": "3215",
            "getMultiplier(uint256,uint256)": "1414",
            "getRoleAdmin(bytes32)": "1271",
            "getWithdrawable(uint256,uint256,uint256)": "infinite",
            "grantRole(bytes32,address)": "infinite",
            "hasDivineRole(bytes32)": "1430",
            "hasRole(bytes32,address)": "1516",
            "initialize(address,address,uint256,uint256,uint256,uint256,uint256)": "infinite",
            "isInitialized()": "1130",
            "isis()": "1095",
            "leaveStaking(uint256)": "infinite",
            "maat()": "1160",
            "massUpdatePools()": "infinite",
            "migrate(uint256)": "infinite",
            "migrator()": "1181",
            "owner()": "1160",
            "paused()": "1147",
            "pendingSoul(uint256,address)": "infinite",
            "poolInfo(uint256)": "4695",
            "poolLength()": "1097",
            "renounceOwnership()": "23619",
            "renounceRole(bytes32,address)": "infinite",
            "reviseDeposit(uint256,address,uint256)": "infinite",
            "revokeRole(bytes32,address)": "infinite",
            "seance()": "1183",
            "set(uint256,uint256,bool)": "infinite",
            "setMigrator(address)": "infinite",
            "soul()": "1161",
            "soulPerSecond()": "1140",
            "startRate()": "1141",
            "startTime()": "1095",
            "supportsInterface(bytes4)": "539",
            "team()": "1138",
            "totalAllocPoint()": "1185",
            "totalWeight()": "1118",
            "transferOwnership(address)": "infinite",
            "updateAccounts(address,address)": "infinite",
            "updateMultiplier(uint256)": "infinite",
            "updatePool(uint256)": "infinite",
            "updateTokens(address,address)": "infinite",
            "updateWeights(uint256,uint256)": "infinite",
            "userDelta(uint256,address)": "infinite",
            "userInfo(uint256,address)": "6441",
            "weight()": "1095",
            "withdraw(uint256,uint256)": "infinite"
        },
        "internal": {
            "_addPool(uint256,contract IERC20,bool)": "infinite",
            "_divinationCeremony(bytes32,bytes32,address)": "infinite",
            "checkPoolDuplicate(contract IERC20)": "infinite",
            "safeSoulTransfer(address,uint256)": "infinite",
            "updateRewards(uint256,uint256)": "infinite",
            "updateStakingPool()": "infinite"
        }
    }
}