{
    "contractName": "MockToken",
    "abi": [
        {
            "inputs": [],
            "stateMutability": "nonpayable",
            "type": "constructor"
        },
        {
            "anonymous": false,
            "inputs": [
                {
                    "indexed": true,
                    "internalType": "address",
                    "name": "owner",
                    "type": "address"
                },
                {
                    "indexed": true,
                    "internalType": "address",
                    "name": "spender",
                    "type": "address"
                },
                {
                    "indexed": false,
                    "internalType": "uint256",
                    "name": "value",
                    "type": "uint256"
                }
            ],
            "name": "Approval",
            "type": "event"
        },
        {
            "anonymous": false,
            "inputs": [
                {
                    "indexed": true,
                    "internalType": "address",
                    "name": "from",
                    "type": "address"
                },
                {
                    "indexed": true,
                    "internalType": "address",
                    "name": "to",
                    "type": "address"
                },
                {
                    "indexed": false,
                    "internalType": "uint256",
                    "name": "value",
                    "type": "uint256"
                }
            ],
            "name": "Transfer",
            "type": "event"
        },
        {
            "inputs": [
                {
                    "internalType": "address",
                    "name": "owner",
                    "type": "address"
                },
                {
                    "internalType": "address",
                    "name": "spender",
                    "type": "address"
                }
            ],
            "name": "allowance",
            "outputs": [
                {
                    "internalType": "uint256",
                    "name": "",
                    "type": "uint256"
                }
            ],
            "stateMutability": "view",
            "type": "function"
        },
        {
            "inputs": [
                {
                    "internalType": "address",
                    "name": "spender",
                    "type": "address"
                },
                {
                    "internalType": "uint256",
                    "name": "amount",
                    "type": "uint256"
                }
            ],
            "name": "approve",
            "outputs": [
                {
                    "internalType": "bool",
                    "name": "",
                    "type": "bool"
                }
            ],
            "stateMutability": "nonpayable",
            "type": "function"
        },
        {
            "inputs": [
                {
                    "internalType": "address",
                    "name": "account",
                    "type": "address"
                }
            ],
            "name": "balanceOf",
            "outputs": [
                {
                    "internalType": "uint256",
                    "name": "",
                    "type": "uint256"
                }
            ],
            "stateMutability": "view",
            "type": "function"
        },
        {
            "inputs": [
                {
                    "internalType": "uint256",
                    "name": "amount",
                    "type": "uint256"
                }
            ],
            "name": "burn",
            "outputs": [],
            "stateMutability": "nonpayable",
            "type": "function"
        },
        {
            "inputs": [],
            "name": "decimals",
            "outputs": [
                {
                    "internalType": "uint8",
                    "name": "",
                    "type": "uint8"
                }
            ],
            "stateMutability": "view",
            "type": "function"
        },
        {
            "inputs": [
                {
                    "internalType": "address",
                    "name": "spender",
                    "type": "address"
                },
                {
                    "internalType": "uint256",
                    "name": "subtractedValue",
                    "type": "uint256"
                }
            ],
            "name": "decreaseAllowance",
            "outputs": [
                {
                    "internalType": "bool",
                    "name": "",
                    "type": "bool"
                }
            ],
            "stateMutability": "nonpayable",
            "type": "function"
        },
        {
            "inputs": [],
            "name": "deployer",
            "outputs": [
                {
                    "internalType": "address",
                    "name": "",
                    "type": "address"
                }
            ],
            "stateMutability": "view",
            "type": "function"
        },
        {
            "inputs": [
                {
                    "internalType": "address",
                    "name": "spender",
                    "type": "address"
                },
                {
                    "internalType": "uint256",
                    "name": "addedValue",
                    "type": "uint256"
                }
            ],
            "name": "increaseAllowance",
            "outputs": [
                {
                    "internalType": "bool",
                    "name": "",
                    "type": "bool"
                }
            ],
            "stateMutability": "nonpayable",
            "type": "function"
        },
        {
            "inputs": [
                {
                    "internalType": "uint256",
                    "name": "amount",
                    "type": "uint256"
                }
            ],
            "name": "mint",
            "outputs": [],
            "stateMutability": "nonpayable",
            "type": "function"
        },
        {
            "inputs": [],
            "name": "name",
            "outputs": [
                {
                    "internalType": "string",
                    "name": "",
                    "type": "string"
                }
            ],
            "stateMutability": "view",
            "type": "function"
        },
        {
            "inputs": [],
            "name": "symbol",
            "outputs": [
                {
                    "internalType": "string",
                    "name": "",
                    "type": "string"
                }
            ],
            "stateMutability": "view",
            "type": "function"
        },
        {
            "inputs": [],
            "name": "totalSupply",
            "outputs": [
                {
                    "internalType": "uint256",
                    "name": "",
                    "type": "uint256"
                }
            ],
            "stateMutability": "view",
            "type": "function"
        },
        {
            "inputs": [
                {
                    "internalType": "address",
                    "name": "recipient",
                    "type": "address"
                },
                {
                    "internalType": "uint256",
                    "name": "amount",
                    "type": "uint256"
                }
            ],
            "name": "transfer",
            "outputs": [
                {
                    "internalType": "bool",
                    "name": "",
                    "type": "bool"
                }
            ],
            "stateMutability": "nonpayable",
            "type": "function"
        },
        {
            "inputs": [
                {
                    "internalType": "address",
                    "name": "sender",
                    "type": "address"
                },
                {
                    "internalType": "address",
                    "name": "recipient",
                    "type": "address"
                },
                {
                    "internalType": "uint256",
                    "name": "amount",
                    "type": "uint256"
                }
            ],
            "name": "transferFrom",
            "outputs": [
                {
                    "internalType": "bool",
                    "name": "",
                    "type": "bool"
                }
            ],
            "stateMutability": "nonpayable",
            "type": "function"
        }
    ],
    "bytecode": "6080604052600580546001600160a01b031916331790553480156200002357600080fd5b50604080518082018252600b81526a0536f756c53776170204c560ac1b6020808301918252835180850190945260078452660534f554c2d4c560cc1b908401528151919291620000769160039162000198565b5080516200008c90600490602084019062000198565b505050620000ab3369152d02c7e14af6800000620000b160201b60201c565b620002e0565b6001600160a01b038216620000e35760405162461bcd60e51b8152600401620000da906200023e565b60405180910390fd5b620000f16000838362000193565b80600260008282546200010591906200027e565b90915550506001600160a01b03821660009081526020819052604081208054839290620001349084906200027e565b90915550506040516001600160a01b038316906000907fddf252ad1be2c89b69c2b068fc378daa952ba7f163c4a11628f55a4df523b3ef906200017990859062000275565b60405180910390a36200018f6000838362000193565b5050565b505050565b828054620001a690620002a3565b90600052602060002090601f016020900481019282620001ca576000855562000215565b82601f10620001e557805160ff191683800117855562000215565b8280016001018555821562000215579182015b8281111562000215578251825591602001919060010190620001f8565b506200022392915062000227565b5090565b5b8082111562000223576000815560010162000228565b6020808252601f908201527f45524332303a206d696e7420746f20746865207a65726f206164647265737300604082015260600190565b90815260200190565b600082198211156200029e57634e487b7160e01b81526011600452602481fd5b500190565b600281046001821680620002b857607f821691505b60208210811415620002da57634e487b7160e01b600052602260045260246000fd5b50919050565b610d3880620002f06000396000f3fe608060405234801561001057600080fd5b50600436106100ea5760003560e01c806370a082311161008c578063a457c2d711610066578063a457c2d7146101c0578063a9059cbb146101d3578063d5f39488146101e6578063dd62ed3e146101fb576100ea565b806370a082311461019257806395d89b41146101a5578063a0712d68146101ad576100ea565b806323b872dd116100c857806323b872dd14610142578063313ce56714610155578063395093511461016a57806342966c681461017d576100ea565b806306fdde03146100ef578063095ea7b31461010d57806318160ddd1461012d575b600080fd5b6100f761020e565b604051610104919061097d565b60405180910390f35b61012061011b36600461091d565b6102a0565b6040516101049190610972565b6101356102bd565b6040516101049190610c6b565b6101206101503660046108e2565b6102c3565b61015d61035c565b6040516101049190610c74565b61012061017836600461091d565b610361565b61019061018b366004610946565b6103b5565b005b6101356101a036600461088f565b6103c2565b6100f76103e1565b6101906101bb366004610946565b6103f0565b6101206101ce36600461091d565b610411565b6101206101e136600461091d565b61048a565b6101ee61049e565b604051610104919061095e565b6101356102093660046108b0565b6104ad565b60606003805461021d90610cb1565b80601f016020809104026020016040519081016040528092919081815260200182805461024990610cb1565b80156102965780601f1061026b57610100808354040283529160200191610296565b820191906000526020600020905b81548152906001019060200180831161027957829003601f168201915b5050505050905090565b60006102b46102ad6104d8565b84846104dc565b50600192915050565b60025490565b60006102d0848484610590565b6001600160a01b0384166000908152600160205260408120816102f16104d8565b6001600160a01b03166001600160a01b031681526020019081526020016000205490508281101561033d5760405162461bcd60e51b815260040161033490610add565b60405180910390fd5b610351856103496104d8565b8584036104dc565b506001949350505050565b601290565b60006102b461036e6104d8565b84846001600061037c6104d8565b6001600160a01b03908116825260208083019390935260409182016000908120918b16815292529020546103b09190610c82565b6104dc565b6103bf33826106ba565b50565b6001600160a01b0381166000908152602081905260409020545b919050565b60606004805461021d90610cb1565b6005546001600160a01b0316331461040757600080fd5b6103bf33826107ac565b600080600160006104206104d8565b6001600160a01b039081168252602080830193909352604091820160009081209188168152925290205490508281101561046c5760405162461bcd60e51b815260040161033490610bef565b6104806104776104d8565b858584036104dc565b5060019392505050565b60006102b46104976104d8565b8484610590565b6005546001600160a01b031681565b6001600160a01b03918216600090815260016020908152604080832093909416825291909152205490565b3390565b6001600160a01b0383166105025760405162461bcd60e51b815260040161033490610bab565b6001600160a01b0382166105285760405162461bcd60e51b815260040161033490610a55565b6001600160a01b0380841660008181526001602090815260408083209487168084529490915290819020849055517f8c5be1e5ebec7d5bd14f71427d1e84f3dd0314c0f7b2291e5b200ac8c7c3b92590610583908590610c6b565b60405180910390a3505050565b6001600160a01b0383166105b65760405162461bcd60e51b815260040161033490610b66565b6001600160a01b0382166105dc5760405162461bcd60e51b8152600401610334906109d0565b6105e78383836107a7565b6001600160a01b038316600090815260208190526040902054818110156106205760405162461bcd60e51b815260040161033490610a97565b6001600160a01b03808516600090815260208190526040808220858503905591851681529081208054849290610657908490610c82565b92505081905550826001600160a01b0316846001600160a01b03167fddf252ad1be2c89b69c2b068fc378daa952ba7f163c4a11628f55a4df523b3ef846040516106a19190610c6b565b60405180910390a36106b48484846107a7565b50505050565b6001600160a01b0382166106e05760405162461bcd60e51b815260040161033490610b25565b6106ec826000836107a7565b6001600160a01b038216600090815260208190526040902054818110156107255760405162461bcd60e51b815260040161033490610a13565b6001600160a01b0383166000908152602081905260408120838303905560028054849290610754908490610c9a565b90915550506040516000906001600160a01b038516907fddf252ad1be2c89b69c2b068fc378daa952ba7f163c4a11628f55a4df523b3ef90610797908690610c6b565b60405180910390a36107a7836000845b505050565b6001600160a01b0382166107d25760405162461bcd60e51b815260040161033490610c34565b6107de600083836107a7565b80600260008282546107f09190610c82565b90915550506001600160a01b0382166000908152602081905260408120805483929061081d908490610c82565b90915550506040516001600160a01b038316906000907fddf252ad1be2c89b69c2b068fc378daa952ba7f163c4a11628f55a4df523b3ef90610860908590610c6b565b60405180910390a3610874600083836107a7565b5050565b80356001600160a01b03811681146103dc57600080fd5b6000602082840312156108a0578081fd5b6108a982610878565b9392505050565b600080604083850312156108c2578081fd5b6108cb83610878565b91506108d960208401610878565b90509250929050565b6000806000606084860312156108f6578081fd5b6108ff84610878565b925061090d60208501610878565b9150604084013590509250925092565b6000806040838503121561092f578182fd5b61093883610878565b946020939093013593505050565b600060208284031215610957578081fd5b5035919050565b6001600160a01b0391909116815260200190565b901515815260200190565b6000602080835283518082850152825b818110156109a95785810183015185820160400152820161098d565b818111156109ba5783604083870101525b50601f01601f1916929092016040019392505050565b60208082526023908201527f45524332303a207472616e7366657220746f20746865207a65726f206164647260408201526265737360e81b606082015260800190565b60208082526022908201527f45524332303a206275726e20616d6f756e7420657863656564732062616c616e604082015261636560f01b606082015260800190565b60208082526022908201527f45524332303a20617070726f766520746f20746865207a65726f206164647265604082015261737360f01b606082015260800190565b60208082526026908201527f45524332303a207472616e7366657220616d6f756e7420657863656564732062604082015265616c616e636560d01b606082015260800190565b60208082526028908201527f45524332303a207472616e7366657220616d6f756e74206578636565647320616040820152676c6c6f77616e636560c01b606082015260800190565b60208082526021908201527f45524332303a206275726e2066726f6d20746865207a65726f206164647265736040820152607360f81b606082015260800190565b60208082526025908201527f45524332303a207472616e736665722066726f6d20746865207a65726f206164604082015264647265737360d81b606082015260800190565b60208082526024908201527f45524332303a20617070726f76652066726f6d20746865207a65726f206164646040820152637265737360e01b606082015260800190565b60208082526025908201527f45524332303a2064656372656173656420616c6c6f77616e63652062656c6f77604082015264207a65726f60d81b606082015260800190565b6020808252601f908201527f45524332303a206d696e7420746f20746865207a65726f206164647265737300604082015260600190565b90815260200190565b60ff91909116815260200190565b60008219821115610c9557610c95610cec565b500190565b600082821015610cac57610cac610cec565b500390565b600281046001821680610cc557607f821691505b60208210811415610ce657634e487b7160e01b600052602260045260246000fd5b50919050565b634e487b7160e01b600052601160045260246000fdfea2646970667358221220b4d5be0fcb8673a2fd11efd02499473d518bb086b16dc836e4384aec8b6f4bf964736f6c63430008000033",
    "sourcePath": "/Users/unico/Documents/GitHub/SoulSwap/soulswap-farms/contracts/mocks/MockToken.sol",
    "compiler": {
        "name": "solc",
        "version": "0.8.0+commit.c7dfd78e"
    },
    "functionHashes": {
        "allowance(address,address)": "dd62ed3e",
        "approve(address,uint256)": "095ea7b3",
        "balanceOf(address)": "70a08231",
        "burn(uint256)": "42966c68",
        "decimals()": "313ce567",
        "decreaseAllowance(address,uint256)": "a457c2d7",
        "deployer()": "d5f39488",
        "increaseAllowance(address,uint256)": "39509351",
        "mint(uint256)": "a0712d68",
        "name()": "06fdde03",
        "symbol()": "95d89b41",
        "totalSupply()": "18160ddd",
        "transfer(address,uint256)": "a9059cbb",
        "transferFrom(address,address,uint256)": "23b872dd"
    },
    "gasEstimates": {
        "creation": {
            "codeDepositCost": "676800",
            "executionCost": "infinite",
            "totalCost": "infinite"
        },
        "external": {
            "allowance(address,address)": "infinite",
            "approve(address,uint256)": "22629",
            "balanceOf(address)": "infinite",
            "burn(uint256)": "infinite",
            "decimals()": "285",
            "decreaseAllowance(address,uint256)": "infinite",
            "deployer()": "1136",
            "increaseAllowance(address,uint256)": "infinite",
            "mint(uint256)": "infinite",
            "name()": "infinite",
            "symbol()": "infinite",
            "totalSupply()": "1096",
            "transfer(address,uint256)": "infinite",
            "transferFrom(address,address,uint256)": "infinite"
        }
    }
}