{
    "contractName": "MockSoulSummoner",
    "abi": [
        {
            "inputs": [],
            "stateMutability": "nonpayable",
            "type": "constructor"
        },
        {
            "anonymous": false,
            "inputs": [
                {
                    "indexed": false,
                    "internalType": "address",
                    "name": "dao",
                    "type": "address"
                },
                {
                    "indexed": false,
                    "internalType": "address",
                    "name": "team",
                    "type": "address"
                }
            ],
            "name": "AccountsUpdated",
            "type": "event"
        },
        {
            "anonymous": false,
            "inputs": [
                {
                    "indexed": true,
                    "internalType": "address",
                    "name": "user",
                    "type": "address"
                },
                {
                    "indexed": true,
                    "internalType": "uint256",
                    "name": "pid",
                    "type": "uint256"
                },
                {
                    "indexed": false,
                    "internalType": "uint256",
                    "name": "amount",
                    "type": "uint256"
                }
            ],
            "name": "Deposit",
            "type": "event"
        },
        {
            "anonymous": false,
            "inputs": [
                {
                    "indexed": false,
                    "internalType": "uint256",
                    "name": "_pid",
                    "type": "uint256"
                },
                {
                    "indexed": false,
                    "internalType": "address",
                    "name": "_user",
                    "type": "address"
                },
                {
                    "indexed": false,
                    "internalType": "uint256",
                    "name": "_time",
                    "type": "uint256"
                }
            ],
            "name": "DepositRevised",
            "type": "event"
        },
        {
            "anonymous": false,
            "inputs": [
                {
                    "indexed": false,
                    "internalType": "address",
                    "name": "team",
                    "type": "address"
                },
                {
                    "indexed": false,
                    "internalType": "address",
                    "name": "dao",
                    "type": "address"
                },
                {
                    "indexed": false,
                    "internalType": "address",
                    "name": "soul",
                    "type": "address"
                },
                {
                    "indexed": false,
                    "internalType": "address",
                    "name": "seance",
                    "type": "address"
                },
                {
                    "indexed": false,
                    "internalType": "uint256",
                    "name": "totalAllocPoint",
                    "type": "uint256"
                },
                {
                    "indexed": false,
                    "internalType": "uint256",
                    "name": "weight",
                    "type": "uint256"
                }
            ],
            "name": "Initialized",
            "type": "event"
        },
        {
            "anonymous": false,
            "inputs": [
                {
                    "indexed": true,
                    "internalType": "address",
                    "name": "previousOwner",
                    "type": "address"
                },
                {
                    "indexed": true,
                    "internalType": "address",
                    "name": "newOwner",
                    "type": "address"
                }
            ],
            "name": "OwnershipTransferred",
            "type": "event"
        },
        {
            "anonymous": false,
            "inputs": [
                {
                    "indexed": false,
                    "internalType": "address",
                    "name": "account",
                    "type": "address"
                }
            ],
            "name": "Paused",
            "type": "event"
        },
        {
            "anonymous": false,
            "inputs": [
                {
                    "indexed": false,
                    "internalType": "uint256",
                    "name": "pid",
                    "type": "uint256"
                },
                {
                    "indexed": false,
                    "internalType": "uint256",
                    "name": "allocPoint",
                    "type": "uint256"
                },
                {
                    "indexed": false,
                    "internalType": "contract IERC20",
                    "name": "lpToken",
                    "type": "address"
                },
                {
                    "indexed": false,
                    "internalType": "uint256",
                    "name": "totalAllocPoint",
                    "type": "uint256"
                }
            ],
            "name": "PoolAdded",
            "type": "event"
        },
        {
            "anonymous": false,
            "inputs": [
                {
                    "indexed": false,
                    "internalType": "uint256",
                    "name": "pid",
                    "type": "uint256"
                },
                {
                    "indexed": false,
                    "internalType": "uint256",
                    "name": "allocPoint",
                    "type": "uint256"
                }
            ],
            "name": "PoolSet",
            "type": "event"
        },
        {
            "anonymous": false,
            "inputs": [
                {
                    "indexed": false,
                    "internalType": "uint256",
                    "name": "dailySoul",
                    "type": "uint256"
                },
                {
                    "indexed": false,
                    "internalType": "uint256",
                    "name": "soulPerSecond",
                    "type": "uint256"
                }
            ],
            "name": "RewardsUpdated",
            "type": "event"
        },
        {
            "anonymous": false,
            "inputs": [
                {
                    "indexed": true,
                    "internalType": "bytes32",
                    "name": "role",
                    "type": "bytes32"
                },
                {
                    "indexed": true,
                    "internalType": "bytes32",
                    "name": "previousAdminRole",
                    "type": "bytes32"
                },
                {
                    "indexed": true,
                    "internalType": "bytes32",
                    "name": "newAdminRole",
                    "type": "bytes32"
                }
            ],
            "name": "RoleAdminChanged",
            "type": "event"
        },
        {
            "anonymous": false,
            "inputs": [
                {
                    "indexed": false,
                    "internalType": "bytes32",
                    "name": "role",
                    "type": "bytes32"
                },
                {
                    "indexed": false,
                    "internalType": "bytes32",
                    "name": "supreme",
                    "type": "bytes32"
                }
            ],
            "name": "RoleDivinated",
            "type": "event"
        },
        {
            "anonymous": false,
            "inputs": [
                {
                    "indexed": true,
                    "internalType": "bytes32",
                    "name": "role",
                    "type": "bytes32"
                },
                {
                    "indexed": true,
                    "internalType": "address",
                    "name": "account",
                    "type": "address"
                },
                {
                    "indexed": true,
                    "internalType": "address",
                    "name": "sender",
                    "type": "address"
                }
            ],
            "name": "RoleGranted",
            "type": "event"
        },
        {
            "anonymous": false,
            "inputs": [
                {
                    "indexed": true,
                    "internalType": "bytes32",
                    "name": "role",
                    "type": "bytes32"
                },
                {
                    "indexed": true,
                    "internalType": "address",
                    "name": "account",
                    "type": "address"
                },
                {
                    "indexed": true,
                    "internalType": "address",
                    "name": "sender",
                    "type": "address"
                }
            ],
            "name": "RoleRevoked",
            "type": "event"
        },
        {
            "anonymous": false,
            "inputs": [
                {
                    "indexed": false,
                    "internalType": "address",
                    "name": "soul",
                    "type": "address"
                },
                {
                    "indexed": false,
                    "internalType": "address",
                    "name": "seance",
                    "type": "address"
                }
            ],
            "name": "TokensUpdated",
            "type": "event"
        },
        {
            "anonymous": false,
            "inputs": [
                {
                    "indexed": false,
                    "internalType": "address",
                    "name": "account",
                    "type": "address"
                }
            ],
            "name": "Unpaused",
            "type": "event"
        },
        {
            "anonymous": false,
            "inputs": [
                {
                    "indexed": false,
                    "internalType": "uint256",
                    "name": "weight",
                    "type": "uint256"
                },
                {
                    "indexed": false,
                    "internalType": "uint256",
                    "name": "totalWeight",
                    "type": "uint256"
                }
            ],
            "name": "WeightUpdated",
            "type": "event"
        },
        {
            "anonymous": false,
            "inputs": [
                {
                    "indexed": true,
                    "internalType": "address",
                    "name": "user",
                    "type": "address"
                },
                {
                    "indexed": true,
                    "internalType": "uint256",
                    "name": "pid",
                    "type": "uint256"
                },
                {
                    "indexed": false,
                    "internalType": "uint256",
                    "name": "amount",
                    "type": "uint256"
                },
                {
                    "indexed": false,
                    "internalType": "uint256",
                    "name": "timeStamp",
                    "type": "uint256"
                }
            ],
            "name": "Withdraw",
            "type": "event"
        },
        {
            "inputs": [],
            "name": "DEFAULT_ADMIN_ROLE",
            "outputs": [
                {
                    "internalType": "bytes32",
                    "name": "",
                    "type": "bytes32"
                }
            ],
            "stateMutability": "view",
            "type": "function"
        },
        {
            "inputs": [
                {
                    "internalType": "uint256",
                    "name": "_allocPoint",
                    "type": "uint256"
                },
                {
                    "internalType": "contract IERC20",
                    "name": "_lpToken",
                    "type": "address"
                },
                {
                    "internalType": "bool",
                    "name": "_withUpdate",
                    "type": "bool"
                }
            ],
            "name": "addPool",
            "outputs": [],
            "stateMutability": "nonpayable",
            "type": "function"
        },
        {
            "inputs": [],
            "name": "bonusMultiplier",
            "outputs": [
                {
                    "internalType": "uint256",
                    "name": "",
                    "type": "uint256"
                }
            ],
            "stateMutability": "view",
            "type": "function"
        },
        {
            "inputs": [],
            "name": "dailyDecay",
            "outputs": [
                {
                    "internalType": "uint256",
                    "name": "",
                    "type": "uint256"
                }
            ],
            "stateMutability": "view",
            "type": "function"
        },
        {
            "inputs": [],
            "name": "dailySoul",
            "outputs": [
                {
                    "internalType": "uint256",
                    "name": "",
                    "type": "uint256"
                }
            ],
            "stateMutability": "view",
            "type": "function"
        },
        {
            "inputs": [],
            "name": "dao",
            "outputs": [
                {
                    "internalType": "address",
                    "name": "",
                    "type": "address"
                }
            ],
            "stateMutability": "view",
            "type": "function"
        },
        {
            "inputs": [
                {
                    "internalType": "uint256",
                    "name": "pid",
                    "type": "uint256"
                },
                {
                    "internalType": "uint256",
                    "name": "amount",
                    "type": "uint256"
                }
            ],
            "name": "deposit",
            "outputs": [],
            "stateMutability": "nonpayable",
            "type": "function"
        },
        {
            "inputs": [
                {
                    "internalType": "uint256",
                    "name": "amount",
                    "type": "uint256"
                }
            ],
            "name": "enWei",
            "outputs": [
                {
                    "internalType": "uint256",
                    "name": "",
                    "type": "uint256"
                }
            ],
            "stateMutability": "pure",
            "type": "function"
        },
        {
            "inputs": [
                {
                    "internalType": "uint256",
                    "name": "amount",
                    "type": "uint256"
                }
            ],
            "name": "enterStaking",
            "outputs": [],
            "stateMutability": "nonpayable",
            "type": "function"
        },
        {
            "inputs": [
                {
                    "internalType": "uint256",
                    "name": "amount",
                    "type": "uint256"
                }
            ],
            "name": "fromWei",
            "outputs": [
                {
                    "internalType": "uint256",
                    "name": "",
                    "type": "uint256"
                }
            ],
            "stateMutability": "pure",
            "type": "function"
        },
        {
            "inputs": [
                {
                    "internalType": "uint256",
                    "name": "pid",
                    "type": "uint256"
                },
                {
                    "internalType": "uint256",
                    "name": "timeDelta",
                    "type": "uint256"
                }
            ],
            "name": "getFeeRate",
            "outputs": [
                {
                    "internalType": "uint256",
                    "name": "feeRate",
                    "type": "uint256"
                }
            ],
            "stateMutability": "view",
            "type": "function"
        },
        {
            "inputs": [
                {
                    "internalType": "uint256",
                    "name": "from",
                    "type": "uint256"
                },
                {
                    "internalType": "uint256",
                    "name": "to",
                    "type": "uint256"
                }
            ],
            "name": "getMultiplier",
            "outputs": [
                {
                    "internalType": "uint256",
                    "name": "",
                    "type": "uint256"
                }
            ],
            "stateMutability": "view",
            "type": "function"
        },
        {
            "inputs": [
                {
                    "internalType": "bytes32",
                    "name": "role",
                    "type": "bytes32"
                }
            ],
            "name": "getRoleAdmin",
            "outputs": [
                {
                    "internalType": "bytes32",
                    "name": "",
                    "type": "bytes32"
                }
            ],
            "stateMutability": "view",
            "type": "function"
        },
        {
            "inputs": [
                {
                    "internalType": "uint256",
                    "name": "pid",
                    "type": "uint256"
                },
                {
                    "internalType": "uint256",
                    "name": "timeDelta",
                    "type": "uint256"
                },
                {
                    "internalType": "uint256",
                    "name": "amount",
                    "type": "uint256"
                }
            ],
            "name": "getWithdrawable",
            "outputs": [
                {
                    "internalType": "uint256",
                    "name": "_feeAmount",
                    "type": "uint256"
                },
                {
                    "internalType": "uint256",
                    "name": "_withdrawable",
                    "type": "uint256"
                }
            ],
            "stateMutability": "view",
            "type": "function"
        },
        {
            "inputs": [
                {
                    "internalType": "bytes32",
                    "name": "role",
                    "type": "bytes32"
                },
                {
                    "internalType": "address",
                    "name": "account",
                    "type": "address"
                }
            ],
            "name": "grantRole",
            "outputs": [],
            "stateMutability": "nonpayable",
            "type": "function"
        },
        {
            "inputs": [
                {
                    "internalType": "bytes32",
                    "name": "role",
                    "type": "bytes32"
                }
            ],
            "name": "hasDivineRole",
            "outputs": [
                {
                    "internalType": "bool",
                    "name": "",
                    "type": "bool"
                }
            ],
            "stateMutability": "view",
            "type": "function"
        },
        {
            "inputs": [
                {
                    "internalType": "bytes32",
                    "name": "role",
                    "type": "bytes32"
                },
                {
                    "internalType": "address",
                    "name": "account",
                    "type": "address"
                }
            ],
            "name": "hasRole",
            "outputs": [
                {
                    "internalType": "bool",
                    "name": "",
                    "type": "bool"
                }
            ],
            "stateMutability": "view",
            "type": "function"
        },
        {
            "inputs": [
                {
                    "internalType": "address",
                    "name": "_soulAddress",
                    "type": "address"
                },
                {
                    "internalType": "address",
                    "name": "_seanceAddress",
                    "type": "address"
                },
                {
                    "internalType": "uint256",
                    "name": "_totalWeight",
                    "type": "uint256"
                },
                {
                    "internalType": "uint256",
                    "name": "_weight",
                    "type": "uint256"
                },
                {
                    "internalType": "uint256",
                    "name": "_stakingAlloc",
                    "type": "uint256"
                },
                {
                    "internalType": "uint256",
                    "name": "_startRate",
                    "type": "uint256"
                },
                {
                    "internalType": "uint256",
                    "name": "_dailyDecay",
                    "type": "uint256"
                }
            ],
            "name": "initialize",
            "outputs": [],
            "stateMutability": "nonpayable",
            "type": "function"
        },
        {
            "inputs": [],
            "name": "isInitialized",
            "outputs": [
                {
                    "internalType": "bool",
                    "name": "",
                    "type": "bool"
                }
            ],
            "stateMutability": "view",
            "type": "function"
        },
        {
            "inputs": [],
            "name": "isis",
            "outputs": [
                {
                    "internalType": "bytes32",
                    "name": "",
                    "type": "bytes32"
                }
            ],
            "stateMutability": "view",
            "type": "function"
        },
        {
            "inputs": [
                {
                    "internalType": "uint256",
                    "name": "amount",
                    "type": "uint256"
                }
            ],
            "name": "leaveStaking",
            "outputs": [],
            "stateMutability": "nonpayable",
            "type": "function"
        },
        {
            "inputs": [],
            "name": "maat",
            "outputs": [
                {
                    "internalType": "bytes32",
                    "name": "",
                    "type": "bytes32"
                }
            ],
            "stateMutability": "view",
            "type": "function"
        },
        {
            "inputs": [],
            "name": "massUpdatePools",
            "outputs": [],
            "stateMutability": "nonpayable",
            "type": "function"
        },
        {
            "inputs": [
                {
                    "internalType": "uint256",
                    "name": "pid",
                    "type": "uint256"
                }
            ],
            "name": "migrate",
            "outputs": [],
            "stateMutability": "nonpayable",
            "type": "function"
        },
        {
            "inputs": [],
            "name": "migrator",
            "outputs": [
                {
                    "internalType": "contract IMigrator",
                    "name": "",
                    "type": "address"
                }
            ],
            "stateMutability": "view",
            "type": "function"
        },
        {
            "inputs": [],
            "name": "owner",
            "outputs": [
                {
                    "internalType": "address",
                    "name": "",
                    "type": "address"
                }
            ],
            "stateMutability": "view",
            "type": "function"
        },
        {
            "inputs": [],
            "name": "paused",
            "outputs": [
                {
                    "internalType": "bool",
                    "name": "",
                    "type": "bool"
                }
            ],
            "stateMutability": "view",
            "type": "function"
        },
        {
            "inputs": [
                {
                    "internalType": "uint256",
                    "name": "pid",
                    "type": "uint256"
                },
                {
                    "internalType": "address",
                    "name": "_user",
                    "type": "address"
                }
            ],
            "name": "pendingSoul",
            "outputs": [
                {
                    "internalType": "uint256",
                    "name": "pendingAmount",
                    "type": "uint256"
                }
            ],
            "stateMutability": "view",
            "type": "function"
        },
        {
            "inputs": [
                {
                    "internalType": "uint256",
                    "name": "",
                    "type": "uint256"
                }
            ],
            "name": "poolInfo",
            "outputs": [
                {
                    "internalType": "contract IERC20",
                    "name": "lpToken",
                    "type": "address"
                },
                {
                    "internalType": "uint256",
                    "name": "allocPoint",
                    "type": "uint256"
                },
                {
                    "internalType": "uint256",
                    "name": "lastRewardTime",
                    "type": "uint256"
                },
                {
                    "internalType": "uint256",
                    "name": "accSoulPerShare",
                    "type": "uint256"
                }
            ],
            "stateMutability": "view",
            "type": "function"
        },
        {
            "inputs": [],
            "name": "poolLength",
            "outputs": [
                {
                    "internalType": "uint256",
                    "name": "",
                    "type": "uint256"
                }
            ],
            "stateMutability": "view",
            "type": "function"
        },
        {
            "inputs": [],
            "name": "renounceOwnership",
            "outputs": [],
            "stateMutability": "nonpayable",
            "type": "function"
        },
        {
            "inputs": [
                {
                    "internalType": "bytes32",
                    "name": "role",
                    "type": "bytes32"
                },
                {
                    "internalType": "address",
                    "name": "account",
                    "type": "address"
                }
            ],
            "name": "renounceRole",
            "outputs": [],
            "stateMutability": "nonpayable",
            "type": "function"
        },
        {
            "inputs": [
                {
                    "internalType": "uint256",
                    "name": "_pid",
                    "type": "uint256"
                },
                {
                    "internalType": "address",
                    "name": "_user",
                    "type": "address"
                },
                {
                    "internalType": "uint256",
                    "name": "_time",
                    "type": "uint256"
                }
            ],
            "name": "reviseDeposit",
            "outputs": [],
            "stateMutability": "nonpayable",
            "type": "function"
        },
        {
            "inputs": [
                {
                    "internalType": "bytes32",
                    "name": "role",
                    "type": "bytes32"
                },
                {
                    "internalType": "address",
                    "name": "account",
                    "type": "address"
                }
            ],
            "name": "revokeRole",
            "outputs": [],
            "stateMutability": "nonpayable",
            "type": "function"
        },
        {
            "inputs": [],
            "name": "seance",
            "outputs": [
                {
                    "internalType": "contract MockSeanceCircle",
                    "name": "",
                    "type": "address"
                }
            ],
            "stateMutability": "view",
            "type": "function"
        },
        {
            "inputs": [
                {
                    "internalType": "uint256",
                    "name": "pid",
                    "type": "uint256"
                },
                {
                    "internalType": "uint256",
                    "name": "allocPoint",
                    "type": "uint256"
                },
                {
                    "internalType": "bool",
                    "name": "withUpdate",
                    "type": "bool"
                }
            ],
            "name": "set",
            "outputs": [],
            "stateMutability": "nonpayable",
            "type": "function"
        },
        {
            "inputs": [
                {
                    "internalType": "contract IMigrator",
                    "name": "_migrator",
                    "type": "address"
                }
            ],
            "name": "setMigrator",
            "outputs": [],
            "stateMutability": "nonpayable",
            "type": "function"
        },
        {
            "inputs": [],
            "name": "soul",
            "outputs": [
                {
                    "internalType": "contract MockSoulPower",
                    "name": "",
                    "type": "address"
                }
            ],
            "stateMutability": "view",
            "type": "function"
        },
        {
            "inputs": [],
            "name": "soulPerSecond",
            "outputs": [
                {
                    "internalType": "uint256",
                    "name": "",
                    "type": "uint256"
                }
            ],
            "stateMutability": "view",
            "type": "function"
        },
        {
            "inputs": [],
            "name": "startRate",
            "outputs": [
                {
                    "internalType": "uint256",
                    "name": "",
                    "type": "uint256"
                }
            ],
            "stateMutability": "view",
            "type": "function"
        },
        {
            "inputs": [],
            "name": "startTime",
            "outputs": [
                {
                    "internalType": "uint256",
                    "name": "",
                    "type": "uint256"
                }
            ],
            "stateMutability": "view",
            "type": "function"
        },
        {
            "inputs": [
                {
                    "internalType": "bytes4",
                    "name": "interfaceId",
                    "type": "bytes4"
                }
            ],
            "name": "supportsInterface",
            "outputs": [
                {
                    "internalType": "bool",
                    "name": "",
                    "type": "bool"
                }
            ],
            "stateMutability": "view",
            "type": "function"
        },
        {
            "inputs": [],
            "name": "team",
            "outputs": [
                {
                    "internalType": "address",
                    "name": "",
                    "type": "address"
                }
            ],
            "stateMutability": "view",
            "type": "function"
        },
        {
            "inputs": [],
            "name": "totalAllocPoint",
            "outputs": [
                {
                    "internalType": "uint256",
                    "name": "",
                    "type": "uint256"
                }
            ],
            "stateMutability": "view",
            "type": "function"
        },
        {
            "inputs": [],
            "name": "totalWeight",
            "outputs": [
                {
                    "internalType": "uint256",
                    "name": "",
                    "type": "uint256"
                }
            ],
            "stateMutability": "view",
            "type": "function"
        },
        {
            "inputs": [
                {
                    "internalType": "address",
                    "name": "newOwner",
                    "type": "address"
                }
            ],
            "name": "transferOwnership",
            "outputs": [],
            "stateMutability": "nonpayable",
            "type": "function"
        },
        {
            "inputs": [
                {
                    "internalType": "address",
                    "name": "_dao",
                    "type": "address"
                },
                {
                    "internalType": "address",
                    "name": "_team",
                    "type": "address"
                }
            ],
            "name": "updateAccounts",
            "outputs": [],
            "stateMutability": "nonpayable",
            "type": "function"
        },
        {
            "inputs": [
                {
                    "internalType": "uint256",
                    "name": "_bonusMultiplier",
                    "type": "uint256"
                }
            ],
            "name": "updateMultiplier",
            "outputs": [],
            "stateMutability": "nonpayable",
            "type": "function"
        },
        {
            "inputs": [
                {
                    "internalType": "uint256",
                    "name": "pid",
                    "type": "uint256"
                }
            ],
            "name": "updatePool",
            "outputs": [],
            "stateMutability": "nonpayable",
            "type": "function"
        },
        {
            "inputs": [
                {
                    "internalType": "address",
                    "name": "_soul",
                    "type": "address"
                },
                {
                    "internalType": "address",
                    "name": "_seance",
                    "type": "address"
                }
            ],
            "name": "updateTokens",
            "outputs": [],
            "stateMutability": "nonpayable",
            "type": "function"
        },
        {
            "inputs": [
                {
                    "internalType": "uint256",
                    "name": "_weight",
                    "type": "uint256"
                },
                {
                    "internalType": "uint256",
                    "name": "_totalWeight",
                    "type": "uint256"
                }
            ],
            "name": "updateWeights",
            "outputs": [],
            "stateMutability": "nonpayable",
            "type": "function"
        },
        {
            "inputs": [
                {
                    "internalType": "uint256",
                    "name": "_pid",
                    "type": "uint256"
                }
            ],
            "name": "userDelta",
            "outputs": [
                {
                    "internalType": "uint256",
                    "name": "",
                    "type": "uint256"
                }
            ],
            "stateMutability": "view",
            "type": "function"
        },
        {
            "inputs": [
                {
                    "internalType": "uint256",
                    "name": "",
                    "type": "uint256"
                },
                {
                    "internalType": "address",
                    "name": "",
                    "type": "address"
                }
            ],
            "name": "userInfo",
            "outputs": [
                {
                    "internalType": "uint256",
                    "name": "amount",
                    "type": "uint256"
                },
                {
                    "internalType": "uint256",
                    "name": "rewardDebt",
                    "type": "uint256"
                },
                {
                    "internalType": "uint256",
                    "name": "rewardDebtAtTime",
                    "type": "uint256"
                },
                {
                    "internalType": "uint256",
                    "name": "lastWithdrawTime",
                    "type": "uint256"
                },
                {
                    "internalType": "uint256",
                    "name": "firstDepositTime",
                    "type": "uint256"
                },
                {
                    "internalType": "uint256",
                    "name": "timeDelta",
                    "type": "uint256"
                },
                {
                    "internalType": "uint256",
                    "name": "lastDepositTime",
                    "type": "uint256"
                }
            ],
            "stateMutability": "view",
            "type": "function"
        },
        {
            "inputs": [],
            "name": "weight",
            "outputs": [
                {
                    "internalType": "uint256",
                    "name": "",
                    "type": "uint256"
                }
            ],
            "stateMutability": "view",
            "type": "function"
        },
        {
            "inputs": [
                {
                    "internalType": "uint256",
                    "name": "pid",
                    "type": "uint256"
                },
                {
                    "internalType": "uint256",
                    "name": "amount",
                    "type": "uint256"
                }
            ],
            "name": "withdraw",
            "outputs": [],
            "stateMutability": "nonpayable",
            "type": "function"
        }
    ],
    "bytecode": "60806040526001600e553480156200001657600080fd5b506200002b6200002562000102565b62000106565b6001805460ff60a01b1916815560025560078054336001600160a01b0319918216811792839055600880549092161790557f36d5d8406f8379c6deba01145ec4f6a2966675cc67d71355b397a2a8e3572b296016557f0811b25c145e1379dc78112dd91057f09150f6db05dfd7e04deb910e6cefd4b7601755620000bd9060009081906001600160a01b031662000158565b50601654600754620000db919081906001600160a01b031662000158565b50601754601654600854620000fb9291906001600160a01b031662000158565b50620002a9565b3390565b600180546001600160a01b038381166001600160a01b0319831681179093556040519116919082907f8be0079c531659141344cd1fd0a4f28419497f9722a3daafe3b4186f6b6457e090600090a35050565b60006200016684836200017c565b6200017284846200018c565b5060019392505050565b620001888282620001e1565b5050565b600062000199836200026b565b600084815260208190526040808220600101859055519192508391839186917fbd79b86ffe0ab8e8776151514217cd7cacd52c909f66475c3af44e129f0b00ff9190a4505050565b620001ed828262000280565b62000188576000828152602081815260408083206001600160a01b03851684529091529020805460ff191660011790556200022762000102565b6001600160a01b0316816001600160a01b0316837f2f8788117e7eff1d82e926ec794901d17c78024a50270940304540a733656f0d60405160405180910390a45050565b60009081526020819052604090206001015490565b6000918252602082815260408084206001600160a01b0393909316845291905290205460ff1690565b6136cc80620002b96000396000f3fe608060405234801561001057600080fd5b506004361061035d5760003560e01c80637d500ec8116101d3578063bfafcad511610104578063e7aa29e3116100a2578063f107fd851161007c578063f107fd85146106a7578063f2fde38b146106ba578063fc90fdc0146106cd578063fd6f99d0146106d55761035d565b8063e7aa29e314610679578063ea4bf4461461068c578063edbf4ac2146106945761035d565b8063dbaef9b0116100de578063dbaef9b01461062d578063e13e8ec214610640578063e2bbb15814610653578063e65d1522146106665761035d565b8063bfafcad5146105f4578063cf94ee9614610607578063d547741f1461061a5761035d565b806391d14854116101715780639f6c54261161014b5780639f6c5426146105c9578063a1aab33f146105dc578063a217fddf146105e4578063a8b973a1146105ec5761035d565b806391d148541461058857806393f1a40b1461059b57806396c82e57146105c15761035d565b806382386d58116101ad57806382386d581461055257806385f2aef2146105655780638da5cb5b1461056d5780638dbb1e3a146105755761035d565b80637d500ec8146105215780637e668b4214610529578063815b7a8c1461054a5761035d565b80634162169f116102ad5780635ffe61461161024b578063715018a611610225578063715018a6146104f657806378e97925146104fe5780637abceffd146105065780637cd07e47146105195761035d565b80635ffe6146146104c8578063630b5ba1146104db57806364482f79146104e35761035d565b80634ca01d45116102875780634ca01d451461049d57806351eb05a6146104a55780635c975abb146104b85780635f9bf689146104c05761035d565b80634162169f14610462578063441a3e7014610477578063454b06081461048a5761035d565b806317caf6f11161031a5780632f2ff15d116102f45780632f2ff15d1461042157806336568abe14610434578063392e53cd1461044757806341441d3b1461044f5761035d565b806317caf6f1146103f357806323cf3118146103fb578063248a9ca31461040e5761035d565b806301ffc9a714610362578063081e3eda1461038b57806309ae4d2c146103a05780631058d281146103b35780631254f0dc146103c85780631526fe27146103d0575b600080fd5b610375610370366004612dd8565b6106dd565b604051610382919061306b565b60405180910390f35b61039361070a565b6040516103829190613076565b6103936103ae366004612d9c565b610710565b6103c66103c1366004612d9c565b610761565b005b6103936109dd565b6103e36103de366004612d9c565b6109e3565b604051610382949392919061307f565b610393610a27565b6103c6610409366004612ccb565b610a2d565b61039361041c366004612d9c565b610a86565b6103c661042f366004612db4565b610a9b565b6103c6610442366004612db4565b610abf565b610375610b05565b6103c661045d366004612d9c565b610b0e565b61046a610d87565b6040516103829190612fc6565b6103c6610485366004612eac565b610d96565b6103c6610498366004612d9c565b6110c8565b61046a6113b2565b6103c66104b3366004612d9c565b6113c1565b6103756116bc565b6103936116cc565b6103c66104d6366004612d9c565b6116d2565b6103c66116e7565b6103c66104f1366004612ecd565b61170e565b6103c661184a565b610393611895565b6103c6610514366004612e6b565b61189b565b61046a6118e6565b6103936118f5565b61053c610537366004612efa565b6118fb565b60405161038292919061352f565b61046a6119a8565b6103c6610560366004612e34565b6119b7565b61046a611a33565b61046a611a42565b610393610583366004612eac565b611a51565b610375610596366004612db4565b611a72565b6105ae6105a9366004612db4565b611a9b565b6040516103829796959493929190613561565b610393611aea565b6103936105d7366004612eac565b611af0565b610393611b63565b610393611b69565b610393611b6e565b610393610602366004612db4565b611b74565b610393610615366004612d9c565b611d05565b6103c6610628366004612db4565b611d19565b61037561063b366004612d9c565b611d38565b6103c661064e366004612ce7565b611d44565b6103c6610661366004612eac565b611e0c565b610393610674366004612d9c565b612068565b6103c6610687366004612ce7565b61207c565b610393612134565b6103c66106a2366004612d1f565b61213a565b6103c66106b5366004612eac565b612395565b6103c66106c8366004612ccb565b61247f565b6103936124f0565b6103936124f6565b60006001600160e01b03198216637965db0b60e01b14806107025750610702826124fc565b90505b919050565b60145490565b6000818152601560209081526040808320338452909152812060038101541561074f57600081600301544361074591906135e8565b9250610705915050565b600081600401544361074591906135e8565b60028054141561078c5760405162461bcd60e51b8152600401610783906133e7565b60405180910390fd5b60028081905550600060146000815481106107b757634e487b7160e01b600052603260045260246000fd5b600091825260208083203384527fa31547ce6245cdb9ecea19cf8c7eb9f5974025bb4075011409251ae855b30aed90915260409092208054600490920290920192508311156108185760405162461bcd60e51b815260040161078390613367565b61082260006113c1565b6000816001015464e8d4a510008460030154846000015461084391906135c9565b61084d91906135a9565b61085791906135e8565b90508015610869576108693382612515565b831561090357815461087c9085906135e8565b8255825460405163a9059cbb60e01b81526001600160a01b039091169063a9059cbb906108af9033908890600401613052565b602060405180830381600087803b1580156108c957600080fd5b505af11580156108dd573d6000803e3d6000fd5b505050506040513d601f19601f820116820180604052508101906109019190612d80565b505b6003830154825464e8d4a510009161091a916135c9565b61092491906135a9565b6001830155600654604051632770a7eb60e21b81526001600160a01b0390911690639dc29fac9061095b9033908890600401613052565b600060405180830381600087803b15801561097557600080fd5b505af1158015610989573d6000803e3d6000fd5b505050506000336001600160a01b03167f02f25270a4d87bea75db541cdfe559334a275b4a233520ed6c0a2429667cca9486426040516109ca92919061352f565b60405180910390a3505060016002555050565b60135481565b601481815481106109f357600080fd5b600091825260209091206004909102018054600182015460028301546003909301546001600160a01b039092169350919084565b60105481565b60115460ff16610a4f5760405162461bcd60e51b8152600401610783906134a4565b601654610a6381610a5e61257d565b612581565b50600980546001600160a01b0319166001600160a01b0392909216919091179055565b60009081526020819052604090206001015490565b610aa482610a86565b610ab081610a5e61257d565b610aba83836125e5565b505050565b610ac761257d565b6001600160a01b0316816001600160a01b031614610af75760405162461bcd60e51b81526004016107839061341e565b610b01828261266a565b5050565b60115460ff1681565b600280541415610b305760405162461bcd60e51b8152600401610783906133e7565b60028055610b3c6116bc565b15610b595760405162461bcd60e51b8152600401610783906131b1565b60006014600081548110610b7d57634e487b7160e01b600052603260045260246000fd5b600091825260208083203384527fa31547ce6245cdb9ecea19cf8c7eb9f5974025bb4075011409251ae855b30aed90915260408320600490920201925090610bc4906113c1565b805415610c14576000816001015464e8d4a5100084600301548460000154610bec91906135c9565b610bf691906135a9565b610c0091906135e8565b90508015610c1257610c123382612515565b505b8215610cb05781546040516323b872dd60e01b81526001600160a01b03909116906323b872dd90610c4d9033903090889060040161302e565b602060405180830381600087803b158015610c6757600080fd5b505af1158015610c7b573d6000803e3d6000fd5b505050506040513d601f19601f82011682018060405250810190610c9f9190612d80565b508054610cad908490613591565b81555b6003820154815464e8d4a5100091610cc7916135c9565b610cd191906135a9565b60018201556006546040516340c10f1960e01b81526001600160a01b03909116906340c10f1990610d089033908790600401613052565b600060405180830381600087803b158015610d2257600080fd5b505af1158015610d36573d6000803e3d6000fd5b505050506000336001600160a01b03167f90890809c654f11d6e72a28fa60149770a0d11ec6c92319d6ceb2bb0a4ea1a1585604051610d759190613076565b60405180910390a35050600160025550565b6008546001600160a01b031681565b600280541415610db85760405162461bcd60e51b8152600401610783906133e7565b6002805560145482908110610ddf5760405162461bcd60e51b81526004016107839061333a565b82610dfc5760405162461bcd60e51b815260040161078390613231565b600060148481548110610e1f57634e487b7160e01b600052603260045260246000fd5b600091825260208083208784526015825260408085203386529092529220805460049092029092019250841115610e685760405162461bcd60e51b815260040161078390613393565b610e71856113c1565b6000816001015464e8d4a5100084600301548460000154610e9291906135c9565b610e9c91906135a9565b610ea691906135e8565b90508015610eb857610eb83382612515565b8415610f0657600682015415610ee1576006820154610ed790426135e8565b6005830155610ef6565b6004820154610ef090426135e8565b60058301555b8154610f039086906135e8565b82555b600086815260156020908152604080832033845290915281206005015490610f2f8883896118fb565b915060009050610f3f82896135e8565b865460085460405163a9059cbb60e01b81529293506001600160a01b039182169263a9059cbb92610f769216908590600401613052565b602060405180830381600087803b158015610f9057600080fd5b505af1158015610fa4573d6000803e3d6000fd5b505050506040513d601f19601f82011682018060405250810190610fc89190612d80565b50855460405163a9059cbb60e01b81526001600160a01b039091169063a9059cbb90610ffa9033908690600401613052565b602060405180830381600087803b15801561101457600080fd5b505af1158015611028573d6000803e3d6000fd5b505050506040513d601f19601f8201168201806040525081019061104c9190612d80565b506003860154855464e8d4a5100091611064916135c9565b61106e91906135a9565b600186015542600386018190556040518a9133917f02f25270a4d87bea75db541cdfe559334a275b4a233520ed6c0a2429667cca94916110b0918d919061352f565b60405180910390a35050600160025550505050505050565b60115460ff166110ea5760405162461bcd60e51b8152600401610783906134a4565b6014548190811061110d5760405162461bcd60e51b81526004016107839061333a565b6009546001600160a01b03166111355760405162461bcd60e51b815260040161078390613208565b60006014838154811061115857634e487b7160e01b600052603260045260246000fd5b60009182526020822060049182020180546040516370a0823160e01b81529194506001600160a01b0316929183916370a082319161119891309101612fc6565b60206040518083038186803b1580156111b057600080fd5b505afa1580156111c4573d6000803e3d6000fd5b505050506040513d601f19601f820116820180604052508101906111e89190612e1c565b60095460405163095ea7b360e01b81529192506001600160a01b038085169263095ea7b39261121d9216908590600401613052565b602060405180830381600087803b15801561123757600080fd5b505af115801561124b573d6000803e3d6000fd5b505050506040513d601f19601f8201168201806040525081019061126f9190612d80565b5060095460405163ce5494bb60e01b81526000916001600160a01b03169063ce5494bb906112a1908690600401612fc6565b602060405180830381600087803b1580156112bb57600080fd5b505af11580156112cf573d6000803e3d6000fd5b505050506040513d601f19601f820116820180604052508101906112f39190612e00565b6040516370a0823160e01b81529091506001600160a01b038216906370a0823190611322903090600401612fc6565b60206040518083038186803b15801561133a57600080fd5b505afa15801561134e573d6000803e3d6000fd5b505050506040513d601f19601f820116820180604052508101906113729190612e1c565b82146113905760405162461bcd60e51b81526004016107839061346d565b83546001600160a01b0319166001600160a01b03919091161790925550505050565b6006546001600160a01b031681565b601454819081106113e45760405162461bcd60e51b81526004016107839061333a565b60006014838154811061140757634e487b7160e01b600052603260045260246000fd5b90600052602060002090600402019050806002015442116114285750610b01565b80546040516370a0823160e01b81526000916001600160a01b0316906370a0823190611458903090600401612fc6565b60206040518083038186803b15801561147057600080fd5b505afa158015611484573d6000803e3d6000fd5b505050506040513d601f19601f820116820180604052508101906114a89190612e1c565b9050806114bc575042600290910155610b01565b60006114cc836002015442611a51565b905060006010548460010154600d54846114e691906135c9565b6114f091906135c9565b6114fa91906135a9565b90506000650746a52880006115148364e8d4a510006135c9565b61151e91906135a9565b9050600061152d8260026135c9565b9050600061153b82856135e8565b600480546007546040516340c10f1960e01b81529394506001600160a01b03918216936340c10f19936115749390921691889101613052565b600060405180830381600087803b15801561158e57600080fd5b505af11580156115a2573d6000803e3d6000fd5b5050600480546008546040516340c10f1960e01b81526001600160a01b0392831695506340c10f1994506115dd939190921691889101613052565b600060405180830381600087803b1580156115f757600080fd5b505af115801561160b573d6000803e3d6000fd5b5050600480546006546040516340c10f1960e01b81526001600160a01b0392831695506340c10f199450611646939190921691869101613052565b600060405180830381600087803b15801561166057600080fd5b505af1158015611674573d6000803e3d6000fd5b50505050858464e8d4a5100061168a91906135c9565b61169491906135a9565b87600301546116a39190613591565b6003880155505042600290950194909455505050505050565b600154600160a01b900460ff1690565b600d5481565b6017546116e181610a5e61257d565b50600e55565b60145460005b81811015610b01576116fe816113c1565b61170781613642565b90506116ed565b60115460ff166117305760405162461bcd60e51b8152600401610783906134a4565b601454839081106117535760405162461bcd60e51b81526004016107839061333a565b60175461176281610a5e61257d565b8215611770576117706116e7565b60006014868154811061179357634e487b7160e01b600052603260045260246000fd5b906000526020600020906004020160010154905084601487815481106117c957634e487b7160e01b600052603260045260246000fd5b9060005260206000209060040201600101819055508481146118095784816010546117f491906135e8565b6117fe9190613591565b6010556118096126ed565b7fd88f859573973e938da5bf3e5100c16eee2090fa720e05ae3d452b4cd05cdcfd868660405161183a92919061352f565b60405180910390a1505050505050565b61185261257d565b6001600160a01b0316611863611a42565b6001600160a01b0316146118895760405162461bcd60e51b81526004016107839061329f565b61189360006127ef565b565b600f5481565b60115460ff166118bd5760405162461bcd60e51b8152600401610783906134a4565b6016546118cc81610a5e61257d565b6118d583612841565b6118e08484846128c2565b50505050565b6009546001600160a01b031681565b600c5481565b600080600061190d6106748787611af0565b90506000606461191d83876135c9565b61192791906135a9565b90506119566040518060400160405280600b81526020016a666565526174653a20257360a81b815250836129cf565b61198d6040518060400160405280600d81526020016c666565416d6f756e743a20257360981b81525061198883612068565b6129cf565b600061199982876135e8565b91989197509095505050505050565b6004546001600160a01b031681565b6017546119c681610a5e61257d565b60008481526015602090815260408083206001600160a01b0387168452909152908190206004810184905590517f40d6e8e3d60e4693375c73df2d1a71d582a28197c98fd8d2badad6ead06af64c90611a2490879087908790613510565b60405180910390a15050505050565b6007546001600160a01b031681565b6001546001600160a01b031690565b600e54600090611a6184846135e8565b611a6b91906135c9565b9392505050565b6000918252602082815260408084206001600160a01b0393909316845291905290205460ff1690565b6015602052816000526040600020602052806000526040600020600091509150508060000154908060010154908060020154908060030154908060040154908060050154908060060154905087565b600a5481565b600080620151808310611b0f57611b0a62015180846135a9565b611b12565b60005b9050600060125482611b2491906135c9565b90506000601354821015611b455781601354611b4091906135e8565b611b48565b60005b90508515611b565780611b59565b60005b9695505050505050565b600b5481565b600081565b600e5481565b60008060148481548110611b9857634e487b7160e01b600052603260045260246000fd5b600091825260208083208784526015825260408085206001600160a01b038981168752935280852060049485029092016003810154815492516370a0823160e01b815291975092959294929391909116916370a0823191611bfb91309101612fc6565b60206040518083038186803b158015611c1357600080fd5b505afa158015611c27573d6000803e3d6000fd5b505050506040513d601f19601f82011682018060405250810190611c4b9190612e1c565b9050836002015442118015611c5f57508015155b15611ccd576000611c74856002015442611a51565b905060006010548660010154600d5484611c8e91906135c9565b611c9891906135c9565b611ca291906135a9565b905082611cb48264e8d4a510006135c9565b611cbe91906135a9565b611cc89085613591565b935050505b6001830154835464e8d4a5100090611ce69085906135c9565b611cf091906135a9565b611cfa91906135e8565b979650505050505050565b600061070282670de0b6b3a76400006135c9565b611d2282610a86565b611d2e81610a5e61257d565b610aba838361266a565b60006107028233611a72565b601654611d5381610a5e61257d565b6008546001600160a01b038481169116141580611d7e57506007546001600160a01b03838116911614155b611d9a5760405162461bcd60e51b81526004016107839061330b565b600880546001600160a01b038086166001600160a01b0319928316179283905560078054868316931692909217918290556040517fd1c04282701cbf58aa2f0026f6876051cf3feb8ee7b8b5b5532ebb4ab03fb5d493611dff93908316921690612fda565b60405180910390a1505050565b600280541415611e2e5760405162461bcd60e51b8152600401610783906133e7565b6002805560145482908110611e555760405162461bcd60e51b81526004016107839061333a565b611e5d6116bc565b15611e7a5760405162461bcd60e51b8152600401610783906131b1565b82611e975760405162461bcd60e51b815260040161078390613268565b600060148481548110611eba57634e487b7160e01b600052603260045260246000fd5b60009182526020808320878452601582526040808520338652909252922060049091029091019150611eeb856113c1565b805415611f3b576000816001015464e8d4a5100084600301548460000154611f1391906135c9565b611f1d91906135a9565b611f2791906135e8565b90508015611f3957611f393382612515565b505b8315611fd75781546040516323b872dd60e01b81526001600160a01b03909116906323b872dd90611f749033903090899060040161302e565b602060405180830381600087803b158015611f8e57600080fd5b505af1158015611fa2573d6000803e3d6000fd5b505050506040513d601f19601f82011682018060405250810190611fc69190612d80565b508054611fd4908590613591565b81555b6003820154815464e8d4a5100091611fee916135c9565b611ff891906135a9565b60018201556004810154612013574281600401819055612019565b60048101545b5084336001600160a01b03167f90890809c654f11d6e72a28fa60149770a0d11ec6c92319d6ceb2bb0a4ea1a15866040516120549190613076565b60405180910390a350506001600255505050565b6000610702670de0b6b3a7640000836135a9565b60165461208b81610a5e61257d565b6004546001600160a01b0384811691161415806120b657506006546001600160a01b03838116911614155b6120d25760405162461bcd60e51b8152600401610783906132d4565b600480546001600160a01b038086166001600160a01b03199283161790925560068054928516929091169190911790556040517fdcc6331013de89f8c595d5328f0a724194f113cb6f8f2a707b3dff6de13f0d1790611dff9085908590612fda565b60165481565b60165461214981610a5e61257d565b60115460ff161561216c5760405162461bcd60e51b8152600401610783906131db565b600380546001600160a01b03808b166001600160a01b03199283161790925560058054928a169290911691909117905542600f556121aa8587613591565b600a55600b8590556121bb83611d05565b6013556121c782611d05565b601255600354600480546001600160a01b039283166001600160a01b03199182161790915560055460068054919093169116179055600b54600a54859161220d91612a14565b60408051608081018252600480546001600160a01b03908116835260208301858152600f54948401948552600060608501818152601480546001808201835591845296517fce6d7b5282bd9a3661ae061feed1dbda4e52ab073b1f9285be6e155d9c38d4ec9790960296870180546001600160a01b031916969095169590951790935590517fce6d7b5282bd9a3661ae061feed1dbda4e52ab073b1f9285be6e155d9c38d4ed85015593517fce6d7b5282bd9a3661ae061feed1dbda4e52ab073b1f9285be6e155d9c38d4ee840155517fce6d7b5282bd9a3661ae061feed1dbda4e52ab073b1f9285be6e155d9c38d4ef909201919091556011805460ff1916909117905560108054839290612324908490613591565b9091555050600754600854600354600554601054600b546040517f0476c5e4920930815a67a5a042e26836431f494d3be0f6e10c3034787a7a15f996612382966001600160a01b039182169690821695908216949116929091612ff4565b60405180910390a1505050505050505050565b6017546123a481610a5e61257d565b82600b541415806123b7575081600a5414155b6123d35760405162461bcd60e51b81526004016107839061317a565b828210156123f35760405162461bcd60e51b8152600401610783906134db565b600b839055600a82905560408051808201909152601981527f6e657720776569676874733a202573206f7574206f6620257300000000000000602082015261243c908484612ab1565b61244a600b54600a54612a14565b7fb298bc23e07860d501fddce288f46d761aa04a0c7c3316099eb50f097aacf304600b54600a54604051611dff92919061352f565b61248761257d565b6001600160a01b0316612498611a42565b6001600160a01b0316146124be5760405162461bcd60e51b81526004016107839061329f565b6001600160a01b0381166124e45760405162461bcd60e51b815260040161078390613134565b6124ed816127ef565b50565b60125481565b60175481565b6001600160e01b031981166301ffc9a760e01b14919050565b600654604051635950a15560e11b81526001600160a01b039091169063b2a142aa906125479085908590600401613052565b600060405180830381600087803b15801561256157600080fd5b505af1158015612575573d6000803e3d6000fd5b505050505050565b3390565b61258b8282611a72565b610b01576125a3816001600160a01b03166014612af8565b6125ae836020612af8565b6040516020016125bf929190612f51565b60408051601f198184030181529082905262461bcd60e51b8252610783916004016130a5565b6125ef8282611a72565b610b01576000828152602081815260408083206001600160a01b03851684529091529020805460ff1916600117905561262661257d565b6001600160a01b0316816001600160a01b0316837f2f8788117e7eff1d82e926ec794901d17c78024a50270940304540a733656f0d60405160405180910390a45050565b6126748282611a72565b15610b01576000828152602081815260408083206001600160a01b03851684529091529020805460ff191690556126a961257d565b6001600160a01b0316816001600160a01b0316837ff6391f5c32d9c69d2a47ea670b442974b53935d1edc7fd64eb21e047a839171b60405160405180910390a45050565b601454600060015b8281101561274d576014818154811061271e57634e487b7160e01b600052603260045260246000fd5b9060005260206000209060040201600101548261273b9190613591565b915061274681613642565b90506126f5565b508015610b015761275f6003826135a9565b905080601460008154811061278457634e487b7160e01b600052603260045260246000fd5b9060005260206000209060040201600101546010546127a391906135e8565b6127ad9190613591565b6010819055508060146000815481106127d657634e487b7160e01b600052603260045260246000fd5b9060005260206000209060040201600101819055505050565b600180546001600160a01b038381166001600160a01b0319831681179093556040519116919082907f8be0079c531659141344cd1fd0a4f28419497f9722a3daafe3b4186f6b6457e090600090a35050565b60145460005b81811015610aba57826001600160a01b03166014828154811061287a57634e487b7160e01b600052603260045260246000fd5b60009182526020909120600490910201546001600160a01b031614156128b25760405162461bcd60e51b8152600401610783906133be565b6128bb81613642565b9050612847565b80156128d0576128d06116e7565b82601060008282546128e29190613591565b9250508190555060146040518060800160405280846001600160a01b03168152602001858152602001600f54421161291c57600f5461291e565b425b81526000602091820181905283546001808201865594825290829020835160049092020180546001600160a01b0319166001600160a01b03909216919091178155908201519281019290925560408101516002830155606001516003909101556129866126ed565b6014546010546040517f20b669aa921947a6d9602a921d2db3b6b30f21b9aca98580fa3972530330b27a916129c1918491889188919061353d565b60405180910390a150505050565b610b0182826040516024016129e59291906130b8565b60408051601f198184030181529190526020810180516001600160e01b03166309710a9d60e41b179052612caa565b600081612a2084611d05565b612a2a91906135a9565b9050612a5a6040518060400160405280600981526020016873686172653a20257360b81b81525061198883612068565b612a67816203d0906135c9565b600c819055612a7a9062015180906135a9565b600d819055600c546040517fcd7c861d63893659123f817b192b8621ff1923a7c4589c260173cedcf9e986a692611dff929161352f565b610aba838383604051602401612ac9939291906130da565b60408051601f198184030181529190526020810180516001600160e01b031663969cdd0360e01b179052612caa565b60606000612b078360026135c9565b612b12906002613591565b67ffffffffffffffff811115612b3857634e487b7160e01b600052604160045260246000fd5b6040519080825280601f01601f191660200182016040528015612b62576020820181803683370190505b509050600360fc1b81600081518110612b8b57634e487b7160e01b600052603260045260246000fd5b60200101906001600160f81b031916908160001a905350600f60fb1b81600181518110612bc857634e487b7160e01b600052603260045260246000fd5b60200101906001600160f81b031916908160001a9053506000612bec8460026135c9565b612bf7906001613591565b90505b6001811115612c8b576f181899199a1a9b1b9c1cb0b131b232b360811b85600f1660108110612c3957634e487b7160e01b600052603260045260246000fd5b1a60f81b828281518110612c5d57634e487b7160e01b600052603260045260246000fd5b60200101906001600160f81b031916908160001a90535060049490941c93612c848161362b565b9050612bfa565b508315611a6b5760405162461bcd60e51b8152600401610783906130ff565b80516a636f6e736f6c652e6c6f67602083016000808483855afa5050505050565b600060208284031215612cdc578081fd5b8135611a6b81613673565b60008060408385031215612cf9578081fd5b8235612d0481613673565b91506020830135612d1481613673565b809150509250929050565b600080600080600080600060e0888a031215612d39578283fd5b8735612d4481613673565b96506020880135612d5481613673565b96999698505050506040850135946060810135946080820135945060a0820135935060c0909101359150565b600060208284031215612d91578081fd5b8151611a6b81613688565b600060208284031215612dad578081fd5b5035919050565b60008060408385031215612dc6578182fd5b823591506020830135612d1481613673565b600060208284031215612de9578081fd5b81356001600160e01b031981168114611a6b578182fd5b600060208284031215612e11578081fd5b8151611a6b81613673565b600060208284031215612e2d578081fd5b5051919050565b600080600060608486031215612e48578283fd5b833592506020840135612e5a81613673565b929592945050506040919091013590565b600080600060608486031215612e7f578283fd5b833592506020840135612e9181613673565b91506040840135612ea181613688565b809150509250925092565b60008060408385031215612ebe578182fd5b50508035926020909101359150565b600080600060608486031215612ee1578081fd5b83359250602084013591506040840135612ea181613688565b600080600060608486031215612f0e578081fd5b505081359360208301359350604090920135919050565b60008151808452612f3d8160208601602086016135ff565b601f01601f19169290920160200192915050565b60007f416363657373436f6e74726f6c3a206163636f756e742000000000000000000082528351612f898160178501602088016135ff565b7001034b99036b4b9b9b4b733903937b6329607d1b6017918401918201528351612fba8160288401602088016135ff565b01602801949350505050565b6001600160a01b0391909116815260200190565b6001600160a01b0392831681529116602082015260400190565b6001600160a01b0396871681529486166020860152928516604085015293166060830152608082019290925260a081019190915260c00190565b6001600160a01b039384168152919092166020820152604081019190915260600190565b6001600160a01b03929092168252602082015260400190565b901515815260200190565b90815260200190565b6001600160a01b0394909416845260208401929092526040830152606082015260800190565b600060208252611a6b6020830184612f25565b6000604082526130cb6040830185612f25565b90508260208301529392505050565b6000606082526130ed6060830186612f25565b60208301949094525060400152919050565b6020808252818101527f537472696e67733a20686578206c656e67746820696e73756666696369656e74604082015260600190565b60208082526026908201527f4f776e61626c653a206e6577206f776e657220697320746865207a65726f206160408201526564647265737360d01b606082015260800190565b6020808252601e908201527f6d757374206265206174206c65617374206f6e65206e65772076616c75650000604082015260600190565b60208082526010908201526f14185d5cd8589b194e881c185d5cd95960821b604082015260600190565b602080825260139082015272185b1c9958591e481a5b9a5d1a585b1a5e9959606a1b604082015260600190565b6020808252600f908201526e1b9bc81b5a59dc985d1bdc881cd95d608a1b604082015260600190565b6020808252601a908201527f776974686472617720534f554c20627920756e7374616b696e67000000000000604082015260600190565b60208082526017908201527f6465706f73697420534f554c206279207374616b696e67000000000000000000604082015260600190565b6020808252818101527f4f776e61626c653a2063616c6c6572206973206e6f7420746865206f776e6572604082015260600190565b6020808252601b908201527f6d7573742062652061206e657720746f6b656e20616464726573730000000000604082015260600190565b6020808252601590820152741b5d5cdd0818994818481b995dc81858d8dbdd5b9d605a1b604082015260600190565b6020808252601390820152721c1bdbdb08191bd95cc81b9bdd08195e1a5cdd606a1b604082015260600190565b6020808252601290820152711dda5d1a191c985dce881b9bdd0819dbdbd960721b604082015260600190565b6020808252601190820152701dda5d1a191c985dc81b9bdd0819dbdbd9607a1b604082015260600190565b6020808252600f908201526e191d5c1b1a58d85d1959081c1bdbdb608a1b604082015260600190565b6020808252601f908201527f5265656e7472616e637947756172643a207265656e7472616e742063616c6c00604082015260600190565b6020808252602f908201527f416363657373436f6e74726f6c3a2063616e206f6e6c792072656e6f756e636560408201526e103937b632b9903337b91039b2b63360891b606082015260800190565b6020808252601d908201527f6d6967726174653a20696e73756666696369656e742062616c616e6365000000604082015260600190565b6020808252601a908201527f726577617264732068617665206e6f742079657420626567756e000000000000604082015260600190565b6020808252818101527f7765696768742063616e6e6f742065786365656420746f74616c576569676874604082015260600190565b9283526001600160a01b03919091166020830152604082015260600190565b918252602082015260400190565b93845260208401929092526001600160a01b03166040830152606082015260800190565b968752602087019590955260408601939093526060850191909152608084015260a083015260c082015260e00190565b600082198211156135a4576135a461365d565b500190565b6000826135c457634e487b7160e01b81526012600452602481fd5b500490565b60008160001904831182151516156135e3576135e361365d565b500290565b6000828210156135fa576135fa61365d565b500390565b60005b8381101561361a578181015183820152602001613602565b838111156118e05750506000910152565b60008161363a5761363a61365d565b506000190190565b60006000198214156136565761365661365d565b5060010190565b634e487b7160e01b600052601160045260246000fd5b6001600160a01b03811681146124ed57600080fd5b80151581146124ed57600080fdfea2646970667358221220c29bc7916140fcb809060a426b4b40ff14b810df066e9ba04a1b2aa251f0380664736f6c63430008000033",
    "sourcePath": "/Users/unico/Documents/GitHub/SoulSwap/soulswap-farms/contracts/mocks/MockSoulSummoner.sol",
    "compiler": {
        "name": "solc",
        "version": "0.8.0+commit.c7dfd78e"
    },
    "functionHashes": {
        "DEFAULT_ADMIN_ROLE()": "a217fddf",
        "addPool(uint256,address,bool)": "7abceffd",
        "bonusMultiplier()": "a8b973a1",
        "dailyDecay()": "fc90fdc0",
        "dailySoul()": "7d500ec8",
        "dao()": "4162169f",
        "deposit(uint256,uint256)": "e2bbb158",
        "enWei(uint256)": "cf94ee96",
        "enterStaking(uint256)": "41441d3b",
        "fromWei(uint256)": "e65d1522",
        "getFeeRate(uint256,uint256)": "9f6c5426",
        "getMultiplier(uint256,uint256)": "8dbb1e3a",
        "getRoleAdmin(bytes32)": "248a9ca3",
        "getWithdrawable(uint256,uint256,uint256)": "7e668b42",
        "grantRole(bytes32,address)": "2f2ff15d",
        "hasDivineRole(bytes32)": "dbaef9b0",
        "hasRole(bytes32,address)": "91d14854",
        "initialize(address,address,uint256,uint256,uint256,uint256,uint256)": "edbf4ac2",
        "isInitialized()": "392e53cd",
        "isis()": "ea4bf446",
        "leaveStaking(uint256)": "1058d281",
        "maat()": "fd6f99d0",
        "massUpdatePools()": "630b5ba1",
        "migrate(uint256)": "454b0608",
        "migrator()": "7cd07e47",
        "owner()": "8da5cb5b",
        "paused()": "5c975abb",
        "pendingSoul(uint256,address)": "bfafcad5",
        "poolInfo(uint256)": "1526fe27",
        "poolLength()": "081e3eda",
        "renounceOwnership()": "715018a6",
        "renounceRole(bytes32,address)": "36568abe",
        "reviseDeposit(uint256,address,uint256)": "82386d58",
        "revokeRole(bytes32,address)": "d547741f",
        "seance()": "4ca01d45",
        "set(uint256,uint256,bool)": "64482f79",
        "setMigrator(address)": "23cf3118",
        "soul()": "815b7a8c",
        "soulPerSecond()": "5f9bf689",
        "startRate()": "1254f0dc",
        "startTime()": "78e97925",
        "supportsInterface(bytes4)": "01ffc9a7",
        "team()": "85f2aef2",
        "totalAllocPoint()": "17caf6f1",
        "totalWeight()": "96c82e57",
        "transferOwnership(address)": "f2fde38b",
        "updateAccounts(address,address)": "e13e8ec2",
        "updateMultiplier(uint256)": "5ffe6146",
        "updatePool(uint256)": "51eb05a6",
        "updateTokens(address,address)": "e7aa29e3",
        "updateWeights(uint256,uint256)": "f107fd85",
        "userDelta(uint256)": "09ae4d2c",
        "userInfo(uint256,address)": "93f1a40b",
        "weight()": "a1aab33f",
        "withdraw(uint256,uint256)": "441a3e70"
    },
    "gasEstimates": {
        "creation": {
            "codeDepositCost": "2805600",
            "executionCost": "infinite",
            "totalCost": "infinite"
        },
        "external": {
            "DEFAULT_ADMIN_ROLE()": "339",
            "addPool(uint256,address,bool)": "infinite",
            "bonusMultiplier()": "1161",
            "dailyDecay()": "1138",
            "dailySoul()": "1097",
            "dao()": "1139",
            "deposit(uint256,uint256)": "infinite",
            "enWei(uint256)": "498",
            "enterStaking(uint256)": "infinite",
            "fromWei(uint256)": "509",
            "getFeeRate(uint256,uint256)": "3170",
            "getMultiplier(uint256,uint256)": "1436",
            "getRoleAdmin(bytes32)": "1293",
            "getWithdrawable(uint256,uint256,uint256)": "infinite",
            "grantRole(bytes32,address)": "infinite",
            "hasDivineRole(bytes32)": "1389",
            "hasRole(bytes32,address)": "1450",
            "initialize(address,address,uint256,uint256,uint256,uint256,uint256)": "infinite",
            "isInitialized()": "1152",
            "isis()": "1117",
            "leaveStaking(uint256)": "infinite",
            "maat()": "1160",
            "massUpdatePools()": "infinite",
            "migrate(uint256)": "infinite",
            "migrator()": "1203",
            "owner()": "1182",
            "paused()": "1169",
            "pendingSoul(uint256,address)": "infinite",
            "poolInfo(uint256)": "4717",
            "poolLength()": "1097",
            "renounceOwnership()": "23574",
            "renounceRole(bytes32,address)": "infinite",
            "reviseDeposit(uint256,address,uint256)": "infinite",
            "revokeRole(bytes32,address)": "infinite",
            "seance()": "1138",
            "set(uint256,uint256,bool)": "infinite",
            "setMigrator(address)": "infinite",
            "soul()": "1183",
            "soulPerSecond()": "1162",
            "startRate()": "1163",
            "startTime()": "1117",
            "supportsInterface(bytes4)": "543",
            "team()": "1160",
            "totalAllocPoint()": "1097",
            "totalWeight()": "1140",
            "transferOwnership(address)": "infinite",
            "updateAccounts(address,address)": "infinite",
            "updateMultiplier(uint256)": "infinite",
            "updatePool(uint256)": "infinite",
            "updateTokens(address,address)": "infinite",
            "updateWeights(uint256,uint256)": "infinite",
            "userDelta(uint256)": "2269",
            "userInfo(uint256,address)": "6463",
            "weight()": "1117",
            "withdraw(uint256,uint256)": "infinite"
        },
        "internal": {
            "_addPool(uint256,contract IERC20,bool)": "infinite",
            "_divinationCeremony(bytes32,bytes32,address)": "infinite",
            "checkPoolDuplicate(contract IERC20)": "infinite",
            "safeSoulTransfer(address,uint256)": "infinite",
            "updateRewards(uint256,uint256)": "infinite",
            "updateStakingPool()": "infinite"
        }
    }
}