{
    "contractName": "MockSoulSummoner",
    "abi": [
        {
            "inputs": [],
            "stateMutability": "nonpayable",
            "type": "constructor"
        },
        {
            "anonymous": false,
            "inputs": [
                {
                    "indexed": false,
                    "internalType": "address",
                    "name": "dao",
                    "type": "address"
                },
                {
                    "indexed": false,
                    "internalType": "address",
                    "name": "team",
                    "type": "address"
                }
            ],
            "name": "AccountsUpdated",
            "type": "event"
        },
        {
            "anonymous": false,
            "inputs": [
                {
                    "indexed": true,
                    "internalType": "address",
                    "name": "user",
                    "type": "address"
                },
                {
                    "indexed": true,
                    "internalType": "uint256",
                    "name": "pid",
                    "type": "uint256"
                },
                {
                    "indexed": false,
                    "internalType": "uint256",
                    "name": "amount",
                    "type": "uint256"
                }
            ],
            "name": "Deposit",
            "type": "event"
        },
        {
            "anonymous": false,
            "inputs": [
                {
                    "indexed": false,
                    "internalType": "uint256",
                    "name": "_pid",
                    "type": "uint256"
                },
                {
                    "indexed": false,
                    "internalType": "address",
                    "name": "_user",
                    "type": "address"
                },
                {
                    "indexed": false,
                    "internalType": "uint256",
                    "name": "_time",
                    "type": "uint256"
                }
            ],
            "name": "DepositRevised",
            "type": "event"
        },
        {
            "anonymous": false,
            "inputs": [
                {
                    "indexed": false,
                    "internalType": "address",
                    "name": "team",
                    "type": "address"
                },
                {
                    "indexed": false,
                    "internalType": "address",
                    "name": "dao",
                    "type": "address"
                },
                {
                    "indexed": false,
                    "internalType": "address",
                    "name": "soul",
                    "type": "address"
                },
                {
                    "indexed": false,
                    "internalType": "address",
                    "name": "seance",
                    "type": "address"
                },
                {
                    "indexed": false,
                    "internalType": "uint256",
                    "name": "totalAllocPoint",
                    "type": "uint256"
                },
                {
                    "indexed": false,
                    "internalType": "uint256",
                    "name": "weight",
                    "type": "uint256"
                }
            ],
            "name": "Initialized",
            "type": "event"
        },
        {
            "anonymous": false,
            "inputs": [
                {
                    "indexed": true,
                    "internalType": "address",
                    "name": "previousOwner",
                    "type": "address"
                },
                {
                    "indexed": true,
                    "internalType": "address",
                    "name": "newOwner",
                    "type": "address"
                }
            ],
            "name": "OwnershipTransferred",
            "type": "event"
        },
        {
            "anonymous": false,
            "inputs": [
                {
                    "indexed": false,
                    "internalType": "address",
                    "name": "account",
                    "type": "address"
                }
            ],
            "name": "Paused",
            "type": "event"
        },
        {
            "anonymous": false,
            "inputs": [
                {
                    "indexed": false,
                    "internalType": "uint256",
                    "name": "pid",
                    "type": "uint256"
                },
                {
                    "indexed": false,
                    "internalType": "uint256",
                    "name": "allocPoint",
                    "type": "uint256"
                },
                {
                    "indexed": false,
                    "internalType": "contract IERC20",
                    "name": "lpToken",
                    "type": "address"
                },
                {
                    "indexed": false,
                    "internalType": "uint256",
                    "name": "totalAllocPoint",
                    "type": "uint256"
                }
            ],
            "name": "PoolAdded",
            "type": "event"
        },
        {
            "anonymous": false,
            "inputs": [
                {
                    "indexed": false,
                    "internalType": "uint256",
                    "name": "pid",
                    "type": "uint256"
                },
                {
                    "indexed": false,
                    "internalType": "uint256",
                    "name": "allocPoint",
                    "type": "uint256"
                }
            ],
            "name": "PoolSet",
            "type": "event"
        },
        {
            "anonymous": false,
            "inputs": [
                {
                    "indexed": false,
                    "internalType": "uint256",
                    "name": "dailySoul",
                    "type": "uint256"
                },
                {
                    "indexed": false,
                    "internalType": "uint256",
                    "name": "soulPerSecond",
                    "type": "uint256"
                }
            ],
            "name": "RewardsUpdated",
            "type": "event"
        },
        {
            "anonymous": false,
            "inputs": [
                {
                    "indexed": true,
                    "internalType": "bytes32",
                    "name": "role",
                    "type": "bytes32"
                },
                {
                    "indexed": true,
                    "internalType": "bytes32",
                    "name": "previousAdminRole",
                    "type": "bytes32"
                },
                {
                    "indexed": true,
                    "internalType": "bytes32",
                    "name": "newAdminRole",
                    "type": "bytes32"
                }
            ],
            "name": "RoleAdminChanged",
            "type": "event"
        },
        {
            "anonymous": false,
            "inputs": [
                {
                    "indexed": false,
                    "internalType": "bytes32",
                    "name": "role",
                    "type": "bytes32"
                },
                {
                    "indexed": false,
                    "internalType": "bytes32",
                    "name": "supreme",
                    "type": "bytes32"
                }
            ],
            "name": "RoleDivinated",
            "type": "event"
        },
        {
            "anonymous": false,
            "inputs": [
                {
                    "indexed": true,
                    "internalType": "bytes32",
                    "name": "role",
                    "type": "bytes32"
                },
                {
                    "indexed": true,
                    "internalType": "address",
                    "name": "account",
                    "type": "address"
                },
                {
                    "indexed": true,
                    "internalType": "address",
                    "name": "sender",
                    "type": "address"
                }
            ],
            "name": "RoleGranted",
            "type": "event"
        },
        {
            "anonymous": false,
            "inputs": [
                {
                    "indexed": true,
                    "internalType": "bytes32",
                    "name": "role",
                    "type": "bytes32"
                },
                {
                    "indexed": true,
                    "internalType": "address",
                    "name": "account",
                    "type": "address"
                },
                {
                    "indexed": true,
                    "internalType": "address",
                    "name": "sender",
                    "type": "address"
                }
            ],
            "name": "RoleRevoked",
            "type": "event"
        },
        {
            "anonymous": false,
            "inputs": [
                {
                    "indexed": false,
                    "internalType": "uint256",
                    "name": "startRate",
                    "type": "uint256"
                }
            ],
            "name": "StartRateUpdated",
            "type": "event"
        },
        {
            "anonymous": false,
            "inputs": [
                {
                    "indexed": false,
                    "internalType": "address",
                    "name": "soul",
                    "type": "address"
                },
                {
                    "indexed": false,
                    "internalType": "address",
                    "name": "seance",
                    "type": "address"
                }
            ],
            "name": "TokensUpdated",
            "type": "event"
        },
        {
            "anonymous": false,
            "inputs": [
                {
                    "indexed": false,
                    "internalType": "address",
                    "name": "account",
                    "type": "address"
                }
            ],
            "name": "Unpaused",
            "type": "event"
        },
        {
            "anonymous": false,
            "inputs": [
                {
                    "indexed": false,
                    "internalType": "uint256",
                    "name": "weight",
                    "type": "uint256"
                },
                {
                    "indexed": false,
                    "internalType": "uint256",
                    "name": "totalWeight",
                    "type": "uint256"
                }
            ],
            "name": "WeightUpdated",
            "type": "event"
        },
        {
            "anonymous": false,
            "inputs": [
                {
                    "indexed": true,
                    "internalType": "address",
                    "name": "user",
                    "type": "address"
                },
                {
                    "indexed": true,
                    "internalType": "uint256",
                    "name": "pid",
                    "type": "uint256"
                },
                {
                    "indexed": false,
                    "internalType": "uint256",
                    "name": "amount",
                    "type": "uint256"
                },
                {
                    "indexed": false,
                    "internalType": "uint256",
                    "name": "timeStamp",
                    "type": "uint256"
                }
            ],
            "name": "Withdraw",
            "type": "event"
        },
        {
            "inputs": [],
            "name": "DEFAULT_ADMIN_ROLE",
            "outputs": [
                {
                    "internalType": "bytes32",
                    "name": "",
                    "type": "bytes32"
                }
            ],
            "stateMutability": "view",
            "type": "function"
        },
        {
            "inputs": [
                {
                    "internalType": "uint256",
                    "name": "_allocPoint",
                    "type": "uint256"
                },
                {
                    "internalType": "contract IERC20",
                    "name": "_lpToken",
                    "type": "address"
                },
                {
                    "internalType": "bool",
                    "name": "_withUpdate",
                    "type": "bool"
                }
            ],
            "name": "addPool",
            "outputs": [],
            "stateMutability": "nonpayable",
            "type": "function"
        },
        {
            "inputs": [],
            "name": "bonusMultiplier",
            "outputs": [
                {
                    "internalType": "uint256",
                    "name": "",
                    "type": "uint256"
                }
            ],
            "stateMutability": "view",
            "type": "function"
        },
        {
            "inputs": [],
            "name": "dailyDecay",
            "outputs": [
                {
                    "internalType": "uint256",
                    "name": "",
                    "type": "uint256"
                }
            ],
            "stateMutability": "view",
            "type": "function"
        },
        {
            "inputs": [],
            "name": "dailySoul",
            "outputs": [
                {
                    "internalType": "uint256",
                    "name": "",
                    "type": "uint256"
                }
            ],
            "stateMutability": "view",
            "type": "function"
        },
        {
            "inputs": [],
            "name": "dao",
            "outputs": [
                {
                    "internalType": "address",
                    "name": "",
                    "type": "address"
                }
            ],
            "stateMutability": "view",
            "type": "function"
        },
        {
            "inputs": [
                {
                    "internalType": "uint256",
                    "name": "pid",
                    "type": "uint256"
                },
                {
                    "internalType": "uint256",
                    "name": "amount",
                    "type": "uint256"
                }
            ],
            "name": "deposit",
            "outputs": [],
            "stateMutability": "nonpayable",
            "type": "function"
        },
        {
            "inputs": [
                {
                    "internalType": "uint256",
                    "name": "amount",
                    "type": "uint256"
                }
            ],
            "name": "enWei",
            "outputs": [
                {
                    "internalType": "uint256",
                    "name": "",
                    "type": "uint256"
                }
            ],
            "stateMutability": "pure",
            "type": "function"
        },
        {
            "inputs": [
                {
                    "internalType": "uint256",
                    "name": "amount",
                    "type": "uint256"
                }
            ],
            "name": "enterStaking",
            "outputs": [],
            "stateMutability": "nonpayable",
            "type": "function"
        },
        {
            "inputs": [
                {
                    "internalType": "uint256",
                    "name": "amount",
                    "type": "uint256"
                }
            ],
            "name": "fromWei",
            "outputs": [
                {
                    "internalType": "uint256",
                    "name": "",
                    "type": "uint256"
                }
            ],
            "stateMutability": "pure",
            "type": "function"
        },
        {
            "inputs": [
                {
                    "internalType": "uint256",
                    "name": "pid",
                    "type": "uint256"
                },
                {
                    "internalType": "uint256",
                    "name": "timeDelta",
                    "type": "uint256"
                }
            ],
            "name": "getFeeRate",
            "outputs": [
                {
                    "internalType": "uint256",
                    "name": "feeRate",
                    "type": "uint256"
                }
            ],
            "stateMutability": "view",
            "type": "function"
        },
        {
            "inputs": [
                {
                    "internalType": "uint256",
                    "name": "from",
                    "type": "uint256"
                },
                {
                    "internalType": "uint256",
                    "name": "to",
                    "type": "uint256"
                }
            ],
            "name": "getMultiplier",
            "outputs": [
                {
                    "internalType": "uint256",
                    "name": "",
                    "type": "uint256"
                }
            ],
            "stateMutability": "view",
            "type": "function"
        },
        {
            "inputs": [
                {
                    "internalType": "bytes32",
                    "name": "role",
                    "type": "bytes32"
                }
            ],
            "name": "getRoleAdmin",
            "outputs": [
                {
                    "internalType": "bytes32",
                    "name": "",
                    "type": "bytes32"
                }
            ],
            "stateMutability": "view",
            "type": "function"
        },
        {
            "inputs": [
                {
                    "internalType": "uint256",
                    "name": "pid",
                    "type": "uint256"
                },
                {
                    "internalType": "uint256",
                    "name": "timeDelta",
                    "type": "uint256"
                },
                {
                    "internalType": "uint256",
                    "name": "amount",
                    "type": "uint256"
                }
            ],
            "name": "getWithdrawable",
            "outputs": [
                {
                    "internalType": "uint256",
                    "name": "_feeAmount",
                    "type": "uint256"
                },
                {
                    "internalType": "uint256",
                    "name": "_withdrawable",
                    "type": "uint256"
                }
            ],
            "stateMutability": "view",
            "type": "function"
        },
        {
            "inputs": [
                {
                    "internalType": "bytes32",
                    "name": "role",
                    "type": "bytes32"
                },
                {
                    "internalType": "address",
                    "name": "account",
                    "type": "address"
                }
            ],
            "name": "grantRole",
            "outputs": [],
            "stateMutability": "nonpayable",
            "type": "function"
        },
        {
            "inputs": [
                {
                    "internalType": "bytes32",
                    "name": "role",
                    "type": "bytes32"
                },
                {
                    "internalType": "address",
                    "name": "account",
                    "type": "address"
                }
            ],
            "name": "hasRole",
            "outputs": [
                {
                    "internalType": "bool",
                    "name": "",
                    "type": "bool"
                }
            ],
            "stateMutability": "view",
            "type": "function"
        },
        {
            "inputs": [
                {
                    "internalType": "address",
                    "name": "_soulAddress",
                    "type": "address"
                },
                {
                    "internalType": "address",
                    "name": "_seanceAddress",
                    "type": "address"
                },
                {
                    "internalType": "uint256",
                    "name": "_totalWeight",
                    "type": "uint256"
                },
                {
                    "internalType": "uint256",
                    "name": "_weight",
                    "type": "uint256"
                },
                {
                    "internalType": "uint256",
                    "name": "_stakingAlloc",
                    "type": "uint256"
                },
                {
                    "internalType": "uint256",
                    "name": "_startRate",
                    "type": "uint256"
                }
            ],
            "name": "initialize",
            "outputs": [],
            "stateMutability": "nonpayable",
            "type": "function"
        },
        {
            "inputs": [],
            "name": "isInitialized",
            "outputs": [
                {
                    "internalType": "bool",
                    "name": "",
                    "type": "bool"
                }
            ],
            "stateMutability": "view",
            "type": "function"
        },
        {
            "inputs": [],
            "name": "isis",
            "outputs": [
                {
                    "internalType": "bytes32",
                    "name": "",
                    "type": "bytes32"
                }
            ],
            "stateMutability": "view",
            "type": "function"
        },
        {
            "inputs": [
                {
                    "internalType": "uint256",
                    "name": "amount",
                    "type": "uint256"
                }
            ],
            "name": "leaveStaking",
            "outputs": [],
            "stateMutability": "nonpayable",
            "type": "function"
        },
        {
            "inputs": [],
            "name": "maat",
            "outputs": [
                {
                    "internalType": "bytes32",
                    "name": "",
                    "type": "bytes32"
                }
            ],
            "stateMutability": "view",
            "type": "function"
        },
        {
            "inputs": [],
            "name": "massUpdatePools",
            "outputs": [],
            "stateMutability": "nonpayable",
            "type": "function"
        },
        {
            "inputs": [
                {
                    "internalType": "uint256",
                    "name": "pid",
                    "type": "uint256"
                }
            ],
            "name": "migrate",
            "outputs": [],
            "stateMutability": "nonpayable",
            "type": "function"
        },
        {
            "inputs": [],
            "name": "migrator",
            "outputs": [
                {
                    "internalType": "contract IMigrator",
                    "name": "",
                    "type": "address"
                }
            ],
            "stateMutability": "view",
            "type": "function"
        },
        {
            "inputs": [],
            "name": "owner",
            "outputs": [
                {
                    "internalType": "address",
                    "name": "",
                    "type": "address"
                }
            ],
            "stateMutability": "view",
            "type": "function"
        },
        {
            "inputs": [],
            "name": "paused",
            "outputs": [
                {
                    "internalType": "bool",
                    "name": "",
                    "type": "bool"
                }
            ],
            "stateMutability": "view",
            "type": "function"
        },
        {
            "inputs": [
                {
                    "internalType": "uint256",
                    "name": "pid",
                    "type": "uint256"
                },
                {
                    "internalType": "address",
                    "name": "_user",
                    "type": "address"
                }
            ],
            "name": "pendingSoul",
            "outputs": [
                {
                    "internalType": "uint256",
                    "name": "pendingAmount",
                    "type": "uint256"
                }
            ],
            "stateMutability": "view",
            "type": "function"
        },
        {
            "inputs": [
                {
                    "internalType": "uint256",
                    "name": "",
                    "type": "uint256"
                }
            ],
            "name": "poolInfo",
            "outputs": [
                {
                    "internalType": "contract IERC20",
                    "name": "lpToken",
                    "type": "address"
                },
                {
                    "internalType": "uint256",
                    "name": "allocPoint",
                    "type": "uint256"
                },
                {
                    "internalType": "uint256",
                    "name": "lastRewardTime",
                    "type": "uint256"
                },
                {
                    "internalType": "uint256",
                    "name": "accSoulPerShare",
                    "type": "uint256"
                }
            ],
            "stateMutability": "view",
            "type": "function"
        },
        {
            "inputs": [],
            "name": "poolLength",
            "outputs": [
                {
                    "internalType": "uint256",
                    "name": "",
                    "type": "uint256"
                }
            ],
            "stateMutability": "view",
            "type": "function"
        },
        {
            "inputs": [],
            "name": "renounceOwnership",
            "outputs": [],
            "stateMutability": "nonpayable",
            "type": "function"
        },
        {
            "inputs": [
                {
                    "internalType": "bytes32",
                    "name": "role",
                    "type": "bytes32"
                },
                {
                    "internalType": "address",
                    "name": "account",
                    "type": "address"
                }
            ],
            "name": "renounceRole",
            "outputs": [],
            "stateMutability": "nonpayable",
            "type": "function"
        },
        {
            "inputs": [
                {
                    "internalType": "uint256",
                    "name": "_pid",
                    "type": "uint256"
                },
                {
                    "internalType": "address",
                    "name": "_user",
                    "type": "address"
                },
                {
                    "internalType": "uint256",
                    "name": "_time",
                    "type": "uint256"
                }
            ],
            "name": "reviseDeposit",
            "outputs": [],
            "stateMutability": "nonpayable",
            "type": "function"
        },
        {
            "inputs": [
                {
                    "internalType": "bytes32",
                    "name": "role",
                    "type": "bytes32"
                },
                {
                    "internalType": "address",
                    "name": "account",
                    "type": "address"
                }
            ],
            "name": "revokeRole",
            "outputs": [],
            "stateMutability": "nonpayable",
            "type": "function"
        },
        {
            "inputs": [],
            "name": "seance",
            "outputs": [
                {
                    "internalType": "contract MockSeanceCircle",
                    "name": "",
                    "type": "address"
                }
            ],
            "stateMutability": "view",
            "type": "function"
        },
        {
            "inputs": [
                {
                    "internalType": "uint256",
                    "name": "pid",
                    "type": "uint256"
                },
                {
                    "internalType": "uint256",
                    "name": "allocPoint",
                    "type": "uint256"
                },
                {
                    "internalType": "bool",
                    "name": "withUpdate",
                    "type": "bool"
                }
            ],
            "name": "set",
            "outputs": [],
            "stateMutability": "nonpayable",
            "type": "function"
        },
        {
            "inputs": [
                {
                    "internalType": "contract IMigrator",
                    "name": "_migrator",
                    "type": "address"
                }
            ],
            "name": "setMigrator",
            "outputs": [],
            "stateMutability": "nonpayable",
            "type": "function"
        },
        {
            "inputs": [],
            "name": "soul",
            "outputs": [
                {
                    "internalType": "contract MockSoulPower",
                    "name": "",
                    "type": "address"
                }
            ],
            "stateMutability": "view",
            "type": "function"
        },
        {
            "inputs": [],
            "name": "soulPerSecond",
            "outputs": [
                {
                    "internalType": "uint256",
                    "name": "",
                    "type": "uint256"
                }
            ],
            "stateMutability": "view",
            "type": "function"
        },
        {
            "inputs": [],
            "name": "startRate",
            "outputs": [
                {
                    "internalType": "uint256",
                    "name": "",
                    "type": "uint256"
                }
            ],
            "stateMutability": "view",
            "type": "function"
        },
        {
            "inputs": [],
            "name": "startTime",
            "outputs": [
                {
                    "internalType": "uint256",
                    "name": "",
                    "type": "uint256"
                }
            ],
            "stateMutability": "view",
            "type": "function"
        },
        {
            "inputs": [
                {
                    "internalType": "bytes4",
                    "name": "interfaceId",
                    "type": "bytes4"
                }
            ],
            "name": "supportsInterface",
            "outputs": [
                {
                    "internalType": "bool",
                    "name": "",
                    "type": "bool"
                }
            ],
            "stateMutability": "view",
            "type": "function"
        },
        {
            "inputs": [],
            "name": "team",
            "outputs": [
                {
                    "internalType": "address",
                    "name": "",
                    "type": "address"
                }
            ],
            "stateMutability": "view",
            "type": "function"
        },
        {
            "inputs": [],
            "name": "totalAllocPoint",
            "outputs": [
                {
                    "internalType": "uint256",
                    "name": "",
                    "type": "uint256"
                }
            ],
            "stateMutability": "view",
            "type": "function"
        },
        {
            "inputs": [],
            "name": "totalWeight",
            "outputs": [
                {
                    "internalType": "uint256",
                    "name": "",
                    "type": "uint256"
                }
            ],
            "stateMutability": "view",
            "type": "function"
        },
        {
            "inputs": [
                {
                    "internalType": "address",
                    "name": "newOwner",
                    "type": "address"
                }
            ],
            "name": "transferOwnership",
            "outputs": [],
            "stateMutability": "nonpayable",
            "type": "function"
        },
        {
            "inputs": [
                {
                    "internalType": "address",
                    "name": "_dao",
                    "type": "address"
                },
                {
                    "internalType": "address",
                    "name": "_team",
                    "type": "address"
                }
            ],
            "name": "updateAccounts",
            "outputs": [],
            "stateMutability": "nonpayable",
            "type": "function"
        },
        {
            "inputs": [
                {
                    "internalType": "uint256",
                    "name": "_bonusMultiplier",
                    "type": "uint256"
                }
            ],
            "name": "updateMultiplier",
            "outputs": [],
            "stateMutability": "nonpayable",
            "type": "function"
        },
        {
            "inputs": [
                {
                    "internalType": "uint256",
                    "name": "pid",
                    "type": "uint256"
                }
            ],
            "name": "updatePool",
            "outputs": [],
            "stateMutability": "nonpayable",
            "type": "function"
        },
        {
            "inputs": [
                {
                    "internalType": "uint256",
                    "name": "_startRate",
                    "type": "uint256"
                }
            ],
            "name": "updateStartRate",
            "outputs": [],
            "stateMutability": "nonpayable",
            "type": "function"
        },
        {
            "inputs": [
                {
                    "internalType": "address",
                    "name": "_soul",
                    "type": "address"
                },
                {
                    "internalType": "address",
                    "name": "_seance",
                    "type": "address"
                }
            ],
            "name": "updateTokens",
            "outputs": [],
            "stateMutability": "nonpayable",
            "type": "function"
        },
        {
            "inputs": [
                {
                    "internalType": "uint256",
                    "name": "_weight",
                    "type": "uint256"
                },
                {
                    "internalType": "uint256",
                    "name": "_totalWeight",
                    "type": "uint256"
                }
            ],
            "name": "updateWeights",
            "outputs": [],
            "stateMutability": "nonpayable",
            "type": "function"
        },
        {
            "inputs": [
                {
                    "internalType": "uint256",
                    "name": "_pid",
                    "type": "uint256"
                },
                {
                    "internalType": "address",
                    "name": "_user",
                    "type": "address"
                }
            ],
            "name": "userDelta",
            "outputs": [
                {
                    "internalType": "uint256",
                    "name": "delta",
                    "type": "uint256"
                }
            ],
            "stateMutability": "view",
            "type": "function"
        },
        {
            "inputs": [
                {
                    "internalType": "uint256",
                    "name": "",
                    "type": "uint256"
                },
                {
                    "internalType": "address",
                    "name": "",
                    "type": "address"
                }
            ],
            "name": "userInfo",
            "outputs": [
                {
                    "internalType": "uint256",
                    "name": "amount",
                    "type": "uint256"
                },
                {
                    "internalType": "uint256",
                    "name": "rewardDebt",
                    "type": "uint256"
                },
                {
                    "internalType": "uint256",
                    "name": "rewardDebtAtTime",
                    "type": "uint256"
                },
                {
                    "internalType": "uint256",
                    "name": "lastWithdrawTime",
                    "type": "uint256"
                },
                {
                    "internalType": "uint256",
                    "name": "firstDepositTime",
                    "type": "uint256"
                },
                {
                    "internalType": "uint256",
                    "name": "timeDelta",
                    "type": "uint256"
                },
                {
                    "internalType": "uint256",
                    "name": "lastDepositTime",
                    "type": "uint256"
                }
            ],
            "stateMutability": "view",
            "type": "function"
        },
        {
            "inputs": [],
            "name": "weight",
            "outputs": [
                {
                    "internalType": "uint256",
                    "name": "",
                    "type": "uint256"
                }
            ],
            "stateMutability": "view",
            "type": "function"
        },
        {
            "inputs": [
                {
                    "internalType": "uint256",
                    "name": "pid",
                    "type": "uint256"
                },
                {
                    "internalType": "uint256",
                    "name": "amount",
                    "type": "uint256"
                }
            ],
            "name": "withdraw",
            "outputs": [],
            "stateMutability": "nonpayable",
            "type": "function"
        }
    ],
    "bytecode": "60a06040526001600e556200001b60016200011760201b60201c565b6080523480156200002b57600080fd5b50620000406200003a62000133565b62000137565b6001805460ff60a01b1916815560025560078054336001600160a01b0319918216811792839055600880549092161790557f36d5d8406f8379c6deba01145ec4f6a2966675cc67d71355b397a2a8e3572b296015557f0811b25c145e1379dc78112dd91057f09150f6db05dfd7e04deb910e6cefd4b7601655620000d29060009081906001600160a01b031662000189565b50601554600754620000f0919081906001600160a01b031662000189565b50601654601554600854620001109291906001600160a01b031662000189565b5062000306565b60006200012d82670de0b6b3a7640000620002da565b92915050565b3390565b600180546001600160a01b038381166001600160a01b0319831681179093556040519116919082907f8be0079c531659141344cd1fd0a4f28419497f9722a3daafe3b4186f6b6457e090600090a35050565b6000620001978483620001ad565b620001a38484620001bd565b5060019392505050565b620001b9828262000212565b5050565b6000620001ca836200029c565b600084815260208190526040808220600101859055519192508391839186917fbd79b86ffe0ab8e8776151514217cd7cacd52c909f66475c3af44e129f0b00ff9190a4505050565b6200021e8282620002b1565b620001b9576000828152602081815260408083206001600160a01b03851684529091529020805460ff191660011790556200025862000133565b6001600160a01b0316816001600160a01b0316837f2f8788117e7eff1d82e926ec794901d17c78024a50270940304540a733656f0d60405160405180910390a45050565b60009081526020819052604090206001015490565b6000918252602082815260408084206001600160a01b0393909316845291905290205460ff1690565b60008160001904831182151516156200030157634e487b7160e01b81526011600452602481fd5b500290565b60805161391e620003226000396000612707015261391e6000f3fe608060405234801561001057600080fd5b506004361061035d5760003560e01c80637d500ec8116101d3578063a8b973a111610104578063e7aa29e3116100a2578063f2fde38b1161007c578063f2fde38b146106a7578063fb39d1e3146106ba578063fc90fdc0146106cd578063fd6f99d0146106d55761035d565b8063e7aa29e314610679578063ea4bf4461461068c578063f107fd85146106945761035d565b8063d547741f116100de578063d547741f1461062d578063e13e8ec214610640578063e2bbb15814610653578063e65d1522146106665761035d565b8063a8b973a1146105ff578063bfafcad514610607578063cf94ee961461061a5761035d565b80638dbb1e3a1161017157806396c82e571161014b57806396c82e57146105d45780639f6c5426146105dc578063a1aab33f146105ef578063a217fddf146105f75761035d565b80638dbb1e3a1461058857806391d148541461059b57806393f1a40b146105ae5761035d565b806382386d58116101ad57806382386d581461055257806385f2aef21461056557806386489ba91461056d5780638da5cb5b146105805761035d565b80637d500ec8146105215780637e668b4214610529578063815b7a8c1461054a5761035d565b8063441a3e70116102ad5780635ffe61461161024b578063715018a611610225578063715018a6146104f657806378e97925146104fe5780637abceffd146105065780637cd07e47146105195761035d565b80635ffe6146146104c8578063630b5ba1146104db57806364482f79146104e35761035d565b80634ca01d45116102875780634ca01d451461049d57806351eb05a6146104a55780635c975abb146104b85780635f9bf689146104c05761035d565b8063441a3e7014610464578063454b0608146104775780634a9628291461048a5761035d565b806323cf31181161031a57806336568abe116102f457806336568abe14610421578063392e53cd1461043457806341441d3b1461043c5780634162169f1461044f5761035d565b806323cf3118146103e8578063248a9ca3146103fb5780632f2ff15d1461040e5761035d565b806301ffc9a714610362578063081e3eda1461038b5780631058d281146103a05780631254f0dc146103b55780631526fe27146103bd57806317caf6f1146103e0575b600080fd5b610375610370366004612ffe565b6106dd565b6040516103829190613291565b60405180910390f35b610393610708565b604051610382919061329c565b6103b36103ae366004612fc2565b61070e565b005b6103936109cf565b6103d06103cb366004612fc2565b6109d5565b60405161038294939291906132a5565b610393610a19565b6103b36103f6366004612efa565b610a1f565b610393610409366004612fc2565b610a78565b6103b361041c366004612fda565b610a8d565b6103b361042f366004612fda565b610ab1565b610375610af7565b6103b361044a366004612fc2565b610b00565b610457610dd1565b60405161038291906131ec565b6103b36104723660046130d2565b610de0565b6103b3610485366004612fc2565b611112565b6103b3610498366004612fc2565b6113fc565b6104576114ab565b6103b36104b3366004612fc2565b6114ba565b6103756117b5565b6103936117c5565b6103b36104d6366004612fc2565b6117cb565b6103b36117e0565b6103b36104f13660046130f3565b611807565b6103b3611943565b61039361198e565b6103b3610514366004613091565b611994565b6104576119df565b6103936119ee565b61053c610537366004613120565b6119f4565b604051610382929190613755565b610457611a9c565b6103b361056036600461305a565b611aab565b610457611b27565b6103b361057b366004612f4e565b611b36565b610457611d84565b6103936105963660046130d2565b611d93565b6103756105a9366004612fda565b611db4565b6105c16105bc366004612fda565b611ddd565b6040516103829796959493929190613787565b610393611e2c565b6103936105ea3660046130d2565b611e32565b610393611ea0565b610393611ea6565b610393611eab565b610393610615366004612fda565b611eb1565b610393610628366004612fc2565b612042565b6103b361063b366004612fda565b612056565b6103b361064e366004612f16565b612075565b6103b36106613660046130d2565b61213d565b610393610674366004612fc2565b6123db565b6103b3610687366004612f16565b6123ef565b6103936124a7565b6103b36106a23660046130d2565b6124ad565b6103b36106b5366004612efa565b612597565b6103936106c8366004612fda565b612608565b610393612705565b610393612729565b60006001600160e01b03198216637965db0b60e01b148061070257506107028261272f565b92915050565b60135490565b6002805414156107395760405162461bcd60e51b81526004016107309061360d565b60405180910390fd5b600280819055506000601360008154811061076457634e487b7160e01b600052603260045260246000fd5b600091825260208083203384527f4f26c3876aa9f4b92579780beea1161a61f87ebf1ec6ee865b299e447ecba99c90915260409092208054600490920290920192508311156107c55760405162461bcd60e51b81526004016107309061358d565b6107cf60006114ba565b6000816001015464e8d4a51000846003015484600001546107f091906137ef565b6107fa91906137cf565b610804919061380e565b90508015610816576108163382612748565b83156108b057815461082990859061380e565b8255825460405163a9059cbb60e01b81526001600160a01b039091169063a9059cbb9061085c9033908890600401613278565b602060405180830381600087803b15801561087657600080fd5b505af115801561088a573d6000803e3d6000fd5b505050506040513d601f19601f820116820180604052508101906108ae9190612fa6565b505b6003830154825464e8d4a51000916108c7916137ef565b6108d191906137cf565b6001830155426003830181905560408051808201909152601881527f6c617374207769746864726177616c2074696d653a2025730000000000000000602082015261091b916127b0565b600654604051632770a7eb60e21b81526001600160a01b0390911690639dc29fac9061094d9033908890600401613278565b600060405180830381600087803b15801561096757600080fd5b505af115801561097b573d6000803e3d6000fd5b505050506000336001600160a01b03167f02f25270a4d87bea75db541cdfe559334a275b4a233520ed6c0a2429667cca9486426040516109bc929190613755565b60405180910390a3505060016002555050565b60125481565b601381815481106109e557600080fd5b600091825260209091206004909102018054600182015460028301546003909301546001600160a01b039092169350919084565b60105481565b60115460ff16610a415760405162461bcd60e51b8152600401610730906136ca565b601554610a5581610a506127f5565b6127f9565b50600980546001600160a01b0319166001600160a01b0392909216919091179055565b60009081526020819052604090206001015490565b610a9682610a78565b610aa281610a506127f5565b610aac838361285d565b505050565b610ab96127f5565b6001600160a01b0316816001600160a01b031614610ae95760405162461bcd60e51b815260040161073090613644565b610af382826128e2565b5050565b60115460ff1681565b600280541415610b225760405162461bcd60e51b81526004016107309061360d565b60028055610b2e6117b5565b15610b4b5760405162461bcd60e51b8152600401610730906133d7565b60006013600081548110610b6f57634e487b7160e01b600052603260045260246000fd5b600091825260208083203384527f4f26c3876aa9f4b92579780beea1161a61f87ebf1ec6ee865b299e447ecba99c90915260408320600490920201925090610bb6906114ba565b805415610c06576000816001015464e8d4a5100084600301548460000154610bde91906137ef565b610be891906137cf565b610bf2919061380e565b90508015610c0457610c043382612748565b505b8215610ca25781546040516323b872dd60e01b81526001600160a01b03909116906323b872dd90610c3f90339030908890600401613254565b602060405180830381600087803b158015610c5957600080fd5b505af1158015610c6d573d6000803e3d6000fd5b505050506040513d601f19601f82011682018060405250810190610c919190612fa6565b508054610c9f9084906137b7565b81555b6000816004015411610cb45742610cba565b80600401545b600482018190556040805180820190915260198152786669727374206465706f736974206d6164652061743a20257360381b6020820152610cfa916127b0565b6003820154815464e8d4a5100091610d11916137ef565b610d1b91906137cf565b60018201556006546040516340c10f1960e01b81526001600160a01b03909116906340c10f1990610d529033908790600401613278565b600060405180830381600087803b158015610d6c57600080fd5b505af1158015610d80573d6000803e3d6000fd5b505050506000336001600160a01b03167f90890809c654f11d6e72a28fa60149770a0d11ec6c92319d6ceb2bb0a4ea1a1585604051610dbf919061329c565b60405180910390a35050600160025550565b6008546001600160a01b031681565b600280541415610e025760405162461bcd60e51b81526004016107309061360d565b6002805560135482908110610e295760405162461bcd60e51b815260040161073090613560565b82610e465760405162461bcd60e51b815260040161073090613457565b600060138481548110610e6957634e487b7160e01b600052603260045260246000fd5b600091825260208083208784526014825260408085203386529092529220805460049092029092019250841115610eb25760405162461bcd60e51b8152600401610730906135b9565b610ebb856114ba565b6000816001015464e8d4a5100084600301548460000154610edc91906137ef565b610ee691906137cf565b610ef0919061380e565b90508015610f0257610f023382612748565b8415610f5057600682015415610f2b576006820154610f21904261380e565b6005830155610f40565b6004820154610f3a904261380e565b60058301555b8154610f4d90869061380e565b82555b600086815260146020908152604080832033845290915281206005015490610f798883896119f4565b915060009050610f89828961380e565b865460085460405163a9059cbb60e01b81529293506001600160a01b039182169263a9059cbb92610fc09216908590600401613278565b602060405180830381600087803b158015610fda57600080fd5b505af1158015610fee573d6000803e3d6000fd5b505050506040513d601f19601f820116820180604052508101906110129190612fa6565b50855460405163a9059cbb60e01b81526001600160a01b039091169063a9059cbb906110449033908690600401613278565b602060405180830381600087803b15801561105e57600080fd5b505af1158015611072573d6000803e3d6000fd5b505050506040513d601f19601f820116820180604052508101906110969190612fa6565b506003860154855464e8d4a51000916110ae916137ef565b6110b891906137cf565b600186015542600386018190556040518a9133917f02f25270a4d87bea75db541cdfe559334a275b4a233520ed6c0a2429667cca94916110fa918d9190613755565b60405180910390a35050600160025550505050505050565b60115460ff166111345760405162461bcd60e51b8152600401610730906136ca565b601354819081106111575760405162461bcd60e51b815260040161073090613560565b6009546001600160a01b031661117f5760405162461bcd60e51b81526004016107309061342e565b6000601383815481106111a257634e487b7160e01b600052603260045260246000fd5b60009182526020822060049182020180546040516370a0823160e01b81529194506001600160a01b0316929183916370a08231916111e2913091016131ec565b60206040518083038186803b1580156111fa57600080fd5b505afa15801561120e573d6000803e3d6000fd5b505050506040513d601f19601f820116820180604052508101906112329190613042565b60095460405163095ea7b360e01b81529192506001600160a01b038085169263095ea7b3926112679216908590600401613278565b602060405180830381600087803b15801561128157600080fd5b505af1158015611295573d6000803e3d6000fd5b505050506040513d601f19601f820116820180604052508101906112b99190612fa6565b5060095460405163ce5494bb60e01b81526000916001600160a01b03169063ce5494bb906112eb9086906004016131ec565b602060405180830381600087803b15801561130557600080fd5b505af1158015611319573d6000803e3d6000fd5b505050506040513d601f19601f8201168201806040525081019061133d9190613026565b6040516370a0823160e01b81529091506001600160a01b038216906370a082319061136c9030906004016131ec565b60206040518083038186803b15801561138457600080fd5b505afa158015611398573d6000803e3d6000fd5b505050506040513d601f19601f820116820180604052508101906113bc9190613042565b82146113da5760405162461bcd60e51b815260040161073090613693565b83546001600160a01b0319166001600160a01b03919091161790925550505050565b60165461140b81610a506127f5565b61141482612042565b601254141561142257600080fd5b61142b82612042565b60128190556040805180820190915260158152746e657720737461727420726174652069733a20257360581b602082015261146e91611469906123db565b6127b0565b7f580e2348a4d1118e1f915eeffd71aec4938e749307b28e67f19841ca64117df760125460405161149f919061329c565b60405180910390a15050565b6006546001600160a01b031681565b601354819081106114dd5760405162461bcd60e51b815260040161073090613560565b60006013838154811061150057634e487b7160e01b600052603260045260246000fd5b90600052602060002090600402019050806002015442116115215750610af3565b80546040516370a0823160e01b81526000916001600160a01b0316906370a08231906115519030906004016131ec565b60206040518083038186803b15801561156957600080fd5b505afa15801561157d573d6000803e3d6000fd5b505050506040513d601f19601f820116820180604052508101906115a19190613042565b9050806115b5575042600290910155610af3565b60006115c5836002015442611d93565b905060006010548460010154600d54846115df91906137ef565b6115e991906137ef565b6115f391906137cf565b90506000650746a528800061160d8364e8d4a510006137ef565b61161791906137cf565b905060006116268260026137ef565b90506000611634828561380e565b600480546007546040516340c10f1960e01b81529394506001600160a01b03918216936340c10f199361166d9390921691889101613278565b600060405180830381600087803b15801561168757600080fd5b505af115801561169b573d6000803e3d6000fd5b5050600480546008546040516340c10f1960e01b81526001600160a01b0392831695506340c10f1994506116d6939190921691889101613278565b600060405180830381600087803b1580156116f057600080fd5b505af1158015611704573d6000803e3d6000fd5b5050600480546006546040516340c10f1960e01b81526001600160a01b0392831695506340c10f19945061173f939190921691869101613278565b600060405180830381600087803b15801561175957600080fd5b505af115801561176d573d6000803e3d6000fd5b50505050858464e8d4a5100061178391906137ef565b61178d91906137cf565b876003015461179c91906137b7565b6003880155505042600290950194909455505050505050565b600154600160a01b900460ff1690565b600d5481565b6016546117da81610a506127f5565b50600e55565b60135460005b81811015610af3576117f7816114ba565b61180081613868565b90506117e6565b60115460ff166118295760405162461bcd60e51b8152600401610730906136ca565b6013548390811061184c5760405162461bcd60e51b815260040161073090613560565b60165461185b81610a506127f5565b8215611869576118696117e0565b60006013868154811061188c57634e487b7160e01b600052603260045260246000fd5b906000526020600020906004020160010154905084601387815481106118c257634e487b7160e01b600052603260045260246000fd5b9060005260206000209060040201600101819055508481146119025784816010546118ed919061380e565b6118f791906137b7565b601055611902612965565b7fd88f859573973e938da5bf3e5100c16eee2090fa720e05ae3d452b4cd05cdcfd8686604051611933929190613755565b60405180910390a1505050505050565b61194b6127f5565b6001600160a01b031661195c611d84565b6001600160a01b0316146119825760405162461bcd60e51b8152600401610730906134c5565b61198c6000612a67565b565b600f5481565b60115460ff166119b65760405162461bcd60e51b8152600401610730906136ca565b6015546119c581610a506127f5565b6119ce83612ab9565b6119d9848484612b3a565b50505050565b6009546001600160a01b031681565b600c5481565b6000806000611a066106748787611e32565b905060006064611a1683876137ef565b611a2091906137cf565b9050611a4f6040518060400160405280600b81526020016a666565526174653a20257360a81b815250836127b0565b611a816040518060400160405280600d81526020016c666565416d6f756e743a20257360981b815250611469836123db565b6000611a8d828761380e565b91989197509095505050505050565b6004546001600160a01b031681565b601654611aba81610a506127f5565b60008481526014602090815260408083206001600160a01b0387168452909152908190206004810184905590517f40d6e8e3d60e4693375c73df2d1a71d582a28197c98fd8d2badad6ead06af64c90611b1890879087908790613736565b60405180910390a15050505050565b6007546001600160a01b031681565b601554611b4581610a506127f5565b60115460ff1615611b685760405162461bcd60e51b815260040161073090613401565b600380546001600160a01b03808a166001600160a01b031992831617909255600580549289169290911691909117905542600f55611ba684866137b7565b600a55600b849055611bb782612042565b601255600354600480546001600160a01b039283166001600160a01b03199182161790915560055460068054919093169116179055600b54600a548491611bfd91612c47565b60408051608081018252600480546001600160a01b03908116835260208301858152600f54948401948552600060608501818152601380546001808201835591845296517f66de8ffda797e3de9c05e8fc57b3bf0ec28a930d40b0d285d93c06501cf6a0909790960296870180546001600160a01b031916969095169590951790935590517f66de8ffda797e3de9c05e8fc57b3bf0ec28a930d40b0d285d93c06501cf6a09185015593517f66de8ffda797e3de9c05e8fc57b3bf0ec28a930d40b0d285d93c06501cf6a092840155517f66de8ffda797e3de9c05e8fc57b3bf0ec28a930d40b0d285d93c06501cf6a093909201919091556011805460ff1916909117905560108054839290611d149084906137b7565b9091555050600754600854600354600554601054600b546040517f0476c5e4920930815a67a5a042e26836431f494d3be0f6e10c3034787a7a15f996611d72966001600160a01b03918216969082169590821694911692909161321a565b60405180910390a15050505050505050565b6001546001600160a01b031690565b600e54600090611da3848461380e565b611dad91906137ef565b9392505050565b6000918252602082815260408084206001600160a01b0393909316845291905290205460ff1690565b6014602052816000526040600020602052806000526040600020600091509150508060000154908060010154908060020154908060030154908060040154908060050154908060060154905087565b600a5481565b600080620151808310611e5157611e4c62015180846137cf565b611e54565b60005b90506000611e6182612042565b90506000601254821015611e825781601254611e7d919061380e565b611e85565b60005b90508515611e935780611e96565b60005b9695505050505050565b600b5481565b600081565b600e5481565b60008060138481548110611ed557634e487b7160e01b600052603260045260246000fd5b600091825260208083208784526014825260408085206001600160a01b038981168752935280852060049485029092016003810154815492516370a0823160e01b815291975092959294929391909116916370a0823191611f38913091016131ec565b60206040518083038186803b158015611f5057600080fd5b505afa158015611f64573d6000803e3d6000fd5b505050506040513d601f19601f82011682018060405250810190611f889190613042565b9050836002015442118015611f9c57508015155b1561200a576000611fb1856002015442611d93565b905060006010548660010154600d5484611fcb91906137ef565b611fd591906137ef565b611fdf91906137cf565b905082611ff18264e8d4a510006137ef565b611ffb91906137cf565b61200590856137b7565b935050505b6001830154835464e8d4a51000906120239085906137ef565b61202d91906137cf565b612037919061380e565b979650505050505050565b600061070282670de0b6b3a76400006137ef565b61205f82610a78565b61206b81610a506127f5565b610aac83836128e2565b60155461208481610a506127f5565b6008546001600160a01b0384811691161415806120af57506007546001600160a01b03838116911614155b6120cb5760405162461bcd60e51b815260040161073090613531565b600880546001600160a01b038086166001600160a01b0319928316179283905560078054868316931692909217918290556040517fd1c04282701cbf58aa2f0026f6876051cf3feb8ee7b8b5b5532ebb4ab03fb5d49361213093908316921690613200565b60405180910390a1505050565b60028054141561215f5760405162461bcd60e51b81526004016107309061360d565b60028055601354829081106121865760405162461bcd60e51b815260040161073090613560565b61218e6117b5565b156121ab5760405162461bcd60e51b8152600401610730906133d7565b826121c85760405162461bcd60e51b81526004016107309061348e565b6000601384815481106121eb57634e487b7160e01b600052603260045260246000fd5b6000918252602080832087845260148252604080852033865290925292206004909102909101915061221c856114ba565b80541561226c576000816001015464e8d4a510008460030154846000015461224491906137ef565b61224e91906137cf565b612258919061380e565b9050801561226a5761226a3382612748565b505b83156123125781546040516323b872dd60e01b81526001600160a01b03909116906323b872dd906122a590339030908990600401613254565b602060405180830381600087803b1580156122bf57600080fd5b505af11580156122d3573d6000803e3d6000fd5b505050506040513d601f19601f820116820180604052508101906122f79190612fa6565b508381600001600082825461230c91906137b7565b90915550505b6003820154815464e8d4a5100091612329916137ef565b61233391906137cf565b60018201556004810154612347574261234d565b80600401545b600482018190556040805180820190915260198152786669727374206465706f736974206d6164652061743a20257360381b602082015261238d916127b0565b84336001600160a01b03167f90890809c654f11d6e72a28fa60149770a0d11ec6c92319d6ceb2bb0a4ea1a15866040516123c7919061329c565b60405180910390a350506001600255505050565b6000610702670de0b6b3a7640000836137cf565b6015546123fe81610a506127f5565b6004546001600160a01b03848116911614158061242957506006546001600160a01b03838116911614155b6124455760405162461bcd60e51b8152600401610730906134fa565b600480546001600160a01b038086166001600160a01b03199283161790925560068054928516929091169190911790556040517fdcc6331013de89f8c595d5328f0a724194f113cb6f8f2a707b3dff6de13f0d17906121309085908590613200565b60155481565b6016546124bc81610a506127f5565b82600b541415806124cf575081600a5414155b6124eb5760405162461bcd60e51b8152600401610730906133a0565b8282101561250b5760405162461bcd60e51b815260040161073090613701565b600b839055600a82905560408051808201909152601981527f6e657720776569676874733a202573206f7574206f66202573000000000000006020820152612554908484612ce4565b612562600b54600a54612c47565b7fb298bc23e07860d501fddce288f46d761aa04a0c7c3316099eb50f097aacf304600b54600a54604051612130929190613755565b61259f6127f5565b6001600160a01b03166125b0611d84565b6001600160a01b0316146125d65760405162461bcd60e51b8152600401610730906134c5565b6001600160a01b0381166125fc5760405162461bcd60e51b81526004016107309061335a565b61260581612a67565b50565b60008281526014602090815260408083206001600160a01b03851684528252808320815160e08101835281548152600182015481850152600282015481840152600382015460608083019190915260048301546080830152600583015460a083015260069092015460c08201528251918201909252602c808252919261269f92906138bd9083013982608001518360600151612ce4565b6126ce6040518060400160405280600d81526020016c74696d657374616d703a20257360981b815250426127b0565b60008160600151116126ee5760808101516126e9904261380e565b6126fd565b60608101516126fd904261380e565b949350505050565b7f000000000000000000000000000000000000000000000000000000000000000081565b60165481565b6001600160e01b031981166301ffc9a760e01b14919050565b600654604051635950a15560e11b81526001600160a01b039091169063b2a142aa9061277a9085908590600401613278565b600060405180830381600087803b15801561279457600080fd5b505af11580156127a8573d6000803e3d6000fd5b505050505050565b610af382826040516024016127c69291906132de565b60408051601f198184030181529190526020810180516001600160e01b03166309710a9d60e41b179052612d27565b3390565b6128038282611db4565b610af35761281b816001600160a01b03166014612d48565b612826836020612d48565b604051602001612837929190613177565b60408051601f198184030181529082905262461bcd60e51b8252610730916004016132cb565b6128678282611db4565b610af3576000828152602081815260408083206001600160a01b03851684529091529020805460ff1916600117905561289e6127f5565b6001600160a01b0316816001600160a01b0316837f2f8788117e7eff1d82e926ec794901d17c78024a50270940304540a733656f0d60405160405180910390a45050565b6128ec8282611db4565b15610af3576000828152602081815260408083206001600160a01b03851684529091529020805460ff191690556129216127f5565b6001600160a01b0316816001600160a01b0316837ff6391f5c32d9c69d2a47ea670b442974b53935d1edc7fd64eb21e047a839171b60405160405180910390a45050565b601354600060015b828110156129c5576013818154811061299657634e487b7160e01b600052603260045260246000fd5b906000526020600020906004020160010154826129b391906137b7565b91506129be81613868565b905061296d565b508015610af3576129d76003826137cf565b90508060136000815481106129fc57634e487b7160e01b600052603260045260246000fd5b906000526020600020906004020160010154601054612a1b919061380e565b612a2591906137b7565b601081905550806013600081548110612a4e57634e487b7160e01b600052603260045260246000fd5b9060005260206000209060040201600101819055505050565b600180546001600160a01b038381166001600160a01b0319831681179093556040519116919082907f8be0079c531659141344cd1fd0a4f28419497f9722a3daafe3b4186f6b6457e090600090a35050565b60135460005b81811015610aac57826001600160a01b031660138281548110612af257634e487b7160e01b600052603260045260246000fd5b60009182526020909120600490910201546001600160a01b03161415612b2a5760405162461bcd60e51b8152600401610730906135e4565b612b3381613868565b9050612abf565b8015612b4857612b486117e0565b8260106000828254612b5a91906137b7565b9250508190555060136040518060800160405280846001600160a01b03168152602001858152602001600f544211612b9457600f54612b96565b425b81526000602091820181905283546001808201865594825290829020835160049092020180546001600160a01b0319166001600160a01b0390921691909117815590820151928101929092556040810151600283015560600151600390910155612bfe612965565b6013546010546040517f20b669aa921947a6d9602a921d2db3b6b30f21b9aca98580fa3972530330b27a91612c399184918891889190613763565b60405180910390a150505050565b600081612c5384612042565b612c5d91906137cf565b9050612c8d6040518060400160405280600981526020016873686172653a20257360b81b815250611469836123db565b612c9a816203d0906137ef565b600c819055612cad9062015180906137cf565b600d819055600c546040517fcd7c861d63893659123f817b192b8621ff1923a7c4589c260173cedcf9e986a6926121309291613755565b610aac838383604051602401612cfc93929190613300565b60408051601f198184030181529190526020810180516001600160e01b031663969cdd0360e01b1790525b80516a636f6e736f6c652e6c6f67602083016000808483855afa5050505050565b60606000612d578360026137ef565b612d629060026137b7565b67ffffffffffffffff811115612d8857634e487b7160e01b600052604160045260246000fd5b6040519080825280601f01601f191660200182016040528015612db2576020820181803683370190505b509050600360fc1b81600081518110612ddb57634e487b7160e01b600052603260045260246000fd5b60200101906001600160f81b031916908160001a905350600f60fb1b81600181518110612e1857634e487b7160e01b600052603260045260246000fd5b60200101906001600160f81b031916908160001a9053506000612e3c8460026137ef565b612e479060016137b7565b90505b6001811115612edb576f181899199a1a9b1b9c1cb0b131b232b360811b85600f1660108110612e8957634e487b7160e01b600052603260045260246000fd5b1a60f81b828281518110612ead57634e487b7160e01b600052603260045260246000fd5b60200101906001600160f81b031916908160001a90535060049490941c93612ed481613851565b9050612e4a565b508315611dad5760405162461bcd60e51b815260040161073090613325565b600060208284031215612f0b578081fd5b8135611dad81613899565b60008060408385031215612f28578081fd5b8235612f3381613899565b91506020830135612f4381613899565b809150509250929050565b60008060008060008060c08789031215612f66578182fd5b8635612f7181613899565b95506020870135612f8181613899565b95989597505050506040840135936060810135936080820135935060a0909101359150565b600060208284031215612fb7578081fd5b8151611dad816138ae565b600060208284031215612fd3578081fd5b5035919050565b60008060408385031215612fec578182fd5b823591506020830135612f4381613899565b60006020828403121561300f578081fd5b81356001600160e01b031981168114611dad578182fd5b600060208284031215613037578081fd5b8151611dad81613899565b600060208284031215613053578081fd5b5051919050565b60008060006060848603121561306e578283fd5b83359250602084013561308081613899565b929592945050506040919091013590565b6000806000606084860312156130a5578283fd5b8335925060208401356130b781613899565b915060408401356130c7816138ae565b809150509250925092565b600080604083850312156130e4578182fd5b50508035926020909101359150565b600080600060608486031215613107578081fd5b833592506020840135915060408401356130c7816138ae565b600080600060608486031215613134578081fd5b505081359360208301359350604090920135919050565b60008151808452613163816020860160208601613825565b601f01601f19169290920160200192915050565b60007f416363657373436f6e74726f6c3a206163636f756e7420000000000000000000825283516131af816017850160208801613825565b7001034b99036b4b9b9b4b733903937b6329607d1b60179184019182015283516131e0816028840160208801613825565b01602801949350505050565b6001600160a01b0391909116815260200190565b6001600160a01b0392831681529116602082015260400190565b6001600160a01b0396871681529486166020860152928516604085015293166060830152608082019290925260a081019190915260c00190565b6001600160a01b039384168152919092166020820152604081019190915260600190565b6001600160a01b03929092168252602082015260400190565b901515815260200190565b90815260200190565b6001600160a01b0394909416845260208401929092526040830152606082015260800190565b600060208252611dad602083018461314b565b6000604082526132f1604083018561314b565b90508260208301529392505050565b600060608252613313606083018661314b565b60208301949094525060400152919050565b6020808252818101527f537472696e67733a20686578206c656e67746820696e73756666696369656e74604082015260600190565b60208082526026908201527f4f776e61626c653a206e6577206f776e657220697320746865207a65726f206160408201526564647265737360d01b606082015260800190565b6020808252601e908201527f6d757374206265206174206c65617374206f6e65206e65772076616c75650000604082015260600190565b60208082526010908201526f14185d5cd8589b194e881c185d5cd95960821b604082015260600190565b602080825260139082015272185b1c9958591e481a5b9a5d1a585b1a5e9959606a1b604082015260600190565b6020808252600f908201526e1b9bc81b5a59dc985d1bdc881cd95d608a1b604082015260600190565b6020808252601a908201527f776974686472617720534f554c20627920756e7374616b696e67000000000000604082015260600190565b60208082526017908201527f6465706f73697420534f554c206279207374616b696e67000000000000000000604082015260600190565b6020808252818101527f4f776e61626c653a2063616c6c6572206973206e6f7420746865206f776e6572604082015260600190565b6020808252601b908201527f6d7573742062652061206e657720746f6b656e20616464726573730000000000604082015260600190565b6020808252601590820152741b5d5cdd0818994818481b995dc81858d8dbdd5b9d605a1b604082015260600190565b6020808252601390820152721c1bdbdb08191bd95cc81b9bdd08195e1a5cdd606a1b604082015260600190565b6020808252601290820152711dda5d1a191c985dce881b9bdd0819dbdbd960721b604082015260600190565b6020808252601190820152701dda5d1a191c985dc81b9bdd0819dbdbd9607a1b604082015260600190565b6020808252600f908201526e191d5c1b1a58d85d1959081c1bdbdb608a1b604082015260600190565b6020808252601f908201527f5265656e7472616e637947756172643a207265656e7472616e742063616c6c00604082015260600190565b6020808252602f908201527f416363657373436f6e74726f6c3a2063616e206f6e6c792072656e6f756e636560408201526e103937b632b9903337b91039b2b63360891b606082015260800190565b6020808252601d908201527f6d6967726174653a20696e73756666696369656e742062616c616e6365000000604082015260600190565b6020808252601a908201527f726577617264732068617665206e6f742079657420626567756e000000000000604082015260600190565b6020808252818101527f7765696768742063616e6e6f742065786365656420746f74616c576569676874604082015260600190565b9283526001600160a01b03919091166020830152604082015260600190565b918252602082015260400190565b93845260208401929092526001600160a01b03166040830152606082015260800190565b968752602087019590955260408601939093526060850191909152608084015260a083015260c082015260e00190565b600082198211156137ca576137ca613883565b500190565b6000826137ea57634e487b7160e01b81526012600452602481fd5b500490565b600081600019048311821515161561380957613809613883565b500290565b60008282101561382057613820613883565b500390565b60005b83811015613840578181015183820152602001613828565b838111156119d95750506000910152565b60008161386057613860613883565b506000190190565b600060001982141561387c5761387c613883565b5060010190565b634e487b7160e01b600052601160045260246000fd5b6001600160a01b038116811461260557600080fd5b801515811461260557600080fdfe6669727374206465706f73697420616e64206c617374207769746864726177616c3a20257320616e64202573a2646970667358221220e6516c3e3b97d398790f39ed38f2bbf29072f11bf892001c77a161208015189d64736f6c63430008000033",
    "sourcePath": "/Users/unico/Documents/GitHub/SoulSwap/soulswap-farms/contracts/mocks/MockSoulSummoner.sol",
    "compiler": {
        "name": "solc",
        "version": "0.8.0+commit.c7dfd78e"
    },
    "functionHashes": {
        "DEFAULT_ADMIN_ROLE()": "a217fddf",
        "addPool(uint256,address,bool)": "7abceffd",
        "bonusMultiplier()": "a8b973a1",
        "dailyDecay()": "fc90fdc0",
        "dailySoul()": "7d500ec8",
        "dao()": "4162169f",
        "deposit(uint256,uint256)": "e2bbb158",
        "enWei(uint256)": "cf94ee96",
        "enterStaking(uint256)": "41441d3b",
        "fromWei(uint256)": "e65d1522",
        "getFeeRate(uint256,uint256)": "9f6c5426",
        "getMultiplier(uint256,uint256)": "8dbb1e3a",
        "getRoleAdmin(bytes32)": "248a9ca3",
        "getWithdrawable(uint256,uint256,uint256)": "7e668b42",
        "grantRole(bytes32,address)": "2f2ff15d",
        "hasRole(bytes32,address)": "91d14854",
        "initialize(address,address,uint256,uint256,uint256,uint256)": "86489ba9",
        "isInitialized()": "392e53cd",
        "isis()": "ea4bf446",
        "leaveStaking(uint256)": "1058d281",
        "maat()": "fd6f99d0",
        "massUpdatePools()": "630b5ba1",
        "migrate(uint256)": "454b0608",
        "migrator()": "7cd07e47",
        "owner()": "8da5cb5b",
        "paused()": "5c975abb",
        "pendingSoul(uint256,address)": "bfafcad5",
        "poolInfo(uint256)": "1526fe27",
        "poolLength()": "081e3eda",
        "renounceOwnership()": "715018a6",
        "renounceRole(bytes32,address)": "36568abe",
        "reviseDeposit(uint256,address,uint256)": "82386d58",
        "revokeRole(bytes32,address)": "d547741f",
        "seance()": "4ca01d45",
        "set(uint256,uint256,bool)": "64482f79",
        "setMigrator(address)": "23cf3118",
        "soul()": "815b7a8c",
        "soulPerSecond()": "5f9bf689",
        "startRate()": "1254f0dc",
        "startTime()": "78e97925",
        "supportsInterface(bytes4)": "01ffc9a7",
        "team()": "85f2aef2",
        "totalAllocPoint()": "17caf6f1",
        "totalWeight()": "96c82e57",
        "transferOwnership(address)": "f2fde38b",
        "updateAccounts(address,address)": "e13e8ec2",
        "updateMultiplier(uint256)": "5ffe6146",
        "updatePool(uint256)": "51eb05a6",
        "updateStartRate(uint256)": "4a962829",
        "updateTokens(address,address)": "e7aa29e3",
        "updateWeights(uint256,uint256)": "f107fd85",
        "userDelta(uint256,address)": "fb39d1e3",
        "userInfo(uint256,address)": "93f1a40b",
        "weight()": "a1aab33f",
        "withdraw(uint256,uint256)": "441a3e70"
    },
    "gasEstimates": {
        "creation": {
            "codeDepositCost": "2924400",
            "executionCost": "infinite",
            "totalCost": "infinite"
        },
        "external": {
            "DEFAULT_ADMIN_ROLE()": "361",
            "addPool(uint256,address,bool)": "infinite",
            "bonusMultiplier()": "1096",
            "dailyDecay()": "infinite",
            "dailySoul()": "1097",
            "dao()": "1204",
            "deposit(uint256,uint256)": "infinite",
            "enWei(uint256)": "516",
            "enterStaking(uint256)": "infinite",
            "fromWei(uint256)": "505",
            "getFeeRate(uint256,uint256)": "2426",
            "getMultiplier(uint256,uint256)": "1370",
            "getRoleAdmin(bytes32)": "1271",
            "getWithdrawable(uint256,uint256,uint256)": "infinite",
            "grantRole(bytes32,address)": "infinite",
            "hasRole(bytes32,address)": "1472",
            "initialize(address,address,uint256,uint256,uint256,uint256)": "infinite",
            "isInitialized()": "1130",
            "isis()": "1117",
            "leaveStaking(uint256)": "infinite",
            "maat()": "1160",
            "massUpdatePools()": "infinite",
            "migrate(uint256)": "infinite",
            "migrator()": "1203",
            "owner()": "1204",
            "paused()": "1169",
            "pendingSoul(uint256,address)": "infinite",
            "poolInfo(uint256)": "4695",
            "poolLength()": "1097",
            "renounceOwnership()": "23574",
            "renounceRole(bytes32,address)": "infinite",
            "reviseDeposit(uint256,address,uint256)": "infinite",
            "revokeRole(bytes32,address)": "infinite",
            "seance()": "1138",
            "set(uint256,uint256,bool)": "infinite",
            "setMigrator(address)": "infinite",
            "soul()": "1183",
            "soulPerSecond()": "1162",
            "startRate()": "1141",
            "startTime()": "1117",
            "supportsInterface(bytes4)": "539",
            "team()": "1160",
            "totalAllocPoint()": "1185",
            "totalWeight()": "1095",
            "transferOwnership(address)": "infinite",
            "updateAccounts(address,address)": "infinite",
            "updateMultiplier(uint256)": "infinite",
            "updatePool(uint256)": "infinite",
            "updateStartRate(uint256)": "infinite",
            "updateTokens(address,address)": "infinite",
            "updateWeights(uint256,uint256)": "infinite",
            "userDelta(uint256,address)": "infinite",
            "userInfo(uint256,address)": "6485",
            "weight()": "1139",
            "withdraw(uint256,uint256)": "infinite"
        },
        "internal": {
            "_addPool(uint256,contract IERC20,bool)": "infinite",
            "_divinationCeremony(bytes32,bytes32,address)": "infinite",
            "checkPoolDuplicate(contract IERC20)": "infinite",
            "safeSoulTransfer(address,uint256)": "infinite",
            "updateRewards(uint256,uint256)": "infinite",
            "updateStakingPool()": "infinite"
        }
    }
}