{
    "contractName": "MockSoulSummoner",
    "abi": [
        {
            "inputs": [],
            "stateMutability": "nonpayable",
            "type": "constructor"
        },
        {
            "anonymous": false,
            "inputs": [
                {
                    "indexed": false,
                    "internalType": "address",
                    "name": "dao",
                    "type": "address"
                },
                {
                    "indexed": false,
                    "internalType": "address",
                    "name": "team",
                    "type": "address"
                }
            ],
            "name": "AccountsUpdated",
            "type": "event"
        },
        {
            "anonymous": false,
            "inputs": [
                {
                    "indexed": true,
                    "internalType": "address",
                    "name": "user",
                    "type": "address"
                },
                {
                    "indexed": true,
                    "internalType": "uint256",
                    "name": "pid",
                    "type": "uint256"
                },
                {
                    "indexed": false,
                    "internalType": "uint256",
                    "name": "amount",
                    "type": "uint256"
                }
            ],
            "name": "Deposit",
            "type": "event"
        },
        {
            "anonymous": false,
            "inputs": [
                {
                    "indexed": false,
                    "internalType": "uint256",
                    "name": "_pid",
                    "type": "uint256"
                },
                {
                    "indexed": false,
                    "internalType": "address",
                    "name": "_user",
                    "type": "address"
                },
                {
                    "indexed": false,
                    "internalType": "uint256",
                    "name": "_time",
                    "type": "uint256"
                }
            ],
            "name": "DepositRevised",
            "type": "event"
        },
        {
            "anonymous": false,
            "inputs": [
                {
                    "indexed": false,
                    "internalType": "address",
                    "name": "team",
                    "type": "address"
                },
                {
                    "indexed": false,
                    "internalType": "address",
                    "name": "dao",
                    "type": "address"
                },
                {
                    "indexed": false,
                    "internalType": "address",
                    "name": "soul",
                    "type": "address"
                },
                {
                    "indexed": false,
                    "internalType": "address",
                    "name": "seance",
                    "type": "address"
                },
                {
                    "indexed": false,
                    "internalType": "uint256",
                    "name": "totalAllocPoint",
                    "type": "uint256"
                },
                {
                    "indexed": false,
                    "internalType": "uint256",
                    "name": "weight",
                    "type": "uint256"
                }
            ],
            "name": "Initialized",
            "type": "event"
        },
        {
            "anonymous": false,
            "inputs": [
                {
                    "indexed": false,
                    "internalType": "address",
                    "name": "account",
                    "type": "address"
                }
            ],
            "name": "Paused",
            "type": "event"
        },
        {
            "anonymous": false,
            "inputs": [
                {
                    "indexed": false,
                    "internalType": "uint256",
                    "name": "pid",
                    "type": "uint256"
                },
                {
                    "indexed": false,
                    "internalType": "uint256",
                    "name": "allocPoint",
                    "type": "uint256"
                },
                {
                    "indexed": false,
                    "internalType": "contract IERC20",
                    "name": "lpToken",
                    "type": "address"
                },
                {
                    "indexed": false,
                    "internalType": "uint256",
                    "name": "totalAllocPoint",
                    "type": "uint256"
                }
            ],
            "name": "PoolAdded",
            "type": "event"
        },
        {
            "anonymous": false,
            "inputs": [
                {
                    "indexed": false,
                    "internalType": "uint256",
                    "name": "pid",
                    "type": "uint256"
                },
                {
                    "indexed": false,
                    "internalType": "uint256",
                    "name": "allocPoint",
                    "type": "uint256"
                }
            ],
            "name": "PoolSet",
            "type": "event"
        },
        {
            "anonymous": false,
            "inputs": [
                {
                    "indexed": false,
                    "internalType": "uint256",
                    "name": "dailySoul",
                    "type": "uint256"
                },
                {
                    "indexed": false,
                    "internalType": "uint256",
                    "name": "soulPerSecond",
                    "type": "uint256"
                }
            ],
            "name": "RewardsUpdated",
            "type": "event"
        },
        {
            "anonymous": false,
            "inputs": [
                {
                    "indexed": true,
                    "internalType": "bytes32",
                    "name": "role",
                    "type": "bytes32"
                },
                {
                    "indexed": true,
                    "internalType": "bytes32",
                    "name": "previousAdminRole",
                    "type": "bytes32"
                },
                {
                    "indexed": true,
                    "internalType": "bytes32",
                    "name": "newAdminRole",
                    "type": "bytes32"
                }
            ],
            "name": "RoleAdminChanged",
            "type": "event"
        },
        {
            "anonymous": false,
            "inputs": [
                {
                    "indexed": false,
                    "internalType": "bytes32",
                    "name": "role",
                    "type": "bytes32"
                },
                {
                    "indexed": false,
                    "internalType": "bytes32",
                    "name": "supreme",
                    "type": "bytes32"
                }
            ],
            "name": "RoleDivinated",
            "type": "event"
        },
        {
            "anonymous": false,
            "inputs": [
                {
                    "indexed": true,
                    "internalType": "bytes32",
                    "name": "role",
                    "type": "bytes32"
                },
                {
                    "indexed": true,
                    "internalType": "address",
                    "name": "account",
                    "type": "address"
                },
                {
                    "indexed": true,
                    "internalType": "address",
                    "name": "sender",
                    "type": "address"
                }
            ],
            "name": "RoleGranted",
            "type": "event"
        },
        {
            "anonymous": false,
            "inputs": [
                {
                    "indexed": true,
                    "internalType": "bytes32",
                    "name": "role",
                    "type": "bytes32"
                },
                {
                    "indexed": true,
                    "internalType": "address",
                    "name": "account",
                    "type": "address"
                },
                {
                    "indexed": true,
                    "internalType": "address",
                    "name": "sender",
                    "type": "address"
                }
            ],
            "name": "RoleRevoked",
            "type": "event"
        },
        {
            "anonymous": false,
            "inputs": [
                {
                    "indexed": false,
                    "internalType": "uint256",
                    "name": "startRate",
                    "type": "uint256"
                }
            ],
            "name": "StartRateUpdated",
            "type": "event"
        },
        {
            "anonymous": false,
            "inputs": [
                {
                    "indexed": false,
                    "internalType": "address",
                    "name": "soul",
                    "type": "address"
                },
                {
                    "indexed": false,
                    "internalType": "address",
                    "name": "seance",
                    "type": "address"
                }
            ],
            "name": "TokensUpdated",
            "type": "event"
        },
        {
            "anonymous": false,
            "inputs": [
                {
                    "indexed": false,
                    "internalType": "address",
                    "name": "account",
                    "type": "address"
                }
            ],
            "name": "Unpaused",
            "type": "event"
        },
        {
            "anonymous": false,
            "inputs": [
                {
                    "indexed": false,
                    "internalType": "uint256",
                    "name": "weight",
                    "type": "uint256"
                },
                {
                    "indexed": false,
                    "internalType": "uint256",
                    "name": "totalWeight",
                    "type": "uint256"
                }
            ],
            "name": "WeightUpdated",
            "type": "event"
        },
        {
            "anonymous": false,
            "inputs": [
                {
                    "indexed": true,
                    "internalType": "address",
                    "name": "user",
                    "type": "address"
                },
                {
                    "indexed": true,
                    "internalType": "uint256",
                    "name": "pid",
                    "type": "uint256"
                },
                {
                    "indexed": false,
                    "internalType": "uint256",
                    "name": "amount",
                    "type": "uint256"
                },
                {
                    "indexed": false,
                    "internalType": "uint256",
                    "name": "timeStamp",
                    "type": "uint256"
                }
            ],
            "name": "Withdraw",
            "type": "event"
        },
        {
            "inputs": [],
            "name": "DEFAULT_ADMIN_ROLE",
            "outputs": [
                {
                    "internalType": "bytes32",
                    "name": "",
                    "type": "bytes32"
                }
            ],
            "stateMutability": "view",
            "type": "function"
        },
        {
            "inputs": [
                {
                    "internalType": "uint256",
                    "name": "_allocPoint",
                    "type": "uint256"
                },
                {
                    "internalType": "contract IERC20",
                    "name": "_lpToken",
                    "type": "address"
                },
                {
                    "internalType": "bool",
                    "name": "_withUpdate",
                    "type": "bool"
                }
            ],
            "name": "addPool",
            "outputs": [],
            "stateMutability": "nonpayable",
            "type": "function"
        },
        {
            "inputs": [],
            "name": "bonusMultiplier",
            "outputs": [
                {
                    "internalType": "uint256",
                    "name": "",
                    "type": "uint256"
                }
            ],
            "stateMutability": "view",
            "type": "function"
        },
        {
            "inputs": [],
            "name": "dailyDecay",
            "outputs": [
                {
                    "internalType": "uint256",
                    "name": "",
                    "type": "uint256"
                }
            ],
            "stateMutability": "view",
            "type": "function"
        },
        {
            "inputs": [],
            "name": "dailySoul",
            "outputs": [
                {
                    "internalType": "uint256",
                    "name": "",
                    "type": "uint256"
                }
            ],
            "stateMutability": "view",
            "type": "function"
        },
        {
            "inputs": [],
            "name": "dao",
            "outputs": [
                {
                    "internalType": "address",
                    "name": "",
                    "type": "address"
                }
            ],
            "stateMutability": "view",
            "type": "function"
        },
        {
            "inputs": [
                {
                    "internalType": "uint256",
                    "name": "pid",
                    "type": "uint256"
                },
                {
                    "internalType": "uint256",
                    "name": "amount",
                    "type": "uint256"
                }
            ],
            "name": "deposit",
            "outputs": [],
            "stateMutability": "nonpayable",
            "type": "function"
        },
        {
            "inputs": [
                {
                    "internalType": "uint256",
                    "name": "amount",
                    "type": "uint256"
                }
            ],
            "name": "enWei",
            "outputs": [
                {
                    "internalType": "uint256",
                    "name": "",
                    "type": "uint256"
                }
            ],
            "stateMutability": "pure",
            "type": "function"
        },
        {
            "inputs": [
                {
                    "internalType": "uint256",
                    "name": "amount",
                    "type": "uint256"
                }
            ],
            "name": "enterStaking",
            "outputs": [],
            "stateMutability": "nonpayable",
            "type": "function"
        },
        {
            "inputs": [
                {
                    "internalType": "uint256",
                    "name": "amount",
                    "type": "uint256"
                }
            ],
            "name": "fromWei",
            "outputs": [
                {
                    "internalType": "uint256",
                    "name": "",
                    "type": "uint256"
                }
            ],
            "stateMutability": "pure",
            "type": "function"
        },
        {
            "inputs": [
                {
                    "internalType": "uint256",
                    "name": "pid",
                    "type": "uint256"
                },
                {
                    "internalType": "uint256",
                    "name": "timeDelta",
                    "type": "uint256"
                }
            ],
            "name": "getFeeRate",
            "outputs": [
                {
                    "internalType": "uint256",
                    "name": "feeRate",
                    "type": "uint256"
                }
            ],
            "stateMutability": "view",
            "type": "function"
        },
        {
            "inputs": [
                {
                    "internalType": "uint256",
                    "name": "from",
                    "type": "uint256"
                },
                {
                    "internalType": "uint256",
                    "name": "to",
                    "type": "uint256"
                }
            ],
            "name": "getMultiplier",
            "outputs": [
                {
                    "internalType": "uint256",
                    "name": "",
                    "type": "uint256"
                }
            ],
            "stateMutability": "view",
            "type": "function"
        },
        {
            "inputs": [
                {
                    "internalType": "bytes32",
                    "name": "role",
                    "type": "bytes32"
                }
            ],
            "name": "getRoleAdmin",
            "outputs": [
                {
                    "internalType": "bytes32",
                    "name": "",
                    "type": "bytes32"
                }
            ],
            "stateMutability": "view",
            "type": "function"
        },
        {
            "inputs": [
                {
                    "internalType": "uint256",
                    "name": "pid",
                    "type": "uint256"
                },
                {
                    "internalType": "uint256",
                    "name": "timeDelta",
                    "type": "uint256"
                },
                {
                    "internalType": "uint256",
                    "name": "amount",
                    "type": "uint256"
                }
            ],
            "name": "getWithdrawable",
            "outputs": [
                {
                    "internalType": "uint256",
                    "name": "_feeAmount",
                    "type": "uint256"
                },
                {
                    "internalType": "uint256",
                    "name": "_withdrawable",
                    "type": "uint256"
                }
            ],
            "stateMutability": "view",
            "type": "function"
        },
        {
            "inputs": [
                {
                    "internalType": "bytes32",
                    "name": "role",
                    "type": "bytes32"
                },
                {
                    "internalType": "address",
                    "name": "account",
                    "type": "address"
                }
            ],
            "name": "grantRole",
            "outputs": [],
            "stateMutability": "nonpayable",
            "type": "function"
        },
        {
            "inputs": [
                {
                    "internalType": "bytes32",
                    "name": "role",
                    "type": "bytes32"
                },
                {
                    "internalType": "address",
                    "name": "account",
                    "type": "address"
                }
            ],
            "name": "hasRole",
            "outputs": [
                {
                    "internalType": "bool",
                    "name": "",
                    "type": "bool"
                }
            ],
            "stateMutability": "view",
            "type": "function"
        },
        {
            "inputs": [
                {
                    "internalType": "address",
                    "name": "_soulAddress",
                    "type": "address"
                },
                {
                    "internalType": "address",
                    "name": "_seanceAddress",
                    "type": "address"
                },
                {
                    "internalType": "uint256",
                    "name": "_totalWeight",
                    "type": "uint256"
                },
                {
                    "internalType": "uint256",
                    "name": "_weight",
                    "type": "uint256"
                },
                {
                    "internalType": "uint256",
                    "name": "_stakingAlloc",
                    "type": "uint256"
                },
                {
                    "internalType": "uint256",
                    "name": "_startRate",
                    "type": "uint256"
                }
            ],
            "name": "initialize",
            "outputs": [],
            "stateMutability": "nonpayable",
            "type": "function"
        },
        {
            "inputs": [],
            "name": "isInitialized",
            "outputs": [
                {
                    "internalType": "bool",
                    "name": "",
                    "type": "bool"
                }
            ],
            "stateMutability": "view",
            "type": "function"
        },
        {
            "inputs": [],
            "name": "isis",
            "outputs": [
                {
                    "internalType": "bytes32",
                    "name": "",
                    "type": "bytes32"
                }
            ],
            "stateMutability": "view",
            "type": "function"
        },
        {
            "inputs": [
                {
                    "internalType": "uint256",
                    "name": "amount",
                    "type": "uint256"
                }
            ],
            "name": "leaveStaking",
            "outputs": [],
            "stateMutability": "nonpayable",
            "type": "function"
        },
        {
            "inputs": [],
            "name": "maat",
            "outputs": [
                {
                    "internalType": "bytes32",
                    "name": "",
                    "type": "bytes32"
                }
            ],
            "stateMutability": "view",
            "type": "function"
        },
        {
            "inputs": [],
            "name": "massUpdatePools",
            "outputs": [],
            "stateMutability": "nonpayable",
            "type": "function"
        },
        {
            "inputs": [
                {
                    "internalType": "uint256",
                    "name": "pid",
                    "type": "uint256"
                }
            ],
            "name": "migrate",
            "outputs": [],
            "stateMutability": "nonpayable",
            "type": "function"
        },
        {
            "inputs": [],
            "name": "migrator",
            "outputs": [
                {
                    "internalType": "contract IMigrator",
                    "name": "",
                    "type": "address"
                }
            ],
            "stateMutability": "view",
            "type": "function"
        },
        {
            "inputs": [],
            "name": "paused",
            "outputs": [
                {
                    "internalType": "bool",
                    "name": "",
                    "type": "bool"
                }
            ],
            "stateMutability": "view",
            "type": "function"
        },
        {
            "inputs": [
                {
                    "internalType": "uint256",
                    "name": "pid",
                    "type": "uint256"
                },
                {
                    "internalType": "address",
                    "name": "_user",
                    "type": "address"
                }
            ],
            "name": "pendingSoul",
            "outputs": [
                {
                    "internalType": "uint256",
                    "name": "pendingAmount",
                    "type": "uint256"
                }
            ],
            "stateMutability": "view",
            "type": "function"
        },
        {
            "inputs": [
                {
                    "internalType": "uint256",
                    "name": "",
                    "type": "uint256"
                }
            ],
            "name": "poolInfo",
            "outputs": [
                {
                    "internalType": "contract IERC20",
                    "name": "lpToken",
                    "type": "address"
                },
                {
                    "internalType": "uint256",
                    "name": "allocPoint",
                    "type": "uint256"
                },
                {
                    "internalType": "uint256",
                    "name": "lastRewardTime",
                    "type": "uint256"
                },
                {
                    "internalType": "uint256",
                    "name": "accSoulPerShare",
                    "type": "uint256"
                }
            ],
            "stateMutability": "view",
            "type": "function"
        },
        {
            "inputs": [],
            "name": "poolLength",
            "outputs": [
                {
                    "internalType": "uint256",
                    "name": "",
                    "type": "uint256"
                }
            ],
            "stateMutability": "view",
            "type": "function"
        },
        {
            "inputs": [
                {
                    "internalType": "bytes32",
                    "name": "role",
                    "type": "bytes32"
                },
                {
                    "internalType": "address",
                    "name": "account",
                    "type": "address"
                }
            ],
            "name": "renounceRole",
            "outputs": [],
            "stateMutability": "nonpayable",
            "type": "function"
        },
        {
            "inputs": [
                {
                    "internalType": "uint256",
                    "name": "_pid",
                    "type": "uint256"
                },
                {
                    "internalType": "address",
                    "name": "_user",
                    "type": "address"
                },
                {
                    "internalType": "uint256",
                    "name": "_time",
                    "type": "uint256"
                }
            ],
            "name": "reviseDeposit",
            "outputs": [],
            "stateMutability": "nonpayable",
            "type": "function"
        },
        {
            "inputs": [
                {
                    "internalType": "bytes32",
                    "name": "role",
                    "type": "bytes32"
                },
                {
                    "internalType": "address",
                    "name": "account",
                    "type": "address"
                }
            ],
            "name": "revokeRole",
            "outputs": [],
            "stateMutability": "nonpayable",
            "type": "function"
        },
        {
            "inputs": [],
            "name": "seance",
            "outputs": [
                {
                    "internalType": "contract MockSeanceCircle",
                    "name": "",
                    "type": "address"
                }
            ],
            "stateMutability": "view",
            "type": "function"
        },
        {
            "inputs": [
                {
                    "internalType": "uint256",
                    "name": "pid",
                    "type": "uint256"
                },
                {
                    "internalType": "uint256",
                    "name": "allocPoint",
                    "type": "uint256"
                },
                {
                    "internalType": "bool",
                    "name": "withUpdate",
                    "type": "bool"
                }
            ],
            "name": "set",
            "outputs": [],
            "stateMutability": "nonpayable",
            "type": "function"
        },
        {
            "inputs": [
                {
                    "internalType": "contract IMigrator",
                    "name": "_migrator",
                    "type": "address"
                }
            ],
            "name": "setMigrator",
            "outputs": [],
            "stateMutability": "nonpayable",
            "type": "function"
        },
        {
            "inputs": [],
            "name": "soul",
            "outputs": [
                {
                    "internalType": "contract MockSoulPower",
                    "name": "",
                    "type": "address"
                }
            ],
            "stateMutability": "view",
            "type": "function"
        },
        {
            "inputs": [],
            "name": "soulPerSecond",
            "outputs": [
                {
                    "internalType": "uint256",
                    "name": "",
                    "type": "uint256"
                }
            ],
            "stateMutability": "view",
            "type": "function"
        },
        {
            "inputs": [],
            "name": "startRate",
            "outputs": [
                {
                    "internalType": "uint256",
                    "name": "",
                    "type": "uint256"
                }
            ],
            "stateMutability": "view",
            "type": "function"
        },
        {
            "inputs": [],
            "name": "startTime",
            "outputs": [
                {
                    "internalType": "uint256",
                    "name": "",
                    "type": "uint256"
                }
            ],
            "stateMutability": "view",
            "type": "function"
        },
        {
            "inputs": [
                {
                    "internalType": "bytes4",
                    "name": "interfaceId",
                    "type": "bytes4"
                }
            ],
            "name": "supportsInterface",
            "outputs": [
                {
                    "internalType": "bool",
                    "name": "",
                    "type": "bool"
                }
            ],
            "stateMutability": "view",
            "type": "function"
        },
        {
            "inputs": [],
            "name": "team",
            "outputs": [
                {
                    "internalType": "address",
                    "name": "",
                    "type": "address"
                }
            ],
            "stateMutability": "view",
            "type": "function"
        },
        {
            "inputs": [],
            "name": "totalAllocPoint",
            "outputs": [
                {
                    "internalType": "uint256",
                    "name": "",
                    "type": "uint256"
                }
            ],
            "stateMutability": "view",
            "type": "function"
        },
        {
            "inputs": [],
            "name": "totalWeight",
            "outputs": [
                {
                    "internalType": "uint256",
                    "name": "",
                    "type": "uint256"
                }
            ],
            "stateMutability": "view",
            "type": "function"
        },
        {
            "inputs": [
                {
                    "internalType": "address",
                    "name": "_dao",
                    "type": "address"
                },
                {
                    "internalType": "address",
                    "name": "_team",
                    "type": "address"
                }
            ],
            "name": "updateAccounts",
            "outputs": [],
            "stateMutability": "nonpayable",
            "type": "function"
        },
        {
            "inputs": [
                {
                    "internalType": "uint256",
                    "name": "_bonusMultiplier",
                    "type": "uint256"
                }
            ],
            "name": "updateMultiplier",
            "outputs": [],
            "stateMutability": "nonpayable",
            "type": "function"
        },
        {
            "inputs": [
                {
                    "internalType": "uint256",
                    "name": "pid",
                    "type": "uint256"
                }
            ],
            "name": "updatePool",
            "outputs": [],
            "stateMutability": "nonpayable",
            "type": "function"
        },
        {
            "inputs": [
                {
                    "internalType": "uint256",
                    "name": "_startRate",
                    "type": "uint256"
                }
            ],
            "name": "updateStartRate",
            "outputs": [],
            "stateMutability": "nonpayable",
            "type": "function"
        },
        {
            "inputs": [
                {
                    "internalType": "address",
                    "name": "_soul",
                    "type": "address"
                },
                {
                    "internalType": "address",
                    "name": "_seance",
                    "type": "address"
                }
            ],
            "name": "updateTokens",
            "outputs": [],
            "stateMutability": "nonpayable",
            "type": "function"
        },
        {
            "inputs": [
                {
                    "internalType": "uint256",
                    "name": "_weight",
                    "type": "uint256"
                },
                {
                    "internalType": "uint256",
                    "name": "_totalWeight",
                    "type": "uint256"
                }
            ],
            "name": "updateWeights",
            "outputs": [],
            "stateMutability": "nonpayable",
            "type": "function"
        },
        {
            "inputs": [
                {
                    "internalType": "uint256",
                    "name": "_pid",
                    "type": "uint256"
                },
                {
                    "internalType": "address",
                    "name": "_user",
                    "type": "address"
                }
            ],
            "name": "userDelta",
            "outputs": [
                {
                    "internalType": "uint256",
                    "name": "delta",
                    "type": "uint256"
                }
            ],
            "stateMutability": "view",
            "type": "function"
        },
        {
            "inputs": [
                {
                    "internalType": "uint256",
                    "name": "",
                    "type": "uint256"
                },
                {
                    "internalType": "address",
                    "name": "",
                    "type": "address"
                }
            ],
            "name": "userInfo",
            "outputs": [
                {
                    "internalType": "uint256",
                    "name": "amount",
                    "type": "uint256"
                },
                {
                    "internalType": "uint256",
                    "name": "rewardDebt",
                    "type": "uint256"
                },
                {
                    "internalType": "uint256",
                    "name": "rewardDebtAtTime",
                    "type": "uint256"
                },
                {
                    "internalType": "uint256",
                    "name": "lastWithdrawTime",
                    "type": "uint256"
                },
                {
                    "internalType": "uint256",
                    "name": "firstDepositTime",
                    "type": "uint256"
                },
                {
                    "internalType": "uint256",
                    "name": "timeDelta",
                    "type": "uint256"
                },
                {
                    "internalType": "uint256",
                    "name": "lastDepositTime",
                    "type": "uint256"
                }
            ],
            "stateMutability": "view",
            "type": "function"
        },
        {
            "inputs": [],
            "name": "weight",
            "outputs": [
                {
                    "internalType": "uint256",
                    "name": "",
                    "type": "uint256"
                }
            ],
            "stateMutability": "view",
            "type": "function"
        },
        {
            "inputs": [
                {
                    "internalType": "uint256",
                    "name": "pid",
                    "type": "uint256"
                },
                {
                    "internalType": "uint256",
                    "name": "amount",
                    "type": "uint256"
                }
            ],
            "name": "withdraw",
            "outputs": [],
            "stateMutability": "nonpayable",
            "type": "function"
        }
    ],
    "bytecode": "60a06040526001600e556200001b60016200010060201b60201c565b6080523480156200002b57600080fd5b506001805460ff1916815560025560078054336001600160a01b0319918216811792839055600880549092161790557f36d5d8406f8379c6deba01145ec4f6a2966675cc67d71355b397a2a8e3572b296015557f0811b25c145e1379dc78112dd91057f09150f6db05dfd7e04deb910e6cefd4b7601655620000bb9060009081906001600160a01b03166200011c565b50601554600754620000d9919081906001600160a01b03166200011c565b50601654601554600854620000f99291906001600160a01b03166200011c565b506200029d565b60006200011682670de0b6b3a764000062000271565b92915050565b60006200012a848362000140565b62000136848462000150565b5060019392505050565b6200014c8282620001a5565b5050565b60006200015d836200022f565b600084815260208190526040808220600101859055519192508391839186917fbd79b86ffe0ab8e8776151514217cd7cacd52c909f66475c3af44e129f0b00ff9190a4505050565b620001b1828262000244565b6200014c576000828152602081815260408083206001600160a01b03851684529091529020805460ff19166001179055620001eb6200026d565b6001600160a01b0316816001600160a01b0316837f2f8788117e7eff1d82e926ec794901d17c78024a50270940304540a733656f0d60405160405180910390a45050565b60009081526020819052604090206001015490565b6000918252602082815260408084206001600160a01b0393909316845291905290205460ff1690565b3390565b60008160001904831182151516156200029857634e487b7160e01b81526011600452602481fd5b500290565b60805161370e620002b960003960006125c1015261370e6000f3fe608060405234801561001057600080fd5b506004361061030c5760003560e01c80637d500ec81161019d578063a8b973a1116100e9578063e65d1522116100a2578063f107fd851161007c578063f107fd8514610633578063fb39d1e314610646578063fc90fdc014610659578063fd6f99d0146106615761030c565b8063e65d152214610605578063e7aa29e314610618578063ea4bf4461461062b5761030c565b8063a8b973a11461059e578063bfafcad5146105a6578063cf94ee96146105b9578063d547741f146105cc578063e13e8ec2146105df578063e2bbb158146105f25761030c565b80638dbb1e3a1161015657806396c82e571161013057806396c82e57146105735780639f6c54261461057b578063a1aab33f1461058e578063a217fddf146105965761030c565b80638dbb1e3a1461052757806391d148541461053a57806393f1a40b1461054d5761030c565b80637d500ec8146104c85780637e668b42146104d0578063815b7a8c146104f157806382386d58146104f957806385f2aef21461050c57806386489ba9146105145761030c565b8063441a3e701161025c5780635f9bf6891161021557806364482f79116101ef57806364482f791461049257806378e97925146104a55780637abceffd146104ad5780637cd07e47146104c05761030c565b80635f9bf6891461046f5780635ffe614614610477578063630b5ba11461048a5761030c565b8063441a3e7014610413578063454b0608146104265780634a962829146104395780634ca01d451461044c57806351eb05a6146104545780635c975abb146104675761030c565b806323cf3118116102c957806336568abe116102a357806336568abe146103d0578063392e53cd146103e357806341441d3b146103eb5780634162169f146103fe5761030c565b806323cf311814610397578063248a9ca3146103aa5780632f2ff15d146103bd5761030c565b806301ffc9a714610311578063081e3eda1461033a5780631058d2811461034f5780631254f0dc146103645780631526fe271461036c57806317caf6f11461038f575b600080fd5b61032461031f366004612e4a565b610669565b60405161033191906130f9565b60405180910390f35b610342610694565b6040516103319190613104565b61036261035d366004612e0e565b61069a565b005b61034261095b565b61037f61037a366004612e0e565b610961565b604051610331949392919061310d565b6103426109a5565b6103626103a5366004612e8e565b6109ab565b6103426103b8366004612e0e565b610a04565b6103626103cb366004612e26565b610a19565b6103626103de366004612e26565b610a3d565b610324610a83565b6103626103f9366004612e0e565b610a8c565b610406610d5d565b6040516103319190613054565b610362610421366004612f3a565b610d6c565b610362610434366004612e0e565b61109e565b610362610447366004612e0e565b611388565b610406611437565b610362610462366004612e0e565b611446565b610324611741565b61034261174a565b610362610485366004612e0e565b611750565b610362611765565b6103626104a0366004612f5b565b61178c565b6103426118c8565b6103626104bb366004612ef9565b6118ce565b610406611919565b610342611928565b6104e36104de366004612f88565b61192e565b604051610331929190613542565b6104066119d6565b610362610507366004612ec2565b6119e5565b610406611a61565b610362610522366004612d9a565b611a70565b610342610535366004612f3a565b611cbe565b610324610548366004612e26565b611cdf565b61056061055b366004612e26565b611d08565b6040516103319796959493929190613574565b610342611d57565b610342610589366004612f3a565b611d5d565b610342611dcb565b610342611dd1565b610342611dd6565b6103426105b4366004612e26565b611ddc565b6103426105c7366004612e0e565b611f6d565b6103626105da366004612e26565b611f81565b6103626105ed366004612d62565b611fa0565b610362610600366004612f3a565b612068565b610342610613366004612e0e565b612306565b610362610626366004612d62565b61231a565b6103426123d2565b610362610641366004612f3a565b6123d8565b610342610654366004612e26565b6124c2565b6103426125bf565b6103426125e3565b60006001600160e01b03198216637965db0b60e01b148061068e575061068e826125e9565b92915050565b60135490565b6002805414156106c55760405162461bcd60e51b81526004016106bc906133fa565b60405180910390fd5b60028081905550600060136000815481106106f057634e487b7160e01b600052603260045260246000fd5b600091825260208083203384527f4f26c3876aa9f4b92579780beea1161a61f87ebf1ec6ee865b299e447ecba99c90915260409092208054600490920290920192508311156107515760405162461bcd60e51b81526004016106bc9061337a565b61075b6000611446565b6000816001015464e8d4a510008460030154846000015461077c91906135dc565b61078691906135bc565b61079091906135fb565b905080156107a2576107a23382612602565b831561083c5781546107b59085906135fb565b8255825460405163a9059cbb60e01b81526001600160a01b039091169063a9059cbb906107e890339088906004016130e0565b602060405180830381600087803b15801561080257600080fd5b505af1158015610816573d6000803e3d6000fd5b505050506040513d601f19601f8201168201806040525081019061083a9190612df2565b505b6003830154825464e8d4a5100091610853916135dc565b61085d91906135bc565b6001830155426003830181905560408051808201909152601881527f6c617374207769746864726177616c2074696d653a202573000000000000000060208201526108a79161266a565b600654604051632770a7eb60e21b81526001600160a01b0390911690639dc29fac906108d990339088906004016130e0565b600060405180830381600087803b1580156108f357600080fd5b505af1158015610907573d6000803e3d6000fd5b505050506000336001600160a01b03167f02f25270a4d87bea75db541cdfe559334a275b4a233520ed6c0a2429667cca948642604051610948929190613542565b60405180910390a3505060016002555050565b60125481565b6013818154811061097157600080fd5b600091825260209091206004909102018054600182015460028301546003909301546001600160a01b039092169350919084565b60105481565b60115460ff166109cd5760405162461bcd60e51b81526004016106bc906134b7565b6015546109e1816109dc6126af565b6126b3565b50600980546001600160a01b0319166001600160a01b0392909216919091179055565b60009081526020819052604090206001015490565b610a2282610a04565b610a2e816109dc6126af565b610a388383612717565b505050565b610a456126af565b6001600160a01b0316816001600160a01b031614610a755760405162461bcd60e51b81526004016106bc90613431565b610a7f828261279c565b5050565b60115460ff1681565b600280541415610aae5760405162461bcd60e51b81526004016106bc906133fa565b60028055610aba611741565b15610ad75760405162461bcd60e51b81526004016106bc906131f9565b60006013600081548110610afb57634e487b7160e01b600052603260045260246000fd5b600091825260208083203384527f4f26c3876aa9f4b92579780beea1161a61f87ebf1ec6ee865b299e447ecba99c90915260408320600490920201925090610b4290611446565b805415610b92576000816001015464e8d4a5100084600301548460000154610b6a91906135dc565b610b7491906135bc565b610b7e91906135fb565b90508015610b9057610b903382612602565b505b8215610c2e5781546040516323b872dd60e01b81526001600160a01b03909116906323b872dd90610bcb903390309088906004016130bc565b602060405180830381600087803b158015610be557600080fd5b505af1158015610bf9573d6000803e3d6000fd5b505050506040513d601f19601f82011682018060405250810190610c1d9190612df2565b508054610c2b9084906135a4565b81555b6000816004015411610c405742610c46565b80600401545b600482018190556040805180820190915260198152786669727374206465706f736974206d6164652061743a20257360381b6020820152610c869161266a565b6003820154815464e8d4a5100091610c9d916135dc565b610ca791906135bc565b60018201556006546040516340c10f1960e01b81526001600160a01b03909116906340c10f1990610cde90339087906004016130e0565b600060405180830381600087803b158015610cf857600080fd5b505af1158015610d0c573d6000803e3d6000fd5b505050506000336001600160a01b03167f90890809c654f11d6e72a28fa60149770a0d11ec6c92319d6ceb2bb0a4ea1a1585604051610d4b9190613104565b60405180910390a35050600160025550565b6008546001600160a01b031681565b600280541415610d8e5760405162461bcd60e51b81526004016106bc906133fa565b6002805560135482908110610db55760405162461bcd60e51b81526004016106bc9061334d565b82610dd25760405162461bcd60e51b81526004016106bc90613279565b600060138481548110610df557634e487b7160e01b600052603260045260246000fd5b600091825260208083208784526014825260408085203386529092529220805460049092029092019250841115610e3e5760405162461bcd60e51b81526004016106bc906133a6565b610e4785611446565b6000816001015464e8d4a5100084600301548460000154610e6891906135dc565b610e7291906135bc565b610e7c91906135fb565b90508015610e8e57610e8e3382612602565b8415610edc57600682015415610eb7576006820154610ead90426135fb565b6005830155610ecc565b6004820154610ec690426135fb565b60058301555b8154610ed99086906135fb565b82555b600086815260146020908152604080832033845290915281206005015490610f0588838961192e565b915060009050610f1582896135fb565b865460085460405163a9059cbb60e01b81529293506001600160a01b039182169263a9059cbb92610f4c92169085906004016130e0565b602060405180830381600087803b158015610f6657600080fd5b505af1158015610f7a573d6000803e3d6000fd5b505050506040513d601f19601f82011682018060405250810190610f9e9190612df2565b50855460405163a9059cbb60e01b81526001600160a01b039091169063a9059cbb90610fd090339086906004016130e0565b602060405180830381600087803b158015610fea57600080fd5b505af1158015610ffe573d6000803e3d6000fd5b505050506040513d601f19601f820116820180604052508101906110229190612df2565b506003860154855464e8d4a510009161103a916135dc565b61104491906135bc565b600186015542600386018190556040518a9133917f02f25270a4d87bea75db541cdfe559334a275b4a233520ed6c0a2429667cca9491611086918d9190613542565b60405180910390a35050600160025550505050505050565b60115460ff166110c05760405162461bcd60e51b81526004016106bc906134b7565b601354819081106110e35760405162461bcd60e51b81526004016106bc9061334d565b6009546001600160a01b031661110b5760405162461bcd60e51b81526004016106bc90613250565b60006013838154811061112e57634e487b7160e01b600052603260045260246000fd5b60009182526020822060049182020180546040516370a0823160e01b81529194506001600160a01b0316929183916370a082319161116e91309101613054565b60206040518083038186803b15801561118657600080fd5b505afa15801561119a573d6000803e3d6000fd5b505050506040513d601f19601f820116820180604052508101906111be9190612eaa565b60095460405163095ea7b360e01b81529192506001600160a01b038085169263095ea7b3926111f392169085906004016130e0565b602060405180830381600087803b15801561120d57600080fd5b505af1158015611221573d6000803e3d6000fd5b505050506040513d601f19601f820116820180604052508101906112459190612df2565b5060095460405163ce5494bb60e01b81526000916001600160a01b03169063ce5494bb90611277908690600401613054565b602060405180830381600087803b15801561129157600080fd5b505af11580156112a5573d6000803e3d6000fd5b505050506040513d601f19601f820116820180604052508101906112c99190612e72565b6040516370a0823160e01b81529091506001600160a01b038216906370a08231906112f8903090600401613054565b60206040518083038186803b15801561131057600080fd5b505afa158015611324573d6000803e3d6000fd5b505050506040513d601f19601f820116820180604052508101906113489190612eaa565b82146113665760405162461bcd60e51b81526004016106bc90613480565b83546001600160a01b0319166001600160a01b03919091161790925550505050565b601654611397816109dc6126af565b6113a082611f6d565b60125414156113ae57600080fd5b6113b782611f6d565b60128190556040805180820190915260158152746e657720737461727420726174652069733a20257360581b60208201526113fa916113f590612306565b61266a565b7f580e2348a4d1118e1f915eeffd71aec4938e749307b28e67f19841ca64117df760125460405161142b9190613104565b60405180910390a15050565b6006546001600160a01b031681565b601354819081106114695760405162461bcd60e51b81526004016106bc9061334d565b60006013838154811061148c57634e487b7160e01b600052603260045260246000fd5b90600052602060002090600402019050806002015442116114ad5750610a7f565b80546040516370a0823160e01b81526000916001600160a01b0316906370a08231906114dd903090600401613054565b60206040518083038186803b1580156114f557600080fd5b505afa158015611509573d6000803e3d6000fd5b505050506040513d601f19601f8201168201806040525081019061152d9190612eaa565b905080611541575042600290910155610a7f565b6000611551836002015442611cbe565b905060006010548460010154600d548461156b91906135dc565b61157591906135dc565b61157f91906135bc565b90506000650746a52880006115998364e8d4a510006135dc565b6115a391906135bc565b905060006115b28260026135dc565b905060006115c082856135fb565b600480546007546040516340c10f1960e01b81529394506001600160a01b03918216936340c10f19936115f993909216918891016130e0565b600060405180830381600087803b15801561161357600080fd5b505af1158015611627573d6000803e3d6000fd5b5050600480546008546040516340c10f1960e01b81526001600160a01b0392831695506340c10f1994506116629391909216918891016130e0565b600060405180830381600087803b15801561167c57600080fd5b505af1158015611690573d6000803e3d6000fd5b5050600480546006546040516340c10f1960e01b81526001600160a01b0392831695506340c10f1994506116cb9391909216918691016130e0565b600060405180830381600087803b1580156116e557600080fd5b505af11580156116f9573d6000803e3d6000fd5b50505050858464e8d4a5100061170f91906135dc565b61171991906135bc565b876003015461172891906135a4565b6003880155505042600290950194909455505050505050565b60015460ff1690565b600d5481565b60165461175f816109dc6126af565b50600e55565b60135460005b81811015610a7f5761177c81611446565b61178581613655565b905061176b565b60115460ff166117ae5760405162461bcd60e51b81526004016106bc906134b7565b601354839081106117d15760405162461bcd60e51b81526004016106bc9061334d565b6016546117e0816109dc6126af565b82156117ee576117ee611765565b60006013868154811061181157634e487b7160e01b600052603260045260246000fd5b9060005260206000209060040201600101549050846013878154811061184757634e487b7160e01b600052603260045260246000fd5b90600052602060002090600402016001018190555084811461188757848160105461187291906135fb565b61187c91906135a4565b60105561188761281f565b7fd88f859573973e938da5bf3e5100c16eee2090fa720e05ae3d452b4cd05cdcfd86866040516118b8929190613542565b60405180910390a1505050505050565b600f5481565b60115460ff166118f05760405162461bcd60e51b81526004016106bc906134b7565b6015546118ff816109dc6126af565b61190883612921565b6119138484846129a2565b50505050565b6009546001600160a01b031681565b600c5481565b60008060006119406106138787611d5d565b90506000606461195083876135dc565b61195a91906135bc565b90506119896040518060400160405280600b81526020016a666565526174653a20257360a81b8152508361266a565b6119bb6040518060400160405280600d81526020016c666565416d6f756e743a20257360981b8152506113f583612306565b60006119c782876135fb565b91989197509095505050505050565b6004546001600160a01b031681565b6016546119f4816109dc6126af565b60008481526014602090815260408083206001600160a01b0387168452909152908190206004810184905590517f40d6e8e3d60e4693375c73df2d1a71d582a28197c98fd8d2badad6ead06af64c90611a5290879087908790613523565b60405180910390a15050505050565b6007546001600160a01b031681565b601554611a7f816109dc6126af565b60115460ff1615611aa25760405162461bcd60e51b81526004016106bc90613223565b600380546001600160a01b03808a166001600160a01b031992831617909255600580549289169290911691909117905542600f55611ae084866135a4565b600a55600b849055611af182611f6d565b601255600354600480546001600160a01b039283166001600160a01b03199182161790915560055460068054919093169116179055600b54600a548491611b3791612aaf565b60408051608081018252600480546001600160a01b03908116835260208301858152600f54948401948552600060608501818152601380546001808201835591845296517f66de8ffda797e3de9c05e8fc57b3bf0ec28a930d40b0d285d93c06501cf6a0909790960296870180546001600160a01b031916969095169590951790935590517f66de8ffda797e3de9c05e8fc57b3bf0ec28a930d40b0d285d93c06501cf6a09185015593517f66de8ffda797e3de9c05e8fc57b3bf0ec28a930d40b0d285d93c06501cf6a092840155517f66de8ffda797e3de9c05e8fc57b3bf0ec28a930d40b0d285d93c06501cf6a093909201919091556011805460ff1916909117905560108054839290611c4e9084906135a4565b9091555050600754600854600354600554601054600b546040517f0476c5e4920930815a67a5a042e26836431f494d3be0f6e10c3034787a7a15f996611cac966001600160a01b039182169690821695908216949116929091613082565b60405180910390a15050505050505050565b600e54600090611cce84846135fb565b611cd891906135dc565b9392505050565b6000918252602082815260408084206001600160a01b0393909316845291905290205460ff1690565b6014602052816000526040600020602052806000526040600020600091509150508060000154908060010154908060020154908060030154908060040154908060050154908060060154905087565b600a5481565b600080620151808310611d7c57611d7762015180846135bc565b611d7f565b60005b90506000611d8c82611f6d565b90506000601254821015611dad5781601254611da891906135fb565b611db0565b60005b90508515611dbe5780611dc1565b60005b9695505050505050565b600b5481565b600081565b600e5481565b60008060138481548110611e0057634e487b7160e01b600052603260045260246000fd5b600091825260208083208784526014825260408085206001600160a01b038981168752935280852060049485029092016003810154815492516370a0823160e01b815291975092959294929391909116916370a0823191611e6391309101613054565b60206040518083038186803b158015611e7b57600080fd5b505afa158015611e8f573d6000803e3d6000fd5b505050506040513d601f19601f82011682018060405250810190611eb39190612eaa565b9050836002015442118015611ec757508015155b15611f35576000611edc856002015442611cbe565b905060006010548660010154600d5484611ef691906135dc565b611f0091906135dc565b611f0a91906135bc565b905082611f1c8264e8d4a510006135dc565b611f2691906135bc565b611f3090856135a4565b935050505b6001830154835464e8d4a5100090611f4e9085906135dc565b611f5891906135bc565b611f6291906135fb565b979650505050505050565b600061068e82670de0b6b3a76400006135dc565b611f8a82610a04565b611f96816109dc6126af565b610a38838361279c565b601554611faf816109dc6126af565b6008546001600160a01b038481169116141580611fda57506007546001600160a01b03838116911614155b611ff65760405162461bcd60e51b81526004016106bc9061331e565b600880546001600160a01b038086166001600160a01b0319928316179283905560078054868316931692909217918290556040517fd1c04282701cbf58aa2f0026f6876051cf3feb8ee7b8b5b5532ebb4ab03fb5d49361205b93908316921690613068565b60405180910390a1505050565b60028054141561208a5760405162461bcd60e51b81526004016106bc906133fa565b60028055601354829081106120b15760405162461bcd60e51b81526004016106bc9061334d565b6120b9611741565b156120d65760405162461bcd60e51b81526004016106bc906131f9565b826120f35760405162461bcd60e51b81526004016106bc906132b0565b60006013848154811061211657634e487b7160e01b600052603260045260246000fd5b6000918252602080832087845260148252604080852033865290925292206004909102909101915061214785611446565b805415612197576000816001015464e8d4a510008460030154846000015461216f91906135dc565b61217991906135bc565b61218391906135fb565b90508015612195576121953382612602565b505b831561223d5781546040516323b872dd60e01b81526001600160a01b03909116906323b872dd906121d0903390309089906004016130bc565b602060405180830381600087803b1580156121ea57600080fd5b505af11580156121fe573d6000803e3d6000fd5b505050506040513d601f19601f820116820180604052508101906122229190612df2565b508381600001600082825461223791906135a4565b90915550505b6003820154815464e8d4a5100091612254916135dc565b61225e91906135bc565b600182015560048101546122725742612278565b80600401545b600482018190556040805180820190915260198152786669727374206465706f736974206d6164652061743a20257360381b60208201526122b89161266a565b84336001600160a01b03167f90890809c654f11d6e72a28fa60149770a0d11ec6c92319d6ceb2bb0a4ea1a15866040516122f29190613104565b60405180910390a350506001600255505050565b600061068e670de0b6b3a7640000836135bc565b601554612329816109dc6126af565b6004546001600160a01b03848116911614158061235457506006546001600160a01b03838116911614155b6123705760405162461bcd60e51b81526004016106bc906132e7565b600480546001600160a01b038086166001600160a01b03199283161790925560068054928516929091169190911790556040517fdcc6331013de89f8c595d5328f0a724194f113cb6f8f2a707b3dff6de13f0d179061205b9085908590613068565b60155481565b6016546123e7816109dc6126af565b82600b541415806123fa575081600a5414155b6124165760405162461bcd60e51b81526004016106bc906131c2565b828210156124365760405162461bcd60e51b81526004016106bc906134ee565b600b839055600a82905560408051808201909152601981527f6e657720776569676874733a202573206f7574206f6620257300000000000000602082015261247f908484612b4c565b61248d600b54600a54612aaf565b7fb298bc23e07860d501fddce288f46d761aa04a0c7c3316099eb50f097aacf304600b54600a5460405161205b929190613542565b60008281526014602090815260408083206001600160a01b03851684528252808320815160e08101835281548152600182015481850152600282015481840152600382015460608083019190915260048301546080830152600583015460a083015260069092015460c08201528251918201909252602c808252919261255992906136ad9083013982608001518360600151612b4c565b6125886040518060400160405280600d81526020016c74696d657374616d703a20257360981b8152504261266a565b60008160600151116125a85760808101516125a390426135fb565b6125b7565b60608101516125b790426135fb565b949350505050565b7f000000000000000000000000000000000000000000000000000000000000000081565b60165481565b6001600160e01b031981166301ffc9a760e01b14919050565b600654604051635950a15560e11b81526001600160a01b039091169063b2a142aa9061263490859085906004016130e0565b600060405180830381600087803b15801561264e57600080fd5b505af1158015612662573d6000803e3d6000fd5b505050505050565b610a7f8282604051602401612680929190613146565b60408051601f198184030181529190526020810180516001600160e01b03166309710a9d60e41b179052612b8f565b3390565b6126bd8282611cdf565b610a7f576126d5816001600160a01b03166014612bb0565b6126e0836020612bb0565b6040516020016126f1929190612fdf565b60408051601f198184030181529082905262461bcd60e51b82526106bc91600401613133565b6127218282611cdf565b610a7f576000828152602081815260408083206001600160a01b03851684529091529020805460ff191660011790556127586126af565b6001600160a01b0316816001600160a01b0316837f2f8788117e7eff1d82e926ec794901d17c78024a50270940304540a733656f0d60405160405180910390a45050565b6127a68282611cdf565b15610a7f576000828152602081815260408083206001600160a01b03851684529091529020805460ff191690556127db6126af565b6001600160a01b0316816001600160a01b0316837ff6391f5c32d9c69d2a47ea670b442974b53935d1edc7fd64eb21e047a839171b60405160405180910390a45050565b601354600060015b8281101561287f576013818154811061285057634e487b7160e01b600052603260045260246000fd5b9060005260206000209060040201600101548261286d91906135a4565b915061287881613655565b9050612827565b508015610a7f576128916003826135bc565b90508060136000815481106128b657634e487b7160e01b600052603260045260246000fd5b9060005260206000209060040201600101546010546128d591906135fb565b6128df91906135a4565b60108190555080601360008154811061290857634e487b7160e01b600052603260045260246000fd5b9060005260206000209060040201600101819055505050565b60135460005b81811015610a3857826001600160a01b03166013828154811061295a57634e487b7160e01b600052603260045260246000fd5b60009182526020909120600490910201546001600160a01b031614156129925760405162461bcd60e51b81526004016106bc906133d1565b61299b81613655565b9050612927565b80156129b0576129b0611765565b82601060008282546129c291906135a4565b9250508190555060136040518060800160405280846001600160a01b03168152602001858152602001600f5442116129fc57600f546129fe565b425b81526000602091820181905283546001808201865594825290829020835160049092020180546001600160a01b0319166001600160a01b0390921691909117815590820151928101929092556040810151600283015560600151600390910155612a6661281f565b6013546010546040517f20b669aa921947a6d9602a921d2db3b6b30f21b9aca98580fa3972530330b27a91612aa19184918891889190613550565b60405180910390a150505050565b600081612abb84611f6d565b612ac591906135bc565b9050612af56040518060400160405280600981526020016873686172653a20257360b81b8152506113f583612306565b612b02816203d0906135dc565b600c819055612b159062015180906135bc565b600d819055600c546040517fcd7c861d63893659123f817b192b8621ff1923a7c4589c260173cedcf9e986a69261205b9291613542565b610a38838383604051602401612b6493929190613168565b60408051601f198184030181529190526020810180516001600160e01b031663969cdd0360e01b1790525b80516a636f6e736f6c652e6c6f67602083016000808483855afa5050505050565b60606000612bbf8360026135dc565b612bca9060026135a4565b67ffffffffffffffff811115612bf057634e487b7160e01b600052604160045260246000fd5b6040519080825280601f01601f191660200182016040528015612c1a576020820181803683370190505b509050600360fc1b81600081518110612c4357634e487b7160e01b600052603260045260246000fd5b60200101906001600160f81b031916908160001a905350600f60fb1b81600181518110612c8057634e487b7160e01b600052603260045260246000fd5b60200101906001600160f81b031916908160001a9053506000612ca48460026135dc565b612caf9060016135a4565b90505b6001811115612d43576f181899199a1a9b1b9c1cb0b131b232b360811b85600f1660108110612cf157634e487b7160e01b600052603260045260246000fd5b1a60f81b828281518110612d1557634e487b7160e01b600052603260045260246000fd5b60200101906001600160f81b031916908160001a90535060049490941c93612d3c8161363e565b9050612cb2565b508315611cd85760405162461bcd60e51b81526004016106bc9061318d565b60008060408385031215612d74578182fd5b8235612d7f81613686565b91506020830135612d8f81613686565b809150509250929050565b60008060008060008060c08789031215612db2578182fd5b8635612dbd81613686565b95506020870135612dcd81613686565b95989597505050506040840135936060810135936080820135935060a0909101359150565b600060208284031215612e03578081fd5b8151611cd88161369e565b600060208284031215612e1f578081fd5b5035919050565b60008060408385031215612e38578182fd5b823591506020830135612d8f81613686565b600060208284031215612e5b578081fd5b81356001600160e01b031981168114611cd8578182fd5b600060208284031215612e83578081fd5b8151611cd881613686565b600060208284031215612e9f578081fd5b8135611cd881613686565b600060208284031215612ebb578081fd5b5051919050565b600080600060608486031215612ed6578283fd5b833592506020840135612ee881613686565b929592945050506040919091013590565b600080600060608486031215612f0d578283fd5b833592506020840135612f1f81613686565b91506040840135612f2f8161369e565b809150509250925092565b60008060408385031215612f4c578182fd5b50508035926020909101359150565b600080600060608486031215612f6f578081fd5b83359250602084013591506040840135612f2f8161369e565b600080600060608486031215612f9c578081fd5b505081359360208301359350604090920135919050565b60008151808452612fcb816020860160208601613612565b601f01601f19169290920160200192915050565b60007f416363657373436f6e74726f6c3a206163636f756e742000000000000000000082528351613017816017850160208801613612565b7001034b99036b4b9b9b4b733903937b6329607d1b6017918401918201528351613048816028840160208801613612565b01602801949350505050565b6001600160a01b0391909116815260200190565b6001600160a01b0392831681529116602082015260400190565b6001600160a01b0396871681529486166020860152928516604085015293166060830152608082019290925260a081019190915260c00190565b6001600160a01b039384168152919092166020820152604081019190915260600190565b6001600160a01b03929092168252602082015260400190565b901515815260200190565b90815260200190565b6001600160a01b0394909416845260208401929092526040830152606082015260800190565b600060208252611cd86020830184612fb3565b6000604082526131596040830185612fb3565b90508260208301529392505050565b60006060825261317b6060830186612fb3565b60208301949094525060400152919050565b6020808252818101527f537472696e67733a20686578206c656e67746820696e73756666696369656e74604082015260600190565b6020808252601e908201527f6d757374206265206174206c65617374206f6e65206e65772076616c75650000604082015260600190565b60208082526010908201526f14185d5cd8589b194e881c185d5cd95960821b604082015260600190565b602080825260139082015272185b1c9958591e481a5b9a5d1a585b1a5e9959606a1b604082015260600190565b6020808252600f908201526e1b9bc81b5a59dc985d1bdc881cd95d608a1b604082015260600190565b6020808252601a908201527f776974686472617720534f554c20627920756e7374616b696e67000000000000604082015260600190565b60208082526017908201527f6465706f73697420534f554c206279207374616b696e67000000000000000000604082015260600190565b6020808252601b908201527f6d7573742062652061206e657720746f6b656e20616464726573730000000000604082015260600190565b6020808252601590820152741b5d5cdd0818994818481b995dc81858d8dbdd5b9d605a1b604082015260600190565b6020808252601390820152721c1bdbdb08191bd95cc81b9bdd08195e1a5cdd606a1b604082015260600190565b6020808252601290820152711dda5d1a191c985dce881b9bdd0819dbdbd960721b604082015260600190565b6020808252601190820152701dda5d1a191c985dc81b9bdd0819dbdbd9607a1b604082015260600190565b6020808252600f908201526e191d5c1b1a58d85d1959081c1bdbdb608a1b604082015260600190565b6020808252601f908201527f5265656e7472616e637947756172643a207265656e7472616e742063616c6c00604082015260600190565b6020808252602f908201527f416363657373436f6e74726f6c3a2063616e206f6e6c792072656e6f756e636560408201526e103937b632b9903337b91039b2b63360891b606082015260800190565b6020808252601d908201527f6d6967726174653a20696e73756666696369656e742062616c616e6365000000604082015260600190565b6020808252601a908201527f726577617264732068617665206e6f742079657420626567756e000000000000604082015260600190565b6020808252818101527f7765696768742063616e6e6f742065786365656420746f74616c576569676874604082015260600190565b9283526001600160a01b03919091166020830152604082015260600190565b918252602082015260400190565b93845260208401929092526001600160a01b03166040830152606082015260800190565b968752602087019590955260408601939093526060850191909152608084015260a083015260c082015260e00190565b600082198211156135b7576135b7613670565b500190565b6000826135d757634e487b7160e01b81526012600452602481fd5b500490565b60008160001904831182151516156135f6576135f6613670565b500290565b60008282101561360d5761360d613670565b500390565b60005b8381101561362d578181015183820152602001613615565b838111156119135750506000910152565b60008161364d5761364d613670565b506000190190565b600060001982141561366957613669613670565b5060010190565b634e487b7160e01b600052601160045260246000fd5b6001600160a01b038116811461369b57600080fd5b50565b801515811461369b57600080fdfe6669727374206465706f73697420616e64206c617374207769746864726177616c3a20257320616e64202573a2646970667358221220594ec7de2ffac074f30af5f81ec7ceb027e4387a21c21128752d4c93dc5bdbe764736f6c63430008000033",
    "sourcePath": "/Users/unico/Documents/GitHub/SoulSwap/soulswap-farms/contracts/mocks/MockSoulSummoner.sol",
    "compiler": {
        "name": "solc",
        "version": "0.8.0+commit.c7dfd78e"
    },
    "functionHashes": {
        "DEFAULT_ADMIN_ROLE()": "a217fddf",
        "addPool(uint256,address,bool)": "7abceffd",
        "bonusMultiplier()": "a8b973a1",
        "dailyDecay()": "fc90fdc0",
        "dailySoul()": "7d500ec8",
        "dao()": "4162169f",
        "deposit(uint256,uint256)": "e2bbb158",
        "enWei(uint256)": "cf94ee96",
        "enterStaking(uint256)": "41441d3b",
        "fromWei(uint256)": "e65d1522",
        "getFeeRate(uint256,uint256)": "9f6c5426",
        "getMultiplier(uint256,uint256)": "8dbb1e3a",
        "getRoleAdmin(bytes32)": "248a9ca3",
        "getWithdrawable(uint256,uint256,uint256)": "7e668b42",
        "grantRole(bytes32,address)": "2f2ff15d",
        "hasRole(bytes32,address)": "91d14854",
        "initialize(address,address,uint256,uint256,uint256,uint256)": "86489ba9",
        "isInitialized()": "392e53cd",
        "isis()": "ea4bf446",
        "leaveStaking(uint256)": "1058d281",
        "maat()": "fd6f99d0",
        "massUpdatePools()": "630b5ba1",
        "migrate(uint256)": "454b0608",
        "migrator()": "7cd07e47",
        "paused()": "5c975abb",
        "pendingSoul(uint256,address)": "bfafcad5",
        "poolInfo(uint256)": "1526fe27",
        "poolLength()": "081e3eda",
        "renounceRole(bytes32,address)": "36568abe",
        "reviseDeposit(uint256,address,uint256)": "82386d58",
        "revokeRole(bytes32,address)": "d547741f",
        "seance()": "4ca01d45",
        "set(uint256,uint256,bool)": "64482f79",
        "setMigrator(address)": "23cf3118",
        "soul()": "815b7a8c",
        "soulPerSecond()": "5f9bf689",
        "startRate()": "1254f0dc",
        "startTime()": "78e97925",
        "supportsInterface(bytes4)": "01ffc9a7",
        "team()": "85f2aef2",
        "totalAllocPoint()": "17caf6f1",
        "totalWeight()": "96c82e57",
        "updateAccounts(address,address)": "e13e8ec2",
        "updateMultiplier(uint256)": "5ffe6146",
        "updatePool(uint256)": "51eb05a6",
        "updateStartRate(uint256)": "4a962829",
        "updateTokens(address,address)": "e7aa29e3",
        "updateWeights(uint256,uint256)": "f107fd85",
        "userDelta(uint256,address)": "fb39d1e3",
        "userInfo(uint256,address)": "93f1a40b",
        "weight()": "a1aab33f",
        "withdraw(uint256,uint256)": "441a3e70"
    },
    "gasEstimates": {
        "creation": {
            "codeDepositCost": "2818800",
            "executionCost": "infinite",
            "totalCost": "infinite"
        },
        "external": {
            "DEFAULT_ADMIN_ROLE()": "361",
            "addPool(uint256,address,bool)": "infinite",
            "bonusMultiplier()": "1073",
            "dailyDecay()": "infinite",
            "dailySoul()": "1074",
            "dao()": "1204",
            "deposit(uint256,uint256)": "infinite",
            "enWei(uint256)": "493",
            "enterStaking(uint256)": "infinite",
            "fromWei(uint256)": "439",
            "getFeeRate(uint256,uint256)": "2426",
            "getMultiplier(uint256,uint256)": "1370",
            "getRoleAdmin(bytes32)": "1271",
            "getWithdrawable(uint256,uint256,uint256)": "infinite",
            "grantRole(bytes32,address)": "infinite",
            "hasRole(bytes32,address)": "1472",
            "initialize(address,address,uint256,uint256,uint256,uint256)": "infinite",
            "isInitialized()": "1130",
            "isis()": "1139",
            "leaveStaking(uint256)": "infinite",
            "maat()": "1160",
            "massUpdatePools()": "infinite",
            "migrate(uint256)": "infinite",
            "migrator()": "1203",
            "paused()": "1196",
            "pendingSoul(uint256,address)": "infinite",
            "poolInfo(uint256)": "4695",
            "poolLength()": "1097",
            "renounceRole(bytes32,address)": "infinite",
            "reviseDeposit(uint256,address,uint256)": "infinite",
            "revokeRole(bytes32,address)": "infinite",
            "seance()": "1182",
            "set(uint256,uint256,bool)": "infinite",
            "setMigrator(address)": "infinite",
            "soul()": "1160",
            "soulPerSecond()": "1096",
            "startRate()": "1141",
            "startTime()": "1117",
            "supportsInterface(bytes4)": "539",
            "team()": "1204",
            "totalAllocPoint()": "1185",
            "totalWeight()": "1095",
            "updateAccounts(address,address)": "infinite",
            "updateMultiplier(uint256)": "infinite",
            "updatePool(uint256)": "infinite",
            "updateStartRate(uint256)": "infinite",
            "updateTokens(address,address)": "infinite",
            "updateWeights(uint256,uint256)": "infinite",
            "userDelta(uint256,address)": "infinite",
            "userInfo(uint256,address)": "6485",
            "weight()": "1139",
            "withdraw(uint256,uint256)": "infinite"
        },
        "internal": {
            "_addPool(uint256,contract IERC20,bool)": "infinite",
            "_divinationCeremony(bytes32,bytes32,address)": "infinite",
            "checkPoolDuplicate(contract IERC20)": "infinite",
            "safeSoulTransfer(address,uint256)": "infinite",
            "updateRewards(uint256,uint256)": "infinite",
            "updateStakingPool()": "infinite"
        }
    }
}