{
    "contractName": "SoulSummoner",
    "abi": [
        {
            "inputs": [],
            "stateMutability": "nonpayable",
            "type": "constructor"
        },
        {
            "anonymous": false,
            "inputs": [
                {
                    "indexed": false,
                    "internalType": "address",
                    "name": "dao",
                    "type": "address"
                },
                {
                    "indexed": false,
                    "internalType": "address",
                    "name": "team",
                    "type": "address"
                }
            ],
            "name": "AccountsUpdated",
            "type": "event"
        },
        {
            "anonymous": false,
            "inputs": [
                {
                    "indexed": true,
                    "internalType": "address",
                    "name": "user",
                    "type": "address"
                },
                {
                    "indexed": true,
                    "internalType": "uint256",
                    "name": "pid",
                    "type": "uint256"
                },
                {
                    "indexed": false,
                    "internalType": "uint256",
                    "name": "amount",
                    "type": "uint256"
                }
            ],
            "name": "Deposit",
            "type": "event"
        },
        {
            "anonymous": false,
            "inputs": [
                {
                    "indexed": false,
                    "internalType": "uint256",
                    "name": "_pid",
                    "type": "uint256"
                },
                {
                    "indexed": false,
                    "internalType": "address",
                    "name": "_user",
                    "type": "address"
                },
                {
                    "indexed": false,
                    "internalType": "uint256",
                    "name": "_time",
                    "type": "uint256"
                }
            ],
            "name": "DepositRevised",
            "type": "event"
        },
        {
            "anonymous": false,
            "inputs": [
                {
                    "indexed": false,
                    "internalType": "address",
                    "name": "team",
                    "type": "address"
                },
                {
                    "indexed": false,
                    "internalType": "address",
                    "name": "dao",
                    "type": "address"
                },
                {
                    "indexed": false,
                    "internalType": "address",
                    "name": "soul",
                    "type": "address"
                },
                {
                    "indexed": false,
                    "internalType": "address",
                    "name": "seance",
                    "type": "address"
                },
                {
                    "indexed": false,
                    "internalType": "uint256",
                    "name": "totalAllocPoint",
                    "type": "uint256"
                },
                {
                    "indexed": false,
                    "internalType": "uint256",
                    "name": "weight",
                    "type": "uint256"
                }
            ],
            "name": "Initialized",
            "type": "event"
        },
        {
            "anonymous": false,
            "inputs": [
                {
                    "indexed": true,
                    "internalType": "address",
                    "name": "previousOwner",
                    "type": "address"
                },
                {
                    "indexed": true,
                    "internalType": "address",
                    "name": "newOwner",
                    "type": "address"
                }
            ],
            "name": "OwnershipTransferred",
            "type": "event"
        },
        {
            "anonymous": false,
            "inputs": [
                {
                    "indexed": false,
                    "internalType": "address",
                    "name": "account",
                    "type": "address"
                }
            ],
            "name": "Paused",
            "type": "event"
        },
        {
            "anonymous": false,
            "inputs": [
                {
                    "indexed": false,
                    "internalType": "uint256",
                    "name": "pid",
                    "type": "uint256"
                },
                {
                    "indexed": false,
                    "internalType": "uint256",
                    "name": "allocPoint",
                    "type": "uint256"
                },
                {
                    "indexed": false,
                    "internalType": "contract IERC20",
                    "name": "lpToken",
                    "type": "address"
                },
                {
                    "indexed": false,
                    "internalType": "uint256",
                    "name": "totalAllocPoint",
                    "type": "uint256"
                }
            ],
            "name": "PoolAdded",
            "type": "event"
        },
        {
            "anonymous": false,
            "inputs": [
                {
                    "indexed": false,
                    "internalType": "uint256",
                    "name": "pid",
                    "type": "uint256"
                },
                {
                    "indexed": false,
                    "internalType": "uint256",
                    "name": "allocPoint",
                    "type": "uint256"
                }
            ],
            "name": "PoolSet",
            "type": "event"
        },
        {
            "anonymous": false,
            "inputs": [
                {
                    "indexed": false,
                    "internalType": "uint256",
                    "name": "dailySoul",
                    "type": "uint256"
                },
                {
                    "indexed": false,
                    "internalType": "uint256",
                    "name": "soulPerSecond",
                    "type": "uint256"
                }
            ],
            "name": "RewardsUpdated",
            "type": "event"
        },
        {
            "anonymous": false,
            "inputs": [
                {
                    "indexed": true,
                    "internalType": "bytes32",
                    "name": "role",
                    "type": "bytes32"
                },
                {
                    "indexed": true,
                    "internalType": "bytes32",
                    "name": "previousAdminRole",
                    "type": "bytes32"
                },
                {
                    "indexed": true,
                    "internalType": "bytes32",
                    "name": "newAdminRole",
                    "type": "bytes32"
                }
            ],
            "name": "RoleAdminChanged",
            "type": "event"
        },
        {
            "anonymous": false,
            "inputs": [
                {
                    "indexed": false,
                    "internalType": "bytes32",
                    "name": "role",
                    "type": "bytes32"
                },
                {
                    "indexed": false,
                    "internalType": "bytes32",
                    "name": "supreme",
                    "type": "bytes32"
                }
            ],
            "name": "RoleDivinated",
            "type": "event"
        },
        {
            "anonymous": false,
            "inputs": [
                {
                    "indexed": true,
                    "internalType": "bytes32",
                    "name": "role",
                    "type": "bytes32"
                },
                {
                    "indexed": true,
                    "internalType": "address",
                    "name": "account",
                    "type": "address"
                },
                {
                    "indexed": true,
                    "internalType": "address",
                    "name": "sender",
                    "type": "address"
                }
            ],
            "name": "RoleGranted",
            "type": "event"
        },
        {
            "anonymous": false,
            "inputs": [
                {
                    "indexed": true,
                    "internalType": "bytes32",
                    "name": "role",
                    "type": "bytes32"
                },
                {
                    "indexed": true,
                    "internalType": "address",
                    "name": "account",
                    "type": "address"
                },
                {
                    "indexed": true,
                    "internalType": "address",
                    "name": "sender",
                    "type": "address"
                }
            ],
            "name": "RoleRevoked",
            "type": "event"
        },
        {
            "anonymous": false,
            "inputs": [
                {
                    "indexed": false,
                    "internalType": "address",
                    "name": "soul",
                    "type": "address"
                },
                {
                    "indexed": false,
                    "internalType": "address",
                    "name": "seance",
                    "type": "address"
                }
            ],
            "name": "TokensUpdated",
            "type": "event"
        },
        {
            "anonymous": false,
            "inputs": [
                {
                    "indexed": false,
                    "internalType": "address",
                    "name": "account",
                    "type": "address"
                }
            ],
            "name": "Unpaused",
            "type": "event"
        },
        {
            "anonymous": false,
            "inputs": [
                {
                    "indexed": false,
                    "internalType": "uint256",
                    "name": "weight",
                    "type": "uint256"
                },
                {
                    "indexed": false,
                    "internalType": "uint256",
                    "name": "totalWeight",
                    "type": "uint256"
                }
            ],
            "name": "WeightUpdated",
            "type": "event"
        },
        {
            "anonymous": false,
            "inputs": [
                {
                    "indexed": true,
                    "internalType": "address",
                    "name": "user",
                    "type": "address"
                },
                {
                    "indexed": true,
                    "internalType": "uint256",
                    "name": "pid",
                    "type": "uint256"
                },
                {
                    "indexed": false,
                    "internalType": "uint256",
                    "name": "amount",
                    "type": "uint256"
                },
                {
                    "indexed": false,
                    "internalType": "uint256",
                    "name": "timeStamp",
                    "type": "uint256"
                }
            ],
            "name": "Withdraw",
            "type": "event"
        },
        {
            "inputs": [],
            "name": "DEFAULT_ADMIN_ROLE",
            "outputs": [
                {
                    "internalType": "bytes32",
                    "name": "",
                    "type": "bytes32"
                }
            ],
            "stateMutability": "view",
            "type": "function"
        },
        {
            "inputs": [
                {
                    "internalType": "uint256",
                    "name": "_allocPoint",
                    "type": "uint256"
                },
                {
                    "internalType": "contract IERC20",
                    "name": "_lpToken",
                    "type": "address"
                },
                {
                    "internalType": "bool",
                    "name": "_withUpdate",
                    "type": "bool"
                }
            ],
            "name": "addPool",
            "outputs": [],
            "stateMutability": "nonpayable",
            "type": "function"
        },
        {
            "inputs": [],
            "name": "bonusMultiplier",
            "outputs": [
                {
                    "internalType": "uint256",
                    "name": "",
                    "type": "uint256"
                }
            ],
            "stateMutability": "view",
            "type": "function"
        },
        {
            "inputs": [],
            "name": "dailyDecay",
            "outputs": [
                {
                    "internalType": "uint256",
                    "name": "",
                    "type": "uint256"
                }
            ],
            "stateMutability": "view",
            "type": "function"
        },
        {
            "inputs": [],
            "name": "dailySoul",
            "outputs": [
                {
                    "internalType": "uint256",
                    "name": "",
                    "type": "uint256"
                }
            ],
            "stateMutability": "view",
            "type": "function"
        },
        {
            "inputs": [],
            "name": "dao",
            "outputs": [
                {
                    "internalType": "address",
                    "name": "",
                    "type": "address"
                }
            ],
            "stateMutability": "view",
            "type": "function"
        },
        {
            "inputs": [
                {
                    "internalType": "uint256",
                    "name": "pid",
                    "type": "uint256"
                },
                {
                    "internalType": "uint256",
                    "name": "amount",
                    "type": "uint256"
                }
            ],
            "name": "deposit",
            "outputs": [],
            "stateMutability": "nonpayable",
            "type": "function"
        },
        {
            "inputs": [
                {
                    "internalType": "uint256",
                    "name": "amount",
                    "type": "uint256"
                }
            ],
            "name": "enWei",
            "outputs": [
                {
                    "internalType": "uint256",
                    "name": "",
                    "type": "uint256"
                }
            ],
            "stateMutability": "pure",
            "type": "function"
        },
        {
            "inputs": [
                {
                    "internalType": "uint256",
                    "name": "amount",
                    "type": "uint256"
                }
            ],
            "name": "enterStaking",
            "outputs": [],
            "stateMutability": "nonpayable",
            "type": "function"
        },
        {
            "inputs": [
                {
                    "internalType": "uint256",
                    "name": "amount",
                    "type": "uint256"
                }
            ],
            "name": "fromWei",
            "outputs": [
                {
                    "internalType": "uint256",
                    "name": "",
                    "type": "uint256"
                }
            ],
            "stateMutability": "pure",
            "type": "function"
        },
        {
            "inputs": [
                {
                    "internalType": "uint256",
                    "name": "pid",
                    "type": "uint256"
                },
                {
                    "internalType": "uint256",
                    "name": "amount",
                    "type": "uint256"
                }
            ],
            "name": "getFee",
            "outputs": [
                {
                    "internalType": "uint256",
                    "name": "fee",
                    "type": "uint256"
                }
            ],
            "stateMutability": "view",
            "type": "function"
        },
        {
            "inputs": [
                {
                    "internalType": "uint256",
                    "name": "pid",
                    "type": "uint256"
                },
                {
                    "internalType": "uint256",
                    "name": "timeDelta",
                    "type": "uint256"
                }
            ],
            "name": "getFeeRate",
            "outputs": [
                {
                    "internalType": "uint256",
                    "name": "feeRate",
                    "type": "uint256"
                }
            ],
            "stateMutability": "view",
            "type": "function"
        },
        {
            "inputs": [
                {
                    "internalType": "uint256",
                    "name": "from",
                    "type": "uint256"
                },
                {
                    "internalType": "uint256",
                    "name": "to",
                    "type": "uint256"
                }
            ],
            "name": "getMultiplier",
            "outputs": [
                {
                    "internalType": "uint256",
                    "name": "",
                    "type": "uint256"
                }
            ],
            "stateMutability": "view",
            "type": "function"
        },
        {
            "inputs": [
                {
                    "internalType": "bytes32",
                    "name": "role",
                    "type": "bytes32"
                }
            ],
            "name": "getRoleAdmin",
            "outputs": [
                {
                    "internalType": "bytes32",
                    "name": "",
                    "type": "bytes32"
                }
            ],
            "stateMutability": "view",
            "type": "function"
        },
        {
            "inputs": [
                {
                    "internalType": "uint256",
                    "name": "pid",
                    "type": "uint256"
                },
                {
                    "internalType": "uint256",
                    "name": "timeDelta",
                    "type": "uint256"
                },
                {
                    "internalType": "uint256",
                    "name": "amount",
                    "type": "uint256"
                }
            ],
            "name": "getWithdrawable",
            "outputs": [
                {
                    "internalType": "uint256",
                    "name": "_feeAmount",
                    "type": "uint256"
                },
                {
                    "internalType": "uint256",
                    "name": "_withdrawable",
                    "type": "uint256"
                }
            ],
            "stateMutability": "view",
            "type": "function"
        },
        {
            "inputs": [
                {
                    "internalType": "bytes32",
                    "name": "role",
                    "type": "bytes32"
                },
                {
                    "internalType": "address",
                    "name": "account",
                    "type": "address"
                }
            ],
            "name": "grantRole",
            "outputs": [],
            "stateMutability": "nonpayable",
            "type": "function"
        },
        {
            "inputs": [
                {
                    "internalType": "bytes32",
                    "name": "role",
                    "type": "bytes32"
                }
            ],
            "name": "hasDivineRole",
            "outputs": [
                {
                    "internalType": "bool",
                    "name": "",
                    "type": "bool"
                }
            ],
            "stateMutability": "view",
            "type": "function"
        },
        {
            "inputs": [
                {
                    "internalType": "bytes32",
                    "name": "role",
                    "type": "bytes32"
                },
                {
                    "internalType": "address",
                    "name": "account",
                    "type": "address"
                }
            ],
            "name": "hasRole",
            "outputs": [
                {
                    "internalType": "bool",
                    "name": "",
                    "type": "bool"
                }
            ],
            "stateMutability": "view",
            "type": "function"
        },
        {
            "inputs": [
                {
                    "internalType": "address",
                    "name": "_soulAddress",
                    "type": "address"
                },
                {
                    "internalType": "address",
                    "name": "_seanceAddress",
                    "type": "address"
                },
                {
                    "internalType": "uint256",
                    "name": "_totalWeight",
                    "type": "uint256"
                },
                {
                    "internalType": "uint256",
                    "name": "_weight",
                    "type": "uint256"
                },
                {
                    "internalType": "uint256",
                    "name": "_stakingAlloc",
                    "type": "uint256"
                },
                {
                    "internalType": "uint256",
                    "name": "_startRate",
                    "type": "uint256"
                },
                {
                    "internalType": "uint256",
                    "name": "_dailyDecay",
                    "type": "uint256"
                }
            ],
            "name": "initialize",
            "outputs": [],
            "stateMutability": "nonpayable",
            "type": "function"
        },
        {
            "inputs": [],
            "name": "isInitialized",
            "outputs": [
                {
                    "internalType": "bool",
                    "name": "",
                    "type": "bool"
                }
            ],
            "stateMutability": "view",
            "type": "function"
        },
        {
            "inputs": [],
            "name": "isis",
            "outputs": [
                {
                    "internalType": "bytes32",
                    "name": "",
                    "type": "bytes32"
                }
            ],
            "stateMutability": "view",
            "type": "function"
        },
        {
            "inputs": [
                {
                    "internalType": "uint256",
                    "name": "amount",
                    "type": "uint256"
                }
            ],
            "name": "leaveStaking",
            "outputs": [],
            "stateMutability": "nonpayable",
            "type": "function"
        },
        {
            "inputs": [],
            "name": "maat",
            "outputs": [
                {
                    "internalType": "bytes32",
                    "name": "",
                    "type": "bytes32"
                }
            ],
            "stateMutability": "view",
            "type": "function"
        },
        {
            "inputs": [],
            "name": "massUpdatePools",
            "outputs": [],
            "stateMutability": "nonpayable",
            "type": "function"
        },
        {
            "inputs": [
                {
                    "internalType": "uint256",
                    "name": "pid",
                    "type": "uint256"
                }
            ],
            "name": "migrate",
            "outputs": [],
            "stateMutability": "nonpayable",
            "type": "function"
        },
        {
            "inputs": [],
            "name": "migrator",
            "outputs": [
                {
                    "internalType": "contract IMigrator",
                    "name": "",
                    "type": "address"
                }
            ],
            "stateMutability": "view",
            "type": "function"
        },
        {
            "inputs": [
                {
                    "internalType": "uint256",
                    "name": "amount",
                    "type": "uint256"
                }
            ],
            "name": "oneHundreth",
            "outputs": [
                {
                    "internalType": "uint256",
                    "name": "",
                    "type": "uint256"
                }
            ],
            "stateMutability": "pure",
            "type": "function"
        },
        {
            "inputs": [],
            "name": "owner",
            "outputs": [
                {
                    "internalType": "address",
                    "name": "",
                    "type": "address"
                }
            ],
            "stateMutability": "view",
            "type": "function"
        },
        {
            "inputs": [],
            "name": "paused",
            "outputs": [
                {
                    "internalType": "bool",
                    "name": "",
                    "type": "bool"
                }
            ],
            "stateMutability": "view",
            "type": "function"
        },
        {
            "inputs": [
                {
                    "internalType": "uint256",
                    "name": "pid",
                    "type": "uint256"
                },
                {
                    "internalType": "address",
                    "name": "_user",
                    "type": "address"
                }
            ],
            "name": "pendingSoul",
            "outputs": [
                {
                    "internalType": "uint256",
                    "name": "pendingAmount",
                    "type": "uint256"
                }
            ],
            "stateMutability": "view",
            "type": "function"
        },
        {
            "inputs": [
                {
                    "internalType": "uint256",
                    "name": "",
                    "type": "uint256"
                }
            ],
            "name": "poolInfo",
            "outputs": [
                {
                    "internalType": "contract IERC20",
                    "name": "lpToken",
                    "type": "address"
                },
                {
                    "internalType": "uint256",
                    "name": "allocPoint",
                    "type": "uint256"
                },
                {
                    "internalType": "uint256",
                    "name": "lastRewardTime",
                    "type": "uint256"
                },
                {
                    "internalType": "uint256",
                    "name": "accSoulPerShare",
                    "type": "uint256"
                }
            ],
            "stateMutability": "view",
            "type": "function"
        },
        {
            "inputs": [],
            "name": "poolLength",
            "outputs": [
                {
                    "internalType": "uint256",
                    "name": "",
                    "type": "uint256"
                }
            ],
            "stateMutability": "view",
            "type": "function"
        },
        {
            "inputs": [],
            "name": "renounceOwnership",
            "outputs": [],
            "stateMutability": "nonpayable",
            "type": "function"
        },
        {
            "inputs": [
                {
                    "internalType": "bytes32",
                    "name": "role",
                    "type": "bytes32"
                },
                {
                    "internalType": "address",
                    "name": "account",
                    "type": "address"
                }
            ],
            "name": "renounceRole",
            "outputs": [],
            "stateMutability": "nonpayable",
            "type": "function"
        },
        {
            "inputs": [
                {
                    "internalType": "uint256",
                    "name": "_pid",
                    "type": "uint256"
                },
                {
                    "internalType": "address",
                    "name": "_user",
                    "type": "address"
                },
                {
                    "internalType": "uint256",
                    "name": "_time",
                    "type": "uint256"
                }
            ],
            "name": "reviseDeposit",
            "outputs": [],
            "stateMutability": "nonpayable",
            "type": "function"
        },
        {
            "inputs": [
                {
                    "internalType": "bytes32",
                    "name": "role",
                    "type": "bytes32"
                },
                {
                    "internalType": "address",
                    "name": "account",
                    "type": "address"
                }
            ],
            "name": "revokeRole",
            "outputs": [],
            "stateMutability": "nonpayable",
            "type": "function"
        },
        {
            "inputs": [],
            "name": "seance",
            "outputs": [
                {
                    "internalType": "contract MockSeanceCircle",
                    "name": "",
                    "type": "address"
                }
            ],
            "stateMutability": "view",
            "type": "function"
        },
        {
            "inputs": [
                {
                    "internalType": "uint256",
                    "name": "pid",
                    "type": "uint256"
                },
                {
                    "internalType": "uint256",
                    "name": "allocPoint",
                    "type": "uint256"
                },
                {
                    "internalType": "bool",
                    "name": "withUpdate",
                    "type": "bool"
                }
            ],
            "name": "set",
            "outputs": [],
            "stateMutability": "nonpayable",
            "type": "function"
        },
        {
            "inputs": [
                {
                    "internalType": "contract IMigrator",
                    "name": "_migrator",
                    "type": "address"
                }
            ],
            "name": "setMigrator",
            "outputs": [],
            "stateMutability": "nonpayable",
            "type": "function"
        },
        {
            "inputs": [],
            "name": "soul",
            "outputs": [
                {
                    "internalType": "contract MockSoulPower",
                    "name": "",
                    "type": "address"
                }
            ],
            "stateMutability": "view",
            "type": "function"
        },
        {
            "inputs": [],
            "name": "soulPerSecond",
            "outputs": [
                {
                    "internalType": "uint256",
                    "name": "",
                    "type": "uint256"
                }
            ],
            "stateMutability": "view",
            "type": "function"
        },
        {
            "inputs": [],
            "name": "startRate",
            "outputs": [
                {
                    "internalType": "uint256",
                    "name": "",
                    "type": "uint256"
                }
            ],
            "stateMutability": "view",
            "type": "function"
        },
        {
            "inputs": [],
            "name": "startTime",
            "outputs": [
                {
                    "internalType": "uint256",
                    "name": "",
                    "type": "uint256"
                }
            ],
            "stateMutability": "view",
            "type": "function"
        },
        {
            "inputs": [
                {
                    "internalType": "bytes4",
                    "name": "interfaceId",
                    "type": "bytes4"
                }
            ],
            "name": "supportsInterface",
            "outputs": [
                {
                    "internalType": "bool",
                    "name": "",
                    "type": "bool"
                }
            ],
            "stateMutability": "view",
            "type": "function"
        },
        {
            "inputs": [],
            "name": "team",
            "outputs": [
                {
                    "internalType": "address",
                    "name": "",
                    "type": "address"
                }
            ],
            "stateMutability": "view",
            "type": "function"
        },
        {
            "inputs": [
                {
                    "internalType": "uint256",
                    "name": "pid",
                    "type": "uint256"
                }
            ],
            "name": "timeUntilNextDecrease",
            "outputs": [
                {
                    "internalType": "uint256",
                    "name": "untilNextDecay",
                    "type": "uint256"
                }
            ],
            "stateMutability": "view",
            "type": "function"
        },
        {
            "inputs": [],
            "name": "totalAllocPoint",
            "outputs": [
                {
                    "internalType": "uint256",
                    "name": "",
                    "type": "uint256"
                }
            ],
            "stateMutability": "view",
            "type": "function"
        },
        {
            "inputs": [],
            "name": "totalWeight",
            "outputs": [
                {
                    "internalType": "uint256",
                    "name": "",
                    "type": "uint256"
                }
            ],
            "stateMutability": "view",
            "type": "function"
        },
        {
            "inputs": [
                {
                    "internalType": "address",
                    "name": "newOwner",
                    "type": "address"
                }
            ],
            "name": "transferOwnership",
            "outputs": [],
            "stateMutability": "nonpayable",
            "type": "function"
        },
        {
            "inputs": [
                {
                    "internalType": "address",
                    "name": "_dao",
                    "type": "address"
                },
                {
                    "internalType": "address",
                    "name": "_team",
                    "type": "address"
                }
            ],
            "name": "updateAccounts",
            "outputs": [],
            "stateMutability": "nonpayable",
            "type": "function"
        },
        {
            "inputs": [
                {
                    "internalType": "uint256",
                    "name": "_bonusMultiplier",
                    "type": "uint256"
                }
            ],
            "name": "updateMultiplier",
            "outputs": [],
            "stateMutability": "nonpayable",
            "type": "function"
        },
        {
            "inputs": [
                {
                    "internalType": "uint256",
                    "name": "pid",
                    "type": "uint256"
                }
            ],
            "name": "updatePool",
            "outputs": [],
            "stateMutability": "nonpayable",
            "type": "function"
        },
        {
            "inputs": [
                {
                    "internalType": "address",
                    "name": "_soul",
                    "type": "address"
                },
                {
                    "internalType": "address",
                    "name": "_seance",
                    "type": "address"
                }
            ],
            "name": "updateTokens",
            "outputs": [],
            "stateMutability": "nonpayable",
            "type": "function"
        },
        {
            "inputs": [
                {
                    "internalType": "uint256",
                    "name": "_weight",
                    "type": "uint256"
                }
            ],
            "name": "updateWeight",
            "outputs": [],
            "stateMutability": "nonpayable",
            "type": "function"
        },
        {
            "inputs": [
                {
                    "internalType": "uint256",
                    "name": "_pid",
                    "type": "uint256"
                }
            ],
            "name": "userDelta",
            "outputs": [
                {
                    "internalType": "uint256",
                    "name": "",
                    "type": "uint256"
                }
            ],
            "stateMutability": "view",
            "type": "function"
        },
        {
            "inputs": [
                {
                    "internalType": "uint256",
                    "name": "",
                    "type": "uint256"
                },
                {
                    "internalType": "address",
                    "name": "",
                    "type": "address"
                }
            ],
            "name": "userInfo",
            "outputs": [
                {
                    "internalType": "uint256",
                    "name": "amount",
                    "type": "uint256"
                },
                {
                    "internalType": "uint256",
                    "name": "rewardDebt",
                    "type": "uint256"
                },
                {
                    "internalType": "uint256",
                    "name": "rewardDebtAtTime",
                    "type": "uint256"
                },
                {
                    "internalType": "uint256",
                    "name": "lastWithdrawTime",
                    "type": "uint256"
                },
                {
                    "internalType": "uint256",
                    "name": "firstDepositTime",
                    "type": "uint256"
                },
                {
                    "internalType": "uint256",
                    "name": "timeDelta",
                    "type": "uint256"
                },
                {
                    "internalType": "uint256",
                    "name": "lastDepositTime",
                    "type": "uint256"
                }
            ],
            "stateMutability": "view",
            "type": "function"
        },
        {
            "inputs": [],
            "name": "weight",
            "outputs": [
                {
                    "internalType": "uint256",
                    "name": "",
                    "type": "uint256"
                }
            ],
            "stateMutability": "view",
            "type": "function"
        },
        {
            "inputs": [
                {
                    "internalType": "uint256",
                    "name": "pid",
                    "type": "uint256"
                },
                {
                    "internalType": "uint256",
                    "name": "amount",
                    "type": "uint256"
                }
            ],
            "name": "withdraw",
            "outputs": [],
            "stateMutability": "nonpayable",
            "type": "function"
        }
    ],
    "bytecode": "60806040526001600e553480156200001657600080fd5b506200002b6200002562000102565b62000106565b6001805460ff60a01b1916815560025560078054336001600160a01b0319918216811792839055600880549092161790557f36d5d8406f8379c6deba01145ec4f6a2966675cc67d71355b397a2a8e3572b296016557f0811b25c145e1379dc78112dd91057f09150f6db05dfd7e04deb910e6cefd4b7601755620000bd9060009081906001600160a01b031662000158565b50601654600754620000db919081906001600160a01b031662000158565b50601754601654600854620000fb9291906001600160a01b031662000158565b50620002a9565b3390565b600180546001600160a01b038381166001600160a01b0319831681179093556040519116919082907f8be0079c531659141344cd1fd0a4f28419497f9722a3daafe3b4186f6b6457e090600090a35050565b60006200016684836200017c565b6200017284846200018c565b5060019392505050565b620001888282620001e1565b5050565b600062000199836200026b565b600084815260208190526040808220600101859055519192508391839186917fbd79b86ffe0ab8e8776151514217cd7cacd52c909f66475c3af44e129f0b00ff9190a4505050565b620001ed828262000280565b62000188576000828152602081815260408083206001600160a01b03851684529091529020805460ff191660011790556200022762000102565b6001600160a01b0316816001600160a01b0316837f2f8788117e7eff1d82e926ec794901d17c78024a50270940304540a733656f0d60405160405180910390a45050565b60009081526020819052604090206001015490565b6000918252602082815260408084206001600160a01b0393909316845291905290205460ff1690565b6136b880620002b96000396000f3fe608060405234801561001057600080fd5b506004361061038e5760003560e01c8063815b7a8c116101de578063d250185c1161010f578063e7aa29e3116100ad578063f2fde38b1161007c578063f2fde38b14610711578063fb60dc1814610724578063fc90fdc014610737578063fd6f99d01461073f5761038e565b8063e7aa29e3146106d0578063ea4bf446146106e3578063ec3df6ad146106eb578063edbf4ac2146106fe5761038e565b8063dbaef9b0116100e9578063dbaef9b014610684578063e13e8ec214610697578063e2bbb158146106aa578063e65d1522146106bd5761038e565b8063d250185c1461064b578063d547741f1461065e578063da755b4b146106715761038e565b806396c82e571161017c578063a217fddf11610156578063a217fddf14610615578063a8b973a11461061d578063bfafcad514610625578063cf94ee96146106385761038e565b806396c82e57146105f25780639f6c5426146105fa578063a1aab33f1461060d5761038e565b80638da5cb5b116101b85780638da5cb5b1461059e5780638dbb1e3a146105a657806391d14854146105b957806393f1a40b146105cc5761038e565b8063815b7a8c1461057b57806382386d581461058357806385f2aef2146105965761038e565b8063441a3e70116102c3578063630b5ba1116102615780637abceffd116102305780637abceffd146105375780637cd07e471461054a5780637d500ec8146105525780637e668b421461055a5761038e565b8063630b5ba11461050c57806364482f7914610514578063715018a61461052757806378e979251461052f5761038e565b806351eb05a61161029d57806351eb05a6146104d65780635c975abb146104e95780635f9bf689146104f15780635ffe6146146104f95761038e565b8063441a3e70146104a8578063454b0608146104bb5780634ca01d45146104ce5761038e565b806323cf31181161033057806336568abe1161030a57806336568abe14610465578063392e53cd1461047857806341441d3b146104805780634162169f146104935761038e565b806323cf31181461042c578063248a9ca31461043f5780632f2ff15d146104525761038e565b80631058d2811161036c5780631058d281146103e45780631254f0dc146103f95780631526fe271461040157806317caf6f1146104245761038e565b806301ffc9a714610393578063081e3eda146103bc57806309ae4d2c146103d1575b600080fd5b6103a66103a1366004612e4c565b610747565b6040516103b391906130b3565b60405180910390f35b6103c4610774565b6040516103b391906130be565b6103c46103df366004612e10565b61077a565b6103f76103f2366004612e10565b6107cb565b005b6103c4610a47565b61041461040f366004612e10565b610a4d565b6040516103b394939291906130c7565b6103c4610a91565b6103f761043a366004612d3f565b610a97565b6103c461044d366004612e10565b610af0565b6103f7610460366004612e28565b610b05565b6103f7610473366004612e28565b610b29565b6103a6610b6f565b6103f761048e366004612e10565b610b78565b61049b610df1565b6040516103b3919061300e565b6103f76104b6366004612f20565b610e00565b6103f76104c9366004612e10565b611112565b61049b6113fc565b6103f76104e4366004612e10565b61140b565b6103a6611706565b6103c4611716565b6103f7610507366004612e10565b61171c565b6103f7611731565b6103f7610522366004612f41565b611758565b6103f7611894565b6103c46118df565b6103f7610545366004612edf565b6118e5565b61049b611930565b6103c461193f565b61056d610568366004612f6e565b611945565b6040516103b392919061351b565b61049b61198b565b6103f7610591366004612ea8565b61199a565b61049b611a16565b61049b611a25565b6103c46105b4366004612f20565b611a34565b6103a66105c7366004612e28565b611a55565b6105df6105da366004612e28565b611a7e565b6040516103b3979695949392919061354d565b6103c4611acd565b6103c4610608366004612f20565b611ad3565b6103c4611b46565b6103c4611b4c565b6103c4611b51565b6103c4610633366004612e28565b611b57565b6103c4610646366004612e10565b611ce8565b6103c4610659366004612f20565b611cfc565b6103f761066c366004612e28565b611d86565b6103c461067f366004612e10565b611da5565b6103a6610692366004612e10565b611e50565b6103f76106a5366004612d5b565b611e5c565b6103f76106b8366004612f20565b611f24565b6103c46106cb366004612e10565b612180565b6103f76106de366004612d5b565b612194565b6103c461224c565b6103f76106f9366004612e10565b612252565b6103f761070c366004612d93565b612363565b6103f761071f366004612d3f565b6125be565b6103c4610732366004612e10565b61262f565b6103c4612642565b6103c4612648565b60006001600160e01b03198216637965db0b60e01b148061076c575061076c8261264e565b90505b919050565b60145490565b600081815260156020908152604080832033845290915281206003810154156107b95760008160030154436107af91906135d4565b925061076f915050565b60008160040154436107af91906135d4565b6002805414156107f65760405162461bcd60e51b81526004016107ed90613408565b60405180910390fd5b600280819055506000601460008154811061082157634e487b7160e01b600052603260045260246000fd5b600091825260208083203384527fa31547ce6245cdb9ecea19cf8c7eb9f5974025bb4075011409251ae855b30aed90915260409092208054600490920290920192508311156108825760405162461bcd60e51b81526004016107ed90613388565b61088c600061140b565b6000816001015464e8d4a51000846003015484600001546108ad91906135b5565b6108b79190613595565b6108c191906135d4565b905080156108d3576108d33382612667565b831561096d5781546108e69085906135d4565b8255825460405163a9059cbb60e01b81526001600160a01b039091169063a9059cbb90610919903390889060040161309a565b602060405180830381600087803b15801561093357600080fd5b505af1158015610947573d6000803e3d6000fd5b505050506040513d601f19601f8201168201806040525081019061096b9190612df4565b505b6003830154825464e8d4a5100091610984916135b5565b61098e9190613595565b6001830155600654604051632770a7eb60e21b81526001600160a01b0390911690639dc29fac906109c5903390889060040161309a565b600060405180830381600087803b1580156109df57600080fd5b505af11580156109f3573d6000803e3d6000fd5b505050506000336001600160a01b03167f02f25270a4d87bea75db541cdfe559334a275b4a233520ed6c0a2429667cca948642604051610a3492919061351b565b60405180910390a3505060016002555050565b60135481565b60148181548110610a5d57600080fd5b600091825260209091206004909102018054600182015460028301546003909301546001600160a01b039092169350919084565b60105481565b60115460ff16610ab95760405162461bcd60e51b81526004016107ed906134c5565b601654610acd81610ac86126cf565b6126d3565b50600980546001600160a01b0319166001600160a01b0392909216919091179055565b60009081526020819052604090206001015490565b610b0e82610af0565b610b1a81610ac86126cf565b610b248383612737565b505050565b610b316126cf565b6001600160a01b0316816001600160a01b031614610b615760405162461bcd60e51b81526004016107ed9061343f565b610b6b82826127bc565b5050565b60115460ff1681565b600280541415610b9a5760405162461bcd60e51b81526004016107ed90613408565b60028055610ba6611706565b15610bc35760405162461bcd60e51b81526004016107ed9061319b565b60006014600081548110610be757634e487b7160e01b600052603260045260246000fd5b600091825260208083203384527fa31547ce6245cdb9ecea19cf8c7eb9f5974025bb4075011409251ae855b30aed90915260408320600490920201925090610c2e9061140b565b805415610c7e576000816001015464e8d4a5100084600301548460000154610c5691906135b5565b610c609190613595565b610c6a91906135d4565b90508015610c7c57610c7c3382612667565b505b8215610d1a5781546040516323b872dd60e01b81526001600160a01b03909116906323b872dd90610cb790339030908890600401613076565b602060405180830381600087803b158015610cd157600080fd5b505af1158015610ce5573d6000803e3d6000fd5b505050506040513d601f19601f82011682018060405250810190610d099190612df4565b508054610d1790849061357d565b81555b6003820154815464e8d4a5100091610d31916135b5565b610d3b9190613595565b60018201556006546040516340c10f1960e01b81526001600160a01b03909116906340c10f1990610d72903390879060040161309a565b600060405180830381600087803b158015610d8c57600080fd5b505af1158015610da0573d6000803e3d6000fd5b505050506000336001600160a01b03167f90890809c654f11d6e72a28fa60149770a0d11ec6c92319d6ceb2bb0a4ea1a1585604051610ddf91906130be565b60405180910390a35050600160025550565b6008546001600160a01b031681565b600280541415610e225760405162461bcd60e51b81526004016107ed90613408565b6002805560145482908110610e495760405162461bcd60e51b81526004016107ed90613324565b82610e665760405162461bcd60e51b81526004016107ed9061321b565b600060148481548110610e8957634e487b7160e01b600052603260045260246000fd5b600091825260208083208784526015825260408085203386529092529220805460049092029092019250841115610ed25760405162461bcd60e51b81526004016107ed906133b4565b610edb8561140b565b6000816001015464e8d4a5100084600301548460000154610efc91906135b5565b610f069190613595565b610f1091906135d4565b90508015610f2257610f223382612667565b8415610f7057600682015415610f4b576006820154610f4190426135d4565b6005830155610f60565b6004820154610f5a90426135d4565b60058301555b8154610f6d9086906135d4565b82555b6000610f7c8787611cfc565b90506000610f8a82886135d4565b855460085460405163a9059cbb60e01b81529293506001600160a01b039182169263a9059cbb92610fc1921690869060040161309a565b602060405180830381600087803b158015610fdb57600080fd5b505af1158015610fef573d6000803e3d6000fd5b505050506040513d601f19601f820116820180604052508101906110139190612df4565b50845460405163a9059cbb60e01b81526001600160a01b039091169063a9059cbb90611045903390859060040161309a565b602060405180830381600087803b15801561105f57600080fd5b505af1158015611073573d6000803e3d6000fd5b505050506040513d601f19601f820116820180604052508101906110979190612df4565b506003850154845464e8d4a51000916110af916135b5565b6110b99190613595565b60018501554260038501819055604051899133917f02f25270a4d87bea75db541cdfe559334a275b4a233520ed6c0a2429667cca94916110fb918c919061351b565b60405180910390a350506001600255505050505050565b60115460ff166111345760405162461bcd60e51b81526004016107ed906134c5565b601454819081106111575760405162461bcd60e51b81526004016107ed90613324565b6009546001600160a01b031661117f5760405162461bcd60e51b81526004016107ed906131f2565b6000601483815481106111a257634e487b7160e01b600052603260045260246000fd5b60009182526020822060049182020180546040516370a0823160e01b81529194506001600160a01b0316929183916370a08231916111e29130910161300e565b60206040518083038186803b1580156111fa57600080fd5b505afa15801561120e573d6000803e3d6000fd5b505050506040513d601f19601f820116820180604052508101906112329190612e90565b60095460405163095ea7b360e01b81529192506001600160a01b038085169263095ea7b392611267921690859060040161309a565b602060405180830381600087803b15801561128157600080fd5b505af1158015611295573d6000803e3d6000fd5b505050506040513d601f19601f820116820180604052508101906112b99190612df4565b5060095460405163ce5494bb60e01b81526000916001600160a01b03169063ce5494bb906112eb90869060040161300e565b602060405180830381600087803b15801561130557600080fd5b505af1158015611319573d6000803e3d6000fd5b505050506040513d601f19601f8201168201806040525081019061133d9190612e74565b6040516370a0823160e01b81529091506001600160a01b038216906370a082319061136c90309060040161300e565b60206040518083038186803b15801561138457600080fd5b505afa158015611398573d6000803e3d6000fd5b505050506040513d601f19601f820116820180604052508101906113bc9190612e90565b82146113da5760405162461bcd60e51b81526004016107ed9061348e565b83546001600160a01b0319166001600160a01b03919091161790925550505050565b6006546001600160a01b031681565b6014548190811061142e5760405162461bcd60e51b81526004016107ed90613324565b60006014838154811061145157634e487b7160e01b600052603260045260246000fd5b90600052602060002090600402019050806002015442116114725750610b6b565b80546040516370a0823160e01b81526000916001600160a01b0316906370a08231906114a290309060040161300e565b60206040518083038186803b1580156114ba57600080fd5b505afa1580156114ce573d6000803e3d6000fd5b505050506040513d601f19601f820116820180604052508101906114f29190612e90565b905080611506575042600290910155610b6b565b6000611516836002015442611a34565b905060006010548460010154600d548461153091906135b5565b61153a91906135b5565b6115449190613595565b90506000650746a528800061155e8364e8d4a510006135b5565b6115689190613595565b905060006115778260026135b5565b9050600061158582856135d4565b600480546007546040516340c10f1960e01b81529394506001600160a01b03918216936340c10f19936115be939092169188910161309a565b600060405180830381600087803b1580156115d857600080fd5b505af11580156115ec573d6000803e3d6000fd5b5050600480546008546040516340c10f1960e01b81526001600160a01b0392831695506340c10f19945061162793919092169188910161309a565b600060405180830381600087803b15801561164157600080fd5b505af1158015611655573d6000803e3d6000fd5b5050600480546006546040516340c10f1960e01b81526001600160a01b0392831695506340c10f19945061169093919092169186910161309a565b600060405180830381600087803b1580156116aa57600080fd5b505af11580156116be573d6000803e3d6000fd5b50505050858464e8d4a510006116d491906135b5565b6116de9190613595565b87600301546116ed919061357d565b6003880155505042600290950194909455505050505050565b600154600160a01b900460ff1690565b600d5481565b60175461172b81610ac86126cf565b50600e55565b60145460005b81811015610b6b576117488161140b565b6117518161362e565b9050611737565b60115460ff1661177a5760405162461bcd60e51b81526004016107ed906134c5565b6014548390811061179d5760405162461bcd60e51b81526004016107ed90613324565b6017546117ac81610ac86126cf565b82156117ba576117ba611731565b6000601486815481106117dd57634e487b7160e01b600052603260045260246000fd5b9060005260206000209060040201600101549050846014878154811061181357634e487b7160e01b600052603260045260246000fd5b90600052602060002090600402016001018190555084811461185357848160105461183e91906135d4565b611848919061357d565b60105561185361283f565b7fd88f859573973e938da5bf3e5100c16eee2090fa720e05ae3d452b4cd05cdcfd868660405161188492919061351b565b60405180910390a1505050505050565b61189c6126cf565b6001600160a01b03166118ad611a25565b6001600160a01b0316146118d35760405162461bcd60e51b81526004016107ed90613289565b6118dd6000612941565b565b600f5481565b60115460ff166119075760405162461bcd60e51b81526004016107ed906134c5565b60165461191681610ac86126cf565b61191f83612993565b61192a848484612a14565b50505050565b6009546001600160a01b031681565b600c5481565b60008060006119548686611ad3565b90506000606461196483876135b5565b61196e9190613595565b9050600061197c82876135d4565b91989197509095505050505050565b6004546001600160a01b031681565b6017546119a981610ac86126cf565b60008481526015602090815260408083206001600160a01b0387168452909152908190206004810184905590517f40d6e8e3d60e4693375c73df2d1a71d582a28197c98fd8d2badad6ead06af64c90611a07908790879087906134fc565b60405180910390a15050505050565b6007546001600160a01b031681565b6001546001600160a01b031690565b600e54600090611a4484846135d4565b611a4e91906135b5565b9392505050565b6000918252602082815260408084206001600160a01b0393909316845291905290205460ff1690565b6015602052816000526040600020602052806000526040600020600091509150508060000154908060010154908060020154908060030154908060040154908060050154908060060154905087565b600a5481565b600080620151808310611af257611aed6201518084613595565b611af5565b60005b9050600060125482611b0791906135b5565b90506000601354821015611b285781601354611b2391906135d4565b611b2b565b60005b90508515611b395780611b3c565b60005b9695505050505050565b600b5481565b600081565b600e5481565b60008060148481548110611b7b57634e487b7160e01b600052603260045260246000fd5b600091825260208083208784526015825260408085206001600160a01b038981168752935280852060049485029092016003810154815492516370a0823160e01b815291975092959294929391909116916370a0823191611bde9130910161300e565b60206040518083038186803b158015611bf657600080fd5b505afa158015611c0a573d6000803e3d6000fd5b505050506040513d601f19601f82011682018060405250810190611c2e9190612e90565b9050836002015442118015611c4257508015155b15611cb0576000611c57856002015442611a34565b905060006010548660010154600d5484611c7191906135b5565b611c7b91906135b5565b611c859190613595565b905082611c978264e8d4a510006135b5565b611ca19190613595565b611cab908561357d565b935050505b6001830154835464e8d4a5100090611cc99085906135b5565b611cd39190613595565b611cdd91906135d4565b979650505050505050565b600061076c82670de0b6b3a76400006135b5565b60008281526015602090815260408083203384529091528120600501546012548290611d2b6201518084613595565b611d3591906135b5565b90506000606482601354611d4991906135d4565b611d539190613595565b9050600081611d6187612180565b611d6b91906135b5565b90508615611d795780611cdd565b5060009695505050505050565b611d8f82610af0565b611d9b81610ac86126cf565b610b2483836127bc565b3360009081527fa31547ce6245cdb9ecea19cf8c7eb9f5974025bb4075011409251ae855b30aed6020526040812060068101548290611e00576000848152601560209081526040808320338452909152902060050154611e0f565b6006820154611e0f90426135d4565b905060008115611e2b57611e266201518083613595565b611e2e565b60005b9050611e3d81620151806135b5565b611e4790836135d4565b95945050505050565b600061076c8233611a55565b601654611e6b81610ac86126cf565b6008546001600160a01b038481169116141580611e9657506007546001600160a01b03838116911614155b611eb25760405162461bcd60e51b81526004016107ed906132f5565b600880546001600160a01b038086166001600160a01b0319928316179283905560078054868316931692909217918290556040517fd1c04282701cbf58aa2f0026f6876051cf3feb8ee7b8b5b5532ebb4ab03fb5d493611f1793908316921690613022565b60405180910390a1505050565b600280541415611f465760405162461bcd60e51b81526004016107ed90613408565b6002805560145482908110611f6d5760405162461bcd60e51b81526004016107ed90613324565b611f75611706565b15611f925760405162461bcd60e51b81526004016107ed9061319b565b82611faf5760405162461bcd60e51b81526004016107ed90613252565b600060148481548110611fd257634e487b7160e01b600052603260045260246000fd5b600091825260208083208784526015825260408085203386529092529220600490910290910191506120038561140b565b805415612053576000816001015464e8d4a510008460030154846000015461202b91906135b5565b6120359190613595565b61203f91906135d4565b90508015612051576120513382612667565b505b83156120ef5781546040516323b872dd60e01b81526001600160a01b03909116906323b872dd9061208c90339030908990600401613076565b602060405180830381600087803b1580156120a657600080fd5b505af11580156120ba573d6000803e3d6000fd5b505050506040513d601f19601f820116820180604052508101906120de9190612df4565b5080546120ec90859061357d565b81555b6003820154815464e8d4a5100091612106916135b5565b6121109190613595565b6001820155600481015461212b574281600401819055612131565b60048101545b5084336001600160a01b03167f90890809c654f11d6e72a28fa60149770a0d11ec6c92319d6ceb2bb0a4ea1a158660405161216c91906130be565b60405180910390a350506001600255505050565b600061076c670de0b6b3a764000083613595565b6016546121a381610ac86126cf565b6004546001600160a01b0384811691161415806121ce57506006546001600160a01b03838116911614155b6121ea5760405162461bcd60e51b81526004016107ed906132be565b600480546001600160a01b038086166001600160a01b03199283161790925560068054928516929091169190911790556040517fdcc6331013de89f8c595d5328f0a724194f113cb6f8f2a707b3dff6de13f0d1790611f179085908590613022565b60165481565b60115460ff166122745760405162461bcd60e51b81526004016107ed906134c5565b60175461228381610ac86126cf565b81600b5414156122a55760405162461bcd60e51b81526004016107ed90613351565b81600b5410156122da576000600b54836122bf91906135d4565b905080600a60008282546122d3919061357d565b9091555050505b81600b54111561230f57600082600b546122f491906135d4565b905080600a600082825461230891906135d4565b9091555050505b600b829055600a54612322908390612b21565b7fb298bc23e07860d501fddce288f46d761aa04a0c7c3316099eb50f097aacf304600b54600a5460405161235792919061351b565b60405180910390a15050565b60165461237281610ac86126cf565b60115460ff16156123955760405162461bcd60e51b81526004016107ed906131c5565b600380546001600160a01b03808b166001600160a01b03199283161790925560058054928a169290911691909117905542600f556123d3858761357d565b600a55600b8590556123e483611ce8565b6013556123f08261262f565b601255600354600480546001600160a01b039283166001600160a01b03199182161790915560055460068054919093169116179055600b54600a54859161243691612b21565b60408051608081018252600480546001600160a01b03908116835260208301858152600f54948401948552600060608501818152601480546001808201835591845296517fce6d7b5282bd9a3661ae061feed1dbda4e52ab073b1f9285be6e155d9c38d4ec9790960296870180546001600160a01b031916969095169590951790935590517fce6d7b5282bd9a3661ae061feed1dbda4e52ab073b1f9285be6e155d9c38d4ed85015593517fce6d7b5282bd9a3661ae061feed1dbda4e52ab073b1f9285be6e155d9c38d4ee840155517fce6d7b5282bd9a3661ae061feed1dbda4e52ab073b1f9285be6e155d9c38d4ef909201919091556011805460ff191690911790556010805483929061254d90849061357d565b9091555050600754600854600354600554601054600b546040517f0476c5e4920930815a67a5a042e26836431f494d3be0f6e10c3034787a7a15f9966125ab966001600160a01b03918216969082169590821694911692909161303c565b60405180910390a1505050505050505050565b6125c66126cf565b6001600160a01b03166125d7611a25565b6001600160a01b0316146125fd5760405162461bcd60e51b81526004016107ed90613289565b6001600160a01b0381166126235760405162461bcd60e51b81526004016107ed90613155565b61262c81612941565b50565b600061076c82662386f26fc100006135b5565b60125481565b60175481565b6001600160e01b031981166301ffc9a760e01b14919050565b600654604051635950a15560e11b81526001600160a01b039091169063b2a142aa90612699908590859060040161309a565b600060405180830381600087803b1580156126b357600080fd5b505af11580156126c7573d6000803e3d6000fd5b505050505050565b3390565b6126dd8282611a55565b610b6b576126f5816001600160a01b03166014612b8d565b612700836020612b8d565b604051602001612711929190612f99565b60408051601f198184030181529082905262461bcd60e51b82526107ed916004016130ed565b6127418282611a55565b610b6b576000828152602081815260408083206001600160a01b03851684529091529020805460ff191660011790556127786126cf565b6001600160a01b0316816001600160a01b0316837f2f8788117e7eff1d82e926ec794901d17c78024a50270940304540a733656f0d60405160405180910390a45050565b6127c68282611a55565b15610b6b576000828152602081815260408083206001600160a01b03851684529091529020805460ff191690556127fb6126cf565b6001600160a01b0316816001600160a01b0316837ff6391f5c32d9c69d2a47ea670b442974b53935d1edc7fd64eb21e047a839171b60405160405180910390a45050565b601454600060015b8281101561289f576014818154811061287057634e487b7160e01b600052603260045260246000fd5b9060005260206000209060040201600101548261288d919061357d565b91506128988161362e565b9050612847565b508015610b6b576128b1600382613595565b90508060146000815481106128d657634e487b7160e01b600052603260045260246000fd5b9060005260206000209060040201600101546010546128f591906135d4565b6128ff919061357d565b60108190555080601460008154811061292857634e487b7160e01b600052603260045260246000fd5b9060005260206000209060040201600101819055505050565b600180546001600160a01b038381166001600160a01b0319831681179093556040519116919082907f8be0079c531659141344cd1fd0a4f28419497f9722a3daafe3b4186f6b6457e090600090a35050565b60145460005b81811015610b2457826001600160a01b0316601482815481106129cc57634e487b7160e01b600052603260045260246000fd5b60009182526020909120600490910201546001600160a01b03161415612a045760405162461bcd60e51b81526004016107ed906133df565b612a0d8161362e565b9050612999565b8015612a2257612a22611731565b8260106000828254612a34919061357d565b9250508190555060146040518060800160405280846001600160a01b03168152602001858152602001600f544211612a6e57600f54612a70565b425b81526000602091820181905283546001808201865594825290829020835160049092020180546001600160a01b0319166001600160a01b0390921691909117815590820151928101929092556040810151600283015560600151600390910155612ad861283f565b6014546010546040517f20b669aa921947a6d9602a921d2db3b6b30f21b9aca98580fa3972530330b27a91612b139184918891889190613529565b60405180910390a150505050565b6000612b2d8284613595565b9050612b43816934f086f3b33b684000006135b5565b600c819055612b56906201518090613595565b600d819055600c546040517fcd7c861d63893659123f817b192b8621ff1923a7c4589c260173cedcf9e986a692611f17929161351b565b60606000612b9c8360026135b5565b612ba790600261357d565b67ffffffffffffffff811115612bcd57634e487b7160e01b600052604160045260246000fd5b6040519080825280601f01601f191660200182016040528015612bf7576020820181803683370190505b509050600360fc1b81600081518110612c2057634e487b7160e01b600052603260045260246000fd5b60200101906001600160f81b031916908160001a905350600f60fb1b81600181518110612c5d57634e487b7160e01b600052603260045260246000fd5b60200101906001600160f81b031916908160001a9053506000612c818460026135b5565b612c8c90600161357d565b90505b6001811115612d20576f181899199a1a9b1b9c1cb0b131b232b360811b85600f1660108110612cce57634e487b7160e01b600052603260045260246000fd5b1a60f81b828281518110612cf257634e487b7160e01b600052603260045260246000fd5b60200101906001600160f81b031916908160001a90535060049490941c93612d1981613617565b9050612c8f565b508315611a4e5760405162461bcd60e51b81526004016107ed90613120565b600060208284031215612d50578081fd5b8135611a4e8161365f565b60008060408385031215612d6d578081fd5b8235612d788161365f565b91506020830135612d888161365f565b809150509250929050565b600080600080600080600060e0888a031215612dad578283fd5b8735612db88161365f565b96506020880135612dc88161365f565b96999698505050506040850135946060810135946080820135945060a0820135935060c0909101359150565b600060208284031215612e05578081fd5b8151611a4e81613674565b600060208284031215612e21578081fd5b5035919050565b60008060408385031215612e3a578182fd5b823591506020830135612d888161365f565b600060208284031215612e5d578081fd5b81356001600160e01b031981168114611a4e578182fd5b600060208284031215612e85578081fd5b8151611a4e8161365f565b600060208284031215612ea1578081fd5b5051919050565b600080600060608486031215612ebc578283fd5b833592506020840135612ece8161365f565b929592945050506040919091013590565b600080600060608486031215612ef3578283fd5b833592506020840135612f058161365f565b91506040840135612f1581613674565b809150509250925092565b60008060408385031215612f32578182fd5b50508035926020909101359150565b600080600060608486031215612f55578081fd5b83359250602084013591506040840135612f1581613674565b600080600060608486031215612f82578081fd5b505081359360208301359350604090920135919050565b60007f416363657373436f6e74726f6c3a206163636f756e742000000000000000000082528351612fd18160178501602088016135eb565b7001034b99036b4b9b9b4b733903937b6329607d1b60179184019182015283516130028160288401602088016135eb565b01602801949350505050565b6001600160a01b0391909116815260200190565b6001600160a01b0392831681529116602082015260400190565b6001600160a01b0396871681529486166020860152928516604085015293166060830152608082019290925260a081019190915260c00190565b6001600160a01b039384168152919092166020820152604081019190915260600190565b6001600160a01b03929092168252602082015260400190565b901515815260200190565b90815260200190565b6001600160a01b0394909416845260208401929092526040830152606082015260800190565b600060208252825180602084015261310c8160408501602087016135eb565b601f01601f19169190910160400192915050565b6020808252818101527f537472696e67733a20686578206c656e67746820696e73756666696369656e74604082015260600190565b60208082526026908201527f4f776e61626c653a206e6577206f776e657220697320746865207a65726f206160408201526564647265737360d01b606082015260800190565b60208082526010908201526f14185d5cd8589b194e881c185d5cd95960821b604082015260600190565b602080825260139082015272185b1c9958591e481a5b9a5d1a585b1a5e9959606a1b604082015260600190565b6020808252600f908201526e1b9bc81b5a59dc985d1bdc881cd95d608a1b604082015260600190565b6020808252601a908201527f776974686472617720534f554c20627920756e7374616b696e67000000000000604082015260600190565b60208082526017908201527f6465706f73697420534f554c206279207374616b696e67000000000000000000604082015260600190565b6020808252818101527f4f776e61626c653a2063616c6c6572206973206e6f7420746865206f776e6572604082015260600190565b6020808252601b908201527f6d7573742062652061206e657720746f6b656e20616464726573730000000000604082015260600190565b6020808252601590820152741b5d5cdd0818994818481b995dc81858d8dbdd5b9d605a1b604082015260600190565b6020808252601390820152721c1bdbdb08191bd95cc81b9bdd08195e1a5cdd606a1b604082015260600190565b60208082526018908201527f6d757374206265206e6577207765696768742076616c75650000000000000000604082015260600190565b6020808252601290820152711dda5d1a191c985dce881b9bdd0819dbdbd960721b604082015260600190565b6020808252601190820152701dda5d1a191c985dc81b9bdd0819dbdbd9607a1b604082015260600190565b6020808252600f908201526e191d5c1b1a58d85d1959081c1bdbdb608a1b604082015260600190565b6020808252601f908201527f5265656e7472616e637947756172643a207265656e7472616e742063616c6c00604082015260600190565b6020808252602f908201527f416363657373436f6e74726f6c3a2063616e206f6e6c792072656e6f756e636560408201526e103937b632b9903337b91039b2b63360891b606082015260800190565b6020808252601d908201527f6d6967726174653a20696e73756666696369656e742062616c616e6365000000604082015260600190565b6020808252601a908201527f726577617264732068617665206e6f742079657420626567756e000000000000604082015260600190565b9283526001600160a01b03919091166020830152604082015260600190565b918252602082015260400190565b93845260208401929092526001600160a01b03166040830152606082015260800190565b968752602087019590955260408601939093526060850191909152608084015260a083015260c082015260e00190565b6000821982111561359057613590613649565b500190565b6000826135b057634e487b7160e01b81526012600452602481fd5b500490565b60008160001904831182151516156135cf576135cf613649565b500290565b6000828210156135e6576135e6613649565b500390565b60005b838110156136065781810151838201526020016135ee565b8381111561192a5750506000910152565b60008161362657613626613649565b506000190190565b600060001982141561364257613642613649565b5060010190565b634e487b7160e01b600052601160045260246000fd5b6001600160a01b038116811461262c57600080fd5b801515811461262c57600080fdfea2646970667358221220fdb48c7c8fb664fcff50ff04138213f263bb5581f866d5dc0627eda02336f5bc64736f6c63430008000033",
    "sourcePath": "/Users/Uni/Documents/GitHub/soulswap/soulswap-farms/contracts/mocks/MockSoulSummoner.sol",
    "compiler": {
        "name": "solc",
        "version": "0.8.0+commit.c7dfd78e"
    },
    "functionHashes": {
        "DEFAULT_ADMIN_ROLE()": "a217fddf",
        "addPool(uint256,address,bool)": "7abceffd",
        "bonusMultiplier()": "a8b973a1",
        "dailyDecay()": "fc90fdc0",
        "dailySoul()": "7d500ec8",
        "dao()": "4162169f",
        "deposit(uint256,uint256)": "e2bbb158",
        "enWei(uint256)": "cf94ee96",
        "enterStaking(uint256)": "41441d3b",
        "fromWei(uint256)": "e65d1522",
        "getFee(uint256,uint256)": "d250185c",
        "getFeeRate(uint256,uint256)": "9f6c5426",
        "getMultiplier(uint256,uint256)": "8dbb1e3a",
        "getRoleAdmin(bytes32)": "248a9ca3",
        "getWithdrawable(uint256,uint256,uint256)": "7e668b42",
        "grantRole(bytes32,address)": "2f2ff15d",
        "hasDivineRole(bytes32)": "dbaef9b0",
        "hasRole(bytes32,address)": "91d14854",
        "initialize(address,address,uint256,uint256,uint256,uint256,uint256)": "edbf4ac2",
        "isInitialized()": "392e53cd",
        "isis()": "ea4bf446",
        "leaveStaking(uint256)": "1058d281",
        "maat()": "fd6f99d0",
        "massUpdatePools()": "630b5ba1",
        "migrate(uint256)": "454b0608",
        "migrator()": "7cd07e47",
        "oneHundreth(uint256)": "fb60dc18",
        "owner()": "8da5cb5b",
        "paused()": "5c975abb",
        "pendingSoul(uint256,address)": "bfafcad5",
        "poolInfo(uint256)": "1526fe27",
        "poolLength()": "081e3eda",
        "renounceOwnership()": "715018a6",
        "renounceRole(bytes32,address)": "36568abe",
        "reviseDeposit(uint256,address,uint256)": "82386d58",
        "revokeRole(bytes32,address)": "d547741f",
        "seance()": "4ca01d45",
        "set(uint256,uint256,bool)": "64482f79",
        "setMigrator(address)": "23cf3118",
        "soul()": "815b7a8c",
        "soulPerSecond()": "5f9bf689",
        "startRate()": "1254f0dc",
        "startTime()": "78e97925",
        "supportsInterface(bytes4)": "01ffc9a7",
        "team()": "85f2aef2",
        "timeUntilNextDecrease(uint256)": "da755b4b",
        "totalAllocPoint()": "17caf6f1",
        "totalWeight()": "96c82e57",
        "transferOwnership(address)": "f2fde38b",
        "updateAccounts(address,address)": "e13e8ec2",
        "updateMultiplier(uint256)": "5ffe6146",
        "updatePool(uint256)": "51eb05a6",
        "updateTokens(address,address)": "e7aa29e3",
        "updateWeight(uint256)": "ec3df6ad",
        "userDelta(uint256)": "09ae4d2c",
        "userInfo(uint256,address)": "93f1a40b",
        "weight()": "a1aab33f",
        "withdraw(uint256,uint256)": "441a3e70"
    },
    "gasEstimates": {
        "creation": {
            "codeDepositCost": "2801600",
            "executionCost": "infinite",
            "totalCost": "infinite"
        },
        "external": {
            "DEFAULT_ADMIN_ROLE()": "295",
            "addPool(uint256,address,bool)": "infinite",
            "bonusMultiplier()": "1117",
            "dailyDecay()": "1138",
            "dailySoul()": "1139",
            "dao()": "1204",
            "deposit(uint256,uint256)": "infinite",
            "enWei(uint256)": "541",
            "enterStaking(uint256)": "infinite",
            "fromWei(uint256)": "509",
            "getFee(uint256,uint256)": "infinite",
            "getFeeRate(uint256,uint256)": "3193",
            "getMultiplier(uint256,uint256)": "1392",
            "getRoleAdmin(bytes32)": "1271",
            "getWithdrawable(uint256,uint256,uint256)": "infinite",
            "grantRole(bytes32,address)": "infinite",
            "hasDivineRole(bytes32)": "1389",
            "hasRole(bytes32,address)": "1494",
            "initialize(address,address,uint256,uint256,uint256,uint256,uint256)": "infinite",
            "isInitialized()": "1130",
            "isis()": "1117",
            "leaveStaking(uint256)": "infinite",
            "maat()": "1160",
            "massUpdatePools()": "infinite",
            "migrate(uint256)": "infinite",
            "migrator()": "1159",
            "oneHundreth(uint256)": "496",
            "owner()": "1138",
            "paused()": "1147",
            "pendingSoul(uint256,address)": "infinite",
            "poolInfo(uint256)": "4673",
            "poolLength()": "1120",
            "renounceOwnership()": "23619",
            "renounceRole(bytes32,address)": "infinite",
            "reviseDeposit(uint256,address,uint256)": "infinite",
            "revokeRole(bytes32,address)": "infinite",
            "seance()": "1183",
            "set(uint256,uint256,bool)": "infinite",
            "setMigrator(address)": "infinite",
            "soul()": "1139",
            "soulPerSecond()": "1140",
            "startRate()": "1119",
            "startTime()": "1162",
            "supportsInterface(bytes4)": "566",
            "team()": "1183",
            "timeUntilNextDecrease(uint256)": "2547",
            "totalAllocPoint()": "1163",
            "totalWeight()": "1096",
            "transferOwnership(address)": "infinite",
            "updateAccounts(address,address)": "infinite",
            "updateMultiplier(uint256)": "infinite",
            "updatePool(uint256)": "infinite",
            "updateTokens(address,address)": "infinite",
            "updateWeight(uint256)": "infinite",
            "userDelta(uint256)": "2292",
            "userInfo(uint256,address)": "6507",
            "weight()": "1140",
            "withdraw(uint256,uint256)": "infinite"
        },
        "internal": {
            "_addPool(uint256,contract IERC20,bool)": "infinite",
            "_divinationCeremony(bytes32,bytes32,address)": "infinite",
            "checkPoolDuplicate(contract IERC20)": "infinite",
            "safeSoulTransfer(address,uint256)": "infinite",
            "updateRewards(uint256,uint256)": "infinite",
            "updateStakingPool()": "infinite"
        }
    }
}