{
    "contractName": "Multicall",
    "abi": [
        {
            "inputs": [
                {
                    "components": [
                        {
                            "internalType": "address",
                            "name": "target",
                            "type": "address"
                        },
                        {
                            "internalType": "bytes",
                            "name": "callData",
                            "type": "bytes"
                        }
                    ],
                    "internalType": "struct Multicall.Call[]",
                    "name": "calls",
                    "type": "tuple[]"
                }
            ],
            "name": "aggregate",
            "outputs": [
                {
                    "internalType": "uint256",
                    "name": "blockNumber",
                    "type": "uint256"
                },
                {
                    "internalType": "bytes[]",
                    "name": "returnData",
                    "type": "bytes[]"
                }
            ],
            "stateMutability": "nonpayable",
            "type": "function"
        },
        {
            "inputs": [
                {
                    "internalType": "uint256",
                    "name": "blockNumber",
                    "type": "uint256"
                }
            ],
            "name": "getBlockHash",
            "outputs": [
                {
                    "internalType": "bytes32",
                    "name": "blockHash",
                    "type": "bytes32"
                }
            ],
            "stateMutability": "view",
            "type": "function"
        },
        {
            "inputs": [],
            "name": "getCurrentBlockCoinbase",
            "outputs": [
                {
                    "internalType": "address",
                    "name": "coinbase",
                    "type": "address"
                }
            ],
            "stateMutability": "view",
            "type": "function"
        },
        {
            "inputs": [],
            "name": "getCurrentBlockDifficulty",
            "outputs": [
                {
                    "internalType": "uint256",
                    "name": "difficulty",
                    "type": "uint256"
                }
            ],
            "stateMutability": "view",
            "type": "function"
        },
        {
            "inputs": [],
            "name": "getCurrentBlockGasLimit",
            "outputs": [
                {
                    "internalType": "uint256",
                    "name": "gaslimit",
                    "type": "uint256"
                }
            ],
            "stateMutability": "view",
            "type": "function"
        },
        {
            "inputs": [],
            "name": "getCurrentBlockTimestamp",
            "outputs": [
                {
                    "internalType": "uint256",
                    "name": "timestamp",
                    "type": "uint256"
                }
            ],
            "stateMutability": "view",
            "type": "function"
        },
        {
            "inputs": [],
            "name": "getCurrentTime",
            "outputs": [
                {
                    "internalType": "uint256",
                    "name": "currentTime",
                    "type": "uint256"
                }
            ],
            "stateMutability": "view",
            "type": "function"
        },
        {
            "inputs": [
                {
                    "internalType": "address",
                    "name": "addr",
                    "type": "address"
                }
            ],
            "name": "getEthBalance",
            "outputs": [
                {
                    "internalType": "uint256",
                    "name": "balance",
                    "type": "uint256"
                }
            ],
            "stateMutability": "view",
            "type": "function"
        },
        {
            "inputs": [
                {
                    "internalType": "uint256",
                    "name": "_futureDays",
                    "type": "uint256"
                }
            ],
            "name": "getFutureTime",
            "outputs": [
                {
                    "internalType": "uint256",
                    "name": "futureTime",
                    "type": "uint256"
                }
            ],
            "stateMutability": "view",
            "type": "function"
        },
        {
            "inputs": [],
            "name": "getLastBlockHash",
            "outputs": [
                {
                    "internalType": "bytes32",
                    "name": "blockHash",
                    "type": "bytes32"
                }
            ],
            "stateMutability": "view",
            "type": "function"
        },
        {
            "inputs": [],
            "name": "getNextDay",
            "outputs": [
                {
                    "internalType": "uint256",
                    "name": "nextDay",
                    "type": "uint256"
                }
            ],
            "stateMutability": "view",
            "type": "function"
        },
        {
            "inputs": [
                {
                    "internalType": "uint256",
                    "name": "_startTime",
                    "type": "uint256"
                },
                {
                    "internalType": "uint256",
                    "name": "_endTime",
                    "type": "uint256"
                }
            ],
            "name": "getTimespan",
            "outputs": [
                {
                    "internalType": "uint256",
                    "name": "timespan",
                    "type": "uint256"
                }
            ],
            "stateMutability": "pure",
            "type": "function"
        }
    ],
    "bytecode": "608060405234801561001057600080fd5b5061076c806100206000396000f3fe608060405234801561001057600080fd5b50600436106100b45760003560e01c806354cc95ad1161007157806354cc95ad1461012657806372425d9d1461012e578063795343971461013657806386d516e814610149578063a8b0574e14610151578063ee82ac5e14610166576100b4565b80630f28c97d146100b9578063252dba42146100d757806327e86d6e146100f857806329cb924d146100b957806331b0879b146101005780634d2301cc14610113575b600080fd5b6100c1610179565b6040516100ce919061057a565b60405180910390f35b6100ea6100e53660046103c9565b61017d565b6040516100ce9291906105c7565b6100c16102f5565b6100c161010e366004610529565b610308565b6100c16101213660046103af565b610343565b6100c1610350565b6100c1610364565b6100c1610144366004610511565b610368565b6100c1610387565b61015961038b565b6040516100ce9190610566565b6100c1610174366004610511565b61038f565b4290565b8051439060609067ffffffffffffffff8111156101aa57634e487b7160e01b600052604160045260246000fd5b6040519080825280602002602001820160405280156101dd57816020015b60608152602001906001900390816101c85790505b50905060005b83518110156102ef5760008085838151811061020f57634e487b7160e01b600052603260045260246000fd5b6020026020010151600001516001600160a01b031686848151811061024457634e487b7160e01b600052603260045260246000fd5b60200260200101516020015160405161025d919061054a565b6000604051808303816000865af19150503d806000811461029a576040519150601f19603f3d011682016040523d82523d6000602084013e61029f565b606091505b5091509150816102ae57600080fd5b808484815181106102cf57634e487b7160e01b600052603260045260246000fd5b6020026020010181905250505080806102e7906106ef565b9150506101e3565b50915091565b60006103026001436106a8565b40905090565b60008282116103325760405162461bcd60e51b815260040161032990610583565b60405180910390fd5b61033c83836106a8565b9392505050565b6001600160a01b03163190565b600061035f4262015180610671565b905090565b4490565b60006103778262015180610689565b6103819042610671565b92915050565b4590565b4190565b4090565b80356001600160a01b03811681146103aa57600080fd5b919050565b6000602082840312156103c0578081fd5b61033c82610393565b600060208083850312156103db578182fd5b67ffffffffffffffff80843511156103f1578283fd5b8335840185601f820112610403578384fd5b80358281111561041557610415610720565b6104228485830201610647565b81815284810190838601875b848110156105025781358601601f196040828e038201121561044e578a8bfd5b604051604081018181108b8211171561046957610469610720565b604052610477838c01610393565b815260408301358a81111561048a578c8dfd5b8084019350508d603f84011261049e578b8cfd5b8a8301358a8111156104b2576104b2610720565b6104c28c84601f84011601610647565b92508083528e60408286010111156104d8578c8dfd5b80604085018d85013782018b018c9052808b0191909152855250928701929087019060010161042e565b50909998505050505050505050565b600060208284031215610522578081fd5b5035919050565b6000806040838503121561053b578081fd5b50508035926020909101359150565b6000825161055c8184602087016106bf565b9190910192915050565b6001600160a01b0391909116815260200190565b90815260200190565b60208082526024908201527f7468652065676720646f6573206e6f742070726563656465207468652063686960408201526331b5b2b760e11b606082015260800190565b600060408201848352602060408185015281855180845260608601915060608382028701019350828701855b8281101561063957878603605f190184528151805180885261061a81888a018985016106bf565b601f01601f1916969096018501955092840192908401906001016105f3565b509398975050505050505050565b60405181810167ffffffffffffffff8111828210171561066957610669610720565b604052919050565b600082198211156106845761068461070a565b500190565b60008160001904831182151516156106a3576106a361070a565b500290565b6000828210156106ba576106ba61070a565b500390565b60005b838110156106da5781810151838201526020016106c2565b838111156106e9576000848401525b50505050565b60006000198214156107035761070361070a565b5060010190565b634e487b7160e01b600052601160045260246000fd5b634e487b7160e01b600052604160045260246000fdfea264697066735822122004d7f6ee2715eb9a38b3edaa0d214546047eaa4a129e9cca16340be91150570a64736f6c63430008000033",
    "sourcePath": "/Users/unico/Documents/GitHub/SoulSwap/soulswap-farms/contracts/libs/Multicall.sol",
    "compiler": {
        "name": "solc",
        "version": "0.8.0+commit.c7dfd78e"
    },
    "functionHashes": {
        "aggregate((address,bytes)[])": "252dba42",
        "getBlockHash(uint256)": "ee82ac5e",
        "getCurrentBlockCoinbase()": "a8b0574e",
        "getCurrentBlockDifficulty()": "72425d9d",
        "getCurrentBlockGasLimit()": "86d516e8",
        "getCurrentBlockTimestamp()": "0f28c97d",
        "getCurrentTime()": "29cb924d",
        "getEthBalance(address)": "4d2301cc",
        "getFutureTime(uint256)": "79534397",
        "getLastBlockHash()": "27e86d6e",
        "getNextDay()": "54cc95ad",
        "getTimespan(uint256,uint256)": "31b0879b"
    },
    "gasEstimates": {
        "creation": {
            "codeDepositCost": "380000",
            "executionCost": "418",
            "totalCost": "380418"
        },
        "external": {
            "aggregate((address,bytes)[])": "infinite",
            "getBlockHash(uint256)": "432",
            "getCurrentBlockCoinbase()": "339",
            "getCurrentBlockDifficulty()": "249",
            "getCurrentBlockGasLimit()": "293",
            "getCurrentBlockTimestamp()": "228",
            "getCurrentTime()": "294",
            "getEthBalance(address)": "1212",
            "getFutureTime(uint256)": "517",
            "getLastBlockHash()": "364",
            "getNextDay()": "302",
            "getTimespan(uint256,uint256)": "516"
        }
    }
}