{
    "contractName": "Multicall",
    "abi": [
        {
            "inputs": [
                {
                    "internalType": "contract ERC20",
                    "name": "_wftm",
                    "type": "address"
                },
                {
                    "internalType": "contract ERC20",
                    "name": "_fusd",
                    "type": "address"
                },
                {
                    "internalType": "address",
                    "name": "_ftmFusdPool",
                    "type": "address"
                }
            ],
            "stateMutability": "nonpayable",
            "type": "constructor"
        },
        {
            "anonymous": false,
            "inputs": [
                {
                    "indexed": false,
                    "internalType": "address",
                    "name": "summoner",
                    "type": "address"
                }
            ],
            "name": "Initialized",
            "type": "event"
        },
        {
            "inputs": [
                {
                    "components": [
                        {
                            "internalType": "address",
                            "name": "target",
                            "type": "address"
                        },
                        {
                            "internalType": "bytes",
                            "name": "callData",
                            "type": "bytes"
                        }
                    ],
                    "internalType": "struct Multicall.Call[]",
                    "name": "calls",
                    "type": "tuple[]"
                }
            ],
            "name": "aggregate",
            "outputs": [
                {
                    "internalType": "uint256",
                    "name": "blockNumber",
                    "type": "uint256"
                },
                {
                    "internalType": "bytes[]",
                    "name": "returnData",
                    "type": "bytes[]"
                }
            ],
            "stateMutability": "nonpayable",
            "type": "function"
        },
        {
            "inputs": [],
            "name": "ftmFusdPool",
            "outputs": [
                {
                    "internalType": "address",
                    "name": "",
                    "type": "address"
                }
            ],
            "stateMutability": "view",
            "type": "function"
        },
        {
            "inputs": [],
            "name": "fusd",
            "outputs": [
                {
                    "internalType": "contract ERC20",
                    "name": "",
                    "type": "address"
                }
            ],
            "stateMutability": "view",
            "type": "function"
        },
        {
            "inputs": [
                {
                    "internalType": "uint256",
                    "name": "blockNumber",
                    "type": "uint256"
                }
            ],
            "name": "getBlockHash",
            "outputs": [
                {
                    "internalType": "bytes32",
                    "name": "blockHash",
                    "type": "bytes32"
                }
            ],
            "stateMutability": "view",
            "type": "function"
        },
        {
            "inputs": [],
            "name": "getCurrentBlockCoinbase",
            "outputs": [
                {
                    "internalType": "address",
                    "name": "coinbase",
                    "type": "address"
                }
            ],
            "stateMutability": "view",
            "type": "function"
        },
        {
            "inputs": [],
            "name": "getCurrentBlockDifficulty",
            "outputs": [
                {
                    "internalType": "uint256",
                    "name": "difficulty",
                    "type": "uint256"
                }
            ],
            "stateMutability": "view",
            "type": "function"
        },
        {
            "inputs": [],
            "name": "getCurrentBlockGasLimit",
            "outputs": [
                {
                    "internalType": "uint256",
                    "name": "gaslimit",
                    "type": "uint256"
                }
            ],
            "stateMutability": "view",
            "type": "function"
        },
        {
            "inputs": [],
            "name": "getCurrentBlockTimestamp",
            "outputs": [
                {
                    "internalType": "uint256",
                    "name": "timestamp",
                    "type": "uint256"
                }
            ],
            "stateMutability": "view",
            "type": "function"
        },
        {
            "inputs": [],
            "name": "getCurrentTime",
            "outputs": [
                {
                    "internalType": "uint256",
                    "name": "currentTime",
                    "type": "uint256"
                }
            ],
            "stateMutability": "view",
            "type": "function"
        },
        {
            "inputs": [
                {
                    "internalType": "contract ERC20",
                    "name": "stableCoin",
                    "type": "address"
                },
                {
                    "internalType": "address",
                    "name": "pool",
                    "type": "address"
                }
            ],
            "name": "getDollarValue",
            "outputs": [
                {
                    "internalType": "uint256",
                    "name": "value",
                    "type": "uint256"
                }
            ],
            "stateMutability": "view",
            "type": "function"
        },
        {
            "inputs": [
                {
                    "internalType": "address",
                    "name": "addr",
                    "type": "address"
                }
            ],
            "name": "getEthBalance",
            "outputs": [
                {
                    "internalType": "uint256",
                    "name": "balance",
                    "type": "uint256"
                }
            ],
            "stateMutability": "view",
            "type": "function"
        },
        {
            "inputs": [],
            "name": "getFtmFusdValue",
            "outputs": [
                {
                    "internalType": "uint256",
                    "name": "value",
                    "type": "uint256"
                }
            ],
            "stateMutability": "view",
            "type": "function"
        },
        {
            "inputs": [
                {
                    "internalType": "address",
                    "name": "pool",
                    "type": "address"
                }
            ],
            "name": "getFtmValue",
            "outputs": [
                {
                    "internalType": "uint256",
                    "name": "value",
                    "type": "uint256"
                }
            ],
            "stateMutability": "view",
            "type": "function"
        },
        {
            "inputs": [
                {
                    "internalType": "address",
                    "name": "pool",
                    "type": "address"
                }
            ],
            "name": "getFusdValue",
            "outputs": [
                {
                    "internalType": "uint256",
                    "name": "value",
                    "type": "uint256"
                }
            ],
            "stateMutability": "view",
            "type": "function"
        },
        {
            "inputs": [
                {
                    "internalType": "uint256",
                    "name": "_futureDays",
                    "type": "uint256"
                }
            ],
            "name": "getFutureTime",
            "outputs": [
                {
                    "internalType": "uint256",
                    "name": "futureTime",
                    "type": "uint256"
                }
            ],
            "stateMutability": "view",
            "type": "function"
        },
        {
            "inputs": [],
            "name": "getLastBlockHash",
            "outputs": [
                {
                    "internalType": "bytes32",
                    "name": "blockHash",
                    "type": "bytes32"
                }
            ],
            "stateMutability": "view",
            "type": "function"
        },
        {
            "inputs": [],
            "name": "getNextDay",
            "outputs": [
                {
                    "internalType": "uint256",
                    "name": "nextDay",
                    "type": "uint256"
                }
            ],
            "stateMutability": "view",
            "type": "function"
        },
        {
            "inputs": [
                {
                    "internalType": "uint256",
                    "name": "_startTime",
                    "type": "uint256"
                },
                {
                    "internalType": "uint256",
                    "name": "_endTime",
                    "type": "uint256"
                }
            ],
            "name": "getTimespan",
            "outputs": [
                {
                    "internalType": "uint256",
                    "name": "timespan",
                    "type": "uint256"
                }
            ],
            "stateMutability": "pure",
            "type": "function"
        },
        {
            "inputs": [
                {
                    "internalType": "contract ERC20",
                    "name": "token",
                    "type": "address"
                },
                {
                    "internalType": "address",
                    "name": "account",
                    "type": "address"
                }
            ],
            "name": "getTokenBalance",
            "outputs": [
                {
                    "internalType": "uint256",
                    "name": "balance",
                    "type": "uint256"
                }
            ],
            "stateMutability": "view",
            "type": "function"
        },
        {
            "inputs": [
                {
                    "internalType": "contract ERC20",
                    "name": "pool",
                    "type": "address"
                }
            ],
            "name": "getValueLocked",
            "outputs": [
                {
                    "internalType": "uint256",
                    "name": "value",
                    "type": "uint256"
                }
            ],
            "stateMutability": "view",
            "type": "function"
        },
        {
            "inputs": [
                {
                    "internalType": "address",
                    "name": "_summoner",
                    "type": "address"
                }
            ],
            "name": "initialize",
            "outputs": [],
            "stateMutability": "nonpayable",
            "type": "function"
        },
        {
            "inputs": [],
            "name": "summoner",
            "outputs": [
                {
                    "internalType": "address",
                    "name": "",
                    "type": "address"
                }
            ],
            "stateMutability": "view",
            "type": "function"
        },
        {
            "inputs": [],
            "name": "wftm",
            "outputs": [
                {
                    "internalType": "contract ERC20",
                    "name": "",
                    "type": "address"
                }
            ],
            "stateMutability": "view",
            "type": "function"
        }
    ],
    "bytecode": "6080604052600480546001600160a01b0319163317905534801561002257600080fd5b50604051610e74380380610e7483398101604081905261004191610083565b600080546001600160a01b039485166001600160a01b0319918216179091556001805493851693821693909317909255600380549190931691161790556100e7565b600080600060608486031215610097578283fd5b83516100a2816100cf565b60208501519093506100b3816100cf565b60408501519092506100c4816100cf565b809150509250925092565b6001600160a01b03811681146100e457600080fd5b50565b610d7e806100f66000396000f3fe608060405234801561001057600080fd5b506004361061014d5760003560e01c80639566b6a7116100c3578063dacaa9d11161007c578063dacaa9d11461025d578063dbbc47be14610265578063e0692d1214610278578063ea6939781461028b578063ee82ac5e14610293578063f4f45b46146102a65761014d565b80639566b6a7146101fd578063a8b0574e14610212578063b5faa8841461021a578063c489744b1461022d578063c4d66de814610240578063c4d89833146102555761014d565b80634d2301cc116101155780634d2301cc146101ac57806354cc95ad146101bf57806372425d9d146101c757806379534397146101cf57806386d516e8146101e25780638c7597a3146101ea5761014d565b80630f28c97d14610152578063252dba421461017057806327e86d6e1461019157806329cb924d1461015257806331b0879b14610199575b600080fd5b61015a6102ae565b6040516101679190610b24565b60405180910390f35b61018361017e366004610921565b6102b2565b604051610167929190610bc1565b61015a61042a565b61015a6101a7366004610ad3565b61043d565b61015a6101ba366004610905565b610478565b61015a610485565b61015a610499565b61015a6101dd366004610aa3565b61049d565b61015a6104bc565b61015a6101f8366004610905565b6104c0565b61020561054c565b6040516101679190610b10565b61020561055b565b61015a610228366004610905565b61055f565b61015a61023b366004610a6b565b610590565b61025361024e366004610905565b61060f565b005b6102056106d4565b6102056106e3565b61015a610273366004610a6b565b6106f2565b61015a610286366004610905565b61077c565b61015a61085f565b61015a6102a1366004610aa3565b6108f2565b6102056108f6565b4290565b8051439060609067ffffffffffffffff8111156102df57634e487b7160e01b600052604160045260246000fd5b60405190808252806020026020018201604052801561031257816020015b60608152602001906001900390816102fd5790505b50905060005b83518110156104245760008085838151811061034457634e487b7160e01b600052603260045260246000fd5b6020026020010151600001516001600160a01b031686848151811061037957634e487b7160e01b600052603260045260246000fd5b6020026020010151602001516040516103929190610af4565b6000604051808303816000865af19150503d80600081146103cf576040519150601f19603f3d011682016040523d82523d6000602084013e6103d4565b606091505b5091509150816103e357600080fd5b8084848151811061040457634e487b7160e01b600052603260045260246000fd5b60200260200101819052505050808061041c90610ce9565b915050610318565b50915091565b6000610437600143610ca2565b40905090565b60008282116104675760405162461bcd60e51b815260040161045e90610b5a565b60405180910390fd5b6104718383610ca2565b9392505050565b6001600160a01b03163190565b60006104944262015180610c6b565b905090565b4490565b60006104ac8262015180610c83565b6104b69042610c6b565b92915050565b4590565b600080546040516370a0823160e01b81526001600160a01b03909116906370a08231906104f1908590600401610b10565b60206040518083038186803b15801561050957600080fd5b505afa15801561051d573d6000803e3d6000fd5b505050506040513d601f19601f820116820180604052508101906105419190610abb565b6104b6906002610c83565b6001546001600160a01b031681565b4190565b6001546040516370a0823160e01b81526000916001600160a01b0316906370a08231906104f1908590600401610b10565b6040516370a0823160e01b81526000906001600160a01b038416906370a08231906105bf908590600401610b10565b60206040518083038186803b1580156105d757600080fd5b505afa1580156105eb573d6000803e3d6000fd5b505050506040513d601f19601f820116820180604052508101906104719190610abb565b6004546001600160a01b031633146106395760405162461bcd60e51b815260040161045e90610b9e565b600454600160a01b900460ff16156106635760405162461bcd60e51b815260040161045e90610b2d565b600280546001600160a01b038084166001600160a01b031990921691909117918290556004805460ff60a01b1916600160a01b1790556040517f908408e307fc569b417f6cbec5d5a06f44a0a505ac0479b47d421a4b2fd6a1e6926106c9921690610b10565b60405180910390a150565b6003546001600160a01b031681565b6002546001600160a01b031681565b6040516370a0823160e01b81526000906001600160a01b038416906370a0823190610721908590600401610b10565b60206040518083038186803b15801561073957600080fd5b505afa15801561074d573d6000803e3d6000fd5b505050506040513d601f19601f820116820180604052508101906107719190610abb565b610471906002610c83565b6002546040516370a0823160e01b815260009182916001600160a01b03858116926370a08231926107b39290911690600401610b10565b60206040518083038186803b1580156107cb57600080fd5b505afa1580156107df573d6000803e3d6000fd5b505050506040513d601f19601f820116820180604052508101906108039190610abb565b905060006108108461055f565b9050600061081d856104c0565b9050600061082961085f565b905081831015600081610845576108408385610c83565b610847565b845b90506108538682610c83565b98975050505050505050565b6001546003546040516370a0823160e01b81526000926001600160a01b03908116926370a08231926108979290911690600401610b10565b60206040518083038186803b1580156108af57600080fd5b505afa1580156108c3573d6000803e3d6000fd5b505050506040513d601f19601f820116820180604052508101906108e79190610abb565b610494906002610c83565b4090565b6000546001600160a01b031681565b600060208284031215610916578081fd5b813561047181610d30565b60006020808385031215610933578182fd5b67ffffffffffffffff8084351115610949578283fd5b8335840185601f82011261095b578384fd5b80358281111561096d5761096d610d1a565b61097a8485830201610c41565b81815284810190838601875b84811015610a5c5781358601601f196040828e03820112156109a6578a8bfd5b604051604081018181108b821117156109c1576109c1610d1a565b604052828b01356109d181610d30565b815260408301358a8111156109e4578c8dfd5b8084019350508d603f8401126109f8578b8cfd5b8a8301358a811115610a0c57610a0c610d1a565b610a1c8c84601f84011601610c41565b92508083528e6040828601011115610a32578c8dfd5b80604085018d85013782018b018c9052808b01919091528552509287019290870190600101610986565b50909998505050505050505050565b60008060408385031215610a7d578081fd5b8235610a8881610d30565b91506020830135610a9881610d30565b809150509250929050565b600060208284031215610ab4578081fd5b5035919050565b600060208284031215610acc578081fd5b5051919050565b60008060408385031215610ae5578182fd5b50508035926020909101359150565b60008251610b06818460208701610cb9565b9190910192915050565b6001600160a01b0391909116815260200190565b90815260200190565b602080825260139082015272185b1c9958591e481a5b9a5d1a585b1a5e9959606a1b604082015260600190565b60208082526024908201527f7468652065676720646f6573206e6f742070726563656465207468652063686960408201526331b5b2b760e11b606082015260800190565b6020808252600990820152686f6e6c792062756e7360b81b604082015260600190565b600060408201848352602060408185015281855180845260608601915060608382028701019350828701855b82811015610c3357878603605f1901845281518051808852610c1481888a01898501610cb9565b601f01601f191696909601850195509284019290840190600101610bed565b509398975050505050505050565b60405181810167ffffffffffffffff81118282101715610c6357610c63610d1a565b604052919050565b60008219821115610c7e57610c7e610d04565b500190565b6000816000190483118215151615610c9d57610c9d610d04565b500290565b600082821015610cb457610cb4610d04565b500390565b60005b83811015610cd4578181015183820152602001610cbc565b83811115610ce3576000848401525b50505050565b6000600019821415610cfd57610cfd610d04565b5060010190565b634e487b7160e01b600052601160045260246000fd5b634e487b7160e01b600052604160045260246000fd5b6001600160a01b0381168114610d4557600080fd5b5056fea264697066735822122001a80f8a409b702f6be4173616a8c35638d176299947db25791592fa27d556a764736f6c63430008000033",
    "sourcePath": "/Users/unico/Documents/GitHub/SoulSwap/soulswap-farms/contracts/libraries/Multicall.sol",
    "compiler": {
        "name": "solc",
        "version": "0.8.0+commit.c7dfd78e"
    },
    "functionHashes": {
        "aggregate((address,bytes)[])": "252dba42",
        "ftmFusdPool()": "c4d89833",
        "fusd()": "9566b6a7",
        "getBlockHash(uint256)": "ee82ac5e",
        "getCurrentBlockCoinbase()": "a8b0574e",
        "getCurrentBlockDifficulty()": "72425d9d",
        "getCurrentBlockGasLimit()": "86d516e8",
        "getCurrentBlockTimestamp()": "0f28c97d",
        "getCurrentTime()": "29cb924d",
        "getDollarValue(address,address)": "dbbc47be",
        "getEthBalance(address)": "4d2301cc",
        "getFtmFusdValue()": "ea693978",
        "getFtmValue(address)": "8c7597a3",
        "getFusdValue(address)": "b5faa884",
        "getFutureTime(uint256)": "79534397",
        "getLastBlockHash()": "27e86d6e",
        "getNextDay()": "54cc95ad",
        "getTimespan(uint256,uint256)": "31b0879b",
        "getTokenBalance(address,address)": "c489744b",
        "getValueLocked(address)": "e0692d12",
        "initialize(address)": "c4d66de8",
        "summoner()": "dacaa9d1",
        "wftm()": "f4f45b46"
    },
    "gasEstimates": {
        "creation": {
            "codeDepositCost": "690800",
            "executionCost": "infinite",
            "totalCost": "infinite"
        },
        "external": {
            "aggregate((address,bytes)[])": "infinite",
            "ftmFusdPool()": "1203",
            "fusd()": "1093",
            "getBlockHash(uint256)": "432",
            "getCurrentBlockCoinbase()": "296",
            "getCurrentBlockDifficulty()": "294",
            "getCurrentBlockGasLimit()": "338",
            "getCurrentBlockTimestamp()": "251",
            "getCurrentTime()": "317",
            "getDollarValue(address,address)": "infinite",
            "getEthBalance(address)": "1118",
            "getFtmFusdValue()": "infinite",
            "getFtmValue(address)": "infinite",
            "getFusdValue(address)": "infinite",
            "getFutureTime(uint256)": "562",
            "getLastBlockHash()": "387",
            "getNextDay()": "347",
            "getTimespan(uint256,uint256)": "539",
            "getTokenBalance(address,address)": "infinite",
            "getValueLocked(address)": "infinite",
            "initialize(address)": "44923",
            "summoner()": "1092",
            "wftm()": "1202"
        }
    }
}