{
    "contractName": "SoulPower",
    "abi": [
        {
            "inputs": [
                {
                    "internalType": "address",
                    "name": "_admin",
                    "type": "address"
                }
            ],
            "stateMutability": "nonpayable",
            "type": "constructor"
        },
        {
            "anonymous": false,
            "inputs": [
                {
                    "indexed": true,
                    "internalType": "address",
                    "name": "owner",
                    "type": "address"
                },
                {
                    "indexed": true,
                    "internalType": "address",
                    "name": "spender",
                    "type": "address"
                },
                {
                    "indexed": false,
                    "internalType": "uint256",
                    "name": "value",
                    "type": "uint256"
                }
            ],
            "name": "Approval",
            "type": "event"
        },
        {
            "anonymous": false,
            "inputs": [
                {
                    "indexed": true,
                    "internalType": "address",
                    "name": "delegator",
                    "type": "address"
                },
                {
                    "indexed": true,
                    "internalType": "address",
                    "name": "fromDelegate",
                    "type": "address"
                },
                {
                    "indexed": true,
                    "internalType": "address",
                    "name": "toDelegate",
                    "type": "address"
                }
            ],
            "name": "DelegateChanged",
            "type": "event"
        },
        {
            "anonymous": false,
            "inputs": [
                {
                    "indexed": true,
                    "internalType": "address",
                    "name": "delegate",
                    "type": "address"
                },
                {
                    "indexed": false,
                    "internalType": "uint256",
                    "name": "previousBalance",
                    "type": "uint256"
                },
                {
                    "indexed": false,
                    "internalType": "uint256",
                    "name": "newBalance",
                    "type": "uint256"
                }
            ],
            "name": "DelegateVotesChanged",
            "type": "event"
        },
        {
            "anonymous": false,
            "inputs": [
                {
                    "indexed": false,
                    "internalType": "address",
                    "name": "admin",
                    "type": "address"
                }
            ],
            "name": "NewAdmin",
            "type": "event"
        },
        {
            "anonymous": false,
            "inputs": [
                {
                    "indexed": false,
                    "internalType": "bytes3",
                    "name": "role",
                    "type": "bytes3"
                },
                {
                    "indexed": false,
                    "internalType": "address",
                    "name": "oldAccount",
                    "type": "address"
                },
                {
                    "indexed": false,
                    "internalType": "address",
                    "name": "newAccount",
                    "type": "address"
                }
            ],
            "name": "Rethroned",
            "type": "event"
        },
        {
            "anonymous": false,
            "inputs": [
                {
                    "indexed": true,
                    "internalType": "bytes32",
                    "name": "role",
                    "type": "bytes32"
                },
                {
                    "indexed": true,
                    "internalType": "bytes32",
                    "name": "previousAdminRole",
                    "type": "bytes32"
                },
                {
                    "indexed": true,
                    "internalType": "bytes32",
                    "name": "newAdminRole",
                    "type": "bytes32"
                }
            ],
            "name": "RoleAdminChanged",
            "type": "event"
        },
        {
            "anonymous": false,
            "inputs": [
                {
                    "indexed": true,
                    "internalType": "bytes32",
                    "name": "role",
                    "type": "bytes32"
                },
                {
                    "indexed": true,
                    "internalType": "address",
                    "name": "account",
                    "type": "address"
                },
                {
                    "indexed": true,
                    "internalType": "address",
                    "name": "sender",
                    "type": "address"
                }
            ],
            "name": "RoleGranted",
            "type": "event"
        },
        {
            "anonymous": false,
            "inputs": [
                {
                    "indexed": true,
                    "internalType": "bytes32",
                    "name": "role",
                    "type": "bytes32"
                },
                {
                    "indexed": true,
                    "internalType": "address",
                    "name": "account",
                    "type": "address"
                },
                {
                    "indexed": true,
                    "internalType": "address",
                    "name": "sender",
                    "type": "address"
                }
            ],
            "name": "RoleRevoked",
            "type": "event"
        },
        {
            "anonymous": false,
            "inputs": [
                {
                    "indexed": true,
                    "internalType": "address",
                    "name": "from",
                    "type": "address"
                },
                {
                    "indexed": true,
                    "internalType": "address",
                    "name": "to",
                    "type": "address"
                },
                {
                    "indexed": false,
                    "internalType": "uint256",
                    "name": "value",
                    "type": "uint256"
                }
            ],
            "name": "Transfer",
            "type": "event"
        },
        {
            "inputs": [],
            "name": "DEFAULT_ADMIN_ROLE",
            "outputs": [
                {
                    "internalType": "bytes32",
                    "name": "",
                    "type": "bytes32"
                }
            ],
            "stateMutability": "view",
            "type": "function"
        },
        {
            "inputs": [],
            "name": "DELEGATION_TYPEHASH",
            "outputs": [
                {
                    "internalType": "bytes32",
                    "name": "",
                    "type": "bytes32"
                }
            ],
            "stateMutability": "view",
            "type": "function"
        },
        {
            "inputs": [],
            "name": "DOMAIN_TYPEHASH",
            "outputs": [
                {
                    "internalType": "bytes32",
                    "name": "",
                    "type": "bytes32"
                }
            ],
            "stateMutability": "view",
            "type": "function"
        },
        {
            "inputs": [],
            "name": "admin",
            "outputs": [
                {
                    "internalType": "address",
                    "name": "",
                    "type": "address"
                }
            ],
            "stateMutability": "view",
            "type": "function"
        },
        {
            "inputs": [
                {
                    "internalType": "address",
                    "name": "owner",
                    "type": "address"
                },
                {
                    "internalType": "address",
                    "name": "spender",
                    "type": "address"
                }
            ],
            "name": "allowance",
            "outputs": [
                {
                    "internalType": "uint256",
                    "name": "",
                    "type": "uint256"
                }
            ],
            "stateMutability": "view",
            "type": "function"
        },
        {
            "inputs": [],
            "name": "anunnaki",
            "outputs": [
                {
                    "internalType": "bytes32",
                    "name": "",
                    "type": "bytes32"
                }
            ],
            "stateMutability": "view",
            "type": "function"
        },
        {
            "inputs": [
                {
                    "internalType": "address",
                    "name": "spender",
                    "type": "address"
                },
                {
                    "internalType": "uint256",
                    "name": "amount",
                    "type": "uint256"
                }
            ],
            "name": "approve",
            "outputs": [
                {
                    "internalType": "bool",
                    "name": "",
                    "type": "bool"
                }
            ],
            "stateMutability": "nonpayable",
            "type": "function"
        },
        {
            "inputs": [
                {
                    "internalType": "address",
                    "name": "account",
                    "type": "address"
                }
            ],
            "name": "balanceOf",
            "outputs": [
                {
                    "internalType": "uint256",
                    "name": "",
                    "type": "uint256"
                }
            ],
            "stateMutability": "view",
            "type": "function"
        },
        {
            "inputs": [
                {
                    "internalType": "uint256",
                    "name": "amount",
                    "type": "uint256"
                }
            ],
            "name": "burn",
            "outputs": [],
            "stateMutability": "nonpayable",
            "type": "function"
        },
        {
            "inputs": [
                {
                    "internalType": "address",
                    "name": "account",
                    "type": "address"
                },
                {
                    "internalType": "uint256",
                    "name": "amount",
                    "type": "uint256"
                }
            ],
            "name": "burnFrom",
            "outputs": [],
            "stateMutability": "nonpayable",
            "type": "function"
        },
        {
            "inputs": [
                {
                    "internalType": "address",
                    "name": "",
                    "type": "address"
                },
                {
                    "internalType": "uint256",
                    "name": "",
                    "type": "uint256"
                }
            ],
            "name": "checkpoints",
            "outputs": [
                {
                    "internalType": "uint256",
                    "name": "fromTime",
                    "type": "uint256"
                },
                {
                    "internalType": "uint256",
                    "name": "votes",
                    "type": "uint256"
                }
            ],
            "stateMutability": "view",
            "type": "function"
        },
        {
            "inputs": [],
            "name": "decimals",
            "outputs": [
                {
                    "internalType": "uint8",
                    "name": "",
                    "type": "uint8"
                }
            ],
            "stateMutability": "view",
            "type": "function"
        },
        {
            "inputs": [
                {
                    "internalType": "address",
                    "name": "spender",
                    "type": "address"
                },
                {
                    "internalType": "uint256",
                    "name": "subtractedValue",
                    "type": "uint256"
                }
            ],
            "name": "decreaseAllowance",
            "outputs": [
                {
                    "internalType": "bool",
                    "name": "",
                    "type": "bool"
                }
            ],
            "stateMutability": "nonpayable",
            "type": "function"
        },
        {
            "inputs": [
                {
                    "internalType": "address",
                    "name": "delegatee",
                    "type": "address"
                }
            ],
            "name": "delegate",
            "outputs": [],
            "stateMutability": "nonpayable",
            "type": "function"
        },
        {
            "inputs": [
                {
                    "internalType": "address",
                    "name": "delegatee",
                    "type": "address"
                },
                {
                    "internalType": "uint256",
                    "name": "nonce",
                    "type": "uint256"
                },
                {
                    "internalType": "uint256",
                    "name": "expiry",
                    "type": "uint256"
                },
                {
                    "internalType": "uint8",
                    "name": "v",
                    "type": "uint8"
                },
                {
                    "internalType": "bytes32",
                    "name": "r",
                    "type": "bytes32"
                },
                {
                    "internalType": "bytes32",
                    "name": "s",
                    "type": "bytes32"
                }
            ],
            "name": "delegateBySig",
            "outputs": [],
            "stateMutability": "nonpayable",
            "type": "function"
        },
        {
            "inputs": [
                {
                    "internalType": "address",
                    "name": "delegator",
                    "type": "address"
                }
            ],
            "name": "delegates",
            "outputs": [
                {
                    "internalType": "address",
                    "name": "",
                    "type": "address"
                }
            ],
            "stateMutability": "view",
            "type": "function"
        },
        {
            "inputs": [
                {
                    "internalType": "address",
                    "name": "account",
                    "type": "address"
                }
            ],
            "name": "getCurrentVotes",
            "outputs": [
                {
                    "internalType": "uint256",
                    "name": "",
                    "type": "uint256"
                }
            ],
            "stateMutability": "view",
            "type": "function"
        },
        {
            "inputs": [
                {
                    "internalType": "address",
                    "name": "account",
                    "type": "address"
                },
                {
                    "internalType": "uint256",
                    "name": "blockTimestamp",
                    "type": "uint256"
                }
            ],
            "name": "getPriorVotes",
            "outputs": [
                {
                    "internalType": "uint256",
                    "name": "",
                    "type": "uint256"
                }
            ],
            "stateMutability": "view",
            "type": "function"
        },
        {
            "inputs": [
                {
                    "internalType": "bytes32",
                    "name": "role",
                    "type": "bytes32"
                }
            ],
            "name": "getRoleAdmin",
            "outputs": [
                {
                    "internalType": "bytes32",
                    "name": "",
                    "type": "bytes32"
                }
            ],
            "stateMutability": "view",
            "type": "function"
        },
        {
            "inputs": [
                {
                    "internalType": "bytes32",
                    "name": "role",
                    "type": "bytes32"
                },
                {
                    "internalType": "address",
                    "name": "account",
                    "type": "address"
                }
            ],
            "name": "grantRole",
            "outputs": [],
            "stateMutability": "nonpayable",
            "type": "function"
        },
        {
            "inputs": [
                {
                    "internalType": "bytes32",
                    "name": "role",
                    "type": "bytes32"
                }
            ],
            "name": "hasDivineRole",
            "outputs": [
                {
                    "internalType": "bool",
                    "name": "",
                    "type": "bool"
                }
            ],
            "stateMutability": "view",
            "type": "function"
        },
        {
            "inputs": [
                {
                    "internalType": "bytes32",
                    "name": "role",
                    "type": "bytes32"
                },
                {
                    "internalType": "address",
                    "name": "account",
                    "type": "address"
                }
            ],
            "name": "hasRole",
            "outputs": [
                {
                    "internalType": "bool",
                    "name": "",
                    "type": "bool"
                }
            ],
            "stateMutability": "view",
            "type": "function"
        },
        {
            "inputs": [
                {
                    "internalType": "address",
                    "name": "spender",
                    "type": "address"
                },
                {
                    "internalType": "uint256",
                    "name": "addedValue",
                    "type": "uint256"
                }
            ],
            "name": "increaseAllowance",
            "outputs": [
                {
                    "internalType": "bool",
                    "name": "",
                    "type": "bool"
                }
            ],
            "stateMutability": "nonpayable",
            "type": "function"
        },
        {
            "inputs": [
                {
                    "internalType": "address",
                    "name": "_to",
                    "type": "address"
                },
                {
                    "internalType": "uint256",
                    "name": "_amount",
                    "type": "uint256"
                }
            ],
            "name": "mint",
            "outputs": [],
            "stateMutability": "nonpayable",
            "type": "function"
        },
        {
            "inputs": [],
            "name": "name",
            "outputs": [
                {
                    "internalType": "string",
                    "name": "",
                    "type": "string"
                }
            ],
            "stateMutability": "view",
            "type": "function"
        },
        {
            "inputs": [
                {
                    "internalType": "address",
                    "name": "_admin",
                    "type": "address"
                }
            ],
            "name": "newAdmin",
            "outputs": [],
            "stateMutability": "nonpayable",
            "type": "function"
        },
        {
            "inputs": [
                {
                    "internalType": "address",
                    "name": "",
                    "type": "address"
                }
            ],
            "name": "nonces",
            "outputs": [
                {
                    "internalType": "uint256",
                    "name": "",
                    "type": "uint256"
                }
            ],
            "stateMutability": "view",
            "type": "function"
        },
        {
            "inputs": [
                {
                    "internalType": "address",
                    "name": "",
                    "type": "address"
                }
            ],
            "name": "numCheckpoints",
            "outputs": [
                {
                    "internalType": "uint256",
                    "name": "",
                    "type": "uint256"
                }
            ],
            "stateMutability": "view",
            "type": "function"
        },
        {
            "inputs": [
                {
                    "internalType": "bytes32",
                    "name": "role",
                    "type": "bytes32"
                },
                {
                    "internalType": "address",
                    "name": "account",
                    "type": "address"
                }
            ],
            "name": "renounceRole",
            "outputs": [],
            "stateMutability": "nonpayable",
            "type": "function"
        },
        {
            "inputs": [
                {
                    "internalType": "bytes32",
                    "name": "role",
                    "type": "bytes32"
                },
                {
                    "internalType": "address",
                    "name": "oldAccount",
                    "type": "address"
                },
                {
                    "internalType": "address",
                    "name": "newAccount",
                    "type": "address"
                }
            ],
            "name": "rethroneRitual",
            "outputs": [],
            "stateMutability": "nonpayable",
            "type": "function"
        },
        {
            "inputs": [
                {
                    "internalType": "bytes32",
                    "name": "role",
                    "type": "bytes32"
                },
                {
                    "internalType": "address",
                    "name": "account",
                    "type": "address"
                }
            ],
            "name": "revokeRole",
            "outputs": [],
            "stateMutability": "nonpayable",
            "type": "function"
        },
        {
            "inputs": [
                {
                    "internalType": "bytes4",
                    "name": "interfaceId",
                    "type": "bytes4"
                }
            ],
            "name": "supportsInterface",
            "outputs": [
                {
                    "internalType": "bool",
                    "name": "",
                    "type": "bool"
                }
            ],
            "stateMutability": "view",
            "type": "function"
        },
        {
            "inputs": [],
            "name": "symbol",
            "outputs": [
                {
                    "internalType": "string",
                    "name": "",
                    "type": "string"
                }
            ],
            "stateMutability": "view",
            "type": "function"
        },
        {
            "inputs": [],
            "name": "thoth",
            "outputs": [
                {
                    "internalType": "bytes32",
                    "name": "",
                    "type": "bytes32"
                }
            ],
            "stateMutability": "view",
            "type": "function"
        },
        {
            "inputs": [],
            "name": "totalSupply",
            "outputs": [
                {
                    "internalType": "uint256",
                    "name": "",
                    "type": "uint256"
                }
            ],
            "stateMutability": "view",
            "type": "function"
        },
        {
            "inputs": [
                {
                    "internalType": "address",
                    "name": "recipient",
                    "type": "address"
                },
                {
                    "internalType": "uint256",
                    "name": "amount",
                    "type": "uint256"
                }
            ],
            "name": "transfer",
            "outputs": [
                {
                    "internalType": "bool",
                    "name": "",
                    "type": "bool"
                }
            ],
            "stateMutability": "nonpayable",
            "type": "function"
        },
        {
            "inputs": [
                {
                    "internalType": "address",
                    "name": "sender",
                    "type": "address"
                },
                {
                    "internalType": "address",
                    "name": "recipient",
                    "type": "address"
                },
                {
                    "internalType": "uint256",
                    "name": "amount",
                    "type": "uint256"
                }
            ],
            "name": "transferFrom",
            "outputs": [
                {
                    "internalType": "bool",
                    "name": "",
                    "type": "bool"
                }
            ],
            "stateMutability": "nonpayable",
            "type": "function"
        }
    ],
    "bytecode": "60806040523480156200001157600080fd5b50604051620026b4380380620026b4833981016040819052620000349162000346565b604080518082018252600981526829b7bab62837bbb2b960b91b60208083019182528351808501909452600484526314d3d55360e21b9084015281519192916200008191600391620002a0565b50805162000097906004906020840190620002a0565b5050600680546001600160a01b0319166001600160a01b0384811691909117918290557f45552d869603260d0572333b5da740bb4eaf623685d53936ee462b64a9a771826007557fdffb0b033b8033405f5fb07b08f48c89fa1b4a3d5d5a475c3e2b8df5fbd4da0d60085562000114925060009182911662000157565b60075460065462000131919081906001600160a01b031662000157565b600854600754600654620001509291906001600160a01b031662000157565b50620003b3565b62000163838262000174565b6200016f838362000184565b505050565b620001808282620001d0565b5050565b8062000190836200025c565b60405184907fbd79b86ffe0ab8e8776151514217cd7cacd52c909f66475c3af44e129f0b00ff90600090a460009182526005602052604090912060010155565b620001dc828262000271565b620001805760008281526005602090815260408083206001600160a01b03851684529091529020805460ff19166001179055620002186200029c565b6001600160a01b0316816001600160a01b0316837f2f8788117e7eff1d82e926ec794901d17c78024a50270940304540a733656f0d60405160405180910390a45050565b60009081526005602052604090206001015490565b60009182526005602090815260408084206001600160a01b0393909316845291905290205460ff1690565b3390565b828054620002ae9062000376565b90600052602060002090601f016020900481019282620002d257600085556200031d565b82601f10620002ed57805160ff19168380011785556200031d565b828001600101855582156200031d579182015b828111156200031d57825182559160200191906001019062000300565b506200032b9291506200032f565b5090565b5b808211156200032b576000815560010162000330565b60006020828403121562000358578081fd5b81516001600160a01b03811681146200036f578182fd5b9392505050565b6002810460018216806200038b57607f821691505b60208210811415620003ad57634e487b7160e01b600052602260045260246000fd5b50919050565b6122f180620003c36000396000f3fe608060405234801561001057600080fd5b50600436106102275760003560e01c806370a0823111610130578063a6ba31c1116100b8578063d547741f1161007c578063d547741f1461048e578063dbaef9b0146104a1578063dd62ed3e146104b4578063e7a324dc146104c7578063f851a440146104cf57610227565b8063a6ba31c11461043a578063a6ed77ee1461044d578063a9059cbb14610455578063b4b5ea5714610468578063c3cda5201461047b57610227565b80637ecebe00116100ff5780637ecebe00146103f157806391d148541461040457806395d89b4114610417578063a217fddf1461041f578063a457c2d71461042757610227565b806370a08231146103a5578063743d507c146103b8578063782d6fe1146103cb57806379cc6790146103de57610227565b80632f2ff15d116101b357806340c10f191161018257806340c10f191461033957806342966c681461034c578063587cde1e1461035f5780635c19a95c1461037f5780636fcfff451461039257610227565b80632f2ff15d146102e9578063313ce567146102fe57806336568abe14610313578063395093511461032657610227565b8063155dfb50116101fa578063155dfb501461029e57806318160ddd146102b357806320606b70146102bb57806323b872dd146102c3578063248a9ca3146102d657610227565b806301ffc9a71461022c57806306fdde0314610255578063095ea7b31461026a5780630cdfebfa1461027d575b600080fd5b61023f61023a366004611b5e565b6104d7565b60405161024c9190611c2a565b60405180910390f35b61025d610504565b60405161024c9190611ca4565b61023f610278366004611a62565b610596565b61029061028b366004611a62565b6105b4565b60405161024c929190612182565b6102a66105d8565b60405161024c9190611c35565b6102a66105de565b6102a66105e4565b61023f6102d1366004611a27565b610608565b6102a66102e4366004611ae9565b6106a8565b6102fc6102f7366004611b01565b6106bd565b005b6103066106e6565b60405161024c9190612190565b6102fc610321366004611b01565b6106eb565b61023f610334366004611a62565b610731565b6102fc610347366004611a62565b610780565b6102fc61035a366004611ae9565b6107be565b61037261036d3660046119db565b610809565b60405161024c9190611c16565b6102fc61038d3660046119db565b610827565b6102a66103a03660046119db565b610831565b6102a66103b33660046119db565b610843565b6102fc6103c6366004611b23565b61085e565b6102a66103d9366004611a62565b6108b7565b6102fc6103ec366004611a62565b610a99565b6102a66103ff3660046119db565b610b0f565b61023f610412366004611b01565b610b21565b61025d610b4c565b6102a6610b5b565b61023f610435366004611a62565b610b60565b6102fc6104483660046119db565b610bdb565b6102a6610c8e565b61023f610463366004611a62565b610c94565b6102a66104763660046119db565b610ca8565b6102fc610489366004611a8b565b610d0b565b6102fc61049c366004611b01565b610ee6565b61023f6104af366004611ae9565b610f05565b6102a66104c23660046119f5565b610f11565b6102a6610f3c565b610372610f60565b60006001600160e01b03198216637965db0b60e01b14806104fc57506104fc82610f6f565b90505b919050565b6060600380546105139061224f565b80601f016020809104026020016040519081016040528092919081815260200182805461053f9061224f565b801561058c5780601f106105615761010080835404028352916020019161058c565b820191906000526020600020905b81548152906001019060200180831161056f57829003601f168201915b5050505050905090565b60006105aa6105a3610f88565b8484610f8c565b5060015b92915050565b600a6020908152600092835260408084209091529082529020805460019091015482565b60075481565b60025490565b7f797cfab58fcb15f590eb8e4252d5c228ff88f94f907e119e80c4393a946e8f3581565b6000610615848484611040565b6001600160a01b038416600090815260016020526040812081610636610f88565b6001600160a01b03166001600160a01b03168152602001908152602001600020549050828110156106825760405162461bcd60e51b815260040161067990611ec4565b60405180910390fd5b61069d8561068e610f88565b61069886856121f5565b610f8c565b506001949350505050565b60009081526005602052604090206001015490565b6106c6826106a8565b6106d7816106d2610f88565b61116d565b6106e183836111d1565b505050565b601290565b6106f3610f88565b6001600160a01b0316816001600160a01b0316146107235760405162461bcd60e51b8152600401610679906120fc565b61072d8282611258565b5050565b60006105aa61073e610f88565b84846001600061074c610f88565b6001600160a01b03908116825260208083019390935260409182016000908120918b1681529252902054610698919061219e565b60085461078f816106d2610f88565b61079983836112dd565b6001600160a01b038084166000908152600960205260408120546106e19216846113a5565b6107cf6107c9610f88565b826114e0565b610806600960006107de610f88565b6001600160a01b039081168252602082019290925260400160009081205490911690836113a5565b50565b6001600160a01b039081166000908152600960205260409020541690565b61080633826115da565b600b6020526000908152604090205481565b6001600160a01b031660009081526020819052604090205490565b8261086b816106d2610f88565b816001600160a01b0316836001600160a01b0316141561089d5760405162461bcd60e51b815260040161067990611f0c565b6108a784836106bd565b6108b184846106eb565b50505050565b60004282106108d85760405162461bcd60e51b815260040161067990611cd7565b6001600160a01b0383166000908152600b6020526040902054806109005760009150506105ae565b6001600160a01b0384166000908152600a6020526040812084916109256001856121f5565b8152602001908152602001600020600001541161097a576001600160a01b0384166000908152600a60205260408120906109606001846121f5565b8152602001908152602001600020600101549150506105ae565b6001600160a01b0384166000908152600a602090815260408083208380529091529020548310156109af5760009150506105ae565b6000806109bd6001846121f5565b90505b81811115610a6957600060026109d684846121f5565b6109e091906121b6565b6109ea90836121f5565b6001600160a01b0388166000908152600a60209081526040808320848452825291829020825180840190935280548084526001909101549183019190915291925090871415610a43576020015194506105ae9350505050565b8051871115610a5457819350610a62565b610a5f6001836121f5565b92505b50506109c0565b506001600160a01b0385166000908152600a60209081526040808320938352929052206001015491505092915050565b6000610aa7836104c2610f88565b905081811015610ac95760405162461bcd60e51b815260040161067990611f3b565b610adf83610ad5610f88565b61069885856121f5565b610ae983836114e0565b6001600160a01b038084166000908152600960205260408120546106e1921690846113a5565b600c6020526000908152604090205481565b60009182526005602090815260408084206001600160a01b0393909316845291905290205460ff1690565b6060600480546105139061224f565b600081565b60008060016000610b6f610f88565b6001600160a01b0390811682526020808301939093526040918201600090812091881681529252902054905082811015610bbb5760405162461bcd60e51b8152600401610679906120b7565b610bd1610bc6610f88565b8561069886856121f5565b5060019392505050565b600754610bea816106d2610f88565b6006546001600160a01b0383811691161415610c185760405162461bcd60e51b81526004016106799061203c565b600654610c31906000906001600160a01b03168461085e565b600680546001600160a01b0319166001600160a01b0384811691909117918290556040517f71614071b88dee5e0b2ae578a9dd7b2ebbe9ae832ba419dc0242cd065a290b6c92610c82921690611c16565b60405180910390a15050565b60085481565b60006105aa610ca1610f88565b8484611040565b6001600160a01b0381166000908152600b602052604081205480610ccd576000610d04565b6001600160a01b0383166000908152600a6020526040812090610cf16001846121f5565b8152602001908152602001600020600101545b9392505050565b60007f797cfab58fcb15f590eb8e4252d5c228ff88f94f907e119e80c4393a946e8f35610d36610504565b80519060200120610d45611669565b30604051602001610d599493929190611c62565b60405160208183030381529060405280519060200120905060007f1ac861a6a8532f3704e1768564a53a32774f00d6cf20ccbbdf60ab61378302bc888888604051602001610daa9493929190611c3e565b60405160208183030381529060405280519060200120905060008282604051602001610dd7929190611b86565b604051602081830303815290604052805190602001209050600060018288888860405160008152602001604052604051610e149493929190611c86565b6020604051602081039080840390855afa158015610e36573d6000803e3d6000fd5b5050604051601f1901519150506001600160a01b038116610e695760405162461bcd60e51b815260040161067990611e14565b6001600160a01b0381166000908152600c60205260408120805491610e8d8361228a565b919050558914610eaf5760405162461bcd60e51b815260040161067990611f7f565b87421115610ecf5760405162461bcd60e51b815260040161067990611e8f565b610ed9818b6115da565b505050505b505050505050565b610eef826106a8565b610efb816106d2610f88565b6106e18383611258565b60006104fc8233610b21565b6001600160a01b03918216600090815260016020908152604080832093909416825291909152205490565b7f1ac861a6a8532f3704e1768564a53a32774f00d6cf20ccbbdf60ab61378302bc81565b6006546001600160a01b031681565b6001600160e01b031981166301ffc9a760e01b14919050565b3390565b6001600160a01b038316610fb25760405162461bcd60e51b815260040161067990612073565b6001600160a01b038216610fd85760405162461bcd60e51b815260040161067990611dd2565b6001600160a01b0380841660008181526001602090815260408083209487168084529490915290819020849055517f8c5be1e5ebec7d5bd14f71427d1e84f3dd0314c0f7b2291e5b200ac8c7c3b92590611033908590611c35565b60405180910390a3505050565b6001600160a01b0383166110665760405162461bcd60e51b815260040161067990611ff7565b6001600160a01b03821661108c5760405162461bcd60e51b815260040161067990611d4d565b6110978383836106e1565b6001600160a01b038316600090815260208190526040902054818110156110d05760405162461bcd60e51b815260040161067990611e49565b6110da82826121f5565b6001600160a01b03808616600090815260208190526040808220939093559085168152908120805484929061111090849061219e565b92505081905550826001600160a01b0316846001600160a01b03167fddf252ad1be2c89b69c2b068fc378daa952ba7f163c4a11628f55a4df523b3ef8460405161115a9190611c35565b60405180910390a36108b18484846106e1565b6111778282610b21565b61072d5761118f816001600160a01b0316601461166d565b61119a83602061166d565b6040516020016111ab929190611ba1565b60408051601f198184030181529082905262461bcd60e51b825261067991600401611ca4565b6111db8282610b21565b61072d5760008281526005602090815260408083206001600160a01b03851684529091529020805460ff19166001179055611214610f88565b6001600160a01b0316816001600160a01b0316837f2f8788117e7eff1d82e926ec794901d17c78024a50270940304540a733656f0d60405160405180910390a45050565b6112628282610b21565b1561072d5760008281526005602090815260408083206001600160a01b03851684529091529020805460ff19169055611299610f88565b6001600160a01b0316816001600160a01b0316837ff6391f5c32d9c69d2a47ea670b442974b53935d1edc7fd64eb21e047a839171b60405160405180910390a45050565b6001600160a01b0382166113035760405162461bcd60e51b81526004016106799061214b565b61130f600083836106e1565b8060026000828254611321919061219e565b90915550506001600160a01b0382166000908152602081905260408120805483929061134e90849061219e565b90915550506040516001600160a01b038316906000907fddf252ad1be2c89b69c2b068fc378daa952ba7f163c4a11628f55a4df523b3ef90611391908590611c35565b60405180910390a361072d600083836106e1565b816001600160a01b0316836001600160a01b0316141580156113c75750600081115b156106e1576001600160a01b03831615611458576001600160a01b0383166000908152600b60205260408120549081611401576000611438565b6001600160a01b0385166000908152600a60205260408120906114256001856121f5565b8152602001908152602001600020600101545b9050600061144684836121f5565b90506114548684848461181f565b5050505b6001600160a01b038216156106e1576001600160a01b0382166000908152600b6020526040812054908161148d5760006114c4565b6001600160a01b0384166000908152600a60205260408120906114b16001856121f5565b8152602001908152602001600020600101545b905060006114d2848361219e565b9050610ede8584848461181f565b6001600160a01b0382166115065760405162461bcd60e51b815260040161067990611fb6565b611512826000836106e1565b6001600160a01b0382166000908152602081905260409020548181101561154b5760405162461bcd60e51b815260040161067990611d90565b61155582826121f5565b6001600160a01b038416600090815260208190526040812091909155600280548492906115839084906121f5565b90915550506040516000906001600160a01b038516907fddf252ad1be2c89b69c2b068fc378daa952ba7f163c4a11628f55a4df523b3ef906115c6908690611c35565b60405180910390a36106e1836000846106e1565b6001600160a01b038083166000908152600960205260408120549091169061160184610843565b6001600160a01b0385811660008181526009602052604080822080546001600160a01b031916898616908117909155905194955093928616927f3134e8a2e6d97e929a7e54011ea5485d7d196dd5f0ba4d4ef95803e8e3fc257f9190a46108b18284836113a5565b4690565b6060600061167c8360026121d6565b61168790600261219e565b67ffffffffffffffff8111156116ad57634e487b7160e01b600052604160045260246000fd5b6040519080825280601f01601f1916602001820160405280156116d7576020820181803683370190505b509050600360fc1b8160008151811061170057634e487b7160e01b600052603260045260246000fd5b60200101906001600160f81b031916908160001a905350600f60fb1b8160018151811061173d57634e487b7160e01b600052603260045260246000fd5b60200101906001600160f81b031916908160001a90535060006117618460026121d6565b61176c90600161219e565b90505b6001811115611800576f181899199a1a9b1b9c1cb0b131b232b360811b85600f16601081106117ae57634e487b7160e01b600052603260045260246000fd5b1a60f81b8282815181106117d257634e487b7160e01b600052603260045260246000fd5b60200101906001600160f81b031916908160001a90535060049490941c936117f981612238565b905061176f565b508315610d045760405162461bcd60e51b815260040161067990611d18565b6000611860426040518060400160405280602081526020017f626c6f636b2074696d657374616d702065786365656473203235362062697473815250611997565b90506000841180156118a657506001600160a01b0385166000908152600a6020526040812082916118926001886121f5565b815260200190815260200160002060000154145b156118e9576001600160a01b0385166000908152600a6020526040812083916118d06001886121f5565b815260208101919091526040016000206001015561194d565b60408051808201825282815260208082018581526001600160a01b0389166000908152600a835284812089825290925292902090518155905160019182015561193390859061219e565b6001600160a01b0386166000908152600b60205260409020555b846001600160a01b03167fdec2bacdd2f05b59de34da9b523dff8be42e5e38e818c82fdb0bae774387a7248484604051611988929190612182565b60405180910390a25050505050565b60008160001984106119bc5760405162461bcd60e51b81526004016106799190611ca4565b509192915050565b80356001600160a01b03811681146104ff57600080fd5b6000602082840312156119ec578081fd5b610d04826119c4565b60008060408385031215611a07578081fd5b611a10836119c4565b9150611a1e602084016119c4565b90509250929050565b600080600060608486031215611a3b578081fd5b611a44846119c4565b9250611a52602085016119c4565b9150604084013590509250925092565b60008060408385031215611a74578182fd5b611a7d836119c4565b946020939093013593505050565b60008060008060008060c08789031215611aa3578182fd5b611aac876119c4565b95506020870135945060408701359350606087013560ff81168114611acf578283fd5b9598949750929560808101359460a0909101359350915050565b600060208284031215611afa578081fd5b5035919050565b60008060408385031215611b13578182fd5b82359150611a1e602084016119c4565b600080600060608486031215611b37578283fd5b83359250611b47602085016119c4565b9150611b55604085016119c4565b90509250925092565b600060208284031215611b6f578081fd5b81356001600160e01b031981168114610d04578182fd5b61190160f01b81526002810192909252602282015260420190565b60007f416363657373436f6e74726f6c3a206163636f756e742000000000000000000082528351611bd981601785016020880161220c565b7001034b99036b4b9b9b4b733903937b6329607d1b6017918401918201528351611c0a81602884016020880161220c565b01602801949350505050565b6001600160a01b0391909116815260200190565b901515815260200190565b90815260200190565b9384526001600160a01b039290921660208401526040830152606082015260800190565b938452602084019290925260408301526001600160a01b0316606082015260800190565b93845260ff9290921660208401526040830152606082015260800190565b6000602082528251806020840152611cc381604085016020870161220c565b601f01601f19169190910160400192915050565b60208082526021908201527f6765745072696f72566f7465733a206e6f74207965742064657465726d696e656040820152601960fa1b606082015260800190565b6020808252818101527f537472696e67733a20686578206c656e67746820696e73756666696369656e74604082015260600190565b60208082526023908201527f45524332303a207472616e7366657220746f20746865207a65726f206164647260408201526265737360e81b606082015260800190565b60208082526022908201527f45524332303a206275726e20616d6f756e7420657863656564732062616c616e604082015261636560f01b606082015260800190565b60208082526022908201527f45524332303a20617070726f766520746f20746865207a65726f206164647265604082015261737360f01b606082015260800190565b6020808252818101527f64656c656761746542795369673a20696e76616c6964207369676e6174757265604082015260600190565b60208082526026908201527f45524332303a207472616e7366657220616d6f756e7420657863656564732062604082015265616c616e636560d01b606082015260800190565b6020808252818101527f64656c656761746542795369673a207369676e61747572652065787069726564604082015260600190565b60208082526028908201527f45524332303a207472616e7366657220616d6f756e74206578636565647320616040820152676c6c6f77616e636560c01b606082015260800190565b6020808252601590820152746d7573742062652061206e6577206164647265737360581b604082015260600190565b60208082526024908201527f45524332303a206275726e20616d6f756e74206578636565647320616c6c6f77604082015263616e636560e01b606082015260800190565b6020808252601c908201527f64656c656761746542795369673a20696e76616c6964206e6f6e636500000000604082015260600190565b60208082526021908201527f45524332303a206275726e2066726f6d20746865207a65726f206164647265736040820152607360f81b606082015260800190565b60208082526025908201527f45524332303a207472616e736665722066726f6d20746865207a65726f206164604082015264647265737360d81b606082015260800190565b6020808252601c908201527f6d616b652061206368616e67652c20626520746865206368616e676500000000604082015260600190565b60208082526024908201527f45524332303a20617070726f76652066726f6d20746865207a65726f206164646040820152637265737360e01b606082015260800190565b60208082526025908201527f45524332303a2064656372656173656420616c6c6f77616e63652062656c6f77604082015264207a65726f60d81b606082015260800190565b6020808252602f908201527f416363657373436f6e74726f6c3a2063616e206f6e6c792072656e6f756e636560408201526e103937b632b9903337b91039b2b63360891b606082015260800190565b6020808252601f908201527f45524332303a206d696e7420746f20746865207a65726f206164647265737300604082015260600190565b918252602082015260400190565b60ff91909116815260200190565b600082198211156121b1576121b16122a5565b500190565b6000826121d157634e487b7160e01b81526012600452602481fd5b500490565b60008160001904831182151516156121f0576121f06122a5565b500290565b600082821015612207576122076122a5565b500390565b60005b8381101561222757818101518382015260200161220f565b838111156108b15750506000910152565b600081612247576122476122a5565b506000190190565b60028104600182168061226357607f821691505b6020821081141561228457634e487b7160e01b600052602260045260246000fd5b50919050565b600060001982141561229e5761229e6122a5565b5060010190565b634e487b7160e01b600052601160045260246000fdfea26469706673582212209282fd2e0f5c37b77d9a7c8df5729a3d7947eb833ca5c028ddf92cfc98d5ed6064736f6c63430008000033",
    "sourcePath": "/Users/Uni/Documents/GitHub/soulswap/soulswap-farms/flats/SoulPower_flat.sol",
    "compiler": {
        "name": "solc",
        "version": "0.8.0+commit.c7dfd78e"
    },
    "functionHashes": {
        "DEFAULT_ADMIN_ROLE()": "a217fddf",
        "DELEGATION_TYPEHASH()": "e7a324dc",
        "DOMAIN_TYPEHASH()": "20606b70",
        "admin()": "f851a440",
        "allowance(address,address)": "dd62ed3e",
        "anunnaki()": "155dfb50",
        "approve(address,uint256)": "095ea7b3",
        "balanceOf(address)": "70a08231",
        "burn(uint256)": "42966c68",
        "burnFrom(address,uint256)": "79cc6790",
        "checkpoints(address,uint256)": "0cdfebfa",
        "decimals()": "313ce567",
        "decreaseAllowance(address,uint256)": "a457c2d7",
        "delegate(address)": "5c19a95c",
        "delegateBySig(address,uint256,uint256,uint8,bytes32,bytes32)": "c3cda520",
        "delegates(address)": "587cde1e",
        "getCurrentVotes(address)": "b4b5ea57",
        "getPriorVotes(address,uint256)": "782d6fe1",
        "getRoleAdmin(bytes32)": "248a9ca3",
        "grantRole(bytes32,address)": "2f2ff15d",
        "hasDivineRole(bytes32)": "dbaef9b0",
        "hasRole(bytes32,address)": "91d14854",
        "increaseAllowance(address,uint256)": "39509351",
        "mint(address,uint256)": "40c10f19",
        "name()": "06fdde03",
        "newAdmin(address)": "a6ba31c1",
        "nonces(address)": "7ecebe00",
        "numCheckpoints(address)": "6fcfff45",
        "renounceRole(bytes32,address)": "36568abe",
        "rethroneRitual(bytes32,address,address)": "743d507c",
        "revokeRole(bytes32,address)": "d547741f",
        "supportsInterface(bytes4)": "01ffc9a7",
        "symbol()": "95d89b41",
        "thoth()": "a6ed77ee",
        "totalSupply()": "18160ddd",
        "transfer(address,uint256)": "a9059cbb",
        "transferFrom(address,address,uint256)": "23b872dd"
    },
    "gasEstimates": {
        "creation": {
            "codeDepositCost": "1789000",
            "executionCost": "infinite",
            "totalCost": "infinite"
        },
        "external": {
            "DEFAULT_ADMIN_ROLE()": "339",
            "DELEGATION_TYPEHASH()": "338",
            "DOMAIN_TYPEHASH()": "318",
            "admin()": "1202",
            "allowance(address,address)": "infinite",
            "anunnaki()": "1074",
            "approve(address,uint256)": "22675",
            "balanceOf(address)": "1319",
            "burn(uint256)": "infinite",
            "burnFrom(address,uint256)": "infinite",
            "checkpoints(address,uint256)": "2291",
            "decimals()": "308",
            "decreaseAllowance(address,uint256)": "infinite",
            "delegate(address)": "infinite",
            "delegateBySig(address,uint256,uint256,uint8,bytes32,bytes32)": "infinite",
            "delegates(address)": "1392",
            "getCurrentVotes(address)": "infinite",
            "getPriorVotes(address,uint256)": "infinite",
            "getRoleAdmin(bytes32)": "1311",
            "grantRole(bytes32,address)": "infinite",
            "hasDivineRole(bytes32)": "1391",
            "hasRole(bytes32,address)": "1453",
            "increaseAllowance(address,uint256)": "infinite",
            "mint(address,uint256)": "infinite",
            "name()": "infinite",
            "newAdmin(address)": "infinite",
            "nonces(address)": "1297",
            "numCheckpoints(address)": "1385",
            "renounceRole(bytes32,address)": "infinite",
            "rethroneRitual(bytes32,address,address)": "infinite",
            "revokeRole(bytes32,address)": "infinite",
            "supportsInterface(bytes4)": "543",
            "symbol()": "infinite",
            "thoth()": "1095",
            "totalSupply()": "1096",
            "transfer(address,uint256)": "infinite",
            "transferFrom(address,address,uint256)": "infinite"
        },
        "internal": {
            "_delegate(address,address)": "infinite",
            "_divinationRitual(bytes32,bytes32,address)": "infinite",
            "_moveDelegates(address,address,uint256)": "infinite",
            "_writeCheckpoint(address,uint256,uint256,uint256)": "infinite",
            "getChainId()": "14",
            "safe256(uint256,string memory)": "infinite"
        }
    }
}