{
  "contractName": "Greeter",
  "abi": [
    {
      "inputs": [
        {
          "internalType": "string",
          "name": "_greeting",
          "type": "string"
        }
      ],
      "stateMutability": "nonpayable",
      "type": "constructor"
    },
    {
      "inputs": [],
      "name": "greet",
      "outputs": [
        {
          "internalType": "string",
          "name": "",
          "type": "string"
        }
      ],
      "stateMutability": "view",
      "type": "function"
    },
    {
      "inputs": [
        {
          "internalType": "string",
          "name": "_greeting",
          "type": "string"
        }
      ],
      "name": "setGreeting",
      "outputs": [],
      "stateMutability": "nonpayable",
      "type": "function"
    }
  ],
  "bytecode": "0x60806040523480156200001157600080fd5b5060405162000bde38038062000bde833981810160405281019062000037919062000278565b6200006760405180606001604052806022815260200162000bbc60229139826200008760201b620001ce1760201c565b80600090805190602001906200007f92919062000156565b505062000497565b620001298282604051602401620000a0929190620002fe565b6040516020818303038152906040527f4b5c4277000000000000000000000000000000000000000000000000000000007bffffffffffffffffffffffffffffffffffffffffffffffffffffffff19166020820180517bffffffffffffffffffffffffffffffffffffffffffffffffffffffff83818316178352505050506200012d60201b60201c565b5050565b60008151905060006a636f6e736f6c652e6c6f679050602083016000808483855afa5050505050565b8280546200016490620003f2565b90600052602060002090601f016020900481019282620001885760008555620001d4565b82601f10620001a357805160ff1916838001178555620001d4565b82800160010185558215620001d4579182015b82811115620001d3578251825591602001919060010190620001b6565b5b509050620001e39190620001e7565b5090565b5b8082111562000202576000816000905550600101620001e8565b5090565b60006200021d62000217846200036d565b62000339565b9050828152602081018484840111156200023657600080fd5b62000243848285620003bc565b509392505050565b600082601f8301126200025d57600080fd5b81516200026f84826020860162000206565b91505092915050565b6000602082840312156200028b57600080fd5b600082015167ffffffffffffffff811115620002a657600080fd5b620002b4848285016200024b565b91505092915050565b6000620002ca82620003a0565b620002d68185620003ab565b9350620002e8818560208601620003bc565b620002f38162000486565b840191505092915050565b600060408201905081810360008301526200031a8185620002bd565b90508181036020830152620003308184620002bd565b90509392505050565b6000604051905081810181811067ffffffffffffffff8211171562000363576200036262000457565b5b8060405250919050565b600067ffffffffffffffff8211156200038b576200038a62000457565b5b601f19601f8301169050602081019050919050565b600081519050919050565b600082825260208201905092915050565b60005b83811015620003dc578082015181840152602081019050620003bf565b83811115620003ec576000848401525b50505050565b600060028204905060018216806200040b57607f821691505b6020821081141562000422576200042162000428565b5b50919050565b7f4e487b7100000000000000000000000000000000000000000000000000000000600052602260045260246000fd5b7f4e487b7100000000000000000000000000000000000000000000000000000000600052604160045260246000fd5b6000601f19601f8301169050919050565b61071580620004a76000396000f3fe608060405234801561001057600080fd5b50600436106100365760003560e01c8063a41368621461003b578063cfae321714610057575b600080fd5b6100556004803603810190610050919061043d565b610075565b005b61005f61013c565b60405161006c91906104b7565b60405180910390f35b6101226040518060600160405280602381526020016106bd602391396000805461009e9061061b565b80601f01602080910402602001604051908101604052809291908181526020018280546100ca9061061b565b80156101175780601f106100ec57610100808354040283529160200191610117565b820191906000526020600020905b8154815290600101906020018083116100fa57829003601f168201915b50505050508361026a565b8060009080519060200190610138929190610332565b5050565b60606000805461014b9061061b565b80601f01602080910402602001604051908101604052809291908181526020018280546101779061061b565b80156101c45780601f10610199576101008083540402835291602001916101c4565b820191906000526020600020905b8154815290600101906020018083116101a757829003601f168201915b5050505050905090565b61026682826040516024016101e49291906104d9565b6040516020818303038152906040527f4b5c4277000000000000000000000000000000000000000000000000000000007bffffffffffffffffffffffffffffffffffffffffffffffffffffffff19166020820180517bffffffffffffffffffffffffffffffffffffffffffffffffffffffff8381831617835250505050610309565b5050565b61030483838360405160240161028293929190610510565b6040516020818303038152906040527f2ced7cef000000000000000000000000000000000000000000000000000000007bffffffffffffffffffffffffffffffffffffffffffffffffffffffff19166020820180517bffffffffffffffffffffffffffffffffffffffffffffffffffffffff8381831617835250505050610309565b505050565b60008151905060006a636f6e736f6c652e6c6f679050602083016000808483855afa5050505050565b82805461033e9061061b565b90600052602060002090601f01602090048101928261036057600085556103a7565b82601f1061037957805160ff19168380011785556103a7565b828001600101855582156103a7579182015b828111156103a657825182559160200191906001019061038b565b5b5090506103b491906103b8565b5090565b5b808211156103d15760008160009055506001016103b9565b5090565b60006103e86103e38461058d565b61055c565b90508281526020810184848401111561040057600080fd5b61040b8482856105d9565b509392505050565b600082601f83011261042457600080fd5b81356104348482602086016103d5565b91505092915050565b60006020828403121561044f57600080fd5b600082013567ffffffffffffffff81111561046957600080fd5b61047584828501610413565b91505092915050565b6000610489826105bd565b61049381856105c8565b93506104a38185602086016105e8565b6104ac816106ab565b840191505092915050565b600060208201905081810360008301526104d1818461047e565b905092915050565b600060408201905081810360008301526104f3818561047e565b90508181036020830152610507818461047e565b90509392505050565b6000606082019050818103600083015261052a818661047e565b9050818103602083015261053e818561047e565b90508181036040830152610552818461047e565b9050949350505050565b6000604051905081810181811067ffffffffffffffff821117156105835761058261067c565b5b8060405250919050565b600067ffffffffffffffff8211156105a8576105a761067c565b5b601f19601f8301169050602081019050919050565b600081519050919050565b600082825260208201905092915050565b82818337600083830152505050565b60005b838110156106065780820151818401526020810190506105eb565b83811115610615576000848401525b50505050565b6000600282049050600182168061063357607f821691505b602082108114156106475761064661064d565b5b50919050565b7f4e487b7100000000000000000000000000000000000000000000000000000000600052602260045260246000fd5b7f4e487b7100000000000000000000000000000000000000000000000000000000600052604160045260246000fd5b6000601f19601f830116905091905056fe4368616e67696e67206772656574696e672066726f6d202725732720746f2027257327a2646970667358221220c270cc571e02003a558af307998584e79801747b7a3450e3e80a1af58c05bb3864736f6c634300080000334465706c6f79696e67206120477265657465722077697468206772656574696e673a",
  "immutableReferences": {},
  "source": "//SPDX-License-Identifier: Unlicense\npragma solidity ^0.8.0;\n\nimport \"hardhat/console.sol\";\n\n\ncontract Greeter {\n  string greeting;\n\n  constructor(string memory _greeting) {\n    console.log(\"Deploying a Greeter with greeting:\", _greeting);\n    greeting = _greeting;\n  }\n\n  function greet() public view returns (string memory) {\n    return greeting;\n  }\n\n  function setGreeting(string memory _greeting) public {\n    console.log(\"Changing greeting from '%s' to '%s'\", greeting, _greeting);\n    greeting = _greeting;\n  }\n}\n",
  "sourcePath": "/Users/unico/Documents/GitHub/soulswap/soulswap-farms/contracts/Greeter.sol",
  "compiler": {
    "name": "solc",
    "version": "0.8.0+commit.c7dfd78e.Emscripten.clang"
  },
  "schemaVersion": "3.4.1",
  "updatedAt": "2021-09-11T23:51:48.691Z",
  "devdoc": {
    "kind": "dev",
    "methods": {},
    "version": 1
  },
  "userdoc": {
    "kind": "user",
    "methods": {},
    "version": 1
  }
}