{
  "contractName": "IsisProtocol",
  "abi": [
    {
      "anonymous": false,
      "inputs": [
        {
          "indexed": true,
          "internalType": "address",
          "name": "previousOwner",
          "type": "address"
        },
        {
          "indexed": true,
          "internalType": "address",
          "name": "newOwner",
          "type": "address"
        }
      ],
      "name": "OwnershipTransferred",
      "type": "event"
    },
    {
      "inputs": [],
      "name": "ERC20Token",
      "outputs": [
        {
          "internalType": "address",
          "name": "",
          "type": "address"
        }
      ],
      "stateMutability": "view",
      "type": "function"
    },
    {
      "inputs": [],
      "name": "owner",
      "outputs": [
        {
          "internalType": "address",
          "name": "",
          "type": "address"
        }
      ],
      "stateMutability": "view",
      "type": "function"
    },
    {
      "inputs": [],
      "name": "renounceOwnership",
      "outputs": [],
      "stateMutability": "nonpayable",
      "type": "function"
    },
    {
      "inputs": [],
      "name": "summonerPool",
      "outputs": [
        {
          "internalType": "address",
          "name": "",
          "type": "address"
        }
      ],
      "stateMutability": "view",
      "type": "function"
    },
    {
      "inputs": [
        {
          "internalType": "enum IsisProtocol.Functions",
          "name": "",
          "type": "uint8"
        }
      ],
      "name": "timelock",
      "outputs": [
        {
          "internalType": "uint256",
          "name": "",
          "type": "uint256"
        }
      ],
      "stateMutability": "view",
      "type": "function"
    },
    {
      "inputs": [
        {
          "internalType": "address",
          "name": "newOwner",
          "type": "address"
        }
      ],
      "name": "transferOwnership",
      "outputs": [],
      "stateMutability": "nonpayable",
      "type": "function"
    },
    {
      "inputs": [
        {
          "internalType": "enum IsisProtocol.Functions",
          "name": "_fn",
          "type": "uint8"
        }
      ],
      "name": "unlockFunction",
      "outputs": [],
      "stateMutability": "nonpayable",
      "type": "function"
    },
    {
      "inputs": [
        {
          "internalType": "enum IsisProtocol.Functions",
          "name": "_fn",
          "type": "uint8"
        }
      ],
      "name": "lockFunction",
      "outputs": [],
      "stateMutability": "nonpayable",
      "type": "function"
    },
    {
      "inputs": [
        {
          "internalType": "address",
          "name": "_pool",
          "type": "address"
        }
      ],
      "name": "setSummonerPool",
      "outputs": [],
      "stateMutability": "nonpayable",
      "type": "function"
    }
  ],
  "bytecode": "0x608060405234801561001057600080fd5b5061002d61002261003260201b60201c565b61003a60201b60201c565b6100fe565b600033905090565b60008060009054906101000a900473ffffffffffffffffffffffffffffffffffffffff169050816000806101000a81548173ffffffffffffffffffffffffffffffffffffffff021916908373ffffffffffffffffffffffffffffffffffffffff1602179055508173ffffffffffffffffffffffffffffffffffffffff168173ffffffffffffffffffffffffffffffffffffffff167f8be0079c531659141344cd1fd0a4f28419497f9722a3daafe3b4186f6b6457e060405160405180910390a35050565b610b398061010d6000396000f3fe608060405234801561001057600080fd5b50600436106100935760003560e01c80638da5cb5b116100665780638da5cb5b146100fa578063aa53099d14610118578063b4fa3b9814610134578063c17bae2a14610150578063f2fde38b1461018057610093565b8063017de887146100985780636992279d146100b4578063715018a6146100d25780637a80760e146100dc575b600080fd5b6100b260048036038101906100ad9190610819565b61019c565b005b6100bc61035a565b6040516100c99190610855565b60405180910390f35b6100da610380565b005b6100e4610408565b6040516100f19190610855565b60405180910390f35b61010261042e565b60405161010f9190610855565b60405180910390f35b610132600480360381019061012d9190610895565b610457565b005b61014e60048036038101906101499190610895565b61051f565b005b61016a60048036038101906101659190610895565b6105db565b60405161017791906108db565b60405180910390f35b61019a60048036038101906101959190610819565b6105f3565b005b6101a46106ea565b73ffffffffffffffffffffffffffffffffffffffff166101c261042e565b73ffffffffffffffffffffffffffffffffffffffff1614610218576040517f08c379a000000000000000000000000000000000000000000000000000000000815260040161020f90610953565b60405180910390fd5b600160006003600083600181111561023357610232610973565b5b600181111561024557610244610973565b5b815260200190815260200160002054141580156102995750426003600083600181111561027557610274610973565b5b600181111561028757610286610973565b5b81526020019081526020016000205411155b6102d8576040517f08c379a00000000000000000000000000000000000000000000000000000000081526004016102cf906109ee565b60405180910390fd5b81600260006101000a81548173ffffffffffffffffffffffffffffffffffffffff021916908373ffffffffffffffffffffffffffffffffffffffff16021790555060006003600060018081111561033257610331610973565b5b600181111561034457610343610973565b5b8152602001908152602001600020819055505050565b600260009054906101000a900473ffffffffffffffffffffffffffffffffffffffff1681565b6103886106ea565b73ffffffffffffffffffffffffffffffffffffffff166103a661042e565b73ffffffffffffffffffffffffffffffffffffffff16146103fc576040517f08c379a00000000000000000000000000000000000000000000000000000000081526004016103f390610953565b60405180910390fd5b61040660006106f2565b565b600160009054906101000a900473ffffffffffffffffffffffffffffffffffffffff1681565b60008060009054906101000a900473ffffffffffffffffffffffffffffffffffffffff16905090565b61045f6106ea565b73ffffffffffffffffffffffffffffffffffffffff1661047d61042e565b73ffffffffffffffffffffffffffffffffffffffff16146104d3576040517f08c379a00000000000000000000000000000000000000000000000000000000081526004016104ca90610953565b60405180910390fd5b610e10426104e19190610a3d565b600360008360018111156104f8576104f7610973565b5b600181111561050a57610509610973565b5b81526020019081526020016000208190555050565b6105276106ea565b73ffffffffffffffffffffffffffffffffffffffff1661054561042e565b73ffffffffffffffffffffffffffffffffffffffff161461059b576040517f08c379a000000000000000000000000000000000000000000000000000000000815260040161059290610953565b60405180910390fd5b6000600360008360018111156105b4576105b3610973565b5b60018111156105c6576105c5610973565b5b81526020019081526020016000208190555050565b60036020528060005260406000206000915090505481565b6105fb6106ea565b73ffffffffffffffffffffffffffffffffffffffff1661061961042e565b73ffffffffffffffffffffffffffffffffffffffff161461066f576040517f08c379a000000000000000000000000000000000000000000000000000000000815260040161066690610953565b60405180910390fd5b600073ffffffffffffffffffffffffffffffffffffffff168173ffffffffffffffffffffffffffffffffffffffff16036106de576040517f08c379a00000000000000000000000000000000000000000000000000000000081526004016106d590610ae3565b60405180910390fd5b6106e7816106f2565b50565b600033905090565b60008060009054906101000a900473ffffffffffffffffffffffffffffffffffffffff169050816000806101000a81548173ffffffffffffffffffffffffffffffffffffffff021916908373ffffffffffffffffffffffffffffffffffffffff1602179055508173ffffffffffffffffffffffffffffffffffffffff168173ffffffffffffffffffffffffffffffffffffffff167f8be0079c531659141344cd1fd0a4f28419497f9722a3daafe3b4186f6b6457e060405160405180910390a35050565b600080fd5b600073ffffffffffffffffffffffffffffffffffffffff82169050919050565b60006107e6826107bb565b9050919050565b6107f6816107db565b811461080157600080fd5b50565b600081359050610813816107ed565b92915050565b60006020828403121561082f5761082e6107b6565b5b600061083d84828501610804565b91505092915050565b61084f816107db565b82525050565b600060208201905061086a6000830184610846565b92915050565b6002811061087d57600080fd5b50565b60008135905061088f81610870565b92915050565b6000602082840312156108ab576108aa6107b6565b5b60006108b984828501610880565b91505092915050565b6000819050919050565b6108d5816108c2565b82525050565b60006020820190506108f060008301846108cc565b92915050565b600082825260208201905092915050565b7f4f776e61626c653a2063616c6c6572206973206e6f7420746865206f776e6572600082015250565b600061093d6020836108f6565b915061094882610907565b602082019050919050565b6000602082019050818103600083015261096c81610930565b9050919050565b7f4e487b7100000000000000000000000000000000000000000000000000000000600052602160045260246000fd5b7f46756e6374696f6e2069732074696d656c6f636b656400000000000000000000600082015250565b60006109d86016836108f6565b91506109e3826109a2565b602082019050919050565b60006020820190508181036000830152610a07816109cb565b9050919050565b7f4e487b7100000000000000000000000000000000000000000000000000000000600052601160045260246000fd5b6000610a48826108c2565b9150610a53836108c2565b9250828201905080821115610a6b57610a6a610a0e565b5b92915050565b7f4f776e61626c653a206e6577206f776e657220697320746865207a65726f206160008201527f6464726573730000000000000000000000000000000000000000000000000000602082015250565b6000610acd6026836108f6565b9150610ad882610a71565b604082019050919050565b60006020820190508181036000830152610afc81610ac0565b905091905056fea2646970667358221220b39a633b2babcfd62693f3ca412dc21f463ff4a6d1d354291672db9914e36fa764736f6c63430008110033",
  "immutableReferences": {},
  "source": "// SPDX-License-Identifier: MIT\npragma solidity >=0.8.0;\n\nimport \"@openzeppelin/contracts/access/Ownable.sol\";\n\ncontract IsisProtocol is Ownable {\n\n   address public ERC20Token;\n   address public summonerPool;\n   \n   enum Functions { ERC, POOL }    \n   uint256 private constant _TIMELOCK = 3600;     // 6H\n   mapping(Functions => uint256) public timelock;\n\n  // ensures: the lock delay has passed.\n   modifier notLocked(Functions _fn) {\n     require(timelock[_fn] != 0 && timelock[_fn] <= block.timestamp, \"Function is timelocked\");\n     _;\n   }\n  \n  // unlock: functions\n  function unlockFunction(Functions _fn) public onlyOwner {\n    timelock[_fn] = block.timestamp + _TIMELOCK;\n  }\n  \n  // lock: functions\n  function lockFunction(Functions _fn) public onlyOwner {\n    timelock[_fn] = 0;\n  }\n    \n  // create: Pool\n  function setSummonerPool(address _pool) public onlyOwner notLocked(Functions.POOL) {\n      summonerPool = _pool;\n      timelock[Functions.POOL] = 0;\n  }\n    \n}",
  "sourcePath": "/Users/buns/Documents/GitHub/SoulSwapFinance/soulswap-farms/contracts/majestic/DivineIsis.sol",
  "compiler": {
    "name": "solc",
    "version": "0.8.17+commit.8df45f5f.Emscripten.clang"
  },
  "schemaVersion": "3.4.1",
  "updatedAt": "2022-10-01T21:51:29.827Z",
  "devdoc": {
    "kind": "dev",
    "methods": {
      "owner()": {
        "details": "Returns the address of the current owner."
      },
      "renounceOwnership()": {
        "details": "Leaves the contract without owner. It will not be possible to call `onlyOwner` functions anymore. Can only be called by the current owner. NOTE: Renouncing ownership will leave the contract without an owner, thereby removing any functionality that is only available to the owner."
      },
      "transferOwnership(address)": {
        "details": "Transfers ownership of the contract to a new account (`newOwner`). Can only be called by the current owner."
      }
    },
    "version": 1
  },
  "userdoc": {
    "kind": "user",
    "methods": {},
    "version": 1
  }
}