{
  "contractName": "IsisProtocol",
  "abi": [
    {
      "anonymous": false,
      "inputs": [
        {
          "indexed": true,
          "internalType": "address",
          "name": "previousOwner",
          "type": "address"
        },
        {
          "indexed": true,
          "internalType": "address",
          "name": "newOwner",
          "type": "address"
        }
      ],
      "name": "OwnershipTransferred",
      "type": "event"
    },
    {
      "inputs": [],
      "name": "ERC20Token",
      "outputs": [
        {
          "internalType": "address",
          "name": "",
          "type": "address"
        }
      ],
      "stateMutability": "view",
      "type": "function"
    },
    {
      "inputs": [],
      "name": "owner",
      "outputs": [
        {
          "internalType": "address",
          "name": "",
          "type": "address"
        }
      ],
      "stateMutability": "view",
      "type": "function"
    },
    {
      "inputs": [],
      "name": "renounceOwnership",
      "outputs": [],
      "stateMutability": "nonpayable",
      "type": "function"
    },
    {
      "inputs": [],
      "name": "summonerPool",
      "outputs": [
        {
          "internalType": "address",
          "name": "",
          "type": "address"
        }
      ],
      "stateMutability": "view",
      "type": "function"
    },
    {
      "inputs": [
        {
          "internalType": "enum IsisProtocol.Functions",
          "name": "",
          "type": "uint8"
        }
      ],
      "name": "timelock",
      "outputs": [
        {
          "internalType": "uint256",
          "name": "",
          "type": "uint256"
        }
      ],
      "stateMutability": "view",
      "type": "function"
    },
    {
      "inputs": [
        {
          "internalType": "address",
          "name": "newOwner",
          "type": "address"
        }
      ],
      "name": "transferOwnership",
      "outputs": [],
      "stateMutability": "nonpayable",
      "type": "function"
    },
    {
      "inputs": [
        {
          "internalType": "enum IsisProtocol.Functions",
          "name": "_fn",
          "type": "uint8"
        }
      ],
      "name": "unlockFunction",
      "outputs": [],
      "stateMutability": "nonpayable",
      "type": "function"
    },
    {
      "inputs": [
        {
          "internalType": "enum IsisProtocol.Functions",
          "name": "_fn",
          "type": "uint8"
        }
      ],
      "name": "lockFunction",
      "outputs": [],
      "stateMutability": "nonpayable",
      "type": "function"
    },
    {
      "inputs": [
        {
          "internalType": "address",
          "name": "_pool",
          "type": "address"
        }
      ],
      "name": "setSummonerPool",
      "outputs": [],
      "stateMutability": "nonpayable",
      "type": "function"
    }
  ],
  "bytecode": "0x608060405234801561001057600080fd5b5061002d61002261003260201b60201c565b61003a60201b60201c565b6100fe565b600033905090565b60008060009054906101000a900473ffffffffffffffffffffffffffffffffffffffff169050816000806101000a81548173ffffffffffffffffffffffffffffffffffffffff021916908373ffffffffffffffffffffffffffffffffffffffff1602179055508173ffffffffffffffffffffffffffffffffffffffff168173ffffffffffffffffffffffffffffffffffffffff167f8be0079c531659141344cd1fd0a4f28419497f9722a3daafe3b4186f6b6457e060405160405180910390a35050565b610c788061010d6000396000f3fe608060405234801561001057600080fd5b50600436106100935760003560e01c80638da5cb5b116100665780638da5cb5b146100fa578063aa53099d14610118578063b4fa3b9814610134578063c17bae2a14610150578063f2fde38b1461018057610093565b8063017de887146100985780636992279d146100b4578063715018a6146100d25780637a80760e146100dc575b600080fd5b6100b260048036038101906100ad919061095d565b61019c565b005b6100bc61043e565b6040516100c99190610ab3565b60405180910390f35b6100da610464565b005b6100e46104ec565b6040516100f19190610ab3565b60405180910390f35b610102610512565b60405161010f9190610ab3565b60405180910390f35b610132600480360381019061012d9190610986565b61053b565b005b61014e60048036038101906101499190610986565b61064f565b005b61016a60048036038101906101659190610986565b610757565b6040516101779190610b2e565b60405180910390f35b61019a6004803603810190610195919061095d565b61076f565b005b6101a4610867565b73ffffffffffffffffffffffffffffffffffffffff166101c2610512565b73ffffffffffffffffffffffffffffffffffffffff1614610218576040517f08c379a000000000000000000000000000000000000000000000000000000000815260040161020f90610b0e565b60405180910390fd5b6001600060036000836001811115610259577f4e487b7100000000000000000000000000000000000000000000000000000000600052602160045260246000fd5b6001811115610291577f4e487b7100000000000000000000000000000000000000000000000000000000600052602160045260246000fd5b81526020019081526020016000205414158015610331575042600360008360018111156102e7577f4e487b7100000000000000000000000000000000000000000000000000000000600052602160045260246000fd5b600181111561031f577f4e487b7100000000000000000000000000000000000000000000000000000000600052602160045260246000fd5b81526020019081526020016000205411155b610370576040517f08c379a000000000000000000000000000000000000000000000000000000000815260040161036790610ace565b60405180910390fd5b81600260006101000a81548173ffffffffffffffffffffffffffffffffffffffff021916908373ffffffffffffffffffffffffffffffffffffffff1602179055506000600360006001808111156103f0577f4e487b7100000000000000000000000000000000000000000000000000000000600052602160045260246000fd5b6001811115610428577f4e487b7100000000000000000000000000000000000000000000000000000000600052602160045260246000fd5b8152602001908152602001600020819055505050565b600260009054906101000a900473ffffffffffffffffffffffffffffffffffffffff1681565b61046c610867565b73ffffffffffffffffffffffffffffffffffffffff1661048a610512565b73ffffffffffffffffffffffffffffffffffffffff16146104e0576040517f08c379a00000000000000000000000000000000000000000000000000000000081526004016104d790610b0e565b60405180910390fd5b6104ea600061086f565b565b600160009054906101000a900473ffffffffffffffffffffffffffffffffffffffff1681565b60008060009054906101000a900473ffffffffffffffffffffffffffffffffffffffff16905090565b610543610867565b73ffffffffffffffffffffffffffffffffffffffff16610561610512565b73ffffffffffffffffffffffffffffffffffffffff16146105b7576040517f08c379a00000000000000000000000000000000000000000000000000000000081526004016105ae90610b0e565b60405180910390fd5b610e10426105c59190610b5a565b60036000836001811115610602577f4e487b7100000000000000000000000000000000000000000000000000000000600052602160045260246000fd5b600181111561063a577f4e487b7100000000000000000000000000000000000000000000000000000000600052602160045260246000fd5b81526020019081526020016000208190555050565b610657610867565b73ffffffffffffffffffffffffffffffffffffffff16610675610512565b73ffffffffffffffffffffffffffffffffffffffff16146106cb576040517f08c379a00000000000000000000000000000000000000000000000000000000081526004016106c290610b0e565b60405180910390fd5b60006003600083600181111561070a577f4e487b7100000000000000000000000000000000000000000000000000000000600052602160045260246000fd5b6001811115610742577f4e487b7100000000000000000000000000000000000000000000000000000000600052602160045260246000fd5b81526020019081526020016000208190555050565b60036020528060005260406000206000915090505481565b610777610867565b73ffffffffffffffffffffffffffffffffffffffff16610795610512565b73ffffffffffffffffffffffffffffffffffffffff16146107eb576040517f08c379a00000000000000000000000000000000000000000000000000000000081526004016107e290610b0e565b60405180910390fd5b600073ffffffffffffffffffffffffffffffffffffffff168173ffffffffffffffffffffffffffffffffffffffff16141561085b576040517f08c379a000000000000000000000000000000000000000000000000000000000815260040161085290610aee565b60405180910390fd5b6108648161086f565b50565b600033905090565b60008060009054906101000a900473ffffffffffffffffffffffffffffffffffffffff169050816000806101000a81548173ffffffffffffffffffffffffffffffffffffffff021916908373ffffffffffffffffffffffffffffffffffffffff1602179055508173ffffffffffffffffffffffffffffffffffffffff168173ffffffffffffffffffffffffffffffffffffffff167f8be0079c531659141344cd1fd0a4f28419497f9722a3daafe3b4186f6b6457e060405160405180910390a35050565b60008135905061094281610c1b565b92915050565b60008135905061095781610c32565b92915050565b60006020828403121561096f57600080fd5b600061097d84828501610933565b91505092915050565b60006020828403121561099857600080fd5b60006109a684828501610948565b91505092915050565b6109b881610bb0565b82525050565b60006109cb601683610b49565b91507f46756e6374696f6e2069732074696d656c6f636b6564000000000000000000006000830152602082019050919050565b6000610a0b602683610b49565b91507f4f776e61626c653a206e6577206f776e657220697320746865207a65726f206160008301527f64647265737300000000000000000000000000000000000000000000000000006020830152604082019050919050565b6000610a71602083610b49565b91507f4f776e61626c653a2063616c6c6572206973206e6f7420746865206f776e65726000830152602082019050919050565b610aad81610be2565b82525050565b6000602082019050610ac860008301846109af565b92915050565b60006020820190508181036000830152610ae7816109be565b9050919050565b60006020820190508181036000830152610b07816109fe565b9050919050565b60006020820190508181036000830152610b2781610a64565b9050919050565b6000602082019050610b436000830184610aa4565b92915050565b600082825260208201905092915050565b6000610b6582610be2565b9150610b7083610be2565b9250827fffffffffffffffffffffffffffffffffffffffffffffffffffffffffffffffff03821115610ba557610ba4610bec565b5b828201905092915050565b6000610bbb82610bc2565b9050919050565b600073ffffffffffffffffffffffffffffffffffffffff82169050919050565b6000819050919050565b7f4e487b7100000000000000000000000000000000000000000000000000000000600052601160045260246000fd5b610c2481610bb0565b8114610c2f57600080fd5b50565b60028110610c3f57600080fd5b5056fea2646970667358221220cf0399891d304a465c5a1d0717dd3d8f5771cd05680b99a407640aaea004737e64736f6c63430008000033",
  "immutableReferences": {},
  "source": "// SPDX-License-Identifier: MIT\npragma solidity ^0.8.0;\n\nimport \"@openzeppelin/contracts/access/Ownable.sol\";\n\ncontract IsisProtocol is Ownable {\n\n   address public ERC20Token;\n   address public summonerPool;\n   \n   enum Functions { ERC, POOL }    \n   uint256 private constant _TIMELOCK = 3600;     // 6H\n   mapping(Functions => uint256) public timelock;\n\n  // ensures: the lock delay has passed.\n   modifier notLocked(Functions _fn) {\n     require(timelock[_fn] != 0 && timelock[_fn] <= block.timestamp, \"Function is timelocked\");\n     _;\n   }\n  \n  // unlock: functions\n  function unlockFunction(Functions _fn) public onlyOwner {\n    timelock[_fn] = block.timestamp + _TIMELOCK;\n  }\n  \n  // lock: functions\n  function lockFunction(Functions _fn) public onlyOwner {\n    timelock[_fn] = 0;\n  }\n    \n  // create: Pool\n  function setSummonerPool(address _pool) public onlyOwner notLocked(Functions.POOL) {\n      summonerPool = _pool;\n      timelock[Functions.POOL] = 0;\n  }\n    \n}",
  "sourcePath": "/Users/buns/Documents/GitHub/SoulSwapFinance/soulswap-farms/contracts/majestic/DivineIsis.sol",
  "compiler": {
    "name": "solc",
    "version": "0.8.0+commit.c7dfd78e.Emscripten.clang"
  },
  "schemaVersion": "3.4.1",
  "updatedAt": "2022-09-18T14:11:59.322Z",
  "devdoc": {
    "kind": "dev",
    "methods": {
      "owner()": {
        "details": "Returns the address of the current owner."
      },
      "renounceOwnership()": {
        "details": "Leaves the contract without owner. It will not be possible to call `onlyOwner` functions anymore. Can only be called by the current owner. NOTE: Renouncing ownership will leave the contract without an owner, thereby removing any functionality that is only available to the owner."
      },
      "transferOwnership(address)": {
        "details": "Transfers ownership of the contract to a new account (`newOwner`). Can only be called by the current owner."
      }
    },
    "version": 1
  },
  "userdoc": {
    "kind": "user",
    "methods": {},
    "version": 1
  }
}