{
  "contractName": "MasterChef",
  "abi": [
    {
      "inputs": [
        {
          "internalType": "contract SoulToken",
          "name": "_soul",
          "type": "address"
        },
        {
          "internalType": "contract SeanceCircle",
          "name": "_seance",
          "type": "address"
        },
        {
          "internalType": "address",
          "name": "_team",
          "type": "address"
        },
        {
          "internalType": "address",
          "name": "_treasury",
          "type": "address"
        },
        {
          "internalType": "uint256",
          "name": "_startTime",
          "type": "uint256"
        }
      ],
      "stateMutability": "nonpayable",
      "type": "constructor"
    },
    {
      "anonymous": false,
      "inputs": [
        {
          "indexed": true,
          "internalType": "address",
          "name": "user",
          "type": "address"
        },
        {
          "indexed": true,
          "internalType": "uint256",
          "name": "pid",
          "type": "uint256"
        },
        {
          "indexed": false,
          "internalType": "uint256",
          "name": "amount",
          "type": "uint256"
        }
      ],
      "name": "Deposit",
      "type": "event"
    },
    {
      "anonymous": false,
      "inputs": [
        {
          "indexed": true,
          "internalType": "address",
          "name": "previousOwner",
          "type": "address"
        },
        {
          "indexed": true,
          "internalType": "address",
          "name": "newOwner",
          "type": "address"
        }
      ],
      "name": "OwnershipTransferred",
      "type": "event"
    },
    {
      "anonymous": false,
      "inputs": [
        {
          "indexed": true,
          "internalType": "address",
          "name": "user",
          "type": "address"
        },
        {
          "indexed": true,
          "internalType": "uint256",
          "name": "pid",
          "type": "uint256"
        },
        {
          "indexed": false,
          "internalType": "uint256",
          "name": "amount",
          "type": "uint256"
        }
      ],
      "name": "Withdraw",
      "type": "event"
    },
    {
      "inputs": [],
      "name": "BONUS_MULTIPLIER",
      "outputs": [
        {
          "internalType": "uint256",
          "name": "",
          "type": "uint256"
        }
      ],
      "stateMutability": "view",
      "type": "function",
      "constant": true
    },
    {
      "inputs": [],
      "name": "chains",
      "outputs": [
        {
          "internalType": "uint256",
          "name": "",
          "type": "uint256"
        }
      ],
      "stateMutability": "view",
      "type": "function",
      "constant": true
    },
    {
      "inputs": [],
      "name": "dailySoul",
      "outputs": [
        {
          "internalType": "uint256",
          "name": "",
          "type": "uint256"
        }
      ],
      "stateMutability": "view",
      "type": "function",
      "constant": true
    },
    {
      "inputs": [],
      "name": "migrator",
      "outputs": [
        {
          "internalType": "contract IMigratorChef",
          "name": "",
          "type": "address"
        }
      ],
      "stateMutability": "view",
      "type": "function",
      "constant": true
    },
    {
      "inputs": [],
      "name": "owner",
      "outputs": [
        {
          "internalType": "address",
          "name": "",
          "type": "address"
        }
      ],
      "stateMutability": "view",
      "type": "function",
      "constant": true
    },
    {
      "inputs": [
        {
          "internalType": "uint256",
          "name": "",
          "type": "uint256"
        }
      ],
      "name": "poolInfo",
      "outputs": [
        {
          "internalType": "contract IERC20",
          "name": "lpToken",
          "type": "address"
        },
        {
          "internalType": "uint256",
          "name": "allocPoint",
          "type": "uint256"
        },
        {
          "internalType": "uint256",
          "name": "lastRewardTime",
          "type": "uint256"
        },
        {
          "internalType": "uint256",
          "name": "accSoulPerShare",
          "type": "uint256"
        }
      ],
      "stateMutability": "view",
      "type": "function",
      "constant": true
    },
    {
      "inputs": [],
      "name": "renounceOwnership",
      "outputs": [],
      "stateMutability": "nonpayable",
      "type": "function"
    },
    {
      "inputs": [],
      "name": "seance",
      "outputs": [
        {
          "internalType": "contract SeanceCircle",
          "name": "",
          "type": "address"
        }
      ],
      "stateMutability": "view",
      "type": "function",
      "constant": true
    },
    {
      "inputs": [],
      "name": "soul",
      "outputs": [
        {
          "internalType": "contract SoulToken",
          "name": "",
          "type": "address"
        }
      ],
      "stateMutability": "view",
      "type": "function",
      "constant": true
    },
    {
      "inputs": [],
      "name": "soulPerSecond",
      "outputs": [
        {
          "internalType": "uint256",
          "name": "",
          "type": "uint256"
        }
      ],
      "stateMutability": "view",
      "type": "function",
      "constant": true
    },
    {
      "inputs": [],
      "name": "startTime",
      "outputs": [
        {
          "internalType": "uint256",
          "name": "",
          "type": "uint256"
        }
      ],
      "stateMutability": "view",
      "type": "function",
      "constant": true
    },
    {
      "inputs": [],
      "name": "team",
      "outputs": [
        {
          "internalType": "address",
          "name": "",
          "type": "address"
        }
      ],
      "stateMutability": "view",
      "type": "function",
      "constant": true
    },
    {
      "inputs": [],
      "name": "totalAllocPoint",
      "outputs": [
        {
          "internalType": "uint256",
          "name": "",
          "type": "uint256"
        }
      ],
      "stateMutability": "view",
      "type": "function",
      "constant": true
    },
    {
      "inputs": [
        {
          "internalType": "address",
          "name": "newOwner",
          "type": "address"
        }
      ],
      "name": "transferOwnership",
      "outputs": [],
      "stateMutability": "nonpayable",
      "type": "function"
    },
    {
      "inputs": [],
      "name": "treasury",
      "outputs": [
        {
          "internalType": "address",
          "name": "",
          "type": "address"
        }
      ],
      "stateMutability": "view",
      "type": "function",
      "constant": true
    },
    {
      "inputs": [
        {
          "internalType": "uint256",
          "name": "",
          "type": "uint256"
        },
        {
          "internalType": "address",
          "name": "",
          "type": "address"
        }
      ],
      "name": "userInfo",
      "outputs": [
        {
          "internalType": "uint256",
          "name": "amount",
          "type": "uint256"
        },
        {
          "internalType": "uint256",
          "name": "rewardDebt",
          "type": "uint256"
        }
      ],
      "stateMutability": "view",
      "type": "function",
      "constant": true
    },
    {
      "inputs": [
        {
          "internalType": "uint256",
          "name": "multiplierNumber",
          "type": "uint256"
        }
      ],
      "name": "updateMultiplier",
      "outputs": [],
      "stateMutability": "nonpayable",
      "type": "function"
    },
    {
      "inputs": [
        {
          "internalType": "uint256",
          "name": "_chains",
          "type": "uint256"
        }
      ],
      "name": "updateChains",
      "outputs": [],
      "stateMutability": "nonpayable",
      "type": "function"
    },
    {
      "inputs": [],
      "name": "poolLength",
      "outputs": [
        {
          "internalType": "uint256",
          "name": "",
          "type": "uint256"
        }
      ],
      "stateMutability": "view",
      "type": "function",
      "constant": true
    },
    {
      "inputs": [
        {
          "internalType": "uint256",
          "name": "_allocPoint",
          "type": "uint256"
        },
        {
          "internalType": "contract IERC20",
          "name": "_lpToken",
          "type": "address"
        },
        {
          "internalType": "bool",
          "name": "_withUpdate",
          "type": "bool"
        }
      ],
      "name": "add",
      "outputs": [],
      "stateMutability": "nonpayable",
      "type": "function"
    },
    {
      "inputs": [
        {
          "internalType": "uint256",
          "name": "_pid",
          "type": "uint256"
        },
        {
          "internalType": "uint256",
          "name": "_allocPoint",
          "type": "uint256"
        },
        {
          "internalType": "bool",
          "name": "_withUpdate",
          "type": "bool"
        }
      ],
      "name": "set",
      "outputs": [],
      "stateMutability": "nonpayable",
      "type": "function"
    },
    {
      "inputs": [
        {
          "internalType": "contract IMigratorChef",
          "name": "_migrator",
          "type": "address"
        }
      ],
      "name": "setMigrator",
      "outputs": [],
      "stateMutability": "nonpayable",
      "type": "function"
    },
    {
      "inputs": [
        {
          "internalType": "uint256",
          "name": "_pid",
          "type": "uint256"
        }
      ],
      "name": "migrate",
      "outputs": [],
      "stateMutability": "nonpayable",
      "type": "function"
    },
    {
      "inputs": [
        {
          "internalType": "uint256",
          "name": "_from",
          "type": "uint256"
        },
        {
          "internalType": "uint256",
          "name": "_to",
          "type": "uint256"
        }
      ],
      "name": "getMultiplier",
      "outputs": [
        {
          "internalType": "uint256",
          "name": "",
          "type": "uint256"
        }
      ],
      "stateMutability": "view",
      "type": "function",
      "constant": true
    },
    {
      "inputs": [
        {
          "internalType": "uint256",
          "name": "_pid",
          "type": "uint256"
        },
        {
          "internalType": "address",
          "name": "_user",
          "type": "address"
        }
      ],
      "name": "pendingSoul",
      "outputs": [
        {
          "internalType": "uint256",
          "name": "",
          "type": "uint256"
        }
      ],
      "stateMutability": "view",
      "type": "function",
      "constant": true
    },
    {
      "inputs": [],
      "name": "massUpdatePools",
      "outputs": [],
      "stateMutability": "nonpayable",
      "type": "function"
    },
    {
      "inputs": [
        {
          "internalType": "uint256",
          "name": "_pid",
          "type": "uint256"
        }
      ],
      "name": "updatePool",
      "outputs": [],
      "stateMutability": "nonpayable",
      "type": "function"
    },
    {
      "inputs": [
        {
          "internalType": "uint256",
          "name": "_pid",
          "type": "uint256"
        },
        {
          "internalType": "uint256",
          "name": "_amount",
          "type": "uint256"
        }
      ],
      "name": "deposit",
      "outputs": [],
      "stateMutability": "nonpayable",
      "type": "function"
    },
    {
      "inputs": [
        {
          "internalType": "uint256",
          "name": "_pid",
          "type": "uint256"
        },
        {
          "internalType": "uint256",
          "name": "_amount",
          "type": "uint256"
        }
      ],
      "name": "withdraw",
      "outputs": [],
      "stateMutability": "nonpayable",
      "type": "function"
    },
    {
      "inputs": [
        {
          "internalType": "uint256",
          "name": "_amount",
          "type": "uint256"
        }
      ],
      "name": "enterStaking",
      "outputs": [],
      "stateMutability": "nonpayable",
      "type": "function"
    },
    {
      "inputs": [
        {
          "internalType": "uint256",
          "name": "_amount",
          "type": "uint256"
        }
      ],
      "name": "leaveStaking",
      "outputs": [],
      "stateMutability": "nonpayable",
      "type": "function"
    },
    {
      "inputs": [
        {
          "internalType": "address",
          "name": "_treasury",
          "type": "address"
        }
      ],
      "name": "newTreasury",
      "outputs": [],
      "stateMutability": "nonpayable",
      "type": "function"
    },
    {
      "inputs": [
        {
          "internalType": "address",
          "name": "_team",
          "type": "address"
        }
      ],
      "name": "newTeam",
      "outputs": [],
      "stateMutability": "nonpayable",
      "type": "function"
    }
  ],
  "bytecode": "0x608060405260016006556934f086f3b33b68400000600755620151806007546200002a919062000421565b60085560016009556000600b553480156200004457600080fd5b5060405162003a1438038062003a1483398181016040528101906200006a91906200039f565b6200008a6200007e6200027760201b60201c565b6200027f60201b60201c565b84600160006101000a81548173ffffffffffffffffffffffffffffffffffffffff021916908373ffffffffffffffffffffffffffffffffffffffff16021790555083600260006101000a81548173ffffffffffffffffffffffffffffffffffffffff021916908373ffffffffffffffffffffffffffffffffffffffff16021790555082600360006101000a81548173ffffffffffffffffffffffffffffffffffffffff021916908373ffffffffffffffffffffffffffffffffffffffff16021790555081600460006101000a81548173ffffffffffffffffffffffffffffffffffffffff021916908373ffffffffffffffffffffffffffffffffffffffff16021790555080600a81905550600c60405180608001604052808773ffffffffffffffffffffffffffffffffffffffff1681526020016103e88152602001600a5481526020016000815250908060018154018082558091505060019003906000526020600020906004020160009091909190915060008201518160000160006101000a81548173ffffffffffffffffffffffffffffffffffffffff021916908373ffffffffffffffffffffffffffffffffffffffff16021790555060208201518160010155604082015181600201556060820151816003015550506103e8600b81905550505050505062000556565b600033905090565b60008060009054906101000a900473ffffffffffffffffffffffffffffffffffffffff169050816000806101000a81548173ffffffffffffffffffffffffffffffffffffffff021916908373ffffffffffffffffffffffffffffffffffffffff1602179055508173ffffffffffffffffffffffffffffffffffffffff168173ffffffffffffffffffffffffffffffffffffffff167f8be0079c531659141344cd1fd0a4f28419497f9722a3daafe3b4186f6b6457e060405160405180910390a35050565b6000815190506200035481620004ee565b92915050565b6000815190506200036b8162000508565b92915050565b600081519050620003828162000522565b92915050565b60008151905062000399816200053c565b92915050565b600080600080600060a08688031215620003b857600080fd5b6000620003c88882890162000371565b9550506020620003db888289016200035a565b9450506040620003ee8882890162000343565b9350506060620004018882890162000343565b9250506080620004148882890162000388565b9150509295509295909350565b60006200042e82620004b5565b91506200043b83620004b5565b9250826200044e576200044d620004bf565b5b828204905092915050565b6000620004668262000495565b9050919050565b60006200047a8262000459565b9050919050565b60006200048e8262000459565b9050919050565b600073ffffffffffffffffffffffffffffffffffffffff82169050919050565b6000819050919050565b7f4e487b7100000000000000000000000000000000000000000000000000000000600052601260045260246000fd5b620004f98162000459565b81146200050557600080fd5b50565b62000513816200046d565b81146200051f57600080fd5b50565b6200052d8162000481565b81146200053957600080fd5b50565b6200054781620004b5565b81146200055357600080fd5b50565b6134ae80620005666000396000f3fe608060405234801561001057600080fd5b50600436106101fb5760003560e01c8063630b5ba11161011a5780638aa28550116100ad5780639718b5241161007c5780639718b52414610546578063bfafcad514610562578063e06f926f14610592578063e2bbb158146105ae578063f2fde38b146105ca576101fb565b80638aa28550146104a95780638da5cb5b146104c75780638dbb1e3a146104e557806393f1a40b14610515576101fb565b80637cd07e47116100e95780637cd07e47146104315780637d500ec81461044f578063815b7a8c1461046d57806385f2aef21461048b576101fb565b8063630b5ba1146103e357806364482f79146103ed578063715018a61461040957806378e9792514610413576101fb565b8063441a3e701161019257806358a8b85f1161016157806358a8b85f1461036d5780635f9bf6891461038b5780635ffe6146146103a957806361d027b3146103c5576101fb565b8063441a3e70146102fb578063454b0608146103175780634ca01d451461033357806351eb05a614610351576101fb565b806317caf6f1116101ce57806317caf6f1146102895780631eaaa045146102a757806323cf3118146102c357806341441d3b146102df576101fb565b8063027d300b14610200578063081e3eda1461021c5780631058d2811461023a5780631526fe2714610256575b600080fd5b61021a60048036038101906102159190612a24565b6105e6565b005b6102246106b8565b60405161023191906130f8565b60405180910390f35b610254600480360381019061024f9190612a24565b6106c5565b005b610270600480360381019061026b9190612a24565b6109e7565b6040516102809493929190612f22565b60405180910390f35b610291610a47565b60405161029e91906130f8565b60405180910390f35b6102c160048036038101906102bc9190612ab2565b610a4d565b005b6102dd60048036038101906102d891906129fb565b610bdb565b005b6102f960048036038101906102f49190612a24565b610c9b565b005b61031560048036038101906103109190612b01565b610f86565b005b610331600480360381019061032c9190612a24565b61125b565b005b61033b611664565b6040516103489190612f82565b60405180910390f35b61036b60048036038101906103669190612a24565b61168a565b005b610375611a60565b60405161038291906130f8565b60405180910390f35b610393611a66565b6040516103a091906130f8565b60405180910390f35b6103c360048036038101906103be9190612a24565b611a6c565b005b6103cd611af2565b6040516103da9190612e8c565b60405180910390f35b6103eb611b18565b005b61040760048036038101906104029190612b3d565b611b4b565b005b610411611cab565b005b61041b611d33565b60405161042891906130f8565b60405180910390f35b610439611d39565b6040516104469190612f67565b60405180910390f35b610457611d5f565b60405161046491906130f8565b60405180910390f35b610475611d65565b6040516104829190612f9d565b60405180910390f35b610493611d8b565b6040516104a09190612e8c565b60405180910390f35b6104b1611db1565b6040516104be91906130f8565b60405180910390f35b6104cf611db7565b6040516104dc9190612e8c565b60405180910390f35b6104ff60048036038101906104fa9190612b01565b611de0565b60405161050c91906130f8565b60405180910390f35b61052f600480360381019061052a9190612a76565b611e03565b60405161053d929190613113565b60405180910390f35b610560600480360381019061055b9190612980565b611e34565b005b61057c60048036038101906105779190612a76565b611f60565b60405161058991906130f8565b60405180910390f35b6105ac60048036038101906105a79190612980565b61217b565b005b6105c860048036038101906105c39190612b01565b61224f565b005b6105e460048036038101906105df9190612980565b6124ed565b005b6105ee6125e5565b73ffffffffffffffffffffffffffffffffffffffff1661060c611db7565b73ffffffffffffffffffffffffffffffffffffffff1614610662576040517f08c379a000000000000000000000000000000000000000000000000000000000815260040161065990613038565b60405180910390fd5b60008114156106a6576040517f08c379a000000000000000000000000000000000000000000000000000000000815260040161069d90613058565b60405180910390fd5b806006819055506106b56125ed565b50565b6000600c80549050905090565b6000600c600081548110610702577f4e487b7100000000000000000000000000000000000000000000000000000000600052603260045260246000fd5b906000526020600020906004020190506000600d600080815260200190815260200160002060003373ffffffffffffffffffffffffffffffffffffffff1673ffffffffffffffffffffffffffffffffffffffff168152602001908152602001600020905082816000015410156107ad576040517f08c379a00000000000000000000000000000000000000000000000000000000081526004016107a490613078565b60405180910390fd5b6107b7600061168a565b6000816001015464e8d4a51000846003015484600001546107d891906131d4565b6107e291906131a3565b6107ec919061322e565b90506000811115610802576108013382612624565b5b60008411156108d65783826000015461081b919061322e565b82600001819055508260000160009054906101000a900473ffffffffffffffffffffffffffffffffffffffff1673ffffffffffffffffffffffffffffffffffffffff1663a9059cbb33866040518363ffffffff1660e01b8152600401610882929190612ede565b602060405180830381600087803b15801561089c57600080fd5b505af11580156108b0573d6000803e3d6000fd5b505050506040513d601f19601f820116820180604052508101906108d491906129a9565b505b64e8d4a51000836003015483600001546108f091906131d4565b6108fa91906131a3565b8260010181905550600260009054906101000a900473ffffffffffffffffffffffffffffffffffffffff1673ffffffffffffffffffffffffffffffffffffffff16639dc29fac33866040518363ffffffff1660e01b815260040161095f929190612ede565b600060405180830381600087803b15801561097957600080fd5b505af115801561098d573d6000803e3d6000fd5b5050505060003373ffffffffffffffffffffffffffffffffffffffff167ff279e6a1f5e320cca91135676d9cb6e44ca8a08c0b88342bcdb1144f6511b568866040516109d991906130f8565b60405180910390a350505050565b600c81815481106109f757600080fd5b90600052602060002090600402016000915090508060000160009054906101000a900473ffffffffffffffffffffffffffffffffffffffff16908060010154908060020154908060030154905084565b600b5481565b610a556125e5565b73ffffffffffffffffffffffffffffffffffffffff16610a73611db7565b73ffffffffffffffffffffffffffffffffffffffff1614610ac9576040517f08c379a0000000000000000000000000000000000000000000000000000000008152600401610ac090613038565b60405180910390fd5b8015610ad857610ad7611b18565b5b6000600a544211610aeb57600a54610aed565b425b905083600b54610afd919061314d565b600b81905550600c60405180608001604052808573ffffffffffffffffffffffffffffffffffffffff1681526020018681526020018381526020016000815250908060018154018082558091505060019003906000526020600020906004020160009091909190915060008201518160000160006101000a81548173ffffffffffffffffffffffffffffffffffffffff021916908373ffffffffffffffffffffffffffffffffffffffff1602179055506020820151816001015560408201518160020155606082015181600301555050610bd56126b7565b50505050565b610be36125e5565b73ffffffffffffffffffffffffffffffffffffffff16610c01611db7565b73ffffffffffffffffffffffffffffffffffffffff1614610c57576040517f08c379a0000000000000000000000000000000000000000000000000000000008152600401610c4e90613038565b60405180910390fd5b80600560006101000a81548173ffffffffffffffffffffffffffffffffffffffff021916908373ffffffffffffffffffffffffffffffffffffffff16021790555050565b6000600c600081548110610cd8577f4e487b7100000000000000000000000000000000000000000000000000000000600052603260045260246000fd5b906000526020600020906004020190506000600d600080815260200190815260200160002060003373ffffffffffffffffffffffffffffffffffffffff1673ffffffffffffffffffffffffffffffffffffffff1681526020019081526020016000209050610d46600061168a565b600081600001541115610da0576000816001015464e8d4a5100084600301548460000154610d7491906131d4565b610d7e91906131a3565b610d88919061322e565b90506000811115610d9e57610d9d3382612624565b5b505b6000831115610e76578160000160009054906101000a900473ffffffffffffffffffffffffffffffffffffffff1673ffffffffffffffffffffffffffffffffffffffff166323b872dd3330866040518463ffffffff1660e01b8152600401610e0a93929190612ea7565b602060405180830381600087803b158015610e2457600080fd5b505af1158015610e38573d6000803e3d6000fd5b505050506040513d601f19601f82011682018060405250810190610e5c91906129a9565b50828160000154610e6d919061314d565b81600001819055505b64e8d4a5100082600301548260000154610e9091906131d4565b610e9a91906131a3565b8160010181905550600260009054906101000a900473ffffffffffffffffffffffffffffffffffffffff1673ffffffffffffffffffffffffffffffffffffffff166340c10f1933856040518363ffffffff1660e01b8152600401610eff929190612ede565b600060405180830381600087803b158015610f1957600080fd5b505af1158015610f2d573d6000803e3d6000fd5b5050505060003373ffffffffffffffffffffffffffffffffffffffff167f90890809c654f11d6e72a28fa60149770a0d11ec6c92319d6ceb2bb0a4ea1a1585604051610f7991906130f8565b60405180910390a3505050565b6000821415610fca576040517f08c379a0000000000000000000000000000000000000000000000000000000008152600401610fc190612ff8565b60405180910390fd5b6000600c8381548110611006577f4e487b7100000000000000000000000000000000000000000000000000000000600052603260045260246000fd5b906000526020600020906004020190506000600d600085815260200190815260200160002060003373ffffffffffffffffffffffffffffffffffffffff1673ffffffffffffffffffffffffffffffffffffffff168152602001908152602001600020905082816000015410156110b1576040517f08c379a00000000000000000000000000000000000000000000000000000000081526004016110a890613078565b60405180910390fd5b6110ba8461168a565b6000816001015464e8d4a51000846003015484600001546110db91906131d4565b6110e591906131a3565b6110ef919061322e565b90506000811115611105576111043382612624565b5b60008411156111d95783826000015461111e919061322e565b82600001819055508260000160009054906101000a900473ffffffffffffffffffffffffffffffffffffffff1673ffffffffffffffffffffffffffffffffffffffff1663a9059cbb33866040518363ffffffff1660e01b8152600401611185929190612ede565b602060405180830381600087803b15801561119f57600080fd5b505af11580156111b3573d6000803e3d6000fd5b505050506040513d601f19601f820116820180604052508101906111d791906129a9565b505b64e8d4a51000836003015483600001546111f391906131d4565b6111fd91906131a3565b8260010181905550843373ffffffffffffffffffffffffffffffffffffffff167ff279e6a1f5e320cca91135676d9cb6e44ca8a08c0b88342bcdb1144f6511b5688660405161124c91906130f8565b60405180910390a35050505050565b600073ffffffffffffffffffffffffffffffffffffffff16600560009054906101000a900473ffffffffffffffffffffffffffffffffffffffff1673ffffffffffffffffffffffffffffffffffffffff1614156112ed576040517f08c379a00000000000000000000000000000000000000000000000000000000081526004016112e4906130b8565b60405180910390fd5b6000600c8281548110611329577f4e487b7100000000000000000000000000000000000000000000000000000000600052603260045260246000fd5b9060005260206000209060040201905060008160000160009054906101000a900473ffffffffffffffffffffffffffffffffffffffff16905060008173ffffffffffffffffffffffffffffffffffffffff166370a08231306040518263ffffffff1660e01b815260040161139d9190612e8c565b60206040518083038186803b1580156113b557600080fd5b505afa1580156113c9573d6000803e3d6000fd5b505050506040513d601f19601f820116820180604052508101906113ed9190612a4d565b90508173ffffffffffffffffffffffffffffffffffffffff1663095ea7b3600560009054906101000a900473ffffffffffffffffffffffffffffffffffffffff16836040518363ffffffff1660e01b815260040161144c929190612ede565b602060405180830381600087803b15801561146657600080fd5b505af115801561147a573d6000803e3d6000fd5b505050506040513d601f19601f8201168201806040525081019061149e91906129a9565b506000600560009054906101000a900473ffffffffffffffffffffffffffffffffffffffff1673ffffffffffffffffffffffffffffffffffffffff1663ce5494bb846040518263ffffffff1660e01b81526004016114fc9190612f07565b602060405180830381600087803b15801561151657600080fd5b505af115801561152a573d6000803e3d6000fd5b505050506040513d601f19601f8201168201806040525081019061154e91906129d2565b90508073ffffffffffffffffffffffffffffffffffffffff166370a08231306040518263ffffffff1660e01b81526004016115899190612e8c565b60206040518083038186803b1580156115a157600080fd5b505afa1580156115b5573d6000803e3d6000fd5b505050506040513d601f19601f820116820180604052508101906115d99190612a4d565b821461161a576040517f08c379a000000000000000000000000000000000000000000000000000000000815260040161161190613098565b60405180910390fd5b808460000160006101000a81548173ffffffffffffffffffffffffffffffffffffffff021916908373ffffffffffffffffffffffffffffffffffffffff1602179055505050505050565b600260009054906101000a900473ffffffffffffffffffffffffffffffffffffffff1681565b6000600c82815481106116c6577f4e487b7100000000000000000000000000000000000000000000000000000000600052603260045260246000fd5b90600052602060002090600402019050806002015442116116e75750611a5d565b60008160000160009054906101000a900473ffffffffffffffffffffffffffffffffffffffff1673ffffffffffffffffffffffffffffffffffffffff166370a08231306040518263ffffffff1660e01b81526004016117469190612e8c565b60206040518083038186803b15801561175e57600080fd5b505afa158015611772573d6000803e3d6000fd5b505050506040513d601f19601f820116820180604052508101906117969190612a4d565b905060008114156117b1574282600201819055505050611a5d565b60006117c1836002015442611de0565b90506000600b548460010154600854846117db91906131d4565b6117e591906131d4565b6117ef91906131a3565b9050600160009054906101000a900473ffffffffffffffffffffffffffffffffffffffff1673ffffffffffffffffffffffffffffffffffffffff166340c10f19600360009054906101000a900473ffffffffffffffffffffffffffffffffffffffff1660088461185f91906131a3565b6040518363ffffffff1660e01b815260040161187c929190612ede565b600060405180830381600087803b15801561189657600080fd5b505af11580156118aa573d6000803e3d6000fd5b50505050600160009054906101000a900473ffffffffffffffffffffffffffffffffffffffff1673ffffffffffffffffffffffffffffffffffffffff166340c10f19600460009054906101000a900473ffffffffffffffffffffffffffffffffffffffff1660088461191c91906131a3565b6040518363ffffffff1660e01b8152600401611939929190612ede565b600060405180830381600087803b15801561195357600080fd5b505af1158015611967573d6000803e3d6000fd5b50505050600160009054906101000a900473ffffffffffffffffffffffffffffffffffffffff1673ffffffffffffffffffffffffffffffffffffffff166340c10f19600260009054906101000a900473ffffffffffffffffffffffffffffffffffffffff16836040518363ffffffff1660e01b81526004016119ea929190612ede565b600060405180830381600087803b158015611a0457600080fd5b505af1158015611a18573d6000803e3d6000fd5b505050508264e8d4a5100082611a2e91906131d4565b611a3891906131a3565b8460030154611a47919061314d565b8460030181905550428460020181905550505050505b50565b60065481565b60085481565b611a746125e5565b73ffffffffffffffffffffffffffffffffffffffff16611a92611db7565b73ffffffffffffffffffffffffffffffffffffffff1614611ae8576040517f08c379a0000000000000000000000000000000000000000000000000000000008152600401611adf90613038565b60405180910390fd5b8060098190555050565b600460009054906101000a900473ffffffffffffffffffffffffffffffffffffffff1681565b6000600c80549050905060005b81811015611b4757611b368161168a565b80611b409061335e565b9050611b25565b5050565b611b536125e5565b73ffffffffffffffffffffffffffffffffffffffff16611b71611db7565b73ffffffffffffffffffffffffffffffffffffffff1614611bc7576040517f08c379a0000000000000000000000000000000000000000000000000000000008152600401611bbe90613038565b60405180910390fd5b8015611bd657611bd5611b18565b5b6000600c8481548110611c12577f4e487b7100000000000000000000000000000000000000000000000000000000600052603260045260246000fd5b906000526020600020906004020160010154905082600c8581548110611c61577f4e487b7100000000000000000000000000000000000000000000000000000000600052603260045260246000fd5b906000526020600020906004020160010181905550828114611ca5578281600b54611c8c919061322e565b611c96919061314d565b600b81905550611ca46126b7565b5b50505050565b611cb36125e5565b73ffffffffffffffffffffffffffffffffffffffff16611cd1611db7565b73ffffffffffffffffffffffffffffffffffffffff1614611d27576040517f08c379a0000000000000000000000000000000000000000000000000000000008152600401611d1e90613038565b60405180910390fd5b611d316000612814565b565b600a5481565b600560009054906101000a900473ffffffffffffffffffffffffffffffffffffffff1681565b60075481565b600160009054906101000a900473ffffffffffffffffffffffffffffffffffffffff1681565b600360009054906101000a900473ffffffffffffffffffffffffffffffffffffffff1681565b60095481565b60008060009054906101000a900473ffffffffffffffffffffffffffffffffffffffff16905090565b600060095483611df091906131d4565b82611dfb919061322e565b905092915050565b600d602052816000526040600020602052806000526040600020600091509150508060000154908060010154905082565b600460009054906101000a900473ffffffffffffffffffffffffffffffffffffffff1673ffffffffffffffffffffffffffffffffffffffff163373ffffffffffffffffffffffffffffffffffffffff161480611edd5750600360009054906101000a900473ffffffffffffffffffffffffffffffffffffffff1673ffffffffffffffffffffffffffffffffffffffff163373ffffffffffffffffffffffffffffffffffffffff16145b611f1c576040517f08c379a0000000000000000000000000000000000000000000000000000000008152600401611f13906130d8565b60405180910390fd5b80600460006101000a81548173ffffffffffffffffffffffffffffffffffffffff021916908373ffffffffffffffffffffffffffffffffffffffff16021790555050565b600080600c8481548110611f9d577f4e487b7100000000000000000000000000000000000000000000000000000000600052603260045260246000fd5b906000526020600020906004020190506000600d600086815260200190815260200160002060008573ffffffffffffffffffffffffffffffffffffffff1673ffffffffffffffffffffffffffffffffffffffff168152602001908152602001600020905060008260030154905060008360000160009054906101000a900473ffffffffffffffffffffffffffffffffffffffff1673ffffffffffffffffffffffffffffffffffffffff166370a08231306040518263ffffffff1660e01b81526004016120699190612e8c565b60206040518083038186803b15801561208157600080fd5b505afa158015612095573d6000803e3d6000fd5b505050506040513d601f19601f820116820180604052508101906120b99190612a4d565b90508360020154421180156120cf575060008114155b156121405760006120e4856002015442611de0565b90506000600b548660010154600854846120fe91906131d4565b61210891906131d4565b61211291906131a3565b90508264e8d4a510008261212691906131d4565b61213091906131a3565b8461213b919061314d565b935050505b826001015464e8d4a5100083856000015461215b91906131d4565b61216591906131a3565b61216f919061322e565b94505050505092915050565b600360009054906101000a900473ffffffffffffffffffffffffffffffffffffffff1673ffffffffffffffffffffffffffffffffffffffff163373ffffffffffffffffffffffffffffffffffffffff161461220b576040517f08c379a000000000000000000000000000000000000000000000000000000000815260040161220290612fb8565b60405180910390fd5b80600360006101000a81548173ffffffffffffffffffffffffffffffffffffffff021916908373ffffffffffffffffffffffffffffffffffffffff16021790555050565b6000821415612293576040517f08c379a000000000000000000000000000000000000000000000000000000000815260040161228a90613018565b60405180910390fd5b6000600c83815481106122cf577f4e487b7100000000000000000000000000000000000000000000000000000000600052603260045260246000fd5b906000526020600020906004020190506000600d600085815260200190815260200160002060003373ffffffffffffffffffffffffffffffffffffffff1673ffffffffffffffffffffffffffffffffffffffff168152602001908152602001600020905061233c8461168a565b600081600001541115612396576000816001015464e8d4a510008460030154846000015461236a91906131d4565b61237491906131a3565b61237e919061322e565b90506000811115612394576123933382612624565b5b505b600083111561246c578160000160009054906101000a900473ffffffffffffffffffffffffffffffffffffffff1673ffffffffffffffffffffffffffffffffffffffff166323b872dd3330866040518463ffffffff1660e01b815260040161240093929190612ea7565b602060405180830381600087803b15801561241a57600080fd5b505af115801561242e573d6000803e3d6000fd5b505050506040513d601f19601f8201168201806040525081019061245291906129a9565b50828160000154612463919061314d565b81600001819055505b64e8d4a510008260030154826000015461248691906131d4565b61249091906131a3565b8160010181905550833373ffffffffffffffffffffffffffffffffffffffff167f90890809c654f11d6e72a28fa60149770a0d11ec6c92319d6ceb2bb0a4ea1a15856040516124df91906130f8565b60405180910390a350505050565b6124f56125e5565b73ffffffffffffffffffffffffffffffffffffffff16612513611db7565b73ffffffffffffffffffffffffffffffffffffffff1614612569576040517f08c379a000000000000000000000000000000000000000000000000000000000815260040161256090613038565b60405180910390fd5b600073ffffffffffffffffffffffffffffffffffffffff168173ffffffffffffffffffffffffffffffffffffffff1614156125d9576040517f08c379a00000000000000000000000000000000000000000000000000000000081526004016125d090612fd8565b60405180910390fd5b6125e281612814565b50565b600033905090565b6006546934f086f3b33b6840000061260591906131a3565b6007819055506201518060075461261c91906131a3565b600881905550565b600260009054906101000a900473ffffffffffffffffffffffffffffffffffffffff1673ffffffffffffffffffffffffffffffffffffffff1663b2a142aa83836040518363ffffffff1660e01b8152600401612681929190612ede565b600060405180830381600087803b15801561269b57600080fd5b505af11580156126af573d6000803e3d6000fd5b505050505050565b6000600c805490509050600080600190505b8281101561273b57600c818154811061270b577f4e487b7100000000000000000000000000000000000000000000000000000000600052603260045260246000fd5b90600052602060002090600402016001015482612728919061314d565b9150806127349061335e565b90506126c9565b50600081146128105760038161275191906131a3565b905080600c60008154811061278f577f4e487b7100000000000000000000000000000000000000000000000000000000600052603260045260246000fd5b906000526020600020906004020160010154600b546127ae919061322e565b6127b8919061314d565b600b8190555080600c6000815481106127fa577f4e487b7100000000000000000000000000000000000000000000000000000000600052603260045260246000fd5b9060005260206000209060040201600101819055505b5050565b60008060009054906101000a900473ffffffffffffffffffffffffffffffffffffffff169050816000806101000a81548173ffffffffffffffffffffffffffffffffffffffff021916908373ffffffffffffffffffffffffffffffffffffffff1602179055508173ffffffffffffffffffffffffffffffffffffffff168173ffffffffffffffffffffffffffffffffffffffff167f8be0079c531659141344cd1fd0a4f28419497f9722a3daafe3b4186f6b6457e060405160405180910390a35050565b6000813590506128e781613405565b92915050565b6000813590506128fc8161341c565b92915050565b6000815190506129118161341c565b92915050565b60008135905061292681613433565b92915050565b60008151905061293b81613433565b92915050565b6000813590506129508161344a565b92915050565b60008135905061296581613461565b92915050565b60008151905061297a81613461565b92915050565b60006020828403121561299257600080fd5b60006129a0848285016128d8565b91505092915050565b6000602082840312156129bb57600080fd5b60006129c984828501612902565b91505092915050565b6000602082840312156129e457600080fd5b60006129f28482850161292c565b91505092915050565b600060208284031215612a0d57600080fd5b6000612a1b84828501612941565b91505092915050565b600060208284031215612a3657600080fd5b6000612a4484828501612956565b91505092915050565b600060208284031215612a5f57600080fd5b6000612a6d8482850161296b565b91505092915050565b60008060408385031215612a8957600080fd5b6000612a9785828601612956565b9250506020612aa8858286016128d8565b9150509250929050565b600080600060608486031215612ac757600080fd5b6000612ad586828701612956565b9350506020612ae686828701612917565b9250506040612af7868287016128ed565b9150509250925092565b60008060408385031215612b1457600080fd5b6000612b2285828601612956565b9250506020612b3385828601612956565b9150509250929050565b600080600060608486031215612b5257600080fd5b6000612b6086828701612956565b9350506020612b7186828701612956565b9250506040612b82868287016128ed565b9150509250925092565b612b9581613262565b82525050565b612ba4816132ce565b82525050565b612bb3816132f2565b82525050565b612bc281613316565b82525050565b612bd18161333a565b82525050565b6000612be460158361313c565b91507f7465616d3a206c652077686f2061726520796f753f00000000000000000000006000830152602082019050919050565b6000612c2460268361313c565b91507f4f776e61626c653a206e6577206f776e657220697320746865207a65726f206160008301527f64647265737300000000000000000000000000000000000000000000000000006020830152604082019050919050565b6000612c8a601a8361313c565b91507f776974686472617720534f554c20627920756e7374616b696e670000000000006000830152602082019050919050565b6000612cca60178361313c565b91507f6465706f73697420534f554c206279207374616b696e670000000000000000006000830152602082019050919050565b6000612d0a60208361313c565b91507f4f776e61626c653a2063616c6c6572206973206e6f7420746865206f776e65726000830152602082019050919050565b6000612d4a60148361313c565b91507f636861696e2063616e6e6f74206265207a65726f0000000000000000000000006000830152602082019050919050565b6000612d8a60128361313c565b91507f77697468647261773a206e6f7420676f6f6400000000000000000000000000006000830152602082019050919050565b6000612dca600c8361313c565b91507f6d6967726174653a2062616400000000000000000000000000000000000000006000830152602082019050919050565b6000612e0a60148361313c565b91507f6d6967726174653a206e6f206d69677261746f720000000000000000000000006000830152602082019050919050565b6000612e4a601d8361313c565b91507f74726561737572793a20696e76616c6964207065726d697373696f6e730000006000830152602082019050919050565b612e86816132c4565b82525050565b6000602082019050612ea16000830184612b8c565b92915050565b6000606082019050612ebc6000830186612b8c565b612ec96020830185612b8c565b612ed66040830184612e7d565b949350505050565b6000604082019050612ef36000830185612b8c565b612f006020830184612e7d565b9392505050565b6000602082019050612f1c6000830184612b9b565b92915050565b6000608082019050612f376000830187612b9b565b612f446020830186612e7d565b612f516040830185612e7d565b612f5e6060830184612e7d565b95945050505050565b6000602082019050612f7c6000830184612baa565b92915050565b6000602082019050612f976000830184612bb9565b92915050565b6000602082019050612fb26000830184612bc8565b92915050565b60006020820190508181036000830152612fd181612bd7565b9050919050565b60006020820190508181036000830152612ff181612c17565b9050919050565b6000602082019050818103600083015261301181612c7d565b9050919050565b6000602082019050818103600083015261303181612cbd565b9050919050565b6000602082019050818103600083015261305181612cfd565b9050919050565b6000602082019050818103600083015261307181612d3d565b9050919050565b6000602082019050818103600083015261309181612d7d565b9050919050565b600060208201905081810360008301526130b181612dbd565b9050919050565b600060208201905081810360008301526130d181612dfd565b9050919050565b600060208201905081810360008301526130f181612e3d565b9050919050565b600060208201905061310d6000830184612e7d565b92915050565b60006040820190506131286000830185612e7d565b6131356020830184612e7d565b9392505050565b600082825260208201905092915050565b6000613158826132c4565b9150613163836132c4565b9250827fffffffffffffffffffffffffffffffffffffffffffffffffffffffffffffffff03821115613198576131976133a7565b5b828201905092915050565b60006131ae826132c4565b91506131b9836132c4565b9250826131c9576131c86133d6565b5b828204905092915050565b60006131df826132c4565b91506131ea836132c4565b9250817fffffffffffffffffffffffffffffffffffffffffffffffffffffffffffffffff0483118215151615613223576132226133a7565b5b828202905092915050565b6000613239826132c4565b9150613244836132c4565b925082821015613257576132566133a7565b5b828203905092915050565b600061326d826132a4565b9050919050565b60008115159050919050565b600061328b82613262565b9050919050565b600061329d82613262565b9050919050565b600073ffffffffffffffffffffffffffffffffffffffff82169050919050565b6000819050919050565b60006132d9826132e0565b9050919050565b60006132eb826132a4565b9050919050565b60006132fd82613304565b9050919050565b600061330f826132a4565b9050919050565b600061332182613328565b9050919050565b6000613333826132a4565b9050919050565b60006133458261334c565b9050919050565b6000613357826132a4565b9050919050565b6000613369826132c4565b91507fffffffffffffffffffffffffffffffffffffffffffffffffffffffffffffffff82141561339c5761339b6133a7565b5b600182019050919050565b7f4e487b7100000000000000000000000000000000000000000000000000000000600052601160045260246000fd5b7f4e487b7100000000000000000000000000000000000000000000000000000000600052601260045260246000fd5b61340e81613262565b811461341957600080fd5b50565b61342581613274565b811461343057600080fd5b50565b61343c81613280565b811461344757600080fd5b50565b61345381613292565b811461345e57600080fd5b50565b61346a816132c4565b811461347557600080fd5b5056fea2646970667358221220af1658264af77d85f823b68e58bffc8b569ac4d2b663f6a943c3aba2f38c8a6064736f6c63430008000033",
  "immutableReferences": {},
  "source": "// SPDX-License-Identifier: MIT\n\npragma solidity ^0.8.0;\n\nimport '@openzeppelin/contracts/access/Ownable.sol';\n\nimport \"./SoulToken.sol\";\nimport \"./SeanceCircle.sol\";\n\ninterface IMigratorChef {\n    // Perform LP token migration from legacy swap.\n    // Take the current LP token address and return the new LP token address.\n    // Migrator should have full access to the caller's LP token.\n    // Return the new LP token address.\n\n    function migrate(IERC20 token) external returns (IERC20);\n}\n\n// MasterChef is the master of Soul. She can make Soul and she is a fair lady.\n\n// Note that it's ownable and the owner wields tremendous power. The ownership\n// will be transferred to a governance smart contract once SOUL is sufficiently\n// distributed and the community can show to govern itself.\n\ncontract MasterChef is Ownable {\n\n    // Info of each user.\n    struct UserInfo {\n        uint256 amount;     // How many LP tokens the user has provided.\n        uint256 rewardDebt; // Reward debt. See explanation below.\n        //\n        // We do some fancy math here. Basically, any point in time, the amount of SOUL\n        // entitled to a user but is pending to be distributed is:\n        //\n        //   pending reward = (user.amount * pool.accSoulPerShare) - user.rewardDebt\n\n        // Whenever a user deposits or withdraws LP tokens to a pool. Here's what happens:\n        //   1. The pool's `accSoulPerShare` (and `lastRewardTime`) gets updated.\n        //   2. User receives the pending reward sent to their address.\n        //   3. User's `amount` gets updated.\n        //   4. User's `rewardDebt` gets updated.\n    }\n\n    // Info of each pool.\n    struct PoolInfo {\n        IERC20 lpToken;           // Address of LP token contract.\n        uint256 allocPoint;       // How many allocation points assigned to this pool. SOULs to distribute per second.\n        uint256 lastRewardTime;  // Most recent UNIX timestamp that SOULs distribution occurs.\n        uint256 accSoulPerShare; // Accumulated SOULs per share, times 1e12. See below.\n    }\n\n    //** ADDRESSES **//\n\n    // The SOUL TOKEN!\n    SoulToken public soul;\n    // The SEANCE TOKEN!\n    SeanceCircle public seance;\n    // Team address, which recieves 10% of SOUL per second\n    address public team;\n    // Treasury address, which recieves 10% of SOUL per second\n    address public treasury;\n    // The migrator contract. It has a lot of power. Can only be set through governance (owner).\n    IMigratorChef public migrator;\n\n\n    // ** GLOBAL VARIABLES ** //\n\n    // Blockchains containing MasterChef contract\n    uint256 public chains = 1;\n    // SOUL per DAY\n    uint256 public dailySoul = 250000 * 1e18; \n    // SOUL tokens created per second.\n    uint256 public soulPerSecond = dailySoul / 86400;\n    // Bonus muliplier for early soul summoners.\n    uint256 public BONUS_MULTIPLIER = 1;\n    // The UNIX timestamp when SOUL mining starts.\n    uint256 public startTime;\n    // Total allocation points. Must be the sum of all allocation points in all pools.\n    uint256 public totalAllocPoint = 0;\n\n    // ** POOL VARIABLES ** //\n\n    // Info of each pool.\n    PoolInfo[] public poolInfo;\n    // Info of each user that stakes LP tokens.\n    mapping (uint256 => mapping (address => UserInfo)) public userInfo;\n\n    event Deposit(address indexed user, uint256 indexed pid, uint256 amount);\n    event Withdraw(address indexed user, uint256 indexed pid, uint256 amount);\n\n    constructor(\n        SoulToken _soul,\n        SeanceCircle _seance,\n        address _team,\n        address _treasury,\n        uint256 _startTime\n    ) {\n        soul = _soul;\n        seance = _seance;\n        team = _team;\n        treasury = _treasury;\n        startTime = _startTime;\n\n        // staking pool\n        poolInfo.push(PoolInfo({\n            lpToken: _soul,\n            allocPoint: 1000,\n            lastRewardTime: startTime,\n            accSoulPerShare: 0\n        }));\n\n        totalAllocPoint = 1000;\n\n    }\n\n    function updateMultiplier(uint256 multiplierNumber) public onlyOwner {\n        BONUS_MULTIPLIER = multiplierNumber;\n    }\n\n    function updateRewards() internal {\n        dailySoul = (250000 * 1e18) / chains;\n        soulPerSecond = dailySoul / 86400;\n    }\n\n    function updateChains(uint256 _chains) public onlyOwner {\n        require(_chains != 0, 'chain cannot be zero');\n        chains = _chains;\n        updateRewards();\n    }\n\n    function poolLength() external view returns (uint256) {\n        return poolInfo.length;\n    }\n\n    // ADD -- NEW LP TOKEN POOL -- OWNER\n    function add(uint256 _allocPoint, IERC20 _lpToken, bool _withUpdate) public onlyOwner {\n        \n        if (_withUpdate) {\n            massUpdatePools();\n        }\n        uint256 lastRewardTime = block.timestamp > startTime ? block.timestamp : startTime;\n        totalAllocPoint = totalAllocPoint + _allocPoint;\n        poolInfo.push(PoolInfo({\n            lpToken: _lpToken,\n            allocPoint: _allocPoint,\n            lastRewardTime: lastRewardTime,\n            accSoulPerShare: 0\n        }));\n        updateStakingPool();\n    }\n\n    // UPDATE -- ALLOCATION POINT -- OWNER\n    function set(uint256 _pid, uint256 _allocPoint, bool _withUpdate) public onlyOwner {\n        if (_withUpdate) {\n            massUpdatePools();\n        }\n        uint256 prevAllocPoint = poolInfo[_pid].allocPoint;\n        poolInfo[_pid].allocPoint = _allocPoint;\n        if (prevAllocPoint != _allocPoint) {\n            totalAllocPoint = totalAllocPoint - prevAllocPoint + _allocPoint;\n            updateStakingPool();\n        }\n    }\n\n    // UPDATE -- STAKING POOL -- INTERNAL\n    function updateStakingPool() internal {\n        uint256 length = poolInfo.length;\n        uint256 points = 0;\n        for (uint256 pid = 1; pid < length; ++pid) {\n            points = points + poolInfo[pid].allocPoint;\n        }\n        if (points != 0) {\n            points = points / 3;\n            totalAllocPoint = totalAllocPoint - poolInfo[0].allocPoint + points;\n            poolInfo[0].allocPoint = points;\n        }\n    }\n\n    // SET -- MIGRATOR CONTRACT -- OWNER\n    function setMigrator(IMigratorChef _migrator) public onlyOwner {\n        migrator = _migrator;\n    }\n\n    // MIGRATE -- LP TOKENS TO ANOTHER CONTRACT -- MIGRATOR\n    function migrate(uint256 _pid) public {\n        require(address(migrator) != address(0), \"migrate: no migrator\");\n        PoolInfo storage pool = poolInfo[_pid];\n        IERC20 lpToken = pool.lpToken;\n        uint256 bal = lpToken.balanceOf(address(this));\n        lpToken.approve(address(migrator), bal);\n        IERC20 newLpToken = migrator.migrate(lpToken);\n        require(bal == newLpToken.balanceOf(address(this)), \"migrate: bad\");\n        pool.lpToken = newLpToken;\n    }\n\n    // VIEW -- BONUS MULTIPLIER -- PUBLIC\n    function getMultiplier(uint256 _from, uint256 _to) public view returns (uint256) {\n        return _to - _from * BONUS_MULTIPLIER;\n    }\n\n    // VIEW -- PENDING SOUL\n    function pendingSoul(uint256 _pid, address _user) external view returns (uint256) {\n        PoolInfo storage pool = poolInfo[_pid];\n        UserInfo storage user = userInfo[_pid][_user];\n        uint256 accSoulPerShare = pool.accSoulPerShare;\n        uint256 lpSupply = pool.lpToken.balanceOf(address(this));\n        if (block.timestamp > pool.lastRewardTime && lpSupply != 0) {\n            uint256 multiplier = getMultiplier(pool.lastRewardTime, block.timestamp);\n            uint256 soulReward = (multiplier * soulPerSecond * pool.allocPoint) / totalAllocPoint;\n            accSoulPerShare = accSoulPerShare + (soulReward * 1e12 / lpSupply);\n        }\n        return user.amount * accSoulPerShare / 1e12 - user.rewardDebt;\n    }\n\n    // UPDATE -- REWARD VARIABLES FOR ALL POOLS (HIGH GAS POSSIBLE) -- PUBLIC\n    function massUpdatePools() public {\n        uint256 length = poolInfo.length;\n        for (uint256 pid = 0; pid < length; ++pid) {\n            updatePool(pid);\n        }\n    }\n\n    // UPDATE -- REWARD VARIABLES (POOL) -- PUBLIC\n    function updatePool(uint256 _pid) public {\n        PoolInfo storage pool = poolInfo[_pid];\n        if (block.timestamp <= pool.lastRewardTime) {\n            return;\n        }\n        uint256 lpSupply = pool.lpToken.balanceOf(address(this));\n        if (lpSupply == 0) {\n            pool.lastRewardTime = block.timestamp;\n            return;\n        }\n        uint256 multiplier = getMultiplier(pool.lastRewardTime, block.timestamp);\n        uint256 soulReward = \n            (multiplier * soulPerSecond * pool.allocPoint) / totalAllocPoint;\n\n        soul.mint(team, soulReward / 8); // 12.5% SOUL per second to team\n        soul.mint(treasury, soulReward / 8); // 12.5% SOUL per second to treasury\n        \n        soul.mint(address(seance), soulReward);\n\n        pool.accSoulPerShare = pool.accSoulPerShare + (soulReward * 1e12 / lpSupply);\n\n        pool.lastRewardTime = block.timestamp;\n    }\n\n    // DEPOSIT -- LP TOKENS -- LP OWNERS\n    function deposit(uint256 _pid, uint256 _amount) public {\n\n        require (_pid != 0, 'deposit SOUL by staking');\n\n        PoolInfo storage pool = poolInfo[_pid];\n        UserInfo storage user = userInfo[_pid][msg.sender];\n        updatePool(_pid);\n        if (user.amount > 0) { // already deposited assets\n            uint256 pending = (user.amount * pool.accSoulPerShare) / 1e12 - user.rewardDebt;\n            if(pending > 0) { // sends pending rewards, if applicable\n                safeSoulTransfer(msg.sender, pending);\n            }\n        }\n\n        if (_amount > 0) { // if adding more\n            pool.lpToken.transferFrom(address(msg.sender), address(this), _amount);\n            user.amount = user.amount + _amount;\n        }\n        user.rewardDebt = user.amount * pool.accSoulPerShare / 1e12;\n        emit Deposit(msg.sender, _pid, _amount);\n    }\n\n    // WITHDRAW -- LP TOKENS -- STAKERS\n    function withdraw(uint256 _pid, uint256 _amount) public {\n\n        require (_pid != 0, 'withdraw SOUL by unstaking');\n        PoolInfo storage pool = poolInfo[_pid];\n        UserInfo storage user = userInfo[_pid][msg.sender];\n        require(user.amount >= _amount, \"withdraw: not good\");\n\n        updatePool(_pid);\n        uint256 pending = user.amount * pool.accSoulPerShare / 1e12 - user.rewardDebt;\n        if(pending > 0) {\n            safeSoulTransfer(msg.sender, pending);\n        }\n        if(_amount > 0) {\n            user.amount = user.amount - _amount;\n            pool.lpToken.transfer(address(msg.sender), _amount);\n        }\n        user.rewardDebt = user.amount * pool.accSoulPerShare / 1e12;\n        emit Withdraw(msg.sender, _pid, _amount);\n    }\n\n    // STAKE -- SOUL TO MASTERCHEF -- PUBLIC SOUL HOLDERS\n    function enterStaking(uint256 _amount) public {\n        PoolInfo storage pool = poolInfo[0];\n        UserInfo storage user = userInfo[0][msg.sender];\n        updatePool(0);\n        if (user.amount > 0) {\n            uint256 pending = user.amount * pool.accSoulPerShare/ 1e12 - user.rewardDebt;\n            if(pending > 0) {\n                safeSoulTransfer(msg.sender, pending);\n            }\n        }\n        if(_amount > 0) {\n            pool.lpToken.transferFrom(address(msg.sender), address(this), _amount);\n            user.amount = user.amount + _amount;\n        }\n        user.rewardDebt = user.amount * pool.accSoulPerShare / 1e12;\n\n        seance.mint(msg.sender, _amount);\n        emit Deposit(msg.sender, 0, _amount);\n    }\n\n    // WITHDRAW -- SOUL tokens from STAKING.\n    function leaveStaking(uint256 _amount) public {\n        PoolInfo storage pool = poolInfo[0];\n        UserInfo storage user = userInfo[0][msg.sender];\n        require(user.amount >= _amount, \"withdraw: not good\");\n        updatePool(0);\n        uint256 pending = user.amount * pool.accSoulPerShare / 1e12 - user.rewardDebt;\n        if(pending > 0) {\n            safeSoulTransfer(msg.sender, pending);\n        }\n        if(_amount > 0) {\n            user.amount = user.amount - _amount;\n            pool.lpToken.transfer(address(msg.sender), _amount);\n        }\n        user.rewardDebt = user.amount * pool.accSoulPerShare / 1e12;\n\n        seance.burn(msg.sender, _amount);\n        emit Withdraw(msg.sender, 0, _amount);\n    }\n\n    // TRANSFER -- TRANSFERS SEANCE -- INTERNAL\n    function safeSoulTransfer(address _to, uint256 _amount) internal {\n        seance.safeSoulTransfer(_to, _amount);\n    }\n\n    // UPDATE -- TREASURY ADDRESS -- TREASURY || TEAM\n    function newTreasury(address _treasury) public {\n        require(msg.sender == treasury || msg.sender == team, \"treasury: invalid permissions\");\n        treasury = _treasury;\n    }\n\n    // UPDATE -- ADMIN ADDRESS -- ADMIN\n    function newTeam(address _team) public {\n        require(msg.sender == team, \"team: le who are you?\");\n        team = _team;\n    }\n}\n",
  "sourcePath": "/Users/unico/Documents/GitHub/SoulSwap/soulswap-farms/contracts/MasterChef.sol",
  "compiler": {
    "name": "solc",
    "version": "0.8.0+commit.c7dfd78e.Emscripten.clang"
  },
  "schemaVersion": "3.4.1",
  "updatedAt": "2021-07-04T18:45:17.622Z",
  "networkType": "ethereum",
  "devdoc": {
    "kind": "dev",
    "methods": {
      "owner()": {
        "details": "Returns the address of the current owner."
      },
      "renounceOwnership()": {
        "details": "Leaves the contract without owner. It will not be possible to call `onlyOwner` functions anymore. Can only be called by the current owner. NOTE: Renouncing ownership will leave the contract without an owner, thereby removing any functionality that is only available to the owner."
      },
      "transferOwnership(address)": {
        "details": "Transfers ownership of the contract to a new account (`newOwner`). Can only be called by the current owner."
      }
    },
    "version": 1
  },
  "userdoc": {
    "kind": "user",
    "methods": {},
    "version": 1
  }
}