{
  "contractName": "MockSoulPowerAny",
  "abi": [
    {
      "inputs": [],
      "stateMutability": "nonpayable",
      "type": "constructor"
    },
    {
      "anonymous": false,
      "inputs": [
        {
          "indexed": true,
          "internalType": "address",
          "name": "owner",
          "type": "address"
        },
        {
          "indexed": true,
          "internalType": "address",
          "name": "spender",
          "type": "address"
        },
        {
          "indexed": false,
          "internalType": "uint256",
          "name": "value",
          "type": "uint256"
        }
      ],
      "name": "Approval",
      "type": "event"
    },
    {
      "anonymous": false,
      "inputs": [
        {
          "indexed": true,
          "internalType": "bytes32",
          "name": "txhash",
          "type": "bytes32"
        },
        {
          "indexed": true,
          "internalType": "address",
          "name": "account",
          "type": "address"
        },
        {
          "indexed": false,
          "internalType": "uint256",
          "name": "amount",
          "type": "uint256"
        }
      ],
      "name": "LogSwapin",
      "type": "event"
    },
    {
      "anonymous": false,
      "inputs": [
        {
          "indexed": true,
          "internalType": "address",
          "name": "account",
          "type": "address"
        },
        {
          "indexed": true,
          "internalType": "address",
          "name": "bindaddr",
          "type": "address"
        },
        {
          "indexed": false,
          "internalType": "uint256",
          "name": "amount",
          "type": "uint256"
        }
      ],
      "name": "LogSwapout",
      "type": "event"
    },
    {
      "anonymous": false,
      "inputs": [
        {
          "indexed": false,
          "internalType": "address",
          "name": "supreme",
          "type": "address"
        }
      ],
      "name": "NewSupreme",
      "type": "event"
    },
    {
      "anonymous": false,
      "inputs": [
        {
          "indexed": false,
          "internalType": "bytes32",
          "name": "role",
          "type": "bytes32"
        },
        {
          "indexed": false,
          "internalType": "address",
          "name": "oldAccount",
          "type": "address"
        },
        {
          "indexed": false,
          "internalType": "address",
          "name": "newAccount",
          "type": "address"
        }
      ],
      "name": "Rethroned",
      "type": "event"
    },
    {
      "anonymous": false,
      "inputs": [
        {
          "indexed": true,
          "internalType": "bytes32",
          "name": "role",
          "type": "bytes32"
        },
        {
          "indexed": true,
          "internalType": "bytes32",
          "name": "previousAdminRole",
          "type": "bytes32"
        },
        {
          "indexed": true,
          "internalType": "bytes32",
          "name": "newAdminRole",
          "type": "bytes32"
        }
      ],
      "name": "RoleAdminChanged",
      "type": "event"
    },
    {
      "anonymous": false,
      "inputs": [
        {
          "indexed": true,
          "internalType": "bytes32",
          "name": "role",
          "type": "bytes32"
        },
        {
          "indexed": true,
          "internalType": "address",
          "name": "account",
          "type": "address"
        },
        {
          "indexed": true,
          "internalType": "address",
          "name": "sender",
          "type": "address"
        }
      ],
      "name": "RoleGranted",
      "type": "event"
    },
    {
      "anonymous": false,
      "inputs": [
        {
          "indexed": true,
          "internalType": "bytes32",
          "name": "role",
          "type": "bytes32"
        },
        {
          "indexed": true,
          "internalType": "address",
          "name": "account",
          "type": "address"
        },
        {
          "indexed": true,
          "internalType": "address",
          "name": "sender",
          "type": "address"
        }
      ],
      "name": "RoleRevoked",
      "type": "event"
    },
    {
      "anonymous": false,
      "inputs": [
        {
          "indexed": true,
          "internalType": "address",
          "name": "from",
          "type": "address"
        },
        {
          "indexed": true,
          "internalType": "address",
          "name": "to",
          "type": "address"
        },
        {
          "indexed": false,
          "internalType": "uint256",
          "name": "value",
          "type": "uint256"
        }
      ],
      "name": "Transfer",
      "type": "event"
    },
    {
      "inputs": [],
      "name": "DEFAULT_ADMIN_ROLE",
      "outputs": [
        {
          "internalType": "bytes32",
          "name": "",
          "type": "bytes32"
        }
      ],
      "stateMutability": "view",
      "type": "function"
    },
    {
      "inputs": [
        {
          "internalType": "address",
          "name": "",
          "type": "address"
        },
        {
          "internalType": "address",
          "name": "",
          "type": "address"
        }
      ],
      "name": "allowance",
      "outputs": [
        {
          "internalType": "uint256",
          "name": "",
          "type": "uint256"
        }
      ],
      "stateMutability": "view",
      "type": "function"
    },
    {
      "inputs": [],
      "name": "anunnaki",
      "outputs": [
        {
          "internalType": "bytes32",
          "name": "",
          "type": "bytes32"
        }
      ],
      "stateMutability": "view",
      "type": "function"
    },
    {
      "inputs": [
        {
          "internalType": "address",
          "name": "",
          "type": "address"
        }
      ],
      "name": "balanceOf",
      "outputs": [
        {
          "internalType": "uint256",
          "name": "",
          "type": "uint256"
        }
      ],
      "stateMutability": "view",
      "type": "function"
    },
    {
      "inputs": [],
      "name": "decimals",
      "outputs": [
        {
          "internalType": "uint8",
          "name": "",
          "type": "uint8"
        }
      ],
      "stateMutability": "view",
      "type": "function"
    },
    {
      "inputs": [
        {
          "internalType": "bytes32",
          "name": "role",
          "type": "bytes32"
        }
      ],
      "name": "getRoleAdmin",
      "outputs": [
        {
          "internalType": "bytes32",
          "name": "",
          "type": "bytes32"
        }
      ],
      "stateMutability": "view",
      "type": "function"
    },
    {
      "inputs": [
        {
          "internalType": "bytes32",
          "name": "role",
          "type": "bytes32"
        },
        {
          "internalType": "address",
          "name": "account",
          "type": "address"
        }
      ],
      "name": "grantRole",
      "outputs": [],
      "stateMutability": "nonpayable",
      "type": "function"
    },
    {
      "inputs": [
        {
          "internalType": "bytes32",
          "name": "role",
          "type": "bytes32"
        },
        {
          "internalType": "address",
          "name": "account",
          "type": "address"
        }
      ],
      "name": "hasRole",
      "outputs": [
        {
          "internalType": "bool",
          "name": "",
          "type": "bool"
        }
      ],
      "stateMutability": "view",
      "type": "function"
    },
    {
      "inputs": [
        {
          "internalType": "address",
          "name": "",
          "type": "address"
        }
      ],
      "name": "isMinter",
      "outputs": [
        {
          "internalType": "bool",
          "name": "",
          "type": "bool"
        }
      ],
      "stateMutability": "view",
      "type": "function"
    },
    {
      "inputs": [],
      "name": "isUnderlyingImmutable",
      "outputs": [
        {
          "internalType": "bool",
          "name": "",
          "type": "bool"
        }
      ],
      "stateMutability": "view",
      "type": "function"
    },
    {
      "inputs": [
        {
          "internalType": "address",
          "name": "",
          "type": "address"
        }
      ],
      "name": "isVault",
      "outputs": [
        {
          "internalType": "bool",
          "name": "",
          "type": "bool"
        }
      ],
      "stateMutability": "view",
      "type": "function"
    },
    {
      "inputs": [
        {
          "internalType": "uint256",
          "name": "",
          "type": "uint256"
        }
      ],
      "name": "minters",
      "outputs": [
        {
          "internalType": "address",
          "name": "",
          "type": "address"
        }
      ],
      "stateMutability": "view",
      "type": "function"
    },
    {
      "inputs": [],
      "name": "name",
      "outputs": [
        {
          "internalType": "string",
          "name": "",
          "type": "string"
        }
      ],
      "stateMutability": "view",
      "type": "function"
    },
    {
      "inputs": [
        {
          "internalType": "bytes32",
          "name": "role",
          "type": "bytes32"
        },
        {
          "internalType": "address",
          "name": "account",
          "type": "address"
        }
      ],
      "name": "renounceRole",
      "outputs": [],
      "stateMutability": "nonpayable",
      "type": "function"
    },
    {
      "inputs": [
        {
          "internalType": "bytes32",
          "name": "role",
          "type": "bytes32"
        },
        {
          "internalType": "address",
          "name": "account",
          "type": "address"
        }
      ],
      "name": "revokeRole",
      "outputs": [],
      "stateMutability": "nonpayable",
      "type": "function"
    },
    {
      "inputs": [],
      "name": "sophia",
      "outputs": [
        {
          "internalType": "bytes32",
          "name": "",
          "type": "bytes32"
        }
      ],
      "stateMutability": "view",
      "type": "function"
    },
    {
      "inputs": [
        {
          "internalType": "bytes4",
          "name": "interfaceId",
          "type": "bytes4"
        }
      ],
      "name": "supportsInterface",
      "outputs": [
        {
          "internalType": "bool",
          "name": "",
          "type": "bool"
        }
      ],
      "stateMutability": "view",
      "type": "function"
    },
    {
      "inputs": [],
      "name": "supreme",
      "outputs": [
        {
          "internalType": "address",
          "name": "",
          "type": "address"
        }
      ],
      "stateMutability": "view",
      "type": "function"
    },
    {
      "inputs": [],
      "name": "symbol",
      "outputs": [
        {
          "internalType": "string",
          "name": "",
          "type": "string"
        }
      ],
      "stateMutability": "view",
      "type": "function"
    },
    {
      "inputs": [],
      "name": "thoth",
      "outputs": [
        {
          "internalType": "bytes32",
          "name": "",
          "type": "bytes32"
        }
      ],
      "stateMutability": "view",
      "type": "function"
    },
    {
      "inputs": [],
      "name": "underlying",
      "outputs": [
        {
          "internalType": "address",
          "name": "",
          "type": "address"
        }
      ],
      "stateMutability": "view",
      "type": "function"
    },
    {
      "inputs": [],
      "name": "underlyingIsMinted",
      "outputs": [
        {
          "internalType": "bool",
          "name": "",
          "type": "bool"
        }
      ],
      "stateMutability": "view",
      "type": "function"
    },
    {
      "inputs": [],
      "name": "vault",
      "outputs": [
        {
          "internalType": "address",
          "name": "",
          "type": "address"
        }
      ],
      "stateMutability": "view",
      "type": "function"
    },
    {
      "inputs": [
        {
          "internalType": "uint256",
          "name": "",
          "type": "uint256"
        }
      ],
      "name": "vaults",
      "outputs": [
        {
          "internalType": "address",
          "name": "",
          "type": "address"
        }
      ],
      "stateMutability": "view",
      "type": "function"
    },
    {
      "inputs": [],
      "name": "owner",
      "outputs": [
        {
          "internalType": "address",
          "name": "",
          "type": "address"
        }
      ],
      "stateMutability": "view",
      "type": "function"
    },
    {
      "inputs": [],
      "name": "mpc",
      "outputs": [
        {
          "internalType": "address",
          "name": "",
          "type": "address"
        }
      ],
      "stateMutability": "view",
      "type": "function"
    },
    {
      "inputs": [
        {
          "internalType": "bool",
          "name": "enabled",
          "type": "bool"
        }
      ],
      "name": "setVaultOnly",
      "outputs": [],
      "stateMutability": "nonpayable",
      "type": "function"
    },
    {
      "inputs": [
        {
          "internalType": "address",
          "name": "_vault",
          "type": "address"
        }
      ],
      "name": "initVault",
      "outputs": [],
      "stateMutability": "nonpayable",
      "type": "function"
    },
    {
      "inputs": [
        {
          "internalType": "bool",
          "name": "enabled",
          "type": "bool"
        }
      ],
      "name": "toggleInit",
      "outputs": [],
      "stateMutability": "nonpayable",
      "type": "function"
    },
    {
      "inputs": [],
      "name": "revokeInit",
      "outputs": [],
      "stateMutability": "nonpayable",
      "type": "function"
    },
    {
      "inputs": [
        {
          "internalType": "bytes32",
          "name": "role",
          "type": "bytes32"
        }
      ],
      "name": "hasDivineRole",
      "outputs": [
        {
          "internalType": "bool",
          "name": "",
          "type": "bool"
        }
      ],
      "stateMutability": "view",
      "type": "function"
    },
    {
      "inputs": [
        {
          "internalType": "address",
          "name": "_minter",
          "type": "address"
        }
      ],
      "name": "setMinter",
      "outputs": [],
      "stateMutability": "nonpayable",
      "type": "function"
    },
    {
      "inputs": [
        {
          "internalType": "address",
          "name": "_vault",
          "type": "address"
        }
      ],
      "name": "setVault",
      "outputs": [],
      "stateMutability": "nonpayable",
      "type": "function"
    },
    {
      "inputs": [
        {
          "internalType": "address",
          "name": "_minter",
          "type": "address"
        }
      ],
      "name": "revokeMinter",
      "outputs": [],
      "stateMutability": "nonpayable",
      "type": "function"
    },
    {
      "inputs": [
        {
          "internalType": "address",
          "name": "_vault",
          "type": "address"
        }
      ],
      "name": "revokeVault",
      "outputs": [],
      "stateMutability": "nonpayable",
      "type": "function"
    },
    {
      "inputs": [
        {
          "internalType": "address",
          "name": "_immutableUnderlying",
          "type": "address"
        }
      ],
      "name": "setImmutableUnderlying",
      "outputs": [],
      "stateMutability": "nonpayable",
      "type": "function"
    },
    {
      "inputs": [],
      "name": "getAllMinters",
      "outputs": [
        {
          "internalType": "address[]",
          "name": "",
          "type": "address[]"
        }
      ],
      "stateMutability": "view",
      "type": "function"
    },
    {
      "inputs": [],
      "name": "getAllVaults",
      "outputs": [
        {
          "internalType": "address[]",
          "name": "",
          "type": "address[]"
        }
      ],
      "stateMutability": "view",
      "type": "function"
    },
    {
      "inputs": [
        {
          "internalType": "address",
          "name": "to",
          "type": "address"
        },
        {
          "internalType": "uint256",
          "name": "amount",
          "type": "uint256"
        }
      ],
      "name": "mint",
      "outputs": [
        {
          "internalType": "bool",
          "name": "",
          "type": "bool"
        }
      ],
      "stateMutability": "nonpayable",
      "type": "function"
    },
    {
      "inputs": [
        {
          "internalType": "address",
          "name": "from",
          "type": "address"
        },
        {
          "internalType": "uint256",
          "name": "amount",
          "type": "uint256"
        }
      ],
      "name": "burn",
      "outputs": [
        {
          "internalType": "bool",
          "name": "",
          "type": "bool"
        }
      ],
      "stateMutability": "nonpayable",
      "type": "function"
    },
    {
      "inputs": [
        {
          "internalType": "bytes32",
          "name": "txhash",
          "type": "bytes32"
        },
        {
          "internalType": "address",
          "name": "account",
          "type": "address"
        },
        {
          "internalType": "uint256",
          "name": "amount",
          "type": "uint256"
        }
      ],
      "name": "Swapin",
      "outputs": [
        {
          "internalType": "bool",
          "name": "",
          "type": "bool"
        }
      ],
      "stateMutability": "nonpayable",
      "type": "function"
    },
    {
      "inputs": [
        {
          "internalType": "uint256",
          "name": "amount",
          "type": "uint256"
        },
        {
          "internalType": "address",
          "name": "bindaddr",
          "type": "address"
        }
      ],
      "name": "Swapout",
      "outputs": [
        {
          "internalType": "bool",
          "name": "",
          "type": "bool"
        }
      ],
      "stateMutability": "nonpayable",
      "type": "function"
    },
    {
      "inputs": [],
      "name": "totalSupply",
      "outputs": [
        {
          "internalType": "uint256",
          "name": "",
          "type": "uint256"
        }
      ],
      "stateMutability": "view",
      "type": "function"
    },
    {
      "inputs": [
        {
          "internalType": "address",
          "name": "_underlying",
          "type": "address"
        }
      ],
      "name": "newUnderlying",
      "outputs": [],
      "stateMutability": "nonpayable",
      "type": "function"
    },
    {
      "inputs": [
        {
          "internalType": "uint256",
          "name": "amount",
          "type": "uint256"
        },
        {
          "internalType": "address",
          "name": "to",
          "type": "address"
        }
      ],
      "name": "deposit",
      "outputs": [
        {
          "internalType": "uint256",
          "name": "",
          "type": "uint256"
        }
      ],
      "stateMutability": "nonpayable",
      "type": "function"
    },
    {
      "inputs": [
        {
          "internalType": "uint256",
          "name": "amount",
          "type": "uint256"
        }
      ],
      "name": "deposit",
      "outputs": [
        {
          "internalType": "uint256",
          "name": "",
          "type": "uint256"
        }
      ],
      "stateMutability": "nonpayable",
      "type": "function"
    },
    {
      "inputs": [],
      "name": "deposit",
      "outputs": [
        {
          "internalType": "uint256",
          "name": "",
          "type": "uint256"
        }
      ],
      "stateMutability": "nonpayable",
      "type": "function"
    },
    {
      "inputs": [
        {
          "internalType": "uint256",
          "name": "amount",
          "type": "uint256"
        },
        {
          "internalType": "address",
          "name": "to",
          "type": "address"
        }
      ],
      "name": "depositVault",
      "outputs": [
        {
          "internalType": "uint256",
          "name": "",
          "type": "uint256"
        }
      ],
      "stateMutability": "nonpayable",
      "type": "function"
    },
    {
      "inputs": [
        {
          "internalType": "uint256",
          "name": "amount",
          "type": "uint256"
        },
        {
          "internalType": "address",
          "name": "to",
          "type": "address"
        }
      ],
      "name": "withdraw",
      "outputs": [
        {
          "internalType": "uint256",
          "name": "",
          "type": "uint256"
        }
      ],
      "stateMutability": "nonpayable",
      "type": "function"
    },
    {
      "inputs": [
        {
          "internalType": "uint256",
          "name": "amount",
          "type": "uint256"
        }
      ],
      "name": "withdraw",
      "outputs": [
        {
          "internalType": "uint256",
          "name": "",
          "type": "uint256"
        }
      ],
      "stateMutability": "nonpayable",
      "type": "function"
    },
    {
      "inputs": [],
      "name": "withdraw",
      "outputs": [
        {
          "internalType": "uint256",
          "name": "",
          "type": "uint256"
        }
      ],
      "stateMutability": "nonpayable",
      "type": "function"
    },
    {
      "inputs": [
        {
          "internalType": "address",
          "name": "from",
          "type": "address"
        },
        {
          "internalType": "uint256",
          "name": "amount",
          "type": "uint256"
        },
        {
          "internalType": "address",
          "name": "to",
          "type": "address"
        }
      ],
      "name": "withdrawVault",
      "outputs": [
        {
          "internalType": "uint256",
          "name": "",
          "type": "uint256"
        }
      ],
      "stateMutability": "nonpayable",
      "type": "function"
    },
    {
      "inputs": [
        {
          "internalType": "bool",
          "name": "enabled",
          "type": "bool"
        }
      ],
      "name": "enableDeposits",
      "outputs": [],
      "stateMutability": "nonpayable",
      "type": "function"
    },
    {
      "inputs": [
        {
          "internalType": "bool",
          "name": "enabled",
          "type": "bool"
        }
      ],
      "name": "enableWithdrawals",
      "outputs": [],
      "stateMutability": "nonpayable",
      "type": "function"
    },
    {
      "inputs": [
        {
          "internalType": "address",
          "name": "spender",
          "type": "address"
        },
        {
          "internalType": "uint256",
          "name": "value",
          "type": "uint256"
        }
      ],
      "name": "approve",
      "outputs": [
        {
          "internalType": "bool",
          "name": "",
          "type": "bool"
        }
      ],
      "stateMutability": "nonpayable",
      "type": "function"
    },
    {
      "inputs": [
        {
          "internalType": "address",
          "name": "to",
          "type": "address"
        },
        {
          "internalType": "uint256",
          "name": "value",
          "type": "uint256"
        }
      ],
      "name": "transfer",
      "outputs": [
        {
          "internalType": "bool",
          "name": "",
          "type": "bool"
        }
      ],
      "stateMutability": "nonpayable",
      "type": "function"
    },
    {
      "inputs": [
        {
          "internalType": "address",
          "name": "from",
          "type": "address"
        },
        {
          "internalType": "address",
          "name": "to",
          "type": "address"
        },
        {
          "internalType": "uint256",
          "name": "value",
          "type": "uint256"
        }
      ],
      "name": "transferFrom",
      "outputs": [
        {
          "internalType": "bool",
          "name": "",
          "type": "bool"
        }
      ],
      "stateMutability": "nonpayable",
      "type": "function"
    },
    {
      "inputs": [
        {
          "internalType": "bytes32",
          "name": "role",
          "type": "bytes32"
        },
        {
          "internalType": "address",
          "name": "oldAccount",
          "type": "address"
        },
        {
          "internalType": "address",
          "name": "newAccount",
          "type": "address"
        }
      ],
      "name": "rethroneRitual",
      "outputs": [],
      "stateMutability": "nonpayable",
      "type": "function"
    },
    {
      "inputs": [
        {
          "internalType": "address",
          "name": "_supreme",
          "type": "address"
        }
      ],
      "name": "newSupreme",
      "outputs": [],
      "stateMutability": "nonpayable",
      "type": "function"
    }
  ],
  "bytecode": "0x60a06040523480156200001157600080fd5b506040518060400160405280600981526020017f536f756c506f776572000000000000000000000000000000000000000000000081525060019081620000589190620009df565b506040518060400160405280600481526020017f534f554c00000000000000000000000000000000000000000000000000000000815250600290816200009f9190620009df565b50601260ff1660808160ff16815250506000600360006101000a81548173ffffffffffffffffffffffffffffffffffffffff021916908373ffffffffffffffffffffffffffffffffffffffff16021790555033600b60006101000a81548173ffffffffffffffffffffffffffffffffffffffff021916908373ffffffffffffffffffffffffffffffffffffffff1602179055507f45552d869603260d0572333b5da740bb4eaf623685d53936ee462b64a9a77182600c819055507fdffb0b033b8033405f5fb07b08f48c89fa1b4a3d5d5a475c3e2b8df5fbd4da0d600d819055507f43454ffed9974b83651b569812bcb36a5616213b94bdd673556166e9ac7d1796600e819055506001600660006101000a81548160ff0219169083151502179055506000600660156101000a81548160ff021916908315150217905550620001ee336200031860201b60201c565b620002296000801b6000801b600b60009054906101000a900473ffffffffffffffffffffffffffffffffffffffff16620003f060201b60201c565b62000262600c54600c54600b60009054906101000a900473ffffffffffffffffffffffffffffffffffffffff16620003f060201b60201c565b6200029b600d54600c54600b60009054906101000a900473ffffffffffffffffffffffffffffffffffffffff16620003f060201b60201c565b620002d4600e54600c54600b60009054906101000a900473ffffffffffffffffffffffffffffffffffffffff16620003f060201b60201c565b62000312600b60009054906101000a900473ffffffffffffffffffffffffffffffffffffffff16690472698b413b432000006200041960201b60201c565b62000c79565b600073ffffffffffffffffffffffffffffffffffffffff168173ffffffffffffffffffffffffffffffffffffffff16036200038a576040517f08c379a0000000000000000000000000000000000000000000000000000000008152600401620003819062000b4d565b60405180910390fd5b600a819080600181540180825580915050600190039060005260206000200160009091909190916101000a81548173ffffffffffffffffffffffffffffffffffffffff021916908373ffffffffffffffffffffffffffffffffffffffff16021790555050565b6200040283826200056a60201b60201c565b6200041483836200058060201b60201c565b505050565b600073ffffffffffffffffffffffffffffffffffffffff168273ffffffffffffffffffffffffffffffffffffffff16036200048b576040517f08c379a0000000000000000000000000000000000000000000000000000000008152600401620004829062000bbf565b60405180910390fd5b80600560008282546200049f919062000c10565b9250508190555080600460008473ffffffffffffffffffffffffffffffffffffffff1673ffffffffffffffffffffffffffffffffffffffff1681526020019081526020016000206000828254620004f7919062000c10565b925050819055508173ffffffffffffffffffffffffffffffffffffffff16600073ffffffffffffffffffffffffffffffffffffffff167fddf252ad1be2c89b69c2b068fc378daa952ba7f163c4a11628f55a4df523b3ef836040516200055e919062000c5c565b60405180910390a35050565b6200057c8282620005e360201b60201c565b5050565b60006200059383620006d460201b60201c565b905081600080858152602001908152602001600020600101819055508181847fbd79b86ffe0ab8e8776151514217cd7cacd52c909f66475c3af44e129f0b00ff60405160405180910390a4505050565b620005f58282620006f360201b60201c565b620006d057600160008084815260200190815260200160002060000160008373ffffffffffffffffffffffffffffffffffffffff1673ffffffffffffffffffffffffffffffffffffffff16815260200190815260200160002060006101000a81548160ff021916908315150217905550620006756200075d60201b60201c565b73ffffffffffffffffffffffffffffffffffffffff168173ffffffffffffffffffffffffffffffffffffffff16837f2f8788117e7eff1d82e926ec794901d17c78024a50270940304540a733656f0d60405160405180910390a45b5050565b6000806000838152602001908152602001600020600101549050919050565b600080600084815260200190815260200160002060000160008373ffffffffffffffffffffffffffffffffffffffff1673ffffffffffffffffffffffffffffffffffffffff16815260200190815260200160002060009054906101000a900460ff16905092915050565b600033905090565b600081519050919050565b7f4e487b7100000000000000000000000000000000000000000000000000000000600052604160045260246000fd5b7f4e487b7100000000000000000000000000000000000000000000000000000000600052602260045260246000fd5b60006002820490506001821680620007e757607f821691505b602082108103620007fd57620007fc6200079f565b5b50919050565b60008190508160005260206000209050919050565b60006020601f8301049050919050565b600082821b905092915050565b600060088302620008677fffffffffffffffffffffffffffffffffffffffffffffffffffffffffffffffff8262000828565b62000873868362000828565b95508019841693508086168417925050509392505050565b6000819050919050565b6000819050919050565b6000620008c0620008ba620008b4846200088b565b62000895565b6200088b565b9050919050565b6000819050919050565b620008dc836200089f565b620008f4620008eb82620008c7565b84845462000835565b825550505050565b600090565b6200090b620008fc565b62000918818484620008d1565b505050565b5b8181101562000940576200093460008262000901565b6001810190506200091e565b5050565b601f8211156200098f57620009598162000803565b620009648462000818565b8101602085101562000974578190505b6200098c620009838562000818565b8301826200091d565b50505b505050565b600082821c905092915050565b6000620009b46000198460080262000994565b1980831691505092915050565b6000620009cf8383620009a1565b9150826002028217905092915050565b620009ea8262000765565b67ffffffffffffffff81111562000a065762000a0562000770565b5b62000a128254620007ce565b62000a1f82828562000944565b600060209050601f83116001811462000a57576000841562000a42578287015190505b62000a4e8582620009c1565b86555062000abe565b601f19841662000a678662000803565b60005b8281101562000a915784890151825560018201915060208501945060208101905062000a6a565b8683101562000ab1578489015162000aad601f891682620009a1565b8355505b6001600288020188555050505b505050505050565b600082825260208201905092915050565b7f536f756c506f7765723a2063616e6e6f7420736574207661756c7420746f206160008201527f6464726573732830290000000000000000000000000000000000000000000000602082015250565b600062000b3560298362000ac6565b915062000b428262000ad7565b604082019050919050565b6000602082019050818103600083015262000b688162000b26565b9050919050565b7f63616e6e6f74206d696e7420746f20746865207a65726f206164647265737300600082015250565b600062000ba7601f8362000ac6565b915062000bb48262000b6f565b602082019050919050565b6000602082019050818103600083015262000bda8162000b98565b9050919050565b7f4e487b7100000000000000000000000000000000000000000000000000000000600052601160045260246000fd5b600062000c1d826200088b565b915062000c2a836200088b565b925082820190508082111562000c455762000c4462000be1565b5b92915050565b62000c56816200088b565b82525050565b600060208201905062000c73600083018462000c4b565b92915050565b6080516155db62000c95600039600061157701526155db6000f3fe608060405234801561001057600080fd5b50600436106103975760003560e01c806375ea6798116101e9578063aa271e1a1161010f578063d547741f116100ad578063ec126c771161007c578063ec126c7714610b68578063f75c266414610b98578063fbfa77cf14610bb6578063fca3b5aa14610bd457610397565b8063d547741f14610ace578063d6c7975114610aea578063dbaef9b014610b08578063dd62ed3e14610b3857610397565b8063c3fb16ca116100e9578063c3fb16ca14610a5c578063c4b740f514610a78578063cfbd488514610a94578063d0e30db014610ab057610397565b8063aa271e1a146109cc578063b6b55f25146109fc578063bebbf4d014610a2c57610397565b806397331bf911610187578063a217fddf11610156578063a217fddf14610944578063a6ed77ee14610962578063a7e3c79714610980578063a9059cbb1461099c57610397565b806397331bf9146108bc5780639aeb3727146108da5780639dc29fac146108f6578063a045442c1461092657610397565b80638c64ea4a116101c35780638c64ea4a146108205780638da5cb5b1461085057806391d148541461086e57806395d89b411461089e57610397565b806375ea6798146107c857806383ff5c04146107d25780638623ec7b146107f057610397565b8063313ce567116102ce578063628d6cba1161026c5780636e553f651161023b5780636e553f651461072e5780636f307dc31461075e57806370a082311461077c578063743d507c146107ac57610397565b8063628d6cba14610696578063652b9b41146106c65780636817031b146106f65780636dad29ea1461071257610397565b806340c10f19116102a857806340c10f191461061057806348f8bfea146106405780634abd9d131461065e57806357cdbf2a1461067a57610397565b8063313ce567146105b857806336568abe146105d65780633ccfd60b146105f257610397565b806318160ddd1161033b578063248a9ca311610315578063248a9ca3146105205780632e1a7d4d146105505780632ebe3fbb146105805780632f2ff15d1461059c57610397565b806318160ddd146104b457806322763d97146104d257806323b872dd146104f057610397565b806306fdde031161037757806306fdde031461042c578063095ea7b31461044a578063112338981461047a578063155dfb501461049657610397565b806239d6ec1461039c578062f714ce146103cc57806301ffc9a7146103fc575b600080fd5b6103b660048036038101906103b19190613e8c565b610bf0565b6040516103c39190613eee565b60405180910390f35b6103e660048036038101906103e19190613f09565b610c96565b6040516103f39190613eee565b60405180910390f35b61041660048036038101906104119190613fa1565b610cab565b6040516104239190613fe9565b60405180910390f35b610434610d25565b6040516104419190614094565b60405180910390f35b610464600480360381019061045f91906140b6565b610db3565b6040516104719190613fe9565b60405180910390f35b610494600480360381019061048f9190614122565b610ea5565b005b61049e610f52565b6040516104ab9190614168565b60405180910390f35b6104bc610f58565b6040516104c99190613eee565b60405180910390f35b6104da610f62565b6040516104e79190613fe9565b60405180910390f35b61050a60048036038101906105059190614183565b610f75565b6040516105179190613fe9565b60405180910390f35b61053a60048036038101906105359190614202565b61139d565b6040516105479190614168565b60405180910390f35b61056a6004803603810190610565919061422f565b6113bc565b6040516105779190613eee565b60405180910390f35b61059a6004803603810190610595919061425c565b6113d0565b005b6105b660048036038101906105b19190614289565b61154c565b005b6105c0611575565b6040516105cd91906142e5565b60405180910390f35b6105f060048036038101906105eb9190614289565b611599565b005b6105fa61161c565b6040516106079190613eee565b60405180910390f35b61062a600480360381019061062591906140b6565b61166d565b6040516106379190613fe9565b60405180910390f35b610648611698565b604051610655919061430f565b60405180910390f35b6106786004803603810190610673919061425c565b6116be565b005b610694600480360381019061068f9190614122565b611767565b005b6106b060048036038101906106ab9190613f09565b611814565b6040516106bd9190613fe9565b60405180910390f35b6106e060048036038101906106db919061425c565b611a45565b6040516106ed9190613fe9565b60405180910390f35b610710600480360381019061070b919061425c565b611a65565b005b61072c6004803603810190610727919061425c565b611b01565b005b61074860048036038101906107439190613f09565b611c40565b6040516107559190613eee565b60405180910390f35b610766611ca3565b604051610773919061430f565b60405180910390f35b6107966004803603810190610791919061425c565b611cc9565b6040516107a39190613eee565b60405180910390f35b6107c660048036038101906107c1919061432a565b611ce1565b005b6107d0611db6565b005b6107da611eb3565b6040516107e79190614168565b60405180910390f35b61080a6004803603810190610805919061422f565b611eb9565b604051610817919061430f565b60405180910390f35b61083a6004803603810190610835919061422f565b611ef8565b604051610847919061430f565b60405180910390f35b610858611f37565b604051610865919061430f565b60405180910390f35b61088860048036038101906108839190614289565b611f61565b6040516108959190613fe9565b60405180910390f35b6108a6611fcb565b6040516108b39190614094565b60405180910390f35b6108c4612059565b6040516108d1919061443b565b60405180910390f35b6108f460048036038101906108ef919061425c565b6120e7565b005b610910600480360381019061090b91906140b6565b612259565b60405161091d9190613fe9565b60405180910390f35b61092e612284565b60405161093b919061443b565b60405180910390f35b61094c612312565b6040516109599190614168565b60405180910390f35b61096a612319565b6040516109779190614168565b60405180910390f35b61099a60048036038101906109959190614122565b61231f565b005b6109b660048036038101906109b191906140b6565b61241c565b6040516109c39190613fe9565b60405180910390f35b6109e660048036038101906109e1919061425c565b61262b565b6040516109f39190613fe9565b60405180910390f35b610a166004803603810190610a11919061422f565b61264b565b604051610a239190613eee565b60405180910390f35b610a466004803603810190610a419190613f09565b6126ad565b604051610a539190613eee565b60405180910390f35b610a766004803603810190610a71919061425c565b612751565b005b610a926004803603810190610a8d9190614122565b61283c565b005b610aae6004803603810190610aa9919061425c565b6128e9565b005b610ab86129d4565b604051610ac59190613eee565b60405180910390f35b610ae86004803603810190610ae39190614289565b612ad4565b005b610af2612afd565b604051610aff9190613fe9565b60405180910390f35b610b226004803603810190610b1d9190614202565b612b02565b604051610b2f9190613fe9565b60405180910390f35b610b526004803603810190610b4d919061445d565b612b15565b604051610b5f9190613eee565b60405180910390f35b610b826004803603810190610b7d919061449d565b612b3a565b604051610b8f9190613fe9565b60405180910390f35b610ba0612d07565b604051610bad919061430f565b60405180910390f35b610bbe612d31565b604051610bcb919061430f565b60405180910390f35b610bee6004803603810190610be9919061425c565b612d57565b005b6000600b60009054906101000a900473ffffffffffffffffffffffffffffffffffffffff1673ffffffffffffffffffffffffffffffffffffffff163373ffffffffffffffffffffffffffffffffffffffff1614610c82576040517f08c379a0000000000000000000000000000000000000000000000000000000008152600401610c799061453c565b60405180910390fd5b610c8d848484612df3565b90509392505050565b6000610ca3338484612df3565b905092915050565b60007f7965db0b000000000000000000000000000000000000000000000000000000007bffffffffffffffffffffffffffffffffffffffffffffffffffffffff1916827bffffffffffffffffffffffffffffffffffffffffffffffffffffffff19161480610d1e5750610d1d82612fd1565b5b9050919050565b60018054610d329061458b565b80601f0160208091040260200160405190810160405280929190818152602001828054610d5e9061458b565b8015610dab5780601f10610d8057610100808354040283529160200191610dab565b820191906000526020600020905b815481529060010190602001808311610d8e57829003601f168201915b505050505081565b600081600f60003373ffffffffffffffffffffffffffffffffffffffff1673ffffffffffffffffffffffffffffffffffffffff16815260200190815260200160002060008573ffffffffffffffffffffffffffffffffffffffff1673ffffffffffffffffffffffffffffffffffffffff168152602001908152602001600020819055508273ffffffffffffffffffffffffffffffffffffffff163373ffffffffffffffffffffffffffffffffffffffff167f8c5be1e5ebec7d5bd14f71427d1e84f3dd0314c0f7b2291e5b200ac8c7c3b92584604051610e939190613eee565b60405180910390a36001905092915050565b600b60009054906101000a900473ffffffffffffffffffffffffffffffffffffffff1673ffffffffffffffffffffffffffffffffffffffff163373ffffffffffffffffffffffffffffffffffffffff1614610f35576040517f08c379a0000000000000000000000000000000000000000000000000000000008152600401610f2c9061453c565b60405180910390fd5b80600660186101000a81548160ff02191690831515021790555050565b600c5481565b6000600554905090565b600360149054906101000a900460ff1681565b60008073ffffffffffffffffffffffffffffffffffffffff168373ffffffffffffffffffffffffffffffffffffffff1614158015610fdf57503073ffffffffffffffffffffffffffffffffffffffff168373ffffffffffffffffffffffffffffffffffffffff1614155b610fe857600080fd5b3373ffffffffffffffffffffffffffffffffffffffff168473ffffffffffffffffffffffffffffffffffffffff1614611200576000600f60008673ffffffffffffffffffffffffffffffffffffffff1673ffffffffffffffffffffffffffffffffffffffff16815260200190815260200160002060003373ffffffffffffffffffffffffffffffffffffffff1673ffffffffffffffffffffffffffffffffffffffff1681526020019081526020016000205490507fffffffffffffffffffffffffffffffffffffffffffffffffffffffffffffffff81146111fe5782811015611106576040517f08c379a00000000000000000000000000000000000000000000000000000000081526004016110fd9061462e565b60405180910390fd5b60008382611114919061467d565b905080600f60008873ffffffffffffffffffffffffffffffffffffffff1673ffffffffffffffffffffffffffffffffffffffff16815260200190815260200160002060003373ffffffffffffffffffffffffffffffffffffffff1673ffffffffffffffffffffffffffffffffffffffff168152602001908152602001600020819055503373ffffffffffffffffffffffffffffffffffffffff168673ffffffffffffffffffffffffffffffffffffffff167f8c5be1e5ebec7d5bd14f71427d1e84f3dd0314c0f7b2291e5b200ac8c7c3b925836040516111f49190613eee565b60405180910390a3505b505b6000600460008673ffffffffffffffffffffffffffffffffffffffff1673ffffffffffffffffffffffffffffffffffffffff16815260200190815260200160002054905082811015611287576040517f08c379a000000000000000000000000000000000000000000000000000000000815260040161127e90614723565b60405180910390fd5b8281611293919061467d565b600460008773ffffffffffffffffffffffffffffffffffffffff1673ffffffffffffffffffffffffffffffffffffffff1681526020019081526020016000208190555082600460008673ffffffffffffffffffffffffffffffffffffffff1673ffffffffffffffffffffffffffffffffffffffff16815260200190815260200160002060008282546113259190614743565b925050819055508373ffffffffffffffffffffffffffffffffffffffff168573ffffffffffffffffffffffffffffffffffffffff167fddf252ad1be2c89b69c2b068fc378daa952ba7f163c4a11628f55a4df523b3ef856040516113899190613eee565b60405180910390a360019150509392505050565b6000806000838152602001908152602001600020600101549050919050565b60006113c9338333612df3565b9050919050565b600b60009054906101000a900473ffffffffffffffffffffffffffffffffffffffff1673ffffffffffffffffffffffffffffffffffffffff163373ffffffffffffffffffffffffffffffffffffffff1614611460576040517f08c379a00000000000000000000000000000000000000000000000000000000081526004016114579061453c565b60405180910390fd5b600660169054906101000a900460ff16156114b0576040517f08c379a00000000000000000000000000000000000000000000000000000000081526004016114a7906147c3565b60405180910390fd5b80600660016101000a81548173ffffffffffffffffffffffffffffffffffffffff021916908373ffffffffffffffffffffffffffffffffffffffff1602179055506001600760008373ffffffffffffffffffffffffffffffffffffffff1673ffffffffffffffffffffffffffffffffffffffff16815260200190815260200160002060006101000a81548160ff02191690831515021790555050565b6115558261139d565b6115668161156161303b565b613043565b61157083836130e0565b505050565b7f000000000000000000000000000000000000000000000000000000000000000081565b6115a161303b565b73ffffffffffffffffffffffffffffffffffffffff168173ffffffffffffffffffffffffffffffffffffffff161461160e576040517f08c379a000000000000000000000000000000000000000000000000000000000815260040161160590614855565b60405180910390fd5b61161882826131c0565b5050565b600061166833600460003373ffffffffffffffffffffffffffffffffffffffff1673ffffffffffffffffffffffffffffffffffffffff1681526020019081526020016000205433612df3565b905090565b6000600d546116838161167e61303b565b613043565b61168d84846132a1565b600191505092915050565b600b60009054906101000a900473ffffffffffffffffffffffffffffffffffffffff1681565b600c546116d2816116cd61303b565b613043565b600360149054906101000a900460ff1615611722576040517f08c379a0000000000000000000000000000000000000000000000000000000008152600401611719906148c1565b60405180910390fd5b81600360006101000a81548173ffffffffffffffffffffffffffffffffffffffff021916908373ffffffffffffffffffffffffffffffffffffffff1602179055505050565b600b60009054906101000a900473ffffffffffffffffffffffffffffffffffffffff1673ffffffffffffffffffffffffffffffffffffffff163373ffffffffffffffffffffffffffffffffffffffff16146117f7576040517f08c379a00000000000000000000000000000000000000000000000000000000081526004016117ee9061453c565b60405180910390fd5b80600660176101000a81548160ff02191690831515021790555050565b6000600660159054906101000a900460ff1615611866576040517f08c379a000000000000000000000000000000000000000000000000000000000815260040161185d9061492d565b60405180910390fd5b600073ffffffffffffffffffffffffffffffffffffffff168273ffffffffffffffffffffffffffffffffffffffff16036118d5576040517f08c379a00000000000000000000000000000000000000000000000000000000081526004016118cc90614999565b60405180910390fd5b600073ffffffffffffffffffffffffffffffffffffffff16600360009054906101000a900473ffffffffffffffffffffffffffffffffffffffff1673ffffffffffffffffffffffffffffffffffffffff1614158015611972575082600460003373ffffffffffffffffffffffffffffffffffffffff1673ffffffffffffffffffffffffffffffffffffffff16815260200190815260200160002054105b156119cb576119c6333085600360009054906101000a900473ffffffffffffffffffffffffffffffffffffffff1673ffffffffffffffffffffffffffffffffffffffff166133e9909392919063ffffffff16565b6119d6565b6119d53384613472565b5b8173ffffffffffffffffffffffffffffffffffffffff163373ffffffffffffffffffffffffffffffffffffffff167f6b616089d04950dc06c45c6dd787d657980543f89651aec47924752c7d16c88885604051611a339190613eee565b60405180910390a36001905092915050565b60086020528060005260406000206000915054906101000a900460ff1681565b600b60009054906101000a900473ffffffffffffffffffffffffffffffffffffffff1673ffffffffffffffffffffffffffffffffffffffff163373ffffffffffffffffffffffffffffffffffffffff1614611af5576040517f08c379a0000000000000000000000000000000000000000000000000000000008152600401611aec9061453c565b60405180910390fd5b611afe8161363b565b50565b600b60009054906101000a900473ffffffffffffffffffffffffffffffffffffffff1673ffffffffffffffffffffffffffffffffffffffff163373ffffffffffffffffffffffffffffffffffffffff1614611b91576040517f08c379a0000000000000000000000000000000000000000000000000000000008152600401611b889061453c565b60405180910390fd5b600360149054906101000a900460ff1615611be1576040517f08c379a0000000000000000000000000000000000000000000000000000000008152600401611bd890614a05565b60405180910390fd5b80600360006101000a81548173ffffffffffffffffffffffffffffffffffffffff021916908373ffffffffffffffffffffffffffffffffffffffff1602179055506001600360146101000a81548160ff02191690831515021790555050565b6000611c91333085600360009054906101000a900473ffffffffffffffffffffffffffffffffffffffff1673ffffffffffffffffffffffffffffffffffffffff166133e9909392919063ffffffff16565b611c9b8383613710565b905092915050565b600360009054906101000a900473ffffffffffffffffffffffffffffffffffffffff1681565b60046020528060005260406000206000915090505481565b82611cf381611cee61303b565b613043565b8173ffffffffffffffffffffffffffffffffffffffff168373ffffffffffffffffffffffffffffffffffffffff1603611d61576040517f08c379a0000000000000000000000000000000000000000000000000000000008152600401611d5890614a71565b60405180910390fd5b611d6b848361154c565b611d758484611599565b7f61d8718e0a8cd948a81621b18092fb2d08d9c1d961369cbf16aab6dc46e3e4b1848484604051611da893929190614a91565b60405180910390a150505050565b600b60009054906101000a900473ffffffffffffffffffffffffffffffffffffffff1673ffffffffffffffffffffffffffffffffffffffff163373ffffffffffffffffffffffffffffffffffffffff1614611e46576040517f08c379a0000000000000000000000000000000000000000000000000000000008152600401611e3d9061453c565b60405180910390fd5b600660169054906101000a900460ff1615611e96576040517f08c379a0000000000000000000000000000000000000000000000000000000008152600401611e8d90614b14565b60405180910390fd5b6001600660166101000a81548160ff021916908315150217905550565b600e5481565b60098181548110611ec957600080fd5b906000526020600020016000915054906101000a900473ffffffffffffffffffffffffffffffffffffffff1681565b600a8181548110611f0857600080fd5b906000526020600020016000915054906101000a900473ffffffffffffffffffffffffffffffffffffffff1681565b6000600b60009054906101000a900473ffffffffffffffffffffffffffffffffffffffff16905090565b600080600084815260200190815260200160002060000160008373ffffffffffffffffffffffffffffffffffffffff1673ffffffffffffffffffffffffffffffffffffffff16815260200190815260200160002060009054906101000a900460ff16905092915050565b60028054611fd89061458b565b80601f01602080910402602001604051908101604052809291908181526020018280546120049061458b565b80156120515780601f1061202657610100808354040283529160200191612051565b820191906000526020600020905b81548152906001019060200180831161203457829003601f168201915b505050505081565b6060600a8054806020026020016040519081016040528092919081815260200182805480156120dd57602002820191906000526020600020905b8160009054906101000a900473ffffffffffffffffffffffffffffffffffffffff1673ffffffffffffffffffffffffffffffffffffffff1681526020019060010190808311612093575b5050505050905090565b600c546120fb816120f661303b565b613043565b8173ffffffffffffffffffffffffffffffffffffffff16600b60009054906101000a900473ffffffffffffffffffffffffffffffffffffffff1673ffffffffffffffffffffffffffffffffffffffff160361218b576040517f08c379a000000000000000000000000000000000000000000000000000000000815260040161218290614b80565b60405180910390fd5b6121bb6000801b600b60009054906101000a900473ffffffffffffffffffffffffffffffffffffffff1684611ce1565b81600b60006101000a81548173ffffffffffffffffffffffffffffffffffffffff021916908373ffffffffffffffffffffffffffffffffffffffff1602179055507f1c881cf11671f3ab7e97a339a15f6a1d287b427944d2d36d393c0846b1d35757600b60009054906101000a900473ffffffffffffffffffffffffffffffffffffffff1660405161224d919061430f565b60405180910390a15050565b6000600e5461226f8161226a61303b565b613043565b6122798484613472565b600191505092915050565b6060600980548060200260200160405190810160405280929190818152602001828054801561230857602002820191906000526020600020905b8160009054906101000a900473ffffffffffffffffffffffffffffffffffffffff1673ffffffffffffffffffffffffffffffffffffffff16815260200190600101908083116122be575b5050505050905090565b6000801b81565b600d5481565b600b60009054906101000a900473ffffffffffffffffffffffffffffffffffffffff1673ffffffffffffffffffffffffffffffffffffffff163373ffffffffffffffffffffffffffffffffffffffff16146123af576040517f08c379a00000000000000000000000000000000000000000000000000000000081526004016123a69061453c565b60405180910390fd5b600660169054906101000a900460ff16156123ff576040517f08c379a00000000000000000000000000000000000000000000000000000000081526004016123f6906147c3565b60405180910390fd5b80600660006101000a81548160ff02191690831515021790555050565b60008073ffffffffffffffffffffffffffffffffffffffff168373ffffffffffffffffffffffffffffffffffffffff161415801561248657503073ffffffffffffffffffffffffffffffffffffffff168373ffffffffffffffffffffffffffffffffffffffff1614155b61248f57600080fd5b6000600460003373ffffffffffffffffffffffffffffffffffffffff1673ffffffffffffffffffffffffffffffffffffffff16815260200190815260200160002054905082811015612516576040517f08c379a000000000000000000000000000000000000000000000000000000000815260040161250d90614723565b60405180910390fd5b8281612522919061467d565b600460003373ffffffffffffffffffffffffffffffffffffffff1673ffffffffffffffffffffffffffffffffffffffff1681526020019081526020016000208190555082600460008673ffffffffffffffffffffffffffffffffffffffff1673ffffffffffffffffffffffffffffffffffffffff16815260200190815260200160002060008282546125b49190614743565b925050819055508373ffffffffffffffffffffffffffffffffffffffff163373ffffffffffffffffffffffffffffffffffffffff167fddf252ad1be2c89b69c2b068fc378daa952ba7f163c4a11628f55a4df523b3ef856040516126189190613eee565b60405180910390a3600191505092915050565b60076020528060005260406000206000915054906101000a900460ff1681565b600061269c333084600360009054906101000a900473ffffffffffffffffffffffffffffffffffffffff1673ffffffffffffffffffffffffffffffffffffffff166133e9909392919063ffffffff16565b6126a68233613710565b9050919050565b6000600b60009054906101000a900473ffffffffffffffffffffffffffffffffffffffff1673ffffffffffffffffffffffffffffffffffffffff163373ffffffffffffffffffffffffffffffffffffffff161461273f576040517f08c379a00000000000000000000000000000000000000000000000000000000081526004016127369061453c565b60405180910390fd5b6127498383613710565b905092915050565b600b60009054906101000a900473ffffffffffffffffffffffffffffffffffffffff1673ffffffffffffffffffffffffffffffffffffffff163373ffffffffffffffffffffffffffffffffffffffff16146127e1576040517f08c379a00000000000000000000000000000000000000000000000000000000081526004016127d89061453c565b60405180910390fd5b6000600860008373ffffffffffffffffffffffffffffffffffffffff1673ffffffffffffffffffffffffffffffffffffffff16815260200190815260200160002060006101000a81548160ff02191690831515021790555050565b600b60009054906101000a900473ffffffffffffffffffffffffffffffffffffffff1673ffffffffffffffffffffffffffffffffffffffff163373ffffffffffffffffffffffffffffffffffffffff16146128cc576040517f08c379a00000000000000000000000000000000000000000000000000000000081526004016128c39061453c565b60405180910390fd5b80600660156101000a81548160ff02191690831515021790555050565b600b60009054906101000a900473ffffffffffffffffffffffffffffffffffffffff1673ffffffffffffffffffffffffffffffffffffffff163373ffffffffffffffffffffffffffffffffffffffff1614612979576040517f08c379a00000000000000000000000000000000000000000000000000000000081526004016129709061453c565b60405180910390fd5b6000600760008373ffffffffffffffffffffffffffffffffffffffff1673ffffffffffffffffffffffffffffffffffffffff16815260200190815260200160002060006101000a81548160ff02191690831515021790555050565b600080600360009054906101000a900473ffffffffffffffffffffffffffffffffffffffff1673ffffffffffffffffffffffffffffffffffffffff166370a08231336040518263ffffffff1660e01b8152600401612a32919061430f565b602060405180830381865afa158015612a4f573d6000803e3d6000fd5b505050506040513d601f19601f82011682018060405250810190612a739190614bb5565b9050612ac4333083600360009054906101000a900473ffffffffffffffffffffffffffffffffffffffff1673ffffffffffffffffffffffffffffffffffffffff166133e9909392919063ffffffff16565b612ace8133613710565b91505090565b612add8261139d565b612aee81612ae961303b565b613043565b612af883836131c0565b505050565b600081565b6000612b0e8233611f61565b9050919050565b600f602052816000526040600020602052806000526040600020600091509150505481565b6000600d54612b5081612b4b61303b565b613043565b600073ffffffffffffffffffffffffffffffffffffffff16600360009054906101000a900473ffffffffffffffffffffffffffffffffffffffff1673ffffffffffffffffffffffffffffffffffffffff1614158015612c4a575082600360009054906101000a900473ffffffffffffffffffffffffffffffffffffffff1673ffffffffffffffffffffffffffffffffffffffff166370a08231306040518263ffffffff1660e01b8152600401612c06919061430f565b602060405180830381865afa158015612c23573d6000803e3d6000fd5b505050506040513d601f19601f82011682018060405250810190612c479190614bb5565b10155b15612ca157612c9c8484600360009054906101000a900473ffffffffffffffffffffffffffffffffffffffff1673ffffffffffffffffffffffffffffffffffffffff166138a09092919063ffffffff16565b612cac565b612cab84846132a1565b5b8373ffffffffffffffffffffffffffffffffffffffff16857f05d0634fe981be85c22e2942a880821b70095d84e152c3ea3c17a4e4250d9d6185604051612cf39190613eee565b60405180910390a360019150509392505050565b6000600b60009054906101000a900473ffffffffffffffffffffffffffffffffffffffff16905090565b600660019054906101000a900473ffffffffffffffffffffffffffffffffffffffff1681565b600b60009054906101000a900473ffffffffffffffffffffffffffffffffffffffff1673ffffffffffffffffffffffffffffffffffffffff163373ffffffffffffffffffffffffffffffffffffffff1614612de7576040517f08c379a0000000000000000000000000000000000000000000000000000000008152600401612dde9061453c565b60405180910390fd5b612df081613926565b50565b60008015612e0057600080fd5b600660189054906101000a900460ff16612e4f576040517f08c379a0000000000000000000000000000000000000000000000000000000008152600401612e4690614c2e565b60405180910390fd5b600073ffffffffffffffffffffffffffffffffffffffff16600360009054906101000a900473ffffffffffffffffffffffffffffffffffffffff1673ffffffffffffffffffffffffffffffffffffffff1603612ee0576040517f08c379a0000000000000000000000000000000000000000000000000000000008152600401612ed790614c9a565b60405180910390fd5b3073ffffffffffffffffffffffffffffffffffffffff16600360009054906101000a900473ffffffffffffffffffffffffffffffffffffffff1673ffffffffffffffffffffffffffffffffffffffff1603612f70576040517f08c379a0000000000000000000000000000000000000000000000000000000008152600401612f6790614d06565b60405180910390fd5b612f7a8484613472565b612fc78284600360009054906101000a900473ffffffffffffffffffffffffffffffffffffffff1673ffffffffffffffffffffffffffffffffffffffff166138a09092919063ffffffff16565b8290509392505050565b60007f01ffc9a7000000000000000000000000000000000000000000000000000000007bffffffffffffffffffffffffffffffffffffffffffffffffffffffff1916827bffffffffffffffffffffffffffffffffffffffffffffffffffffffff1916149050919050565b600033905090565b61304d8282611f61565b6130dc576130728173ffffffffffffffffffffffffffffffffffffffff1660146139fb565b6130808360001c60206139fb565b604051602001613091929190614dfa565b6040516020818303038152906040526040517f08c379a00000000000000000000000000000000000000000000000000000000081526004016130d39190614094565b60405180910390fd5b5050565b6130ea8282611f61565b6131bc57600160008084815260200190815260200160002060000160008373ffffffffffffffffffffffffffffffffffffffff1673ffffffffffffffffffffffffffffffffffffffff16815260200190815260200160002060006101000a81548160ff02191690831515021790555061316161303b565b73ffffffffffffffffffffffffffffffffffffffff168173ffffffffffffffffffffffffffffffffffffffff16837f2f8788117e7eff1d82e926ec794901d17c78024a50270940304540a733656f0d60405160405180910390a45b5050565b6131ca8282611f61565b1561329d57600080600084815260200190815260200160002060000160008373ffffffffffffffffffffffffffffffffffffffff1673ffffffffffffffffffffffffffffffffffffffff16815260200190815260200160002060006101000a81548160ff02191690831515021790555061324261303b565b73ffffffffffffffffffffffffffffffffffffffff168173ffffffffffffffffffffffffffffffffffffffff16837ff6391f5c32d9c69d2a47ea670b442974b53935d1edc7fd64eb21e047a839171b60405160405180910390a45b5050565b600073ffffffffffffffffffffffffffffffffffffffff168273ffffffffffffffffffffffffffffffffffffffff1603613310576040517f08c379a000000000000000000000000000000000000000000000000000000000815260040161330790614e80565b60405180910390fd5b80600560008282546133229190614743565b9250508190555080600460008473ffffffffffffffffffffffffffffffffffffffff1673ffffffffffffffffffffffffffffffffffffffff16815260200190815260200160002060008282546133789190614743565b925050819055508173ffffffffffffffffffffffffffffffffffffffff16600073ffffffffffffffffffffffffffffffffffffffff167fddf252ad1be2c89b69c2b068fc378daa952ba7f163c4a11628f55a4df523b3ef836040516133dd9190613eee565b60405180910390a35050565b61346c846323b872dd60e01b85858560405160240161340a93929190614ea0565b604051602081830303815290604052907bffffffffffffffffffffffffffffffffffffffffffffffffffffffff19166020820180517bffffffffffffffffffffffffffffffffffffffffffffffffffffffff8381831617835250505050613c37565b50505050565b600073ffffffffffffffffffffffffffffffffffffffff168273ffffffffffffffffffffffffffffffffffffffff16036134e1576040517f08c379a00000000000000000000000000000000000000000000000000000000081526004016134d890614f49565b60405180910390fd5b6000600460008473ffffffffffffffffffffffffffffffffffffffff1673ffffffffffffffffffffffffffffffffffffffff16815260200190815260200160002054905081811015613568576040517f08c379a000000000000000000000000000000000000000000000000000000000815260040161355f90614fb5565b60405180910390fd5b8181613574919061467d565b600460008573ffffffffffffffffffffffffffffffffffffffff1673ffffffffffffffffffffffffffffffffffffffff1681526020019081526020016000208190555081600560008282546135c9919061467d565b92505081905550600073ffffffffffffffffffffffffffffffffffffffff168373ffffffffffffffffffffffffffffffffffffffff167fddf252ad1be2c89b69c2b068fc378daa952ba7f163c4a11628f55a4df523b3ef8460405161362e9190613eee565b60405180910390a3505050565b600073ffffffffffffffffffffffffffffffffffffffff168173ffffffffffffffffffffffffffffffffffffffff16036136aa576040517f08c379a00000000000000000000000000000000000000000000000000000000081526004016136a190615047565b60405180910390fd5b600a819080600181540180825580915050600190039060005260206000200160009091909190916101000a81548173ffffffffffffffffffffffffffffffffffffffff021916908373ffffffffffffffffffffffffffffffffffffffff16021790555050565b6000801561371d57600080fd5b600660179054906101000a900460ff1661376c576040517f08c379a0000000000000000000000000000000000000000000000000000000008152600401613763906150b3565b60405180910390fd5b600073ffffffffffffffffffffffffffffffffffffffff16600360009054906101000a900473ffffffffffffffffffffffffffffffffffffffff1673ffffffffffffffffffffffffffffffffffffffff16036137fd576040517f08c379a00000000000000000000000000000000000000000000000000000000081526004016137f49061511f565b60405180910390fd5b3073ffffffffffffffffffffffffffffffffffffffff16600360009054906101000a900473ffffffffffffffffffffffffffffffffffffffff1673ffffffffffffffffffffffffffffffffffffffff160361388d576040517f08c379a00000000000000000000000000000000000000000000000000000000081526004016138849061518b565b60405180910390fd5b61389782846132a1565b82905092915050565b6139218363a9059cbb60e01b84846040516024016138bf9291906151ab565b604051602081830303815290604052907bffffffffffffffffffffffffffffffffffffffffffffffffffffffff19166020820180517bffffffffffffffffffffffffffffffffffffffffffffffffffffffff8381831617835250505050613c37565b505050565b600073ffffffffffffffffffffffffffffffffffffffff168173ffffffffffffffffffffffffffffffffffffffff1603613995576040517f08c379a000000000000000000000000000000000000000000000000000000000815260040161398c90615246565b60405180910390fd5b6009819080600181540180825580915050600190039060005260206000200160009091909190916101000a81548173ffffffffffffffffffffffffffffffffffffffff021916908373ffffffffffffffffffffffffffffffffffffffff16021790555050565b606060006002836002613a0e9190615266565b613a189190614743565b67ffffffffffffffff811115613a3157613a306152a8565b5b6040519080825280601f01601f191660200182016040528015613a635781602001600182028036833780820191505090505b5090507f300000000000000000000000000000000000000000000000000000000000000081600081518110613a9b57613a9a6152d7565b5b60200101907effffffffffffffffffffffffffffffffffffffffffffffffffffffffffffff1916908160001a9053507f780000000000000000000000000000000000000000000000000000000000000081600181518110613aff57613afe6152d7565b5b60200101907effffffffffffffffffffffffffffffffffffffffffffffffffffffffffffff1916908160001a90535060006001846002613b3f9190615266565b613b499190614743565b90505b6001811115613be9577f3031323334353637383961626364656600000000000000000000000000000000600f861660108110613b8b57613b8a6152d7565b5b1a60f81b828281518110613ba257613ba16152d7565b5b60200101907effffffffffffffffffffffffffffffffffffffffffffffffffffffffffffff1916908160001a905350600485901c945080613be290615306565b9050613b4c565b5060008414613c2d576040517f08c379a0000000000000000000000000000000000000000000000000000000008152600401613c249061537b565b60405180910390fd5b8091505092915050565b613c568273ffffffffffffffffffffffffffffffffffffffff16613da8565b613c95576040517f08c379a0000000000000000000000000000000000000000000000000000000008152600401613c8c906153e7565b60405180910390fd5b6000808373ffffffffffffffffffffffffffffffffffffffff1683604051613cbd919061544e565b6000604051808303816000865af19150503d8060008114613cfa576040519150601f19603f3d011682016040523d82523d6000602084013e613cff565b606091505b509150915081613d44576040517f08c379a0000000000000000000000000000000000000000000000000000000008152600401613d3b906154b1565b60405180910390fd5b600081511115613da25780806020019051810190613d6291906154e6565b613da1576040517f08c379a0000000000000000000000000000000000000000000000000000000008152600401613d9890615585565b60405180910390fd5b5b50505050565b60008060007fc5d2460186f7233c927e7db2dcc703c0e500b653ca82273b7bfad8045d85a47060001b9050833f91506000801b8214158015613dea5750808214155b92505050919050565b600080fd5b600073ffffffffffffffffffffffffffffffffffffffff82169050919050565b6000613e2382613df8565b9050919050565b613e3381613e18565b8114613e3e57600080fd5b50565b600081359050613e5081613e2a565b92915050565b6000819050919050565b613e6981613e56565b8114613e7457600080fd5b50565b600081359050613e8681613e60565b92915050565b600080600060608486031215613ea557613ea4613df3565b5b6000613eb386828701613e41565b9350506020613ec486828701613e77565b9250506040613ed586828701613e41565b9150509250925092565b613ee881613e56565b82525050565b6000602082019050613f036000830184613edf565b92915050565b60008060408385031215613f2057613f1f613df3565b5b6000613f2e85828601613e77565b9250506020613f3f85828601613e41565b9150509250929050565b60007fffffffff0000000000000000000000000000000000000000000000000000000082169050919050565b613f7e81613f49565b8114613f8957600080fd5b50565b600081359050613f9b81613f75565b92915050565b600060208284031215613fb757613fb6613df3565b5b6000613fc584828501613f8c565b91505092915050565b60008115159050919050565b613fe381613fce565b82525050565b6000602082019050613ffe6000830184613fda565b92915050565b600081519050919050565b600082825260208201905092915050565b60005b8381101561403e578082015181840152602081019050614023565b60008484015250505050565b6000601f19601f8301169050919050565b600061406682614004565b614070818561400f565b9350614080818560208601614020565b6140898161404a565b840191505092915050565b600060208201905081810360008301526140ae818461405b565b905092915050565b600080604083850312156140cd576140cc613df3565b5b60006140db85828601613e41565b92505060206140ec85828601613e77565b9150509250929050565b6140ff81613fce565b811461410a57600080fd5b50565b60008135905061411c816140f6565b92915050565b60006020828403121561413857614137613df3565b5b60006141468482850161410d565b91505092915050565b6000819050919050565b6141628161414f565b82525050565b600060208201905061417d6000830184614159565b92915050565b60008060006060848603121561419c5761419b613df3565b5b60006141aa86828701613e41565b93505060206141bb86828701613e41565b92505060406141cc86828701613e77565b9150509250925092565b6141df8161414f565b81146141ea57600080fd5b50565b6000813590506141fc816141d6565b92915050565b60006020828403121561421857614217613df3565b5b6000614226848285016141ed565b91505092915050565b60006020828403121561424557614244613df3565b5b600061425384828501613e77565b91505092915050565b60006020828403121561427257614271613df3565b5b600061428084828501613e41565b91505092915050565b600080604083850312156142a05761429f613df3565b5b60006142ae858286016141ed565b92505060206142bf85828601613e41565b9150509250929050565b600060ff82169050919050565b6142df816142c9565b82525050565b60006020820190506142fa60008301846142d6565b92915050565b61430981613e18565b82525050565b60006020820190506143246000830184614300565b92915050565b60008060006060848603121561434357614342613df3565b5b6000614351868287016141ed565b935050602061436286828701613e41565b925050604061437386828701613e41565b9150509250925092565b600081519050919050565b600082825260208201905092915050565b6000819050602082019050919050565b6143b281613e18565b82525050565b60006143c483836143a9565b60208301905092915050565b6000602082019050919050565b60006143e88261437d565b6143f28185614388565b93506143fd83614399565b8060005b8381101561442e57815161441588826143b8565b9750614420836143d0565b925050600181019050614401565b5085935050505092915050565b6000602082019050818103600083015261445581846143dd565b905092915050565b6000806040838503121561447457614473613df3565b5b600061448285828601613e41565b925050602061449385828601613e41565b9150509250929050565b6000806000606084860312156144b6576144b5613df3565b5b60006144c4868287016141ed565b93505060206144d586828701613e41565b92505060406144e686828701613e77565b9150509250925092565b7f73656e646572206d7573742062652073757072656d6500000000000000000000600082015250565b600061452660168361400f565b9150614531826144f0565b602082019050919050565b6000602082019050818103600083015261455581614519565b9050919050565b7f4e487b7100000000000000000000000000000000000000000000000000000000600052602260045260246000fd5b600060028204905060018216806145a357607f821691505b6020821081036145b6576145b561455c565b5b50919050565b7f536f756c506f7765723a2072657175657374206578636565647320616c6c6f7760008201527f616e636500000000000000000000000000000000000000000000000000000000602082015250565b600061461860248361400f565b9150614623826145bc565b604082019050919050565b600060208201905081810360008301526146478161460b565b9050919050565b7f4e487b7100000000000000000000000000000000000000000000000000000000600052601160045260246000fd5b600061468882613e56565b915061469383613e56565b92508282039050818111156146ab576146aa61464e565b5b92915050565b7f536f756c506f7765723a207472616e7366657220616d6f756e7420657863656560008201527f64732062616c616e636500000000000000000000000000000000000000000000602082015250565b600061470d602a8361400f565b9150614718826146b1565b604082019050919050565b6000602082019050818103600083015261473c81614700565b9050919050565b600061474e82613e56565b915061475983613e56565b92508282019050808211156147715761477061464e565b5b92915050565b7f696e697469616c697a6174696f6e207265766f6b656400000000000000000000600082015250565b60006147ad60168361400f565b91506147b882614777565b602082019050919050565b600060208201905081810360008301526147dc816147a0565b9050919050565b7f416363657373436f6e74726f6c3a2063616e206f6e6c792072656e6f756e636560008201527f20726f6c657320666f722073656c660000000000000000000000000000000000602082015250565b600061483f602f8361400f565b915061484a826147e3565b604082019050919050565b6000602082019050818103600083015261486e81614832565b9050919050565b7f756e6465726c79696e67206973206e6f7720696d6d757461626c650000000000600082015250565b60006148ab601b8361400f565b91506148b682614875565b602082019050919050565b600060208201905081810360008301526148da8161489e565b9050919050565b7f6f6e6c7920746865207661756c74206d617920737761706f7574000000000000600082015250565b6000614917601a8361400f565b9150614922826148e1565b602082019050919050565b600060208201905081810360008301526149468161490a565b9050919050565b7f62696e64616464722063616e6e6f742062652061646472657373283029000000600082015250565b6000614983601d8361400f565b915061498e8261494d565b602082019050919050565b600060208201905081810360008301526149b281614976565b9050919050565b7f756e6465726c79696e6720697320616c726561647920696d6d757461626c6500600082015250565b60006149ef601f8361400f565b91506149fa826149b9565b602082019050919050565b60006020820190508181036000830152614a1e816149e2565b9050919050565b7f6d7573742062652061206e657720616464726573730000000000000000000000600082015250565b6000614a5b60158361400f565b9150614a6682614a25565b602082019050919050565b60006020820190508181036000830152614a8a81614a4e565b9050919050565b6000606082019050614aa66000830186614159565b614ab36020830185614300565b614ac06040830184614300565b949350505050565b7f696e697469616c697a6174696f6e20616c7265616479207265766f6b65640000600082015250565b6000614afe601e8361400f565b9150614b0982614ac8565b602082019050919050565b60006020820190508181036000830152614b2d81614af1565b9050919050565b7f6d616b652061206368616e67652c20626520746865206368616e676500000000600082015250565b6000614b6a601c8361400f565b9150614b7582614b34565b602082019050919050565b60006020820190508181036000830152614b9981614b5d565b9050919050565b600081519050614baf81613e60565b92915050565b600060208284031215614bcb57614bca613df3565b5b6000614bd984828501614ba0565b91505092915050565b7f7769746864726177616c73206172652064697361626c65640000000000000000600082015250565b6000614c1860188361400f565b9150614c2382614be2565b602082019050919050565b60006020820190508181036000830152614c4781614c0b565b9050919050565b7f756e6465726c79696e672063616e6e6f74206265206e61746976650000000000600082015250565b6000614c84601b8361400f565b9150614c8f82614c4e565b602082019050919050565b60006020820190508181036000830152614cb381614c77565b9050919050565b7f756e6465726c79696e672063616e6e6f7420626520534f554c00000000000000600082015250565b6000614cf060198361400f565b9150614cfb82614cba565b602082019050919050565b60006020820190508181036000830152614d1f81614ce3565b9050919050565b600081905092915050565b7f416363657373436f6e74726f6c3a206163636f756e7420000000000000000000600082015250565b6000614d67601783614d26565b9150614d7282614d31565b601782019050919050565b6000614d8882614004565b614d928185614d26565b9350614da2818560208601614020565b80840191505092915050565b7f206973206d697373696e6720726f6c6520000000000000000000000000000000600082015250565b6000614de4601183614d26565b9150614def82614dae565b601182019050919050565b6000614e0582614d5a565b9150614e118285614d7d565b9150614e1c82614dd7565b9150614e288284614d7d565b91508190509392505050565b7f63616e6e6f74206d696e7420746f20746865207a65726f206164647265737300600082015250565b6000614e6a601f8361400f565b9150614e7582614e34565b602082019050919050565b60006020820190508181036000830152614e9981614e5d565b9050919050565b6000606082019050614eb56000830186614300565b614ec26020830185614300565b614ecf6040830184613edf565b949350505050565b7f63616e6e6f74206275726e2066726f6d20746865207a65726f2061646472657360008201527f7300000000000000000000000000000000000000000000000000000000000000602082015250565b6000614f3360218361400f565b9150614f3e82614ed7565b604082019050919050565b60006020820190508181036000830152614f6281614f26565b9050919050565b7f6275726e20616d6f756e7420657863656564732062616c616e63650000000000600082015250565b6000614f9f601b8361400f565b9150614faa82614f69565b602082019050919050565b60006020820190508181036000830152614fce81614f92565b9050919050565b7f536f756c506f7765723a2063616e6e6f7420736574207661756c7420746f206160008201527f6464726573732830290000000000000000000000000000000000000000000000602082015250565b600061503160298361400f565b915061503c82614fd5565b604082019050919050565b6000602082019050818103600083015261506081615024565b9050919050565b7f6465706f73697473206172652064697361626c65640000000000000000000000600082015250565b600061509d60158361400f565b91506150a882615067565b602082019050919050565b600060208201905081810360008301526150cc81615090565b9050919050565b7f63616e6e6f74206465706f736974206e61746976650000000000000000000000600082015250565b600061510960158361400f565b9150615114826150d3565b602082019050919050565b60006020820190508181036000830152615138816150fc565b9050919050565b7f63616e6e6f74206465706f73697420534f554c00000000000000000000000000600082015250565b600061517560138361400f565b91506151808261513f565b602082019050919050565b600060208201905081810360008301526151a481615168565b9050919050565b60006040820190506151c06000830185614300565b6151cd6020830184613edf565b9392505050565b7f536f756c506f7765723a2063616e6e6f7420736574206d696e74657220746f2060008201527f6164647265737328302900000000000000000000000000000000000000000000602082015250565b6000615230602a8361400f565b915061523b826151d4565b604082019050919050565b6000602082019050818103600083015261525f81615223565b9050919050565b600061527182613e56565b915061527c83613e56565b925082820261528a81613e56565b915082820484148315176152a1576152a061464e565b5b5092915050565b7f4e487b7100000000000000000000000000000000000000000000000000000000600052604160045260246000fd5b7f4e487b7100000000000000000000000000000000000000000000000000000000600052603260045260246000fd5b600061531182613e56565b9150600082036153245761532361464e565b5b600182039050919050565b7f537472696e67733a20686578206c656e67746820696e73756666696369656e74600082015250565b600061536560208361400f565b91506153708261532f565b602082019050919050565b6000602082019050818103600083015261539481615358565b9050919050565b7f5361666545524332303a2063616c6c20746f206e6f6e2d636f6e747261637400600082015250565b60006153d1601f8361400f565b91506153dc8261539b565b602082019050919050565b60006020820190508181036000830152615400816153c4565b9050919050565b600081519050919050565b600081905092915050565b600061542882615407565b6154328185615412565b9350615442818560208601614020565b80840191505092915050565b600061545a828461541d565b915081905092915050565b7f5361666545524332303a206c6f772d6c6576656c2063616c6c206661696c6564600082015250565b600061549b60208361400f565b91506154a682615465565b602082019050919050565b600060208201905081810360008301526154ca8161548e565b9050919050565b6000815190506154e0816140f6565b92915050565b6000602082840312156154fc576154fb613df3565b5b600061550a848285016154d1565b91505092915050565b7f5361666545524332303a204552433230206f7065726174696f6e20646964206e60008201527f6f74207375636365656400000000000000000000000000000000000000000000602082015250565b600061556f602a8361400f565b915061557a82615513565b604082019050919050565b6000602082019050818103600083015261559e81615562565b905091905056fea264697066735822122060de4a0c20f13e8a1d0bbcdc7565bc06bc67c0fb9cd01a665343c036aa1a066164736f6c63430008110033",
  "immutableReferences": {
    "20632": [
      {
        "length": 32,
        "start": 5495
      }
    ]
  },
  "source": "// SPDX-License-Identifier: MIT\n\n// File: @openzeppelin/contracts/access/IAccessControl.sol\n\npragma solidity >=0.8.0;\n\n/**\n * @dev External interface of AccessControl declared to support ERC165 detection.\n */\ninterface IAccessControl {\n    /**\n     * @dev Emitted when `newAdminRole` is set as ``role``'s admin role, replacing `previousAdminRole`\n     *\n     * `DEFAULT_ADMIN_ROLE` is the starting admin for all roles, despite\n     * {RoleAdminChanged} not being emitted signaling this.\n     *\n     * _Available since v3.1._\n     */\n    event RoleAdminChanged(bytes32 indexed role, bytes32 indexed previousAdminRole, bytes32 indexed newAdminRole);\n\n    /**\n     * @dev Emitted when `account` is granted `role`.\n     *\n     * `sender` is the account that originated the contract call, an admin role\n     * bearer except when using {AccessControl-_setupRole}.\n     */\n    event RoleGranted(bytes32 indexed role, address indexed account, address indexed sender);\n\n    /**\n     * @dev Emitted when `account` is revoked `role`.\n     *\n     * `sender` is the account that originated the contract call:\n     *   - if using `revokeRole`, it is the admin role bearer\n     *   - if using `renounceRole`, it is the role bearer (i.e. `account`)\n     */\n    event RoleRevoked(bytes32 indexed role, address indexed account, address indexed sender);\n\n    /**\n     * @dev Returns `true` if `account` has been granted `role`.\n     */\n    function hasRole(bytes32 role, address account) external view returns (bool);\n\n    /**\n     * @dev Returns the admin role that controls `role`. See {grantRole} and\n     * {revokeRole}.\n     *\n     * To change a role's admin, use {AccessControl-_setRoleAdmin}.\n     */\n    function getRoleAdmin(bytes32 role) external view returns (bytes32);\n\n    /**\n     * @dev Grants `role` to `account`.\n     *\n     * If `account` had not been already granted `role`, emits a {RoleGranted}\n     * event.\n     *\n     * Requirements:\n     *\n     * - the caller must have ``role``'s admin role.\n     */\n    function grantRole(bytes32 role, address account) external;\n\n    /**\n     * @dev Revokes `role` from `account`.\n     *\n     * If `account` had been granted `role`, emits a {RoleRevoked} event.\n     *\n     * Requirements:\n     *\n     * - the caller must have ``role``'s admin role.\n     */\n    function revokeRole(bytes32 role, address account) external;\n\n    /**\n     * @dev Revokes `role` from the calling account.\n     *\n     * Roles are often managed via {grantRole} and {revokeRole}: this function's\n     * purpose is to provide a mechanism for accounts to lose their privileges\n     * if they are compromised (such as when a trusted device is misplaced).\n     *\n     * If the calling account had been granted `role`, emits a {RoleRevoked}\n     * event.\n     *\n     * Requirements:\n     *\n     * - the caller must be `account`.\n     */\n    function renounceRole(bytes32 role, address account) external;\n}\n\n// File: @openzeppelin/contracts/utils/Context.sol\n\npragma solidity >=0.8.0;\n\n/**\n * @dev Provides information about the current execution context, including the\n * sender of the transaction and its data. While these are generally available\n * via msg.sender and msg.data, they should not be accessed in such a direct\n * manner, since when dealing with meta-transactions the account sending and\n * paying for execution may not be the actual sender (as far as an application\n * is concerned).\n *\n * This contract is only required for intermediate, library-like contracts.\n */\nabstract contract Context {\n    function _msgSender() internal view virtual returns (address) {\n        return msg.sender;\n    }\n\n    function _msgData() internal view virtual returns (bytes calldata) {\n        return msg.data;\n    }\n}\n\n// File: @openzeppelin/contracts/utils/Strings.sol\n\npragma solidity >=0.8.0;\n\n/**\n * @dev String operations.\n */\nlibrary Strings {\n    bytes16 private constant _HEX_SYMBOLS = \"0123456789abcdef\";\n\n    /**\n     * @dev Converts a `uint256` to its ASCII `string` decimal representation.\n     */\n    function toString(uint256 value) internal pure returns (string memory) {\n        // Inspired by OraclizeAPI's implementation - MIT licence\n        // https://github.com/oraclize/ethereum-api/blob/b42146b063c7d6ee1358846c198246239e9360e8/oraclizeAPI_0.4.25.sol\n\n        if (value == 0) {\n            return \"0\";\n        }\n        uint256 temp = value;\n        uint256 digits;\n        while (temp != 0) {\n            digits++;\n            temp /= 10;\n        }\n        bytes memory buffer = new bytes(digits);\n        while (value != 0) {\n            digits -= 1;\n            buffer[digits] = bytes1(uint8(48 + uint256(value % 10)));\n            value /= 10;\n        }\n        return string(buffer);\n    }\n\n    /**\n     * @dev Converts a `uint256` to its ASCII `string` hexadecimal representation.\n     */\n    function toHexString(uint256 value) internal pure returns (string memory) {\n        if (value == 0) {\n            return \"0x00\";\n        }\n        uint256 temp = value;\n        uint256 length = 0;\n        while (temp != 0) {\n            length++;\n            temp >>= 8;\n        }\n        return toHexString(value, length);\n    }\n\n    /**\n     * @dev Converts a `uint256` to its ASCII `string` hexadecimal representation with fixed length.\n     */\n    function toHexString(uint256 value, uint256 length) internal pure returns (string memory) {\n        bytes memory buffer = new bytes(2 * length + 2);\n        buffer[0] = \"0\";\n        buffer[1] = \"x\";\n        for (uint256 i = 2 * length + 1; i > 1; --i) {\n            buffer[i] = _HEX_SYMBOLS[value & 0xf];\n            value >>= 4;\n        }\n        require(value == 0, \"Strings: hex length insufficient\");\n        return string(buffer);\n    }\n}\n\n// File: @openzeppelin/contracts/utils/introspection/IERC165.sol\n\npragma solidity >=0.8.0;\n\n/**\n * @dev Interface of the ERC165 standard, as defined in the\n * https://eips.ethereum.org/EIPS/eip-165[EIP].\n *\n * Implementers can declare support of contract interfaces, which can then be\n * queried by others ({ERC165Checker}).\n *\n * For an implementation, see {ERC165}.\n */\ninterface IERC165 {\n    /**\n     * @dev Returns true if this contract implements the interface defined by\n     * `interfaceId`. See the corresponding\n     * https://eips.ethereum.org/EIPS/eip-165#how-interfaces-are-identified[EIP section]\n     * to learn more about how these ids are created.\n     *\n     * This function call must use less than 30 000 gas.\n     */\n    function supportsInterface(bytes4 interfaceId) external view returns (bool);\n}\n\n// File: @openzeppelin/contracts/utils/introspection/ERC165.sol\n\npragma solidity >=0.8.0;\n\n\n/**\n * @dev Implementation of the {IERC165} interface.\n *\n * Contracts that want to implement ERC165 should inherit from this contract and override {supportsInterface} to check\n * for the additional interface id that will be supported. For example:\n *\n * ```solidity\n * function supportsInterface(bytes4 interfaceId) public view virtual override returns (bool) {\n *     return interfaceId == type(MyInterface).interfaceId || super.supportsInterface(interfaceId);\n * }\n * ```\n *\n * Alternatively, {ERC165Storage} provides an easier to use but more expensive implementation.\n */\nabstract contract ERC165 is IERC165 {\n    /**\n     * @dev See {IERC165-supportsInterface}.\n     */\n    function supportsInterface(bytes4 interfaceId) public view virtual override returns (bool) {\n        return interfaceId == type(IERC165).interfaceId;\n    }\n}\n\n// File: @openzeppelin/contracts/access/AccessControl.sol\n\npragma solidity >=0.8.0;\n\n/**\n * @dev Contract module that allows children to implement role-based access\n * control mechanisms. This is a lightweight version that doesn't allow enumerating role\n * members except through off-chain means by accessing the contract event logs. Some\n * applications may benefit from on-chain enumerability, for those cases see\n * {AccessControlEnumerable}.\n *\n * Roles are referred to by their `bytes32` identifier. These should be exposed\n * in the external API and be unique. The best way to achieve this is by\n * using `public constant` hash digests:\n *\n * ```\n * bytes32 public constant MY_ROLE = keccak256(\"MY_ROLE\");\n * ```\n *\n * Roles can be used to represent a set of permissions. To restrict access to a\n * function call, use {hasRole}:\n *\n * ```\n * function foo() public {\n *     require(hasRole(MY_ROLE, msg.sender));\n *     ...\n * }\n * ```\n *\n * Roles can be granted and revoked dynamically via the {grantRole} and\n * {revokeRole} functions. Each role has an associated admin role, and only\n * accounts that have a role's admin role can call {grantRole} and {revokeRole}.\n *\n * By default, the admin role for all roles is `DEFAULT_ADMIN_ROLE`, which means\n * that only accounts with this role will be able to grant or revoke other\n * roles. More complex role relationships can be created by using\n * {_setRoleAdmin}.\n *\n * WARNING: The `DEFAULT_ADMIN_ROLE` is also its own admin: it has permission to\n * grant and revoke this role. Extra precautions should be taken to secure\n * accounts that have been granted it.\n */\nabstract contract AccessControl is Context, IAccessControl, ERC165 {\n    struct RoleData {\n        mapping(address => bool) members;\n        bytes32 adminRole;\n    }\n\n    mapping(bytes32 => RoleData) private _roles;\n\n    bytes32 public constant DEFAULT_ADMIN_ROLE = 0x00;\n\n    /**\n     * @dev Modifier that checks that an account has a specific role. Reverts\n     * with a standardized message including the required role.\n     *\n     * The format of the revert reason is given by the following regular expression:\n     *\n     *  /^AccessControl: account (0x[0-9a-f]{40}) is missing role (0x[0-9a-f]{64})$/\n     *\n     * _Available since v4.1._\n     */\n    modifier onlyRole(bytes32 role) {\n        _checkRole(role, _msgSender());\n        _;\n    }\n\n    /**\n     * @dev See {IERC165-supportsInterface}.\n     */\n    function supportsInterface(bytes4 interfaceId) public view virtual override returns (bool) {\n        return interfaceId == type(IAccessControl).interfaceId || super.supportsInterface(interfaceId);\n    }\n\n    /**\n     * @dev Returns `true` if `account` has been granted `role`.\n     */\n    function hasRole(bytes32 role, address account) public view override returns (bool) {\n        return _roles[role].members[account];\n    }\n\n    /**\n     * @dev Revert with a standard message if `account` is missing `role`.\n     *\n     * The format of the revert reason is given by the following regular expression:\n     *\n     *  /^AccessControl: account (0x[0-9a-f]{40}) is missing role (0x[0-9a-f]{64})$/\n     */\n    function _checkRole(bytes32 role, address account) internal view {\n        if (!hasRole(role, account)) {\n            revert(\n                string(\n                    abi.encodePacked(\n                        \"AccessControl: account \",\n                        Strings.toHexString(uint160(account), 20),\n                        \" is missing role \",\n                        Strings.toHexString(uint256(role), 32)\n                    )\n                )\n            );\n        }\n    }\n\n    /**\n     * @dev Returns the admin role that controls `role`. See {grantRole} and\n     * {revokeRole}.\n     *\n     * To change a role's admin, use {_setRoleAdmin}.\n     */\n    function getRoleAdmin(bytes32 role) public view override returns (bytes32) {\n        return _roles[role].adminRole;\n    }\n\n    /**\n     * @dev Grants `role` to `account`.\n     *\n     * If `account` had not been already granted `role`, emits a {RoleGranted}\n     * event.\n     *\n     * Requirements:\n     *\n     * - the caller must have ``role``'s admin role.\n     */\n    function grantRole(bytes32 role, address account) public virtual override onlyRole(getRoleAdmin(role)) {\n        _grantRole(role, account);\n    }\n\n    /**\n     * @dev Revokes `role` from `account`.\n     *\n     * If `account` had been granted `role`, emits a {RoleRevoked} event.\n     *\n     * Requirements:\n     *\n     * - the caller must have ``role``'s admin role.\n     */\n    function revokeRole(bytes32 role, address account) public virtual override onlyRole(getRoleAdmin(role)) {\n        _revokeRole(role, account);\n    }\n\n    /**\n     * @dev Revokes `role` from the calling account.\n     *\n     * Roles are often managed via {grantRole} and {revokeRole}: this function's\n     * purpose is to provide a mechanism for accounts to lose their privileges\n     * if they are compromised (such as when a trusted device is misplaced).\n     *\n     * If the calling account had been granted `role`, emits a {RoleRevoked}\n     * event.\n     *\n     * Requirements:\n     *\n     * - the caller must be `account`.\n     */\n    function renounceRole(bytes32 role, address account) public virtual override {\n        require(account == _msgSender(), \"AccessControl: can only renounce roles for self\");\n\n        _revokeRole(role, account);\n    }\n\n    /**\n     * @dev Grants `role` to `account`.\n     *\n     * If `account` had not been already granted `role`, emits a {RoleGranted}\n     * event. Note that unlike {grantRole}, this function doesn't perform any\n     * checks on the calling account.\n     *\n     * [WARNING]\n     * ====\n     * This function should only be called from the constructor when setting\n     * up the initial roles for the system.\n     *\n     * Using this function in any other way is effectively circumventing the admin\n     * system imposed by {AccessControl}.\n     * ====\n     */\n    function _setupRole(bytes32 role, address account) internal virtual {\n        _grantRole(role, account);\n    }\n\n    /**\n     * @dev Sets `adminRole` as ``role``'s admin role.\n     *\n     * Emits a {RoleAdminChanged} event.\n     */\n    function _setRoleAdmin(bytes32 role, bytes32 adminRole) internal virtual {\n        bytes32 previousAdminRole = getRoleAdmin(role);\n        _roles[role].adminRole = adminRole;\n        emit RoleAdminChanged(role, previousAdminRole, adminRole);\n    }\n\n    function _grantRole(bytes32 role, address account) private {\n        if (!hasRole(role, account)) {\n            _roles[role].members[account] = true;\n            emit RoleGranted(role, account, _msgSender());\n        }\n    }\n\n    function _revokeRole(bytes32 role, address account) private {\n        if (hasRole(role, account)) {\n            _roles[role].members[account] = false;\n            emit RoleRevoked(role, account, _msgSender());\n        }\n    }\n}\n\n// File: contracts/tokens/SoulPowerAny.sol\n\npragma solidity >=0.8.0;\n\n/**\n * @dev Interface of the ERC20 standard as defined in the EIP.\n */\ninterface IERC20 {\n    function totalSupply() external view returns (uint);\n\n    function decimals() external view returns (uint8);\n\n    function balanceOf(address account) external view returns (uint);\n\n    function transfer(address recipient, uint amount)\n        external\n        returns (bool);\n\n    function allowance(address owner, address spender)\n        external\n        view\n        returns (uint);\n\n    function approve(address spender, uint amount) external returns (bool);\n\n    function transferFrom(\n        address sender,\n        address recipient,\n        uint amount\n    ) external returns (bool);\n\n    event Transfer(address indexed from, address indexed to, uint value);\n    event Approval(\n        address indexed owner,\n        address indexed spender,\n        uint value\n    );\n}\n\nlibrary Address {\n    function isContract(address account) internal view returns (bool) {\n        bytes32 codehash;\n        bytes32 accountHash = 0xc5d2460186f7233c927e7db2dcc703c0e500b653ca82273b7bfad8045d85a470;\n        // solhint-disable-next-line no-inline-assembly\n        assembly {\n            codehash := extcodehash(account)\n        }\n        return (codehash != 0x0 && codehash != accountHash);\n    }\n}\n\nlibrary SafeERC20 {\n    using Address for address;\n\n    function safeTransfer(\n        IERC20 token,\n        address to,\n        uint value\n    ) internal {\n        callOptionalReturn(\n            token,\n            abi.encodeWithSelector(token.transfer.selector, to, value)\n        );\n    }\n\n    function safeTransferFrom(\n        IERC20 token,\n        address from,\n        address to,\n        uint value\n    ) internal {\n        callOptionalReturn(\n            token,\n            abi.encodeWithSelector(token.transferFrom.selector, from, to, value)\n        );\n    }\n\n    function safeApprove(\n        IERC20 token,\n        address spender,\n        uint value\n    ) internal {\n        require(\n            (value == 0) || (token.allowance(address(this), spender) == 0),\n            \"SafeERC20: approve from non-zero to non-zero allowance\"\n        );\n        callOptionalReturn(\n            token,\n            abi.encodeWithSelector(token.approve.selector, spender, value)\n        );\n    }\n\n    function callOptionalReturn(IERC20 token, bytes memory data) private {\n        require(address(token).isContract(), \"SafeERC20: call to non-contract\");\n\n        // solhint-disable-next-line avoid-low-level-calls\n        (bool success, bytes memory returndata) = address(token).call(data);\n        require(success, \"SafeERC20: low-level call failed\");\n\n        if (returndata.length > 0) {\n            // Return data is optional\n            // solhint-disable-next-line max-line-length\n            require(\n                abi.decode(returndata, (bool)),\n                \"SafeERC20: ERC20 operation did not succeed\"\n            );\n        }\n    }\n}\n\ncontract MockSoulPowerAny is IERC20, AccessControl {\n    using SafeERC20 for IERC20;\n    string public name;\n    string public symbol;\n    uint8 public immutable override decimals;\n\n    // used for crosschain pureposes\n    address public underlying;\n    bool public constant underlyingIsMinted = false;\n    bool public isUnderlyingImmutable;\n\n    /// @dev records amount of SOUL owned by account.\n    mapping(address => uint) public override balanceOf;\n    uint private _totalSupply;\n\n    // init flag for setting immediate vault, needed for CREATE2 support\n    bool private _init;\n\n    // primary controller of the token contract (trivial)\n    address public vault;\n\n    // toggles swapout vs vault.burn so multiple events are triggered\n    bool private _vaultOnly;\n\n    // checks for revocation of init.\n    bool private _initRevoked;\n\n    // restricts ability to deposit and withdraq\n    bool private _depositEnabled;\n    bool private _withdrawEnabled;\n\n    // mapping used to verify minters & vaults\n    mapping(address => bool) public isMinter;\n    mapping(address => bool) public isVault;\n\n    // arrays composed of minter & vaults\n    address[] public minters;\n    address[] public vaults;\n\n    // supreme & roles\n    address public supreme; // supreme divine\n    bytes32 public anunnaki; // admin role\n    bytes32 public thoth; // minter role\n    bytes32 public sophia; // burner role\n\n    // events\n    event NewSupreme(address supreme);\n    event Rethroned(bytes32 role, address oldAccount, address newAccount);\n    event LogSwapin(\n        bytes32 indexed txhash,\n        address indexed account,\n        uint amount\n    );\n    event LogSwapout(\n        address indexed account,\n        address indexed bindaddr,\n        uint amount\n    );\n\n    // modifiers\n    modifier onlySupreme() {\n        require(msg.sender == supreme, 'sender must be supreme');\n        _;\n    }\n\n    // restricted to the house of the role passed as an object to obey\n    modifier obey(bytes32 role) {\n        _checkRole(role, _msgSender());\n        _;\n    }\n\n    function owner() external view returns (address) {\n        return supreme;\n    }\n\n    function mpc() external view returns (address) {\n        return supreme;\n    }\n\n    // toggles permissions for _vaultOnly\n    function setVaultOnly(bool enabled) external onlySupreme {\n        _vaultOnly = enabled;\n    }\n\n    // initializes (when not revoked) [ onlySupreme ]\n    function initVault(address _vault) external onlySupreme {\n        require(!_initRevoked, 'initialization revoked');\n        vault = _vault;\n        isMinter[_vault] = true;\n    }\n\n    // toggles ability to init [ onlySupreme ]\n    function toggleInit(bool enabled) external onlySupreme {\n        require(!_initRevoked, 'initialization revoked');\n        _init = enabled;\n    }\n\n    // revokes ability to re-initialize [ onlySupreme ]\n    function revokeInit() external onlySupreme {\n        require(!_initRevoked, 'initialization already revoked');\n        _initRevoked = true;\n    }\n\n    // checks whether sender has divine `role` (public view)\n    function hasDivineRole(bytes32 role) public view returns (bool) {\n        return hasRole(role, msg.sender);\n    }\n\n    // sets minter address [ onlySupreme ]\n    function setMinter(address _minter) external onlySupreme {\n        _setMinter(_minter);\n    }\n\n    // adds the minter to the array of minters[]\n    function _setMinter(address _minter) internal {\n        require(_minter != address(0), \"SoulPower: cannot set minter to address(0)\");\n        minters.push(_minter);\n    }\n\n    // sets vault address\n    function setVault(address _vault) external onlySupreme {\n        _setVault(_vault);\n    }\n\n    function _setVault(address _vault) internal {\n        require(_vault != address(0), \"SoulPower: cannot set vault to address(0)\");\n        vaults.push(_vault);\n    }\n\n    // no time delay revoke minter (emergency function)\n    function revokeMinter(address _minter) external onlySupreme {\n        isMinter[_minter] = false;\n    }\n\n    // no time delay revoke vault (emergency function)\n    function revokeVault(address _vault) external onlySupreme {\n        isVault[_vault] = false;\n    }\n\n    // restrict: underlying to `_immutableUnderlying`\n    function setImmutableUnderlying(address _immutableUnderlying) external onlySupreme {\n        require(!isUnderlyingImmutable, 'underlying is already immutable');\n        \n        // sets: underlying address (permanent)\n        underlying = _immutableUnderlying;\n        \n        // sets: underlying to immutable\n        isUnderlyingImmutable = true;\n    }\n\n    function getAllMinters() external view returns (address[] memory) {\n        return minters;\n    }\n\n    function getAllVaults() external view returns (address[] memory) {\n        return vaults;\n    }\n\n    // mint: restricted to the role of Thoth.\n    function mint(address to, uint amount) external obey(thoth) returns (bool) {\n        _mint(to, amount);\n        return true;\n    }\n\n    // burn: restricted to the role of Sophia.\n    function burn(address from, uint amount) external obey(sophia) returns (bool) {\n        _burn(from, amount);\n        return true;\n    }\n\n    // thoth authorizes mint // transfer for `amount` of swapped in value to `account`\n    function Swapin(bytes32 txhash, address account, uint amount) external obey(thoth) returns (bool) {\n        if ( // [A] if the contract has enough (non-native) underlying (ERC20) to cover `amount`,\n            underlying != address(0) &&\n            IERC20(underlying).balanceOf(address(this)) >= amount\n        ) { // then transfer requested `amount` of underlying (ERC20) to `account`.\n            IERC20(underlying).safeTransfer(account, amount);\n        } else { // [B] mint requested `amount` of SOUL to `account`.\n            _mint(account, amount);\n        }\n        // logs Swapin event\n        emit LogSwapin(txhash, account, amount);\n\n        return true;\n    }\n\n    // authorizes user to swap out and burns swapped out tokens\n    function Swapout(uint amount, address bindaddr) external returns (bool) {\n        // checks for swapout restriction\n        require(!_vaultOnly, \"only the vault may swapout\");\n        require(bindaddr != address(0), \"bindaddr cannot be address(0)\");\n    \n        // if the underlying is non-native and the balance of the sender < `amount`\n        if (underlying != address(0) && balanceOf[msg.sender] < amount) {\n            // then transfer `amount` of underlying from the `msg.sender` to this contract.\n            IERC20(underlying).safeTransferFrom(msg.sender, address(this), amount);\n        } else {\n            _burn(msg.sender, amount);\n        }\n        emit LogSwapout(msg.sender, bindaddr, amount);\n        return true;\n    }\n\n    /// @dev records # of SOUL that `account` (2nd) will be allowed to spend on behalf of another `account` (1st) via { transferFrom }.\n    mapping(address => mapping(address => uint)) public override allowance;\n\n    constructor() {\n        name = 'SoulPower';\n        symbol = 'SOUL';\n        decimals = 18;\n        underlying = address(0);\n\n        supreme = msg.sender; // head supreme\n        anunnaki = keccak256(\"anunnaki\"); // alpha supreme\n        thoth = keccak256(\"thoth\"); // god of wisdom and magic\n        sophia = keccak256(\"sophia\"); // goddess of wisdom and magic\n\n        // use init to allow for CREATE2 accross all chains\n        _init = true;\n\n        // toggles: swapout vs mint/burn\n        _vaultOnly = false;\n        _setVault(msg.sender);\n\n        _divinationRitual(DEFAULT_ADMIN_ROLE, DEFAULT_ADMIN_ROLE, supreme); // supreme as root admin\n        _divinationRitual(anunnaki, anunnaki, supreme); // anunnaki as admin of anunnaki\n        _divinationRitual(thoth, anunnaki, supreme); // anunnaki as admin of thoth\n        _divinationRitual(sophia, anunnaki, supreme); // anunnaki as admin of sophia\n\n        _mint(supreme, 21_000 * 1e18); // mints initial supply of 21_000 SOUL\n    }\n\n    function totalSupply() external view override returns (uint) {\n        return _totalSupply;\n    }\n\n    function newUnderlying(address _underlying) public obey(anunnaki) {\n        require(!isUnderlyingImmutable, 'underlying is now immutable');\n        underlying = _underlying;\n    }\n\n    // deposits: sender balance [receiver: sender]\n    function deposit() external returns (uint) {\n        uint _amount = IERC20(underlying).balanceOf(msg.sender);\n        IERC20(underlying).safeTransferFrom(msg.sender, address(this), _amount);\n        return _deposit(_amount, msg.sender);\n    }\n\n    // deposits: `amount` from sender [receiver: sender]\n    function deposit(uint amount) external returns (uint) {\n        IERC20(underlying).safeTransferFrom(msg.sender, address(this), amount);\n        // deposits `amount`, then credits msg.sender as receiver.\n        return _deposit(amount, msg.sender);\n    }\n\n    // deposits: `amount` from sender [receiver: `to`]\n    function deposit(uint amount, address to) external returns (uint) {\n        // sender transfers `amount` of underlying to this contract.\n        IERC20(underlying).safeTransferFrom(msg.sender, address(this), amount);\n        // deposits `amount`, then credits `to` as receiver of SOUL.\n        return _deposit(amount, to);\n    }\n\n    // supreme-restricted withdrawal to enable toAddress-specification\n    function depositVault(uint amount, address to) external onlySupreme returns (uint) {\n        return _deposit(amount, to);\n    }\n\n    // mint `to` the requested `amount` of SOUL.\n    function _deposit(uint amount, address to) internal returns (uint) {\n        require(!underlyingIsMinted);\n        require(_depositEnabled, 'deposits are disabled');\n\n        require(underlying != address(0), 'cannot deposit native');\n        require(underlying != address(this), 'cannot deposit SOUL');\n\n        // mints `to` the requested `amount` of SOUL.\n        _mint(to, amount);\n        return amount;\n    }\n\n    // withdraws: balance from sender [receiver: sender]\n    function withdraw() external returns (uint) {\n        return _withdraw(msg.sender, balanceOf[msg.sender], msg.sender);\n    }\n\n    // withdraws: `amount` from sender [receiver: sender]\n    function withdraw(uint amount) external returns (uint) {\n        return _withdraw(msg.sender, amount, msg.sender);\n    }\n\n    // withdraws: `amount` from sender [receiver: `to`]\n    function withdraw(uint amount, address to) external returns (uint) {\n        return _withdraw(msg.sender, amount, to);\n    }\n\n    // supreme-restricted withdrawal to enable fromAddress-specification [receiver: `to`]\n    function withdrawVault(address from, uint amount, address to) external onlySupreme returns (uint) {\n        return _withdraw(from, amount, to);\n    }\n\n    // burns `amount` of SOUL `from` user, then transfers `to` the `amount` of underlying.\n    function _withdraw(address from, uint amount, address to) internal returns (uint) {\n        require(!underlyingIsMinted);\n        require(_withdrawEnabled, 'withdrawals are disabled');\n\n        // cannot withdraw when underlying is native.\n        require(underlying != address(0), 'underlying cannot be native');\n        // cannot withdraw when underlying is SOUL.\n        require(underlying != address(this), 'underlying cannot be SOUL');\n\n        // burns: SOUL belonging to `from` in the specified `amount`.\n        _burn(from, amount);\n\n        // transfers: `to` the underlying (ERC20) in the specified `amount`.\n        IERC20(underlying).safeTransfer(to, amount);\n        return amount;\n    }\n\n    // enables deposits and withdrawals\n    function enableDeposits(bool enabled) external onlySupreme {\n        _depositEnabled = enabled;\n    }\n\n    function enableWithdrawals(bool enabled) external onlySupreme {\n        _withdrawEnabled = enabled;\n    }\n\n    // mints `amount` of SOUL to `account`\n    function _mint(address account, uint amount) internal {\n        require(account != address(0), \"cannot mint to the zero address\");\n\n        // increases: totalSupply by `amount`\n        _totalSupply += amount;\n\n        // increases: user balance by `amount`\n        balanceOf[account] += amount;\n\n        emit Transfer(address(0), account, amount);\n    }\n\n    function _burn(address account, uint amount) internal {\n        require(account != address(0), \"cannot burn from the zero address\");\n\n        // checks: `account` balance to ensure coverage for burn `amount` [C].\n        uint balance = balanceOf[account];\n        require(balance >= amount, \"burn amount exceeds balance\");\n\n        // reduces: `account` by `amount` [E1].\n        balanceOf[account] = balance - amount;\n\n        // reduces: totalSupply by `amount` [E2].\n        _totalSupply -= amount;\n\n        emit Transfer(account, address(0), amount);\n    }\n\n    function approve(address spender, uint value) external override returns (bool) {\n        allowance[msg.sender][spender] = value;\n        emit Approval(msg.sender, spender, value);\n\n        return true;\n    }\n\n    function transfer(address to, uint value) external override returns (bool) {\n        require(to != address(0) && to != address(this));\n        uint balance = balanceOf[msg.sender];\n        require(balance >= value, \"SoulPower: transfer amount exceeds balance\");\n\n        balanceOf[msg.sender] = balance - value;\n        balanceOf[to] += value;\n        emit Transfer(msg.sender, to, value);\n\n        return true;\n    }\n\n    function transferFrom(address from, address to, uint value) external override returns (bool) {\n        require(to != address(0) && to != address(this));\n        if (from != msg.sender) {\n            uint allowed = allowance[from][msg.sender];\n            if (allowed != type(uint).max) {\n                require(\n                    allowed >= value,\n                    \"SoulPower: request exceeds allowance\"\n                );\n                uint reduced = allowed - value;\n                allowance[from][msg.sender] = reduced;\n                emit Approval(from, msg.sender, reduced);\n            }\n        }\n\n        uint balance = balanceOf[from];\n        require(balance >= value, \"SoulPower: transfer amount exceeds balance\");\n\n        balanceOf[from] = balance - value;\n        balanceOf[to] += value;\n        emit Transfer(from, to, value);\n\n        return true;\n    }\n\n    // grants `role` to `newAccount` && renounces `role` from `oldAccount` [ obey(role) ]\n    function rethroneRitual(bytes32 role, address oldAccount, address newAccount) public obey(role) {\n        require(oldAccount != newAccount, \"must be a new address\");\n        grantRole(role, newAccount); // grants new account\n        renounceRole(role, oldAccount); //  removes old account of role\n\n        emit Rethroned(role, oldAccount, newAccount);\n    }\n\n    // solidifies roles (internal)\n    function _divinationRitual(bytes32 _role, bytes32 _adminRole, address _account) internal {\n        _setupRole(_role, _account);\n        _setRoleAdmin(_role, _adminRole);\n    }\n\n    // updates supreme address (public anunnaki)\n    function newSupreme(address _supreme) public obey(anunnaki) {\n        require(supreme != _supreme, \"make a change, be the change\"); //  prevents self-destruct\n        rethroneRitual(DEFAULT_ADMIN_ROLE, supreme, _supreme); //   empowers new supreme\n        supreme = _supreme;\n\n        emit NewSupreme(supreme);\n    }\n\n    // acquires chainID\n    function getChainId() internal view returns (uint) {\n        uint chainId;\n        assembly { chainId := chainid() }\n        return chainId;\n    }\n}\n",
  "sourcePath": "/Users/buns/Documents/GitHub/SoulSwapFinance/soulswap-farms/contracts/mocks/MockSoulPowerAny.sol",
  "compiler": {
    "name": "solc",
    "version": "0.8.17+commit.8df45f5f.Emscripten.clang"
  },
  "schemaVersion": "3.4.1",
  "updatedAt": "2022-10-01T21:51:30.191Z",
  "devdoc": {
    "kind": "dev",
    "methods": {
      "getRoleAdmin(bytes32)": {
        "details": "Returns the admin role that controls `role`. See {grantRole} and {revokeRole}. To change a role's admin, use {_setRoleAdmin}."
      },
      "grantRole(bytes32,address)": {
        "details": "Grants `role` to `account`. If `account` had not been already granted `role`, emits a {RoleGranted} event. Requirements: - the caller must have ``role``'s admin role."
      },
      "hasRole(bytes32,address)": {
        "details": "Returns `true` if `account` has been granted `role`."
      },
      "renounceRole(bytes32,address)": {
        "details": "Revokes `role` from the calling account. Roles are often managed via {grantRole} and {revokeRole}: this function's purpose is to provide a mechanism for accounts to lose their privileges if they are compromised (such as when a trusted device is misplaced). If the calling account had been granted `role`, emits a {RoleRevoked} event. Requirements: - the caller must be `account`."
      },
      "revokeRole(bytes32,address)": {
        "details": "Revokes `role` from `account`. If `account` had been granted `role`, emits a {RoleRevoked} event. Requirements: - the caller must have ``role``'s admin role."
      },
      "supportsInterface(bytes4)": {
        "details": "See {IERC165-supportsInterface}."
      }
    },
    "stateVariables": {
      "allowance": {
        "details": "records # of SOUL that `account` (2nd) will be allowed to spend on behalf of another `account` (1st) via { transferFrom }."
      },
      "balanceOf": {
        "details": "records amount of SOUL owned by account."
      }
    },
    "version": 1
  },
  "userdoc": {
    "kind": "user",
    "methods": {},
    "version": 1
  }
}