{
  "contractName": "MockSoulManifester",
  "abi": [
    {
      "inputs": [],
      "stateMutability": "nonpayable",
      "type": "constructor"
    },
    {
      "anonymous": false,
      "inputs": [
        {
          "indexed": false,
          "internalType": "address",
          "name": "dao",
          "type": "address"
        },
        {
          "indexed": false,
          "internalType": "address",
          "name": "team",
          "type": "address"
        }
      ],
      "name": "AccountsUpdated",
      "type": "event"
    },
    {
      "anonymous": false,
      "inputs": [
        {
          "indexed": true,
          "internalType": "address",
          "name": "user",
          "type": "address"
        },
        {
          "indexed": true,
          "internalType": "uint256",
          "name": "pid",
          "type": "uint256"
        },
        {
          "indexed": false,
          "internalType": "uint256",
          "name": "amount",
          "type": "uint256"
        },
        {
          "indexed": false,
          "internalType": "uint256",
          "name": "timestamp",
          "type": "uint256"
        }
      ],
      "name": "Deposit",
      "type": "event"
    },
    {
      "anonymous": false,
      "inputs": [
        {
          "indexed": false,
          "internalType": "uint256",
          "name": "pid",
          "type": "uint256"
        },
        {
          "indexed": false,
          "internalType": "address",
          "name": "account",
          "type": "address"
        },
        {
          "indexed": false,
          "internalType": "uint256",
          "name": "timestamp",
          "type": "uint256"
        }
      ],
      "name": "DepositRevised",
      "type": "event"
    },
    {
      "anonymous": false,
      "inputs": [
        {
          "indexed": true,
          "internalType": "address",
          "name": "user",
          "type": "address"
        },
        {
          "indexed": true,
          "internalType": "uint256",
          "name": "pid",
          "type": "uint256"
        },
        {
          "indexed": false,
          "internalType": "uint256",
          "name": "amount",
          "type": "uint256"
        }
      ],
      "name": "EmergencyWithdraw",
      "type": "event"
    },
    {
      "anonymous": false,
      "inputs": [
        {
          "indexed": false,
          "internalType": "uint256",
          "name": "pid",
          "type": "uint256"
        },
        {
          "indexed": false,
          "internalType": "uint256",
          "name": "feeDays",
          "type": "uint256"
        }
      ],
      "name": "FeeDaysUpdated",
      "type": "event"
    },
    {
      "anonymous": false,
      "inputs": [
        {
          "indexed": false,
          "internalType": "address",
          "name": "soulAddress",
          "type": "address"
        },
        {
          "indexed": false,
          "internalType": "address",
          "name": "seanceAddress",
          "type": "address"
        },
        {
          "indexed": false,
          "internalType": "uint256",
          "name": "weight",
          "type": "uint256"
        }
      ],
      "name": "Initialized",
      "type": "event"
    },
    {
      "anonymous": false,
      "inputs": [
        {
          "indexed": false,
          "internalType": "uint256",
          "name": "pid",
          "type": "uint256"
        },
        {
          "indexed": false,
          "internalType": "uint256",
          "name": "allocPoint",
          "type": "uint256"
        },
        {
          "indexed": false,
          "internalType": "contract IERC20",
          "name": "lpToken",
          "type": "address"
        },
        {
          "indexed": false,
          "internalType": "uint256",
          "name": "totalAllocPoint",
          "type": "uint256"
        }
      ],
      "name": "PoolAdded",
      "type": "event"
    },
    {
      "anonymous": false,
      "inputs": [
        {
          "indexed": false,
          "internalType": "uint256",
          "name": "pid",
          "type": "uint256"
        },
        {
          "indexed": false,
          "internalType": "uint256",
          "name": "allocPoint",
          "type": "uint256"
        }
      ],
      "name": "PoolSet",
      "type": "event"
    },
    {
      "anonymous": false,
      "inputs": [
        {
          "indexed": false,
          "internalType": "uint256",
          "name": "dailySoul",
          "type": "uint256"
        },
        {
          "indexed": false,
          "internalType": "uint256",
          "name": "soulPerSecond",
          "type": "uint256"
        }
      ],
      "name": "RewardsUpdated",
      "type": "event"
    },
    {
      "anonymous": false,
      "inputs": [
        {
          "indexed": true,
          "internalType": "bytes32",
          "name": "role",
          "type": "bytes32"
        },
        {
          "indexed": true,
          "internalType": "bytes32",
          "name": "previousAdminRole",
          "type": "bytes32"
        },
        {
          "indexed": true,
          "internalType": "bytes32",
          "name": "newAdminRole",
          "type": "bytes32"
        }
      ],
      "name": "RoleAdminChanged",
      "type": "event"
    },
    {
      "anonymous": false,
      "inputs": [
        {
          "indexed": true,
          "internalType": "bytes32",
          "name": "role",
          "type": "bytes32"
        },
        {
          "indexed": true,
          "internalType": "address",
          "name": "account",
          "type": "address"
        },
        {
          "indexed": true,
          "internalType": "address",
          "name": "sender",
          "type": "address"
        }
      ],
      "name": "RoleGranted",
      "type": "event"
    },
    {
      "anonymous": false,
      "inputs": [
        {
          "indexed": true,
          "internalType": "bytes32",
          "name": "role",
          "type": "bytes32"
        },
        {
          "indexed": true,
          "internalType": "address",
          "name": "account",
          "type": "address"
        },
        {
          "indexed": true,
          "internalType": "address",
          "name": "sender",
          "type": "address"
        }
      ],
      "name": "RoleRevoked",
      "type": "event"
    },
    {
      "anonymous": false,
      "inputs": [
        {
          "indexed": false,
          "internalType": "address",
          "name": "soul",
          "type": "address"
        },
        {
          "indexed": false,
          "internalType": "address",
          "name": "seance",
          "type": "address"
        }
      ],
      "name": "TokensUpdated",
      "type": "event"
    },
    {
      "anonymous": false,
      "inputs": [
        {
          "indexed": false,
          "internalType": "uint256",
          "name": "weight",
          "type": "uint256"
        },
        {
          "indexed": false,
          "internalType": "uint256",
          "name": "totalWeight",
          "type": "uint256"
        }
      ],
      "name": "WeightUpdated",
      "type": "event"
    },
    {
      "anonymous": false,
      "inputs": [
        {
          "indexed": true,
          "internalType": "address",
          "name": "user",
          "type": "address"
        },
        {
          "indexed": true,
          "internalType": "uint256",
          "name": "pid",
          "type": "uint256"
        },
        {
          "indexed": false,
          "internalType": "uint256",
          "name": "amount",
          "type": "uint256"
        },
        {
          "indexed": false,
          "internalType": "uint256",
          "name": "feeAmount",
          "type": "uint256"
        },
        {
          "indexed": false,
          "internalType": "uint256",
          "name": "timeStamp",
          "type": "uint256"
        }
      ],
      "name": "Withdraw",
      "type": "event"
    },
    {
      "inputs": [],
      "name": "DEFAULT_ADMIN_ROLE",
      "outputs": [
        {
          "internalType": "bytes32",
          "name": "",
          "type": "bytes32"
        }
      ],
      "stateMutability": "view",
      "type": "function"
    },
    {
      "inputs": [],
      "name": "bonusMultiplier",
      "outputs": [
        {
          "internalType": "uint256",
          "name": "",
          "type": "uint256"
        }
      ],
      "stateMutability": "view",
      "type": "function"
    },
    {
      "inputs": [],
      "name": "dailyDecay",
      "outputs": [
        {
          "internalType": "uint256",
          "name": "",
          "type": "uint256"
        }
      ],
      "stateMutability": "view",
      "type": "function"
    },
    {
      "inputs": [],
      "name": "dailySoul",
      "outputs": [
        {
          "internalType": "uint256",
          "name": "",
          "type": "uint256"
        }
      ],
      "stateMutability": "view",
      "type": "function"
    },
    {
      "inputs": [],
      "name": "dao",
      "outputs": [
        {
          "internalType": "address",
          "name": "",
          "type": "address"
        }
      ],
      "stateMutability": "view",
      "type": "function"
    },
    {
      "inputs": [
        {
          "internalType": "bytes32",
          "name": "role",
          "type": "bytes32"
        }
      ],
      "name": "getRoleAdmin",
      "outputs": [
        {
          "internalType": "bytes32",
          "name": "",
          "type": "bytes32"
        }
      ],
      "stateMutability": "view",
      "type": "function"
    },
    {
      "inputs": [],
      "name": "globalDailySoul",
      "outputs": [
        {
          "internalType": "uint256",
          "name": "",
          "type": "uint256"
        }
      ],
      "stateMutability": "view",
      "type": "function"
    },
    {
      "inputs": [
        {
          "internalType": "bytes32",
          "name": "role",
          "type": "bytes32"
        },
        {
          "internalType": "address",
          "name": "account",
          "type": "address"
        }
      ],
      "name": "grantRole",
      "outputs": [],
      "stateMutability": "nonpayable",
      "type": "function"
    },
    {
      "inputs": [
        {
          "internalType": "bytes32",
          "name": "role",
          "type": "bytes32"
        },
        {
          "internalType": "address",
          "name": "account",
          "type": "address"
        }
      ],
      "name": "hasRole",
      "outputs": [
        {
          "internalType": "bool",
          "name": "",
          "type": "bool"
        }
      ],
      "stateMutability": "view",
      "type": "function"
    },
    {
      "inputs": [],
      "name": "isActivated",
      "outputs": [
        {
          "internalType": "bool",
          "name": "",
          "type": "bool"
        }
      ],
      "stateMutability": "view",
      "type": "function"
    },
    {
      "inputs": [],
      "name": "isEmergency",
      "outputs": [
        {
          "internalType": "bool",
          "name": "",
          "type": "bool"
        }
      ],
      "stateMutability": "view",
      "type": "function"
    },
    {
      "inputs": [],
      "name": "isInitialized",
      "outputs": [
        {
          "internalType": "bool",
          "name": "",
          "type": "bool"
        }
      ],
      "stateMutability": "view",
      "type": "function"
    },
    {
      "inputs": [],
      "name": "isis",
      "outputs": [
        {
          "internalType": "bytes32",
          "name": "",
          "type": "bytes32"
        }
      ],
      "stateMutability": "view",
      "type": "function"
    },
    {
      "inputs": [],
      "name": "maat",
      "outputs": [
        {
          "internalType": "bytes32",
          "name": "",
          "type": "bytes32"
        }
      ],
      "stateMutability": "view",
      "type": "function"
    },
    {
      "inputs": [],
      "name": "maxFeeDays",
      "outputs": [
        {
          "internalType": "uint256",
          "name": "",
          "type": "uint256"
        }
      ],
      "stateMutability": "view",
      "type": "function"
    },
    {
      "inputs": [
        {
          "internalType": "uint256",
          "name": "",
          "type": "uint256"
        }
      ],
      "name": "poolInfo",
      "outputs": [
        {
          "internalType": "contract IERC20",
          "name": "lpToken",
          "type": "address"
        },
        {
          "internalType": "uint256",
          "name": "allocPoint",
          "type": "uint256"
        },
        {
          "internalType": "uint256",
          "name": "lastRewardTime",
          "type": "uint256"
        },
        {
          "internalType": "uint256",
          "name": "accSoulPerShare",
          "type": "uint256"
        },
        {
          "internalType": "uint256",
          "name": "feeDays",
          "type": "uint256"
        }
      ],
      "stateMutability": "view",
      "type": "function"
    },
    {
      "inputs": [
        {
          "internalType": "bytes32",
          "name": "role",
          "type": "bytes32"
        },
        {
          "internalType": "address",
          "name": "account",
          "type": "address"
        }
      ],
      "name": "renounceRole",
      "outputs": [],
      "stateMutability": "nonpayable",
      "type": "function"
    },
    {
      "inputs": [
        {
          "internalType": "bytes32",
          "name": "role",
          "type": "bytes32"
        },
        {
          "internalType": "address",
          "name": "account",
          "type": "address"
        }
      ],
      "name": "revokeRole",
      "outputs": [],
      "stateMutability": "nonpayable",
      "type": "function"
    },
    {
      "inputs": [],
      "name": "seance",
      "outputs": [
        {
          "internalType": "contract IToken",
          "name": "",
          "type": "address"
        }
      ],
      "stateMutability": "view",
      "type": "function"
    },
    {
      "inputs": [],
      "name": "soul",
      "outputs": [
        {
          "internalType": "contract IToken",
          "name": "",
          "type": "address"
        }
      ],
      "stateMutability": "view",
      "type": "function"
    },
    {
      "inputs": [],
      "name": "soulPerSecond",
      "outputs": [
        {
          "internalType": "uint256",
          "name": "",
          "type": "uint256"
        }
      ],
      "stateMutability": "view",
      "type": "function"
    },
    {
      "inputs": [],
      "name": "startTime",
      "outputs": [
        {
          "internalType": "uint256",
          "name": "",
          "type": "uint256"
        }
      ],
      "stateMutability": "view",
      "type": "function"
    },
    {
      "inputs": [
        {
          "internalType": "bytes4",
          "name": "interfaceId",
          "type": "bytes4"
        }
      ],
      "name": "supportsInterface",
      "outputs": [
        {
          "internalType": "bool",
          "name": "",
          "type": "bool"
        }
      ],
      "stateMutability": "view",
      "type": "function"
    },
    {
      "inputs": [],
      "name": "team",
      "outputs": [
        {
          "internalType": "address",
          "name": "",
          "type": "address"
        }
      ],
      "stateMutability": "view",
      "type": "function"
    },
    {
      "inputs": [],
      "name": "totalAllocPoint",
      "outputs": [
        {
          "internalType": "uint256",
          "name": "",
          "type": "uint256"
        }
      ],
      "stateMutability": "view",
      "type": "function"
    },
    {
      "inputs": [],
      "name": "totalWeight",
      "outputs": [
        {
          "internalType": "uint256",
          "name": "",
          "type": "uint256"
        }
      ],
      "stateMutability": "view",
      "type": "function"
    },
    {
      "inputs": [
        {
          "internalType": "uint256",
          "name": "",
          "type": "uint256"
        },
        {
          "internalType": "address",
          "name": "",
          "type": "address"
        }
      ],
      "name": "userInfo",
      "outputs": [
        {
          "internalType": "uint256",
          "name": "amount",
          "type": "uint256"
        },
        {
          "internalType": "uint256",
          "name": "rewardDebt",
          "type": "uint256"
        },
        {
          "internalType": "uint256",
          "name": "withdrawalTime",
          "type": "uint256"
        },
        {
          "internalType": "uint256",
          "name": "depositTime",
          "type": "uint256"
        },
        {
          "internalType": "uint256",
          "name": "timeDelta",
          "type": "uint256"
        },
        {
          "internalType": "uint256",
          "name": "deltaDays",
          "type": "uint256"
        }
      ],
      "stateMutability": "view",
      "type": "function"
    },
    {
      "inputs": [],
      "name": "weight",
      "outputs": [
        {
          "internalType": "uint256",
          "name": "",
          "type": "uint256"
        }
      ],
      "stateMutability": "view",
      "type": "function"
    },
    {
      "inputs": [
        {
          "internalType": "address",
          "name": "_soulAddress",
          "type": "address"
        },
        {
          "internalType": "address",
          "name": "_seanceAddress",
          "type": "address"
        },
        {
          "internalType": "uint256",
          "name": "_weight",
          "type": "uint256"
        }
      ],
      "name": "initialize",
      "outputs": [],
      "stateMutability": "nonpayable",
      "type": "function"
    },
    {
      "inputs": [
        {
          "internalType": "bool",
          "name": "enabled",
          "type": "bool"
        }
      ],
      "name": "toggleEmergency",
      "outputs": [],
      "stateMutability": "nonpayable",
      "type": "function"
    },
    {
      "inputs": [
        {
          "internalType": "bool",
          "name": "enabled",
          "type": "bool"
        }
      ],
      "name": "toggleActive",
      "outputs": [],
      "stateMutability": "nonpayable",
      "type": "function"
    },
    {
      "inputs": [],
      "name": "poolLength",
      "outputs": [
        {
          "internalType": "uint256",
          "name": "",
          "type": "uint256"
        }
      ],
      "stateMutability": "view",
      "type": "function"
    },
    {
      "inputs": [
        {
          "internalType": "uint256",
          "name": "_allocPoint",
          "type": "uint256"
        },
        {
          "internalType": "contract IERC20",
          "name": "_lpToken",
          "type": "address"
        },
        {
          "internalType": "bool",
          "name": "_withUpdate",
          "type": "bool"
        },
        {
          "internalType": "uint256",
          "name": "_feeDays",
          "type": "uint256"
        }
      ],
      "name": "addPool",
      "outputs": [],
      "stateMutability": "nonpayable",
      "type": "function"
    },
    {
      "inputs": [
        {
          "internalType": "uint256",
          "name": "pid",
          "type": "uint256"
        },
        {
          "internalType": "uint256",
          "name": "allocPoint",
          "type": "uint256"
        },
        {
          "internalType": "bool",
          "name": "withUpdate",
          "type": "bool"
        }
      ],
      "name": "set",
      "outputs": [],
      "stateMutability": "nonpayable",
      "type": "function"
    },
    {
      "inputs": [
        {
          "internalType": "uint256",
          "name": "pid",
          "type": "uint256"
        }
      ],
      "name": "userDelta",
      "outputs": [
        {
          "internalType": "uint256",
          "name": "delta",
          "type": "uint256"
        }
      ],
      "stateMutability": "view",
      "type": "function"
    },
    {
      "inputs": [
        {
          "internalType": "uint256",
          "name": "pid",
          "type": "uint256"
        },
        {
          "internalType": "address",
          "name": "_user",
          "type": "address"
        }
      ],
      "name": "userDelta",
      "outputs": [
        {
          "internalType": "uint256",
          "name": "delta",
          "type": "uint256"
        }
      ],
      "stateMutability": "view",
      "type": "function"
    },
    {
      "inputs": [
        {
          "internalType": "uint256",
          "name": "from",
          "type": "uint256"
        },
        {
          "internalType": "uint256",
          "name": "to",
          "type": "uint256"
        }
      ],
      "name": "getMultiplier",
      "outputs": [
        {
          "internalType": "uint256",
          "name": "",
          "type": "uint256"
        }
      ],
      "stateMutability": "pure",
      "type": "function"
    },
    {
      "inputs": [
        {
          "internalType": "uint256",
          "name": "timeDelta",
          "type": "uint256"
        }
      ],
      "name": "getDeltaDays",
      "outputs": [
        {
          "internalType": "uint256",
          "name": "deltaDays",
          "type": "uint256"
        }
      ],
      "stateMutability": "pure",
      "type": "function"
    },
    {
      "inputs": [
        {
          "internalType": "uint256",
          "name": "pid",
          "type": "uint256"
        },
        {
          "internalType": "uint256",
          "name": "deltaDays",
          "type": "uint256"
        }
      ],
      "name": "getFeeRate",
      "outputs": [
        {
          "internalType": "uint256",
          "name": "feeRate",
          "type": "uint256"
        }
      ],
      "stateMutability": "view",
      "type": "function"
    },
    {
      "inputs": [
        {
          "internalType": "uint256",
          "name": "pid",
          "type": "uint256"
        },
        {
          "internalType": "uint256",
          "name": "deltaDays",
          "type": "uint256"
        },
        {
          "internalType": "uint256",
          "name": "amount",
          "type": "uint256"
        }
      ],
      "name": "getWithdrawable",
      "outputs": [
        {
          "internalType": "uint256",
          "name": "_feeAmount",
          "type": "uint256"
        },
        {
          "internalType": "uint256",
          "name": "_withdrawable",
          "type": "uint256"
        }
      ],
      "stateMutability": "view",
      "type": "function"
    },
    {
      "inputs": [
        {
          "internalType": "uint256",
          "name": "pid",
          "type": "uint256"
        },
        {
          "internalType": "address",
          "name": "account",
          "type": "address"
        }
      ],
      "name": "pendingSoul",
      "outputs": [
        {
          "internalType": "uint256",
          "name": "pendingAmount",
          "type": "uint256"
        }
      ],
      "stateMutability": "view",
      "type": "function"
    },
    {
      "inputs": [],
      "name": "massUpdatePools",
      "outputs": [],
      "stateMutability": "nonpayable",
      "type": "function"
    },
    {
      "inputs": [
        {
          "internalType": "uint256",
          "name": "pid",
          "type": "uint256"
        }
      ],
      "name": "updatePool",
      "outputs": [],
      "stateMutability": "nonpayable",
      "type": "function"
    },
    {
      "inputs": [
        {
          "internalType": "uint256",
          "name": "pid",
          "type": "uint256"
        }
      ],
      "name": "harvest",
      "outputs": [],
      "stateMutability": "nonpayable",
      "type": "function"
    },
    {
      "inputs": [
        {
          "internalType": "uint256[]",
          "name": "_pids",
          "type": "uint256[]"
        }
      ],
      "name": "harvestAll",
      "outputs": [],
      "stateMutability": "nonpayable",
      "type": "function"
    },
    {
      "inputs": [
        {
          "internalType": "uint256",
          "name": "pid",
          "type": "uint256"
        },
        {
          "internalType": "uint256",
          "name": "amount",
          "type": "uint256"
        }
      ],
      "name": "deposit",
      "outputs": [],
      "stateMutability": "nonpayable",
      "type": "function"
    },
    {
      "inputs": [
        {
          "internalType": "uint256",
          "name": "pid",
          "type": "uint256"
        },
        {
          "internalType": "uint256",
          "name": "amount",
          "type": "uint256"
        }
      ],
      "name": "withdraw",
      "outputs": [],
      "stateMutability": "nonpayable",
      "type": "function"
    },
    {
      "inputs": [
        {
          "internalType": "uint256",
          "name": "pid",
          "type": "uint256"
        }
      ],
      "name": "emergencyWithdraw",
      "outputs": [],
      "stateMutability": "nonpayable",
      "type": "function"
    },
    {
      "inputs": [
        {
          "internalType": "uint256",
          "name": "amount",
          "type": "uint256"
        }
      ],
      "name": "enterStaking",
      "outputs": [],
      "stateMutability": "nonpayable",
      "type": "function"
    },
    {
      "inputs": [
        {
          "internalType": "uint256",
          "name": "amount",
          "type": "uint256"
        }
      ],
      "name": "leaveStaking",
      "outputs": [],
      "stateMutability": "nonpayable",
      "type": "function"
    },
    {
      "inputs": [
        {
          "internalType": "uint256",
          "name": "_weight",
          "type": "uint256"
        },
        {
          "internalType": "uint256",
          "name": "_totalWeight",
          "type": "uint256"
        }
      ],
      "name": "updateWeight",
      "outputs": [],
      "stateMutability": "nonpayable",
      "type": "function"
    },
    {
      "inputs": [
        {
          "internalType": "uint256",
          "name": "pid",
          "type": "uint256"
        },
        {
          "internalType": "uint256",
          "name": "_daysRequested",
          "type": "uint256"
        }
      ],
      "name": "updateFeeDays",
      "outputs": [],
      "stateMutability": "nonpayable",
      "type": "function"
    },
    {
      "inputs": [
        {
          "internalType": "address",
          "name": "_dao",
          "type": "address"
        },
        {
          "internalType": "address",
          "name": "_team",
          "type": "address"
        }
      ],
      "name": "updateAccounts",
      "outputs": [],
      "stateMutability": "nonpayable",
      "type": "function"
    },
    {
      "inputs": [
        {
          "internalType": "uint256",
          "name": "amount",
          "type": "uint256"
        }
      ],
      "name": "enWei",
      "outputs": [
        {
          "internalType": "uint256",
          "name": "",
          "type": "uint256"
        }
      ],
      "stateMutability": "pure",
      "type": "function"
    },
    {
      "inputs": [
        {
          "internalType": "uint256",
          "name": "amount",
          "type": "uint256"
        }
      ],
      "name": "fromWei",
      "outputs": [
        {
          "internalType": "uint256",
          "name": "",
          "type": "uint256"
        }
      ],
      "stateMutability": "pure",
      "type": "function"
    }
  ],
  "bytecode": "0x6101006040526203d090608090815250600160a0908152506200002960016200018260201b60201c565b60c0908152506200004160646200018260201b60201c565b60e0908152503480156200005457600080fd5b5060018081905550600033905080600660006101000a81548173ffffffffffffffffffffffffffffffffffffffff021916908373ffffffffffffffffffffffffffffffffffffffff16021790555080600760006101000a81548173ffffffffffffffffffffffffffffffffffffffff021916908373ffffffffffffffffffffffffffffffffffffffff1602179055507f36d5d8406f8379c6deba01145ec4f6a2966675cc67d71355b397a2a8e3572b296011819055507f0811b25c145e1379dc78112dd91057f09150f6db05dfd7e04deb910e6cefd4b76012819055506200014a6000801b6000801b83620001a160201b60201c565b506200016260115460115483620001a160201b60201c565b506200017a60125460115483620001a160201b60201c565b505062000451565b6000670de0b6b3a7640000826200019a919062000406565b9050919050565b6000620001b58483620001d260201b60201c565b620001c78484620001e860201b60201c565b600190509392505050565b620001e482826200024b60201b60201c565b5050565b6000620001fb836200033c60201b60201c565b905081600080858152602001908152602001600020600101819055508181847fbd79b86ffe0ab8e8776151514217cd7cacd52c909f66475c3af44e129f0b00ff60405160405180910390a4505050565b6200025d82826200035b60201b60201c565b6200033857600160008084815260200190815260200160002060000160008373ffffffffffffffffffffffffffffffffffffffff1673ffffffffffffffffffffffffffffffffffffffff16815260200190815260200160002060006101000a81548160ff021916908315150217905550620002dd620003c560201b60201c565b73ffffffffffffffffffffffffffffffffffffffff168173ffffffffffffffffffffffffffffffffffffffff16837f2f8788117e7eff1d82e926ec794901d17c78024a50270940304540a733656f0d60405160405180910390a45b5050565b6000806000838152602001908152602001600020600101549050919050565b600080600084815260200190815260200160002060000160008373ffffffffffffffffffffffffffffffffffffffff1673ffffffffffffffffffffffffffffffffffffffff16815260200190815260200160002060009054906101000a900460ff16905092915050565b600033905090565b6000819050919050565b7f4e487b7100000000000000000000000000000000000000000000000000000000600052601160045260246000fd5b60006200041382620003cd565b91506200042083620003cd565b92508282026200043081620003cd565b915082820484148315176200044a5762000449620003d7565b5b5092915050565b60805160a05160c05160e051615dc5620004a06000396000818161145c0152612fe8015260006136fa01526000818161299a0152612bb701526000818161133701526139e00152615dc56000f3fe608060405234801561001057600080fd5b506004361061035d5760003560e01c80637d500ec8116101d3578063bfafcad511610104578063e2bbb158116100a2578063fb39d1e31161007c578063fb39d1e314610a18578063fbe0508c14610a48578063fc90fdc014610a64578063fd6f99d014610a825761035d565b8063e2bbb158146109ae578063e65d1522146109ca578063ea4bf446146109fa5761035d565b8063d547741f116100de578063d547741f1461093c578063d99e50da14610958578063ddc6326214610976578063e13e8ec2146109925761035d565b8063bfafcad5146108c0578063cb68bef8146108f0578063cf94ee961461090c5761035d565b806395aca47311610171578063a1aab33f1161014b578063a1aab33f1461084a578063a217fddf14610868578063a8b973a114610886578063af62147e146108a45761035d565b806395aca473146107cc57806396c82e57146107fc5780639f6c54261461081a5761035d565b806385f2aef2116101ad57806385f2aef2146107195780638dbb1e3a1461073757806391d148541461076757806393f1a40b146107975761035d565b80637d500ec8146106ac5780637e668b42146106ca578063815b7a8c146106fb5761035d565b8063392e53cd116102ad57806351eb05a61161024b5780635f9e8f82116102255780635f9e8f821461064a578063630b5ba11461066857806364482f791461067257806378e979251461068e5761035d565b806351eb05a6146105f45780635312ea8e146106105780635f9bf6891461062c5761035d565b8063441a3e7011610287578063441a3e70146105805780634a8c1fb41461059c5780634ca01d45146105ba5780634e5ef2a5146105d85761035d565b8063392e53cd1461052857806341441d3b146105465780634162169f146105625761035d565b806317caf6f11161031a5780632aabff15116102f45780632aabff15146104b85780632f2ff15d146104d45780632fe2d7ce146104f057806336568abe1461050c5761035d565b806317caf6f11461044c578063248a9ca31461046a57806324dd9ab21461049a5761035d565b806301ffc9a714610362578063081e3eda1461039257806309ae4d2c146103b05780631058d281146103e05780631526fe27146103fc5780631794bb3c14610430575b600080fd5b61037c600480360381019061037791906144f8565b610aa0565b6040516103899190614540565b60405180910390f35b61039a610b1a565b6040516103a79190614574565b60405180910390f35b6103ca60048036038101906103c591906145bb565b610b27565b6040516103d79190614574565b60405180910390f35b6103fa60048036038101906103f591906145bb565b610c02565b005b610416600480360381019061041191906145bb565b610fc7565b604051610427959493929190614667565b60405180910390f35b61044a600480360381019061044591906146f8565b61102d565b005b610454611310565b6040516104619190614574565b60405180910390f35b610484600480360381019061047f9190614781565b611316565b60405161049191906147bd565b60405180910390f35b6104a2611335565b6040516104af9190614574565b60405180910390f35b6104d260048036038101906104cd919061483d565b611359565b005b6104ee60048036038101906104e9919061488a565b61139f565b005b61050a600480360381019061050591906148ca565b6113c8565b005b6105266004803603810190610521919061488a565b611507565b005b61053061158a565b60405161053d9190614540565b60405180910390f35b610560600480360381019061055b91906145bb565b61159d565b005b61056a61193e565b6040516105779190614919565b60405180910390f35b61059a600480360381019061059591906148ca565b611964565b005b6105a4611e74565b6040516105b19190614540565b60405180910390f35b6105c2611e87565b6040516105cf9190614955565b60405180910390f35b6105f260048036038101906105ed91906149da565b611ead565b005b61060e600480360381019061060991906145bb565b611f7b565b005b61062a600480360381019061062591906145bb565b612373565b005b6106346126cf565b6040516106419190614574565b60405180910390f35b6106526126d5565b60405161065f9190614540565b60405180910390f35b6106706126e8565b005b61068c60048036038101906106879190614a41565b61271b565b005b6106966128e8565b6040516106a39190614574565b60405180910390f35b6106b46128ee565b6040516106c19190614574565b60405180910390f35b6106e460048036038101906106df9190614a94565b6128f4565b6040516106f2929190614ae7565b60405180910390f35b61070361294a565b6040516107109190614955565b60405180910390f35b610721612970565b60405161072e9190614919565b60405180910390f35b610751600480360381019061074c91906148ca565b612996565b60405161075e9190614574565b60405180910390f35b610781600480360381019061077c919061488a565b6129d7565b60405161078e9190614540565b60405180910390f35b6107b160048036038101906107ac9190614b10565b612a41565b6040516107c396959493929190614b50565b60405180910390f35b6107e660048036038101906107e191906145bb565b612a8a565b6040516107f39190614574565b60405180910390f35b610804612ab4565b6040516108119190614574565b60405180910390f35b610834600480360381019061082f91906148ca565b612aba565b6040516108419190614574565b60405180910390f35b610852612ba8565b60405161085f9190614574565b60405180910390f35b610870612bae565b60405161087d91906147bd565b60405180910390f35b61088e612bb5565b60405161089b9190614574565b60405180910390f35b6108be60048036038101906108b991906148ca565b612bd9565b005b6108da60048036038101906108d59190614b10565b612cd8565b6040516108e79190614574565b60405180910390f35b61090a60048036038101906109059190614bb1565b612f6e565b005b610926600480360381019061092191906145bb565b612fa0565b6040516109339190614574565b60405180910390f35b6109566004803603810190610951919061488a565b612fbd565b005b610960612fe6565b60405161096d9190614574565b60405180910390f35b610990600480360381019061098b91906145bb565b61300a565b005b6109ac60048036038101906109a79190614bde565b613030565b005b6109c860048036038101906109c391906148ca565b613232565b005b6109e460048036038101906109df91906145bb565b6135c7565b6040516109f19190614574565b60405180910390f35b610a026135e4565b604051610a0f91906147bd565b60405180910390f35b610a326004803603810190610a2d9190614b10565b6135ea565b604051610a3f9190614574565b60405180910390f35b610a626004803603810190610a5d9190614bb1565b6136c6565b005b610a6c6136f8565b604051610a799190614574565b60405180910390f35b610a8a61371c565b604051610a9791906147bd565b60405180910390f35b60007f7965db0b000000000000000000000000000000000000000000000000000000007bffffffffffffffffffffffffffffffffffffffffffffffffffffffff1916827bffffffffffffffffffffffffffffffffffffffffffffffffffffffff19161480610b135750610b1282613722565b5b9050919050565b6000600f80549050905090565b6000806010600084815260200190815260200160002060003373ffffffffffffffffffffffffffffffffffffffff1673ffffffffffffffffffffffffffffffffffffffff1681526020019081526020016000206040518060c0016040529081600082015481526020016001820154815260200160028201548152602001600382015481526020016004820154815260200160058201548152505090506000816040015114610be757806040015142610bdf9190614c4d565b915081610bfb565b806060015142610bf79190614c4d565b9150815b5050919050565b600260015403610c47576040517f08c379a0000000000000000000000000000000000000000000000000000000008152600401610c3e90614cde565b60405180910390fd5b6002600181905550600e60009054906101000a900460ff16610c9e576040517f08c379a0000000000000000000000000000000000000000000000000000000008152600401610c9590614d4a565b60405180910390fd5b600e60029054906101000a900460ff16610ced576040517f08c379a0000000000000000000000000000000000000000000000000000000008152600401610ce490614db6565b60405180910390fd5b6000600f600081548110610d0457610d03614dd6565b5b9060005260206000209060050201905060006010600080815260200190815260200160002060003373ffffffffffffffffffffffffffffffffffffffff1673ffffffffffffffffffffffffffffffffffffffff16815260200190815260200160002090508281600001541015610daf576040517f08c379a0000000000000000000000000000000000000000000000000000000008152600401610da690614e77565b60405180910390fd5b610db96000611f7b565b6000610dc6600033612cd8565b90506000811115610ddc57610ddb338261378c565b5b6000841115610f6557838260000154610df59190614c4d565b8260000181905550600560009054906101000a900473ffffffffffffffffffffffffffffffffffffffff1673ffffffffffffffffffffffffffffffffffffffff16639dc29fac33866040518363ffffffff1660e01b8152600401610e5a929190614e97565b600060405180830381600087803b158015610e7457600080fd5b505af1158015610e88573d6000803e3d6000fd5b5050505064e8d4a5100083600301548360000154610ea69190614ec0565b610eb09190614f31565b82600101819055504282600201819055508260000160009054906101000a900473ffffffffffffffffffffffffffffffffffffffff1673ffffffffffffffffffffffffffffffffffffffff1663a9059cbb33866040518363ffffffff1660e01b8152600401610f20929190614e97565b6020604051808303816000875af1158015610f3f573d6000803e3d6000fd5b505050506040513d601f19601f82011682018060405250810190610f639190614f77565b505b60003373ffffffffffffffffffffffffffffffffffffffff167fe08737ac48a1dab4b1a46c7dc9398bd5bfc6d7ad6fabb7cd8caa254de14def3586600042604051610fb293929190614fdf565b60405180910390a35050506001808190555050565b600f8181548110610fd757600080fd5b90600052602060002090600502016000915090508060000160009054906101000a900473ffffffffffffffffffffffffffffffffffffffff16908060010154908060020154908060030154908060040154905085565b6011546110418161103c613921565b613929565b600e60009054906101000a900460ff1615611091576040517f08c379a000000000000000000000000000000000000000000000000000000000815260040161108890615062565b60405180910390fd5b42600c819055506103e86008819055508160098190555083600260006101000a81548173ffffffffffffffffffffffffffffffffffffffff021916908373ffffffffffffffffffffffffffffffffffffffff16021790555082600460006101000a81548173ffffffffffffffffffffffffffffffffffffffff021916908373ffffffffffffffffffffffffffffffffffffffff16021790555083600360006101000a81548173ffffffffffffffffffffffffffffffffffffffff021916908373ffffffffffffffffffffffffffffffffffffffff16021790555082600560006101000a81548173ffffffffffffffffffffffffffffffffffffffff021916908373ffffffffffffffffffffffffffffffffffffffff1602179055506111ba6009546008546139c6565b600f6040518060a001604052808673ffffffffffffffffffffffffffffffffffffffff1681526020016103e88152602001600c548152602001600081526020016000815250908060018154018082558091505060019003906000526020600020906005020160009091909190915060008201518160000160006101000a81548173ffffffffffffffffffffffffffffffffffffffff021916908373ffffffffffffffffffffffffffffffffffffffff1602179055506020820151816001015560408201518160020155606082015181600301556080820151816004015550506001600e60006101000a81548160ff0219169083151502179055506103e8600d60008282546112c89190615082565b925050819055507f10f27652c1015195ca7e6bc9b4c724cbf18e91c42117d92124703a3f49bb240f848484604051611302939291906150b6565b60405180910390a150505050565b600d5481565b6000806000838152602001908152602001600020600101549050919050565b7f000000000000000000000000000000000000000000000000000000000000000081565b60005b8282905081101561139a5761138983838381811061137d5761137c614dd6565b5b9050602002013561300a565b80611393906150ed565b905061135c565b505050565b6113a882611316565b6113b9816113b4613921565b613929565b6113c38383613a69565b505050565b6012546113dc816113d7613921565b613929565b6000600f84815481106113f2576113f1614dd6565b5b90600052602060002090600502019050600061140d84612fa0565b905060008260040154905081810361145a576040517f08c379a000000000000000000000000000000000000000000000000000000000815260040161145190615181565b60405180910390fd5b7f00000000000000000000000000000000000000000000000000000000000000008111156114bd576040517f08c379a00000000000000000000000000000000000000000000000000000000081526004016114b4906151ed565b60405180910390fd5b8183600401819055507f11866c6bd0f6c9f4753a4891ab4d2e17484dbbdc2aa908db44e66a35c5c331dc86836040516114f7929190614ae7565b60405180910390a1505050505050565b61150f613921565b73ffffffffffffffffffffffffffffffffffffffff168173ffffffffffffffffffffffffffffffffffffffff161461157c576040517f08c379a00000000000000000000000000000000000000000000000000000000081526004016115739061527f565b60405180910390fd5b6115868282613b49565b5050565b600e60009054906101000a900460ff1681565b6002600154036115e2576040517f08c379a00000000000000000000000000000000000000000000000000000000081526004016115d990614cde565b60405180910390fd5b6002600181905550600e60009054906101000a900460ff16611639576040517f08c379a000000000000000000000000000000000000000000000000000000000815260040161163090614d4a565b60405180910390fd5b600e60029054906101000a900460ff16611688576040517f08c379a000000000000000000000000000000000000000000000000000000000815260040161167f90614db6565b60405180910390fd5b6000600f60008154811061169f5761169e614dd6565b5b9060005260206000209060050201905060006010600080815260200190815260200160002060003373ffffffffffffffffffffffffffffffffffffffff1673ffffffffffffffffffffffffffffffffffffffff168152602001908152602001600020905061170d6000611f7b565b600081600001549050600081111561173a57600061172c600033612cd8565b9050611738338261378c565b505b6000841115611804578260000160009054906101000a900473ffffffffffffffffffffffffffffffffffffffff1673ffffffffffffffffffffffffffffffffffffffff166323b872dd3330876040518463ffffffff1660e01b81526004016117a4939291906150b6565b6020604051808303816000875af11580156117c3573d6000803e3d6000fd5b505050506040513d601f19601f820116820180604052508101906117e79190614f77565b50838260000160008282546117fc9190615082565b925050819055505b600082600301540361181a574282600301819055505b64e8d4a51000836003015483600001546118349190614ec0565b61183e9190614f31565b826001018190555060008411156118df57600560009054906101000a900473ffffffffffffffffffffffffffffffffffffffff1673ffffffffffffffffffffffffffffffffffffffff166340c10f1933866040518363ffffffff1660e01b81526004016118ac929190614e97565b600060405180830381600087803b1580156118c657600080fd5b505af11580156118da573d6000803e3d6000fd5b505050505b60003373ffffffffffffffffffffffffffffffffffffffff167f36af321ec8d3c75236829c5317affd40ddb308863a1236d2d277a4025cccee1e8642604051611929929190614ae7565b60405180910390a35050506001808190555050565b600760009054906101000a900473ffffffffffffffffffffffffffffffffffffffff1681565b6002600154036119a9576040517f08c379a00000000000000000000000000000000000000000000000000000000081526004016119a090614cde565b60405180910390fd5b6002600181905550600e60009054906101000a900460ff16611a00576040517f08c379a00000000000000000000000000000000000000000000000000000000081526004016119f790614d4a565b60405180910390fd5b600e60029054906101000a900460ff16611a4f576040517f08c379a0000000000000000000000000000000000000000000000000000000008152600401611a4690614db6565b60405180910390fd5b81600f805490508110611a97576040517f08c379a0000000000000000000000000000000000000000000000000000000008152600401611a8e906152eb565b60405180910390fd5b60008303611ada576040517f08c379a0000000000000000000000000000000000000000000000000000000008152600401611ad19061537d565b60405180910390fd5b60008211611b1d576040517f08c379a0000000000000000000000000000000000000000000000000000000008152600401611b14906153e9565b60405180910390fd5b6000600f8481548110611b3357611b32614dd6565b5b9060005260206000209060050201905060006010600086815260200190815260200160002060003373ffffffffffffffffffffffffffffffffffffffff1673ffffffffffffffffffffffffffffffffffffffff16815260200190815260200160002090508381600001541015611bde576040517f08c379a0000000000000000000000000000000000000000000000000000000008152600401611bd590615455565b60405180910390fd5b611be785611f7b565b6000611bf38633612cd8565b90506000811115611c0957611c08338261378c565b5b6000611c1587336135ea565b90506000611c2282612a8a565b905086846000016000828254611c389190614c4d565b925050819055508184600401819055508084600501819055506000611c5e89838a6128f4565b91505060008189611c6f9190614c4d565b90508660000160009054906101000a900473ffffffffffffffffffffffffffffffffffffffff1673ffffffffffffffffffffffffffffffffffffffff1663a9059cbb600760009054906101000a900473ffffffffffffffffffffffffffffffffffffffff16836040518363ffffffff1660e01b8152600401611cf2929190614e97565b6020604051808303816000875af1158015611d11573d6000803e3d6000fd5b505050506040513d601f19601f82011682018060405250810190611d359190614f77565b508660000160009054906101000a900473ffffffffffffffffffffffffffffffffffffffff1673ffffffffffffffffffffffffffffffffffffffff1663a9059cbb33846040518363ffffffff1660e01b8152600401611d95929190614e97565b6020604051808303816000875af1158015611db4573d6000803e3d6000fd5b505050506040513d601f19601f82011682018060405250810190611dd89190614f77565b5064e8d4a5100087600301548760000154611df39190614ec0565b611dfd9190614f31565b8660010181905550428660020181905550893373ffffffffffffffffffffffffffffffffffffffff167fe08737ac48a1dab4b1a46c7dc9398bd5bfc6d7ad6fabb7cd8caa254de14def358b8442604051611e5993929190615475565b60405180910390a35050505050505050600180819055505050565b600e60029054906101000a900460ff1681565b600560009054906101000a900473ffffffffffffffffffffffffffffffffffffffff1681565b600e60009054906101000a900460ff16611efc576040517f08c379a0000000000000000000000000000000000000000000000000000000008152600401611ef390614d4a565b60405180910390fd5b600e60029054906101000a900460ff16611f4b576040517f08c379a0000000000000000000000000000000000000000000000000000000008152600401611f4290614db6565b60405180910390fd5b601154611f5f81611f5a613921565b613929565b611f6884613c2a565b611f7485858585613d08565b5050505050565b80600f805490508110611fc3576040517f08c379a0000000000000000000000000000000000000000000000000000000008152600401611fba906152eb565b60405180910390fd5b6000600f8381548110611fd957611fd8614dd6565b5b9060005260206000209060050201905080600201544211611ffa575061236f565b60008160000160009054906101000a900473ffffffffffffffffffffffffffffffffffffffff1673ffffffffffffffffffffffffffffffffffffffff166370a08231306040518263ffffffff1660e01b81526004016120599190614919565b602060405180830381865afa158015612076573d6000803e3d6000fd5b505050506040513d601f19601f8201168201806040525081019061209a91906154c1565b9050600081036120b457428260020181905550505061236f565b60006120c4836002015442612996565b90506000600d548460010154600b54846120de9190614ec0565b6120e89190614ec0565b6120f29190614f31565b90506000650746a528800064e8d4a510008361210e9190614ec0565b6121189190614f31565b9050600360009054906101000a900473ffffffffffffffffffffffffffffffffffffffff1673ffffffffffffffffffffffffffffffffffffffff166340c10f19600660009054906101000a900473ffffffffffffffffffffffffffffffffffffffff16836040518363ffffffff1660e01b8152600401612199929190614e97565b600060405180830381600087803b1580156121b357600080fd5b505af11580156121c7573d6000803e3d6000fd5b50505050600360009054906101000a900473ffffffffffffffffffffffffffffffffffffffff1673ffffffffffffffffffffffffffffffffffffffff166340c10f19600760009054906101000a900473ffffffffffffffffffffffffffffffffffffffff16836040518363ffffffff1660e01b815260040161224a929190614e97565b600060405180830381600087803b15801561226457600080fd5b505af1158015612278573d6000803e3d6000fd5b50505050600360009054906101000a900473ffffffffffffffffffffffffffffffffffffffff1673ffffffffffffffffffffffffffffffffffffffff166340c10f19600560009054906101000a900473ffffffffffffffffffffffffffffffffffffffff16846040518363ffffffff1660e01b81526004016122fb929190614e97565b600060405180830381600087803b15801561231557600080fd5b505af1158015612329573d6000803e3d6000fd5b505050508364e8d4a510008361233f9190614ec0565b6123499190614f31565b85600301546123589190615082565b856003018190555042856002018190555050505050505b5050565b6002600154036123b8576040517f08c379a00000000000000000000000000000000000000000000000000000000081526004016123af90614cde565b60405180910390fd5b6002600181905550600e60019054906101000a900460ff1661240f576040517f08c379a00000000000000000000000000000000000000000000000000000000081526004016124069061553a565b60405180910390fd5b6000600f828154811061242557612424614dd6565b5b9060005260206000209060050201905060006010600084815260200190815260200160002060003373ffffffffffffffffffffffffffffffffffffffff1673ffffffffffffffffffffffffffffffffffffffff168152602001908152602001600020905060008303612609578060000154600560009054906101000a900473ffffffffffffffffffffffffffffffffffffffff1673ffffffffffffffffffffffffffffffffffffffff166370a08231336040518263ffffffff1660e01b81526004016124f19190614919565b6020604051808303816000875af1158015612510573d6000803e3d6000fd5b505050506040513d601f19601f8201168201806040525081019061253491906154c1565b1015612575576040517f08c379a000000000000000000000000000000000000000000000000000000000815260040161256c906155cc565b60405180910390fd5b600560009054906101000a900473ffffffffffffffffffffffffffffffffffffffff1673ffffffffffffffffffffffffffffffffffffffff16639dc29fac3383600001546040518363ffffffff1660e01b81526004016125d6929190614e97565b600060405180830381600087803b1580156125f057600080fd5b505af1158015612604573d6000803e3d6000fd5b505050505b61265c3382600001548460000160009054906101000a900473ffffffffffffffffffffffffffffffffffffffff1673ffffffffffffffffffffffffffffffffffffffff16613e7c9092919063ffffffff16565b6000816000018190555060008160010181905550823373ffffffffffffffffffffffffffffffffffffffff167fbb757047c2b5f3974fe26b7c10f732e7bce710b0952a71082702781e62ae059583600001546040516126bb9190614574565b60405180910390a350506001808190555050565b600b5481565b600e60019054906101000a900460ff1681565b6000600f80549050905060005b818110156127175761270681611f7b565b80612710906150ed565b90506126f5565b5050565b600e60009054906101000a900460ff1661276a576040517f08c379a000000000000000000000000000000000000000000000000000000000815260040161276190614d4a565b60405180910390fd5b600e60029054906101000a900460ff166127b9576040517f08c379a00000000000000000000000000000000000000000000000000000000081526004016127b090614db6565b60405180910390fd5b82600f805490508110612801576040517f08c379a00000000000000000000000000000000000000000000000000000000081526004016127f8906152eb565b60405180910390fd5b60125461281581612810613921565b613929565b8215612824576128236126e8565b5b6000600f868154811061283a57612839614dd6565b5b906000526020600020906005020160010154905084600f878154811061286357612862614dd6565b5b9060005260206000209060050201600101819055508481146128a7578481600d5461288e9190614c4d565b6128989190615082565b600d819055506128a6613f02565b5b7fd88f859573973e938da5bf3e5100c16eee2090fa720e05ae3d452b4cd05cdcfd86866040516128d8929190614ae7565b60405180910390a1505050505050565b600c5481565b600a5481565b600080600061290b6129068787612aba565b6135c7565b905060006064828661291d9190614ec0565b6129279190614f31565b9050600081866129379190614c4d565b9050818194509450505050935093915050565b600360009054906101000a900473ffffffffffffffffffffffffffffffffffffffff1681565b600660009054906101000a900473ffffffffffffffffffffffffffffffffffffffff1681565b60007f000000000000000000000000000000000000000000000000000000000000000083836129c59190614c4d565b6129cf9190614ec0565b905092915050565b600080600084815260200190815260200160002060000160008373ffffffffffffffffffffffffffffffffffffffff1673ffffffffffffffffffffffffffffffffffffffff16815260200190815260200160002060009054906101000a900460ff16905092915050565b6010602052816000526040600020602052806000526040600020600091509150508060000154908060010154908060020154908060030154908060040154908060050154905086565b6000620151808210612aaa576201518082612aa59190614f31565b612aad565b60005b9050919050565b60085481565b600080612ac683612fa0565b90506000600f8581548110612ade57612add614dd6565b5b90600052602060002090600502016040518060a00160405290816000820160009054906101000a900473ffffffffffffffffffffffffffffffffffffffff1673ffffffffffffffffffffffffffffffffffffffff1673ffffffffffffffffffffffffffffffffffffffff1681526020016001820154815260200160028201548152602001600382015481526020016004820154815250509050600081608001519050808310612b905760009350612b9f565b8281612b9c9190614c4d565b93505b50505092915050565b60095481565b6000801b81565b7f000000000000000000000000000000000000000000000000000000000000000081565b601254612bed81612be8613921565b613929565b82600954141580612c0057508160085414155b612c3f576040517f08c379a0000000000000000000000000000000000000000000000000000000008152600401612c3690615638565b60405180910390fd5b82821015612c82576040517f08c379a0000000000000000000000000000000000000000000000000000000008152600401612c79906156a4565b60405180910390fd5b8260098190555081600881905550612c9a83836139c6565b7fb298bc23e07860d501fddce288f46d761aa04a0c7c3316099eb50f097aacf3048383604051612ccb929190614ae7565b60405180910390a1505050565b600080600f8481548110612cef57612cee614dd6565b5b90600052602060002090600502016040518060a00160405290816000820160009054906101000a900473ffffffffffffffffffffffffffffffffffffffff1673ffffffffffffffffffffffffffffffffffffffff1673ffffffffffffffffffffffffffffffffffffffff168152602001600182015481526020016002820154815260200160038201548152602001600482015481525050905060006010600086815260200190815260200160002060008573ffffffffffffffffffffffffffffffffffffffff1673ffffffffffffffffffffffffffffffffffffffff1681526020019081526020016000206040518060c0016040529081600082015481526020016001820154815260200160028201548152602001600382015481526020016004820154815260200160058201548152505090506000826060015190506000836000015173ffffffffffffffffffffffffffffffffffffffff166370a08231306040518263ffffffff1660e01b8152600401612e6b9190614919565b602060405180830381865afa158015612e88573d6000803e3d6000fd5b505050506040513d601f19601f82011682018060405250810190612eac91906154c1565b9050836040015142118015612ec2575060008114155b15612f33576000612ed7856040015142612996565b90506000600d548660200151600b5484612ef19190614ec0565b612efb9190614ec0565b612f059190614f31565b90508264e8d4a5100082612f199190614ec0565b612f239190614f31565b84612f2e9190615082565b935050505b826020015164e8d4a51000838560000151612f4e9190614ec0565b612f589190614f31565b612f629190614c4d565b94505050505092915050565b601254612f8281612f7d613921565b613929565b81600e60016101000a81548160ff0219169083151502179055505050565b6000670de0b6b3a764000082612fb69190614ec0565b9050919050565b612fc682611316565b612fd781612fd2613921565b613929565b612fe18383613b49565b505050565b7f000000000000000000000000000000000000000000000000000000000000000081565b600081036130215761301c600061159d565b61302d565b61302c816000613232565b5b50565b6011546130448161303f613921565b613929565b8273ffffffffffffffffffffffffffffffffffffffff16600760009054906101000a900473ffffffffffffffffffffffffffffffffffffffff1673ffffffffffffffffffffffffffffffffffffffff161415806130ef57508173ffffffffffffffffffffffffffffffffffffffff16600660009054906101000a900473ffffffffffffffffffffffffffffffffffffffff1673ffffffffffffffffffffffffffffffffffffffff1614155b61312e576040517f08c379a000000000000000000000000000000000000000000000000000000000815260040161312590615710565b60405180910390fd5b82600760006101000a81548173ffffffffffffffffffffffffffffffffffffffff021916908373ffffffffffffffffffffffffffffffffffffffff16021790555081600660006101000a81548173ffffffffffffffffffffffffffffffffffffffff021916908373ffffffffffffffffffffffffffffffffffffffff1602179055507fd1c04282701cbf58aa2f0026f6876051cf3feb8ee7b8b5b5532ebb4ab03fb5d4600760009054906101000a900473ffffffffffffffffffffffffffffffffffffffff16600660009054906101000a900473ffffffffffffffffffffffffffffffffffffffff16604051613225929190615730565b60405180910390a1505050565b600260015403613277576040517f08c379a000000000000000000000000000000000000000000000000000000000815260040161326e90614cde565b60405180910390fd5b6002600181905550600e60009054906101000a900460ff166132ce576040517f08c379a00000000000000000000000000000000000000000000000000000000081526004016132c590614d4a565b60405180910390fd5b600e60029054906101000a900460ff1661331d576040517f08c379a000000000000000000000000000000000000000000000000000000000815260040161331490614db6565b60405180910390fd5b81600f805490508110613365576040517f08c379a000000000000000000000000000000000000000000000000000000000815260040161335c906152eb565b60405180910390fd5b600083036133a8576040517f08c379a000000000000000000000000000000000000000000000000000000000815260040161339f906157cb565b60405180910390fd5b6000600f84815481106133be576133bd614dd6565b5b9060005260206000209060050201905060006010600086815260200190815260200160002060003373ffffffffffffffffffffffffffffffffffffffff1673ffffffffffffffffffffffffffffffffffffffff168152602001908152602001600020905061342b85611f7b565b60008160000154111561345c5760006134448633612cd8565b9050600081111561345a57613459338261378c565b5b505b6000841115613526578160000160009054906101000a900473ffffffffffffffffffffffffffffffffffffffff1673ffffffffffffffffffffffffffffffffffffffff166323b872dd3330876040518463ffffffff1660e01b81526004016134c6939291906150b6565b6020604051808303816000875af11580156134e5573d6000803e3d6000fd5b505050506040513d601f19601f820116820180604052508101906135099190614f77565b508381600001600082825461351e9190615082565b925050819055505b64e8d4a51000826003015482600001546135409190614ec0565b61354a9190614f31565b81600101819055506000816003015403613568574281600301819055505b843373ffffffffffffffffffffffffffffffffffffffff167f36af321ec8d3c75236829c5317affd40ddb308863a1236d2d277a4025cccee1e86426040516135b1929190614ae7565b60405180910390a3505050600180819055505050565b6000670de0b6b3a7640000826135dd9190614f31565b9050919050565b60115481565b6000806010600085815260200190815260200160002060008473ffffffffffffffffffffffffffffffffffffffff1673ffffffffffffffffffffffffffffffffffffffff1681526020019081526020016000206040518060c00160405290816000820154815260200160018201548152602001600282015481526020016003820154815260200160048201548152602001600582015481525050905060008160400151146136aa578060400151426136a29190614c4d565b9150816136be565b8060600151426136ba9190614c4d565b9150815b505092915050565b6011546136da816136d5613921565b613929565b81600e60026101000a81548160ff0219169083151502179055505050565b7f000000000000000000000000000000000000000000000000000000000000000081565b60125481565b60007f01ffc9a7000000000000000000000000000000000000000000000000000000007bffffffffffffffffffffffffffffffffffffffffffffffffffffffff1916827bffffffffffffffffffffffffffffffffffffffffffffffffffffffff1916149050919050565b80600560009054906101000a900473ffffffffffffffffffffffffffffffffffffffff1673ffffffffffffffffffffffffffffffffffffffff166370a08231600260009054906101000a900473ffffffffffffffffffffffffffffffffffffffff166040518263ffffffff1660e01b815260040161380a9190614919565b6020604051808303816000875af1158015613829573d6000803e3d6000fd5b505050506040513d601f19601f8201168201806040525081019061384d91906154c1565b101561388e576040517f08c379a00000000000000000000000000000000000000000000000000000000081526004016138859061585d565b60405180910390fd5b600560009054906101000a900473ffffffffffffffffffffffffffffffffffffffff1673ffffffffffffffffffffffffffffffffffffffff1663b2a142aa83836040518363ffffffff1660e01b81526004016138eb929190614e97565b600060405180830381600087803b15801561390557600080fd5b505af1158015613919573d6000803e3d6000fd5b505050505050565b600033905090565b61393382826129d7565b6139c2576139588173ffffffffffffffffffffffffffffffffffffffff166014613fed565b6139668360001c6020613fed565b604051602001613977929190615986565b6040516020818303038152906040526040517f08c379a00000000000000000000000000000000000000000000000000000000081526004016139b99190615a0a565b60405180910390fd5b5050565b6000816139d284612fa0565b6139dc9190614f31565b90507f000000000000000000000000000000000000000000000000000000000000000081613a0a9190614ec0565b600a8190555062015180600a54613a219190614f31565b600b819055507fcd7c861d63893659123f817b192b8621ff1923a7c4589c260173cedcf9e986a6600a54600b54604051613a5c929190614ae7565b60405180910390a1505050565b613a7382826129d7565b613b4557600160008084815260200190815260200160002060000160008373ffffffffffffffffffffffffffffffffffffffff1673ffffffffffffffffffffffffffffffffffffffff16815260200190815260200160002060006101000a81548160ff021916908315150217905550613aea613921565b73ffffffffffffffffffffffffffffffffffffffff168173ffffffffffffffffffffffffffffffffffffffff16837f2f8788117e7eff1d82e926ec794901d17c78024a50270940304540a733656f0d60405160405180910390a45b5050565b613b5382826129d7565b15613c2657600080600084815260200190815260200160002060000160008373ffffffffffffffffffffffffffffffffffffffff1673ffffffffffffffffffffffffffffffffffffffff16815260200190815260200160002060006101000a81548160ff021916908315150217905550613bcb613921565b73ffffffffffffffffffffffffffffffffffffffff168173ffffffffffffffffffffffffffffffffffffffff16837ff6391f5c32d9c69d2a47ea670b442974b53935d1edc7fd64eb21e047a839171b60405160405180910390a45b5050565b6000600f80549050905060005b81811015613d03578273ffffffffffffffffffffffffffffffffffffffff16600f8281548110613c6a57613c69614dd6565b5b906000526020600020906005020160000160009054906101000a900473ffffffffffffffffffffffffffffffffffffffff1673ffffffffffffffffffffffffffffffffffffffff1603613cf2576040517f08c379a0000000000000000000000000000000000000000000000000000000008152600401613ce990615a78565b60405180910390fd5b80613cfc906150ed565b9050613c37565b505050565b8115613d1757613d166126e8565b5b83600d6000828254613d299190615082565b92505081905550600f6040518060a001604052808573ffffffffffffffffffffffffffffffffffffffff168152602001868152602001600c544211613d7057600c54613d72565b425b815260200160008152602001613d8784612fa0565b815250908060018154018082558091505060019003906000526020600020906005020160009091909190915060008201518160000160006101000a81548173ffffffffffffffffffffffffffffffffffffffff021916908373ffffffffffffffffffffffffffffffffffffffff160217905550602082015181600101556040820151816002015560608201518160030155608082015181600401555050613e2c613f02565b6000600f8054905090507f20b669aa921947a6d9602a921d2db3b6b30f21b9aca98580fa3972530330b27a818686600d54604051613e6d9493929190615a98565b60405180910390a15050505050565b613efd8363a9059cbb60e01b8484604051602401613e9b929190614e97565b604051602081830303815290604052907bffffffffffffffffffffffffffffffffffffffffffffffffffffffff19166020820180517bffffffffffffffffffffffffffffffffffffffffffffffffffffffff8381831617835250505050614229565b505050565b6000600f805490509050600080600190505b82811015613f6057600f8181548110613f3057613f2f614dd6565b5b90600052602060002090600502016001015482613f4d9190615082565b915080613f59906150ed565b9050613f14565b5060008114613fe957600381613f769190614f31565b905080600f600081548110613f8e57613f8d614dd6565b5b906000526020600020906005020160010154600d54613fad9190614c4d565b613fb79190615082565b600d8190555080600f600081548110613fd357613fd2614dd6565b5b9060005260206000209060050201600101819055505b5050565b6060600060028360026140009190614ec0565b61400a9190615082565b67ffffffffffffffff81111561402357614022615add565b5b6040519080825280601f01601f1916602001820160405280156140555781602001600182028036833780820191505090505b5090507f30000000000000000000000000000000000000000000000000000000000000008160008151811061408d5761408c614dd6565b5b60200101907effffffffffffffffffffffffffffffffffffffffffffffffffffffffffffff1916908160001a9053507f7800000000000000000000000000000000000000000000000000000000000000816001815181106140f1576140f0614dd6565b5b60200101907effffffffffffffffffffffffffffffffffffffffffffffffffffffffffffff1916908160001a905350600060018460026141319190614ec0565b61413b9190615082565b90505b60018111156141db577f3031323334353637383961626364656600000000000000000000000000000000600f86166010811061417d5761417c614dd6565b5b1a60f81b82828151811061419457614193614dd6565b5b60200101907effffffffffffffffffffffffffffffffffffffffffffffffffffffffffffff1916908160001a905350600485901c9450806141d490615b0c565b905061413e565b506000841461421f576040517f08c379a000000000000000000000000000000000000000000000000000000000815260040161421690615b81565b60405180910390fd5b8091505092915050565b600061428b826040518060400160405280602081526020017f5361666545524332303a206c6f772d6c6576656c2063616c6c206661696c65648152508573ffffffffffffffffffffffffffffffffffffffff166142f09092919063ffffffff16565b90506000815111156142eb57808060200190518101906142ab9190614f77565b6142ea576040517f08c379a00000000000000000000000000000000000000000000000000000000081526004016142e190615c13565b60405180910390fd5b5b505050565b60606142ff8484600085614308565b90509392505050565b60608247101561434d576040517f08c379a000000000000000000000000000000000000000000000000000000000815260040161434490615ca5565b60405180910390fd5b6143568561441c565b614395576040517f08c379a000000000000000000000000000000000000000000000000000000000815260040161438c90615d11565b60405180910390fd5b6000808673ffffffffffffffffffffffffffffffffffffffff1685876040516143be9190615d78565b60006040518083038185875af1925050503d80600081146143fb576040519150601f19603f3d011682016040523d82523d6000602084013e614400565b606091505b509150915061441082828661442f565b92505050949350505050565b600080823b905060008111915050919050565b6060831561443f5782905061448f565b6000835111156144525782518084602001fd5b816040517f08c379a00000000000000000000000000000000000000000000000000000000081526004016144869190615a0a565b60405180910390fd5b9392505050565b600080fd5b600080fd5b60007fffffffff0000000000000000000000000000000000000000000000000000000082169050919050565b6144d5816144a0565b81146144e057600080fd5b50565b6000813590506144f2816144cc565b92915050565b60006020828403121561450e5761450d614496565b5b600061451c848285016144e3565b91505092915050565b60008115159050919050565b61453a81614525565b82525050565b60006020820190506145556000830184614531565b92915050565b6000819050919050565b61456e8161455b565b82525050565b60006020820190506145896000830184614565565b92915050565b6145988161455b565b81146145a357600080fd5b50565b6000813590506145b58161458f565b92915050565b6000602082840312156145d1576145d0614496565b5b60006145df848285016145a6565b91505092915050565b600073ffffffffffffffffffffffffffffffffffffffff82169050919050565b6000819050919050565b600061462d614628614623846145e8565b614608565b6145e8565b9050919050565b600061463f82614612565b9050919050565b600061465182614634565b9050919050565b61466181614646565b82525050565b600060a08201905061467c6000830188614658565b6146896020830187614565565b6146966040830186614565565b6146a36060830185614565565b6146b06080830184614565565b9695505050505050565b60006146c5826145e8565b9050919050565b6146d5816146ba565b81146146e057600080fd5b50565b6000813590506146f2816146cc565b92915050565b60008060006060848603121561471157614710614496565b5b600061471f868287016146e3565b9350506020614730868287016146e3565b9250506040614741868287016145a6565b9150509250925092565b6000819050919050565b61475e8161474b565b811461476957600080fd5b50565b60008135905061477b81614755565b92915050565b60006020828403121561479757614796614496565b5b60006147a58482850161476c565b91505092915050565b6147b78161474b565b82525050565b60006020820190506147d260008301846147ae565b92915050565b600080fd5b600080fd5b600080fd5b60008083601f8401126147fd576147fc6147d8565b5b8235905067ffffffffffffffff81111561481a576148196147dd565b5b602083019150836020820283011115614836576148356147e2565b5b9250929050565b6000806020838503121561485457614853614496565b5b600083013567ffffffffffffffff8111156148725761487161449b565b5b61487e858286016147e7565b92509250509250929050565b600080604083850312156148a1576148a0614496565b5b60006148af8582860161476c565b92505060206148c0858286016146e3565b9150509250929050565b600080604083850312156148e1576148e0614496565b5b60006148ef858286016145a6565b9250506020614900858286016145a6565b9150509250929050565b614913816146ba565b82525050565b600060208201905061492e600083018461490a565b92915050565b600061493f82614634565b9050919050565b61494f81614934565b82525050565b600060208201905061496a6000830184614946565b92915050565b600061497b826146ba565b9050919050565b61498b81614970565b811461499657600080fd5b50565b6000813590506149a881614982565b92915050565b6149b781614525565b81146149c257600080fd5b50565b6000813590506149d4816149ae565b92915050565b600080600080608085870312156149f4576149f3614496565b5b6000614a02878288016145a6565b9450506020614a1387828801614999565b9350506040614a24878288016149c5565b9250506060614a35878288016145a6565b91505092959194509250565b600080600060608486031215614a5a57614a59614496565b5b6000614a68868287016145a6565b9350506020614a79868287016145a6565b9250506040614a8a868287016149c5565b9150509250925092565b600080600060608486031215614aad57614aac614496565b5b6000614abb868287016145a6565b9350506020614acc868287016145a6565b9250506040614add868287016145a6565b9150509250925092565b6000604082019050614afc6000830185614565565b614b096020830184614565565b9392505050565b60008060408385031215614b2757614b26614496565b5b6000614b35858286016145a6565b9250506020614b46858286016146e3565b9150509250929050565b600060c082019050614b656000830189614565565b614b726020830188614565565b614b7f6040830187614565565b614b8c6060830186614565565b614b996080830185614565565b614ba660a0830184614565565b979650505050505050565b600060208284031215614bc757614bc6614496565b5b6000614bd5848285016149c5565b91505092915050565b60008060408385031215614bf557614bf4614496565b5b6000614c03858286016146e3565b9250506020614c14858286016146e3565b9150509250929050565b7f4e487b7100000000000000000000000000000000000000000000000000000000600052601160045260246000fd5b6000614c588261455b565b9150614c638361455b565b9250828203905081811115614c7b57614c7a614c1e565b5b92915050565b600082825260208201905092915050565b7f5265656e7472616e637947756172643a207265656e7472616e742063616c6c00600082015250565b6000614cc8601f83614c81565b9150614cd382614c92565b602082019050919050565b60006020820190508181036000830152614cf781614cbb565b9050919050565b7f726577617264732068617665206e6f742079657420626567756e2e0000000000600082015250565b6000614d34601b83614c81565b9150614d3f82614cfe565b602082019050919050565b60006020820190508181036000830152614d6381614d27565b9050919050565b7f636f6e74726163742069732063757272656e746c792070617573656400000000600082015250565b6000614da0601c83614c81565b9150614dab82614d6a565b602082019050919050565b60006020820190508181036000830152614dcf81614d93565b9050919050565b7f4e487b7100000000000000000000000000000000000000000000000000000000600052603260045260246000fd5b7f726571756573746564207769746864726177616c20657863656564732073746160008201527f6b65642062616c616e6365000000000000000000000000000000000000000000602082015250565b6000614e61602b83614c81565b9150614e6c82614e05565b604082019050919050565b60006020820190508181036000830152614e9081614e54565b9050919050565b6000604082019050614eac600083018561490a565b614eb96020830184614565565b9392505050565b6000614ecb8261455b565b9150614ed68361455b565b9250828202614ee48161455b565b91508282048414831517614efb57614efa614c1e565b5b5092915050565b7f4e487b7100000000000000000000000000000000000000000000000000000000600052601260045260246000fd5b6000614f3c8261455b565b9150614f478361455b565b925082614f5757614f56614f02565b5b828204905092915050565b600081519050614f71816149ae565b92915050565b600060208284031215614f8d57614f8c614496565b5b6000614f9b84828501614f62565b91505092915050565b6000819050919050565b6000614fc9614fc4614fbf84614fa4565b614608565b61455b565b9050919050565b614fd981614fae565b82525050565b6000606082019050614ff46000830186614565565b6150016020830185614fd0565b61500e6040830184614565565b949350505050565b7f72657761726473206861766520616c726561647920626567756e000000000000600082015250565b600061504c601a83614c81565b915061505782615016565b602082019050919050565b6000602082019050818103600083015261507b8161503f565b9050919050565b600061508d8261455b565b91506150988361455b565b92508282019050808211156150b0576150af614c1e565b5b92915050565b60006060820190506150cb600083018661490a565b6150d8602083018561490a565b6150e56040830184614565565b949350505050565b60006150f88261455b565b91507fffffffffffffffffffffffffffffffffffffffffffffffffffffffffffffffff820361512a57615129614c1e565b5b600182019050919050565b7f6d7573742062652061206e65772076616c756500000000000000000000000000600082015250565b600061516b601383614c81565b915061517682615135565b602082019050919050565b6000602082019050818103600083015261519a8161515e565b9050919050565b7f6578636565647320616c6c6f7761626c65206665654461797300000000000000600082015250565b60006151d7601983614c81565b91506151e2826151a1565b602082019050919050565b60006020820190508181036000830152615206816151ca565b9050919050565b7f416363657373436f6e74726f6c3a2063616e206f6e6c792072656e6f756e636560008201527f20726f6c657320666f722073656c660000000000000000000000000000000000602082015250565b6000615269602f83614c81565b91506152748261520d565b604082019050919050565b600060208201905081810360008301526152988161525c565b9050919050565b7f706f6f6c20646f6573206e6f7420657869737400000000000000000000000000600082015250565b60006152d5601383614c81565b91506152e08261529f565b602082019050919050565b60006020820190508181036000830152615304816152c8565b9050919050565b7f776974686472617720534f554c20627920756e7374616b696e6720286c65617660008201527f655374616b696e67290000000000000000000000000000000000000000000000602082015250565b6000615367602983614c81565b91506153728261530b565b604082019050919050565b600060208201905081810360008301526153968161535a565b9050919050565b7f63616e6e6f74207769746864726177207a65726f000000000000000000000000600082015250565b60006153d3601483614c81565b91506153de8261539d565b602082019050919050565b60006020820190508181036000830152615402816153c6565b9050919050565b7f7769746864726177616c2065786365656473206465706f736974000000000000600082015250565b600061543f601a83614c81565b915061544a82615409565b602082019050919050565b6000602082019050818103600083015261546e81615432565b9050919050565b600060608201905061548a6000830186614565565b6154976020830185614565565b6154a46040830184614565565b949350505050565b6000815190506154bb8161458f565b92915050565b6000602082840312156154d7576154d6614496565b5b60006154e5848285016154ac565b91505092915050565b7f656d657267656e6379206d6f6465206973206e6f74206163746976652e000000600082015250565b6000615524601d83614c81565b915061552f826154ee565b602082019050919050565b6000602082019050818103600083015261555381615517565b9050919050565b7f696e73756666696369656e74205345414e434520746f20636f76657220534f5560008201527f4c207769746864726177616c2072657175657374000000000000000000000000602082015250565b60006155b6603483614c81565b91506155c18261555a565b604082019050919050565b600060208201905081810360008301526155e5816155a9565b9050919050565b7f6d75737420696e636c7564652061206e65772076616c75650000000000000000600082015250565b6000615622601883614c81565b915061562d826155ec565b602082019050919050565b6000602082019050818103600083015261565181615615565b9050919050565b7f7765696768742063616e6e6f742065786365656420746f74616c576569676874600082015250565b600061568e602083614c81565b915061569982615658565b602082019050919050565b600060208201905081810360008301526156bd81615681565b9050919050565b7f6d75737420696e636c7564652061206e6577206163636f756e74000000000000600082015250565b60006156fa601a83614c81565b9150615705826156c4565b602082019050919050565b60006020820190508181036000830152615729816156ed565b9050919050565b6000604082019050615745600083018561490a565b615752602083018461490a565b9392505050565b7f6465706f73697420534f554c206279207374616b696e672028656e746572537460008201527f616b696e67290000000000000000000000000000000000000000000000000000602082015250565b60006157b5602683614c81565b91506157c082615759565b604082019050919050565b600060208201905081810360008301526157e4816157a8565b9050919050565b7f696e73756666696369656e7420636f76657261676520666f722072657175657360008201527f74656420534f554c2066726f6d205345414e4345000000000000000000000000602082015250565b6000615847603483614c81565b9150615852826157eb565b604082019050919050565b600060208201905081810360008301526158768161583a565b9050919050565b600081905092915050565b7f416363657373436f6e74726f6c3a206163636f756e7420000000000000000000600082015250565b60006158be60178361587d565b91506158c982615888565b601782019050919050565b600081519050919050565b60005b838110156158fd5780820151818401526020810190506158e2565b60008484015250505050565b6000615914826158d4565b61591e818561587d565b935061592e8185602086016158df565b80840191505092915050565b7f206973206d697373696e6720726f6c6520000000000000000000000000000000600082015250565b600061597060118361587d565b915061597b8261593a565b601182019050919050565b6000615991826158b1565b915061599d8285615909565b91506159a882615963565b91506159b48284615909565b91508190509392505050565b6000601f19601f8301169050919050565b60006159dc826158d4565b6159e68185614c81565b93506159f68185602086016158df565b6159ff816159c0565b840191505092915050565b60006020820190508181036000830152615a2481846159d1565b905092915050565b7f6475706c69636174656420706f6f6c0000000000000000000000000000000000600082015250565b6000615a62600f83614c81565b9150615a6d82615a2c565b602082019050919050565b60006020820190508181036000830152615a9181615a55565b9050919050565b6000608082019050615aad6000830187614565565b615aba6020830186614565565b615ac76040830185614658565b615ad46060830184614565565b95945050505050565b7f4e487b7100000000000000000000000000000000000000000000000000000000600052604160045260246000fd5b6000615b178261455b565b915060008203615b2a57615b29614c1e565b5b600182039050919050565b7f537472696e67733a20686578206c656e67746820696e73756666696369656e74600082015250565b6000615b6b602083614c81565b9150615b7682615b35565b602082019050919050565b60006020820190508181036000830152615b9a81615b5e565b9050919050565b7f5361666545524332303a204552433230206f7065726174696f6e20646964206e60008201527f6f74207375636365656400000000000000000000000000000000000000000000602082015250565b6000615bfd602a83614c81565b9150615c0882615ba1565b604082019050919050565b60006020820190508181036000830152615c2c81615bf0565b9050919050565b7f416464726573733a20696e73756666696369656e742062616c616e636520666f60008201527f722063616c6c0000000000000000000000000000000000000000000000000000602082015250565b6000615c8f602683614c81565b9150615c9a82615c33565b604082019050919050565b60006020820190508181036000830152615cbe81615c82565b9050919050565b7f416464726573733a2063616c6c20746f206e6f6e2d636f6e7472616374000000600082015250565b6000615cfb601d83614c81565b9150615d0682615cc5565b602082019050919050565b60006020820190508181036000830152615d2a81615cee565b9050919050565b600081519050919050565b600081905092915050565b6000615d5282615d31565b615d5c8185615d3c565b9350615d6c8185602086016158df565b80840191505092915050565b6000615d848284615d47565b91508190509291505056fea26469706673582212209833d4bf34265256195b468dfd706dfced2229b9c8df47682bd54c2e03fc082264736f6c63430008110033",
  "immutableReferences": {
    "16889": [
      {
        "length": 32,
        "start": 4919
      },
      {
        "length": 32,
        "start": 14816
      }
    ],
    "16900": [
      {
        "length": 32,
        "start": 10650
      },
      {
        "length": 32,
        "start": 11191
      }
    ],
    "16905": [
      {
        "length": 32,
        "start": 14074
      }
    ],
    "16910": [
      {
        "length": 32,
        "start": 5212
      },
      {
        "length": 32,
        "start": 12264
      }
    ]
  },
  "source": "// SPDX-License-Identifier: MIT\n\npragma solidity >=0.8.0;\nimport '@openzeppelin/contracts/access/AccessControl.sol';\nimport '@openzeppelin/contracts/security/ReentrancyGuard.sol';\nimport '../libraries/SafeERC20.sol';\nimport '../interfaces/IToken.sol';\n\n// manifestor of new souls | ownership transferred to a governance smart contract \n// upon sufficient distribution + the community's desire to self-govern.\n\ncontract MockSoulManifester is AccessControl, ReentrancyGuard {\n    using SafeERC20 for IERC20;\n\n    // user info\n    struct Users {\n        uint amount;            // deposited amount.\n        uint rewardDebt;        // reward debt (see: pendingSoul).\n        uint withdrawalTime;    // last withdrawal time.\n        uint depositTime;       // first deposit time.\n        uint timeDelta;         // seconds accounted for in fee calculation.\n        uint deltaDays;         // days accounted for in fee calculation\n\n        // the following occurs when a user +/- tokens to a pool:\n        //   1. pool: `accSoulPerShare` and `lastRewardTime` update.\n        //   2. user: receives pending reward.\n        //   3. user: `amount` updates(+/-).\n        //   4. user: `rewardDebt` updates (+/-).\n    }\n\n    // pool info\n    struct Pools {\n        IERC20 lpToken;       // lp token contract.\n        uint allocPoint;      // allocation points, which determines SOUL distribution per second.\n        uint lastRewardTime;  // latest SOUL distribution in the pool.\n        uint accSoulPerShare; // accumulated SOUL per share (times 1e12).\n        uint feeDays;         // days during which a fee applies (aka startRate or feeDuration).\n    }\n\n    // soul power: our native utility token\n    address private soulAddress;\n    IToken public soul;\n    \n    // seance circle: our governance token\n    address private seanceAddress;\n    IToken public seance;\n\n    address public team;        // receives 1/8 supply\n    address public dao;         // recieves 1/8 supply\n\n    // rewarder variables: used to calculate share of overall emissions.\n    uint public totalWeight;\n    uint public weight;\n\n    // global daily SOUL\n    uint public immutable globalDailySoul = 250_000;\n\n    // local daily SOUL\n    uint public dailySoul; // = weight * globalDailySoul * 1e18;\n    // rewards per second for this rewarder\n    uint public soulPerSecond; // = dailySoul / 86400;\n\n    // marks the beginning of soul rewards.\n    uint public startTime;\n\n    // total allocation points: must be the sum of all allocation points\n    uint public totalAllocPoint;\n\n    // bonus muliplier\n    uint public immutable bonusMultiplier = 1;\n\n    // decay rate on withdrawal fee of 1%.\n    uint public immutable dailyDecay = enWei(1);\n    \n    // limits the maximum days to wait for a fee-less withdrawal.\n    uint public immutable maxFeeDays = enWei(100);\n\n    // initialization state\n    bool public isInitialized;\n    \n    // emergency state\n    bool public isEmergency;\n\n    // activation state\n    bool public isActivated;\n\n    // pool info\n    Pools[] public poolInfo;\n\n    // user info\n    mapping (uint => mapping (address => Users)) public userInfo;\n\n    // divine roles\n    bytes32 public isis; // soul summoning goddess of magic\n    bytes32 public maat; // goddess of cosmic order\n\n    // restricts: function to the council of the role passed as an object to obey (role)\n    modifier obey(bytes32 role) {\n        _checkRole(role, _msgSender());\n        _;\n    }\n\n    // controls: emergencyWithdrawals.\n    modifier emergencyActive {\n        require(isEmergency, 'emergency mode is not active.');\n        _;\n    }\n\n    // proxy for pausing contract.\n    modifier isActive {\n        require(isInitialized, 'rewards have not yet begun.');\n        require(isActivated, 'contract is currently paused');\n        _;\n    }\n\n    // validates: pool exists\n    modifier validatePoolByPid(uint pid) {\n        require(pid < poolInfo.length, 'pool does not exist');\n        _;\n    }\n\n    /*/ events /*/\n    event Deposit(address indexed user, uint indexed pid, uint amount, uint timestamp);\n    event Withdraw(address indexed user, uint indexed pid, uint amount, uint feeAmount, uint timeStamp);\n    event Initialized(address soulAddress, address seanceAddress, uint weight);\n    event PoolAdded(uint pid, uint allocPoint, IERC20 lpToken, uint totalAllocPoint);\n    event PoolSet(uint pid, uint allocPoint);\n    event WeightUpdated(uint weight, uint totalWeight);\n    event RewardsUpdated(uint dailySoul, uint soulPerSecond);\n    event FeeDaysUpdated(uint pid, uint feeDays);\n    event AccountsUpdated(address dao, address team);\n    event TokensUpdated(address soul, address seance);\n    event DepositRevised(uint pid, address account, uint timestamp);\n    event EmergencyWithdraw(address indexed user, uint indexed pid, uint amount);\n\n    // channels the power of isis & ma'at\n    constructor() {\n        address supreme = msg.sender;\n        team = supreme;\n        dao = supreme;\n\n        isis = keccak256(\"isis\"); // goddess of magic who creates pools\n        maat = keccak256(\"maat\"); // goddess of cosmic order who allocates emissions\n\n        _divinationCeremony(DEFAULT_ADMIN_ROLE, DEFAULT_ADMIN_ROLE, supreme);\n        _divinationCeremony(isis, isis, supreme); // isis role created -- supreme divined admin\n        _divinationCeremony(maat, isis, supreme); // maat role created -- isis divined admin\n    } \n\n    function _divinationCeremony(bytes32 _role, bytes32 _adminRole, address _account) internal returns (bool) {\n            _setupRole(_role, _account);\n            _setRoleAdmin(_role, _adminRole);\n        return true;\n    }\n\n    // validates: pool uniqueness to eliminate duplication risk (internal view)\n    function checkPoolDuplicate(IERC20 _token) internal view {\n        uint length = poolInfo.length;\n\n        for (uint pid = 0; pid < length; ++pid) {\n            require(poolInfo[pid].lpToken != _token, 'duplicated pool');\n        }\n    }\n\n    // activates: rewards (isis)\n    function initialize(address _soulAddress, address _seanceAddress, uint _weight) external obey(isis) {\n        // checks: rewards have not already begun\n        require(!isInitialized, 'rewards have already begun');\n\n        // sets: times & weights\n        startTime = block.timestamp;\n        totalWeight = 1_000;\n        weight = _weight;\n\n        // sets: tokens\n        soulAddress = _soulAddress;\n        seanceAddress = _seanceAddress;\n        soul  = IToken(_soulAddress);\n        seance = IToken(_seanceAddress);\n\n        // updates: dailySoul and soulPerSecond\n        updateRewards(weight, totalWeight); \n\n        // adds: staking pool (allocation: 1,000 & withdrawFee: 0).\n        poolInfo.push(Pools({\n            lpToken: IERC20(_soulAddress),\n            allocPoint: 1_000,\n            lastRewardTime: startTime,\n            accSoulPerShare: 0,\n            feeDays: 0\n        }));\n        \n        // triggers: initialization\n        isInitialized = true;\n\n        // sets: total allocation point.\n        totalAllocPoint += 1_000;\n\n        emit Initialized(_soulAddress, _seanceAddress, _weight);\n    }\n\n    // enables: panic button (ma'at)\n    function toggleEmergency(bool enabled) external obey(maat) {\n        isEmergency = enabled;\n    }\n\n    // toggles: pause state (isis)\n    function toggleActive(bool enabled) external obey(isis) {\n        isActivated = enabled;\n    }\n\n    // returns: amount of pools\n    function poolLength() external view returns (uint) { return poolInfo.length; }\n\n    // add: new pool created by the soul summoning goddess whose power transcends all (isis)\n    function addPool(uint _allocPoint, IERC20 _lpToken, bool _withUpdate, uint _feeDays) public isActive obey(isis) { \n            checkPoolDuplicate(_lpToken);\n\n            _addPool(_allocPoint, _lpToken, _withUpdate, _feeDays);\n    }\n\n    // add: pool\n    function _addPool(uint _allocPoint, IERC20 _lpToken, bool _withUpdate, uint _feeDays) internal {\n        if (_withUpdate) { massUpdatePools(); }\n\n        totalAllocPoint += _allocPoint;\n\n        poolInfo.push(\n        Pools({\n            lpToken: _lpToken,\n            allocPoint: _allocPoint,\n            lastRewardTime: block.timestamp > startTime ? block.timestamp : startTime,\n            accSoulPerShare: 0,\n            feeDays: enWei(_feeDays)\n        }));\n        \n        updateStakingPool();\n        uint pid = poolInfo.length;\n\n        emit PoolAdded(pid, _allocPoint, _lpToken, totalAllocPoint);\n    }\n\n    // set: allocation points (ma'at)\n    function set(uint pid, uint allocPoint, bool withUpdate) external isActive validatePoolByPid(pid) obey(maat) {\n            // [if] withUpdate, [then] execute mass pool update.\n            if (withUpdate) { massUpdatePools(); }\n            \n            // gets: previous allocation point & sets new allocation point\n            uint prevAllocPoint = poolInfo[pid].allocPoint;\n            poolInfo[pid].allocPoint = allocPoint;\n            \n            if (prevAllocPoint != allocPoint) {\n                totalAllocPoint = totalAllocPoint - prevAllocPoint + allocPoint;\n                \n                updateStakingPool(); // updates selected pool (only)\n        }\n\n        emit PoolSet(pid, allocPoint);\n    }\n\n    // view: user delta is the time since user either last withdrew OR first deposited.\n\tfunction userDelta(uint pid, address _user) public view returns (uint delta) {\n        // grabs the stored user data for the pool\n        Users memory user = userInfo[pid][_user];\n\n        // if user has never withdrawn\n        user.withdrawalTime == 0 \n            // then use the time since their first deposit\n            ? delta = block.timestamp - user.depositTime\n            // else, use the time since the last withdrawal\n            : delta = block.timestamp - user.withdrawalTime;\n\n        return delta;\n\t}\n\n    // view: user delta is the time since user either last withdrew OR first deposited.\n\tfunction userDelta(uint pid) public view returns (uint delta) {\n        // grabs the stored user data for the pool\n        Users memory user = userInfo[pid][msg.sender];\n\n        // if user has never withdrawn\n        user.withdrawalTime == 0 \n            // then use the time since their first deposit\n            ? delta = block.timestamp - user.depositTime\n            // else, use the time since the last withdrawal\n            : delta = block.timestamp - user.withdrawalTime;\n\n        return delta;  \n\t}\n\n    // returns: multiplier during a period.\n    function getMultiplier(uint from, uint to) public pure returns (uint) {\n        return (to - from) * bonusMultiplier;\n    }\n\n    // gets: days based off a given timeDelta (seconds).\n    function getDeltaDays(uint timeDelta) public pure returns (uint deltaDays) {\n        deltaDays = timeDelta < 1 days ? 0 : timeDelta / 1 days;\n        return deltaDays;     \n    }\n\n    // returns: fee rate for a given pid and timeDelta.\n    function getFeeRate(uint pid, uint deltaDays) public view returns (uint feeRate) {\n        // calculates: rateDecayed (converts to wei).\n        uint rateDecayed = enWei(deltaDays);\n\n        // gets: info & feeDays (pool)\n        Pools memory pool = poolInfo[pid];\n        uint feeDays = pool.feeDays; \n\n        // [if] more time has elapsed than wait period\n        if (rateDecayed >= feeDays) {\n            // [then] set feeRate to 0.\n            feeRate = 0;\n        } else { // [else] reduce feeDays by the rateDecayed.\n            feeRate = feeDays - rateDecayed;\n        }\n\n        return feeRate;\n    }\n\n    // returns: feeAmount and with withdrawableAmount for a given pid and amount\n    function getWithdrawable(uint pid, uint deltaDays, uint amount) public view returns (uint _feeAmount, uint _withdrawable) {\n        // gets: feeRate\n        uint feeRate = fromWei(getFeeRate(pid, deltaDays));\n        // gets: feeAmount\n        uint feeAmount = (amount * feeRate) / 100;\n        // calculates: withdrawable amount\n        uint withdrawable = amount - feeAmount;\n\n        return (feeAmount, withdrawable);\n    }\n\n    // view: pending soul rewards\n    function pendingSoul(uint pid, address account) public view returns (uint pendingAmount) {\n        // gets: pool and user data\n        Pools memory pool = poolInfo[pid];\n        Users memory user = userInfo[pid][account];\n\n        // gets: `accSoulPerShare` & `lpSupply` (pool)\n        uint accSoulPerShare = pool.accSoulPerShare;\n        uint lpSupply = pool.lpToken.balanceOf(address(this));\n\n        // [if] holds deposits & rewards issued at least once (pool)\n        if (block.timestamp > pool.lastRewardTime && lpSupply != 0) {\n            // gets: multiplier from the time since now and last time rewards issued (pool)\n            uint multiplier = getMultiplier(pool.lastRewardTime, block.timestamp);\n            // get: reward as the product of the elapsed emissions and the share of soul rewards (pool)\n            uint soulReward = multiplier * soulPerSecond * pool.allocPoint / totalAllocPoint;\n            // adds: product of soulReward and 1e12\n            accSoulPerShare += soulReward * 1e12 / lpSupply;\n        }\n        // returns: rewardShare for user minus the amount paid out (user)\n        return user.amount * accSoulPerShare / 1e12 - user.rewardDebt;\n    }\n\n    // update: rewards for all pools (public)\n    function massUpdatePools() public {\n        uint length = poolInfo.length;\n        for (uint pid = 0; pid < length; ++pid) { updatePool(pid); }\n    }\n\n    // update: rewards for a given pool id (public)\n    function updatePool(uint pid) public validatePoolByPid(pid) {\n        Pools storage pool = poolInfo[pid];\n\n        if (block.timestamp <= pool.lastRewardTime) { return; }\n        uint lpSupply = pool.lpToken.balanceOf(address(this));\n\n        // [if] first staker in pool, [then] set lastRewardTime to meow.\n        if (lpSupply == 0) { pool.lastRewardTime = block.timestamp; return; }\n\n        // gets: multiplier from time elasped since pool began issuing rewards.\n        uint multiplier = getMultiplier(pool.lastRewardTime, block.timestamp);\n        uint soulReward = multiplier * soulPerSecond * pool.allocPoint / totalAllocPoint;\n        // gets: divi\n        uint divi = soulReward * 1e12 / 8e12;   // 12.5% rewards\n        \n        soul.mint(team, divi);\n        soul.mint(dao, divi);\n        soul.mint(address(seance), soulReward); // prevents reward errors\n\n        pool.accSoulPerShare = pool.accSoulPerShare + (soulReward * 1e12 / lpSupply);\n        pool.lastRewardTime = block.timestamp;\n    }\n\n    // harvests: pending rewards for a given pid.\n    function harvest(uint pid) public {\n        if (pid == 0) { enterStaking(0); }\n        else { deposit(pid, 0); }\n    }\n    \n    // harvest: all pools in a single transaction.\n    function harvestAll(uint[] calldata _pids) public {\n        for (uint i = 0; i < _pids.length; ++i) {\n            harvest(_pids[i]);\n        }\n    }\n\n    // deposit: lp tokens (lp owner)\n    function deposit(uint pid, uint amount) public nonReentrant isActive validatePoolByPid(pid) {\n        require (pid != 0, 'deposit SOUL by staking (enterStaking)');\n        \n        // gets: stored data for pool and user.\n        Pools storage pool = poolInfo[pid];\n        Users storage user = userInfo[pid][msg.sender];\n\n        updatePool(pid);\n\n        // [if] already deposited (user)\n        if (user.amount > 0) {\n            // [then] gets: pendingRewards using pendingSoul (pid, user).\n            uint pendingRewards = pendingSoul(pid, msg.sender);\n            // [if] rewards pending, then transfer to user.\n            if(pendingRewards > 0) { \n                safeSoulTransfer(msg.sender, pendingRewards);\n            }\n        }\n\n        // [if] depositing more\n        if (amount > 0) {\n            // [then] transfer lpToken from user to contract\n            pool.lpToken.transferFrom(address(msg.sender), address(this), amount);\n            // [then] increment deposit amount (user).\n            user.amount += amount;\n        }\n\n        // updates: reward debt (user).\n        user.rewardDebt = user.amount * pool.accSoulPerShare / 1e12;\n\n        // [if] first time depositing (user)\n        if (user.depositTime == 0) {\n            // [then] update depositTime\n            user.depositTime = block.timestamp;\n        }\n        \n        emit Deposit(msg.sender, pid, amount, block.timestamp);\n    }\n\n    // withdraw: lp tokens (external farmers)\n    function withdraw(uint pid, uint amount) external nonReentrant isActive validatePoolByPid(pid) {\n        require (pid != 0, 'withdraw SOUL by unstaking (leaveStaking)');\n        require(amount > 0, 'cannot withdraw zero');\n\n        Pools storage pool = poolInfo[pid];\n        Users storage user = userInfo[pid][msg.sender];\n\n        require(user.amount >= amount, 'withdrawal exceeds deposit');\n        updatePool(pid);\n\n        // gets: pending rewards as determined by pendingSoul.\n        uint pending = pendingSoul(pid, msg.sender);\n        // [if] rewards are pending, [then] send rewards to user.\n        if(pending > 0) { safeSoulTransfer(msg.sender, pending); }\n\n        // gets: timeDelta as the time since last withdrawal.\n        uint timeDelta = userDelta(pid, msg.sender);\n\n        // gets: deltaDays as days passed using timeDelta.\n        uint deltaDays = getDeltaDays(timeDelta);\n\n        // updates: deposit, timeDelta, & deltaDays (user)\n        user.amount -= amount;\n        user.timeDelta = timeDelta;\n        user.deltaDays = deltaDays;\n\n        // calculates: withdrawable amount (pid, deltaDays, amount).\n        (, uint withdrawableAmount) = getWithdrawable(pid, deltaDays, amount); \n\n        // calculates: `feeAmount` as the `amount` requested minus `withdrawableAmount`.\n        uint feeAmount = amount - withdrawableAmount;\n\n        // transfers: `feeAmount` --> DAO.\n        pool.lpToken.transfer(address(dao), feeAmount);\n        // transfers: withdrawableAmount amount --> user.\n        pool.lpToken.transfer(address(msg.sender), withdrawableAmount);\n\n        // updates: rewardDebt and withdrawalTime (user)\n        user.rewardDebt = user.amount * pool.accSoulPerShare / 1e12;\n        user.withdrawalTime = block.timestamp;\n\n        emit Withdraw(msg.sender, pid, amount, feeAmount, block.timestamp);\n    }\n\n    // enables: withdrawal without caring about rewards (for example, when rewards end).\n    function emergencyWithdraw(uint pid) external nonReentrant emergencyActive {\n        // gets: pool & user data (to update later).\n        Pools storage pool = poolInfo[pid];\n        Users storage user = userInfo[pid][msg.sender];\n\n        // [if] removing from staking\n        if (pid == 0) {\n            // [then] require SEANCE balance covers request (user).\n            require(seance.balanceOf(msg.sender) >= user.amount, 'insufficient SEANCE to cover SOUL withdrawal request');\n            // [then] burn seance from sender.\n            seance.burn(msg.sender, user.amount); \n        }\n\n        // transfers: lpToken to the user.\n        pool.lpToken.safeTransfer(msg.sender, user.amount);\n\n        // eliminates: user deposit and rewardDebt.\n        user.amount = 0;\n        user.rewardDebt = 0;\n\n        emit EmergencyWithdraw(msg.sender, pid, user.amount);\n    }\n\n    // stakes: soul into summoner.\n    function enterStaking(uint amount) public nonReentrant isActive {\n        Pools storage pool = poolInfo[0];\n        Users storage user = userInfo[0][msg.sender];\n\n        updatePool(0);\n\n        // gets: staked amount (user).\n        uint stakedAmount = user.amount;\n\n        // [if] already staked (user)\n        if (stakedAmount > 0) {\n            // [then] get: pending rewards.\n            uint pending = pendingSoul(0, msg.sender);\n            // [then] send: pending rewards.\n            safeSoulTransfer(msg.sender, pending);\n        }\n        \n        // [if] staking ( harvest)\n        if (amount > 0) {\n            // [then] transfer: `amount` of SOUL from user to contract.\n            pool.lpToken.transferFrom(msg.sender, address(this), amount);\n            // [then] increase: stored deposit amount (user).\n            user.amount += amount;\n        }\n\n        // [if] first deposit, [then] set depositTime to meow (user).\n        if (user.depositTime == 0) { user.depositTime = block.timestamp; }\n\n        // updates: reward debt (user)\n        user.rewardDebt = user.amount * pool.accSoulPerShare / 1e12;\n\n        // mints & sends: requested `amount` of SEANCE to sender as a receipt.\n        if (amount > 0) { seance.mint(msg.sender, amount); }\n\n        emit Deposit(msg.sender, 0, amount, block.timestamp);\n    }\n\n    // unstake: your soul (external staker)\n    function leaveStaking(uint amount) external nonReentrant isActive {\n        Pools storage pool = poolInfo[0];\n        Users storage user = userInfo[0][msg.sender];\n\n        // checks: sufficient balance to cover request (user).\n        require(user.amount >= amount, 'requested withdrawal exceeds staked balance');\n        updatePool(0);\n\n        // gets: pending staking pool rewards (user).\n        uint pending = pendingSoul(0, msg.sender);\n\n        // [if] sender has pending rewards, [then] transfer rewards to sender.\n        if (pending > 0) { safeSoulTransfer(msg.sender, pending); }\n\n        // [if] withdrawing from stake.\n        if (amount > 0) {\n            // [then] decrease: stored deposit by withdrawal amount.\n            user.amount = user.amount - amount;\n            // [then] burn: SEANCE in the specified `amount` (user).\n            seance.burn(msg.sender, amount);\n            // [then] update: reward debt (user).\n            user.rewardDebt = user.amount * pool.accSoulPerShare / 1e12;\n            // [then] update: withdrawal time (user).\n            user.withdrawalTime = block.timestamp;\n            // [then] transfer: requested SOUL (user).\n            pool.lpToken.transfer(address(msg.sender), amount);\n        }\n\n        emit Withdraw(msg.sender, 0, amount, 0, block.timestamp);\n    }\n    \n    // transfer: seance (only if there is sufficient coverage for payout).\n    function safeSoulTransfer(address account, uint amount) internal {\n        require(seance.balanceOf(soulAddress) >= amount, 'insufficient coverage for requested SOUL from SEANCE');\n        seance.safeSoulTransfer(account, amount);\n    }\n\n    // update: weight (ma'at)\n    function updateWeight(uint _weight, uint _totalWeight) external obey(maat) {\n        require(weight != _weight || totalWeight != _totalWeight, 'must include a new value');\n        require(_totalWeight >= _weight, 'weight cannot exceed totalWeight');\n\n        weight = _weight;     \n        totalWeight = _totalWeight;\n\n        updateRewards(_weight, _totalWeight);\n\n        emit WeightUpdated(_weight, _totalWeight);\n    }\n\n    // update: staking pool\n    function updateStakingPool() internal {\n        uint length = poolInfo.length;\n        uint points;\n        \n        for (uint pid = 1; pid < length; ++pid) { \n            points = points + poolInfo[pid].allocPoint; \n        }\n\n        if (points != 0) {\n            points = points / 3;\n            totalAllocPoint = totalAllocPoint - poolInfo[0].allocPoint + points;\n            poolInfo[0].allocPoint = points;\n        }\n    }\n\n    // update: rewards\n    function updateRewards(uint _weight, uint _totalWeight) internal {\n        uint share = enWei(_weight) / _totalWeight; // share of total emissions for rewarder (rewarder % total emissions)\n        \n        dailySoul = share * globalDailySoul; // dailySoul (for rewarder) = share (%) x globalDailySoul (soul emissions constant)\n        soulPerSecond = dailySoul / 1 days; // updates: daily rewards expressed in seconds (1 days = 86,400 secs)\n\n        emit RewardsUpdated(dailySoul, soulPerSecond);\n    }\n\n    // updates: feeDays (ma'at)\n    function updateFeeDays(uint pid, uint _daysRequested) external obey(maat) {\n        Pools storage pool = poolInfo[pid];\n        // converts & stores requested days (enWei).\n        uint _feeDays = enWei(_daysRequested);\n\n        // gets: current fee days & ensures distinction (pool)\n        uint feeDays = pool.feeDays;\n        require(feeDays != _feeDays, 'must be a new value');\n        \n        // limits: feeDays by maxFeeDays\n        require(feeDays <= maxFeeDays, 'exceeds allowable feeDays');\n        \n        // updates: fee days (pool)\n        pool.feeDays = _feeDays;\n        \n        emit FeeDaysUpdated(pid, _feeDays);\n    }\n\n    // updates: dao & team addresses (isis)\n    function updateAccounts(address _dao, address _team) external obey(isis) {\n        require(dao != _dao || team != _team, 'must include a new account');\n        dao = _dao;\n        team = _team;\n\n        emit AccountsUpdated(dao, team);\n    }\n\n    // helper functions to convert to wei and 1/100th\n    function enWei(uint amount) public pure returns (uint) {  return amount * 1e18; }\n    function fromWei(uint amount) public pure returns (uint) { return amount / 1e18; }\n}\n",
  "sourcePath": "/Users/buns/Documents/GitHub/SoulSwapFinance/soulswap-farms/contracts/mocks/MockSoulManifester.sol",
  "compiler": {
    "name": "solc",
    "version": "0.8.17+commit.8df45f5f.Emscripten.clang"
  },
  "schemaVersion": "3.4.1",
  "updatedAt": "2022-10-01T21:51:30.054Z",
  "devdoc": {
    "kind": "dev",
    "methods": {
      "getRoleAdmin(bytes32)": {
        "details": "Returns the admin role that controls `role`. See {grantRole} and {revokeRole}. To change a role's admin, use {_setRoleAdmin}."
      },
      "grantRole(bytes32,address)": {
        "details": "Grants `role` to `account`. If `account` had not been already granted `role`, emits a {RoleGranted} event. Requirements: - the caller must have ``role``'s admin role."
      },
      "hasRole(bytes32,address)": {
        "details": "Returns `true` if `account` has been granted `role`."
      },
      "renounceRole(bytes32,address)": {
        "details": "Revokes `role` from the calling account. Roles are often managed via {grantRole} and {revokeRole}: this function's purpose is to provide a mechanism for accounts to lose their privileges if they are compromised (such as when a trusted device is misplaced). If the calling account had been granted `role`, emits a {RoleRevoked} event. Requirements: - the caller must be `account`."
      },
      "revokeRole(bytes32,address)": {
        "details": "Revokes `role` from `account`. If `account` had been granted `role`, emits a {RoleRevoked} event. Requirements: - the caller must have ``role``'s admin role."
      },
      "supportsInterface(bytes4)": {
        "details": "See {IERC165-supportsInterface}."
      }
    },
    "version": 1
  },
  "userdoc": {
    "kind": "user",
    "methods": {},
    "version": 1
  }
}