{
  "contractName": "MockSoulManifester",
  "abi": [
    {
      "inputs": [],
      "stateMutability": "nonpayable",
      "type": "constructor"
    },
    {
      "anonymous": false,
      "inputs": [
        {
          "indexed": false,
          "internalType": "address",
          "name": "dao",
          "type": "address"
        },
        {
          "indexed": false,
          "internalType": "address",
          "name": "team",
          "type": "address"
        }
      ],
      "name": "AccountsUpdated",
      "type": "event"
    },
    {
      "anonymous": false,
      "inputs": [
        {
          "indexed": true,
          "internalType": "address",
          "name": "user",
          "type": "address"
        },
        {
          "indexed": true,
          "internalType": "uint256",
          "name": "pid",
          "type": "uint256"
        },
        {
          "indexed": false,
          "internalType": "uint256",
          "name": "amount",
          "type": "uint256"
        },
        {
          "indexed": false,
          "internalType": "uint256",
          "name": "timestamp",
          "type": "uint256"
        }
      ],
      "name": "Deposit",
      "type": "event"
    },
    {
      "anonymous": false,
      "inputs": [
        {
          "indexed": false,
          "internalType": "uint256",
          "name": "pid",
          "type": "uint256"
        },
        {
          "indexed": false,
          "internalType": "address",
          "name": "account",
          "type": "address"
        },
        {
          "indexed": false,
          "internalType": "uint256",
          "name": "timestamp",
          "type": "uint256"
        }
      ],
      "name": "DepositRevised",
      "type": "event"
    },
    {
      "anonymous": false,
      "inputs": [
        {
          "indexed": true,
          "internalType": "address",
          "name": "user",
          "type": "address"
        },
        {
          "indexed": true,
          "internalType": "uint256",
          "name": "pid",
          "type": "uint256"
        },
        {
          "indexed": false,
          "internalType": "uint256",
          "name": "amount",
          "type": "uint256"
        }
      ],
      "name": "EmergencyWithdraw",
      "type": "event"
    },
    {
      "anonymous": false,
      "inputs": [
        {
          "indexed": false,
          "internalType": "uint256",
          "name": "pid",
          "type": "uint256"
        },
        {
          "indexed": false,
          "internalType": "uint256",
          "name": "feeDays",
          "type": "uint256"
        }
      ],
      "name": "FeeDaysUpdated",
      "type": "event"
    },
    {
      "anonymous": false,
      "inputs": [
        {
          "indexed": false,
          "internalType": "address",
          "name": "soulAddress",
          "type": "address"
        },
        {
          "indexed": false,
          "internalType": "address",
          "name": "seanceAddress",
          "type": "address"
        },
        {
          "indexed": false,
          "internalType": "uint256",
          "name": "weight",
          "type": "uint256"
        }
      ],
      "name": "Initialized",
      "type": "event"
    },
    {
      "anonymous": false,
      "inputs": [
        {
          "indexed": false,
          "internalType": "uint256",
          "name": "pid",
          "type": "uint256"
        },
        {
          "indexed": false,
          "internalType": "uint256",
          "name": "allocPoint",
          "type": "uint256"
        },
        {
          "indexed": false,
          "internalType": "contract IERC20",
          "name": "lpToken",
          "type": "address"
        },
        {
          "indexed": false,
          "internalType": "uint256",
          "name": "totalAllocPoint",
          "type": "uint256"
        }
      ],
      "name": "PoolAdded",
      "type": "event"
    },
    {
      "anonymous": false,
      "inputs": [
        {
          "indexed": false,
          "internalType": "uint256",
          "name": "pid",
          "type": "uint256"
        },
        {
          "indexed": false,
          "internalType": "uint256",
          "name": "allocPoint",
          "type": "uint256"
        }
      ],
      "name": "PoolSet",
      "type": "event"
    },
    {
      "anonymous": false,
      "inputs": [
        {
          "indexed": false,
          "internalType": "uint256",
          "name": "dailySoul",
          "type": "uint256"
        },
        {
          "indexed": false,
          "internalType": "uint256",
          "name": "soulPerSecond",
          "type": "uint256"
        }
      ],
      "name": "RewardsUpdated",
      "type": "event"
    },
    {
      "anonymous": false,
      "inputs": [
        {
          "indexed": true,
          "internalType": "bytes32",
          "name": "role",
          "type": "bytes32"
        },
        {
          "indexed": true,
          "internalType": "bytes32",
          "name": "previousAdminRole",
          "type": "bytes32"
        },
        {
          "indexed": true,
          "internalType": "bytes32",
          "name": "newAdminRole",
          "type": "bytes32"
        }
      ],
      "name": "RoleAdminChanged",
      "type": "event"
    },
    {
      "anonymous": false,
      "inputs": [
        {
          "indexed": true,
          "internalType": "bytes32",
          "name": "role",
          "type": "bytes32"
        },
        {
          "indexed": true,
          "internalType": "address",
          "name": "account",
          "type": "address"
        },
        {
          "indexed": true,
          "internalType": "address",
          "name": "sender",
          "type": "address"
        }
      ],
      "name": "RoleGranted",
      "type": "event"
    },
    {
      "anonymous": false,
      "inputs": [
        {
          "indexed": true,
          "internalType": "bytes32",
          "name": "role",
          "type": "bytes32"
        },
        {
          "indexed": true,
          "internalType": "address",
          "name": "account",
          "type": "address"
        },
        {
          "indexed": true,
          "internalType": "address",
          "name": "sender",
          "type": "address"
        }
      ],
      "name": "RoleRevoked",
      "type": "event"
    },
    {
      "anonymous": false,
      "inputs": [
        {
          "indexed": false,
          "internalType": "address",
          "name": "soul",
          "type": "address"
        },
        {
          "indexed": false,
          "internalType": "address",
          "name": "seance",
          "type": "address"
        }
      ],
      "name": "TokensUpdated",
      "type": "event"
    },
    {
      "anonymous": false,
      "inputs": [
        {
          "indexed": false,
          "internalType": "uint256",
          "name": "weight",
          "type": "uint256"
        },
        {
          "indexed": false,
          "internalType": "uint256",
          "name": "totalWeight",
          "type": "uint256"
        }
      ],
      "name": "WeightUpdated",
      "type": "event"
    },
    {
      "anonymous": false,
      "inputs": [
        {
          "indexed": true,
          "internalType": "address",
          "name": "user",
          "type": "address"
        },
        {
          "indexed": true,
          "internalType": "uint256",
          "name": "pid",
          "type": "uint256"
        },
        {
          "indexed": false,
          "internalType": "uint256",
          "name": "amount",
          "type": "uint256"
        },
        {
          "indexed": false,
          "internalType": "uint256",
          "name": "feeAmount",
          "type": "uint256"
        },
        {
          "indexed": false,
          "internalType": "uint256",
          "name": "timeStamp",
          "type": "uint256"
        }
      ],
      "name": "Withdraw",
      "type": "event"
    },
    {
      "inputs": [],
      "name": "DEFAULT_ADMIN_ROLE",
      "outputs": [
        {
          "internalType": "bytes32",
          "name": "",
          "type": "bytes32"
        }
      ],
      "stateMutability": "view",
      "type": "function"
    },
    {
      "inputs": [],
      "name": "bonusMultiplier",
      "outputs": [
        {
          "internalType": "uint256",
          "name": "",
          "type": "uint256"
        }
      ],
      "stateMutability": "view",
      "type": "function"
    },
    {
      "inputs": [],
      "name": "dailyDecay",
      "outputs": [
        {
          "internalType": "uint256",
          "name": "",
          "type": "uint256"
        }
      ],
      "stateMutability": "view",
      "type": "function"
    },
    {
      "inputs": [],
      "name": "dailySoul",
      "outputs": [
        {
          "internalType": "uint256",
          "name": "",
          "type": "uint256"
        }
      ],
      "stateMutability": "view",
      "type": "function"
    },
    {
      "inputs": [],
      "name": "dao",
      "outputs": [
        {
          "internalType": "address",
          "name": "",
          "type": "address"
        }
      ],
      "stateMutability": "view",
      "type": "function"
    },
    {
      "inputs": [
        {
          "internalType": "bytes32",
          "name": "role",
          "type": "bytes32"
        }
      ],
      "name": "getRoleAdmin",
      "outputs": [
        {
          "internalType": "bytes32",
          "name": "",
          "type": "bytes32"
        }
      ],
      "stateMutability": "view",
      "type": "function"
    },
    {
      "inputs": [],
      "name": "globalDailySoul",
      "outputs": [
        {
          "internalType": "uint256",
          "name": "",
          "type": "uint256"
        }
      ],
      "stateMutability": "view",
      "type": "function"
    },
    {
      "inputs": [
        {
          "internalType": "bytes32",
          "name": "role",
          "type": "bytes32"
        },
        {
          "internalType": "address",
          "name": "account",
          "type": "address"
        }
      ],
      "name": "grantRole",
      "outputs": [],
      "stateMutability": "nonpayable",
      "type": "function"
    },
    {
      "inputs": [
        {
          "internalType": "bytes32",
          "name": "role",
          "type": "bytes32"
        },
        {
          "internalType": "address",
          "name": "account",
          "type": "address"
        }
      ],
      "name": "hasRole",
      "outputs": [
        {
          "internalType": "bool",
          "name": "",
          "type": "bool"
        }
      ],
      "stateMutability": "view",
      "type": "function"
    },
    {
      "inputs": [],
      "name": "isActivated",
      "outputs": [
        {
          "internalType": "bool",
          "name": "",
          "type": "bool"
        }
      ],
      "stateMutability": "view",
      "type": "function"
    },
    {
      "inputs": [],
      "name": "isEmergency",
      "outputs": [
        {
          "internalType": "bool",
          "name": "",
          "type": "bool"
        }
      ],
      "stateMutability": "view",
      "type": "function"
    },
    {
      "inputs": [],
      "name": "isInitialized",
      "outputs": [
        {
          "internalType": "bool",
          "name": "",
          "type": "bool"
        }
      ],
      "stateMutability": "view",
      "type": "function"
    },
    {
      "inputs": [],
      "name": "isis",
      "outputs": [
        {
          "internalType": "bytes32",
          "name": "",
          "type": "bytes32"
        }
      ],
      "stateMutability": "view",
      "type": "function"
    },
    {
      "inputs": [],
      "name": "maat",
      "outputs": [
        {
          "internalType": "bytes32",
          "name": "",
          "type": "bytes32"
        }
      ],
      "stateMutability": "view",
      "type": "function"
    },
    {
      "inputs": [],
      "name": "maxFeeDays",
      "outputs": [
        {
          "internalType": "uint256",
          "name": "",
          "type": "uint256"
        }
      ],
      "stateMutability": "view",
      "type": "function"
    },
    {
      "inputs": [
        {
          "internalType": "uint256",
          "name": "",
          "type": "uint256"
        }
      ],
      "name": "poolInfo",
      "outputs": [
        {
          "internalType": "contract IERC20",
          "name": "lpToken",
          "type": "address"
        },
        {
          "internalType": "uint256",
          "name": "allocPoint",
          "type": "uint256"
        },
        {
          "internalType": "uint256",
          "name": "lastRewardTime",
          "type": "uint256"
        },
        {
          "internalType": "uint256",
          "name": "accSoulPerShare",
          "type": "uint256"
        },
        {
          "internalType": "uint256",
          "name": "feeDays",
          "type": "uint256"
        }
      ],
      "stateMutability": "view",
      "type": "function"
    },
    {
      "inputs": [
        {
          "internalType": "bytes32",
          "name": "role",
          "type": "bytes32"
        },
        {
          "internalType": "address",
          "name": "account",
          "type": "address"
        }
      ],
      "name": "renounceRole",
      "outputs": [],
      "stateMutability": "nonpayable",
      "type": "function"
    },
    {
      "inputs": [
        {
          "internalType": "bytes32",
          "name": "role",
          "type": "bytes32"
        },
        {
          "internalType": "address",
          "name": "account",
          "type": "address"
        }
      ],
      "name": "revokeRole",
      "outputs": [],
      "stateMutability": "nonpayable",
      "type": "function"
    },
    {
      "inputs": [],
      "name": "seance",
      "outputs": [
        {
          "internalType": "contract IToken",
          "name": "",
          "type": "address"
        }
      ],
      "stateMutability": "view",
      "type": "function"
    },
    {
      "inputs": [],
      "name": "soul",
      "outputs": [
        {
          "internalType": "contract IToken",
          "name": "",
          "type": "address"
        }
      ],
      "stateMutability": "view",
      "type": "function"
    },
    {
      "inputs": [],
      "name": "soulPerSecond",
      "outputs": [
        {
          "internalType": "uint256",
          "name": "",
          "type": "uint256"
        }
      ],
      "stateMutability": "view",
      "type": "function"
    },
    {
      "inputs": [],
      "name": "startTime",
      "outputs": [
        {
          "internalType": "uint256",
          "name": "",
          "type": "uint256"
        }
      ],
      "stateMutability": "view",
      "type": "function"
    },
    {
      "inputs": [
        {
          "internalType": "bytes4",
          "name": "interfaceId",
          "type": "bytes4"
        }
      ],
      "name": "supportsInterface",
      "outputs": [
        {
          "internalType": "bool",
          "name": "",
          "type": "bool"
        }
      ],
      "stateMutability": "view",
      "type": "function"
    },
    {
      "inputs": [],
      "name": "team",
      "outputs": [
        {
          "internalType": "address",
          "name": "",
          "type": "address"
        }
      ],
      "stateMutability": "view",
      "type": "function"
    },
    {
      "inputs": [],
      "name": "totalAllocPoint",
      "outputs": [
        {
          "internalType": "uint256",
          "name": "",
          "type": "uint256"
        }
      ],
      "stateMutability": "view",
      "type": "function"
    },
    {
      "inputs": [],
      "name": "totalWeight",
      "outputs": [
        {
          "internalType": "uint256",
          "name": "",
          "type": "uint256"
        }
      ],
      "stateMutability": "view",
      "type": "function"
    },
    {
      "inputs": [
        {
          "internalType": "uint256",
          "name": "",
          "type": "uint256"
        },
        {
          "internalType": "address",
          "name": "",
          "type": "address"
        }
      ],
      "name": "userInfo",
      "outputs": [
        {
          "internalType": "uint256",
          "name": "amount",
          "type": "uint256"
        },
        {
          "internalType": "uint256",
          "name": "rewardDebt",
          "type": "uint256"
        },
        {
          "internalType": "uint256",
          "name": "withdrawalTime",
          "type": "uint256"
        },
        {
          "internalType": "uint256",
          "name": "depositTime",
          "type": "uint256"
        },
        {
          "internalType": "uint256",
          "name": "timeDelta",
          "type": "uint256"
        },
        {
          "internalType": "uint256",
          "name": "deltaDays",
          "type": "uint256"
        }
      ],
      "stateMutability": "view",
      "type": "function"
    },
    {
      "inputs": [],
      "name": "weight",
      "outputs": [
        {
          "internalType": "uint256",
          "name": "",
          "type": "uint256"
        }
      ],
      "stateMutability": "view",
      "type": "function"
    },
    {
      "inputs": [
        {
          "internalType": "address",
          "name": "_soulAddress",
          "type": "address"
        },
        {
          "internalType": "address",
          "name": "_seanceAddress",
          "type": "address"
        },
        {
          "internalType": "uint256",
          "name": "_weight",
          "type": "uint256"
        }
      ],
      "name": "initialize",
      "outputs": [],
      "stateMutability": "nonpayable",
      "type": "function"
    },
    {
      "inputs": [
        {
          "internalType": "bool",
          "name": "enabled",
          "type": "bool"
        }
      ],
      "name": "toggleEmergency",
      "outputs": [],
      "stateMutability": "nonpayable",
      "type": "function"
    },
    {
      "inputs": [
        {
          "internalType": "bool",
          "name": "enabled",
          "type": "bool"
        }
      ],
      "name": "toggleActive",
      "outputs": [],
      "stateMutability": "nonpayable",
      "type": "function"
    },
    {
      "inputs": [],
      "name": "poolLength",
      "outputs": [
        {
          "internalType": "uint256",
          "name": "",
          "type": "uint256"
        }
      ],
      "stateMutability": "view",
      "type": "function"
    },
    {
      "inputs": [
        {
          "internalType": "uint256",
          "name": "_allocPoint",
          "type": "uint256"
        },
        {
          "internalType": "contract IERC20",
          "name": "_lpToken",
          "type": "address"
        },
        {
          "internalType": "bool",
          "name": "_withUpdate",
          "type": "bool"
        },
        {
          "internalType": "uint256",
          "name": "_feeDays",
          "type": "uint256"
        }
      ],
      "name": "addPool",
      "outputs": [],
      "stateMutability": "nonpayable",
      "type": "function"
    },
    {
      "inputs": [
        {
          "internalType": "uint256",
          "name": "pid",
          "type": "uint256"
        },
        {
          "internalType": "uint256",
          "name": "allocPoint",
          "type": "uint256"
        },
        {
          "internalType": "bool",
          "name": "withUpdate",
          "type": "bool"
        }
      ],
      "name": "set",
      "outputs": [],
      "stateMutability": "nonpayable",
      "type": "function"
    },
    {
      "inputs": [
        {
          "internalType": "uint256",
          "name": "pid",
          "type": "uint256"
        }
      ],
      "name": "userDelta",
      "outputs": [
        {
          "internalType": "uint256",
          "name": "delta",
          "type": "uint256"
        }
      ],
      "stateMutability": "view",
      "type": "function"
    },
    {
      "inputs": [
        {
          "internalType": "uint256",
          "name": "pid",
          "type": "uint256"
        },
        {
          "internalType": "address",
          "name": "_user",
          "type": "address"
        }
      ],
      "name": "userDelta",
      "outputs": [
        {
          "internalType": "uint256",
          "name": "delta",
          "type": "uint256"
        }
      ],
      "stateMutability": "view",
      "type": "function"
    },
    {
      "inputs": [
        {
          "internalType": "uint256",
          "name": "from",
          "type": "uint256"
        },
        {
          "internalType": "uint256",
          "name": "to",
          "type": "uint256"
        }
      ],
      "name": "getMultiplier",
      "outputs": [
        {
          "internalType": "uint256",
          "name": "",
          "type": "uint256"
        }
      ],
      "stateMutability": "pure",
      "type": "function"
    },
    {
      "inputs": [
        {
          "internalType": "uint256",
          "name": "timeDelta",
          "type": "uint256"
        }
      ],
      "name": "getDeltaDays",
      "outputs": [
        {
          "internalType": "uint256",
          "name": "deltaDays",
          "type": "uint256"
        }
      ],
      "stateMutability": "pure",
      "type": "function"
    },
    {
      "inputs": [
        {
          "internalType": "uint256",
          "name": "pid",
          "type": "uint256"
        },
        {
          "internalType": "uint256",
          "name": "deltaDays",
          "type": "uint256"
        }
      ],
      "name": "getFeeRate",
      "outputs": [
        {
          "internalType": "uint256",
          "name": "feeRate",
          "type": "uint256"
        }
      ],
      "stateMutability": "view",
      "type": "function"
    },
    {
      "inputs": [
        {
          "internalType": "uint256",
          "name": "pid",
          "type": "uint256"
        },
        {
          "internalType": "uint256",
          "name": "deltaDays",
          "type": "uint256"
        },
        {
          "internalType": "uint256",
          "name": "amount",
          "type": "uint256"
        }
      ],
      "name": "getWithdrawable",
      "outputs": [
        {
          "internalType": "uint256",
          "name": "_feeAmount",
          "type": "uint256"
        },
        {
          "internalType": "uint256",
          "name": "_withdrawable",
          "type": "uint256"
        }
      ],
      "stateMutability": "view",
      "type": "function"
    },
    {
      "inputs": [
        {
          "internalType": "uint256",
          "name": "pid",
          "type": "uint256"
        },
        {
          "internalType": "address",
          "name": "account",
          "type": "address"
        }
      ],
      "name": "pendingSoul",
      "outputs": [
        {
          "internalType": "uint256",
          "name": "pendingAmount",
          "type": "uint256"
        }
      ],
      "stateMutability": "view",
      "type": "function"
    },
    {
      "inputs": [],
      "name": "massUpdatePools",
      "outputs": [],
      "stateMutability": "nonpayable",
      "type": "function"
    },
    {
      "inputs": [
        {
          "internalType": "uint256",
          "name": "pid",
          "type": "uint256"
        }
      ],
      "name": "updatePool",
      "outputs": [],
      "stateMutability": "nonpayable",
      "type": "function"
    },
    {
      "inputs": [
        {
          "internalType": "uint256",
          "name": "pid",
          "type": "uint256"
        }
      ],
      "name": "harvest",
      "outputs": [],
      "stateMutability": "nonpayable",
      "type": "function"
    },
    {
      "inputs": [
        {
          "internalType": "uint256[]",
          "name": "_pids",
          "type": "uint256[]"
        }
      ],
      "name": "harvestAll",
      "outputs": [],
      "stateMutability": "nonpayable",
      "type": "function"
    },
    {
      "inputs": [
        {
          "internalType": "uint256",
          "name": "pid",
          "type": "uint256"
        },
        {
          "internalType": "uint256",
          "name": "amount",
          "type": "uint256"
        }
      ],
      "name": "deposit",
      "outputs": [],
      "stateMutability": "nonpayable",
      "type": "function"
    },
    {
      "inputs": [
        {
          "internalType": "uint256",
          "name": "pid",
          "type": "uint256"
        },
        {
          "internalType": "uint256",
          "name": "amount",
          "type": "uint256"
        }
      ],
      "name": "withdraw",
      "outputs": [],
      "stateMutability": "nonpayable",
      "type": "function"
    },
    {
      "inputs": [
        {
          "internalType": "uint256",
          "name": "pid",
          "type": "uint256"
        }
      ],
      "name": "emergencyWithdraw",
      "outputs": [],
      "stateMutability": "nonpayable",
      "type": "function"
    },
    {
      "inputs": [
        {
          "internalType": "uint256",
          "name": "amount",
          "type": "uint256"
        }
      ],
      "name": "enterStaking",
      "outputs": [],
      "stateMutability": "nonpayable",
      "type": "function"
    },
    {
      "inputs": [
        {
          "internalType": "uint256",
          "name": "amount",
          "type": "uint256"
        }
      ],
      "name": "leaveStaking",
      "outputs": [],
      "stateMutability": "nonpayable",
      "type": "function"
    },
    {
      "inputs": [
        {
          "internalType": "uint256",
          "name": "_weight",
          "type": "uint256"
        },
        {
          "internalType": "uint256",
          "name": "_totalWeight",
          "type": "uint256"
        }
      ],
      "name": "updateWeight",
      "outputs": [],
      "stateMutability": "nonpayable",
      "type": "function"
    },
    {
      "inputs": [
        {
          "internalType": "uint256",
          "name": "pid",
          "type": "uint256"
        },
        {
          "internalType": "uint256",
          "name": "_daysRequested",
          "type": "uint256"
        }
      ],
      "name": "updateFeeDays",
      "outputs": [],
      "stateMutability": "nonpayable",
      "type": "function"
    },
    {
      "inputs": [
        {
          "internalType": "address",
          "name": "_dao",
          "type": "address"
        },
        {
          "internalType": "address",
          "name": "_team",
          "type": "address"
        }
      ],
      "name": "updateAccounts",
      "outputs": [],
      "stateMutability": "nonpayable",
      "type": "function"
    },
    {
      "inputs": [
        {
          "internalType": "uint256",
          "name": "amount",
          "type": "uint256"
        }
      ],
      "name": "enWei",
      "outputs": [
        {
          "internalType": "uint256",
          "name": "",
          "type": "uint256"
        }
      ],
      "stateMutability": "pure",
      "type": "function"
    },
    {
      "inputs": [
        {
          "internalType": "uint256",
          "name": "amount",
          "type": "uint256"
        }
      ],
      "name": "fromWei",
      "outputs": [
        {
          "internalType": "uint256",
          "name": "",
          "type": "uint256"
        }
      ],
      "stateMutability": "pure",
      "type": "function"
    }
  ],
  "bytecode": "0x6101006040526203d090608090815250600160a0908152506200002960016200018260201b60201c565b60c0908152506200004160646200018260201b60201c565b60e0908152503480156200005457600080fd5b5060018081905550600033905080600660006101000a81548173ffffffffffffffffffffffffffffffffffffffff021916908373ffffffffffffffffffffffffffffffffffffffff16021790555080600760006101000a81548173ffffffffffffffffffffffffffffffffffffffff021916908373ffffffffffffffffffffffffffffffffffffffff1602179055507f36d5d8406f8379c6deba01145ec4f6a2966675cc67d71355b397a2a8e3572b296011819055507f0811b25c145e1379dc78112dd91057f09150f6db05dfd7e04deb910e6cefd4b76012819055506200014a6000801b6000801b83620001a160201b60201c565b506200016260115460115483620001a160201b60201c565b506200017a60125460115483620001a160201b60201c565b505062000467565b6000670de0b6b3a7640000826200019a9190620003cd565b9050919050565b6000620001b58483620001d260201b60201c565b620001c78484620001e860201b60201c565b600190509392505050565b620001e482826200024b60201b60201c565b5050565b6000620001fb836200033c60201b60201c565b905081600080858152602001908152602001600020600101819055508181847fbd79b86ffe0ab8e8776151514217cd7cacd52c909f66475c3af44e129f0b00ff60405160405180910390a4505050565b6200025d82826200035b60201b60201c565b6200033857600160008084815260200190815260200160002060000160008373ffffffffffffffffffffffffffffffffffffffff1673ffffffffffffffffffffffffffffffffffffffff16815260200190815260200160002060006101000a81548160ff021916908315150217905550620002dd620003c560201b60201c565b73ffffffffffffffffffffffffffffffffffffffff168173ffffffffffffffffffffffffffffffffffffffff16837f2f8788117e7eff1d82e926ec794901d17c78024a50270940304540a733656f0d60405160405180910390a45b5050565b6000806000838152602001908152602001600020600101549050919050565b600080600084815260200190815260200160002060000160008373ffffffffffffffffffffffffffffffffffffffff1673ffffffffffffffffffffffffffffffffffffffff16815260200190815260200160002060009054906101000a900460ff16905092915050565b600033905090565b6000620003da826200042e565b9150620003e7836200042e565b9250817fffffffffffffffffffffffffffffffffffffffffffffffffffffffffffffffff048311821515161562000423576200042262000438565b5b828202905092915050565b6000819050919050565b7f4e487b7100000000000000000000000000000000000000000000000000000000600052601160045260246000fd5b60805160a05160c05160e051615f8e620004b6600039600081816114df01526131fc01526000613947015260008181612b530152612d9601526000818161136d0152613c3c0152615f8e6000f3fe608060405234801561001057600080fd5b506004361061035d5760003560e01c80637d500ec8116101d3578063bfafcad511610104578063e2bbb158116100a2578063fb39d1e31161007c578063fb39d1e314610a18578063fbe0508c14610a48578063fc90fdc014610a64578063fd6f99d014610a825761035d565b8063e2bbb158146109ae578063e65d1522146109ca578063ea4bf446146109fa5761035d565b8063d547741f116100de578063d547741f1461093c578063d99e50da14610958578063ddc6326214610976578063e13e8ec2146109925761035d565b8063bfafcad5146108c0578063cb68bef8146108f0578063cf94ee961461090c5761035d565b806395aca47311610171578063a1aab33f1161014b578063a1aab33f1461084a578063a217fddf14610868578063a8b973a114610886578063af62147e146108a45761035d565b806395aca473146107cc57806396c82e57146107fc5780639f6c54261461081a5761035d565b806385f2aef2116101ad57806385f2aef2146107195780638dbb1e3a1461073757806391d148541461076757806393f1a40b146107975761035d565b80637d500ec8146106ac5780637e668b42146106ca578063815b7a8c146106fb5761035d565b8063392e53cd116102ad57806351eb05a61161024b5780635f9e8f82116102255780635f9e8f821461064a578063630b5ba11461066857806364482f791461067257806378e979251461068e5761035d565b806351eb05a6146105f45780635312ea8e146106105780635f9bf6891461062c5761035d565b8063441a3e7011610287578063441a3e70146105805780634a8c1fb41461059c5780634ca01d45146105ba5780634e5ef2a5146105d85761035d565b8063392e53cd1461052857806341441d3b146105465780634162169f146105625761035d565b806317caf6f11161031a5780632aabff15116102f45780632aabff15146104b85780632f2ff15d146104d45780632fe2d7ce146104f057806336568abe1461050c5761035d565b806317caf6f11461044c578063248a9ca31461046a57806324dd9ab21461049a5761035d565b806301ffc9a714610362578063081e3eda1461039257806309ae4d2c146103b05780631058d281146103e05780631526fe27146103fc5780631794bb3c14610430575b600080fd5b61037c60048036038101906103779190614ac2565b610aa0565b604051610389919061565f565b60405180910390f35b61039a610b1a565b6040516103a79190615a25565b60405180910390f35b6103ca60048036038101906103c59190614aeb565b610b27565b6040516103d79190615a25565b60405180910390f35b6103fa60048036038101906103f59190614aeb565b610c02565b005b61041660048036038101906104119190614aeb565b610ffd565b604051610427959493929190615695565b60405180910390f35b61044a60048036038101906104459190614977565b611063565b005b610454611346565b6040516104619190615a25565b60405180910390f35b610484600480360381019061047f9190614a5d565b61134c565b604051610491919061567a565b60405180910390f35b6104a261136b565b6040516104af9190615a25565b60405180910390f35b6104d260048036038101906104cd91906149c6565b61138f565b005b6104ee60048036038101906104e99190614a86565b6113fb565b005b61050a60048036038101906105059190614bdc565b611424565b005b61052660048036038101906105219190614a86565b61158a565b005b61053061160d565b60405161053d919061565f565b60405180910390f35b610560600480360381019061055b9190614aeb565b611620565b005b61056a6119f8565b60405161057791906155bb565b60405180910390f35b61059a60048036038101906105959190614bdc565b611a1e565b005b6105a4611f74565b6040516105b1919061565f565b60405180910390f35b6105c2611f87565b6040516105cf91906156e8565b60405180910390f35b6105f260048036038101906105ed9190614b79565b611fad565b005b61060e60048036038101906106099190614aeb565b61207b565b005b61062a60048036038101906106259190614aeb565b6124a9565b005b61063461283c565b6040516106419190615a25565b60405180910390f35b610652612842565b60405161065f919061565f565b60405180910390f35b610670612855565b005b61068c60048036038101906106879190614c18565b612888565b005b610696612aa1565b6040516106a39190615a25565b60405180910390f35b6106b4612aa7565b6040516106c19190615a25565b60405180910390f35b6106e460048036038101906106df9190614c67565b612aad565b6040516106f2929190615a77565b60405180910390f35b610703612b03565b60405161071091906156e8565b60405180910390f35b610721612b29565b60405161072e91906155bb565b60405180910390f35b610751600480360381019061074c9190614bdc565b612b4f565b60405161075e9190615a25565b60405180910390f35b610781600480360381019061077c9190614a86565b612b90565b60405161078e919061565f565b60405180910390f35b6107b160048036038101906107ac9190614b3d565b612bfa565b6040516107c396959493929190615b1c565b60405180910390f35b6107e660048036038101906107e19190614aeb565b612c43565b6040516107f39190615a25565b60405180910390f35b610804612c6d565b6040516108119190615a25565b60405180910390f35b610834600480360381019061082f9190614bdc565b612c73565b6040516108419190615a25565b60405180910390f35b610852612d87565b60405161085f9190615a25565b60405180910390f35b610870612d8d565b60405161087d919061567a565b60405180910390f35b61088e612d94565b60405161089b9190615a25565b60405180910390f35b6108be60048036038101906108b99190614bdc565b612db8565b005b6108da60048036038101906108d59190614b3d565b612eb7565b6040516108e79190615a25565b60405180910390f35b61090a60048036038101906109059190614a0b565b613182565b005b61092660048036038101906109219190614aeb565b6131b4565b6040516109339190615a25565b60405180910390f35b61095660048036038101906109519190614a86565b6131d1565b005b6109606131fa565b60405161096d9190615a25565b60405180910390f35b610990600480360381019061098b9190614aeb565b61321e565b005b6109ac60048036038101906109a7919061493b565b613245565b005b6109c860048036038101906109c39190614bdc565b613447565b005b6109e460048036038101906109df9190614aeb565b613814565b6040516109f19190615a25565b60405180910390f35b610a02613831565b604051610a0f919061567a565b60405180910390f35b610a326004803603810190610a2d9190614b3d565b613837565b604051610a3f9190615a25565b60405180910390f35b610a626004803603810190610a5d9190614a0b565b613913565b005b610a6c613945565b604051610a799190615a25565b60405180910390f35b610a8a613969565b604051610a97919061567a565b60405180910390f35b60007f7965db0b000000000000000000000000000000000000000000000000000000007bffffffffffffffffffffffffffffffffffffffffffffffffffffffff1916827bffffffffffffffffffffffffffffffffffffffffffffffffffffffff19161480610b135750610b128261396f565b5b9050919050565b6000600f80549050905090565b6000806010600084815260200190815260200160002060003373ffffffffffffffffffffffffffffffffffffffff1673ffffffffffffffffffffffffffffffffffffffff1681526020019081526020016000206040518060c0016040529081600082015481526020016001820154815260200160028201548152602001600382015481526020016004820154815260200160058201548152505090506000816040015114610be757806040015142610bdf9190615c9b565b915081610bfb565b806060015142610bf79190615c9b565b9150815b5050919050565b60026001541415610c48576040517f08c379a0000000000000000000000000000000000000000000000000000000008152600401610c3f906159c5565b60405180910390fd5b6002600181905550600e60009054906101000a900460ff16610c9f576040517f08c379a0000000000000000000000000000000000000000000000000000000008152600401610c9690615925565b60405180910390fd5b600e60029054906101000a900460ff16610cee576040517f08c379a0000000000000000000000000000000000000000000000000000000008152600401610ce590615745565b60405180910390fd5b6000600f600081548110610d2b577f4e487b7100000000000000000000000000000000000000000000000000000000600052603260045260246000fd5b9060005260206000209060050201905060006010600080815260200190815260200160002060003373ffffffffffffffffffffffffffffffffffffffff1673ffffffffffffffffffffffffffffffffffffffff16815260200190815260200160002090508281600001541015610dd6576040517f08c379a0000000000000000000000000000000000000000000000000000000008152600401610dcd906157a5565b60405180910390fd5b610de0600061207b565b6000610ded600033612eb7565b90506000811115610e0357610e0233826139d9565b5b6000841115610f9b57838260000154610e1c9190615c9b565b8260000181905550600560009054906101000a900473ffffffffffffffffffffffffffffffffffffffff1673ffffffffffffffffffffffffffffffffffffffff16639dc29fac33866040518363ffffffff1660e01b8152600401610e81929190615636565b600060405180830381600087803b158015610e9b57600080fd5b505af1158015610eaf573d6000803e3d6000fd5b5050505064e8d4a5100083600301548360000154610ecd9190615c41565b610ed79190615c10565b82600101819055504282600201819055508260000160009054906101000a900473ffffffffffffffffffffffffffffffffffffffff1673ffffffffffffffffffffffffffffffffffffffff1663a9059cbb33866040518363ffffffff1660e01b8152600401610f47929190615636565b602060405180830381600087803b158015610f6157600080fd5b505af1158015610f75573d6000803e3d6000fd5b505050506040513d601f19601f82011682018060405250810190610f999190614a34565b505b60003373ffffffffffffffffffffffffffffffffffffffff167fe08737ac48a1dab4b1a46c7dc9398bd5bfc6d7ad6fabb7cd8caa254de14def3586600042604051610fe893929190615a40565b60405180910390a35050506001808190555050565b600f818154811061100d57600080fd5b90600052602060002090600502016000915090508060000160009054906101000a900473ffffffffffffffffffffffffffffffffffffffff16908060010154908060020154908060030154908060040154905085565b60115461107781611072613b7d565b613b85565b600e60009054906101000a900460ff16156110c7576040517f08c379a00000000000000000000000000000000000000000000000000000000081526004016110be906159a5565b60405180910390fd5b42600c819055506103e86008819055508160098190555083600260006101000a81548173ffffffffffffffffffffffffffffffffffffffff021916908373ffffffffffffffffffffffffffffffffffffffff16021790555082600460006101000a81548173ffffffffffffffffffffffffffffffffffffffff021916908373ffffffffffffffffffffffffffffffffffffffff16021790555083600360006101000a81548173ffffffffffffffffffffffffffffffffffffffff021916908373ffffffffffffffffffffffffffffffffffffffff16021790555082600560006101000a81548173ffffffffffffffffffffffffffffffffffffffff021916908373ffffffffffffffffffffffffffffffffffffffff1602179055506111f0600954600854613c22565b600f6040518060a001604052808673ffffffffffffffffffffffffffffffffffffffff1681526020016103e88152602001600c548152602001600081526020016000815250908060018154018082558091505060019003906000526020600020906005020160009091909190915060008201518160000160006101000a81548173ffffffffffffffffffffffffffffffffffffffff021916908373ffffffffffffffffffffffffffffffffffffffff1602179055506020820151816001015560408201518160020155606082015181600301556080820151816004015550506001600e60006101000a81548160ff0219169083151502179055506103e8600d60008282546112fe9190615bba565b925050819055507f10f27652c1015195ca7e6bc9b4c724cbf18e91c42117d92124703a3f49bb240f848484604051611338939291906155ff565b60405180910390a150505050565b600d5481565b6000806000838152602001908152602001600020600101549050919050565b7f000000000000000000000000000000000000000000000000000000000000000081565b60005b828290508110156113f6576113e58383838181106113d9577f4e487b7100000000000000000000000000000000000000000000000000000000600052603260045260246000fd5b9050602002013561321e565b806113ef90615e16565b9050611392565b505050565b6114048261134c565b61141581611410613b7d565b613b85565b61141f8383613cc5565b505050565b60125461143881611433613b7d565b613b85565b6000600f8481548110611474577f4e487b7100000000000000000000000000000000000000000000000000000000600052603260045260246000fd5b90600052602060002090600502019050600061148f846131b4565b9050600082600401549050818114156114dd576040517f08c379a00000000000000000000000000000000000000000000000000000000081526004016114d4906157c5565b60405180910390fd5b7f0000000000000000000000000000000000000000000000000000000000000000811115611540576040517f08c379a0000000000000000000000000000000000000000000000000000000008152600401611537906157e5565b60405180910390fd5b8183600401819055507f11866c6bd0f6c9f4753a4891ab4d2e17484dbbdc2aa908db44e66a35c5c331dc868360405161157a929190615a77565b60405180910390a1505050505050565b611592613b7d565b73ffffffffffffffffffffffffffffffffffffffff168173ffffffffffffffffffffffffffffffffffffffff16146115ff576040517f08c379a00000000000000000000000000000000000000000000000000000000081526004016115f6906159e5565b60405180910390fd5b6116098282613da5565b5050565b600e60009054906101000a900460ff1681565b60026001541415611666576040517f08c379a000000000000000000000000000000000000000000000000000000000815260040161165d906159c5565b60405180910390fd5b6002600181905550600e60009054906101000a900460ff166116bd576040517f08c379a00000000000000000000000000000000000000000000000000000000081526004016116b490615925565b60405180910390fd5b600e60029054906101000a900460ff1661170c576040517f08c379a000000000000000000000000000000000000000000000000000000000815260040161170390615745565b60405180910390fd5b6000600f600081548110611749577f4e487b7100000000000000000000000000000000000000000000000000000000600052603260045260246000fd5b9060005260206000209060050201905060006010600080815260200190815260200160002060003373ffffffffffffffffffffffffffffffffffffffff1673ffffffffffffffffffffffffffffffffffffffff16815260200190815260200160002090506117b7600061207b565b60008160000154905060008111156117e45760006117d6600033612eb7565b90506117e233826139d9565b505b60008411156118bd578260000160009054906101000a900473ffffffffffffffffffffffffffffffffffffffff1673ffffffffffffffffffffffffffffffffffffffff166323b872dd3330876040518463ffffffff1660e01b815260040161184e939291906155ff565b602060405180830381600087803b15801561186857600080fd5b505af115801561187c573d6000803e3d6000fd5b505050506040513d601f19601f820116820180604052508101906118a09190614a34565b50838260000160008282546118b59190615bba565b925050819055505b6000826003015414156118d4574282600301819055505b64e8d4a51000836003015483600001546118ee9190615c41565b6118f89190615c10565b8260010181905550600084111561199957600560009054906101000a900473ffffffffffffffffffffffffffffffffffffffff1673ffffffffffffffffffffffffffffffffffffffff166340c10f1933866040518363ffffffff1660e01b8152600401611966929190615636565b600060405180830381600087803b15801561198057600080fd5b505af1158015611994573d6000803e3d6000fd5b505050505b60003373ffffffffffffffffffffffffffffffffffffffff167f36af321ec8d3c75236829c5317affd40ddb308863a1236d2d277a4025cccee1e86426040516119e3929190615a77565b60405180910390a35050506001808190555050565b600760009054906101000a900473ffffffffffffffffffffffffffffffffffffffff1681565b60026001541415611a64576040517f08c379a0000000000000000000000000000000000000000000000000000000008152600401611a5b906159c5565b60405180910390fd5b6002600181905550600e60009054906101000a900460ff16611abb576040517f08c379a0000000000000000000000000000000000000000000000000000000008152600401611ab290615925565b60405180910390fd5b600e60029054906101000a900460ff16611b0a576040517f08c379a0000000000000000000000000000000000000000000000000000000008152600401611b0190615745565b60405180910390fd5b81600f805490508110611b52576040517f08c379a0000000000000000000000000000000000000000000000000000000008152600401611b4990615885565b60405180910390fd5b6000831415611b96576040517f08c379a0000000000000000000000000000000000000000000000000000000008152600401611b8d906158a5565b60405180910390fd5b60008211611bd9576040517f08c379a0000000000000000000000000000000000000000000000000000000008152600401611bd0906158e5565b60405180910390fd5b6000600f8481548110611c15577f4e487b7100000000000000000000000000000000000000000000000000000000600052603260045260246000fd5b9060005260206000209060050201905060006010600086815260200190815260200160002060003373ffffffffffffffffffffffffffffffffffffffff1673ffffffffffffffffffffffffffffffffffffffff16815260200190815260200160002090508381600001541015611cc0576040517f08c379a0000000000000000000000000000000000000000000000000000000008152600401611cb790615765565b60405180910390fd5b611cc98561207b565b6000611cd58633612eb7565b90506000811115611ceb57611cea33826139d9565b5b6000611cf78733613837565b90506000611d0482612c43565b905086846000016000828254611d1a9190615c9b565b925050819055508184600401819055508084600501819055506000611d4089838a612aad565b91505060008189611d519190615c9b565b90508660000160009054906101000a900473ffffffffffffffffffffffffffffffffffffffff1673ffffffffffffffffffffffffffffffffffffffff1663a9059cbb600760009054906101000a900473ffffffffffffffffffffffffffffffffffffffff16836040518363ffffffff1660e01b8152600401611dd4929190615636565b602060405180830381600087803b158015611dee57600080fd5b505af1158015611e02573d6000803e3d6000fd5b505050506040513d601f19601f82011682018060405250810190611e269190614a34565b508660000160009054906101000a900473ffffffffffffffffffffffffffffffffffffffff1673ffffffffffffffffffffffffffffffffffffffff1663a9059cbb33846040518363ffffffff1660e01b8152600401611e86929190615636565b602060405180830381600087803b158015611ea057600080fd5b505af1158015611eb4573d6000803e3d6000fd5b505050506040513d601f19601f82011682018060405250810190611ed89190614a34565b5064e8d4a5100087600301548760000154611ef39190615c41565b611efd9190615c10565b8660010181905550428660020181905550893373ffffffffffffffffffffffffffffffffffffffff167fe08737ac48a1dab4b1a46c7dc9398bd5bfc6d7ad6fabb7cd8caa254de14def358b8442604051611f5993929190615ae5565b60405180910390a35050505050505050600180819055505050565b600e60029054906101000a900460ff1681565b600560009054906101000a900473ffffffffffffffffffffffffffffffffffffffff1681565b600e60009054906101000a900460ff16611ffc576040517f08c379a0000000000000000000000000000000000000000000000000000000008152600401611ff390615925565b60405180910390fd5b600e60029054906101000a900460ff1661204b576040517f08c379a000000000000000000000000000000000000000000000000000000000815260040161204290615745565b60405180910390fd5b60115461205f8161205a613b7d565b613b85565b61206884613e86565b61207485858585613f8b565b5050505050565b80600f8054905081106120c3576040517f08c379a00000000000000000000000000000000000000000000000000000000081526004016120ba90615885565b60405180910390fd5b6000600f83815481106120ff577f4e487b7100000000000000000000000000000000000000000000000000000000600052603260045260246000fd5b906000526020600020906005020190508060020154421161212057506124a5565b60008160000160009054906101000a900473ffffffffffffffffffffffffffffffffffffffff1673ffffffffffffffffffffffffffffffffffffffff166370a08231306040518263ffffffff1660e01b815260040161217f91906155bb565b60206040518083038186803b15801561219757600080fd5b505afa1580156121ab573d6000803e3d6000fd5b505050506040513d601f19601f820116820180604052508101906121cf9190614b14565b905060008114156121ea5742826002018190555050506124a5565b60006121fa836002015442612b4f565b90506000600d548460010154600b54846122149190615c41565b61221e9190615c41565b6122289190615c10565b90506000650746a528800064e8d4a51000836122449190615c41565b61224e9190615c10565b9050600360009054906101000a900473ffffffffffffffffffffffffffffffffffffffff1673ffffffffffffffffffffffffffffffffffffffff166340c10f19600660009054906101000a900473ffffffffffffffffffffffffffffffffffffffff16836040518363ffffffff1660e01b81526004016122cf929190615636565b600060405180830381600087803b1580156122e957600080fd5b505af11580156122fd573d6000803e3d6000fd5b50505050600360009054906101000a900473ffffffffffffffffffffffffffffffffffffffff1673ffffffffffffffffffffffffffffffffffffffff166340c10f19600760009054906101000a900473ffffffffffffffffffffffffffffffffffffffff16836040518363ffffffff1660e01b8152600401612380929190615636565b600060405180830381600087803b15801561239a57600080fd5b505af11580156123ae573d6000803e3d6000fd5b50505050600360009054906101000a900473ffffffffffffffffffffffffffffffffffffffff1673ffffffffffffffffffffffffffffffffffffffff166340c10f19600560009054906101000a900473ffffffffffffffffffffffffffffffffffffffff16846040518363ffffffff1660e01b8152600401612431929190615636565b600060405180830381600087803b15801561244b57600080fd5b505af115801561245f573d6000803e3d6000fd5b505050508364e8d4a51000836124759190615c41565b61247f9190615c10565b856003015461248e9190615bba565b856003018190555042856002018190555050505050505b5050565b600260015414156124ef576040517f08c379a00000000000000000000000000000000000000000000000000000000081526004016124e6906159c5565b60405180910390fd5b6002600181905550600e60019054906101000a900460ff16612546576040517f08c379a000000000000000000000000000000000000000000000000000000000815260040161253d90615805565b60405180910390fd5b6000600f8281548110612582577f4e487b7100000000000000000000000000000000000000000000000000000000600052603260045260246000fd5b9060005260206000209060050201905060006010600084815260200190815260200160002060003373ffffffffffffffffffffffffffffffffffffffff1673ffffffffffffffffffffffffffffffffffffffff16815260200190815260200160002090506000831415612776578060000154600560009054906101000a900473ffffffffffffffffffffffffffffffffffffffff1673ffffffffffffffffffffffffffffffffffffffff166370a08231336040518263ffffffff1660e01b815260040161264f91906155bb565b602060405180830381600087803b15801561266957600080fd5b505af115801561267d573d6000803e3d6000fd5b505050506040513d601f19601f820116820180604052508101906126a19190614b14565b10156126e2576040517f08c379a00000000000000000000000000000000000000000000000000000000081526004016126d9906158c5565b60405180910390fd5b600560009054906101000a900473ffffffffffffffffffffffffffffffffffffffff1673ffffffffffffffffffffffffffffffffffffffff16639dc29fac3383600001546040518363ffffffff1660e01b8152600401612743929190615636565b600060405180830381600087803b15801561275d57600080fd5b505af1158015612771573d6000803e3d6000fd5b505050505b6127c93382600001548460000160009054906101000a900473ffffffffffffffffffffffffffffffffffffffff1673ffffffffffffffffffffffffffffffffffffffff166140ff9092919063ffffffff16565b6000816000018190555060008160010181905550823373ffffffffffffffffffffffffffffffffffffffff167fbb757047c2b5f3974fe26b7c10f732e7bce710b0952a71082702781e62ae059583600001546040516128289190615a25565b60405180910390a350506001808190555050565b600b5481565b600e60019054906101000a900460ff1681565b6000600f80549050905060005b81811015612884576128738161207b565b8061287d90615e16565b9050612862565b5050565b600e60009054906101000a900460ff166128d7576040517f08c379a00000000000000000000000000000000000000000000000000000000081526004016128ce90615925565b60405180910390fd5b600e60029054906101000a900460ff16612926576040517f08c379a000000000000000000000000000000000000000000000000000000000815260040161291d90615745565b60405180910390fd5b82600f80549050811061296e576040517f08c379a000000000000000000000000000000000000000000000000000000000815260040161296590615885565b60405180910390fd5b6012546129828161297d613b7d565b613b85565b821561299157612990612855565b5b6000600f86815481106129cd577f4e487b7100000000000000000000000000000000000000000000000000000000600052603260045260246000fd5b906000526020600020906005020160010154905084600f8781548110612a1c577f4e487b7100000000000000000000000000000000000000000000000000000000600052603260045260246000fd5b906000526020600020906005020160010181905550848114612a60578481600d54612a479190615c9b565b612a519190615bba565b600d81905550612a5f614185565b5b7fd88f859573973e938da5bf3e5100c16eee2090fa720e05ae3d452b4cd05cdcfd8686604051612a91929190615a77565b60405180910390a1505050505050565b600c5481565b600a5481565b6000806000612ac4612abf8787612c73565b613814565b9050600060648286612ad69190615c41565b612ae09190615c10565b905060008186612af09190615c9b565b9050818194509450505050935093915050565b600360009054906101000a900473ffffffffffffffffffffffffffffffffffffffff1681565b600660009054906101000a900473ffffffffffffffffffffffffffffffffffffffff1681565b60007f00000000000000000000000000000000000000000000000000000000000000008383612b7e9190615c9b565b612b889190615c41565b905092915050565b600080600084815260200190815260200160002060000160008373ffffffffffffffffffffffffffffffffffffffff1673ffffffffffffffffffffffffffffffffffffffff16815260200190815260200160002060009054906101000a900460ff16905092915050565b6010602052816000526040600020602052806000526040600020600091509150508060000154908060010154908060020154908060030154908060040154908060050154905086565b6000620151808210612c63576201518082612c5e9190615c10565b612c66565b60005b9050919050565b60085481565b600080612c7f836131b4565b90506000600f8581548110612cbd577f4e487b7100000000000000000000000000000000000000000000000000000000600052603260045260246000fd5b90600052602060002090600502016040518060a00160405290816000820160009054906101000a900473ffffffffffffffffffffffffffffffffffffffff1673ffffffffffffffffffffffffffffffffffffffff1673ffffffffffffffffffffffffffffffffffffffff1681526020016001820154815260200160028201548152602001600382015481526020016004820154815250509050600081608001519050808310612d6f5760009350612d7e565b8281612d7b9190615c9b565b93505b50505092915050565b60095481565b6000801b81565b7f000000000000000000000000000000000000000000000000000000000000000081565b601254612dcc81612dc7613b7d565b613b85565b82600954141580612ddf57508160085414155b612e1e576040517f08c379a0000000000000000000000000000000000000000000000000000000008152600401612e1590615865565b60405180910390fd5b82821015612e61576040517f08c379a0000000000000000000000000000000000000000000000000000000008152600401612e5890615a05565b60405180910390fd5b8260098190555081600881905550612e798383613c22565b7fb298bc23e07860d501fddce288f46d761aa04a0c7c3316099eb50f097aacf3048383604051612eaa929190615a77565b60405180910390a1505050565b600080600f8481548110612ef4577f4e487b7100000000000000000000000000000000000000000000000000000000600052603260045260246000fd5b90600052602060002090600502016040518060a00160405290816000820160009054906101000a900473ffffffffffffffffffffffffffffffffffffffff1673ffffffffffffffffffffffffffffffffffffffff1673ffffffffffffffffffffffffffffffffffffffff168152602001600182015481526020016002820154815260200160038201548152602001600482015481525050905060006010600086815260200190815260200160002060008573ffffffffffffffffffffffffffffffffffffffff1673ffffffffffffffffffffffffffffffffffffffff1681526020019081526020016000206040518060c0016040529081600082015481526020016001820154815260200160028201548152602001600382015481526020016004820154815260200160058201548152505090506000826060015190506000836000015173ffffffffffffffffffffffffffffffffffffffff166370a08231306040518263ffffffff1660e01b815260040161307091906155bb565b60206040518083038186803b15801561308857600080fd5b505afa15801561309c573d6000803e3d6000fd5b505050506040513d601f19601f820116820180604052508101906130c09190614b14565b90508360400151421180156130d6575060008114155b156131475760006130eb856040015142612b4f565b90506000600d548660200151600b54846131059190615c41565b61310f9190615c41565b6131199190615c10565b90508264e8d4a510008261312d9190615c41565b6131379190615c10565b846131429190615bba565b935050505b826020015164e8d4a510008385600001516131629190615c41565b61316c9190615c10565b6131769190615c9b565b94505050505092915050565b60125461319681613191613b7d565b613b85565b81600e60016101000a81548160ff0219169083151502179055505050565b6000670de0b6b3a7640000826131ca9190615c41565b9050919050565b6131da8261134c565b6131eb816131e6613b7d565b613b85565b6131f58383613da5565b505050565b7f000000000000000000000000000000000000000000000000000000000000000081565b6000811415613236576132316000611620565b613242565b613241816000613447565b5b50565b60115461325981613254613b7d565b613b85565b8273ffffffffffffffffffffffffffffffffffffffff16600760009054906101000a900473ffffffffffffffffffffffffffffffffffffffff1673ffffffffffffffffffffffffffffffffffffffff1614158061330457508173ffffffffffffffffffffffffffffffffffffffff16600660009054906101000a900473ffffffffffffffffffffffffffffffffffffffff1673ffffffffffffffffffffffffffffffffffffffff1614155b613343576040517f08c379a000000000000000000000000000000000000000000000000000000000815260040161333a90615945565b60405180910390fd5b82600760006101000a81548173ffffffffffffffffffffffffffffffffffffffff021916908373ffffffffffffffffffffffffffffffffffffffff16021790555081600660006101000a81548173ffffffffffffffffffffffffffffffffffffffff021916908373ffffffffffffffffffffffffffffffffffffffff1602179055507fd1c04282701cbf58aa2f0026f6876051cf3feb8ee7b8b5b5532ebb4ab03fb5d4600760009054906101000a900473ffffffffffffffffffffffffffffffffffffffff16600660009054906101000a900473ffffffffffffffffffffffffffffffffffffffff1660405161343a9291906155d6565b60405180910390a1505050565b6002600154141561348d576040517f08c379a0000000000000000000000000000000000000000000000000000000008152600401613484906159c5565b60405180910390fd5b6002600181905550600e60009054906101000a900460ff166134e4576040517f08c379a00000000000000000000000000000000000000000000000000000000081526004016134db90615925565b60405180910390fd5b600e60029054906101000a900460ff16613533576040517f08c379a000000000000000000000000000000000000000000000000000000000815260040161352a90615745565b60405180910390fd5b81600f80549050811061357b576040517f08c379a000000000000000000000000000000000000000000000000000000000815260040161357290615885565b60405180910390fd5b60008314156135bf576040517f08c379a00000000000000000000000000000000000000000000000000000000081526004016135b690615825565b60405180910390fd5b6000600f84815481106135fb577f4e487b7100000000000000000000000000000000000000000000000000000000600052603260045260246000fd5b9060005260206000209060050201905060006010600086815260200190815260200160002060003373ffffffffffffffffffffffffffffffffffffffff1673ffffffffffffffffffffffffffffffffffffffff16815260200190815260200160002090506136688561207b565b6000816000015411156136995760006136818633612eb7565b905060008111156136975761369633826139d9565b5b505b6000841115613772578160000160009054906101000a900473ffffffffffffffffffffffffffffffffffffffff1673ffffffffffffffffffffffffffffffffffffffff166323b872dd3330876040518463ffffffff1660e01b8152600401613703939291906155ff565b602060405180830381600087803b15801561371d57600080fd5b505af1158015613731573d6000803e3d6000fd5b505050506040513d601f19601f820116820180604052508101906137559190614a34565b508381600001600082825461376a9190615bba565b925050819055505b64e8d4a510008260030154826000015461378c9190615c41565b6137969190615c10565b81600101819055506000816003015414156137b5574281600301819055505b843373ffffffffffffffffffffffffffffffffffffffff167f36af321ec8d3c75236829c5317affd40ddb308863a1236d2d277a4025cccee1e86426040516137fe929190615a77565b60405180910390a3505050600180819055505050565b6000670de0b6b3a76400008261382a9190615c10565b9050919050565b60115481565b6000806010600085815260200190815260200160002060008473ffffffffffffffffffffffffffffffffffffffff1673ffffffffffffffffffffffffffffffffffffffff1681526020019081526020016000206040518060c00160405290816000820154815260200160018201548152602001600282015481526020016003820154815260200160048201548152602001600582015481525050905060008160400151146138f7578060400151426138ef9190615c9b565b91508161390b565b8060600151426139079190615c9b565b9150815b505092915050565b60115461392781613922613b7d565b613b85565b81600e60026101000a81548160ff0219169083151502179055505050565b7f000000000000000000000000000000000000000000000000000000000000000081565b60125481565b60007f01ffc9a7000000000000000000000000000000000000000000000000000000007bffffffffffffffffffffffffffffffffffffffffffffffffffffffff1916827bffffffffffffffffffffffffffffffffffffffffffffffffffffffff1916149050919050565b80600560009054906101000a900473ffffffffffffffffffffffffffffffffffffffff1673ffffffffffffffffffffffffffffffffffffffff166370a08231600260009054906101000a900473ffffffffffffffffffffffffffffffffffffffff166040518263ffffffff1660e01b8152600401613a5791906155bb565b602060405180830381600087803b158015613a7157600080fd5b505af1158015613a85573d6000803e3d6000fd5b505050506040513d601f19601f82011682018060405250810190613aa99190614b14565b1015613aea576040517f08c379a0000000000000000000000000000000000000000000000000000000008152600401613ae190615785565b60405180910390fd5b600560009054906101000a900473ffffffffffffffffffffffffffffffffffffffff1673ffffffffffffffffffffffffffffffffffffffff1663b2a142aa83836040518363ffffffff1660e01b8152600401613b47929190615636565b600060405180830381600087803b158015613b6157600080fd5b505af1158015613b75573d6000803e3d6000fd5b505050505050565b600033905090565b613b8f8282612b90565b613c1e57613bb48173ffffffffffffffffffffffffffffffffffffffff1660146142e2565b613bc28360001c60206142e2565b604051602001613bd3929190615581565b6040516020818303038152906040526040517f08c379a0000000000000000000000000000000000000000000000000000000008152600401613c159190615703565b60405180910390fd5b5050565b600081613c2e846131b4565b613c389190615c10565b90507f000000000000000000000000000000000000000000000000000000000000000081613c669190615c41565b600a8190555062015180600a54613c7d9190615c10565b600b819055507fcd7c861d63893659123f817b192b8621ff1923a7c4589c260173cedcf9e986a6600a54600b54604051613cb8929190615a77565b60405180910390a1505050565b613ccf8282612b90565b613da157600160008084815260200190815260200160002060000160008373ffffffffffffffffffffffffffffffffffffffff1673ffffffffffffffffffffffffffffffffffffffff16815260200190815260200160002060006101000a81548160ff021916908315150217905550613d46613b7d565b73ffffffffffffffffffffffffffffffffffffffff168173ffffffffffffffffffffffffffffffffffffffff16837f2f8788117e7eff1d82e926ec794901d17c78024a50270940304540a733656f0d60405160405180910390a45b5050565b613daf8282612b90565b15613e8257600080600084815260200190815260200160002060000160008373ffffffffffffffffffffffffffffffffffffffff1673ffffffffffffffffffffffffffffffffffffffff16815260200190815260200160002060006101000a81548160ff021916908315150217905550613e27613b7d565b73ffffffffffffffffffffffffffffffffffffffff168173ffffffffffffffffffffffffffffffffffffffff16837ff6391f5c32d9c69d2a47ea670b442974b53935d1edc7fd64eb21e047a839171b60405160405180910390a45b5050565b6000600f80549050905060005b81811015613f86578273ffffffffffffffffffffffffffffffffffffffff16600f8281548110613eec577f4e487b7100000000000000000000000000000000000000000000000000000000600052603260045260246000fd5b906000526020600020906005020160000160009054906101000a900473ffffffffffffffffffffffffffffffffffffffff1673ffffffffffffffffffffffffffffffffffffffff161415613f75576040517f08c379a0000000000000000000000000000000000000000000000000000000008152600401613f6c90615965565b60405180910390fd5b80613f7f90615e16565b9050613e93565b505050565b8115613f9a57613f99612855565b5b83600d6000828254613fac9190615bba565b92505081905550600f6040518060a001604052808573ffffffffffffffffffffffffffffffffffffffff168152602001868152602001600c544211613ff357600c54613ff5565b425b81526020016000815260200161400a846131b4565b815250908060018154018082558091505060019003906000526020600020906005020160009091909190915060008201518160000160006101000a81548173ffffffffffffffffffffffffffffffffffffffff021916908373ffffffffffffffffffffffffffffffffffffffff1602179055506020820151816001015560408201518160020155606082015181600301556080820151816004015550506140af614185565b6000600f8054905090507f20b669aa921947a6d9602a921d2db3b6b30f21b9aca98580fa3972530330b27a818686600d546040516140f09493929190615aa0565b60405180910390a15050505050565b6141808363a9059cbb60e01b848460405160240161411e929190615636565b604051602081830303815290604052907bffffffffffffffffffffffffffffffffffffffffffffffffffffffff19166020820180517bffffffffffffffffffffffffffffffffffffffffffffffffffffffff83818316178352505050506145dc565b505050565b6000600f805490509050600080600190505b8281101561420957600f81815481106141d9577f4e487b7100000000000000000000000000000000000000000000000000000000600052603260045260246000fd5b906000526020600020906005020160010154826141f69190615bba565b91508061420290615e16565b9050614197565b50600081146142de5760038161421f9190615c10565b905080600f60008154811061425d577f4e487b7100000000000000000000000000000000000000000000000000000000600052603260045260246000fd5b906000526020600020906005020160010154600d5461427c9190615c9b565b6142869190615bba565b600d8190555080600f6000815481106142c8577f4e487b7100000000000000000000000000000000000000000000000000000000600052603260045260246000fd5b9060005260206000209060050201600101819055505b5050565b6060600060028360026142f59190615c41565b6142ff9190615bba565b67ffffffffffffffff81111561433e577f4e487b7100000000000000000000000000000000000000000000000000000000600052604160045260246000fd5b6040519080825280601f01601f1916602001820160405280156143705781602001600182028036833780820191505090505b5090507f3000000000000000000000000000000000000000000000000000000000000000816000815181106143ce577f4e487b7100000000000000000000000000000000000000000000000000000000600052603260045260246000fd5b60200101907effffffffffffffffffffffffffffffffffffffffffffffffffffffffffffff1916908160001a9053507f780000000000000000000000000000000000000000000000000000000000000081600181518110614458577f4e487b7100000000000000000000000000000000000000000000000000000000600052603260045260246000fd5b60200101907effffffffffffffffffffffffffffffffffffffffffffffffffffffffffffff1916908160001a905350600060018460026144989190615c41565b6144a29190615bba565b90505b600181111561458e577f3031323334353637383961626364656600000000000000000000000000000000600f86166010811061450a577f4e487b7100000000000000000000000000000000000000000000000000000000600052603260045260246000fd5b1a60f81b828281518110614547577f4e487b7100000000000000000000000000000000000000000000000000000000600052603260045260246000fd5b60200101907effffffffffffffffffffffffffffffffffffffffffffffffffffffffffffff1916908160001a905350600485901c94508061458790615dec565b90506144a5565b50600084146145d2576040517f08c379a00000000000000000000000000000000000000000000000000000000081526004016145c990615725565b60405180910390fd5b8091505092915050565b600061463e826040518060400160405280602081526020017f5361666545524332303a206c6f772d6c6576656c2063616c6c206661696c65648152508573ffffffffffffffffffffffffffffffffffffffff166146a39092919063ffffffff16565b905060008151111561469e578080602001905181019061465e9190614a34565b61469d576040517f08c379a000000000000000000000000000000000000000000000000000000000815260040161469490615985565b60405180910390fd5b5b505050565b60606146b284846000856146bb565b90509392505050565b606082471015614700576040517f08c379a00000000000000000000000000000000000000000000000000000000081526004016146f790615845565b60405180910390fd5b614709856147cf565b614748576040517f08c379a000000000000000000000000000000000000000000000000000000000815260040161473f90615905565b60405180910390fd5b6000808673ffffffffffffffffffffffffffffffffffffffff168587604051614771919061556a565b60006040518083038185875af1925050503d80600081146147ae576040519150601f19603f3d011682016040523d82523d6000602084013e6147b3565b606091505b50915091506147c38282866147e2565b92505050949350505050565b600080823b905060008111915050919050565b606083156147f257829050614842565b6000835111156148055782518084602001fd5b816040517f08c379a00000000000000000000000000000000000000000000000000000000081526004016148399190615703565b60405180910390fd5b9392505050565b60008135905061485881615ece565b92915050565b60008083601f84011261487057600080fd5b8235905067ffffffffffffffff81111561488957600080fd5b6020830191508360208202830111156148a157600080fd5b9250929050565b6000813590506148b781615ee5565b92915050565b6000815190506148cc81615ee5565b92915050565b6000813590506148e181615efc565b92915050565b6000813590506148f681615f13565b92915050565b60008135905061490b81615f2a565b92915050565b60008135905061492081615f41565b92915050565b60008151905061493581615f41565b92915050565b6000806040838503121561494e57600080fd5b600061495c85828601614849565b925050602061496d85828601614849565b9150509250929050565b60008060006060848603121561498c57600080fd5b600061499a86828701614849565b93505060206149ab86828701614849565b92505060406149bc86828701614911565b9150509250925092565b600080602083850312156149d957600080fd5b600083013567ffffffffffffffff8111156149f357600080fd5b6149ff8582860161485e565b92509250509250929050565b600060208284031215614a1d57600080fd5b6000614a2b848285016148a8565b91505092915050565b600060208284031215614a4657600080fd5b6000614a54848285016148bd565b91505092915050565b600060208284031215614a6f57600080fd5b6000614a7d848285016148d2565b91505092915050565b60008060408385031215614a9957600080fd5b6000614aa7858286016148d2565b9250506020614ab885828601614849565b9150509250929050565b600060208284031215614ad457600080fd5b6000614ae2848285016148e7565b91505092915050565b600060208284031215614afd57600080fd5b6000614b0b84828501614911565b91505092915050565b600060208284031215614b2657600080fd5b6000614b3484828501614926565b91505092915050565b60008060408385031215614b5057600080fd5b6000614b5e85828601614911565b9250506020614b6f85828601614849565b9150509250929050565b60008060008060808587031215614b8f57600080fd5b6000614b9d87828801614911565b9450506020614bae878288016148fc565b9350506040614bbf878288016148a8565b9250506060614bd087828801614911565b91505092959194509250565b60008060408385031215614bef57600080fd5b6000614bfd85828601614911565b9250506020614c0e85828601614911565b9150509250929050565b600080600060608486031215614c2d57600080fd5b6000614c3b86828701614911565b9350506020614c4c86828701614911565b9250506040614c5d868287016148a8565b9150509250925092565b600080600060608486031215614c7c57600080fd5b6000614c8a86828701614911565b9350506020614c9b86828701614911565b9250506040614cac86828701614911565b9150509250925092565b614cbf81615ccf565b82525050565b614cce81615ce1565b82525050565b614cdd81615ced565b82525050565b6000614cee82615b7d565b614cf88185615b93565b9350614d08818560208601615db9565b80840191505092915050565b614d1d81615d5f565b82525050565b614d2c81615d83565b82525050565b614d3b81615da7565b82525050565b6000614d4c82615b88565b614d568185615b9e565b9350614d66818560208601615db9565b614d6f81615ebd565b840191505092915050565b6000614d8582615b88565b614d8f8185615baf565b9350614d9f818560208601615db9565b80840191505092915050565b6000614db8602083615b9e565b91507f537472696e67733a20686578206c656e67746820696e73756666696369656e746000830152602082019050919050565b6000614df8601c83615b9e565b91507f636f6e74726163742069732063757272656e746c7920706175736564000000006000830152602082019050919050565b6000614e38601a83615b9e565b91507f7769746864726177616c2065786365656473206465706f7369740000000000006000830152602082019050919050565b6000614e78603483615b9e565b91507f696e73756666696369656e7420636f76657261676520666f722072657175657360008301527f74656420534f554c2066726f6d205345414e43450000000000000000000000006020830152604082019050919050565b6000614ede602b83615b9e565b91507f726571756573746564207769746864726177616c20657863656564732073746160008301527f6b65642062616c616e63650000000000000000000000000000000000000000006020830152604082019050919050565b6000614f44601383615b9e565b91507f6d7573742062652061206e65772076616c7565000000000000000000000000006000830152602082019050919050565b6000614f84601983615b9e565b91507f6578636565647320616c6c6f7761626c652066656544617973000000000000006000830152602082019050919050565b6000614fc4601d83615b9e565b91507f656d657267656e6379206d6f6465206973206e6f74206163746976652e0000006000830152602082019050919050565b6000615004602683615b9e565b91507f6465706f73697420534f554c206279207374616b696e672028656e746572537460008301527f616b696e672900000000000000000000000000000000000000000000000000006020830152604082019050919050565b600061506a602683615b9e565b91507f416464726573733a20696e73756666696369656e742062616c616e636520666f60008301527f722063616c6c00000000000000000000000000000000000000000000000000006020830152604082019050919050565b60006150d0601883615b9e565b91507f6d75737420696e636c7564652061206e65772076616c756500000000000000006000830152602082019050919050565b6000615110601383615b9e565b91507f706f6f6c20646f6573206e6f74206578697374000000000000000000000000006000830152602082019050919050565b6000615150602983615b9e565b91507f776974686472617720534f554c20627920756e7374616b696e6720286c65617660008301527f655374616b696e672900000000000000000000000000000000000000000000006020830152604082019050919050565b60006151b6603483615b9e565b91507f696e73756666696369656e74205345414e434520746f20636f76657220534f5560008301527f4c207769746864726177616c20726571756573740000000000000000000000006020830152604082019050919050565b600061521c601483615b9e565b91507f63616e6e6f74207769746864726177207a65726f0000000000000000000000006000830152602082019050919050565b600061525c601d83615b9e565b91507f416464726573733a2063616c6c20746f206e6f6e2d636f6e74726163740000006000830152602082019050919050565b600061529c601b83615b9e565b91507f726577617264732068617665206e6f742079657420626567756e2e00000000006000830152602082019050919050565b60006152dc601783615baf565b91507f416363657373436f6e74726f6c3a206163636f756e74200000000000000000006000830152601782019050919050565b600061531c601a83615b9e565b91507f6d75737420696e636c7564652061206e6577206163636f756e740000000000006000830152602082019050919050565b600061535c600f83615b9e565b91507f6475706c69636174656420706f6f6c00000000000000000000000000000000006000830152602082019050919050565b600061539c602a83615b9e565b91507f5361666545524332303a204552433230206f7065726174696f6e20646964206e60008301527f6f742073756363656564000000000000000000000000000000000000000000006020830152604082019050919050565b6000615402601a83615b9e565b91507f72657761726473206861766520616c726561647920626567756e0000000000006000830152602082019050919050565b6000615442601f83615b9e565b91507f5265656e7472616e637947756172643a207265656e7472616e742063616c6c006000830152602082019050919050565b6000615482601183615baf565b91507f206973206d697373696e6720726f6c65200000000000000000000000000000006000830152601182019050919050565b60006154c2602f83615b9e565b91507f416363657373436f6e74726f6c3a2063616e206f6e6c792072656e6f756e636560008301527f20726f6c657320666f722073656c6600000000000000000000000000000000006020830152604082019050919050565b6000615528602083615b9e565b91507f7765696768742063616e6e6f742065786365656420746f74616c5765696768746000830152602082019050919050565b61556481615d55565b82525050565b60006155768284614ce3565b915081905092915050565b600061558c826152cf565b91506155988285614d7a565b91506155a382615475565b91506155af8284614d7a565b91508190509392505050565b60006020820190506155d06000830184614cb6565b92915050565b60006040820190506155eb6000830185614cb6565b6155f86020830184614cb6565b9392505050565b60006060820190506156146000830186614cb6565b6156216020830185614cb6565b61562e604083018461555b565b949350505050565b600060408201905061564b6000830185614cb6565b615658602083018461555b565b9392505050565b60006020820190506156746000830184614cc5565b92915050565b600060208201905061568f6000830184614cd4565b92915050565b600060a0820190506156aa6000830188614d14565b6156b7602083018761555b565b6156c4604083018661555b565b6156d1606083018561555b565b6156de608083018461555b565b9695505050505050565b60006020820190506156fd6000830184614d23565b92915050565b6000602082019050818103600083015261571d8184614d41565b905092915050565b6000602082019050818103600083015261573e81614dab565b9050919050565b6000602082019050818103600083015261575e81614deb565b9050919050565b6000602082019050818103600083015261577e81614e2b565b9050919050565b6000602082019050818103600083015261579e81614e6b565b9050919050565b600060208201905081810360008301526157be81614ed1565b9050919050565b600060208201905081810360008301526157de81614f37565b9050919050565b600060208201905081810360008301526157fe81614f77565b9050919050565b6000602082019050818103600083015261581e81614fb7565b9050919050565b6000602082019050818103600083015261583e81614ff7565b9050919050565b6000602082019050818103600083015261585e8161505d565b9050919050565b6000602082019050818103600083015261587e816150c3565b9050919050565b6000602082019050818103600083015261589e81615103565b9050919050565b600060208201905081810360008301526158be81615143565b9050919050565b600060208201905081810360008301526158de816151a9565b9050919050565b600060208201905081810360008301526158fe8161520f565b9050919050565b6000602082019050818103600083015261591e8161524f565b9050919050565b6000602082019050818103600083015261593e8161528f565b9050919050565b6000602082019050818103600083015261595e8161530f565b9050919050565b6000602082019050818103600083015261597e8161534f565b9050919050565b6000602082019050818103600083015261599e8161538f565b9050919050565b600060208201905081810360008301526159be816153f5565b9050919050565b600060208201905081810360008301526159de81615435565b9050919050565b600060208201905081810360008301526159fe816154b5565b9050919050565b60006020820190508181036000830152615a1e8161551b565b9050919050565b6000602082019050615a3a600083018461555b565b92915050565b6000606082019050615a55600083018661555b565b615a626020830185614d32565b615a6f604083018461555b565b949350505050565b6000604082019050615a8c600083018561555b565b615a99602083018461555b565b9392505050565b6000608082019050615ab5600083018761555b565b615ac2602083018661555b565b615acf6040830185614d14565b615adc606083018461555b565b95945050505050565b6000606082019050615afa600083018661555b565b615b07602083018561555b565b615b14604083018461555b565b949350505050565b600060c082019050615b31600083018961555b565b615b3e602083018861555b565b615b4b604083018761555b565b615b58606083018661555b565b615b65608083018561555b565b615b7260a083018461555b565b979650505050505050565b600081519050919050565b600081519050919050565b600081905092915050565b600082825260208201905092915050565b600081905092915050565b6000615bc582615d55565b9150615bd083615d55565b9250827fffffffffffffffffffffffffffffffffffffffffffffffffffffffffffffffff03821115615c0557615c04615e5f565b5b828201905092915050565b6000615c1b82615d55565b9150615c2683615d55565b925082615c3657615c35615e8e565b5b828204905092915050565b6000615c4c82615d55565b9150615c5783615d55565b9250817fffffffffffffffffffffffffffffffffffffffffffffffffffffffffffffffff0483118215151615615c9057615c8f615e5f565b5b828202905092915050565b6000615ca682615d55565b9150615cb183615d55565b925082821015615cc457615cc3615e5f565b5b828203905092915050565b6000615cda82615d35565b9050919050565b60008115159050919050565b6000819050919050565b60007fffffffff0000000000000000000000000000000000000000000000000000000082169050919050565b6000615d2e82615ccf565b9050919050565b600073ffffffffffffffffffffffffffffffffffffffff82169050919050565b6000819050919050565b6000615d6a82615d71565b9050919050565b6000615d7c82615d35565b9050919050565b6000615d8e82615d95565b9050919050565b6000615da082615d35565b9050919050565b6000615db282615d55565b9050919050565b60005b83811015615dd7578082015181840152602081019050615dbc565b83811115615de6576000848401525b50505050565b6000615df782615d55565b91506000821415615e0b57615e0a615e5f565b5b600182039050919050565b6000615e2182615d55565b91507fffffffffffffffffffffffffffffffffffffffffffffffffffffffffffffffff821415615e5457615e53615e5f565b5b600182019050919050565b7f4e487b7100000000000000000000000000000000000000000000000000000000600052601160045260246000fd5b7f4e487b7100000000000000000000000000000000000000000000000000000000600052601260045260246000fd5b6000601f19601f8301169050919050565b615ed781615ccf565b8114615ee257600080fd5b50565b615eee81615ce1565b8114615ef957600080fd5b50565b615f0581615ced565b8114615f1057600080fd5b50565b615f1c81615cf7565b8114615f2757600080fd5b50565b615f3381615d23565b8114615f3e57600080fd5b50565b615f4a81615d55565b8114615f5557600080fd5b5056fea2646970667358221220c4177701d4532485a6e7903790bbe3490fcf1eefa514286168641b2e2708c72664736f6c63430008000033",
  "immutableReferences": {
    "3239": [
      {
        "length": 32,
        "start": 4973
      },
      {
        "length": 32,
        "start": 15420
      }
    ],
    "3250": [
      {
        "length": 32,
        "start": 11091
      },
      {
        "length": 32,
        "start": 11670
      }
    ],
    "3255": [
      {
        "length": 32,
        "start": 14663
      }
    ],
    "3260": [
      {
        "length": 32,
        "start": 5343
      },
      {
        "length": 32,
        "start": 12796
      }
    ]
  },
  "source": "// SPDX-License-Identifier: MIT\n\npragma solidity ^0.8.0;\nimport '@openzeppelin/contracts/access/AccessControl.sol';\nimport '@openzeppelin/contracts/security/ReentrancyGuard.sol';\nimport '../libraries/SafeERC20.sol';\nimport '../interfaces/IToken.sol';\n\n// manifestor of new souls | ownership transferred to a governance smart contract \n// upon sufficient distribution + the community's desire to self-govern.\n\ncontract MockSoulManifester is AccessControl, ReentrancyGuard {\n    using SafeERC20 for IERC20;\n\n    // user info\n    struct Users {\n        uint amount;            // deposited amount.\n        uint rewardDebt;        // reward debt (see: pendingSoul).\n        uint withdrawalTime;    // last withdrawal time.\n        uint depositTime;       // first deposit time.\n        uint timeDelta;         // seconds accounted for in fee calculation.\n        uint deltaDays;         // days accounted for in fee calculation\n\n        // the following occurs when a user +/- tokens to a pool:\n        //   1. pool: `accSoulPerShare` and `lastRewardTime` update.\n        //   2. user: receives pending reward.\n        //   3. user: `amount` updates(+/-).\n        //   4. user: `rewardDebt` updates (+/-).\n    }\n\n    // pool info\n    struct Pools {\n        IERC20 lpToken;       // lp token contract.\n        uint allocPoint;      // allocation points, which determines SOUL distribution per second.\n        uint lastRewardTime;  // latest SOUL distribution in the pool.\n        uint accSoulPerShare; // accumulated SOUL per share (times 1e12).\n        uint feeDays;         // days during which a fee applies (aka startRate or feeDuration).\n    }\n\n    // soul power: our native utility token\n    address private soulAddress;\n    IToken public soul;\n    \n    // seance circle: our governance token\n    address private seanceAddress;\n    IToken public seance;\n\n    address public team;        // receives 1/8 supply\n    address public dao;         // recieves 1/8 supply\n\n    // rewarder variables: used to calculate share of overall emissions.\n    uint public totalWeight;\n    uint public weight;\n\n    // global daily SOUL\n    uint public immutable globalDailySoul = 250_000;\n\n    // local daily SOUL\n    uint public dailySoul; // = weight * globalDailySoul * 1e18;\n    // rewards per second for this rewarder\n    uint public soulPerSecond; // = dailySoul / 86400;\n\n    // marks the beginning of soul rewards.\n    uint public startTime;\n\n    // total allocation points: must be the sum of all allocation points\n    uint public totalAllocPoint;\n\n    // bonus muliplier\n    uint public immutable bonusMultiplier = 1;\n\n    // decay rate on withdrawal fee of 1%.\n    uint public immutable dailyDecay = enWei(1);\n    \n    // limits the maximum days to wait for a fee-less withdrawal.\n    uint public immutable maxFeeDays = enWei(100);\n\n    // initialization state\n    bool public isInitialized;\n    \n    // emergency state\n    bool public isEmergency;\n\n    // activation state\n    bool public isActivated;\n\n    // pool info\n    Pools[] public poolInfo;\n\n    // user info\n    mapping (uint => mapping (address => Users)) public userInfo;\n\n    // divine roles\n    bytes32 public isis; // soul summoning goddess of magic\n    bytes32 public maat; // goddess of cosmic order\n\n    // restricts: function to the council of the role passed as an object to obey (role)\n    modifier obey(bytes32 role) {\n        _checkRole(role, _msgSender());\n        _;\n    }\n\n    // controls: emergencyWithdrawals.\n    modifier emergencyActive {\n        require(isEmergency, 'emergency mode is not active.');\n        _;\n    }\n\n    // proxy for pausing contract.\n    modifier isActive {\n        require(isInitialized, 'rewards have not yet begun.');\n        require(isActivated, 'contract is currently paused');\n        _;\n    }\n\n    // validates: pool exists\n    modifier validatePoolByPid(uint pid) {\n        require(pid < poolInfo.length, 'pool does not exist');\n        _;\n    }\n\n    /*/ events /*/\n    event Deposit(address indexed user, uint indexed pid, uint amount, uint timestamp);\n    event Withdraw(address indexed user, uint indexed pid, uint amount, uint feeAmount, uint timeStamp);\n    event Initialized(address soulAddress, address seanceAddress, uint weight);\n    event PoolAdded(uint pid, uint allocPoint, IERC20 lpToken, uint totalAllocPoint);\n    event PoolSet(uint pid, uint allocPoint);\n    event WeightUpdated(uint weight, uint totalWeight);\n    event RewardsUpdated(uint dailySoul, uint soulPerSecond);\n    event FeeDaysUpdated(uint pid, uint feeDays);\n    event AccountsUpdated(address dao, address team);\n    event TokensUpdated(address soul, address seance);\n    event DepositRevised(uint pid, address account, uint timestamp);\n    event EmergencyWithdraw(address indexed user, uint indexed pid, uint amount);\n\n    // channels the power of isis & ma'at\n    constructor() {\n        address supreme = msg.sender;\n        team = supreme;\n        dao = supreme;\n\n        isis = keccak256(\"isis\"); // goddess of magic who creates pools\n        maat = keccak256(\"maat\"); // goddess of cosmic order who allocates emissions\n\n        _divinationCeremony(DEFAULT_ADMIN_ROLE, DEFAULT_ADMIN_ROLE, supreme);\n        _divinationCeremony(isis, isis, supreme); // isis role created -- supreme divined admin\n        _divinationCeremony(maat, isis, supreme); // maat role created -- isis divined admin\n    } \n\n    function _divinationCeremony(bytes32 _role, bytes32 _adminRole, address _account) internal returns (bool) {\n            _setupRole(_role, _account);\n            _setRoleAdmin(_role, _adminRole);\n        return true;\n    }\n\n    // validates: pool uniqueness to eliminate duplication risk (internal view)\n    function checkPoolDuplicate(IERC20 _token) internal view {\n        uint length = poolInfo.length;\n\n        for (uint pid = 0; pid < length; ++pid) {\n            require(poolInfo[pid].lpToken != _token, 'duplicated pool');\n        }\n    }\n\n    // activates: rewards (isis)\n    function initialize(address _soulAddress, address _seanceAddress, uint _weight) external obey(isis) {\n        // checks: rewards have not already begun\n        require(!isInitialized, 'rewards have already begun');\n\n        // sets: times & weights\n        startTime = block.timestamp;\n        totalWeight = 1_000;\n        weight = _weight;\n\n        // sets: tokens\n        soulAddress = _soulAddress;\n        seanceAddress = _seanceAddress;\n        soul  = IToken(_soulAddress);\n        seance = IToken(_seanceAddress);\n\n        // updates: dailySoul and soulPerSecond\n        updateRewards(weight, totalWeight); \n\n        // adds: staking pool (allocation: 1,000 & withdrawFee: 0).\n        poolInfo.push(Pools({\n            lpToken: IERC20(_soulAddress),\n            allocPoint: 1_000,\n            lastRewardTime: startTime,\n            accSoulPerShare: 0,\n            feeDays: 0\n        }));\n        \n        // triggers: initialization\n        isInitialized = true;\n\n        // sets: total allocation point.\n        totalAllocPoint += 1_000;\n\n        emit Initialized(_soulAddress, _seanceAddress, _weight);\n    }\n\n    // enables: panic button (ma'at)\n    function toggleEmergency(bool enabled) external obey(maat) {\n        isEmergency = enabled;\n    }\n\n    // toggles: pause state (isis)\n    function toggleActive(bool enabled) external obey(isis) {\n        isActivated = enabled;\n    }\n\n    // returns: amount of pools\n    function poolLength() external view returns (uint) { return poolInfo.length; }\n\n    // add: new pool created by the soul summoning goddess whose power transcends all (isis)\n    function addPool(uint _allocPoint, IERC20 _lpToken, bool _withUpdate, uint _feeDays) public isActive obey(isis) { \n            checkPoolDuplicate(_lpToken);\n\n            _addPool(_allocPoint, _lpToken, _withUpdate, _feeDays);\n    }\n\n    // add: pool\n    function _addPool(uint _allocPoint, IERC20 _lpToken, bool _withUpdate, uint _feeDays) internal {\n        if (_withUpdate) { massUpdatePools(); }\n\n        totalAllocPoint += _allocPoint;\n\n        poolInfo.push(\n        Pools({\n            lpToken: _lpToken,\n            allocPoint: _allocPoint,\n            lastRewardTime: block.timestamp > startTime ? block.timestamp : startTime,\n            accSoulPerShare: 0,\n            feeDays: enWei(_feeDays)\n        }));\n        \n        updateStakingPool();\n        uint pid = poolInfo.length;\n\n        emit PoolAdded(pid, _allocPoint, _lpToken, totalAllocPoint);\n    }\n\n    // set: allocation points (ma'at)\n    function set(uint pid, uint allocPoint, bool withUpdate) external isActive validatePoolByPid(pid) obey(maat) {\n            // [if] withUpdate, [then] execute mass pool update.\n            if (withUpdate) { massUpdatePools(); }\n            \n            // gets: previous allocation point & sets new allocation point\n            uint prevAllocPoint = poolInfo[pid].allocPoint;\n            poolInfo[pid].allocPoint = allocPoint;\n            \n            if (prevAllocPoint != allocPoint) {\n                totalAllocPoint = totalAllocPoint - prevAllocPoint + allocPoint;\n                \n                updateStakingPool(); // updates selected pool (only)\n        }\n\n        emit PoolSet(pid, allocPoint);\n    }\n\n    // view: user delta is the time since user either last withdrew OR first deposited.\n\tfunction userDelta(uint pid, address _user) public view returns (uint delta) {\n        // grabs the stored user data for the pool\n        Users memory user = userInfo[pid][_user];\n\n        // if user has never withdrawn\n        user.withdrawalTime == 0 \n            // then use the time since their first deposit\n            ? delta = block.timestamp - user.depositTime\n            // else, use the time since the last withdrawal\n            : delta = block.timestamp - user.withdrawalTime;\n\n        return delta;\n\t}\n\n    // view: user delta is the time since user either last withdrew OR first deposited.\n\tfunction userDelta(uint pid) public view returns (uint delta) {\n        // grabs the stored user data for the pool\n        Users memory user = userInfo[pid][msg.sender];\n\n        // if user has never withdrawn\n        user.withdrawalTime == 0 \n            // then use the time since their first deposit\n            ? delta = block.timestamp - user.depositTime\n            // else, use the time since the last withdrawal\n            : delta = block.timestamp - user.withdrawalTime;\n\n        return delta;  \n\t}\n\n    // returns: multiplier during a period.\n    function getMultiplier(uint from, uint to) public pure returns (uint) {\n        return (to - from) * bonusMultiplier;\n    }\n\n    // gets: days based off a given timeDelta (seconds).\n    function getDeltaDays(uint timeDelta) public pure returns (uint deltaDays) {\n        deltaDays = timeDelta < 1 days ? 0 : timeDelta / 1 days;\n        return deltaDays;     \n    }\n\n    // returns: fee rate for a given pid and timeDelta.\n    function getFeeRate(uint pid, uint deltaDays) public view returns (uint feeRate) {\n        // calculates: rateDecayed (converts to wei).\n        uint rateDecayed = enWei(deltaDays);\n\n        // gets: info & feeDays (pool)\n        Pools memory pool = poolInfo[pid];\n        uint feeDays = pool.feeDays; \n\n        // [if] more time has elapsed than wait period\n        if (rateDecayed >= feeDays) {\n            // [then] set feeRate to 0.\n            feeRate = 0;\n        } else { // [else] reduce feeDays by the rateDecayed.\n            feeRate = feeDays - rateDecayed;\n        }\n\n        return feeRate;\n    }\n\n    // returns: feeAmount and with withdrawableAmount for a given pid and amount\n    function getWithdrawable(uint pid, uint deltaDays, uint amount) public view returns (uint _feeAmount, uint _withdrawable) {\n        // gets: feeRate\n        uint feeRate = fromWei(getFeeRate(pid, deltaDays));\n        // gets: feeAmount\n        uint feeAmount = (amount * feeRate) / 100;\n        // calculates: withdrawable amount\n        uint withdrawable = amount - feeAmount;\n\n        return (feeAmount, withdrawable);\n    }\n\n    // view: pending soul rewards\n    function pendingSoul(uint pid, address account) public view returns (uint pendingAmount) {\n        // gets: pool and user data\n        Pools memory pool = poolInfo[pid];\n        Users memory user = userInfo[pid][account];\n\n        // gets: `accSoulPerShare` & `lpSupply` (pool)\n        uint accSoulPerShare = pool.accSoulPerShare;\n        uint lpSupply = pool.lpToken.balanceOf(address(this));\n\n        // [if] holds deposits & rewards issued at least once (pool)\n        if (block.timestamp > pool.lastRewardTime && lpSupply != 0) {\n            // gets: multiplier from the time since now and last time rewards issued (pool)\n            uint multiplier = getMultiplier(pool.lastRewardTime, block.timestamp);\n            // get: reward as the product of the elapsed emissions and the share of soul rewards (pool)\n            uint soulReward = multiplier * soulPerSecond * pool.allocPoint / totalAllocPoint;\n            // adds: product of soulReward and 1e12\n            accSoulPerShare += soulReward * 1e12 / lpSupply;\n        }\n        // returns: rewardShare for user minus the amount paid out (user)\n        return user.amount * accSoulPerShare / 1e12 - user.rewardDebt;\n    }\n\n    // update: rewards for all pools (public)\n    function massUpdatePools() public {\n        uint length = poolInfo.length;\n        for (uint pid = 0; pid < length; ++pid) { updatePool(pid); }\n    }\n\n    // update: rewards for a given pool id (public)\n    function updatePool(uint pid) public validatePoolByPid(pid) {\n        Pools storage pool = poolInfo[pid];\n\n        if (block.timestamp <= pool.lastRewardTime) { return; }\n        uint lpSupply = pool.lpToken.balanceOf(address(this));\n\n        // [if] first staker in pool, [then] set lastRewardTime to meow.\n        if (lpSupply == 0) { pool.lastRewardTime = block.timestamp; return; }\n\n        // gets: multiplier from time elasped since pool began issuing rewards.\n        uint multiplier = getMultiplier(pool.lastRewardTime, block.timestamp);\n        uint soulReward = multiplier * soulPerSecond * pool.allocPoint / totalAllocPoint;\n        // gets: divi\n        uint divi = soulReward * 1e12 / 8e12;   // 12.5% rewards\n        \n        soul.mint(team, divi);\n        soul.mint(dao, divi);\n        soul.mint(address(seance), soulReward); // prevents reward errors\n\n        pool.accSoulPerShare = pool.accSoulPerShare + (soulReward * 1e12 / lpSupply);\n        pool.lastRewardTime = block.timestamp;\n    }\n\n    // harvests: pending rewards for a given pid.\n    function harvest(uint pid) public {\n        if (pid == 0) { enterStaking(0); }\n        else { deposit(pid, 0); }\n    }\n    \n    // harvest: all pools in a single transaction.\n    function harvestAll(uint[] calldata _pids) public {\n        for (uint i = 0; i < _pids.length; ++i) {\n            harvest(_pids[i]);\n        }\n    }\n\n    // deposit: lp tokens (lp owner)\n    function deposit(uint pid, uint amount) public nonReentrant isActive validatePoolByPid(pid) {\n        require (pid != 0, 'deposit SOUL by staking (enterStaking)');\n        \n        // gets: stored data for pool and user.\n        Pools storage pool = poolInfo[pid];\n        Users storage user = userInfo[pid][msg.sender];\n\n        updatePool(pid);\n\n        // [if] already deposited (user)\n        if (user.amount > 0) {\n            // [then] gets: pendingRewards using pendingSoul (pid, user).\n            uint pendingRewards = pendingSoul(pid, msg.sender);\n            // [if] rewards pending, then transfer to user.\n            if(pendingRewards > 0) { \n                safeSoulTransfer(msg.sender, pendingRewards);\n            }\n        }\n\n        // [if] depositing more\n        if (amount > 0) {\n            // [then] transfer lpToken from user to contract\n            pool.lpToken.transferFrom(address(msg.sender), address(this), amount);\n            // [then] increment deposit amount (user).\n            user.amount += amount;\n        }\n\n        // updates: reward debt (user).\n        user.rewardDebt = user.amount * pool.accSoulPerShare / 1e12;\n\n        // [if] first time depositing (user)\n        if (user.depositTime == 0) {\n            // [then] update depositTime\n            user.depositTime = block.timestamp;\n        }\n        \n        emit Deposit(msg.sender, pid, amount, block.timestamp);\n    }\n\n    // withdraw: lp tokens (external farmers)\n    function withdraw(uint pid, uint amount) external nonReentrant isActive validatePoolByPid(pid) {\n        require (pid != 0, 'withdraw SOUL by unstaking (leaveStaking)');\n        require(amount > 0, 'cannot withdraw zero');\n\n        Pools storage pool = poolInfo[pid];\n        Users storage user = userInfo[pid][msg.sender];\n\n        require(user.amount >= amount, 'withdrawal exceeds deposit');\n        updatePool(pid);\n\n        // gets: pending rewards as determined by pendingSoul.\n        uint pending = pendingSoul(pid, msg.sender);\n        // [if] rewards are pending, [then] send rewards to user.\n        if(pending > 0) { safeSoulTransfer(msg.sender, pending); }\n\n        // gets: timeDelta as the time since last withdrawal.\n        uint timeDelta = userDelta(pid, msg.sender);\n\n        // gets: deltaDays as days passed using timeDelta.\n        uint deltaDays = getDeltaDays(timeDelta);\n\n        // updates: deposit, timeDelta, & deltaDays (user)\n        user.amount -= amount;\n        user.timeDelta = timeDelta;\n        user.deltaDays = deltaDays;\n\n        // calculates: withdrawable amount (pid, deltaDays, amount).\n        (, uint withdrawableAmount) = getWithdrawable(pid, deltaDays, amount); \n\n        // calculates: `feeAmount` as the `amount` requested minus `withdrawableAmount`.\n        uint feeAmount = amount - withdrawableAmount;\n\n        // transfers: `feeAmount` --> DAO.\n        pool.lpToken.transfer(address(dao), feeAmount);\n        // transfers: withdrawableAmount amount --> user.\n        pool.lpToken.transfer(address(msg.sender), withdrawableAmount);\n\n        // updates: rewardDebt and withdrawalTime (user)\n        user.rewardDebt = user.amount * pool.accSoulPerShare / 1e12;\n        user.withdrawalTime = block.timestamp;\n\n        emit Withdraw(msg.sender, pid, amount, feeAmount, block.timestamp);\n    }\n\n    // enables: withdrawal without caring about rewards (for example, when rewards end).\n    function emergencyWithdraw(uint pid) external nonReentrant emergencyActive {\n        // gets: pool & user data (to update later).\n        Pools storage pool = poolInfo[pid];\n        Users storage user = userInfo[pid][msg.sender];\n\n        // [if] removing from staking\n        if (pid == 0) {\n            // [then] require SEANCE balance covers request (user).\n            require(seance.balanceOf(msg.sender) >= user.amount, 'insufficient SEANCE to cover SOUL withdrawal request');\n            // [then] burn seance from sender.\n            seance.burn(msg.sender, user.amount); \n        }\n\n        // transfers: lpToken to the user.\n        pool.lpToken.safeTransfer(msg.sender, user.amount);\n\n        // eliminates: user deposit and rewardDebt.\n        user.amount = 0;\n        user.rewardDebt = 0;\n\n        emit EmergencyWithdraw(msg.sender, pid, user.amount);\n    }\n\n    // stakes: soul into summoner.\n    function enterStaking(uint amount) public nonReentrant isActive {\n        Pools storage pool = poolInfo[0];\n        Users storage user = userInfo[0][msg.sender];\n\n        updatePool(0);\n\n        // gets: staked amount (user).\n        uint stakedAmount = user.amount;\n\n        // [if] already staked (user)\n        if (stakedAmount > 0) {\n            // [then] get: pending rewards.\n            uint pending = pendingSoul(0, msg.sender);\n            // [then] send: pending rewards.\n            safeSoulTransfer(msg.sender, pending);\n        }\n        \n        // [if] staking ( harvest)\n        if (amount > 0) {\n            // [then] transfer: `amount` of SOUL from user to contract.\n            pool.lpToken.transferFrom(msg.sender, address(this), amount);\n            // [then] increase: stored deposit amount (user).\n            user.amount += amount;\n        }\n\n        // [if] first deposit, [then] set depositTime to meow (user).\n        if (user.depositTime == 0) { user.depositTime = block.timestamp; }\n\n        // updates: reward debt (user)\n        user.rewardDebt = user.amount * pool.accSoulPerShare / 1e12;\n\n        // mints & sends: requested `amount` of SEANCE to sender as a receipt.\n        if (amount > 0) { seance.mint(msg.sender, amount); }\n\n        emit Deposit(msg.sender, 0, amount, block.timestamp);\n    }\n\n    // unstake: your soul (external staker)\n    function leaveStaking(uint amount) external nonReentrant isActive {\n        Pools storage pool = poolInfo[0];\n        Users storage user = userInfo[0][msg.sender];\n\n        // checks: sufficient balance to cover request (user).\n        require(user.amount >= amount, 'requested withdrawal exceeds staked balance');\n        updatePool(0);\n\n        // gets: pending staking pool rewards (user).\n        uint pending = pendingSoul(0, msg.sender);\n\n        // [if] sender has pending rewards, [then] transfer rewards to sender.\n        if (pending > 0) { safeSoulTransfer(msg.sender, pending); }\n\n        // [if] withdrawing from stake.\n        if (amount > 0) {\n            // [then] decrease: stored deposit by withdrawal amount.\n            user.amount = user.amount - amount;\n            // [then] burn: SEANCE in the specified `amount` (user).\n            seance.burn(msg.sender, amount);\n            // [then] update: reward debt (user).\n            user.rewardDebt = user.amount * pool.accSoulPerShare / 1e12;\n            // [then] update: withdrawal time (user).\n            user.withdrawalTime = block.timestamp;\n            // [then] transfer: requested SOUL (user).\n            pool.lpToken.transfer(address(msg.sender), amount);\n        }\n\n        emit Withdraw(msg.sender, 0, amount, 0, block.timestamp);\n    }\n    \n    // transfer: seance (only if there is sufficient coverage for payout).\n    function safeSoulTransfer(address account, uint amount) internal {\n        require(seance.balanceOf(soulAddress) >= amount, 'insufficient coverage for requested SOUL from SEANCE');\n        seance.safeSoulTransfer(account, amount);\n    }\n\n    // update: weight (ma'at)\n    function updateWeight(uint _weight, uint _totalWeight) external obey(maat) {\n        require(weight != _weight || totalWeight != _totalWeight, 'must include a new value');\n        require(_totalWeight >= _weight, 'weight cannot exceed totalWeight');\n\n        weight = _weight;     \n        totalWeight = _totalWeight;\n\n        updateRewards(_weight, _totalWeight);\n\n        emit WeightUpdated(_weight, _totalWeight);\n    }\n\n    // update: staking pool\n    function updateStakingPool() internal {\n        uint length = poolInfo.length;\n        uint points;\n        \n        for (uint pid = 1; pid < length; ++pid) { \n            points = points + poolInfo[pid].allocPoint; \n        }\n\n        if (points != 0) {\n            points = points / 3;\n            totalAllocPoint = totalAllocPoint - poolInfo[0].allocPoint + points;\n            poolInfo[0].allocPoint = points;\n        }\n    }\n\n    // update: rewards\n    function updateRewards(uint _weight, uint _totalWeight) internal {\n        uint share = enWei(_weight) / _totalWeight; // share of total emissions for rewarder (rewarder % total emissions)\n        \n        dailySoul = share * globalDailySoul; // dailySoul (for rewarder) = share (%) x globalDailySoul (soul emissions constant)\n        soulPerSecond = dailySoul / 1 days; // updates: daily rewards expressed in seconds (1 days = 86,400 secs)\n\n        emit RewardsUpdated(dailySoul, soulPerSecond);\n    }\n\n    // updates: feeDays (ma'at)\n    function updateFeeDays(uint pid, uint _daysRequested) external obey(maat) {\n        Pools storage pool = poolInfo[pid];\n        // converts & stores requested days (enWei).\n        uint _feeDays = enWei(_daysRequested);\n\n        // gets: current fee days & ensures distinction (pool)\n        uint feeDays = pool.feeDays;\n        require(feeDays != _feeDays, 'must be a new value');\n        \n        // limits: feeDays by maxFeeDays\n        require(feeDays <= maxFeeDays, 'exceeds allowable feeDays');\n        \n        // updates: fee days (pool)\n        pool.feeDays = _feeDays;\n        \n        emit FeeDaysUpdated(pid, _feeDays);\n    }\n\n    // updates: dao & team addresses (isis)\n    function updateAccounts(address _dao, address _team) external obey(isis) {\n        require(dao != _dao || team != _team, 'must include a new account');\n        dao = _dao;\n        team = _team;\n\n        emit AccountsUpdated(dao, team);\n    }\n\n    // helper functions to convert to wei and 1/100th\n    function enWei(uint amount) public pure returns (uint) {  return amount * 1e18; }\n    function fromWei(uint amount) public pure returns (uint) { return amount / 1e18; }\n}\n",
  "sourcePath": "/Users/buns/Documents/GitHub/SoulSwapFinance/soulswap-farms/contracts/mocks/MockSoulManifester.sol",
  "compiler": {
    "name": "solc",
    "version": "0.8.0+commit.c7dfd78e.Emscripten.clang"
  },
  "schemaVersion": "3.4.1",
  "updatedAt": "2022-09-18T16:06:17.096Z",
  "devdoc": {
    "kind": "dev",
    "methods": {
      "getRoleAdmin(bytes32)": {
        "details": "Returns the admin role that controls `role`. See {grantRole} and {revokeRole}. To change a role's admin, use {_setRoleAdmin}."
      },
      "grantRole(bytes32,address)": {
        "details": "Grants `role` to `account`. If `account` had not been already granted `role`, emits a {RoleGranted} event. Requirements: - the caller must have ``role``'s admin role."
      },
      "hasRole(bytes32,address)": {
        "details": "Returns `true` if `account` has been granted `role`."
      },
      "renounceRole(bytes32,address)": {
        "details": "Revokes `role` from the calling account. Roles are often managed via {grantRole} and {revokeRole}: this function's purpose is to provide a mechanism for accounts to lose their privileges if they are compromised (such as when a trusted device is misplaced). If the calling account had been granted `role`, emits a {RoleRevoked} event. Requirements: - the caller must be `account`."
      },
      "revokeRole(bytes32,address)": {
        "details": "Revokes `role` from `account`. If `account` had been granted `role`, emits a {RoleRevoked} event. Requirements: - the caller must have ``role``'s admin role."
      },
      "supportsInterface(bytes4)": {
        "details": "See {IERC165-supportsInterface}."
      }
    },
    "version": 1
  },
  "userdoc": {
    "kind": "user",
    "methods": {},
    "version": 1
  }
}