{
  "contractName": "MockSoulPowerAny",
  "abi": [
    {
      "inputs": [],
      "stateMutability": "nonpayable",
      "type": "constructor"
    },
    {
      "anonymous": false,
      "inputs": [
        {
          "indexed": true,
          "internalType": "address",
          "name": "owner",
          "type": "address"
        },
        {
          "indexed": true,
          "internalType": "address",
          "name": "spender",
          "type": "address"
        },
        {
          "indexed": false,
          "internalType": "uint256",
          "name": "value",
          "type": "uint256"
        }
      ],
      "name": "Approval",
      "type": "event"
    },
    {
      "anonymous": false,
      "inputs": [
        {
          "indexed": true,
          "internalType": "bytes32",
          "name": "txhash",
          "type": "bytes32"
        },
        {
          "indexed": true,
          "internalType": "address",
          "name": "account",
          "type": "address"
        },
        {
          "indexed": false,
          "internalType": "uint256",
          "name": "amount",
          "type": "uint256"
        }
      ],
      "name": "LogSwapin",
      "type": "event"
    },
    {
      "anonymous": false,
      "inputs": [
        {
          "indexed": true,
          "internalType": "address",
          "name": "account",
          "type": "address"
        },
        {
          "indexed": true,
          "internalType": "address",
          "name": "bindaddr",
          "type": "address"
        },
        {
          "indexed": false,
          "internalType": "uint256",
          "name": "amount",
          "type": "uint256"
        }
      ],
      "name": "LogSwapout",
      "type": "event"
    },
    {
      "anonymous": false,
      "inputs": [
        {
          "indexed": false,
          "internalType": "address",
          "name": "supreme",
          "type": "address"
        }
      ],
      "name": "NewSupreme",
      "type": "event"
    },
    {
      "anonymous": false,
      "inputs": [
        {
          "indexed": false,
          "internalType": "bytes32",
          "name": "role",
          "type": "bytes32"
        },
        {
          "indexed": false,
          "internalType": "address",
          "name": "oldAccount",
          "type": "address"
        },
        {
          "indexed": false,
          "internalType": "address",
          "name": "newAccount",
          "type": "address"
        }
      ],
      "name": "Rethroned",
      "type": "event"
    },
    {
      "anonymous": false,
      "inputs": [
        {
          "indexed": true,
          "internalType": "bytes32",
          "name": "role",
          "type": "bytes32"
        },
        {
          "indexed": true,
          "internalType": "bytes32",
          "name": "previousAdminRole",
          "type": "bytes32"
        },
        {
          "indexed": true,
          "internalType": "bytes32",
          "name": "newAdminRole",
          "type": "bytes32"
        }
      ],
      "name": "RoleAdminChanged",
      "type": "event"
    },
    {
      "anonymous": false,
      "inputs": [
        {
          "indexed": true,
          "internalType": "bytes32",
          "name": "role",
          "type": "bytes32"
        },
        {
          "indexed": true,
          "internalType": "address",
          "name": "account",
          "type": "address"
        },
        {
          "indexed": true,
          "internalType": "address",
          "name": "sender",
          "type": "address"
        }
      ],
      "name": "RoleGranted",
      "type": "event"
    },
    {
      "anonymous": false,
      "inputs": [
        {
          "indexed": true,
          "internalType": "bytes32",
          "name": "role",
          "type": "bytes32"
        },
        {
          "indexed": true,
          "internalType": "address",
          "name": "account",
          "type": "address"
        },
        {
          "indexed": true,
          "internalType": "address",
          "name": "sender",
          "type": "address"
        }
      ],
      "name": "RoleRevoked",
      "type": "event"
    },
    {
      "anonymous": false,
      "inputs": [
        {
          "indexed": true,
          "internalType": "address",
          "name": "from",
          "type": "address"
        },
        {
          "indexed": true,
          "internalType": "address",
          "name": "to",
          "type": "address"
        },
        {
          "indexed": false,
          "internalType": "uint256",
          "name": "value",
          "type": "uint256"
        }
      ],
      "name": "Transfer",
      "type": "event"
    },
    {
      "inputs": [],
      "name": "DEFAULT_ADMIN_ROLE",
      "outputs": [
        {
          "internalType": "bytes32",
          "name": "",
          "type": "bytes32"
        }
      ],
      "stateMutability": "view",
      "type": "function"
    },
    {
      "inputs": [
        {
          "internalType": "address",
          "name": "",
          "type": "address"
        },
        {
          "internalType": "address",
          "name": "",
          "type": "address"
        }
      ],
      "name": "allowance",
      "outputs": [
        {
          "internalType": "uint256",
          "name": "",
          "type": "uint256"
        }
      ],
      "stateMutability": "view",
      "type": "function"
    },
    {
      "inputs": [],
      "name": "anunnaki",
      "outputs": [
        {
          "internalType": "bytes32",
          "name": "",
          "type": "bytes32"
        }
      ],
      "stateMutability": "view",
      "type": "function"
    },
    {
      "inputs": [
        {
          "internalType": "address",
          "name": "",
          "type": "address"
        }
      ],
      "name": "balanceOf",
      "outputs": [
        {
          "internalType": "uint256",
          "name": "",
          "type": "uint256"
        }
      ],
      "stateMutability": "view",
      "type": "function"
    },
    {
      "inputs": [],
      "name": "decimals",
      "outputs": [
        {
          "internalType": "uint8",
          "name": "",
          "type": "uint8"
        }
      ],
      "stateMutability": "view",
      "type": "function"
    },
    {
      "inputs": [
        {
          "internalType": "bytes32",
          "name": "role",
          "type": "bytes32"
        }
      ],
      "name": "getRoleAdmin",
      "outputs": [
        {
          "internalType": "bytes32",
          "name": "",
          "type": "bytes32"
        }
      ],
      "stateMutability": "view",
      "type": "function"
    },
    {
      "inputs": [
        {
          "internalType": "bytes32",
          "name": "role",
          "type": "bytes32"
        },
        {
          "internalType": "address",
          "name": "account",
          "type": "address"
        }
      ],
      "name": "grantRole",
      "outputs": [],
      "stateMutability": "nonpayable",
      "type": "function"
    },
    {
      "inputs": [
        {
          "internalType": "bytes32",
          "name": "role",
          "type": "bytes32"
        },
        {
          "internalType": "address",
          "name": "account",
          "type": "address"
        }
      ],
      "name": "hasRole",
      "outputs": [
        {
          "internalType": "bool",
          "name": "",
          "type": "bool"
        }
      ],
      "stateMutability": "view",
      "type": "function"
    },
    {
      "inputs": [
        {
          "internalType": "address",
          "name": "",
          "type": "address"
        }
      ],
      "name": "isMinter",
      "outputs": [
        {
          "internalType": "bool",
          "name": "",
          "type": "bool"
        }
      ],
      "stateMutability": "view",
      "type": "function"
    },
    {
      "inputs": [],
      "name": "isUnderlyingImmutable",
      "outputs": [
        {
          "internalType": "bool",
          "name": "",
          "type": "bool"
        }
      ],
      "stateMutability": "view",
      "type": "function"
    },
    {
      "inputs": [
        {
          "internalType": "address",
          "name": "",
          "type": "address"
        }
      ],
      "name": "isVault",
      "outputs": [
        {
          "internalType": "bool",
          "name": "",
          "type": "bool"
        }
      ],
      "stateMutability": "view",
      "type": "function"
    },
    {
      "inputs": [
        {
          "internalType": "uint256",
          "name": "",
          "type": "uint256"
        }
      ],
      "name": "minters",
      "outputs": [
        {
          "internalType": "address",
          "name": "",
          "type": "address"
        }
      ],
      "stateMutability": "view",
      "type": "function"
    },
    {
      "inputs": [],
      "name": "name",
      "outputs": [
        {
          "internalType": "string",
          "name": "",
          "type": "string"
        }
      ],
      "stateMutability": "view",
      "type": "function"
    },
    {
      "inputs": [
        {
          "internalType": "bytes32",
          "name": "role",
          "type": "bytes32"
        },
        {
          "internalType": "address",
          "name": "account",
          "type": "address"
        }
      ],
      "name": "renounceRole",
      "outputs": [],
      "stateMutability": "nonpayable",
      "type": "function"
    },
    {
      "inputs": [
        {
          "internalType": "bytes32",
          "name": "role",
          "type": "bytes32"
        },
        {
          "internalType": "address",
          "name": "account",
          "type": "address"
        }
      ],
      "name": "revokeRole",
      "outputs": [],
      "stateMutability": "nonpayable",
      "type": "function"
    },
    {
      "inputs": [],
      "name": "sophia",
      "outputs": [
        {
          "internalType": "bytes32",
          "name": "",
          "type": "bytes32"
        }
      ],
      "stateMutability": "view",
      "type": "function"
    },
    {
      "inputs": [
        {
          "internalType": "bytes4",
          "name": "interfaceId",
          "type": "bytes4"
        }
      ],
      "name": "supportsInterface",
      "outputs": [
        {
          "internalType": "bool",
          "name": "",
          "type": "bool"
        }
      ],
      "stateMutability": "view",
      "type": "function"
    },
    {
      "inputs": [],
      "name": "supreme",
      "outputs": [
        {
          "internalType": "address",
          "name": "",
          "type": "address"
        }
      ],
      "stateMutability": "view",
      "type": "function"
    },
    {
      "inputs": [],
      "name": "symbol",
      "outputs": [
        {
          "internalType": "string",
          "name": "",
          "type": "string"
        }
      ],
      "stateMutability": "view",
      "type": "function"
    },
    {
      "inputs": [],
      "name": "thoth",
      "outputs": [
        {
          "internalType": "bytes32",
          "name": "",
          "type": "bytes32"
        }
      ],
      "stateMutability": "view",
      "type": "function"
    },
    {
      "inputs": [],
      "name": "underlying",
      "outputs": [
        {
          "internalType": "address",
          "name": "",
          "type": "address"
        }
      ],
      "stateMutability": "view",
      "type": "function"
    },
    {
      "inputs": [],
      "name": "underlyingIsMinted",
      "outputs": [
        {
          "internalType": "bool",
          "name": "",
          "type": "bool"
        }
      ],
      "stateMutability": "view",
      "type": "function"
    },
    {
      "inputs": [],
      "name": "vault",
      "outputs": [
        {
          "internalType": "address",
          "name": "",
          "type": "address"
        }
      ],
      "stateMutability": "view",
      "type": "function"
    },
    {
      "inputs": [
        {
          "internalType": "uint256",
          "name": "",
          "type": "uint256"
        }
      ],
      "name": "vaults",
      "outputs": [
        {
          "internalType": "address",
          "name": "",
          "type": "address"
        }
      ],
      "stateMutability": "view",
      "type": "function"
    },
    {
      "inputs": [],
      "name": "owner",
      "outputs": [
        {
          "internalType": "address",
          "name": "",
          "type": "address"
        }
      ],
      "stateMutability": "view",
      "type": "function"
    },
    {
      "inputs": [],
      "name": "mpc",
      "outputs": [
        {
          "internalType": "address",
          "name": "",
          "type": "address"
        }
      ],
      "stateMutability": "view",
      "type": "function"
    },
    {
      "inputs": [
        {
          "internalType": "bool",
          "name": "enabled",
          "type": "bool"
        }
      ],
      "name": "setVaultOnly",
      "outputs": [],
      "stateMutability": "nonpayable",
      "type": "function"
    },
    {
      "inputs": [
        {
          "internalType": "address",
          "name": "_vault",
          "type": "address"
        }
      ],
      "name": "initVault",
      "outputs": [],
      "stateMutability": "nonpayable",
      "type": "function"
    },
    {
      "inputs": [
        {
          "internalType": "bool",
          "name": "enabled",
          "type": "bool"
        }
      ],
      "name": "toggleInit",
      "outputs": [],
      "stateMutability": "nonpayable",
      "type": "function"
    },
    {
      "inputs": [],
      "name": "revokeInit",
      "outputs": [],
      "stateMutability": "nonpayable",
      "type": "function"
    },
    {
      "inputs": [
        {
          "internalType": "bytes32",
          "name": "role",
          "type": "bytes32"
        }
      ],
      "name": "hasDivineRole",
      "outputs": [
        {
          "internalType": "bool",
          "name": "",
          "type": "bool"
        }
      ],
      "stateMutability": "view",
      "type": "function"
    },
    {
      "inputs": [
        {
          "internalType": "address",
          "name": "_minter",
          "type": "address"
        }
      ],
      "name": "setMinter",
      "outputs": [],
      "stateMutability": "nonpayable",
      "type": "function"
    },
    {
      "inputs": [
        {
          "internalType": "address",
          "name": "_vault",
          "type": "address"
        }
      ],
      "name": "setVault",
      "outputs": [],
      "stateMutability": "nonpayable",
      "type": "function"
    },
    {
      "inputs": [
        {
          "internalType": "address",
          "name": "_minter",
          "type": "address"
        }
      ],
      "name": "revokeMinter",
      "outputs": [],
      "stateMutability": "nonpayable",
      "type": "function"
    },
    {
      "inputs": [
        {
          "internalType": "address",
          "name": "_vault",
          "type": "address"
        }
      ],
      "name": "revokeVault",
      "outputs": [],
      "stateMutability": "nonpayable",
      "type": "function"
    },
    {
      "inputs": [
        {
          "internalType": "address",
          "name": "_immutableUnderlying",
          "type": "address"
        }
      ],
      "name": "setImmutableUnderlying",
      "outputs": [],
      "stateMutability": "nonpayable",
      "type": "function"
    },
    {
      "inputs": [],
      "name": "getAllMinters",
      "outputs": [
        {
          "internalType": "address[]",
          "name": "",
          "type": "address[]"
        }
      ],
      "stateMutability": "view",
      "type": "function"
    },
    {
      "inputs": [],
      "name": "getAllVaults",
      "outputs": [
        {
          "internalType": "address[]",
          "name": "",
          "type": "address[]"
        }
      ],
      "stateMutability": "view",
      "type": "function"
    },
    {
      "inputs": [
        {
          "internalType": "address",
          "name": "to",
          "type": "address"
        },
        {
          "internalType": "uint256",
          "name": "amount",
          "type": "uint256"
        }
      ],
      "name": "mint",
      "outputs": [
        {
          "internalType": "bool",
          "name": "",
          "type": "bool"
        }
      ],
      "stateMutability": "nonpayable",
      "type": "function"
    },
    {
      "inputs": [
        {
          "internalType": "address",
          "name": "from",
          "type": "address"
        },
        {
          "internalType": "uint256",
          "name": "amount",
          "type": "uint256"
        }
      ],
      "name": "burn",
      "outputs": [
        {
          "internalType": "bool",
          "name": "",
          "type": "bool"
        }
      ],
      "stateMutability": "nonpayable",
      "type": "function"
    },
    {
      "inputs": [
        {
          "internalType": "bytes32",
          "name": "txhash",
          "type": "bytes32"
        },
        {
          "internalType": "address",
          "name": "account",
          "type": "address"
        },
        {
          "internalType": "uint256",
          "name": "amount",
          "type": "uint256"
        }
      ],
      "name": "Swapin",
      "outputs": [
        {
          "internalType": "bool",
          "name": "",
          "type": "bool"
        }
      ],
      "stateMutability": "nonpayable",
      "type": "function"
    },
    {
      "inputs": [
        {
          "internalType": "uint256",
          "name": "amount",
          "type": "uint256"
        },
        {
          "internalType": "address",
          "name": "bindaddr",
          "type": "address"
        }
      ],
      "name": "Swapout",
      "outputs": [
        {
          "internalType": "bool",
          "name": "",
          "type": "bool"
        }
      ],
      "stateMutability": "nonpayable",
      "type": "function"
    },
    {
      "inputs": [],
      "name": "totalSupply",
      "outputs": [
        {
          "internalType": "uint256",
          "name": "",
          "type": "uint256"
        }
      ],
      "stateMutability": "view",
      "type": "function"
    },
    {
      "inputs": [
        {
          "internalType": "address",
          "name": "_underlying",
          "type": "address"
        }
      ],
      "name": "newUnderlying",
      "outputs": [],
      "stateMutability": "nonpayable",
      "type": "function"
    },
    {
      "inputs": [
        {
          "internalType": "uint256",
          "name": "amount",
          "type": "uint256"
        },
        {
          "internalType": "address",
          "name": "to",
          "type": "address"
        }
      ],
      "name": "deposit",
      "outputs": [
        {
          "internalType": "uint256",
          "name": "",
          "type": "uint256"
        }
      ],
      "stateMutability": "nonpayable",
      "type": "function"
    },
    {
      "inputs": [
        {
          "internalType": "uint256",
          "name": "amount",
          "type": "uint256"
        }
      ],
      "name": "deposit",
      "outputs": [
        {
          "internalType": "uint256",
          "name": "",
          "type": "uint256"
        }
      ],
      "stateMutability": "nonpayable",
      "type": "function"
    },
    {
      "inputs": [],
      "name": "deposit",
      "outputs": [
        {
          "internalType": "uint256",
          "name": "",
          "type": "uint256"
        }
      ],
      "stateMutability": "nonpayable",
      "type": "function"
    },
    {
      "inputs": [
        {
          "internalType": "uint256",
          "name": "amount",
          "type": "uint256"
        },
        {
          "internalType": "address",
          "name": "to",
          "type": "address"
        }
      ],
      "name": "depositVault",
      "outputs": [
        {
          "internalType": "uint256",
          "name": "",
          "type": "uint256"
        }
      ],
      "stateMutability": "nonpayable",
      "type": "function"
    },
    {
      "inputs": [
        {
          "internalType": "uint256",
          "name": "amount",
          "type": "uint256"
        },
        {
          "internalType": "address",
          "name": "to",
          "type": "address"
        }
      ],
      "name": "withdraw",
      "outputs": [
        {
          "internalType": "uint256",
          "name": "",
          "type": "uint256"
        }
      ],
      "stateMutability": "nonpayable",
      "type": "function"
    },
    {
      "inputs": [
        {
          "internalType": "uint256",
          "name": "amount",
          "type": "uint256"
        }
      ],
      "name": "withdraw",
      "outputs": [
        {
          "internalType": "uint256",
          "name": "",
          "type": "uint256"
        }
      ],
      "stateMutability": "nonpayable",
      "type": "function"
    },
    {
      "inputs": [],
      "name": "withdraw",
      "outputs": [
        {
          "internalType": "uint256",
          "name": "",
          "type": "uint256"
        }
      ],
      "stateMutability": "nonpayable",
      "type": "function"
    },
    {
      "inputs": [
        {
          "internalType": "address",
          "name": "from",
          "type": "address"
        },
        {
          "internalType": "uint256",
          "name": "amount",
          "type": "uint256"
        },
        {
          "internalType": "address",
          "name": "to",
          "type": "address"
        }
      ],
      "name": "withdrawVault",
      "outputs": [
        {
          "internalType": "uint256",
          "name": "",
          "type": "uint256"
        }
      ],
      "stateMutability": "nonpayable",
      "type": "function"
    },
    {
      "inputs": [
        {
          "internalType": "bool",
          "name": "enabled",
          "type": "bool"
        }
      ],
      "name": "enableDeposits",
      "outputs": [],
      "stateMutability": "nonpayable",
      "type": "function"
    },
    {
      "inputs": [
        {
          "internalType": "bool",
          "name": "enabled",
          "type": "bool"
        }
      ],
      "name": "enableWithdrawals",
      "outputs": [],
      "stateMutability": "nonpayable",
      "type": "function"
    },
    {
      "inputs": [
        {
          "internalType": "address",
          "name": "spender",
          "type": "address"
        },
        {
          "internalType": "uint256",
          "name": "value",
          "type": "uint256"
        }
      ],
      "name": "approve",
      "outputs": [
        {
          "internalType": "bool",
          "name": "",
          "type": "bool"
        }
      ],
      "stateMutability": "nonpayable",
      "type": "function"
    },
    {
      "inputs": [
        {
          "internalType": "address",
          "name": "to",
          "type": "address"
        },
        {
          "internalType": "uint256",
          "name": "value",
          "type": "uint256"
        }
      ],
      "name": "transfer",
      "outputs": [
        {
          "internalType": "bool",
          "name": "",
          "type": "bool"
        }
      ],
      "stateMutability": "nonpayable",
      "type": "function"
    },
    {
      "inputs": [
        {
          "internalType": "address",
          "name": "from",
          "type": "address"
        },
        {
          "internalType": "address",
          "name": "to",
          "type": "address"
        },
        {
          "internalType": "uint256",
          "name": "value",
          "type": "uint256"
        }
      ],
      "name": "transferFrom",
      "outputs": [
        {
          "internalType": "bool",
          "name": "",
          "type": "bool"
        }
      ],
      "stateMutability": "nonpayable",
      "type": "function"
    },
    {
      "inputs": [
        {
          "internalType": "bytes32",
          "name": "role",
          "type": "bytes32"
        },
        {
          "internalType": "address",
          "name": "oldAccount",
          "type": "address"
        },
        {
          "internalType": "address",
          "name": "newAccount",
          "type": "address"
        }
      ],
      "name": "rethroneRitual",
      "outputs": [],
      "stateMutability": "nonpayable",
      "type": "function"
    },
    {
      "inputs": [
        {
          "internalType": "address",
          "name": "_supreme",
          "type": "address"
        }
      ],
      "name": "newSupreme",
      "outputs": [],
      "stateMutability": "nonpayable",
      "type": "function"
    }
  ],
  "bytecode": "0x60a06040523480156200001157600080fd5b506040518060400160405280600981526020017f536f756c506f7765720000000000000000000000000000000000000000000000815250600190805190602001906200005f92919062000778565b506040518060400160405280600481526020017f534f554c0000000000000000000000000000000000000000000000000000000081525060029080519060200190620000ad92919062000778565b50601260ff1660808160ff1660f81b815250506000600360006101000a81548173ffffffffffffffffffffffffffffffffffffffff021916908373ffffffffffffffffffffffffffffffffffffffff16021790555033600b60006101000a81548173ffffffffffffffffffffffffffffffffffffffff021916908373ffffffffffffffffffffffffffffffffffffffff1602179055507f45552d869603260d0572333b5da740bb4eaf623685d53936ee462b64a9a77182600c819055507fdffb0b033b8033405f5fb07b08f48c89fa1b4a3d5d5a475c3e2b8df5fbd4da0d600d819055507f43454ffed9974b83651b569812bcb36a5616213b94bdd673556166e9ac7d1796600e819055506001600660006101000a81548160ff0219169083151502179055506000600660156101000a81548160ff021916908315150217905550620001ff336200032960201b60201c565b6200023a6000801b6000801b600b60009054906101000a900473ffffffffffffffffffffffffffffffffffffffff166200040260201b60201c565b62000273600c54600c54600b60009054906101000a900473ffffffffffffffffffffffffffffffffffffffff166200040260201b60201c565b620002ac600d54600c54600b60009054906101000a900473ffffffffffffffffffffffffffffffffffffffff166200040260201b60201c565b620002e5600e54600c54600b60009054906101000a900473ffffffffffffffffffffffffffffffffffffffff166200040260201b60201c565b62000323600b60009054906101000a900473ffffffffffffffffffffffffffffffffffffffff16690472698b413b432000006200042b60201b60201c565b62000a50565b600073ffffffffffffffffffffffffffffffffffffffff168173ffffffffffffffffffffffffffffffffffffffff1614156200039c576040517f08c379a00000000000000000000000000000000000000000000000000000000081526004016200039390620008e3565b60405180910390fd5b600a819080600181540180825580915050600190039060005260206000200160009091909190916101000a81548173ffffffffffffffffffffffffffffffffffffffff021916908373ffffffffffffffffffffffffffffffffffffffff16021790555050565b6200041483826200057d60201b60201c565b6200042683836200059360201b60201c565b505050565b600073ffffffffffffffffffffffffffffffffffffffff168273ffffffffffffffffffffffffffffffffffffffff1614156200049e576040517f08c379a0000000000000000000000000000000000000000000000000000000008152600401620004959062000905565b60405180910390fd5b8060056000828254620004b2919062000955565b9250508190555080600460008473ffffffffffffffffffffffffffffffffffffffff1673ffffffffffffffffffffffffffffffffffffffff16815260200190815260200160002060008282546200050a919062000955565b925050819055508173ffffffffffffffffffffffffffffffffffffffff16600073ffffffffffffffffffffffffffffffffffffffff167fddf252ad1be2c89b69c2b068fc378daa952ba7f163c4a11628f55a4df523b3ef8360405162000571919062000927565b60405180910390a35050565b6200058f8282620005f660201b60201c565b5050565b6000620005a683620006e760201b60201c565b905081600080858152602001908152602001600020600101819055508181847fbd79b86ffe0ab8e8776151514217cd7cacd52c909f66475c3af44e129f0b00ff60405160405180910390a4505050565b6200060882826200070660201b60201c565b620006e357600160008084815260200190815260200160002060000160008373ffffffffffffffffffffffffffffffffffffffff1673ffffffffffffffffffffffffffffffffffffffff16815260200190815260200160002060006101000a81548160ff021916908315150217905550620006886200077060201b60201c565b73ffffffffffffffffffffffffffffffffffffffff168173ffffffffffffffffffffffffffffffffffffffff16837f2f8788117e7eff1d82e926ec794901d17c78024a50270940304540a733656f0d60405160405180910390a45b5050565b6000806000838152602001908152602001600020600101549050919050565b600080600084815260200190815260200160002060000160008373ffffffffffffffffffffffffffffffffffffffff1673ffffffffffffffffffffffffffffffffffffffff16815260200190815260200160002060009054906101000a900460ff16905092915050565b600033905090565b8280546200078690620009bc565b90600052602060002090601f016020900481019282620007aa5760008555620007f6565b82601f10620007c557805160ff1916838001178555620007f6565b82800160010185558215620007f6579182015b82811115620007f5578251825591602001919060010190620007d8565b5b50905062000805919062000809565b5090565b5b80821115620008245760008160009055506001016200080a565b5090565b60006200083760298362000944565b91507f536f756c506f7765723a2063616e6e6f7420736574207661756c7420746f206160008301527f64647265737328302900000000000000000000000000000000000000000000006020830152604082019050919050565b60006200089f601f8362000944565b91507f63616e6e6f74206d696e7420746f20746865207a65726f2061646472657373006000830152602082019050919050565b620008dd81620009b2565b82525050565b60006020820190508181036000830152620008fe8162000828565b9050919050565b60006020820190508181036000830152620009208162000890565b9050919050565b60006020820190506200093e6000830184620008d2565b92915050565b600082825260208201905092915050565b60006200096282620009b2565b91506200096f83620009b2565b9250827fffffffffffffffffffffffffffffffffffffffffffffffffffffffffffffffff03821115620009a757620009a6620009f2565b5b828201905092915050565b6000819050919050565b60006002820490506001821680620009d557607f821691505b60208210811415620009ec57620009eb62000a21565b5b50919050565b7f4e487b7100000000000000000000000000000000000000000000000000000000600052601160045260246000fd5b7f4e487b7100000000000000000000000000000000000000000000000000000000600052602260045260246000fd5b60805160f81c61550c62000a6f6000396000611577015261550c6000f3fe608060405234801561001057600080fd5b50600436106103975760003560e01c806375ea6798116101e9578063aa271e1a1161010f578063d547741f116100ad578063ec126c771161007c578063ec126c7714610b68578063f75c266414610b98578063fbfa77cf14610bb6578063fca3b5aa14610bd457610397565b8063d547741f14610ace578063d6c7975114610aea578063dbaef9b014610b08578063dd62ed3e14610b3857610397565b8063c3fb16ca116100e9578063c3fb16ca14610a5c578063c4b740f514610a78578063cfbd488514610a94578063d0e30db014610ab057610397565b8063aa271e1a146109cc578063b6b55f25146109fc578063bebbf4d014610a2c57610397565b806397331bf911610187578063a217fddf11610156578063a217fddf14610944578063a6ed77ee14610962578063a7e3c79714610980578063a9059cbb1461099c57610397565b806397331bf9146108bc5780639aeb3727146108da5780639dc29fac146108f6578063a045442c1461092657610397565b80638c64ea4a116101c35780638c64ea4a146108205780638da5cb5b1461085057806391d148541461086e57806395d89b411461089e57610397565b806375ea6798146107c857806383ff5c04146107d25780638623ec7b146107f057610397565b8063313ce567116102ce578063628d6cba1161026c5780636e553f651161023b5780636e553f651461072e5780636f307dc31461075e57806370a082311461077c578063743d507c146107ac57610397565b8063628d6cba14610696578063652b9b41146106c65780636817031b146106f65780636dad29ea1461071257610397565b806340c10f19116102a857806340c10f191461061057806348f8bfea146106405780634abd9d131461065e57806357cdbf2a1461067a57610397565b8063313ce567146105b857806336568abe146105d65780633ccfd60b146105f257610397565b806318160ddd1161033b578063248a9ca311610315578063248a9ca3146105205780632e1a7d4d146105505780632ebe3fbb146105805780632f2ff15d1461059c57610397565b806318160ddd146104b457806322763d97146104d257806323b872dd146104f057610397565b806306fdde031161037757806306fdde031461042c578063095ea7b31461044a578063112338981461047a578063155dfb501461049657610397565b806239d6ec1461039c578062f714ce146103cc57806301ffc9a7146103fc575b600080fd5b6103b660048036038101906103b1919061405d565b610bf0565b6040516103c3919061514a565b60405180910390f35b6103e660048036038101906103e1919061427c565b610c96565b6040516103f3919061514a565b60405180910390f35b61041660048036038101906104119190614201565b610cab565b6040516104239190614d5b565b60405180910390f35b610434610d25565b6040516104419190614dc8565b60405180910390f35b610464600480360381019061045f9190614021565b610db3565b6040516104719190614d5b565b60405180910390f35b610494600480360381019061048f91906140ac565b610ea5565b005b61049e610f52565b6040516104ab9190614d76565b60405180910390f35b6104bc610f58565b6040516104c9919061514a565b60405180910390f35b6104da610f62565b6040516104e79190614d5b565b60405180910390f35b61050a60048036038101906105059190613fd2565b610f75565b6040516105179190614d5b565b60405180910390f35b61053a600480360381019061053591906140fe565b61139d565b6040516105479190614d76565b60405180910390f35b61056a6004803603810190610565919061422a565b6113bc565b604051610577919061514a565b60405180910390f35b61059a60048036038101906105959190613f6d565b6113d0565b005b6105b660048036038101906105b19190614127565b61154c565b005b6105c0611575565b6040516105cd9190615165565b60405180910390f35b6105f060048036038101906105eb9190614127565b611599565b005b6105fa61161c565b604051610607919061514a565b60405180910390f35b61062a60048036038101906106259190614021565b61166d565b6040516106379190614d5b565b60405180910390f35b610648611698565b6040516106559190614cbe565b60405180910390f35b61067860048036038101906106739190613f6d565b6116be565b005b610694600480360381019061068f91906140ac565b611767565b005b6106b060048036038101906106ab919061427c565b611814565b6040516106bd9190614d5b565b60405180910390f35b6106e060048036038101906106db9190613f6d565b611a46565b6040516106ed9190614d5b565b60405180910390f35b610710600480360381019061070b9190613f6d565b611a66565b005b61072c60048036038101906107279190613f6d565b611b02565b005b6107486004803603810190610743919061427c565b611c41565b604051610755919061514a565b60405180910390f35b610766611ca4565b6040516107739190614cbe565b60405180910390f35b61079660048036038101906107919190613f6d565b611cca565b6040516107a3919061514a565b60405180910390f35b6107c660048036038101906107c19190614163565b611ce2565b005b6107d0611db8565b005b6107da611eb5565b6040516107e79190614d76565b60405180910390f35b61080a6004803603810190610805919061422a565b611ebb565b6040516108179190614cbe565b60405180910390f35b61083a6004803603810190610835919061422a565b611efa565b6040516108479190614cbe565b60405180910390f35b610858611f39565b6040516108659190614cbe565b60405180910390f35b61088860048036038101906108839190614127565b611f63565b6040516108959190614d5b565b60405180910390f35b6108a6611fcd565b6040516108b39190614dc8565b60405180910390f35b6108c461205b565b6040516108d19190614d39565b60405180910390f35b6108f460048036038101906108ef9190613f6d565b6120e9565b005b610910600480360381019061090b9190614021565b61225c565b60405161091d9190614d5b565b60405180910390f35b61092e612287565b60405161093b9190614d39565b60405180910390f35b61094c612315565b6040516109599190614d76565b60405180910390f35b61096a61231c565b6040516109779190614d76565b60405180910390f35b61099a600480360381019061099591906140ac565b612322565b005b6109b660048036038101906109b19190614021565b61241f565b6040516109c39190614d5b565b60405180910390f35b6109e660048036038101906109e19190613f6d565b61262e565b6040516109f39190614d5b565b60405180910390f35b610a166004803603810190610a11919061422a565b61264e565b604051610a23919061514a565b60405180910390f35b610a466004803603810190610a41919061427c565b6126b0565b604051610a53919061514a565b60405180910390f35b610a766004803603810190610a719190613f6d565b612754565b005b610a926004803603810190610a8d91906140ac565b61283f565b005b610aae6004803603810190610aa99190613f6d565b6128ec565b005b610ab86129d7565b604051610ac5919061514a565b60405180910390f35b610ae86004803603810190610ae39190614127565b612ae6565b005b610af2612b0f565b604051610aff9190614d5b565b60405180910390f35b610b226004803603810190610b1d91906140fe565b612b14565b604051610b2f9190614d5b565b60405180910390f35b610b526004803603810190610b4d9190613f96565b612b27565b604051610b5f919061514a565b60405180910390f35b610b826004803603810190610b7d91906141b2565b612b4c565b604051610b8f9190614d5b565b60405180910390f35b610ba0612d28565b604051610bad9190614cbe565b60405180910390f35b610bbe612d52565b604051610bcb9190614cbe565b60405180910390f35b610bee6004803603810190610be99190613f6d565b612d78565b005b6000600b60009054906101000a900473ffffffffffffffffffffffffffffffffffffffff1673ffffffffffffffffffffffffffffffffffffffff163373ffffffffffffffffffffffffffffffffffffffff1614610c82576040517f08c379a0000000000000000000000000000000000000000000000000000000008152600401610c7990614e4a565b60405180910390fd5b610c8d848484612e14565b90509392505050565b6000610ca3338484612e14565b905092915050565b60007f7965db0b000000000000000000000000000000000000000000000000000000007bffffffffffffffffffffffffffffffffffffffffffffffffffffffff1916827bffffffffffffffffffffffffffffffffffffffffffffffffffffffff19161480610d1e5750610d1d82612ff4565b5b9050919050565b60018054610d32906153c2565b80601f0160208091040260200160405190810160405280929190818152602001828054610d5e906153c2565b8015610dab5780601f10610d8057610100808354040283529160200191610dab565b820191906000526020600020905b815481529060010190602001808311610d8e57829003601f168201915b505050505081565b600081600f60003373ffffffffffffffffffffffffffffffffffffffff1673ffffffffffffffffffffffffffffffffffffffff16815260200190815260200160002060008573ffffffffffffffffffffffffffffffffffffffff1673ffffffffffffffffffffffffffffffffffffffff168152602001908152602001600020819055508273ffffffffffffffffffffffffffffffffffffffff163373ffffffffffffffffffffffffffffffffffffffff167f8c5be1e5ebec7d5bd14f71427d1e84f3dd0314c0f7b2291e5b200ac8c7c3b92584604051610e93919061514a565b60405180910390a36001905092915050565b600b60009054906101000a900473ffffffffffffffffffffffffffffffffffffffff1673ffffffffffffffffffffffffffffffffffffffff163373ffffffffffffffffffffffffffffffffffffffff1614610f35576040517f08c379a0000000000000000000000000000000000000000000000000000000008152600401610f2c90614e4a565b60405180910390fd5b80600660186101000a81548160ff02191690831515021790555050565b600c5481565b6000600554905090565b600360149054906101000a900460ff1681565b60008073ffffffffffffffffffffffffffffffffffffffff168373ffffffffffffffffffffffffffffffffffffffff1614158015610fdf57503073ffffffffffffffffffffffffffffffffffffffff168373ffffffffffffffffffffffffffffffffffffffff1614155b610fe857600080fd5b3373ffffffffffffffffffffffffffffffffffffffff168473ffffffffffffffffffffffffffffffffffffffff1614611200576000600f60008673ffffffffffffffffffffffffffffffffffffffff1673ffffffffffffffffffffffffffffffffffffffff16815260200190815260200160002060003373ffffffffffffffffffffffffffffffffffffffff1673ffffffffffffffffffffffffffffffffffffffff1681526020019081526020016000205490507fffffffffffffffffffffffffffffffffffffffffffffffffffffffffffffffff81146111fe5782811015611106576040517f08c379a00000000000000000000000000000000000000000000000000000000081526004016110fd90614fea565b60405180910390fd5b6000838261111491906152a6565b905080600f60008873ffffffffffffffffffffffffffffffffffffffff1673ffffffffffffffffffffffffffffffffffffffff16815260200190815260200160002060003373ffffffffffffffffffffffffffffffffffffffff1673ffffffffffffffffffffffffffffffffffffffff168152602001908152602001600020819055503373ffffffffffffffffffffffffffffffffffffffff168673ffffffffffffffffffffffffffffffffffffffff167f8c5be1e5ebec7d5bd14f71427d1e84f3dd0314c0f7b2291e5b200ac8c7c3b925836040516111f4919061514a565b60405180910390a3505b505b6000600460008673ffffffffffffffffffffffffffffffffffffffff1673ffffffffffffffffffffffffffffffffffffffff16815260200190815260200160002054905082811015611287576040517f08c379a000000000000000000000000000000000000000000000000000000000815260040161127e90614e2a565b60405180910390fd5b828161129391906152a6565b600460008773ffffffffffffffffffffffffffffffffffffffff1673ffffffffffffffffffffffffffffffffffffffff1681526020019081526020016000208190555082600460008673ffffffffffffffffffffffffffffffffffffffff1673ffffffffffffffffffffffffffffffffffffffff168152602001908152602001600020600082825461132591906151f6565b925050819055508373ffffffffffffffffffffffffffffffffffffffff168573ffffffffffffffffffffffffffffffffffffffff167fddf252ad1be2c89b69c2b068fc378daa952ba7f163c4a11628f55a4df523b3ef85604051611389919061514a565b60405180910390a360019150509392505050565b6000806000838152602001908152602001600020600101549050919050565b60006113c9338333612e14565b9050919050565b600b60009054906101000a900473ffffffffffffffffffffffffffffffffffffffff1673ffffffffffffffffffffffffffffffffffffffff163373ffffffffffffffffffffffffffffffffffffffff1614611460576040517f08c379a000000000000000000000000000000000000000000000000000000000815260040161145790614e4a565b60405180910390fd5b600660169054906101000a900460ff16156114b0576040517f08c379a00000000000000000000000000000000000000000000000000000000081526004016114a790614eaa565b60405180910390fd5b80600660016101000a81548173ffffffffffffffffffffffffffffffffffffffff021916908373ffffffffffffffffffffffffffffffffffffffff1602179055506001600760008373ffffffffffffffffffffffffffffffffffffffff1673ffffffffffffffffffffffffffffffffffffffff16815260200190815260200160002060006101000a81548160ff02191690831515021790555050565b6115558261139d565b6115668161156161305e565b613066565b6115708383613103565b505050565b7f000000000000000000000000000000000000000000000000000000000000000081565b6115a161305e565b73ffffffffffffffffffffffffffffffffffffffff168173ffffffffffffffffffffffffffffffffffffffff161461160e576040517f08c379a00000000000000000000000000000000000000000000000000000000081526004016116059061512a565b60405180910390fd5b61161882826131e3565b5050565b600061166833600460003373ffffffffffffffffffffffffffffffffffffffff1673ffffffffffffffffffffffffffffffffffffffff1681526020019081526020016000205433612e14565b905090565b6000600d546116838161167e61305e565b613066565b61168d84846132c4565b600191505092915050565b600b60009054906101000a900473ffffffffffffffffffffffffffffffffffffffff1681565b600c546116d2816116cd61305e565b613066565b600360149054906101000a900460ff1615611722576040517f08c379a000000000000000000000000000000000000000000000000000000000815260040161171990614f2a565b60405180910390fd5b81600360006101000a81548173ffffffffffffffffffffffffffffffffffffffff021916908373ffffffffffffffffffffffffffffffffffffffff1602179055505050565b600b60009054906101000a900473ffffffffffffffffffffffffffffffffffffffff1673ffffffffffffffffffffffffffffffffffffffff163373ffffffffffffffffffffffffffffffffffffffff16146117f7576040517f08c379a00000000000000000000000000000000000000000000000000000000081526004016117ee90614e4a565b60405180910390fd5b80600660176101000a81548160ff02191690831515021790555050565b6000600660159054906101000a900460ff1615611866576040517f08c379a000000000000000000000000000000000000000000000000000000000815260040161185d90614eea565b60405180910390fd5b600073ffffffffffffffffffffffffffffffffffffffff168273ffffffffffffffffffffffffffffffffffffffff1614156118d6576040517f08c379a00000000000000000000000000000000000000000000000000000000081526004016118cd90614faa565b60405180910390fd5b600073ffffffffffffffffffffffffffffffffffffffff16600360009054906101000a900473ffffffffffffffffffffffffffffffffffffffff1673ffffffffffffffffffffffffffffffffffffffff1614158015611973575082600460003373ffffffffffffffffffffffffffffffffffffffff1673ffffffffffffffffffffffffffffffffffffffff16815260200190815260200160002054105b156119cc576119c7333085600360009054906101000a900473ffffffffffffffffffffffffffffffffffffffff1673ffffffffffffffffffffffffffffffffffffffff1661340d909392919063ffffffff16565b6119d7565b6119d63384613496565b5b8173ffffffffffffffffffffffffffffffffffffffff163373ffffffffffffffffffffffffffffffffffffffff167f6b616089d04950dc06c45c6dd787d657980543f89651aec47924752c7d16c88885604051611a34919061514a565b60405180910390a36001905092915050565b60086020528060005260406000206000915054906101000a900460ff1681565b600b60009054906101000a900473ffffffffffffffffffffffffffffffffffffffff1673ffffffffffffffffffffffffffffffffffffffff163373ffffffffffffffffffffffffffffffffffffffff1614611af6576040517f08c379a0000000000000000000000000000000000000000000000000000000008152600401611aed90614e4a565b60405180910390fd5b611aff81613660565b50565b600b60009054906101000a900473ffffffffffffffffffffffffffffffffffffffff1673ffffffffffffffffffffffffffffffffffffffff163373ffffffffffffffffffffffffffffffffffffffff1614611b92576040517f08c379a0000000000000000000000000000000000000000000000000000000008152600401611b8990614e4a565b60405180910390fd5b600360149054906101000a900460ff1615611be2576040517f08c379a0000000000000000000000000000000000000000000000000000000008152600401611bd990614f0a565b60405180910390fd5b80600360006101000a81548173ffffffffffffffffffffffffffffffffffffffff021916908373ffffffffffffffffffffffffffffffffffffffff1602179055506001600360146101000a81548160ff02191690831515021790555050565b6000611c92333085600360009054906101000a900473ffffffffffffffffffffffffffffffffffffffff1673ffffffffffffffffffffffffffffffffffffffff1661340d909392919063ffffffff16565b611c9c8383613736565b905092915050565b600360009054906101000a900473ffffffffffffffffffffffffffffffffffffffff1681565b60046020528060005260406000206000915090505481565b82611cf481611cef61305e565b613066565b8173ffffffffffffffffffffffffffffffffffffffff168373ffffffffffffffffffffffffffffffffffffffff161415611d63576040517f08c379a0000000000000000000000000000000000000000000000000000000008152600401611d5a90614f4a565b60405180910390fd5b611d6d848361154c565b611d778484611599565b7f61d8718e0a8cd948a81621b18092fb2d08d9c1d961369cbf16aab6dc46e3e4b1848484604051611daa93929190614d91565b60405180910390a150505050565b600b60009054906101000a900473ffffffffffffffffffffffffffffffffffffffff1673ffffffffffffffffffffffffffffffffffffffff163373ffffffffffffffffffffffffffffffffffffffff1614611e48576040517f08c379a0000000000000000000000000000000000000000000000000000000008152600401611e3f90614e4a565b60405180910390fd5b600660169054906101000a900460ff1615611e98576040517f08c379a0000000000000000000000000000000000000000000000000000000008152600401611e8f90614eca565b60405180910390fd5b6001600660166101000a81548160ff021916908315150217905550565b600e5481565b60098181548110611ecb57600080fd5b906000526020600020016000915054906101000a900473ffffffffffffffffffffffffffffffffffffffff1681565b600a8181548110611f0a57600080fd5b906000526020600020016000915054906101000a900473ffffffffffffffffffffffffffffffffffffffff1681565b6000600b60009054906101000a900473ffffffffffffffffffffffffffffffffffffffff16905090565b600080600084815260200190815260200160002060000160008373ffffffffffffffffffffffffffffffffffffffff1673ffffffffffffffffffffffffffffffffffffffff16815260200190815260200160002060009054906101000a900460ff16905092915050565b60028054611fda906153c2565b80601f0160208091040260200160405190810160405280929190818152602001828054612006906153c2565b80156120535780601f1061202857610100808354040283529160200191612053565b820191906000526020600020905b81548152906001019060200180831161203657829003601f168201915b505050505081565b6060600a8054806020026020016040519081016040528092919081815260200182805480156120df57602002820191906000526020600020905b8160009054906101000a900473ffffffffffffffffffffffffffffffffffffffff1673ffffffffffffffffffffffffffffffffffffffff1681526020019060010190808311612095575b5050505050905090565b600c546120fd816120f861305e565b613066565b8173ffffffffffffffffffffffffffffffffffffffff16600b60009054906101000a900473ffffffffffffffffffffffffffffffffffffffff1673ffffffffffffffffffffffffffffffffffffffff16141561218e576040517f08c379a000000000000000000000000000000000000000000000000000000000815260040161218590614fca565b60405180910390fd5b6121be6000801b600b60009054906101000a900473ffffffffffffffffffffffffffffffffffffffff1684611ce2565b81600b60006101000a81548173ffffffffffffffffffffffffffffffffffffffff021916908373ffffffffffffffffffffffffffffffffffffffff1602179055507f1c881cf11671f3ab7e97a339a15f6a1d287b427944d2d36d393c0846b1d35757600b60009054906101000a900473ffffffffffffffffffffffffffffffffffffffff166040516122509190614cbe565b60405180910390a15050565b6000600e546122728161226d61305e565b613066565b61227c8484613496565b600191505092915050565b6060600980548060200260200160405190810160405280929190818152602001828054801561230b57602002820191906000526020600020905b8160009054906101000a900473ffffffffffffffffffffffffffffffffffffffff1673ffffffffffffffffffffffffffffffffffffffff16815260200190600101908083116122c1575b5050505050905090565b6000801b81565b600d5481565b600b60009054906101000a900473ffffffffffffffffffffffffffffffffffffffff1673ffffffffffffffffffffffffffffffffffffffff163373ffffffffffffffffffffffffffffffffffffffff16146123b2576040517f08c379a00000000000000000000000000000000000000000000000000000000081526004016123a990614e4a565b60405180910390fd5b600660169054906101000a900460ff1615612402576040517f08c379a00000000000000000000000000000000000000000000000000000000081526004016123f990614eaa565b60405180910390fd5b80600660006101000a81548160ff02191690831515021790555050565b60008073ffffffffffffffffffffffffffffffffffffffff168373ffffffffffffffffffffffffffffffffffffffff161415801561248957503073ffffffffffffffffffffffffffffffffffffffff168373ffffffffffffffffffffffffffffffffffffffff1614155b61249257600080fd5b6000600460003373ffffffffffffffffffffffffffffffffffffffff1673ffffffffffffffffffffffffffffffffffffffff16815260200190815260200160002054905082811015612519576040517f08c379a000000000000000000000000000000000000000000000000000000000815260040161251090614e2a565b60405180910390fd5b828161252591906152a6565b600460003373ffffffffffffffffffffffffffffffffffffffff1673ffffffffffffffffffffffffffffffffffffffff1681526020019081526020016000208190555082600460008673ffffffffffffffffffffffffffffffffffffffff1673ffffffffffffffffffffffffffffffffffffffff16815260200190815260200160002060008282546125b791906151f6565b925050819055508373ffffffffffffffffffffffffffffffffffffffff163373ffffffffffffffffffffffffffffffffffffffff167fddf252ad1be2c89b69c2b068fc378daa952ba7f163c4a11628f55a4df523b3ef8560405161261b919061514a565b60405180910390a3600191505092915050565b60076020528060005260406000206000915054906101000a900460ff1681565b600061269f333084600360009054906101000a900473ffffffffffffffffffffffffffffffffffffffff1673ffffffffffffffffffffffffffffffffffffffff1661340d909392919063ffffffff16565b6126a98233613736565b9050919050565b6000600b60009054906101000a900473ffffffffffffffffffffffffffffffffffffffff1673ffffffffffffffffffffffffffffffffffffffff163373ffffffffffffffffffffffffffffffffffffffff1614612742576040517f08c379a000000000000000000000000000000000000000000000000000000000815260040161273990614e4a565b60405180910390fd5b61274c8383613736565b905092915050565b600b60009054906101000a900473ffffffffffffffffffffffffffffffffffffffff1673ffffffffffffffffffffffffffffffffffffffff163373ffffffffffffffffffffffffffffffffffffffff16146127e4576040517f08c379a00000000000000000000000000000000000000000000000000000000081526004016127db90614e4a565b60405180910390fd5b6000600860008373ffffffffffffffffffffffffffffffffffffffff1673ffffffffffffffffffffffffffffffffffffffff16815260200190815260200160002060006101000a81548160ff02191690831515021790555050565b600b60009054906101000a900473ffffffffffffffffffffffffffffffffffffffff1673ffffffffffffffffffffffffffffffffffffffff163373ffffffffffffffffffffffffffffffffffffffff16146128cf576040517f08c379a00000000000000000000000000000000000000000000000000000000081526004016128c690614e4a565b60405180910390fd5b80600660156101000a81548160ff02191690831515021790555050565b600b60009054906101000a900473ffffffffffffffffffffffffffffffffffffffff1673ffffffffffffffffffffffffffffffffffffffff163373ffffffffffffffffffffffffffffffffffffffff161461297c576040517f08c379a000000000000000000000000000000000000000000000000000000000815260040161297390614e4a565b60405180910390fd5b6000600760008373ffffffffffffffffffffffffffffffffffffffff1673ffffffffffffffffffffffffffffffffffffffff16815260200190815260200160002060006101000a81548160ff02191690831515021790555050565b600080600360009054906101000a900473ffffffffffffffffffffffffffffffffffffffff1673ffffffffffffffffffffffffffffffffffffffff166370a08231336040518263ffffffff1660e01b8152600401612a359190614cbe565b60206040518083038186803b158015612a4d57600080fd5b505afa158015612a61573d6000803e3d6000fd5b505050506040513d601f19601f82011682018060405250810190612a859190614253565b9050612ad6333083600360009054906101000a900473ffffffffffffffffffffffffffffffffffffffff1673ffffffffffffffffffffffffffffffffffffffff1661340d909392919063ffffffff16565b612ae08133613736565b91505090565b612aef8261139d565b612b0081612afb61305e565b613066565b612b0a83836131e3565b505050565b600081565b6000612b208233611f63565b9050919050565b600f602052816000526040600020602052806000526040600020600091509150505481565b6000600d54612b6281612b5d61305e565b613066565b600073ffffffffffffffffffffffffffffffffffffffff16600360009054906101000a900473ffffffffffffffffffffffffffffffffffffffff1673ffffffffffffffffffffffffffffffffffffffff1614158015612c6b575082600360009054906101000a900473ffffffffffffffffffffffffffffffffffffffff1673ffffffffffffffffffffffffffffffffffffffff166370a08231306040518263ffffffff1660e01b8152600401612c189190614cbe565b60206040518083038186803b158015612c3057600080fd5b505afa158015612c44573d6000803e3d6000fd5b505050506040513d601f19601f82011682018060405250810190612c689190614253565b10155b15612cc257612cbd8484600360009054906101000a900473ffffffffffffffffffffffffffffffffffffffff1673ffffffffffffffffffffffffffffffffffffffff166138c89092919063ffffffff16565b612ccd565b612ccc84846132c4565b5b8373ffffffffffffffffffffffffffffffffffffffff16857f05d0634fe981be85c22e2942a880821b70095d84e152c3ea3c17a4e4250d9d6185604051612d14919061514a565b60405180910390a360019150509392505050565b6000600b60009054906101000a900473ffffffffffffffffffffffffffffffffffffffff16905090565b600660019054906101000a900473ffffffffffffffffffffffffffffffffffffffff1681565b600b60009054906101000a900473ffffffffffffffffffffffffffffffffffffffff1673ffffffffffffffffffffffffffffffffffffffff163373ffffffffffffffffffffffffffffffffffffffff1614612e08576040517f08c379a0000000000000000000000000000000000000000000000000000000008152600401612dff90614e4a565b60405180910390fd5b612e118161394e565b50565b60008015612e2157600080fd5b600660189054906101000a900460ff16612e70576040517f08c379a0000000000000000000000000000000000000000000000000000000008152600401612e679061506a565b60405180910390fd5b600073ffffffffffffffffffffffffffffffffffffffff16600360009054906101000a900473ffffffffffffffffffffffffffffffffffffffff1673ffffffffffffffffffffffffffffffffffffffff161415612f02576040517f08c379a0000000000000000000000000000000000000000000000000000000008152600401612ef9906150ca565b60405180910390fd5b3073ffffffffffffffffffffffffffffffffffffffff16600360009054906101000a900473ffffffffffffffffffffffffffffffffffffffff1673ffffffffffffffffffffffffffffffffffffffff161415612f93576040517f08c379a0000000000000000000000000000000000000000000000000000000008152600401612f8a906150aa565b60405180910390fd5b612f9d8484613496565b612fea8284600360009054906101000a900473ffffffffffffffffffffffffffffffffffffffff1673ffffffffffffffffffffffffffffffffffffffff166138c89092919063ffffffff16565b8290509392505050565b60007f01ffc9a7000000000000000000000000000000000000000000000000000000007bffffffffffffffffffffffffffffffffffffffffffffffffffffffff1916827bffffffffffffffffffffffffffffffffffffffffffffffffffffffff1916149050919050565b600033905090565b6130708282611f63565b6130ff576130958173ffffffffffffffffffffffffffffffffffffffff166014613a24565b6130a38360001c6020613a24565b6040516020016130b4929190614c84565b6040516020818303038152906040526040517f08c379a00000000000000000000000000000000000000000000000000000000081526004016130f69190614dc8565b60405180910390fd5b5050565b61310d8282611f63565b6131df57600160008084815260200190815260200160002060000160008373ffffffffffffffffffffffffffffffffffffffff1673ffffffffffffffffffffffffffffffffffffffff16815260200190815260200160002060006101000a81548160ff02191690831515021790555061318461305e565b73ffffffffffffffffffffffffffffffffffffffff168173ffffffffffffffffffffffffffffffffffffffff16837f2f8788117e7eff1d82e926ec794901d17c78024a50270940304540a733656f0d60405160405180910390a45b5050565b6131ed8282611f63565b156132c057600080600084815260200190815260200160002060000160008373ffffffffffffffffffffffffffffffffffffffff1673ffffffffffffffffffffffffffffffffffffffff16815260200190815260200160002060006101000a81548160ff02191690831515021790555061326561305e565b73ffffffffffffffffffffffffffffffffffffffff168173ffffffffffffffffffffffffffffffffffffffff16837ff6391f5c32d9c69d2a47ea670b442974b53935d1edc7fd64eb21e047a839171b60405160405180910390a45b5050565b600073ffffffffffffffffffffffffffffffffffffffff168273ffffffffffffffffffffffffffffffffffffffff161415613334576040517f08c379a000000000000000000000000000000000000000000000000000000000815260040161332b9061504a565b60405180910390fd5b806005600082825461334691906151f6565b9250508190555080600460008473ffffffffffffffffffffffffffffffffffffffff1673ffffffffffffffffffffffffffffffffffffffff168152602001908152602001600020600082825461339c91906151f6565b925050819055508173ffffffffffffffffffffffffffffffffffffffff16600073ffffffffffffffffffffffffffffffffffffffff167fddf252ad1be2c89b69c2b068fc378daa952ba7f163c4a11628f55a4df523b3ef83604051613401919061514a565b60405180910390a35050565b613490846323b872dd60e01b85858560405160240161342e93929190614cd9565b604051602081830303815290604052907bffffffffffffffffffffffffffffffffffffffffffffffffffffffff19166020820180517bffffffffffffffffffffffffffffffffffffffffffffffffffffffff8381831617835250505050613d1e565b50505050565b600073ffffffffffffffffffffffffffffffffffffffff168273ffffffffffffffffffffffffffffffffffffffff161415613506576040517f08c379a00000000000000000000000000000000000000000000000000000000081526004016134fd9061502a565b60405180910390fd5b6000600460008473ffffffffffffffffffffffffffffffffffffffff1673ffffffffffffffffffffffffffffffffffffffff1681526020019081526020016000205490508181101561358d576040517f08c379a000000000000000000000000000000000000000000000000000000000815260040161358490614f8a565b60405180910390fd5b818161359991906152a6565b600460008573ffffffffffffffffffffffffffffffffffffffff1673ffffffffffffffffffffffffffffffffffffffff1681526020019081526020016000208190555081600560008282546135ee91906152a6565b92505081905550600073ffffffffffffffffffffffffffffffffffffffff168373ffffffffffffffffffffffffffffffffffffffff167fddf252ad1be2c89b69c2b068fc378daa952ba7f163c4a11628f55a4df523b3ef84604051613653919061514a565b60405180910390a3505050565b600073ffffffffffffffffffffffffffffffffffffffff168173ffffffffffffffffffffffffffffffffffffffff1614156136d0576040517f08c379a00000000000000000000000000000000000000000000000000000000081526004016136c790614f6a565b60405180910390fd5b600a819080600181540180825580915050600190039060005260206000200160009091909190916101000a81548173ffffffffffffffffffffffffffffffffffffffff021916908373ffffffffffffffffffffffffffffffffffffffff16021790555050565b6000801561374357600080fd5b600660179054906101000a900460ff16613792576040517f08c379a000000000000000000000000000000000000000000000000000000000815260040161378990614e0a565b60405180910390fd5b600073ffffffffffffffffffffffffffffffffffffffff16600360009054906101000a900473ffffffffffffffffffffffffffffffffffffffff1673ffffffffffffffffffffffffffffffffffffffff161415613824576040517f08c379a000000000000000000000000000000000000000000000000000000000815260040161381b90614e8a565b60405180910390fd5b3073ffffffffffffffffffffffffffffffffffffffff16600360009054906101000a900473ffffffffffffffffffffffffffffffffffffffff1673ffffffffffffffffffffffffffffffffffffffff1614156138b5576040517f08c379a00000000000000000000000000000000000000000000000000000000081526004016138ac906150ea565b60405180910390fd5b6138bf82846132c4565b82905092915050565b6139498363a9059cbb60e01b84846040516024016138e7929190614d10565b604051602081830303815290604052907bffffffffffffffffffffffffffffffffffffffffffffffffffffffff19166020820180517bffffffffffffffffffffffffffffffffffffffffffffffffffffffff8381831617835250505050613d1e565b505050565b600073ffffffffffffffffffffffffffffffffffffffff168173ffffffffffffffffffffffffffffffffffffffff1614156139be576040517f08c379a00000000000000000000000000000000000000000000000000000000081526004016139b59061500a565b60405180910390fd5b6009819080600181540180825580915050600190039060005260206000200160009091909190916101000a81548173ffffffffffffffffffffffffffffffffffffffff021916908373ffffffffffffffffffffffffffffffffffffffff16021790555050565b606060006002836002613a37919061524c565b613a4191906151f6565b67ffffffffffffffff811115613a80577f4e487b7100000000000000000000000000000000000000000000000000000000600052604160045260246000fd5b6040519080825280601f01601f191660200182016040528015613ab25781602001600182028036833780820191505090505b5090507f300000000000000000000000000000000000000000000000000000000000000081600081518110613b10577f4e487b7100000000000000000000000000000000000000000000000000000000600052603260045260246000fd5b60200101907effffffffffffffffffffffffffffffffffffffffffffffffffffffffffffff1916908160001a9053507f780000000000000000000000000000000000000000000000000000000000000081600181518110613b9a577f4e487b7100000000000000000000000000000000000000000000000000000000600052603260045260246000fd5b60200101907effffffffffffffffffffffffffffffffffffffffffffffffffffffffffffff1916908160001a90535060006001846002613bda919061524c565b613be491906151f6565b90505b6001811115613cd0577f3031323334353637383961626364656600000000000000000000000000000000600f861660108110613c4c577f4e487b7100000000000000000000000000000000000000000000000000000000600052603260045260246000fd5b1a60f81b828281518110613c89577f4e487b7100000000000000000000000000000000000000000000000000000000600052603260045260246000fd5b60200101907effffffffffffffffffffffffffffffffffffffffffffffffffffffffffffff1916908160001a905350600485901c945080613cc990615398565b9050613be7565b5060008414613d14576040517f08c379a0000000000000000000000000000000000000000000000000000000008152600401613d0b90614dea565b60405180910390fd5b8091505092915050565b613d3d8273ffffffffffffffffffffffffffffffffffffffff16613e8f565b613d7c576040517f08c379a0000000000000000000000000000000000000000000000000000000008152600401613d739061510a565b60405180910390fd5b6000808373ffffffffffffffffffffffffffffffffffffffff1683604051613da49190614c6d565b6000604051808303816000865af19150503d8060008114613de1576040519150601f19603f3d011682016040523d82523d6000602084013e613de6565b606091505b509150915081613e2b576040517f08c379a0000000000000000000000000000000000000000000000000000000008152600401613e2290614e6a565b60405180910390fd5b600081511115613e895780806020019051810190613e4991906140d5565b613e88576040517f08c379a0000000000000000000000000000000000000000000000000000000008152600401613e7f9061508a565b60405180910390fd5b5b50505050565b60008060007fc5d2460186f7233c927e7db2dcc703c0e500b653ca82273b7bfad8045d85a47060001b9050833f91506000801b8214158015613ed15750808214155b92505050919050565b600081359050613ee981615463565b92915050565b600081359050613efe8161547a565b92915050565b600081519050613f138161547a565b92915050565b600081359050613f2881615491565b92915050565b600081359050613f3d816154a8565b92915050565b600081359050613f52816154bf565b92915050565b600081519050613f67816154bf565b92915050565b600060208284031215613f7f57600080fd5b6000613f8d84828501613eda565b91505092915050565b60008060408385031215613fa957600080fd5b6000613fb785828601613eda565b9250506020613fc885828601613eda565b9150509250929050565b600080600060608486031215613fe757600080fd5b6000613ff586828701613eda565b935050602061400686828701613eda565b925050604061401786828701613f43565b9150509250925092565b6000806040838503121561403457600080fd5b600061404285828601613eda565b925050602061405385828601613f43565b9150509250929050565b60008060006060848603121561407257600080fd5b600061408086828701613eda565b935050602061409186828701613f43565b92505060406140a286828701613eda565b9150509250925092565b6000602082840312156140be57600080fd5b60006140cc84828501613eef565b91505092915050565b6000602082840312156140e757600080fd5b60006140f584828501613f04565b91505092915050565b60006020828403121561411057600080fd5b600061411e84828501613f19565b91505092915050565b6000806040838503121561413a57600080fd5b600061414885828601613f19565b925050602061415985828601613eda565b9150509250929050565b60008060006060848603121561417857600080fd5b600061418686828701613f19565b935050602061419786828701613eda565b92505060406141a886828701613eda565b9150509250925092565b6000806000606084860312156141c757600080fd5b60006141d586828701613f19565b93505060206141e686828701613eda565b92505060406141f786828701613f43565b9150509250925092565b60006020828403121561421357600080fd5b600061422184828501613f2e565b91505092915050565b60006020828403121561423c57600080fd5b600061424a84828501613f43565b91505092915050565b60006020828403121561426557600080fd5b600061427384828501613f58565b91505092915050565b6000806040838503121561428f57600080fd5b600061429d85828601613f43565b92505060206142ae85828601613eda565b9150509250929050565b60006142c483836142d0565b60208301905092915050565b6142d9816152da565b82525050565b6142e8816152da565b82525050565b60006142f982615190565b61430381856151be565b935061430e83615180565b8060005b8381101561433f57815161432688826142b8565b9750614331836151b1565b925050600181019050614312565b5085935050505092915050565b614355816152ec565b82525050565b614364816152f8565b82525050565b60006143758261519b565b61437f81856151cf565b935061438f818560208601615365565b80840191505092915050565b60006143a6826151a6565b6143b081856151da565b93506143c0818560208601615365565b6143c981615452565b840191505092915050565b60006143df826151a6565b6143e981856151eb565b93506143f9818560208601615365565b80840191505092915050565b60006144126020836151da565b91507f537472696e67733a20686578206c656e67746820696e73756666696369656e746000830152602082019050919050565b60006144526015836151da565b91507f6465706f73697473206172652064697361626c656400000000000000000000006000830152602082019050919050565b6000614492602a836151da565b91507f536f756c506f7765723a207472616e7366657220616d6f756e7420657863656560008301527f64732062616c616e6365000000000000000000000000000000000000000000006020830152604082019050919050565b60006144f86016836151da565b91507f73656e646572206d7573742062652073757072656d65000000000000000000006000830152602082019050919050565b60006145386020836151da565b91507f5361666545524332303a206c6f772d6c6576656c2063616c6c206661696c65646000830152602082019050919050565b60006145786015836151da565b91507f63616e6e6f74206465706f736974206e617469766500000000000000000000006000830152602082019050919050565b60006145b86016836151da565b91507f696e697469616c697a6174696f6e207265766f6b6564000000000000000000006000830152602082019050919050565b60006145f8601e836151da565b91507f696e697469616c697a6174696f6e20616c7265616479207265766f6b656400006000830152602082019050919050565b6000614638601a836151da565b91507f6f6e6c7920746865207661756c74206d617920737761706f75740000000000006000830152602082019050919050565b6000614678601f836151da565b91507f756e6465726c79696e6720697320616c726561647920696d6d757461626c65006000830152602082019050919050565b60006146b8601b836151da565b91507f756e6465726c79696e67206973206e6f7720696d6d757461626c6500000000006000830152602082019050919050565b60006146f86015836151da565b91507f6d7573742062652061206e6577206164647265737300000000000000000000006000830152602082019050919050565b60006147386029836151da565b91507f536f756c506f7765723a2063616e6e6f7420736574207661756c7420746f206160008301527f64647265737328302900000000000000000000000000000000000000000000006020830152604082019050919050565b600061479e601b836151da565b91507f6275726e20616d6f756e7420657863656564732062616c616e636500000000006000830152602082019050919050565b60006147de601d836151da565b91507f62696e64616464722063616e6e6f7420626520616464726573732830290000006000830152602082019050919050565b600061481e601c836151da565b91507f6d616b652061206368616e67652c20626520746865206368616e6765000000006000830152602082019050919050565b600061485e6024836151da565b91507f536f756c506f7765723a2072657175657374206578636565647320616c6c6f7760008301527f616e6365000000000000000000000000000000000000000000000000000000006020830152604082019050919050565b60006148c4602a836151da565b91507f536f756c506f7765723a2063616e6e6f7420736574206d696e74657220746f2060008301527f61646472657373283029000000000000000000000000000000000000000000006020830152604082019050919050565b600061492a6021836151da565b91507f63616e6e6f74206275726e2066726f6d20746865207a65726f2061646472657360008301527f73000000000000000000000000000000000000000000000000000000000000006020830152604082019050919050565b6000614990601f836151da565b91507f63616e6e6f74206d696e7420746f20746865207a65726f2061646472657373006000830152602082019050919050565b60006149d06017836151eb565b91507f416363657373436f6e74726f6c3a206163636f756e74200000000000000000006000830152601782019050919050565b6000614a106018836151da565b91507f7769746864726177616c73206172652064697361626c656400000000000000006000830152602082019050919050565b6000614a50602a836151da565b91507f5361666545524332303a204552433230206f7065726174696f6e20646964206e60008301527f6f742073756363656564000000000000000000000000000000000000000000006020830152604082019050919050565b6000614ab66019836151da565b91507f756e6465726c79696e672063616e6e6f7420626520534f554c000000000000006000830152602082019050919050565b6000614af6601b836151da565b91507f756e6465726c79696e672063616e6e6f74206265206e617469766500000000006000830152602082019050919050565b6000614b366013836151da565b91507f63616e6e6f74206465706f73697420534f554c000000000000000000000000006000830152602082019050919050565b6000614b76601f836151da565b91507f5361666545524332303a2063616c6c20746f206e6f6e2d636f6e7472616374006000830152602082019050919050565b6000614bb66011836151eb565b91507f206973206d697373696e6720726f6c65200000000000000000000000000000006000830152601182019050919050565b6000614bf6602f836151da565b91507f416363657373436f6e74726f6c3a2063616e206f6e6c792072656e6f756e636560008301527f20726f6c657320666f722073656c6600000000000000000000000000000000006020830152604082019050919050565b614c588161534e565b82525050565b614c6781615358565b82525050565b6000614c79828461436a565b915081905092915050565b6000614c8f826149c3565b9150614c9b82856143d4565b9150614ca682614ba9565b9150614cb282846143d4565b91508190509392505050565b6000602082019050614cd360008301846142df565b92915050565b6000606082019050614cee60008301866142df565b614cfb60208301856142df565b614d086040830184614c4f565b949350505050565b6000604082019050614d2560008301856142df565b614d326020830184614c4f565b9392505050565b60006020820190508181036000830152614d5381846142ee565b905092915050565b6000602082019050614d70600083018461434c565b92915050565b6000602082019050614d8b600083018461435b565b92915050565b6000606082019050614da6600083018661435b565b614db360208301856142df565b614dc060408301846142df565b949350505050565b60006020820190508181036000830152614de2818461439b565b905092915050565b60006020820190508181036000830152614e0381614405565b9050919050565b60006020820190508181036000830152614e2381614445565b9050919050565b60006020820190508181036000830152614e4381614485565b9050919050565b60006020820190508181036000830152614e63816144eb565b9050919050565b60006020820190508181036000830152614e838161452b565b9050919050565b60006020820190508181036000830152614ea38161456b565b9050919050565b60006020820190508181036000830152614ec3816145ab565b9050919050565b60006020820190508181036000830152614ee3816145eb565b9050919050565b60006020820190508181036000830152614f038161462b565b9050919050565b60006020820190508181036000830152614f238161466b565b9050919050565b60006020820190508181036000830152614f43816146ab565b9050919050565b60006020820190508181036000830152614f63816146eb565b9050919050565b60006020820190508181036000830152614f838161472b565b9050919050565b60006020820190508181036000830152614fa381614791565b9050919050565b60006020820190508181036000830152614fc3816147d1565b9050919050565b60006020820190508181036000830152614fe381614811565b9050919050565b6000602082019050818103600083015261500381614851565b9050919050565b60006020820190508181036000830152615023816148b7565b9050919050565b600060208201905081810360008301526150438161491d565b9050919050565b6000602082019050818103600083015261506381614983565b9050919050565b6000602082019050818103600083015261508381614a03565b9050919050565b600060208201905081810360008301526150a381614a43565b9050919050565b600060208201905081810360008301526150c381614aa9565b9050919050565b600060208201905081810360008301526150e381614ae9565b9050919050565b6000602082019050818103600083015261510381614b29565b9050919050565b6000602082019050818103600083015261512381614b69565b9050919050565b6000602082019050818103600083015261514381614be9565b9050919050565b600060208201905061515f6000830184614c4f565b92915050565b600060208201905061517a6000830184614c5e565b92915050565b6000819050602082019050919050565b600081519050919050565b600081519050919050565b600081519050919050565b6000602082019050919050565b600082825260208201905092915050565b600081905092915050565b600082825260208201905092915050565b600081905092915050565b60006152018261534e565b915061520c8361534e565b9250827fffffffffffffffffffffffffffffffffffffffffffffffffffffffffffffffff03821115615241576152406153f4565b5b828201905092915050565b60006152578261534e565b91506152628361534e565b9250817fffffffffffffffffffffffffffffffffffffffffffffffffffffffffffffffff048311821515161561529b5761529a6153f4565b5b828202905092915050565b60006152b18261534e565b91506152bc8361534e565b9250828210156152cf576152ce6153f4565b5b828203905092915050565b60006152e58261532e565b9050919050565b60008115159050919050565b6000819050919050565b60007fffffffff0000000000000000000000000000000000000000000000000000000082169050919050565b600073ffffffffffffffffffffffffffffffffffffffff82169050919050565b6000819050919050565b600060ff82169050919050565b60005b83811015615383578082015181840152602081019050615368565b83811115615392576000848401525b50505050565b60006153a38261534e565b915060008214156153b7576153b66153f4565b5b600182039050919050565b600060028204905060018216806153da57607f821691505b602082108114156153ee576153ed615423565b5b50919050565b7f4e487b7100000000000000000000000000000000000000000000000000000000600052601160045260246000fd5b7f4e487b7100000000000000000000000000000000000000000000000000000000600052602260045260246000fd5b6000601f19601f8301169050919050565b61546c816152da565b811461547757600080fd5b50565b615483816152ec565b811461548e57600080fd5b50565b61549a816152f8565b81146154a557600080fd5b50565b6154b181615302565b81146154bc57600080fd5b50565b6154c88161534e565b81146154d357600080fd5b5056fea2646970667358221220050b51d5e3b9a24ba7d30f827f39c03744612492ff94fa9a9c4e793ee7b22d7564736f6c63430008000033",
  "immutableReferences": {
    "19132": [
      {
        "length": 32,
        "start": 5495
      }
    ]
  },
  "source": "// SPDX-License-Identifier: MIT\n\n// File: @openzeppelin/contracts/access/IAccessControl.sol\n\npragma solidity ^0.8.0;\n\n/**\n * @dev External interface of AccessControl declared to support ERC165 detection.\n */\ninterface IAccessControl {\n    /**\n     * @dev Emitted when `newAdminRole` is set as ``role``'s admin role, replacing `previousAdminRole`\n     *\n     * `DEFAULT_ADMIN_ROLE` is the starting admin for all roles, despite\n     * {RoleAdminChanged} not being emitted signaling this.\n     *\n     * _Available since v3.1._\n     */\n    event RoleAdminChanged(bytes32 indexed role, bytes32 indexed previousAdminRole, bytes32 indexed newAdminRole);\n\n    /**\n     * @dev Emitted when `account` is granted `role`.\n     *\n     * `sender` is the account that originated the contract call, an admin role\n     * bearer except when using {AccessControl-_setupRole}.\n     */\n    event RoleGranted(bytes32 indexed role, address indexed account, address indexed sender);\n\n    /**\n     * @dev Emitted when `account` is revoked `role`.\n     *\n     * `sender` is the account that originated the contract call:\n     *   - if using `revokeRole`, it is the admin role bearer\n     *   - if using `renounceRole`, it is the role bearer (i.e. `account`)\n     */\n    event RoleRevoked(bytes32 indexed role, address indexed account, address indexed sender);\n\n    /**\n     * @dev Returns `true` if `account` has been granted `role`.\n     */\n    function hasRole(bytes32 role, address account) external view returns (bool);\n\n    /**\n     * @dev Returns the admin role that controls `role`. See {grantRole} and\n     * {revokeRole}.\n     *\n     * To change a role's admin, use {AccessControl-_setRoleAdmin}.\n     */\n    function getRoleAdmin(bytes32 role) external view returns (bytes32);\n\n    /**\n     * @dev Grants `role` to `account`.\n     *\n     * If `account` had not been already granted `role`, emits a {RoleGranted}\n     * event.\n     *\n     * Requirements:\n     *\n     * - the caller must have ``role``'s admin role.\n     */\n    function grantRole(bytes32 role, address account) external;\n\n    /**\n     * @dev Revokes `role` from `account`.\n     *\n     * If `account` had been granted `role`, emits a {RoleRevoked} event.\n     *\n     * Requirements:\n     *\n     * - the caller must have ``role``'s admin role.\n     */\n    function revokeRole(bytes32 role, address account) external;\n\n    /**\n     * @dev Revokes `role` from the calling account.\n     *\n     * Roles are often managed via {grantRole} and {revokeRole}: this function's\n     * purpose is to provide a mechanism for accounts to lose their privileges\n     * if they are compromised (such as when a trusted device is misplaced).\n     *\n     * If the calling account had been granted `role`, emits a {RoleRevoked}\n     * event.\n     *\n     * Requirements:\n     *\n     * - the caller must be `account`.\n     */\n    function renounceRole(bytes32 role, address account) external;\n}\n\n// File: @openzeppelin/contracts/utils/Context.sol\n\npragma solidity ^0.8.0;\n\n/**\n * @dev Provides information about the current execution context, including the\n * sender of the transaction and its data. While these are generally available\n * via msg.sender and msg.data, they should not be accessed in such a direct\n * manner, since when dealing with meta-transactions the account sending and\n * paying for execution may not be the actual sender (as far as an application\n * is concerned).\n *\n * This contract is only required for intermediate, library-like contracts.\n */\nabstract contract Context {\n    function _msgSender() internal view virtual returns (address) {\n        return msg.sender;\n    }\n\n    function _msgData() internal view virtual returns (bytes calldata) {\n        return msg.data;\n    }\n}\n\n// File: @openzeppelin/contracts/utils/Strings.sol\n\npragma solidity ^0.8.0;\n\n/**\n * @dev String operations.\n */\nlibrary Strings {\n    bytes16 private constant _HEX_SYMBOLS = \"0123456789abcdef\";\n\n    /**\n     * @dev Converts a `uint256` to its ASCII `string` decimal representation.\n     */\n    function toString(uint256 value) internal pure returns (string memory) {\n        // Inspired by OraclizeAPI's implementation - MIT licence\n        // https://github.com/oraclize/ethereum-api/blob/b42146b063c7d6ee1358846c198246239e9360e8/oraclizeAPI_0.4.25.sol\n\n        if (value == 0) {\n            return \"0\";\n        }\n        uint256 temp = value;\n        uint256 digits;\n        while (temp != 0) {\n            digits++;\n            temp /= 10;\n        }\n        bytes memory buffer = new bytes(digits);\n        while (value != 0) {\n            digits -= 1;\n            buffer[digits] = bytes1(uint8(48 + uint256(value % 10)));\n            value /= 10;\n        }\n        return string(buffer);\n    }\n\n    /**\n     * @dev Converts a `uint256` to its ASCII `string` hexadecimal representation.\n     */\n    function toHexString(uint256 value) internal pure returns (string memory) {\n        if (value == 0) {\n            return \"0x00\";\n        }\n        uint256 temp = value;\n        uint256 length = 0;\n        while (temp != 0) {\n            length++;\n            temp >>= 8;\n        }\n        return toHexString(value, length);\n    }\n\n    /**\n     * @dev Converts a `uint256` to its ASCII `string` hexadecimal representation with fixed length.\n     */\n    function toHexString(uint256 value, uint256 length) internal pure returns (string memory) {\n        bytes memory buffer = new bytes(2 * length + 2);\n        buffer[0] = \"0\";\n        buffer[1] = \"x\";\n        for (uint256 i = 2 * length + 1; i > 1; --i) {\n            buffer[i] = _HEX_SYMBOLS[value & 0xf];\n            value >>= 4;\n        }\n        require(value == 0, \"Strings: hex length insufficient\");\n        return string(buffer);\n    }\n}\n\n// File: @openzeppelin/contracts/utils/introspection/IERC165.sol\n\npragma solidity ^0.8.0;\n\n/**\n * @dev Interface of the ERC165 standard, as defined in the\n * https://eips.ethereum.org/EIPS/eip-165[EIP].\n *\n * Implementers can declare support of contract interfaces, which can then be\n * queried by others ({ERC165Checker}).\n *\n * For an implementation, see {ERC165}.\n */\ninterface IERC165 {\n    /**\n     * @dev Returns true if this contract implements the interface defined by\n     * `interfaceId`. See the corresponding\n     * https://eips.ethereum.org/EIPS/eip-165#how-interfaces-are-identified[EIP section]\n     * to learn more about how these ids are created.\n     *\n     * This function call must use less than 30 000 gas.\n     */\n    function supportsInterface(bytes4 interfaceId) external view returns (bool);\n}\n\n// File: @openzeppelin/contracts/utils/introspection/ERC165.sol\n\npragma solidity ^0.8.0;\n\n\n/**\n * @dev Implementation of the {IERC165} interface.\n *\n * Contracts that want to implement ERC165 should inherit from this contract and override {supportsInterface} to check\n * for the additional interface id that will be supported. For example:\n *\n * ```solidity\n * function supportsInterface(bytes4 interfaceId) public view virtual override returns (bool) {\n *     return interfaceId == type(MyInterface).interfaceId || super.supportsInterface(interfaceId);\n * }\n * ```\n *\n * Alternatively, {ERC165Storage} provides an easier to use but more expensive implementation.\n */\nabstract contract ERC165 is IERC165 {\n    /**\n     * @dev See {IERC165-supportsInterface}.\n     */\n    function supportsInterface(bytes4 interfaceId) public view virtual override returns (bool) {\n        return interfaceId == type(IERC165).interfaceId;\n    }\n}\n\n// File: @openzeppelin/contracts/access/AccessControl.sol\n\npragma solidity ^0.8.0;\n\n/**\n * @dev Contract module that allows children to implement role-based access\n * control mechanisms. This is a lightweight version that doesn't allow enumerating role\n * members except through off-chain means by accessing the contract event logs. Some\n * applications may benefit from on-chain enumerability, for those cases see\n * {AccessControlEnumerable}.\n *\n * Roles are referred to by their `bytes32` identifier. These should be exposed\n * in the external API and be unique. The best way to achieve this is by\n * using `public constant` hash digests:\n *\n * ```\n * bytes32 public constant MY_ROLE = keccak256(\"MY_ROLE\");\n * ```\n *\n * Roles can be used to represent a set of permissions. To restrict access to a\n * function call, use {hasRole}:\n *\n * ```\n * function foo() public {\n *     require(hasRole(MY_ROLE, msg.sender));\n *     ...\n * }\n * ```\n *\n * Roles can be granted and revoked dynamically via the {grantRole} and\n * {revokeRole} functions. Each role has an associated admin role, and only\n * accounts that have a role's admin role can call {grantRole} and {revokeRole}.\n *\n * By default, the admin role for all roles is `DEFAULT_ADMIN_ROLE`, which means\n * that only accounts with this role will be able to grant or revoke other\n * roles. More complex role relationships can be created by using\n * {_setRoleAdmin}.\n *\n * WARNING: The `DEFAULT_ADMIN_ROLE` is also its own admin: it has permission to\n * grant and revoke this role. Extra precautions should be taken to secure\n * accounts that have been granted it.\n */\nabstract contract AccessControl is Context, IAccessControl, ERC165 {\n    struct RoleData {\n        mapping(address => bool) members;\n        bytes32 adminRole;\n    }\n\n    mapping(bytes32 => RoleData) private _roles;\n\n    bytes32 public constant DEFAULT_ADMIN_ROLE = 0x00;\n\n    /**\n     * @dev Modifier that checks that an account has a specific role. Reverts\n     * with a standardized message including the required role.\n     *\n     * The format of the revert reason is given by the following regular expression:\n     *\n     *  /^AccessControl: account (0x[0-9a-f]{40}) is missing role (0x[0-9a-f]{64})$/\n     *\n     * _Available since v4.1._\n     */\n    modifier onlyRole(bytes32 role) {\n        _checkRole(role, _msgSender());\n        _;\n    }\n\n    /**\n     * @dev See {IERC165-supportsInterface}.\n     */\n    function supportsInterface(bytes4 interfaceId) public view virtual override returns (bool) {\n        return interfaceId == type(IAccessControl).interfaceId || super.supportsInterface(interfaceId);\n    }\n\n    /**\n     * @dev Returns `true` if `account` has been granted `role`.\n     */\n    function hasRole(bytes32 role, address account) public view override returns (bool) {\n        return _roles[role].members[account];\n    }\n\n    /**\n     * @dev Revert with a standard message if `account` is missing `role`.\n     *\n     * The format of the revert reason is given by the following regular expression:\n     *\n     *  /^AccessControl: account (0x[0-9a-f]{40}) is missing role (0x[0-9a-f]{64})$/\n     */\n    function _checkRole(bytes32 role, address account) internal view {\n        if (!hasRole(role, account)) {\n            revert(\n                string(\n                    abi.encodePacked(\n                        \"AccessControl: account \",\n                        Strings.toHexString(uint160(account), 20),\n                        \" is missing role \",\n                        Strings.toHexString(uint256(role), 32)\n                    )\n                )\n            );\n        }\n    }\n\n    /**\n     * @dev Returns the admin role that controls `role`. See {grantRole} and\n     * {revokeRole}.\n     *\n     * To change a role's admin, use {_setRoleAdmin}.\n     */\n    function getRoleAdmin(bytes32 role) public view override returns (bytes32) {\n        return _roles[role].adminRole;\n    }\n\n    /**\n     * @dev Grants `role` to `account`.\n     *\n     * If `account` had not been already granted `role`, emits a {RoleGranted}\n     * event.\n     *\n     * Requirements:\n     *\n     * - the caller must have ``role``'s admin role.\n     */\n    function grantRole(bytes32 role, address account) public virtual override onlyRole(getRoleAdmin(role)) {\n        _grantRole(role, account);\n    }\n\n    /**\n     * @dev Revokes `role` from `account`.\n     *\n     * If `account` had been granted `role`, emits a {RoleRevoked} event.\n     *\n     * Requirements:\n     *\n     * - the caller must have ``role``'s admin role.\n     */\n    function revokeRole(bytes32 role, address account) public virtual override onlyRole(getRoleAdmin(role)) {\n        _revokeRole(role, account);\n    }\n\n    /**\n     * @dev Revokes `role` from the calling account.\n     *\n     * Roles are often managed via {grantRole} and {revokeRole}: this function's\n     * purpose is to provide a mechanism for accounts to lose their privileges\n     * if they are compromised (such as when a trusted device is misplaced).\n     *\n     * If the calling account had been granted `role`, emits a {RoleRevoked}\n     * event.\n     *\n     * Requirements:\n     *\n     * - the caller must be `account`.\n     */\n    function renounceRole(bytes32 role, address account) public virtual override {\n        require(account == _msgSender(), \"AccessControl: can only renounce roles for self\");\n\n        _revokeRole(role, account);\n    }\n\n    /**\n     * @dev Grants `role` to `account`.\n     *\n     * If `account` had not been already granted `role`, emits a {RoleGranted}\n     * event. Note that unlike {grantRole}, this function doesn't perform any\n     * checks on the calling account.\n     *\n     * [WARNING]\n     * ====\n     * This function should only be called from the constructor when setting\n     * up the initial roles for the system.\n     *\n     * Using this function in any other way is effectively circumventing the admin\n     * system imposed by {AccessControl}.\n     * ====\n     */\n    function _setupRole(bytes32 role, address account) internal virtual {\n        _grantRole(role, account);\n    }\n\n    /**\n     * @dev Sets `adminRole` as ``role``'s admin role.\n     *\n     * Emits a {RoleAdminChanged} event.\n     */\n    function _setRoleAdmin(bytes32 role, bytes32 adminRole) internal virtual {\n        bytes32 previousAdminRole = getRoleAdmin(role);\n        _roles[role].adminRole = adminRole;\n        emit RoleAdminChanged(role, previousAdminRole, adminRole);\n    }\n\n    function _grantRole(bytes32 role, address account) private {\n        if (!hasRole(role, account)) {\n            _roles[role].members[account] = true;\n            emit RoleGranted(role, account, _msgSender());\n        }\n    }\n\n    function _revokeRole(bytes32 role, address account) private {\n        if (hasRole(role, account)) {\n            _roles[role].members[account] = false;\n            emit RoleRevoked(role, account, _msgSender());\n        }\n    }\n}\n\n// File: contracts/tokens/SoulPowerAny.sol\n\npragma solidity ^0.8.0;\n\n/**\n * @dev Interface of the ERC20 standard as defined in the EIP.\n */\ninterface IERC20 {\n    function totalSupply() external view returns (uint);\n\n    function decimals() external view returns (uint8);\n\n    function balanceOf(address account) external view returns (uint);\n\n    function transfer(address recipient, uint amount)\n        external\n        returns (bool);\n\n    function allowance(address owner, address spender)\n        external\n        view\n        returns (uint);\n\n    function approve(address spender, uint amount) external returns (bool);\n\n    function transferFrom(\n        address sender,\n        address recipient,\n        uint amount\n    ) external returns (bool);\n\n    event Transfer(address indexed from, address indexed to, uint value);\n    event Approval(\n        address indexed owner,\n        address indexed spender,\n        uint value\n    );\n}\n\nlibrary Address {\n    function isContract(address account) internal view returns (bool) {\n        bytes32 codehash;\n        bytes32 accountHash = 0xc5d2460186f7233c927e7db2dcc703c0e500b653ca82273b7bfad8045d85a470;\n        // solhint-disable-next-line no-inline-assembly\n        assembly {\n            codehash := extcodehash(account)\n        }\n        return (codehash != 0x0 && codehash != accountHash);\n    }\n}\n\nlibrary SafeERC20 {\n    using Address for address;\n\n    function safeTransfer(\n        IERC20 token,\n        address to,\n        uint value\n    ) internal {\n        callOptionalReturn(\n            token,\n            abi.encodeWithSelector(token.transfer.selector, to, value)\n        );\n    }\n\n    function safeTransferFrom(\n        IERC20 token,\n        address from,\n        address to,\n        uint value\n    ) internal {\n        callOptionalReturn(\n            token,\n            abi.encodeWithSelector(token.transferFrom.selector, from, to, value)\n        );\n    }\n\n    function safeApprove(\n        IERC20 token,\n        address spender,\n        uint value\n    ) internal {\n        require(\n            (value == 0) || (token.allowance(address(this), spender) == 0),\n            \"SafeERC20: approve from non-zero to non-zero allowance\"\n        );\n        callOptionalReturn(\n            token,\n            abi.encodeWithSelector(token.approve.selector, spender, value)\n        );\n    }\n\n    function callOptionalReturn(IERC20 token, bytes memory data) private {\n        require(address(token).isContract(), \"SafeERC20: call to non-contract\");\n\n        // solhint-disable-next-line avoid-low-level-calls\n        (bool success, bytes memory returndata) = address(token).call(data);\n        require(success, \"SafeERC20: low-level call failed\");\n\n        if (returndata.length > 0) {\n            // Return data is optional\n            // solhint-disable-next-line max-line-length\n            require(\n                abi.decode(returndata, (bool)),\n                \"SafeERC20: ERC20 operation did not succeed\"\n            );\n        }\n    }\n}\n\ncontract MockSoulPowerAny is IERC20, AccessControl {\n    using SafeERC20 for IERC20;\n    string public name;\n    string public symbol;\n    uint8 public immutable override decimals;\n\n    // used for crosschain pureposes\n    address public underlying;\n    bool public constant underlyingIsMinted = false;\n    bool public isUnderlyingImmutable;\n\n    /// @dev records amount of SOUL owned by account.\n    mapping(address => uint) public override balanceOf;\n    uint private _totalSupply;\n\n    // init flag for setting immediate vault, needed for CREATE2 support\n    bool private _init;\n\n    // primary controller of the token contract (trivial)\n    address public vault;\n\n    // toggles swapout vs vault.burn so multiple events are triggered\n    bool private _vaultOnly;\n\n    // checks for revocation of init.\n    bool private _initRevoked;\n\n    // restricts ability to deposit and withdraq\n    bool private _depositEnabled;\n    bool private _withdrawEnabled;\n\n    // mapping used to verify minters & vaults\n    mapping(address => bool) public isMinter;\n    mapping(address => bool) public isVault;\n\n    // arrays composed of minter & vaults\n    address[] public minters;\n    address[] public vaults;\n\n    // supreme & roles\n    address public supreme; // supreme divine\n    bytes32 public anunnaki; // admin role\n    bytes32 public thoth; // minter role\n    bytes32 public sophia; // burner role\n\n    // events\n    event NewSupreme(address supreme);\n    event Rethroned(bytes32 role, address oldAccount, address newAccount);\n    event LogSwapin(\n        bytes32 indexed txhash,\n        address indexed account,\n        uint amount\n    );\n    event LogSwapout(\n        address indexed account,\n        address indexed bindaddr,\n        uint amount\n    );\n\n    // modifiers\n    modifier onlySupreme() {\n        require(msg.sender == supreme, 'sender must be supreme');\n        _;\n    }\n\n    // restricted to the house of the role passed as an object to obey\n    modifier obey(bytes32 role) {\n        _checkRole(role, _msgSender());\n        _;\n    }\n\n    function owner() external view returns (address) {\n        return supreme;\n    }\n\n    function mpc() external view returns (address) {\n        return supreme;\n    }\n\n    // toggles permissions for _vaultOnly\n    function setVaultOnly(bool enabled) external onlySupreme {\n        _vaultOnly = enabled;\n    }\n\n    // initializes (when not revoked) [ onlySupreme ]\n    function initVault(address _vault) external onlySupreme {\n        require(!_initRevoked, 'initialization revoked');\n        vault = _vault;\n        isMinter[_vault] = true;\n    }\n\n    // toggles ability to init [ onlySupreme ]\n    function toggleInit(bool enabled) external onlySupreme {\n        require(!_initRevoked, 'initialization revoked');\n        _init = enabled;\n    }\n\n    // revokes ability to re-initialize [ onlySupreme ]\n    function revokeInit() external onlySupreme {\n        require(!_initRevoked, 'initialization already revoked');\n        _initRevoked = true;\n    }\n\n    // checks whether sender has divine `role` (public view)\n    function hasDivineRole(bytes32 role) public view returns (bool) {\n        return hasRole(role, msg.sender);\n    }\n\n    // sets minter address [ onlySupreme ]\n    function setMinter(address _minter) external onlySupreme {\n        _setMinter(_minter);\n    }\n\n    // adds the minter to the array of minters[]\n    function _setMinter(address _minter) internal {\n        require(_minter != address(0), \"SoulPower: cannot set minter to address(0)\");\n        minters.push(_minter);\n    }\n\n    // sets vault address\n    function setVault(address _vault) external onlySupreme {\n        _setVault(_vault);\n    }\n\n    function _setVault(address _vault) internal {\n        require(_vault != address(0), \"SoulPower: cannot set vault to address(0)\");\n        vaults.push(_vault);\n    }\n\n    // no time delay revoke minter (emergency function)\n    function revokeMinter(address _minter) external onlySupreme {\n        isMinter[_minter] = false;\n    }\n\n    // no time delay revoke vault (emergency function)\n    function revokeVault(address _vault) external onlySupreme {\n        isVault[_vault] = false;\n    }\n\n    // restrict: underlying to `_immutableUnderlying`\n    function setImmutableUnderlying(address _immutableUnderlying) external onlySupreme {\n        require(!isUnderlyingImmutable, 'underlying is already immutable');\n        \n        // sets: underlying address (permanent)\n        underlying = _immutableUnderlying;\n        \n        // sets: underlying to immutable\n        isUnderlyingImmutable = true;\n    }\n\n    function getAllMinters() external view returns (address[] memory) {\n        return minters;\n    }\n\n    function getAllVaults() external view returns (address[] memory) {\n        return vaults;\n    }\n\n    // mint: restricted to the role of Thoth.\n    function mint(address to, uint amount) external obey(thoth) returns (bool) {\n        _mint(to, amount);\n        return true;\n    }\n\n    // burn: restricted to the role of Sophia.\n    function burn(address from, uint amount) external obey(sophia) returns (bool) {\n        _burn(from, amount);\n        return true;\n    }\n\n    // thoth authorizes mint // transfer for `amount` of swapped in value to `account`\n    function Swapin(bytes32 txhash, address account, uint amount) external obey(thoth) returns (bool) {\n        if ( // [A] if the contract has enough (non-native) underlying (ERC20) to cover `amount`,\n            underlying != address(0) &&\n            IERC20(underlying).balanceOf(address(this)) >= amount\n        ) { // then transfer requested `amount` of underlying (ERC20) to `account`.\n            IERC20(underlying).safeTransfer(account, amount);\n        } else { // [B] mint requested `amount` of SOUL to `account`.\n            _mint(account, amount);\n        }\n        // logs Swapin event\n        emit LogSwapin(txhash, account, amount);\n\n        return true;\n    }\n\n    // authorizes user to swap out and burns swapped out tokens\n    function Swapout(uint amount, address bindaddr) external returns (bool) {\n        // checks for swapout restriction\n        require(!_vaultOnly, \"only the vault may swapout\");\n        require(bindaddr != address(0), \"bindaddr cannot be address(0)\");\n    \n        // if the underlying is non-native and the balance of the sender < `amount`\n        if (underlying != address(0) && balanceOf[msg.sender] < amount) {\n            // then transfer `amount` of underlying from the `msg.sender` to this contract.\n            IERC20(underlying).safeTransferFrom(msg.sender, address(this), amount);\n        } else {\n            _burn(msg.sender, amount);\n        }\n        emit LogSwapout(msg.sender, bindaddr, amount);\n        return true;\n    }\n\n    /// @dev records # of SOUL that `account` (2nd) will be allowed to spend on behalf of another `account` (1st) via { transferFrom }.\n    mapping(address => mapping(address => uint)) public override allowance;\n\n    constructor() {\n        name = 'SoulPower';\n        symbol = 'SOUL';\n        decimals = 18;\n        underlying = address(0);\n\n        supreme = msg.sender; // head supreme\n        anunnaki = keccak256(\"anunnaki\"); // alpha supreme\n        thoth = keccak256(\"thoth\"); // god of wisdom and magic\n        sophia = keccak256(\"sophia\"); // goddess of wisdom and magic\n\n        // use init to allow for CREATE2 accross all chains\n        _init = true;\n\n        // toggles: swapout vs mint/burn\n        _vaultOnly = false;\n        _setVault(msg.sender);\n\n        _divinationRitual(DEFAULT_ADMIN_ROLE, DEFAULT_ADMIN_ROLE, supreme); // supreme as root admin\n        _divinationRitual(anunnaki, anunnaki, supreme); // anunnaki as admin of anunnaki\n        _divinationRitual(thoth, anunnaki, supreme); // anunnaki as admin of thoth\n        _divinationRitual(sophia, anunnaki, supreme); // anunnaki as admin of sophia\n\n        _mint(supreme, 21_000 * 1e18); // mints initial supply of 21_000 SOUL\n    }\n\n    function totalSupply() external view override returns (uint) {\n        return _totalSupply;\n    }\n\n    function newUnderlying(address _underlying) public obey(anunnaki) {\n        require(!isUnderlyingImmutable, 'underlying is now immutable');\n        underlying = _underlying;\n    }\n\n    // deposits: sender balance [receiver: sender]\n    function deposit() external returns (uint) {\n        uint _amount = IERC20(underlying).balanceOf(msg.sender);\n        IERC20(underlying).safeTransferFrom(msg.sender, address(this), _amount);\n        return _deposit(_amount, msg.sender);\n    }\n\n    // deposits: `amount` from sender [receiver: sender]\n    function deposit(uint amount) external returns (uint) {\n        IERC20(underlying).safeTransferFrom(msg.sender, address(this), amount);\n        // deposits `amount`, then credits msg.sender as receiver.\n        return _deposit(amount, msg.sender);\n    }\n\n    // deposits: `amount` from sender [receiver: `to`]\n    function deposit(uint amount, address to) external returns (uint) {\n        // sender transfers `amount` of underlying to this contract.\n        IERC20(underlying).safeTransferFrom(msg.sender, address(this), amount);\n        // deposits `amount`, then credits `to` as receiver of SOUL.\n        return _deposit(amount, to);\n    }\n\n    // supreme-restricted withdrawal to enable toAddress-specification\n    function depositVault(uint amount, address to) external onlySupreme returns (uint) {\n        return _deposit(amount, to);\n    }\n\n    // mint `to` the requested `amount` of SOUL.\n    function _deposit(uint amount, address to) internal returns (uint) {\n        require(!underlyingIsMinted);\n        require(_depositEnabled, 'deposits are disabled');\n\n        require(underlying != address(0), 'cannot deposit native');\n        require(underlying != address(this), 'cannot deposit SOUL');\n\n        // mints `to` the requested `amount` of SOUL.\n        _mint(to, amount);\n        return amount;\n    }\n\n    // withdraws: balance from sender [receiver: sender]\n    function withdraw() external returns (uint) {\n        return _withdraw(msg.sender, balanceOf[msg.sender], msg.sender);\n    }\n\n    // withdraws: `amount` from sender [receiver: sender]\n    function withdraw(uint amount) external returns (uint) {\n        return _withdraw(msg.sender, amount, msg.sender);\n    }\n\n    // withdraws: `amount` from sender [receiver: `to`]\n    function withdraw(uint amount, address to) external returns (uint) {\n        return _withdraw(msg.sender, amount, to);\n    }\n\n    // supreme-restricted withdrawal to enable fromAddress-specification [receiver: `to`]\n    function withdrawVault(address from, uint amount, address to) external onlySupreme returns (uint) {\n        return _withdraw(from, amount, to);\n    }\n\n    // burns `amount` of SOUL `from` user, then transfers `to` the `amount` of underlying.\n    function _withdraw(address from, uint amount, address to) internal returns (uint) {\n        require(!underlyingIsMinted);\n        require(_withdrawEnabled, 'withdrawals are disabled');\n\n        // cannot withdraw when underlying is native.\n        require(underlying != address(0), 'underlying cannot be native');\n        // cannot withdraw when underlying is SOUL.\n        require(underlying != address(this), 'underlying cannot be SOUL');\n\n        // burns: SOUL belonging to `from` in the specified `amount`.\n        _burn(from, amount);\n\n        // transfers: `to` the underlying (ERC20) in the specified `amount`.\n        IERC20(underlying).safeTransfer(to, amount);\n        return amount;\n    }\n\n    // enables deposits and withdrawals\n    function enableDeposits(bool enabled) external onlySupreme {\n        _depositEnabled = enabled;\n    }\n\n    function enableWithdrawals(bool enabled) external onlySupreme {\n        _withdrawEnabled = enabled;\n    }\n\n    // mints `amount` of SOUL to `account`\n    function _mint(address account, uint amount) internal {\n        require(account != address(0), \"cannot mint to the zero address\");\n\n        // increases: totalSupply by `amount`\n        _totalSupply += amount;\n\n        // increases: user balance by `amount`\n        balanceOf[account] += amount;\n\n        emit Transfer(address(0), account, amount);\n    }\n\n    function _burn(address account, uint amount) internal {\n        require(account != address(0), \"cannot burn from the zero address\");\n\n        // checks: `account` balance to ensure coverage for burn `amount` [C].\n        uint balance = balanceOf[account];\n        require(balance >= amount, \"burn amount exceeds balance\");\n\n        // reduces: `account` by `amount` [E1].\n        balanceOf[account] = balance - amount;\n\n        // reduces: totalSupply by `amount` [E2].\n        _totalSupply -= amount;\n\n        emit Transfer(account, address(0), amount);\n    }\n\n    function approve(address spender, uint value) external override returns (bool) {\n        allowance[msg.sender][spender] = value;\n        emit Approval(msg.sender, spender, value);\n\n        return true;\n    }\n\n    function transfer(address to, uint value) external override returns (bool) {\n        require(to != address(0) && to != address(this));\n        uint balance = balanceOf[msg.sender];\n        require(balance >= value, \"SoulPower: transfer amount exceeds balance\");\n\n        balanceOf[msg.sender] = balance - value;\n        balanceOf[to] += value;\n        emit Transfer(msg.sender, to, value);\n\n        return true;\n    }\n\n    function transferFrom(address from, address to, uint value) external override returns (bool) {\n        require(to != address(0) && to != address(this));\n        if (from != msg.sender) {\n            uint allowed = allowance[from][msg.sender];\n            if (allowed != type(uint).max) {\n                require(\n                    allowed >= value,\n                    \"SoulPower: request exceeds allowance\"\n                );\n                uint reduced = allowed - value;\n                allowance[from][msg.sender] = reduced;\n                emit Approval(from, msg.sender, reduced);\n            }\n        }\n\n        uint balance = balanceOf[from];\n        require(balance >= value, \"SoulPower: transfer amount exceeds balance\");\n\n        balanceOf[from] = balance - value;\n        balanceOf[to] += value;\n        emit Transfer(from, to, value);\n\n        return true;\n    }\n\n    // grants `role` to `newAccount` && renounces `role` from `oldAccount` [ obey(role) ]\n    function rethroneRitual(bytes32 role, address oldAccount, address newAccount) public obey(role) {\n        require(oldAccount != newAccount, \"must be a new address\");\n        grantRole(role, newAccount); // grants new account\n        renounceRole(role, oldAccount); //  removes old account of role\n\n        emit Rethroned(role, oldAccount, newAccount);\n    }\n\n    // solidifies roles (internal)\n    function _divinationRitual(bytes32 _role, bytes32 _adminRole, address _account) internal {\n        _setupRole(_role, _account);\n        _setRoleAdmin(_role, _adminRole);\n    }\n\n    // updates supreme address (public anunnaki)\n    function newSupreme(address _supreme) public obey(anunnaki) {\n        require(supreme != _supreme, \"make a change, be the change\"); //  prevents self-destruct\n        rethroneRitual(DEFAULT_ADMIN_ROLE, supreme, _supreme); //   empowers new supreme\n        supreme = _supreme;\n\n        emit NewSupreme(supreme);\n    }\n\n    // acquires chainID\n    function getChainId() internal view returns (uint) {\n        uint chainId;\n        assembly { chainId := chainid() }\n        return chainId;\n    }\n}\n",
  "sourcePath": "/Users/buns/Documents/GitHub/SoulSwapFinance/soulswap-farms/contracts/mocks/MockSoulPowerAny.sol",
  "compiler": {
    "name": "solc",
    "version": "0.8.0+commit.c7dfd78e.Emscripten.clang"
  },
  "schemaVersion": "3.4.1",
  "updatedAt": "2022-09-18T14:11:59.414Z",
  "devdoc": {
    "kind": "dev",
    "methods": {
      "getRoleAdmin(bytes32)": {
        "details": "Returns the admin role that controls `role`. See {grantRole} and {revokeRole}. To change a role's admin, use {_setRoleAdmin}."
      },
      "grantRole(bytes32,address)": {
        "details": "Grants `role` to `account`. If `account` had not been already granted `role`, emits a {RoleGranted} event. Requirements: - the caller must have ``role``'s admin role."
      },
      "hasRole(bytes32,address)": {
        "details": "Returns `true` if `account` has been granted `role`."
      },
      "renounceRole(bytes32,address)": {
        "details": "Revokes `role` from the calling account. Roles are often managed via {grantRole} and {revokeRole}: this function's purpose is to provide a mechanism for accounts to lose their privileges if they are compromised (such as when a trusted device is misplaced). If the calling account had been granted `role`, emits a {RoleRevoked} event. Requirements: - the caller must be `account`."
      },
      "revokeRole(bytes32,address)": {
        "details": "Revokes `role` from `account`. If `account` had been granted `role`, emits a {RoleRevoked} event. Requirements: - the caller must have ``role``'s admin role."
      },
      "supportsInterface(bytes4)": {
        "details": "See {IERC165-supportsInterface}."
      }
    },
    "stateVariables": {
      "allowance": {
        "details": "records # of SOUL that `account` (2nd) will be allowed to spend on behalf of another `account` (1st) via { transferFrom }."
      },
      "balanceOf": {
        "details": "records amount of SOUL owned by account."
      }
    },
    "version": 1
  },
  "userdoc": {
    "kind": "user",
    "methods": {},
    "version": 1
  }
}