{
  "contractName": "MockSoulSummoner",
  "abi": [
    {
      "inputs": [],
      "stateMutability": "nonpayable",
      "type": "constructor"
    },
    {
      "anonymous": false,
      "inputs": [
        {
          "indexed": false,
          "internalType": "address",
          "name": "dao",
          "type": "address"
        },
        {
          "indexed": false,
          "internalType": "address",
          "name": "team",
          "type": "address"
        }
      ],
      "name": "AccountsUpdated",
      "type": "event"
    },
    {
      "anonymous": false,
      "inputs": [
        {
          "indexed": true,
          "internalType": "address",
          "name": "user",
          "type": "address"
        },
        {
          "indexed": true,
          "internalType": "uint256",
          "name": "pid",
          "type": "uint256"
        },
        {
          "indexed": false,
          "internalType": "uint256",
          "name": "amount",
          "type": "uint256"
        }
      ],
      "name": "Deposit",
      "type": "event"
    },
    {
      "anonymous": false,
      "inputs": [
        {
          "indexed": false,
          "internalType": "uint256",
          "name": "_pid",
          "type": "uint256"
        },
        {
          "indexed": false,
          "internalType": "address",
          "name": "_user",
          "type": "address"
        },
        {
          "indexed": false,
          "internalType": "uint256",
          "name": "_time",
          "type": "uint256"
        }
      ],
      "name": "DepositRevised",
      "type": "event"
    },
    {
      "anonymous": false,
      "inputs": [
        {
          "indexed": false,
          "internalType": "address",
          "name": "team",
          "type": "address"
        },
        {
          "indexed": false,
          "internalType": "address",
          "name": "dao",
          "type": "address"
        },
        {
          "indexed": false,
          "internalType": "address",
          "name": "soul",
          "type": "address"
        },
        {
          "indexed": false,
          "internalType": "address",
          "name": "seance",
          "type": "address"
        },
        {
          "indexed": false,
          "internalType": "uint256",
          "name": "totalAllocPoint",
          "type": "uint256"
        },
        {
          "indexed": false,
          "internalType": "uint256",
          "name": "weight",
          "type": "uint256"
        }
      ],
      "name": "Initialized",
      "type": "event"
    },
    {
      "anonymous": false,
      "inputs": [
        {
          "indexed": false,
          "internalType": "address",
          "name": "account",
          "type": "address"
        }
      ],
      "name": "Paused",
      "type": "event"
    },
    {
      "anonymous": false,
      "inputs": [
        {
          "indexed": false,
          "internalType": "uint256",
          "name": "pid",
          "type": "uint256"
        },
        {
          "indexed": false,
          "internalType": "uint256",
          "name": "allocPoint",
          "type": "uint256"
        },
        {
          "indexed": false,
          "internalType": "contract IERC20",
          "name": "lpToken",
          "type": "address"
        },
        {
          "indexed": false,
          "internalType": "uint256",
          "name": "totalAllocPoint",
          "type": "uint256"
        }
      ],
      "name": "PoolAdded",
      "type": "event"
    },
    {
      "anonymous": false,
      "inputs": [
        {
          "indexed": false,
          "internalType": "uint256",
          "name": "pid",
          "type": "uint256"
        },
        {
          "indexed": false,
          "internalType": "uint256",
          "name": "allocPoint",
          "type": "uint256"
        }
      ],
      "name": "PoolSet",
      "type": "event"
    },
    {
      "anonymous": false,
      "inputs": [
        {
          "indexed": false,
          "internalType": "uint256",
          "name": "dailySoul",
          "type": "uint256"
        },
        {
          "indexed": false,
          "internalType": "uint256",
          "name": "soulPerSecond",
          "type": "uint256"
        }
      ],
      "name": "RewardsUpdated",
      "type": "event"
    },
    {
      "anonymous": false,
      "inputs": [
        {
          "indexed": true,
          "internalType": "bytes32",
          "name": "role",
          "type": "bytes32"
        },
        {
          "indexed": true,
          "internalType": "bytes32",
          "name": "previousAdminRole",
          "type": "bytes32"
        },
        {
          "indexed": true,
          "internalType": "bytes32",
          "name": "newAdminRole",
          "type": "bytes32"
        }
      ],
      "name": "RoleAdminChanged",
      "type": "event"
    },
    {
      "anonymous": false,
      "inputs": [
        {
          "indexed": false,
          "internalType": "bytes32",
          "name": "role",
          "type": "bytes32"
        },
        {
          "indexed": false,
          "internalType": "bytes32",
          "name": "supreme",
          "type": "bytes32"
        }
      ],
      "name": "RoleDivinated",
      "type": "event"
    },
    {
      "anonymous": false,
      "inputs": [
        {
          "indexed": true,
          "internalType": "bytes32",
          "name": "role",
          "type": "bytes32"
        },
        {
          "indexed": true,
          "internalType": "address",
          "name": "account",
          "type": "address"
        },
        {
          "indexed": true,
          "internalType": "address",
          "name": "sender",
          "type": "address"
        }
      ],
      "name": "RoleGranted",
      "type": "event"
    },
    {
      "anonymous": false,
      "inputs": [
        {
          "indexed": true,
          "internalType": "bytes32",
          "name": "role",
          "type": "bytes32"
        },
        {
          "indexed": true,
          "internalType": "address",
          "name": "account",
          "type": "address"
        },
        {
          "indexed": true,
          "internalType": "address",
          "name": "sender",
          "type": "address"
        }
      ],
      "name": "RoleRevoked",
      "type": "event"
    },
    {
      "anonymous": false,
      "inputs": [
        {
          "indexed": false,
          "internalType": "uint256",
          "name": "startRate",
          "type": "uint256"
        }
      ],
      "name": "StartRateUpdated",
      "type": "event"
    },
    {
      "anonymous": false,
      "inputs": [
        {
          "indexed": false,
          "internalType": "address",
          "name": "soul",
          "type": "address"
        },
        {
          "indexed": false,
          "internalType": "address",
          "name": "seance",
          "type": "address"
        }
      ],
      "name": "TokensUpdated",
      "type": "event"
    },
    {
      "anonymous": false,
      "inputs": [
        {
          "indexed": false,
          "internalType": "address",
          "name": "account",
          "type": "address"
        }
      ],
      "name": "Unpaused",
      "type": "event"
    },
    {
      "anonymous": false,
      "inputs": [
        {
          "indexed": false,
          "internalType": "uint256",
          "name": "weight",
          "type": "uint256"
        },
        {
          "indexed": false,
          "internalType": "uint256",
          "name": "totalWeight",
          "type": "uint256"
        }
      ],
      "name": "WeightUpdated",
      "type": "event"
    },
    {
      "anonymous": false,
      "inputs": [
        {
          "indexed": true,
          "internalType": "address",
          "name": "user",
          "type": "address"
        },
        {
          "indexed": true,
          "internalType": "uint256",
          "name": "pid",
          "type": "uint256"
        },
        {
          "indexed": false,
          "internalType": "uint256",
          "name": "amount",
          "type": "uint256"
        },
        {
          "indexed": false,
          "internalType": "uint256",
          "name": "timeStamp",
          "type": "uint256"
        }
      ],
      "name": "Withdraw",
      "type": "event"
    },
    {
      "inputs": [],
      "name": "DEFAULT_ADMIN_ROLE",
      "outputs": [
        {
          "internalType": "bytes32",
          "name": "",
          "type": "bytes32"
        }
      ],
      "stateMutability": "view",
      "type": "function"
    },
    {
      "inputs": [],
      "name": "bonusMultiplier",
      "outputs": [
        {
          "internalType": "uint256",
          "name": "",
          "type": "uint256"
        }
      ],
      "stateMutability": "view",
      "type": "function"
    },
    {
      "inputs": [],
      "name": "dailyDecay",
      "outputs": [
        {
          "internalType": "uint256",
          "name": "",
          "type": "uint256"
        }
      ],
      "stateMutability": "view",
      "type": "function"
    },
    {
      "inputs": [],
      "name": "dailySoul",
      "outputs": [
        {
          "internalType": "uint256",
          "name": "",
          "type": "uint256"
        }
      ],
      "stateMutability": "view",
      "type": "function"
    },
    {
      "inputs": [],
      "name": "dao",
      "outputs": [
        {
          "internalType": "address",
          "name": "",
          "type": "address"
        }
      ],
      "stateMutability": "view",
      "type": "function"
    },
    {
      "inputs": [
        {
          "internalType": "bytes32",
          "name": "role",
          "type": "bytes32"
        }
      ],
      "name": "getRoleAdmin",
      "outputs": [
        {
          "internalType": "bytes32",
          "name": "",
          "type": "bytes32"
        }
      ],
      "stateMutability": "view",
      "type": "function"
    },
    {
      "inputs": [
        {
          "internalType": "bytes32",
          "name": "role",
          "type": "bytes32"
        },
        {
          "internalType": "address",
          "name": "account",
          "type": "address"
        }
      ],
      "name": "grantRole",
      "outputs": [],
      "stateMutability": "nonpayable",
      "type": "function"
    },
    {
      "inputs": [
        {
          "internalType": "bytes32",
          "name": "role",
          "type": "bytes32"
        },
        {
          "internalType": "address",
          "name": "account",
          "type": "address"
        }
      ],
      "name": "hasRole",
      "outputs": [
        {
          "internalType": "bool",
          "name": "",
          "type": "bool"
        }
      ],
      "stateMutability": "view",
      "type": "function"
    },
    {
      "inputs": [],
      "name": "isInitialized",
      "outputs": [
        {
          "internalType": "bool",
          "name": "",
          "type": "bool"
        }
      ],
      "stateMutability": "view",
      "type": "function"
    },
    {
      "inputs": [],
      "name": "isis",
      "outputs": [
        {
          "internalType": "bytes32",
          "name": "",
          "type": "bytes32"
        }
      ],
      "stateMutability": "view",
      "type": "function"
    },
    {
      "inputs": [],
      "name": "maat",
      "outputs": [
        {
          "internalType": "bytes32",
          "name": "",
          "type": "bytes32"
        }
      ],
      "stateMutability": "view",
      "type": "function"
    },
    {
      "inputs": [],
      "name": "migrator",
      "outputs": [
        {
          "internalType": "contract IMigrator",
          "name": "",
          "type": "address"
        }
      ],
      "stateMutability": "view",
      "type": "function"
    },
    {
      "inputs": [],
      "name": "paused",
      "outputs": [
        {
          "internalType": "bool",
          "name": "",
          "type": "bool"
        }
      ],
      "stateMutability": "view",
      "type": "function"
    },
    {
      "inputs": [
        {
          "internalType": "uint256",
          "name": "",
          "type": "uint256"
        }
      ],
      "name": "poolInfo",
      "outputs": [
        {
          "internalType": "contract IERC20",
          "name": "lpToken",
          "type": "address"
        },
        {
          "internalType": "uint256",
          "name": "allocPoint",
          "type": "uint256"
        },
        {
          "internalType": "uint256",
          "name": "lastRewardTime",
          "type": "uint256"
        },
        {
          "internalType": "uint256",
          "name": "accSoulPerShare",
          "type": "uint256"
        }
      ],
      "stateMutability": "view",
      "type": "function"
    },
    {
      "inputs": [
        {
          "internalType": "bytes32",
          "name": "role",
          "type": "bytes32"
        },
        {
          "internalType": "address",
          "name": "account",
          "type": "address"
        }
      ],
      "name": "renounceRole",
      "outputs": [],
      "stateMutability": "nonpayable",
      "type": "function"
    },
    {
      "inputs": [
        {
          "internalType": "bytes32",
          "name": "role",
          "type": "bytes32"
        },
        {
          "internalType": "address",
          "name": "account",
          "type": "address"
        }
      ],
      "name": "revokeRole",
      "outputs": [],
      "stateMutability": "nonpayable",
      "type": "function"
    },
    {
      "inputs": [],
      "name": "seance",
      "outputs": [
        {
          "internalType": "contract MockSeanceCircle",
          "name": "",
          "type": "address"
        }
      ],
      "stateMutability": "view",
      "type": "function"
    },
    {
      "inputs": [],
      "name": "soul",
      "outputs": [
        {
          "internalType": "contract MockSoulPower",
          "name": "",
          "type": "address"
        }
      ],
      "stateMutability": "view",
      "type": "function"
    },
    {
      "inputs": [],
      "name": "soulPerSecond",
      "outputs": [
        {
          "internalType": "uint256",
          "name": "",
          "type": "uint256"
        }
      ],
      "stateMutability": "view",
      "type": "function"
    },
    {
      "inputs": [],
      "name": "startRate",
      "outputs": [
        {
          "internalType": "uint256",
          "name": "",
          "type": "uint256"
        }
      ],
      "stateMutability": "view",
      "type": "function"
    },
    {
      "inputs": [],
      "name": "startTime",
      "outputs": [
        {
          "internalType": "uint256",
          "name": "",
          "type": "uint256"
        }
      ],
      "stateMutability": "view",
      "type": "function"
    },
    {
      "inputs": [
        {
          "internalType": "bytes4",
          "name": "interfaceId",
          "type": "bytes4"
        }
      ],
      "name": "supportsInterface",
      "outputs": [
        {
          "internalType": "bool",
          "name": "",
          "type": "bool"
        }
      ],
      "stateMutability": "view",
      "type": "function"
    },
    {
      "inputs": [],
      "name": "team",
      "outputs": [
        {
          "internalType": "address",
          "name": "",
          "type": "address"
        }
      ],
      "stateMutability": "view",
      "type": "function"
    },
    {
      "inputs": [],
      "name": "totalAllocPoint",
      "outputs": [
        {
          "internalType": "uint256",
          "name": "",
          "type": "uint256"
        }
      ],
      "stateMutability": "view",
      "type": "function"
    },
    {
      "inputs": [],
      "name": "totalWeight",
      "outputs": [
        {
          "internalType": "uint256",
          "name": "",
          "type": "uint256"
        }
      ],
      "stateMutability": "view",
      "type": "function"
    },
    {
      "inputs": [
        {
          "internalType": "uint256",
          "name": "",
          "type": "uint256"
        },
        {
          "internalType": "address",
          "name": "",
          "type": "address"
        }
      ],
      "name": "userInfo",
      "outputs": [
        {
          "internalType": "uint256",
          "name": "amount",
          "type": "uint256"
        },
        {
          "internalType": "uint256",
          "name": "rewardDebt",
          "type": "uint256"
        },
        {
          "internalType": "uint256",
          "name": "rewardDebtAtTime",
          "type": "uint256"
        },
        {
          "internalType": "uint256",
          "name": "lastWithdrawTime",
          "type": "uint256"
        },
        {
          "internalType": "uint256",
          "name": "firstDepositTime",
          "type": "uint256"
        },
        {
          "internalType": "uint256",
          "name": "timeDelta",
          "type": "uint256"
        },
        {
          "internalType": "uint256",
          "name": "lastDepositTime",
          "type": "uint256"
        }
      ],
      "stateMutability": "view",
      "type": "function"
    },
    {
      "inputs": [],
      "name": "weight",
      "outputs": [
        {
          "internalType": "uint256",
          "name": "",
          "type": "uint256"
        }
      ],
      "stateMutability": "view",
      "type": "function"
    },
    {
      "inputs": [
        {
          "internalType": "address",
          "name": "_soulAddress",
          "type": "address"
        },
        {
          "internalType": "address",
          "name": "_seanceAddress",
          "type": "address"
        },
        {
          "internalType": "uint256",
          "name": "_totalWeight",
          "type": "uint256"
        },
        {
          "internalType": "uint256",
          "name": "_weight",
          "type": "uint256"
        },
        {
          "internalType": "uint256",
          "name": "_stakingAlloc",
          "type": "uint256"
        },
        {
          "internalType": "uint256",
          "name": "_startRate",
          "type": "uint256"
        }
      ],
      "name": "initialize",
      "outputs": [],
      "stateMutability": "nonpayable",
      "type": "function"
    },
    {
      "inputs": [
        {
          "internalType": "uint256",
          "name": "_bonusMultiplier",
          "type": "uint256"
        }
      ],
      "name": "updateMultiplier",
      "outputs": [],
      "stateMutability": "nonpayable",
      "type": "function"
    },
    {
      "inputs": [
        {
          "internalType": "uint256",
          "name": "_startRate",
          "type": "uint256"
        }
      ],
      "name": "updateStartRate",
      "outputs": [],
      "stateMutability": "nonpayable",
      "type": "function"
    },
    {
      "inputs": [],
      "name": "poolLength",
      "outputs": [
        {
          "internalType": "uint256",
          "name": "",
          "type": "uint256"
        }
      ],
      "stateMutability": "view",
      "type": "function"
    },
    {
      "inputs": [
        {
          "internalType": "uint256",
          "name": "_allocPoint",
          "type": "uint256"
        },
        {
          "internalType": "contract IERC20",
          "name": "_lpToken",
          "type": "address"
        },
        {
          "internalType": "bool",
          "name": "_withUpdate",
          "type": "bool"
        }
      ],
      "name": "addPool",
      "outputs": [],
      "stateMutability": "nonpayable",
      "type": "function"
    },
    {
      "inputs": [
        {
          "internalType": "uint256",
          "name": "pid",
          "type": "uint256"
        },
        {
          "internalType": "uint256",
          "name": "allocPoint",
          "type": "uint256"
        },
        {
          "internalType": "bool",
          "name": "withUpdate",
          "type": "bool"
        }
      ],
      "name": "set",
      "outputs": [],
      "stateMutability": "nonpayable",
      "type": "function"
    },
    {
      "inputs": [
        {
          "internalType": "uint256",
          "name": "_weight",
          "type": "uint256"
        },
        {
          "internalType": "uint256",
          "name": "_totalWeight",
          "type": "uint256"
        }
      ],
      "name": "updateWeights",
      "outputs": [],
      "stateMutability": "nonpayable",
      "type": "function"
    },
    {
      "inputs": [
        {
          "internalType": "contract IMigrator",
          "name": "_migrator",
          "type": "address"
        }
      ],
      "name": "setMigrator",
      "outputs": [],
      "stateMutability": "nonpayable",
      "type": "function"
    },
    {
      "inputs": [
        {
          "internalType": "uint256",
          "name": "_pid",
          "type": "uint256"
        },
        {
          "internalType": "address",
          "name": "_user",
          "type": "address"
        }
      ],
      "name": "userDelta",
      "outputs": [
        {
          "internalType": "uint256",
          "name": "delta",
          "type": "uint256"
        }
      ],
      "stateMutability": "view",
      "type": "function"
    },
    {
      "inputs": [
        {
          "internalType": "uint256",
          "name": "pid",
          "type": "uint256"
        }
      ],
      "name": "migrate",
      "outputs": [],
      "stateMutability": "nonpayable",
      "type": "function"
    },
    {
      "inputs": [
        {
          "internalType": "uint256",
          "name": "from",
          "type": "uint256"
        },
        {
          "internalType": "uint256",
          "name": "to",
          "type": "uint256"
        }
      ],
      "name": "getMultiplier",
      "outputs": [
        {
          "internalType": "uint256",
          "name": "",
          "type": "uint256"
        }
      ],
      "stateMutability": "view",
      "type": "function"
    },
    {
      "inputs": [
        {
          "internalType": "uint256",
          "name": "pid",
          "type": "uint256"
        },
        {
          "internalType": "uint256",
          "name": "timeDelta",
          "type": "uint256"
        }
      ],
      "name": "getFeeRate",
      "outputs": [
        {
          "internalType": "uint256",
          "name": "feeRate",
          "type": "uint256"
        }
      ],
      "stateMutability": "view",
      "type": "function"
    },
    {
      "inputs": [
        {
          "internalType": "uint256",
          "name": "pid",
          "type": "uint256"
        },
        {
          "internalType": "uint256",
          "name": "timeDelta",
          "type": "uint256"
        },
        {
          "internalType": "uint256",
          "name": "amount",
          "type": "uint256"
        }
      ],
      "name": "getWithdrawable",
      "outputs": [
        {
          "internalType": "uint256",
          "name": "_feeAmount",
          "type": "uint256"
        },
        {
          "internalType": "uint256",
          "name": "_withdrawable",
          "type": "uint256"
        }
      ],
      "stateMutability": "view",
      "type": "function"
    },
    {
      "inputs": [
        {
          "internalType": "uint256",
          "name": "pid",
          "type": "uint256"
        },
        {
          "internalType": "address",
          "name": "_user",
          "type": "address"
        }
      ],
      "name": "pendingSoul",
      "outputs": [
        {
          "internalType": "uint256",
          "name": "pendingAmount",
          "type": "uint256"
        }
      ],
      "stateMutability": "view",
      "type": "function"
    },
    {
      "inputs": [],
      "name": "massUpdatePools",
      "outputs": [],
      "stateMutability": "nonpayable",
      "type": "function"
    },
    {
      "inputs": [
        {
          "internalType": "uint256",
          "name": "pid",
          "type": "uint256"
        }
      ],
      "name": "updatePool",
      "outputs": [],
      "stateMutability": "nonpayable",
      "type": "function"
    },
    {
      "inputs": [
        {
          "internalType": "uint256",
          "name": "pid",
          "type": "uint256"
        },
        {
          "internalType": "uint256",
          "name": "amount",
          "type": "uint256"
        }
      ],
      "name": "deposit",
      "outputs": [],
      "stateMutability": "nonpayable",
      "type": "function"
    },
    {
      "inputs": [
        {
          "internalType": "uint256",
          "name": "pid",
          "type": "uint256"
        },
        {
          "internalType": "uint256",
          "name": "amount",
          "type": "uint256"
        }
      ],
      "name": "withdraw",
      "outputs": [],
      "stateMutability": "nonpayable",
      "type": "function"
    },
    {
      "inputs": [
        {
          "internalType": "uint256",
          "name": "amount",
          "type": "uint256"
        }
      ],
      "name": "enterStaking",
      "outputs": [],
      "stateMutability": "nonpayable",
      "type": "function"
    },
    {
      "inputs": [
        {
          "internalType": "uint256",
          "name": "amount",
          "type": "uint256"
        }
      ],
      "name": "leaveStaking",
      "outputs": [],
      "stateMutability": "nonpayable",
      "type": "function"
    },
    {
      "inputs": [
        {
          "internalType": "address",
          "name": "_dao",
          "type": "address"
        },
        {
          "internalType": "address",
          "name": "_team",
          "type": "address"
        }
      ],
      "name": "updateAccounts",
      "outputs": [],
      "stateMutability": "nonpayable",
      "type": "function"
    },
    {
      "inputs": [
        {
          "internalType": "address",
          "name": "_soul",
          "type": "address"
        },
        {
          "internalType": "address",
          "name": "_seance",
          "type": "address"
        }
      ],
      "name": "updateTokens",
      "outputs": [],
      "stateMutability": "nonpayable",
      "type": "function"
    },
    {
      "inputs": [
        {
          "internalType": "uint256",
          "name": "_pid",
          "type": "uint256"
        },
        {
          "internalType": "address",
          "name": "_user",
          "type": "address"
        },
        {
          "internalType": "uint256",
          "name": "_time",
          "type": "uint256"
        }
      ],
      "name": "reviseDeposit",
      "outputs": [],
      "stateMutability": "nonpayable",
      "type": "function"
    },
    {
      "inputs": [
        {
          "internalType": "uint256",
          "name": "amount",
          "type": "uint256"
        }
      ],
      "name": "enWei",
      "outputs": [
        {
          "internalType": "uint256",
          "name": "",
          "type": "uint256"
        }
      ],
      "stateMutability": "pure",
      "type": "function"
    },
    {
      "inputs": [
        {
          "internalType": "uint256",
          "name": "amount",
          "type": "uint256"
        }
      ],
      "name": "fromWei",
      "outputs": [
        {
          "internalType": "uint256",
          "name": "",
          "type": "uint256"
        }
      ],
      "stateMutability": "pure",
      "type": "function"
    }
  ],
  "bytecode": "0x60a06040526001600e556200001b6001620001d860201b60201c565b6080908152503480156200002e57600080fd5b506000600160006101000a81548160ff021916908315150217905550600160028190555033600760006101000a81548173ffffffffffffffffffffffffffffffffffffffff021916908373ffffffffffffffffffffffffffffffffffffffff16021790555033600860006101000a81548173ffffffffffffffffffffffffffffffffffffffff021916908373ffffffffffffffffffffffffffffffffffffffff1602179055507f36d5d8406f8379c6deba01145ec4f6a2966675cc67d71355b397a2a8e3572b296015819055507f0811b25c145e1379dc78112dd91057f09150f6db05dfd7e04deb910e6cefd4b76016819055506200015d6000801b6000801b600760009054906101000a900473ffffffffffffffffffffffffffffffffffffffff16620001f760201b60201c565b5062000197601554601554600760009054906101000a900473ffffffffffffffffffffffffffffffffffffffff16620001f760201b60201c565b50620001d1601654601554600860009054906101000a900473ffffffffffffffffffffffffffffffffffffffff16620001f760201b60201c565b50620004a7565b6000670de0b6b3a764000082620001f091906200045c565b9050919050565b60006200020b84836200022860201b60201c565b6200021d84846200023e60201b60201c565b600190509392505050565b6200023a8282620002a160201b60201c565b5050565b600062000251836200039260201b60201c565b905081600080858152602001908152602001600020600101819055508181847fbd79b86ffe0ab8e8776151514217cd7cacd52c909f66475c3af44e129f0b00ff60405160405180910390a4505050565b620002b38282620003b160201b60201c565b6200038e57600160008084815260200190815260200160002060000160008373ffffffffffffffffffffffffffffffffffffffff1673ffffffffffffffffffffffffffffffffffffffff16815260200190815260200160002060006101000a81548160ff021916908315150217905550620003336200041b60201b60201c565b73ffffffffffffffffffffffffffffffffffffffff168173ffffffffffffffffffffffffffffffffffffffff16837f2f8788117e7eff1d82e926ec794901d17c78024a50270940304540a733656f0d60405160405180910390a45b5050565b6000806000838152602001908152602001600020600101549050919050565b600080600084815260200190815260200160002060000160008373ffffffffffffffffffffffffffffffffffffffff1673ffffffffffffffffffffffffffffffffffffffff16815260200190815260200160002060009054906101000a900460ff16905092915050565b600033905090565b6000819050919050565b7f4e487b7100000000000000000000000000000000000000000000000000000000600052601160045260246000fd5b6000620004698262000423565b9150620004768362000423565b9250828202620004868162000423565b91508282048414831517620004a0576200049f6200042d565b5b5092915050565b6080516159d8620004c3600039600061381f01526159d86000f3fe608060405234801561001057600080fd5b506004361061030c5760003560e01c80637d500ec81161019d578063a8b973a1116100e9578063e65d1522116100a2578063f107fd851161007c578063f107fd8514610949578063fb39d1e314610965578063fc90fdc014610995578063fd6f99d0146109b35761030c565b8063e65d1522146108df578063e7aa29e31461090f578063ea4bf4461461092b5761030c565b8063a8b973a11461080d578063bfafcad51461082b578063cf94ee961461085b578063d547741f1461088b578063e13e8ec2146108a7578063e2bbb158146108c35761030c565b80638dbb1e3a1161015657806396c82e571161013057806396c82e57146107835780639f6c5426146107a1578063a1aab33f146107d1578063a217fddf146107ef5761030c565b80638dbb1e3a146106ed57806391d148541461071d57806393f1a40b1461074d5761030c565b80637d500ec81461062a5780637e668b4214610648578063815b7a8c1461067957806382386d581461069757806385f2aef2146106b357806386489ba9146106d15761030c565b8063441a3e701161025c5780635f9bf6891161021557806364482f79116101ef57806364482f79146105b657806378e97925146105d25780637abceffd146105f05780637cd07e471461060c5761030c565b80635f9bf689146105725780635ffe614614610590578063630b5ba1146105ac5761030c565b8063441a3e70146104c6578063454b0608146104e25780634a962829146104fe5780634ca01d451461051a57806351eb05a6146105385780635c975abb146105545761030c565b806323cf3118116102c957806336568abe116102a357806336568abe14610452578063392e53cd1461046e57806341441d3b1461048c5780634162169f146104a85761030c565b806323cf3118146103ea578063248a9ca3146104065780632f2ff15d146104365761030c565b806301ffc9a714610311578063081e3eda146103415780631058d2811461035f5780631254f0dc1461037b5780631526fe271461039957806317caf6f1146103cc575b600080fd5b61032b60048036038101906103269190614398565b6109d1565b60405161033891906143e0565b60405180910390f35b610349610a4b565b6040516103569190614414565b60405180910390f35b6103796004803603810190610374919061445b565b610a58565b005b610383610de6565b6040516103909190614414565b60405180910390f35b6103b360048036038101906103ae919061445b565b610dec565b6040516103c39493929190614507565b60405180910390f35b6103d4610e4c565b6040516103e19190614414565b60405180910390f35b61040460048036038101906103ff919061459c565b610e52565b005b610420600480360381019061041b91906145ff565b610efa565b60405161042d919061463b565b60405180910390f35b610450600480360381019061044b9190614682565b610f19565b005b61046c60048036038101906104679190614682565b610f42565b005b610476610fc5565b60405161048391906143e0565b60405180910390f35b6104a660048036038101906104a1919061445b565b610fd8565b005b6104b061138c565b6040516104bd91906146d1565b60405180910390f35b6104e060048036038101906104db91906146ec565b6113b2565b005b6104fc60048036038101906104f7919061445b565b61187b565b005b6105186004803603810190610513919061445b565b611cb9565b005b610522611d78565b60405161052f919061474d565b60405180910390f35b610552600480360381019061054d919061445b565b611d9e565b005b61055c612200565b60405161056991906143e0565b60405180910390f35b61057a612217565b6040516105879190614414565b60405180910390f35b6105aa60048036038101906105a5919061445b565b61221d565b005b6105b461223c565b005b6105d060048036038101906105cb9190614794565b61226f565b005b6105da6123ed565b6040516105e79190614414565b60405180910390f35b61060a60048036038101906106059190614825565b6123f3565b005b610614612470565b6040516106219190614899565b60405180910390f35b610632612496565b60405161063f9190614414565b60405180910390f35b610662600480360381019061065d91906148b4565b61249c565b604051610670929190614907565b60405180910390f35b610681612578565b60405161068e9190614951565b60405180910390f35b6106b160048036038101906106ac919061496c565b61259e565b005b6106bb612651565b6040516106c891906146d1565b60405180910390f35b6106eb60048036038101906106e691906149bf565b612677565b005b610707600480360381019061070291906146ec565b612a5e565b6040516107149190614414565b60405180910390f35b61073760048036038101906107329190614682565b612a81565b60405161074491906143e0565b60405180910390f35b61076760048036038101906107629190614a4c565b612aeb565b60405161077a9796959493929190614a8c565b60405180910390f35b61078b612b3a565b6040516107989190614414565b60405180910390f35b6107bb60048036038101906107b691906146ec565b612b40565b6040516107c89190614414565b60405180910390f35b6107d9612bb3565b6040516107e69190614414565b60405180910390f35b6107f7612bb9565b604051610804919061463b565b60405180910390f35b610815612bc0565b6040516108229190614414565b60405180910390f35b61084560048036038101906108409190614a4c565b612bc6565b6040516108529190614414565b60405180910390f35b6108756004803603810190610870919061445b565b612dac565b6040516108829190614414565b60405180910390f35b6108a560048036038101906108a09190614682565b612dc9565b005b6108c160048036038101906108bc9190614afb565b612df2565b005b6108dd60048036038101906108d891906146ec565b612ff4565b005b6108f960048036038101906108f4919061445b565b6133a6565b6040516109069190614414565b60405180910390f35b61092960048036038101906109249190614afb565b6133c3565b005b610933613581565b604051610940919061463b565b60405180910390f35b610963600480360381019061095e91906146ec565b613587565b005b61097f600480360381019061097a9190614a4c565b6136d2565b60405161098c9190614414565b60405180910390f35b61099d61381d565b6040516109aa9190614414565b60405180910390f35b6109bb613841565b6040516109c8919061463b565b60405180910390f35b60007f7965db0b000000000000000000000000000000000000000000000000000000007bffffffffffffffffffffffffffffffffffffffffffffffffffffffff1916827bffffffffffffffffffffffffffffffffffffffffffffffffffffffff19161480610a445750610a4382613847565b5b9050919050565b6000601380549050905090565b6002805403610a9c576040517f08c379a0000000000000000000000000000000000000000000000000000000008152600401610a9390614b98565b60405180910390fd5b6002808190555060006013600081548110610aba57610ab9614bb8565b5b9060005260206000209060040201905060006014600080815260200190815260200160002060003373ffffffffffffffffffffffffffffffffffffffff1673ffffffffffffffffffffffffffffffffffffffff16815260200190815260200160002090508281600001541015610b65576040517f08c379a0000000000000000000000000000000000000000000000000000000008152600401610b5c90614c33565b60405180910390fd5b610b6f6000611d9e565b6000816001015464e8d4a5100084600301548460000154610b909190614c82565b610b9a9190614cf3565b610ba49190614d24565b90506000811115610bba57610bb933826138b1565b5b6000841115610c7f57838260000154610bd39190614d24565b82600001819055508260000160009054906101000a900473ffffffffffffffffffffffffffffffffffffffff1673ffffffffffffffffffffffffffffffffffffffff1663a9059cbb33866040518363ffffffff1660e01b8152600401610c3a929190614d58565b6020604051808303816000875af1158015610c59573d6000803e3d6000fd5b505050506040513d601f19601f82011682018060405250810190610c7d9190614d96565b505b64e8d4a5100083600301548360000154610c999190614c82565b610ca39190614cf3565b8260010181905550428260030181905550610cf76040518060400160405280601881526020017f6c617374207769746864726177616c2074696d653a20257300000000000000008152508360030154613944565b600660009054906101000a900473ffffffffffffffffffffffffffffffffffffffff1673ffffffffffffffffffffffffffffffffffffffff16639dc29fac33866040518363ffffffff1660e01b8152600401610d54929190614d58565b600060405180830381600087803b158015610d6e57600080fd5b505af1158015610d82573d6000803e3d6000fd5b5050505060003373ffffffffffffffffffffffffffffffffffffffff167f02f25270a4d87bea75db541cdfe559334a275b4a233520ed6c0a2429667cca948642604051610dd0929190614907565b60405180910390a3505050600160028190555050565b60125481565b60138181548110610dfc57600080fd5b90600052602060002090600402016000915090508060000160009054906101000a900473ffffffffffffffffffffffffffffffffffffffff16908060010154908060020154908060030154905084565b60105481565b601160009054906101000a900460ff16610ea1576040517f08c379a0000000000000000000000000000000000000000000000000000000008152600401610e9890614e0f565b60405180910390fd5b601554610eb581610eb06139e0565b6139e8565b81600960006101000a81548173ffffffffffffffffffffffffffffffffffffffff021916908373ffffffffffffffffffffffffffffffffffffffff1602179055505050565b6000806000838152602001908152602001600020600101549050919050565b610f2282610efa565b610f3381610f2e6139e0565b6139e8565b610f3d8383613a85565b505050565b610f4a6139e0565b73ffffffffffffffffffffffffffffffffffffffff168173ffffffffffffffffffffffffffffffffffffffff1614610fb7576040517f08c379a0000000000000000000000000000000000000000000000000000000008152600401610fae90614ea1565b60405180910390fd5b610fc18282613b65565b5050565b601160009054906101000a900460ff1681565b600280540361101c576040517f08c379a000000000000000000000000000000000000000000000000000000000815260040161101390614b98565b60405180910390fd5b6002808190555061102b612200565b1561106b576040517f08c379a000000000000000000000000000000000000000000000000000000000815260040161106290614f0d565b60405180910390fd5b6000601360008154811061108257611081614bb8565b5b9060005260206000209060040201905060006014600080815260200190815260200160002060003373ffffffffffffffffffffffffffffffffffffffff1673ffffffffffffffffffffffffffffffffffffffff16815260200190815260200160002090506110f06000611d9e565b60008160000154111561114a576000816001015464e8d4a510008460030154846000015461111e9190614c82565b6111289190614cf3565b6111329190614d24565b905060008111156111485761114733826138b1565b5b505b6000831115611211578160000160009054906101000a900473ffffffffffffffffffffffffffffffffffffffff1673ffffffffffffffffffffffffffffffffffffffff166323b872dd3330866040518463ffffffff1660e01b81526004016111b493929190614f2d565b6020604051808303816000875af11580156111d3573d6000803e3d6000fd5b505050506040513d601f19601f820116820180604052508101906111f79190614d96565b508281600001546112089190614f64565b81600001819055505b60008160040154116112235742611229565b80600401545b81600401819055506112746040518060400160405280601981526020017f6669727374206465706f736974206d6164652061743a202573000000000000008152508260040154613944565b64e8d4a510008260030154826000015461128e9190614c82565b6112989190614cf3565b8160010181905550600660009054906101000a900473ffffffffffffffffffffffffffffffffffffffff1673ffffffffffffffffffffffffffffffffffffffff166340c10f1933856040518363ffffffff1660e01b81526004016112fd929190614d58565b600060405180830381600087803b15801561131757600080fd5b505af115801561132b573d6000803e3d6000fd5b5050505060003373ffffffffffffffffffffffffffffffffffffffff167f90890809c654f11d6e72a28fa60149770a0d11ec6c92319d6ceb2bb0a4ea1a15856040516113779190614414565b60405180910390a35050600160028190555050565b600860009054906101000a900473ffffffffffffffffffffffffffffffffffffffff1681565b60028054036113f6576040517f08c379a00000000000000000000000000000000000000000000000000000000081526004016113ed90614b98565b60405180910390fd5b60028081905550816013805490508110611445576040517f08c379a000000000000000000000000000000000000000000000000000000000815260040161143c90614fe4565b60405180910390fd5b60008303611488576040517f08c379a000000000000000000000000000000000000000000000000000000000815260040161147f90615050565b60405180910390fd5b60006013848154811061149e5761149d614bb8565b5b9060005260206000209060040201905060006014600086815260200190815260200160002060003373ffffffffffffffffffffffffffffffffffffffff1673ffffffffffffffffffffffffffffffffffffffff16815260200190815260200160002090508381600001541015611549576040517f08c379a0000000000000000000000000000000000000000000000000000000008152600401611540906150bc565b60405180910390fd5b61155285611d9e565b6000816001015464e8d4a51000846003015484600001546115739190614c82565b61157d9190614cf3565b6115879190614d24565b9050600081111561159d5761159c33826138b1565b5b6000851115611602576000826006015411156115d0578160060154426115c39190614d24565b82600501819055506115e9565b8160040154426115e09190614d24565b82600501819055505b8482600001546115f99190614d24565b82600001819055505b60006014600088815260200190815260200160002060003373ffffffffffffffffffffffffffffffffffffffff1673ffffffffffffffffffffffffffffffffffffffff168152602001908152602001600020600501549050600061166788838961249c565b915050600081886116789190614d24565b90508560000160009054906101000a900473ffffffffffffffffffffffffffffffffffffffff1673ffffffffffffffffffffffffffffffffffffffff1663a9059cbb600860009054906101000a900473ffffffffffffffffffffffffffffffffffffffff16836040518363ffffffff1660e01b81526004016116fb929190614d58565b6020604051808303816000875af115801561171a573d6000803e3d6000fd5b505050506040513d601f19601f8201168201806040525081019061173e9190614d96565b508560000160009054906101000a900473ffffffffffffffffffffffffffffffffffffffff1673ffffffffffffffffffffffffffffffffffffffff1663a9059cbb33846040518363ffffffff1660e01b815260040161179e929190614d58565b6020604051808303816000875af11580156117bd573d6000803e3d6000fd5b505050506040513d601f19601f820116820180604052508101906117e19190614d96565b5064e8d4a51000866003015486600001546117fc9190614c82565b6118069190614cf3565b8560010181905550428560030181905550883373ffffffffffffffffffffffffffffffffffffffff167f02f25270a4d87bea75db541cdfe559334a275b4a233520ed6c0a2429667cca948a42604051611860929190614907565b60405180910390a35050505050505060016002819055505050565b601160009054906101000a900460ff166118ca576040517f08c379a00000000000000000000000000000000000000000000000000000000081526004016118c190614e0f565b60405180910390fd5b806013805490508110611912576040517f08c379a000000000000000000000000000000000000000000000000000000000815260040161190990614fe4565b60405180910390fd5b600073ffffffffffffffffffffffffffffffffffffffff16600960009054906101000a900473ffffffffffffffffffffffffffffffffffffffff1673ffffffffffffffffffffffffffffffffffffffff16036119a3576040517f08c379a000000000000000000000000000000000000000000000000000000000815260040161199a90615128565b60405180910390fd5b6000601383815481106119b9576119b8614bb8565b5b9060005260206000209060040201905060008160000160009054906101000a900473ffffffffffffffffffffffffffffffffffffffff16905060008173ffffffffffffffffffffffffffffffffffffffff166370a08231306040518263ffffffff1660e01b8152600401611a2d91906146d1565b602060405180830381865afa158015611a4a573d6000803e3d6000fd5b505050506040513d601f19601f82011682018060405250810190611a6e919061515d565b90508173ffffffffffffffffffffffffffffffffffffffff1663095ea7b3600960009054906101000a900473ffffffffffffffffffffffffffffffffffffffff16836040518363ffffffff1660e01b8152600401611acd929190614d58565b6020604051808303816000875af1158015611aec573d6000803e3d6000fd5b505050506040513d601f19601f82011682018060405250810190611b109190614d96565b506000600960009054906101000a900473ffffffffffffffffffffffffffffffffffffffff1673ffffffffffffffffffffffffffffffffffffffff1663ce5494bb846040518263ffffffff1660e01b8152600401611b6e919061518a565b6020604051808303816000875af1158015611b8d573d6000803e3d6000fd5b505050506040513d601f19601f82011682018060405250810190611bb191906151ba565b90508073ffffffffffffffffffffffffffffffffffffffff166370a08231306040518263ffffffff1660e01b8152600401611bec91906146d1565b602060405180830381865afa158015611c09573d6000803e3d6000fd5b505050506040513d601f19601f82011682018060405250810190611c2d919061515d565b8214611c6e576040517f08c379a0000000000000000000000000000000000000000000000000000000008152600401611c6590615233565b60405180910390fd5b808460000160006101000a81548173ffffffffffffffffffffffffffffffffffffffff021916908373ffffffffffffffffffffffffffffffffffffffff160217905550505050505050565b601654611ccd81611cc86139e0565b6139e8565b611cd682612dac565b60125403611ce357600080fd5b611cec82612dac565b601281905550611d3b6040518060400160405280601581526020017f6e657720737461727420726174652069733a2025730000000000000000000000815250611d366012546133a6565b613944565b7f580e2348a4d1118e1f915eeffd71aec4938e749307b28e67f19841ca64117df7601254604051611d6c9190614414565b60405180910390a15050565b600660009054906101000a900473ffffffffffffffffffffffffffffffffffffffff1681565b806013805490508110611de6576040517f08c379a0000000000000000000000000000000000000000000000000000000008152600401611ddd90614fe4565b60405180910390fd5b600060138381548110611dfc57611dfb614bb8565b5b9060005260206000209060040201905080600201544211611e1d57506121fc565b60008160000160009054906101000a900473ffffffffffffffffffffffffffffffffffffffff1673ffffffffffffffffffffffffffffffffffffffff166370a08231306040518263ffffffff1660e01b8152600401611e7c91906146d1565b602060405180830381865afa158015611e99573d6000803e3d6000fd5b505050506040513d601f19601f82011682018060405250810190611ebd919061515d565b905060008103611ed75742826002018190555050506121fc565b6000611ee7836002015442612a5e565b905060006010548460010154600d5484611f019190614c82565b611f0b9190614c82565b611f159190614cf3565b90506000650746a528800064e8d4a5100083611f319190614c82565b611f3b9190614cf3565b90506000600282611f4c9190614c82565b905060008184611f5c9190614d24565b9050600460009054906101000a900473ffffffffffffffffffffffffffffffffffffffff1673ffffffffffffffffffffffffffffffffffffffff166340c10f19600760009054906101000a900473ffffffffffffffffffffffffffffffffffffffff16856040518363ffffffff1660e01b8152600401611fdd929190614d58565b600060405180830381600087803b158015611ff757600080fd5b505af115801561200b573d6000803e3d6000fd5b50505050600460009054906101000a900473ffffffffffffffffffffffffffffffffffffffff1673ffffffffffffffffffffffffffffffffffffffff166340c10f19600860009054906101000a900473ffffffffffffffffffffffffffffffffffffffff16856040518363ffffffff1660e01b815260040161208e929190614d58565b600060405180830381600087803b1580156120a857600080fd5b505af11580156120bc573d6000803e3d6000fd5b50505050600460009054906101000a900473ffffffffffffffffffffffffffffffffffffffff1673ffffffffffffffffffffffffffffffffffffffff166340c10f19600660009054906101000a900473ffffffffffffffffffffffffffffffffffffffff16836040518363ffffffff1660e01b815260040161213f929190614d58565b600060405180830381600087803b15801561215957600080fd5b505af115801561216d573d6000803e3d6000fd5b505050506121b86040518060400160405280601881526020017f257320534f554c206d696e74656420746f205345414e434500000000000000008152506121b3836133a6565b613944565b8564e8d4a51000856121ca9190614c82565b6121d49190614cf3565b87600301546121e39190614f64565b8760030181905550428760020181905550505050505050505b5050565b6000600160009054906101000a900460ff16905090565b600d5481565b6016546122318161222c6139e0565b6139e8565b81600e819055505050565b6000601380549050905060005b8181101561226b5761225a81611d9e565b8061226490615253565b9050612249565b5050565b601160009054906101000a900460ff166122be576040517f08c379a00000000000000000000000000000000000000000000000000000000081526004016122b590614e0f565b60405180910390fd5b826013805490508110612306576040517f08c379a00000000000000000000000000000000000000000000000000000000081526004016122fd90614fe4565b60405180910390fd5b60165461231a816123156139e0565b6139e8565b82156123295761232861223c565b5b60006013868154811061233f5761233e614bb8565b5b9060005260206000209060040201600101549050846013878154811061236857612367614bb8565b5b9060005260206000209060040201600101819055508481146123ac5784816010546123939190614d24565b61239d9190614f64565b6010819055506123ab613c46565b5b7fd88f859573973e938da5bf3e5100c16eee2090fa720e05ae3d452b4cd05cdcfd86866040516123dd929190614907565b60405180910390a1505050505050565b600f5481565b601160009054906101000a900460ff16612442576040517f08c379a000000000000000000000000000000000000000000000000000000000815260040161243990614e0f565b60405180910390fd5b601554612456816124516139e0565b6139e8565b61245f83613d31565b61246a848484613e0f565b50505050565b600960009054906101000a900473ffffffffffffffffffffffffffffffffffffffff1681565b600c5481565b60008060006124b36124ae8787612b40565b6133a6565b90506000606482866124c59190614c82565b6124cf9190614cf3565b90506125106040518060400160405280600b81526020017f666565526174653a20257300000000000000000000000000000000000000000081525083613944565b6125576040518060400160405280600d81526020017f666565416d6f756e743a20257300000000000000000000000000000000000000815250612552836133a6565b613944565b600081866125659190614d24565b9050818194509450505050935093915050565b600460009054906101000a900473ffffffffffffffffffffffffffffffffffffffff1681565b6016546125b2816125ad6139e0565b6139e8565b60006014600086815260200190815260200160002060008573ffffffffffffffffffffffffffffffffffffffff1673ffffffffffffffffffffffffffffffffffffffff16815260200190815260200160002090508281600401819055507f40d6e8e3d60e4693375c73df2d1a71d582a28197c98fd8d2badad6ead06af64c8585856040516126429392919061529b565b60405180910390a15050505050565b600760009054906101000a900473ffffffffffffffffffffffffffffffffffffffff1681565b60155461268b816126866139e0565b6139e8565b601160009054906101000a900460ff16156126db576040517f08c379a00000000000000000000000000000000000000000000000000000000081526004016126d29061531e565b60405180910390fd5b86600360006101000a81548173ffffffffffffffffffffffffffffffffffffffff021916908373ffffffffffffffffffffffffffffffffffffffff16021790555085600560006101000a81548173ffffffffffffffffffffffffffffffffffffffff021916908373ffffffffffffffffffffffffffffffffffffffff16021790555042600f8190555083856127709190614f64565b600a8190555083600b8190555061278682612dac565b6012819055506000839050600360009054906101000a900473ffffffffffffffffffffffffffffffffffffffff16600460006101000a81548173ffffffffffffffffffffffffffffffffffffffff021916908373ffffffffffffffffffffffffffffffffffffffff160217905550600560009054906101000a900473ffffffffffffffffffffffffffffffffffffffff16600660006101000a81548173ffffffffffffffffffffffffffffffffffffffff021916908373ffffffffffffffffffffffffffffffffffffffff160217905550612865600b54600a54613f6a565b60136040518060800160405280600460009054906101000a900473ffffffffffffffffffffffffffffffffffffffff1673ffffffffffffffffffffffffffffffffffffffff168152602001838152602001600f5481526020016000815250908060018154018082558091505060019003906000526020600020906004020160009091909190915060008201518160000160006101000a81548173ffffffffffffffffffffffffffffffffffffffff021916908373ffffffffffffffffffffffffffffffffffffffff16021790555060208201518160010155604082015181600201556060820151816003015550506001601160006101000a81548160ff02191690831515021790555080601060008282546129809190614f64565b925050819055507f0476c5e4920930815a67a5a042e26836431f494d3be0f6e10c3034787a7a15f9600760009054906101000a900473ffffffffffffffffffffffffffffffffffffffff16600860009054906101000a900473ffffffffffffffffffffffffffffffffffffffff16600360009054906101000a900473ffffffffffffffffffffffffffffffffffffffff16600560009054906101000a900473ffffffffffffffffffffffffffffffffffffffff16601054600b54604051612a4c9695949392919061533e565b60405180910390a15050505050505050565b6000600e548383612a6f9190614d24565b612a799190614c82565b905092915050565b600080600084815260200190815260200160002060000160008373ffffffffffffffffffffffffffffffffffffffff1673ffffffffffffffffffffffffffffffffffffffff16815260200190815260200160002060009054906101000a900460ff16905092915050565b6014602052816000526040600020602052806000526040600020600091509150508060000154908060010154908060020154908060030154908060040154908060050154908060060154905087565b600a5481565b600080620151808310612b61576201518083612b5c9190614cf3565b612b64565b60005b90506000612b7182612dac565b90506000601254821015612b925781601254612b8d9190614d24565b612b95565b60005b905060008614612ba55780612ba8565b60005b935050505092915050565b600b5481565b6000801b81565b600e5481565b60008060138481548110612bdd57612bdc614bb8565b5b9060005260206000209060040201905060006014600086815260200190815260200160002060008573ffffffffffffffffffffffffffffffffffffffff1673ffffffffffffffffffffffffffffffffffffffff168152602001908152602001600020905060008260030154905060008360000160009054906101000a900473ffffffffffffffffffffffffffffffffffffffff1673ffffffffffffffffffffffffffffffffffffffff166370a08231306040518263ffffffff1660e01b8152600401612ca991906146d1565b602060405180830381865afa158015612cc6573d6000803e3d6000fd5b505050506040513d601f19601f82011682018060405250810190612cea919061515d565b9050836002015442118015612d00575060008114155b15612d71576000612d15856002015442612a5e565b905060006010548660010154600d5484612d2f9190614c82565b612d399190614c82565b612d439190614cf3565b90508264e8d4a5100082612d579190614c82565b612d619190614cf3565b84612d6c9190614f64565b935050505b826001015464e8d4a51000838560000154612d8c9190614c82565b612d969190614cf3565b612da09190614d24565b94505050505092915050565b6000670de0b6b3a764000082612dc29190614c82565b9050919050565b612dd282610efa565b612de381612dde6139e0565b6139e8565b612ded8383613b65565b505050565b601554612e0681612e016139e0565b6139e8565b8273ffffffffffffffffffffffffffffffffffffffff16600860009054906101000a900473ffffffffffffffffffffffffffffffffffffffff1673ffffffffffffffffffffffffffffffffffffffff16141580612eb157508173ffffffffffffffffffffffffffffffffffffffff16600760009054906101000a900473ffffffffffffffffffffffffffffffffffffffff1673ffffffffffffffffffffffffffffffffffffffff1614155b612ef0576040517f08c379a0000000000000000000000000000000000000000000000000000000008152600401612ee7906153eb565b60405180910390fd5b82600860006101000a81548173ffffffffffffffffffffffffffffffffffffffff021916908373ffffffffffffffffffffffffffffffffffffffff16021790555081600760006101000a81548173ffffffffffffffffffffffffffffffffffffffff021916908373ffffffffffffffffffffffffffffffffffffffff1602179055507fd1c04282701cbf58aa2f0026f6876051cf3feb8ee7b8b5b5532ebb4ab03fb5d4600860009054906101000a900473ffffffffffffffffffffffffffffffffffffffff16600760009054906101000a900473ffffffffffffffffffffffffffffffffffffffff16604051612fe792919061540b565b60405180910390a1505050565b6002805403613038576040517f08c379a000000000000000000000000000000000000000000000000000000000815260040161302f90614b98565b60405180910390fd5b60028081905550816013805490508110613087576040517f08c379a000000000000000000000000000000000000000000000000000000000815260040161307e90614fe4565b60405180910390fd5b61308f612200565b156130cf576040517f08c379a00000000000000000000000000000000000000000000000000000000081526004016130c690614f0d565b60405180910390fd5b60008303613112576040517f08c379a000000000000000000000000000000000000000000000000000000000815260040161310990615480565b60405180910390fd5b60006013848154811061312857613127614bb8565b5b9060005260206000209060040201905060006014600086815260200190815260200160002060003373ffffffffffffffffffffffffffffffffffffffff1673ffffffffffffffffffffffffffffffffffffffff168152602001908152602001600020905061319585611d9e565b6000816000015411156131ef576000816001015464e8d4a51000846003015484600001546131c39190614c82565b6131cd9190614cf3565b6131d79190614d24565b905060008111156131ed576131ec33826138b1565b5b505b60008411156132b9578160000160009054906101000a900473ffffffffffffffffffffffffffffffffffffffff1673ffffffffffffffffffffffffffffffffffffffff166323b872dd3330876040518463ffffffff1660e01b815260040161325993929190614f2d565b6020604051808303816000875af1158015613278573d6000803e3d6000fd5b505050506040513d601f19601f8201168201806040525081019061329c9190614d96565b50838160000160008282546132b19190614f64565b925050819055505b64e8d4a51000826003015482600001546132d39190614c82565b6132dd9190614cf3565b816001018190555060008160040154116132f757426132fd565b80600401545b81600401819055506133486040518060400160405280601981526020017f6669727374206465706f736974206d6164652061743a202573000000000000008152508260040154613944565b843373ffffffffffffffffffffffffffffffffffffffff167f90890809c654f11d6e72a28fa60149770a0d11ec6c92319d6ceb2bb0a4ea1a158660405161338f9190614414565b60405180910390a350505060016002819055505050565b6000670de0b6b3a7640000826133bc9190614cf3565b9050919050565b6015546133d7816133d26139e0565b6139e8565b8273ffffffffffffffffffffffffffffffffffffffff16600460009054906101000a900473ffffffffffffffffffffffffffffffffffffffff1673ffffffffffffffffffffffffffffffffffffffff1614158061348257508173ffffffffffffffffffffffffffffffffffffffff16600660009054906101000a900473ffffffffffffffffffffffffffffffffffffffff1673ffffffffffffffffffffffffffffffffffffffff1614155b6134c1576040517f08c379a00000000000000000000000000000000000000000000000000000000081526004016134b8906154ec565b60405180910390fd5b82600460006101000a81548173ffffffffffffffffffffffffffffffffffffffff021916908373ffffffffffffffffffffffffffffffffffffffff16021790555081600660006101000a81548173ffffffffffffffffffffffffffffffffffffffff021916908373ffffffffffffffffffffffffffffffffffffffff1602179055507fdcc6331013de89f8c595d5328f0a724194f113cb6f8f2a707b3dff6de13f0d17838360405161357492919061540b565b60405180910390a1505050565b60155481565b60165461359b816135966139e0565b6139e8565b82600b541415806135ae575081600a5414155b6135ed576040517f08c379a00000000000000000000000000000000000000000000000000000000081526004016135e490615558565b60405180910390fd5b82821015613630576040517f08c379a0000000000000000000000000000000000000000000000000000000008152600401613627906155c4565b60405180910390fd5b82600b8190555081600a819055506136826040518060400160405280601981526020017f6e657720776569676874733a202573206f7574206f6620257300000000000000815250600b54600a54614037565b613690600b54600a54613f6a565b7fb298bc23e07860d501fddce288f46d761aa04a0c7c3316099eb50f097aacf304600b54600a546040516136c5929190614907565b60405180910390a1505050565b6000806014600085815260200190815260200160002060008473ffffffffffffffffffffffffffffffffffffffff1673ffffffffffffffffffffffffffffffffffffffff1681526020019081526020016000206040518060e001604052908160008201548152602001600182015481526020016002820154815260200160038201548152602001600482015481526020016005820154815260200160068201548152505090506137a36040518060600160405280602c8152602001615977602c913982608001518360600151614037565b6137e26040518060400160405280600d81526020017f74696d657374616d703a2025730000000000000000000000000000000000000081525042613944565b6000816060015111613803578060800151426137fe9190614d24565b613814565b8060600151426138139190614d24565b5b91505092915050565b7f000000000000000000000000000000000000000000000000000000000000000081565b60165481565b60007f01ffc9a7000000000000000000000000000000000000000000000000000000007bffffffffffffffffffffffffffffffffffffffffffffffffffffffff1916827bffffffffffffffffffffffffffffffffffffffffffffffffffffffff1916149050919050565b600660009054906101000a900473ffffffffffffffffffffffffffffffffffffffff1673ffffffffffffffffffffffffffffffffffffffff1663b2a142aa83836040518363ffffffff1660e01b815260040161390e929190614d58565b600060405180830381600087803b15801561392857600080fd5b505af115801561393c573d6000803e3d6000fd5b505050505050565b6139dc828260405160240161395a929190615663565b6040516020818303038152906040527f9710a9d0000000000000000000000000000000000000000000000000000000007bffffffffffffffffffffffffffffffffffffffffffffffffffffffff19166020820180517bffffffffffffffffffffffffffffffffffffffffffffffffffffffff83818316178352505050506140d6565b5050565b600033905090565b6139f28282612a81565b613a8157613a178173ffffffffffffffffffffffffffffffffffffffff1660146140ff565b613a258360001c60206140ff565b604051602001613a36929190615767565b6040516020818303038152906040526040517f08c379a0000000000000000000000000000000000000000000000000000000008152600401613a7891906157a1565b60405180910390fd5b5050565b613a8f8282612a81565b613b6157600160008084815260200190815260200160002060000160008373ffffffffffffffffffffffffffffffffffffffff1673ffffffffffffffffffffffffffffffffffffffff16815260200190815260200160002060006101000a81548160ff021916908315150217905550613b066139e0565b73ffffffffffffffffffffffffffffffffffffffff168173ffffffffffffffffffffffffffffffffffffffff16837f2f8788117e7eff1d82e926ec794901d17c78024a50270940304540a733656f0d60405160405180910390a45b5050565b613b6f8282612a81565b15613c4257600080600084815260200190815260200160002060000160008373ffffffffffffffffffffffffffffffffffffffff1673ffffffffffffffffffffffffffffffffffffffff16815260200190815260200160002060006101000a81548160ff021916908315150217905550613be76139e0565b73ffffffffffffffffffffffffffffffffffffffff168173ffffffffffffffffffffffffffffffffffffffff16837ff6391f5c32d9c69d2a47ea670b442974b53935d1edc7fd64eb21e047a839171b60405160405180910390a45b5050565b60006013805490509050600080600190505b82811015613ca45760138181548110613c7457613c73614bb8565b5b90600052602060002090600402016001015482613c919190614f64565b915080613c9d90615253565b9050613c58565b5060008114613d2d57600381613cba9190614cf3565b9050806013600081548110613cd257613cd1614bb8565b5b906000526020600020906004020160010154601054613cf19190614d24565b613cfb9190614f64565b601081905550806013600081548110613d1757613d16614bb8565b5b9060005260206000209060040201600101819055505b5050565b6000601380549050905060005b81811015613e0a578273ffffffffffffffffffffffffffffffffffffffff1660138281548110613d7157613d70614bb8565b5b906000526020600020906004020160000160009054906101000a900473ffffffffffffffffffffffffffffffffffffffff1673ffffffffffffffffffffffffffffffffffffffff1603613df9576040517f08c379a0000000000000000000000000000000000000000000000000000000008152600401613df09061580f565b60405180910390fd5b80613e0390615253565b9050613d3e565b505050565b8015613e1e57613e1d61223c565b5b8260106000828254613e309190614f64565b92505081905550601360405180608001604052808473ffffffffffffffffffffffffffffffffffffffff168152602001858152602001600f544211613e7757600f54613e79565b425b81526020016000815250908060018154018082558091505060019003906000526020600020906004020160009091909190915060008201518160000160006101000a81548173ffffffffffffffffffffffffffffffffffffffff021916908373ffffffffffffffffffffffffffffffffffffffff1602179055506020820151816001015560408201518160020155606082015181600301555050613f1b613c46565b600060138054905090507f20b669aa921947a6d9602a921d2db3b6b30f21b9aca98580fa3972530330b27a818585601054604051613f5c949392919061582f565b60405180910390a150505050565b600081613f7684612dac565b613f809190614cf3565b9050613fc96040518060400160405280600981526020017f73686172653a2025730000000000000000000000000000000000000000000000815250613fc4836133a6565b613944565b6203d09081613fd89190614c82565b600c8190555062015180600c54613fef9190614cf3565b600d819055507fcd7c861d63893659123f817b192b8621ff1923a7c4589c260173cedcf9e986a6600c54600d5460405161402a929190614907565b60405180910390a1505050565b6140d183838360405160240161404f93929190615874565b6040516020818303038152906040527f969cdd03000000000000000000000000000000000000000000000000000000007bffffffffffffffffffffffffffffffffffffffffffffffffffffffff19166020820180517bffffffffffffffffffffffffffffffffffffffffffffffffffffffff83818316178352505050506140d6565b505050565b60008151905060006a636f6e736f6c652e6c6f679050602083016000808483855afa5050505050565b6060600060028360026141129190614c82565b61411c9190614f64565b67ffffffffffffffff811115614135576141346158b2565b5b6040519080825280601f01601f1916602001820160405280156141675781602001600182028036833780820191505090505b5090507f30000000000000000000000000000000000000000000000000000000000000008160008151811061419f5761419e614bb8565b5b60200101907effffffffffffffffffffffffffffffffffffffffffffffffffffffffffffff1916908160001a9053507f78000000000000000000000000000000000000000000000000000000000000008160018151811061420357614202614bb8565b5b60200101907effffffffffffffffffffffffffffffffffffffffffffffffffffffffffffff1916908160001a905350600060018460026142439190614c82565b61424d9190614f64565b90505b60018111156142ed577f3031323334353637383961626364656600000000000000000000000000000000600f86166010811061428f5761428e614bb8565b5b1a60f81b8282815181106142a6576142a5614bb8565b5b60200101907effffffffffffffffffffffffffffffffffffffffffffffffffffffffffffff1916908160001a905350600485901c9450806142e6906158e1565b9050614250565b5060008414614331576040517f08c379a000000000000000000000000000000000000000000000000000000000815260040161432890615956565b60405180910390fd5b8091505092915050565b600080fd5b60007fffffffff0000000000000000000000000000000000000000000000000000000082169050919050565b61437581614340565b811461438057600080fd5b50565b6000813590506143928161436c565b92915050565b6000602082840312156143ae576143ad61433b565b5b60006143bc84828501614383565b91505092915050565b60008115159050919050565b6143da816143c5565b82525050565b60006020820190506143f560008301846143d1565b92915050565b6000819050919050565b61440e816143fb565b82525050565b60006020820190506144296000830184614405565b92915050565b614438816143fb565b811461444357600080fd5b50565b6000813590506144558161442f565b92915050565b6000602082840312156144715761447061433b565b5b600061447f84828501614446565b91505092915050565b600073ffffffffffffffffffffffffffffffffffffffff82169050919050565b6000819050919050565b60006144cd6144c86144c384614488565b6144a8565b614488565b9050919050565b60006144df826144b2565b9050919050565b60006144f1826144d4565b9050919050565b614501816144e6565b82525050565b600060808201905061451c60008301876144f8565b6145296020830186614405565b6145366040830185614405565b6145436060830184614405565b95945050505050565b600061455782614488565b9050919050565b60006145698261454c565b9050919050565b6145798161455e565b811461458457600080fd5b50565b60008135905061459681614570565b92915050565b6000602082840312156145b2576145b161433b565b5b60006145c084828501614587565b91505092915050565b6000819050919050565b6145dc816145c9565b81146145e757600080fd5b50565b6000813590506145f9816145d3565b92915050565b6000602082840312156146155761461461433b565b5b6000614623848285016145ea565b91505092915050565b614635816145c9565b82525050565b6000602082019050614650600083018461462c565b92915050565b61465f8161454c565b811461466a57600080fd5b50565b60008135905061467c81614656565b92915050565b600080604083850312156146995761469861433b565b5b60006146a7858286016145ea565b92505060206146b88582860161466d565b9150509250929050565b6146cb8161454c565b82525050565b60006020820190506146e660008301846146c2565b92915050565b600080604083850312156147035761470261433b565b5b600061471185828601614446565b925050602061472285828601614446565b9150509250929050565b6000614737826144d4565b9050919050565b6147478161472c565b82525050565b6000602082019050614762600083018461473e565b92915050565b614771816143c5565b811461477c57600080fd5b50565b60008135905061478e81614768565b92915050565b6000806000606084860312156147ad576147ac61433b565b5b60006147bb86828701614446565b93505060206147cc86828701614446565b92505060406147dd8682870161477f565b9150509250925092565b60006147f28261454c565b9050919050565b614802816147e7565b811461480d57600080fd5b50565b60008135905061481f816147f9565b92915050565b60008060006060848603121561483e5761483d61433b565b5b600061484c86828701614446565b935050602061485d86828701614810565b925050604061486e8682870161477f565b9150509250925092565b6000614883826144d4565b9050919050565b61489381614878565b82525050565b60006020820190506148ae600083018461488a565b92915050565b6000806000606084860312156148cd576148cc61433b565b5b60006148db86828701614446565b93505060206148ec86828701614446565b92505060406148fd86828701614446565b9150509250925092565b600060408201905061491c6000830185614405565b6149296020830184614405565b9392505050565b600061493b826144d4565b9050919050565b61494b81614930565b82525050565b60006020820190506149666000830184614942565b92915050565b6000806000606084860312156149855761498461433b565b5b600061499386828701614446565b93505060206149a48682870161466d565b92505060406149b586828701614446565b9150509250925092565b60008060008060008060c087890312156149dc576149db61433b565b5b60006149ea89828a0161466d565b96505060206149fb89828a0161466d565b9550506040614a0c89828a01614446565b9450506060614a1d89828a01614446565b9350506080614a2e89828a01614446565b92505060a0614a3f89828a01614446565b9150509295509295509295565b60008060408385031215614a6357614a6261433b565b5b6000614a7185828601614446565b9250506020614a828582860161466d565b9150509250929050565b600060e082019050614aa1600083018a614405565b614aae6020830189614405565b614abb6040830188614405565b614ac86060830187614405565b614ad56080830186614405565b614ae260a0830185614405565b614aef60c0830184614405565b98975050505050505050565b60008060408385031215614b1257614b1161433b565b5b6000614b208582860161466d565b9250506020614b318582860161466d565b9150509250929050565b600082825260208201905092915050565b7f5265656e7472616e637947756172643a207265656e7472616e742063616c6c00600082015250565b6000614b82601f83614b3b565b9150614b8d82614b4c565b602082019050919050565b60006020820190508181036000830152614bb181614b75565b9050919050565b7f4e487b7100000000000000000000000000000000000000000000000000000000600052603260045260246000fd5b7f77697468647261773a206e6f7420676f6f640000000000000000000000000000600082015250565b6000614c1d601283614b3b565b9150614c2882614be7565b602082019050919050565b60006020820190508181036000830152614c4c81614c10565b9050919050565b7f4e487b7100000000000000000000000000000000000000000000000000000000600052601160045260246000fd5b6000614c8d826143fb565b9150614c98836143fb565b9250828202614ca6816143fb565b91508282048414831517614cbd57614cbc614c53565b5b5092915050565b7f4e487b7100000000000000000000000000000000000000000000000000000000600052601260045260246000fd5b6000614cfe826143fb565b9150614d09836143fb565b925082614d1957614d18614cc4565b5b828204905092915050565b6000614d2f826143fb565b9150614d3a836143fb565b9250828203905081811115614d5257614d51614c53565b5b92915050565b6000604082019050614d6d60008301856146c2565b614d7a6020830184614405565b9392505050565b600081519050614d9081614768565b92915050565b600060208284031215614dac57614dab61433b565b5b6000614dba84828501614d81565b91505092915050565b7f726577617264732068617665206e6f742079657420626567756e000000000000600082015250565b6000614df9601a83614b3b565b9150614e0482614dc3565b602082019050919050565b60006020820190508181036000830152614e2881614dec565b9050919050565b7f416363657373436f6e74726f6c3a2063616e206f6e6c792072656e6f756e636560008201527f20726f6c657320666f722073656c660000000000000000000000000000000000602082015250565b6000614e8b602f83614b3b565b9150614e9682614e2f565b604082019050919050565b60006020820190508181036000830152614eba81614e7e565b9050919050565b7f5061757361626c653a2070617573656400000000000000000000000000000000600082015250565b6000614ef7601083614b3b565b9150614f0282614ec1565b602082019050919050565b60006020820190508181036000830152614f2681614eea565b9050919050565b6000606082019050614f4260008301866146c2565b614f4f60208301856146c2565b614f5c6040830184614405565b949350505050565b6000614f6f826143fb565b9150614f7a836143fb565b9250828201905080821115614f9257614f91614c53565b5b92915050565b7f706f6f6c20646f6573206e6f7420657869737400000000000000000000000000600082015250565b6000614fce601383614b3b565b9150614fd982614f98565b602082019050919050565b60006020820190508181036000830152614ffd81614fc1565b9050919050565b7f776974686472617720534f554c20627920756e7374616b696e67000000000000600082015250565b600061503a601a83614b3b565b915061504582615004565b602082019050919050565b600060208201905081810360008301526150698161502d565b9050919050565b7f7769746864726177206e6f7420676f6f64000000000000000000000000000000600082015250565b60006150a6601183614b3b565b91506150b182615070565b602082019050919050565b600060208201905081810360008301526150d581615099565b9050919050565b7f6e6f206d69677261746f72207365740000000000000000000000000000000000600082015250565b6000615112600f83614b3b565b915061511d826150dc565b602082019050919050565b6000602082019050818103600083015261514181615105565b9050919050565b6000815190506151578161442f565b92915050565b6000602082840312156151735761517261433b565b5b600061518184828501615148565b91505092915050565b600060208201905061519f60008301846144f8565b92915050565b6000815190506151b4816147f9565b92915050565b6000602082840312156151d0576151cf61433b565b5b60006151de848285016151a5565b91505092915050565b7f6d6967726174653a20696e73756666696369656e742062616c616e6365000000600082015250565b600061521d601d83614b3b565b9150615228826151e7565b602082019050919050565b6000602082019050818103600083015261524c81615210565b9050919050565b600061525e826143fb565b91507fffffffffffffffffffffffffffffffffffffffffffffffffffffffffffffffff82036152905761528f614c53565b5b600182019050919050565b60006060820190506152b06000830186614405565b6152bd60208301856146c2565b6152ca6040830184614405565b949350505050565b7f616c726561647920696e697469616c697a656400000000000000000000000000600082015250565b6000615308601383614b3b565b9150615313826152d2565b602082019050919050565b60006020820190508181036000830152615337816152fb565b9050919050565b600060c08201905061535360008301896146c2565b61536060208301886146c2565b61536d60408301876146c2565b61537a60608301866146c2565b6153876080830185614405565b61539460a0830184614405565b979650505050505050565b7f6d7573742062652061206e6577206163636f756e740000000000000000000000600082015250565b60006153d5601583614b3b565b91506153e08261539f565b602082019050919050565b60006020820190508181036000830152615404816153c8565b9050919050565b600060408201905061542060008301856146c2565b61542d60208301846146c2565b9392505050565b7f6465706f73697420534f554c206279207374616b696e67000000000000000000600082015250565b600061546a601783614b3b565b915061547582615434565b602082019050919050565b600060208201905081810360008301526154998161545d565b9050919050565b7f6d7573742062652061206e657720746f6b656e20616464726573730000000000600082015250565b60006154d6601b83614b3b565b91506154e1826154a0565b602082019050919050565b60006020820190508181036000830152615505816154c9565b9050919050565b7f6d757374206265206174206c65617374206f6e65206e65772076616c75650000600082015250565b6000615542601e83614b3b565b915061554d8261550c565b602082019050919050565b6000602082019050818103600083015261557181615535565b9050919050565b7f7765696768742063616e6e6f742065786365656420746f74616c576569676874600082015250565b60006155ae602083614b3b565b91506155b982615578565b602082019050919050565b600060208201905081810360008301526155dd816155a1565b9050919050565b600081519050919050565b60005b8381101561560d5780820151818401526020810190506155f2565b60008484015250505050565b6000601f19601f8301169050919050565b6000615635826155e4565b61563f8185614b3b565b935061564f8185602086016155ef565b61565881615619565b840191505092915050565b6000604082019050818103600083015261567d818561562a565b905061568c6020830184614405565b9392505050565b600081905092915050565b7f416363657373436f6e74726f6c3a206163636f756e7420000000000000000000600082015250565b60006156d4601783615693565b91506156df8261569e565b601782019050919050565b60006156f5826155e4565b6156ff8185615693565b935061570f8185602086016155ef565b80840191505092915050565b7f206973206d697373696e6720726f6c6520000000000000000000000000000000600082015250565b6000615751601183615693565b915061575c8261571b565b601182019050919050565b6000615772826156c7565b915061577e82856156ea565b915061578982615744565b915061579582846156ea565b91508190509392505050565b600060208201905081810360008301526157bb818461562a565b905092915050565b7f6475706c69636174656420706f6f6c0000000000000000000000000000000000600082015250565b60006157f9600f83614b3b565b9150615804826157c3565b602082019050919050565b60006020820190508181036000830152615828816157ec565b9050919050565b60006080820190506158446000830187614405565b6158516020830186614405565b61585e60408301856144f8565b61586b6060830184614405565b95945050505050565b6000606082019050818103600083015261588e818661562a565b905061589d6020830185614405565b6158aa6040830184614405565b949350505050565b7f4e487b7100000000000000000000000000000000000000000000000000000000600052604160045260246000fd5b60006158ec826143fb565b9150600082036158ff576158fe614c53565b5b600182039050919050565b7f537472696e67733a20686578206c656e67746820696e73756666696369656e74600082015250565b6000615940602083614b3b565b915061594b8261590a565b602082019050919050565b6000602082019050818103600083015261596f81615933565b905091905056fe6669727374206465706f73697420616e64206c617374207769746864726177616c3a20257320616e64202573a26469706673582212209ad1de913f71a077da5574e955167f410643ca8c02fc7e9d7969ae253ee94de964736f6c63430008110033",
  "immutableReferences": {
    "22044": [
      {
        "length": 32,
        "start": 14367
      }
    ]
  },
  "source": "// SPDX-License-Identifier: MIT\n\npragma solidity >=0.8.0;\nimport '@openzeppelin/contracts/access/AccessControl.sol';\nimport '@openzeppelin/contracts/security/Pausable.sol';\nimport '@openzeppelin/contracts/security/ReentrancyGuard.sol';\nimport './MockSoulPower.sol';\nimport './MockSeanceCircle.sol';\nimport '../interfaces/IMigrator.sol';\n\n// the summoner of souls | ownership transferred to a governance smart contract \n// upon sufficient distribution + the community's desire to self-govern.\n\ncontract MockSoulSummoner is AccessControl, Pausable, ReentrancyGuard {\n\n    // user info\n    struct Users {\n        uint amount;           // total tokens user has provided.\n        uint rewardDebt;       // reward debt (see below).\n        uint rewardDebtAtTime; // the last time user stake.\n        uint lastWithdrawTime; // the last time a user withdrew at.\n        uint firstDepositTime; // the last time a user deposited at.\n        uint timeDelta;        // time passed since withdrawals.\n        uint lastDepositTime;  // most recent deposit time.\n\n        //   pending reward = (user.amount * pool.accSoulPerShare) - user.rewardDebt\n\n        // the following occurs when a user +/- tokens to a pool:\n        //   1. pool: `accSoulPerShare` and `lastRewardTime` update.\n        //   2. user: receives pending reward.\n        //   3. user: `amount` updates(+/-).\n        //   4. user: `rewardDebt` updates (+/-).\n    }\n\n    // pool info\n    struct Pools {\n        IERC20 lpToken;       // lp token ierc20 contract.\n        uint allocPoint;      // allocation points assigned to this pool | SOULs to distribute per second.\n        uint lastRewardTime;  // most recent UNIX timestamp during which SOULs distribution occurred in the pool.\n        uint accSoulPerShare; // accumulated SOULs per share, times 1e12.\n    }\n\n    // soul power: our native utility token\n    address private soulAddress;\n    MockSoulPower public soul;\n    \n    // seance circle: our governance token\n    address private seanceAddress;\n    MockSeanceCircle public seance;\n\n    address public team; // receives 1/8 soul supply\n    address public dao; // recieves 1/8 soul supply\n\n    // migrator contract | has lotsa power\n    IMigrator public migrator;\n\n    // blockchain variables accounting for share of overall emissions\n    uint public totalWeight;\n    uint public weight;\n\n    // soul x day x this.chain\n    uint public dailySoul; // = weight * 250K * 1e18;\n\n    // soul x second x this.chain\n    uint public soulPerSecond; // = dailySoul / 86400;\n\n    // bonus muliplier for early soul summoners\n    uint public bonusMultiplier = 1;\n\n    // timestamp when soul rewards began (initialized)\n    uint public startTime;\n\n    // ttl allocation points | must be the sum of all allocation points\n    uint public totalAllocPoint;\n\n    // summoner initialized state.\n    bool public isInitialized;\n\n    // decay rate on withdrawal fee of 1%.\n    uint public immutable dailyDecay = enWei(1);\n\n    // start rate for the withdrawal fee.\n    uint public startRate;\n\n    Pools[] public poolInfo; // pool info\n    mapping (uint => mapping (address => Users)) public userInfo; // staker data\n\n    // divinated roles\n    bytes32 public isis; // soul summoning goddess of magic\n    bytes32 public maat; // goddess of cosmic order\n\n    event RoleDivinated(bytes32 role, bytes32 supreme);\n\n    // restricted to the council of the role passed as an object to obey (role)\n    modifier obey(bytes32 role) {\n        _checkRole(role, _msgSender());\n        _;\n    }\n\n    // prevents: early reward distribution\n    modifier isSummoned {\n        require(isInitialized, 'rewards have not yet begun');\n        _;\n    }\n\n    event Deposit(address indexed user, uint indexed pid, uint amount);\n    event Withdraw(address indexed user, uint indexed pid, uint amount, uint timeStamp);\n\n    event Initialized(address team, address dao, address soul, address seance, uint totalAllocPoint, uint weight);\n    event PoolAdded(uint pid, uint allocPoint, IERC20 lpToken, uint totalAllocPoint);\n    event PoolSet(uint pid, uint allocPoint);\n\n    event WeightUpdated(uint weight, uint totalWeight);\n    event RewardsUpdated(uint dailySoul, uint soulPerSecond);\n    event StartRateUpdated(uint startRate);\n    event AccountsUpdated(address dao, address team);\n    event TokensUpdated(address soul, address seance);\n    event DepositRevised(uint _pid, address _user, uint _time);\n\n    // validates: pool exists\n    modifier validatePoolByPid(uint pid) {\n        require(pid < poolInfo.length, 'pool does not exist');\n        _;\n    }\n\n    // channels the power of the isis and ma'at to the deployer (deployer)\n    constructor() {\n        team = msg.sender; // 0x36d0164e87B58427c4153c089aeDDa8Ec0B80B9D;\n        dao = msg.sender; // 0x1C63C726926197BD3CB75d86bCFB1DaeBcD87250;        \n        isis = keccak256(\"isis\"); // goddess of magic who creates pools\n        maat = keccak256(\"maat\"); // goddess of cosmic order who allocates emissions\n\n        _divinationCeremony(DEFAULT_ADMIN_ROLE, DEFAULT_ADMIN_ROLE, team);\n        _divinationCeremony(isis, isis, team); // isis role created -- owner divined admin\n        _divinationCeremony(maat, isis, dao); // maat role created -- isis divined admin\n    } \n\n    function _divinationCeremony(bytes32 _role, bytes32 _adminRole, address _account) \n        internal returns (bool) {\n            _setupRole(_role, _account);\n            _setRoleAdmin(_role, _adminRole);\n        return true;\n    }\n\n    // validate: pool uniqueness to eliminate duplication risk (internal view)\n    function checkPoolDuplicate(IERC20 _token) internal view {\n        uint length = poolInfo.length;\n\n        for (uint pid = 0; pid < length; ++pid) {\n            require(poolInfo[pid].lpToken != _token, 'duplicated pool');\n        }\n    }\n\n    // activates rewards (owner)\n    function initialize(\n        address _soulAddress, \n        address _seanceAddress, \n        uint _totalWeight,\n        uint _weight,\n        uint _stakingAlloc ,\n        uint _startRate\n       ) external obey(isis) {\n        require(!isInitialized, 'already initialized');\n\n        soulAddress = _soulAddress;\n        seanceAddress = _seanceAddress;\n\n        startTime = block.timestamp;\n\n        totalWeight = _totalWeight + _weight;\n        weight = _weight;\n        startRate = enWei(_startRate);\n        uint allocPoint = _stakingAlloc;\n\n        soul  = MockSoulPower(soulAddress);\n        seance = MockSeanceCircle(seanceAddress);\n\n        // updates dailySoul and soulPerSecond\n        updateRewards(weight, totalWeight); \n\n        // staking pool\n        poolInfo.push(Pools({\n            lpToken: soul,\n            allocPoint: allocPoint,\n            lastRewardTime: startTime,\n            accSoulPerShare: 0\n        }));\n\n        isInitialized = true; // triggers initialize state\n        totalAllocPoint += allocPoint; // kickstarts total allocation\n\n        emit Initialized(team, dao, soulAddress, seanceAddress, totalAllocPoint, weight);\n    }\n\n    function updateMultiplier(uint _bonusMultiplier) external obey(maat) {\n        bonusMultiplier = _bonusMultiplier;\n    }\n\n    function updateRewards(uint _weight, uint _totalWeight) internal {\n        uint share = enWei(_weight) / _totalWeight; // share of ttl emissions for chain (chain % ttl emissions)\n        console.log('share: %s', fromWei(share));\n        \n        dailySoul = share * (250_000); // dailySoul (for this.chain) = share (%) x 250K (soul emissions constant)\n        soulPerSecond = dailySoul / 1 days; // updates: daily rewards expressed in seconds (1 days = 86,400 secs)\n\n        emit RewardsUpdated(dailySoul, soulPerSecond);\n    }\n\n    function updateStartRate(uint _startRate) public obey(maat) {\n        require(startRate != enWei(_startRate));\n        startRate = enWei(_startRate);\n        console.log('new start rate is: %s', fromWei(startRate));\n        \n        emit StartRateUpdated(startRate);\n\n    }\n\n    // returns: amount of pools\n    function poolLength() external view returns (uint) {\n        return poolInfo.length;\n    }\n\n    // add: new pool (isis)\n    function addPool(uint _allocPoint, IERC20 _lpToken, bool _withUpdate) \n        public isSummoned obey(isis) { // isis: the soul summoning goddess whose power transcends them all\n            checkPoolDuplicate(_lpToken);\n            _addPool(_allocPoint, _lpToken, _withUpdate);\n    }\n\n    // add: new pool (internal)\n    function _addPool(uint _allocPoint, IERC20 _lpToken, bool _withUpdate) internal {\n        if (_withUpdate) { massUpdatePools(); }\n\n        totalAllocPoint += _allocPoint;\n        \n        poolInfo.push(\n        Pools({\n            lpToken: _lpToken,\n            allocPoint: _allocPoint,\n            lastRewardTime: block.timestamp > startTime ? block.timestamp : startTime,\n            accSoulPerShare: 0\n        }));\n        \n        updateStakingPool();\n        uint pid = poolInfo.length;\n\n        emit PoolAdded(pid, _allocPoint, _lpToken, totalAllocPoint);\n    }\n\n    // set: allocation points (maat)\n    function set(uint pid, uint allocPoint, bool withUpdate) \n        external isSummoned validatePoolByPid(pid) obey(maat) {\n            if (withUpdate) { massUpdatePools(); } // updates all pools\n            \n            uint prevAllocPoint = poolInfo[pid].allocPoint;\n            poolInfo[pid].allocPoint = allocPoint;\n            \n            if (prevAllocPoint != allocPoint) {\n                totalAllocPoint = totalAllocPoint - prevAllocPoint + allocPoint;\n                \n                updateStakingPool(); // updates only selected pool\n        }\n\n        emit PoolSet(pid, allocPoint);\n    }\n\n    // update: weight (maat)\n    function updateWeights(uint _weight, uint _totalWeight) external obey(maat) {\n        require(weight != _weight || totalWeight != _totalWeight, 'must be at least one new value');\n        require(_totalWeight >= _weight, 'weight cannot exceed totalWeight');\n\n        weight = _weight;     \n        totalWeight = _totalWeight;\n        console.log('new weights: %s out of %s', weight, totalWeight);\n\n        updateRewards(weight, totalWeight);\n\n        emit WeightUpdated(weight, totalWeight);\n    }\n\n    // update: staking pool (internal)\n    function updateStakingPool() internal {\n        uint length = poolInfo.length;\n        uint points;\n        \n        for (uint pid = 1; pid < length; ++pid) { \n            points = points + poolInfo[pid].allocPoint; \n        }\n\n        if (points != 0) {\n            points = points / 3;\n            totalAllocPoint = totalAllocPoint - poolInfo[0].allocPoint + points;\n            poolInfo[0].allocPoint = points;\n        }\n    }\n\n    // set: migrator contract (owner)\n    function setMigrator(IMigrator _migrator) external isSummoned obey(isis) {\n        migrator = _migrator;\n    }\n\n    // view: user delta\n\tfunction userDelta(uint256 _pid, address _user) public view returns (uint256 delta) {\n        Users memory user = userInfo[_pid][_user];\n        console.log(\n            'first deposit and last withdrawal: %s and %s', \n            user.firstDepositTime,\n            user.lastWithdrawTime\n            );\n        \n        console.log('timestamp: %s', block.timestamp);\n\n        return user.lastWithdrawTime > 0\n            ? block.timestamp - user.lastWithdrawTime\n            : block.timestamp - user.firstDepositTime;\n\t}\n\n    // migrate: lp tokens to another contract (migrator)\n    function migrate(uint pid) external isSummoned validatePoolByPid(pid) {\n        require(address(migrator) != address(0), 'no migrator set');\n        Pools storage pool = poolInfo[pid];\n        IERC20 lpToken = pool.lpToken;\n\n        uint bal = lpToken.balanceOf(address(this));\n        lpToken.approve(address(migrator), bal);\n        IERC20 _lpToken = migrator.migrate(lpToken);\n        \n        require(bal == _lpToken.balanceOf(address(this)), \"migrate: insufficient balance\");\n        pool.lpToken = _lpToken;\n    }\n\n    // view: bonus multiplier (public)\n    function getMultiplier(uint from, uint to) public view returns (uint) {\n        return (to - from) * bonusMultiplier;\n    }\n\n    // returns: decay rate for a pid\n    function getFeeRate(uint pid, uint timeDelta) public view returns (uint feeRate) {\n        uint daysPassed = timeDelta < 1 days ? 0 : timeDelta / 1 days;\n        uint rateDecayed = enWei(daysPassed);\n        uint _rate = rateDecayed >= startRate ? 0 : startRate - rateDecayed;\n        \n        // returns 0 for SAS\n        return pid == 0 ? 0 : _rate;\n    }\n\n    // returns: feeAmount and with withdrawableAmount for a given pid and amount\n    function getWithdrawable(uint pid, uint timeDelta, uint amount) public view returns (uint _feeAmount, uint _withdrawable) {\n        uint feeRate = fromWei(getFeeRate(pid, timeDelta));\n        uint feeAmount = (amount * feeRate) / 100;\n        console.log('feeRate: %s', feeRate);\n        console.log('feeAmount: %s', fromWei(feeAmount));\n        uint withdrawable = amount - feeAmount;\n\n        return (feeAmount, withdrawable);\n    }\n\n    // view: pending soul rewards (external)\n    function pendingSoul(uint pid, address _user) external view returns (uint pendingAmount) {\n        Pools storage pool = poolInfo[pid];\n        Users storage user = userInfo[pid][_user];\n\n        uint accSoulPerShare = pool.accSoulPerShare;\n        uint lpSupply = pool.lpToken.balanceOf(address(this));\n\n        if (block.timestamp > pool.lastRewardTime && lpSupply != 0) {\n            uint multiplier = getMultiplier(pool.lastRewardTime, block.timestamp);\n            uint soulReward = multiplier * soulPerSecond * pool.allocPoint / totalAllocPoint;\n            accSoulPerShare = accSoulPerShare + soulReward * 1e12 / lpSupply;\n        }\n\n        return user.amount * accSoulPerShare / 1e12 - user.rewardDebt;\n    }\n\n    // update: rewards for all pools (public)\n    function massUpdatePools() public {\n        uint length = poolInfo.length;\n        for (uint pid = 0; pid < length; ++pid) { updatePool(pid); }\n    }\n\n    // update: rewards for a given pool id (public)\n    function updatePool(uint pid) public validatePoolByPid(pid) {\n        Pools storage pool = poolInfo[pid];\n\n        if (block.timestamp <= pool.lastRewardTime) { return; }\n        uint lpSupply = pool.lpToken.balanceOf(address(this));\n\n        if (lpSupply == 0) { pool.lastRewardTime = block.timestamp; return; } // first staker in pool\n\n        uint multiplier = getMultiplier(pool.lastRewardTime, block.timestamp);\n        uint soulReward = multiplier * soulPerSecond * pool.allocPoint / totalAllocPoint;\n        \n        uint divi = soulReward * 1e12 / 8e12;   // 12.5% rewards\n        uint divis = divi * 2;                  // total divis\n        uint shares = soulReward - divis;       // net shares\n        \n        soul.mint(team, divi);\n        soul.mint(dao, divi);\n        soul.mint(address(seance), shares);\n        console.log('%s SOUL minted to SEANCE', fromWei(shares));\n\n        pool.accSoulPerShare = pool.accSoulPerShare + (soulReward * 1e12 / lpSupply);\n        pool.lastRewardTime = block.timestamp;\n    }\n\n    // deposit: lp tokens (lp owner)\n    function deposit(uint pid, uint amount) external nonReentrant validatePoolByPid(pid) whenNotPaused {\n        require (pid != 0, 'deposit SOUL by staking');\n\n        Pools storage pool = poolInfo[pid];\n        Users storage user = userInfo[pid][msg.sender];\n        updatePool(pid);\n\n        if (user.amount > 0) { // already deposited assets\n            uint pending = (user.amount * pool.accSoulPerShare) / 1e12 - user.rewardDebt;\n            if(pending > 0) { // sends pending rewards, if applicable\n                safeSoulTransfer(msg.sender, pending);\n            }\n        }\n\n        if (amount > 0) { // if adding more\n            pool.lpToken.transferFrom(address(msg.sender), address(this), amount);\n            user.amount += amount;\n        }\n\n        user.rewardDebt = user.amount * pool.accSoulPerShare / 1e12;\n\n        // marks timestamp for first deposit\n        user.firstDepositTime = \n            user.firstDepositTime > 0 \n                ? user.firstDepositTime\n                : block.timestamp;\n\n        console.log('first deposit made at: %s', user.firstDepositTime);\n        emit Deposit(msg.sender, pid, amount);\n    }\n\n    // withdraw: lp tokens (external farmers)\n    function withdraw(uint pid, uint amount) external nonReentrant validatePoolByPid(pid) {\n        require (pid != 0, 'withdraw SOUL by unstaking');\n        Pools storage pool = poolInfo[pid];\n        Users storage user = userInfo[pid][msg.sender];\n\n        require(user.amount >= amount, 'withdraw not good');\n        updatePool(pid);\n\n        uint pending = user.amount * pool.accSoulPerShare / 1e12 - user.rewardDebt;\n\n        if(pending > 0) { safeSoulTransfer(msg.sender, pending); }\n\n        if(amount > 0) {\n            if(user.lastDepositTime > 0){\n\t\t\t\tuser.timeDelta = block.timestamp - user.lastDepositTime; }\n\t\t\telse { user.timeDelta = block.timestamp - user.firstDepositTime; }\n            \n            user.amount = user.amount - amount;\n            \n        }\n        \n        uint timeDelta = userInfo[pid][msg.sender].timeDelta;\n        (, uint withdrawable) = getWithdrawable(pid, timeDelta, amount); // removes feeAmount from amount\n        uint feeAmount = amount - withdrawable;\n\n        pool.lpToken.transfer(address(dao), feeAmount);\n        pool.lpToken.transfer(address(msg.sender), withdrawable);\n\n        user.rewardDebt = user.amount * pool.accSoulPerShare / 1e12;\n        user.lastWithdrawTime = block.timestamp;\n\n        emit Withdraw(msg.sender, pid, amount, block.timestamp);\n    }\n\n    // stake: soul into summoner (external)\n    function enterStaking(uint amount) external nonReentrant whenNotPaused {\n        Pools storage pool = poolInfo[0];\n        Users storage user = userInfo[0][msg.sender];\n        updatePool(0);\n\n        if (user.amount > 0) {\n            uint pending = user.amount * pool.accSoulPerShare / 1e12 - user.rewardDebt;\n            if(pending > 0) {\n                safeSoulTransfer(msg.sender, pending);\n            }\n        } \n        \n        if(amount > 0) {\n            pool.lpToken.transferFrom(address(msg.sender), address(this), amount);\n            user.amount = user.amount + amount;\n        }\n\n        // marks timestamp for first deposit\n        user.firstDepositTime = \n            user.firstDepositTime > 0 \n                ? user.firstDepositTime\n                : block.timestamp;\n\n        console.log('first deposit made at: %s', user.firstDepositTime);\n\n        user.rewardDebt = user.amount * pool.accSoulPerShare / 1e12;\n\n        seance.mint(msg.sender, amount);\n        emit Deposit(msg.sender, 0, amount);\n    }\n\n    // unstake: your soul (external staker)\n    function leaveStaking(uint amount) external nonReentrant {\n        Pools storage pool = poolInfo[0];\n        Users storage user = userInfo[0][msg.sender];\n\n        require(user.amount >= amount, \"withdraw: not good\");\n        updatePool(0);\n\n        uint pending = user.amount * pool.accSoulPerShare / 1e12 - user.rewardDebt;\n\n        if(pending > 0) {\n            safeSoulTransfer(msg.sender, pending);\n        }\n\n        if(amount > 0) {\n            user.amount = user.amount - amount;\n            pool.lpToken.transfer(address(msg.sender), amount);\n        }\n\n        user.rewardDebt = user.amount * pool.accSoulPerShare / 1e12;\n        user.lastWithdrawTime = block.timestamp;\n        \n        console.log('last withdrawal time: %s', user.lastWithdrawTime);\n        seance.burn(msg.sender, amount);\n        emit Withdraw(msg.sender, 0, amount, block.timestamp);\n    }\n    \n    // transfer: seance (internal)\n    function safeSoulTransfer(address account, uint amount) internal {\n        seance.safeSoulTransfer(account, amount);\n    }\n\n    // update accounts: dao and team addresses (owner)\n    function updateAccounts(address _dao, address _team) external obey(isis) {\n        require(dao != _dao || team != _team, 'must be a new account');\n\n        dao = _dao;\n        team = _team;\n\n        emit AccountsUpdated(dao, team);\n    }\n\n    // update tokens: soul and seance addresses (owner)\n    function updateTokens(address _soul, address _seance) external obey(isis) {\n        require(soul != IERC20(_soul) || seance != IERC20(_seance), 'must be a new token address');\n\n        soul = MockSoulPower(_soul);\n        seance = MockSeanceCircle(_seance);\n\n        emit TokensUpdated(_soul, _seance);\n    }\n\n    // manual override to reassign the first deposit time for a given (pid, account)\n    function reviseDeposit(uint _pid, address _user, uint256 _time) public obey(maat) {\n        Users storage user = userInfo[_pid][_user];\n        user.firstDepositTime = _time;\n\n        emit DepositRevised(_pid, _user, _time);\n\t}\n\n    // helper functions to convert to wei and 1/100th\n    function enWei(uint amount) public pure returns (uint) {  return amount * 1e18; }\n    function fromWei(uint amount) public pure returns (uint) { return amount / 1e18; }\n}\n",
  "sourcePath": "/Users/buns/Documents/GitHub/SoulSwapFinance/soulswap-farms/contracts/mocks/MockSoulSummoner.sol",
  "compiler": {
    "name": "solc",
    "version": "0.8.17+commit.8df45f5f.Emscripten.clang"
  },
  "schemaVersion": "3.4.1",
  "updatedAt": "2022-10-01T21:51:30.259Z",
  "devdoc": {
    "kind": "dev",
    "methods": {
      "getRoleAdmin(bytes32)": {
        "details": "Returns the admin role that controls `role`. See {grantRole} and {revokeRole}. To change a role's admin, use {_setRoleAdmin}."
      },
      "grantRole(bytes32,address)": {
        "details": "Grants `role` to `account`. If `account` had not been already granted `role`, emits a {RoleGranted} event. Requirements: - the caller must have ``role``'s admin role."
      },
      "hasRole(bytes32,address)": {
        "details": "Returns `true` if `account` has been granted `role`."
      },
      "paused()": {
        "details": "Returns true if the contract is paused, and false otherwise."
      },
      "renounceRole(bytes32,address)": {
        "details": "Revokes `role` from the calling account. Roles are often managed via {grantRole} and {revokeRole}: this function's purpose is to provide a mechanism for accounts to lose their privileges if they are compromised (such as when a trusted device is misplaced). If the calling account had been granted `role`, emits a {RoleRevoked} event. Requirements: - the caller must be `account`."
      },
      "revokeRole(bytes32,address)": {
        "details": "Revokes `role` from `account`. If `account` had been granted `role`, emits a {RoleRevoked} event. Requirements: - the caller must have ``role``'s admin role."
      },
      "supportsInterface(bytes4)": {
        "details": "See {IERC165-supportsInterface}."
      }
    },
    "version": 1
  },
  "userdoc": {
    "kind": "user",
    "methods": {},
    "version": 1
  }
}