{
  "contractName": "Multicall",
  "abi": [
    {
      "anonymous": false,
      "inputs": [
        {
          "indexed": false,
          "internalType": "address",
          "name": "summoner",
          "type": "address"
        }
      ],
      "name": "Initialized",
      "type": "event"
    },
    {
      "inputs": [],
      "name": "ftmFusdPool",
      "outputs": [
        {
          "internalType": "address",
          "name": "",
          "type": "address"
        }
      ],
      "stateMutability": "view",
      "type": "function"
    },
    {
      "inputs": [],
      "name": "fusd",
      "outputs": [
        {
          "internalType": "contract ERC20",
          "name": "",
          "type": "address"
        }
      ],
      "stateMutability": "view",
      "type": "function"
    },
    {
      "inputs": [],
      "name": "summoner",
      "outputs": [
        {
          "internalType": "address",
          "name": "",
          "type": "address"
        }
      ],
      "stateMutability": "view",
      "type": "function"
    },
    {
      "inputs": [],
      "name": "wftm",
      "outputs": [
        {
          "internalType": "contract ERC20",
          "name": "",
          "type": "address"
        }
      ],
      "stateMutability": "view",
      "type": "function"
    },
    {
      "inputs": [
        {
          "internalType": "address",
          "name": "_summoner",
          "type": "address"
        }
      ],
      "name": "initialize",
      "outputs": [],
      "stateMutability": "nonpayable",
      "type": "function"
    },
    {
      "inputs": [
        {
          "components": [
            {
              "internalType": "address",
              "name": "target",
              "type": "address"
            },
            {
              "internalType": "bytes",
              "name": "callData",
              "type": "bytes"
            }
          ],
          "internalType": "struct Multicall.Call[]",
          "name": "calls",
          "type": "tuple[]"
        }
      ],
      "name": "aggregate",
      "outputs": [
        {
          "internalType": "uint256",
          "name": "blockNumber",
          "type": "uint256"
        },
        {
          "internalType": "bytes[]",
          "name": "returnData",
          "type": "bytes[]"
        }
      ],
      "stateMutability": "nonpayable",
      "type": "function"
    },
    {
      "inputs": [
        {
          "components": [
            {
              "internalType": "address",
              "name": "target",
              "type": "address"
            },
            {
              "internalType": "bytes",
              "name": "callData",
              "type": "bytes"
            }
          ],
          "internalType": "struct Multicall.Call[]",
          "name": "calls",
          "type": "tuple[]"
        }
      ],
      "name": "blockAndAggregate",
      "outputs": [
        {
          "internalType": "uint256",
          "name": "blockNumber",
          "type": "uint256"
        },
        {
          "internalType": "bytes32",
          "name": "blockHash",
          "type": "bytes32"
        },
        {
          "components": [
            {
              "internalType": "bool",
              "name": "success",
              "type": "bool"
            },
            {
              "internalType": "bytes",
              "name": "returnData",
              "type": "bytes"
            }
          ],
          "internalType": "struct Multicall.Result[]",
          "name": "returnData",
          "type": "tuple[]"
        }
      ],
      "stateMutability": "nonpayable",
      "type": "function"
    },
    {
      "inputs": [
        {
          "internalType": "bool",
          "name": "requireSuccess",
          "type": "bool"
        },
        {
          "components": [
            {
              "internalType": "address",
              "name": "target",
              "type": "address"
            },
            {
              "internalType": "bytes",
              "name": "callData",
              "type": "bytes"
            }
          ],
          "internalType": "struct Multicall.Call[]",
          "name": "calls",
          "type": "tuple[]"
        }
      ],
      "name": "tryAggregate",
      "outputs": [
        {
          "components": [
            {
              "internalType": "bool",
              "name": "success",
              "type": "bool"
            },
            {
              "internalType": "bytes",
              "name": "returnData",
              "type": "bytes"
            }
          ],
          "internalType": "struct Multicall.Result[]",
          "name": "returnData",
          "type": "tuple[]"
        }
      ],
      "stateMutability": "nonpayable",
      "type": "function"
    },
    {
      "inputs": [
        {
          "internalType": "bool",
          "name": "requireSuccess",
          "type": "bool"
        },
        {
          "components": [
            {
              "internalType": "address",
              "name": "target",
              "type": "address"
            },
            {
              "internalType": "bytes",
              "name": "callData",
              "type": "bytes"
            }
          ],
          "internalType": "struct Multicall.Call[]",
          "name": "calls",
          "type": "tuple[]"
        }
      ],
      "name": "tryBlockAndAggregate",
      "outputs": [
        {
          "internalType": "uint256",
          "name": "blockNumber",
          "type": "uint256"
        },
        {
          "internalType": "bytes32",
          "name": "blockHash",
          "type": "bytes32"
        },
        {
          "components": [
            {
              "internalType": "bool",
              "name": "success",
              "type": "bool"
            },
            {
              "internalType": "bytes",
              "name": "returnData",
              "type": "bytes"
            }
          ],
          "internalType": "struct Multicall.Result[]",
          "name": "returnData",
          "type": "tuple[]"
        }
      ],
      "stateMutability": "nonpayable",
      "type": "function"
    },
    {
      "inputs": [
        {
          "internalType": "address",
          "name": "addr",
          "type": "address"
        }
      ],
      "name": "getEthBalance",
      "outputs": [
        {
          "internalType": "uint256",
          "name": "balance",
          "type": "uint256"
        }
      ],
      "stateMutability": "view",
      "type": "function"
    },
    {
      "inputs": [],
      "name": "getBlockNumber",
      "outputs": [
        {
          "internalType": "uint256",
          "name": "blockNumber",
          "type": "uint256"
        }
      ],
      "stateMutability": "view",
      "type": "function"
    },
    {
      "inputs": [
        {
          "internalType": "uint256",
          "name": "blockNumber",
          "type": "uint256"
        }
      ],
      "name": "getBlockHash",
      "outputs": [
        {
          "internalType": "bytes32",
          "name": "blockHash",
          "type": "bytes32"
        }
      ],
      "stateMutability": "view",
      "type": "function"
    },
    {
      "inputs": [],
      "name": "getLastBlockHash",
      "outputs": [
        {
          "internalType": "bytes32",
          "name": "blockHash",
          "type": "bytes32"
        }
      ],
      "stateMutability": "view",
      "type": "function"
    },
    {
      "inputs": [],
      "name": "getCurrentBlockTimestamp",
      "outputs": [
        {
          "internalType": "uint256",
          "name": "timestamp",
          "type": "uint256"
        }
      ],
      "stateMutability": "view",
      "type": "function"
    },
    {
      "inputs": [],
      "name": "getCurrentTime",
      "outputs": [
        {
          "internalType": "uint256",
          "name": "currentTime",
          "type": "uint256"
        }
      ],
      "stateMutability": "view",
      "type": "function"
    },
    {
      "inputs": [],
      "name": "getNextDay",
      "outputs": [
        {
          "internalType": "uint256",
          "name": "nextDay",
          "type": "uint256"
        }
      ],
      "stateMutability": "view",
      "type": "function"
    },
    {
      "inputs": [
        {
          "internalType": "uint256",
          "name": "_futureDays",
          "type": "uint256"
        }
      ],
      "name": "getFutureTime",
      "outputs": [
        {
          "internalType": "uint256",
          "name": "futureTime",
          "type": "uint256"
        }
      ],
      "stateMutability": "view",
      "type": "function"
    },
    {
      "inputs": [
        {
          "internalType": "uint256",
          "name": "_startTime",
          "type": "uint256"
        },
        {
          "internalType": "uint256",
          "name": "_endTime",
          "type": "uint256"
        }
      ],
      "name": "getTimespan",
      "outputs": [
        {
          "internalType": "uint256",
          "name": "timespan",
          "type": "uint256"
        }
      ],
      "stateMutability": "pure",
      "type": "function"
    },
    {
      "inputs": [],
      "name": "getCurrentBlockDifficulty",
      "outputs": [
        {
          "internalType": "uint256",
          "name": "difficulty",
          "type": "uint256"
        }
      ],
      "stateMutability": "view",
      "type": "function"
    },
    {
      "inputs": [],
      "name": "getCurrentBlockGasLimit",
      "outputs": [
        {
          "internalType": "uint256",
          "name": "gaslimit",
          "type": "uint256"
        }
      ],
      "stateMutability": "view",
      "type": "function"
    },
    {
      "inputs": [],
      "name": "getCurrentBlockCoinbase",
      "outputs": [
        {
          "internalType": "address",
          "name": "coinbase",
          "type": "address"
        }
      ],
      "stateMutability": "view",
      "type": "function"
    },
    {
      "inputs": [
        {
          "internalType": "contract ERC20",
          "name": "token",
          "type": "address"
        },
        {
          "internalType": "address",
          "name": "account",
          "type": "address"
        }
      ],
      "name": "getTokenBalance",
      "outputs": [
        {
          "internalType": "uint256",
          "name": "balance",
          "type": "uint256"
        }
      ],
      "stateMutability": "view",
      "type": "function"
    },
    {
      "inputs": [
        {
          "internalType": "contract ERC20",
          "name": "stableCoin",
          "type": "address"
        },
        {
          "internalType": "address",
          "name": "pool",
          "type": "address"
        }
      ],
      "name": "getDollarValue",
      "outputs": [
        {
          "internalType": "uint256",
          "name": "value",
          "type": "uint256"
        }
      ],
      "stateMutability": "view",
      "type": "function"
    },
    {
      "inputs": [
        {
          "internalType": "address",
          "name": "pool",
          "type": "address"
        }
      ],
      "name": "getFtmValue",
      "outputs": [
        {
          "internalType": "uint256",
          "name": "value",
          "type": "uint256"
        }
      ],
      "stateMutability": "view",
      "type": "function"
    },
    {
      "inputs": [
        {
          "internalType": "address",
          "name": "pool",
          "type": "address"
        }
      ],
      "name": "getFusdValue",
      "outputs": [
        {
          "internalType": "uint256",
          "name": "value",
          "type": "uint256"
        }
      ],
      "stateMutability": "view",
      "type": "function"
    },
    {
      "inputs": [],
      "name": "getFtmFusdValue",
      "outputs": [
        {
          "internalType": "uint256",
          "name": "value",
          "type": "uint256"
        }
      ],
      "stateMutability": "view",
      "type": "function"
    },
    {
      "inputs": [
        {
          "internalType": "contract ERC20",
          "name": "pool",
          "type": "address"
        }
      ],
      "name": "getValueLocked",
      "outputs": [
        {
          "internalType": "uint256",
          "name": "value",
          "type": "uint256"
        }
      ],
      "stateMutability": "view",
      "type": "function"
    }
  ],
  "bytecode": "0x60c06040527321be370d5312f44cb42ce377bc9b8a0cef1a4c8373ffffffffffffffffffffffffffffffffffffffff1660809073ffffffffffffffffffffffffffffffffffffffff1681525073ad84341756bf337f5a0164515b1f6f993d194e1f73ffffffffffffffffffffffffffffffffffffffff1660a09073ffffffffffffffffffffffffffffffffffffffff168152507311b5b41b55724427b44a8625ae14f24e0caad5866000806101000a81548173ffffffffffffffffffffffffffffffffffffffff021916908373ffffffffffffffffffffffffffffffffffffffff16021790555033600260006101000a81548173ffffffffffffffffffffffffffffffffffffffff021916908373ffffffffffffffffffffffffffffffffffffffff16021790555034801561013357600080fd5b5060805160a051611e1261016e6000396000818161090d0152818161093d0152610fb101526000818161086201526110850152611e126000f3fe608060405234801561001057600080fd5b50600436106101a95760003560e01c80639566b6a7116100f9578063c4d8983311610097578063e0692d1211610071578063e0692d1214610529578063ea69397814610559578063ee82ac5e14610577578063f4f45b46146105a7576101a9565b8063c4d89833146104bd578063dacaa9d1146104db578063dbbc47be146104f9576101a9565b8063bce38bd7116100d3578063bce38bd71461040f578063c3077fa91461043f578063c489744b14610471578063c4d66de8146104a1576101a9565b80639566b6a7146103a3578063a8b0574e146103c1578063b5faa884146103df576101a9565b806342cbb15c1161016657806372425d9d1161014057806372425d9d14610307578063795343971461032557806386d516e8146103555780638c7597a314610373576101a9565b806342cbb15c1461029b5780634d2301cc146102b957806354cc95ad146102e9576101a9565b80630f28c97d146101ae578063252dba42146101cc57806327e86d6e146101fd57806329cb924d1461021b57806331b0879b14610239578063399542e914610269575b600080fd5b6101b66105c5565b6040516101c391906110dc565b60405180910390f35b6101e660048036038101906101e1919061140b565b6105cd565b6040516101f4929190611595565b60405180910390f35b610205610756565b60405161021291906115de565b60405180910390f35b61022361076b565b60405161023091906110dc565b60405180910390f35b610253600480360381019061024e9190611625565b610773565b60405161026091906110dc565b60405180910390f35b610283600480360381019061027e919061169d565b6107cb565b60405161029293929190611807565b60405180910390f35b6102a36107ea565b6040516102b091906110dc565b60405180910390f35b6102d360048036038101906102ce9190611845565b6107f2565b6040516102e091906110dc565b60405180910390f35b6102f1610813565b6040516102fe91906110dc565b60405180910390f35b61030f610829565b60405161031c91906110dc565b60405180910390f35b61033f600480360381019061033a9190611872565b610831565b60405161034c91906110dc565b60405180910390f35b61035d610854565b60405161036a91906110dc565b60405180910390f35b61038d60048036038101906103889190611845565b61085c565b60405161039a91906110dc565b60405180910390f35b6103ab61090b565b6040516103b891906118fe565b60405180910390f35b6103c961092f565b6040516103d69190611928565b60405180910390f35b6103f960048036038101906103f49190611845565b610937565b60405161040691906110dc565b60405180910390f35b6104296004803603810190610424919061169d565b6109e6565b6040516104369190611943565b60405180910390f35b6104596004803603810190610454919061140b565b610b8e565b60405161046893929190611807565b60405180910390f35b61048b600480360381019061048691906119a3565b610bb1565b60405161049891906110dc565b60405180910390f35b6104bb60048036038101906104b69190611845565b610c35565b005b6104c5610dcd565b6040516104d29190611928565b60405180910390f35b6104e3610df1565b6040516104f09190611928565b60405180910390f35b610513600480360381019061050e91906119a3565b610e17565b60405161052091906110dc565b60405180910390f35b610543600480360381019061053e91906119e3565b610ea7565b60405161055091906110dc565b60405180910390f35b610561610fab565b60405161056e91906110dc565b60405180910390f35b610591600480360381019061058c9190611872565b611078565b60405161059e91906115de565b60405180910390f35b6105af611083565b6040516105bc91906118fe565b60405180910390f35b600042905090565b60006060439150825167ffffffffffffffff8111156105ef576105ee611121565b5b60405190808252806020026020018201604052801561062257816020015b606081526020019060019003908161060d5790505b50905060005b83518110156107505760008085838151811061064757610646611a10565b5b60200260200101516000015173ffffffffffffffffffffffffffffffffffffffff1686848151811061067c5761067b611a10565b5b6020026020010151602001516040516106959190611a7b565b6000604051808303816000865af19150503d80600081146106d2576040519150601f19603f3d011682016040523d82523d6000602084013e6106d7565b606091505b50915091508161071c576040517f08c379a000000000000000000000000000000000000000000000000000000000815260040161071390611aef565b60405180910390fd5b808484815181106107305761072f611a10565b5b60200260200101819052505050808061074890611b3e565b915050610628565b50915091565b60006001436107659190611b86565b40905090565b600042905090565b60008282116107b7576040517f08c379a00000000000000000000000000000000000000000000000000000000081526004016107ae90611c2c565b60405180910390fd5b82826107c39190611b86565b905092915050565b6000806060439250434091506107e185856109e6565b90509250925092565b600043905090565b60008173ffffffffffffffffffffffffffffffffffffffff16319050919050565b600062015180426108249190611c4c565b905090565b600044905090565b600062015180826108429190611c80565b4261084d9190611c4c565b9050919050565b600045905090565b600060027f000000000000000000000000000000000000000000000000000000000000000073ffffffffffffffffffffffffffffffffffffffff166370a08231846040518263ffffffff1660e01b81526004016108b99190611928565b602060405180830381865afa1580156108d6573d6000803e3d6000fd5b505050506040513d601f19601f820116820180604052508101906108fa9190611cd7565b6109049190611c80565b9050919050565b7f000000000000000000000000000000000000000000000000000000000000000081565b600041905090565b600060027f000000000000000000000000000000000000000000000000000000000000000073ffffffffffffffffffffffffffffffffffffffff166370a08231846040518263ffffffff1660e01b81526004016109949190611928565b602060405180830381865afa1580156109b1573d6000803e3d6000fd5b505050506040513d601f19601f820116820180604052508101906109d59190611cd7565b6109df9190611c80565b9050919050565b6060815167ffffffffffffffff811115610a0357610a02611121565b5b604051908082528060200260200182016040528015610a3c57816020015b610a296110a7565b815260200190600190039081610a215790505b50905060005b8251811015610b8757600080848381518110610a6157610a60611a10565b5b60200260200101516000015173ffffffffffffffffffffffffffffffffffffffff16858481518110610a9657610a95611a10565b5b602002602001015160200151604051610aaf9190611a7b565b6000604051808303816000865af19150503d8060008114610aec576040519150601f19603f3d011682016040523d82523d6000602084013e610af1565b606091505b50915091508515610b3d5781610b3c576040517f08c379a0000000000000000000000000000000000000000000000000000000008152600401610b3390611aef565b60405180910390fd5b5b6040518060400160405280831515815260200182815250848481518110610b6757610b66611a10565b5b602002602001018190525050508080610b7f90611b3e565b915050610a42565b5092915050565b6000806060610b9e6001856107cb565b8093508194508295505050509193909250565b60008273ffffffffffffffffffffffffffffffffffffffff166370a08231836040518263ffffffff1660e01b8152600401610bec9190611928565b602060405180830381865afa158015610c09573d6000803e3d6000fd5b505050506040513d601f19601f82011682018060405250810190610c2d9190611cd7565b905092915050565b600260009054906101000a900473ffffffffffffffffffffffffffffffffffffffff1673ffffffffffffffffffffffffffffffffffffffff163373ffffffffffffffffffffffffffffffffffffffff1614610cc5576040517f08c379a0000000000000000000000000000000000000000000000000000000008152600401610cbc90611d50565b60405180910390fd5b600260149054906101000a900460ff1615610d15576040517f08c379a0000000000000000000000000000000000000000000000000000000008152600401610d0c90611dbc565b60405180910390fd5b80600160006101000a81548173ffffffffffffffffffffffffffffffffffffffff021916908373ffffffffffffffffffffffffffffffffffffffff1602179055506001600260146101000a81548160ff0219169083151502179055507f908408e307fc569b417f6cbec5d5a06f44a0a505ac0479b47d421a4b2fd6a1e6600160009054906101000a900473ffffffffffffffffffffffffffffffffffffffff16604051610dc29190611928565b60405180910390a150565b60008054906101000a900473ffffffffffffffffffffffffffffffffffffffff1681565b600160009054906101000a900473ffffffffffffffffffffffffffffffffffffffff1681565b600060028373ffffffffffffffffffffffffffffffffffffffff166370a08231846040518263ffffffff1660e01b8152600401610e549190611928565b602060405180830381865afa158015610e71573d6000803e3d6000fd5b505050506040513d601f19601f82011682018060405250810190610e959190611cd7565b610e9f9190611c80565b905092915050565b6000808273ffffffffffffffffffffffffffffffffffffffff166370a08231600160009054906101000a900473ffffffffffffffffffffffffffffffffffffffff166040518263ffffffff1660e01b8152600401610f059190611928565b602060405180830381865afa158015610f22573d6000803e3d6000fd5b505050506040513d601f19601f82011682018060405250810190610f469190611cd7565b90506000610f5384610937565b90506000610f608561085c565b90506000610f6c610fab565b90506000828410159050600081610f8e578284610f899190611c80565b610f90565b845b90508581610f9e9190611c80565b9650505050505050919050565b600060027f000000000000000000000000000000000000000000000000000000000000000073ffffffffffffffffffffffffffffffffffffffff166370a0823160008054906101000a900473ffffffffffffffffffffffffffffffffffffffff166040518263ffffffff1660e01b81526004016110289190611928565b602060405180830381865afa158015611045573d6000803e3d6000fd5b505050506040513d601f19601f820116820180604052508101906110699190611cd7565b6110739190611c80565b905090565b600081409050919050565b7f000000000000000000000000000000000000000000000000000000000000000081565b6040518060400160405280600015158152602001606081525090565b6000819050919050565b6110d6816110c3565b82525050565b60006020820190506110f160008301846110cd565b92915050565b6000604051905090565b600080fd5b600080fd5b600080fd5b6000601f19601f8301169050919050565b7f4e487b7100000000000000000000000000000000000000000000000000000000600052604160045260246000fd5b61115982611110565b810181811067ffffffffffffffff8211171561117857611177611121565b5b80604052505050565b600061118b6110f7565b90506111978282611150565b919050565b600067ffffffffffffffff8211156111b7576111b6611121565b5b602082029050602081019050919050565b600080fd5b600080fd5b600080fd5b600073ffffffffffffffffffffffffffffffffffffffff82169050919050565b6000611202826111d7565b9050919050565b611212816111f7565b811461121d57600080fd5b50565b60008135905061122f81611209565b92915050565b600080fd5b600067ffffffffffffffff82111561125557611254611121565b5b61125e82611110565b9050602081019050919050565b82818337600083830152505050565b600061128d6112888461123a565b611181565b9050828152602081018484840111156112a9576112a8611235565b5b6112b484828561126b565b509392505050565b600082601f8301126112d1576112d061110b565b5b81356112e184826020860161127a565b91505092915050565b600060408284031215611300576112ff6111cd565b5b61130a6040611181565b9050600061131a84828501611220565b600083015250602082013567ffffffffffffffff81111561133e5761133d6111d2565b5b61134a848285016112bc565b60208301525092915050565b60006113696113648461119c565b611181565b9050808382526020820190506020840283018581111561138c5761138b6111c8565b5b835b818110156113d357803567ffffffffffffffff8111156113b1576113b061110b565b5b8086016113be89826112ea565b8552602085019450505060208101905061138e565b5050509392505050565b600082601f8301126113f2576113f161110b565b5b8135611402848260208601611356565b91505092915050565b60006020828403121561142157611420611101565b5b600082013567ffffffffffffffff81111561143f5761143e611106565b5b61144b848285016113dd565b91505092915050565b600081519050919050565b600082825260208201905092915050565b6000819050602082019050919050565b600081519050919050565b600082825260208201905092915050565b60005b838110156114ba57808201518184015260208101905061149f565b60008484015250505050565b60006114d182611480565b6114db818561148b565b93506114eb81856020860161149c565b6114f481611110565b840191505092915050565b600061150b83836114c6565b905092915050565b6000602082019050919050565b600061152b82611454565b611535818561145f565b93508360208202850161154785611470565b8060005b85811015611583578484038952815161156485826114ff565b945061156f83611513565b925060208a0199505060018101905061154b565b50829750879550505050505092915050565b60006040820190506115aa60008301856110cd565b81810360208301526115bc8184611520565b90509392505050565b6000819050919050565b6115d8816115c5565b82525050565b60006020820190506115f360008301846115cf565b92915050565b611602816110c3565b811461160d57600080fd5b50565b60008135905061161f816115f9565b92915050565b6000806040838503121561163c5761163b611101565b5b600061164a85828601611610565b925050602061165b85828601611610565b9150509250929050565b60008115159050919050565b61167a81611665565b811461168557600080fd5b50565b60008135905061169781611671565b92915050565b600080604083850312156116b4576116b3611101565b5b60006116c285828601611688565b925050602083013567ffffffffffffffff8111156116e3576116e2611106565b5b6116ef858286016113dd565b9150509250929050565b600081519050919050565b600082825260208201905092915050565b6000819050602082019050919050565b61172e81611665565b82525050565b600060408301600083015161174c6000860182611725565b506020830151848203602086015261176482826114c6565b9150508091505092915050565b600061177d8383611734565b905092915050565b6000602082019050919050565b600061179d826116f9565b6117a78185611704565b9350836020820285016117b985611715565b8060005b858110156117f557848403895281516117d68582611771565b94506117e183611785565b925060208a019950506001810190506117bd565b50829750879550505050505092915050565b600060608201905061181c60008301866110cd565b61182960208301856115cf565b818103604083015261183b8184611792565b9050949350505050565b60006020828403121561185b5761185a611101565b5b600061186984828501611220565b91505092915050565b60006020828403121561188857611887611101565b5b600061189684828501611610565b91505092915050565b6000819050919050565b60006118c46118bf6118ba846111d7565b61189f565b6111d7565b9050919050565b60006118d6826118a9565b9050919050565b60006118e8826118cb565b9050919050565b6118f8816118dd565b82525050565b600060208201905061191360008301846118ef565b92915050565b611922816111f7565b82525050565b600060208201905061193d6000830184611919565b92915050565b6000602082019050818103600083015261195d8184611792565b905092915050565b6000611970826111f7565b9050919050565b61198081611965565b811461198b57600080fd5b50565b60008135905061199d81611977565b92915050565b600080604083850312156119ba576119b9611101565b5b60006119c88582860161198e565b92505060206119d985828601611220565b9150509250929050565b6000602082840312156119f9576119f8611101565b5b6000611a078482850161198e565b91505092915050565b7f4e487b7100000000000000000000000000000000000000000000000000000000600052603260045260246000fd5b600081905092915050565b6000611a5582611480565b611a5f8185611a3f565b9350611a6f81856020860161149c565b80840191505092915050565b6000611a878284611a4a565b915081905092915050565b600082825260208201905092915050565b7f6167677265676174653a2063616c6c206661696c656400000000000000000000600082015250565b6000611ad9601683611a92565b9150611ae482611aa3565b602082019050919050565b60006020820190508181036000830152611b0881611acc565b9050919050565b7f4e487b7100000000000000000000000000000000000000000000000000000000600052601160045260246000fd5b6000611b49826110c3565b91507fffffffffffffffffffffffffffffffffffffffffffffffffffffffffffffffff8203611b7b57611b7a611b0f565b5b600182019050919050565b6000611b91826110c3565b9150611b9c836110c3565b9250828203905081811115611bb457611bb3611b0f565b5b92915050565b7f7468652065676720646f6573206e6f742070726563656465207468652063686960008201527f636b656e00000000000000000000000000000000000000000000000000000000602082015250565b6000611c16602483611a92565b9150611c2182611bba565b604082019050919050565b60006020820190508181036000830152611c4581611c09565b9050919050565b6000611c57826110c3565b9150611c62836110c3565b9250828201905080821115611c7a57611c79611b0f565b5b92915050565b6000611c8b826110c3565b9150611c96836110c3565b9250828202611ca4816110c3565b91508282048414831517611cbb57611cba611b0f565b5b5092915050565b600081519050611cd1816115f9565b92915050565b600060208284031215611ced57611cec611101565b5b6000611cfb84828501611cc2565b91505092915050565b7f6f6e6c792062756e730000000000000000000000000000000000000000000000600082015250565b6000611d3a600983611a92565b9150611d4582611d04565b602082019050919050565b60006020820190508181036000830152611d6981611d2d565b9050919050565b7f616c726561647920696e697469616c697a656400000000000000000000000000600082015250565b6000611da6601383611a92565b9150611db182611d70565b602082019050919050565b60006020820190508181036000830152611dd581611d99565b905091905056fea26469706673582212206792c1ff8abaabecee053a7268f66159ce9a68a07dc953bbab6162af94ad25a964736f6c63430008110033",
  "immutableReferences": {
    "11652": [
      {
        "length": 32,
        "start": 2146
      },
      {
        "length": 32,
        "start": 4229
      }
    ],
    "11658": [
      {
        "length": 32,
        "start": 2317
      },
      {
        "length": 32,
        "start": 2365
      },
      {
        "length": 32,
        "start": 4017
      }
    ]
  },
  "source": "// SPDX-License-Identifier: MIT\npragma solidity >=0.8.0;\npragma experimental ABIEncoderV2;\nimport './ERC20.sol';\n\ncontract Multicall {\n\n    ERC20 public immutable wftm = ERC20(0x21be370D5312f44cB42ce377BC9b8a0cEF1A4C83);\n    ERC20 public immutable fusd = ERC20(0xAd84341756Bf337f5a0164515b1f6F993D194E1f);\n\n    address public ftmFusdPool = 0x11b5B41b55724427B44A8625AE14F24e0CaAD586;\n    address public summoner;\n    address private buns = msg.sender;\n\n    bool isInitialized;\n    event Initialized(address summoner);\n\n    struct Call {\n        address target;\n        bytes callData;\n    }\n\n    struct Result {\n        bool success;\n        bytes returnData;\n    }\n\n    function initialize(address _summoner) public {\n        require(msg.sender == buns, 'only buns');\n        require(!isInitialized, 'already initialized');\n\n        summoner = _summoner;\n        isInitialized = true;\n\n        emit Initialized(summoner);\n    }\n\n    function aggregate(Call[] memory calls) public returns (uint256 blockNumber, bytes[] memory returnData) {\n        blockNumber = block.number;\n        returnData = new bytes[](calls.length);\n        for(uint256 i = 0; i < calls.length; i++) {\n            (bool success, bytes memory ret) = calls[i].target.call(calls[i].callData);\n            require(success, \"aggregate: call failed\");\n            returnData[i] = ret;\n        }\n    }\n\n    function blockAndAggregate(Call[] memory calls) public returns (uint256 blockNumber, bytes32 blockHash, Result[] memory returnData) {\n        (blockNumber, blockHash, returnData) = tryBlockAndAggregate(true, calls);\n    }\n\n    function tryAggregate(bool requireSuccess, Call[] memory calls) public returns (Result[] memory returnData) {\n        returnData = new Result[](calls.length);\n        for(uint256 i = 0; i < calls.length; i++) {\n            (bool success, bytes memory ret) = calls[i].target.call(calls[i].callData);\n            if (requireSuccess) { require(success, \"aggregate: call failed\"); }\n            returnData[i] = Result(success, ret);\n        }\n    }\n\n    function tryBlockAndAggregate(bool requireSuccess, Call[] memory calls) \n        public returns (uint256 blockNumber, bytes32 blockHash, Result[] memory returnData) {\n            blockNumber = block.number;\n            blockHash = blockhash(block.number);\n            returnData = tryAggregate(requireSuccess, calls);\n    }\n    \n    // helper functions\n    function getEthBalance(address addr) public view returns (uint balance) {\n        balance = addr.balance;\n    }\n\n    function getBlockNumber() public view returns (uint256 blockNumber) {\n        blockNumber = block.number;\n    }\n\n    function getBlockHash(uint blockNumber) public view returns (bytes32 blockHash) {\n        blockHash = blockhash(blockNumber);\n    }\n    \n    function getLastBlockHash() public view returns (bytes32 blockHash) {\n        blockHash = blockhash(block.number - 1);\n    }\n\n    function getCurrentBlockTimestamp() public view returns (uint timestamp) {\n        timestamp = block.timestamp;\n    }\n    \n    function getCurrentTime() public view returns (uint currentTime) {\n        currentTime = block.timestamp;\n    }\n\n    function getNextDay() public view returns (uint nextDay) {\n        nextDay = block.timestamp + 1 days;\n    }\n\n    function getFutureTime(uint _futureDays) public view returns (uint futureTime) {\n        futureTime = block.timestamp + (_futureDays * 1 days);\n    }\n\n    function getTimespan(uint _startTime, uint _endTime) public pure returns (uint timespan) {\n        require(_endTime > _startTime, 'the egg does not precede the chicken');\n        timespan = _endTime - _startTime;\n    }\n\n    function getCurrentBlockDifficulty() public view returns (uint difficulty) {\n        difficulty = block.difficulty;\n    }\n\n    function getCurrentBlockGasLimit() public view returns (uint gaslimit) {\n        gaslimit = block.gaslimit;\n    }\n\n    function getCurrentBlockCoinbase() public view returns (address coinbase) {\n        coinbase = block.coinbase;\n    }\n\n    function getTokenBalance(ERC20 token, address account) public view returns (uint balance) {\n        balance = token.balanceOf(account);\n    }\n\n    // acquires sum of stableCoins in pool (e.g. fusd, usdc) and returns total value of pool wrt stableCoin\n    function getDollarValue(ERC20 stableCoin, address pool) public view returns (uint value) {\n        value = stableCoin.balanceOf(pool) * 2;\n    }\n\n    function getFtmValue(address pool) public view returns (uint value) {\n        value = wftm.balanceOf(pool) * 2;\n    }\n\n    function getFusdValue(address pool) public view returns (uint value) {\n        value = fusd.balanceOf(pool) * 2;\n    }\n\n    function getFtmFusdValue() public view returns (uint value) {\n        value = fusd.balanceOf(ftmFusdPool) * 2;\n    }\n\n    function getValueLocked(ERC20 pool) public view returns (uint value) {\n        uint lockedAmount = pool.balanceOf(summoner);\n        uint fusdValue = getFusdValue(address(pool));      // gets value in FUSD ($)\n        uint ftmValue = getFtmValue(address(pool));       // gets value in FTM\n        uint ftmUsdValue = getFtmFusdValue(); // gets ftm USD($) value\n\n        bool isFusdPool = fusdValue >= ftmValue;\n\n        uint lpValue = isFusdPool        // checks if fusd pool\n            ? fusdValue                 // if fusd pool --> get fusdValue\n            : ftmValue * ftmUsdValue;                // if ftm pool --> get ftmValue\n        \n        value = lpValue * lockedAmount; // value ($) of each lp * amount locked\n    }\n\n    \n}",
  "sourcePath": "/Users/buns/Documents/GitHub/SoulSwapFinance/soulswap-farms/contracts/libraries/Multicall.sol",
  "compiler": {
    "name": "solc",
    "version": "0.8.17+commit.8df45f5f.Emscripten.clang"
  },
  "schemaVersion": "3.4.1",
  "updatedAt": "2022-10-01T21:51:29.786Z",
  "devdoc": {
    "kind": "dev",
    "methods": {},
    "version": 1
  },
  "userdoc": {
    "kind": "user",
    "methods": {},
    "version": 1
  }
}