{
  "contractName": "Multicall",
  "abi": [
    {
      "anonymous": false,
      "inputs": [
        {
          "indexed": false,
          "internalType": "address",
          "name": "summoner",
          "type": "address"
        }
      ],
      "name": "Initialized",
      "type": "event"
    },
    {
      "inputs": [],
      "name": "ftmFusdPool",
      "outputs": [
        {
          "internalType": "address",
          "name": "",
          "type": "address"
        }
      ],
      "stateMutability": "view",
      "type": "function"
    },
    {
      "inputs": [],
      "name": "fusd",
      "outputs": [
        {
          "internalType": "contract ERC20",
          "name": "",
          "type": "address"
        }
      ],
      "stateMutability": "view",
      "type": "function"
    },
    {
      "inputs": [],
      "name": "summoner",
      "outputs": [
        {
          "internalType": "address",
          "name": "",
          "type": "address"
        }
      ],
      "stateMutability": "view",
      "type": "function"
    },
    {
      "inputs": [],
      "name": "wftm",
      "outputs": [
        {
          "internalType": "contract ERC20",
          "name": "",
          "type": "address"
        }
      ],
      "stateMutability": "view",
      "type": "function"
    },
    {
      "inputs": [
        {
          "internalType": "address",
          "name": "_summoner",
          "type": "address"
        }
      ],
      "name": "initialize",
      "outputs": [],
      "stateMutability": "nonpayable",
      "type": "function"
    },
    {
      "inputs": [
        {
          "components": [
            {
              "internalType": "address",
              "name": "target",
              "type": "address"
            },
            {
              "internalType": "bytes",
              "name": "callData",
              "type": "bytes"
            }
          ],
          "internalType": "struct Multicall.Call[]",
          "name": "calls",
          "type": "tuple[]"
        }
      ],
      "name": "aggregate",
      "outputs": [
        {
          "internalType": "uint256",
          "name": "blockNumber",
          "type": "uint256"
        },
        {
          "internalType": "bytes[]",
          "name": "returnData",
          "type": "bytes[]"
        }
      ],
      "stateMutability": "nonpayable",
      "type": "function"
    },
    {
      "inputs": [
        {
          "components": [
            {
              "internalType": "address",
              "name": "target",
              "type": "address"
            },
            {
              "internalType": "bytes",
              "name": "callData",
              "type": "bytes"
            }
          ],
          "internalType": "struct Multicall.Call[]",
          "name": "calls",
          "type": "tuple[]"
        }
      ],
      "name": "blockAndAggregate",
      "outputs": [
        {
          "internalType": "uint256",
          "name": "blockNumber",
          "type": "uint256"
        },
        {
          "internalType": "bytes32",
          "name": "blockHash",
          "type": "bytes32"
        },
        {
          "components": [
            {
              "internalType": "bool",
              "name": "success",
              "type": "bool"
            },
            {
              "internalType": "bytes",
              "name": "returnData",
              "type": "bytes"
            }
          ],
          "internalType": "struct Multicall.Result[]",
          "name": "returnData",
          "type": "tuple[]"
        }
      ],
      "stateMutability": "nonpayable",
      "type": "function"
    },
    {
      "inputs": [
        {
          "internalType": "bool",
          "name": "requireSuccess",
          "type": "bool"
        },
        {
          "components": [
            {
              "internalType": "address",
              "name": "target",
              "type": "address"
            },
            {
              "internalType": "bytes",
              "name": "callData",
              "type": "bytes"
            }
          ],
          "internalType": "struct Multicall.Call[]",
          "name": "calls",
          "type": "tuple[]"
        }
      ],
      "name": "tryAggregate",
      "outputs": [
        {
          "components": [
            {
              "internalType": "bool",
              "name": "success",
              "type": "bool"
            },
            {
              "internalType": "bytes",
              "name": "returnData",
              "type": "bytes"
            }
          ],
          "internalType": "struct Multicall.Result[]",
          "name": "returnData",
          "type": "tuple[]"
        }
      ],
      "stateMutability": "nonpayable",
      "type": "function"
    },
    {
      "inputs": [
        {
          "internalType": "bool",
          "name": "requireSuccess",
          "type": "bool"
        },
        {
          "components": [
            {
              "internalType": "address",
              "name": "target",
              "type": "address"
            },
            {
              "internalType": "bytes",
              "name": "callData",
              "type": "bytes"
            }
          ],
          "internalType": "struct Multicall.Call[]",
          "name": "calls",
          "type": "tuple[]"
        }
      ],
      "name": "tryBlockAndAggregate",
      "outputs": [
        {
          "internalType": "uint256",
          "name": "blockNumber",
          "type": "uint256"
        },
        {
          "internalType": "bytes32",
          "name": "blockHash",
          "type": "bytes32"
        },
        {
          "components": [
            {
              "internalType": "bool",
              "name": "success",
              "type": "bool"
            },
            {
              "internalType": "bytes",
              "name": "returnData",
              "type": "bytes"
            }
          ],
          "internalType": "struct Multicall.Result[]",
          "name": "returnData",
          "type": "tuple[]"
        }
      ],
      "stateMutability": "nonpayable",
      "type": "function"
    },
    {
      "inputs": [
        {
          "internalType": "address",
          "name": "addr",
          "type": "address"
        }
      ],
      "name": "getEthBalance",
      "outputs": [
        {
          "internalType": "uint256",
          "name": "balance",
          "type": "uint256"
        }
      ],
      "stateMutability": "view",
      "type": "function"
    },
    {
      "inputs": [],
      "name": "getBlockNumber",
      "outputs": [
        {
          "internalType": "uint256",
          "name": "blockNumber",
          "type": "uint256"
        }
      ],
      "stateMutability": "view",
      "type": "function"
    },
    {
      "inputs": [
        {
          "internalType": "uint256",
          "name": "blockNumber",
          "type": "uint256"
        }
      ],
      "name": "getBlockHash",
      "outputs": [
        {
          "internalType": "bytes32",
          "name": "blockHash",
          "type": "bytes32"
        }
      ],
      "stateMutability": "view",
      "type": "function"
    },
    {
      "inputs": [],
      "name": "getLastBlockHash",
      "outputs": [
        {
          "internalType": "bytes32",
          "name": "blockHash",
          "type": "bytes32"
        }
      ],
      "stateMutability": "view",
      "type": "function"
    },
    {
      "inputs": [],
      "name": "getCurrentBlockTimestamp",
      "outputs": [
        {
          "internalType": "uint256",
          "name": "timestamp",
          "type": "uint256"
        }
      ],
      "stateMutability": "view",
      "type": "function"
    },
    {
      "inputs": [],
      "name": "getCurrentTime",
      "outputs": [
        {
          "internalType": "uint256",
          "name": "currentTime",
          "type": "uint256"
        }
      ],
      "stateMutability": "view",
      "type": "function"
    },
    {
      "inputs": [],
      "name": "getNextDay",
      "outputs": [
        {
          "internalType": "uint256",
          "name": "nextDay",
          "type": "uint256"
        }
      ],
      "stateMutability": "view",
      "type": "function"
    },
    {
      "inputs": [
        {
          "internalType": "uint256",
          "name": "_futureDays",
          "type": "uint256"
        }
      ],
      "name": "getFutureTime",
      "outputs": [
        {
          "internalType": "uint256",
          "name": "futureTime",
          "type": "uint256"
        }
      ],
      "stateMutability": "view",
      "type": "function"
    },
    {
      "inputs": [
        {
          "internalType": "uint256",
          "name": "_startTime",
          "type": "uint256"
        },
        {
          "internalType": "uint256",
          "name": "_endTime",
          "type": "uint256"
        }
      ],
      "name": "getTimespan",
      "outputs": [
        {
          "internalType": "uint256",
          "name": "timespan",
          "type": "uint256"
        }
      ],
      "stateMutability": "pure",
      "type": "function"
    },
    {
      "inputs": [],
      "name": "getCurrentBlockDifficulty",
      "outputs": [
        {
          "internalType": "uint256",
          "name": "difficulty",
          "type": "uint256"
        }
      ],
      "stateMutability": "view",
      "type": "function"
    },
    {
      "inputs": [],
      "name": "getCurrentBlockGasLimit",
      "outputs": [
        {
          "internalType": "uint256",
          "name": "gaslimit",
          "type": "uint256"
        }
      ],
      "stateMutability": "view",
      "type": "function"
    },
    {
      "inputs": [],
      "name": "getCurrentBlockCoinbase",
      "outputs": [
        {
          "internalType": "address",
          "name": "coinbase",
          "type": "address"
        }
      ],
      "stateMutability": "view",
      "type": "function"
    },
    {
      "inputs": [
        {
          "internalType": "contract ERC20",
          "name": "token",
          "type": "address"
        },
        {
          "internalType": "address",
          "name": "account",
          "type": "address"
        }
      ],
      "name": "getTokenBalance",
      "outputs": [
        {
          "internalType": "uint256",
          "name": "balance",
          "type": "uint256"
        }
      ],
      "stateMutability": "view",
      "type": "function"
    },
    {
      "inputs": [
        {
          "internalType": "contract ERC20",
          "name": "stableCoin",
          "type": "address"
        },
        {
          "internalType": "address",
          "name": "pool",
          "type": "address"
        }
      ],
      "name": "getDollarValue",
      "outputs": [
        {
          "internalType": "uint256",
          "name": "value",
          "type": "uint256"
        }
      ],
      "stateMutability": "view",
      "type": "function"
    },
    {
      "inputs": [
        {
          "internalType": "address",
          "name": "pool",
          "type": "address"
        }
      ],
      "name": "getFtmValue",
      "outputs": [
        {
          "internalType": "uint256",
          "name": "value",
          "type": "uint256"
        }
      ],
      "stateMutability": "view",
      "type": "function"
    },
    {
      "inputs": [
        {
          "internalType": "address",
          "name": "pool",
          "type": "address"
        }
      ],
      "name": "getFusdValue",
      "outputs": [
        {
          "internalType": "uint256",
          "name": "value",
          "type": "uint256"
        }
      ],
      "stateMutability": "view",
      "type": "function"
    },
    {
      "inputs": [],
      "name": "getFtmFusdValue",
      "outputs": [
        {
          "internalType": "uint256",
          "name": "value",
          "type": "uint256"
        }
      ],
      "stateMutability": "view",
      "type": "function"
    },
    {
      "inputs": [
        {
          "internalType": "contract ERC20",
          "name": "pool",
          "type": "address"
        }
      ],
      "name": "getValueLocked",
      "outputs": [
        {
          "internalType": "uint256",
          "name": "value",
          "type": "uint256"
        }
      ],
      "stateMutability": "view",
      "type": "function"
    }
  ],
  "bytecode": "0x60c06040527321be370d5312f44cb42ce377bc9b8a0cef1a4c8373ffffffffffffffffffffffffffffffffffffffff1660809073ffffffffffffffffffffffffffffffffffffffff1660601b81525073ad84341756bf337f5a0164515b1f6f993d194e1f73ffffffffffffffffffffffffffffffffffffffff1660a09073ffffffffffffffffffffffffffffffffffffffff1660601b8152507311b5b41b55724427b44a8625ae14f24e0caad5866000806101000a81548173ffffffffffffffffffffffffffffffffffffffff021916908373ffffffffffffffffffffffffffffffffffffffff16021790555033600260006101000a81548173ffffffffffffffffffffffffffffffffffffffff021916908373ffffffffffffffffffffffffffffffffffffffff16021790555034801561013957600080fd5b5060805160601c60a05160601c611ea661017a600039600081816109b4015281816109e4015261112c0152600081816108fa015261120f0152611ea66000f3fe608060405234801561001057600080fd5b50600436106101a95760003560e01c80639566b6a7116100f9578063c4d8983311610097578063e0692d1211610071578063e0692d1214610529578063ea69397814610559578063ee82ac5e14610577578063f4f45b46146105a7576101a9565b8063c4d89833146104bd578063dacaa9d1146104db578063dbbc47be146104f9576101a9565b8063bce38bd7116100d3578063bce38bd71461040f578063c3077fa91461043f578063c489744b14610471578063c4d66de8146104a1576101a9565b80639566b6a7146103a3578063a8b0574e146103c1578063b5faa884146103df576101a9565b806342cbb15c1161016657806372425d9d1161014057806372425d9d14610307578063795343971461032557806386d516e8146103555780638c7597a314610373576101a9565b806342cbb15c1461029b5780634d2301cc146102b957806354cc95ad146102e9576101a9565b80630f28c97d146101ae578063252dba42146101cc57806327e86d6e146101fd57806329cb924d1461021b57806331b0879b14610239578063399542e914610269575b600080fd5b6101b66105c5565b6040516101c391906119ee565b60405180910390f35b6101e660048036038101906101e19190611432565b6105cd565b6040516101f4929190611a09565b60405180910390f35b6102056107ee565b6040516102129190611938565b60405180910390f35b610223610803565b60405161023091906119ee565b60405180910390f35b610253600480360381019061024e919061157e565b61080b565b60405161026091906119ee565b60405180910390f35b610283600480360381019061027e9190611473565b610863565b60405161029293929190611a39565b60405180910390f35b6102a3610882565b6040516102b091906119ee565b60405180910390f35b6102d360048036038101906102ce9190611409565b61088a565b6040516102e091906119ee565b60405180910390f35b6102f16108ab565b6040516102fe91906119ee565b60405180910390f35b61030f6108c1565b60405161031c91906119ee565b60405180910390f35b61033f600480360381019061033a919061152c565b6108c9565b60405161034c91906119ee565b60405180910390f35b61035d6108ec565b60405161036a91906119ee565b60405180910390f35b61038d60048036038101906103889190611409565b6108f4565b60405161039a91906119ee565b60405180910390f35b6103ab6109b2565b6040516103b89190611953565b60405180910390f35b6103c96109d6565b6040516103d691906118fb565b60405180910390f35b6103f960048036038101906103f49190611409565b6109de565b60405161040691906119ee565b60405180910390f35b61042960048036038101906104249190611473565b610a9c565b6040516104369190611916565b60405180910390f35b61045960048036038101906104549190611432565b610cdc565b60405161046893929190611a39565b60405180910390f35b61048b600480360381019061048691906114f0565b610cff565b60405161049891906119ee565b60405180910390f35b6104bb60048036038101906104b69190611409565b610d92565b005b6104c5610f2a565b6040516104d291906118fb565b60405180910390f35b6104e3610f4e565b6040516104f091906118fb565b60405180910390f35b610513600480360381019061050e91906114f0565b610f74565b60405161052091906119ee565b60405180910390f35b610543600480360381019061053e91906114c7565b611013565b60405161055091906119ee565b60405180910390f35b610561611126565b60405161056e91906119ee565b60405180910390f35b610591600480360381019061058c919061152c565b611202565b60405161059e9190611938565b60405180910390f35b6105af61120d565b6040516105bc9190611953565b60405180910390f35b600042905090565b60006060439150825167ffffffffffffffff811115610615577f4e487b7100000000000000000000000000000000000000000000000000000000600052604160045260246000fd5b60405190808252806020026020018201604052801561064857816020015b60608152602001906001900390816106335790505b50905060005b83518110156107e857600080858381518110610693577f4e487b7100000000000000000000000000000000000000000000000000000000600052603260045260246000fd5b60200260200101516000015173ffffffffffffffffffffffffffffffffffffffff168684815181106106ee577f4e487b7100000000000000000000000000000000000000000000000000000000600052603260045260246000fd5b60200260200101516020015160405161070791906118e4565b6000604051808303816000865af19150503d8060008114610744576040519150601f19603f3d011682016040523d82523d6000602084013e610749565b606091505b50915091508161078e576040517f08c379a0000000000000000000000000000000000000000000000000000000008152600401610785906119ce565b60405180910390fd5b808484815181106107c8577f4e487b7100000000000000000000000000000000000000000000000000000000600052603260045260246000fd5b6020026020010181905250505080806107e090611d5c565b91505061064e565b50915091565b60006001436107fd9190611c5e565b40905090565b600042905090565b600082821161084f576040517f08c379a00000000000000000000000000000000000000000000000000000000081526004016108469061198e565b60405180910390fd5b828261085b9190611c5e565b905092915050565b6000806060439250434091506108798585610a9c565b90509250925092565b600043905090565b60008173ffffffffffffffffffffffffffffffffffffffff16319050919050565b600062015180426108bc9190611bae565b905090565b600044905090565b600062015180826108da9190611c04565b426108e59190611bae565b9050919050565b600045905090565b600060027f000000000000000000000000000000000000000000000000000000000000000073ffffffffffffffffffffffffffffffffffffffff166370a08231846040518263ffffffff1660e01b815260040161095191906118fb565b60206040518083038186803b15801561096957600080fd5b505afa15801561097d573d6000803e3d6000fd5b505050506040513d601f19601f820116820180604052508101906109a19190611555565b6109ab9190611c04565b9050919050565b7f000000000000000000000000000000000000000000000000000000000000000081565b600041905090565b600060027f000000000000000000000000000000000000000000000000000000000000000073ffffffffffffffffffffffffffffffffffffffff166370a08231846040518263ffffffff1660e01b8152600401610a3b91906118fb565b60206040518083038186803b158015610a5357600080fd5b505afa158015610a67573d6000803e3d6000fd5b505050506040513d601f19601f82011682018060405250810190610a8b9190611555565b610a959190611c04565b9050919050565b6060815167ffffffffffffffff811115610adf577f4e487b7100000000000000000000000000000000000000000000000000000000600052604160045260246000fd5b604051908082528060200260200182016040528015610b1857816020015b610b05611231565b815260200190600190039081610afd5790505b50905060005b8251811015610cd557600080848381518110610b63577f4e487b7100000000000000000000000000000000000000000000000000000000600052603260045260246000fd5b60200260200101516000015173ffffffffffffffffffffffffffffffffffffffff16858481518110610bbe577f4e487b7100000000000000000000000000000000000000000000000000000000600052603260045260246000fd5b602002602001015160200151604051610bd791906118e4565b6000604051808303816000865af19150503d8060008114610c14576040519150601f19603f3d011682016040523d82523d6000602084013e610c19565b606091505b50915091508515610c655781610c64576040517f08c379a0000000000000000000000000000000000000000000000000000000008152600401610c5b906119ce565b60405180910390fd5b5b6040518060400160405280831515815260200182815250848481518110610cb5577f4e487b7100000000000000000000000000000000000000000000000000000000600052603260045260246000fd5b602002602001018190525050508080610ccd90611d5c565b915050610b1e565b5092915050565b6000806060610cec600185610863565b8093508194508295505050509193909250565b60008273ffffffffffffffffffffffffffffffffffffffff166370a08231836040518263ffffffff1660e01b8152600401610d3a91906118fb565b60206040518083038186803b158015610d5257600080fd5b505afa158015610d66573d6000803e3d6000fd5b505050506040513d601f19601f82011682018060405250810190610d8a9190611555565b905092915050565b600260009054906101000a900473ffffffffffffffffffffffffffffffffffffffff1673ffffffffffffffffffffffffffffffffffffffff163373ffffffffffffffffffffffffffffffffffffffff1614610e22576040517f08c379a0000000000000000000000000000000000000000000000000000000008152600401610e19906119ae565b60405180910390fd5b600260149054906101000a900460ff1615610e72576040517f08c379a0000000000000000000000000000000000000000000000000000000008152600401610e699061196e565b60405180910390fd5b80600160006101000a81548173ffffffffffffffffffffffffffffffffffffffff021916908373ffffffffffffffffffffffffffffffffffffffff1602179055506001600260146101000a81548160ff0219169083151502179055507f908408e307fc569b417f6cbec5d5a06f44a0a505ac0479b47d421a4b2fd6a1e6600160009054906101000a900473ffffffffffffffffffffffffffffffffffffffff16604051610f1f91906118fb565b60405180910390a150565b60008054906101000a900473ffffffffffffffffffffffffffffffffffffffff1681565b600160009054906101000a900473ffffffffffffffffffffffffffffffffffffffff1681565b600060028373ffffffffffffffffffffffffffffffffffffffff166370a08231846040518263ffffffff1660e01b8152600401610fb191906118fb565b60206040518083038186803b158015610fc957600080fd5b505afa158015610fdd573d6000803e3d6000fd5b505050506040513d601f19601f820116820180604052508101906110019190611555565b61100b9190611c04565b905092915050565b6000808273ffffffffffffffffffffffffffffffffffffffff166370a08231600160009054906101000a900473ffffffffffffffffffffffffffffffffffffffff166040518263ffffffff1660e01b815260040161107191906118fb565b60206040518083038186803b15801561108957600080fd5b505afa15801561109d573d6000803e3d6000fd5b505050506040513d601f19601f820116820180604052508101906110c19190611555565b905060006110ce846109de565b905060006110db856108f4565b905060006110e7611126565b905060008284101590506000816111095782846111049190611c04565b61110b565b845b905085816111199190611c04565b9650505050505050919050565b600060027f000000000000000000000000000000000000000000000000000000000000000073ffffffffffffffffffffffffffffffffffffffff166370a0823160008054906101000a900473ffffffffffffffffffffffffffffffffffffffff166040518263ffffffff1660e01b81526004016111a391906118fb565b60206040518083038186803b1580156111bb57600080fd5b505afa1580156111cf573d6000803e3d6000fd5b505050506040513d601f19601f820116820180604052508101906111f39190611555565b6111fd9190611c04565b905090565b600081409050919050565b7f000000000000000000000000000000000000000000000000000000000000000081565b6040518060400160405280600015158152602001606081525090565b600061126061125b84611aa8565b611a77565b9050808382526020820190508260005b858110156112a05781358501611286888261137b565b845260208401935060208301925050600181019050611270565b5050509392505050565b60006112bd6112b884611ad4565b611a77565b9050828152602081018484840111156112d557600080fd5b6112e0848285611d1a565b509392505050565b6000813590506112f781611e14565b92915050565b600082601f83011261130e57600080fd5b813561131e84826020860161124d565b91505092915050565b60008135905061133681611e2b565b92915050565b600082601f83011261134d57600080fd5b813561135d8482602086016112aa565b91505092915050565b60008135905061137581611e42565b92915050565b60006040828403121561138d57600080fd5b6113976040611a77565b905060006113a7848285016112e8565b600083015250602082013567ffffffffffffffff8111156113c757600080fd5b6113d38482850161133c565b60208301525092915050565b6000813590506113ee81611e59565b92915050565b60008151905061140381611e59565b92915050565b60006020828403121561141b57600080fd5b6000611429848285016112e8565b91505092915050565b60006020828403121561144457600080fd5b600082013567ffffffffffffffff81111561145e57600080fd5b61146a848285016112fd565b91505092915050565b6000806040838503121561148657600080fd5b600061149485828601611327565b925050602083013567ffffffffffffffff8111156114b157600080fd5b6114bd858286016112fd565b9150509250929050565b6000602082840312156114d957600080fd5b60006114e784828501611366565b91505092915050565b6000806040838503121561150357600080fd5b600061151185828601611366565b9250506020611522858286016112e8565b9150509250929050565b60006020828403121561153e57600080fd5b600061154c848285016113df565b91505092915050565b60006020828403121561156757600080fd5b6000611575848285016113f4565b91505092915050565b6000806040838503121561159157600080fd5b600061159f858286016113df565b92505060206115b0858286016113df565b9150509250929050565b60006115c683836116f9565b905092915050565b60006115da8383611898565b905092915050565b6115eb81611c92565b82525050565b60006115fc82611b24565b6116068185611b5f565b93508360208202850161161885611b04565b8060005b85811015611654578484038952815161163585826115ba565b945061164083611b45565b925060208a0199505060018101905061161c565b50829750879550505050505092915050565b600061167182611b2f565b61167b8185611b70565b93508360208202850161168d85611b14565b8060005b858110156116c957848403895281516116aa85826115ce565b94506116b583611b52565b925060208a01995050600181019050611691565b50829750879550505050505092915050565b6116e481611ca4565b82525050565b6116f381611cb0565b82525050565b600061170482611b3a565b61170e8185611b81565b935061171e818560208601611d29565b61172781611e03565b840191505092915050565b600061173d82611b3a565b6117478185611b92565b9350611757818560208601611d29565b80840191505092915050565b61176c81611cf6565b82525050565b600061177f601383611b9d565b91507f616c726561647920696e697469616c697a6564000000000000000000000000006000830152602082019050919050565b60006117bf602483611b9d565b91507f7468652065676720646f6573206e6f742070726563656465207468652063686960008301527f636b656e000000000000000000000000000000000000000000000000000000006020830152604082019050919050565b6000611825600983611b9d565b91507f6f6e6c792062756e7300000000000000000000000000000000000000000000006000830152602082019050919050565b6000611865601683611b9d565b91507f6167677265676174653a2063616c6c206661696c6564000000000000000000006000830152602082019050919050565b60006040830160008301516118b060008601826116db565b50602083015184820360208601526118c882826116f9565b9150508091505092915050565b6118de81611cec565b82525050565b60006118f08284611732565b915081905092915050565b600060208201905061191060008301846115e2565b92915050565b600060208201905081810360008301526119308184611666565b905092915050565b600060208201905061194d60008301846116ea565b92915050565b60006020820190506119686000830184611763565b92915050565b6000602082019050818103600083015261198781611772565b9050919050565b600060208201905081810360008301526119a7816117b2565b9050919050565b600060208201905081810360008301526119c781611818565b9050919050565b600060208201905081810360008301526119e781611858565b9050919050565b6000602082019050611a0360008301846118d5565b92915050565b6000604082019050611a1e60008301856118d5565b8181036020830152611a3081846115f1565b90509392505050565b6000606082019050611a4e60008301866118d5565b611a5b60208301856116ea565b8181036040830152611a6d8184611666565b9050949350505050565b6000604051905081810181811067ffffffffffffffff82111715611a9e57611a9d611dd4565b5b8060405250919050565b600067ffffffffffffffff821115611ac357611ac2611dd4565b5b602082029050602081019050919050565b600067ffffffffffffffff821115611aef57611aee611dd4565b5b601f19601f8301169050602081019050919050565b6000819050602082019050919050565b6000819050602082019050919050565b600081519050919050565b600081519050919050565b600081519050919050565b6000602082019050919050565b6000602082019050919050565b600082825260208201905092915050565b600082825260208201905092915050565b600082825260208201905092915050565b600081905092915050565b600082825260208201905092915050565b6000611bb982611cec565b9150611bc483611cec565b9250827fffffffffffffffffffffffffffffffffffffffffffffffffffffffffffffffff03821115611bf957611bf8611da5565b5b828201905092915050565b6000611c0f82611cec565b9150611c1a83611cec565b9250817fffffffffffffffffffffffffffffffffffffffffffffffffffffffffffffffff0483118215151615611c5357611c52611da5565b5b828202905092915050565b6000611c6982611cec565b9150611c7483611cec565b925082821015611c8757611c86611da5565b5b828203905092915050565b6000611c9d82611ccc565b9050919050565b60008115159050919050565b6000819050919050565b6000611cc582611c92565b9050919050565b600073ffffffffffffffffffffffffffffffffffffffff82169050919050565b6000819050919050565b6000611d0182611d08565b9050919050565b6000611d1382611ccc565b9050919050565b82818337600083830152505050565b60005b83811015611d47578082015181840152602081019050611d2c565b83811115611d56576000848401525b50505050565b6000611d6782611cec565b91507fffffffffffffffffffffffffffffffffffffffffffffffffffffffffffffffff821415611d9a57611d99611da5565b5b600182019050919050565b7f4e487b7100000000000000000000000000000000000000000000000000000000600052601160045260246000fd5b7f4e487b7100000000000000000000000000000000000000000000000000000000600052604160045260246000fd5b6000601f19601f8301169050919050565b611e1d81611c92565b8114611e2857600080fd5b50565b611e3481611ca4565b8114611e3f57600080fd5b50565b611e4b81611cba565b8114611e5657600080fd5b50565b611e6281611cec565b8114611e6d57600080fd5b5056fea26469706673582212209e140c7b8fa5cda23bb5adf50c51b377f04d65c533e48a800f72603de1f8ee6064736f6c63430008000033",
  "immutableReferences": {
    "14982": [
      {
        "length": 32,
        "start": 2298
      },
      {
        "length": 32,
        "start": 4623
      }
    ],
    "14988": [
      {
        "length": 32,
        "start": 2484
      },
      {
        "length": 32,
        "start": 2532
      },
      {
        "length": 32,
        "start": 4396
      }
    ]
  },
  "source": "// SPDX-License-Identifier: MIT\npragma solidity >=0.8.0;\npragma experimental ABIEncoderV2;\nimport './ERC20.sol';\n\ncontract Multicall {\n\n    ERC20 public immutable wftm = ERC20(0x21be370D5312f44cB42ce377BC9b8a0cEF1A4C83);\n    ERC20 public immutable fusd = ERC20(0xAd84341756Bf337f5a0164515b1f6F993D194E1f);\n\n    address public ftmFusdPool = 0x11b5B41b55724427B44A8625AE14F24e0CaAD586;\n    address public summoner;\n    address private buns = msg.sender;\n\n    bool isInitialized;\n    event Initialized(address summoner);\n\n    struct Call {\n        address target;\n        bytes callData;\n    }\n\n    struct Result {\n        bool success;\n        bytes returnData;\n    }\n\n    function initialize(address _summoner) public {\n        require(msg.sender == buns, 'only buns');\n        require(!isInitialized, 'already initialized');\n\n        summoner = _summoner;\n        isInitialized = true;\n\n        emit Initialized(summoner);\n    }\n\n    function aggregate(Call[] memory calls) public returns (uint256 blockNumber, bytes[] memory returnData) {\n        blockNumber = block.number;\n        returnData = new bytes[](calls.length);\n        for(uint256 i = 0; i < calls.length; i++) {\n            (bool success, bytes memory ret) = calls[i].target.call(calls[i].callData);\n            require(success, \"aggregate: call failed\");\n            returnData[i] = ret;\n        }\n    }\n\n    function blockAndAggregate(Call[] memory calls) public returns (uint256 blockNumber, bytes32 blockHash, Result[] memory returnData) {\n        (blockNumber, blockHash, returnData) = tryBlockAndAggregate(true, calls);\n    }\n\n    function tryAggregate(bool requireSuccess, Call[] memory calls) public returns (Result[] memory returnData) {\n        returnData = new Result[](calls.length);\n        for(uint256 i = 0; i < calls.length; i++) {\n            (bool success, bytes memory ret) = calls[i].target.call(calls[i].callData);\n            if (requireSuccess) { require(success, \"aggregate: call failed\"); }\n            returnData[i] = Result(success, ret);\n        }\n    }\n\n    function tryBlockAndAggregate(bool requireSuccess, Call[] memory calls) \n        public returns (uint256 blockNumber, bytes32 blockHash, Result[] memory returnData) {\n            blockNumber = block.number;\n            blockHash = blockhash(block.number);\n            returnData = tryAggregate(requireSuccess, calls);\n    }\n    \n    // helper functions\n    function getEthBalance(address addr) public view returns (uint balance) {\n        balance = addr.balance;\n    }\n\n    function getBlockNumber() public view returns (uint256 blockNumber) {\n        blockNumber = block.number;\n    }\n\n    function getBlockHash(uint blockNumber) public view returns (bytes32 blockHash) {\n        blockHash = blockhash(blockNumber);\n    }\n    \n    function getLastBlockHash() public view returns (bytes32 blockHash) {\n        blockHash = blockhash(block.number - 1);\n    }\n\n    function getCurrentBlockTimestamp() public view returns (uint timestamp) {\n        timestamp = block.timestamp;\n    }\n    \n    function getCurrentTime() public view returns (uint currentTime) {\n        currentTime = block.timestamp;\n    }\n\n    function getNextDay() public view returns (uint nextDay) {\n        nextDay = block.timestamp + 1 days;\n    }\n\n    function getFutureTime(uint _futureDays) public view returns (uint futureTime) {\n        futureTime = block.timestamp + (_futureDays * 1 days);\n    }\n\n    function getTimespan(uint _startTime, uint _endTime) public pure returns (uint timespan) {\n        require(_endTime > _startTime, 'the egg does not precede the chicken');\n        timespan = _endTime - _startTime;\n    }\n\n    function getCurrentBlockDifficulty() public view returns (uint difficulty) {\n        difficulty = block.difficulty;\n    }\n\n    function getCurrentBlockGasLimit() public view returns (uint gaslimit) {\n        gaslimit = block.gaslimit;\n    }\n\n    function getCurrentBlockCoinbase() public view returns (address coinbase) {\n        coinbase = block.coinbase;\n    }\n\n    function getTokenBalance(ERC20 token, address account) public view returns (uint balance) {\n        balance = token.balanceOf(account);\n    }\n\n    // acquires sum of stableCoins in pool (e.g. fusd, usdc) and returns total value of pool wrt stableCoin\n    function getDollarValue(ERC20 stableCoin, address pool) public view returns (uint value) {\n        value = stableCoin.balanceOf(pool) * 2;\n    }\n\n    function getFtmValue(address pool) public view returns (uint value) {\n        value = wftm.balanceOf(pool) * 2;\n    }\n\n    function getFusdValue(address pool) public view returns (uint value) {\n        value = fusd.balanceOf(pool) * 2;\n    }\n\n    function getFtmFusdValue() public view returns (uint value) {\n        value = fusd.balanceOf(ftmFusdPool) * 2;\n    }\n\n    function getValueLocked(ERC20 pool) public view returns (uint value) {\n        uint lockedAmount = pool.balanceOf(summoner);\n        uint fusdValue = getFusdValue(address(pool));      // gets value in FUSD ($)\n        uint ftmValue = getFtmValue(address(pool));       // gets value in FTM\n        uint ftmUsdValue = getFtmFusdValue(); // gets ftm USD($) value\n\n        bool isFusdPool = fusdValue >= ftmValue;\n\n        uint lpValue = isFusdPool        // checks if fusd pool\n            ? fusdValue                 // if fusd pool --> get fusdValue\n            : ftmValue * ftmUsdValue;                // if ftm pool --> get ftmValue\n        \n        value = lpValue * lockedAmount; // value ($) of each lp * amount locked\n    }\n\n    \n}",
  "sourcePath": "/Users/unico/Documents/GitHub/soulswap/soulswap-farms/contracts/libraries/Multicall.sol",
  "compiler": {
    "name": "solc",
    "version": "0.8.0+commit.c7dfd78e.Emscripten.clang"
  },
  "schemaVersion": "3.4.1",
  "updatedAt": "2021-09-16T16:34:59.664Z",
  "devdoc": {
    "kind": "dev",
    "methods": {},
    "version": 1
  },
  "userdoc": {
    "kind": "user",
    "methods": {},
    "version": 1
  }
}