{
  "contractName": "Multicall",
  "abi": [
    {
      "inputs": [
        {
          "components": [
            {
              "internalType": "address",
              "name": "target",
              "type": "address"
            },
            {
              "internalType": "bytes",
              "name": "callData",
              "type": "bytes"
            }
          ],
          "internalType": "struct Multicall.Call[]",
          "name": "calls",
          "type": "tuple[]"
        }
      ],
      "name": "aggregate",
      "outputs": [
        {
          "internalType": "uint256",
          "name": "blockNumber",
          "type": "uint256"
        },
        {
          "internalType": "bytes[]",
          "name": "returnData",
          "type": "bytes[]"
        }
      ],
      "stateMutability": "nonpayable",
      "type": "function"
    },
    {
      "inputs": [
        {
          "internalType": "address",
          "name": "addr",
          "type": "address"
        }
      ],
      "name": "getEthBalance",
      "outputs": [
        {
          "internalType": "uint256",
          "name": "balance",
          "type": "uint256"
        }
      ],
      "stateMutability": "view",
      "type": "function"
    },
    {
      "inputs": [
        {
          "internalType": "uint256",
          "name": "blockNumber",
          "type": "uint256"
        }
      ],
      "name": "getBlockHash",
      "outputs": [
        {
          "internalType": "bytes32",
          "name": "blockHash",
          "type": "bytes32"
        }
      ],
      "stateMutability": "view",
      "type": "function"
    },
    {
      "inputs": [],
      "name": "getLastBlockHash",
      "outputs": [
        {
          "internalType": "bytes32",
          "name": "blockHash",
          "type": "bytes32"
        }
      ],
      "stateMutability": "view",
      "type": "function"
    },
    {
      "inputs": [],
      "name": "getCurrentBlockTimestamp",
      "outputs": [
        {
          "internalType": "uint256",
          "name": "timestamp",
          "type": "uint256"
        }
      ],
      "stateMutability": "view",
      "type": "function"
    },
    {
      "inputs": [],
      "name": "getCurrentTime",
      "outputs": [
        {
          "internalType": "uint256",
          "name": "currentTime",
          "type": "uint256"
        }
      ],
      "stateMutability": "view",
      "type": "function"
    },
    {
      "inputs": [],
      "name": "getNextDay",
      "outputs": [
        {
          "internalType": "uint256",
          "name": "nextDay",
          "type": "uint256"
        }
      ],
      "stateMutability": "view",
      "type": "function"
    },
    {
      "inputs": [
        {
          "internalType": "uint256",
          "name": "_futureDays",
          "type": "uint256"
        }
      ],
      "name": "getFutureTime",
      "outputs": [
        {
          "internalType": "uint256",
          "name": "futureTime",
          "type": "uint256"
        }
      ],
      "stateMutability": "view",
      "type": "function"
    },
    {
      "inputs": [
        {
          "internalType": "uint256",
          "name": "_startTime",
          "type": "uint256"
        },
        {
          "internalType": "uint256",
          "name": "_endTime",
          "type": "uint256"
        }
      ],
      "name": "getTimespan",
      "outputs": [
        {
          "internalType": "uint256",
          "name": "timespan",
          "type": "uint256"
        }
      ],
      "stateMutability": "pure",
      "type": "function"
    },
    {
      "inputs": [],
      "name": "getCurrentBlockDifficulty",
      "outputs": [
        {
          "internalType": "uint256",
          "name": "difficulty",
          "type": "uint256"
        }
      ],
      "stateMutability": "view",
      "type": "function"
    },
    {
      "inputs": [],
      "name": "getCurrentBlockGasLimit",
      "outputs": [
        {
          "internalType": "uint256",
          "name": "gaslimit",
          "type": "uint256"
        }
      ],
      "stateMutability": "view",
      "type": "function"
    },
    {
      "inputs": [],
      "name": "getCurrentBlockCoinbase",
      "outputs": [
        {
          "internalType": "address",
          "name": "coinbase",
          "type": "address"
        }
      ],
      "stateMutability": "view",
      "type": "function"
    }
  ],
  "bytecode": "0x608060405234801561001057600080fd5b50610d71806100206000396000f3fe608060405234801561001057600080fd5b50600436106100b45760003560e01c806354cc95ad1161007157806354cc95ad146101a457806372425d9d146101c257806379534397146101e057806386d516e814610210578063a8b0574e1461022e578063ee82ac5e1461024c576100b4565b80630f28c97d146100b9578063252dba42146100d757806327e86d6e1461010857806329cb924d1461012657806331b0879b146101445780634d2301cc14610174575b600080fd5b6100c161027c565b6040516100ce91906109a0565b60405180910390f35b6100f160048036038101906100ec9190610707565b610284565b6040516100ff9291906109bb565b60405180910390f35b61011061046f565b60405161011d9190610965565b60405180910390f35b61012e610484565b60405161013b91906109a0565b60405180910390f35b61015e60048036038101906101599190610771565b61048c565b60405161016b91906109a0565b60405180910390f35b61018e600480360381019061018991906106de565b6104e4565b60405161019b91906109a0565b60405180910390f35b6101ac610505565b6040516101b991906109a0565b60405180910390f35b6101ca61051b565b6040516101d791906109a0565b60405180910390f35b6101fa60048036038101906101f59190610748565b610523565b60405161020791906109a0565b60405180910390f35b610218610546565b60405161022591906109a0565b60405180910390f35b61023661054e565b604051610243919061094a565b60405180910390f35b61026660048036038101906102619190610748565b610556565b6040516102739190610965565b60405180910390f35b600042905090565b60006060439150825167ffffffffffffffff8111156102cc577f4e487b7100000000000000000000000000000000000000000000000000000000600052604160045260246000fd5b6040519080825280602002602001820160405280156102ff57816020015b60608152602001906001900390816102ea5790505b50905060005b83518110156104695760008085838151811061034a577f4e487b7100000000000000000000000000000000000000000000000000000000600052603260045260246000fd5b60200260200101516000015173ffffffffffffffffffffffffffffffffffffffff168684815181106103a5577f4e487b7100000000000000000000000000000000000000000000000000000000600052603260045260246000fd5b6020026020010151602001516040516103be9190610933565b6000604051808303816000865af19150503d80600081146103fb576040519150601f19603f3d011682016040523d82523d6000602084013e610400565b606091505b50915091508161040f57600080fd5b80848481518110610449577f4e487b7100000000000000000000000000000000000000000000000000000000600052603260045260246000fd5b60200260200101819052505050808061046190610c55565b915050610305565b50915091565b600060014361047e9190610b99565b40905090565b600042905090565b60008282116104d0576040517f08c379a00000000000000000000000000000000000000000000000000000000081526004016104c790610980565b60405180910390fd5b82826104dc9190610b99565b905092915050565b60008173ffffffffffffffffffffffffffffffffffffffff16319050919050565b600062015180426105169190610ae9565b905090565b600044905090565b600062015180826105349190610b3f565b4261053f9190610ae9565b9050919050565b600045905090565b600041905090565b600081409050919050565b600061057461056f84610a1c565b6109eb565b9050808382526020820190508260005b858110156105b4578135850161059a8882610665565b845260208401935060208301925050600181019050610584565b5050509392505050565b60006105d16105cc84610a48565b6109eb565b9050828152602081018484840111156105e957600080fd5b6105f4848285610c13565b509392505050565b60008135905061060b81610d0d565b92915050565b600082601f83011261062257600080fd5b8135610632848260208601610561565b91505092915050565b600082601f83011261064c57600080fd5b813561065c8482602086016105be565b91505092915050565b60006040828403121561067757600080fd5b61068160406109eb565b90506000610691848285016105fc565b600083015250602082013567ffffffffffffffff8111156106b157600080fd5b6106bd8482850161063b565b60208301525092915050565b6000813590506106d881610d24565b92915050565b6000602082840312156106f057600080fd5b60006106fe848285016105fc565b91505092915050565b60006020828403121561071957600080fd5b600082013567ffffffffffffffff81111561073357600080fd5b61073f84828501610611565b91505092915050565b60006020828403121561075a57600080fd5b6000610768848285016106c9565b91505092915050565b6000806040838503121561078457600080fd5b6000610792858286016106c9565b92505060206107a3858286016106c9565b9150509250929050565b60006107b98383610854565b905092915050565b6107ca81610bcd565b82525050565b60006107db82610a88565b6107e58185610aab565b9350836020820285016107f785610a78565b8060005b85811015610833578484038952815161081485826107ad565b945061081f83610a9e565b925060208a019950506001810190506107fb565b50829750879550505050505092915050565b61084e81610bdf565b82525050565b600061085f82610a93565b6108698185610abc565b9350610879818560208601610c22565b61088281610cfc565b840191505092915050565b600061089882610a93565b6108a28185610acd565b93506108b2818560208601610c22565b80840191505092915050565b60006108cb602483610ad8565b91507f7468652065676720646f6573206e6f742070726563656465207468652063686960008301527f636b656e000000000000000000000000000000000000000000000000000000006020830152604082019050919050565b61092d81610c09565b82525050565b600061093f828461088d565b915081905092915050565b600060208201905061095f60008301846107c1565b92915050565b600060208201905061097a6000830184610845565b92915050565b60006020820190508181036000830152610999816108be565b9050919050565b60006020820190506109b56000830184610924565b92915050565b60006040820190506109d06000830185610924565b81810360208301526109e281846107d0565b90509392505050565b6000604051905081810181811067ffffffffffffffff82111715610a1257610a11610ccd565b5b8060405250919050565b600067ffffffffffffffff821115610a3757610a36610ccd565b5b602082029050602081019050919050565b600067ffffffffffffffff821115610a6357610a62610ccd565b5b601f19601f8301169050602081019050919050565b6000819050602082019050919050565b600081519050919050565b600081519050919050565b6000602082019050919050565b600082825260208201905092915050565b600082825260208201905092915050565b600081905092915050565b600082825260208201905092915050565b6000610af482610c09565b9150610aff83610c09565b9250827fffffffffffffffffffffffffffffffffffffffffffffffffffffffffffffffff03821115610b3457610b33610c9e565b5b828201905092915050565b6000610b4a82610c09565b9150610b5583610c09565b9250817fffffffffffffffffffffffffffffffffffffffffffffffffffffffffffffffff0483118215151615610b8e57610b8d610c9e565b5b828202905092915050565b6000610ba482610c09565b9150610baf83610c09565b925082821015610bc257610bc1610c9e565b5b828203905092915050565b6000610bd882610be9565b9050919050565b6000819050919050565b600073ffffffffffffffffffffffffffffffffffffffff82169050919050565b6000819050919050565b82818337600083830152505050565b60005b83811015610c40578082015181840152602081019050610c25565b83811115610c4f576000848401525b50505050565b6000610c6082610c09565b91507fffffffffffffffffffffffffffffffffffffffffffffffffffffffffffffffff821415610c9357610c92610c9e565b5b600182019050919050565b7f4e487b7100000000000000000000000000000000000000000000000000000000600052601160045260246000fd5b7f4e487b7100000000000000000000000000000000000000000000000000000000600052604160045260246000fd5b6000601f19601f8301169050919050565b610d1681610bcd565b8114610d2157600080fd5b50565b610d2d81610c09565b8114610d3857600080fd5b5056fea264697066735822122091b218ad1ea42e5e889a67d0a7e29a9ddcd2b71ce178d2c0094b0d87fbc9277664736f6c63430008000033",
  "immutableReferences": {},
  "source": "// SPDX-License-Identifier: MIT\n\npragma solidity ^0.8.0;\ncontract Multicall {\n\n    struct Call {\n        address target;\n        bytes callData;\n    }\n    function aggregate(Call[] memory calls) public returns (uint blockNumber, bytes[] memory returnData) {\n        blockNumber = block.number;\n        returnData = new bytes[](calls.length);\n        for(uint i = 0; i < calls.length; i++) {\n            (bool success, bytes memory ret) = calls[i].target.call(calls[i].callData);\n            require(success);\n            returnData[i] = ret;\n        }\n    }\n    // helper functions\n    function getEthBalance(address addr) public view returns (uint balance) {\n        balance = addr.balance;\n    }\n    function getBlockHash(uint blockNumber) public view returns (bytes32 blockHash) {\n        blockHash = blockhash(blockNumber);\n    }\n    function getLastBlockHash() public view returns (bytes32 blockHash) {\n        blockHash = blockhash(block.number - 1);\n    }\n    function getCurrentBlockTimestamp() public view returns (uint timestamp) {\n        timestamp = block.timestamp;\n    }\n    function getCurrentTime() public view returns (uint currentTime) {\n        currentTime = block.timestamp;\n    }\n\n    function getNextDay() public view returns (uint nextDay) {\n        nextDay = block.timestamp + 1 days;\n    }\n\n    function getFutureTime(uint _futureDays) public view returns (uint futureTime) {\n        futureTime = block.timestamp + (_futureDays * 1 days);\n    }\n\n    function getTimespan(uint _startTime, uint _endTime) public pure returns (uint timespan) {\n        require(_endTime > _startTime, 'the egg does not precede the chicken');\n        timespan = _endTime - _startTime;\n    }\n\n    function getCurrentBlockDifficulty() public view returns (uint difficulty) {\n        difficulty = block.difficulty;\n    }\n    function getCurrentBlockGasLimit() public view returns (uint gaslimit) {\n        gaslimit = block.gaslimit;\n    }\n    function getCurrentBlockCoinbase() public view returns (address coinbase) {\n        coinbase = block.coinbase;\n    }\n}\n",
  "sourcePath": "/Users/Uni/Documents/GitHub/soulswap/soulswap-farms/contracts/libraries/Multicall.sol",
  "compiler": {
    "name": "solc",
    "version": "0.8.0+commit.c7dfd78e.Emscripten.clang"
  },
  "schemaVersion": "3.4.1",
  "updatedAt": "2021-08-20T08:20:41.126Z",
  "devdoc": {
    "kind": "dev",
    "methods": {},
    "version": 1
  },
  "userdoc": {
    "kind": "user",
    "methods": {},
    "version": 1
  }
}