{
  "contractName": "Outcaster",
  "abi": [
    {
      "anonymous": false,
      "inputs": [
        {
          "indexed": false,
          "internalType": "uint256",
          "name": "amount",
          "type": "uint256"
        }
      ],
      "name": "SeanceOutCasted",
      "type": "event"
    },
    {
      "inputs": [],
      "name": "seance",
      "outputs": [
        {
          "internalType": "contract SeanceCircle",
          "name": "",
          "type": "address"
        }
      ],
      "stateMutability": "view",
      "type": "function"
    },
    {
      "inputs": [],
      "name": "totalContributions",
      "outputs": [
        {
          "internalType": "uint256",
          "name": "",
          "type": "uint256"
        }
      ],
      "stateMutability": "view",
      "type": "function"
    },
    {
      "inputs": [
        {
          "internalType": "uint256",
          "name": "amount",
          "type": "uint256"
        }
      ],
      "name": "outCast",
      "outputs": [],
      "stateMutability": "nonpayable",
      "type": "function"
    },
    {
      "inputs": [],
      "name": "combust",
      "outputs": [],
      "stateMutability": "nonpayable",
      "type": "function"
    }
  ],
  "bytecode": "0x60a060405273124b06c5ce47de7a6e9efda71a946717130079e673ffffffffffffffffffffffffffffffffffffffff1660809073ffffffffffffffffffffffffffffffffffffffff1660601b81525034801561005a57600080fd5b5060805160601c61059d61008d6000396000818160b50152818161019a015281816101c0015261026b015261059d6000f3fe608060405234801561001057600080fd5b506004361061004c5760003560e01c80633595fb761461005157806337c089231461006d5780634ca01d451461008b578063e56879b9146100a9575b600080fd5b61006b60048036038101906100669190610372565b6100b3565b005b610075610192565b6040516100829190610450565b60405180910390f35b610093610198565b6040516100a09190610435565b60405180910390f35b6100b16101bc565b005b7f000000000000000000000000000000000000000000000000000000000000000073ffffffffffffffffffffffffffffffffffffffff16639dc29fac33836040518363ffffffff1660e01b815260040161010e92919061040c565b600060405180830381600087803b15801561012857600080fd5b505af115801561013c573d6000803e3d6000fd5b5050505080600080828254610151919061046b565b925050819055507fbecd5177a0e1462ba64350d5dda3755c374460a3ce6351d88bd31acfda392012816040516101879190610450565b60405180910390a150565b60005481565b7f000000000000000000000000000000000000000000000000000000000000000081565b60007f000000000000000000000000000000000000000000000000000000000000000073ffffffffffffffffffffffffffffffffffffffff166370a08231306040518263ffffffff1660e01b815260040161021791906103f1565b60206040518083038186803b15801561022f57600080fd5b505afa158015610243573d6000803e3d6000fd5b505050506040513d601f19601f82011682018060405250810190610267919061039b565b90507f000000000000000000000000000000000000000000000000000000000000000073ffffffffffffffffffffffffffffffffffffffff16639dc29fac30836040518363ffffffff1660e01b81526004016102c492919061040c565b600060405180830381600087803b1580156102de57600080fd5b505af11580156102f2573d6000803e3d6000fd5b5050505080600080828254610307919061046b565b925050819055507fbecd5177a0e1462ba64350d5dda3755c374460a3ce6351d88bd31acfda3920128160405161033d9190610450565b60405180910390a150565b60008135905061035781610550565b92915050565b60008151905061036c81610550565b92915050565b60006020828403121561038457600080fd5b600061039284828501610348565b91505092915050565b6000602082840312156103ad57600080fd5b60006103bb8482850161035d565b91505092915050565b6103cd816104c1565b82525050565b6103dc816104fd565b82525050565b6103eb816104f3565b82525050565b600060208201905061040660008301846103c4565b92915050565b600060408201905061042160008301856103c4565b61042e60208301846103e2565b9392505050565b600060208201905061044a60008301846103d3565b92915050565b600060208201905061046560008301846103e2565b92915050565b6000610476826104f3565b9150610481836104f3565b9250827fffffffffffffffffffffffffffffffffffffffffffffffffffffffffffffffff038211156104b6576104b5610521565b5b828201905092915050565b60006104cc826104d3565b9050919050565b600073ffffffffffffffffffffffffffffffffffffffff82169050919050565b6000819050919050565b60006105088261050f565b9050919050565b600061051a826104d3565b9050919050565b7f4e487b7100000000000000000000000000000000000000000000000000000000600052601160045260246000fd5b610559816104f3565b811461056457600080fd5b5056fea264697066735822122019466d15c29d821f3cc9994906da14759358c72556071f6f2192efc85b544e3064736f6c63430008000033",
  "immutableReferences": {
    "2233": [
      {
        "length": 32,
        "start": 181
      },
      {
        "length": 32,
        "start": 410
      },
      {
        "length": 32,
        "start": 448
      },
      {
        "length": 32,
        "start": 619
      }
    ]
  },
  "source": "// SPDX-License-Identifier: MIT\npragma solidity ^0.8.0;\n\n// import '@openzeppelin/contracts/access/Ownable.sol';\nimport '../tokens/SeanceCircle.sol';\n\ncontract Outcaster {\n\n    SeanceCircle public immutable seance = SeanceCircle(0x124B06C5ce47De7A6e9EFDA71a946717130079E6);\n    \n    uint public totalContributions;\n\n    event SeanceOutCasted(uint amount);\n\n    function outCast(uint amount) public {\n        seance.burn(msg.sender, amount);\n        totalContributions += amount;\n\n        emit SeanceOutCasted(amount);\n    }\n\n    function combust() public {\n        uint amount = seance.balanceOf(address(this));\n        seance.burn(address(this), amount);\n        totalContributions += amount;\n\n        emit SeanceOutCasted(amount);\n    }\n\n}",
  "sourcePath": "/Users/buns/Documents/GitHub/SoulSwapFinance/soulswap-farms/contracts/majestic/Outcaster.sol",
  "compiler": {
    "name": "solc",
    "version": "0.8.0+commit.c7dfd78e.Emscripten.clang"
  },
  "schemaVersion": "3.4.1",
  "updatedAt": "2022-09-19T21:23:15.544Z",
  "devdoc": {
    "kind": "dev",
    "methods": {},
    "version": 1
  },
  "userdoc": {
    "kind": "user",
    "methods": {},
    "version": 1
  }
}