{
  "contractName": "Outcaster",
  "abi": [
    {
      "anonymous": false,
      "inputs": [
        {
          "indexed": false,
          "internalType": "uint256",
          "name": "amount",
          "type": "uint256"
        }
      ],
      "name": "SeanceOutCasted",
      "type": "event"
    },
    {
      "inputs": [],
      "name": "seance",
      "outputs": [
        {
          "internalType": "contract SeanceCircle",
          "name": "",
          "type": "address"
        }
      ],
      "stateMutability": "view",
      "type": "function"
    },
    {
      "inputs": [],
      "name": "totalContributions",
      "outputs": [
        {
          "internalType": "uint256",
          "name": "",
          "type": "uint256"
        }
      ],
      "stateMutability": "view",
      "type": "function"
    },
    {
      "inputs": [
        {
          "internalType": "uint256",
          "name": "amount",
          "type": "uint256"
        }
      ],
      "name": "outCast",
      "outputs": [],
      "stateMutability": "nonpayable",
      "type": "function"
    },
    {
      "inputs": [],
      "name": "combust",
      "outputs": [],
      "stateMutability": "nonpayable",
      "type": "function"
    }
  ],
  "bytecode": "0x60a060405273124b06c5ce47de7a6e9efda71a946717130079e673ffffffffffffffffffffffffffffffffffffffff1660809073ffffffffffffffffffffffffffffffffffffffff1681525034801561005757600080fd5b506080516105a56100876000396000818160b50152818161019a015281816101c0015261025c01526105a56000f3fe608060405234801561001057600080fd5b506004361061004c5760003560e01c80633595fb761461005157806337c089231461006d5780634ca01d451461008b578063e56879b9146100a9575b600080fd5b61006b60048036038101906100669190610374565b6100b3565b005b610075610192565b60405161008291906103b0565b60405180910390f35b610093610198565b6040516100a0919061044a565b60405180910390f35b6100b16101bc565b005b7f000000000000000000000000000000000000000000000000000000000000000073ffffffffffffffffffffffffffffffffffffffff16639dc29fac33836040518363ffffffff1660e01b815260040161010e929190610486565b600060405180830381600087803b15801561012857600080fd5b505af115801561013c573d6000803e3d6000fd5b505050508060008082825461015191906104de565b925050819055507fbecd5177a0e1462ba64350d5dda3755c374460a3ce6351d88bd31acfda3920128160405161018791906103b0565b60405180910390a150565b60005481565b7f000000000000000000000000000000000000000000000000000000000000000081565b60007f000000000000000000000000000000000000000000000000000000000000000073ffffffffffffffffffffffffffffffffffffffff166370a08231306040518263ffffffff1660e01b81526004016102179190610512565b602060405180830381865afa158015610234573d6000803e3d6000fd5b505050506040513d601f19601f820116820180604052508101906102589190610542565b90507f000000000000000000000000000000000000000000000000000000000000000073ffffffffffffffffffffffffffffffffffffffff16639dc29fac30836040518363ffffffff1660e01b81526004016102b5929190610486565b600060405180830381600087803b1580156102cf57600080fd5b505af11580156102e3573d6000803e3d6000fd5b50505050806000808282546102f891906104de565b925050819055507fbecd5177a0e1462ba64350d5dda3755c374460a3ce6351d88bd31acfda3920128160405161032e91906103b0565b60405180910390a150565b600080fd5b6000819050919050565b6103518161033e565b811461035c57600080fd5b50565b60008135905061036e81610348565b92915050565b60006020828403121561038a57610389610339565b5b60006103988482850161035f565b91505092915050565b6103aa8161033e565b82525050565b60006020820190506103c560008301846103a1565b92915050565b600073ffffffffffffffffffffffffffffffffffffffff82169050919050565b6000819050919050565b600061041061040b610406846103cb565b6103eb565b6103cb565b9050919050565b6000610422826103f5565b9050919050565b600061043482610417565b9050919050565b61044481610429565b82525050565b600060208201905061045f600083018461043b565b92915050565b6000610470826103cb565b9050919050565b61048081610465565b82525050565b600060408201905061049b6000830185610477565b6104a860208301846103a1565b9392505050565b7f4e487b7100000000000000000000000000000000000000000000000000000000600052601160045260246000fd5b60006104e98261033e565b91506104f48361033e565b925082820190508082111561050c5761050b6104af565b5b92915050565b60006020820190506105276000830184610477565b92915050565b60008151905061053c81610348565b92915050565b60006020828403121561055857610557610339565b5b60006105668482850161052d565b9150509291505056fea264697066735822122042cc7efbe310383bb734be46c01b73cef28789baa6c3e880f1289d3acef43aea64736f6c63430008110033",
  "immutableReferences": {
    "12789": [
      {
        "length": 32,
        "start": 181
      },
      {
        "length": 32,
        "start": 410
      },
      {
        "length": 32,
        "start": 448
      },
      {
        "length": 32,
        "start": 604
      }
    ]
  },
  "source": "// SPDX-License-Identifier: MIT\npragma solidity >=0.8.0;\n\n// import '@openzeppelin/contracts/access/Ownable.sol';\nimport '../tokens/SeanceCircle.sol';\n\ncontract Outcaster {\n\n    SeanceCircle public immutable seance = SeanceCircle(0x124B06C5ce47De7A6e9EFDA71a946717130079E6);\n    \n    uint public totalContributions;\n\n    event SeanceOutCasted(uint amount);\n\n    function outCast(uint amount) public {\n        seance.burn(msg.sender, amount);\n        totalContributions += amount;\n\n        emit SeanceOutCasted(amount);\n    }\n\n    function combust() public {\n        uint amount = seance.balanceOf(address(this));\n        seance.burn(address(this), amount);\n        totalContributions += amount;\n\n        emit SeanceOutCasted(amount);\n    }\n\n}",
  "sourcePath": "/Users/buns/Documents/GitHub/SoulSwapFinance/soulswap-farms/contracts/majestic/Outcaster.sol",
  "compiler": {
    "name": "solc",
    "version": "0.8.17+commit.8df45f5f.Emscripten.clang"
  },
  "schemaVersion": "3.4.1",
  "updatedAt": "2022-10-01T21:51:29.830Z",
  "devdoc": {
    "kind": "dev",
    "methods": {},
    "version": 1
  },
  "userdoc": {
    "kind": "user",
    "methods": {},
    "version": 1
  }
}