{
  "contractName": "SeanceCircle",
  "abi": [
    {
      "anonymous": false,
      "inputs": [
        {
          "indexed": true,
          "internalType": "address",
          "name": "owner",
          "type": "address"
        },
        {
          "indexed": true,
          "internalType": "address",
          "name": "spender",
          "type": "address"
        },
        {
          "indexed": false,
          "internalType": "uint256",
          "name": "value",
          "type": "uint256"
        }
      ],
      "name": "Approval",
      "type": "event"
    },
    {
      "anonymous": false,
      "inputs": [
        {
          "indexed": true,
          "internalType": "address",
          "name": "delegator",
          "type": "address"
        },
        {
          "indexed": true,
          "internalType": "address",
          "name": "fromDelegate",
          "type": "address"
        },
        {
          "indexed": true,
          "internalType": "address",
          "name": "toDelegate",
          "type": "address"
        }
      ],
      "name": "DelegateChanged",
      "type": "event"
    },
    {
      "anonymous": false,
      "inputs": [
        {
          "indexed": true,
          "internalType": "address",
          "name": "delegate",
          "type": "address"
        },
        {
          "indexed": false,
          "internalType": "uint256",
          "name": "previousBalance",
          "type": "uint256"
        },
        {
          "indexed": false,
          "internalType": "uint256",
          "name": "newBalance",
          "type": "uint256"
        }
      ],
      "name": "DelegateVotesChanged",
      "type": "event"
    },
    {
      "anonymous": false,
      "inputs": [
        {
          "indexed": true,
          "internalType": "address",
          "name": "operator",
          "type": "address"
        },
        {
          "indexed": true,
          "internalType": "bool",
          "name": "access",
          "type": "bool"
        }
      ],
      "name": "OperatorUpdated",
      "type": "event"
    },
    {
      "anonymous": false,
      "inputs": [
        {
          "indexed": true,
          "internalType": "address",
          "name": "previousOwner",
          "type": "address"
        },
        {
          "indexed": true,
          "internalType": "address",
          "name": "newOwner",
          "type": "address"
        }
      ],
      "name": "OwnershipTransferred",
      "type": "event"
    },
    {
      "anonymous": false,
      "inputs": [
        {
          "indexed": true,
          "internalType": "address",
          "name": "from",
          "type": "address"
        },
        {
          "indexed": true,
          "internalType": "address",
          "name": "to",
          "type": "address"
        },
        {
          "indexed": false,
          "internalType": "uint256",
          "name": "value",
          "type": "uint256"
        }
      ],
      "name": "Transfer",
      "type": "event"
    },
    {
      "inputs": [],
      "name": "DELEGATION_TYPEHASH",
      "outputs": [
        {
          "internalType": "bytes32",
          "name": "",
          "type": "bytes32"
        }
      ],
      "stateMutability": "view",
      "type": "function",
      "constant": true
    },
    {
      "inputs": [],
      "name": "DOMAIN_TYPEHASH",
      "outputs": [
        {
          "internalType": "bytes32",
          "name": "",
          "type": "bytes32"
        }
      ],
      "stateMutability": "view",
      "type": "function",
      "constant": true
    },
    {
      "inputs": [
        {
          "internalType": "address",
          "name": "newOperator",
          "type": "address"
        }
      ],
      "name": "addOperator",
      "outputs": [],
      "stateMutability": "nonpayable",
      "type": "function"
    },
    {
      "inputs": [
        {
          "internalType": "address",
          "name": "owner",
          "type": "address"
        },
        {
          "internalType": "address",
          "name": "spender",
          "type": "address"
        }
      ],
      "name": "allowance",
      "outputs": [
        {
          "internalType": "uint256",
          "name": "",
          "type": "uint256"
        }
      ],
      "stateMutability": "view",
      "type": "function",
      "constant": true
    },
    {
      "inputs": [
        {
          "internalType": "address",
          "name": "spender",
          "type": "address"
        },
        {
          "internalType": "uint256",
          "name": "amount",
          "type": "uint256"
        }
      ],
      "name": "approve",
      "outputs": [
        {
          "internalType": "bool",
          "name": "",
          "type": "bool"
        }
      ],
      "stateMutability": "nonpayable",
      "type": "function"
    },
    {
      "inputs": [
        {
          "internalType": "address",
          "name": "account",
          "type": "address"
        }
      ],
      "name": "balanceOf",
      "outputs": [
        {
          "internalType": "uint256",
          "name": "",
          "type": "uint256"
        }
      ],
      "stateMutability": "view",
      "type": "function",
      "constant": true
    },
    {
      "inputs": [
        {
          "internalType": "address",
          "name": "",
          "type": "address"
        },
        {
          "internalType": "uint256",
          "name": "",
          "type": "uint256"
        }
      ],
      "name": "checkpoints",
      "outputs": [
        {
          "internalType": "uint256",
          "name": "fromTime",
          "type": "uint256"
        },
        {
          "internalType": "uint256",
          "name": "votes",
          "type": "uint256"
        }
      ],
      "stateMutability": "view",
      "type": "function",
      "constant": true
    },
    {
      "inputs": [],
      "name": "decimals",
      "outputs": [
        {
          "internalType": "uint8",
          "name": "",
          "type": "uint8"
        }
      ],
      "stateMutability": "view",
      "type": "function",
      "constant": true
    },
    {
      "inputs": [
        {
          "internalType": "address",
          "name": "spender",
          "type": "address"
        },
        {
          "internalType": "uint256",
          "name": "subtractedValue",
          "type": "uint256"
        }
      ],
      "name": "decreaseAllowance",
      "outputs": [
        {
          "internalType": "bool",
          "name": "",
          "type": "bool"
        }
      ],
      "stateMutability": "nonpayable",
      "type": "function"
    },
    {
      "inputs": [
        {
          "internalType": "address",
          "name": "spender",
          "type": "address"
        },
        {
          "internalType": "uint256",
          "name": "addedValue",
          "type": "uint256"
        }
      ],
      "name": "increaseAllowance",
      "outputs": [
        {
          "internalType": "bool",
          "name": "",
          "type": "bool"
        }
      ],
      "stateMutability": "nonpayable",
      "type": "function"
    },
    {
      "inputs": [],
      "name": "name",
      "outputs": [
        {
          "internalType": "string",
          "name": "",
          "type": "string"
        }
      ],
      "stateMutability": "view",
      "type": "function",
      "constant": true
    },
    {
      "inputs": [
        {
          "internalType": "address",
          "name": "",
          "type": "address"
        }
      ],
      "name": "nonces",
      "outputs": [
        {
          "internalType": "uint256",
          "name": "",
          "type": "uint256"
        }
      ],
      "stateMutability": "view",
      "type": "function",
      "constant": true
    },
    {
      "inputs": [
        {
          "internalType": "address",
          "name": "",
          "type": "address"
        }
      ],
      "name": "numCheckpoints",
      "outputs": [
        {
          "internalType": "uint256",
          "name": "",
          "type": "uint256"
        }
      ],
      "stateMutability": "view",
      "type": "function",
      "constant": true
    },
    {
      "inputs": [
        {
          "internalType": "address",
          "name": "",
          "type": "address"
        }
      ],
      "name": "operator",
      "outputs": [
        {
          "internalType": "bool",
          "name": "",
          "type": "bool"
        }
      ],
      "stateMutability": "view",
      "type": "function",
      "constant": true
    },
    {
      "inputs": [
        {
          "internalType": "uint256",
          "name": "",
          "type": "uint256"
        }
      ],
      "name": "operators",
      "outputs": [
        {
          "internalType": "address",
          "name": "",
          "type": "address"
        }
      ],
      "stateMutability": "view",
      "type": "function",
      "constant": true
    },
    {
      "inputs": [],
      "name": "owner",
      "outputs": [
        {
          "internalType": "address",
          "name": "",
          "type": "address"
        }
      ],
      "stateMutability": "view",
      "type": "function",
      "constant": true
    },
    {
      "inputs": [
        {
          "internalType": "address",
          "name": "removingOperator",
          "type": "address"
        }
      ],
      "name": "removeOperator",
      "outputs": [],
      "stateMutability": "nonpayable",
      "type": "function"
    },
    {
      "inputs": [],
      "name": "renounceOwnership",
      "outputs": [],
      "stateMutability": "nonpayable",
      "type": "function"
    },
    {
      "inputs": [],
      "name": "soul",
      "outputs": [
        {
          "internalType": "contract SoulPower",
          "name": "",
          "type": "address"
        }
      ],
      "stateMutability": "view",
      "type": "function",
      "constant": true
    },
    {
      "inputs": [],
      "name": "symbol",
      "outputs": [
        {
          "internalType": "string",
          "name": "",
          "type": "string"
        }
      ],
      "stateMutability": "view",
      "type": "function",
      "constant": true
    },
    {
      "inputs": [],
      "name": "totalSupply",
      "outputs": [
        {
          "internalType": "uint256",
          "name": "",
          "type": "uint256"
        }
      ],
      "stateMutability": "view",
      "type": "function",
      "constant": true
    },
    {
      "inputs": [
        {
          "internalType": "address",
          "name": "recipient",
          "type": "address"
        },
        {
          "internalType": "uint256",
          "name": "amount",
          "type": "uint256"
        }
      ],
      "name": "transfer",
      "outputs": [
        {
          "internalType": "bool",
          "name": "",
          "type": "bool"
        }
      ],
      "stateMutability": "nonpayable",
      "type": "function"
    },
    {
      "inputs": [
        {
          "internalType": "address",
          "name": "sender",
          "type": "address"
        },
        {
          "internalType": "address",
          "name": "recipient",
          "type": "address"
        },
        {
          "internalType": "uint256",
          "name": "amount",
          "type": "uint256"
        }
      ],
      "name": "transferFrom",
      "outputs": [
        {
          "internalType": "bool",
          "name": "",
          "type": "bool"
        }
      ],
      "stateMutability": "nonpayable",
      "type": "function"
    },
    {
      "inputs": [
        {
          "internalType": "address",
          "name": "newOwner",
          "type": "address"
        }
      ],
      "name": "transferOwnership",
      "outputs": [],
      "stateMutability": "nonpayable",
      "type": "function"
    },
    {
      "inputs": [
        {
          "internalType": "address",
          "name": "_to",
          "type": "address"
        },
        {
          "internalType": "uint256",
          "name": "_amount",
          "type": "uint256"
        }
      ],
      "name": "mint",
      "outputs": [],
      "stateMutability": "nonpayable",
      "type": "function"
    },
    {
      "inputs": [
        {
          "internalType": "address",
          "name": "_from",
          "type": "address"
        },
        {
          "internalType": "uint256",
          "name": "_amount",
          "type": "uint256"
        }
      ],
      "name": "burn",
      "outputs": [],
      "stateMutability": "nonpayable",
      "type": "function"
    },
    {
      "inputs": [
        {
          "internalType": "contract SoulPower",
          "name": "_soul",
          "type": "address"
        }
      ],
      "name": "initialize",
      "outputs": [],
      "stateMutability": "nonpayable",
      "type": "function"
    },
    {
      "inputs": [
        {
          "internalType": "address",
          "name": "_to",
          "type": "address"
        },
        {
          "internalType": "uint256",
          "name": "_amount",
          "type": "uint256"
        }
      ],
      "name": "safeSoulTransfer",
      "outputs": [],
      "stateMutability": "nonpayable",
      "type": "function"
    },
    {
      "inputs": [
        {
          "internalType": "address",
          "name": "delegator",
          "type": "address"
        }
      ],
      "name": "delegates",
      "outputs": [
        {
          "internalType": "address",
          "name": "",
          "type": "address"
        }
      ],
      "stateMutability": "view",
      "type": "function",
      "constant": true
    },
    {
      "inputs": [
        {
          "internalType": "address",
          "name": "delegatee",
          "type": "address"
        }
      ],
      "name": "delegate",
      "outputs": [],
      "stateMutability": "nonpayable",
      "type": "function"
    },
    {
      "inputs": [
        {
          "internalType": "address",
          "name": "delegatee",
          "type": "address"
        },
        {
          "internalType": "uint256",
          "name": "nonce",
          "type": "uint256"
        },
        {
          "internalType": "uint256",
          "name": "expiry",
          "type": "uint256"
        },
        {
          "internalType": "uint8",
          "name": "v",
          "type": "uint8"
        },
        {
          "internalType": "bytes32",
          "name": "r",
          "type": "bytes32"
        },
        {
          "internalType": "bytes32",
          "name": "s",
          "type": "bytes32"
        }
      ],
      "name": "delegateBySig",
      "outputs": [],
      "stateMutability": "nonpayable",
      "type": "function"
    },
    {
      "inputs": [
        {
          "internalType": "address",
          "name": "account",
          "type": "address"
        }
      ],
      "name": "getCurrentVotes",
      "outputs": [
        {
          "internalType": "uint256",
          "name": "",
          "type": "uint256"
        }
      ],
      "stateMutability": "view",
      "type": "function",
      "constant": true
    },
    {
      "inputs": [
        {
          "internalType": "address",
          "name": "account",
          "type": "address"
        },
        {
          "internalType": "uint256",
          "name": "blockTimestamp",
          "type": "uint256"
        }
      ],
      "name": "getPriorVotes",
      "outputs": [
        {
          "internalType": "uint256",
          "name": "",
          "type": "uint256"
        }
      ],
      "stateMutability": "view",
      "type": "function",
      "constant": true
    },
    {
      "inputs": [
        {
          "internalType": "contract SoulPower",
          "name": "_soul",
          "type": "address"
        }
      ],
      "name": "newSoul",
      "outputs": [],
      "stateMutability": "nonpayable",
      "type": "function"
    }
  ],
  "bytecode": "0x60806040523480156200001157600080fd5b506040518060400160405280600c81526020017f5365616e6365436972636c6500000000000000000000000000000000000000008152506040518060400160405280600681526020017f5345414e43450000000000000000000000000000000000000000000000000000815250816003908051906020019062000096929190620002bd565b508060049080519060200190620000af929190620002bd565b505050620000d2620000c6620001ef60201b60201c565b620001f760201b60201c565b6000620000e4620001ef60201b60201c565b90506001600760008373ffffffffffffffffffffffffffffffffffffffff1673ffffffffffffffffffffffffffffffffffffffff16815260200190815260200160002060006101000a81548160ff0219169083151502179055506006819080600181540180825580915050600190039060005260206000200160009091909190916101000a81548173ffffffffffffffffffffffffffffffffffffffff021916908373ffffffffffffffffffffffffffffffffffffffff160217905550600115158173ffffffffffffffffffffffffffffffffffffffff167f966c160e1c4dbc7df8d69af4ace01e9297c3cf016397b7914971f2fbfa32672d60405160405180910390a350620003d2565b600033905090565b6000600560009054906101000a900473ffffffffffffffffffffffffffffffffffffffff16905081600560006101000a81548173ffffffffffffffffffffffffffffffffffffffff021916908373ffffffffffffffffffffffffffffffffffffffff1602179055508173ffffffffffffffffffffffffffffffffffffffff168173ffffffffffffffffffffffffffffffffffffffff167f8be0079c531659141344cd1fd0a4f28419497f9722a3daafe3b4186f6b6457e060405160405180910390a35050565b828054620002cb906200036d565b90600052602060002090601f016020900481019282620002ef57600085556200033b565b82601f106200030a57805160ff19168380011785556200033b565b828001600101855582156200033b579182015b828111156200033a5782518255916020019190600101906200031d565b5b5090506200034a91906200034e565b5090565b5b80821115620003695760008160009055506001016200034f565b5090565b600060028204905060018216806200038657607f821691505b602082108114156200039d576200039c620003a3565b5b50919050565b7f4e487b7100000000000000000000000000000000000000000000000000000000600052602260045260246000fd5b6147e080620003e26000396000f3fe608060405234801561001057600080fd5b50600436106102065760003560e01c8063815b7a8c1161011a578063ac8a584a116100ad578063c4d66de81161007c578063c4d66de814610638578063dd62ed3e14610654578063e28d490614610684578063e7a324dc146106b4578063f2fde38b146106d257610206565b8063ac8a584a146105b4578063b2a142aa146105d0578063b4b5ea57146105ec578063c3cda5201461061c57610206565b80639a307391116100e95780639a307391146105085780639dc29fac14610538578063a457c2d714610554578063a9059cbb1461058457610206565b8063815b7a8c146104925780638da5cb5b146104b057806395d89b41146104ce5780639870d7fe146104ec57610206565b8063395093511161019d5780636fcfff451161016c5780636fcfff45146103c857806370a08231146103f8578063715018a614610428578063782d6fe1146104325780637ecebe001461046257610206565b8063395093511461033057806340c10f1914610360578063587cde1e1461037c5780635c19a95c146103ac57610206565b806320606b70116101d957806320606b70146102a857806323b872dd146102c6578063260cf996146102f6578063313ce5671461031257610206565b806306fdde031461020b578063095ea7b3146102295780630cdfebfa1461025957806318160ddd1461028a575b600080fd5b6102136106ee565b6040516102209190614059565b60405180910390f35b610243600480360381019061023e91906133ff565b610780565b6040516102509190613f39565b60405180910390f35b610273600480360381019061026e91906133ff565b61079e565b604051610281929190614376565b60405180910390f35b6102926107cf565b60405161029f919061435b565b60405180910390f35b6102b06107d9565b6040516102bd9190613f54565b60405180910390f35b6102e060048036038101906102db91906133b0565b6107fd565b6040516102ed9190613f39565b60405180910390f35b610310600480360381019061030b91906134ed565b6108fe565b005b61031a610a6c565b604051610327919061439f565b60405180910390f35b61034a600480360381019061034591906133ff565b610a75565b6040516103579190613f39565b60405180910390f35b61037a600480360381019061037591906133ff565b610b21565b005b6103966004803603810190610391919061334b565b610c82565b6040516103a39190613ef5565b60405180910390f35b6103c660048036038101906103c1919061334b565b610ceb565b005b6103e260048036038101906103dd919061334b565b610cf8565b6040516103ef919061435b565b60405180910390f35b610412600480360381019061040d919061334b565b610d10565b60405161041f919061435b565b60405180910390f35b610430610d58565b005b61044c600480360381019061044791906133ff565b610de0565b604051610459919061435b565b60405180910390f35b61047c6004803603810190610477919061334b565b61110b565b604051610489919061435b565b60405180910390f35b61049a611123565b6040516104a7919061403e565b60405180910390f35b6104b8611149565b6040516104c59190613ef5565b60405180910390f35b6104d6611173565b6040516104e39190614059565b60405180910390f35b6105066004803603810190610501919061334b565b611205565b005b610522600480360381019061051d919061334b565b6114a0565b60405161052f9190613f39565b60405180910390f35b610552600480360381019061054d91906133ff565b6114c0565b005b61056e600480360381019061056991906133ff565b6115d2565b60405161057b9190613f39565b60405180910390f35b61059e600480360381019061059991906133ff565b6116c6565b6040516105ab9190613f39565b60405180910390f35b6105ce60048036038101906105c9919061334b565b6116e4565b005b6105ea60048036038101906105e591906133ff565b611ada565b005b6106066004803603810190610601919061334b565b611d95565b604051610613919061435b565b60405180910390f35b6106366004803603810190610631919061343b565b611e52565b005b610652600480360381019061064d91906134ed565b6120e7565b005b61066e60048036038101906106699190613374565b6121f7565b60405161067b919061435b565b60405180910390f35b61069e60048036038101906106999190613516565b61227e565b6040516106ab9190613ef5565b60405180910390f35b6106bc6122bd565b6040516106c99190613f54565b60405180910390f35b6106ec60048036038101906106e7919061334b565b6122e1565b005b6060600380546106fd9061459b565b80601f01602080910402602001604051908101604052809291908181526020018280546107299061459b565b80156107765780601f1061074b57610100808354040283529160200191610776565b820191906000526020600020905b81548152906001019060200180831161075957829003601f168201915b5050505050905090565b600061079461078d6123d9565b84846123e1565b6001905092915050565b600a602052816000526040600020602052806000526040600020600091509150508060000154908060010154905082565b6000600254905090565b7f8cad95687ba82c2ce50e74f7b754645e5117c3a5bec8151c0726d5857980a86681565b600061080a8484846125ac565b6000600160008673ffffffffffffffffffffffffffffffffffffffff1673ffffffffffffffffffffffffffffffffffffffff16815260200190815260200160002060006108556123d9565b73ffffffffffffffffffffffffffffffffffffffff1673ffffffffffffffffffffffffffffffffffffffff168152602001908152602001600020549050828110156108d5576040517f08c379a00000000000000000000000000000000000000000000000000000000081526004016108cc9061419b565b60405180910390fd5b6108f2856108e16123d9565b85846108ed919061449f565b6123e1565b60019150509392505050565b60006109086123d9565b9050600760008273ffffffffffffffffffffffffffffffffffffffff1673ffffffffffffffffffffffffffffffffffffffff16815260200190815260200160002060009054906101000a900460ff16610996576040517f08c379a000000000000000000000000000000000000000000000000000000000815260040161098d9061429b565b60405180910390fd5b8173ffffffffffffffffffffffffffffffffffffffff16600860009054906101000a900473ffffffffffffffffffffffffffffffffffffffff1673ffffffffffffffffffffffffffffffffffffffff161415610a27576040517f08c379a0000000000000000000000000000000000000000000000000000000008152600401610a1e906141fb565b60405180910390fd5b81600860006101000a81548173ffffffffffffffffffffffffffffffffffffffff021916908373ffffffffffffffffffffffffffffffffffffffff1602179055505050565b60006012905090565b6000610b17610a826123d9565b848460016000610a906123d9565b73ffffffffffffffffffffffffffffffffffffffff1673ffffffffffffffffffffffffffffffffffffffff16815260200190815260200160002060008873ffffffffffffffffffffffffffffffffffffffff1673ffffffffffffffffffffffffffffffffffffffff16815260200190815260200160002054610b1291906143e1565b6123e1565b6001905092915050565b6000610b2b6123d9565b9050600760008273ffffffffffffffffffffffffffffffffffffffff1673ffffffffffffffffffffffffffffffffffffffff16815260200190815260200160002060009054906101000a900460ff16610bb9576040517f08c379a0000000000000000000000000000000000000000000000000000000008152600401610bb09061429b565b60405180910390fd5b600860149054906101000a900460ff16610c08576040517f08c379a0000000000000000000000000000000000000000000000000000000008152600401610bff906142bb565b60405180910390fd5b610c128383612836565b610c7d6000600960008673ffffffffffffffffffffffffffffffffffffffff1673ffffffffffffffffffffffffffffffffffffffff16815260200190815260200160002060009054906101000a900473ffffffffffffffffffffffffffffffffffffffff1684612996565b505050565b6000600960008373ffffffffffffffffffffffffffffffffffffffff1673ffffffffffffffffffffffffffffffffffffffff16815260200190815260200160002060009054906101000a900473ffffffffffffffffffffffffffffffffffffffff169050919050565b610cf53382612bf3565b50565b600b6020528060005260406000206000915090505481565b60008060008373ffffffffffffffffffffffffffffffffffffffff1673ffffffffffffffffffffffffffffffffffffffff168152602001908152602001600020549050919050565b610d606123d9565b73ffffffffffffffffffffffffffffffffffffffff16610d7e611149565b73ffffffffffffffffffffffffffffffffffffffff1614610dd4576040517f08c379a0000000000000000000000000000000000000000000000000000000008152600401610dcb906141db565b60405180910390fd5b610dde6000612d64565b565b6000428210610e24576040517f08c379a0000000000000000000000000000000000000000000000000000000008152600401610e1b906141bb565b60405180910390fd5b6000600b60008573ffffffffffffffffffffffffffffffffffffffff1673ffffffffffffffffffffffffffffffffffffffff1681526020019081526020016000205490506000811415610e7b576000915050611105565b82600a60008673ffffffffffffffffffffffffffffffffffffffff1673ffffffffffffffffffffffffffffffffffffffff1681526020019081526020016000206000600184610eca919061449f565b81526020019081526020016000206000015411610f4957600a60008573ffffffffffffffffffffffffffffffffffffffff1673ffffffffffffffffffffffffffffffffffffffff1681526020019081526020016000206000600183610f2f919061449f565b815260200190815260200160002060010154915050611105565b82600a60008673ffffffffffffffffffffffffffffffffffffffff1673ffffffffffffffffffffffffffffffffffffffff1681526020019081526020016000206000808152602001908152602001600020600001541115610fae576000915050611105565b600080600183610fbe919061449f565b90505b818111156110ab57600060028383610fd9919061449f565b610fe3919061446e565b82610fee919061449f565b90506000600a60008973ffffffffffffffffffffffffffffffffffffffff1673ffffffffffffffffffffffffffffffffffffffff1681526020019081526020016000206000838152602001908152602001600020604051806040016040529081600082015481526020016001820154815250509050868160000151141561108057806020015195505050505050611105565b8681600001511015611094578193506110a4565b6001826110a1919061449f565b92505b5050610fc1565b600a60008773ffffffffffffffffffffffffffffffffffffffff1673ffffffffffffffffffffffffffffffffffffffff16815260200190815260200160002060008381526020019081526020016000206001015493505050505b92915050565b600c6020528060005260406000206000915090505481565b600860009054906101000a900473ffffffffffffffffffffffffffffffffffffffff1681565b6000600560009054906101000a900473ffffffffffffffffffffffffffffffffffffffff16905090565b6060600480546111829061459b565b80601f01602080910402602001604051908101604052809291908181526020018280546111ae9061459b565b80156111fb5780601f106111d0576101008083540402835291602001916111fb565b820191906000526020600020905b8154815290600101906020018083116111de57829003601f168201915b5050505050905090565b600061120f6123d9565b9050600760008273ffffffffffffffffffffffffffffffffffffffff1673ffffffffffffffffffffffffffffffffffffffff16815260200190815260200160002060009054906101000a900460ff1661129d576040517f08c379a00000000000000000000000000000000000000000000000000000000081526004016112949061429b565b60405180910390fd5b600073ffffffffffffffffffffffffffffffffffffffff168273ffffffffffffffffffffffffffffffffffffffff16141561130d576040517f08c379a0000000000000000000000000000000000000000000000000000000008152600401611304906140fb565b60405180910390fd5b600760008373ffffffffffffffffffffffffffffffffffffffff1673ffffffffffffffffffffffffffffffffffffffff16815260200190815260200160002060009054906101000a900460ff161561139a576040517f08c379a00000000000000000000000000000000000000000000000000000000081526004016113919061421b565b60405180910390fd5b6001600760008473ffffffffffffffffffffffffffffffffffffffff1673ffffffffffffffffffffffffffffffffffffffff16815260200190815260200160002060006101000a81548160ff0219169083151502179055506006829080600181540180825580915050600190039060005260206000200160009091909190916101000a81548173ffffffffffffffffffffffffffffffffffffffff021916908373ffffffffffffffffffffffffffffffffffffffff160217905550600115158273ffffffffffffffffffffffffffffffffffffffff167f966c160e1c4dbc7df8d69af4ace01e9297c3cf016397b7914971f2fbfa32672d60405160405180910390a35050565b60076020528060005260406000206000915054906101000a900460ff1681565b60006114ca6123d9565b9050600760008273ffffffffffffffffffffffffffffffffffffffff1673ffffffffffffffffffffffffffffffffffffffff16815260200190815260200160002060009054906101000a900460ff16611558576040517f08c379a000000000000000000000000000000000000000000000000000000000815260040161154f9061429b565b60405180910390fd5b6115628383612e2a565b6115cd600960008573ffffffffffffffffffffffffffffffffffffffff1673ffffffffffffffffffffffffffffffffffffffff16815260200190815260200160002060009054906101000a900473ffffffffffffffffffffffffffffffffffffffff16600084612996565b505050565b600080600160006115e16123d9565b73ffffffffffffffffffffffffffffffffffffffff1673ffffffffffffffffffffffffffffffffffffffff16815260200190815260200160002060008573ffffffffffffffffffffffffffffffffffffffff1673ffffffffffffffffffffffffffffffffffffffff1681526020019081526020016000205490508281101561169e576040517f08c379a00000000000000000000000000000000000000000000000000000000081526004016116959061431b565b60405180910390fd5b6116bb6116a96123d9565b8585846116b6919061449f565b6123e1565b600191505092915050565b60006116da6116d36123d9565b84846125ac565b6001905092915050565b60006116ee6123d9565b9050600760008273ffffffffffffffffffffffffffffffffffffffff1673ffffffffffffffffffffffffffffffffffffffff16815260200190815260200160002060009054906101000a900460ff1661177c576040517f08c379a00000000000000000000000000000000000000000000000000000000081526004016117739061429b565b60405180910390fd5b600760008373ffffffffffffffffffffffffffffffffffffffff1673ffffffffffffffffffffffffffffffffffffffff16815260200190815260200160002060009054906101000a900460ff16611808576040517f08c379a00000000000000000000000000000000000000000000000000000000081526004016117ff9061415b565b60405180910390fd5b6000600760008473ffffffffffffffffffffffffffffffffffffffff1673ffffffffffffffffffffffffffffffffffffffff16815260200190815260200160002060006101000a81548160ff02191690831515021790555060005b6006805490508160ff161015611ad4578273ffffffffffffffffffffffffffffffffffffffff1660068260ff16815481106118c7577f4e487b7100000000000000000000000000000000000000000000000000000000600052603260045260246000fd5b9060005260206000200160009054906101000a900473ffffffffffffffffffffffffffffffffffffffff1673ffffffffffffffffffffffffffffffffffffffff161415611ac157600660018261191d9190614437565b60ff1681548110611957577f4e487b7100000000000000000000000000000000000000000000000000000000600052603260045260246000fd5b9060005260206000200160009054906101000a900473ffffffffffffffffffffffffffffffffffffffff1660068260ff16815481106119bf577f4e487b7100000000000000000000000000000000000000000000000000000000600052603260045260246000fd5b9060005260206000200160006101000a81548173ffffffffffffffffffffffffffffffffffffffff021916908373ffffffffffffffffffffffffffffffffffffffff1602179055506006805480611a3f577f4e487b7100000000000000000000000000000000000000000000000000000000600052603160045260246000fd5b6001900381819060005260206000200160006101000a81549073ffffffffffffffffffffffffffffffffffffffff02191690559055600015158373ffffffffffffffffffffffffffffffffffffffff167f966c160e1c4dbc7df8d69af4ace01e9297c3cf016397b7914971f2fbfa32672d60405160405180910390a350611ad6565b8080611acc90614616565b915050611863565b505b5050565b6000611ae46123d9565b9050600760008273ffffffffffffffffffffffffffffffffffffffff1673ffffffffffffffffffffffffffffffffffffffff16815260200190815260200160002060009054906101000a900460ff16611b72576040517f08c379a0000000000000000000000000000000000000000000000000000000008152600401611b699061429b565b60405180910390fd5b6000600860009054906101000a900473ffffffffffffffffffffffffffffffffffffffff1673ffffffffffffffffffffffffffffffffffffffff166370a08231306040518263ffffffff1660e01b8152600401611bcf9190613ef5565b60206040518083038186803b158015611be757600080fd5b505afa158015611bfb573d6000803e3d6000fd5b505050506040513d601f19601f82011682018060405250810190611c1f919061353f565b905080831115611cde57600860009054906101000a900473ffffffffffffffffffffffffffffffffffffffff1673ffffffffffffffffffffffffffffffffffffffff1663a9059cbb85836040518363ffffffff1660e01b8152600401611c86929190613f10565b602060405180830381600087803b158015611ca057600080fd5b505af1158015611cb4573d6000803e3d6000fd5b505050506040513d601f19601f82011682018060405250810190611cd891906134c4565b50611d8f565b600860009054906101000a900473ffffffffffffffffffffffffffffffffffffffff1673ffffffffffffffffffffffffffffffffffffffff1663a9059cbb85856040518363ffffffff1660e01b8152600401611d3b929190613f10565b602060405180830381600087803b158015611d5557600080fd5b505af1158015611d69573d6000803e3d6000fd5b505050506040513d601f19601f82011682018060405250810190611d8d91906134c4565b505b50505050565b600080600b60008473ffffffffffffffffffffffffffffffffffffffff1673ffffffffffffffffffffffffffffffffffffffff16815260200190815260200160002054905060008111611de9576000611e4a565b600a60008473ffffffffffffffffffffffffffffffffffffffff1673ffffffffffffffffffffffffffffffffffffffff1681526020019081526020016000206000600183611e37919061449f565b8152602001908152602001600020600101545b915050919050565b60007f8cad95687ba82c2ce50e74f7b754645e5117c3a5bec8151c0726d5857980a866611e7d6106ee565b80519060200120611e8c61300a565b30604051602001611ea09493929190613fb4565b60405160208183030381529060405280519060200120905060007fe48329057bfd03d55e49b547132e39cffd9c1820ad7b9d4c5307691425d15adf888888604051602001611ef19493929190613f6f565b60405160208183030381529060405280519060200120905060008282604051602001611f1e929190613ebe565b604051602081830303815290604052805190602001209050600060018288888860405160008152602001604052604051611f5b9493929190613ff9565b6020604051602081039080840390855afa158015611f7d573d6000803e3d6000fd5b505050602060405103519050600073ffffffffffffffffffffffffffffffffffffffff168173ffffffffffffffffffffffffffffffffffffffff161415611ff9576040517f08c379a0000000000000000000000000000000000000000000000000000000008152600401611ff09061417b565b60405180910390fd5b600c60008273ffffffffffffffffffffffffffffffffffffffff1673ffffffffffffffffffffffffffffffffffffffff1681526020019081526020016000206000815480929190612049906145cd565b91905055891461208e576040517f08c379a00000000000000000000000000000000000000000000000000000000081526004016120859061411b565b60405180910390fd5b874211156120d1576040517f08c379a00000000000000000000000000000000000000000000000000000000081526004016120c8906142fb565b60405180910390fd5b6120db818b612bf3565b50505050505050505050565b6120ef6123d9565b73ffffffffffffffffffffffffffffffffffffffff1661210d611149565b73ffffffffffffffffffffffffffffffffffffffff1614612163576040517f08c379a000000000000000000000000000000000000000000000000000000000815260040161215a906141db565b60405180910390fd5b600860149054906101000a900460ff16156121b3576040517f08c379a00000000000000000000000000000000000000000000000000000000081526004016121aa9061425b565b60405180910390fd5b80600860006101000a81548173ffffffffffffffffffffffffffffffffffffffff021916908373ffffffffffffffffffffffffffffffffffffffff16021790555050565b6000600160008473ffffffffffffffffffffffffffffffffffffffff1673ffffffffffffffffffffffffffffffffffffffff16815260200190815260200160002060008373ffffffffffffffffffffffffffffffffffffffff1673ffffffffffffffffffffffffffffffffffffffff16815260200190815260200160002054905092915050565b6006818154811061228e57600080fd5b906000526020600020016000915054906101000a900473ffffffffffffffffffffffffffffffffffffffff1681565b7fe48329057bfd03d55e49b547132e39cffd9c1820ad7b9d4c5307691425d15adf81565b6122e96123d9565b73ffffffffffffffffffffffffffffffffffffffff16612307611149565b73ffffffffffffffffffffffffffffffffffffffff161461235d576040517f08c379a0000000000000000000000000000000000000000000000000000000008152600401612354906141db565b60405180910390fd5b600073ffffffffffffffffffffffffffffffffffffffff168173ffffffffffffffffffffffffffffffffffffffff1614156123cd576040517f08c379a00000000000000000000000000000000000000000000000000000000081526004016123c4906140bb565b60405180910390fd5b6123d681612d64565b50565b600033905090565b600073ffffffffffffffffffffffffffffffffffffffff168373ffffffffffffffffffffffffffffffffffffffff161415612451576040517f08c379a0000000000000000000000000000000000000000000000000000000008152600401612448906142db565b60405180910390fd5b600073ffffffffffffffffffffffffffffffffffffffff168273ffffffffffffffffffffffffffffffffffffffff1614156124c1576040517f08c379a00000000000000000000000000000000000000000000000000000000081526004016124b8906140db565b60405180910390fd5b80600160008573ffffffffffffffffffffffffffffffffffffffff1673ffffffffffffffffffffffffffffffffffffffff16815260200190815260200160002060008473ffffffffffffffffffffffffffffffffffffffff1673ffffffffffffffffffffffffffffffffffffffff168152602001908152602001600020819055508173ffffffffffffffffffffffffffffffffffffffff168373ffffffffffffffffffffffffffffffffffffffff167f8c5be1e5ebec7d5bd14f71427d1e84f3dd0314c0f7b2291e5b200ac8c7c3b9258360405161259f919061435b565b60405180910390a3505050565b600073ffffffffffffffffffffffffffffffffffffffff168373ffffffffffffffffffffffffffffffffffffffff16141561261c576040517f08c379a00000000000000000000000000000000000000000000000000000000081526004016126139061427b565b60405180910390fd5b600073ffffffffffffffffffffffffffffffffffffffff168273ffffffffffffffffffffffffffffffffffffffff16141561268c576040517f08c379a00000000000000000000000000000000000000000000000000000000081526004016126839061407b565b60405180910390fd5b612697838383613017565b60008060008573ffffffffffffffffffffffffffffffffffffffff1673ffffffffffffffffffffffffffffffffffffffff1681526020019081526020016000205490508181101561271d576040517f08c379a00000000000000000000000000000000000000000000000000000000081526004016127149061413b565b60405180910390fd5b8181612729919061449f565b6000808673ffffffffffffffffffffffffffffffffffffffff1673ffffffffffffffffffffffffffffffffffffffff16815260200190815260200160002081905550816000808573ffffffffffffffffffffffffffffffffffffffff1673ffffffffffffffffffffffffffffffffffffffff16815260200190815260200160002060008282546127b991906143e1565b925050819055508273ffffffffffffffffffffffffffffffffffffffff168473ffffffffffffffffffffffffffffffffffffffff167fddf252ad1be2c89b69c2b068fc378daa952ba7f163c4a11628f55a4df523b3ef8460405161281d919061435b565b60405180910390a361283084848461301c565b50505050565b600073ffffffffffffffffffffffffffffffffffffffff168273ffffffffffffffffffffffffffffffffffffffff1614156128a6576040517f08c379a000000000000000000000000000000000000000000000000000000000815260040161289d9061433b565b60405180910390fd5b6128b260008383613017565b80600260008282546128c491906143e1565b92505081905550806000808473ffffffffffffffffffffffffffffffffffffffff1673ffffffffffffffffffffffffffffffffffffffff168152602001908152602001600020600082825461291991906143e1565b925050819055508173ffffffffffffffffffffffffffffffffffffffff16600073ffffffffffffffffffffffffffffffffffffffff167fddf252ad1be2c89b69c2b068fc378daa952ba7f163c4a11628f55a4df523b3ef8360405161297e919061435b565b60405180910390a36129926000838361301c565b5050565b8173ffffffffffffffffffffffffffffffffffffffff168373ffffffffffffffffffffffffffffffffffffffff16141580156129d25750600081115b15612bee57600073ffffffffffffffffffffffffffffffffffffffff168373ffffffffffffffffffffffffffffffffffffffff1614612ae2576000600b60008573ffffffffffffffffffffffffffffffffffffffff1673ffffffffffffffffffffffffffffffffffffffff1681526020019081526020016000205490506000808211612a5f576000612ac0565b600a60008673ffffffffffffffffffffffffffffffffffffffff1673ffffffffffffffffffffffffffffffffffffffff1681526020019081526020016000206000600184612aad919061449f565b8152602001908152602001600020600101545b905060008382612ad0919061449f565b9050612ade86848484613021565b5050505b600073ffffffffffffffffffffffffffffffffffffffff168273ffffffffffffffffffffffffffffffffffffffff1614612bed576000600b60008473ffffffffffffffffffffffffffffffffffffffff1673ffffffffffffffffffffffffffffffffffffffff1681526020019081526020016000205490506000808211612b6a576000612bcb565b600a60008573ffffffffffffffffffffffffffffffffffffffff1673ffffffffffffffffffffffffffffffffffffffff1681526020019081526020016000206000600184612bb8919061449f565b8152602001908152602001600020600101545b905060008382612bdb91906143e1565b9050612be985848484613021565b5050505b5b505050565b6000600960008473ffffffffffffffffffffffffffffffffffffffff1673ffffffffffffffffffffffffffffffffffffffff16815260200190815260200160002060009054906101000a900473ffffffffffffffffffffffffffffffffffffffff1690506000612c6284610d10565b905082600960008673ffffffffffffffffffffffffffffffffffffffff1673ffffffffffffffffffffffffffffffffffffffff16815260200190815260200160002060006101000a81548173ffffffffffffffffffffffffffffffffffffffff021916908373ffffffffffffffffffffffffffffffffffffffff1602179055508273ffffffffffffffffffffffffffffffffffffffff168273ffffffffffffffffffffffffffffffffffffffff168573ffffffffffffffffffffffffffffffffffffffff167f3134e8a2e6d97e929a7e54011ea5485d7d196dd5f0ba4d4ef95803e8e3fc257f60405160405180910390a4612d5e828483612996565b50505050565b6000600560009054906101000a900473ffffffffffffffffffffffffffffffffffffffff16905081600560006101000a81548173ffffffffffffffffffffffffffffffffffffffff021916908373ffffffffffffffffffffffffffffffffffffffff1602179055508173ffffffffffffffffffffffffffffffffffffffff168173ffffffffffffffffffffffffffffffffffffffff167f8be0079c531659141344cd1fd0a4f28419497f9722a3daafe3b4186f6b6457e060405160405180910390a35050565b600073ffffffffffffffffffffffffffffffffffffffff168273ffffffffffffffffffffffffffffffffffffffff161415612e9a576040517f08c379a0000000000000000000000000000000000000000000000000000000008152600401612e919061423b565b60405180910390fd5b612ea682600083613017565b60008060008473ffffffffffffffffffffffffffffffffffffffff1673ffffffffffffffffffffffffffffffffffffffff16815260200190815260200160002054905081811015612f2c576040517f08c379a0000000000000000000000000000000000000000000000000000000008152600401612f239061409b565b60405180910390fd5b8181612f38919061449f565b6000808573ffffffffffffffffffffffffffffffffffffffff1673ffffffffffffffffffffffffffffffffffffffff168152602001908152602001600020819055508160026000828254612f8c919061449f565b92505081905550600073ffffffffffffffffffffffffffffffffffffffff168373ffffffffffffffffffffffffffffffffffffffff167fddf252ad1be2c89b69c2b068fc378daa952ba7f163c4a11628f55a4df523b3ef84604051612ff1919061435b565b60405180910390a36130058360008461301c565b505050565b6000804690508091505090565b505050565b505050565b60006130454260405180606001604052806038815260200161477360389139613247565b90506000841180156130b5575080600a60008773ffffffffffffffffffffffffffffffffffffffff1673ffffffffffffffffffffffffffffffffffffffff16815260200190815260200160002060006001876130a1919061449f565b815260200190815260200160002060000154145b156131235781600a60008773ffffffffffffffffffffffffffffffffffffffff1673ffffffffffffffffffffffffffffffffffffffff1681526020019081526020016000206000600187613109919061449f565b8152602001908152602001600020600101819055506131f0565b604051806040016040528082815260200183815250600a60008773ffffffffffffffffffffffffffffffffffffffff1673ffffffffffffffffffffffffffffffffffffffff168152602001908152602001600020600086815260200190815260200160002060008201518160000155602082015181600101559050506001846131ac91906143e1565b600b60008773ffffffffffffffffffffffffffffffffffffffff1673ffffffffffffffffffffffffffffffffffffffff168152602001908152602001600020819055505b8473ffffffffffffffffffffffffffffffffffffffff167fdec2bacdd2f05b59de34da9b523dff8be42e5e38e818c82fdb0bae774387a7248484604051613238929190614376565b60405180910390a25050505050565b60007fffffffffffffffffffffffffffffffffffffffffffffffffffffffffffffffff831082906132ae576040517f08c379a00000000000000000000000000000000000000000000000000000000081526004016132a59190614059565b60405180910390fd5b5082905092915050565b6000813590506132c7816146e8565b92915050565b6000815190506132dc816146ff565b92915050565b6000813590506132f181614716565b92915050565b6000813590506133068161472d565b92915050565b60008135905061331b81614744565b92915050565b60008151905061333081614744565b92915050565b6000813590506133458161475b565b92915050565b60006020828403121561335d57600080fd5b600061336b848285016132b8565b91505092915050565b6000806040838503121561338757600080fd5b6000613395858286016132b8565b92505060206133a6858286016132b8565b9150509250929050565b6000806000606084860312156133c557600080fd5b60006133d3868287016132b8565b93505060206133e4868287016132b8565b92505060406133f58682870161330c565b9150509250925092565b6000806040838503121561341257600080fd5b6000613420858286016132b8565b92505060206134318582860161330c565b9150509250929050565b60008060008060008060c0878903121561345457600080fd5b600061346289828a016132b8565b965050602061347389828a0161330c565b955050604061348489828a0161330c565b945050606061349589828a01613336565b93505060806134a689828a016132e2565b92505060a06134b789828a016132e2565b9150509295509295509295565b6000602082840312156134d657600080fd5b60006134e4848285016132cd565b91505092915050565b6000602082840312156134ff57600080fd5b600061350d848285016132f7565b91505092915050565b60006020828403121561352857600080fd5b60006135368482850161330c565b91505092915050565b60006020828403121561355157600080fd5b600061355f84828501613321565b91505092915050565b613571816144d3565b82525050565b613580816144e5565b82525050565b61358f816144f1565b82525050565b6135a66135a1826144f1565b614640565b82525050565b6135b581614544565b82525050565b60006135c6826143ba565b6135d081856143c5565b93506135e0818560208601614568565b6135e9816146d7565b840191505092915050565b60006136016023836143c5565b91507f45524332303a207472616e7366657220746f20746865207a65726f206164647260008301527f65737300000000000000000000000000000000000000000000000000000000006020830152604082019050919050565b60006136676022836143c5565b91507f45524332303a206275726e20616d6f756e7420657863656564732062616c616e60008301527f63650000000000000000000000000000000000000000000000000000000000006020830152604082019050919050565b60006136cd6026836143c5565b91507f4f776e61626c653a206e6577206f776e657220697320746865207a65726f206160008301527f64647265737300000000000000000000000000000000000000000000000000006020830152604082019050919050565b60006137336022836143c5565b91507f45524332303a20617070726f766520746f20746865207a65726f20616464726560008301527f73730000000000000000000000000000000000000000000000000000000000006020830152604082019050919050565b6000613799602a836143c5565b91507f4f70657261626c653a206e6577206f70657261746f7220697320746865207a6560008301527f726f2061646472657373000000000000000000000000000000000000000000006020830152604082019050919050565b60006137ff6002836143d6565b91507f19010000000000000000000000000000000000000000000000000000000000006000830152600282019050919050565b600061383f6022836143c5565b91507f534f554c3a3a64656c656761746542795369673a20696e76616c6964206e6f6e60008301527f63650000000000000000000000000000000000000000000000000000000000006020830152604082019050919050565b60006138a56026836143c5565b91507f45524332303a207472616e7366657220616d6f756e742065786365656473206260008301527f616c616e636500000000000000000000000000000000000000000000000000006020830152604082019050919050565b600061390b6024836143c5565b91507f4f70657261626c653a2061646472657373206973206e6f7420616e206f70657260008301527f61746f72000000000000000000000000000000000000000000000000000000006020830152604082019050919050565b60006139716026836143c5565b91507f534f554c3a3a64656c656761746542795369673a20696e76616c69642073696760008301527f6e617475726500000000000000000000000000000000000000000000000000006020830152604082019050919050565b60006139d76028836143c5565b91507f45524332303a207472616e7366657220616d6f756e742065786365656473206160008301527f6c6c6f77616e63650000000000000000000000000000000000000000000000006020830152604082019050919050565b6000613a3d6027836143c5565b91507f534f554c3a3a6765745072696f72566f7465733a206e6f74207965742064657460008301527f65726d696e6564000000000000000000000000000000000000000000000000006020830152604082019050919050565b6000613aa36020836143c5565b91507f4f776e61626c653a2063616c6c6572206973206e6f7420746865206f776e65726000830152602082019050919050565b6000613ae36015836143c5565b91507f6d7573742062652061206e6577206164647265737300000000000000000000006000830152602082019050919050565b6000613b236028836143c5565b91507f4f70657261626c653a206164647265737320697320616c726561647920616e2060008301527f6f70657261746f720000000000000000000000000000000000000000000000006020830152604082019050919050565b6000613b896021836143c5565b91507f45524332303a206275726e2066726f6d20746865207a65726f2061646472657360008301527f73000000000000000000000000000000000000000000000000000000000000006020830152604082019050919050565b6000613bef601c836143c5565b91507f74686520636972636c652068617320616c726561647920626567756e000000006000830152602082019050919050565b6000613c2f6025836143c5565b91507f45524332303a207472616e736665722066726f6d20746865207a65726f20616460008301527f64726573730000000000000000000000000000000000000000000000000000006020830152604082019050919050565b6000613c956023836143c5565b91507f4f70657261746f723a2063616c6c6572206973206e6f7420616e206f7065726160008301527f746f7200000000000000000000000000000000000000000000000000000000006020830152604082019050919050565b6000613cfb601c836143c5565b91507f74686520636972636c6520686173206e6f742079657420626567756e000000006000830152602082019050919050565b6000613d3b6024836143c5565b91507f45524332303a20617070726f76652066726f6d20746865207a65726f2061646460008301527f72657373000000000000000000000000000000000000000000000000000000006020830152604082019050919050565b6000613da16026836143c5565b91507f534f554c3a3a64656c656761746542795369673a207369676e6174757265206560008301527f78706972656400000000000000000000000000000000000000000000000000006020830152604082019050919050565b6000613e076025836143c5565b91507f45524332303a2064656372656173656420616c6c6f77616e63652062656c6f7760008301527f207a65726f0000000000000000000000000000000000000000000000000000006020830152604082019050919050565b6000613e6d601f836143c5565b91507f45524332303a206d696e7420746f20746865207a65726f2061646472657373006000830152602082019050919050565b613ea98161452d565b82525050565b613eb881614537565b82525050565b6000613ec9826137f2565b9150613ed58285613595565b602082019150613ee58284613595565b6020820191508190509392505050565b6000602082019050613f0a6000830184613568565b92915050565b6000604082019050613f256000830185613568565b613f326020830184613ea0565b9392505050565b6000602082019050613f4e6000830184613577565b92915050565b6000602082019050613f696000830184613586565b92915050565b6000608082019050613f846000830187613586565b613f916020830186613568565b613f9e6040830185613ea0565b613fab6060830184613ea0565b95945050505050565b6000608082019050613fc96000830187613586565b613fd66020830186613586565b613fe36040830185613ea0565b613ff06060830184613568565b95945050505050565b600060808201905061400e6000830187613586565b61401b6020830186613eaf565b6140286040830185613586565b6140356060830184613586565b95945050505050565b600060208201905061405360008301846135ac565b92915050565b6000602082019050818103600083015261407381846135bb565b905092915050565b60006020820190508181036000830152614094816135f4565b9050919050565b600060208201905081810360008301526140b48161365a565b9050919050565b600060208201905081810360008301526140d4816136c0565b9050919050565b600060208201905081810360008301526140f481613726565b9050919050565b600060208201905081810360008301526141148161378c565b9050919050565b6000602082019050818103600083015261413481613832565b9050919050565b6000602082019050818103600083015261415481613898565b9050919050565b60006020820190508181036000830152614174816138fe565b9050919050565b6000602082019050818103600083015261419481613964565b9050919050565b600060208201905081810360008301526141b4816139ca565b9050919050565b600060208201905081810360008301526141d481613a30565b9050919050565b600060208201905081810360008301526141f481613a96565b9050919050565b6000602082019050818103600083015261421481613ad6565b9050919050565b6000602082019050818103600083015261423481613b16565b9050919050565b6000602082019050818103600083015261425481613b7c565b9050919050565b6000602082019050818103600083015261427481613be2565b9050919050565b6000602082019050818103600083015261429481613c22565b9050919050565b600060208201905081810360008301526142b481613c88565b9050919050565b600060208201905081810360008301526142d481613cee565b9050919050565b600060208201905081810360008301526142f481613d2e565b9050919050565b6000602082019050818103600083015261431481613d94565b9050919050565b6000602082019050818103600083015261433481613dfa565b9050919050565b6000602082019050818103600083015261435481613e60565b9050919050565b60006020820190506143706000830184613ea0565b92915050565b600060408201905061438b6000830185613ea0565b6143986020830184613ea0565b9392505050565b60006020820190506143b46000830184613eaf565b92915050565b600081519050919050565b600082825260208201905092915050565b600081905092915050565b60006143ec8261452d565b91506143f78361452d565b9250827fffffffffffffffffffffffffffffffffffffffffffffffffffffffffffffffff0382111561442c5761442b61464a565b5b828201905092915050565b600061444282614537565b915061444d83614537565b92508260ff038211156144635761446261464a565b5b828201905092915050565b60006144798261452d565b91506144848361452d565b92508261449457614493614679565b5b828204905092915050565b60006144aa8261452d565b91506144b58361452d565b9250828210156144c8576144c761464a565b5b828203905092915050565b60006144de8261450d565b9050919050565b60008115159050919050565b6000819050919050565b6000614506826144d3565b9050919050565b600073ffffffffffffffffffffffffffffffffffffffff82169050919050565b6000819050919050565b600060ff82169050919050565b600061454f82614556565b9050919050565b60006145618261450d565b9050919050565b60005b8381101561458657808201518184015260208101905061456b565b83811115614595576000848401525b50505050565b600060028204905060018216806145b357607f821691505b602082108114156145c7576145c66146a8565b5b50919050565b60006145d88261452d565b91507fffffffffffffffffffffffffffffffffffffffffffffffffffffffffffffffff82141561460b5761460a61464a565b5b600182019050919050565b600061462182614537565b915060ff8214156146355761463461464a565b5b600182019050919050565b6000819050919050565b7f4e487b7100000000000000000000000000000000000000000000000000000000600052601160045260246000fd5b7f4e487b7100000000000000000000000000000000000000000000000000000000600052601260045260246000fd5b7f4e487b7100000000000000000000000000000000000000000000000000000000600052602260045260246000fd5b6000601f19601f8301169050919050565b6146f1816144d3565b81146146fc57600080fd5b50565b614708816144e5565b811461471357600080fd5b50565b61471f816144f1565b811461472a57600080fd5b50565b614736816144fb565b811461474157600080fd5b50565b61474d8161452d565b811461475857600080fd5b50565b61476481614537565b811461476f57600080fd5b5056fe534f554c3a3a5f7772697465436865636b706f696e743a20626c6f636b2074696d657374616d702065786365656473203235362062697473a26469706673582212200bdfdb5a0212fbce1f9a5fe7e9f3df8f25d3bab07da5e69eca760e6eeb9754ec64736f6c63430008000033",
  "immutableReferences": {},
  "source": "// SPDX-License-Identifier: MIT\n\npragma solidity ^0.8.0;\n\nimport './SoulPower.sol';\nimport './libraries/Operable.sol';\n\n// SeanceCircle with Governance.\ncontract SeanceCircle is ERC20('SeanceCircle', 'SEANCE'), Ownable, Operable {\n    /// @dev Creates `_amount` token to `_to`. Must only be called by the owner (SoulSummoner).\n    function mint(address _to, uint256 _amount) public onlyOperator {\n        require(isInitialized, 'the circle has not yet begun');\n        _mint(_to, _amount);\n        _moveDelegates(address(0), _delegates[_to], _amount);\n    }\n\n    function burn(address _from ,uint256 _amount) public onlyOperator {\n        _burn(_from, _amount);\n        _moveDelegates(_delegates[_from], address(0), _amount);\n    }\n\n    SoulPower public soul;\n    bool isInitialized;\n\n    function initialize(SoulPower _soul) external onlyOwner {\n        require(!isInitialized, 'the circle has already begun');\n        soul = _soul;\n    }\n\n    // safe soul transfer function, just in case if rounding error causes pool to not have enough SOUL.\n    function safeSoulTransfer(address _to, uint256 _amount) public onlyOperator {\n        uint256 soulBal = soul.balanceOf(address(this));\n        if (_amount > soulBal) {\n            soul.transfer(_to, soulBal);\n        } else {\n            soul.transfer(_to, _amount);\n        }\n    }\n\n    // record of each accounts delegate\n    mapping (address => address) internal _delegates;\n\n    // checkpoint for marking number of votes from a given block timestamp\n    struct Checkpoint {\n        uint256 fromTime;\n        uint256 votes;\n    }\n\n    // record of votes checkpoints for each account, by index\n    mapping (address => mapping (uint256 => Checkpoint)) public checkpoints;\n\n    // number of checkpoints for each account\n    mapping (address => uint256) public numCheckpoints;\n\n    // EIP-712 typehash for the contract's domain\n    bytes32 public constant DOMAIN_TYPEHASH = keccak256(\"EIP712Domain(string name,uint256 chainId,address verifyingContract)\");\n\n    // EIP-712 typehash for the delegation struct used by the contract\n    bytes32 public constant DELEGATION_TYPEHASH = keccak256(\"Delegation(address delegatee,uint256 nonce,uint256 expiry)\");\n\n    // record of states for signing / validating signatures\n    mapping (address => uint) public nonces;\n\n    // emitted when an account changes its delegate\n    event DelegateChanged(address indexed delegator, address indexed fromDelegate, address indexed toDelegate);\n\n    // emitted when a delegate account's vote balance changes\n    event DelegateVotesChanged(address indexed delegate, uint previousBalance, uint newBalance);\n\n    /**\n     * @dev Delegate votes from `msg.sender` to `delegatee`\n     * @param delegator The address to get delegatee for\n     */\n    function delegates(address delegator)\n        external\n        view\n        returns (address)\n    {\n        return _delegates[delegator];\n    }\n\n   /**\n    * @dev Delegate votes from `msg.sender` to `delegatee`\n    * @param delegatee The address to delegate votes to\n    */\n    function delegate(address delegatee) external {\n        return _delegate(msg.sender, delegatee);\n    }\n\n    /**\n     * @dev Delegates votes from signatory to `delegatee`\n     * @param delegatee The address to delegate votes to\n     * @param nonce The contract state required to match the signature\n     * @param expiry The time at which to expire the signature\n     * @param v The recovery byte of the signature\n     * @param r Half of the ECDSA signature pair\n     * @param s Half of the ECDSA signature pair\n     */\n    function delegateBySig(\n        address delegatee,\n        uint nonce,\n        uint expiry,\n        uint8 v,\n        bytes32 r,\n        bytes32 s\n    )\n        external\n    {\n        bytes32 domainSeparator = keccak256(\n            abi.encode(\n                DOMAIN_TYPEHASH,\n                keccak256(bytes(name())),\n                getChainId(),\n                address(this)\n            )\n        );\n\n        bytes32 structHash = keccak256(\n            abi.encode(\n                DELEGATION_TYPEHASH,\n                delegatee,\n                nonce,\n                expiry\n            )\n        );\n\n        bytes32 digest = keccak256(\n            abi.encodePacked(\n                \"\\x19\\x01\",\n                domainSeparator,\n                structHash\n            )\n        );\n\n        address signatory = ecrecover(digest, v, r, s);\n        require(signatory != address(0), \"SOUL::delegateBySig: invalid signature\");\n        require(nonce == nonces[signatory]++, \"SOUL::delegateBySig: invalid nonce\");\n        require(block.timestamp <= expiry, \"SOUL::delegateBySig: signature expired\");\n        return _delegate(signatory, delegatee);\n    }\n\n    /**\n     * @dev Gets the current votes balance for `account`\n     * @param account The address to get votes balance\n     * @return The number of current votes for `account`\n     */\n    function getCurrentVotes(address account)\n        external\n        view\n        returns (uint256)\n    {\n        uint256 nCheckpoints = numCheckpoints[account];\n        return nCheckpoints > 0 ? checkpoints[account][nCheckpoints - 1].votes : 0;\n    }\n\n    /**\n     * @dev Determine the prior number of votes for an account as of a block timestamp\n     * @dev Block timestamp must be a finalized block or else this function will revert to prevent misinformation.\n     * @param account The address of the account to check\n     * @param blockTimestamp The block timestamp to get the vote balance at\n     * @return The number of votes the account had as of the given block timestamp\n     */\n    function getPriorVotes(address account, uint blockTimestamp) external view returns (uint256) {\n        require(blockTimestamp < block.timestamp, \"SOUL::getPriorVotes: not yet determined\");\n\n        uint256 nCheckpoints = numCheckpoints[account];\n        if (nCheckpoints == 0) {\n            return 0;\n        }\n\n        // First check most recent balance\n        if (checkpoints[account][nCheckpoints - 1].fromTime <= blockTimestamp) {\n            return checkpoints[account][nCheckpoints - 1].votes;\n        }\n\n        // Next check implicit zero balance\n        if (checkpoints[account][0].fromTime > blockTimestamp) {\n            return 0;\n        }\n\n        uint256 lower = 0;\n        uint256 upper = nCheckpoints - 1;\n        while (upper > lower) {\n            uint256 center = upper - (upper - lower) / 2; // ceil, avoiding overflow\n            Checkpoint memory cp = checkpoints[account][center];\n            if (cp.fromTime == blockTimestamp) {\n                return cp.votes;\n            } else if (cp.fromTime < blockTimestamp) {\n                lower = center;\n            } else {\n                upper = center - 1;\n            }\n        }\n        return checkpoints[account][lower].votes;\n    }\n\n    function _delegate(address delegator, address delegatee) internal {\n        address currentDelegate = _delegates[delegator];\n        uint256 delegatorBalance = balanceOf(delegator); // balance of underlying SOUL (not scaled);\n        _delegates[delegator] = delegatee;\n\n        emit DelegateChanged(delegator, currentDelegate, delegatee);\n\n        _moveDelegates(currentDelegate, delegatee, delegatorBalance);\n    }\n\n    function _moveDelegates(address srcRep, address dstRep, uint256 amount) internal {\n        if (srcRep != dstRep && amount > 0) {\n            if (srcRep != address(0)) {\n                // decrease old representative\n                uint256 srcRepNum = numCheckpoints[srcRep];\n                uint256 srcRepOld = srcRepNum > 0 ? checkpoints[srcRep][srcRepNum - 1].votes : 0;\n                uint256 srcRepNew = srcRepOld - amount;\n                _writeCheckpoint(srcRep, srcRepNum, srcRepOld, srcRepNew);\n            }\n\n            if (dstRep != address(0)) {\n                // increase new representative\n                uint256 dstRepNum = numCheckpoints[dstRep];\n                uint256 dstRepOld = dstRepNum > 0 ? checkpoints[dstRep][dstRepNum - 1].votes : 0;\n                uint256 dstRepNew = dstRepOld + amount;\n                _writeCheckpoint(dstRep, dstRepNum, dstRepOld, dstRepNew);\n            }\n        }\n    }\n\n    function _writeCheckpoint(\n        address delegatee,\n        uint256 nCheckpoints,\n        uint256 oldVotes,\n        uint256 newVotes\n    )\n        internal\n    {\n        uint256 blockTimestamp = safe256(block.timestamp, \"SOUL::_writeCheckpoint: block timestamp exceeds 256 bits\");\n\n        if (nCheckpoints > 0 && checkpoints[delegatee][nCheckpoints - 1].fromTime == blockTimestamp) {\n            checkpoints[delegatee][nCheckpoints - 1].votes = newVotes;\n        } else {\n            checkpoints[delegatee][nCheckpoints] = Checkpoint(blockTimestamp, newVotes);\n            numCheckpoints[delegatee] = nCheckpoints + 1;\n        }\n\n        emit DelegateVotesChanged(delegatee, oldVotes, newVotes);\n    }\n\n    function safe256(uint n, string memory errorMessage) internal pure returns (uint256) {\n        require(n < type(uint256).max, errorMessage);\n        return uint256(n);\n    }\n\n    function getChainId() internal view returns (uint) {\n        uint256 chainId;\n        assembly { chainId := chainid() }\n        return chainId;\n    }\n\n    function newSoul(SoulPower _soul) external onlyOperator {\n        require(soul != _soul, 'must be a new address');\n        soul = _soul;\n    }\n\n}\n",
  "sourcePath": "/Users/unico/Documents/GitHub/soulswap/soulswap-farms/contracts/SeanceCircle.sol",
  "compiler": {
    "name": "solc",
    "version": "0.8.0+commit.c7dfd78e.Emscripten.clang"
  },
  "schemaVersion": "3.4.1",
  "updatedAt": "2021-07-29T15:14:17.239Z",
  "networkType": "ethereum",
  "devdoc": {
    "kind": "dev",
    "methods": {
      "addOperator(address)": {
        "details": "Adds address as operator of the contract. Can only be called by an operator."
      },
      "allowance(address,address)": {
        "details": "See {IERC20-allowance}."
      },
      "approve(address,uint256)": {
        "details": "See {IERC20-approve}. Requirements: - `spender` cannot be the zero address."
      },
      "balanceOf(address)": {
        "details": "See {IERC20-balanceOf}."
      },
      "decimals()": {
        "details": "Returns the number of decimals used to get its user representation. For example, if `decimals` equals `2`, a balance of `505` tokens should be displayed to a user as `5,05` (`505 / 10 ** 2`). Tokens usually opt for a value of 18, imitating the relationship between Ether and Wei. This is the value {ERC20} uses, unless this function is overridden; NOTE: This information is only used for _display_ purposes: it in no way affects any of the arithmetic of the contract, including {IERC20-balanceOf} and {IERC20-transfer}."
      },
      "decreaseAllowance(address,uint256)": {
        "details": "Atomically decreases the allowance granted to `spender` by the caller. This is an alternative to {approve} that can be used as a mitigation for problems described in {IERC20-approve}. Emits an {Approval} event indicating the updated allowance. Requirements: - `spender` cannot be the zero address. - `spender` must have allowance for the caller of at least `subtractedValue`."
      },
      "delegate(address)": {
        "details": "Delegate votes from `msg.sender` to `delegatee`",
        "params": {
          "delegatee": "The address to delegate votes to"
        }
      },
      "delegateBySig(address,uint256,uint256,uint8,bytes32,bytes32)": {
        "details": "Delegates votes from signatory to `delegatee`",
        "params": {
          "delegatee": "The address to delegate votes to",
          "expiry": "The time at which to expire the signature",
          "nonce": "The contract state required to match the signature",
          "r": "Half of the ECDSA signature pair",
          "s": "Half of the ECDSA signature pair",
          "v": "The recovery byte of the signature"
        }
      },
      "delegates(address)": {
        "details": "Delegate votes from `msg.sender` to `delegatee`",
        "params": {
          "delegator": "The address to get delegatee for"
        }
      },
      "getCurrentVotes(address)": {
        "details": "Gets the current votes balance for `account`",
        "params": {
          "account": "The address to get votes balance"
        },
        "returns": {
          "_0": "The number of current votes for `account`"
        }
      },
      "getPriorVotes(address,uint256)": {
        "details": "Determine the prior number of votes for an account as of a block timestampBlock timestamp must be a finalized block or else this function will revert to prevent misinformation.",
        "params": {
          "account": "The address of the account to check",
          "blockTimestamp": "The block timestamp to get the vote balance at"
        },
        "returns": {
          "_0": "The number of votes the account had as of the given block timestamp"
        }
      },
      "increaseAllowance(address,uint256)": {
        "details": "Atomically increases the allowance granted to `spender` by the caller. This is an alternative to {approve} that can be used as a mitigation for problems described in {IERC20-approve}. Emits an {Approval} event indicating the updated allowance. Requirements: - `spender` cannot be the zero address."
      },
      "mint(address,uint256)": {
        "details": "Creates `_amount` token to `_to`. Must only be called by the owner (SoulSummoner)."
      },
      "name()": {
        "details": "Returns the name of the token."
      },
      "owner()": {
        "details": "Returns the address of the current owner."
      },
      "removeOperator(address)": {
        "details": "Leaves the contract without operator. It will not be possible to call `onlyOperator` functions anymore. Can only be called by an operator."
      },
      "renounceOwnership()": {
        "details": "Leaves the contract without owner. It will not be possible to call `onlyOwner` functions anymore. Can only be called by the current owner. NOTE: Renouncing ownership will leave the contract without an owner, thereby removing any functionality that is only available to the owner."
      },
      "symbol()": {
        "details": "Returns the symbol of the token, usually a shorter version of the name."
      },
      "totalSupply()": {
        "details": "See {IERC20-totalSupply}."
      },
      "transfer(address,uint256)": {
        "details": "See {IERC20-transfer}. Requirements: - `recipient` cannot be the zero address. - the caller must have a balance of at least `amount`."
      },
      "transferFrom(address,address,uint256)": {
        "details": "See {IERC20-transferFrom}. Emits an {Approval} event indicating the updated allowance. This is not required by the EIP. See the note at the beginning of {ERC20}. Requirements: - `sender` and `recipient` cannot be the zero address. - `sender` must have a balance of at least `amount`. - the caller must have allowance for ``sender``'s tokens of at least `amount`."
      },
      "transferOwnership(address)": {
        "details": "Transfers ownership of the contract to a new account (`newOwner`). Can only be called by the current owner."
      }
    },
    "version": 1
  },
  "userdoc": {
    "kind": "user",
    "methods": {},
    "version": 1
  }
}