{
  "contractName": "SeanceCircle",
  "abi": [
    {
      "inputs": [
        {
          "internalType": "contract SoulToken",
          "name": "_soul",
          "type": "address"
        }
      ],
      "stateMutability": "nonpayable",
      "type": "constructor"
    },
    {
      "anonymous": false,
      "inputs": [
        {
          "indexed": true,
          "internalType": "address",
          "name": "owner",
          "type": "address"
        },
        {
          "indexed": true,
          "internalType": "address",
          "name": "spender",
          "type": "address"
        },
        {
          "indexed": false,
          "internalType": "uint256",
          "name": "value",
          "type": "uint256"
        }
      ],
      "name": "Approval",
      "type": "event"
    },
    {
      "anonymous": false,
      "inputs": [
        {
          "indexed": true,
          "internalType": "address",
          "name": "delegator",
          "type": "address"
        },
        {
          "indexed": true,
          "internalType": "address",
          "name": "fromDelegate",
          "type": "address"
        },
        {
          "indexed": true,
          "internalType": "address",
          "name": "toDelegate",
          "type": "address"
        }
      ],
      "name": "DelegateChanged",
      "type": "event"
    },
    {
      "anonymous": false,
      "inputs": [
        {
          "indexed": true,
          "internalType": "address",
          "name": "delegate",
          "type": "address"
        },
        {
          "indexed": false,
          "internalType": "uint256",
          "name": "previousBalance",
          "type": "uint256"
        },
        {
          "indexed": false,
          "internalType": "uint256",
          "name": "newBalance",
          "type": "uint256"
        }
      ],
      "name": "DelegateVotesChanged",
      "type": "event"
    },
    {
      "anonymous": false,
      "inputs": [
        {
          "indexed": true,
          "internalType": "address",
          "name": "previousOwner",
          "type": "address"
        },
        {
          "indexed": true,
          "internalType": "address",
          "name": "newOwner",
          "type": "address"
        }
      ],
      "name": "OwnershipTransferred",
      "type": "event"
    },
    {
      "anonymous": false,
      "inputs": [
        {
          "indexed": true,
          "internalType": "address",
          "name": "from",
          "type": "address"
        },
        {
          "indexed": true,
          "internalType": "address",
          "name": "to",
          "type": "address"
        },
        {
          "indexed": false,
          "internalType": "uint256",
          "name": "value",
          "type": "uint256"
        }
      ],
      "name": "Transfer",
      "type": "event"
    },
    {
      "inputs": [],
      "name": "DELEGATION_TYPEHASH",
      "outputs": [
        {
          "internalType": "bytes32",
          "name": "",
          "type": "bytes32"
        }
      ],
      "stateMutability": "view",
      "type": "function",
      "constant": true
    },
    {
      "inputs": [],
      "name": "DOMAIN_TYPEHASH",
      "outputs": [
        {
          "internalType": "bytes32",
          "name": "",
          "type": "bytes32"
        }
      ],
      "stateMutability": "view",
      "type": "function",
      "constant": true
    },
    {
      "inputs": [
        {
          "internalType": "address",
          "name": "owner",
          "type": "address"
        },
        {
          "internalType": "address",
          "name": "spender",
          "type": "address"
        }
      ],
      "name": "allowance",
      "outputs": [
        {
          "internalType": "uint256",
          "name": "",
          "type": "uint256"
        }
      ],
      "stateMutability": "view",
      "type": "function",
      "constant": true
    },
    {
      "inputs": [
        {
          "internalType": "address",
          "name": "spender",
          "type": "address"
        },
        {
          "internalType": "uint256",
          "name": "amount",
          "type": "uint256"
        }
      ],
      "name": "approve",
      "outputs": [
        {
          "internalType": "bool",
          "name": "",
          "type": "bool"
        }
      ],
      "stateMutability": "nonpayable",
      "type": "function"
    },
    {
      "inputs": [
        {
          "internalType": "address",
          "name": "account",
          "type": "address"
        }
      ],
      "name": "balanceOf",
      "outputs": [
        {
          "internalType": "uint256",
          "name": "",
          "type": "uint256"
        }
      ],
      "stateMutability": "view",
      "type": "function",
      "constant": true
    },
    {
      "inputs": [
        {
          "internalType": "address",
          "name": "",
          "type": "address"
        },
        {
          "internalType": "uint256",
          "name": "",
          "type": "uint256"
        }
      ],
      "name": "checkpoints",
      "outputs": [
        {
          "internalType": "uint256",
          "name": "fromTime",
          "type": "uint256"
        },
        {
          "internalType": "uint256",
          "name": "votes",
          "type": "uint256"
        }
      ],
      "stateMutability": "view",
      "type": "function",
      "constant": true
    },
    {
      "inputs": [],
      "name": "decimals",
      "outputs": [
        {
          "internalType": "uint8",
          "name": "",
          "type": "uint8"
        }
      ],
      "stateMutability": "view",
      "type": "function",
      "constant": true
    },
    {
      "inputs": [
        {
          "internalType": "address",
          "name": "spender",
          "type": "address"
        },
        {
          "internalType": "uint256",
          "name": "subtractedValue",
          "type": "uint256"
        }
      ],
      "name": "decreaseAllowance",
      "outputs": [
        {
          "internalType": "bool",
          "name": "",
          "type": "bool"
        }
      ],
      "stateMutability": "nonpayable",
      "type": "function"
    },
    {
      "inputs": [
        {
          "internalType": "address",
          "name": "spender",
          "type": "address"
        },
        {
          "internalType": "uint256",
          "name": "addedValue",
          "type": "uint256"
        }
      ],
      "name": "increaseAllowance",
      "outputs": [
        {
          "internalType": "bool",
          "name": "",
          "type": "bool"
        }
      ],
      "stateMutability": "nonpayable",
      "type": "function"
    },
    {
      "inputs": [],
      "name": "name",
      "outputs": [
        {
          "internalType": "string",
          "name": "",
          "type": "string"
        }
      ],
      "stateMutability": "view",
      "type": "function",
      "constant": true
    },
    {
      "inputs": [
        {
          "internalType": "address",
          "name": "",
          "type": "address"
        }
      ],
      "name": "nonces",
      "outputs": [
        {
          "internalType": "uint256",
          "name": "",
          "type": "uint256"
        }
      ],
      "stateMutability": "view",
      "type": "function",
      "constant": true
    },
    {
      "inputs": [
        {
          "internalType": "address",
          "name": "",
          "type": "address"
        }
      ],
      "name": "numCheckpoints",
      "outputs": [
        {
          "internalType": "uint256",
          "name": "",
          "type": "uint256"
        }
      ],
      "stateMutability": "view",
      "type": "function",
      "constant": true
    },
    {
      "inputs": [],
      "name": "owner",
      "outputs": [
        {
          "internalType": "address",
          "name": "",
          "type": "address"
        }
      ],
      "stateMutability": "view",
      "type": "function",
      "constant": true
    },
    {
      "inputs": [],
      "name": "renounceOwnership",
      "outputs": [],
      "stateMutability": "nonpayable",
      "type": "function"
    },
    {
      "inputs": [],
      "name": "soul",
      "outputs": [
        {
          "internalType": "contract SoulToken",
          "name": "",
          "type": "address"
        }
      ],
      "stateMutability": "view",
      "type": "function",
      "constant": true
    },
    {
      "inputs": [],
      "name": "symbol",
      "outputs": [
        {
          "internalType": "string",
          "name": "",
          "type": "string"
        }
      ],
      "stateMutability": "view",
      "type": "function",
      "constant": true
    },
    {
      "inputs": [],
      "name": "totalSupply",
      "outputs": [
        {
          "internalType": "uint256",
          "name": "",
          "type": "uint256"
        }
      ],
      "stateMutability": "view",
      "type": "function",
      "constant": true
    },
    {
      "inputs": [
        {
          "internalType": "address",
          "name": "recipient",
          "type": "address"
        },
        {
          "internalType": "uint256",
          "name": "amount",
          "type": "uint256"
        }
      ],
      "name": "transfer",
      "outputs": [
        {
          "internalType": "bool",
          "name": "",
          "type": "bool"
        }
      ],
      "stateMutability": "nonpayable",
      "type": "function"
    },
    {
      "inputs": [
        {
          "internalType": "address",
          "name": "sender",
          "type": "address"
        },
        {
          "internalType": "address",
          "name": "recipient",
          "type": "address"
        },
        {
          "internalType": "uint256",
          "name": "amount",
          "type": "uint256"
        }
      ],
      "name": "transferFrom",
      "outputs": [
        {
          "internalType": "bool",
          "name": "",
          "type": "bool"
        }
      ],
      "stateMutability": "nonpayable",
      "type": "function"
    },
    {
      "inputs": [
        {
          "internalType": "address",
          "name": "newOwner",
          "type": "address"
        }
      ],
      "name": "transferOwnership",
      "outputs": [],
      "stateMutability": "nonpayable",
      "type": "function"
    },
    {
      "inputs": [
        {
          "internalType": "address",
          "name": "_to",
          "type": "address"
        },
        {
          "internalType": "uint256",
          "name": "_amount",
          "type": "uint256"
        }
      ],
      "name": "mint",
      "outputs": [],
      "stateMutability": "nonpayable",
      "type": "function"
    },
    {
      "inputs": [
        {
          "internalType": "address",
          "name": "_from",
          "type": "address"
        },
        {
          "internalType": "uint256",
          "name": "_amount",
          "type": "uint256"
        }
      ],
      "name": "burn",
      "outputs": [],
      "stateMutability": "nonpayable",
      "type": "function"
    },
    {
      "inputs": [
        {
          "internalType": "address",
          "name": "_to",
          "type": "address"
        },
        {
          "internalType": "uint256",
          "name": "_amount",
          "type": "uint256"
        }
      ],
      "name": "safeSoulTransfer",
      "outputs": [],
      "stateMutability": "nonpayable",
      "type": "function"
    },
    {
      "inputs": [
        {
          "internalType": "address",
          "name": "delegator",
          "type": "address"
        }
      ],
      "name": "delegates",
      "outputs": [
        {
          "internalType": "address",
          "name": "",
          "type": "address"
        }
      ],
      "stateMutability": "view",
      "type": "function",
      "constant": true
    },
    {
      "inputs": [
        {
          "internalType": "address",
          "name": "delegatee",
          "type": "address"
        }
      ],
      "name": "delegate",
      "outputs": [],
      "stateMutability": "nonpayable",
      "type": "function"
    },
    {
      "inputs": [
        {
          "internalType": "address",
          "name": "delegatee",
          "type": "address"
        },
        {
          "internalType": "uint256",
          "name": "nonce",
          "type": "uint256"
        },
        {
          "internalType": "uint256",
          "name": "expiry",
          "type": "uint256"
        },
        {
          "internalType": "uint8",
          "name": "v",
          "type": "uint8"
        },
        {
          "internalType": "bytes32",
          "name": "r",
          "type": "bytes32"
        },
        {
          "internalType": "bytes32",
          "name": "s",
          "type": "bytes32"
        }
      ],
      "name": "delegateBySig",
      "outputs": [],
      "stateMutability": "nonpayable",
      "type": "function"
    },
    {
      "inputs": [
        {
          "internalType": "address",
          "name": "account",
          "type": "address"
        }
      ],
      "name": "getCurrentVotes",
      "outputs": [
        {
          "internalType": "uint256",
          "name": "",
          "type": "uint256"
        }
      ],
      "stateMutability": "view",
      "type": "function",
      "constant": true
    },
    {
      "inputs": [
        {
          "internalType": "address",
          "name": "account",
          "type": "address"
        },
        {
          "internalType": "uint256",
          "name": "blockTimestamp",
          "type": "uint256"
        }
      ],
      "name": "getPriorVotes",
      "outputs": [
        {
          "internalType": "uint256",
          "name": "",
          "type": "uint256"
        }
      ],
      "stateMutability": "view",
      "type": "function",
      "constant": true
    }
  ],
  "bytecode": "0x60806040523480156200001157600080fd5b5060405162003c6838038062003c688339818101604052810190620000379190620002d4565b6040518060400160405280601281526020017f5365616e6365436972636c6520546f6b656e00000000000000000000000000008152506040518060400160405280600681526020017f5345414e434500000000000000000000000000000000000000000000000000008152508160039080519060200190620000bb9291906200020d565b508060049080519060200190620000d49291906200020d565b505050620000f7620000eb6200013f60201b60201c565b6200014760201b60201c565b80600660006101000a81548173ffffffffffffffffffffffffffffffffffffffff021916908373ffffffffffffffffffffffffffffffffffffffff16021790555050620003c7565b600033905090565b6000600560009054906101000a900473ffffffffffffffffffffffffffffffffffffffff16905081600560006101000a81548173ffffffffffffffffffffffffffffffffffffffff021916908373ffffffffffffffffffffffffffffffffffffffff1602179055508173ffffffffffffffffffffffffffffffffffffffff168173ffffffffffffffffffffffffffffffffffffffff167f8be0079c531659141344cd1fd0a4f28419497f9722a3daafe3b4186f6b6457e060405160405180910390a35050565b8280546200021b9062000348565b90600052602060002090601f0160209004810192826200023f57600085556200028b565b82601f106200025a57805160ff19168380011785556200028b565b828001600101855582156200028b579182015b828111156200028a5782518255916020019190600101906200026d565b5b5090506200029a91906200029e565b5090565b5b80821115620002b95760008160009055506001016200029f565b5090565b600081519050620002ce81620003ad565b92915050565b600060208284031215620002e757600080fd5b6000620002f784828501620002bd565b91505092915050565b60006200030d8262000328565b9050919050565b6000620003218262000300565b9050919050565b600073ffffffffffffffffffffffffffffffffffffffff82169050919050565b600060028204905060018216806200036157607f821691505b602082108114156200037857620003776200037e565b5b50919050565b7f4e487b7100000000000000000000000000000000000000000000000000000000600052602260045260246000fd5b620003b88162000314565b8114620003c457600080fd5b50565b61389180620003d76000396000f3fe608060405234801561001057600080fd5b50600436106101c45760003560e01c8063782d6fe1116100f9578063a9059cbb11610097578063c3cda52011610071578063c3cda52014610556578063dd62ed3e14610572578063e7a324dc146105a2578063f2fde38b146105c0576101c4565b8063a9059cbb146104da578063b2a142aa1461050a578063b4b5ea5714610526576101c4565b80638da5cb5b116100d35780638da5cb5b1461045257806395d89b41146104705780639dc29fac1461048e578063a457c2d7146104aa576101c4565b8063782d6fe1146103d45780637ecebe0014610404578063815b7a8c14610434576101c4565b806339509351116101665780635c19a95c116101405780635c19a95c1461034e5780636fcfff451461036a57806370a082311461039a578063715018a6146103ca576101c4565b806339509351146102d257806340c10f1914610302578063587cde1e1461031e576101c4565b806318160ddd116101a257806318160ddd1461024857806320606b701461026657806323b872dd14610284578063313ce567146102b4576101c4565b806306fdde03146101c9578063095ea7b3146101e75780630cdfebfa14610217575b600080fd5b6101d16105dc565b6040516101de9190613274565b60405180910390f35b61020160048036038101906101fc91906128c4565b61066e565b60405161020e9190613154565b60405180910390f35b610231600480360381019061022c91906128c4565b61068c565b60405161023f9291906134b1565b60405180910390f35b6102506106bd565b60405161025d9190613496565b60405180910390f35b61026e6106c7565b60405161027b919061316f565b60405180910390f35b61029e60048036038101906102999190612875565b6106eb565b6040516102ab9190613154565b60405180910390f35b6102bc6107ec565b6040516102c991906134da565b60405180910390f35b6102ec60048036038101906102e791906128c4565b6107f5565b6040516102f99190613154565b60405180910390f35b61031c600480360381019061031791906128c4565b6108a1565b005b61033860048036038101906103339190612810565b610996565b6040516103459190613110565b60405180910390f35b61036860048036038101906103639190612810565b6109ff565b005b610384600480360381019061037f9190612810565b610a0c565b6040516103919190613496565b60405180910390f35b6103b460048036038101906103af9190612810565b610a24565b6040516103c19190613496565b60405180910390f35b6103d2610a6c565b005b6103ee60048036038101906103e991906128c4565b610af4565b6040516103fb9190613496565b60405180910390f35b61041e60048036038101906104199190612810565b610e1f565b60405161042b9190613496565b60405180910390f35b61043c610e37565b6040516104499190613259565b60405180910390f35b61045a610e5d565b6040516104679190613110565b60405180910390f35b610478610e87565b6040516104859190613274565b60405180910390f35b6104a860048036038101906104a391906128c4565b610f19565b005b6104c460048036038101906104bf91906128c4565b61100e565b6040516104d19190613154565b60405180910390f35b6104f460048036038101906104ef91906128c4565b611102565b6040516105019190613154565b60405180910390f35b610524600480360381019061051f91906128c4565b611120565b005b610540600480360381019061053b9190612810565b6113be565b60405161054d9190613496565b60405180910390f35b610570600480360381019061056b9190612900565b61147b565b005b61058c60048036038101906105879190612839565b611710565b6040516105999190613496565b60405180910390f35b6105aa611797565b6040516105b7919061316f565b60405180910390f35b6105da60048036038101906105d59190612810565b6117bb565b005b6060600380546105eb9061368d565b80601f01602080910402602001604051908101604052809291908181526020018280546106179061368d565b80156106645780601f1061063957610100808354040283529160200191610664565b820191906000526020600020905b81548152906001019060200180831161064757829003601f168201915b5050505050905090565b600061068261067b6118b3565b84846118bb565b6001905092915050565b6008602052816000526040600020602052806000526040600020600091509150508060000154908060010154905082565b6000600254905090565b7f8cad95687ba82c2ce50e74f7b754645e5117c3a5bec8151c0726d5857980a86681565b60006106f8848484611a86565b6000600160008673ffffffffffffffffffffffffffffffffffffffff1673ffffffffffffffffffffffffffffffffffffffff16815260200190815260200160002060006107436118b3565b73ffffffffffffffffffffffffffffffffffffffff1673ffffffffffffffffffffffffffffffffffffffff168152602001908152602001600020549050828110156107c3576040517f08c379a00000000000000000000000000000000000000000000000000000000081526004016107ba90613376565b60405180910390fd5b6107e0856107cf6118b3565b85846107db91906135a3565b6118bb565b60019150509392505050565b60006012905090565b60006108976108026118b3565b8484600160006108106118b3565b73ffffffffffffffffffffffffffffffffffffffff1673ffffffffffffffffffffffffffffffffffffffff16815260200190815260200160002060008873ffffffffffffffffffffffffffffffffffffffff1673ffffffffffffffffffffffffffffffffffffffff16815260200190815260200160002054610892919061351c565b6118bb565b6001905092915050565b6108a96118b3565b73ffffffffffffffffffffffffffffffffffffffff166108c7610e5d565b73ffffffffffffffffffffffffffffffffffffffff161461091d576040517f08c379a0000000000000000000000000000000000000000000000000000000008152600401610914906133b6565b60405180910390fd5b6109278282611d10565b6109926000600760008573ffffffffffffffffffffffffffffffffffffffff1673ffffffffffffffffffffffffffffffffffffffff16815260200190815260200160002060009054906101000a900473ffffffffffffffffffffffffffffffffffffffff1683611e70565b5050565b6000600760008373ffffffffffffffffffffffffffffffffffffffff1673ffffffffffffffffffffffffffffffffffffffff16815260200190815260200160002060009054906101000a900473ffffffffffffffffffffffffffffffffffffffff169050919050565b610a0933826120cd565b50565b60096020528060005260406000206000915090505481565b60008060008373ffffffffffffffffffffffffffffffffffffffff1673ffffffffffffffffffffffffffffffffffffffff168152602001908152602001600020549050919050565b610a746118b3565b73ffffffffffffffffffffffffffffffffffffffff16610a92610e5d565b73ffffffffffffffffffffffffffffffffffffffff1614610ae8576040517f08c379a0000000000000000000000000000000000000000000000000000000008152600401610adf906133b6565b60405180910390fd5b610af2600061223e565b565b6000428210610b38576040517f08c379a0000000000000000000000000000000000000000000000000000000008152600401610b2f90613396565b60405180910390fd5b6000600960008573ffffffffffffffffffffffffffffffffffffffff1673ffffffffffffffffffffffffffffffffffffffff1681526020019081526020016000205490506000811415610b8f576000915050610e19565b82600860008673ffffffffffffffffffffffffffffffffffffffff1673ffffffffffffffffffffffffffffffffffffffff1681526020019081526020016000206000600184610bde91906135a3565b81526020019081526020016000206000015411610c5d57600860008573ffffffffffffffffffffffffffffffffffffffff1673ffffffffffffffffffffffffffffffffffffffff1681526020019081526020016000206000600183610c4391906135a3565b815260200190815260200160002060010154915050610e19565b82600860008673ffffffffffffffffffffffffffffffffffffffff1673ffffffffffffffffffffffffffffffffffffffff1681526020019081526020016000206000808152602001908152602001600020600001541115610cc2576000915050610e19565b600080600183610cd291906135a3565b90505b81811115610dbf57600060028383610ced91906135a3565b610cf79190613572565b82610d0291906135a3565b90506000600860008973ffffffffffffffffffffffffffffffffffffffff1673ffffffffffffffffffffffffffffffffffffffff16815260200190815260200160002060008381526020019081526020016000206040518060400160405290816000820154815260200160018201548152505090508681600001511415610d9457806020015195505050505050610e19565b8681600001511015610da857819350610db8565b600182610db591906135a3565b92505b5050610cd5565b600860008773ffffffffffffffffffffffffffffffffffffffff1673ffffffffffffffffffffffffffffffffffffffff16815260200190815260200160002060008381526020019081526020016000206001015493505050505b92915050565b600a6020528060005260406000206000915090505481565b600660009054906101000a900473ffffffffffffffffffffffffffffffffffffffff1681565b6000600560009054906101000a900473ffffffffffffffffffffffffffffffffffffffff16905090565b606060048054610e969061368d565b80601f0160208091040260200160405190810160405280929190818152602001828054610ec29061368d565b8015610f0f5780601f10610ee457610100808354040283529160200191610f0f565b820191906000526020600020905b815481529060010190602001808311610ef257829003601f168201915b5050505050905090565b610f216118b3565b73ffffffffffffffffffffffffffffffffffffffff16610f3f610e5d565b73ffffffffffffffffffffffffffffffffffffffff1614610f95576040517f08c379a0000000000000000000000000000000000000000000000000000000008152600401610f8c906133b6565b60405180910390fd5b610f9f8282612304565b61100a600760008473ffffffffffffffffffffffffffffffffffffffff1673ffffffffffffffffffffffffffffffffffffffff16815260200190815260200160002060009054906101000a900473ffffffffffffffffffffffffffffffffffffffff16600083611e70565b5050565b6000806001600061101d6118b3565b73ffffffffffffffffffffffffffffffffffffffff1673ffffffffffffffffffffffffffffffffffffffff16815260200190815260200160002060008573ffffffffffffffffffffffffffffffffffffffff1673ffffffffffffffffffffffffffffffffffffffff168152602001908152602001600020549050828110156110da576040517f08c379a00000000000000000000000000000000000000000000000000000000081526004016110d190613456565b60405180910390fd5b6110f76110e56118b3565b8585846110f291906135a3565b6118bb565b600191505092915050565b600061111661110f6118b3565b8484611a86565b6001905092915050565b6111286118b3565b73ffffffffffffffffffffffffffffffffffffffff16611146610e5d565b73ffffffffffffffffffffffffffffffffffffffff161461119c576040517f08c379a0000000000000000000000000000000000000000000000000000000008152600401611193906133b6565b60405180910390fd5b6000600660009054906101000a900473ffffffffffffffffffffffffffffffffffffffff1673ffffffffffffffffffffffffffffffffffffffff166370a08231306040518263ffffffff1660e01b81526004016111f99190613110565b60206040518083038186803b15801561121157600080fd5b505afa158015611225573d6000803e3d6000fd5b505050506040513d601f19601f8201168201806040525081019061124991906129b2565b90508082111561130857600660009054906101000a900473ffffffffffffffffffffffffffffffffffffffff1673ffffffffffffffffffffffffffffffffffffffff1663a9059cbb84836040518363ffffffff1660e01b81526004016112b092919061312b565b602060405180830381600087803b1580156112ca57600080fd5b505af11580156112de573d6000803e3d6000fd5b505050506040513d601f19601f820116820180604052508101906113029190612989565b506113b9565b600660009054906101000a900473ffffffffffffffffffffffffffffffffffffffff1673ffffffffffffffffffffffffffffffffffffffff1663a9059cbb84846040518363ffffffff1660e01b815260040161136592919061312b565b602060405180830381600087803b15801561137f57600080fd5b505af1158015611393573d6000803e3d6000fd5b505050506040513d601f19601f820116820180604052508101906113b79190612989565b505b505050565b600080600960008473ffffffffffffffffffffffffffffffffffffffff1673ffffffffffffffffffffffffffffffffffffffff16815260200190815260200160002054905060008111611412576000611473565b600860008473ffffffffffffffffffffffffffffffffffffffff1673ffffffffffffffffffffffffffffffffffffffff168152602001908152602001600020600060018361146091906135a3565b8152602001908152602001600020600101545b915050919050565b60007f8cad95687ba82c2ce50e74f7b754645e5117c3a5bec8151c0726d5857980a8666114a66105dc565b805190602001206114b56124e4565b306040516020016114c994939291906131cf565b60405160208183030381529060405280519060200120905060007fe48329057bfd03d55e49b547132e39cffd9c1820ad7b9d4c5307691425d15adf88888860405160200161151a949392919061318a565b604051602081830303815290604052805190602001209050600082826040516020016115479291906130d9565b6040516020818303038152906040528051906020012090506000600182888888604051600081526020016040526040516115849493929190613214565b6020604051602081039080840390855afa1580156115a6573d6000803e3d6000fd5b505050602060405103519050600073ffffffffffffffffffffffffffffffffffffffff168173ffffffffffffffffffffffffffffffffffffffff161415611622576040517f08c379a000000000000000000000000000000000000000000000000000000000815260040161161990613356565b60405180910390fd5b600a60008273ffffffffffffffffffffffffffffffffffffffff1673ffffffffffffffffffffffffffffffffffffffff1681526020019081526020016000206000815480929190611672906136bf565b9190505589146116b7576040517f08c379a00000000000000000000000000000000000000000000000000000000081526004016116ae90613316565b60405180910390fd5b874211156116fa576040517f08c379a00000000000000000000000000000000000000000000000000000000081526004016116f190613436565b60405180910390fd5b611704818b6120cd565b50505050505050505050565b6000600160008473ffffffffffffffffffffffffffffffffffffffff1673ffffffffffffffffffffffffffffffffffffffff16815260200190815260200160002060008373ffffffffffffffffffffffffffffffffffffffff1673ffffffffffffffffffffffffffffffffffffffff16815260200190815260200160002054905092915050565b7fe48329057bfd03d55e49b547132e39cffd9c1820ad7b9d4c5307691425d15adf81565b6117c36118b3565b73ffffffffffffffffffffffffffffffffffffffff166117e1610e5d565b73ffffffffffffffffffffffffffffffffffffffff1614611837576040517f08c379a000000000000000000000000000000000000000000000000000000000815260040161182e906133b6565b60405180910390fd5b600073ffffffffffffffffffffffffffffffffffffffff168173ffffffffffffffffffffffffffffffffffffffff1614156118a7576040517f08c379a000000000000000000000000000000000000000000000000000000000815260040161189e906132d6565b60405180910390fd5b6118b08161223e565b50565b600033905090565b600073ffffffffffffffffffffffffffffffffffffffff168373ffffffffffffffffffffffffffffffffffffffff16141561192b576040517f08c379a000000000000000000000000000000000000000000000000000000000815260040161192290613416565b60405180910390fd5b600073ffffffffffffffffffffffffffffffffffffffff168273ffffffffffffffffffffffffffffffffffffffff16141561199b576040517f08c379a0000000000000000000000000000000000000000000000000000000008152600401611992906132f6565b60405180910390fd5b80600160008573ffffffffffffffffffffffffffffffffffffffff1673ffffffffffffffffffffffffffffffffffffffff16815260200190815260200160002060008473ffffffffffffffffffffffffffffffffffffffff1673ffffffffffffffffffffffffffffffffffffffff168152602001908152602001600020819055508173ffffffffffffffffffffffffffffffffffffffff168373ffffffffffffffffffffffffffffffffffffffff167f8c5be1e5ebec7d5bd14f71427d1e84f3dd0314c0f7b2291e5b200ac8c7c3b92583604051611a799190613496565b60405180910390a3505050565b600073ffffffffffffffffffffffffffffffffffffffff168373ffffffffffffffffffffffffffffffffffffffff161415611af6576040517f08c379a0000000000000000000000000000000000000000000000000000000008152600401611aed906133f6565b60405180910390fd5b600073ffffffffffffffffffffffffffffffffffffffff168273ffffffffffffffffffffffffffffffffffffffff161415611b66576040517f08c379a0000000000000000000000000000000000000000000000000000000008152600401611b5d90613296565b60405180910390fd5b611b718383836124f1565b60008060008573ffffffffffffffffffffffffffffffffffffffff1673ffffffffffffffffffffffffffffffffffffffff16815260200190815260200160002054905081811015611bf7576040517f08c379a0000000000000000000000000000000000000000000000000000000008152600401611bee90613336565b60405180910390fd5b8181611c0391906135a3565b6000808673ffffffffffffffffffffffffffffffffffffffff1673ffffffffffffffffffffffffffffffffffffffff16815260200190815260200160002081905550816000808573ffffffffffffffffffffffffffffffffffffffff1673ffffffffffffffffffffffffffffffffffffffff1681526020019081526020016000206000828254611c93919061351c565b925050819055508273ffffffffffffffffffffffffffffffffffffffff168473ffffffffffffffffffffffffffffffffffffffff167fddf252ad1be2c89b69c2b068fc378daa952ba7f163c4a11628f55a4df523b3ef84604051611cf79190613496565b60405180910390a3611d0a8484846124f6565b50505050565b600073ffffffffffffffffffffffffffffffffffffffff168273ffffffffffffffffffffffffffffffffffffffff161415611d80576040517f08c379a0000000000000000000000000000000000000000000000000000000008152600401611d7790613476565b60405180910390fd5b611d8c600083836124f1565b8060026000828254611d9e919061351c565b92505081905550806000808473ffffffffffffffffffffffffffffffffffffffff1673ffffffffffffffffffffffffffffffffffffffff1681526020019081526020016000206000828254611df3919061351c565b925050819055508173ffffffffffffffffffffffffffffffffffffffff16600073ffffffffffffffffffffffffffffffffffffffff167fddf252ad1be2c89b69c2b068fc378daa952ba7f163c4a11628f55a4df523b3ef83604051611e589190613496565b60405180910390a3611e6c600083836124f6565b5050565b8173ffffffffffffffffffffffffffffffffffffffff168373ffffffffffffffffffffffffffffffffffffffff1614158015611eac5750600081115b156120c857600073ffffffffffffffffffffffffffffffffffffffff168373ffffffffffffffffffffffffffffffffffffffff1614611fbc576000600960008573ffffffffffffffffffffffffffffffffffffffff1673ffffffffffffffffffffffffffffffffffffffff1681526020019081526020016000205490506000808211611f39576000611f9a565b600860008673ffffffffffffffffffffffffffffffffffffffff1673ffffffffffffffffffffffffffffffffffffffff1681526020019081526020016000206000600184611f8791906135a3565b8152602001908152602001600020600101545b905060008382611faa91906135a3565b9050611fb8868484846124fb565b5050505b600073ffffffffffffffffffffffffffffffffffffffff168273ffffffffffffffffffffffffffffffffffffffff16146120c7576000600960008473ffffffffffffffffffffffffffffffffffffffff1673ffffffffffffffffffffffffffffffffffffffff16815260200190815260200160002054905060008082116120445760006120a5565b600860008573ffffffffffffffffffffffffffffffffffffffff1673ffffffffffffffffffffffffffffffffffffffff168152602001908152602001600020600060018461209291906135a3565b8152602001908152602001600020600101545b9050600083826120b5919061351c565b90506120c3858484846124fb565b5050505b5b505050565b6000600760008473ffffffffffffffffffffffffffffffffffffffff1673ffffffffffffffffffffffffffffffffffffffff16815260200190815260200160002060009054906101000a900473ffffffffffffffffffffffffffffffffffffffff169050600061213c84610a24565b905082600760008673ffffffffffffffffffffffffffffffffffffffff1673ffffffffffffffffffffffffffffffffffffffff16815260200190815260200160002060006101000a81548173ffffffffffffffffffffffffffffffffffffffff021916908373ffffffffffffffffffffffffffffffffffffffff1602179055508273ffffffffffffffffffffffffffffffffffffffff168273ffffffffffffffffffffffffffffffffffffffff168573ffffffffffffffffffffffffffffffffffffffff167f3134e8a2e6d97e929a7e54011ea5485d7d196dd5f0ba4d4ef95803e8e3fc257f60405160405180910390a4612238828483611e70565b50505050565b6000600560009054906101000a900473ffffffffffffffffffffffffffffffffffffffff16905081600560006101000a81548173ffffffffffffffffffffffffffffffffffffffff021916908373ffffffffffffffffffffffffffffffffffffffff1602179055508173ffffffffffffffffffffffffffffffffffffffff168173ffffffffffffffffffffffffffffffffffffffff167f8be0079c531659141344cd1fd0a4f28419497f9722a3daafe3b4186f6b6457e060405160405180910390a35050565b600073ffffffffffffffffffffffffffffffffffffffff168273ffffffffffffffffffffffffffffffffffffffff161415612374576040517f08c379a000000000000000000000000000000000000000000000000000000000815260040161236b906133d6565b60405180910390fd5b612380826000836124f1565b60008060008473ffffffffffffffffffffffffffffffffffffffff1673ffffffffffffffffffffffffffffffffffffffff16815260200190815260200160002054905081811015612406576040517f08c379a00000000000000000000000000000000000000000000000000000000081526004016123fd906132b6565b60405180910390fd5b818161241291906135a3565b6000808573ffffffffffffffffffffffffffffffffffffffff1673ffffffffffffffffffffffffffffffffffffffff16815260200190815260200160002081905550816002600082825461246691906135a3565b92505081905550600073ffffffffffffffffffffffffffffffffffffffff168373ffffffffffffffffffffffffffffffffffffffff167fddf252ad1be2c89b69c2b068fc378daa952ba7f163c4a11628f55a4df523b3ef846040516124cb9190613496565b60405180910390a36124df836000846124f6565b505050565b6000804690508091505090565b505050565b505050565b600061251f4260405180606001604052806038815260200161382460389139612721565b905060008411801561258f575080600860008773ffffffffffffffffffffffffffffffffffffffff1673ffffffffffffffffffffffffffffffffffffffff168152602001908152602001600020600060018761257b91906135a3565b815260200190815260200160002060000154145b156125fd5781600860008773ffffffffffffffffffffffffffffffffffffffff1673ffffffffffffffffffffffffffffffffffffffff16815260200190815260200160002060006001876125e391906135a3565b8152602001908152602001600020600101819055506126ca565b604051806040016040528082815260200183815250600860008773ffffffffffffffffffffffffffffffffffffffff1673ffffffffffffffffffffffffffffffffffffffff16815260200190815260200160002060008681526020019081526020016000206000820151816000015560208201518160010155905050600184612686919061351c565b600960008773ffffffffffffffffffffffffffffffffffffffff1673ffffffffffffffffffffffffffffffffffffffff168152602001908152602001600020819055505b8473ffffffffffffffffffffffffffffffffffffffff167fdec2bacdd2f05b59de34da9b523dff8be42e5e38e818c82fdb0bae774387a72484846040516127129291906134b1565b60405180910390a25050505050565b60007fffffffffffffffffffffffffffffffffffffffffffffffffffffffffffffffff83108290612788576040517f08c379a000000000000000000000000000000000000000000000000000000000815260040161277f9190613274565b60405180910390fd5b5082905092915050565b6000813590506127a1816137b0565b92915050565b6000815190506127b6816137c7565b92915050565b6000813590506127cb816137de565b92915050565b6000813590506127e0816137f5565b92915050565b6000815190506127f5816137f5565b92915050565b60008135905061280a8161380c565b92915050565b60006020828403121561282257600080fd5b600061283084828501612792565b91505092915050565b6000806040838503121561284c57600080fd5b600061285a85828601612792565b925050602061286b85828601612792565b9150509250929050565b60008060006060848603121561288a57600080fd5b600061289886828701612792565b93505060206128a986828701612792565b92505060406128ba868287016127d1565b9150509250925092565b600080604083850312156128d757600080fd5b60006128e585828601612792565b92505060206128f6858286016127d1565b9150509250929050565b60008060008060008060c0878903121561291957600080fd5b600061292789828a01612792565b965050602061293889828a016127d1565b955050604061294989828a016127d1565b945050606061295a89828a016127fb565b935050608061296b89828a016127bc565b92505060a061297c89828a016127bc565b9150509295509295509295565b60006020828403121561299b57600080fd5b60006129a9848285016127a7565b91505092915050565b6000602082840312156129c457600080fd5b60006129d2848285016127e6565b91505092915050565b6129e4816135d7565b82525050565b6129f3816135e9565b82525050565b612a02816135f5565b82525050565b612a19612a14826135f5565b613708565b82525050565b612a2881613636565b82525050565b6000612a39826134f5565b612a438185613500565b9350612a5381856020860161365a565b612a5c8161379f565b840191505092915050565b6000612a74602383613500565b91507f45524332303a207472616e7366657220746f20746865207a65726f206164647260008301527f65737300000000000000000000000000000000000000000000000000000000006020830152604082019050919050565b6000612ada602283613500565b91507f45524332303a206275726e20616d6f756e7420657863656564732062616c616e60008301527f63650000000000000000000000000000000000000000000000000000000000006020830152604082019050919050565b6000612b40602683613500565b91507f4f776e61626c653a206e6577206f776e657220697320746865207a65726f206160008301527f64647265737300000000000000000000000000000000000000000000000000006020830152604082019050919050565b6000612ba6602283613500565b91507f45524332303a20617070726f766520746f20746865207a65726f20616464726560008301527f73730000000000000000000000000000000000000000000000000000000000006020830152604082019050919050565b6000612c0c600283613511565b91507f19010000000000000000000000000000000000000000000000000000000000006000830152600282019050919050565b6000612c4c602283613500565b91507f534f554c3a3a64656c656761746542795369673a20696e76616c6964206e6f6e60008301527f63650000000000000000000000000000000000000000000000000000000000006020830152604082019050919050565b6000612cb2602683613500565b91507f45524332303a207472616e7366657220616d6f756e742065786365656473206260008301527f616c616e636500000000000000000000000000000000000000000000000000006020830152604082019050919050565b6000612d18602683613500565b91507f534f554c3a3a64656c656761746542795369673a20696e76616c69642073696760008301527f6e617475726500000000000000000000000000000000000000000000000000006020830152604082019050919050565b6000612d7e602883613500565b91507f45524332303a207472616e7366657220616d6f756e742065786365656473206160008301527f6c6c6f77616e63650000000000000000000000000000000000000000000000006020830152604082019050919050565b6000612de4602783613500565b91507f534f554c3a3a6765745072696f72566f7465733a206e6f74207965742064657460008301527f65726d696e6564000000000000000000000000000000000000000000000000006020830152604082019050919050565b6000612e4a602083613500565b91507f4f776e61626c653a2063616c6c6572206973206e6f7420746865206f776e65726000830152602082019050919050565b6000612e8a602183613500565b91507f45524332303a206275726e2066726f6d20746865207a65726f2061646472657360008301527f73000000000000000000000000000000000000000000000000000000000000006020830152604082019050919050565b6000612ef0602583613500565b91507f45524332303a207472616e736665722066726f6d20746865207a65726f20616460008301527f64726573730000000000000000000000000000000000000000000000000000006020830152604082019050919050565b6000612f56602483613500565b91507f45524332303a20617070726f76652066726f6d20746865207a65726f2061646460008301527f72657373000000000000000000000000000000000000000000000000000000006020830152604082019050919050565b6000612fbc602683613500565b91507f534f554c3a3a64656c656761746542795369673a207369676e6174757265206560008301527f78706972656400000000000000000000000000000000000000000000000000006020830152604082019050919050565b6000613022602583613500565b91507f45524332303a2064656372656173656420616c6c6f77616e63652062656c6f7760008301527f207a65726f0000000000000000000000000000000000000000000000000000006020830152604082019050919050565b6000613088601f83613500565b91507f45524332303a206d696e7420746f20746865207a65726f2061646472657373006000830152602082019050919050565b6130c48161361f565b82525050565b6130d381613629565b82525050565b60006130e482612bff565b91506130f08285612a08565b6020820191506131008284612a08565b6020820191508190509392505050565b600060208201905061312560008301846129db565b92915050565b600060408201905061314060008301856129db565b61314d60208301846130bb565b9392505050565b600060208201905061316960008301846129ea565b92915050565b600060208201905061318460008301846129f9565b92915050565b600060808201905061319f60008301876129f9565b6131ac60208301866129db565b6131b960408301856130bb565b6131c660608301846130bb565b95945050505050565b60006080820190506131e460008301876129f9565b6131f160208301866129f9565b6131fe60408301856130bb565b61320b60608301846129db565b95945050505050565b600060808201905061322960008301876129f9565b61323660208301866130ca565b61324360408301856129f9565b61325060608301846129f9565b95945050505050565b600060208201905061326e6000830184612a1f565b92915050565b6000602082019050818103600083015261328e8184612a2e565b905092915050565b600060208201905081810360008301526132af81612a67565b9050919050565b600060208201905081810360008301526132cf81612acd565b9050919050565b600060208201905081810360008301526132ef81612b33565b9050919050565b6000602082019050818103600083015261330f81612b99565b9050919050565b6000602082019050818103600083015261332f81612c3f565b9050919050565b6000602082019050818103600083015261334f81612ca5565b9050919050565b6000602082019050818103600083015261336f81612d0b565b9050919050565b6000602082019050818103600083015261338f81612d71565b9050919050565b600060208201905081810360008301526133af81612dd7565b9050919050565b600060208201905081810360008301526133cf81612e3d565b9050919050565b600060208201905081810360008301526133ef81612e7d565b9050919050565b6000602082019050818103600083015261340f81612ee3565b9050919050565b6000602082019050818103600083015261342f81612f49565b9050919050565b6000602082019050818103600083015261344f81612faf565b9050919050565b6000602082019050818103600083015261346f81613015565b9050919050565b6000602082019050818103600083015261348f8161307b565b9050919050565b60006020820190506134ab60008301846130bb565b92915050565b60006040820190506134c660008301856130bb565b6134d360208301846130bb565b9392505050565b60006020820190506134ef60008301846130ca565b92915050565b600081519050919050565b600082825260208201905092915050565b600081905092915050565b60006135278261361f565b91506135328361361f565b9250827fffffffffffffffffffffffffffffffffffffffffffffffffffffffffffffffff0382111561356757613566613712565b5b828201905092915050565b600061357d8261361f565b91506135888361361f565b92508261359857613597613741565b5b828204905092915050565b60006135ae8261361f565b91506135b98361361f565b9250828210156135cc576135cb613712565b5b828203905092915050565b60006135e2826135ff565b9050919050565b60008115159050919050565b6000819050919050565b600073ffffffffffffffffffffffffffffffffffffffff82169050919050565b6000819050919050565b600060ff82169050919050565b600061364182613648565b9050919050565b6000613653826135ff565b9050919050565b60005b8381101561367857808201518184015260208101905061365d565b83811115613687576000848401525b50505050565b600060028204905060018216806136a557607f821691505b602082108114156136b9576136b8613770565b5b50919050565b60006136ca8261361f565b91507fffffffffffffffffffffffffffffffffffffffffffffffffffffffffffffffff8214156136fd576136fc613712565b5b600182019050919050565b6000819050919050565b7f4e487b7100000000000000000000000000000000000000000000000000000000600052601160045260246000fd5b7f4e487b7100000000000000000000000000000000000000000000000000000000600052601260045260246000fd5b7f4e487b7100000000000000000000000000000000000000000000000000000000600052602260045260246000fd5b6000601f19601f8301169050919050565b6137b9816135d7565b81146137c457600080fd5b50565b6137d0816135e9565b81146137db57600080fd5b50565b6137e7816135f5565b81146137f257600080fd5b50565b6137fe8161361f565b811461380957600080fd5b50565b61381581613629565b811461382057600080fd5b5056fe534f554c3a3a5f7772697465436865636b706f696e743a20626c6f636b2074696d657374616d702065786365656473203235362062697473a2646970667358221220983750922f46a3fe74c266b2c194bc37181685f0264359d353c8aeca51fd632a64736f6c63430008000033",
  "immutableReferences": {},
  "source": "// SPDX-License-Identifier: MIT\n\npragma solidity ^0.8.0;\n\nimport \"@openzeppelin/contracts/access/Ownable.sol\";\nimport \"./SoulToken.sol\";\n\n// SeanceCircle with Governance.\ncontract SeanceCircle is ERC20('SeanceCircle Token', 'SEANCE'), Ownable {\n    /// @dev Creates `_amount` token to `_to`. Must only be called by the owner (MasterChef).\n    function mint(address _to, uint256 _amount) public onlyOwner {\n        _mint(_to, _amount);\n        _moveDelegates(address(0), _delegates[_to], _amount);\n    }\n\n    function burn(address _from ,uint256 _amount) public onlyOwner {\n        _burn(_from, _amount);\n        _moveDelegates(_delegates[_from], address(0), _amount);\n    }\n\n    // The SOUL TOKEN!\n    SoulToken public soul;\n\n\n    constructor(SoulToken _soul) {\n        soul = _soul;\n    }\n\n    // Safe soul transfer function, just in case if rounding error causes pool to not have enough SOUL.\n    function safeSoulTransfer(address _to, uint256 _amount) public onlyOwner {\n        uint256 soulBal = soul.balanceOf(address(this));\n        if (_amount > soulBal) {\n            soul.transfer(_to, soulBal);\n        } else {\n            soul.transfer(_to, _amount);\n        }\n    }\n\n    // Copied and modified from YAM code:\n    // https://github.com/yam-finance/yam-protocol/blob/master/contracts/token/YAMGovernanceStorage.sol\n    // https://github.com/yam-finance/yam-protocol/blob/master/contracts/token/YAMGovernance.sol\n    // Which is copied and modified from COMPOUND:\n    // https://github.com/compound-finance/compound-protocol/blob/master/contracts/Governance/Comp.sol\n\n    /// @dev A record of each accounts delegate\n    mapping (address => address) internal _delegates;\n\n    /// @dev A checkpoint for marking number of votes from a given block timestamp\n    struct Checkpoint {\n        uint256 fromTime;\n        uint256 votes;\n    }\n\n    /// @dev A record of votes checkpoints for each account, by index\n    mapping (address => mapping (uint256 => Checkpoint)) public checkpoints;\n\n    /// @dev The number of checkpoints for each account\n    mapping (address => uint256) public numCheckpoints;\n\n    /// @dev The EIP-712 typehash for the contract's domain\n    bytes32 public constant DOMAIN_TYPEHASH = keccak256(\"EIP712Domain(string name,uint256 chainId,address verifyingContract)\");\n\n    /// @dev The EIP-712 typehash for the delegation struct used by the contract\n    bytes32 public constant DELEGATION_TYPEHASH = keccak256(\"Delegation(address delegatee,uint256 nonce,uint256 expiry)\");\n\n    /// @dev A record of states for signing / validating signatures\n    mapping (address => uint) public nonces;\n\n      /// @dev An event thats emitted when an account changes its delegate\n    event DelegateChanged(address indexed delegator, address indexed fromDelegate, address indexed toDelegate);\n\n    /// @dev An event thats emitted when a delegate account's vote balance changes\n    event DelegateVotesChanged(address indexed delegate, uint previousBalance, uint newBalance);\n\n    /**\n     * @dev Delegate votes from `msg.sender` to `delegatee`\n     * @param delegator The address to get delegatee for\n     */\n    function delegates(address delegator)\n        external\n        view\n        returns (address)\n    {\n        return _delegates[delegator];\n    }\n\n   /**\n    * @dev Delegate votes from `msg.sender` to `delegatee`\n    * @param delegatee The address to delegate votes to\n    */\n    function delegate(address delegatee) external {\n        return _delegate(msg.sender, delegatee);\n    }\n\n    /**\n     * @dev Delegates votes from signatory to `delegatee`\n     * @param delegatee The address to delegate votes to\n     * @param nonce The contract state required to match the signature\n     * @param expiry The time at which to expire the signature\n     * @param v The recovery byte of the signature\n     * @param r Half of the ECDSA signature pair\n     * @param s Half of the ECDSA signature pair\n     */\n    function delegateBySig(\n        address delegatee,\n        uint nonce,\n        uint expiry,\n        uint8 v,\n        bytes32 r,\n        bytes32 s\n    )\n        external\n    {\n        bytes32 domainSeparator = keccak256(\n            abi.encode(\n                DOMAIN_TYPEHASH,\n                keccak256(bytes(name())),\n                getChainId(),\n                address(this)\n            )\n        );\n\n        bytes32 structHash = keccak256(\n            abi.encode(\n                DELEGATION_TYPEHASH,\n                delegatee,\n                nonce,\n                expiry\n            )\n        );\n\n        bytes32 digest = keccak256(\n            abi.encodePacked(\n                \"\\x19\\x01\",\n                domainSeparator,\n                structHash\n            )\n        );\n\n        address signatory = ecrecover(digest, v, r, s);\n        require(signatory != address(0), \"SOUL::delegateBySig: invalid signature\");\n        require(nonce == nonces[signatory]++, \"SOUL::delegateBySig: invalid nonce\");\n        require(block.timestamp <= expiry, \"SOUL::delegateBySig: signature expired\");\n        return _delegate(signatory, delegatee);\n    }\n\n    /**\n     * @dev Gets the current votes balance for `account`\n     * @param account The address to get votes balance\n     * @return The number of current votes for `account`\n     */\n    function getCurrentVotes(address account)\n        external\n        view\n        returns (uint256)\n    {\n        uint256 nCheckpoints = numCheckpoints[account];\n        return nCheckpoints > 0 ? checkpoints[account][nCheckpoints - 1].votes : 0;\n    }\n\n    /**\n     * @dev Determine the prior number of votes for an account as of a block timestamp\n     * @dev Block timestamp must be a finalized block or else this function will revert to prevent misinformation.\n     * @param account The address of the account to check\n     * @param blockTimestamp The block timestamp to get the vote balance at\n     * @return The number of votes the account had as of the given block timestamp\n     */\n    function getPriorVotes(address account, uint blockTimestamp)\n        external\n        view\n        returns (uint256)\n    {\n        require(blockTimestamp < block.timestamp, \"SOUL::getPriorVotes: not yet determined\");\n\n        uint256 nCheckpoints = numCheckpoints[account];\n        if (nCheckpoints == 0) {\n            return 0;\n        }\n\n        // First check most recent balance\n        if (checkpoints[account][nCheckpoints - 1].fromTime <= blockTimestamp) {\n            return checkpoints[account][nCheckpoints - 1].votes;\n        }\n\n        // Next check implicit zero balance\n        if (checkpoints[account][0].fromTime > blockTimestamp) {\n            return 0;\n        }\n\n        uint256 lower = 0;\n        uint256 upper = nCheckpoints - 1;\n        while (upper > lower) {\n            uint256 center = upper - (upper - lower) / 2; // ceil, avoiding overflow\n            Checkpoint memory cp = checkpoints[account][center];\n            if (cp.fromTime == blockTimestamp) {\n                return cp.votes;\n            } else if (cp.fromTime < blockTimestamp) {\n                lower = center;\n            } else {\n                upper = center - 1;\n            }\n        }\n        return checkpoints[account][lower].votes;\n    }\n\n    function _delegate(address delegator, address delegatee)\n        internal\n    {\n        address currentDelegate = _delegates[delegator];\n        uint256 delegatorBalance = balanceOf(delegator); // balance of underlying SOUL (not scaled);\n        _delegates[delegator] = delegatee;\n\n        emit DelegateChanged(delegator, currentDelegate, delegatee);\n\n        _moveDelegates(currentDelegate, delegatee, delegatorBalance);\n    }\n\n    function _moveDelegates(address srcRep, address dstRep, uint256 amount) internal {\n        if (srcRep != dstRep && amount > 0) {\n            if (srcRep != address(0)) {\n                // decrease old representative\n                uint256 srcRepNum = numCheckpoints[srcRep];\n                uint256 srcRepOld = srcRepNum > 0 ? checkpoints[srcRep][srcRepNum - 1].votes : 0;\n                uint256 srcRepNew = srcRepOld - amount;\n                _writeCheckpoint(srcRep, srcRepNum, srcRepOld, srcRepNew);\n            }\n\n            if (dstRep != address(0)) {\n                // increase new representative\n                uint256 dstRepNum = numCheckpoints[dstRep];\n                uint256 dstRepOld = dstRepNum > 0 ? checkpoints[dstRep][dstRepNum - 1].votes : 0;\n                uint256 dstRepNew = dstRepOld + amount;\n                _writeCheckpoint(dstRep, dstRepNum, dstRepOld, dstRepNew);\n            }\n        }\n    }\n\n    function _writeCheckpoint(\n        address delegatee,\n        uint256 nCheckpoints,\n        uint256 oldVotes,\n        uint256 newVotes\n    )\n        internal\n    {\n        uint256 blockTimestamp = safe256(block.timestamp, \"SOUL::_writeCheckpoint: block timestamp exceeds 256 bits\");\n\n        if (nCheckpoints > 0 && checkpoints[delegatee][nCheckpoints - 1].fromTime == blockTimestamp) {\n            checkpoints[delegatee][nCheckpoints - 1].votes = newVotes;\n        } else {\n            checkpoints[delegatee][nCheckpoints] = Checkpoint(blockTimestamp, newVotes);\n            numCheckpoints[delegatee] = nCheckpoints + 1;\n        }\n\n        emit DelegateVotesChanged(delegatee, oldVotes, newVotes);\n    }\n\n    function safe256(uint n, string memory errorMessage) internal pure returns (uint256) {\n        require(n < type(uint256).max, errorMessage);\n        return uint256(n);\n    }\n\n    function getChainId() internal view returns (uint) {\n        uint256 chainId;\n        assembly { chainId := chainid() }\n        return chainId;\n    }\n}\n",
  "sourcePath": "/Users/unico/Documents/GitHub/SoulSwap/soulswap-farms/contracts/SeanceCircle.sol",
  "compiler": {
    "name": "solc",
    "version": "0.8.0+commit.c7dfd78e.Emscripten.clang"
  },
  "schemaVersion": "3.4.1",
  "updatedAt": "2021-07-04T18:45:17.659Z",
  "networkType": "ethereum",
  "devdoc": {
    "events": {
      "DelegateChanged(address,address,address)": {
        "details": "An event thats emitted when an account changes its delegate"
      },
      "DelegateVotesChanged(address,uint256,uint256)": {
        "details": "An event thats emitted when a delegate account's vote balance changes"
      }
    },
    "kind": "dev",
    "methods": {
      "allowance(address,address)": {
        "details": "See {IERC20-allowance}."
      },
      "approve(address,uint256)": {
        "details": "See {IERC20-approve}. Requirements: - `spender` cannot be the zero address."
      },
      "balanceOf(address)": {
        "details": "See {IERC20-balanceOf}."
      },
      "decimals()": {
        "details": "Returns the number of decimals used to get its user representation. For example, if `decimals` equals `2`, a balance of `505` tokens should be displayed to a user as `5,05` (`505 / 10 ** 2`). Tokens usually opt for a value of 18, imitating the relationship between Ether and Wei. This is the value {ERC20} uses, unless this function is overridden; NOTE: This information is only used for _display_ purposes: it in no way affects any of the arithmetic of the contract, including {IERC20-balanceOf} and {IERC20-transfer}."
      },
      "decreaseAllowance(address,uint256)": {
        "details": "Atomically decreases the allowance granted to `spender` by the caller. This is an alternative to {approve} that can be used as a mitigation for problems described in {IERC20-approve}. Emits an {Approval} event indicating the updated allowance. Requirements: - `spender` cannot be the zero address. - `spender` must have allowance for the caller of at least `subtractedValue`."
      },
      "delegate(address)": {
        "details": "Delegate votes from `msg.sender` to `delegatee`",
        "params": {
          "delegatee": "The address to delegate votes to"
        }
      },
      "delegateBySig(address,uint256,uint256,uint8,bytes32,bytes32)": {
        "details": "Delegates votes from signatory to `delegatee`",
        "params": {
          "delegatee": "The address to delegate votes to",
          "expiry": "The time at which to expire the signature",
          "nonce": "The contract state required to match the signature",
          "r": "Half of the ECDSA signature pair",
          "s": "Half of the ECDSA signature pair",
          "v": "The recovery byte of the signature"
        }
      },
      "delegates(address)": {
        "details": "Delegate votes from `msg.sender` to `delegatee`",
        "params": {
          "delegator": "The address to get delegatee for"
        }
      },
      "getCurrentVotes(address)": {
        "details": "Gets the current votes balance for `account`",
        "params": {
          "account": "The address to get votes balance"
        },
        "returns": {
          "_0": "The number of current votes for `account`"
        }
      },
      "getPriorVotes(address,uint256)": {
        "details": "Determine the prior number of votes for an account as of a block timestampBlock timestamp must be a finalized block or else this function will revert to prevent misinformation.",
        "params": {
          "account": "The address of the account to check",
          "blockTimestamp": "The block timestamp to get the vote balance at"
        },
        "returns": {
          "_0": "The number of votes the account had as of the given block timestamp"
        }
      },
      "increaseAllowance(address,uint256)": {
        "details": "Atomically increases the allowance granted to `spender` by the caller. This is an alternative to {approve} that can be used as a mitigation for problems described in {IERC20-approve}. Emits an {Approval} event indicating the updated allowance. Requirements: - `spender` cannot be the zero address."
      },
      "mint(address,uint256)": {
        "details": "Creates `_amount` token to `_to`. Must only be called by the owner (MasterChef)."
      },
      "name()": {
        "details": "Returns the name of the token."
      },
      "owner()": {
        "details": "Returns the address of the current owner."
      },
      "renounceOwnership()": {
        "details": "Leaves the contract without owner. It will not be possible to call `onlyOwner` functions anymore. Can only be called by the current owner. NOTE: Renouncing ownership will leave the contract without an owner, thereby removing any functionality that is only available to the owner."
      },
      "symbol()": {
        "details": "Returns the symbol of the token, usually a shorter version of the name."
      },
      "totalSupply()": {
        "details": "See {IERC20-totalSupply}."
      },
      "transfer(address,uint256)": {
        "details": "See {IERC20-transfer}. Requirements: - `recipient` cannot be the zero address. - the caller must have a balance of at least `amount`."
      },
      "transferFrom(address,address,uint256)": {
        "details": "See {IERC20-transferFrom}. Emits an {Approval} event indicating the updated allowance. This is not required by the EIP. See the note at the beginning of {ERC20}. Requirements: - `sender` and `recipient` cannot be the zero address. - `sender` must have a balance of at least `amount`. - the caller must have allowance for ``sender``'s tokens of at least `amount`."
      },
      "transferOwnership(address)": {
        "details": "Transfers ownership of the contract to a new account (`newOwner`). Can only be called by the current owner."
      }
    },
    "stateVariables": {
      "DELEGATION_TYPEHASH": {
        "details": "The EIP-712 typehash for the delegation struct used by the contract"
      },
      "DOMAIN_TYPEHASH": {
        "details": "The EIP-712 typehash for the contract's domain"
      },
      "_delegates": {
        "details": "A record of each accounts delegate"
      },
      "checkpoints": {
        "details": "A record of votes checkpoints for each account, by index"
      },
      "nonces": {
        "details": "A record of states for signing / validating signatures"
      },
      "numCheckpoints": {
        "details": "The number of checkpoints for each account"
      }
    },
    "version": 1
  },
  "userdoc": {
    "kind": "user",
    "methods": {},
    "version": 1
  }
}