{
  "contractName": "SoulVault",
  "abi": [
    {
      "inputs": [
        {
          "internalType": "contract IERC20",
          "name": "_token",
          "type": "address"
        },
        {
          "internalType": "contract IERC20",
          "name": "_receiptToken",
          "type": "address"
        },
        {
          "internalType": "contract IMasterChef",
          "name": "_masterchef",
          "type": "address"
        },
        {
          "internalType": "address",
          "name": "_admin",
          "type": "address"
        },
        {
          "internalType": "address",
          "name": "_treasury",
          "type": "address"
        }
      ],
      "stateMutability": "nonpayable",
      "type": "constructor"
    },
    {
      "anonymous": false,
      "inputs": [
        {
          "indexed": true,
          "internalType": "address",
          "name": "sender",
          "type": "address"
        },
        {
          "indexed": false,
          "internalType": "uint256",
          "name": "amount",
          "type": "uint256"
        },
        {
          "indexed": false,
          "internalType": "uint256",
          "name": "shares",
          "type": "uint256"
        },
        {
          "indexed": false,
          "internalType": "uint256",
          "name": "lastDepositedTime",
          "type": "uint256"
        }
      ],
      "name": "Deposit",
      "type": "event"
    },
    {
      "anonymous": false,
      "inputs": [
        {
          "indexed": true,
          "internalType": "address",
          "name": "sender",
          "type": "address"
        },
        {
          "indexed": false,
          "internalType": "uint256",
          "name": "performanceFee",
          "type": "uint256"
        },
        {
          "indexed": false,
          "internalType": "uint256",
          "name": "callFee",
          "type": "uint256"
        }
      ],
      "name": "Harvest",
      "type": "event"
    },
    {
      "anonymous": false,
      "inputs": [
        {
          "indexed": true,
          "internalType": "address",
          "name": "previousOwner",
          "type": "address"
        },
        {
          "indexed": true,
          "internalType": "address",
          "name": "newOwner",
          "type": "address"
        }
      ],
      "name": "OwnershipTransferred",
      "type": "event"
    },
    {
      "anonymous": false,
      "inputs": [],
      "name": "Pause",
      "type": "event"
    },
    {
      "anonymous": false,
      "inputs": [
        {
          "indexed": false,
          "internalType": "address",
          "name": "account",
          "type": "address"
        }
      ],
      "name": "Paused",
      "type": "event"
    },
    {
      "anonymous": false,
      "inputs": [],
      "name": "Unpause",
      "type": "event"
    },
    {
      "anonymous": false,
      "inputs": [
        {
          "indexed": false,
          "internalType": "address",
          "name": "account",
          "type": "address"
        }
      ],
      "name": "Unpaused",
      "type": "event"
    },
    {
      "anonymous": false,
      "inputs": [
        {
          "indexed": true,
          "internalType": "address",
          "name": "sender",
          "type": "address"
        },
        {
          "indexed": false,
          "internalType": "uint256",
          "name": "amount",
          "type": "uint256"
        },
        {
          "indexed": false,
          "internalType": "uint256",
          "name": "shares",
          "type": "uint256"
        }
      ],
      "name": "Withdraw",
      "type": "event"
    },
    {
      "inputs": [],
      "name": "MAX_CALL_FEE",
      "outputs": [
        {
          "internalType": "uint256",
          "name": "",
          "type": "uint256"
        }
      ],
      "stateMutability": "view",
      "type": "function",
      "constant": true
    },
    {
      "inputs": [],
      "name": "MAX_PERFORMANCE_FEE",
      "outputs": [
        {
          "internalType": "uint256",
          "name": "",
          "type": "uint256"
        }
      ],
      "stateMutability": "view",
      "type": "function",
      "constant": true
    },
    {
      "inputs": [],
      "name": "MAX_WITHDRAW_FEE",
      "outputs": [
        {
          "internalType": "uint256",
          "name": "",
          "type": "uint256"
        }
      ],
      "stateMutability": "view",
      "type": "function",
      "constant": true
    },
    {
      "inputs": [],
      "name": "MAX_WITHDRAW_FEE_PERIOD",
      "outputs": [
        {
          "internalType": "uint256",
          "name": "",
          "type": "uint256"
        }
      ],
      "stateMutability": "view",
      "type": "function",
      "constant": true
    },
    {
      "inputs": [],
      "name": "admin",
      "outputs": [
        {
          "internalType": "address",
          "name": "",
          "type": "address"
        }
      ],
      "stateMutability": "view",
      "type": "function",
      "constant": true
    },
    {
      "inputs": [],
      "name": "callFee",
      "outputs": [
        {
          "internalType": "uint256",
          "name": "",
          "type": "uint256"
        }
      ],
      "stateMutability": "view",
      "type": "function",
      "constant": true
    },
    {
      "inputs": [],
      "name": "lastHarvestedTime",
      "outputs": [
        {
          "internalType": "uint256",
          "name": "",
          "type": "uint256"
        }
      ],
      "stateMutability": "view",
      "type": "function",
      "constant": true
    },
    {
      "inputs": [],
      "name": "masterchef",
      "outputs": [
        {
          "internalType": "contract IMasterChef",
          "name": "",
          "type": "address"
        }
      ],
      "stateMutability": "view",
      "type": "function",
      "constant": true
    },
    {
      "inputs": [],
      "name": "owner",
      "outputs": [
        {
          "internalType": "address",
          "name": "",
          "type": "address"
        }
      ],
      "stateMutability": "view",
      "type": "function",
      "constant": true
    },
    {
      "inputs": [],
      "name": "paused",
      "outputs": [
        {
          "internalType": "bool",
          "name": "",
          "type": "bool"
        }
      ],
      "stateMutability": "view",
      "type": "function",
      "constant": true
    },
    {
      "inputs": [],
      "name": "performanceFee",
      "outputs": [
        {
          "internalType": "uint256",
          "name": "",
          "type": "uint256"
        }
      ],
      "stateMutability": "view",
      "type": "function",
      "constant": true
    },
    {
      "inputs": [],
      "name": "receiptToken",
      "outputs": [
        {
          "internalType": "contract IERC20",
          "name": "",
          "type": "address"
        }
      ],
      "stateMutability": "view",
      "type": "function",
      "constant": true
    },
    {
      "inputs": [],
      "name": "renounceOwnership",
      "outputs": [],
      "stateMutability": "nonpayable",
      "type": "function"
    },
    {
      "inputs": [],
      "name": "token",
      "outputs": [
        {
          "internalType": "contract IERC20",
          "name": "",
          "type": "address"
        }
      ],
      "stateMutability": "view",
      "type": "function",
      "constant": true
    },
    {
      "inputs": [],
      "name": "totalShares",
      "outputs": [
        {
          "internalType": "uint256",
          "name": "",
          "type": "uint256"
        }
      ],
      "stateMutability": "view",
      "type": "function",
      "constant": true
    },
    {
      "inputs": [
        {
          "internalType": "address",
          "name": "newOwner",
          "type": "address"
        }
      ],
      "name": "transferOwnership",
      "outputs": [],
      "stateMutability": "nonpayable",
      "type": "function"
    },
    {
      "inputs": [],
      "name": "treasury",
      "outputs": [
        {
          "internalType": "address",
          "name": "",
          "type": "address"
        }
      ],
      "stateMutability": "view",
      "type": "function",
      "constant": true
    },
    {
      "inputs": [
        {
          "internalType": "address",
          "name": "",
          "type": "address"
        }
      ],
      "name": "userInfo",
      "outputs": [
        {
          "internalType": "uint256",
          "name": "shares",
          "type": "uint256"
        },
        {
          "internalType": "uint256",
          "name": "lastDepositedTime",
          "type": "uint256"
        },
        {
          "internalType": "uint256",
          "name": "soulAtLastUserAction",
          "type": "uint256"
        },
        {
          "internalType": "uint256",
          "name": "lastUserActionTime",
          "type": "uint256"
        }
      ],
      "stateMutability": "view",
      "type": "function",
      "constant": true
    },
    {
      "inputs": [],
      "name": "withdrawFee",
      "outputs": [
        {
          "internalType": "uint256",
          "name": "",
          "type": "uint256"
        }
      ],
      "stateMutability": "view",
      "type": "function",
      "constant": true
    },
    {
      "inputs": [],
      "name": "withdrawFeePeriod",
      "outputs": [
        {
          "internalType": "uint256",
          "name": "",
          "type": "uint256"
        }
      ],
      "stateMutability": "view",
      "type": "function",
      "constant": true
    },
    {
      "inputs": [
        {
          "internalType": "uint256",
          "name": "_amount",
          "type": "uint256"
        }
      ],
      "name": "deposit",
      "outputs": [],
      "stateMutability": "nonpayable",
      "type": "function"
    },
    {
      "inputs": [],
      "name": "withdrawAll",
      "outputs": [],
      "stateMutability": "nonpayable",
      "type": "function"
    },
    {
      "inputs": [],
      "name": "harvest",
      "outputs": [],
      "stateMutability": "nonpayable",
      "type": "function"
    },
    {
      "inputs": [
        {
          "internalType": "address",
          "name": "_admin",
          "type": "address"
        }
      ],
      "name": "setAdmin",
      "outputs": [],
      "stateMutability": "nonpayable",
      "type": "function"
    },
    {
      "inputs": [
        {
          "internalType": "address",
          "name": "_treasury",
          "type": "address"
        }
      ],
      "name": "setTreasury",
      "outputs": [],
      "stateMutability": "nonpayable",
      "type": "function"
    },
    {
      "inputs": [
        {
          "internalType": "uint256",
          "name": "_performanceFee",
          "type": "uint256"
        }
      ],
      "name": "setPerformanceFee",
      "outputs": [],
      "stateMutability": "nonpayable",
      "type": "function"
    },
    {
      "inputs": [
        {
          "internalType": "uint256",
          "name": "_callFee",
          "type": "uint256"
        }
      ],
      "name": "setCallFee",
      "outputs": [],
      "stateMutability": "nonpayable",
      "type": "function"
    },
    {
      "inputs": [
        {
          "internalType": "uint256",
          "name": "_withdrawFee",
          "type": "uint256"
        }
      ],
      "name": "setWithdrawFee",
      "outputs": [],
      "stateMutability": "nonpayable",
      "type": "function"
    },
    {
      "inputs": [
        {
          "internalType": "uint256",
          "name": "_withdrawFeePeriod",
          "type": "uint256"
        }
      ],
      "name": "setWithdrawFeePeriod",
      "outputs": [],
      "stateMutability": "nonpayable",
      "type": "function"
    },
    {
      "inputs": [],
      "name": "emergencyWithdraw",
      "outputs": [],
      "stateMutability": "nonpayable",
      "type": "function"
    },
    {
      "inputs": [
        {
          "internalType": "address",
          "name": "_token",
          "type": "address"
        }
      ],
      "name": "inCaseTokensGetStuck",
      "outputs": [],
      "stateMutability": "nonpayable",
      "type": "function"
    },
    {
      "inputs": [],
      "name": "pause",
      "outputs": [],
      "stateMutability": "nonpayable",
      "type": "function"
    },
    {
      "inputs": [],
      "name": "unpause",
      "outputs": [],
      "stateMutability": "nonpayable",
      "type": "function"
    },
    {
      "inputs": [],
      "name": "calculateHarvestSoulRewards",
      "outputs": [
        {
          "internalType": "uint256",
          "name": "",
          "type": "uint256"
        }
      ],
      "stateMutability": "view",
      "type": "function",
      "constant": true
    },
    {
      "inputs": [],
      "name": "calculateTotalPendingSoulRewards",
      "outputs": [
        {
          "internalType": "uint256",
          "name": "",
          "type": "uint256"
        }
      ],
      "stateMutability": "view",
      "type": "function",
      "constant": true
    },
    {
      "inputs": [],
      "name": "getPricePerFullShare",
      "outputs": [
        {
          "internalType": "uint256",
          "name": "",
          "type": "uint256"
        }
      ],
      "stateMutability": "view",
      "type": "function",
      "constant": true
    },
    {
      "inputs": [
        {
          "internalType": "uint256",
          "name": "_shares",
          "type": "uint256"
        }
      ],
      "name": "withdraw",
      "outputs": [],
      "stateMutability": "nonpayable",
      "type": "function"
    },
    {
      "inputs": [],
      "name": "available",
      "outputs": [
        {
          "internalType": "uint256",
          "name": "",
          "type": "uint256"
        }
      ],
      "stateMutability": "view",
      "type": "function",
      "constant": true
    },
    {
      "inputs": [],
      "name": "balanceOf",
      "outputs": [
        {
          "internalType": "uint256",
          "name": "",
          "type": "uint256"
        }
      ],
      "stateMutability": "view",
      "type": "function",
      "constant": true
    }
  ],
  "bytecode": "0x60e060405260c86006556019600755600a6008556203f4806009553480156200002757600080fd5b5060405162003c9e38038062003c9e83398181016040528101906200004d9190620003c1565b6200006d620000616200026d60201b60201c565b6200027560201b60201c565b60008060146101000a81548160ff0219169083151502179055508473ffffffffffffffffffffffffffffffffffffffff1660808173ffffffffffffffffffffffffffffffffffffffff1660601b815250508373ffffffffffffffffffffffffffffffffffffffff1660a08173ffffffffffffffffffffffffffffffffffffffff1660601b815250508273ffffffffffffffffffffffffffffffffffffffff1660c08173ffffffffffffffffffffffffffffffffffffffff1660601b8152505081600460006101000a81548173ffffffffffffffffffffffffffffffffffffffff021916908373ffffffffffffffffffffffffffffffffffffffff16021790555080600560006101000a81548173ffffffffffffffffffffffffffffffffffffffff021916908373ffffffffffffffffffffffffffffffffffffffff1602179055508473ffffffffffffffffffffffffffffffffffffffff1663095ea7b3847fffffffffffffffffffffffffffffffffffffffffffffffffffffffffffffffff6040518363ffffffff1660e01b81526004016200020b92919062000465565b602060405180830381600087803b1580156200022657600080fd5b505af11580156200023b573d6000803e3d6000fd5b505050506040513d601f19601f8201168201806040525081019062000261919062000395565b5050505050506200056c565b600033905090565b60008060009054906101000a900473ffffffffffffffffffffffffffffffffffffffff169050816000806101000a81548173ffffffffffffffffffffffffffffffffffffffff021916908373ffffffffffffffffffffffffffffffffffffffff1602179055508173ffffffffffffffffffffffffffffffffffffffff168173ffffffffffffffffffffffffffffffffffffffff167f8be0079c531659141344cd1fd0a4f28419497f9722a3daafe3b4186f6b6457e060405160405180910390a35050565b6000815190506200034a8162000504565b92915050565b60008151905062000361816200051e565b92915050565b600081519050620003788162000538565b92915050565b6000815190506200038f8162000552565b92915050565b600060208284031215620003a857600080fd5b6000620003b88482850162000350565b91505092915050565b600080600080600060a08688031215620003da57600080fd5b6000620003ea8882890162000367565b9550506020620003fd8882890162000367565b945050604062000410888289016200037e565b9350506060620004238882890162000339565b9250506080620004368882890162000339565b9150509295509295909350565b6200044e8162000492565b82525050565b6200045f81620004fa565b82525050565b60006040820190506200047c600083018562000443565b6200048b602083018462000454565b9392505050565b60006200049f82620004da565b9050919050565b60008115159050919050565b6000620004bf8262000492565b9050919050565b6000620004d38262000492565b9050919050565b600073ffffffffffffffffffffffffffffffffffffffff82169050919050565b6000819050919050565b6200050f8162000492565b81146200051b57600080fd5b50565b6200052981620004a6565b81146200053557600080fd5b50565b6200054381620004b2565b81146200054f57600080fd5b50565b6200055d81620004c6565b81146200056957600080fd5b50565b60805160601c60a05160601c60c05160601c613689620006156000396000818161077201528181610b3e01528181611080015281816116be01528181611ed50152818161203a0152818161261301526127240152600081816121e701526123a1015260008181610c3801528181610d6a01528181611137015281816112260152818161133a0152818161176d01528181611ce601528181612158015261263701526136896000f3fe608060405234801561001057600080fd5b506004361061023d5760003560e01c8063853828b61161013b578063db2e21bc116100b8578063f0f442601161007c578063f0f44260146105cb578063f2fde38b146105e7578063f851a44014610603578063fb1db27814610621578063fc0c546a1461063f5761023d565b8063db2e21bc1461054b578063def68a9c14610555578063df10b4e614610571578063e941fa781461058f578063ec78e832146105ad5761023d565b8063b6ac642a116100ff578063b6ac642a146104b9578063b6b55f25146104d5578063bb5505e2146104f1578063bdca91651461050f578063d4b0de2f1461052d5761023d565b8063853828b61461043757806387788782146104415780638da5cb5b1461045f57806390321e1a1461047d578063b60f05311461049b5761023d565b80634641257d116101c957806370897b231161018d57806370897b23146103cb578063715018a6146103e7578063722713f7146103f157806377c7b8fc1461040f5780638456cb591461042d5761023d565b80634641257d1461034b57806348a0d754146103555780635c975abb1461037357806361d027b314610391578063704b6c02146103af5761023d565b80632ad5a53f116102105780632ad5a53f146102cb5780632cfc5f01146102e95780632e1a7d4d146103075780633a98ef39146103235780633f4ba83a146103415761023d565b80631959a002146102425780631efac1b81461027557806325b298041461029157806326465826146102af575b600080fd5b61025c60048036038101906102579190612974565b61065d565b60405161026c94939291906133a3565b60405180910390f35b61028f600480360381019061028a91906129c6565b61068d565b005b61029961076d565b6040516102a69190613328565b60405180910390f35b6102c960048036038101906102c491906129c6565b61085a565b005b6102d3610938565b6040516102e09190613328565b60405180910390f35b6102f161093d565b6040516102fe9190613328565b60405180910390f35b610321600480360381019061031c91906129c6565b610944565b005b61032b610e6c565b6040516103389190613328565b60405180910390f35b610349610e72565b005b610353610f7f565b005b61035d611336565b60405161036a9190613328565b60405180910390f35b61037b6113e6565b6040516103889190613073565b60405180910390f35b6103996113fc565b6040516103a69190612ff8565b60405180910390f35b6103c960048036038101906103c49190612974565b611422565b005b6103e560048036038101906103e091906129c6565b611552565b005b6103ef611631565b005b6103f96116b9565b6040516104069190613328565b60405180910390f35b610417611824565b6040516104249190613328565b60405180910390f35b61043561186b565b005b61043f611979565b005b610449611a7d565b6040516104569190613328565b60405180910390f35b610467611a83565b6040516104749190612ff8565b60405180910390f35b610485611aac565b6040516104929190613328565b60405180910390f35b6104a3611ab2565b6040516104b09190613328565b60405180910390f35b6104d360048036038101906104ce91906129c6565b611ab8565b005b6104ef60048036038101906104ea91906129c6565b611b96565b005b6104f9611ed0565b6040516105069190613328565b60405180910390f35b610517611f9d565b6040516105249190613328565b60405180910390f35b610535611fa3565b6040516105429190613328565b60405180910390f35b610553611fa8565b005b61056f600480360381019061056a9190612974565b6120c6565b005b610579612393565b6040516105869190613328565b60405180910390f35b610597612399565b6040516105a49190613328565b60405180910390f35b6105b561239f565b6040516105c2919061308e565b60405180910390f35b6105e560048036038101906105e09190612974565b6123c3565b005b61060160048036038101906105fc9190612974565b6124f3565b005b61060b6125eb565b6040516106189190612ff8565b60405180910390f35b610629612611565b60405161063691906130a9565b60405180910390f35b610647612635565b604051610654919061308e565b60405180910390f35b60016020528060005260406000206000915090508060000154908060010154908060020154908060030154905084565b600460009054906101000a900473ffffffffffffffffffffffffffffffffffffffff1673ffffffffffffffffffffffffffffffffffffffff163373ffffffffffffffffffffffffffffffffffffffff161461071d576040517f08c379a0000000000000000000000000000000000000000000000000000000008152600401610714906132c8565b60405180910390fd5b6203f480811115610763576040517f08c379a000000000000000000000000000000000000000000000000000000000815260040161075a906132e8565b60405180910390fd5b8060098190555050565b6000807f000000000000000000000000000000000000000000000000000000000000000073ffffffffffffffffffffffffffffffffffffffff1663bfafcad56000306040518363ffffffff1660e01b81526004016107cc9291906130df565b60206040518083038186803b1580156107e457600080fd5b505afa1580156107f8573d6000803e3d6000fd5b505050506040513d601f19601f8201168201806040525081019061081c91906129ef565b9050610826611336565b8161083191906133f9565b90506000612710600754836108469190613480565b610850919061344f565b9050809250505090565b600460009054906101000a900473ffffffffffffffffffffffffffffffffffffffff1673ffffffffffffffffffffffffffffffffffffffff163373ffffffffffffffffffffffffffffffffffffffff16146108ea576040517f08c379a00000000000000000000000000000000000000000000000000000000081526004016108e1906132c8565b60405180910390fd5b606481111561092e576040517f08c379a000000000000000000000000000000000000000000000000000000000815260040161092590613208565b60405180910390fd5b8060078190555050565b606481565b6203f48081565b61094d33612659565b1561098d576040517f08c379a0000000000000000000000000000000000000000000000000000000008152600401610984906132a8565b60405180910390fd5b3273ffffffffffffffffffffffffffffffffffffffff163373ffffffffffffffffffffffffffffffffffffffff16146109fb576040517f08c379a00000000000000000000000000000000000000000000000000000000081526004016109f290613128565b60405180910390fd5b6000600160003373ffffffffffffffffffffffffffffffffffffffff1673ffffffffffffffffffffffffffffffffffffffff168152602001908152602001600020905060008211610a81576040517f08c379a0000000000000000000000000000000000000000000000000000000008152600401610a7890613168565b60405180910390fd5b8060000154821115610ac8576040517f08c379a0000000000000000000000000000000000000000000000000000000008152600401610abf906131c8565b60405180910390fd5b600060025483610ad66116b9565b610ae09190613480565b610aea919061344f565b9050828260000154610afc91906134da565b826000018190555082600254610b1291906134da565b6002819055506000610b22611336565b905081811015610bfe5760008183610b3a91906134da565b90507f000000000000000000000000000000000000000000000000000000000000000073ffffffffffffffffffffffffffffffffffffffff16631058d281826040518263ffffffff1660e01b8152600401610b959190613328565b600060405180830381600087803b158015610baf57600080fd5b505af1158015610bc3573d6000803e3d6000fd5b505050506000610bd1611336565b905060008382610be191906134da565b905082811015610bfa578084610bf791906133f9565b94505b5050505b6009548360010154610c1091906133f9565b421015610d1657600061271060085484610c2a9190613480565b610c34919061344f565b90507f000000000000000000000000000000000000000000000000000000000000000073ffffffffffffffffffffffffffffffffffffffff1663a9059cbb600560009054906101000a900473ffffffffffffffffffffffffffffffffffffffff16836040518363ffffffff1660e01b8152600401610cb392919061304a565b602060405180830381600087803b158015610ccd57600080fd5b505af1158015610ce1573d6000803e3d6000fd5b505050506040513d601f19601f82011682018060405250810190610d05919061299d565b508083610d1291906134da565b9250505b600083600001541115610d5457600254610d2e6116b9565b8460000154610d3d9190613480565b610d47919061344f565b8360020181905550610d5f565b600083600201819055505b4283600301819055507f000000000000000000000000000000000000000000000000000000000000000073ffffffffffffffffffffffffffffffffffffffff1663a9059cbb33846040518363ffffffff1660e01b8152600401610dc392919061304a565b602060405180830381600087803b158015610ddd57600080fd5b505af1158015610df1573d6000803e3d6000fd5b505050506040513d601f19601f82011682018060405250810190610e15919061299d565b503373ffffffffffffffffffffffffffffffffffffffff167ff279e6a1f5e320cca91135676d9cb6e44ca8a08c0b88342bcdb1144f6511b5688386604051610e5e929190613343565b60405180910390a250505050565b60025481565b600460009054906101000a900473ffffffffffffffffffffffffffffffffffffffff1673ffffffffffffffffffffffffffffffffffffffff163373ffffffffffffffffffffffffffffffffffffffff1614610f02576040517f08c379a0000000000000000000000000000000000000000000000000000000008152600401610ef9906132c8565b60405180910390fd5b610f0a6113e6565b610f49576040517f08c379a0000000000000000000000000000000000000000000000000000000008152600401610f4090613148565b60405180910390fd5b610f5161266c565b7f7805862f689e2f13df9f062ff482ad3ad112aca9e0847911ed832e158c525b3360405160405180910390a1565b610f8833612659565b15610fc8576040517f08c379a0000000000000000000000000000000000000000000000000000000008152600401610fbf906132a8565b60405180910390fd5b3273ffffffffffffffffffffffffffffffffffffffff163373ffffffffffffffffffffffffffffffffffffffff1614611036576040517f08c379a000000000000000000000000000000000000000000000000000000000815260040161102d90613128565b60405180910390fd5b61103e6113e6565b1561107e576040517f08c379a000000000000000000000000000000000000000000000000000000000815260040161107590613248565b60405180910390fd5b7f000000000000000000000000000000000000000000000000000000000000000073ffffffffffffffffffffffffffffffffffffffff16631058d28160006040518263ffffffff1660e01b81526004016110d891906130c4565b600060405180830381600087803b1580156110f257600080fd5b505af1158015611106573d6000803e3d6000fd5b505050506000611114611336565b90506000612710600654836111299190613480565b611133919061344f565b90507f000000000000000000000000000000000000000000000000000000000000000073ffffffffffffffffffffffffffffffffffffffff1663a9059cbb600560009054906101000a900473ffffffffffffffffffffffffffffffffffffffff16836040518363ffffffff1660e01b81526004016111b292919061304a565b602060405180830381600087803b1580156111cc57600080fd5b505af11580156111e0573d6000803e3d6000fd5b505050506040513d601f19601f82011682018060405250810190611204919061299d565b506000612710600754846112189190613480565b611222919061344f565b90507f000000000000000000000000000000000000000000000000000000000000000073ffffffffffffffffffffffffffffffffffffffff1663a9059cbb33836040518363ffffffff1660e01b815260040161127f92919061304a565b602060405180830381600087803b15801561129957600080fd5b505af11580156112ad573d6000803e3d6000fd5b505050506040513d601f19601f820116820180604052508101906112d1919061299d565b506112da61270d565b426003819055503373ffffffffffffffffffffffffffffffffffffffff167f71bab65ced2e5750775a0613be067df48ef06cf92a496ebf7663ae06609249548383604051611329929190613343565b60405180910390a2505050565b60007f000000000000000000000000000000000000000000000000000000000000000073ffffffffffffffffffffffffffffffffffffffff166370a08231306040518263ffffffff1660e01b81526004016113919190612ff8565b60206040518083038186803b1580156113a957600080fd5b505afa1580156113bd573d6000803e3d6000fd5b505050506040513d601f19601f820116820180604052508101906113e191906129ef565b905090565b60008060149054906101000a900460ff16905090565b600560009054906101000a900473ffffffffffffffffffffffffffffffffffffffff1681565b61142a6127b1565b73ffffffffffffffffffffffffffffffffffffffff16611448611a83565b73ffffffffffffffffffffffffffffffffffffffff161461149e576040517f08c379a000000000000000000000000000000000000000000000000000000000815260040161149590613288565b60405180910390fd5b600073ffffffffffffffffffffffffffffffffffffffff168173ffffffffffffffffffffffffffffffffffffffff16141561150e576040517f08c379a000000000000000000000000000000000000000000000000000000000815260040161150590613268565b60405180910390fd5b80600460006101000a81548173ffffffffffffffffffffffffffffffffffffffff021916908373ffffffffffffffffffffffffffffffffffffffff16021790555050565b600460009054906101000a900473ffffffffffffffffffffffffffffffffffffffff1673ffffffffffffffffffffffffffffffffffffffff163373ffffffffffffffffffffffffffffffffffffffff16146115e2576040517f08c379a00000000000000000000000000000000000000000000000000000000081526004016115d9906132c8565b60405180910390fd5b6101f4811115611627576040517f08c379a000000000000000000000000000000000000000000000000000000000815260040161161e90613228565b60405180910390fd5b8060068190555050565b6116396127b1565b73ffffffffffffffffffffffffffffffffffffffff16611657611a83565b73ffffffffffffffffffffffffffffffffffffffff16146116ad576040517f08c379a00000000000000000000000000000000000000000000000000000000081526004016116a490613288565b60405180910390fd5b6116b760006127b9565b565b6000807f000000000000000000000000000000000000000000000000000000000000000073ffffffffffffffffffffffffffffffffffffffff166393f1a40b6000306040518363ffffffff1660e01b81526004016117189291906130df565b604080518083038186803b15801561172f57600080fd5b505afa158015611743573d6000803e3d6000fd5b505050506040513d601f19601f820116820180604052508101906117679190612a18565b509050807f000000000000000000000000000000000000000000000000000000000000000073ffffffffffffffffffffffffffffffffffffffff166370a08231306040518263ffffffff1660e01b81526004016117c49190612ff8565b60206040518083038186803b1580156117dc57600080fd5b505afa1580156117f0573d6000803e3d6000fd5b505050506040513d601f19601f8201168201806040525081019061181491906129ef565b61181e91906133f9565b91505090565b6000806002541461185c57600254670de0b6b3a76400006118436116b9565b61184d9190613480565b611857919061344f565b611866565b670de0b6b3a76400005b905090565b600460009054906101000a900473ffffffffffffffffffffffffffffffffffffffff1673ffffffffffffffffffffffffffffffffffffffff163373ffffffffffffffffffffffffffffffffffffffff16146118fb576040517f08c379a00000000000000000000000000000000000000000000000000000000081526004016118f2906132c8565b60405180910390fd5b6119036113e6565b15611943576040517f08c379a000000000000000000000000000000000000000000000000000000000815260040161193a90613248565b60405180910390fd5b61194b61287d565b7f6985a02210a168e66602d3235cb6db0e70f92b3ba4d376a33c0f3d9434bff62560405160405180910390a1565b61198233612659565b156119c2576040517f08c379a00000000000000000000000000000000000000000000000000000000081526004016119b9906132a8565b60405180910390fd5b3273ffffffffffffffffffffffffffffffffffffffff163373ffffffffffffffffffffffffffffffffffffffff1614611a30576040517f08c379a0000000000000000000000000000000000000000000000000000000008152600401611a2790613128565b60405180910390fd5b611a7b600160003373ffffffffffffffffffffffffffffffffffffffff1673ffffffffffffffffffffffffffffffffffffffff16815260200190815260200160002060000154610944565b565b60065481565b60008060009054906101000a900473ffffffffffffffffffffffffffffffffffffffff16905090565b60075481565b60035481565b600460009054906101000a900473ffffffffffffffffffffffffffffffffffffffff1673ffffffffffffffffffffffffffffffffffffffff163373ffffffffffffffffffffffffffffffffffffffff1614611b48576040517f08c379a0000000000000000000000000000000000000000000000000000000008152600401611b3f906132c8565b60405180910390fd5b6064811115611b8c576040517f08c379a0000000000000000000000000000000000000000000000000000000008152600401611b8390613308565b60405180910390fd5b8060088190555050565b611b9e6113e6565b15611bde576040517f08c379a0000000000000000000000000000000000000000000000000000000008152600401611bd590613248565b60405180910390fd5b611be733612659565b15611c27576040517f08c379a0000000000000000000000000000000000000000000000000000000008152600401611c1e906132a8565b60405180910390fd5b3273ffffffffffffffffffffffffffffffffffffffff163373ffffffffffffffffffffffffffffffffffffffff1614611c95576040517f08c379a0000000000000000000000000000000000000000000000000000000008152600401611c8c90613128565b60405180910390fd5b60008111611cd8576040517f08c379a0000000000000000000000000000000000000000000000000000000008152600401611ccf90613108565b60405180910390fd5b6000611ce26116b9565b90507f000000000000000000000000000000000000000000000000000000000000000073ffffffffffffffffffffffffffffffffffffffff166323b872dd3330856040518463ffffffff1660e01b8152600401611d4193929190613013565b602060405180830381600087803b158015611d5b57600080fd5b505af1158015611d6f573d6000803e3d6000fd5b505050506040513d601f19601f82011682018060405250810190611d93919061299d565b5060008060025414611dbf578160025484611dae9190613480565b611db8919061344f565b9050611dc3565b8290505b6000600160003373ffffffffffffffffffffffffffffffffffffffff1673ffffffffffffffffffffffffffffffffffffffff1681526020019081526020016000209050818160000154611e1691906133f9565b816000018190555042816001018190555081600254611e3591906133f9565b600281905550600254611e466116b9565b8260000154611e559190613480565b611e5f919061344f565b8160020181905550428160030181905550611e7861270d565b3373ffffffffffffffffffffffffffffffffffffffff167f36af321ec8d3c75236829c5317affd40ddb308863a1236d2d277a4025cccee1e858442604051611ec29392919061336c565b60405180910390a250505050565b6000807f000000000000000000000000000000000000000000000000000000000000000073ffffffffffffffffffffffffffffffffffffffff1663bfafcad56000306040518363ffffffff1660e01b8152600401611f2f9291906130df565b60206040518083038186803b158015611f4757600080fd5b505afa158015611f5b573d6000803e3d6000fd5b505050506040513d601f19601f82011682018060405250810190611f7f91906129ef565b9050611f89611336565b81611f9491906133f9565b90508091505090565b6101f481565b606481565b600460009054906101000a900473ffffffffffffffffffffffffffffffffffffffff1673ffffffffffffffffffffffffffffffffffffffff163373ffffffffffffffffffffffffffffffffffffffff1614612038576040517f08c379a000000000000000000000000000000000000000000000000000000000815260040161202f906132c8565b60405180910390fd5b7f000000000000000000000000000000000000000000000000000000000000000073ffffffffffffffffffffffffffffffffffffffff16635312ea8e60006040518263ffffffff1660e01b815260040161209291906130c4565b600060405180830381600087803b1580156120ac57600080fd5b505af11580156120c0573d6000803e3d6000fd5b50505050565b600460009054906101000a900473ffffffffffffffffffffffffffffffffffffffff1673ffffffffffffffffffffffffffffffffffffffff163373ffffffffffffffffffffffffffffffffffffffff1614612156576040517f08c379a000000000000000000000000000000000000000000000000000000000815260040161214d906132c8565b60405180910390fd5b7f000000000000000000000000000000000000000000000000000000000000000073ffffffffffffffffffffffffffffffffffffffff168173ffffffffffffffffffffffffffffffffffffffff1614156121e5576040517f08c379a00000000000000000000000000000000000000000000000000000000081526004016121dc906131a8565b60405180910390fd5b7f000000000000000000000000000000000000000000000000000000000000000073ffffffffffffffffffffffffffffffffffffffff168173ffffffffffffffffffffffffffffffffffffffff161415612274576040517f08c379a000000000000000000000000000000000000000000000000000000000815260040161226b906131e8565b60405180910390fd5b60008173ffffffffffffffffffffffffffffffffffffffff166370a08231306040518263ffffffff1660e01b81526004016122af9190612ff8565b60206040518083038186803b1580156122c757600080fd5b505afa1580156122db573d6000803e3d6000fd5b505050506040513d601f19601f820116820180604052508101906122ff91906129ef565b90508173ffffffffffffffffffffffffffffffffffffffff1663a9059cbb33836040518363ffffffff1660e01b815260040161233c92919061304a565b602060405180830381600087803b15801561235657600080fd5b505af115801561236a573d6000803e3d6000fd5b505050506040513d601f19601f8201168201806040525081019061238e919061299d565b505050565b60095481565b60085481565b7f000000000000000000000000000000000000000000000000000000000000000081565b6123cb6127b1565b73ffffffffffffffffffffffffffffffffffffffff166123e9611a83565b73ffffffffffffffffffffffffffffffffffffffff161461243f576040517f08c379a000000000000000000000000000000000000000000000000000000000815260040161243690613288565b60405180910390fd5b600073ffffffffffffffffffffffffffffffffffffffff168173ffffffffffffffffffffffffffffffffffffffff1614156124af576040517f08c379a00000000000000000000000000000000000000000000000000000000081526004016124a690613268565b60405180910390fd5b80600560006101000a81548173ffffffffffffffffffffffffffffffffffffffff021916908373ffffffffffffffffffffffffffffffffffffffff16021790555050565b6124fb6127b1565b73ffffffffffffffffffffffffffffffffffffffff16612519611a83565b73ffffffffffffffffffffffffffffffffffffffff161461256f576040517f08c379a000000000000000000000000000000000000000000000000000000000815260040161256690613288565b60405180910390fd5b600073ffffffffffffffffffffffffffffffffffffffff168173ffffffffffffffffffffffffffffffffffffffff1614156125df576040517f08c379a00000000000000000000000000000000000000000000000000000000081526004016125d690613188565b60405180910390fd5b6125e8816127b9565b50565b600460009054906101000a900473ffffffffffffffffffffffffffffffffffffffff1681565b7f000000000000000000000000000000000000000000000000000000000000000081565b7f000000000000000000000000000000000000000000000000000000000000000081565b600080823b905060008111915050919050565b6126746113e6565b6126b3576040517f08c379a00000000000000000000000000000000000000000000000000000000081526004016126aa90613148565b60405180910390fd5b60008060146101000a81548160ff0219169083151502179055507f5db9ee0a495bf2e6ff9c91a7834c1ba4fdd244a5e8aa4e537bd38aeae4b073aa6126f66127b1565b6040516127039190612ff8565b60405180910390a1565b6000612717611336565b905060008111156127ae577f000000000000000000000000000000000000000000000000000000000000000073ffffffffffffffffffffffffffffffffffffffff166341441d3b826040518263ffffffff1660e01b815260040161277b9190613328565b600060405180830381600087803b15801561279557600080fd5b505af11580156127a9573d6000803e3d6000fd5b505050505b50565b600033905090565b60008060009054906101000a900473ffffffffffffffffffffffffffffffffffffffff169050816000806101000a81548173ffffffffffffffffffffffffffffffffffffffff021916908373ffffffffffffffffffffffffffffffffffffffff1602179055508173ffffffffffffffffffffffffffffffffffffffff168173ffffffffffffffffffffffffffffffffffffffff167f8be0079c531659141344cd1fd0a4f28419497f9722a3daafe3b4186f6b6457e060405160405180910390a35050565b6128856113e6565b156128c5576040517f08c379a00000000000000000000000000000000000000000000000000000000081526004016128bc90613248565b60405180910390fd5b6001600060146101000a81548160ff0219169083151502179055507f62e78cea01bee320cd4e420270b5ea74000d11b0c9f74754ebdbfc544b05a2586129096127b1565b6040516129169190612ff8565b60405180910390a1565b60008135905061292f8161360e565b92915050565b60008151905061294481613625565b92915050565b6000813590506129598161363c565b92915050565b60008151905061296e8161363c565b92915050565b60006020828403121561298657600080fd5b600061299484828501612920565b91505092915050565b6000602082840312156129af57600080fd5b60006129bd84828501612935565b91505092915050565b6000602082840312156129d857600080fd5b60006129e68482850161294a565b91505092915050565b600060208284031215612a0157600080fd5b6000612a0f8482850161295f565b91505092915050565b60008060408385031215612a2b57600080fd5b6000612a398582860161295f565b9250506020612a4a8582860161295f565b9150509250929050565b612a5d8161350e565b82525050565b612a6c81613520565b82525050565b612a7b81613556565b82525050565b612a8a8161357a565b82525050565b612a998161359e565b82525050565b6000612aac6012836133e8565b91507f4e6f7468696e6720746f206465706f73697400000000000000000000000000006000830152602082019050919050565b6000612aec601a836133e8565b91507f70726f787920636f6e7472616374206e6f7420616c6c6f7765640000000000006000830152602082019050919050565b6000612b2c6014836133e8565b91507f5061757361626c653a206e6f74207061757365640000000000000000000000006000830152602082019050919050565b6000612b6c6013836133e8565b91507f4e6f7468696e6720746f207769746864726177000000000000000000000000006000830152602082019050919050565b6000612bac6026836133e8565b91507f4f776e61626c653a206e6577206f776e657220697320746865207a65726f206160008301527f64647265737300000000000000000000000000000000000000000000000000006020830152604082019050919050565b6000612c126025836133e8565b91507f546f6b656e2063616e6e6f742062652073616d65206173206465706f7369742060008301527f746f6b656e0000000000000000000000000000000000000000000000000000006020830152604082019050919050565b6000612c78601f836133e8565b91507f576974686472617720616d6f756e7420657863656564732062616c616e6365006000830152602082019050919050565b6000612cb86025836133e8565b91507f546f6b656e2063616e6e6f742062652073616d6520617320726563656970742060008301527f746f6b656e0000000000000000000000000000000000000000000000000000006020830152604082019050919050565b6000612d1e6028836133e8565b91507f63616c6c4665652063616e6e6f74206265206d6f7265207468616e204d41585f60008301527f43414c4c5f4645450000000000000000000000000000000000000000000000006020830152604082019050919050565b6000612d846036836133e8565b91507f706572666f726d616e63654665652063616e6e6f74206265206d6f726520746860008301527f616e204d41585f504552464f524d414e43455f464545000000000000000000006020830152604082019050919050565b6000612dea6010836133e8565b91507f5061757361626c653a20706175736564000000000000000000000000000000006000830152602082019050919050565b6000612e2a6016836133e8565b91507f43616e6e6f74206265207a65726f2061646472657373000000000000000000006000830152602082019050919050565b6000612e6a6020836133e8565b91507f4f776e61626c653a2063616c6c6572206973206e6f7420746865206f776e65726000830152602082019050919050565b6000612eaa6014836133e8565b91507f636f6e7472616374206e6f7420616c6c6f7765640000000000000000000000006000830152602082019050919050565b6000612eea600b836133e8565b91507f61646d696e3a207775743f0000000000000000000000000000000000000000006000830152602082019050919050565b6000612f2a603d836133e8565b91507f7769746864726177466565506572696f642063616e6e6f74206265206d6f726560008301527f207468616e204d41585f57495448445241575f4645455f504552494f440000006020830152604082019050919050565b6000612f906030836133e8565b91507f77697468647261774665652063616e6e6f74206265206d6f7265207468616e2060008301527f4d41585f57495448445241575f464545000000000000000000000000000000006020830152604082019050919050565b612ff28161354c565b82525050565b600060208201905061300d6000830184612a54565b92915050565b60006060820190506130286000830186612a54565b6130356020830185612a54565b6130426040830184612fe9565b949350505050565b600060408201905061305f6000830185612a54565b61306c6020830184612fe9565b9392505050565b60006020820190506130886000830184612a63565b92915050565b60006020820190506130a36000830184612a72565b92915050565b60006020820190506130be6000830184612a81565b92915050565b60006020820190506130d96000830184612a90565b92915050565b60006040820190506130f46000830185612a90565b6131016020830184612a54565b9392505050565b6000602082019050818103600083015261312181612a9f565b9050919050565b6000602082019050818103600083015261314181612adf565b9050919050565b6000602082019050818103600083015261316181612b1f565b9050919050565b6000602082019050818103600083015261318181612b5f565b9050919050565b600060208201905081810360008301526131a181612b9f565b9050919050565b600060208201905081810360008301526131c181612c05565b9050919050565b600060208201905081810360008301526131e181612c6b565b9050919050565b6000602082019050818103600083015261320181612cab565b9050919050565b6000602082019050818103600083015261322181612d11565b9050919050565b6000602082019050818103600083015261324181612d77565b9050919050565b6000602082019050818103600083015261326181612ddd565b9050919050565b6000602082019050818103600083015261328181612e1d565b9050919050565b600060208201905081810360008301526132a181612e5d565b9050919050565b600060208201905081810360008301526132c181612e9d565b9050919050565b600060208201905081810360008301526132e181612edd565b9050919050565b6000602082019050818103600083015261330181612f1d565b9050919050565b6000602082019050818103600083015261332181612f83565b9050919050565b600060208201905061333d6000830184612fe9565b92915050565b60006040820190506133586000830185612fe9565b6133656020830184612fe9565b9392505050565b60006060820190506133816000830186612fe9565b61338e6020830185612fe9565b61339b6040830184612fe9565b949350505050565b60006080820190506133b86000830187612fe9565b6133c56020830186612fe9565b6133d26040830185612fe9565b6133df6060830184612fe9565b95945050505050565b600082825260208201905092915050565b60006134048261354c565b915061340f8361354c565b9250827fffffffffffffffffffffffffffffffffffffffffffffffffffffffffffffffff03821115613444576134436135b0565b5b828201905092915050565b600061345a8261354c565b91506134658361354c565b925082613475576134746135df565b5b828204905092915050565b600061348b8261354c565b91506134968361354c565b9250817fffffffffffffffffffffffffffffffffffffffffffffffffffffffffffffffff04831182151516156134cf576134ce6135b0565b5b828202905092915050565b60006134e58261354c565b91506134f08361354c565b925082821015613503576135026135b0565b5b828203905092915050565b60006135198261352c565b9050919050565b60008115159050919050565b600073ffffffffffffffffffffffffffffffffffffffff82169050919050565b6000819050919050565b600061356182613568565b9050919050565b60006135738261352c565b9050919050565b60006135858261358c565b9050919050565b60006135978261352c565b9050919050565b60006135a98261354c565b9050919050565b7f4e487b7100000000000000000000000000000000000000000000000000000000600052601160045260246000fd5b7f4e487b7100000000000000000000000000000000000000000000000000000000600052601260045260246000fd5b6136178161350e565b811461362257600080fd5b50565b61362e81613520565b811461363957600080fd5b50565b6136458161354c565b811461365057600080fd5b5056fea2646970667358221220127b51840ccbf60fc02794724237436c8d6b617087f21857a96ab95bc79e880364736f6c63430008000033",
  "immutableReferences": {
    "3776": [
      {
        "length": 32,
        "start": 3128
      },
      {
        "length": 32,
        "start": 3434
      },
      {
        "length": 32,
        "start": 4407
      },
      {
        "length": 32,
        "start": 4646
      },
      {
        "length": 32,
        "start": 4922
      },
      {
        "length": 32,
        "start": 5997
      },
      {
        "length": 32,
        "start": 7398
      },
      {
        "length": 32,
        "start": 8536
      },
      {
        "length": 32,
        "start": 9783
      }
    ],
    "3779": [
      {
        "length": 32,
        "start": 8679
      },
      {
        "length": 32,
        "start": 9121
      }
    ],
    "3782": [
      {
        "length": 32,
        "start": 1906
      },
      {
        "length": 32,
        "start": 2878
      },
      {
        "length": 32,
        "start": 4224
      },
      {
        "length": 32,
        "start": 5822
      },
      {
        "length": 32,
        "start": 7893
      },
      {
        "length": 32,
        "start": 8250
      },
      {
        "length": 32,
        "start": 9747
      },
      {
        "length": 32,
        "start": 10020
      }
    ]
  },
  "source": "// SPDX-License-Identifier: MIT\n\n/**\n    SoulVault stakes everyone's SOUL (as a single entity) & distributes the rewards accordingly to \n    the user's share of the total stake, calculated with the same logic as MasterChef.\n\n    The user needs to approve the contract address with SOUL `allowance()` in order to deposit.\n */\n\npragma solidity ^0.8.0;\n\nimport '@openzeppelin/contracts/utils/Context.sol';\nimport '@openzeppelin/contracts/access/Ownable.sol';\nimport '@openzeppelin/contracts/token/ERC20/IERC20.sol';\nimport '@openzeppelin/contracts/utils/Address.sol';\nimport '@openzeppelin/contracts/security/Pausable.sol';\nimport './libs/IMasterChef.sol';\n\ncontract SoulVault is Ownable, Pausable {\n\n    struct UserInfo {\n        uint256 shares; // number of shares for a user\n        uint256 lastDepositedTime; // keeps track of deposited time for potential penalty\n        uint256 soulAtLastUserAction; // keeps track of soul deposited at the last user action\n        uint256 lastUserActionTime; // keeps track of the last user action time\n    }\n\n    IERC20 public immutable token; // Soul token\n    IERC20 public immutable receiptToken; // Seance token\n\n    IMasterChef public immutable masterchef;\n\n    mapping(address => UserInfo) public userInfo;\n\n    uint256 public totalShares;\n    uint256 public lastHarvestedTime;\n    address public admin;\n    address public treasury;\n\n    uint256 public constant MAX_PERFORMANCE_FEE = 500; // 5%\n    uint256 public constant MAX_CALL_FEE = 100; // 1%\n    uint256 public constant MAX_WITHDRAW_FEE = 100; // 1%\n    uint256 public constant MAX_WITHDRAW_FEE_PERIOD = 72 hours; // 3 days\n\n    uint256 public performanceFee = 200; // 2%\n    uint256 public callFee = 25; // 0.25%\n    uint256 public withdrawFee = 10; // 0.1%\n    uint256 public withdrawFeePeriod = 72 hours; // 3 days\n\n    event Deposit(address indexed sender, uint256 amount, uint256 shares, uint256 lastDepositedTime);\n    event Withdraw(address indexed sender, uint256 amount, uint256 shares);\n    event Harvest(address indexed sender, uint256 performanceFee, uint256 callFee);\n    event Pause();\n    event Unpause();\n\n    /**\n     * @notice Constructor\n     * @param _token: Soul token contract\n     * @param _receiptToken: Seance token contract\n     * @param _masterchef: MasterChef contract\n     * @param _admin: address of the admin\n     * @param _treasury: address of the treasury (collects fees)\n     */\n    constructor(\n        IERC20 _token,\n        IERC20 _receiptToken,\n        IMasterChef _masterchef,\n        address _admin,\n        address _treasury\n    ) {\n        token = _token;\n        receiptToken = _receiptToken;\n        masterchef = _masterchef;\n        admin = _admin;\n        treasury = _treasury;\n\n        // Infinite approve\n        IERC20(_token).approve(address(_masterchef), type(uint256).max);\n    }\n\n    /**\n     * @notice Checks if the msg.sender is the admin address\n     */\n    modifier onlyAdmin() {\n        require(msg.sender == admin, \"admin: wut?\");\n        _;\n    }\n\n    /**\n     * @notice Checks if the msg.sender is a contract or a proxy\n     */\n    modifier notContract() {\n        require(!_isContract(msg.sender), \"contract not allowed\");\n        require(msg.sender == tx.origin, \"proxy contract not allowed\");\n        _;\n    }\n\n    /**\n     * @notice Deposits funds into the Soul Vault\n     * @dev Only possible when contract not paused & user has approved tokens for transferFrom.\n     * @param _amount: number of tokens to deposit (in SOUL)\n     */\n    function deposit(uint256 _amount) external whenNotPaused notContract {\n        require(_amount > 0, \"Nothing to deposit\");\n\n        uint256 pool = balanceOf();\n        token.transferFrom(msg.sender, address(this), _amount);\n        uint256 currentShares = 0;\n        if (totalShares != 0) {\n            currentShares = (_amount * totalShares) / pool;\n        } else {\n            currentShares = _amount;\n        }\n        UserInfo storage user = userInfo[msg.sender];\n\n        user.shares = user.shares + currentShares;\n        user.lastDepositedTime = block.timestamp;\n\n        totalShares = totalShares + currentShares;\n\n        user.soulAtLastUserAction = (user.shares * balanceOf()) / totalShares;\n        user.lastUserActionTime = block.timestamp;\n\n        _earn();\n\n        emit Deposit(msg.sender, _amount, currentShares, block.timestamp);\n    }\n\n    /**\n     * @notice Withdraws all funds for the caller\n     */\n    function withdrawAll() external notContract {\n        withdraw(userInfo[msg.sender].shares);\n    }\n\n    /**\n     * @notice Reinvests SOUL tokens into MasterChef\n     * @dev Only possible when contract not paused.\n     */\n    function harvest() external notContract whenNotPaused {\n        IMasterChef(masterchef).leaveStaking(0);\n\n        uint256 bal = available();\n        uint256 currentPerformanceFee = (bal * performanceFee) / 10000;\n        token.transfer(treasury, currentPerformanceFee);\n\n        uint256 currentCallFee = (bal * callFee) / 10000;\n        token.transfer(msg.sender, currentCallFee);\n\n        _earn();\n\n        lastHarvestedTime = block.timestamp;\n\n        emit Harvest(msg.sender, currentPerformanceFee, currentCallFee);\n    }\n\n    /**\n     * @notice Sets admin address\n     * @dev Only callable by the contract owner.\n     */\n    function setAdmin(address _admin) external onlyOwner {\n        require(_admin != address(0), \"Cannot be zero address\");\n        admin = _admin;\n    }\n\n    /**\n     * @notice Sets treasury address\n     * @dev Only callable by the contract owner.\n     */\n    function setTreasury(address _treasury) external onlyOwner {\n        require(_treasury != address(0), \"Cannot be zero address\");\n        treasury = _treasury;\n    }\n\n    /**\n     * @notice Sets performance fee\n     * @dev Only callable by the contract admin.\n     */\n    function setPerformanceFee(uint256 _performanceFee) external onlyAdmin {\n        require(_performanceFee <= MAX_PERFORMANCE_FEE, \"performanceFee cannot be more than MAX_PERFORMANCE_FEE\");\n        performanceFee = _performanceFee;\n    }\n\n    /**\n     * @notice Sets call fee\n     * @dev Only callable by the contract admin.\n     */\n    function setCallFee(uint256 _callFee) external onlyAdmin {\n        require(_callFee <= MAX_CALL_FEE, \"callFee cannot be more than MAX_CALL_FEE\");\n        callFee = _callFee;\n    }\n\n    /**\n     * @notice Sets withdraw fee\n     * @dev Only callable by the contract admin.\n     */\n    function setWithdrawFee(uint256 _withdrawFee) external onlyAdmin {\n        require(_withdrawFee <= MAX_WITHDRAW_FEE, \"withdrawFee cannot be more than MAX_WITHDRAW_FEE\");\n        withdrawFee = _withdrawFee;\n    }\n\n    /**\n     * @notice Sets withdraw fee period\n     * @dev Only callable by the contract admin.\n     */\n    function setWithdrawFeePeriod(uint256 _withdrawFeePeriod) external onlyAdmin {\n        require(\n            _withdrawFeePeriod <= MAX_WITHDRAW_FEE_PERIOD,\n            \"withdrawFeePeriod cannot be more than MAX_WITHDRAW_FEE_PERIOD\"\n        );\n        withdrawFeePeriod = _withdrawFeePeriod;\n    }\n\n    /**\n     * @notice Withdraws from MasterChef to Vault without caring about rewards.\n     * @dev EMERGENCY ONLY. Only callable by the contract admin.\n     */\n    function emergencyWithdraw() external onlyAdmin {\n        IMasterChef(masterchef).emergencyWithdraw(0);\n    }\n\n    /**\n     * @notice Withdraw unexpected tokens sent to the Soul Vault\n     */\n    function inCaseTokensGetStuck(address _token) external onlyAdmin {\n        require(_token != address(token), \"Token cannot be same as deposit token\");\n        require(_token != address(receiptToken), \"Token cannot be same as receipt token\");\n\n        uint256 amount = IERC20(_token).balanceOf(address(this));\n        IERC20(_token).transfer(msg.sender, amount);\n    }\n\n    /**\n     * @notice Triggers stopped state\n     * @dev Only possible when contract not paused.\n     */\n    function pause() external onlyAdmin whenNotPaused {\n        _pause();\n        emit Pause();\n    }\n\n    /**\n     * @notice Returns to normal state\n     * @dev Only possible when contract is paused.\n     */\n    function unpause() external onlyAdmin whenPaused {\n        _unpause();\n        emit Unpause();\n    }\n\n    /**\n     * @notice Calculates the expected harvest reward from third party\n     * @return Expected reward to collect in SOUL\n     */\n    function calculateHarvestSoulRewards() external view returns (uint256) {\n        uint256 amount = IMasterChef(masterchef).pendingSoul(0, address(this));\n        amount = amount + available();\n        uint256 currentCallFee = (amount * callFee) / 10000;\n\n        return currentCallFee;\n    }\n\n    /**\n     * @notice Calculates the total pending rewards that can be restaked\n     * @return Returns total pending SOUL rewards\n     */\n    function calculateTotalPendingSoulRewards() external view returns (uint256) {\n        uint256 amount = IMasterChef(masterchef).pendingSoul(0, address(this));\n        amount = amount + available();\n\n        return amount;\n    }\n\n    /**\n     * @notice Calculates the price per share\n     */\n    function getPricePerFullShare() external view returns (uint256) {\n        return totalShares == 0 ? 1e18 : (balanceOf() * 1e18) / totalShares;\n    }\n\n    /**\n     * @notice Withdraws from funds from the Soul Vault\n     * @param _shares: Number of shares to withdraw\n     */\n    function withdraw(uint256 _shares) public notContract {\n        UserInfo storage user = userInfo[msg.sender];\n        require(_shares > 0, \"Nothing to withdraw\");\n        require(_shares <= user.shares, \"Withdraw amount exceeds balance\");\n\n        uint256 currentAmount = (balanceOf() * _shares) / totalShares;\n        user.shares = user.shares - _shares;\n        totalShares = totalShares - _shares;\n\n        uint256 bal = available();\n        if (bal < currentAmount) {\n            uint256 balWithdraw = currentAmount - bal;\n            IMasterChef(masterchef).leaveStaking(balWithdraw);\n            uint256 balAfter = available();\n            uint256 diff = balAfter - bal;\n            if (diff < balWithdraw) {\n                currentAmount = bal + diff;\n            }\n        }\n\n        if (block.timestamp < user.lastDepositedTime + withdrawFeePeriod) {\n            uint256 currentWithdrawFee = (currentAmount * withdrawFee) / 10000;\n            token.transfer(treasury, currentWithdrawFee);\n            currentAmount = currentAmount - currentWithdrawFee;\n        }\n\n        if (user.shares > 0) {\n            user.soulAtLastUserAction = (user.shares * balanceOf()) / totalShares;\n        } else {\n            user.soulAtLastUserAction = 0;\n        }\n\n        user.lastUserActionTime = block.timestamp;\n\n        token.transfer(msg.sender, currentAmount);\n\n        emit Withdraw(msg.sender, currentAmount, _shares);\n    }\n\n    /**\n     * @notice Checks the total SOUL deposited by users\n     * @dev The contract staked the total SOUL deposited\n     */\n    function available() public view returns (uint256) {\n        return token.balanceOf(address(this));\n    }\n\n    /**\n     * @notice Calculates the total underlying tokens\n     * @dev It includes tokens held by the contract and held in MasterChef\n     */\n    function balanceOf() public view returns (uint256) {\n        (uint256 amount, ) = IMasterChef(masterchef).userInfo(0, address(this));\n        return token.balanceOf(address(this)) + amount;\n    }\n\n    /**\n     * @notice Deposits tokens into MasterChef to earn staking rewards\n     */\n    function _earn() internal {\n        uint256 bal = available();\n        if (bal > 0) {\n            IMasterChef(masterchef).enterStaking(bal);\n        }\n    }\n\n    /**\n     * @notice Checks if address is a contract\n     * @dev It prevents contract from being targeted\n     */\n    function _isContract(address addr) internal view returns (bool) {\n        uint256 size;\n        assembly {\n            size := extcodesize(addr)\n        }\n        return size > 0;\n    }\n}\n",
  "sourcePath": "/Users/unico/Documents/GitHub/SoulSwap/soulswap-farms/contracts/SoulVault.sol",
  "compiler": {
    "name": "solc",
    "version": "0.8.0+commit.c7dfd78e.Emscripten.clang"
  },
  "schemaVersion": "3.4.1",
  "updatedAt": "2021-07-04T18:45:17.680Z",
  "networkType": "ethereum",
  "devdoc": {
    "kind": "dev",
    "methods": {
      "available()": {
        "details": "The contract staked the total SOUL deposited"
      },
      "balanceOf()": {
        "details": "It includes tokens held by the contract and held in MasterChef"
      },
      "calculateHarvestSoulRewards()": {
        "returns": {
          "_0": "Expected reward to collect in SOUL"
        }
      },
      "calculateTotalPendingSoulRewards()": {
        "returns": {
          "_0": "Returns total pending SOUL rewards"
        }
      },
      "constructor": {
        "params": {
          "_admin": ": address of the admin",
          "_masterchef": ": MasterChef contract",
          "_receiptToken": ": Seance token contract",
          "_token": ": Soul token contract",
          "_treasury": ": address of the treasury (collects fees)"
        }
      },
      "deposit(uint256)": {
        "details": "Only possible when contract not paused & user has approved tokens for transferFrom.",
        "params": {
          "_amount": ": number of tokens to deposit (in SOUL)"
        }
      },
      "emergencyWithdraw()": {
        "details": "EMERGENCY ONLY. Only callable by the contract admin."
      },
      "harvest()": {
        "details": "Only possible when contract not paused."
      },
      "owner()": {
        "details": "Returns the address of the current owner."
      },
      "pause()": {
        "details": "Only possible when contract not paused."
      },
      "paused()": {
        "details": "Returns true if the contract is paused, and false otherwise."
      },
      "renounceOwnership()": {
        "details": "Leaves the contract without owner. It will not be possible to call `onlyOwner` functions anymore. Can only be called by the current owner. NOTE: Renouncing ownership will leave the contract without an owner, thereby removing any functionality that is only available to the owner."
      },
      "setAdmin(address)": {
        "details": "Only callable by the contract owner."
      },
      "setCallFee(uint256)": {
        "details": "Only callable by the contract admin."
      },
      "setPerformanceFee(uint256)": {
        "details": "Only callable by the contract admin."
      },
      "setTreasury(address)": {
        "details": "Only callable by the contract owner."
      },
      "setWithdrawFee(uint256)": {
        "details": "Only callable by the contract admin."
      },
      "setWithdrawFeePeriod(uint256)": {
        "details": "Only callable by the contract admin."
      },
      "transferOwnership(address)": {
        "details": "Transfers ownership of the contract to a new account (`newOwner`). Can only be called by the current owner."
      },
      "unpause()": {
        "details": "Only possible when contract is paused."
      },
      "withdraw(uint256)": {
        "params": {
          "_shares": ": Number of shares to withdraw"
        }
      }
    },
    "version": 1
  },
  "userdoc": {
    "kind": "user",
    "methods": {
      "available()": {
        "notice": "Checks the total SOUL deposited by users"
      },
      "balanceOf()": {
        "notice": "Calculates the total underlying tokens"
      },
      "calculateHarvestSoulRewards()": {
        "notice": "Calculates the expected harvest reward from third party"
      },
      "calculateTotalPendingSoulRewards()": {
        "notice": "Calculates the total pending rewards that can be restaked"
      },
      "constructor": {
        "notice": "Constructor"
      },
      "deposit(uint256)": {
        "notice": "Deposits funds into the Soul Vault"
      },
      "emergencyWithdraw()": {
        "notice": "Withdraws from MasterChef to Vault without caring about rewards."
      },
      "getPricePerFullShare()": {
        "notice": "Calculates the price per share"
      },
      "harvest()": {
        "notice": "Reinvests SOUL tokens into MasterChef"
      },
      "inCaseTokensGetStuck(address)": {
        "notice": "Withdraw unexpected tokens sent to the Soul Vault"
      },
      "pause()": {
        "notice": "Triggers stopped state"
      },
      "setAdmin(address)": {
        "notice": "Sets admin address"
      },
      "setCallFee(uint256)": {
        "notice": "Sets call fee"
      },
      "setPerformanceFee(uint256)": {
        "notice": "Sets performance fee"
      },
      "setTreasury(address)": {
        "notice": "Sets treasury address"
      },
      "setWithdrawFee(uint256)": {
        "notice": "Sets withdraw fee"
      },
      "setWithdrawFeePeriod(uint256)": {
        "notice": "Sets withdraw fee period"
      },
      "unpause()": {
        "notice": "Returns to normal state"
      },
      "withdraw(uint256)": {
        "notice": "Withdraws from funds from the Soul Vault"
      },
      "withdrawAll()": {
        "notice": "Withdraws all funds for the caller"
      }
    },
    "version": 1
  }
}