{
  "contractName": "SoulVault",
  "abi": [
    {
      "inputs": [
        {
          "internalType": "contract IERC20",
          "name": "_token",
          "type": "address"
        },
        {
          "internalType": "contract IERC20",
          "name": "_receiptToken",
          "type": "address"
        },
        {
          "internalType": "contract ISummoner",
          "name": "_summoner",
          "type": "address"
        }
      ],
      "stateMutability": "nonpayable",
      "type": "constructor"
    },
    {
      "anonymous": false,
      "inputs": [
        {
          "indexed": true,
          "internalType": "address",
          "name": "sender",
          "type": "address"
        },
        {
          "indexed": false,
          "internalType": "uint256",
          "name": "amount",
          "type": "uint256"
        },
        {
          "indexed": false,
          "internalType": "uint256",
          "name": "shares",
          "type": "uint256"
        },
        {
          "indexed": false,
          "internalType": "uint256",
          "name": "lastDepositedTime",
          "type": "uint256"
        }
      ],
      "name": "Deposit",
      "type": "event"
    },
    {
      "anonymous": false,
      "inputs": [
        {
          "indexed": true,
          "internalType": "address",
          "name": "sender",
          "type": "address"
        },
        {
          "indexed": false,
          "internalType": "uint256",
          "name": "performanceFee",
          "type": "uint256"
        },
        {
          "indexed": false,
          "internalType": "uint256",
          "name": "callFee",
          "type": "uint256"
        }
      ],
      "name": "Harvest",
      "type": "event"
    },
    {
      "anonymous": false,
      "inputs": [
        {
          "indexed": true,
          "internalType": "address",
          "name": "previousOwner",
          "type": "address"
        },
        {
          "indexed": true,
          "internalType": "address",
          "name": "newOwner",
          "type": "address"
        }
      ],
      "name": "OwnershipTransferred",
      "type": "event"
    },
    {
      "anonymous": false,
      "inputs": [],
      "name": "Pause",
      "type": "event"
    },
    {
      "anonymous": false,
      "inputs": [
        {
          "indexed": false,
          "internalType": "address",
          "name": "account",
          "type": "address"
        }
      ],
      "name": "Paused",
      "type": "event"
    },
    {
      "anonymous": false,
      "inputs": [],
      "name": "Unpause",
      "type": "event"
    },
    {
      "anonymous": false,
      "inputs": [
        {
          "indexed": false,
          "internalType": "address",
          "name": "account",
          "type": "address"
        }
      ],
      "name": "Unpaused",
      "type": "event"
    },
    {
      "anonymous": false,
      "inputs": [
        {
          "indexed": true,
          "internalType": "address",
          "name": "sender",
          "type": "address"
        },
        {
          "indexed": false,
          "internalType": "uint256",
          "name": "amount",
          "type": "uint256"
        },
        {
          "indexed": false,
          "internalType": "uint256",
          "name": "shares",
          "type": "uint256"
        }
      ],
      "name": "Withdraw",
      "type": "event"
    },
    {
      "inputs": [],
      "name": "MAX_CALL_FEE",
      "outputs": [
        {
          "internalType": "uint256",
          "name": "",
          "type": "uint256"
        }
      ],
      "stateMutability": "view",
      "type": "function"
    },
    {
      "inputs": [],
      "name": "MAX_PERFORMANCE_FEE",
      "outputs": [
        {
          "internalType": "uint256",
          "name": "",
          "type": "uint256"
        }
      ],
      "stateMutability": "view",
      "type": "function"
    },
    {
      "inputs": [],
      "name": "MAX_WITHDRAW_FEE",
      "outputs": [
        {
          "internalType": "uint256",
          "name": "",
          "type": "uint256"
        }
      ],
      "stateMutability": "view",
      "type": "function"
    },
    {
      "inputs": [],
      "name": "MAX_WITHDRAW_FEE_PERIOD",
      "outputs": [
        {
          "internalType": "uint256",
          "name": "",
          "type": "uint256"
        }
      ],
      "stateMutability": "view",
      "type": "function"
    },
    {
      "inputs": [],
      "name": "admin",
      "outputs": [
        {
          "internalType": "address",
          "name": "",
          "type": "address"
        }
      ],
      "stateMutability": "view",
      "type": "function"
    },
    {
      "inputs": [],
      "name": "callFee",
      "outputs": [
        {
          "internalType": "uint256",
          "name": "",
          "type": "uint256"
        }
      ],
      "stateMutability": "view",
      "type": "function"
    },
    {
      "inputs": [],
      "name": "lastHarvestedTime",
      "outputs": [
        {
          "internalType": "uint256",
          "name": "",
          "type": "uint256"
        }
      ],
      "stateMutability": "view",
      "type": "function"
    },
    {
      "inputs": [],
      "name": "owner",
      "outputs": [
        {
          "internalType": "address",
          "name": "",
          "type": "address"
        }
      ],
      "stateMutability": "view",
      "type": "function"
    },
    {
      "inputs": [],
      "name": "paused",
      "outputs": [
        {
          "internalType": "bool",
          "name": "",
          "type": "bool"
        }
      ],
      "stateMutability": "view",
      "type": "function"
    },
    {
      "inputs": [],
      "name": "performanceFee",
      "outputs": [
        {
          "internalType": "uint256",
          "name": "",
          "type": "uint256"
        }
      ],
      "stateMutability": "view",
      "type": "function"
    },
    {
      "inputs": [],
      "name": "receiptToken",
      "outputs": [
        {
          "internalType": "contract IERC20",
          "name": "",
          "type": "address"
        }
      ],
      "stateMutability": "view",
      "type": "function"
    },
    {
      "inputs": [],
      "name": "renounceOwnership",
      "outputs": [],
      "stateMutability": "nonpayable",
      "type": "function"
    },
    {
      "inputs": [],
      "name": "summoner",
      "outputs": [
        {
          "internalType": "contract ISummoner",
          "name": "",
          "type": "address"
        }
      ],
      "stateMutability": "view",
      "type": "function"
    },
    {
      "inputs": [],
      "name": "token",
      "outputs": [
        {
          "internalType": "contract IERC20",
          "name": "",
          "type": "address"
        }
      ],
      "stateMutability": "view",
      "type": "function"
    },
    {
      "inputs": [],
      "name": "totalShares",
      "outputs": [
        {
          "internalType": "uint256",
          "name": "",
          "type": "uint256"
        }
      ],
      "stateMutability": "view",
      "type": "function"
    },
    {
      "inputs": [
        {
          "internalType": "address",
          "name": "newOwner",
          "type": "address"
        }
      ],
      "name": "transferOwnership",
      "outputs": [],
      "stateMutability": "nonpayable",
      "type": "function"
    },
    {
      "inputs": [],
      "name": "treasury",
      "outputs": [
        {
          "internalType": "address",
          "name": "",
          "type": "address"
        }
      ],
      "stateMutability": "view",
      "type": "function"
    },
    {
      "inputs": [
        {
          "internalType": "address",
          "name": "",
          "type": "address"
        }
      ],
      "name": "userInfo",
      "outputs": [
        {
          "internalType": "uint256",
          "name": "shares",
          "type": "uint256"
        },
        {
          "internalType": "uint256",
          "name": "lastDepositedTime",
          "type": "uint256"
        },
        {
          "internalType": "uint256",
          "name": "soulAtLastUserAction",
          "type": "uint256"
        },
        {
          "internalType": "uint256",
          "name": "lastUserActionTime",
          "type": "uint256"
        }
      ],
      "stateMutability": "view",
      "type": "function"
    },
    {
      "inputs": [],
      "name": "withdrawFee",
      "outputs": [
        {
          "internalType": "uint256",
          "name": "",
          "type": "uint256"
        }
      ],
      "stateMutability": "view",
      "type": "function"
    },
    {
      "inputs": [],
      "name": "withdrawFeePeriod",
      "outputs": [
        {
          "internalType": "uint256",
          "name": "",
          "type": "uint256"
        }
      ],
      "stateMutability": "view",
      "type": "function"
    },
    {
      "inputs": [
        {
          "internalType": "uint256",
          "name": "_amount",
          "type": "uint256"
        }
      ],
      "name": "deposit",
      "outputs": [],
      "stateMutability": "nonpayable",
      "type": "function"
    },
    {
      "inputs": [],
      "name": "withdrawAll",
      "outputs": [],
      "stateMutability": "nonpayable",
      "type": "function"
    },
    {
      "inputs": [],
      "name": "harvest",
      "outputs": [],
      "stateMutability": "nonpayable",
      "type": "function"
    },
    {
      "inputs": [
        {
          "internalType": "address",
          "name": "_admin",
          "type": "address"
        }
      ],
      "name": "setAdmin",
      "outputs": [],
      "stateMutability": "nonpayable",
      "type": "function"
    },
    {
      "inputs": [
        {
          "internalType": "address",
          "name": "_treasury",
          "type": "address"
        }
      ],
      "name": "setTreasury",
      "outputs": [],
      "stateMutability": "nonpayable",
      "type": "function"
    },
    {
      "inputs": [
        {
          "internalType": "uint256",
          "name": "_performanceFee",
          "type": "uint256"
        }
      ],
      "name": "setPerformanceFee",
      "outputs": [],
      "stateMutability": "nonpayable",
      "type": "function"
    },
    {
      "inputs": [
        {
          "internalType": "uint256",
          "name": "_callFee",
          "type": "uint256"
        }
      ],
      "name": "setCallFee",
      "outputs": [],
      "stateMutability": "nonpayable",
      "type": "function"
    },
    {
      "inputs": [
        {
          "internalType": "uint256",
          "name": "_withdrawFee",
          "type": "uint256"
        }
      ],
      "name": "setWithdrawFee",
      "outputs": [],
      "stateMutability": "nonpayable",
      "type": "function"
    },
    {
      "inputs": [
        {
          "internalType": "uint256",
          "name": "_withdrawFeePeriod",
          "type": "uint256"
        }
      ],
      "name": "setWithdrawFeePeriod",
      "outputs": [],
      "stateMutability": "nonpayable",
      "type": "function"
    },
    {
      "inputs": [
        {
          "internalType": "address",
          "name": "_token",
          "type": "address"
        }
      ],
      "name": "inCaseTokensGetStuck",
      "outputs": [],
      "stateMutability": "nonpayable",
      "type": "function"
    },
    {
      "inputs": [],
      "name": "pause",
      "outputs": [],
      "stateMutability": "nonpayable",
      "type": "function"
    },
    {
      "inputs": [],
      "name": "unpause",
      "outputs": [],
      "stateMutability": "nonpayable",
      "type": "function"
    },
    {
      "inputs": [],
      "name": "calculateHarvestSoulRewards",
      "outputs": [
        {
          "internalType": "uint256",
          "name": "",
          "type": "uint256"
        }
      ],
      "stateMutability": "view",
      "type": "function"
    },
    {
      "inputs": [],
      "name": "calculateTotalPendingSoulRewards",
      "outputs": [
        {
          "internalType": "uint256",
          "name": "",
          "type": "uint256"
        }
      ],
      "stateMutability": "view",
      "type": "function"
    },
    {
      "inputs": [],
      "name": "getPricePerFullShare",
      "outputs": [
        {
          "internalType": "uint256",
          "name": "",
          "type": "uint256"
        }
      ],
      "stateMutability": "view",
      "type": "function"
    },
    {
      "inputs": [
        {
          "internalType": "uint256",
          "name": "_shares",
          "type": "uint256"
        }
      ],
      "name": "withdraw",
      "outputs": [],
      "stateMutability": "nonpayable",
      "type": "function"
    },
    {
      "inputs": [],
      "name": "available",
      "outputs": [
        {
          "internalType": "uint256",
          "name": "",
          "type": "uint256"
        }
      ],
      "stateMutability": "view",
      "type": "function"
    },
    {
      "inputs": [],
      "name": "balanceOf",
      "outputs": [
        {
          "internalType": "uint256",
          "name": "",
          "type": "uint256"
        }
      ],
      "stateMutability": "view",
      "type": "function"
    }
  ],
  "bytecode": "0x60e060405233600460006101000a81548173ffffffffffffffffffffffffffffffffffffffff021916908373ffffffffffffffffffffffffffffffffffffffff16021790555033600560006101000a81548173ffffffffffffffffffffffffffffffffffffffff021916908373ffffffffffffffffffffffffffffffffffffffff16021790555060c86006556019600755600a6008556203f480600955348015620000a957600080fd5b5060405162003b0538038062003b058339818101604052810190620000cf9190620003a8565b620000ef620000e36200026b60201b60201c565b6200027360201b60201c565b60008060146101000a81548160ff0219169083151502179055508273ffffffffffffffffffffffffffffffffffffffff1660808173ffffffffffffffffffffffffffffffffffffffff1660601b815250508173ffffffffffffffffffffffffffffffffffffffff1660a08173ffffffffffffffffffffffffffffffffffffffff1660601b815250508073ffffffffffffffffffffffffffffffffffffffff1660c08173ffffffffffffffffffffffffffffffffffffffff1660601b815250508273ffffffffffffffffffffffffffffffffffffffff1663095ea7b3827fffffffffffffffffffffffffffffffffffffffffffffffffffffffffffffffff6040518363ffffffff1660e01b81526004016200020b92919062000420565b602060405180830381600087803b1580156200022657600080fd5b505af11580156200023b573d6000803e3d6000fd5b505050506040513d601f19601f820116820180604052508101906200026191906200037c565b505050506200050d565b600033905090565b60008060009054906101000a900473ffffffffffffffffffffffffffffffffffffffff169050816000806101000a81548173ffffffffffffffffffffffffffffffffffffffff021916908373ffffffffffffffffffffffffffffffffffffffff1602179055508173ffffffffffffffffffffffffffffffffffffffff168173ffffffffffffffffffffffffffffffffffffffff167f8be0079c531659141344cd1fd0a4f28419497f9722a3daafe3b4186f6b6457e060405160405180910390a35050565b6000815190506200034881620004bf565b92915050565b6000815190506200035f81620004d9565b92915050565b6000815190506200037681620004f3565b92915050565b6000602082840312156200038f57600080fd5b60006200039f8482850162000337565b91505092915050565b600080600060608486031215620003be57600080fd5b6000620003ce868287016200034e565b9350506020620003e1868287016200034e565b9250506040620003f48682870162000365565b9150509250925092565b62000409816200044d565b82525050565b6200041a81620004b5565b82525050565b6000604082019050620004376000830185620003fe565b6200044660208301846200040f565b9392505050565b60006200045a8262000495565b9050919050565b60008115159050919050565b60006200047a826200044d565b9050919050565b60006200048e826200044d565b9050919050565b600073ffffffffffffffffffffffffffffffffffffffff82169050919050565b6000819050919050565b620004ca8162000461565b8114620004d657600080fd5b50565b620004e4816200046d565b8114620004f057600080fd5b50565b620004fe8162000481565b81146200050a57600080fd5b50565b60805160601c60a05160601c60c05160601c613556620005af6000396000818161075d01528181610b290152818161106b015281816116a901528181611ec001528181611f9501526125f10152600081816120d80152612292015260008181610c2301528181610d550152818161112201528181611211015281816113250152818161175801528181611cd101528181612049015261250401526135566000f3fe608060405234801561001057600080fd5b50600436106102325760003560e01c8063853828b611610130578063d4b0de2f116100b8578063ec78e8321161007c578063ec78e832146105b6578063f0f44260146105d4578063f2fde38b146105f0578063f851a4401461060c578063fc0c546a1461062a57610232565b8063d4b0de2f14610522578063dacaa9d114610540578063def68a9c1461055e578063df10b4e61461057a578063e941fa781461059857610232565b8063b60f0531116100ff578063b60f053114610490578063b6ac642a146104ae578063b6b55f25146104ca578063bb5505e2146104e6578063bdca91651461050457610232565b8063853828b61461042c57806387788782146104365780638da5cb5b1461045457806390321e1a1461047257610232565b80634641257d116101be57806370897b231161018257806370897b23146103c0578063715018a6146103dc578063722713f7146103e657806377c7b8fc146104045780638456cb591461042257610232565b80634641257d1461034057806348a0d7541461034a5780635c975abb1461036857806361d027b314610386578063704b6c02146103a457610232565b80632ad5a53f116102055780632ad5a53f146102c05780632cfc5f01146102de5780632e1a7d4d146102fc5780633a98ef39146103185780633f4ba83a1461033657610232565b80631959a002146102375780631efac1b81461026a57806325b298041461028657806326465826146102a4575b600080fd5b610251600480360381019061024c9190612841565b610648565b6040516102619493929190613270565b60405180910390f35b610284600480360381019061027f9190612893565b610678565b005b61028e610758565b60405161029b91906131f5565b60405180910390f35b6102be60048036038101906102b99190612893565b610845565b005b6102c8610923565b6040516102d591906131f5565b60405180910390f35b6102e6610928565b6040516102f391906131f5565b60405180910390f35b61031660048036038101906103119190612893565b61092f565b005b610320610e57565b60405161032d91906131f5565b60405180910390f35b61033e610e5d565b005b610348610f6a565b005b610352611321565b60405161035f91906131f5565b60405180910390f35b6103706113d1565b60405161037d9190612f40565b60405180910390f35b61038e6113e7565b60405161039b9190612ec5565b60405180910390f35b6103be60048036038101906103b99190612841565b61140d565b005b6103da60048036038101906103d59190612893565b61153d565b005b6103e461161c565b005b6103ee6116a4565b6040516103fb91906131f5565b60405180910390f35b61040c61180f565b60405161041991906131f5565b60405180910390f35b61042a611856565b005b610434611964565b005b61043e611a68565b60405161044b91906131f5565b60405180910390f35b61045c611a6e565b6040516104699190612ec5565b60405180910390f35b61047a611a97565b60405161048791906131f5565b60405180910390f35b610498611a9d565b6040516104a591906131f5565b60405180910390f35b6104c860048036038101906104c39190612893565b611aa3565b005b6104e460048036038101906104df9190612893565b611b81565b005b6104ee611ebb565b6040516104fb91906131f5565b60405180910390f35b61050c611f88565b60405161051991906131f5565b60405180910390f35b61052a611f8e565b60405161053791906131f5565b60405180910390f35b610548611f93565b6040516105559190612f76565b60405180910390f35b61057860048036038101906105739190612841565b611fb7565b005b610582612284565b60405161058f91906131f5565b60405180910390f35b6105a061228a565b6040516105ad91906131f5565b60405180910390f35b6105be612290565b6040516105cb9190612f5b565b60405180910390f35b6105ee60048036038101906105e99190612841565b6122b4565b005b61060a60048036038101906106059190612841565b6123e4565b005b6106146124dc565b6040516106219190612ec5565b60405180910390f35b610632612502565b60405161063f9190612f5b565b60405180910390f35b60016020528060005260406000206000915090508060000154908060010154908060020154908060030154905084565b600460009054906101000a900473ffffffffffffffffffffffffffffffffffffffff1673ffffffffffffffffffffffffffffffffffffffff163373ffffffffffffffffffffffffffffffffffffffff1614610708576040517f08c379a00000000000000000000000000000000000000000000000000000000081526004016106ff90613195565b60405180910390fd5b6203f48081111561074e576040517f08c379a0000000000000000000000000000000000000000000000000000000008152600401610745906131b5565b60405180910390fd5b8060098190555050565b6000807f000000000000000000000000000000000000000000000000000000000000000073ffffffffffffffffffffffffffffffffffffffff1663bfafcad56000306040518363ffffffff1660e01b81526004016107b7929190612fac565b60206040518083038186803b1580156107cf57600080fd5b505afa1580156107e3573d6000803e3d6000fd5b505050506040513d601f19601f8201168201806040525081019061080791906128bc565b9050610811611321565b8161081c91906132c6565b9050600061271060075483610831919061334d565b61083b919061331c565b9050809250505090565b600460009054906101000a900473ffffffffffffffffffffffffffffffffffffffff1673ffffffffffffffffffffffffffffffffffffffff163373ffffffffffffffffffffffffffffffffffffffff16146108d5576040517f08c379a00000000000000000000000000000000000000000000000000000000081526004016108cc90613195565b60405180910390fd5b6064811115610919576040517f08c379a0000000000000000000000000000000000000000000000000000000008152600401610910906130d5565b60405180910390fd5b8060078190555050565b606481565b6203f48081565b61093833612526565b15610978576040517f08c379a000000000000000000000000000000000000000000000000000000000815260040161096f90613175565b60405180910390fd5b3273ffffffffffffffffffffffffffffffffffffffff163373ffffffffffffffffffffffffffffffffffffffff16146109e6576040517f08c379a00000000000000000000000000000000000000000000000000000000081526004016109dd90612ff5565b60405180910390fd5b6000600160003373ffffffffffffffffffffffffffffffffffffffff1673ffffffffffffffffffffffffffffffffffffffff168152602001908152602001600020905060008211610a6c576040517f08c379a0000000000000000000000000000000000000000000000000000000008152600401610a6390613035565b60405180910390fd5b8060000154821115610ab3576040517f08c379a0000000000000000000000000000000000000000000000000000000008152600401610aaa90613095565b60405180910390fd5b600060025483610ac16116a4565b610acb919061334d565b610ad5919061331c565b9050828260000154610ae791906133a7565b826000018190555082600254610afd91906133a7565b6002819055506000610b0d611321565b905081811015610be95760008183610b2591906133a7565b90507f000000000000000000000000000000000000000000000000000000000000000073ffffffffffffffffffffffffffffffffffffffff16631058d281826040518263ffffffff1660e01b8152600401610b8091906131f5565b600060405180830381600087803b158015610b9a57600080fd5b505af1158015610bae573d6000803e3d6000fd5b505050506000610bbc611321565b905060008382610bcc91906133a7565b905082811015610be5578084610be291906132c6565b94505b5050505b6009548360010154610bfb91906132c6565b421015610d0157600061271060085484610c15919061334d565b610c1f919061331c565b90507f000000000000000000000000000000000000000000000000000000000000000073ffffffffffffffffffffffffffffffffffffffff1663a9059cbb600560009054906101000a900473ffffffffffffffffffffffffffffffffffffffff16836040518363ffffffff1660e01b8152600401610c9e929190612f17565b602060405180830381600087803b158015610cb857600080fd5b505af1158015610ccc573d6000803e3d6000fd5b505050506040513d601f19601f82011682018060405250810190610cf0919061286a565b508083610cfd91906133a7565b9250505b600083600001541115610d3f57600254610d196116a4565b8460000154610d28919061334d565b610d32919061331c565b8360020181905550610d4a565b600083600201819055505b4283600301819055507f000000000000000000000000000000000000000000000000000000000000000073ffffffffffffffffffffffffffffffffffffffff1663a9059cbb33846040518363ffffffff1660e01b8152600401610dae929190612f17565b602060405180830381600087803b158015610dc857600080fd5b505af1158015610ddc573d6000803e3d6000fd5b505050506040513d601f19601f82011682018060405250810190610e00919061286a565b503373ffffffffffffffffffffffffffffffffffffffff167ff279e6a1f5e320cca91135676d9cb6e44ca8a08c0b88342bcdb1144f6511b5688386604051610e49929190613210565b60405180910390a250505050565b60025481565b600460009054906101000a900473ffffffffffffffffffffffffffffffffffffffff1673ffffffffffffffffffffffffffffffffffffffff163373ffffffffffffffffffffffffffffffffffffffff1614610eed576040517f08c379a0000000000000000000000000000000000000000000000000000000008152600401610ee490613195565b60405180910390fd5b610ef56113d1565b610f34576040517f08c379a0000000000000000000000000000000000000000000000000000000008152600401610f2b90613015565b60405180910390fd5b610f3c612539565b7f7805862f689e2f13df9f062ff482ad3ad112aca9e0847911ed832e158c525b3360405160405180910390a1565b610f7333612526565b15610fb3576040517f08c379a0000000000000000000000000000000000000000000000000000000008152600401610faa90613175565b60405180910390fd5b3273ffffffffffffffffffffffffffffffffffffffff163373ffffffffffffffffffffffffffffffffffffffff1614611021576040517f08c379a000000000000000000000000000000000000000000000000000000000815260040161101890612ff5565b60405180910390fd5b6110296113d1565b15611069576040517f08c379a000000000000000000000000000000000000000000000000000000000815260040161106090613115565b60405180910390fd5b7f000000000000000000000000000000000000000000000000000000000000000073ffffffffffffffffffffffffffffffffffffffff16631058d28160006040518263ffffffff1660e01b81526004016110c39190612f91565b600060405180830381600087803b1580156110dd57600080fd5b505af11580156110f1573d6000803e3d6000fd5b5050505060006110ff611321565b9050600061271060065483611114919061334d565b61111e919061331c565b90507f000000000000000000000000000000000000000000000000000000000000000073ffffffffffffffffffffffffffffffffffffffff1663a9059cbb600560009054906101000a900473ffffffffffffffffffffffffffffffffffffffff16836040518363ffffffff1660e01b815260040161119d929190612f17565b602060405180830381600087803b1580156111b757600080fd5b505af11580156111cb573d6000803e3d6000fd5b505050506040513d601f19601f820116820180604052508101906111ef919061286a565b50600061271060075484611203919061334d565b61120d919061331c565b90507f000000000000000000000000000000000000000000000000000000000000000073ffffffffffffffffffffffffffffffffffffffff1663a9059cbb33836040518363ffffffff1660e01b815260040161126a929190612f17565b602060405180830381600087803b15801561128457600080fd5b505af1158015611298573d6000803e3d6000fd5b505050506040513d601f19601f820116820180604052508101906112bc919061286a565b506112c56125da565b426003819055503373ffffffffffffffffffffffffffffffffffffffff167f71bab65ced2e5750775a0613be067df48ef06cf92a496ebf7663ae06609249548383604051611314929190613210565b60405180910390a2505050565b60007f000000000000000000000000000000000000000000000000000000000000000073ffffffffffffffffffffffffffffffffffffffff166370a08231306040518263ffffffff1660e01b815260040161137c9190612ec5565b60206040518083038186803b15801561139457600080fd5b505afa1580156113a8573d6000803e3d6000fd5b505050506040513d601f19601f820116820180604052508101906113cc91906128bc565b905090565b60008060149054906101000a900460ff16905090565b600560009054906101000a900473ffffffffffffffffffffffffffffffffffffffff1681565b61141561267e565b73ffffffffffffffffffffffffffffffffffffffff16611433611a6e565b73ffffffffffffffffffffffffffffffffffffffff1614611489576040517f08c379a000000000000000000000000000000000000000000000000000000000815260040161148090613155565b60405180910390fd5b600073ffffffffffffffffffffffffffffffffffffffff168173ffffffffffffffffffffffffffffffffffffffff1614156114f9576040517f08c379a00000000000000000000000000000000000000000000000000000000081526004016114f090613135565b60405180910390fd5b80600460006101000a81548173ffffffffffffffffffffffffffffffffffffffff021916908373ffffffffffffffffffffffffffffffffffffffff16021790555050565b600460009054906101000a900473ffffffffffffffffffffffffffffffffffffffff1673ffffffffffffffffffffffffffffffffffffffff163373ffffffffffffffffffffffffffffffffffffffff16146115cd576040517f08c379a00000000000000000000000000000000000000000000000000000000081526004016115c490613195565b60405180910390fd5b6101f4811115611612576040517f08c379a0000000000000000000000000000000000000000000000000000000008152600401611609906130f5565b60405180910390fd5b8060068190555050565b61162461267e565b73ffffffffffffffffffffffffffffffffffffffff16611642611a6e565b73ffffffffffffffffffffffffffffffffffffffff1614611698576040517f08c379a000000000000000000000000000000000000000000000000000000000815260040161168f90613155565b60405180910390fd5b6116a26000612686565b565b6000807f000000000000000000000000000000000000000000000000000000000000000073ffffffffffffffffffffffffffffffffffffffff166393f1a40b6000306040518363ffffffff1660e01b8152600401611703929190612fac565b604080518083038186803b15801561171a57600080fd5b505afa15801561172e573d6000803e3d6000fd5b505050506040513d601f19601f8201168201806040525081019061175291906128e5565b509050807f000000000000000000000000000000000000000000000000000000000000000073ffffffffffffffffffffffffffffffffffffffff166370a08231306040518263ffffffff1660e01b81526004016117af9190612ec5565b60206040518083038186803b1580156117c757600080fd5b505afa1580156117db573d6000803e3d6000fd5b505050506040513d601f19601f820116820180604052508101906117ff91906128bc565b61180991906132c6565b91505090565b6000806002541461184757600254670de0b6b3a764000061182e6116a4565b611838919061334d565b611842919061331c565b611851565b670de0b6b3a76400005b905090565b600460009054906101000a900473ffffffffffffffffffffffffffffffffffffffff1673ffffffffffffffffffffffffffffffffffffffff163373ffffffffffffffffffffffffffffffffffffffff16146118e6576040517f08c379a00000000000000000000000000000000000000000000000000000000081526004016118dd90613195565b60405180910390fd5b6118ee6113d1565b1561192e576040517f08c379a000000000000000000000000000000000000000000000000000000000815260040161192590613115565b60405180910390fd5b61193661274a565b7f6985a02210a168e66602d3235cb6db0e70f92b3ba4d376a33c0f3d9434bff62560405160405180910390a1565b61196d33612526565b156119ad576040517f08c379a00000000000000000000000000000000000000000000000000000000081526004016119a490613175565b60405180910390fd5b3273ffffffffffffffffffffffffffffffffffffffff163373ffffffffffffffffffffffffffffffffffffffff1614611a1b576040517f08c379a0000000000000000000000000000000000000000000000000000000008152600401611a1290612ff5565b60405180910390fd5b611a66600160003373ffffffffffffffffffffffffffffffffffffffff1673ffffffffffffffffffffffffffffffffffffffff1681526020019081526020016000206000015461092f565b565b60065481565b60008060009054906101000a900473ffffffffffffffffffffffffffffffffffffffff16905090565b60075481565b60035481565b600460009054906101000a900473ffffffffffffffffffffffffffffffffffffffff1673ffffffffffffffffffffffffffffffffffffffff163373ffffffffffffffffffffffffffffffffffffffff1614611b33576040517f08c379a0000000000000000000000000000000000000000000000000000000008152600401611b2a90613195565b60405180910390fd5b6064811115611b77576040517f08c379a0000000000000000000000000000000000000000000000000000000008152600401611b6e906131d5565b60405180910390fd5b8060088190555050565b611b896113d1565b15611bc9576040517f08c379a0000000000000000000000000000000000000000000000000000000008152600401611bc090613115565b60405180910390fd5b611bd233612526565b15611c12576040517f08c379a0000000000000000000000000000000000000000000000000000000008152600401611c0990613175565b60405180910390fd5b3273ffffffffffffffffffffffffffffffffffffffff163373ffffffffffffffffffffffffffffffffffffffff1614611c80576040517f08c379a0000000000000000000000000000000000000000000000000000000008152600401611c7790612ff5565b60405180910390fd5b60008111611cc3576040517f08c379a0000000000000000000000000000000000000000000000000000000008152600401611cba90612fd5565b60405180910390fd5b6000611ccd6116a4565b90507f000000000000000000000000000000000000000000000000000000000000000073ffffffffffffffffffffffffffffffffffffffff166323b872dd3330856040518463ffffffff1660e01b8152600401611d2c93929190612ee0565b602060405180830381600087803b158015611d4657600080fd5b505af1158015611d5a573d6000803e3d6000fd5b505050506040513d601f19601f82011682018060405250810190611d7e919061286a565b5060008060025414611daa578160025484611d99919061334d565b611da3919061331c565b9050611dae565b8290505b6000600160003373ffffffffffffffffffffffffffffffffffffffff1673ffffffffffffffffffffffffffffffffffffffff1681526020019081526020016000209050818160000154611e0191906132c6565b816000018190555042816001018190555081600254611e2091906132c6565b600281905550600254611e316116a4565b8260000154611e40919061334d565b611e4a919061331c565b8160020181905550428160030181905550611e636125da565b3373ffffffffffffffffffffffffffffffffffffffff167f36af321ec8d3c75236829c5317affd40ddb308863a1236d2d277a4025cccee1e858442604051611ead93929190613239565b60405180910390a250505050565b6000807f000000000000000000000000000000000000000000000000000000000000000073ffffffffffffffffffffffffffffffffffffffff1663bfafcad56000306040518363ffffffff1660e01b8152600401611f1a929190612fac565b60206040518083038186803b158015611f3257600080fd5b505afa158015611f46573d6000803e3d6000fd5b505050506040513d601f19601f82011682018060405250810190611f6a91906128bc565b9050611f74611321565b81611f7f91906132c6565b90508091505090565b6101f481565b606481565b7f000000000000000000000000000000000000000000000000000000000000000081565b600460009054906101000a900473ffffffffffffffffffffffffffffffffffffffff1673ffffffffffffffffffffffffffffffffffffffff163373ffffffffffffffffffffffffffffffffffffffff1614612047576040517f08c379a000000000000000000000000000000000000000000000000000000000815260040161203e90613195565b60405180910390fd5b7f000000000000000000000000000000000000000000000000000000000000000073ffffffffffffffffffffffffffffffffffffffff168173ffffffffffffffffffffffffffffffffffffffff1614156120d6576040517f08c379a00000000000000000000000000000000000000000000000000000000081526004016120cd90613075565b60405180910390fd5b7f000000000000000000000000000000000000000000000000000000000000000073ffffffffffffffffffffffffffffffffffffffff168173ffffffffffffffffffffffffffffffffffffffff161415612165576040517f08c379a000000000000000000000000000000000000000000000000000000000815260040161215c906130b5565b60405180910390fd5b60008173ffffffffffffffffffffffffffffffffffffffff166370a08231306040518263ffffffff1660e01b81526004016121a09190612ec5565b60206040518083038186803b1580156121b857600080fd5b505afa1580156121cc573d6000803e3d6000fd5b505050506040513d601f19601f820116820180604052508101906121f091906128bc565b90508173ffffffffffffffffffffffffffffffffffffffff1663a9059cbb33836040518363ffffffff1660e01b815260040161222d929190612f17565b602060405180830381600087803b15801561224757600080fd5b505af115801561225b573d6000803e3d6000fd5b505050506040513d601f19601f8201168201806040525081019061227f919061286a565b505050565b60095481565b60085481565b7f000000000000000000000000000000000000000000000000000000000000000081565b6122bc61267e565b73ffffffffffffffffffffffffffffffffffffffff166122da611a6e565b73ffffffffffffffffffffffffffffffffffffffff1614612330576040517f08c379a000000000000000000000000000000000000000000000000000000000815260040161232790613155565b60405180910390fd5b600073ffffffffffffffffffffffffffffffffffffffff168173ffffffffffffffffffffffffffffffffffffffff1614156123a0576040517f08c379a000000000000000000000000000000000000000000000000000000000815260040161239790613135565b60405180910390fd5b80600560006101000a81548173ffffffffffffffffffffffffffffffffffffffff021916908373ffffffffffffffffffffffffffffffffffffffff16021790555050565b6123ec61267e565b73ffffffffffffffffffffffffffffffffffffffff1661240a611a6e565b73ffffffffffffffffffffffffffffffffffffffff1614612460576040517f08c379a000000000000000000000000000000000000000000000000000000000815260040161245790613155565b60405180910390fd5b600073ffffffffffffffffffffffffffffffffffffffff168173ffffffffffffffffffffffffffffffffffffffff1614156124d0576040517f08c379a00000000000000000000000000000000000000000000000000000000081526004016124c790613055565b60405180910390fd5b6124d981612686565b50565b600460009054906101000a900473ffffffffffffffffffffffffffffffffffffffff1681565b7f000000000000000000000000000000000000000000000000000000000000000081565b600080823b905060008111915050919050565b6125416113d1565b612580576040517f08c379a000000000000000000000000000000000000000000000000000000000815260040161257790613015565b60405180910390fd5b60008060146101000a81548160ff0219169083151502179055507f5db9ee0a495bf2e6ff9c91a7834c1ba4fdd244a5e8aa4e537bd38aeae4b073aa6125c361267e565b6040516125d09190612ec5565b60405180910390a1565b60006125e4611321565b9050600081111561267b577f000000000000000000000000000000000000000000000000000000000000000073ffffffffffffffffffffffffffffffffffffffff166341441d3b826040518263ffffffff1660e01b815260040161264891906131f5565b600060405180830381600087803b15801561266257600080fd5b505af1158015612676573d6000803e3d6000fd5b505050505b50565b600033905090565b60008060009054906101000a900473ffffffffffffffffffffffffffffffffffffffff169050816000806101000a81548173ffffffffffffffffffffffffffffffffffffffff021916908373ffffffffffffffffffffffffffffffffffffffff1602179055508173ffffffffffffffffffffffffffffffffffffffff168173ffffffffffffffffffffffffffffffffffffffff167f8be0079c531659141344cd1fd0a4f28419497f9722a3daafe3b4186f6b6457e060405160405180910390a35050565b6127526113d1565b15612792576040517f08c379a000000000000000000000000000000000000000000000000000000000815260040161278990613115565b60405180910390fd5b6001600060146101000a81548160ff0219169083151502179055507f62e78cea01bee320cd4e420270b5ea74000d11b0c9f74754ebdbfc544b05a2586127d661267e565b6040516127e39190612ec5565b60405180910390a1565b6000813590506127fc816134db565b92915050565b600081519050612811816134f2565b92915050565b60008135905061282681613509565b92915050565b60008151905061283b81613509565b92915050565b60006020828403121561285357600080fd5b6000612861848285016127ed565b91505092915050565b60006020828403121561287c57600080fd5b600061288a84828501612802565b91505092915050565b6000602082840312156128a557600080fd5b60006128b384828501612817565b91505092915050565b6000602082840312156128ce57600080fd5b60006128dc8482850161282c565b91505092915050565b600080604083850312156128f857600080fd5b60006129068582860161282c565b92505060206129178582860161282c565b9150509250929050565b61292a816133db565b82525050565b612939816133ed565b82525050565b61294881613423565b82525050565b61295781613447565b82525050565b6129668161346b565b82525050565b60006129796012836132b5565b91507f4e6f7468696e6720746f206465706f73697400000000000000000000000000006000830152602082019050919050565b60006129b9601a836132b5565b91507f70726f787920636f6e7472616374206e6f7420616c6c6f7765640000000000006000830152602082019050919050565b60006129f96014836132b5565b91507f5061757361626c653a206e6f74207061757365640000000000000000000000006000830152602082019050919050565b6000612a396013836132b5565b91507f4e6f7468696e6720746f207769746864726177000000000000000000000000006000830152602082019050919050565b6000612a796026836132b5565b91507f4f776e61626c653a206e6577206f776e657220697320746865207a65726f206160008301527f64647265737300000000000000000000000000000000000000000000000000006020830152604082019050919050565b6000612adf6025836132b5565b91507f546f6b656e2063616e6e6f742062652073616d65206173206465706f7369742060008301527f746f6b656e0000000000000000000000000000000000000000000000000000006020830152604082019050919050565b6000612b45601f836132b5565b91507f576974686472617720616d6f756e7420657863656564732062616c616e6365006000830152602082019050919050565b6000612b856025836132b5565b91507f546f6b656e2063616e6e6f742062652073616d6520617320726563656970742060008301527f746f6b656e0000000000000000000000000000000000000000000000000000006020830152604082019050919050565b6000612beb6028836132b5565b91507f63616c6c4665652063616e6e6f74206265206d6f7265207468616e204d41585f60008301527f43414c4c5f4645450000000000000000000000000000000000000000000000006020830152604082019050919050565b6000612c516036836132b5565b91507f706572666f726d616e63654665652063616e6e6f74206265206d6f726520746860008301527f616e204d41585f504552464f524d414e43455f464545000000000000000000006020830152604082019050919050565b6000612cb76010836132b5565b91507f5061757361626c653a20706175736564000000000000000000000000000000006000830152602082019050919050565b6000612cf76016836132b5565b91507f43616e6e6f74206265207a65726f2061646472657373000000000000000000006000830152602082019050919050565b6000612d376020836132b5565b91507f4f776e61626c653a2063616c6c6572206973206e6f7420746865206f776e65726000830152602082019050919050565b6000612d776014836132b5565b91507f636f6e7472616374206e6f7420616c6c6f7765640000000000000000000000006000830152602082019050919050565b6000612db7600b836132b5565b91507f61646d696e3a207775743f0000000000000000000000000000000000000000006000830152602082019050919050565b6000612df7603d836132b5565b91507f7769746864726177466565506572696f642063616e6e6f74206265206d6f726560008301527f207468616e204d41585f57495448445241575f4645455f504552494f440000006020830152604082019050919050565b6000612e5d6030836132b5565b91507f77697468647261774665652063616e6e6f74206265206d6f7265207468616e2060008301527f4d41585f57495448445241575f464545000000000000000000000000000000006020830152604082019050919050565b612ebf81613419565b82525050565b6000602082019050612eda6000830184612921565b92915050565b6000606082019050612ef56000830186612921565b612f026020830185612921565b612f0f6040830184612eb6565b949350505050565b6000604082019050612f2c6000830185612921565b612f396020830184612eb6565b9392505050565b6000602082019050612f556000830184612930565b92915050565b6000602082019050612f70600083018461293f565b92915050565b6000602082019050612f8b600083018461294e565b92915050565b6000602082019050612fa6600083018461295d565b92915050565b6000604082019050612fc1600083018561295d565b612fce6020830184612921565b9392505050565b60006020820190508181036000830152612fee8161296c565b9050919050565b6000602082019050818103600083015261300e816129ac565b9050919050565b6000602082019050818103600083015261302e816129ec565b9050919050565b6000602082019050818103600083015261304e81612a2c565b9050919050565b6000602082019050818103600083015261306e81612a6c565b9050919050565b6000602082019050818103600083015261308e81612ad2565b9050919050565b600060208201905081810360008301526130ae81612b38565b9050919050565b600060208201905081810360008301526130ce81612b78565b9050919050565b600060208201905081810360008301526130ee81612bde565b9050919050565b6000602082019050818103600083015261310e81612c44565b9050919050565b6000602082019050818103600083015261312e81612caa565b9050919050565b6000602082019050818103600083015261314e81612cea565b9050919050565b6000602082019050818103600083015261316e81612d2a565b9050919050565b6000602082019050818103600083015261318e81612d6a565b9050919050565b600060208201905081810360008301526131ae81612daa565b9050919050565b600060208201905081810360008301526131ce81612dea565b9050919050565b600060208201905081810360008301526131ee81612e50565b9050919050565b600060208201905061320a6000830184612eb6565b92915050565b60006040820190506132256000830185612eb6565b6132326020830184612eb6565b9392505050565b600060608201905061324e6000830186612eb6565b61325b6020830185612eb6565b6132686040830184612eb6565b949350505050565b60006080820190506132856000830187612eb6565b6132926020830186612eb6565b61329f6040830185612eb6565b6132ac6060830184612eb6565b95945050505050565b600082825260208201905092915050565b60006132d182613419565b91506132dc83613419565b9250827fffffffffffffffffffffffffffffffffffffffffffffffffffffffffffffffff038211156133115761331061347d565b5b828201905092915050565b600061332782613419565b915061333283613419565b925082613342576133416134ac565b5b828204905092915050565b600061335882613419565b915061336383613419565b9250817fffffffffffffffffffffffffffffffffffffffffffffffffffffffffffffffff048311821515161561339c5761339b61347d565b5b828202905092915050565b60006133b282613419565b91506133bd83613419565b9250828210156133d0576133cf61347d565b5b828203905092915050565b60006133e6826133f9565b9050919050565b60008115159050919050565b600073ffffffffffffffffffffffffffffffffffffffff82169050919050565b6000819050919050565b600061342e82613435565b9050919050565b6000613440826133f9565b9050919050565b600061345282613459565b9050919050565b6000613464826133f9565b9050919050565b600061347682613419565b9050919050565b7f4e487b7100000000000000000000000000000000000000000000000000000000600052601160045260246000fd5b7f4e487b7100000000000000000000000000000000000000000000000000000000600052601260045260246000fd5b6134e4816133db565b81146134ef57600080fd5b50565b6134fb816133ed565b811461350657600080fd5b50565b61351281613419565b811461351d57600080fd5b5056fea2646970667358221220499b81f4b182fee139ceb0547b3549df7bf41938f841ed8bd850633b809f389464736f6c63430008000033",
  "immutableReferences": {
    "5498": [
      {
        "length": 32,
        "start": 3107
      },
      {
        "length": 32,
        "start": 3413
      },
      {
        "length": 32,
        "start": 4386
      },
      {
        "length": 32,
        "start": 4625
      },
      {
        "length": 32,
        "start": 4901
      },
      {
        "length": 32,
        "start": 5976
      },
      {
        "length": 32,
        "start": 7377
      },
      {
        "length": 32,
        "start": 8265
      },
      {
        "length": 32,
        "start": 9476
      }
    ],
    "5501": [
      {
        "length": 32,
        "start": 8408
      },
      {
        "length": 32,
        "start": 8850
      }
    ],
    "5504": [
      {
        "length": 32,
        "start": 1885
      },
      {
        "length": 32,
        "start": 2857
      },
      {
        "length": 32,
        "start": 4203
      },
      {
        "length": 32,
        "start": 5801
      },
      {
        "length": 32,
        "start": 7872
      },
      {
        "length": 32,
        "start": 8085
      },
      {
        "length": 32,
        "start": 9713
      }
    ]
  },
  "source": "// SPDX-License-Identifier: MIT\n\n/**\n    SoulVault stakes everyone's SOUL (as a single entity) & distributes the rewards accordingly to \n    the user's share of the total stake, calculated with the same logic as SoulSummoner.\n\n    The user needs to approve the contract address with SOUL `allowance()` in order to deposit.\n */\n\npragma solidity ^0.8.0;\n\nimport '@openzeppelin/contracts/utils/Context.sol';\nimport '@openzeppelin/contracts/access/Ownable.sol';\nimport '@openzeppelin/contracts/token/ERC20/IERC20.sol';\nimport '@openzeppelin/contracts/utils/Address.sol';\nimport '@openzeppelin/contracts/security/Pausable.sol';\nimport './libs/ISummoner.sol';\n\ncontract SoulVault is Ownable, Pausable {\n\n    struct UserInfo {\n        uint256 shares; // number of shares for a user\n        uint256 lastDepositedTime; // keeps track of deposited time for potential penalty\n        uint256 soulAtLastUserAction; // keeps track of soul deposited at the last user action\n        uint256 lastUserActionTime; // keeps track of the last user action time\n    }\n\n    IERC20 public immutable token; // Soul power\n    IERC20 public immutable receiptToken; // Seance token\n\n    ISummoner public immutable summoner;\n\n    mapping(address => UserInfo) public userInfo;\n\n    uint256 public totalShares;\n    uint256 public lastHarvestedTime;\n    address public admin = msg.sender;\n    address public treasury = msg.sender;\n\n    uint256 public constant MAX_PERFORMANCE_FEE = 500; // 5%\n    uint256 public constant MAX_CALL_FEE = 100; // 1%\n    uint256 public constant MAX_WITHDRAW_FEE = 100; // 1%\n    uint256 public constant MAX_WITHDRAW_FEE_PERIOD = 72 hours; // 3 days\n\n    uint256 public performanceFee = 200; // 2%\n    uint256 public callFee = 25; // 0.25%\n    uint256 public withdrawFee = 10; // 0.1%\n    uint256 public withdrawFeePeriod = 72 hours; // 3 days\n\n    event Deposit(address indexed sender, uint256 amount, uint256 shares, uint256 lastDepositedTime);\n    event Withdraw(address indexed sender, uint256 amount, uint256 shares);\n    event Harvest(address indexed sender, uint256 performanceFee, uint256 callFee);\n    event Pause();\n    event Unpause();\n\n    /**\n     * @notice Constructor\n     * @param _token: Soul power contract\n     * @param _receiptToken: Seance token contract\n     * @param _summoner: SoulSummoner contract\n     */\n    constructor(\n        IERC20 _token,\n        IERC20 _receiptToken,\n        ISummoner _summoner\n    ) {\n        token = _token;\n        receiptToken = _receiptToken;\n        summoner = _summoner;\n\n        // Infinite approve\n        IERC20(_token).approve(address(_summoner), type(uint256).max);\n    }\n\n    /**\n     * @notice Checks if the msg.sender is the admin address\n     */\n    modifier onlyAdmin() {\n        require(msg.sender == admin, \"admin: wut?\");\n        _;\n    }\n\n    /**\n     * @notice Checks if the msg.sender is a contract or a proxy\n     */\n    modifier notContract() {\n        require(!_isContract(msg.sender), \"contract not allowed\");\n        require(msg.sender == tx.origin, \"proxy contract not allowed\");\n        _;\n    }\n\n    /**\n     * @notice Deposits funds into the Soul Vault\n     * @dev Only possible when contract not paused & user has approved tokens for transferFrom.\n     * @param _amount: number of tokens to deposit (in SOUL)\n     */\n    function deposit(uint256 _amount) external whenNotPaused notContract {\n        require(_amount > 0, \"Nothing to deposit\");\n\n        uint256 pool = balanceOf();\n        token.transferFrom(msg.sender, address(this), _amount);\n        uint256 currentShares = 0;\n        if (totalShares != 0) {\n            currentShares = (_amount * totalShares) / pool;\n        } else {\n            currentShares = _amount;\n        }\n        UserInfo storage user = userInfo[msg.sender];\n\n        user.shares = user.shares + currentShares;\n        user.lastDepositedTime = block.timestamp;\n\n        totalShares = totalShares + currentShares;\n\n        user.soulAtLastUserAction = (user.shares * balanceOf()) / totalShares;\n        user.lastUserActionTime = block.timestamp;\n\n        _earn();\n\n        emit Deposit(msg.sender, _amount, currentShares, block.timestamp);\n    }\n\n    /**\n     * @notice Withdraws all funds for the caller\n     */\n    function withdrawAll() external notContract {\n        withdraw(userInfo[msg.sender].shares);\n    }\n\n    /**\n     * @notice Reinvests SOUL powers into SoulSummoner\n     * @dev Only possible when contract not paused.\n     */\n    function harvest() external notContract whenNotPaused {\n        ISummoner(summoner).leaveStaking(0);\n\n        uint256 bal = available();\n        uint256 currentPerformanceFee = (bal * performanceFee) / 10000;\n        token.transfer(treasury, currentPerformanceFee);\n\n        uint256 currentCallFee = (bal * callFee) / 10000;\n        token.transfer(msg.sender, currentCallFee);\n\n        _earn();\n\n        lastHarvestedTime = block.timestamp;\n\n        emit Harvest(msg.sender, currentPerformanceFee, currentCallFee);\n    }\n\n    /**\n     * @notice Sets admin address\n     * @dev Only callable by the contract owner.\n     */\n    function setAdmin(address _admin) external onlyOwner {\n        require(_admin != address(0), \"Cannot be zero address\");\n        admin = _admin;\n    }\n\n    /**\n     * @notice Sets treasury address\n     * @dev Only callable by the contract owner.\n     */\n    function setTreasury(address _treasury) external onlyOwner {\n        require(_treasury != address(0), \"Cannot be zero address\");\n        treasury = _treasury;\n    }\n\n    /**\n     * @notice Sets performance fee\n     * @dev Only callable by the contract admin.\n     */\n    function setPerformanceFee(uint256 _performanceFee) external onlyAdmin {\n        require(_performanceFee <= MAX_PERFORMANCE_FEE, \"performanceFee cannot be more than MAX_PERFORMANCE_FEE\");\n        performanceFee = _performanceFee;\n    }\n\n    /**\n     * @notice Sets call fee\n     * @dev Only callable by the contract admin.\n     */\n    function setCallFee(uint256 _callFee) external onlyAdmin {\n        require(_callFee <= MAX_CALL_FEE, \"callFee cannot be more than MAX_CALL_FEE\");\n        callFee = _callFee;\n    }\n\n    /**\n     * @notice Sets withdraw fee\n     * @dev Only callable by the contract admin.\n     */\n    function setWithdrawFee(uint256 _withdrawFee) external onlyAdmin {\n        require(_withdrawFee <= MAX_WITHDRAW_FEE, \"withdrawFee cannot be more than MAX_WITHDRAW_FEE\");\n        withdrawFee = _withdrawFee;\n    }\n\n    /**\n     * @notice Sets withdraw fee period\n     * @dev Only callable by the contract admin.\n     */\n    function setWithdrawFeePeriod(uint256 _withdrawFeePeriod) external onlyAdmin {\n        require(\n            _withdrawFeePeriod <= MAX_WITHDRAW_FEE_PERIOD,\n            \"withdrawFeePeriod cannot be more than MAX_WITHDRAW_FEE_PERIOD\"\n        );\n        withdrawFeePeriod = _withdrawFeePeriod;\n    }\n\n    /**\n     * @notice Withdraw unexpected tokens sent to the Soul Vault\n     */\n    function inCaseTokensGetStuck(address _token) external onlyAdmin {\n        require(_token != address(token), \"Token cannot be same as deposit token\");\n        require(_token != address(receiptToken), \"Token cannot be same as receipt token\");\n\n        uint256 amount = IERC20(_token).balanceOf(address(this));\n        IERC20(_token).transfer(msg.sender, amount);\n    }\n\n    /**\n     * @notice Triggers stopped state\n     * @dev Only possible when contract not paused.\n     */\n    function pause() external onlyAdmin whenNotPaused {\n        _pause();\n        emit Pause();\n    }\n\n    /**\n     * @notice Returns to normal state\n     * @dev Only possible when contract is paused.\n     */\n    function unpause() external onlyAdmin whenPaused {\n        _unpause();\n        emit Unpause();\n    }\n\n    /**\n     * @notice Calculates the expected harvest reward from third party\n     * @return Expected reward to collect in SOUL\n     */\n    function calculateHarvestSoulRewards() external view returns (uint256) {\n        uint256 amount = ISummoner(summoner).pendingSoul(0, address(this));\n        amount = amount + available();\n        uint256 currentCallFee = (amount * callFee) / 10000;\n\n        return currentCallFee;\n    }\n\n    /**\n     * @notice Calculates the total pending rewards that can be restaked\n     * @return Returns total pending SOUL rewards\n     */\n    function calculateTotalPendingSoulRewards() external view returns (uint256) {\n        uint256 amount = ISummoner(summoner).pendingSoul(0, address(this));\n        amount = amount + available();\n\n        return amount;\n    }\n\n    /**\n     * @notice Calculates the price per share\n     */\n    function getPricePerFullShare() external view returns (uint256) {\n        return totalShares == 0 ? 1e18 : (balanceOf() * 1e18) / totalShares;\n    }\n\n    /**\n     * @notice Withdraws from funds from the Soul Vault\n     * @param _shares: Number of shares to withdraw\n     */\n    function withdraw(uint256 _shares) public notContract {\n        UserInfo storage user = userInfo[msg.sender];\n        require(_shares > 0, \"Nothing to withdraw\");\n        require(_shares <= user.shares, \"Withdraw amount exceeds balance\");\n\n        uint256 currentAmount = (balanceOf() * _shares) / totalShares;\n        user.shares = user.shares - _shares;\n        totalShares = totalShares - _shares;\n\n        uint256 bal = available();\n        if (bal < currentAmount) {\n            uint256 balWithdraw = currentAmount - bal;\n            ISummoner(summoner).leaveStaking(balWithdraw);\n            uint256 balAfter = available();\n            uint256 diff = balAfter - bal;\n            if (diff < balWithdraw) {\n                currentAmount = bal + diff;\n            }\n        }\n\n        if (block.timestamp < user.lastDepositedTime + withdrawFeePeriod) {\n            uint256 currentWithdrawFee = (currentAmount * withdrawFee) / 10000;\n            token.transfer(treasury, currentWithdrawFee);\n            currentAmount = currentAmount - currentWithdrawFee;\n        }\n\n        if (user.shares > 0) {\n            user.soulAtLastUserAction = (user.shares * balanceOf()) / totalShares;\n        } else {\n            user.soulAtLastUserAction = 0;\n        }\n\n        user.lastUserActionTime = block.timestamp;\n\n        token.transfer(msg.sender, currentAmount);\n\n        emit Withdraw(msg.sender, currentAmount, _shares);\n    }\n\n    /**\n     * @notice Checks the total SOUL deposited by users\n     * @dev The contract staked the total SOUL deposited\n     */\n    function available() public view returns (uint256) {\n        return token.balanceOf(address(this));\n    }\n\n    /**\n     * @notice Calculates the total underlying tokens\n     * @dev It includes tokens held by the contract and held in SoulSummoner\n     */\n    function balanceOf() public view returns (uint256) {\n        (uint256 amount, ) = ISummoner(summoner).userInfo(0, address(this));\n        return token.balanceOf(address(this)) + amount;\n    }\n\n    /**\n     * @notice Deposits tokens into SoulSummoner to earn staking rewards\n     */\n    function _earn() internal {\n        uint256 bal = available();\n        if (bal > 0) {\n            ISummoner(summoner).enterStaking(bal);\n        }\n    }\n\n    /**\n     * @notice Checks if address is a contract\n     * @dev It prevents contract from being targeted\n     */\n    function _isContract(address addr) internal view returns (bool) {\n        uint256 size;\n        assembly {\n            size := extcodesize(addr)\n        }\n        return size > 0;\n    }\n}\n",
  "sourcePath": "/Users/unico/Documents/GitHub/SoulSwap/soulswap-farms/contracts/SoulVault.sol",
  "compiler": {
    "name": "solc",
    "version": "0.8.0+commit.c7dfd78e.Emscripten.clang"
  },
  "schemaVersion": "3.4.1",
  "updatedAt": "2021-07-25T20:28:15.431Z",
  "devdoc": {
    "kind": "dev",
    "methods": {
      "available()": {
        "details": "The contract staked the total SOUL deposited"
      },
      "balanceOf()": {
        "details": "It includes tokens held by the contract and held in SoulSummoner"
      },
      "calculateHarvestSoulRewards()": {
        "returns": {
          "_0": "Expected reward to collect in SOUL"
        }
      },
      "calculateTotalPendingSoulRewards()": {
        "returns": {
          "_0": "Returns total pending SOUL rewards"
        }
      },
      "constructor": {
        "params": {
          "_receiptToken": ": Seance token contract",
          "_summoner": ": SoulSummoner contract",
          "_token": ": Soul power contract"
        }
      },
      "deposit(uint256)": {
        "details": "Only possible when contract not paused & user has approved tokens for transferFrom.",
        "params": {
          "_amount": ": number of tokens to deposit (in SOUL)"
        }
      },
      "harvest()": {
        "details": "Only possible when contract not paused."
      },
      "owner()": {
        "details": "Returns the address of the current owner."
      },
      "pause()": {
        "details": "Only possible when contract not paused."
      },
      "paused()": {
        "details": "Returns true if the contract is paused, and false otherwise."
      },
      "renounceOwnership()": {
        "details": "Leaves the contract without owner. It will not be possible to call `onlyOwner` functions anymore. Can only be called by the current owner. NOTE: Renouncing ownership will leave the contract without an owner, thereby removing any functionality that is only available to the owner."
      },
      "setAdmin(address)": {
        "details": "Only callable by the contract owner."
      },
      "setCallFee(uint256)": {
        "details": "Only callable by the contract admin."
      },
      "setPerformanceFee(uint256)": {
        "details": "Only callable by the contract admin."
      },
      "setTreasury(address)": {
        "details": "Only callable by the contract owner."
      },
      "setWithdrawFee(uint256)": {
        "details": "Only callable by the contract admin."
      },
      "setWithdrawFeePeriod(uint256)": {
        "details": "Only callable by the contract admin."
      },
      "transferOwnership(address)": {
        "details": "Transfers ownership of the contract to a new account (`newOwner`). Can only be called by the current owner."
      },
      "unpause()": {
        "details": "Only possible when contract is paused."
      },
      "withdraw(uint256)": {
        "params": {
          "_shares": ": Number of shares to withdraw"
        }
      }
    },
    "version": 1
  },
  "userdoc": {
    "kind": "user",
    "methods": {
      "available()": {
        "notice": "Checks the total SOUL deposited by users"
      },
      "balanceOf()": {
        "notice": "Calculates the total underlying tokens"
      },
      "calculateHarvestSoulRewards()": {
        "notice": "Calculates the expected harvest reward from third party"
      },
      "calculateTotalPendingSoulRewards()": {
        "notice": "Calculates the total pending rewards that can be restaked"
      },
      "constructor": {
        "notice": "Constructor"
      },
      "deposit(uint256)": {
        "notice": "Deposits funds into the Soul Vault"
      },
      "getPricePerFullShare()": {
        "notice": "Calculates the price per share"
      },
      "harvest()": {
        "notice": "Reinvests SOUL powers into SoulSummoner"
      },
      "inCaseTokensGetStuck(address)": {
        "notice": "Withdraw unexpected tokens sent to the Soul Vault"
      },
      "pause()": {
        "notice": "Triggers stopped state"
      },
      "setAdmin(address)": {
        "notice": "Sets admin address"
      },
      "setCallFee(uint256)": {
        "notice": "Sets call fee"
      },
      "setPerformanceFee(uint256)": {
        "notice": "Sets performance fee"
      },
      "setTreasury(address)": {
        "notice": "Sets treasury address"
      },
      "setWithdrawFee(uint256)": {
        "notice": "Sets withdraw fee"
      },
      "setWithdrawFeePeriod(uint256)": {
        "notice": "Sets withdraw fee period"
      },
      "unpause()": {
        "notice": "Returns to normal state"
      },
      "withdraw(uint256)": {
        "notice": "Withdraws from funds from the Soul Vault"
      },
      "withdrawAll()": {
        "notice": "Withdraws all funds for the caller"
      }
    },
    "version": 1
  }
}