{
  "contractName": "SoulSummoner",
  "abi": [
    {
      "anonymous": false,
      "inputs": [
        {
          "indexed": true,
          "internalType": "address",
          "name": "user",
          "type": "address"
        },
        {
          "indexed": true,
          "internalType": "uint256",
          "name": "pid",
          "type": "uint256"
        },
        {
          "indexed": false,
          "internalType": "uint256",
          "name": "amount",
          "type": "uint256"
        }
      ],
      "name": "Deposit",
      "type": "event"
    },
    {
      "anonymous": false,
      "inputs": [
        {
          "indexed": false,
          "internalType": "address",
          "name": "team",
          "type": "address"
        },
        {
          "indexed": false,
          "internalType": "address",
          "name": "dev",
          "type": "address"
        },
        {
          "indexed": false,
          "internalType": "address",
          "name": "soul",
          "type": "address"
        },
        {
          "indexed": false,
          "internalType": "address",
          "name": "seance",
          "type": "address"
        },
        {
          "indexed": false,
          "internalType": "uint256",
          "name": "chainId",
          "type": "uint256"
        },
        {
          "indexed": false,
          "internalType": "uint256",
          "name": "power",
          "type": "uint256"
        }
      ],
      "name": "Initialized",
      "type": "event"
    },
    {
      "anonymous": false,
      "inputs": [
        {
          "indexed": true,
          "internalType": "address",
          "name": "operator",
          "type": "address"
        },
        {
          "indexed": true,
          "internalType": "bool",
          "name": "access",
          "type": "bool"
        }
      ],
      "name": "OperatorUpdated",
      "type": "event"
    },
    {
      "anonymous": false,
      "inputs": [
        {
          "indexed": true,
          "internalType": "address",
          "name": "previousOwner",
          "type": "address"
        },
        {
          "indexed": true,
          "internalType": "address",
          "name": "newOwner",
          "type": "address"
        }
      ],
      "name": "OwnershipTransferred",
      "type": "event"
    },
    {
      "anonymous": false,
      "inputs": [
        {
          "indexed": false,
          "internalType": "uint256",
          "name": "pid",
          "type": "uint256"
        },
        {
          "indexed": false,
          "internalType": "uint256",
          "name": "allocPoint",
          "type": "uint256"
        },
        {
          "indexed": false,
          "internalType": "contract IERC20",
          "name": "lpToken",
          "type": "address"
        },
        {
          "indexed": false,
          "internalType": "uint256",
          "name": "totalAllocPoint",
          "type": "uint256"
        }
      ],
      "name": "PoolAdded",
      "type": "event"
    },
    {
      "anonymous": false,
      "inputs": [
        {
          "indexed": false,
          "internalType": "uint256",
          "name": "pid",
          "type": "uint256"
        },
        {
          "indexed": false,
          "internalType": "uint256",
          "name": "allocPoint",
          "type": "uint256"
        }
      ],
      "name": "PoolSet",
      "type": "event"
    },
    {
      "anonymous": false,
      "inputs": [
        {
          "indexed": false,
          "internalType": "uint256",
          "name": "power",
          "type": "uint256"
        },
        {
          "indexed": false,
          "internalType": "uint256",
          "name": "totalPower",
          "type": "uint256"
        }
      ],
      "name": "PowerUpdated",
      "type": "event"
    },
    {
      "anonymous": false,
      "inputs": [
        {
          "indexed": false,
          "internalType": "uint256",
          "name": "dailySoul",
          "type": "uint256"
        },
        {
          "indexed": false,
          "internalType": "uint256",
          "name": "soulPerSecond",
          "type": "uint256"
        }
      ],
      "name": "RewardsUpdated",
      "type": "event"
    },
    {
      "anonymous": false,
      "inputs": [
        {
          "indexed": true,
          "internalType": "address",
          "name": "user",
          "type": "address"
        },
        {
          "indexed": true,
          "internalType": "uint256",
          "name": "pid",
          "type": "uint256"
        },
        {
          "indexed": false,
          "internalType": "uint256",
          "name": "amount",
          "type": "uint256"
        }
      ],
      "name": "Withdraw",
      "type": "event"
    },
    {
      "inputs": [
        {
          "internalType": "address",
          "name": "newOperator",
          "type": "address"
        }
      ],
      "name": "addOperator",
      "outputs": [],
      "stateMutability": "nonpayable",
      "type": "function"
    },
    {
      "inputs": [],
      "name": "bonusMultiplier",
      "outputs": [
        {
          "internalType": "uint256",
          "name": "",
          "type": "uint256"
        }
      ],
      "stateMutability": "view",
      "type": "function"
    },
    {
      "inputs": [],
      "name": "chainId",
      "outputs": [
        {
          "internalType": "uint256",
          "name": "",
          "type": "uint256"
        }
      ],
      "stateMutability": "view",
      "type": "function"
    },
    {
      "inputs": [],
      "name": "dailySoul",
      "outputs": [
        {
          "internalType": "uint256",
          "name": "",
          "type": "uint256"
        }
      ],
      "stateMutability": "view",
      "type": "function"
    },
    {
      "inputs": [],
      "name": "dao",
      "outputs": [
        {
          "internalType": "address",
          "name": "",
          "type": "address"
        }
      ],
      "stateMutability": "view",
      "type": "function"
    },
    {
      "inputs": [],
      "name": "initialized",
      "outputs": [
        {
          "internalType": "bool",
          "name": "",
          "type": "bool"
        }
      ],
      "stateMutability": "view",
      "type": "function"
    },
    {
      "inputs": [],
      "name": "migrator",
      "outputs": [
        {
          "internalType": "contract IMigrator",
          "name": "",
          "type": "address"
        }
      ],
      "stateMutability": "view",
      "type": "function"
    },
    {
      "inputs": [
        {
          "internalType": "address",
          "name": "",
          "type": "address"
        }
      ],
      "name": "operator",
      "outputs": [
        {
          "internalType": "bool",
          "name": "",
          "type": "bool"
        }
      ],
      "stateMutability": "view",
      "type": "function"
    },
    {
      "inputs": [
        {
          "internalType": "uint256",
          "name": "",
          "type": "uint256"
        }
      ],
      "name": "operators",
      "outputs": [
        {
          "internalType": "address",
          "name": "",
          "type": "address"
        }
      ],
      "stateMutability": "view",
      "type": "function"
    },
    {
      "inputs": [],
      "name": "owner",
      "outputs": [
        {
          "internalType": "address",
          "name": "",
          "type": "address"
        }
      ],
      "stateMutability": "view",
      "type": "function"
    },
    {
      "inputs": [
        {
          "internalType": "uint256",
          "name": "",
          "type": "uint256"
        }
      ],
      "name": "poolInfo",
      "outputs": [
        {
          "internalType": "contract IERC20",
          "name": "lpToken",
          "type": "address"
        },
        {
          "internalType": "uint256",
          "name": "allocPoint",
          "type": "uint256"
        },
        {
          "internalType": "uint256",
          "name": "lastRewardTime",
          "type": "uint256"
        },
        {
          "internalType": "uint256",
          "name": "accSoulPerShare",
          "type": "uint256"
        }
      ],
      "stateMutability": "view",
      "type": "function"
    },
    {
      "inputs": [],
      "name": "power",
      "outputs": [
        {
          "internalType": "uint256",
          "name": "",
          "type": "uint256"
        }
      ],
      "stateMutability": "view",
      "type": "function"
    },
    {
      "inputs": [
        {
          "internalType": "address",
          "name": "removingOperator",
          "type": "address"
        }
      ],
      "name": "removeOperator",
      "outputs": [],
      "stateMutability": "nonpayable",
      "type": "function"
    },
    {
      "inputs": [],
      "name": "renounceOwnership",
      "outputs": [],
      "stateMutability": "nonpayable",
      "type": "function"
    },
    {
      "inputs": [],
      "name": "seance",
      "outputs": [
        {
          "internalType": "contract SeanceCircle",
          "name": "",
          "type": "address"
        }
      ],
      "stateMutability": "view",
      "type": "function"
    },
    {
      "inputs": [],
      "name": "soul",
      "outputs": [
        {
          "internalType": "contract SoulPower",
          "name": "",
          "type": "address"
        }
      ],
      "stateMutability": "view",
      "type": "function"
    },
    {
      "inputs": [],
      "name": "soulPerSecond",
      "outputs": [
        {
          "internalType": "uint256",
          "name": "",
          "type": "uint256"
        }
      ],
      "stateMutability": "view",
      "type": "function"
    },
    {
      "inputs": [],
      "name": "startTime",
      "outputs": [
        {
          "internalType": "uint256",
          "name": "",
          "type": "uint256"
        }
      ],
      "stateMutability": "view",
      "type": "function"
    },
    {
      "inputs": [],
      "name": "team",
      "outputs": [
        {
          "internalType": "address",
          "name": "",
          "type": "address"
        }
      ],
      "stateMutability": "view",
      "type": "function"
    },
    {
      "inputs": [],
      "name": "totalAllocPoint",
      "outputs": [
        {
          "internalType": "uint256",
          "name": "",
          "type": "uint256"
        }
      ],
      "stateMutability": "view",
      "type": "function"
    },
    {
      "inputs": [],
      "name": "totalChains",
      "outputs": [
        {
          "internalType": "uint256",
          "name": "",
          "type": "uint256"
        }
      ],
      "stateMutability": "view",
      "type": "function"
    },
    {
      "inputs": [],
      "name": "totalPower",
      "outputs": [
        {
          "internalType": "uint256",
          "name": "",
          "type": "uint256"
        }
      ],
      "stateMutability": "view",
      "type": "function"
    },
    {
      "inputs": [
        {
          "internalType": "address",
          "name": "newOwner",
          "type": "address"
        }
      ],
      "name": "transferOwnership",
      "outputs": [],
      "stateMutability": "nonpayable",
      "type": "function"
    },
    {
      "inputs": [
        {
          "internalType": "uint256",
          "name": "",
          "type": "uint256"
        },
        {
          "internalType": "address",
          "name": "",
          "type": "address"
        }
      ],
      "name": "userInfo",
      "outputs": [
        {
          "internalType": "uint256",
          "name": "amount",
          "type": "uint256"
        },
        {
          "internalType": "uint256",
          "name": "rewardDebt",
          "type": "uint256"
        }
      ],
      "stateMutability": "view",
      "type": "function"
    },
    {
      "inputs": [
        {
          "internalType": "address",
          "name": "_soulAddress",
          "type": "address"
        },
        {
          "internalType": "address",
          "name": "_seanceAddress",
          "type": "address"
        },
        {
          "internalType": "uint256",
          "name": "_chainId",
          "type": "uint256"
        },
        {
          "internalType": "uint256",
          "name": "_totalChains",
          "type": "uint256"
        },
        {
          "internalType": "uint256",
          "name": "_totalPower",
          "type": "uint256"
        },
        {
          "internalType": "uint256",
          "name": "_power",
          "type": "uint256"
        }
      ],
      "name": "initialize",
      "outputs": [],
      "stateMutability": "nonpayable",
      "type": "function"
    },
    {
      "inputs": [
        {
          "internalType": "uint256",
          "name": "_bonusMultiplier",
          "type": "uint256"
        }
      ],
      "name": "updateMultiplier",
      "outputs": [],
      "stateMutability": "nonpayable",
      "type": "function"
    },
    {
      "inputs": [],
      "name": "poolLength",
      "outputs": [
        {
          "internalType": "uint256",
          "name": "",
          "type": "uint256"
        }
      ],
      "stateMutability": "view",
      "type": "function"
    },
    {
      "inputs": [
        {
          "internalType": "uint256",
          "name": "_allocPoint",
          "type": "uint256"
        },
        {
          "internalType": "contract IERC20",
          "name": "_lpToken",
          "type": "address"
        },
        {
          "internalType": "bool",
          "name": "_withUpdate",
          "type": "bool"
        }
      ],
      "name": "add",
      "outputs": [],
      "stateMutability": "nonpayable",
      "type": "function"
    },
    {
      "inputs": [
        {
          "internalType": "uint256",
          "name": "_pid",
          "type": "uint256"
        },
        {
          "internalType": "uint256",
          "name": "_allocPoint",
          "type": "uint256"
        },
        {
          "internalType": "bool",
          "name": "_withUpdate",
          "type": "bool"
        }
      ],
      "name": "set",
      "outputs": [],
      "stateMutability": "nonpayable",
      "type": "function"
    },
    {
      "inputs": [
        {
          "internalType": "uint256",
          "name": "_power",
          "type": "uint256"
        }
      ],
      "name": "updatePower",
      "outputs": [],
      "stateMutability": "nonpayable",
      "type": "function"
    },
    {
      "inputs": [
        {
          "internalType": "contract IMigrator",
          "name": "_migrator",
          "type": "address"
        }
      ],
      "name": "setMigrator",
      "outputs": [],
      "stateMutability": "nonpayable",
      "type": "function"
    },
    {
      "inputs": [
        {
          "internalType": "uint256",
          "name": "_pid",
          "type": "uint256"
        }
      ],
      "name": "migrate",
      "outputs": [],
      "stateMutability": "nonpayable",
      "type": "function"
    },
    {
      "inputs": [
        {
          "internalType": "uint256",
          "name": "_from",
          "type": "uint256"
        },
        {
          "internalType": "uint256",
          "name": "_to",
          "type": "uint256"
        }
      ],
      "name": "getMultiplier",
      "outputs": [
        {
          "internalType": "uint256",
          "name": "",
          "type": "uint256"
        }
      ],
      "stateMutability": "view",
      "type": "function"
    },
    {
      "inputs": [
        {
          "internalType": "uint256",
          "name": "_pid",
          "type": "uint256"
        },
        {
          "internalType": "address",
          "name": "_user",
          "type": "address"
        }
      ],
      "name": "pendingSoul",
      "outputs": [
        {
          "internalType": "uint256",
          "name": "",
          "type": "uint256"
        }
      ],
      "stateMutability": "view",
      "type": "function"
    },
    {
      "inputs": [],
      "name": "massUpdatePools",
      "outputs": [],
      "stateMutability": "nonpayable",
      "type": "function"
    },
    {
      "inputs": [
        {
          "internalType": "uint256",
          "name": "_pid",
          "type": "uint256"
        }
      ],
      "name": "updatePool",
      "outputs": [],
      "stateMutability": "nonpayable",
      "type": "function"
    },
    {
      "inputs": [
        {
          "internalType": "uint256",
          "name": "_pid",
          "type": "uint256"
        },
        {
          "internalType": "uint256",
          "name": "_amount",
          "type": "uint256"
        }
      ],
      "name": "deposit",
      "outputs": [],
      "stateMutability": "nonpayable",
      "type": "function"
    },
    {
      "inputs": [
        {
          "internalType": "uint256",
          "name": "_pid",
          "type": "uint256"
        },
        {
          "internalType": "uint256",
          "name": "_amount",
          "type": "uint256"
        }
      ],
      "name": "withdraw",
      "outputs": [],
      "stateMutability": "nonpayable",
      "type": "function"
    },
    {
      "inputs": [
        {
          "internalType": "uint256",
          "name": "_amount",
          "type": "uint256"
        }
      ],
      "name": "enterStaking",
      "outputs": [],
      "stateMutability": "nonpayable",
      "type": "function"
    },
    {
      "inputs": [
        {
          "internalType": "uint256",
          "name": "_amount",
          "type": "uint256"
        }
      ],
      "name": "leaveStaking",
      "outputs": [],
      "stateMutability": "nonpayable",
      "type": "function"
    },
    {
      "inputs": [
        {
          "internalType": "address",
          "name": "_dao",
          "type": "address"
        }
      ],
      "name": "newDAO",
      "outputs": [],
      "stateMutability": "nonpayable",
      "type": "function"
    },
    {
      "inputs": [
        {
          "internalType": "address",
          "name": "_team",
          "type": "address"
        }
      ],
      "name": "newTeam",
      "outputs": [],
      "stateMutability": "nonpayable",
      "type": "function"
    },
    {
      "inputs": [
        {
          "internalType": "contract SoulPower",
          "name": "_soul",
          "type": "address"
        }
      ],
      "name": "newSoul",
      "outputs": [],
      "stateMutability": "nonpayable",
      "type": "function"
    },
    {
      "inputs": [
        {
          "internalType": "contract SeanceCircle",
          "name": "_seance",
          "type": "address"
        }
      ],
      "name": "newSeance",
      "outputs": [],
      "stateMutability": "nonpayable",
      "type": "function"
    }
  ],
  "bytecode": "0x60806040526934f086f3b33b68400000600f5562015180600f546200002591906200024e565b60105560016011553480156200003a57600080fd5b50600160008190555062000063620000576200018060201b60201c565b6200018860201b60201c565b6000620000756200018060201b60201c565b90506001600360008373ffffffffffffffffffffffffffffffffffffffff1673ffffffffffffffffffffffffffffffffffffffff16815260200190815260200160002060006101000a81548160ff0219169083151502179055506002819080600181540180825580915050600190039060005260206000200160009091909190916101000a81548173ffffffffffffffffffffffffffffffffffffffff021916908373ffffffffffffffffffffffffffffffffffffffff160217905550600115158173ffffffffffffffffffffffffffffffffffffffff167f966c160e1c4dbc7df8d69af4ace01e9297c3cf016397b7914971f2fbfa32672d60405160405180910390a350620002bf565b600033905090565b6000600160009054906101000a900473ffffffffffffffffffffffffffffffffffffffff16905081600160006101000a81548173ffffffffffffffffffffffffffffffffffffffff021916908373ffffffffffffffffffffffffffffffffffffffff1602179055508173ffffffffffffffffffffffffffffffffffffffff168173ffffffffffffffffffffffffffffffffffffffff167f8be0079c531659141344cd1fd0a4f28419497f9722a3daafe3b4186f6b6457e060405160405180910390a35050565b60006200025b8262000286565b9150620002688362000286565b9250826200027b576200027a62000290565b5b828204905092915050565b6000819050919050565b7f4e487b7100000000000000000000000000000000000000000000000000000000600052601260045260246000fd5b6151db80620002cf6000396000f3fe608060405234801561001057600080fd5b50600436106102745760003560e01c80637cd07e4711610151578063a8b973a1116100c3578063e06f926f11610087578063e06f926f14610705578063e28d490614610721578063e2bbb15814610751578063e2f0edf61461076d578063f2fde38b1461078b578063f8a44b67146107a757610274565b8063a8b973a114610661578063ac8a584a1461067f578063bfafcad51461069b578063d3451379146106cb578063db3ad22c146106e757610274565b80638da5cb5b116101155780638da5cb5b146105785780638dbb1e3a1461059657806393f1a40b146105c65780639870d7fe146105f75780639a307391146106135780639a8a05921461064357610274565b80637cd07e47146104e45780637d500ec814610502578063815b7a8c1461052057806385f2aef21461053e57806386489ba91461055c57610274565b8063441a3e70116101ea5780635f9bf689116101ae5780635f9bf6891461045c5780635ffe61461461047a578063630b5ba11461049657806364482f79146104a0578063715018a6146104bc57806378e97925146104c657610274565b8063441a3e70146103cc578063454b0608146103e85780634a4d59fa146104045780634ca01d451461042257806351eb05a61461044057610274565b80631eaaa0451161023c5780631eaaa04514610322578063216874441461033e57806323cf31181461035a578063260cf9961461037657806341441d3b146103925780634162169f146103ae57610274565b8063081e3eda146102795780631058d281146102975780631526fe27146102b3578063158ef93e146102e657806317caf6f114610304575b600080fd5b6102816107c3565b60405161028e9190614d20565b60405180910390f35b6102b160048036038101906102ac9190614229565b6107d0565b005b6102cd60048036038101906102c89190614229565b610b48565b6040516102dd9493929190614a4a565b60405180910390f35b6102ee610ba8565b6040516102fb9190614a14565b60405180910390f35b61030c610bbb565b6040516103199190614d20565b60405180910390f35b61033c600480360381019061033791906142b7565b610bc1565b005b610358600480360381019061035391906140aa565b610cc2565b005b610374600480360381019061036f91906141ae565b610e13565b005b610390600480360381019061038b9190614200565b610ed3565b005b6103ac60048036038101906103a79190614229565b611024565b005b6103b6611365565b6040516103c39190614938565b60405180910390f35b6103e660048036038101906103e19190614306565b61138b565b005b61040260048036038101906103fd9190614229565b6116ff565b005b61040c611b51565b6040516104199190614d20565b60405180910390f35b61042a611b57565b6040516104379190614aaa565b60405180910390f35b61045a60048036038101906104559190614229565b611b7d565b005b610464611fc9565b6040516104719190614d20565b60405180910390f35b610494600480360381019061048f9190614229565b611fcf565b005b61049e612072565b005b6104ba60048036038101906104b59190614342565b6120a5565b005b6104c46122f3565b005b6104ce61237b565b6040516104db9190614d20565b60405180910390f35b6104ec612381565b6040516104f99190614a8f565b60405180910390f35b61050a6123a7565b6040516105179190614d20565b60405180910390f35b6105286123ad565b6040516105359190614ac5565b60405180910390f35b6105466123d3565b6040516105539190614938565b60405180910390f35b610576600480360381019061057191906140d3565b6123f9565b005b6105806128be565b60405161058d9190614938565b60405180910390f35b6105b060048036038101906105ab9190614306565b6128e8565b6040516105bd9190614d20565b60405180910390f35b6105e060048036038101906105db919061427b565b61290b565b6040516105ee929190614d3b565b60405180910390f35b610611600480360381019061060c91906140aa565b61293c565b005b61062d600480360381019061062891906140aa565b612bd7565b60405161063a9190614a14565b60405180910390f35b61064b612bf7565b6040516106589190614d20565b60405180910390f35b610669612bfd565b6040516106769190614d20565b60405180910390f35b610699600480360381019061069491906140aa565b612c03565b005b6106b560048036038101906106b0919061427b565b612ff9565b6040516106c29190614d20565b60405180910390f35b6106e560048036038101906106e09190614229565b613214565b005b6106ef613305565b6040516106fc9190614d20565b60405180910390f35b61071f600480360381019061071a91906140aa565b61330b565b005b61073b60048036038101906107369190614229565b61345c565b6040516107489190614938565b60405180910390f35b61076b60048036038101906107669190614306565b61349b565b005b6107756137d8565b6040516107829190614d20565b60405180910390f35b6107a560048036038101906107a091906140aa565b6137de565b005b6107c160048036038101906107bc91906141d7565b6138d6565b005b6000601580549050905090565b60026000541415610816576040517f08c379a000000000000000000000000000000000000000000000000000000000815260040161080d90614ce0565b60405180910390fd5b60026000819055506000601560008154811061085b577f4e487b7100000000000000000000000000000000000000000000000000000000600052603260045260246000fd5b9060005260206000209060040201905060006016600080815260200190815260200160002060003373ffffffffffffffffffffffffffffffffffffffff1673ffffffffffffffffffffffffffffffffffffffff16815260200190815260200160002090508281600001541015610906576040517f08c379a00000000000000000000000000000000000000000000000000000000081526004016108fd90614c80565b60405180910390fd5b6109106000611b7d565b6000816001015464e8d4a51000846003015484600001546109319190614e78565b61093b9190614e47565b6109459190614ed2565b9050600081111561095b5761095a3382613a27565b5b6000841115610a2f578382600001546109749190614ed2565b82600001819055508260000160009054906101000a900473ffffffffffffffffffffffffffffffffffffffff1673ffffffffffffffffffffffffffffffffffffffff1663a9059cbb33866040518363ffffffff1660e01b81526004016109db9291906149eb565b602060405180830381600087803b1580156109f557600080fd5b505af1158015610a09573d6000803e3d6000fd5b505050506040513d601f19601f82011682018060405250810190610a2d919061415c565b505b64e8d4a5100083600301548360000154610a499190614e78565b610a539190614e47565b8260010181905550600760009054906101000a900473ffffffffffffffffffffffffffffffffffffffff1673ffffffffffffffffffffffffffffffffffffffff16639dc29fac33866040518363ffffffff1660e01b8152600401610ab89291906149eb565b600060405180830381600087803b158015610ad257600080fd5b505af1158015610ae6573d6000803e3d6000fd5b5050505060003373ffffffffffffffffffffffffffffffffffffffff167ff279e6a1f5e320cca91135676d9cb6e44ca8a08c0b88342bcdb1144f6511b56886604051610b329190614d20565b60405180910390a3505050600160008190555050565b60158181548110610b5857600080fd5b90600052602060002090600402016000915090508060000160009054906101000a900473ffffffffffffffffffffffffffffffffffffffff16908060010154908060020154908060030154905084565b601460009054906101000a900460ff1681565b60135481565b601460009054906101000a900460ff16610c10576040517f08c379a0000000000000000000000000000000000000000000000000000000008152600401610c0790614cc0565b60405180910390fd5b6000610c1a613aba565b9050600360008273ffffffffffffffffffffffffffffffffffffffff1673ffffffffffffffffffffffffffffffffffffffff16815260200190815260200160002060009054906101000a900460ff16610ca8576040517f08c379a0000000000000000000000000000000000000000000000000000000008152600401610c9f90614c60565b60405180910390fd5b610cb183613ac2565b610cbc848484613bc7565b50505050565b610cca613aba565b73ffffffffffffffffffffffffffffffffffffffff16610ce86128be565b73ffffffffffffffffffffffffffffffffffffffff1614610d3e576040517f08c379a0000000000000000000000000000000000000000000000000000000008152600401610d3590614bc0565b60405180910390fd5b8073ffffffffffffffffffffffffffffffffffffffff16600960009054906101000a900473ffffffffffffffffffffffffffffffffffffffff1673ffffffffffffffffffffffffffffffffffffffff161415610dcf576040517f08c379a0000000000000000000000000000000000000000000000000000000008152600401610dc690614be0565b60405180910390fd5b80600960006101000a81548173ffffffffffffffffffffffffffffffffffffffff021916908373ffffffffffffffffffffffffffffffffffffffff16021790555050565b610e1b613aba565b73ffffffffffffffffffffffffffffffffffffffff16610e396128be565b73ffffffffffffffffffffffffffffffffffffffff1614610e8f576040517f08c379a0000000000000000000000000000000000000000000000000000000008152600401610e8690614bc0565b60405180910390fd5b80600a60006101000a81548173ffffffffffffffffffffffffffffffffffffffff021916908373ffffffffffffffffffffffffffffffffffffffff16021790555050565b610edb613aba565b73ffffffffffffffffffffffffffffffffffffffff16610ef96128be565b73ffffffffffffffffffffffffffffffffffffffff1614610f4f576040517f08c379a0000000000000000000000000000000000000000000000000000000008152600401610f4690614bc0565b60405180910390fd5b8073ffffffffffffffffffffffffffffffffffffffff16600560009054906101000a900473ffffffffffffffffffffffffffffffffffffffff1673ffffffffffffffffffffffffffffffffffffffff161415610fe0576040517f08c379a0000000000000000000000000000000000000000000000000000000008152600401610fd790614be0565b60405180910390fd5b80600560006101000a81548173ffffffffffffffffffffffffffffffffffffffff021916908373ffffffffffffffffffffffffffffffffffffffff16021790555050565b6002600054141561106a576040517f08c379a000000000000000000000000000000000000000000000000000000000815260040161106190614ce0565b60405180910390fd5b6002600081905550600060156000815481106110af577f4e487b7100000000000000000000000000000000000000000000000000000000600052603260045260246000fd5b9060005260206000209060040201905060006016600080815260200190815260200160002060003373ffffffffffffffffffffffffffffffffffffffff1673ffffffffffffffffffffffffffffffffffffffff168152602001908152602001600020905061111d6000611b7d565b600081600001541115611177576000816001015464e8d4a510008460030154846000015461114b9190614e78565b6111559190614e47565b61115f9190614ed2565b90506000811115611175576111743382613a27565b5b505b600083111561124d578160000160009054906101000a900473ffffffffffffffffffffffffffffffffffffffff1673ffffffffffffffffffffffffffffffffffffffff166323b872dd3330866040518463ffffffff1660e01b81526004016111e1939291906149b4565b602060405180830381600087803b1580156111fb57600080fd5b505af115801561120f573d6000803e3d6000fd5b505050506040513d601f19601f82011682018060405250810190611233919061415c565b508281600001546112449190614dba565b81600001819055505b64e8d4a51000826003015482600001546112679190614e78565b6112719190614e47565b8160010181905550600760009054906101000a900473ffffffffffffffffffffffffffffffffffffffff1673ffffffffffffffffffffffffffffffffffffffff166340c10f1933856040518363ffffffff1660e01b81526004016112d69291906149eb565b600060405180830381600087803b1580156112f057600080fd5b505af1158015611304573d6000803e3d6000fd5b5050505060003373ffffffffffffffffffffffffffffffffffffffff167f90890809c654f11d6e72a28fa60149770a0d11ec6c92319d6ceb2bb0a4ea1a15856040516113509190614d20565b60405180910390a35050600160008190555050565b600960009054906101000a900473ffffffffffffffffffffffffffffffffffffffff1681565b600260005414156113d1576040517f08c379a00000000000000000000000000000000000000000000000000000000081526004016113c890614ce0565b60405180910390fd5b6002600081905550816015805490508110611421576040517f08c379a000000000000000000000000000000000000000000000000000000000815260040161141890614c40565b60405180910390fd5b6000831415611465576040517f08c379a000000000000000000000000000000000000000000000000000000000815260040161145c90614b80565b60405180910390fd5b6000601584815481106114a1577f4e487b7100000000000000000000000000000000000000000000000000000000600052603260045260246000fd5b9060005260206000209060040201905060006016600086815260200190815260200160002060003373ffffffffffffffffffffffffffffffffffffffff1673ffffffffffffffffffffffffffffffffffffffff1681526020019081526020016000209050838160000154101561154c576040517f08c379a000000000000000000000000000000000000000000000000000000000815260040161154390614ca0565b60405180910390fd5b61155585611b7d565b6000816001015464e8d4a51000846003015484600001546115769190614e78565b6115809190614e47565b61158a9190614ed2565b905060008111156115a05761159f3382613a27565b5b6000851115611674578482600001546115b99190614ed2565b82600001819055508260000160009054906101000a900473ffffffffffffffffffffffffffffffffffffffff1673ffffffffffffffffffffffffffffffffffffffff1663a9059cbb33876040518363ffffffff1660e01b81526004016116209291906149eb565b602060405180830381600087803b15801561163a57600080fd5b505af115801561164e573d6000803e3d6000fd5b505050506040513d601f19601f82011682018060405250810190611672919061415c565b505b64e8d4a510008360030154836000015461168e9190614e78565b6116989190614e47565b8260010181905550853373ffffffffffffffffffffffffffffffffffffffff167ff279e6a1f5e320cca91135676d9cb6e44ca8a08c0b88342bcdb1144f6511b568876040516116e79190614d20565b60405180910390a35050505060016000819055505050565b806015805490508110611747576040517f08c379a000000000000000000000000000000000000000000000000000000000815260040161173e90614c40565b60405180910390fd5b600073ffffffffffffffffffffffffffffffffffffffff16600a60009054906101000a900473ffffffffffffffffffffffffffffffffffffffff1673ffffffffffffffffffffffffffffffffffffffff1614156117d9576040517f08c379a00000000000000000000000000000000000000000000000000000000081526004016117d090614b40565b60405180910390fd5b600060158381548110611815577f4e487b7100000000000000000000000000000000000000000000000000000000600052603260045260246000fd5b9060005260206000209060040201905060008160000160009054906101000a900473ffffffffffffffffffffffffffffffffffffffff16905060008173ffffffffffffffffffffffffffffffffffffffff166370a08231306040518263ffffffff1660e01b81526004016118899190614938565b60206040518083038186803b1580156118a157600080fd5b505afa1580156118b5573d6000803e3d6000fd5b505050506040513d601f19601f820116820180604052508101906118d99190614252565b90508173ffffffffffffffffffffffffffffffffffffffff1663095ea7b3600a60009054906101000a900473ffffffffffffffffffffffffffffffffffffffff16836040518363ffffffff1660e01b81526004016119389291906149eb565b602060405180830381600087803b15801561195257600080fd5b505af1158015611966573d6000803e3d6000fd5b505050506040513d601f19601f8201168201806040525081019061198a919061415c565b506000600a60009054906101000a900473ffffffffffffffffffffffffffffffffffffffff1673ffffffffffffffffffffffffffffffffffffffff1663ce5494bb846040518263ffffffff1660e01b81526004016119e89190614a2f565b602060405180830381600087803b158015611a0257600080fd5b505af1158015611a16573d6000803e3d6000fd5b505050506040513d601f19601f82011682018060405250810190611a3a9190614185565b90508073ffffffffffffffffffffffffffffffffffffffff166370a08231306040518263ffffffff1660e01b8152600401611a759190614938565b60206040518083038186803b158015611a8d57600080fd5b505afa158015611aa1573d6000803e3d6000fd5b505050506040513d601f19601f82011682018060405250810190611ac59190614252565b8214611b06576040517f08c379a0000000000000000000000000000000000000000000000000000000008152600401611afd90614d00565b60405180910390fd5b808460000160006101000a81548173ffffffffffffffffffffffffffffffffffffffff021916908373ffffffffffffffffffffffffffffffffffffffff160217905550505050505050565b600e5481565b600760009054906101000a900473ffffffffffffffffffffffffffffffffffffffff1681565b806015805490508110611bc5576040517f08c379a0000000000000000000000000000000000000000000000000000000008152600401611bbc90614c40565b60405180910390fd5b600060158381548110611c01577f4e487b7100000000000000000000000000000000000000000000000000000000600052603260045260246000fd5b9060005260206000209060040201905080600201544211611c225750611fc5565b60008160000160009054906101000a900473ffffffffffffffffffffffffffffffffffffffff1673ffffffffffffffffffffffffffffffffffffffff166370a08231306040518263ffffffff1660e01b8152600401611c819190614938565b60206040518083038186803b158015611c9957600080fd5b505afa158015611cad573d6000803e3d6000fd5b505050506040513d601f19601f82011682018060405250810190611cd19190614252565b90506000811415611cec574282600201819055505050611fc5565b6000611cfc8360020154426128e8565b90506000601354846001015460105484611d169190614e78565b611d209190614e78565b611d2a9190614e47565b90506000650746a528800064e8d4a5100083611d469190614e78565b611d509190614e47565b90506000600282611d619190614e78565b905060008184611d719190614ed2565b9050600560009054906101000a900473ffffffffffffffffffffffffffffffffffffffff1673ffffffffffffffffffffffffffffffffffffffff166340c10f19600860009054906101000a900473ffffffffffffffffffffffffffffffffffffffff16856040518363ffffffff1660e01b8152600401611df29291906149eb565b600060405180830381600087803b158015611e0c57600080fd5b505af1158015611e20573d6000803e3d6000fd5b50505050600560009054906101000a900473ffffffffffffffffffffffffffffffffffffffff1673ffffffffffffffffffffffffffffffffffffffff166340c10f19600960009054906101000a900473ffffffffffffffffffffffffffffffffffffffff16856040518363ffffffff1660e01b8152600401611ea39291906149eb565b600060405180830381600087803b158015611ebd57600080fd5b505af1158015611ed1573d6000803e3d6000fd5b50505050600560009054906101000a900473ffffffffffffffffffffffffffffffffffffffff1673ffffffffffffffffffffffffffffffffffffffff166340c10f19600760009054906101000a900473ffffffffffffffffffffffffffffffffffffffff16836040518363ffffffff1660e01b8152600401611f549291906149eb565b600060405180830381600087803b158015611f6e57600080fd5b505af1158015611f82573d6000803e3d6000fd5b50505050858185611f939190614e78565b611f9d9190614e47565b8760030154611fac9190614dba565b8760030181905550428760020181905550505050505050505b5050565b60105481565b6000611fd9613aba565b9050600360008273ffffffffffffffffffffffffffffffffffffffff1673ffffffffffffffffffffffffffffffffffffffff16815260200190815260200160002060009054906101000a900460ff16612067576040517f08c379a000000000000000000000000000000000000000000000000000000000815260040161205e90614c60565b60405180910390fd5b816011819055505050565b6000601580549050905060005b818110156120a15761209081611b7d565b8061209a90615033565b905061207f565b5050565b601460009054906101000a900460ff166120f4576040517f08c379a00000000000000000000000000000000000000000000000000000000081526004016120eb90614cc0565b60405180910390fd5b60006120fe613aba565b9050600360008273ffffffffffffffffffffffffffffffffffffffff1673ffffffffffffffffffffffffffffffffffffffff16815260200190815260200160002060009054906101000a900460ff1661218c576040517f08c379a000000000000000000000000000000000000000000000000000000000815260040161218390614c60565b60405180910390fd5b8360158054905081106121d4576040517f08c379a00000000000000000000000000000000000000000000000000000000081526004016121cb90614c40565b60405180910390fd5b82156121e3576121e2612072565b5b60006015868154811061221f577f4e487b7100000000000000000000000000000000000000000000000000000000600052603260045260246000fd5b9060005260206000209060040201600101549050846015878154811061226e577f4e487b7100000000000000000000000000000000000000000000000000000000600052603260045260246000fd5b9060005260206000209060040201600101819055508481146122b25784816013546122999190614ed2565b6122a39190614dba565b6013819055506122b1613d23565b5b7fd88f859573973e938da5bf3e5100c16eee2090fa720e05ae3d452b4cd05cdcfd86866040516122e3929190614d3b565b60405180910390a1505050505050565b6122fb613aba565b73ffffffffffffffffffffffffffffffffffffffff166123196128be565b73ffffffffffffffffffffffffffffffffffffffff161461236f576040517f08c379a000000000000000000000000000000000000000000000000000000000815260040161236690614bc0565b60405180910390fd5b6123796000613e80565b565b60125481565b600a60009054906101000a900473ffffffffffffffffffffffffffffffffffffffff1681565b600f5481565b600560009054906101000a900473ffffffffffffffffffffffffffffffffffffffff1681565b600860009054906101000a900473ffffffffffffffffffffffffffffffffffffffff1681565b601460009054906101000a900460ff1615612449576040517f08c379a000000000000000000000000000000000000000000000000000000000815260040161244090614b60565b60405180910390fd5b612451613aba565b73ffffffffffffffffffffffffffffffffffffffff1661246f6128be565b73ffffffffffffffffffffffffffffffffffffffff16146124c5576040517f08c379a00000000000000000000000000000000000000000000000000000000081526004016124bc90614bc0565b60405180910390fd5b85600460006101000a81548173ffffffffffffffffffffffffffffffffffffffff021916908373ffffffffffffffffffffffffffffffffffffffff16021790555084600660006101000a81548173ffffffffffffffffffffffffffffffffffffffff021916908373ffffffffffffffffffffffffffffffffffffffff16021790555033600960006101000a81548173ffffffffffffffffffffffffffffffffffffffff021916908373ffffffffffffffffffffffffffffffffffffffff16021790555033600860006101000a81548173ffffffffffffffffffffffffffffffffffffffff021916908373ffffffffffffffffffffffffffffffffffffffff1602179055504260128190555083600b8190555082600c8190555080826125ea9190614dba565b600d8190555080600e81905550600460009054906101000a900473ffffffffffffffffffffffffffffffffffffffff16600560006101000a81548173ffffffffffffffffffffffffffffffffffffffff021916908373ffffffffffffffffffffffffffffffffffffffff160217905550600660009054906101000a900473ffffffffffffffffffffffffffffffffffffffff16600760006101000a81548173ffffffffffffffffffffffffffffffffffffffff021916908373ffffffffffffffffffffffffffffffffffffffff16021790555060156040518060800160405280600560009054906101000a900473ffffffffffffffffffffffffffffffffffffffff1673ffffffffffffffffffffffffffffffffffffffff1681526020016103e8815260200160125481526020016000815250908060018154018082558091505060019003906000526020600020906004020160009091909190915060008201518160000160006101000a81548173ffffffffffffffffffffffffffffffffffffffff021916908373ffffffffffffffffffffffffffffffffffffffff16021790555060208201518160010155604082015181600201556060820151816003015550506001601460006101000a81548160ff0219169083151502179055506103e8601381905550600c60008154809291906127e490615033565b91905055507f0476c5e4920930815a67a5a042e26836431f494d3be0f6e10c3034787a7a15f9600860009054906101000a900473ffffffffffffffffffffffffffffffffffffffff16600960009054906101000a900473ffffffffffffffffffffffffffffffffffffffff16600460009054906101000a900473ffffffffffffffffffffffffffffffffffffffff16600660009054906101000a900473ffffffffffffffffffffffffffffffffffffffff16600b54600e546040516128ae96959493929190614953565b60405180910390a1505050505050565b6000600160009054906101000a900473ffffffffffffffffffffffffffffffffffffffff16905090565b600060115483836128f99190614ed2565b6129039190614e78565b905092915050565b6016602052816000526040600020602052806000526040600020600091509150508060000154908060010154905082565b6000612946613aba565b9050600360008273ffffffffffffffffffffffffffffffffffffffff1673ffffffffffffffffffffffffffffffffffffffff16815260200190815260200160002060009054906101000a900460ff166129d4576040517f08c379a00000000000000000000000000000000000000000000000000000000081526004016129cb90614c60565b60405180910390fd5b600073ffffffffffffffffffffffffffffffffffffffff168273ffffffffffffffffffffffffffffffffffffffff161415612a44576040517f08c379a0000000000000000000000000000000000000000000000000000000008152600401612a3b90614b00565b60405180910390fd5b600360008373ffffffffffffffffffffffffffffffffffffffff1673ffffffffffffffffffffffffffffffffffffffff16815260200190815260200160002060009054906101000a900460ff1615612ad1576040517f08c379a0000000000000000000000000000000000000000000000000000000008152600401612ac890614c20565b60405180910390fd5b6001600360008473ffffffffffffffffffffffffffffffffffffffff1673ffffffffffffffffffffffffffffffffffffffff16815260200190815260200160002060006101000a81548160ff0219169083151502179055506002829080600181540180825580915050600190039060005260206000200160009091909190916101000a81548173ffffffffffffffffffffffffffffffffffffffff021916908373ffffffffffffffffffffffffffffffffffffffff160217905550600115158273ffffffffffffffffffffffffffffffffffffffff167f966c160e1c4dbc7df8d69af4ace01e9297c3cf016397b7914971f2fbfa32672d60405160405180910390a35050565b60036020528060005260406000206000915054906101000a900460ff1681565b600b5481565b60115481565b6000612c0d613aba565b9050600360008273ffffffffffffffffffffffffffffffffffffffff1673ffffffffffffffffffffffffffffffffffffffff16815260200190815260200160002060009054906101000a900460ff16612c9b576040517f08c379a0000000000000000000000000000000000000000000000000000000008152600401612c9290614c60565b60405180910390fd5b600360008373ffffffffffffffffffffffffffffffffffffffff1673ffffffffffffffffffffffffffffffffffffffff16815260200190815260200160002060009054906101000a900460ff16612d27576040517f08c379a0000000000000000000000000000000000000000000000000000000008152600401612d1e90614b20565b60405180910390fd5b6000600360008473ffffffffffffffffffffffffffffffffffffffff1673ffffffffffffffffffffffffffffffffffffffff16815260200190815260200160002060006101000a81548160ff02191690831515021790555060005b6002805490508160ff161015612ff3578273ffffffffffffffffffffffffffffffffffffffff1660028260ff1681548110612de6577f4e487b7100000000000000000000000000000000000000000000000000000000600052603260045260246000fd5b9060005260206000200160009054906101000a900473ffffffffffffffffffffffffffffffffffffffff1673ffffffffffffffffffffffffffffffffffffffff161415612fe0576002600182612e3c9190614e10565b60ff1681548110612e76577f4e487b7100000000000000000000000000000000000000000000000000000000600052603260045260246000fd5b9060005260206000200160009054906101000a900473ffffffffffffffffffffffffffffffffffffffff1660028260ff1681548110612ede577f4e487b7100000000000000000000000000000000000000000000000000000000600052603260045260246000fd5b9060005260206000200160006101000a81548173ffffffffffffffffffffffffffffffffffffffff021916908373ffffffffffffffffffffffffffffffffffffffff1602179055506002805480612f5e577f4e487b7100000000000000000000000000000000000000000000000000000000600052603160045260246000fd5b6001900381819060005260206000200160006101000a81549073ffffffffffffffffffffffffffffffffffffffff02191690559055600015158373ffffffffffffffffffffffffffffffffffffffff167f966c160e1c4dbc7df8d69af4ace01e9297c3cf016397b7914971f2fbfa32672d60405160405180910390a350612ff5565b8080612feb9061507c565b915050612d82565b505b5050565b60008060158481548110613036577f4e487b7100000000000000000000000000000000000000000000000000000000600052603260045260246000fd5b9060005260206000209060040201905060006016600086815260200190815260200160002060008573ffffffffffffffffffffffffffffffffffffffff1673ffffffffffffffffffffffffffffffffffffffff168152602001908152602001600020905060008260030154905060008360000160009054906101000a900473ffffffffffffffffffffffffffffffffffffffff1673ffffffffffffffffffffffffffffffffffffffff166370a08231306040518263ffffffff1660e01b81526004016131029190614938565b60206040518083038186803b15801561311a57600080fd5b505afa15801561312e573d6000803e3d6000fd5b505050506040513d601f19601f820116820180604052508101906131529190614252565b9050836002015442118015613168575060008114155b156131d957600061317d8560020154426128e8565b905060006013548660010154601054846131979190614e78565b6131a19190614e78565b6131ab9190614e47565b90508264e8d4a51000826131bf9190614e78565b6131c99190614e47565b846131d49190614dba565b935050505b826001015464e8d4a510008385600001546131f49190614e78565b6131fe9190614e47565b6132089190614ed2565b94505050505092915050565b61321c613aba565b73ffffffffffffffffffffffffffffffffffffffff1661323a6128be565b73ffffffffffffffffffffffffffffffffffffffff1614613290576040517f08c379a000000000000000000000000000000000000000000000000000000000815260040161328790614bc0565b60405180910390fd5b6000600e54600d546132a29190614ed2565b905081816132b09190614dba565b600d819055506132c4600e54600d54613f46565b7f0832fd44307ef52294a57bbef2619785093f4ba38f2c8ee42255c24ee5f7c43c600e54600d546040516132f9929190614d3b565b60405180910390a15050565b600d5481565b613313613aba565b73ffffffffffffffffffffffffffffffffffffffff166133316128be565b73ffffffffffffffffffffffffffffffffffffffff1614613387576040517f08c379a000000000000000000000000000000000000000000000000000000000815260040161337e90614bc0565b60405180910390fd5b8073ffffffffffffffffffffffffffffffffffffffff16600860009054906101000a900473ffffffffffffffffffffffffffffffffffffffff1673ffffffffffffffffffffffffffffffffffffffff161415613418576040517f08c379a000000000000000000000000000000000000000000000000000000000815260040161340f90614be0565b60405180910390fd5b80600860006101000a81548173ffffffffffffffffffffffffffffffffffffffff021916908373ffffffffffffffffffffffffffffffffffffffff16021790555050565b6002818154811061346c57600080fd5b906000526020600020016000915054906101000a900473ffffffffffffffffffffffffffffffffffffffff1681565b600260005414156134e1576040517f08c379a00000000000000000000000000000000000000000000000000000000081526004016134d890614ce0565b60405180910390fd5b6002600081905550816015805490508110613531576040517f08c379a000000000000000000000000000000000000000000000000000000000815260040161352890614c40565b60405180910390fd5b6000831415613575576040517f08c379a000000000000000000000000000000000000000000000000000000000815260040161356c90614ba0565b60405180910390fd5b6000601584815481106135b1577f4e487b7100000000000000000000000000000000000000000000000000000000600052603260045260246000fd5b9060005260206000209060040201905060006016600086815260200190815260200160002060003373ffffffffffffffffffffffffffffffffffffffff1673ffffffffffffffffffffffffffffffffffffffff168152602001908152602001600020905061361e85611b7d565b600081600001541115613678576000816001015464e8d4a510008460030154846000015461364c9190614e78565b6136569190614e47565b6136609190614ed2565b90506000811115613676576136753382613a27565b5b505b600084111561374e578160000160009054906101000a900473ffffffffffffffffffffffffffffffffffffffff1673ffffffffffffffffffffffffffffffffffffffff166323b872dd3330876040518463ffffffff1660e01b81526004016136e2939291906149b4565b602060405180830381600087803b1580156136fc57600080fd5b505af1158015613710573d6000803e3d6000fd5b505050506040513d601f19601f82011682018060405250810190613734919061415c565b508381600001546137459190614dba565b81600001819055505b64e8d4a51000826003015482600001546137689190614e78565b6137729190614e47565b8160010181905550843373ffffffffffffffffffffffffffffffffffffffff167f90890809c654f11d6e72a28fa60149770a0d11ec6c92319d6ceb2bb0a4ea1a15866040516137c19190614d20565b60405180910390a350505060016000819055505050565b600c5481565b6137e6613aba565b73ffffffffffffffffffffffffffffffffffffffff166138046128be565b73ffffffffffffffffffffffffffffffffffffffff161461385a576040517f08c379a000000000000000000000000000000000000000000000000000000000815260040161385190614bc0565b60405180910390fd5b600073ffffffffffffffffffffffffffffffffffffffff168173ffffffffffffffffffffffffffffffffffffffff1614156138ca576040517f08c379a00000000000000000000000000000000000000000000000000000000081526004016138c190614ae0565b60405180910390fd5b6138d381613e80565b50565b6138de613aba565b73ffffffffffffffffffffffffffffffffffffffff166138fc6128be565b73ffffffffffffffffffffffffffffffffffffffff1614613952576040517f08c379a000000000000000000000000000000000000000000000000000000000815260040161394990614bc0565b60405180910390fd5b8073ffffffffffffffffffffffffffffffffffffffff16600760009054906101000a900473ffffffffffffffffffffffffffffffffffffffff1673ffffffffffffffffffffffffffffffffffffffff1614156139e3576040517f08c379a00000000000000000000000000000000000000000000000000000000081526004016139da90614be0565b60405180910390fd5b80600760006101000a81548173ffffffffffffffffffffffffffffffffffffffff021916908373ffffffffffffffffffffffffffffffffffffffff16021790555050565b600760009054906101000a900473ffffffffffffffffffffffffffffffffffffffff1673ffffffffffffffffffffffffffffffffffffffff1663b2a142aa83836040518363ffffffff1660e01b8152600401613a849291906149eb565b600060405180830381600087803b158015613a9e57600080fd5b505af1158015613ab2573d6000803e3d6000fd5b505050505050565b600033905090565b6000601580549050905060005b81811015613bc2578273ffffffffffffffffffffffffffffffffffffffff1660158281548110613b28577f4e487b7100000000000000000000000000000000000000000000000000000000600052603260045260246000fd5b906000526020600020906004020160000160009054906101000a900473ffffffffffffffffffffffffffffffffffffffff1673ffffffffffffffffffffffffffffffffffffffff161415613bb1576040517f08c379a0000000000000000000000000000000000000000000000000000000008152600401613ba890614c00565b60405180910390fd5b80613bbb90615033565b9050613acf565b505050565b8015613bd657613bd5612072565b5b60006012544211613be957601254613beb565b425b905083601354613bfb9190614dba565b601381905550601560405180608001604052808573ffffffffffffffffffffffffffffffffffffffff1681526020018681526020018381526020016000815250908060018154018082558091505060019003906000526020600020906004020160009091909190915060008201518160000160006101000a81548173ffffffffffffffffffffffffffffffffffffffff021916908373ffffffffffffffffffffffffffffffffffffffff1602179055506020820151816001015560408201518160020155606082015181600301555050613cd3613d23565b600060158054905090507f20b669aa921947a6d9602a921d2db3b6b30f21b9aca98580fa3972530330b27a818686601354604051613d149493929190614d64565b60405180910390a15050505050565b60006015805490509050600080600190505b82811015613da75760158181548110613d77577f4e487b7100000000000000000000000000000000000000000000000000000000600052603260045260246000fd5b90600052602060002090600402016001015482613d949190614dba565b915080613da090615033565b9050613d35565b5060008114613e7c57600381613dbd9190614e47565b9050806015600081548110613dfb577f4e487b7100000000000000000000000000000000000000000000000000000000600052603260045260246000fd5b906000526020600020906004020160010154601354613e1a9190614ed2565b613e249190614dba565b601381905550806015600081548110613e66577f4e487b7100000000000000000000000000000000000000000000000000000000600052603260045260246000fd5b9060005260206000209060040201600101819055505b5050565b6000600160009054906101000a900473ffffffffffffffffffffffffffffffffffffffff16905081600160006101000a81548173ffffffffffffffffffffffffffffffffffffffff021916908373ffffffffffffffffffffffffffffffffffffffff1602179055508173ffffffffffffffffffffffffffffffffffffffff168173ffffffffffffffffffffffffffffffffffffffff167f8be0079c531659141344cd1fd0a4f28419497f9722a3daafe3b4186f6b6457e060405160405180910390a35050565b60008183613f549190614e47565b9050600c546934f086f3b33b6840000082613f6f9190614e78565b613f799190614e47565b600f8190555062015180600f54613f909190614e47565b6010819055507fcd7c861d63893659123f817b192b8621ff1923a7c4589c260173cedcf9e986a6600f54601054604051613fcb929190614d3b565b60405180910390a1505050565b600081359050613fe781615104565b92915050565b600081359050613ffc8161511b565b92915050565b6000815190506140118161511b565b92915050565b60008135905061402681615132565b92915050565b60008151905061403b81615132565b92915050565b60008135905061405081615149565b92915050565b60008135905061406581615160565b92915050565b60008135905061407a81615177565b92915050565b60008135905061408f8161518e565b92915050565b6000815190506140a48161518e565b92915050565b6000602082840312156140bc57600080fd5b60006140ca84828501613fd8565b91505092915050565b60008060008060008060c087890312156140ec57600080fd5b60006140fa89828a01613fd8565b965050602061410b89828a01613fd8565b955050604061411c89828a01614080565b945050606061412d89828a01614080565b935050608061413e89828a01614080565b92505060a061414f89828a01614080565b9150509295509295509295565b60006020828403121561416e57600080fd5b600061417c84828501614002565b91505092915050565b60006020828403121561419757600080fd5b60006141a58482850161402c565b91505092915050565b6000602082840312156141c057600080fd5b60006141ce84828501614041565b91505092915050565b6000602082840312156141e957600080fd5b60006141f784828501614056565b91505092915050565b60006020828403121561421257600080fd5b60006142208482850161406b565b91505092915050565b60006020828403121561423b57600080fd5b600061424984828501614080565b91505092915050565b60006020828403121561426457600080fd5b600061427284828501614095565b91505092915050565b6000806040838503121561428e57600080fd5b600061429c85828601614080565b92505060206142ad85828601613fd8565b9150509250929050565b6000806000606084860312156142cc57600080fd5b60006142da86828701614080565b93505060206142eb86828701614017565b92505060406142fc86828701613fed565b9150509250925092565b6000806040838503121561431957600080fd5b600061432785828601614080565b925050602061433885828601614080565b9150509250929050565b60008060006060848603121561435757600080fd5b600061436586828701614080565b935050602061437686828701614080565b925050604061438786828701613fed565b9150509250925092565b61439a81614f06565b82525050565b6143a981614f18565b82525050565b6143b881614fa3565b82525050565b6143c781614fc7565b82525050565b6143d681614feb565b82525050565b6143e58161500f565b82525050565b60006143f8602683614da9565b91507f4f776e61626c653a206e6577206f776e657220697320746865207a65726f206160008301527f64647265737300000000000000000000000000000000000000000000000000006020830152604082019050919050565b600061445e602a83614da9565b91507f4f70657261626c653a206e6577206f70657261746f7220697320746865207a6560008301527f726f2061646472657373000000000000000000000000000000000000000000006020830152604082019050919050565b60006144c4602483614da9565b91507f4f70657261626c653a2061646472657373206973206e6f7420616e206f70657260008301527f61746f72000000000000000000000000000000000000000000000000000000006020830152604082019050919050565b600061452a600f83614da9565b91507f6e6f206d69677261746f722073657400000000000000000000000000000000006000830152602082019050919050565b600061456a601183614da9565b91507f68617320616c726561647920626567756e0000000000000000000000000000006000830152602082019050919050565b60006145aa601a83614da9565b91507f776974686472617720534f554c20627920756e7374616b696e670000000000006000830152602082019050919050565b60006145ea601783614da9565b91507f6465706f73697420534f554c206279207374616b696e670000000000000000006000830152602082019050919050565b600061462a602083614da9565b91507f4f776e61626c653a2063616c6c6572206973206e6f7420746865206f776e65726000830152602082019050919050565b600061466a601583614da9565b91507f6d7573742062652061206e6577206164647265737300000000000000000000006000830152602082019050919050565b60006146aa601283614da9565b91507f6164643a206578697374696e6720706f6f6c00000000000000000000000000006000830152602082019050919050565b60006146ea602883614da9565b91507f4f70657261626c653a206164647265737320697320616c726561647920616e2060008301527f6f70657261746f720000000000000000000000000000000000000000000000006020830152604082019050919050565b6000614750601383614da9565b91507f706f6f6c20646f6573206e6f74206578697374000000000000000000000000006000830152602082019050919050565b6000614790602383614da9565b91507f4f70657261746f723a2063616c6c6572206973206e6f7420616e206f7065726160008301527f746f7200000000000000000000000000000000000000000000000000000000006020830152604082019050919050565b60006147f6601283614da9565b91507f77697468647261773a206e6f7420676f6f6400000000000000000000000000006000830152602082019050919050565b6000614836601183614da9565b91507f7769746864726177206e6f7420676f6f640000000000000000000000000000006000830152602082019050919050565b6000614876600d83614da9565b91507f686173206e6f7420626567756e000000000000000000000000000000000000006000830152602082019050919050565b60006148b6601f83614da9565b91507f5265656e7472616e637947756172643a207265656e7472616e742063616c6c006000830152602082019050919050565b60006148f6601d83614da9565b91507f6d6967726174653a20696e73756666696369656e742062616c616e63650000006000830152602082019050919050565b61493281614f8c565b82525050565b600060208201905061494d6000830184614391565b92915050565b600060c0820190506149686000830189614391565b6149756020830188614391565b6149826040830187614391565b61498f6060830186614391565b61499c6080830185614929565b6149a960a0830184614929565b979650505050505050565b60006060820190506149c96000830186614391565b6149d66020830185614391565b6149e36040830184614929565b949350505050565b6000604082019050614a006000830185614391565b614a0d6020830184614929565b9392505050565b6000602082019050614a2960008301846143a0565b92915050565b6000602082019050614a4460008301846143af565b92915050565b6000608082019050614a5f60008301876143af565b614a6c6020830186614929565b614a796040830185614929565b614a866060830184614929565b95945050505050565b6000602082019050614aa460008301846143be565b92915050565b6000602082019050614abf60008301846143cd565b92915050565b6000602082019050614ada60008301846143dc565b92915050565b60006020820190508181036000830152614af9816143eb565b9050919050565b60006020820190508181036000830152614b1981614451565b9050919050565b60006020820190508181036000830152614b39816144b7565b9050919050565b60006020820190508181036000830152614b598161451d565b9050919050565b60006020820190508181036000830152614b798161455d565b9050919050565b60006020820190508181036000830152614b998161459d565b9050919050565b60006020820190508181036000830152614bb9816145dd565b9050919050565b60006020820190508181036000830152614bd98161461d565b9050919050565b60006020820190508181036000830152614bf98161465d565b9050919050565b60006020820190508181036000830152614c198161469d565b9050919050565b60006020820190508181036000830152614c39816146dd565b9050919050565b60006020820190508181036000830152614c5981614743565b9050919050565b60006020820190508181036000830152614c7981614783565b9050919050565b60006020820190508181036000830152614c99816147e9565b9050919050565b60006020820190508181036000830152614cb981614829565b9050919050565b60006020820190508181036000830152614cd981614869565b9050919050565b60006020820190508181036000830152614cf9816148a9565b9050919050565b60006020820190508181036000830152614d19816148e9565b9050919050565b6000602082019050614d356000830184614929565b92915050565b6000604082019050614d506000830185614929565b614d5d6020830184614929565b9392505050565b6000608082019050614d796000830187614929565b614d866020830186614929565b614d9360408301856143af565b614da06060830184614929565b95945050505050565b600082825260208201905092915050565b6000614dc582614f8c565b9150614dd083614f8c565b9250827fffffffffffffffffffffffffffffffffffffffffffffffffffffffffffffffff03821115614e0557614e046150a6565b5b828201905092915050565b6000614e1b82614f96565b9150614e2683614f96565b92508260ff03821115614e3c57614e3b6150a6565b5b828201905092915050565b6000614e5282614f8c565b9150614e5d83614f8c565b925082614e6d57614e6c6150d5565b5b828204905092915050565b6000614e8382614f8c565b9150614e8e83614f8c565b9250817fffffffffffffffffffffffffffffffffffffffffffffffffffffffffffffffff0483118215151615614ec757614ec66150a6565b5b828202905092915050565b6000614edd82614f8c565b9150614ee883614f8c565b925082821015614efb57614efa6150a6565b5b828203905092915050565b6000614f1182614f6c565b9050919050565b60008115159050919050565b6000614f2f82614f06565b9050919050565b6000614f4182614f06565b9050919050565b6000614f5382614f06565b9050919050565b6000614f6582614f06565b9050919050565b600073ffffffffffffffffffffffffffffffffffffffff82169050919050565b6000819050919050565b600060ff82169050919050565b6000614fae82614fb5565b9050919050565b6000614fc082614f6c565b9050919050565b6000614fd282614fd9565b9050919050565b6000614fe482614f6c565b9050919050565b6000614ff682614ffd565b9050919050565b600061500882614f6c565b9050919050565b600061501a82615021565b9050919050565b600061502c82614f6c565b9050919050565b600061503e82614f8c565b91507fffffffffffffffffffffffffffffffffffffffffffffffffffffffffffffffff821415615071576150706150a6565b5b600182019050919050565b600061508782614f96565b915060ff82141561509b5761509a6150a6565b5b600182019050919050565b7f4e487b7100000000000000000000000000000000000000000000000000000000600052601160045260246000fd5b7f4e487b7100000000000000000000000000000000000000000000000000000000600052601260045260246000fd5b61510d81614f06565b811461511857600080fd5b50565b61512481614f18565b811461512f57600080fd5b50565b61513b81614f24565b811461514657600080fd5b50565b61515281614f36565b811461515d57600080fd5b50565b61516981614f48565b811461517457600080fd5b50565b61518081614f5a565b811461518b57600080fd5b50565b61519781614f8c565b81146151a257600080fd5b5056fea26469706673582212205b56bcdcf2db912152c8d4da204f5b4e9ca1a62601861f083cbb64b7ecd4c2dc64736f6c63430008000033",
  "immutableReferences": {},
  "source": "// SPDX-License-Identifier: MIT\n\npragma solidity ^0.8.0;\n\nimport '@openzeppelin/contracts/access/Ownable.sol';\nimport \"@openzeppelin/contracts/security/ReentrancyGuard.sol\";\nimport './libs/Operable.sol';\nimport './SoulPower.sol';\nimport './SeanceCircle.sol';\nimport './libs/IMigrator.sol';\n\n// SoulSummoner is the master of Soul -- we all have some power over the summoner.\n\n// Ownership transferred to a governance smart contract once SOUL is sufficiently\n// distributed and the community can show to govern itself.\n\ncontract SoulSummoner is ReentrancyGuard, Ownable, Operable {\n\n    // Info of each user.\n    struct Users {\n        uint amount;     // How many LP tokens the user has provided.\n        uint rewardDebt; // Reward debt. See explanation below.\n        //\n        // We do some fancy math here. Basically, any point in time, the amount of SOUL\n        // entitled to a user but is pending to be distributed is:\n        //\n        //   pending reward = (user.amount * pool.accSoulPerShare) - user.rewardDebt\n\n        // Whenever a user deposits or withdraws LP tokens to a pool. Here's what happens:\n        //   1. The pool's `accSoulPerShare` (and `lastRewardTime`) gets updated.\n        //   2. User receives the pending reward sent to their address.\n        //   3. User's `amount` gets updated.\n        //   4. User's `rewardDebt` gets updated.\n    }\n\n    // Info of each pool.\n    struct Pools {\n        IERC20 lpToken;       // Address of LP token contract.\n        uint allocPoint;      // How many allocation points assigned to this pool. SOULs to distribute per second.\n        uint lastRewardTime;  // Most recent UNIX timestamp that SOULs distribution occurs.\n        uint accSoulPerShare; // Accumulated SOULs per share, times 1e12. See below.\n    }\n\n    //** ADDRESSES **//\n\n    // SOUL POWER!\n    address private soulAddress;\n    SoulPower public soul;\n    \n    // SEANCE TOKEN!\n    address private seanceAddress;\n    SeanceCircle public seance;\n\n    // Team: recieves 12.5% of SOUL rewards.\n    address public team;\n\n    // DAO: recieves 12.5% of SOUL rewards.\n    address public dao;\n\n    // The migrator contract. It has a lot of power. Can only be set through governance (owner).\n    IMigrator public migrator;\n\n    // ** GLOBAL VARIABLES ** //\n    uint public chainId;\n    uint public totalChains;\n    uint public totalPower;\n    uint public power;\n\n    // SOUL per DAY\n    uint public dailySoul = 250000 * 1e18;\n\n    // SOUL power created per second.\n    uint public soulPerSecond = dailySoul / 86400;\n\n    // Bonus muliplier for early soul summoners.\n    uint public bonusMultiplier = 1;\n\n    // The UNIX timestamp when SOUL mining starts.\n    uint public startTime;\n\n    // Total allocation points. Must be the sum of all allocation points in all pools.\n    uint public totalAllocPoint;\n\n    // Indicates SoulSummoner contract has been initialized.\n    bool public initialized;\n\n    // ** POOL VARIABLES ** //\n\n    // POOLS x POOL INFO.\n    Pools[] public poolInfo;\n\n    // Info of each user that stakes LP tokens.\n    mapping (uint => mapping (address => Users)) public userInfo;\n\n    event Deposit(address indexed user, uint indexed pid, uint amount);\n    event Withdraw(address indexed user, uint indexed pid, uint amount);\n\n    event Initialized(address team, address dev, address soul, address seance, uint chainId, uint power);\n\n    event PoolAdded(uint pid, uint allocPoint, IERC20 lpToken, uint totalAllocPoint);\n    event PoolSet(uint pid, uint allocPoint);\n\n    event PowerUpdated(uint power, uint totalPower);\n    event RewardsUpdated(uint dailySoul, uint soulPerSecond);\n\n    modifier isNotInitialized() {\n        require(!initialized, \"has already begun\");\n        _;\n    }\n\n    modifier isInitialized() {\n        require(initialized, \"has not begun\");\n        _;\n    }\n\n    modifier validatePoolByPid(uint256 _pid) {\n        require(_pid < poolInfo.length, \"pool does not exist\");\n        _;\n    }\n\n    // VALIDATION -- ELIMINATES POOL DUPLICATION RISK -- NONE\n    function checkPoolDuplicate(IERC20 _token\n    ) internal view {\n        uint256 length = poolInfo.length;\n        for (uint256 pid = 0; pid < length; ++pid) {\n            require(poolInfo[pid].lpToken != _token, \"add: existing pool\");\n        }\n    }\n\n    function initialize(\n        address _soulAddress, \n        address _seanceAddress, \n        uint _chainId,\n        uint _totalChains,\n        uint _totalPower,\n        uint _power) external isNotInitialized onlyOwner {\n        soulAddress = _soulAddress;\n        seanceAddress = _seanceAddress;\n        dao = msg.sender;\n        team = msg.sender;\n\n        startTime = block.timestamp;\n\n        chainId = _chainId;\n        totalChains = _totalChains;\n        totalPower = _totalPower + _power;\n        power = _power;\n\n        soul  = SoulPower(soulAddress);\n        seance = SeanceCircle(seanceAddress);\n\n\n        // staking pool\n        poolInfo.push(Pools({\n            lpToken: soul,\n            allocPoint: 1000,\n            lastRewardTime: startTime,\n            accSoulPerShare: 0\n        }));\n\n        initialized = true;\n\n        totalAllocPoint = 1000;\n        totalChains ++;\n\n        emit Initialized(team, dao, soulAddress, seanceAddress, chainId, power);\n    }\n\n    function updateMultiplier(uint _bonusMultiplier) external onlyOperator {\n        bonusMultiplier = _bonusMultiplier;\n    }\n\n    function updateRewards(uint _power, uint _totalPower) internal {\n        uint factor = _power / _totalPower;\n\n        dailySoul = factor * (250000 * 1e18) / totalChains;\n        soulPerSecond = dailySoul / 1 days;\n\n        emit RewardsUpdated(dailySoul, soulPerSecond);\n    }\n\n    function poolLength() external view returns (uint) {\n        return poolInfo.length;\n    }\n\n    // ADD -- NEW LP POOL -- OPERATOR\n    function add(uint256 _allocPoint, IERC20 _lpToken, bool _withUpdate) public isInitialized onlyOperator {\n        checkPoolDuplicate(_lpToken);\n        addPool(_allocPoint, _lpToken, _withUpdate);\n    }\n\n    // ADD -- NEW LP POOL -- INTERNAL\n    function addPool(uint256 _allocPoint, IERC20 _lpToken, bool _withUpdate) internal {\n        if (_withUpdate) { massUpdatePools(); }\n        uint256 lastRewardTime = block.timestamp > startTime ? block.timestamp : startTime;\n        totalAllocPoint = totalAllocPoint + _allocPoint;\n        poolInfo.push(\n            Pools({\n                lpToken: _lpToken,\n                allocPoint: _allocPoint,\n                lastRewardTime: lastRewardTime,\n                accSoulPerShare: 0\n            })\n        );\n        \n        updateStakingPool();\n        uint _pid = poolInfo.length;\n\n        emit PoolAdded(_pid, _allocPoint, _lpToken, totalAllocPoint);\n\n    }\n\n    // UPDATE -- ALLOCATION POINT -- OWNER\n    function set(uint _pid, uint _allocPoint, bool _withUpdate) external isInitialized onlyOperator validatePoolByPid(_pid) {\n        if (_withUpdate) { massUpdatePools(); }\n        uint prevAllocPoint = poolInfo[_pid].allocPoint;\n        poolInfo[_pid].allocPoint = _allocPoint;\n        if (prevAllocPoint != _allocPoint) {\n            totalAllocPoint = totalAllocPoint - prevAllocPoint + _allocPoint;\n            updateStakingPool();\n       }\n\n       emit PoolSet(_pid, _allocPoint);\n    }\n\n    // UPDATE -- POWER -- OWNER\n    function updatePower(uint _power) external onlyOwner {\n        uint prevTotalPower = totalPower - power;\n        totalPower = prevTotalPower + _power;\n\n        updateRewards(power, totalPower);\n        emit PowerUpdated(power, totalPower);\n    }\n\n    // UPDATE -- STAKING POOL -- INTERNAL\n    function updateStakingPool() internal {\n        uint length = poolInfo.length;\n        uint points = 0;\n        for (uint pid = 1; pid < length; ++pid) {\n            points = points + poolInfo[pid].allocPoint;\n        }\n        if (points != 0) {\n            points = points / 3;\n            totalAllocPoint = totalAllocPoint - poolInfo[0].allocPoint + points;\n            poolInfo[0].allocPoint = points;\n        }\n    }\n\n    // SET -- MIGRATOR CONTRACT -- OWNER\n    function setMigrator(IMigrator _migrator) external onlyOwner {\n        migrator = _migrator;\n    }\n\n    // MIGRATE -- LP TOKENS TO ANOTHER CONTRACT -- MIGRATOR\n    function migrate(uint _pid) external validatePoolByPid(_pid) {\n        require(address(migrator) != address(0), 'no migrator set');\n        Pools storage pool = poolInfo[_pid];\n        IERC20 lpToken = pool.lpToken;\n        uint bal = lpToken.balanceOf(address(this));\n        lpToken.approve(address(migrator), bal);\n        IERC20 _lpToken = migrator.migrate(lpToken);\n        require(bal == _lpToken.balanceOf(address(this)), \"migrate: insufficient balance\");\n        pool.lpToken = _lpToken;\n    }\n\n    // VIEW -- BONUS MULTIPLIER -- PUBLIC\n    function getMultiplier(uint _from, uint _to) public view returns (uint) {\n        return (_to - _from) * bonusMultiplier; // todo: minus parens\n    }\n\n    // VIEW -- PENDING SOUL\n    function pendingSoul(uint _pid, address _user) external view returns (uint) {\n        Pools storage pool = poolInfo[_pid];\n        Users storage user = userInfo[_pid][_user];\n        uint accSoulPerShare = pool.accSoulPerShare;\n        uint lpSupply = pool.lpToken.balanceOf(address(this));\n        if (block.timestamp > pool.lastRewardTime && lpSupply != 0) {\n            uint multiplier = getMultiplier(pool.lastRewardTime, block.timestamp);\n            uint soulReward = multiplier * soulPerSecond * pool.allocPoint / totalAllocPoint;\n            accSoulPerShare = accSoulPerShare + soulReward * 1e12 / lpSupply;\n        }\n\n        return user.amount * accSoulPerShare / 1e12 - user.rewardDebt;\n    }\n\n    // UPDATE -- REWARD VARIABLES FOR ALL POOLS (HIGH GAS) -- PUBLIC\n    function massUpdatePools() public {\n        uint length = poolInfo.length;\n        for (uint pid = 0; pid < length; ++pid) {\n            updatePool(pid);\n        }\n    }\n\n    // UPDATE -- REWARD VARIABLES (POOL) -- PUBLIC\n    function updatePool(uint _pid) public validatePoolByPid(_pid) {\n        Pools storage pool = poolInfo[_pid];\n        if (block.timestamp <= pool.lastRewardTime) {\n            return;\n        }\n        uint lpSupply = pool.lpToken.balanceOf(address(this));\n        if (lpSupply == 0) {\n            pool.lastRewardTime = block.timestamp;\n            return;\n        }\n        uint multiplier = getMultiplier(pool.lastRewardTime, block.timestamp);\n        uint soulReward = \n            multiplier * soulPerSecond * pool.allocPoint / totalAllocPoint;\n        \n        uint divi = soulReward * 1e12 / 8e12; // 1/8th rewards\n        uint divis = divi * 2; // total divis\n        uint shares = soulReward - divis; // net shares\n        \n        soul.mint(team, divi);\n        soul.mint(dao, divi);\n        \n        soul.mint(address(seance), shares);\n\n        pool.accSoulPerShare = pool.accSoulPerShare + soulReward * shares / lpSupply;\n\n        pool.lastRewardTime = block.timestamp;\n    }\n\n    // DEPOSIT -- LP TOKENS -- LP OWNERS\n    function deposit(uint _pid, uint _amount) external nonReentrant validatePoolByPid(_pid) {\n\n        require (_pid != 0, 'deposit SOUL by staking');\n\n        Pools storage pool = poolInfo[_pid];\n        Users storage user = userInfo[_pid][msg.sender];\n        updatePool(_pid);\n        if (user.amount > 0) { // already deposited assets\n            uint pending = (user.amount * pool.accSoulPerShare) / 1e12 - user.rewardDebt;\n            if(pending > 0) { // sends pending rewards, if applicable\n                safeSoulTransfer(msg.sender, pending);\n            }\n        }\n\n        if (_amount > 0) { // if adding more\n            pool.lpToken.transferFrom(address(msg.sender), address(this), _amount);\n            user.amount = user.amount + _amount;\n        }\n        user.rewardDebt = user.amount * pool.accSoulPerShare / 1e12;\n        emit Deposit(msg.sender, _pid, _amount);\n    }\n\n    // WITHDRAW -- LP TOKENS -- STAKERS\n    function withdraw(uint _pid, uint _amount) external nonReentrant validatePoolByPid(_pid) {\n\n        require (_pid != 0, 'withdraw SOUL by unstaking');\n        Pools storage pool = poolInfo[_pid];\n        Users storage user = userInfo[_pid][msg.sender];\n        require(user.amount >= _amount, 'withdraw not good');\n\n        updatePool(_pid);\n        uint pending = user.amount * pool.accSoulPerShare / 1e12 - user.rewardDebt;\n        if(pending > 0) {\n            safeSoulTransfer(msg.sender, pending);\n        }\n        if(_amount > 0) {\n            user.amount = user.amount - _amount;\n            pool.lpToken.transfer(address(msg.sender), _amount);\n        }\n        user.rewardDebt = user.amount * pool.accSoulPerShare / 1e12;\n        emit Withdraw(msg.sender, _pid, _amount);\n    }\n\n\n    // STAKE -- SOUL TO SOUL SUMMONER -- PUBLIC SOUL HOLDERS\n    function enterStaking(uint _amount) external nonReentrant {\n        Pools storage pool = poolInfo[0];\n        Users storage user = userInfo[0][msg.sender];\n        updatePool(0);\n        if (user.amount > 0) {\n            uint pending = user.amount * pool.accSoulPerShare / 1e12 - user.rewardDebt;\n            if(pending > 0) {\n                safeSoulTransfer(msg.sender, pending);\n            }\n        }\n        if(_amount > 0) {\n            pool.lpToken.transferFrom(address(msg.sender), address(this), _amount);\n            user.amount = user.amount + _amount;\n        }\n        user.rewardDebt = user.amount * pool.accSoulPerShare / 1e12;\n\n        seance.mint(msg.sender, _amount);\n        emit Deposit(msg.sender, 0, _amount);\n    }\n\n    // WITHDRAW -- SOUL powers from STAKING.\n    function leaveStaking(uint _amount) external nonReentrant {\n        Pools storage pool = poolInfo[0];\n        Users storage user = userInfo[0][msg.sender];\n        require(user.amount >= _amount, \"withdraw: not good\");\n        updatePool(0);\n        uint pending = user.amount * pool.accSoulPerShare / 1e12 - user.rewardDebt;\n        if(pending > 0) {\n            safeSoulTransfer(msg.sender, pending);\n        }\n        if(_amount > 0) {\n            user.amount = user.amount - _amount;\n            pool.lpToken.transfer(address(msg.sender), _amount);\n        }\n        user.rewardDebt = user.amount * pool.accSoulPerShare / 1e12;\n\n        seance.burn(msg.sender, _amount);\n        emit Withdraw(msg.sender, 0, _amount);\n    }\n    \n    // TRANSFER -- TRANSFERS SEANCE -- INTERNAL\n    function safeSoulTransfer(address _to, uint _amount) internal {\n        seance.safeSoulTransfer(_to, _amount);\n    }\n\n\n    // UPDATE -- DAO ADDRESS -- OWNER\n    function newDAO(address _dao) external onlyOwner {\n        require(dao != _dao, 'must be a new address');\n        dao = _dao;\n    }\n\n    // UPDATE -- TEAM ADDRESS -- OWNER\n    function newTeam(address _team) external onlyOwner {\n        require(team != _team, 'must be a new address');\n        team = _team;\n    }\n\n    // UPDATE -- SOUL ADDRESS -- OWNER\n    function newSoul(SoulPower _soul) external onlyOwner {\n        require(soul != _soul, 'must be a new address');\n        soul = _soul;\n    }\n\n    // UPDATE -- SEANCE ADDRESS -- OWNER\n    function newSeance(SeanceCircle _seance) external onlyOwner {\n        require(seance != _seance, 'must be a new address');\n        seance = _seance;\n    }\n\n}\n",
  "sourcePath": "/Users/unico/Documents/GitHub/SoulSwap/soulswap-farms/contracts/SoulSummoner.sol",
  "compiler": {
    "name": "solc",
    "version": "0.8.0+commit.c7dfd78e.Emscripten.clang"
  },
  "schemaVersion": "3.4.1",
  "updatedAt": "2021-07-25T20:55:46.886Z",
  "devdoc": {
    "kind": "dev",
    "methods": {
      "addOperator(address)": {
        "details": "Adds address as operator of the contract. Can only be called by an operator."
      },
      "owner()": {
        "details": "Returns the address of the current owner."
      },
      "removeOperator(address)": {
        "details": "Leaves the contract without operator. It will not be possible to call `onlyOperator` functions anymore. Can only be called by an operator."
      },
      "renounceOwnership()": {
        "details": "Leaves the contract without owner. It will not be possible to call `onlyOwner` functions anymore. Can only be called by the current owner. NOTE: Renouncing ownership will leave the contract without an owner, thereby removing any functionality that is only available to the owner."
      },
      "transferOwnership(address)": {
        "details": "Transfers ownership of the contract to a new account (`newOwner`). Can only be called by the current owner."
      }
    },
    "version": 1
  },
  "userdoc": {
    "kind": "user",
    "methods": {},
    "version": 1
  }
}