{
  "contractName": "SoulScarab",
  "abi": [
    {
      "anonymous": false,
      "inputs": [
        {
          "indexed": false,
          "internalType": "address",
          "name": "recipient",
          "type": "address"
        },
        {
          "indexed": false,
          "internalType": "uint256",
          "name": "amount",
          "type": "uint256"
        }
      ],
      "name": "Repossesed",
      "type": "event"
    },
    {
      "anonymous": false,
      "inputs": [
        {
          "indexed": false,
          "internalType": "address",
          "name": "recipient",
          "type": "address"
        },
        {
          "indexed": false,
          "internalType": "uint256",
          "name": "amount",
          "type": "uint256"
        }
      ],
      "name": "Saved",
      "type": "event"
    },
    {
      "anonymous": false,
      "inputs": [
        {
          "indexed": false,
          "internalType": "uint256",
          "name": "amount",
          "type": "uint256"
        },
        {
          "indexed": false,
          "internalType": "uint256",
          "name": "id",
          "type": "uint256"
        }
      ],
      "name": "ScarabSummoned",
      "type": "event"
    },
    {
      "anonymous": false,
      "inputs": [
        {
          "indexed": false,
          "internalType": "address",
          "name": "recipient",
          "type": "address"
        },
        {
          "indexed": false,
          "internalType": "uint256",
          "name": "amount",
          "type": "uint256"
        }
      ],
      "name": "Withdraw",
      "type": "event"
    },
    {
      "inputs": [
        {
          "internalType": "address",
          "name": "",
          "type": "address"
        },
        {
          "internalType": "uint256",
          "name": "",
          "type": "uint256"
        }
      ],
      "name": "depositsByRecipient",
      "outputs": [
        {
          "internalType": "uint256",
          "name": "",
          "type": "uint256"
        }
      ],
      "stateMutability": "view",
      "type": "function"
    },
    {
      "inputs": [],
      "name": "depositsCount",
      "outputs": [
        {
          "internalType": "uint256",
          "name": "",
          "type": "uint256"
        }
      ],
      "stateMutability": "view",
      "type": "function"
    },
    {
      "inputs": [],
      "name": "outcaster",
      "outputs": [
        {
          "internalType": "contract Outcaster",
          "name": "",
          "type": "address"
        }
      ],
      "stateMutability": "view",
      "type": "function"
    },
    {
      "inputs": [
        {
          "internalType": "uint256",
          "name": "",
          "type": "uint256"
        }
      ],
      "name": "scarabs",
      "outputs": [
        {
          "internalType": "contract IERC20",
          "name": "token",
          "type": "address"
        },
        {
          "internalType": "address",
          "name": "recipient",
          "type": "address"
        },
        {
          "internalType": "uint256",
          "name": "amount",
          "type": "uint256"
        },
        {
          "internalType": "uint256",
          "name": "tribute",
          "type": "uint256"
        },
        {
          "internalType": "uint256",
          "name": "unlockTimestamp",
          "type": "uint256"
        },
        {
          "internalType": "bool",
          "name": "withdrawn",
          "type": "bool"
        }
      ],
      "stateMutability": "view",
      "type": "function"
    },
    {
      "inputs": [],
      "name": "seance",
      "outputs": [
        {
          "internalType": "contract SeanceCircle",
          "name": "",
          "type": "address"
        }
      ],
      "stateMutability": "view",
      "type": "function"
    },
    {
      "inputs": [],
      "name": "soul",
      "outputs": [
        {
          "internalType": "contract SoulPower",
          "name": "",
          "type": "address"
        }
      ],
      "stateMutability": "view",
      "type": "function"
    },
    {
      "inputs": [],
      "name": "tributeRate",
      "outputs": [
        {
          "internalType": "uint256",
          "name": "",
          "type": "uint256"
        }
      ],
      "stateMutability": "view",
      "type": "function"
    },
    {
      "inputs": [
        {
          "internalType": "address",
          "name": "",
          "type": "address"
        }
      ],
      "name": "walletBalance",
      "outputs": [
        {
          "internalType": "uint256",
          "name": "",
          "type": "uint256"
        }
      ],
      "stateMutability": "view",
      "type": "function"
    },
    {
      "inputs": [
        {
          "internalType": "address",
          "name": "",
          "type": "address"
        },
        {
          "internalType": "address",
          "name": "",
          "type": "address"
        }
      ],
      "name": "walletTokenBalance",
      "outputs": [
        {
          "internalType": "uint256",
          "name": "",
          "type": "uint256"
        }
      ],
      "stateMutability": "view",
      "type": "function"
    },
    {
      "inputs": [
        {
          "internalType": "address",
          "name": "_recipient",
          "type": "address"
        },
        {
          "internalType": "uint256",
          "name": "_amount",
          "type": "uint256"
        },
        {
          "internalType": "uint256",
          "name": "_unlockTimestamp",
          "type": "uint256"
        }
      ],
      "name": "lockSouls",
      "outputs": [
        {
          "internalType": "uint256",
          "name": "id",
          "type": "uint256"
        }
      ],
      "stateMutability": "nonpayable",
      "type": "function"
    },
    {
      "inputs": [
        {
          "internalType": "uint256",
          "name": "id",
          "type": "uint256"
        }
      ],
      "name": "withdrawTokens",
      "outputs": [],
      "stateMutability": "nonpayable",
      "type": "function"
    },
    {
      "inputs": [
        {
          "internalType": "uint256",
          "name": "id",
          "type": "uint256"
        }
      ],
      "name": "claimUnclaimed",
      "outputs": [],
      "stateMutability": "nonpayable",
      "type": "function"
    },
    {
      "inputs": [
        {
          "internalType": "uint256",
          "name": "id",
          "type": "uint256"
        }
      ],
      "name": "savingGrace",
      "outputs": [],
      "stateMutability": "nonpayable",
      "type": "function"
    },
    {
      "inputs": [
        {
          "internalType": "uint256",
          "name": "count",
          "type": "uint256"
        }
      ],
      "name": "claimScarabs",
      "outputs": [],
      "stateMutability": "nonpayable",
      "type": "function"
    },
    {
      "inputs": [
        {
          "internalType": "uint256",
          "name": "amount",
          "type": "uint256"
        }
      ],
      "name": "getTribute",
      "outputs": [
        {
          "internalType": "uint256",
          "name": "fee",
          "type": "uint256"
        }
      ],
      "stateMutability": "view",
      "type": "function"
    },
    {
      "inputs": [
        {
          "internalType": "address",
          "name": "_token",
          "type": "address"
        }
      ],
      "name": "getDepositsByTokenAddress",
      "outputs": [
        {
          "internalType": "uint256[]",
          "name": "",
          "type": "uint256[]"
        }
      ],
      "stateMutability": "view",
      "type": "function"
    },
    {
      "inputs": [
        {
          "internalType": "address",
          "name": "_recipient",
          "type": "address"
        }
      ],
      "name": "getDepositsByRecipient",
      "outputs": [
        {
          "internalType": "uint256[]",
          "name": "",
          "type": "uint256[]"
        }
      ],
      "stateMutability": "view",
      "type": "function"
    },
    {
      "inputs": [],
      "name": "getScarabs",
      "outputs": [
        {
          "internalType": "uint256[]",
          "name": "",
          "type": "uint256[]"
        }
      ],
      "stateMutability": "view",
      "type": "function"
    },
    {
      "inputs": [],
      "name": "getTotalLockedBalance",
      "outputs": [
        {
          "internalType": "uint256",
          "name": "",
          "type": "uint256"
        }
      ],
      "stateMutability": "view",
      "type": "function"
    },
    {
      "inputs": [
        {
          "internalType": "uint256",
          "name": "amount",
          "type": "uint256"
        }
      ],
      "name": "enWei",
      "outputs": [
        {
          "internalType": "uint256",
          "name": "",
          "type": "uint256"
        }
      ],
      "stateMutability": "pure",
      "type": "function"
    },
    {
      "inputs": [
        {
          "internalType": "uint256",
          "name": "amount",
          "type": "uint256"
        }
      ],
      "name": "fromWei",
      "outputs": [
        {
          "internalType": "uint256",
          "name": "",
          "type": "uint256"
        }
      ],
      "stateMutability": "pure",
      "type": "function"
    }
  ],
  "bytecode": "0x60e060405273124b06c5ce47de7a6e9efda71a946717130079e673ffffffffffffffffffffffffffffffffffffffff1660809073ffffffffffffffffffffffffffffffffffffffff1681525073e2fb177009ff39f52c0134e8007fa0e4baacbd0773ffffffffffffffffffffffffffffffffffffffff1660a09073ffffffffffffffffffffffffffffffffffffffff1681525073ce530f22d82a2437f2fb4b43df0e1e4fd446f0ff73ffffffffffffffffffffffffffffffffffffffff1660c09073ffffffffffffffffffffffffffffffffffffffff16815250600a6006553480156100ea57600080fd5b5060805160a05160c051612f066101c2600039600081816104650152818161095e015281816118dd0152611e250152600081816107ec015281816109e901528181610cae01528181610d8d01528181610e2901528181610ecc01528181610fde0152818161108501528181611137015281816112eb015281816114150152818161176b0152818161196801528181611cb301528181611eb001526120d4015260008181610681015281816108bd01528181610b80015281816115f40152818161183c01528181611b3c0152611d840152612f066000f3fe608060405234801561001057600080fd5b50600436106101375760003560e01c806386f65a22116100b8578063cf616f401161007c578063cf616f4014610379578063cf94ee9614610397578063cf9cd8f8146103c7578063d5c25890146103f7578063e0c6768a14610415578063e65d15221461043357610137565b806386f65a22146102c5578063958d17f2146102f5578063a117735614610311578063b9e7df1c1461032d578063c42f79ab1461035d57610137565b80634ca01d45116100ff5780634ca01d45146101f95780636703063714610217578063671070fa146102475780636f8dfd0914610277578063815b7a8c146102a757610137565b8063072824fe1461013c578063077891f91461015a578063315a095d1461018a5780633cd2e4ec146101a65780634506e935146101db575b600080fd5b610144610463565b60405161015191906122a2565b60405180910390f35b610174600480360381019061016f9190612300565b610487565b60405161018191906123f5565b60405180910390f35b6101a4600480360381019061019f9190612443565b61051e565b005b6101c060048036038101906101bb9190612443565b610aef565b6040516101d2969594939291906124ca565b60405180910390f35b6101e3610b78565b6040516101f0919061252b565b60405180910390f35b610201610b7e565b60405161020e9190612567565b60405180910390f35b610231600480360381019061022c9190612582565b610ba2565b60405161023e919061252b565b60405180910390f35b610261600480360381019061025c91906125c2565b610bd3565b60405161026e919061252b565b60405180910390f35b610291600480360381019061028c9190612443565b6113ae565b60405161029e919061252b565b60405180910390f35b6102af611413565b6040516102bc9190612636565b60405180910390f35b6102df60048036038101906102da9190612300565b611437565b6040516102ec91906123f5565b60405180910390f35b61030f600480360381019061030a9190612443565b6114ce565b005b61032b60048036038101906103269190612443565b611a6f565b005b61034760048036038101906103429190612651565b611fb7565b604051610354919061252b565b60405180910390f35b61037760048036038101906103729190612443565b611fdc565b005b610381612095565b60405161038e919061252b565b60405180910390f35b6103b160048036038101906103ac9190612443565b61209b565b6040516103be919061252b565b60405180910390f35b6103e160048036038101906103dc9190612300565b6120b8565b6040516103ee919061252b565b60405180910390f35b6103ff6120d0565b60405161040c919061252b565b60405180910390f35b61041d612171565b60405161042a91906123f5565b60405180910390f35b61044d60048036038101906104489190612443565b612206565b60405161045a919061252b565b60405180910390f35b7f000000000000000000000000000000000000000000000000000000000000000081565b6060600160008373ffffffffffffffffffffffffffffffffffffffff1673ffffffffffffffffffffffffffffffffffffffff16815260200190815260200160002080548060200260200160405190810160405280929190818152602001828054801561051257602002820191906000526020600020905b8154815260200190600101908083116104fe575b50505050509050919050565b6003600082815260200190815260200160002060040154421015610577576040517f08c379a000000000000000000000000000000000000000000000000000000000815260040161056e906126ee565b60405180910390fd5b6003600082815260200190815260200160002060010160009054906101000a900473ffffffffffffffffffffffffffffffffffffffff1673ffffffffffffffffffffffffffffffffffffffff163373ffffffffffffffffffffffffffffffffffffffff161461061b576040517f08c379a00000000000000000000000000000000000000000000000000000000081526004016106129061275a565b60405180910390fd5b6003600082815260200190815260200160002060050160009054906101000a900460ff161561067f576040517f08c379a0000000000000000000000000000000000000000000000000000000008152600401610676906127c6565b60405180910390fd5b7f000000000000000000000000000000000000000000000000000000000000000073ffffffffffffffffffffffffffffffffffffffff1663095ea7b33060036000858152602001908152602001600020600201546040518363ffffffff1660e01b81526004016106f09291906127e6565b6020604051808303816000875af115801561070f573d6000803e3d6000fd5b505050506040513d601f19601f82011682018060405250810190610733919061283b565b5060016003600083815260200190815260200160002060050160006101000a81548160ff0219169083151502179055506003600082815260200190815260200160002060020154600460003373ffffffffffffffffffffffffffffffffffffffff1673ffffffffffffffffffffffffffffffffffffffff16815260200190815260200160002060008282546107c89190612897565b925050819055506003600082815260200190815260200160002060020154600560007f000000000000000000000000000000000000000000000000000000000000000073ffffffffffffffffffffffffffffffffffffffff1673ffffffffffffffffffffffffffffffffffffffff16815260200190815260200160002060003373ffffffffffffffffffffffffffffffffffffffff1673ffffffffffffffffffffffffffffffffffffffff16815260200190815260200160002060008282546108919190612897565b9250508190555060006108b960036000848152602001908152602001600020600201546113ae565b90507f000000000000000000000000000000000000000000000000000000000000000073ffffffffffffffffffffffffffffffffffffffff166323b872dd3330846040518463ffffffff1660e01b8152600401610918939291906128cb565b6020604051808303816000875af1158015610937573d6000803e3d6000fd5b505050506040513d601f19601f8201168201806040525081019061095b919061283b565b507f000000000000000000000000000000000000000000000000000000000000000073ffffffffffffffffffffffffffffffffffffffff16633595fb76826040518263ffffffff1660e01b81526004016109b5919061252b565b600060405180830381600087803b1580156109cf57600080fd5b505af11580156109e3573d6000803e3d6000fd5b505050507f000000000000000000000000000000000000000000000000000000000000000073ffffffffffffffffffffffffffffffffffffffff1663a9059cbb3360036000868152602001908152602001600020600201546040518363ffffffff1660e01b8152600401610a589291906127e6565b6020604051808303816000875af1158015610a77573d6000803e3d6000fd5b505050506040513d601f19601f82011682018060405250810190610a9b919061283b565b507f884edad9ce6fa2440d8a54cc123490eb96d2768479d49ff9c7366125a9424364336003600085815260200190815260200160002060020154604051610ae39291906127e6565b60405180910390a15050565b60036020528060005260406000206000915090508060000160009054906101000a900473ffffffffffffffffffffffffffffffffffffffff16908060010160009054906101000a900473ffffffffffffffffffffffffffffffffffffffff16908060020154908060030154908060040154908060050160009054906101000a900460ff16905086565b60005481565b7f000000000000000000000000000000000000000000000000000000000000000081565b60016020528160005260406000208181548110610bbe57600080fd5b90600052602060002001600091509150505481565b6000808311610c17576040517f08c379a0000000000000000000000000000000000000000000000000000000008152600401610c0e9061294e565b60405180910390fd5b6301e1338042610c27919061296e565b821115610c69576040517f08c379a0000000000000000000000000000000000000000000000000000000008152600401610c60906129ee565b60405180910390fd5b428211610cab576040517f08c379a0000000000000000000000000000000000000000000000000000000008152600401610ca290612a5a565b60405180910390fd5b827f000000000000000000000000000000000000000000000000000000000000000073ffffffffffffffffffffffffffffffffffffffff1663dd62ed3e33306040518363ffffffff1660e01b8152600401610d07929190612a7a565b602060405180830381865afa158015610d24573d6000803e3d6000fd5b505050506040513d601f19601f82011682018060405250810190610d489190612ab8565b1015610d89576040517f08c379a0000000000000000000000000000000000000000000000000000000008152600401610d8090612b31565b60405180910390fd5b60007f000000000000000000000000000000000000000000000000000000000000000073ffffffffffffffffffffffffffffffffffffffff166370a08231306040518263ffffffff1660e01b8152600401610de49190612b51565b602060405180830381865afa158015610e01573d6000803e3d6000fd5b505050506040513d601f19601f82011682018060405250810190610e259190612ab8565b90507f000000000000000000000000000000000000000000000000000000000000000073ffffffffffffffffffffffffffffffffffffffff166323b872dd3330876040518463ffffffff1660e01b8152600401610e84939291906128cb565b6020604051808303816000875af1158015610ea3573d6000803e3d6000fd5b505050506040513d601f19601f82011682018060405250810190610ec7919061283b565b5060007f000000000000000000000000000000000000000000000000000000000000000073ffffffffffffffffffffffffffffffffffffffff166370a08231306040518263ffffffff1660e01b8152600401610f239190612b51565b602060405180830381865afa158015610f40573d6000803e3d6000fd5b505050506040513d601f19601f82011682018060405250810190610f649190612ab8565b90508181610f729190612897565b94506000610f7f866113ae565b905085600460008973ffffffffffffffffffffffffffffffffffffffff1673ffffffffffffffffffffffffffffffffffffffff1681526020019081526020016000206000828254610fd0919061296e565b9250508190555085600560007f000000000000000000000000000000000000000000000000000000000000000073ffffffffffffffffffffffffffffffffffffffff1673ffffffffffffffffffffffffffffffffffffffff16815260200190815260200160002060008973ffffffffffffffffffffffffffffffffffffffff1673ffffffffffffffffffffffffffffffffffffffff1681526020019081526020016000205461107f919061296e565b600560007f000000000000000000000000000000000000000000000000000000000000000073ffffffffffffffffffffffffffffffffffffffff1673ffffffffffffffffffffffffffffffffffffffff16815260200190815260200160002060008973ffffffffffffffffffffffffffffffffffffffff1673ffffffffffffffffffffffffffffffffffffffff16815260200190815260200160002081905550600080815461112d90612b6c565b91905081905593507f00000000000000000000000000000000000000000000000000000000000000006003600086815260200190815260200160002060000160006101000a81548173ffffffffffffffffffffffffffffffffffffffff021916908373ffffffffffffffffffffffffffffffffffffffff160217905550866003600086815260200190815260200160002060010160006101000a81548173ffffffffffffffffffffffffffffffffffffffff021916908373ffffffffffffffffffffffffffffffffffffffff16021790555085600360008681526020019081526020016000206002018190555080600360008681526020019081526020016000206003018190555084600360008681526020019081526020016000206004018190555060006003600086815260200190815260200160002060050160006101000a81548160ff021916908315150217905550600160008873ffffffffffffffffffffffffffffffffffffffff1673ffffffffffffffffffffffffffffffffffffffff168152602001908152602001600020849080600181540180825580915050600190039060005260206000200160009091909190915055600260007f000000000000000000000000000000000000000000000000000000000000000073ffffffffffffffffffffffffffffffffffffffff1673ffffffffffffffffffffffffffffffffffffffff1681526020019081526020016000208490806001815401808255809150506001900390600052602060002001600090919091909150557fd17981b1afb7bf9743fe0e201535996fcbbd54c07ce342a74f7a8f1150326ea2868560405161139c929190612bb4565b60405180910390a15050509392505050565b60008082116113f2576040517f08c379a00000000000000000000000000000000000000000000000000000000081526004016113e990612c29565b60405180910390fd5b6064600654836114029190612c49565b61140c9190612cba565b9050919050565b7f000000000000000000000000000000000000000000000000000000000000000081565b6060600260008373ffffffffffffffffffffffffffffffffffffffff1673ffffffffffffffffffffffffffffffffffffffff1681526020019081526020016000208054806020026020016040519081016040528092919081815260200182805480156114c257602002820191906000526020600020905b8154815260200190600101908083116114ae575b50505050509050919050565b6003600082815260200190815260200160002060040154421015611527576040517f08c379a000000000000000000000000000000000000000000000000000000000815260040161151e906126ee565b60405180910390fd5b6276a700600360008381526020019081526020016000206004015461154c919061296e565b42111561158e576040517f08c379a000000000000000000000000000000000000000000000000000000000815260040161158590612d5d565b60405180910390fd5b6003600082815260200190815260200160002060050160009054906101000a900460ff16156115f2576040517f08c379a00000000000000000000000000000000000000000000000000000000081526004016115e9906127c6565b60405180910390fd5b7f000000000000000000000000000000000000000000000000000000000000000073ffffffffffffffffffffffffffffffffffffffff1663095ea7b33060036000858152602001908152602001600020600201546040518363ffffffff1660e01b81526004016116639291906127e6565b6020604051808303816000875af1158015611682573d6000803e3d6000fd5b505050506040513d601f19601f820116820180604052508101906116a6919061283b565b5060006003600083815260200190815260200160002060010160009054906101000a900473ffffffffffffffffffffffffffffffffffffffff1690506003600083815260200190815260200160002060020154600460008373ffffffffffffffffffffffffffffffffffffffff1673ffffffffffffffffffffffffffffffffffffffff16815260200190815260200160002060008282546117479190612897565b925050819055506003600083815260200190815260200160002060020154600560007f000000000000000000000000000000000000000000000000000000000000000073ffffffffffffffffffffffffffffffffffffffff1673ffffffffffffffffffffffffffffffffffffffff16815260200190815260200160002060008373ffffffffffffffffffffffffffffffffffffffff1673ffffffffffffffffffffffffffffffffffffffff16815260200190815260200160002060008282546118109190612897565b92505081905550600061183860036000858152602001908152602001600020600201546113ae565b90507f000000000000000000000000000000000000000000000000000000000000000073ffffffffffffffffffffffffffffffffffffffff166323b872dd3330846040518463ffffffff1660e01b8152600401611897939291906128cb565b6020604051808303816000875af11580156118b6573d6000803e3d6000fd5b505050506040513d601f19601f820116820180604052508101906118da919061283b565b507f000000000000000000000000000000000000000000000000000000000000000073ffffffffffffffffffffffffffffffffffffffff16633595fb76826040518263ffffffff1660e01b8152600401611934919061252b565b600060405180830381600087803b15801561194e57600080fd5b505af1158015611962573d6000803e3d6000fd5b505050507f000000000000000000000000000000000000000000000000000000000000000073ffffffffffffffffffffffffffffffffffffffff1663a9059cbb8360036000878152602001908152602001600020600201546040518363ffffffff1660e01b81526004016119d79291906127e6565b6020604051808303816000875af11580156119f6573d6000803e3d6000fd5b505050506040513d601f19601f82011682018060405250810190611a1a919061283b565b507fed23a82fe3387ce0bc3ec900dee36d8ca8c965f8dc65c02281a59f7e9e69728c826003600086815260200190815260200160002060020154604051611a629291906127e6565b60405180910390a1505050565b624f1a006003600083815260200190815260200160002060040154611a94919061296e565b421015611ad6576040517f08c379a0000000000000000000000000000000000000000000000000000000008152600401611acd90612def565b60405180910390fd5b6003600082815260200190815260200160002060050160009054906101000a900460ff1615611b3a576040517f08c379a0000000000000000000000000000000000000000000000000000000008152600401611b31906127c6565b60405180910390fd5b7f000000000000000000000000000000000000000000000000000000000000000073ffffffffffffffffffffffffffffffffffffffff1663095ea7b33060036000858152602001908152602001600020600201546040518363ffffffff1660e01b8152600401611bab9291906127e6565b6020604051808303816000875af1158015611bca573d6000803e3d6000fd5b505050506040513d601f19601f82011682018060405250810190611bee919061283b565b5060006003600083815260200190815260200160002060010160009054906101000a900473ffffffffffffffffffffffffffffffffffffffff1690506003600083815260200190815260200160002060020154600460008373ffffffffffffffffffffffffffffffffffffffff1673ffffffffffffffffffffffffffffffffffffffff1681526020019081526020016000206000828254611c8f9190612897565b925050819055506003600083815260200190815260200160002060020154600560007f000000000000000000000000000000000000000000000000000000000000000073ffffffffffffffffffffffffffffffffffffffff1673ffffffffffffffffffffffffffffffffffffffff16815260200190815260200160002060008373ffffffffffffffffffffffffffffffffffffffff1673ffffffffffffffffffffffffffffffffffffffff1681526020019081526020016000206000828254611d589190612897565b925050819055506000611d8060036000858152602001908152602001600020600201546113ae565b90507f000000000000000000000000000000000000000000000000000000000000000073ffffffffffffffffffffffffffffffffffffffff166323b872dd3330846040518463ffffffff1660e01b8152600401611ddf939291906128cb565b6020604051808303816000875af1158015611dfe573d6000803e3d6000fd5b505050506040513d601f19601f82011682018060405250810190611e22919061283b565b507f000000000000000000000000000000000000000000000000000000000000000073ffffffffffffffffffffffffffffffffffffffff16633595fb76826040518263ffffffff1660e01b8152600401611e7c919061252b565b600060405180830381600087803b158015611e9657600080fd5b505af1158015611eaa573d6000803e3d6000fd5b505050507f000000000000000000000000000000000000000000000000000000000000000073ffffffffffffffffffffffffffffffffffffffff1663a9059cbb3360036000878152602001908152602001600020600201546040518363ffffffff1660e01b8152600401611f1f9291906127e6565b6020604051808303816000875af1158015611f3e573d6000803e3d6000fd5b505050506040513d601f19601f82011682018060405250810190611f62919061283b565b507f81253951d7863bb57f42138c51aff2cd8c9e73e303ff9733c96d24d0583d61ac336003600086815260200190815260200160002060020154604051611faa9291906127e6565b60405180910390a1505050565b6005602052816000526040600020602052806000526040600020600091509150505481565b6000611fe6612171565b9050600582111561202c576040517f08c379a000000000000000000000000000000000000000000000000000000000815260040161202390612e81565b60405180910390fd5b60005b8281101561209057828110156120755761206282828151811061205557612054612ea1565b5b602002602001015161051e565b808061206d90612b6c565b91505061207d565b828111612090575b808061208890612b6c565b91505061202f565b505050565b60065481565b6000670de0b6b3a7640000826120b19190612c49565b9050919050565b60046020528060005260406000206000915090505481565b60007f000000000000000000000000000000000000000000000000000000000000000073ffffffffffffffffffffffffffffffffffffffff166370a08231306040518263ffffffff1660e01b815260040161212b9190612b51565b602060405180830381865afa158015612148573d6000803e3d6000fd5b505050506040513d601f19601f8201168201806040525081019061216c9190612ab8565b905090565b6060600160003373ffffffffffffffffffffffffffffffffffffffff1673ffffffffffffffffffffffffffffffffffffffff1681526020019081526020016000208054806020026020016040519081016040528092919081815260200182805480156121fc57602002820191906000526020600020905b8154815260200190600101908083116121e8575b5050505050905090565b6000670de0b6b3a76400008261221c9190612cba565b9050919050565b600073ffffffffffffffffffffffffffffffffffffffff82169050919050565b6000819050919050565b600061226861226361225e84612223565b612243565b612223565b9050919050565b600061227a8261224d565b9050919050565b600061228c8261226f565b9050919050565b61229c81612281565b82525050565b60006020820190506122b76000830184612293565b92915050565b600080fd5b60006122cd82612223565b9050919050565b6122dd816122c2565b81146122e857600080fd5b50565b6000813590506122fa816122d4565b92915050565b600060208284031215612316576123156122bd565b5b6000612324848285016122eb565b91505092915050565b600081519050919050565b600082825260208201905092915050565b6000819050602082019050919050565b6000819050919050565b61236c81612359565b82525050565b600061237e8383612363565b60208301905092915050565b6000602082019050919050565b60006123a28261232d565b6123ac8185612338565b93506123b783612349565b8060005b838110156123e85781516123cf8882612372565b97506123da8361238a565b9250506001810190506123bb565b5085935050505092915050565b6000602082019050818103600083015261240f8184612397565b905092915050565b61242081612359565b811461242b57600080fd5b50565b60008135905061243d81612417565b92915050565b600060208284031215612459576124586122bd565b5b60006124678482850161242e565b91505092915050565b600061247b8261226f565b9050919050565b61248b81612470565b82525050565b61249a816122c2565b82525050565b6124a981612359565b82525050565b60008115159050919050565b6124c4816124af565b82525050565b600060c0820190506124df6000830189612482565b6124ec6020830188612491565b6124f960408301876124a0565b61250660608301866124a0565b61251360808301856124a0565b61252060a08301846124bb565b979650505050505050565b600060208201905061254060008301846124a0565b92915050565b60006125518261226f565b9050919050565b61256181612546565b82525050565b600060208201905061257c6000830184612558565b92915050565b60008060408385031215612599576125986122bd565b5b60006125a7858286016122eb565b92505060206125b88582860161242e565b9150509250929050565b6000806000606084860312156125db576125da6122bd565b5b60006125e9868287016122eb565b93505060206125fa8682870161242e565b925050604061260b8682870161242e565b9150509250925092565b60006126208261226f565b9050919050565b61263081612615565b82525050565b600060208201905061264b6000830184612627565b92915050565b60008060408385031215612668576126676122bd565b5b6000612676858286016122eb565b9250506020612687858286016122eb565b9150509250929050565b600082825260208201905092915050565b7f546f6b656e7320617265207374696c6c206c6f636b65642e0000000000000000600082015250565b60006126d8601883612691565b91506126e3826126a2565b602082019050919050565b60006020820190508181036000830152612707816126cb565b9050919050565b7f596f7520617265206e6f742074686520726563697069656e742e000000000000600082015250565b6000612744601a83612691565b915061274f8261270e565b602082019050919050565b6000602082019050818103600083015261277381612737565b9050919050565b7f546f6b656e732061726520616c72656164792077697468647261776e2e000000600082015250565b60006127b0601d83612691565b91506127bb8261277a565b602082019050919050565b600060208201905081810360008301526127df816127a3565b9050919050565b60006040820190506127fb6000830185612491565b61280860208301846124a0565b9392505050565b612818816124af565b811461282357600080fd5b50565b6000815190506128358161280f565b92915050565b600060208284031215612851576128506122bd565b5b600061285f84828501612826565b91505092915050565b7f4e487b7100000000000000000000000000000000000000000000000000000000600052601160045260246000fd5b60006128a282612359565b91506128ad83612359565b92508282039050818111156128c5576128c4612868565b5b92915050565b60006060820190506128e06000830186612491565b6128ed6020830185612491565b6128fa60408301846124a0565b949350505050565b7f496e73756666696369656e7420534f554c2062616c616e63652e000000000000600082015250565b6000612938601a83612691565b915061294382612902565b602082019050919050565b600060208201905081810360008301526129678161292b565b9050919050565b600061297982612359565b915061298483612359565b925082820190508082111561299c5761299b612868565b5b92915050565b7f556e6c6f636b206d7573742062652077697468696e206f6e6520796561722e00600082015250565b60006129d8601f83612691565b91506129e3826129a2565b602082019050919050565b60006020820190508181036000830152612a07816129cb565b9050919050565b7f556e6c6f636b206973206e6f7420696e20746865206675747572652e00000000600082015250565b6000612a44601c83612691565b9150612a4f82612a0e565b602082019050919050565b60006020820190508181036000830152612a7381612a37565b9050919050565b6000604082019050612a8f6000830185612491565b612a9c6020830184612491565b9392505050565b600081519050612ab281612417565b92915050565b600060208284031215612ace57612acd6122bd565b5b6000612adc84828501612aa3565b91505092915050565b7f417070726f766520534f554c2066697273742e00000000000000000000000000600082015250565b6000612b1b601383612691565b9150612b2682612ae5565b602082019050919050565b60006020820190508181036000830152612b4a81612b0e565b9050919050565b6000602082019050612b666000830184612491565b92915050565b6000612b7782612359565b91507fffffffffffffffffffffffffffffffffffffffffffffffffffffffffffffffff8203612ba957612ba8612868565b5b600182019050919050565b6000604082019050612bc960008301856124a0565b612bd660208301846124a0565b9392505050565b7f63616e6e6f742068617665207a65726f20666565000000000000000000000000600082015250565b6000612c13601483612691565b9150612c1e82612bdd565b602082019050919050565b60006020820190508181036000830152612c4281612c06565b9050919050565b6000612c5482612359565b9150612c5f83612359565b9250828202612c6d81612359565b91508282048414831517612c8457612c83612868565b5b5092915050565b7f4e487b7100000000000000000000000000000000000000000000000000000000600052601260045260246000fd5b6000612cc582612359565b9150612cd083612359565b925082612ce057612cdf612c8b565b5b828204905092915050565b7f546f6b656e7320617265206e6f206c6f6e6765722077697468696e20636c616960008201527f6d7320706572696f642e00000000000000000000000000000000000000000000602082015250565b6000612d47602a83612691565b9150612d5282612ceb565b604082019050919050565b60006020820190508181036000830152612d7681612d3a565b9050919050565b7f546f6b656e7320617265207374696c6c2077697468696e20636c61696d73207060008201527f6572696f642e0000000000000000000000000000000000000000000000000000602082015250565b6000612dd9602683612691565b9150612de482612d7d565b604082019050919050565b60006020820190508181036000830152612e0881612dcc565b9050919050565b7f43616e6e6f7420657863656564203520636c61696d7320696e206f6e6520747260008201527f616e73616374696f6e2e00000000000000000000000000000000000000000000602082015250565b6000612e6b602a83612691565b9150612e7682612e0f565b604082019050919050565b60006020820190508181036000830152612e9a81612e5e565b9050919050565b7f4e487b7100000000000000000000000000000000000000000000000000000000600052603260045260246000fdfea2646970667358221220db58bea61ff36bf8019b282ee2c77519277e252950983a03fb6800bf7a0a8c8964736f6c63430008110033",
  "immutableReferences": {
    "13562": [
      {
        "length": 32,
        "start": 1665
      },
      {
        "length": 32,
        "start": 2237
      },
      {
        "length": 32,
        "start": 2944
      },
      {
        "length": 32,
        "start": 5620
      },
      {
        "length": 32,
        "start": 6204
      },
      {
        "length": 32,
        "start": 6972
      },
      {
        "length": 32,
        "start": 7556
      }
    ],
    "13568": [
      {
        "length": 32,
        "start": 2028
      },
      {
        "length": 32,
        "start": 2537
      },
      {
        "length": 32,
        "start": 3246
      },
      {
        "length": 32,
        "start": 3469
      },
      {
        "length": 32,
        "start": 3625
      },
      {
        "length": 32,
        "start": 3788
      },
      {
        "length": 32,
        "start": 4062
      },
      {
        "length": 32,
        "start": 4229
      },
      {
        "length": 32,
        "start": 4407
      },
      {
        "length": 32,
        "start": 4843
      },
      {
        "length": 32,
        "start": 5141
      },
      {
        "length": 32,
        "start": 5995
      },
      {
        "length": 32,
        "start": 6504
      },
      {
        "length": 32,
        "start": 7347
      },
      {
        "length": 32,
        "start": 7856
      },
      {
        "length": 32,
        "start": 8404
      }
    ],
    "13574": [
      {
        "length": 32,
        "start": 1125
      },
      {
        "length": 32,
        "start": 2398
      },
      {
        "length": 32,
        "start": 6365
      },
      {
        "length": 32,
        "start": 7717
      }
    ]
  },
  "source": "// SPDX-License-Identifier: MIT\npragma solidity >=0.8.0;\n\nimport '../libraries/SafeERC20.sol';\nimport './Outcaster.sol';\n\ncontract SoulScarab {\n\n    SeanceCircle public immutable seance = SeanceCircle(0x124B06C5ce47De7A6e9EFDA71a946717130079E6);\n    SoulPower public immutable soul = SoulPower(0xe2fb177009FF39F52C0134E8007FA0e4BaAcBd07);\n\n    Outcaster public immutable outcaster = Outcaster(0xce530f22d82A2437F2fb4b43Df0e1e4fD446f0ff);\n\n    struct Scarab {\n        IERC20 token;\n        address recipient;\n        uint amount;\n        uint tribute;\n        uint unlockTimestamp;\n        bool withdrawn;\n    }\n    \n    uint public depositsCount;\n    mapping (address => uint[]) public depositsByRecipient;\n    mapping (address => uint[]) private depositsByTokenAddress;\n\n    mapping (uint => Scarab) public scarabs;\n    mapping (address => uint) public walletBalance;\n    mapping (address => mapping(address => uint)) public walletTokenBalance;\n    \n    uint public tributeRate = 10;        // 10%\n    \n    event Withdraw(address recipient, uint amount);\n    event Repossesed(address recipient, uint amount);\n    event Saved(address recipient, uint amount);\n    event ScarabSummoned(uint amount, uint id);\n        \n    function lockSouls(address _recipient, uint _amount, uint _unlockTimestamp) external returns (uint id) {\n        require(_amount > 0, 'Insufficient SOUL balance.');\n        require(_unlockTimestamp <= block.timestamp + 365 days, 'Unlock must be within one year.');\n        require(_unlockTimestamp > block.timestamp, 'Unlock is not in the future.');\n        require(soul.allowance(msg.sender, address(this)) >= _amount, 'Approve SOUL first.');\n\n        // soul balance [before the deposit]\n        uint beforeDeposit = soul.balanceOf(address(this));\n\n        // transfers your soul into a Scarab\n        soul.transferFrom(msg.sender, address(this), _amount);\n\n        // soul balance [after the deposit]\n        uint afterDeposit = soul.balanceOf(address(this));\n        \n        // safety precaution (requires contract recieves SOUL)\n        _amount = afterDeposit - beforeDeposit; \n\n        // calulates tribute amount\n        uint _tribute = getTribute(_amount);\n                \n        walletBalance[_recipient] += _amount;\n        walletTokenBalance[address(soul)][_recipient] = walletTokenBalance[address(soul)][_recipient] + _amount;\n        \n        // create a new id, based off deposit count\n        id = ++depositsCount;\n        scarabs[id].token = soul;\n        scarabs[id].recipient = _recipient;\n        scarabs[id].amount = _amount;\n        scarabs[id].tribute = _tribute;\n        scarabs[id].unlockTimestamp = _unlockTimestamp;\n        scarabs[id].withdrawn = false;\n        \n        depositsByRecipient[_recipient].push(id);\n        depositsByTokenAddress[address(soul)].push(id);\n\n        emit ScarabSummoned(_amount, id);\n        \n        return id;\n    }\n    \n    function withdrawTokens(uint id) public {\n        require(block.timestamp >= scarabs[id].unlockTimestamp, 'Tokens are still locked.');\n        require(msg.sender == scarabs[id].recipient, 'You are not the recipient.');\n        require(!scarabs[id].withdrawn, 'Tokens are already withdrawn.');\n        seance.approve(address(this), scarabs[id].amount);\n        scarabs[id].withdrawn = true;\n        \n        walletBalance[msg.sender] -= scarabs[id].amount;\n        walletTokenBalance[address(soul)][msg.sender] -= scarabs[id].amount;\n\n\n        // [1] acquires tribute amount\n        uint tribute = getTribute(scarabs[id].amount);\n        \n        // [2] burns tribute to enable recipient to claim\n        seance.transferFrom(msg.sender, address(this), tribute);\n        outcaster.outCast(tribute);\n\n        // [3] transfers soul to the sender\n        soul.transfer(msg.sender, scarabs[id].amount);\n\n        emit Withdraw(msg.sender, scarabs[id].amount);  \n    }\n    \n    function claimUnclaimed(uint id) public {\n        require(block.timestamp >= scarabs[id].unlockTimestamp + 60 days, 'Tokens are still within claims period.');\n        require(!scarabs[id].withdrawn, 'Tokens are already withdrawn.');\n        seance.approve(address(this), scarabs[id].amount);\n\n        address recipient = scarabs[id].recipient;\n        walletBalance[recipient] -= scarabs[id].amount;\n        walletTokenBalance[address(soul)][recipient] -= scarabs[id].amount;\n\n        // [1] acquires tribute amount\n        uint tribute = getTribute(scarabs[id].amount);\n        \n        // [2] burns tribute to enable you to claim.\n        seance.transferFrom(msg.sender, address(this), tribute);\n        outcaster.outCast(tribute);\n\n        // [3] transfers soul to the sender.\n        soul.transfer(msg.sender, scarabs[id].amount);\n\n        emit Repossesed(msg.sender, scarabs[id].amount);  \n\n    }\n    \n    function savingGrace(uint id) public {\n        require(block.timestamp >= scarabs[id].unlockTimestamp, 'Tokens are still locked.');\n        require(block.timestamp <= scarabs[id].unlockTimestamp + 90 days, 'Tokens are no longer within claims period.');\n        require(!scarabs[id].withdrawn, 'Tokens are already withdrawn.');\n        seance.approve(address(this), scarabs[id].amount);\n\n        address recipient = scarabs[id].recipient;\n        \n        walletBalance[recipient] -= scarabs[id].amount;\n        walletTokenBalance[address(soul)][recipient] -= scarabs[id].amount;\n\n        // [1] acquires tribute amount.\n        uint tribute = getTribute(scarabs[id].amount);\n        \n        // [2] burns tribute to claim for recipient.\n        seance.transferFrom(msg.sender, address(this), tribute);\n        outcaster.outCast(tribute);\n\n        // [3] transfers soul to the recipient\n        soul.transfer(recipient, scarabs[id].amount);\n\n        emit Saved(recipient, scarabs[id].amount);  \n\n    }\n\n    function claimScarabs(uint count) external {\n        uint[] memory myScarabs = getScarabs();\n        require(count <= 5, 'Cannot exceed 5 claims in one transaction.');\n\n        // for loop: withdraws up to 5.\n        for (uint i = 0; i < count; i++) {\n            if (i < count) {\n                withdrawTokens(myScarabs[i]);\n                i ++;\n                // skip to next iteration with continue\n                continue;\n            }\n\n            if (i > count) {\n                // exit loop with break: when amount limit reached\n                break;\n            }\n        }\n    }\n\n    function getTribute(uint amount) public view returns (uint fee) {\n        require(amount > 0, 'cannot have zero fee');\n        return amount * tributeRate / 100;\n    }\n    \n    function getDepositsByTokenAddress(address _token) view external returns (uint[] memory) { return depositsByTokenAddress[_token]; }\n    function getDepositsByRecipient(address _recipient) view external returns (uint[] memory) { return depositsByRecipient[_recipient]; }\n    function getScarabs() view public returns (uint[] memory) { return depositsByRecipient[msg.sender]; }\n    function getTotalLockedBalance() view external returns (uint) { return soul.balanceOf(address(this)); }\n    \n    function enWei(uint amount) public pure returns (uint) { return amount * 1E18; }\n    function fromWei(uint amount) public pure returns (uint) { return amount / 1E18; }\n}",
  "sourcePath": "/Users/buns/Documents/GitHub/SoulSwapFinance/soulswap-farms/contracts/majestic/SoulScarab.sol",
  "compiler": {
    "name": "solc",
    "version": "0.8.17+commit.8df45f5f.Emscripten.clang"
  },
  "schemaVersion": "3.4.1",
  "updatedAt": "2022-10-01T21:51:29.857Z",
  "devdoc": {
    "kind": "dev",
    "methods": {},
    "version": 1
  },
  "userdoc": {
    "kind": "user",
    "methods": {},
    "version": 1
  }
}