{
  "contractName": "SoulVault",
  "abi": [
    {
      "inputs": [
        {
          "internalType": "contract IERC20",
          "name": "_soul",
          "type": "address"
        },
        {
          "internalType": "contract IERC20",
          "name": "_seance",
          "type": "address"
        },
        {
          "internalType": "contract ISummoner",
          "name": "_summoner",
          "type": "address"
        }
      ],
      "stateMutability": "nonpayable",
      "type": "constructor"
    },
    {
      "anonymous": false,
      "inputs": [
        {
          "indexed": true,
          "internalType": "address",
          "name": "sender",
          "type": "address"
        },
        {
          "indexed": false,
          "internalType": "uint256",
          "name": "amount",
          "type": "uint256"
        },
        {
          "indexed": false,
          "internalType": "uint256",
          "name": "shares",
          "type": "uint256"
        },
        {
          "indexed": false,
          "internalType": "uint256",
          "name": "lastDepositedTime",
          "type": "uint256"
        }
      ],
      "name": "Deposit",
      "type": "event"
    },
    {
      "anonymous": false,
      "inputs": [
        {
          "indexed": true,
          "internalType": "address",
          "name": "sender",
          "type": "address"
        },
        {
          "indexed": false,
          "internalType": "uint256",
          "name": "performanceFee",
          "type": "uint256"
        },
        {
          "indexed": false,
          "internalType": "uint256",
          "name": "callFee",
          "type": "uint256"
        }
      ],
      "name": "Harvest",
      "type": "event"
    },
    {
      "anonymous": false,
      "inputs": [
        {
          "indexed": true,
          "internalType": "address",
          "name": "previousOwner",
          "type": "address"
        },
        {
          "indexed": true,
          "internalType": "address",
          "name": "newOwner",
          "type": "address"
        }
      ],
      "name": "OwnershipTransferred",
      "type": "event"
    },
    {
      "anonymous": false,
      "inputs": [],
      "name": "Pause",
      "type": "event"
    },
    {
      "anonymous": false,
      "inputs": [
        {
          "indexed": false,
          "internalType": "address",
          "name": "account",
          "type": "address"
        }
      ],
      "name": "Paused",
      "type": "event"
    },
    {
      "anonymous": false,
      "inputs": [],
      "name": "Unpause",
      "type": "event"
    },
    {
      "anonymous": false,
      "inputs": [
        {
          "indexed": false,
          "internalType": "address",
          "name": "account",
          "type": "address"
        }
      ],
      "name": "Unpaused",
      "type": "event"
    },
    {
      "anonymous": false,
      "inputs": [
        {
          "indexed": true,
          "internalType": "address",
          "name": "sender",
          "type": "address"
        },
        {
          "indexed": false,
          "internalType": "uint256",
          "name": "amount",
          "type": "uint256"
        },
        {
          "indexed": false,
          "internalType": "uint256",
          "name": "shares",
          "type": "uint256"
        }
      ],
      "name": "Withdraw",
      "type": "event"
    },
    {
      "inputs": [],
      "name": "MAX_CALL_FEE",
      "outputs": [
        {
          "internalType": "uint256",
          "name": "",
          "type": "uint256"
        }
      ],
      "stateMutability": "view",
      "type": "function"
    },
    {
      "inputs": [],
      "name": "MAX_PERFORMANCE_FEE",
      "outputs": [
        {
          "internalType": "uint256",
          "name": "",
          "type": "uint256"
        }
      ],
      "stateMutability": "view",
      "type": "function"
    },
    {
      "inputs": [],
      "name": "MAX_WITHDRAW_FEE",
      "outputs": [
        {
          "internalType": "uint256",
          "name": "",
          "type": "uint256"
        }
      ],
      "stateMutability": "view",
      "type": "function"
    },
    {
      "inputs": [],
      "name": "MAX_WITHDRAW_FEE_PERIOD",
      "outputs": [
        {
          "internalType": "uint256",
          "name": "",
          "type": "uint256"
        }
      ],
      "stateMutability": "view",
      "type": "function"
    },
    {
      "inputs": [],
      "name": "admin",
      "outputs": [
        {
          "internalType": "address",
          "name": "",
          "type": "address"
        }
      ],
      "stateMutability": "view",
      "type": "function"
    },
    {
      "inputs": [],
      "name": "callFee",
      "outputs": [
        {
          "internalType": "uint256",
          "name": "",
          "type": "uint256"
        }
      ],
      "stateMutability": "view",
      "type": "function"
    },
    {
      "inputs": [],
      "name": "lastHarvestedTime",
      "outputs": [
        {
          "internalType": "uint256",
          "name": "",
          "type": "uint256"
        }
      ],
      "stateMutability": "view",
      "type": "function"
    },
    {
      "inputs": [],
      "name": "owner",
      "outputs": [
        {
          "internalType": "address",
          "name": "",
          "type": "address"
        }
      ],
      "stateMutability": "view",
      "type": "function"
    },
    {
      "inputs": [],
      "name": "paused",
      "outputs": [
        {
          "internalType": "bool",
          "name": "",
          "type": "bool"
        }
      ],
      "stateMutability": "view",
      "type": "function"
    },
    {
      "inputs": [],
      "name": "performanceFee",
      "outputs": [
        {
          "internalType": "uint256",
          "name": "",
          "type": "uint256"
        }
      ],
      "stateMutability": "view",
      "type": "function"
    },
    {
      "inputs": [],
      "name": "renounceOwnership",
      "outputs": [],
      "stateMutability": "nonpayable",
      "type": "function"
    },
    {
      "inputs": [],
      "name": "seance",
      "outputs": [
        {
          "internalType": "contract IERC20",
          "name": "",
          "type": "address"
        }
      ],
      "stateMutability": "view",
      "type": "function"
    },
    {
      "inputs": [],
      "name": "soul",
      "outputs": [
        {
          "internalType": "contract IERC20",
          "name": "",
          "type": "address"
        }
      ],
      "stateMutability": "view",
      "type": "function"
    },
    {
      "inputs": [],
      "name": "summoner",
      "outputs": [
        {
          "internalType": "contract ISummoner",
          "name": "",
          "type": "address"
        }
      ],
      "stateMutability": "view",
      "type": "function"
    },
    {
      "inputs": [],
      "name": "totalShares",
      "outputs": [
        {
          "internalType": "uint256",
          "name": "",
          "type": "uint256"
        }
      ],
      "stateMutability": "view",
      "type": "function"
    },
    {
      "inputs": [
        {
          "internalType": "address",
          "name": "newOwner",
          "type": "address"
        }
      ],
      "name": "transferOwnership",
      "outputs": [],
      "stateMutability": "nonpayable",
      "type": "function"
    },
    {
      "inputs": [],
      "name": "treasury",
      "outputs": [
        {
          "internalType": "address",
          "name": "",
          "type": "address"
        }
      ],
      "stateMutability": "view",
      "type": "function"
    },
    {
      "inputs": [
        {
          "internalType": "address",
          "name": "",
          "type": "address"
        }
      ],
      "name": "userInfo",
      "outputs": [
        {
          "internalType": "uint256",
          "name": "shares",
          "type": "uint256"
        },
        {
          "internalType": "uint256",
          "name": "lastDepositedTime",
          "type": "uint256"
        },
        {
          "internalType": "uint256",
          "name": "soulAtLastUserAction",
          "type": "uint256"
        },
        {
          "internalType": "uint256",
          "name": "lastUserActionTime",
          "type": "uint256"
        }
      ],
      "stateMutability": "view",
      "type": "function"
    },
    {
      "inputs": [],
      "name": "withdrawFee",
      "outputs": [
        {
          "internalType": "uint256",
          "name": "",
          "type": "uint256"
        }
      ],
      "stateMutability": "view",
      "type": "function"
    },
    {
      "inputs": [],
      "name": "withdrawFeePeriod",
      "outputs": [
        {
          "internalType": "uint256",
          "name": "",
          "type": "uint256"
        }
      ],
      "stateMutability": "view",
      "type": "function"
    },
    {
      "inputs": [
        {
          "internalType": "uint256",
          "name": "_amount",
          "type": "uint256"
        }
      ],
      "name": "deposit",
      "outputs": [],
      "stateMutability": "nonpayable",
      "type": "function"
    },
    {
      "inputs": [],
      "name": "withdrawAll",
      "outputs": [],
      "stateMutability": "nonpayable",
      "type": "function"
    },
    {
      "inputs": [],
      "name": "harvest",
      "outputs": [],
      "stateMutability": "nonpayable",
      "type": "function"
    },
    {
      "inputs": [
        {
          "internalType": "address",
          "name": "_admin",
          "type": "address"
        }
      ],
      "name": "setAdmin",
      "outputs": [],
      "stateMutability": "nonpayable",
      "type": "function"
    },
    {
      "inputs": [
        {
          "internalType": "address",
          "name": "_treasury",
          "type": "address"
        }
      ],
      "name": "setTreasury",
      "outputs": [],
      "stateMutability": "nonpayable",
      "type": "function"
    },
    {
      "inputs": [
        {
          "internalType": "uint256",
          "name": "_performanceFee",
          "type": "uint256"
        }
      ],
      "name": "setPerformanceFee",
      "outputs": [],
      "stateMutability": "nonpayable",
      "type": "function"
    },
    {
      "inputs": [
        {
          "internalType": "uint256",
          "name": "_callFee",
          "type": "uint256"
        }
      ],
      "name": "setCallFee",
      "outputs": [],
      "stateMutability": "nonpayable",
      "type": "function"
    },
    {
      "inputs": [
        {
          "internalType": "uint256",
          "name": "_withdrawFee",
          "type": "uint256"
        }
      ],
      "name": "setWithdrawFee",
      "outputs": [],
      "stateMutability": "nonpayable",
      "type": "function"
    },
    {
      "inputs": [
        {
          "internalType": "uint256",
          "name": "_withdrawFeePeriod",
          "type": "uint256"
        }
      ],
      "name": "setWithdrawFeePeriod",
      "outputs": [],
      "stateMutability": "nonpayable",
      "type": "function"
    },
    {
      "inputs": [
        {
          "internalType": "address",
          "name": "_token",
          "type": "address"
        }
      ],
      "name": "inCaseTokensGetStuck",
      "outputs": [],
      "stateMutability": "nonpayable",
      "type": "function"
    },
    {
      "inputs": [],
      "name": "pause",
      "outputs": [],
      "stateMutability": "nonpayable",
      "type": "function"
    },
    {
      "inputs": [],
      "name": "unpause",
      "outputs": [],
      "stateMutability": "nonpayable",
      "type": "function"
    },
    {
      "inputs": [],
      "name": "calculateHarvestSoulRewards",
      "outputs": [
        {
          "internalType": "uint256",
          "name": "",
          "type": "uint256"
        }
      ],
      "stateMutability": "view",
      "type": "function"
    },
    {
      "inputs": [],
      "name": "calculateTotalPendingSoulRewards",
      "outputs": [
        {
          "internalType": "uint256",
          "name": "",
          "type": "uint256"
        }
      ],
      "stateMutability": "view",
      "type": "function"
    },
    {
      "inputs": [],
      "name": "getPricePerFullShare",
      "outputs": [
        {
          "internalType": "uint256",
          "name": "",
          "type": "uint256"
        }
      ],
      "stateMutability": "view",
      "type": "function"
    },
    {
      "inputs": [
        {
          "internalType": "uint256",
          "name": "_shares",
          "type": "uint256"
        }
      ],
      "name": "withdraw",
      "outputs": [],
      "stateMutability": "nonpayable",
      "type": "function"
    },
    {
      "inputs": [],
      "name": "available",
      "outputs": [
        {
          "internalType": "uint256",
          "name": "",
          "type": "uint256"
        }
      ],
      "stateMutability": "view",
      "type": "function"
    },
    {
      "inputs": [],
      "name": "balanceOf",
      "outputs": [
        {
          "internalType": "uint256",
          "name": "",
          "type": "uint256"
        }
      ],
      "stateMutability": "view",
      "type": "function"
    }
  ],
  "bytecode": "0x60a060405233600660006101000a81548173ffffffffffffffffffffffffffffffffffffffff021916908373ffffffffffffffffffffffffffffffffffffffff16021790555033600760006101000a81548173ffffffffffffffffffffffffffffffffffffffff021916908373ffffffffffffffffffffffffffffffffffffffff16021790555060c86008556019600955600a80556203f480600b55348015620000a857600080fd5b5060405162003b8038038062003b808339818101604052810190620000ce91906200041c565b620000ee620000e26200028d60201b60201c565b6200029560201b60201c565b60008060146101000a81548160ff02191690831515021790555082600160006101000a81548173ffffffffffffffffffffffffffffffffffffffff021916908373ffffffffffffffffffffffffffffffffffffffff16021790555081600260006101000a81548173ffffffffffffffffffffffffffffffffffffffff021916908373ffffffffffffffffffffffffffffffffffffffff1602179055508073ffffffffffffffffffffffffffffffffffffffff1660808173ffffffffffffffffffffffffffffffffffffffff1681525050600160009054906101000a900473ffffffffffffffffffffffffffffffffffffffff1673ffffffffffffffffffffffffffffffffffffffff1663095ea7b3827fffffffffffffffffffffffffffffffffffffffffffffffffffffffffffffffff6040518363ffffffff1660e01b81526004016200023d929190620004a4565b6020604051808303816000875af11580156200025d573d6000803e3d6000fd5b505050506040513d601f19601f820116820180604052508101906200028391906200050e565b5050505062000540565b600033905090565b60008060009054906101000a900473ffffffffffffffffffffffffffffffffffffffff169050816000806101000a81548173ffffffffffffffffffffffffffffffffffffffff021916908373ffffffffffffffffffffffffffffffffffffffff1602179055508173ffffffffffffffffffffffffffffffffffffffff168173ffffffffffffffffffffffffffffffffffffffff167f8be0079c531659141344cd1fd0a4f28419497f9722a3daafe3b4186f6b6457e060405160405180910390a35050565b600080fd5b600073ffffffffffffffffffffffffffffffffffffffff82169050919050565b60006200038b826200035e565b9050919050565b60006200039f826200037e565b9050919050565b620003b18162000392565b8114620003bd57600080fd5b50565b600081519050620003d181620003a6565b92915050565b6000620003e4826200037e565b9050919050565b620003f681620003d7565b81146200040257600080fd5b50565b6000815190506200041681620003eb565b92915050565b60008060006060848603121562000438576200043762000359565b5b60006200044886828701620003c0565b93505060206200045b86828701620003c0565b92505060406200046e8682870162000405565b9150509250925092565b62000483816200037e565b82525050565b6000819050919050565b6200049e8162000489565b82525050565b6000604082019050620004bb600083018562000478565b620004ca602083018462000493565b9392505050565b60008115159050919050565b620004e881620004d1565b8114620004f457600080fd5b50565b6000815190506200050881620004dd565b92915050565b60006020828403121562000527576200052662000359565b5b60006200053784828501620004f7565b91505092915050565b6080516135fa620005866000396000818161075d01528181610b1a015281816110420152818161167e01528181611e9801528181611f5e015261255401526135fa6000f3fe608060405234801561001057600080fd5b50600436106102325760003560e01c8063815b7a8c11610130578063bb5505e2116100b8578063df10b4e61161007c578063df10b4e6146105b6578063e941fa78146105d4578063f0f44260146105f2578063f2fde38b1461060e578063f851a4401461062a57610232565b8063bb5505e214610522578063bdca916514610540578063d4b0de2f1461055e578063dacaa9d11461057c578063def68a9c1461059a57610232565b80638da5cb5b116100ff5780638da5cb5b1461049057806390321e1a146104ae578063b60f0531146104cc578063b6ac642a146104ea578063b6b55f251461050657610232565b8063815b7a8c146104405780638456cb591461045e578063853828b614610468578063877887821461047257610232565b80634641257d116101be578063704b6c0211610182578063704b6c02146103c257806370897b23146103de578063715018a6146103fa578063722713f71461040457806377c7b8fc1461042257610232565b80634641257d1461034057806348a0d7541461034a5780634ca01d45146103685780635c975abb1461038657806361d027b3146103a457610232565b80632ad5a53f116102055780632ad5a53f146102c05780632cfc5f01146102de5780632e1a7d4d146102fc5780633a98ef39146103185780633f4ba83a1461033657610232565b80631959a002146102375780631efac1b81461026a57806325b298041461028657806326465826146102a4575b600080fd5b610251600480360381019061024c91906127b3565b610648565b60405161026194939291906127f9565b60405180910390f35b610284600480360381019061027f919061286a565b610678565b005b61028e610758565b60405161029b9190612897565b60405180910390f35b6102be60048036038101906102b9919061286a565b610836565b005b6102c8610914565b6040516102d59190612897565b60405180910390f35b6102e6610919565b6040516102f39190612897565b60405180910390f35b6103166004803603810190610311919061286a565b610920565b005b610320610e2e565b60405161032d9190612897565b60405180910390f35b61033e610e34565b005b610348610f41565b005b6103526112de565b60405161035f9190612897565b60405180910390f35b610370611381565b60405161037d9190612911565b60405180910390f35b61038e6113a7565b60405161039b9190612947565b60405180910390f35b6103ac6113bd565b6040516103b99190612971565b60405180910390f35b6103dc60048036038101906103d791906127b3565b6113e3565b005b6103f860048036038101906103f3919061286a565b611512565b005b6104026115f1565b005b61040c611679565b6040516104199190612897565b60405180910390f35b61042a6117ce565b6040516104379190612897565b60405180910390f35b610448611815565b6040516104559190612911565b60405180910390f35b61046661183b565b005b610470611949565b005b61047a611a4d565b6040516104879190612897565b60405180910390f35b610498611a53565b6040516104a59190612971565b60405180910390f35b6104b6611a7c565b6040516104c39190612897565b60405180910390f35b6104d4611a82565b6040516104e19190612897565b60405180910390f35b61050460048036038101906104ff919061286a565b611a88565b005b610520600480360381019061051b919061286a565b611b66565b005b61052a611e93565b6040516105379190612897565b60405180910390f35b610548611f51565b6040516105559190612897565b60405180910390f35b610566611f57565b6040516105739190612897565b60405180910390f35b610584611f5c565b60405161059191906129ad565b60405180910390f35b6105b460048036038101906105af91906127b3565b611f80565b005b6105be612231565b6040516105cb9190612897565b60405180910390f35b6105dc612237565b6040516105e99190612897565b60405180910390f35b61060c600480360381019061060791906127b3565b61223d565b005b610628600480360381019061062391906127b3565b61236c565b005b610632612463565b60405161063f9190612971565b60405180910390f35b60036020528060005260406000206000915090508060000154908060010154908060020154908060030154905084565b600660009054906101000a900473ffffffffffffffffffffffffffffffffffffffff1673ffffffffffffffffffffffffffffffffffffffff163373ffffffffffffffffffffffffffffffffffffffff1614610708576040517f08c379a00000000000000000000000000000000000000000000000000000000081526004016106ff90612a25565b60405180910390fd5b6203f48081111561074e576040517f08c379a000000000000000000000000000000000000000000000000000000000815260040161074590612ab7565b60405180910390fd5b80600b8190555050565b6000807f000000000000000000000000000000000000000000000000000000000000000073ffffffffffffffffffffffffffffffffffffffff1663bfafcad56000306040518363ffffffff1660e01b81526004016107b7929190612b12565b602060405180830381865afa1580156107d4573d6000803e3d6000fd5b505050506040513d601f19601f820116820180604052508101906107f89190612b50565b90506108026112de565b8161080d9190612bac565b90506000612710600954836108229190612be0565b61082c9190612c51565b9050809250505090565b600660009054906101000a900473ffffffffffffffffffffffffffffffffffffffff1673ffffffffffffffffffffffffffffffffffffffff163373ffffffffffffffffffffffffffffffffffffffff16146108c6576040517f08c379a00000000000000000000000000000000000000000000000000000000081526004016108bd90612a25565b60405180910390fd5b606481111561090a576040517f08c379a000000000000000000000000000000000000000000000000000000000815260040161090190612cf4565b60405180910390fd5b8060098190555050565b606481565b6203f48081565b61092933612489565b15610969576040517f08c379a000000000000000000000000000000000000000000000000000000000815260040161096090612d60565b60405180910390fd5b3273ffffffffffffffffffffffffffffffffffffffff163373ffffffffffffffffffffffffffffffffffffffff16146109d7576040517f08c379a00000000000000000000000000000000000000000000000000000000081526004016109ce90612dcc565b60405180910390fd5b6000600360003373ffffffffffffffffffffffffffffffffffffffff1673ffffffffffffffffffffffffffffffffffffffff168152602001908152602001600020905060008211610a5d576040517f08c379a0000000000000000000000000000000000000000000000000000000008152600401610a5490612e38565b60405180910390fd5b8060000154821115610aa4576040517f08c379a0000000000000000000000000000000000000000000000000000000008152600401610a9b90612ea4565b60405180910390fd5b600060045483610ab2611679565b610abc9190612be0565b610ac69190612c51565b9050828260000154610ad89190612ec4565b826000018190555082600454610aee9190612ec4565b6004819055506000610afe6112de565b905081811015610bda5760008183610b169190612ec4565b90507f000000000000000000000000000000000000000000000000000000000000000073ffffffffffffffffffffffffffffffffffffffff16631058d281826040518263ffffffff1660e01b8152600401610b719190612897565b600060405180830381600087803b158015610b8b57600080fd5b505af1158015610b9f573d6000803e3d6000fd5b505050506000610bad6112de565b905060008382610bbd9190612ec4565b905082811015610bd6578084610bd39190612bac565b94505b5050505b600b548360010154610bec9190612bac565b421015610ce5576000612710600a5484610c069190612be0565b610c109190612c51565b9050600160009054906101000a900473ffffffffffffffffffffffffffffffffffffffff1673ffffffffffffffffffffffffffffffffffffffff1663a9059cbb600760009054906101000a900473ffffffffffffffffffffffffffffffffffffffff16836040518363ffffffff1660e01b8152600401610c91929190612ef8565b6020604051808303816000875af1158015610cb0573d6000803e3d6000fd5b505050506040513d601f19601f82011682018060405250810190610cd49190612f4d565b508083610ce19190612ec4565b9250505b600083600001541115610d2357600454610cfd611679565b8460000154610d0c9190612be0565b610d169190612c51565b8360020181905550610d2e565b600083600201819055505b428360030181905550600160009054906101000a900473ffffffffffffffffffffffffffffffffffffffff1673ffffffffffffffffffffffffffffffffffffffff1663a9059cbb33846040518363ffffffff1660e01b8152600401610d94929190612ef8565b6020604051808303816000875af1158015610db3573d6000803e3d6000fd5b505050506040513d601f19601f82011682018060405250810190610dd79190612f4d565b503373ffffffffffffffffffffffffffffffffffffffff167ff279e6a1f5e320cca91135676d9cb6e44ca8a08c0b88342bcdb1144f6511b5688386604051610e20929190612f7a565b60405180910390a250505050565b60045481565b600660009054906101000a900473ffffffffffffffffffffffffffffffffffffffff1673ffffffffffffffffffffffffffffffffffffffff163373ffffffffffffffffffffffffffffffffffffffff1614610ec4576040517f08c379a0000000000000000000000000000000000000000000000000000000008152600401610ebb90612a25565b60405180910390fd5b610ecc6113a7565b610f0b576040517f08c379a0000000000000000000000000000000000000000000000000000000008152600401610f0290612fef565b60405180910390fd5b610f1361249c565b7f7805862f689e2f13df9f062ff482ad3ad112aca9e0847911ed832e158c525b3360405160405180910390a1565b610f4a33612489565b15610f8a576040517f08c379a0000000000000000000000000000000000000000000000000000000008152600401610f8190612d60565b60405180910390fd5b3273ffffffffffffffffffffffffffffffffffffffff163373ffffffffffffffffffffffffffffffffffffffff1614610ff8576040517f08c379a0000000000000000000000000000000000000000000000000000000008152600401610fef90612dcc565b60405180910390fd5b6110006113a7565b15611040576040517f08c379a00000000000000000000000000000000000000000000000000000000081526004016110379061305b565b60405180910390fd5b7f000000000000000000000000000000000000000000000000000000000000000073ffffffffffffffffffffffffffffffffffffffff16631058d28160006040518263ffffffff1660e01b815260040161109a919061307b565b600060405180830381600087803b1580156110b457600080fd5b505af11580156110c8573d6000803e3d6000fd5b5050505060006110d66112de565b90506000612710600854836110eb9190612be0565b6110f59190612c51565b9050600160009054906101000a900473ffffffffffffffffffffffffffffffffffffffff1673ffffffffffffffffffffffffffffffffffffffff1663a9059cbb600760009054906101000a900473ffffffffffffffffffffffffffffffffffffffff16836040518363ffffffff1660e01b8152600401611176929190612ef8565b6020604051808303816000875af1158015611195573d6000803e3d6000fd5b505050506040513d601f19601f820116820180604052508101906111b99190612f4d565b506000612710600954846111cd9190612be0565b6111d79190612c51565b9050600160009054906101000a900473ffffffffffffffffffffffffffffffffffffffff1673ffffffffffffffffffffffffffffffffffffffff1663a9059cbb33836040518363ffffffff1660e01b8152600401611236929190612ef8565b6020604051808303816000875af1158015611255573d6000803e3d6000fd5b505050506040513d601f19601f820116820180604052508101906112799190612f4d565b5061128261253d565b426005819055503373ffffffffffffffffffffffffffffffffffffffff167f71bab65ced2e5750775a0613be067df48ef06cf92a496ebf7663ae066092495483836040516112d1929190612f7a565b60405180910390a2505050565b6000600160009054906101000a900473ffffffffffffffffffffffffffffffffffffffff1673ffffffffffffffffffffffffffffffffffffffff166370a08231306040518263ffffffff1660e01b815260040161133b9190612971565b602060405180830381865afa158015611358573d6000803e3d6000fd5b505050506040513d601f19601f8201168201806040525081019061137c9190612b50565b905090565b600260009054906101000a900473ffffffffffffffffffffffffffffffffffffffff1681565b60008060149054906101000a900460ff16905090565b600760009054906101000a900473ffffffffffffffffffffffffffffffffffffffff1681565b6113eb6125e1565b73ffffffffffffffffffffffffffffffffffffffff16611409611a53565b73ffffffffffffffffffffffffffffffffffffffff161461145f576040517f08c379a0000000000000000000000000000000000000000000000000000000008152600401611456906130e2565b60405180910390fd5b600073ffffffffffffffffffffffffffffffffffffffff168173ffffffffffffffffffffffffffffffffffffffff16036114ce576040517f08c379a00000000000000000000000000000000000000000000000000000000081526004016114c59061314e565b60405180910390fd5b80600660006101000a81548173ffffffffffffffffffffffffffffffffffffffff021916908373ffffffffffffffffffffffffffffffffffffffff16021790555050565b600660009054906101000a900473ffffffffffffffffffffffffffffffffffffffff1673ffffffffffffffffffffffffffffffffffffffff163373ffffffffffffffffffffffffffffffffffffffff16146115a2576040517f08c379a000000000000000000000000000000000000000000000000000000000815260040161159990612a25565b60405180910390fd5b6101f48111156115e7576040517f08c379a00000000000000000000000000000000000000000000000000000000081526004016115de906131e0565b60405180910390fd5b8060088190555050565b6115f96125e1565b73ffffffffffffffffffffffffffffffffffffffff16611617611a53565b73ffffffffffffffffffffffffffffffffffffffff161461166d576040517f08c379a0000000000000000000000000000000000000000000000000000000008152600401611664906130e2565b60405180910390fd5b61167760006125e9565b565b6000807f000000000000000000000000000000000000000000000000000000000000000073ffffffffffffffffffffffffffffffffffffffff166393f1a40b6000306040518363ffffffff1660e01b81526004016116d8929190612b12565b60e060405180830381865afa1580156116f5573d6000803e3d6000fd5b505050506040513d601f19601f820116820180604052508101906117199190613200565b505050505050905080600160009054906101000a900473ffffffffffffffffffffffffffffffffffffffff1673ffffffffffffffffffffffffffffffffffffffff166370a08231306040518263ffffffff1660e01b815260040161177d9190612971565b602060405180830381865afa15801561179a573d6000803e3d6000fd5b505050506040513d601f19601f820116820180604052508101906117be9190612b50565b6117c89190612bac565b91505090565b6000806004541461180657600454670de0b6b3a76400006117ed611679565b6117f79190612be0565b6118019190612c51565b611810565b670de0b6b3a76400005b905090565b600160009054906101000a900473ffffffffffffffffffffffffffffffffffffffff1681565b600660009054906101000a900473ffffffffffffffffffffffffffffffffffffffff1673ffffffffffffffffffffffffffffffffffffffff163373ffffffffffffffffffffffffffffffffffffffff16146118cb576040517f08c379a00000000000000000000000000000000000000000000000000000000081526004016118c290612a25565b60405180910390fd5b6118d36113a7565b15611913576040517f08c379a000000000000000000000000000000000000000000000000000000000815260040161190a9061305b565b60405180910390fd5b61191b6126ad565b7f6985a02210a168e66602d3235cb6db0e70f92b3ba4d376a33c0f3d9434bff62560405160405180910390a1565b61195233612489565b15611992576040517f08c379a000000000000000000000000000000000000000000000000000000000815260040161198990612d60565b60405180910390fd5b3273ffffffffffffffffffffffffffffffffffffffff163373ffffffffffffffffffffffffffffffffffffffff1614611a00576040517f08c379a00000000000000000000000000000000000000000000000000000000081526004016119f790612dcc565b60405180910390fd5b611a4b600360003373ffffffffffffffffffffffffffffffffffffffff1673ffffffffffffffffffffffffffffffffffffffff16815260200190815260200160002060000154610920565b565b60085481565b60008060009054906101000a900473ffffffffffffffffffffffffffffffffffffffff16905090565b60095481565b60055481565b600660009054906101000a900473ffffffffffffffffffffffffffffffffffffffff1673ffffffffffffffffffffffffffffffffffffffff163373ffffffffffffffffffffffffffffffffffffffff1614611b18576040517f08c379a0000000000000000000000000000000000000000000000000000000008152600401611b0f90612a25565b60405180910390fd5b6064811115611b5c576040517f08c379a0000000000000000000000000000000000000000000000000000000008152600401611b5390613314565b60405180910390fd5b80600a8190555050565b611b6e6113a7565b15611bae576040517f08c379a0000000000000000000000000000000000000000000000000000000008152600401611ba59061305b565b60405180910390fd5b611bb733612489565b15611bf7576040517f08c379a0000000000000000000000000000000000000000000000000000000008152600401611bee90612d60565b60405180910390fd5b3273ffffffffffffffffffffffffffffffffffffffff163373ffffffffffffffffffffffffffffffffffffffff1614611c65576040517f08c379a0000000000000000000000000000000000000000000000000000000008152600401611c5c90612dcc565b60405180910390fd5b60008111611ca8576040517f08c379a0000000000000000000000000000000000000000000000000000000008152600401611c9f90613380565b60405180910390fd5b6000611cb2611679565b9050600160009054906101000a900473ffffffffffffffffffffffffffffffffffffffff1673ffffffffffffffffffffffffffffffffffffffff166323b872dd3330856040518463ffffffff1660e01b8152600401611d13939291906133a0565b6020604051808303816000875af1158015611d32573d6000803e3d6000fd5b505050506040513d601f19601f82011682018060405250810190611d569190612f4d565b5060008060045414611d82578160045484611d719190612be0565b611d7b9190612c51565b9050611d86565b8290505b6000600360003373ffffffffffffffffffffffffffffffffffffffff1673ffffffffffffffffffffffffffffffffffffffff1681526020019081526020016000209050818160000154611dd99190612bac565b816000018190555042816001018190555081600454611df89190612bac565b600481905550600454611e09611679565b8260000154611e189190612be0565b611e229190612c51565b8160020181905550428160030181905550611e3b61253d565b3373ffffffffffffffffffffffffffffffffffffffff167f36af321ec8d3c75236829c5317affd40ddb308863a1236d2d277a4025cccee1e858442604051611e85939291906133d7565b60405180910390a250505050565b6000807f000000000000000000000000000000000000000000000000000000000000000073ffffffffffffffffffffffffffffffffffffffff1663bfafcad56000306040518363ffffffff1660e01b8152600401611ef2929190612b12565b602060405180830381865afa158015611f0f573d6000803e3d6000fd5b505050506040513d601f19601f82011682018060405250810190611f339190612b50565b9050611f3d6112de565b81611f489190612bac565b90508091505090565b6101f481565b606481565b7f000000000000000000000000000000000000000000000000000000000000000081565b600660009054906101000a900473ffffffffffffffffffffffffffffffffffffffff1673ffffffffffffffffffffffffffffffffffffffff163373ffffffffffffffffffffffffffffffffffffffff1614612010576040517f08c379a000000000000000000000000000000000000000000000000000000000815260040161200790612a25565b60405180910390fd5b600160009054906101000a900473ffffffffffffffffffffffffffffffffffffffff1673ffffffffffffffffffffffffffffffffffffffff168173ffffffffffffffffffffffffffffffffffffffff16036120a0576040517f08c379a000000000000000000000000000000000000000000000000000000000815260040161209790613480565b60405180910390fd5b600260009054906101000a900473ffffffffffffffffffffffffffffffffffffffff1673ffffffffffffffffffffffffffffffffffffffff168173ffffffffffffffffffffffffffffffffffffffff1603612130576040517f08c379a000000000000000000000000000000000000000000000000000000000815260040161212790613512565b60405180910390fd5b60008173ffffffffffffffffffffffffffffffffffffffff166370a08231306040518263ffffffff1660e01b815260040161216b9190612971565b602060405180830381865afa158015612188573d6000803e3d6000fd5b505050506040513d601f19601f820116820180604052508101906121ac9190612b50565b90508173ffffffffffffffffffffffffffffffffffffffff1663a9059cbb33836040518363ffffffff1660e01b81526004016121e9929190612ef8565b6020604051808303816000875af1158015612208573d6000803e3d6000fd5b505050506040513d601f19601f8201168201806040525081019061222c9190612f4d565b505050565b600b5481565b600a5481565b6122456125e1565b73ffffffffffffffffffffffffffffffffffffffff16612263611a53565b73ffffffffffffffffffffffffffffffffffffffff16146122b9576040517f08c379a00000000000000000000000000000000000000000000000000000000081526004016122b0906130e2565b60405180910390fd5b600073ffffffffffffffffffffffffffffffffffffffff168173ffffffffffffffffffffffffffffffffffffffff1603612328576040517f08c379a000000000000000000000000000000000000000000000000000000000815260040161231f9061314e565b60405180910390fd5b80600760006101000a81548173ffffffffffffffffffffffffffffffffffffffff021916908373ffffffffffffffffffffffffffffffffffffffff16021790555050565b6123746125e1565b73ffffffffffffffffffffffffffffffffffffffff16612392611a53565b73ffffffffffffffffffffffffffffffffffffffff16146123e8576040517f08c379a00000000000000000000000000000000000000000000000000000000081526004016123df906130e2565b60405180910390fd5b600073ffffffffffffffffffffffffffffffffffffffff168173ffffffffffffffffffffffffffffffffffffffff1603612457576040517f08c379a000000000000000000000000000000000000000000000000000000000815260040161244e906135a4565b60405180910390fd5b612460816125e9565b50565b600660009054906101000a900473ffffffffffffffffffffffffffffffffffffffff1681565b600080823b905060008111915050919050565b6124a46113a7565b6124e3576040517f08c379a00000000000000000000000000000000000000000000000000000000081526004016124da90612fef565b60405180910390fd5b60008060146101000a81548160ff0219169083151502179055507f5db9ee0a495bf2e6ff9c91a7834c1ba4fdd244a5e8aa4e537bd38aeae4b073aa6125266125e1565b6040516125339190612971565b60405180910390a1565b60006125476112de565b905060008111156125de577f000000000000000000000000000000000000000000000000000000000000000073ffffffffffffffffffffffffffffffffffffffff166341441d3b826040518263ffffffff1660e01b81526004016125ab9190612897565b600060405180830381600087803b1580156125c557600080fd5b505af11580156125d9573d6000803e3d6000fd5b505050505b50565b600033905090565b60008060009054906101000a900473ffffffffffffffffffffffffffffffffffffffff169050816000806101000a81548173ffffffffffffffffffffffffffffffffffffffff021916908373ffffffffffffffffffffffffffffffffffffffff1602179055508173ffffffffffffffffffffffffffffffffffffffff168173ffffffffffffffffffffffffffffffffffffffff167f8be0079c531659141344cd1fd0a4f28419497f9722a3daafe3b4186f6b6457e060405160405180910390a35050565b6126b56113a7565b156126f5576040517f08c379a00000000000000000000000000000000000000000000000000000000081526004016126ec9061305b565b60405180910390fd5b6001600060146101000a81548160ff0219169083151502179055507f62e78cea01bee320cd4e420270b5ea74000d11b0c9f74754ebdbfc544b05a2586127396125e1565b6040516127469190612971565b60405180910390a1565b600080fd5b600073ffffffffffffffffffffffffffffffffffffffff82169050919050565b600061278082612755565b9050919050565b61279081612775565b811461279b57600080fd5b50565b6000813590506127ad81612787565b92915050565b6000602082840312156127c9576127c8612750565b5b60006127d78482850161279e565b91505092915050565b6000819050919050565b6127f3816127e0565b82525050565b600060808201905061280e60008301876127ea565b61281b60208301866127ea565b61282860408301856127ea565b61283560608301846127ea565b95945050505050565b612847816127e0565b811461285257600080fd5b50565b6000813590506128648161283e565b92915050565b6000602082840312156128805761287f612750565b5b600061288e84828501612855565b91505092915050565b60006020820190506128ac60008301846127ea565b92915050565b6000819050919050565b60006128d76128d26128cd84612755565b6128b2565b612755565b9050919050565b60006128e9826128bc565b9050919050565b60006128fb826128de565b9050919050565b61290b816128f0565b82525050565b60006020820190506129266000830184612902565b92915050565b60008115159050919050565b6129418161292c565b82525050565b600060208201905061295c6000830184612938565b92915050565b61296b81612775565b82525050565b60006020820190506129866000830184612962565b92915050565b6000612997826128de565b9050919050565b6129a78161298c565b82525050565b60006020820190506129c2600083018461299e565b92915050565b600082825260208201905092915050565b7f61646d696e3a207775743f000000000000000000000000000000000000000000600082015250565b6000612a0f600b836129c8565b9150612a1a826129d9565b602082019050919050565b60006020820190508181036000830152612a3e81612a02565b9050919050565b7f7769746864726177466565506572696f642063616e6e6f74206265206d6f726560008201527f207468616e204d41585f57495448445241575f4645455f504552494f44000000602082015250565b6000612aa1603d836129c8565b9150612aac82612a45565b604082019050919050565b60006020820190508181036000830152612ad081612a94565b9050919050565b6000819050919050565b6000612afc612af7612af284612ad7565b6128b2565b6127e0565b9050919050565b612b0c81612ae1565b82525050565b6000604082019050612b276000830185612b03565b612b346020830184612962565b9392505050565b600081519050612b4a8161283e565b92915050565b600060208284031215612b6657612b65612750565b5b6000612b7484828501612b3b565b91505092915050565b7f4e487b7100000000000000000000000000000000000000000000000000000000600052601160045260246000fd5b6000612bb7826127e0565b9150612bc2836127e0565b9250828201905080821115612bda57612bd9612b7d565b5b92915050565b6000612beb826127e0565b9150612bf6836127e0565b9250828202612c04816127e0565b91508282048414831517612c1b57612c1a612b7d565b5b5092915050565b7f4e487b7100000000000000000000000000000000000000000000000000000000600052601260045260246000fd5b6000612c5c826127e0565b9150612c67836127e0565b925082612c7757612c76612c22565b5b828204905092915050565b7f63616c6c4665652063616e6e6f74206265206d6f7265207468616e204d41585f60008201527f43414c4c5f464545000000000000000000000000000000000000000000000000602082015250565b6000612cde6028836129c8565b9150612ce982612c82565b604082019050919050565b60006020820190508181036000830152612d0d81612cd1565b9050919050565b7f636f6e7472616374206e6f7420616c6c6f776564000000000000000000000000600082015250565b6000612d4a6014836129c8565b9150612d5582612d14565b602082019050919050565b60006020820190508181036000830152612d7981612d3d565b9050919050565b7f70726f787920636f6e7472616374206e6f7420616c6c6f776564000000000000600082015250565b6000612db6601a836129c8565b9150612dc182612d80565b602082019050919050565b60006020820190508181036000830152612de581612da9565b9050919050565b7f4e6f7468696e6720746f20776974686472617700000000000000000000000000600082015250565b6000612e226013836129c8565b9150612e2d82612dec565b602082019050919050565b60006020820190508181036000830152612e5181612e15565b9050919050565b7f576974686472617720616d6f756e7420657863656564732062616c616e636500600082015250565b6000612e8e601f836129c8565b9150612e9982612e58565b602082019050919050565b60006020820190508181036000830152612ebd81612e81565b9050919050565b6000612ecf826127e0565b9150612eda836127e0565b9250828203905081811115612ef257612ef1612b7d565b5b92915050565b6000604082019050612f0d6000830185612962565b612f1a60208301846127ea565b9392505050565b612f2a8161292c565b8114612f3557600080fd5b50565b600081519050612f4781612f21565b92915050565b600060208284031215612f6357612f62612750565b5b6000612f7184828501612f38565b91505092915050565b6000604082019050612f8f60008301856127ea565b612f9c60208301846127ea565b9392505050565b7f5061757361626c653a206e6f7420706175736564000000000000000000000000600082015250565b6000612fd96014836129c8565b9150612fe482612fa3565b602082019050919050565b6000602082019050818103600083015261300881612fcc565b9050919050565b7f5061757361626c653a2070617573656400000000000000000000000000000000600082015250565b60006130456010836129c8565b91506130508261300f565b602082019050919050565b6000602082019050818103600083015261307481613038565b9050919050565b60006020820190506130906000830184612b03565b92915050565b7f4f776e61626c653a2063616c6c6572206973206e6f7420746865206f776e6572600082015250565b60006130cc6020836129c8565b91506130d782613096565b602082019050919050565b600060208201905081810360008301526130fb816130bf565b9050919050565b7f43616e6e6f74206265207a65726f206164647265737300000000000000000000600082015250565b60006131386016836129c8565b915061314382613102565b602082019050919050565b600060208201905081810360008301526131678161312b565b9050919050565b7f706572666f726d616e63654665652063616e6e6f74206265206d6f726520746860008201527f616e204d41585f504552464f524d414e43455f46454500000000000000000000602082015250565b60006131ca6036836129c8565b91506131d58261316e565b604082019050919050565b600060208201905081810360008301526131f9816131bd565b9050919050565b600080600080600080600060e0888a03121561321f5761321e612750565b5b600061322d8a828b01612b3b565b975050602061323e8a828b01612b3b565b965050604061324f8a828b01612b3b565b95505060606132608a828b01612b3b565b94505060806132718a828b01612b3b565b93505060a06132828a828b01612b3b565b92505060c06132938a828b01612b3b565b91505092959891949750929550565b7f77697468647261774665652063616e6e6f74206265206d6f7265207468616e2060008201527f4d41585f57495448445241575f46454500000000000000000000000000000000602082015250565b60006132fe6030836129c8565b9150613309826132a2565b604082019050919050565b6000602082019050818103600083015261332d816132f1565b9050919050565b7f6e6f7468696e6720746f206465706f7369740000000000000000000000000000600082015250565b600061336a6012836129c8565b915061337582613334565b602082019050919050565b600060208201905081810360008301526133998161335d565b9050919050565b60006060820190506133b56000830186612962565b6133c26020830185612962565b6133cf60408301846127ea565b949350505050565b60006060820190506133ec60008301866127ea565b6133f960208301856127ea565b61340660408301846127ea565b949350505050565b7f546f6b656e2063616e6e6f742062652073616d65206173206465706f7369742060008201527f746f6b656e000000000000000000000000000000000000000000000000000000602082015250565b600061346a6025836129c8565b91506134758261340e565b604082019050919050565b600060208201905081810360008301526134998161345d565b9050919050565b7f546f6b656e2063616e6e6f742062652073616d6520617320726563656970742060008201527f746f6b656e000000000000000000000000000000000000000000000000000000602082015250565b60006134fc6025836129c8565b9150613507826134a0565b604082019050919050565b6000602082019050818103600083015261352b816134ef565b9050919050565b7f4f776e61626c653a206e6577206f776e657220697320746865207a65726f206160008201527f6464726573730000000000000000000000000000000000000000000000000000602082015250565b600061358e6026836129c8565b915061359982613532565b604082019050919050565b600060208201905081810360008301526135bd81613581565b905091905056fea26469706673582212209ba9bc987752b248600354be7046ec9bd7933a9b57c475bb7f08c1b3ca6c9c3964736f6c63430008110033",
  "immutableReferences": {
    "41340": [
      {
        "length": 32,
        "start": 1885
      },
      {
        "length": 32,
        "start": 2842
      },
      {
        "length": 32,
        "start": 4162
      },
      {
        "length": 32,
        "start": 5758
      },
      {
        "length": 32,
        "start": 7832
      },
      {
        "length": 32,
        "start": 8030
      },
      {
        "length": 32,
        "start": 9556
      }
    ]
  },
  "source": "// SPDX-License-Identifier: MIT\n\n/**\n    vault that stakes your soul (as a single entity) & distributes the rewards accordingly to \n    the user's share of the total stake, calculated with the same logic as soul summoner.\n\n    the user needs to approve the contract address with soul `allowance()` in order to deposit.\n */\n\npragma solidity >=0.8.0;\n\nimport '@openzeppelin/contracts/access/Ownable.sol';\nimport '../libraries/ERC20.sol';\nimport '@openzeppelin/contracts/utils/Address.sol';\nimport '@openzeppelin/contracts/security/Pausable.sol';\nimport '../interfaces/ISummoner.sol';\n\ncontract SoulVault is Ownable, Pausable {\n\n    struct UserInfo {\n        uint shares; // number of shares for a user\n        uint lastDepositedTime; // keeps track of deposited time for potential penalty\n        uint soulAtLastUserAction; // keeps track of soul deposited at the last user action\n        uint lastUserActionTime; // keeps track of the last user action time\n    }\n\n    IERC20 public soul; // soul power\n    IERC20 public seance; // seance circle\n    ISummoner public immutable summoner;\n    mapping(address => UserInfo) public userInfo;\n\n    uint public totalShares;\n    uint public lastHarvestedTime;\n    address public admin = msg.sender;\n    address public treasury = msg.sender;\n\n    uint public constant MAX_PERFORMANCE_FEE = 500; // 5%\n    uint public constant MAX_CALL_FEE = 100; // 1%\n    uint public constant MAX_WITHDRAW_FEE = 100; // 1%\n    uint public constant MAX_WITHDRAW_FEE_PERIOD = 72 hours; // 3 days\n\n    uint public performanceFee = 200; // 2%\n    uint public callFee = 25; // 0.25%\n    uint public withdrawFee = 10; // 0.1%\n    uint public withdrawFeePeriod = 72 hours; // 3 days\n\n    event Deposit(address indexed sender, uint amount, uint shares, uint lastDepositedTime);\n    event Withdraw(address indexed sender, uint amount, uint shares);\n    event Harvest(address indexed sender, uint performanceFee, uint callFee);\n   \n    event Pause();\n    event Unpause();\n\n    constructor(IERC20 _soul, IERC20 _seance, ISummoner _summoner) {\n        soul = _soul;\n        seance = _seance;\n        summoner = _summoner;\n\n        // infinite approve\n        soul.approve(address(_summoner), type(uint).max);\n    }\n\n    // checks if the msg.sender is the admin address\n    modifier onlyAdmin() {\n        require(msg.sender == admin, \"admin: wut?\");\n        _;\n    }\n\n    // checks if the msg.sender is a contract or a proxy\n    modifier notContract() {\n        require(!_isContract(msg.sender), \"contract not allowed\");\n        require(msg.sender == tx.origin, \"proxy contract not allowed\");\n        _;\n    }\n\n    // deposits: into soul vaul (unpaused, blocks contracts)\n    function deposit(uint _amount) external whenNotPaused notContract {\n        require(_amount > 0, \"nothing to deposit\");\n\n        uint pool = balanceOf();\n        soul.transferFrom(msg.sender, address(this), _amount);\n        uint currentShares = 0;\n        if (totalShares != 0) {\n            currentShares = (_amount * totalShares) / pool;\n        } else {\n            currentShares = _amount;\n        }\n        UserInfo storage user = userInfo[msg.sender];\n\n        user.shares = user.shares + currentShares;\n        user.lastDepositedTime = block.timestamp;\n\n        totalShares = totalShares + currentShares;\n\n        user.soulAtLastUserAction = (user.shares * balanceOf()) / totalShares;\n        user.lastUserActionTime = block.timestamp;\n\n        _earn();\n\n        emit Deposit(msg.sender, _amount, currentShares, block.timestamp);\n    }\n\n    // withdraws: all claimable funds for the caller (blocks contracts)\n    function withdrawAll() external notContract {\n        withdraw(userInfo[msg.sender].shares);\n    }\n\n    // reinvests: soul power into soul summoner (whenNotPaused)\n    function harvest() external notContract whenNotPaused {\n        ISummoner(summoner).leaveStaking(0);\n\n        uint bal = available();\n        uint currentPerformanceFee = (bal * performanceFee) / 10000;\n        soul.transfer(treasury, currentPerformanceFee);\n\n        uint currentCallFee = (bal * callFee) / 10000;\n        soul.transfer(msg.sender, currentCallFee);\n\n        _earn();\n\n        lastHarvestedTime = block.timestamp;\n\n        emit Harvest(msg.sender, currentPerformanceFee, currentCallFee);\n    }\n\n    // sets: admin address (owner)\n    function setAdmin(address _admin) external onlyOwner {\n        require(_admin != address(0), \"Cannot be zero address\");\n        admin = _admin;\n    }\n\n    // sets: treasury address (owner)\n    function setTreasury(address _treasury) external onlyOwner {\n        require(_treasury != address(0), \"Cannot be zero address\");\n        treasury = _treasury;\n    }\n\n    // sets: performance fee (admin)\n    function setPerformanceFee(uint _performanceFee) external onlyAdmin {\n        require(_performanceFee <= MAX_PERFORMANCE_FEE, \"performanceFee cannot be more than MAX_PERFORMANCE_FEE\");\n        performanceFee = _performanceFee;\n    }\n\n    // sets: call fee (admin)\n    function setCallFee(uint _callFee) external onlyAdmin {\n        require(_callFee <= MAX_CALL_FEE, \"callFee cannot be more than MAX_CALL_FEE\");\n        callFee = _callFee;\n    }\n\n    // sets: withdraw fee (admin)\n    function setWithdrawFee(uint _withdrawFee) external onlyAdmin {\n        require(_withdrawFee <= MAX_WITHDRAW_FEE, \"withdrawFee cannot be more than MAX_WITHDRAW_FEE\");\n        withdrawFee = _withdrawFee;\n    }\n\n    // sets: withdraw fee period (admin)\n    function setWithdrawFeePeriod(uint _withdrawFeePeriod) external onlyAdmin {\n        require(\n            _withdrawFeePeriod <= MAX_WITHDRAW_FEE_PERIOD,\n            \"withdrawFeePeriod cannot be more than MAX_WITHDRAW_FEE_PERIOD\"\n        );\n        withdrawFeePeriod = _withdrawFeePeriod;\n    }\n\n    // withdraws: unexpected tokens sent to the soul vault\n    function inCaseTokensGetStuck(address _token) external onlyAdmin {\n        require(_token != address(soul), \"Token cannot be same as deposit token\");\n        require(_token != address(seance), \"Token cannot be same as receipt token\");\n\n        uint amount = IERC20(_token).balanceOf(address(this));\n        IERC20(_token).transfer(msg.sender, amount);\n    }\n\n    // triggers: stopped state\n    function pause() external onlyAdmin whenNotPaused {\n        _pause();\n        emit Pause();\n    }\n\n    // returns: to normal state (when paused)\n    function unpause() external onlyAdmin whenPaused {\n        _unpause();\n        emit Unpause();\n    }\n\n    // calculates: expected soul harvest reward from third party (view)\n    function calculateHarvestSoulRewards() external view returns (uint) {\n        uint amount = ISummoner(summoner).pendingSoul(0, address(this));\n        amount = amount + available();\n        uint currentCallFee = (amount * callFee) / 10000;\n\n        return currentCallFee;\n    }\n\n    // calcuates: the ttl pending rewards that may be restaked (view)\n    function calculateTotalPendingSoulRewards() external view returns (uint) {\n        uint amount = ISummoner(summoner).pendingSoul(0, address(this));\n        amount = amount + available();\n\n        return amount;\n    }\n\n    // calculates: the price per share (view)\n    function getPricePerFullShare() external view returns (uint) {\n        return totalShares == 0 ? 1e18 : (balanceOf() * 1e18) / totalShares;\n    }\n\n    // withdraws: from funds from the soul vault (not contract)\n    function withdraw(uint _shares) public notContract {\n        UserInfo storage user = userInfo[msg.sender];\n        require(_shares > 0, \"Nothing to withdraw\");\n        require(_shares <= user.shares, \"Withdraw amount exceeds balance\");\n\n        uint currentAmount = (balanceOf() * _shares) / totalShares;\n        user.shares = user.shares - _shares;\n        totalShares = totalShares - _shares;\n\n        uint bal = available();\n        if (bal < currentAmount) {\n            uint balWithdraw = currentAmount - bal;\n            ISummoner(summoner).leaveStaking(balWithdraw);\n            uint balAfter = available();\n            uint diff = balAfter - bal;\n            if (diff < balWithdraw) {\n                currentAmount = bal + diff;\n            }\n        }\n\n        if (block.timestamp < user.lastDepositedTime + withdrawFeePeriod) {\n            uint currentWithdrawFee = (currentAmount * withdrawFee) / 10000;\n            soul.transfer(treasury, currentWithdrawFee);\n            currentAmount = currentAmount - currentWithdrawFee;\n        }\n\n        if (user.shares > 0) {\n            user.soulAtLastUserAction = (user.shares * balanceOf()) / totalShares;\n        } else { user.soulAtLastUserAction = 0; }\n\n        user.lastUserActionTime = block.timestamp;\n        soul.transfer(msg.sender, currentAmount);\n\n        emit Withdraw(msg.sender, currentAmount, _shares);\n    }\n\n    // returns: ttl soul deposited by users (view)\n    function available() public view returns (uint) {\n        return soul.balanceOf(address(this));\n    }\n\n    // returns: total underlying soul | vault + soul summoner (view)\n    function balanceOf() public view returns (uint) {\n        (uint amount, , , , , ,) = ISummoner(summoner).userInfo(0, address(this));\n        return soul.balanceOf(address(this)) + amount;\n    }\n\n    // deposits: into summoner to earn rewards\n    function _earn() internal {\n        uint bal = available();\n        if (bal > 0) { ISummoner(summoner).enterStaking(bal); }\n    }\n\n    // returns: whether sender is contract to prevent targeted attacks (internal view)\n    function _isContract(address addr) internal view returns (bool) {\n        uint size;\n        assembly { size := extcodesize(addr) }\n        return size > 0;\n    }\n}\n",
  "sourcePath": "/Users/buns/Documents/GitHub/SoulSwapFinance/soulswap-farms/contracts/rewards/SoulVault.sol",
  "compiler": {
    "name": "solc",
    "version": "0.8.17+commit.8df45f5f.Emscripten.clang"
  },
  "schemaVersion": "3.4.1",
  "updatedAt": "2022-10-01T21:51:30.570Z",
  "devdoc": {
    "kind": "dev",
    "methods": {
      "owner()": {
        "details": "Returns the address of the current owner."
      },
      "paused()": {
        "details": "Returns true if the contract is paused, and false otherwise."
      },
      "renounceOwnership()": {
        "details": "Leaves the contract without owner. It will not be possible to call `onlyOwner` functions anymore. Can only be called by the current owner. NOTE: Renouncing ownership will leave the contract without an owner, thereby removing any functionality that is only available to the owner."
      },
      "transferOwnership(address)": {
        "details": "Transfers ownership of the contract to a new account (`newOwner`). Can only be called by the current owner."
      }
    },
    "version": 1
  },
  "userdoc": {
    "kind": "user",
    "methods": {},
    "version": 1
  }
}