{
  "contractName": "SoulSummonerFantom",
  "abi": [
    {
      "inputs": [],
      "stateMutability": "nonpayable",
      "type": "constructor"
    },
    {
      "anonymous": false,
      "inputs": [
        {
          "indexed": false,
          "internalType": "address",
          "name": "dao",
          "type": "address"
        },
        {
          "indexed": false,
          "internalType": "address",
          "name": "team",
          "type": "address"
        },
        {
          "indexed": false,
          "internalType": "address",
          "name": "admin",
          "type": "address"
        }
      ],
      "name": "AccountsUpdated",
      "type": "event"
    },
    {
      "anonymous": false,
      "inputs": [
        {
          "indexed": true,
          "internalType": "address",
          "name": "user",
          "type": "address"
        },
        {
          "indexed": true,
          "internalType": "uint256",
          "name": "pid",
          "type": "uint256"
        },
        {
          "indexed": false,
          "internalType": "uint256",
          "name": "amount",
          "type": "uint256"
        }
      ],
      "name": "Deposit",
      "type": "event"
    },
    {
      "anonymous": false,
      "inputs": [
        {
          "indexed": false,
          "internalType": "uint256",
          "name": "_pid",
          "type": "uint256"
        },
        {
          "indexed": false,
          "internalType": "address",
          "name": "_user",
          "type": "address"
        },
        {
          "indexed": false,
          "internalType": "uint256",
          "name": "_time",
          "type": "uint256"
        }
      ],
      "name": "DepositRevised",
      "type": "event"
    },
    {
      "anonymous": false,
      "inputs": [
        {
          "indexed": false,
          "internalType": "address",
          "name": "team",
          "type": "address"
        },
        {
          "indexed": false,
          "internalType": "address",
          "name": "dao",
          "type": "address"
        },
        {
          "indexed": false,
          "internalType": "address",
          "name": "soul",
          "type": "address"
        },
        {
          "indexed": false,
          "internalType": "address",
          "name": "seance",
          "type": "address"
        },
        {
          "indexed": false,
          "internalType": "uint256",
          "name": "totalAllocPoint",
          "type": "uint256"
        },
        {
          "indexed": false,
          "internalType": "uint256",
          "name": "weight",
          "type": "uint256"
        }
      ],
      "name": "Initialized",
      "type": "event"
    },
    {
      "anonymous": false,
      "inputs": [
        {
          "indexed": false,
          "internalType": "address",
          "name": "account",
          "type": "address"
        }
      ],
      "name": "Paused",
      "type": "event"
    },
    {
      "anonymous": false,
      "inputs": [
        {
          "indexed": false,
          "internalType": "uint256",
          "name": "pid",
          "type": "uint256"
        },
        {
          "indexed": false,
          "internalType": "uint256",
          "name": "allocPoint",
          "type": "uint256"
        },
        {
          "indexed": false,
          "internalType": "contract IERC20",
          "name": "lpToken",
          "type": "address"
        },
        {
          "indexed": false,
          "internalType": "uint256",
          "name": "totalAllocPoint",
          "type": "uint256"
        }
      ],
      "name": "PoolAdded",
      "type": "event"
    },
    {
      "anonymous": false,
      "inputs": [
        {
          "indexed": false,
          "internalType": "uint256",
          "name": "pid",
          "type": "uint256"
        },
        {
          "indexed": false,
          "internalType": "uint256",
          "name": "allocPoint",
          "type": "uint256"
        }
      ],
      "name": "PoolSet",
      "type": "event"
    },
    {
      "anonymous": false,
      "inputs": [
        {
          "indexed": false,
          "internalType": "uint256",
          "name": "dailySoul",
          "type": "uint256"
        },
        {
          "indexed": false,
          "internalType": "uint256",
          "name": "soulPerSecond",
          "type": "uint256"
        }
      ],
      "name": "RewardsUpdated",
      "type": "event"
    },
    {
      "anonymous": false,
      "inputs": [
        {
          "indexed": true,
          "internalType": "bytes32",
          "name": "role",
          "type": "bytes32"
        },
        {
          "indexed": true,
          "internalType": "bytes32",
          "name": "previousAdminRole",
          "type": "bytes32"
        },
        {
          "indexed": true,
          "internalType": "bytes32",
          "name": "newAdminRole",
          "type": "bytes32"
        }
      ],
      "name": "RoleAdminChanged",
      "type": "event"
    },
    {
      "anonymous": false,
      "inputs": [
        {
          "indexed": false,
          "internalType": "bytes32",
          "name": "role",
          "type": "bytes32"
        },
        {
          "indexed": false,
          "internalType": "bytes32",
          "name": "supreme",
          "type": "bytes32"
        }
      ],
      "name": "RoleDivinated",
      "type": "event"
    },
    {
      "anonymous": false,
      "inputs": [
        {
          "indexed": true,
          "internalType": "bytes32",
          "name": "role",
          "type": "bytes32"
        },
        {
          "indexed": true,
          "internalType": "address",
          "name": "account",
          "type": "address"
        },
        {
          "indexed": true,
          "internalType": "address",
          "name": "sender",
          "type": "address"
        }
      ],
      "name": "RoleGranted",
      "type": "event"
    },
    {
      "anonymous": false,
      "inputs": [
        {
          "indexed": true,
          "internalType": "bytes32",
          "name": "role",
          "type": "bytes32"
        },
        {
          "indexed": true,
          "internalType": "address",
          "name": "account",
          "type": "address"
        },
        {
          "indexed": true,
          "internalType": "address",
          "name": "sender",
          "type": "address"
        }
      ],
      "name": "RoleRevoked",
      "type": "event"
    },
    {
      "anonymous": false,
      "inputs": [
        {
          "indexed": false,
          "internalType": "uint256",
          "name": "startRate",
          "type": "uint256"
        }
      ],
      "name": "StartRateUpdated",
      "type": "event"
    },
    {
      "anonymous": false,
      "inputs": [
        {
          "indexed": false,
          "internalType": "address",
          "name": "soul",
          "type": "address"
        },
        {
          "indexed": false,
          "internalType": "address",
          "name": "seance",
          "type": "address"
        }
      ],
      "name": "TokensUpdated",
      "type": "event"
    },
    {
      "anonymous": false,
      "inputs": [
        {
          "indexed": false,
          "internalType": "address",
          "name": "account",
          "type": "address"
        }
      ],
      "name": "Unpaused",
      "type": "event"
    },
    {
      "anonymous": false,
      "inputs": [
        {
          "indexed": false,
          "internalType": "uint256",
          "name": "weight",
          "type": "uint256"
        },
        {
          "indexed": false,
          "internalType": "uint256",
          "name": "totalWeight",
          "type": "uint256"
        }
      ],
      "name": "WeightUpdated",
      "type": "event"
    },
    {
      "anonymous": false,
      "inputs": [
        {
          "indexed": true,
          "internalType": "address",
          "name": "user",
          "type": "address"
        },
        {
          "indexed": true,
          "internalType": "uint256",
          "name": "pid",
          "type": "uint256"
        },
        {
          "indexed": false,
          "internalType": "uint256",
          "name": "amount",
          "type": "uint256"
        },
        {
          "indexed": false,
          "internalType": "uint256",
          "name": "timeStamp",
          "type": "uint256"
        }
      ],
      "name": "Withdraw",
      "type": "event"
    },
    {
      "inputs": [],
      "name": "DEFAULT_ADMIN_ROLE",
      "outputs": [
        {
          "internalType": "bytes32",
          "name": "",
          "type": "bytes32"
        }
      ],
      "stateMutability": "view",
      "type": "function"
    },
    {
      "inputs": [],
      "name": "bonusMultiplier",
      "outputs": [
        {
          "internalType": "uint256",
          "name": "",
          "type": "uint256"
        }
      ],
      "stateMutability": "view",
      "type": "function"
    },
    {
      "inputs": [],
      "name": "dailyDecay",
      "outputs": [
        {
          "internalType": "uint256",
          "name": "",
          "type": "uint256"
        }
      ],
      "stateMutability": "view",
      "type": "function"
    },
    {
      "inputs": [],
      "name": "dailySoul",
      "outputs": [
        {
          "internalType": "uint256",
          "name": "",
          "type": "uint256"
        }
      ],
      "stateMutability": "view",
      "type": "function"
    },
    {
      "inputs": [],
      "name": "dao",
      "outputs": [
        {
          "internalType": "address",
          "name": "",
          "type": "address"
        }
      ],
      "stateMutability": "view",
      "type": "function"
    },
    {
      "inputs": [
        {
          "internalType": "bytes32",
          "name": "role",
          "type": "bytes32"
        }
      ],
      "name": "getRoleAdmin",
      "outputs": [
        {
          "internalType": "bytes32",
          "name": "",
          "type": "bytes32"
        }
      ],
      "stateMutability": "view",
      "type": "function"
    },
    {
      "inputs": [
        {
          "internalType": "bytes32",
          "name": "role",
          "type": "bytes32"
        },
        {
          "internalType": "address",
          "name": "account",
          "type": "address"
        }
      ],
      "name": "grantRole",
      "outputs": [],
      "stateMutability": "nonpayable",
      "type": "function"
    },
    {
      "inputs": [
        {
          "internalType": "bytes32",
          "name": "role",
          "type": "bytes32"
        },
        {
          "internalType": "address",
          "name": "account",
          "type": "address"
        }
      ],
      "name": "hasRole",
      "outputs": [
        {
          "internalType": "bool",
          "name": "",
          "type": "bool"
        }
      ],
      "stateMutability": "view",
      "type": "function"
    },
    {
      "inputs": [],
      "name": "isInitialized",
      "outputs": [
        {
          "internalType": "bool",
          "name": "",
          "type": "bool"
        }
      ],
      "stateMutability": "view",
      "type": "function"
    },
    {
      "inputs": [],
      "name": "isis",
      "outputs": [
        {
          "internalType": "bytes32",
          "name": "",
          "type": "bytes32"
        }
      ],
      "stateMutability": "view",
      "type": "function"
    },
    {
      "inputs": [],
      "name": "maat",
      "outputs": [
        {
          "internalType": "bytes32",
          "name": "",
          "type": "bytes32"
        }
      ],
      "stateMutability": "view",
      "type": "function"
    },
    {
      "inputs": [],
      "name": "migrator",
      "outputs": [
        {
          "internalType": "contract IMigrator",
          "name": "",
          "type": "address"
        }
      ],
      "stateMutability": "view",
      "type": "function"
    },
    {
      "inputs": [],
      "name": "paused",
      "outputs": [
        {
          "internalType": "bool",
          "name": "",
          "type": "bool"
        }
      ],
      "stateMutability": "view",
      "type": "function"
    },
    {
      "inputs": [
        {
          "internalType": "uint256",
          "name": "",
          "type": "uint256"
        }
      ],
      "name": "poolInfo",
      "outputs": [
        {
          "internalType": "contract IERC20",
          "name": "lpToken",
          "type": "address"
        },
        {
          "internalType": "uint256",
          "name": "allocPoint",
          "type": "uint256"
        },
        {
          "internalType": "uint256",
          "name": "lastRewardTime",
          "type": "uint256"
        },
        {
          "internalType": "uint256",
          "name": "accSoulPerShare",
          "type": "uint256"
        }
      ],
      "stateMutability": "view",
      "type": "function"
    },
    {
      "inputs": [
        {
          "internalType": "bytes32",
          "name": "role",
          "type": "bytes32"
        },
        {
          "internalType": "address",
          "name": "account",
          "type": "address"
        }
      ],
      "name": "renounceRole",
      "outputs": [],
      "stateMutability": "nonpayable",
      "type": "function"
    },
    {
      "inputs": [
        {
          "internalType": "bytes32",
          "name": "role",
          "type": "bytes32"
        },
        {
          "internalType": "address",
          "name": "account",
          "type": "address"
        }
      ],
      "name": "revokeRole",
      "outputs": [],
      "stateMutability": "nonpayable",
      "type": "function"
    },
    {
      "inputs": [],
      "name": "seance",
      "outputs": [
        {
          "internalType": "contract SeanceCircle",
          "name": "",
          "type": "address"
        }
      ],
      "stateMutability": "view",
      "type": "function"
    },
    {
      "inputs": [],
      "name": "soul",
      "outputs": [
        {
          "internalType": "contract SoulPower",
          "name": "",
          "type": "address"
        }
      ],
      "stateMutability": "view",
      "type": "function"
    },
    {
      "inputs": [],
      "name": "soulPerSecond",
      "outputs": [
        {
          "internalType": "uint256",
          "name": "",
          "type": "uint256"
        }
      ],
      "stateMutability": "view",
      "type": "function"
    },
    {
      "inputs": [],
      "name": "startRate",
      "outputs": [
        {
          "internalType": "uint256",
          "name": "",
          "type": "uint256"
        }
      ],
      "stateMutability": "view",
      "type": "function"
    },
    {
      "inputs": [],
      "name": "startTime",
      "outputs": [
        {
          "internalType": "uint256",
          "name": "",
          "type": "uint256"
        }
      ],
      "stateMutability": "view",
      "type": "function"
    },
    {
      "inputs": [
        {
          "internalType": "bytes4",
          "name": "interfaceId",
          "type": "bytes4"
        }
      ],
      "name": "supportsInterface",
      "outputs": [
        {
          "internalType": "bool",
          "name": "",
          "type": "bool"
        }
      ],
      "stateMutability": "view",
      "type": "function"
    },
    {
      "inputs": [],
      "name": "supreme",
      "outputs": [
        {
          "internalType": "address",
          "name": "",
          "type": "address"
        }
      ],
      "stateMutability": "view",
      "type": "function"
    },
    {
      "inputs": [],
      "name": "team",
      "outputs": [
        {
          "internalType": "address",
          "name": "",
          "type": "address"
        }
      ],
      "stateMutability": "view",
      "type": "function"
    },
    {
      "inputs": [],
      "name": "totalAllocPoint",
      "outputs": [
        {
          "internalType": "uint256",
          "name": "",
          "type": "uint256"
        }
      ],
      "stateMutability": "view",
      "type": "function"
    },
    {
      "inputs": [],
      "name": "totalWeight",
      "outputs": [
        {
          "internalType": "uint256",
          "name": "",
          "type": "uint256"
        }
      ],
      "stateMutability": "view",
      "type": "function"
    },
    {
      "inputs": [
        {
          "internalType": "uint256",
          "name": "",
          "type": "uint256"
        },
        {
          "internalType": "address",
          "name": "",
          "type": "address"
        }
      ],
      "name": "userInfo",
      "outputs": [
        {
          "internalType": "uint256",
          "name": "amount",
          "type": "uint256"
        },
        {
          "internalType": "uint256",
          "name": "rewardDebt",
          "type": "uint256"
        },
        {
          "internalType": "uint256",
          "name": "rewardDebtAtTime",
          "type": "uint256"
        },
        {
          "internalType": "uint256",
          "name": "lastWithdrawTime",
          "type": "uint256"
        },
        {
          "internalType": "uint256",
          "name": "firstDepositTime",
          "type": "uint256"
        },
        {
          "internalType": "uint256",
          "name": "timeDelta",
          "type": "uint256"
        },
        {
          "internalType": "uint256",
          "name": "lastDepositTime",
          "type": "uint256"
        }
      ],
      "stateMutability": "view",
      "type": "function"
    },
    {
      "inputs": [],
      "name": "weight",
      "outputs": [
        {
          "internalType": "uint256",
          "name": "",
          "type": "uint256"
        }
      ],
      "stateMutability": "view",
      "type": "function"
    },
    {
      "inputs": [],
      "name": "initialize",
      "outputs": [],
      "stateMutability": "nonpayable",
      "type": "function"
    },
    {
      "inputs": [],
      "name": "poolLength",
      "outputs": [
        {
          "internalType": "uint256",
          "name": "",
          "type": "uint256"
        }
      ],
      "stateMutability": "view",
      "type": "function"
    },
    {
      "inputs": [
        {
          "internalType": "uint256",
          "name": "_allocPoint",
          "type": "uint256"
        },
        {
          "internalType": "contract IERC20",
          "name": "_lpToken",
          "type": "address"
        },
        {
          "internalType": "bool",
          "name": "_withUpdate",
          "type": "bool"
        }
      ],
      "name": "addPool",
      "outputs": [],
      "stateMutability": "nonpayable",
      "type": "function"
    },
    {
      "inputs": [
        {
          "internalType": "uint256",
          "name": "pid",
          "type": "uint256"
        },
        {
          "internalType": "uint256",
          "name": "allocPoint",
          "type": "uint256"
        },
        {
          "internalType": "bool",
          "name": "withUpdate",
          "type": "bool"
        }
      ],
      "name": "set",
      "outputs": [],
      "stateMutability": "nonpayable",
      "type": "function"
    },
    {
      "inputs": [
        {
          "internalType": "contract IMigrator",
          "name": "_migrator",
          "type": "address"
        }
      ],
      "name": "setMigrator",
      "outputs": [],
      "stateMutability": "nonpayable",
      "type": "function"
    },
    {
      "inputs": [
        {
          "internalType": "uint256",
          "name": "_pid",
          "type": "uint256"
        },
        {
          "internalType": "address",
          "name": "_user",
          "type": "address"
        }
      ],
      "name": "userDelta",
      "outputs": [
        {
          "internalType": "uint256",
          "name": "delta",
          "type": "uint256"
        }
      ],
      "stateMutability": "view",
      "type": "function"
    },
    {
      "inputs": [
        {
          "internalType": "uint256",
          "name": "pid",
          "type": "uint256"
        }
      ],
      "name": "migrate",
      "outputs": [],
      "stateMutability": "nonpayable",
      "type": "function"
    },
    {
      "inputs": [
        {
          "internalType": "uint256",
          "name": "from",
          "type": "uint256"
        },
        {
          "internalType": "uint256",
          "name": "to",
          "type": "uint256"
        }
      ],
      "name": "getMultiplier",
      "outputs": [
        {
          "internalType": "uint256",
          "name": "",
          "type": "uint256"
        }
      ],
      "stateMutability": "view",
      "type": "function"
    },
    {
      "inputs": [
        {
          "internalType": "uint256",
          "name": "pid",
          "type": "uint256"
        },
        {
          "internalType": "uint256",
          "name": "timeDelta",
          "type": "uint256"
        }
      ],
      "name": "getFeeRate",
      "outputs": [
        {
          "internalType": "uint256",
          "name": "feeRate",
          "type": "uint256"
        }
      ],
      "stateMutability": "view",
      "type": "function"
    },
    {
      "inputs": [
        {
          "internalType": "uint256",
          "name": "pid",
          "type": "uint256"
        },
        {
          "internalType": "uint256",
          "name": "timeDelta",
          "type": "uint256"
        },
        {
          "internalType": "uint256",
          "name": "amount",
          "type": "uint256"
        }
      ],
      "name": "getWithdrawable",
      "outputs": [
        {
          "internalType": "uint256",
          "name": "_feeAmount",
          "type": "uint256"
        },
        {
          "internalType": "uint256",
          "name": "_withdrawable",
          "type": "uint256"
        }
      ],
      "stateMutability": "view",
      "type": "function"
    },
    {
      "inputs": [
        {
          "internalType": "uint256",
          "name": "pid",
          "type": "uint256"
        },
        {
          "internalType": "address",
          "name": "_user",
          "type": "address"
        }
      ],
      "name": "pendingSoul",
      "outputs": [
        {
          "internalType": "uint256",
          "name": "pendingAmount",
          "type": "uint256"
        }
      ],
      "stateMutability": "view",
      "type": "function"
    },
    {
      "inputs": [],
      "name": "massUpdatePools",
      "outputs": [],
      "stateMutability": "nonpayable",
      "type": "function"
    },
    {
      "inputs": [
        {
          "internalType": "uint256",
          "name": "pid",
          "type": "uint256"
        }
      ],
      "name": "updatePool",
      "outputs": [],
      "stateMutability": "nonpayable",
      "type": "function"
    },
    {
      "inputs": [
        {
          "internalType": "uint256",
          "name": "pid",
          "type": "uint256"
        },
        {
          "internalType": "uint256",
          "name": "amount",
          "type": "uint256"
        }
      ],
      "name": "deposit",
      "outputs": [],
      "stateMutability": "nonpayable",
      "type": "function"
    },
    {
      "inputs": [
        {
          "internalType": "uint256",
          "name": "pid",
          "type": "uint256"
        },
        {
          "internalType": "uint256",
          "name": "amount",
          "type": "uint256"
        }
      ],
      "name": "withdraw",
      "outputs": [],
      "stateMutability": "nonpayable",
      "type": "function"
    },
    {
      "inputs": [
        {
          "internalType": "uint256",
          "name": "amount",
          "type": "uint256"
        }
      ],
      "name": "enterStaking",
      "outputs": [],
      "stateMutability": "nonpayable",
      "type": "function"
    },
    {
      "inputs": [
        {
          "internalType": "uint256",
          "name": "amount",
          "type": "uint256"
        }
      ],
      "name": "leaveStaking",
      "outputs": [],
      "stateMutability": "nonpayable",
      "type": "function"
    },
    {
      "inputs": [
        {
          "internalType": "uint256",
          "name": "_weight",
          "type": "uint256"
        },
        {
          "internalType": "uint256",
          "name": "_totalWeight",
          "type": "uint256"
        }
      ],
      "name": "updateWeights",
      "outputs": [],
      "stateMutability": "nonpayable",
      "type": "function"
    },
    {
      "inputs": [
        {
          "internalType": "uint256",
          "name": "_bonusMultiplier",
          "type": "uint256"
        }
      ],
      "name": "updateMultiplier",
      "outputs": [],
      "stateMutability": "nonpayable",
      "type": "function"
    },
    {
      "inputs": [
        {
          "internalType": "uint256",
          "name": "_startRate",
          "type": "uint256"
        }
      ],
      "name": "updateStartRate",
      "outputs": [],
      "stateMutability": "nonpayable",
      "type": "function"
    },
    {
      "inputs": [
        {
          "internalType": "address",
          "name": "_dao",
          "type": "address"
        },
        {
          "internalType": "address",
          "name": "_team",
          "type": "address"
        },
        {
          "internalType": "address",
          "name": "_supreme",
          "type": "address"
        }
      ],
      "name": "updateAccounts",
      "outputs": [],
      "stateMutability": "nonpayable",
      "type": "function"
    },
    {
      "inputs": [
        {
          "internalType": "address",
          "name": "_soul",
          "type": "address"
        },
        {
          "internalType": "address",
          "name": "_seance",
          "type": "address"
        }
      ],
      "name": "updateTokens",
      "outputs": [],
      "stateMutability": "nonpayable",
      "type": "function"
    },
    {
      "inputs": [
        {
          "internalType": "uint256",
          "name": "_pid",
          "type": "uint256"
        },
        {
          "internalType": "address",
          "name": "_user",
          "type": "address"
        },
        {
          "internalType": "uint256",
          "name": "_time",
          "type": "uint256"
        }
      ],
      "name": "reviseDeposit",
      "outputs": [],
      "stateMutability": "nonpayable",
      "type": "function"
    },
    {
      "inputs": [
        {
          "internalType": "uint256",
          "name": "amount",
          "type": "uint256"
        }
      ],
      "name": "enWei",
      "outputs": [
        {
          "internalType": "uint256",
          "name": "",
          "type": "uint256"
        }
      ],
      "stateMutability": "pure",
      "type": "function"
    },
    {
      "inputs": [
        {
          "internalType": "uint256",
          "name": "amount",
          "type": "uint256"
        }
      ],
      "name": "fromWei",
      "outputs": [
        {
          "internalType": "uint256",
          "name": "",
          "type": "uint256"
        }
      ],
      "stateMutability": "pure",
      "type": "function"
    }
  ],
  "bytecode": "0x60a06040526001600f556200001b60016200025560201b60201c565b6080908152503480156200002e57600080fd5b506000600160006101000a81548160ff02191690831515021790555060016002819055507381dd37687c74df8f957a370a9a4435d873f5e5a9600960006101000a81548173ffffffffffffffffffffffffffffffffffffffff021916908373ffffffffffffffffffffffffffffffffffffffff1602179055507336d0164e87b58427c4153c089aedda8ec0b80b9d600760006101000a81548173ffffffffffffffffffffffffffffffffffffffff021916908373ffffffffffffffffffffffffffffffffffffffff160217905550731c63c726926197bd3cb75d86bcfb1daebcd87250600860006101000a81548173ffffffffffffffffffffffffffffffffffffffff021916908373ffffffffffffffffffffffffffffffffffffffff1602179055507f36d5d8406f8379c6deba01145ec4f6a2966675cc67d71355b397a2a8e3572b296016819055507f0811b25c145e1379dc78112dd91057f09150f6db05dfd7e04deb910e6cefd4b7601781905550620001da6000801b6000801b600960009054906101000a900473ffffffffffffffffffffffffffffffffffffffff166200027460201b60201c565b5062000214601654601654600960009054906101000a900473ffffffffffffffffffffffffffffffffffffffff166200027460201b60201c565b506200024e601754601654600860009054906101000a900473ffffffffffffffffffffffffffffffffffffffff166200027460201b60201c565b5062000524565b6000670de0b6b3a7640000826200026d9190620004d9565b9050919050565b6000620002888483620002a560201b60201c565b6200029a8484620002bb60201b60201c565b600190509392505050565b620002b782826200031e60201b60201c565b5050565b6000620002ce836200040f60201b60201c565b905081600080858152602001908152602001600020600101819055508181847fbd79b86ffe0ab8e8776151514217cd7cacd52c909f66475c3af44e129f0b00ff60405160405180910390a4505050565b6200033082826200042e60201b60201c565b6200040b57600160008084815260200190815260200160002060000160008373ffffffffffffffffffffffffffffffffffffffff1673ffffffffffffffffffffffffffffffffffffffff16815260200190815260200160002060006101000a81548160ff021916908315150217905550620003b06200049860201b60201c565b73ffffffffffffffffffffffffffffffffffffffff168173ffffffffffffffffffffffffffffffffffffffff16837f2f8788117e7eff1d82e926ec794901d17c78024a50270940304540a733656f0d60405160405180910390a45b5050565b6000806000838152602001908152602001600020600101549050919050565b600080600084815260200190815260200160002060000160008373ffffffffffffffffffffffffffffffffffffffff1673ffffffffffffffffffffffffffffffffffffffff16815260200190815260200160002060009054906101000a900460ff16905092915050565b600033905090565b6000819050919050565b7f4e487b7100000000000000000000000000000000000000000000000000000000600052601160045260246000fd5b6000620004e682620004a0565b9150620004f383620004a0565b92508282026200050381620004a0565b915082820484148315176200051d576200051c620004aa565b5b5092915050565b60805161562d6200054060003960006136bc015261562d6000f3fe608060405234801561001057600080fd5b50600436106103275760003560e01c80637cd07e47116101b8578063a217fddf11610104578063e65d1522116100a2578063f107fd851161007c578063f107fd8514610970578063fb39d1e31461098c578063fc90fdc0146109bc578063fd6f99d0146109da57610327565b8063e65d152214610906578063e7aa29e314610936578063ea4bf4461461095257610327565b8063cf94ee96116100de578063cf94ee9614610882578063d547741f146108b2578063e2bbb158146108ce578063e4090331146108ea57610327565b8063a217fddf14610816578063a8b973a114610834578063bfafcad51461085257610327565b806385f2aef21161017157806393f1a40b1161014b57806393f1a40b1461077457806396c82e57146107aa5780639f6c5426146107c8578063a1aab33f146107f857610327565b806385f2aef2146106f65780638dbb1e3a1461071457806391d148541461074457610327565b80637cd07e47146106455780637d500ec8146106635780637e668b42146106815780638129fc1c146106b2578063815b7a8c146106bc57806382386d58146106da57610327565b8063441a3e70116102775780635c975abb11610230578063630b5ba11161020a578063630b5ba1146105e557806364482f79146105ef57806378e979251461060b5780637abceffd1461062957610327565b80635c975abb1461058d5780635f9bf689146105ab5780635ffe6146146105c957610327565b8063441a3e70146104e1578063454b0608146104fd57806348f8bfea146105195780634a962829146105375780634ca01d451461055357806351eb05a61461057157610327565b806323cf3118116102e457806336568abe116102be57806336568abe1461046d578063392e53cd1461048957806341441d3b146104a75780634162169f146104c357610327565b806323cf311814610405578063248a9ca3146104215780632f2ff15d1461045157610327565b806301ffc9a71461032c578063081e3eda1461035c5780631058d2811461037a5780631254f0dc146103965780631526fe27146103b457806317caf6f1146103e7575b600080fd5b6103466004803603810190610341919061408a565b6109f8565b60405161035391906140d2565b60405180910390f35b610364610a72565b6040516103719190614106565b60405180910390f35b610394600480360381019061038f919061414d565b610a7f565b005b61039e610dca565b6040516103ab9190614106565b60405180910390f35b6103ce60048036038101906103c9919061414d565b610dd0565b6040516103de94939291906141f9565b60405180910390f35b6103ef610e30565b6040516103fc9190614106565b60405180910390f35b61041f600480360381019061041a919061428e565b610e36565b005b61043b600480360381019061043691906142f1565b610ede565b604051610448919061432d565b60405180910390f35b61046b60048036038101906104669190614374565b610efd565b005b61048760048036038101906104829190614374565b610f26565b005b610491610fa9565b60405161049e91906140d2565b60405180910390f35b6104c160048036038101906104bc919061414d565b610fbc565b005b6104cb61132d565b6040516104d891906143c3565b60405180910390f35b6104fb60048036038101906104f691906143de565b611353565b005b6105176004803603810190610512919061414d565b61181c565b005b610521611c5a565b60405161052e91906143c3565b60405180910390f35b610551600480360381019061054c919061414d565b611c80565b005b61055b611cf6565b604051610568919061443f565b60405180910390f35b61058b6004803603810190610586919061414d565b611d1c565b005b610595612137565b6040516105a291906140d2565b60405180910390f35b6105b361214e565b6040516105c09190614106565b60405180910390f35b6105e360048036038101906105de919061414d565b612154565b005b6105ed612173565b005b61060960048036038101906106049190614486565b6121a6565b005b610613612324565b6040516106209190614106565b60405180910390f35b610643600480360381019061063e9190614517565b61232a565b005b61064d6123a7565b60405161065a919061458b565b60405180910390f35b61066b6123cd565b6040516106789190614106565b60405180910390f35b61069b600480360381019061069691906145a6565b6123d3565b6040516106a99291906145f9565b60405180910390f35b6106ba612429565b005b6106c461282e565b6040516106d19190614643565b60405180910390f35b6106f460048036038101906106ef919061465e565b612854565b005b6106fe612907565b60405161070b91906143c3565b60405180910390f35b61072e600480360381019061072991906143de565b61292d565b60405161073b9190614106565b60405180910390f35b61075e60048036038101906107599190614374565b612950565b60405161076b91906140d2565b60405180910390f35b61078e600480360381019061078991906146b1565b6129ba565b6040516107a197969594939291906146f1565b60405180910390f35b6107b2612a09565b6040516107bf9190614106565b60405180910390f35b6107e260048036038101906107dd91906143de565b612a0f565b6040516107ef9190614106565b60405180910390f35b610800612a82565b60405161080d9190614106565b60405180910390f35b61081e612a88565b60405161082b919061432d565b60405180910390f35b61083c612a8f565b6040516108499190614106565b60405180910390f35b61086c600480360381019061086791906146b1565b612a95565b6040516108799190614106565b60405180910390f35b61089c6004803603810190610897919061414d565b612c7b565b6040516108a99190614106565b60405180910390f35b6108cc60048036038101906108c79190614374565b612c98565b005b6108e860048036038101906108e391906143de565b612cc1565b005b61090460048036038101906108ff9190614760565b613030565b005b610920600480360381019061091b919061414d565b6132f1565b60405161092d9190614106565b60405180910390f35b610950600480360381019061094b91906147b3565b61330e565b005b61095a6134cc565b604051610967919061432d565b60405180910390f35b61098a600480360381019061098591906143de565b6134d2565b005b6109a660048036038101906109a191906146b1565b6135d9565b6040516109b39190614106565b60405180910390f35b6109c46136ba565b6040516109d19190614106565b60405180910390f35b6109e26136de565b6040516109ef919061432d565b60405180910390f35b60007f7965db0b000000000000000000000000000000000000000000000000000000007bffffffffffffffffffffffffffffffffffffffffffffffffffffffff1916827bffffffffffffffffffffffffffffffffffffffffffffffffffffffff19161480610a6b5750610a6a826136e4565b5b9050919050565b6000601480549050905090565b6002805403610ac3576040517f08c379a0000000000000000000000000000000000000000000000000000000008152600401610aba90614850565b60405180910390fd5b6002808190555060006014600081548110610ae157610ae0614870565b5b9060005260206000209060040201905060006015600080815260200190815260200160002060003373ffffffffffffffffffffffffffffffffffffffff1673ffffffffffffffffffffffffffffffffffffffff16815260200190815260200160002090508281600001541015610b8c576040517f08c379a0000000000000000000000000000000000000000000000000000000008152600401610b83906148eb565b60405180910390fd5b610b966000611d1c565b6000816001015464e8d4a5100084600301548460000154610bb7919061493a565b610bc191906149ab565b610bcb91906149dc565b90506000811115610be157610be0338261374e565b5b6000841115610ca657838260000154610bfa91906149dc565b82600001819055508260000160009054906101000a900473ffffffffffffffffffffffffffffffffffffffff1673ffffffffffffffffffffffffffffffffffffffff1663a9059cbb33866040518363ffffffff1660e01b8152600401610c61929190614a10565b6020604051808303816000875af1158015610c80573d6000803e3d6000fd5b505050506040513d601f19601f82011682018060405250810190610ca49190614a4e565b505b64e8d4a5100083600301548360000154610cc0919061493a565b610cca91906149ab565b8260010181905550428260030181905550600660009054906101000a900473ffffffffffffffffffffffffffffffffffffffff1673ffffffffffffffffffffffffffffffffffffffff16639dc29fac33866040518363ffffffff1660e01b8152600401610d38929190614a10565b600060405180830381600087803b158015610d5257600080fd5b505af1158015610d66573d6000803e3d6000fd5b5050505060003373ffffffffffffffffffffffffffffffffffffffff167f02f25270a4d87bea75db541cdfe559334a275b4a233520ed6c0a2429667cca948642604051610db49291906145f9565b60405180910390a3505050600160028190555050565b60135481565b60148181548110610de057600080fd5b90600052602060002090600402016000915090508060000160009054906101000a900473ffffffffffffffffffffffffffffffffffffffff16908060010154908060020154908060030154905084565b60115481565b601260009054906101000a900460ff16610e85576040517f08c379a0000000000000000000000000000000000000000000000000000000008152600401610e7c90614ac7565b60405180910390fd5b601654610e9981610e946137e1565b6137e9565b81600a60006101000a81548173ffffffffffffffffffffffffffffffffffffffff021916908373ffffffffffffffffffffffffffffffffffffffff1602179055505050565b6000806000838152602001908152602001600020600101549050919050565b610f0682610ede565b610f1781610f126137e1565b6137e9565b610f218383613886565b505050565b610f2e6137e1565b73ffffffffffffffffffffffffffffffffffffffff168173ffffffffffffffffffffffffffffffffffffffff1614610f9b576040517f08c379a0000000000000000000000000000000000000000000000000000000008152600401610f9290614b59565b60405180910390fd5b610fa58282613966565b5050565b601260009054906101000a900460ff1681565b6002805403611000576040517f08c379a0000000000000000000000000000000000000000000000000000000008152600401610ff790614850565b60405180910390fd5b6002808190555061100f612137565b1561104f576040517f08c379a000000000000000000000000000000000000000000000000000000000815260040161104690614bc5565b60405180910390fd5b6000601460008154811061106657611065614870565b5b9060005260206000209060040201905060006015600080815260200190815260200160002060003373ffffffffffffffffffffffffffffffffffffffff1673ffffffffffffffffffffffffffffffffffffffff16815260200190815260200160002090506110d46000611d1c565b60008160000154111561112e576000816001015464e8d4a5100084600301548460000154611102919061493a565b61110c91906149ab565b61111691906149dc565b9050600081111561112c5761112b338261374e565b5b505b60008311156111f5578160000160009054906101000a900473ffffffffffffffffffffffffffffffffffffffff1673ffffffffffffffffffffffffffffffffffffffff166323b872dd3330866040518463ffffffff1660e01b815260040161119893929190614be5565b6020604051808303816000875af11580156111b7573d6000803e3d6000fd5b505050506040513d601f19601f820116820180604052508101906111db9190614a4e565b508281600001546111ec9190614c1c565b81600001819055505b6000816004015411611207574261120d565b80600401545b816004018190555064e8d4a510008260030154826000015461122f919061493a565b61123991906149ab565b8160010181905550600660009054906101000a900473ffffffffffffffffffffffffffffffffffffffff1673ffffffffffffffffffffffffffffffffffffffff166340c10f1933856040518363ffffffff1660e01b815260040161129e929190614a10565b600060405180830381600087803b1580156112b857600080fd5b505af11580156112cc573d6000803e3d6000fd5b5050505060003373ffffffffffffffffffffffffffffffffffffffff167f90890809c654f11d6e72a28fa60149770a0d11ec6c92319d6ceb2bb0a4ea1a15856040516113189190614106565b60405180910390a35050600160028190555050565b600860009054906101000a900473ffffffffffffffffffffffffffffffffffffffff1681565b6002805403611397576040517f08c379a000000000000000000000000000000000000000000000000000000000815260040161138e90614850565b60405180910390fd5b600280819055508160148054905081106113e6576040517f08c379a00000000000000000000000000000000000000000000000000000000081526004016113dd90614c9c565b60405180910390fd5b60008303611429576040517f08c379a000000000000000000000000000000000000000000000000000000000815260040161142090614d08565b60405180910390fd5b60006014848154811061143f5761143e614870565b5b9060005260206000209060040201905060006015600086815260200190815260200160002060003373ffffffffffffffffffffffffffffffffffffffff1673ffffffffffffffffffffffffffffffffffffffff168152602001908152602001600020905083816000015410156114ea576040517f08c379a00000000000000000000000000000000000000000000000000000000081526004016114e190614d74565b60405180910390fd5b6114f385611d1c565b6000816001015464e8d4a5100084600301548460000154611514919061493a565b61151e91906149ab565b61152891906149dc565b9050600081111561153e5761153d338261374e565b5b60008511156115a3576000826006015411156115715781600601544261156491906149dc565b826005018190555061158a565b81600401544261158191906149dc565b82600501819055505b84826000015461159a91906149dc565b82600001819055505b60006015600088815260200190815260200160002060003373ffffffffffffffffffffffffffffffffffffffff1673ffffffffffffffffffffffffffffffffffffffff16815260200190815260200160002060050154905060006116088883896123d3565b9150506000818861161991906149dc565b90508560000160009054906101000a900473ffffffffffffffffffffffffffffffffffffffff1673ffffffffffffffffffffffffffffffffffffffff1663a9059cbb600860009054906101000a900473ffffffffffffffffffffffffffffffffffffffff16836040518363ffffffff1660e01b815260040161169c929190614a10565b6020604051808303816000875af11580156116bb573d6000803e3d6000fd5b505050506040513d601f19601f820116820180604052508101906116df9190614a4e565b508560000160009054906101000a900473ffffffffffffffffffffffffffffffffffffffff1673ffffffffffffffffffffffffffffffffffffffff1663a9059cbb33846040518363ffffffff1660e01b815260040161173f929190614a10565b6020604051808303816000875af115801561175e573d6000803e3d6000fd5b505050506040513d601f19601f820116820180604052508101906117829190614a4e565b5064e8d4a510008660030154866000015461179d919061493a565b6117a791906149ab565b8560010181905550428560030181905550883373ffffffffffffffffffffffffffffffffffffffff167f02f25270a4d87bea75db541cdfe559334a275b4a233520ed6c0a2429667cca948a426040516118019291906145f9565b60405180910390a35050505050505060016002819055505050565b601260009054906101000a900460ff1661186b576040517f08c379a000000000000000000000000000000000000000000000000000000000815260040161186290614ac7565b60405180910390fd5b8060148054905081106118b3576040517f08c379a00000000000000000000000000000000000000000000000000000000081526004016118aa90614c9c565b60405180910390fd5b600073ffffffffffffffffffffffffffffffffffffffff16600a60009054906101000a900473ffffffffffffffffffffffffffffffffffffffff1673ffffffffffffffffffffffffffffffffffffffff1603611944576040517f08c379a000000000000000000000000000000000000000000000000000000000815260040161193b90614de0565b60405180910390fd5b60006014838154811061195a57611959614870565b5b9060005260206000209060040201905060008160000160009054906101000a900473ffffffffffffffffffffffffffffffffffffffff16905060008173ffffffffffffffffffffffffffffffffffffffff166370a08231306040518263ffffffff1660e01b81526004016119ce91906143c3565b602060405180830381865afa1580156119eb573d6000803e3d6000fd5b505050506040513d601f19601f82011682018060405250810190611a0f9190614e15565b90508173ffffffffffffffffffffffffffffffffffffffff1663095ea7b3600a60009054906101000a900473ffffffffffffffffffffffffffffffffffffffff16836040518363ffffffff1660e01b8152600401611a6e929190614a10565b6020604051808303816000875af1158015611a8d573d6000803e3d6000fd5b505050506040513d601f19601f82011682018060405250810190611ab19190614a4e565b506000600a60009054906101000a900473ffffffffffffffffffffffffffffffffffffffff1673ffffffffffffffffffffffffffffffffffffffff1663ce5494bb846040518263ffffffff1660e01b8152600401611b0f9190614e42565b6020604051808303816000875af1158015611b2e573d6000803e3d6000fd5b505050506040513d601f19601f82011682018060405250810190611b529190614e72565b90508073ffffffffffffffffffffffffffffffffffffffff166370a08231306040518263ffffffff1660e01b8152600401611b8d91906143c3565b602060405180830381865afa158015611baa573d6000803e3d6000fd5b505050506040513d601f19601f82011682018060405250810190611bce9190614e15565b8214611c0f576040517f08c379a0000000000000000000000000000000000000000000000000000000008152600401611c0690614eeb565b60405180910390fd5b808460000160006101000a81548173ffffffffffffffffffffffffffffffffffffffff021916908373ffffffffffffffffffffffffffffffffffffffff160217905550505050505050565b600960009054906101000a900473ffffffffffffffffffffffffffffffffffffffff1681565b601754611c9481611c8f6137e1565b6137e9565b611c9d82612c7b565b60135403611caa57600080fd5b611cb382612c7b565b6013819055507f580e2348a4d1118e1f915eeffd71aec4938e749307b28e67f19841ca64117df7601354604051611cea9190614106565b60405180910390a15050565b600660009054906101000a900473ffffffffffffffffffffffffffffffffffffffff1681565b806014805490508110611d64576040517f08c379a0000000000000000000000000000000000000000000000000000000008152600401611d5b90614c9c565b60405180910390fd5b600060148381548110611d7a57611d79614870565b5b9060005260206000209060040201905080600201544211611d9b5750612133565b60008160000160009054906101000a900473ffffffffffffffffffffffffffffffffffffffff1673ffffffffffffffffffffffffffffffffffffffff166370a08231306040518263ffffffff1660e01b8152600401611dfa91906143c3565b602060405180830381865afa158015611e17573d6000803e3d6000fd5b505050506040513d601f19601f82011682018060405250810190611e3b9190614e15565b905060008103611e55574282600201819055505050612133565b6000611e6583600201544261292d565b905060006011548460010154600e5484611e7f919061493a565b611e89919061493a565b611e9391906149ab565b90506000650746a528800064e8d4a5100083611eaf919061493a565b611eb991906149ab565b90506000600282611eca919061493a565b905060008184611eda91906149dc565b9050600460009054906101000a900473ffffffffffffffffffffffffffffffffffffffff1673ffffffffffffffffffffffffffffffffffffffff166340c10f19600760009054906101000a900473ffffffffffffffffffffffffffffffffffffffff16856040518363ffffffff1660e01b8152600401611f5b929190614a10565b600060405180830381600087803b158015611f7557600080fd5b505af1158015611f89573d6000803e3d6000fd5b50505050600460009054906101000a900473ffffffffffffffffffffffffffffffffffffffff1673ffffffffffffffffffffffffffffffffffffffff166340c10f19600860009054906101000a900473ffffffffffffffffffffffffffffffffffffffff16856040518363ffffffff1660e01b815260040161200c929190614a10565b600060405180830381600087803b15801561202657600080fd5b505af115801561203a573d6000803e3d6000fd5b50505050600460009054906101000a900473ffffffffffffffffffffffffffffffffffffffff1673ffffffffffffffffffffffffffffffffffffffff166340c10f19600660009054906101000a900473ffffffffffffffffffffffffffffffffffffffff16836040518363ffffffff1660e01b81526004016120bd929190614a10565b600060405180830381600087803b1580156120d757600080fd5b505af11580156120eb573d6000803e3d6000fd5b505050508564e8d4a5100085612101919061493a565b61210b91906149ab565b876003015461211a9190614c1c565b8760030181905550428760020181905550505050505050505b5050565b6000600160009054906101000a900460ff16905090565b600e5481565b601754612168816121636137e1565b6137e9565b81600f819055505050565b6000601480549050905060005b818110156121a25761219181611d1c565b8061219b90614f0b565b9050612180565b5050565b601260009054906101000a900460ff166121f5576040517f08c379a00000000000000000000000000000000000000000000000000000000081526004016121ec90614ac7565b60405180910390fd5b82601480549050811061223d576040517f08c379a000000000000000000000000000000000000000000000000000000000815260040161223490614c9c565b60405180910390fd5b6017546122518161224c6137e1565b6137e9565b82156122605761225f612173565b5b60006014868154811061227657612275614870565b5b9060005260206000209060040201600101549050846014878154811061229f5761229e614870565b5b9060005260206000209060040201600101819055508481146122e35784816011546122ca91906149dc565b6122d49190614c1c565b6011819055506122e2613a47565b5b7fd88f859573973e938da5bf3e5100c16eee2090fa720e05ae3d452b4cd05cdcfd86866040516123149291906145f9565b60405180910390a1505050505050565b60105481565b601260009054906101000a900460ff16612379576040517f08c379a000000000000000000000000000000000000000000000000000000000815260040161237090614ac7565b60405180910390fd5b60165461238d816123886137e1565b6137e9565b61239683613b32565b6123a1848484613c10565b50505050565b600a60009054906101000a900473ffffffffffffffffffffffffffffffffffffffff1681565b600d5481565b60008060006123ea6123e58787612a0f565b6132f1565b90506000606482866123fc919061493a565b61240691906149ab565b90506000818661241691906149dc565b9050818194509450505050935093915050565b60165461243d816124386137e1565b6137e9565b601260009054906101000a900460ff161561248d576040517f08c379a000000000000000000000000000000000000000000000000000000000815260040161248490614f9f565b60405180910390fd5b73e2fb177009ff39f52c0134e8007fa0e4baacbd07600360006101000a81548173ffffffffffffffffffffffffffffffffffffffff021916908373ffffffffffffffffffffffffffffffffffffffff16021790555073124b06c5ce47de7a6e9efda71a946717130079e6600560006101000a81548173ffffffffffffffffffffffffffffffffffffffff021916908373ffffffffffffffffffffffffffffffffffffffff160217905550426010819055506103e8600b819055506103e8600c8190555061255a600e612c7b565b60138190555060006103e89050600360009054906101000a900473ffffffffffffffffffffffffffffffffffffffff16600460006101000a81548173ffffffffffffffffffffffffffffffffffffffff021916908373ffffffffffffffffffffffffffffffffffffffff160217905550600560009054906101000a900473ffffffffffffffffffffffffffffffffffffffff16600660006101000a81548173ffffffffffffffffffffffffffffffffffffffff021916908373ffffffffffffffffffffffffffffffffffffffff16021790555061263b600c54600b54613d6b565b60146040518060800160405280600460009054906101000a900473ffffffffffffffffffffffffffffffffffffffff1673ffffffffffffffffffffffffffffffffffffffff16815260200183815260200160105481526020016000815250908060018154018082558091505060019003906000526020600020906004020160009091909190915060008201518160000160006101000a81548173ffffffffffffffffffffffffffffffffffffffff021916908373ffffffffffffffffffffffffffffffffffffffff16021790555060208201518160010155604082015181600201556060820151816003015550506001601260006101000a81548160ff02191690831515021790555080601160008282546127569190614c1c565b925050819055507f0476c5e4920930815a67a5a042e26836431f494d3be0f6e10c3034787a7a15f9600760009054906101000a900473ffffffffffffffffffffffffffffffffffffffff16600860009054906101000a900473ffffffffffffffffffffffffffffffffffffffff16600360009054906101000a900473ffffffffffffffffffffffffffffffffffffffff16600560009054906101000a900473ffffffffffffffffffffffffffffffffffffffff16601154600c5460405161282296959493929190614fbf565b60405180910390a15050565b600460009054906101000a900473ffffffffffffffffffffffffffffffffffffffff1681565b601754612868816128636137e1565b6137e9565b60006015600086815260200190815260200160002060008573ffffffffffffffffffffffffffffffffffffffff1673ffffffffffffffffffffffffffffffffffffffff16815260200190815260200160002090508281600401819055507f40d6e8e3d60e4693375c73df2d1a71d582a28197c98fd8d2badad6ead06af64c8585856040516128f893929190615020565b60405180910390a15050505050565b600760009054906101000a900473ffffffffffffffffffffffffffffffffffffffff1681565b6000600f54838361293e91906149dc565b612948919061493a565b905092915050565b600080600084815260200190815260200160002060000160008373ffffffffffffffffffffffffffffffffffffffff1673ffffffffffffffffffffffffffffffffffffffff16815260200190815260200160002060009054906101000a900460ff16905092915050565b6015602052816000526040600020602052806000526040600020600091509150508060000154908060010154908060020154908060030154908060040154908060050154908060060154905087565b600b5481565b600080620151808310612a30576201518083612a2b91906149ab565b612a33565b60005b90506000612a4082612c7b565b90506000601354821015612a615781601354612a5c91906149dc565b612a64565b60005b905060008614612a745780612a77565b60005b935050505092915050565b600c5481565b6000801b81565b600f5481565b60008060148481548110612aac57612aab614870565b5b9060005260206000209060040201905060006015600086815260200190815260200160002060008573ffffffffffffffffffffffffffffffffffffffff1673ffffffffffffffffffffffffffffffffffffffff168152602001908152602001600020905060008260030154905060008360000160009054906101000a900473ffffffffffffffffffffffffffffffffffffffff1673ffffffffffffffffffffffffffffffffffffffff166370a08231306040518263ffffffff1660e01b8152600401612b7891906143c3565b602060405180830381865afa158015612b95573d6000803e3d6000fd5b505050506040513d601f19601f82011682018060405250810190612bb99190614e15565b9050836002015442118015612bcf575060008114155b15612c40576000612be485600201544261292d565b905060006011548660010154600e5484612bfe919061493a565b612c08919061493a565b612c1291906149ab565b90508264e8d4a5100082612c26919061493a565b612c3091906149ab565b84612c3b9190614c1c565b935050505b826001015464e8d4a51000838560000154612c5b919061493a565b612c6591906149ab565b612c6f91906149dc565b94505050505092915050565b6000670de0b6b3a764000082612c91919061493a565b9050919050565b612ca182610ede565b612cb281612cad6137e1565b6137e9565b612cbc8383613966565b505050565b6002805403612d05576040517f08c379a0000000000000000000000000000000000000000000000000000000008152600401612cfc90614850565b60405180910390fd5b60028081905550816014805490508110612d54576040517f08c379a0000000000000000000000000000000000000000000000000000000008152600401612d4b90614c9c565b60405180910390fd5b612d5c612137565b15612d9c576040517f08c379a0000000000000000000000000000000000000000000000000000000008152600401612d9390614bc5565b60405180910390fd5b60008303612ddf576040517f08c379a0000000000000000000000000000000000000000000000000000000008152600401612dd6906150a3565b60405180910390fd5b600060148481548110612df557612df4614870565b5b9060005260206000209060040201905060006015600086815260200190815260200160002060003373ffffffffffffffffffffffffffffffffffffffff1673ffffffffffffffffffffffffffffffffffffffff1681526020019081526020016000209050612e6285611d1c565b600081600001541115612ebc576000816001015464e8d4a5100084600301548460000154612e90919061493a565b612e9a91906149ab565b612ea491906149dc565b90506000811115612eba57612eb9338261374e565b5b505b6000841115612f86578160000160009054906101000a900473ffffffffffffffffffffffffffffffffffffffff1673ffffffffffffffffffffffffffffffffffffffff166323b872dd3330876040518463ffffffff1660e01b8152600401612f2693929190614be5565b6020604051808303816000875af1158015612f45573d6000803e3d6000fd5b505050506040513d601f19601f82011682018060405250810190612f699190614a4e565b5083816000016000828254612f7e9190614c1c565b925050819055505b64e8d4a5100082600301548260000154612fa0919061493a565b612faa91906149ab565b81600101819055506000816004015411612fc45742612fca565b80600401545b8160040181905550843373ffffffffffffffffffffffffffffffffffffffff167f90890809c654f11d6e72a28fa60149770a0d11ec6c92319d6ceb2bb0a4ea1a15866040516130199190614106565b60405180910390a350505060016002819055505050565b6016546130448161303f6137e1565b6137e9565b8373ffffffffffffffffffffffffffffffffffffffff16600860009054906101000a900473ffffffffffffffffffffffffffffffffffffffff1673ffffffffffffffffffffffffffffffffffffffff161415806130ef57508273ffffffffffffffffffffffffffffffffffffffff16600760009054906101000a900473ffffffffffffffffffffffffffffffffffffffff1673ffffffffffffffffffffffffffffffffffffffff1614155b8061314857508173ffffffffffffffffffffffffffffffffffffffff16600960009054906101000a900473ffffffffffffffffffffffffffffffffffffffff1673ffffffffffffffffffffffffffffffffffffffff1614155b613187576040517f08c379a000000000000000000000000000000000000000000000000000000000815260040161317e9061510f565b60405180910390fd5b83600860006101000a81548173ffffffffffffffffffffffffffffffffffffffff021916908373ffffffffffffffffffffffffffffffffffffffff16021790555082600760006101000a81548173ffffffffffffffffffffffffffffffffffffffff021916908373ffffffffffffffffffffffffffffffffffffffff16021790555081600960006101000a81548173ffffffffffffffffffffffffffffffffffffffff021916908373ffffffffffffffffffffffffffffffffffffffff1602179055507f1af7fb2dca603676776ebce7af5086b001c893239c7e2a241e7184e6f3cf9282600860009054906101000a900473ffffffffffffffffffffffffffffffffffffffff16600760009054906101000a900473ffffffffffffffffffffffffffffffffffffffff16600960009054906101000a900473ffffffffffffffffffffffffffffffffffffffff166040516132e39392919061512f565b60405180910390a150505050565b6000670de0b6b3a76400008261330791906149ab565b9050919050565b6016546133228161331d6137e1565b6137e9565b8273ffffffffffffffffffffffffffffffffffffffff16600460009054906101000a900473ffffffffffffffffffffffffffffffffffffffff1673ffffffffffffffffffffffffffffffffffffffff161415806133cd57508173ffffffffffffffffffffffffffffffffffffffff16600660009054906101000a900473ffffffffffffffffffffffffffffffffffffffff1673ffffffffffffffffffffffffffffffffffffffff1614155b61340c576040517f08c379a0000000000000000000000000000000000000000000000000000000008152600401613403906151b2565b60405180910390fd5b82600460006101000a81548173ffffffffffffffffffffffffffffffffffffffff021916908373ffffffffffffffffffffffffffffffffffffffff16021790555081600660006101000a81548173ffffffffffffffffffffffffffffffffffffffff021916908373ffffffffffffffffffffffffffffffffffffffff1602179055507fdcc6331013de89f8c595d5328f0a724194f113cb6f8f2a707b3dff6de13f0d1783836040516134bf9291906151d2565b60405180910390a1505050565b60165481565b6017546134e6816134e16137e1565b6137e9565b82600c541415806134f9575081600b5414155b613538576040517f08c379a000000000000000000000000000000000000000000000000000000000815260040161352f90615247565b60405180910390fd5b8282101561357b576040517f08c379a0000000000000000000000000000000000000000000000000000000008152600401613572906152b3565b60405180910390fd5b82600c8190555081600b81905550613597600c54600b54613d6b565b7fb298bc23e07860d501fddce288f46d761aa04a0c7c3316099eb50f097aacf304600c54600b546040516135cc9291906145f9565b60405180910390a1505050565b6000806015600085815260200190815260200160002060008473ffffffffffffffffffffffffffffffffffffffff1673ffffffffffffffffffffffffffffffffffffffff1681526020019081526020016000206040518060e0016040529081600082015481526020016001820154815260200160028201548152602001600382015481526020016004820154815260200160058201548152602001600682015481525050905060008160600151116136a05780608001514261369b91906149dc565b6136b1565b8060600151426136b091906149dc565b5b91505092915050565b7f000000000000000000000000000000000000000000000000000000000000000081565b60175481565b60007f01ffc9a7000000000000000000000000000000000000000000000000000000007bffffffffffffffffffffffffffffffffffffffffffffffffffffffff1916827bffffffffffffffffffffffffffffffffffffffffffffffffffffffff1916149050919050565b600660009054906101000a900473ffffffffffffffffffffffffffffffffffffffff1673ffffffffffffffffffffffffffffffffffffffff1663b2a142aa83836040518363ffffffff1660e01b81526004016137ab929190614a10565b600060405180830381600087803b1580156137c557600080fd5b505af11580156137d9573d6000803e3d6000fd5b505050505050565b600033905090565b6137f38282612950565b613882576138188173ffffffffffffffffffffffffffffffffffffffff166014613df1565b6138268360001c6020613df1565b6040516020016138379291906153dc565b6040516020818303038152906040526040517f08c379a00000000000000000000000000000000000000000000000000000000081526004016138799190615460565b60405180910390fd5b5050565b6138908282612950565b61396257600160008084815260200190815260200160002060000160008373ffffffffffffffffffffffffffffffffffffffff1673ffffffffffffffffffffffffffffffffffffffff16815260200190815260200160002060006101000a81548160ff0219169083151502179055506139076137e1565b73ffffffffffffffffffffffffffffffffffffffff168173ffffffffffffffffffffffffffffffffffffffff16837f2f8788117e7eff1d82e926ec794901d17c78024a50270940304540a733656f0d60405160405180910390a45b5050565b6139708282612950565b15613a4357600080600084815260200190815260200160002060000160008373ffffffffffffffffffffffffffffffffffffffff1673ffffffffffffffffffffffffffffffffffffffff16815260200190815260200160002060006101000a81548160ff0219169083151502179055506139e86137e1565b73ffffffffffffffffffffffffffffffffffffffff168173ffffffffffffffffffffffffffffffffffffffff16837ff6391f5c32d9c69d2a47ea670b442974b53935d1edc7fd64eb21e047a839171b60405160405180910390a45b5050565b60006014805490509050600080600190505b82811015613aa55760148181548110613a7557613a74614870565b5b90600052602060002090600402016001015482613a929190614c1c565b915080613a9e90614f0b565b9050613a59565b5060008114613b2e57600381613abb91906149ab565b9050806014600081548110613ad357613ad2614870565b5b906000526020600020906004020160010154601154613af291906149dc565b613afc9190614c1c565b601181905550806014600081548110613b1857613b17614870565b5b9060005260206000209060040201600101819055505b5050565b6000601480549050905060005b81811015613c0b578273ffffffffffffffffffffffffffffffffffffffff1660148281548110613b7257613b71614870565b5b906000526020600020906004020160000160009054906101000a900473ffffffffffffffffffffffffffffffffffffffff1673ffffffffffffffffffffffffffffffffffffffff1603613bfa576040517f08c379a0000000000000000000000000000000000000000000000000000000008152600401613bf1906154ce565b60405180910390fd5b80613c0490614f0b565b9050613b3f565b505050565b8015613c1f57613c1e612173565b5b8260116000828254613c319190614c1c565b92505081905550601460405180608001604052808473ffffffffffffffffffffffffffffffffffffffff1681526020018581526020016010544211613c7857601054613c7a565b425b81526020016000815250908060018154018082558091505060019003906000526020600020906004020160009091909190915060008201518160000160006101000a81548173ffffffffffffffffffffffffffffffffffffffff021916908373ffffffffffffffffffffffffffffffffffffffff1602179055506020820151816001015560408201518160020155606082015181600301555050613d1c613a47565b600060148054905090507f20b669aa921947a6d9602a921d2db3b6b30f21b9aca98580fa3972530330b27a818585601154604051613d5d94939291906154ee565b60405180910390a150505050565b600081613d7784612c7b565b613d8191906149ab565b90506203d09081613d92919061493a565b600d8190555062015180600d54613da991906149ab565b600e819055507fcd7c861d63893659123f817b192b8621ff1923a7c4589c260173cedcf9e986a6600d54600e54604051613de49291906145f9565b60405180910390a1505050565b606060006002836002613e04919061493a565b613e0e9190614c1c565b67ffffffffffffffff811115613e2757613e26615533565b5b6040519080825280601f01601f191660200182016040528015613e595781602001600182028036833780820191505090505b5090507f300000000000000000000000000000000000000000000000000000000000000081600081518110613e9157613e90614870565b5b60200101907effffffffffffffffffffffffffffffffffffffffffffffffffffffffffffff1916908160001a9053507f780000000000000000000000000000000000000000000000000000000000000081600181518110613ef557613ef4614870565b5b60200101907effffffffffffffffffffffffffffffffffffffffffffffffffffffffffffff1916908160001a90535060006001846002613f35919061493a565b613f3f9190614c1c565b90505b6001811115613fdf577f3031323334353637383961626364656600000000000000000000000000000000600f861660108110613f8157613f80614870565b5b1a60f81b828281518110613f9857613f97614870565b5b60200101907effffffffffffffffffffffffffffffffffffffffffffffffffffffffffffff1916908160001a905350600485901c945080613fd890615562565b9050613f42565b5060008414614023576040517f08c379a000000000000000000000000000000000000000000000000000000000815260040161401a906155d7565b60405180910390fd5b8091505092915050565b600080fd5b60007fffffffff0000000000000000000000000000000000000000000000000000000082169050919050565b61406781614032565b811461407257600080fd5b50565b6000813590506140848161405e565b92915050565b6000602082840312156140a05761409f61402d565b5b60006140ae84828501614075565b91505092915050565b60008115159050919050565b6140cc816140b7565b82525050565b60006020820190506140e760008301846140c3565b92915050565b6000819050919050565b614100816140ed565b82525050565b600060208201905061411b60008301846140f7565b92915050565b61412a816140ed565b811461413557600080fd5b50565b60008135905061414781614121565b92915050565b6000602082840312156141635761416261402d565b5b600061417184828501614138565b91505092915050565b600073ffffffffffffffffffffffffffffffffffffffff82169050919050565b6000819050919050565b60006141bf6141ba6141b58461417a565b61419a565b61417a565b9050919050565b60006141d1826141a4565b9050919050565b60006141e3826141c6565b9050919050565b6141f3816141d8565b82525050565b600060808201905061420e60008301876141ea565b61421b60208301866140f7565b61422860408301856140f7565b61423560608301846140f7565b95945050505050565b60006142498261417a565b9050919050565b600061425b8261423e565b9050919050565b61426b81614250565b811461427657600080fd5b50565b60008135905061428881614262565b92915050565b6000602082840312156142a4576142a361402d565b5b60006142b284828501614279565b91505092915050565b6000819050919050565b6142ce816142bb565b81146142d957600080fd5b50565b6000813590506142eb816142c5565b92915050565b6000602082840312156143075761430661402d565b5b6000614315848285016142dc565b91505092915050565b614327816142bb565b82525050565b6000602082019050614342600083018461431e565b92915050565b6143518161423e565b811461435c57600080fd5b50565b60008135905061436e81614348565b92915050565b6000806040838503121561438b5761438a61402d565b5b6000614399858286016142dc565b92505060206143aa8582860161435f565b9150509250929050565b6143bd8161423e565b82525050565b60006020820190506143d860008301846143b4565b92915050565b600080604083850312156143f5576143f461402d565b5b600061440385828601614138565b925050602061441485828601614138565b9150509250929050565b6000614429826141c6565b9050919050565b6144398161441e565b82525050565b60006020820190506144546000830184614430565b92915050565b614463816140b7565b811461446e57600080fd5b50565b6000813590506144808161445a565b92915050565b60008060006060848603121561449f5761449e61402d565b5b60006144ad86828701614138565b93505060206144be86828701614138565b92505060406144cf86828701614471565b9150509250925092565b60006144e48261423e565b9050919050565b6144f4816144d9565b81146144ff57600080fd5b50565b600081359050614511816144eb565b92915050565b6000806000606084860312156145305761452f61402d565b5b600061453e86828701614138565b935050602061454f86828701614502565b925050604061456086828701614471565b9150509250925092565b6000614575826141c6565b9050919050565b6145858161456a565b82525050565b60006020820190506145a0600083018461457c565b92915050565b6000806000606084860312156145bf576145be61402d565b5b60006145cd86828701614138565b93505060206145de86828701614138565b92505060406145ef86828701614138565b9150509250925092565b600060408201905061460e60008301856140f7565b61461b60208301846140f7565b9392505050565b600061462d826141c6565b9050919050565b61463d81614622565b82525050565b60006020820190506146586000830184614634565b92915050565b6000806000606084860312156146775761467661402d565b5b600061468586828701614138565b93505060206146968682870161435f565b92505060406146a786828701614138565b9150509250925092565b600080604083850312156146c8576146c761402d565b5b60006146d685828601614138565b92505060206146e78582860161435f565b9150509250929050565b600060e082019050614706600083018a6140f7565b61471360208301896140f7565b61472060408301886140f7565b61472d60608301876140f7565b61473a60808301866140f7565b61474760a08301856140f7565b61475460c08301846140f7565b98975050505050505050565b6000806000606084860312156147795761477861402d565b5b60006147878682870161435f565b93505060206147988682870161435f565b92505060406147a98682870161435f565b9150509250925092565b600080604083850312156147ca576147c961402d565b5b60006147d88582860161435f565b92505060206147e98582860161435f565b9150509250929050565b600082825260208201905092915050565b7f5265656e7472616e637947756172643a207265656e7472616e742063616c6c00600082015250565b600061483a601f836147f3565b915061484582614804565b602082019050919050565b600060208201905081810360008301526148698161482d565b9050919050565b7f4e487b7100000000000000000000000000000000000000000000000000000000600052603260045260246000fd5b7f77697468647261773a206e6f7420676f6f640000000000000000000000000000600082015250565b60006148d56012836147f3565b91506148e08261489f565b602082019050919050565b60006020820190508181036000830152614904816148c8565b9050919050565b7f4e487b7100000000000000000000000000000000000000000000000000000000600052601160045260246000fd5b6000614945826140ed565b9150614950836140ed565b925082820261495e816140ed565b915082820484148315176149755761497461490b565b5b5092915050565b7f4e487b7100000000000000000000000000000000000000000000000000000000600052601260045260246000fd5b60006149b6826140ed565b91506149c1836140ed565b9250826149d1576149d061497c565b5b828204905092915050565b60006149e7826140ed565b91506149f2836140ed565b9250828203905081811115614a0a57614a0961490b565b5b92915050565b6000604082019050614a2560008301856143b4565b614a3260208301846140f7565b9392505050565b600081519050614a488161445a565b92915050565b600060208284031215614a6457614a6361402d565b5b6000614a7284828501614a39565b91505092915050565b7f726577617264732068617665206e6f742079657420626567756e000000000000600082015250565b6000614ab1601a836147f3565b9150614abc82614a7b565b602082019050919050565b60006020820190508181036000830152614ae081614aa4565b9050919050565b7f416363657373436f6e74726f6c3a2063616e206f6e6c792072656e6f756e636560008201527f20726f6c657320666f722073656c660000000000000000000000000000000000602082015250565b6000614b43602f836147f3565b9150614b4e82614ae7565b604082019050919050565b60006020820190508181036000830152614b7281614b36565b9050919050565b7f5061757361626c653a2070617573656400000000000000000000000000000000600082015250565b6000614baf6010836147f3565b9150614bba82614b79565b602082019050919050565b60006020820190508181036000830152614bde81614ba2565b9050919050565b6000606082019050614bfa60008301866143b4565b614c0760208301856143b4565b614c1460408301846140f7565b949350505050565b6000614c27826140ed565b9150614c32836140ed565b9250828201905080821115614c4a57614c4961490b565b5b92915050565b7f706f6f6c20646f6573206e6f7420657869737400000000000000000000000000600082015250565b6000614c866013836147f3565b9150614c9182614c50565b602082019050919050565b60006020820190508181036000830152614cb581614c79565b9050919050565b7f776974686472617720534f554c20627920756e7374616b696e67000000000000600082015250565b6000614cf2601a836147f3565b9150614cfd82614cbc565b602082019050919050565b60006020820190508181036000830152614d2181614ce5565b9050919050565b7f7769746864726177206e6f7420676f6f64000000000000000000000000000000600082015250565b6000614d5e6011836147f3565b9150614d6982614d28565b602082019050919050565b60006020820190508181036000830152614d8d81614d51565b9050919050565b7f6e6f206d69677261746f72207365740000000000000000000000000000000000600082015250565b6000614dca600f836147f3565b9150614dd582614d94565b602082019050919050565b60006020820190508181036000830152614df981614dbd565b9050919050565b600081519050614e0f81614121565b92915050565b600060208284031215614e2b57614e2a61402d565b5b6000614e3984828501614e00565b91505092915050565b6000602082019050614e5760008301846141ea565b92915050565b600081519050614e6c816144eb565b92915050565b600060208284031215614e8857614e8761402d565b5b6000614e9684828501614e5d565b91505092915050565b7f6d6967726174653a20696e73756666696369656e742062616c616e6365000000600082015250565b6000614ed5601d836147f3565b9150614ee082614e9f565b602082019050919050565b60006020820190508181036000830152614f0481614ec8565b9050919050565b6000614f16826140ed565b91507fffffffffffffffffffffffffffffffffffffffffffffffffffffffffffffffff8203614f4857614f4761490b565b5b600182019050919050565b7f616c726561647920696e697469616c697a656400000000000000000000000000600082015250565b6000614f896013836147f3565b9150614f9482614f53565b602082019050919050565b60006020820190508181036000830152614fb881614f7c565b9050919050565b600060c082019050614fd460008301896143b4565b614fe160208301886143b4565b614fee60408301876143b4565b614ffb60608301866143b4565b61500860808301856140f7565b61501560a08301846140f7565b979650505050505050565b600060608201905061503560008301866140f7565b61504260208301856143b4565b61504f60408301846140f7565b949350505050565b7f6465706f73697420534f554c206279207374616b696e67000000000000000000600082015250565b600061508d6017836147f3565b915061509882615057565b602082019050919050565b600060208201905081810360008301526150bc81615080565b9050919050565b7f6d7573742062652061206e6577206163636f756e740000000000000000000000600082015250565b60006150f96015836147f3565b9150615104826150c3565b602082019050919050565b60006020820190508181036000830152615128816150ec565b9050919050565b600060608201905061514460008301866143b4565b61515160208301856143b4565b61515e60408301846143b4565b949350505050565b7f6d7573742062652061206e657720746f6b656e20616464726573730000000000600082015250565b600061519c601b836147f3565b91506151a782615166565b602082019050919050565b600060208201905081810360008301526151cb8161518f565b9050919050565b60006040820190506151e760008301856143b4565b6151f460208301846143b4565b9392505050565b7f6d757374206265206174206c65617374206f6e65206e65772076616c75650000600082015250565b6000615231601e836147f3565b915061523c826151fb565b602082019050919050565b6000602082019050818103600083015261526081615224565b9050919050565b7f7765696768742063616e6e6f742065786365656420746f74616c576569676874600082015250565b600061529d6020836147f3565b91506152a882615267565b602082019050919050565b600060208201905081810360008301526152cc81615290565b9050919050565b600081905092915050565b7f416363657373436f6e74726f6c3a206163636f756e7420000000000000000000600082015250565b60006153146017836152d3565b915061531f826152de565b601782019050919050565b600081519050919050565b60005b83811015615353578082015181840152602081019050615338565b60008484015250505050565b600061536a8261532a565b61537481856152d3565b9350615384818560208601615335565b80840191505092915050565b7f206973206d697373696e6720726f6c6520000000000000000000000000000000600082015250565b60006153c66011836152d3565b91506153d182615390565b601182019050919050565b60006153e782615307565b91506153f3828561535f565b91506153fe826153b9565b915061540a828461535f565b91508190509392505050565b6000601f19601f8301169050919050565b60006154328261532a565b61543c81856147f3565b935061544c818560208601615335565b61545581615416565b840191505092915050565b6000602082019050818103600083015261547a8184615427565b905092915050565b7f6475706c69636174656420706f6f6c0000000000000000000000000000000000600082015250565b60006154b8600f836147f3565b91506154c382615482565b602082019050919050565b600060208201905081810360008301526154e7816154ab565b9050919050565b600060808201905061550360008301876140f7565b61551060208301866140f7565b61551d60408301856141ea565b61552a60608301846140f7565b95945050505050565b7f4e487b7100000000000000000000000000000000000000000000000000000000600052604160045260246000fd5b600061556d826140ed565b9150600082036155805761557f61490b565b5b600182039050919050565b7f537472696e67733a20686578206c656e67746820696e73756666696369656e74600082015250565b60006155c16020836147f3565b91506155cc8261558b565b602082019050919050565b600060208201905081810360008301526155f0816155b4565b905091905056fea26469706673582212203af410e08581b1d88c6cd275436f5b7bb34019f9e33c8f3716451faa7154c31e64736f6c63430008110033",
  "immutableReferences": {
    "35502": [
      {
        "length": 32,
        "start": 14012
      }
    ]
  },
  "source": "// SPDX-License-Identifier: MIT\n\npragma solidity >=0.8.0;\nimport '@openzeppelin/contracts/access/AccessControl.sol';\nimport '@openzeppelin/contracts/security/Pausable.sol';\nimport '@openzeppelin/contracts/security/ReentrancyGuard.sol';\nimport '../tokens/SoulPower.sol';\nimport '../tokens/SeanceCircle.sol';\nimport '../interfaces/IMigrator.sol';\n\n// the summoner of souls | ownership transferred to a governance smart contract \n// upon sufficient distribution + the community's desire to self-govern.\n\ncontract SoulSummonerFantom is AccessControl, Pausable, ReentrancyGuard {\n\n    // user info\n    struct Users {\n        uint amount;           // total tokens user has provided.\n        uint rewardDebt;       // reward debt (see below).\n        uint rewardDebtAtTime; // the last time user stake.\n        uint lastWithdrawTime; // the last time a user withdrew at.\n        uint firstDepositTime; // the last time a user deposited at.\n        uint timeDelta;        // time passed since withdrawals.\n        uint lastDepositTime;  // most recent deposit time.\n\n        //   pending reward = (user.amount * pool.accSoulPerShare) - user.rewardDebt\n\n        // the following occurs when a user +/- tokens to a pool:\n        //   1. pool: `accSoulPerShare` and `lastRewardTime` update.\n        //   2. user: receives pending reward.\n        //   3. user: `amount` updates(+/-).\n        //   4. user: `rewardDebt` updates (+/-).\n    }\n\n    // pool info\n    struct Pools {\n        IERC20 lpToken;       // lp token ierc20 contract.\n        uint allocPoint;      // allocation points assigned to this pool | SOULs to distribute per second.\n        uint lastRewardTime;  // most recent UNIX timestamp during which SOULs distribution occurred in the pool.\n        uint accSoulPerShare; // accumulated SOULs per share, times 1e12.\n    }\n\n    // soul power: our native utility token\n    address private soulAddress;\n    SoulPower public soul;\n    \n    // seance circle: our governance token\n    address private seanceAddress;\n    SeanceCircle public seance;\n\n    address public team; // receives 1/8 soul supply\n    address public dao; // recieves 1/8 soul supply\n    address public supreme; // has supreme role\n\n    // migrator contract | has lotsa power\n    IMigrator public migrator;\n\n    // blockchain variables accounting for share of overall emissions\n    uint public totalWeight;\n    uint public weight;\n\n    // soul x day x this.chain\n    uint public dailySoul; // = weight * 250K * 1e18;\n\n    // soul x second x this.chain\n    uint public soulPerSecond; // = dailySoul / 86400;\n\n    // bonus muliplier for early soul summoners\n    uint public bonusMultiplier = 1;\n\n    // timestamp when soul rewards began (initialized)\n    uint public startTime;\n\n    // ttl allocation points | must be the sum of all allocation points\n    uint public totalAllocPoint;\n\n    // summoner initialized state.\n    bool public isInitialized;\n\n    // decay rate on withdrawal fee of 1%.\n    uint public immutable dailyDecay = enWei(1);\n\n    // start rate for the withdrawal fee.\n    uint public startRate;\n\n    Pools[] public poolInfo; // pool info\n    mapping (uint => mapping (address => Users)) public userInfo; // staker data\n\n    // divinated roles\n    bytes32 public isis; // soul summoning goddess of magic\n    bytes32 public maat; // goddess of cosmic order\n\n    event RoleDivinated(bytes32 role, bytes32 supreme);\n\n    // restricted to the council of the role passed as an object to obey (role)\n    modifier obey(bytes32 role) {\n        _checkRole(role, _msgSender());\n        _;\n    }\n\n    // prevents: early reward distribution\n    modifier isSummoned {\n        require(isInitialized, 'rewards have not yet begun');\n        _;\n    }\n\n    event Deposit(address indexed user, uint indexed pid, uint amount);\n    event Withdraw(address indexed user, uint indexed pid, uint amount, uint timeStamp);\n\n    event Initialized(address team, address dao, address soul, address seance, uint totalAllocPoint, uint weight);\n    event PoolAdded(uint pid, uint allocPoint, IERC20 lpToken, uint totalAllocPoint);\n    event PoolSet(uint pid, uint allocPoint);\n\n    event WeightUpdated(uint weight, uint totalWeight);\n    event RewardsUpdated(uint dailySoul, uint soulPerSecond);\n    event StartRateUpdated(uint startRate);\n\n    event AccountsUpdated(address dao, address team, address admin);\n    event TokensUpdated(address soul, address seance);\n    event DepositRevised(uint _pid, address _user, uint _time);\n\n    // validates: pool exists\n    modifier validatePoolByPid(uint pid) {\n        require(pid < poolInfo.length, 'pool does not exist');\n        _;\n    }\n\n    // channels the power of the isis and ma'at to the deployer (deployer)\n    constructor() {\n        supreme = 0x81Dd37687c74Df8F957a370A9A4435D873F5e5A9;    // multi-sig safe\n        team = 0x36d0164e87B58427c4153c089aeDDa8Ec0B80B9D;      // team wallet\n        dao = 0x1C63C726926197BD3CB75d86bCFB1DaeBcD87250;      // dao treasury (multi-sig)\n\n        isis = keccak256(\"isis\"); // goddess of magic who creates pools\n        maat = keccak256(\"maat\"); // goddess of cosmic order who allocates emissions\n\n        _divinationCeremony(DEFAULT_ADMIN_ROLE, DEFAULT_ADMIN_ROLE, supreme);\n        _divinationCeremony(isis, isis, supreme); // isis role created -- supreme divined admin\n        _divinationCeremony(maat, isis, dao); // maat role created -- isis divined admin\n    } \n\n    function _divinationCeremony(bytes32 _role, bytes32 _adminRole, address _account) \n        internal returns (bool) {\n            _setupRole(_role, _account);\n            _setRoleAdmin(_role, _adminRole);\n        return true;\n    }\n\n    // validate: pool uniqueness to eliminate duplication risk (internal view)\n    function checkPoolDuplicate(IERC20 _token) internal view {\n        uint length = poolInfo.length;\n\n        for (uint pid = 0; pid < length; ++pid) {\n            require(poolInfo[pid].lpToken != _token, 'duplicated pool');\n        }\n    }\n\n    // activates: rewards (owner)\n    function initialize() external obey(isis) {\n        require(!isInitialized, 'already initialized');\n\n        soulAddress = 0xe2fb177009FF39F52C0134E8007FA0e4BaAcBd07;\n        seanceAddress = 0x124B06C5ce47De7A6e9EFDA71a946717130079E6;\n\n        // [required]: update global constants\n        startTime = block.timestamp;\n        totalWeight = 1000;\n        weight = 1000;\n        startRate = enWei(14);\n        uint allocPoint = 1000;\n        soul  = SoulPower(soulAddress);\n        seance = SeanceCircle(seanceAddress);\n\n        // updates: dailySoul and soulPerSecond\n        updateRewards(weight, totalWeight); \n\n        // adds: staking pool\n        poolInfo.push(Pools({\n            lpToken: soul,\n            allocPoint: allocPoint,\n            lastRewardTime: startTime,\n            accSoulPerShare: 0\n        }));\n\n        isInitialized = true;           // triggers: initialize state\n        totalAllocPoint += allocPoint; // kickstarts: total allocation\n\n        emit Initialized(team, dao, soulAddress, seanceAddress, totalAllocPoint, weight);\n    }\n\n    // returns: amount of pools\n    function poolLength() external view returns (uint) { return poolInfo.length; }\n\n    // add: new pool (isis)\n    function addPool(uint _allocPoint, IERC20 _lpToken, bool _withUpdate) \n        public isSummoned obey(isis) { // isis: the soul summoning goddess whose power transcends them all\n            checkPoolDuplicate(_lpToken);\n            _addPool(_allocPoint, _lpToken, _withUpdate);\n    }\n\n    // add: new pool (internal)\n    function _addPool(uint _allocPoint, IERC20 _lpToken, bool _withUpdate) internal {\n        if (_withUpdate) { massUpdatePools(); }\n\n        totalAllocPoint += _allocPoint;\n        \n        poolInfo.push(\n        Pools({\n            lpToken: _lpToken,\n            allocPoint: _allocPoint,\n            lastRewardTime: block.timestamp > startTime ? block.timestamp : startTime,\n            accSoulPerShare: 0\n        }));\n        \n        updateStakingPool();\n        uint pid = poolInfo.length;\n\n        emit PoolAdded(pid, _allocPoint, _lpToken, totalAllocPoint);\n    }\n\n    // set: allocation points (maat)\n    function set(uint pid, uint allocPoint, bool withUpdate) \n        external isSummoned validatePoolByPid(pid) obey(maat) {\n            if (withUpdate) { massUpdatePools(); } // updates all pools\n            \n            uint prevAllocPoint = poolInfo[pid].allocPoint;\n            poolInfo[pid].allocPoint = allocPoint;\n            \n            if (prevAllocPoint != allocPoint) {\n                totalAllocPoint = totalAllocPoint - prevAllocPoint + allocPoint;\n                \n                updateStakingPool(); // updates only selected pool\n        }\n\n        emit PoolSet(pid, allocPoint);\n    }\n\n    // set: migrator contract (isis)\n    function setMigrator(IMigrator _migrator) external isSummoned obey(isis) {\n        migrator = _migrator;\n    }\n\n    // view: user delta\n\tfunction userDelta(uint256 _pid, address _user) public view returns (uint256 delta) {\n        Users memory user = userInfo[_pid][_user];\n\n        return user.lastWithdrawTime > 0\n            ? block.timestamp - user.lastWithdrawTime\n            : block.timestamp - user.firstDepositTime;\n\t}\n\n    // migrate: lp tokens to another contract (migrator)\n    function migrate(uint pid) external isSummoned validatePoolByPid(pid) {\n        require(address(migrator) != address(0), 'no migrator set');\n        Pools storage pool = poolInfo[pid];\n        IERC20 lpToken = pool.lpToken;\n\n        uint bal = lpToken.balanceOf(address(this));\n        lpToken.approve(address(migrator), bal);\n        IERC20 _lpToken = migrator.migrate(lpToken);\n        \n        require(bal == _lpToken.balanceOf(address(this)), \"migrate: insufficient balance\");\n        pool.lpToken = _lpToken;\n    }\n\n    // view: bonus multiplier (public view)\n    function getMultiplier(uint from, uint to) public view returns (uint) {\n        return (to - from) * bonusMultiplier;\n    }\n\n    // returns: decay rate for a pid (public view)\n    function getFeeRate(uint pid, uint timeDelta) public view returns (uint feeRate) {\n        uint daysPassed = timeDelta < 1 days ? 0 : timeDelta / 1 days;\n        uint rateDecayed = enWei(daysPassed);\n        uint _rate = rateDecayed >= startRate ? 0 : startRate - rateDecayed;\n        \n        // returns 0 for SAS\n        return pid == 0 ? 0 : _rate;\n    }\n\n    // returns: feeAmount and with withdrawableAmount for a given pid and amount\n    function getWithdrawable(uint pid, uint timeDelta, uint amount) public view returns (uint _feeAmount, uint _withdrawable) {\n        uint feeRate = fromWei(getFeeRate(pid, timeDelta));\n        uint feeAmount = (amount * feeRate) / 100;\n        uint withdrawable = amount - feeAmount;\n\n        return (feeAmount, withdrawable);\n    }\n\n    // view: pending soul rewards (external)\n    function pendingSoul(uint pid, address _user) external view returns (uint pendingAmount) {\n        Pools storage pool = poolInfo[pid];\n        Users storage user = userInfo[pid][_user];\n\n        uint accSoulPerShare = pool.accSoulPerShare;\n        uint lpSupply = pool.lpToken.balanceOf(address(this));\n\n        if (block.timestamp > pool.lastRewardTime && lpSupply != 0) {\n            uint multiplier = getMultiplier(pool.lastRewardTime, block.timestamp);\n            uint soulReward = multiplier * soulPerSecond * pool.allocPoint / totalAllocPoint;\n            accSoulPerShare = accSoulPerShare + soulReward * 1e12 / lpSupply;\n        }\n\n        return user.amount * accSoulPerShare / 1e12 - user.rewardDebt;\n    }\n\n    // update: rewards for all pools (public)\n    function massUpdatePools() public {\n        uint length = poolInfo.length;\n        for (uint pid = 0; pid < length; ++pid) { updatePool(pid); }\n    }\n\n    // update: rewards for a given pool id (public)\n    function updatePool(uint pid) public validatePoolByPid(pid) {\n        Pools storage pool = poolInfo[pid];\n\n        if (block.timestamp <= pool.lastRewardTime) { return; }\n        uint lpSupply = pool.lpToken.balanceOf(address(this));\n\n        if (lpSupply == 0) { pool.lastRewardTime = block.timestamp; return; } // first staker in pool\n\n        uint multiplier = getMultiplier(pool.lastRewardTime, block.timestamp);\n        uint soulReward = multiplier * soulPerSecond * pool.allocPoint / totalAllocPoint;\n        \n        uint divi = soulReward * 1e12 / 8e12;   // 12.5% rewards\n        uint divis = divi * 2;                  // total divis\n        uint shares = soulReward - divis;       // net shares\n        \n        soul.mint(team, divi);\n        soul.mint(dao, divi);\n        soul.mint(address(seance), shares);\n\n        pool.accSoulPerShare = pool.accSoulPerShare + (soulReward * 1e12 / lpSupply);\n        pool.lastRewardTime = block.timestamp;\n    }\n\n    // deposit: lp tokens (lp owner)\n    function deposit(uint pid, uint amount) external nonReentrant validatePoolByPid(pid) whenNotPaused {\n        require (pid != 0, 'deposit SOUL by staking');\n\n        Pools storage pool = poolInfo[pid];\n        Users storage user = userInfo[pid][msg.sender];\n        updatePool(pid);\n\n        if (user.amount > 0) { // already deposited assets\n            uint pending = (user.amount * pool.accSoulPerShare) / 1e12 - user.rewardDebt;\n            if(pending > 0) { // sends pending rewards, if applicable\n                safeSoulTransfer(msg.sender, pending);\n            }\n        }\n\n        if (amount > 0) { // if adding more\n            pool.lpToken.transferFrom(address(msg.sender), address(this), amount);\n            user.amount += amount;\n        }\n\n        user.rewardDebt = user.amount * pool.accSoulPerShare / 1e12;\n\n        // marks timestamp for first deposit\n        user.firstDepositTime = \n            user.firstDepositTime > 0 \n                ? user.firstDepositTime\n                : block.timestamp;\n\n        emit Deposit(msg.sender, pid, amount);\n    }\n\n    // withdraw: lp tokens (external farmers)\n    function withdraw(uint pid, uint amount) external nonReentrant validatePoolByPid(pid) {\n        require (pid != 0, 'withdraw SOUL by unstaking');\n        Pools storage pool = poolInfo[pid];\n        Users storage user = userInfo[pid][msg.sender];\n\n        require(user.amount >= amount, 'withdraw not good');\n        updatePool(pid);\n\n        uint pending = user.amount * pool.accSoulPerShare / 1e12 - user.rewardDebt;\n\n        if(pending > 0) { safeSoulTransfer(msg.sender, pending); }\n\n        if(amount > 0) {\n            if(user.lastDepositTime > 0){\n\t\t\t\tuser.timeDelta = block.timestamp - user.lastDepositTime; }\n\t\t\telse { user.timeDelta = block.timestamp - user.firstDepositTime; }\n            \n            user.amount = user.amount - amount;\n            \n        }\n        \n        uint timeDelta = userInfo[pid][msg.sender].timeDelta;\n        (, uint withdrawable) = getWithdrawable(pid, timeDelta, amount); // removes feeAmount from amount\n        uint feeAmount = amount - withdrawable;\n\n        pool.lpToken.transfer(address(dao), feeAmount);\n        pool.lpToken.transfer(address(msg.sender), withdrawable);\n\n        user.rewardDebt = user.amount * pool.accSoulPerShare / 1e12;\n        user.lastWithdrawTime = block.timestamp;\n\n        emit Withdraw(msg.sender, pid, amount, block.timestamp);\n    }\n\n    // stake: soul into summoner (external)\n    function enterStaking(uint amount) external nonReentrant whenNotPaused {\n        Pools storage pool = poolInfo[0];\n        Users storage user = userInfo[0][msg.sender];\n        updatePool(0);\n\n        if (user.amount > 0) {\n            uint pending = user.amount * pool.accSoulPerShare / 1e12 - user.rewardDebt;\n            if(pending > 0) {\n                safeSoulTransfer(msg.sender, pending);\n            }\n        } \n        \n        if(amount > 0) {\n            pool.lpToken.transferFrom(address(msg.sender), address(this), amount);\n            user.amount = user.amount + amount;\n        }\n\n        // marks timestamp for first deposit\n        user.firstDepositTime = \n            user.firstDepositTime > 0 \n                ? user.firstDepositTime\n                : block.timestamp;\n\n        user.rewardDebt = user.amount * pool.accSoulPerShare / 1e12;\n\n        seance.mint(msg.sender, amount);\n        emit Deposit(msg.sender, 0, amount);\n    }\n\n    // unstake: your soul (external staker)\n    function leaveStaking(uint amount) external nonReentrant {\n        Pools storage pool = poolInfo[0];\n        Users storage user = userInfo[0][msg.sender];\n\n        require(user.amount >= amount, \"withdraw: not good\");\n        updatePool(0);\n\n        uint pending = user.amount * pool.accSoulPerShare / 1e12 - user.rewardDebt;\n\n        if(pending > 0) {\n            safeSoulTransfer(msg.sender, pending);\n        }\n\n        if(amount > 0) {\n            user.amount = user.amount - amount;\n            pool.lpToken.transfer(address(msg.sender), amount);\n        }\n\n        user.rewardDebt = user.amount * pool.accSoulPerShare / 1e12;\n        user.lastWithdrawTime = block.timestamp;\n        \n        seance.burn(msg.sender, amount);\n        emit Withdraw(msg.sender, 0, amount, block.timestamp);\n    }\n    \n    // transfer: seance (internal)\n    function safeSoulTransfer(address account, uint amount) internal {\n        seance.safeSoulTransfer(account, amount);\n    }\n\n    // ** UPDATE FUNCTIONS ** // \n\n    // update: weight (maat)\n    function updateWeights(uint _weight, uint _totalWeight) external obey(maat) {\n        require(weight != _weight || totalWeight != _totalWeight, 'must be at least one new value');\n        require(_totalWeight >= _weight, 'weight cannot exceed totalWeight');\n\n        weight = _weight;     \n        totalWeight = _totalWeight;\n\n        updateRewards(weight, totalWeight);\n\n        emit WeightUpdated(weight, totalWeight);\n    }\n\n    // update: staking pool (internal)\n    function updateStakingPool() internal {\n        uint length = poolInfo.length;\n        uint points;\n        \n        for (uint pid = 1; pid < length; ++pid) { \n            points = points + poolInfo[pid].allocPoint; \n        }\n\n        if (points != 0) {\n            points = points / 3;\n            totalAllocPoint = totalAllocPoint - poolInfo[0].allocPoint + points;\n            poolInfo[0].allocPoint = points;\n        }\n    }\n\n    // update: multiplier (maat)\n    function updateMultiplier(uint _bonusMultiplier) external obey(maat) {\n        bonusMultiplier = _bonusMultiplier;\n    }\n\n    // update: rewards (internal)\n    function updateRewards(uint _weight, uint _totalWeight) internal {\n        uint share = enWei(_weight) / _totalWeight; // share of ttl emissions for chain (chain % ttl emissions)\n        \n        dailySoul = share * (250_000); // dailySoul (for this.chain) = share (%) x 250K (soul emissions constant)\n        soulPerSecond = dailySoul / 1 days; // updates: daily rewards expressed in seconds (1 days = 86,400 secs)\n\n        emit RewardsUpdated(dailySoul, soulPerSecond);\n    }\n\n    // update: startRate (maat)\n    function updateStartRate(uint _startRate) public obey(maat) {\n        require(startRate != enWei(_startRate));\n        startRate = enWei(_startRate);\n        \n        emit StartRateUpdated(startRate);\n    }\n\n    // update accounts: dao, team, and supreme addresses (isis)\n    function updateAccounts(address _dao, address _team, address _supreme) external obey(isis) {\n        require(dao != _dao || team != _team || supreme != _supreme, 'must be a new account');\n\n        dao = _dao;\n        team = _team;\n        supreme = _supreme;\n\n        emit AccountsUpdated(dao, team, supreme);\n    }\n\n    // update tokens: soul and seance addresses (isis)\n    function updateTokens(address _soul, address _seance) external obey(isis) {\n        require(soul != IERC20(_soul) || seance != IERC20(_seance), 'must be a new token address');\n\n        soul = SoulPower(_soul);\n        seance = SeanceCircle(_seance);\n\n        emit TokensUpdated(_soul, _seance);\n    }\n\n    // manual override to reassign the first deposit time for a given (pid, account)\n    function reviseDeposit(uint _pid, address _user, uint256 _time) public obey(maat) {\n        Users storage user = userInfo[_pid][_user];\n        user.firstDepositTime = _time;\n\n        emit DepositRevised(_pid, _user, _time);\n\t}\n\n    // ** HELPER FUNCTIONS ** // \n\n    // helper functions to convert to wei and 1/100th\n    function enWei(uint amount) public pure returns (uint) {  return amount * 1e18; }\n    function fromWei(uint amount) public pure returns (uint) { return amount / 1e18; }\n}\n",
  "sourcePath": "/Users/buns/Documents/GitHub/SoulSwapFinance/soulswap-farms/contracts/rewards/SoulSummonerFantom.sol",
  "compiler": {
    "name": "solc",
    "version": "0.8.17+commit.8df45f5f.Emscripten.clang"
  },
  "schemaVersion": "3.4.1",
  "updatedAt": "2022-10-01T21:51:30.498Z",
  "devdoc": {
    "kind": "dev",
    "methods": {
      "getRoleAdmin(bytes32)": {
        "details": "Returns the admin role that controls `role`. See {grantRole} and {revokeRole}. To change a role's admin, use {_setRoleAdmin}."
      },
      "grantRole(bytes32,address)": {
        "details": "Grants `role` to `account`. If `account` had not been already granted `role`, emits a {RoleGranted} event. Requirements: - the caller must have ``role``'s admin role."
      },
      "hasRole(bytes32,address)": {
        "details": "Returns `true` if `account` has been granted `role`."
      },
      "paused()": {
        "details": "Returns true if the contract is paused, and false otherwise."
      },
      "renounceRole(bytes32,address)": {
        "details": "Revokes `role` from the calling account. Roles are often managed via {grantRole} and {revokeRole}: this function's purpose is to provide a mechanism for accounts to lose their privileges if they are compromised (such as when a trusted device is misplaced). If the calling account had been granted `role`, emits a {RoleRevoked} event. Requirements: - the caller must be `account`."
      },
      "revokeRole(bytes32,address)": {
        "details": "Revokes `role` from `account`. If `account` had been granted `role`, emits a {RoleRevoked} event. Requirements: - the caller must have ``role``'s admin role."
      },
      "supportsInterface(bytes4)": {
        "details": "See {IERC165-supportsInterface}."
      }
    },
    "version": 1
  },
  "userdoc": {
    "kind": "user",
    "methods": {},
    "version": 1
  }
}