{
  "contractName": "SoulPower",
  "abi": [
    {
      "inputs": [],
      "stateMutability": "nonpayable",
      "type": "constructor"
    },
    {
      "anonymous": false,
      "inputs": [
        {
          "indexed": true,
          "internalType": "address",
          "name": "owner",
          "type": "address"
        },
        {
          "indexed": true,
          "internalType": "address",
          "name": "spender",
          "type": "address"
        },
        {
          "indexed": false,
          "internalType": "uint256",
          "name": "value",
          "type": "uint256"
        }
      ],
      "name": "Approval",
      "type": "event"
    },
    {
      "anonymous": false,
      "inputs": [
        {
          "indexed": true,
          "internalType": "address",
          "name": "delegator",
          "type": "address"
        },
        {
          "indexed": true,
          "internalType": "address",
          "name": "fromDelegate",
          "type": "address"
        },
        {
          "indexed": true,
          "internalType": "address",
          "name": "toDelegate",
          "type": "address"
        }
      ],
      "name": "DelegateChanged",
      "type": "event"
    },
    {
      "anonymous": false,
      "inputs": [
        {
          "indexed": true,
          "internalType": "address",
          "name": "delegate",
          "type": "address"
        },
        {
          "indexed": false,
          "internalType": "uint256",
          "name": "previousBalance",
          "type": "uint256"
        },
        {
          "indexed": false,
          "internalType": "uint256",
          "name": "newBalance",
          "type": "uint256"
        }
      ],
      "name": "DelegateVotesChanged",
      "type": "event"
    },
    {
      "anonymous": false,
      "inputs": [
        {
          "indexed": false,
          "internalType": "address",
          "name": "supreme",
          "type": "address"
        }
      ],
      "name": "NewSupreme",
      "type": "event"
    },
    {
      "anonymous": false,
      "inputs": [
        {
          "indexed": false,
          "internalType": "bytes32",
          "name": "role",
          "type": "bytes32"
        },
        {
          "indexed": false,
          "internalType": "address",
          "name": "oldAccount",
          "type": "address"
        },
        {
          "indexed": false,
          "internalType": "address",
          "name": "newAccount",
          "type": "address"
        }
      ],
      "name": "Rethroned",
      "type": "event"
    },
    {
      "anonymous": false,
      "inputs": [
        {
          "indexed": true,
          "internalType": "bytes32",
          "name": "role",
          "type": "bytes32"
        },
        {
          "indexed": true,
          "internalType": "bytes32",
          "name": "previousAdminRole",
          "type": "bytes32"
        },
        {
          "indexed": true,
          "internalType": "bytes32",
          "name": "newAdminRole",
          "type": "bytes32"
        }
      ],
      "name": "RoleAdminChanged",
      "type": "event"
    },
    {
      "anonymous": false,
      "inputs": [
        {
          "indexed": true,
          "internalType": "bytes32",
          "name": "role",
          "type": "bytes32"
        },
        {
          "indexed": true,
          "internalType": "address",
          "name": "account",
          "type": "address"
        },
        {
          "indexed": true,
          "internalType": "address",
          "name": "sender",
          "type": "address"
        }
      ],
      "name": "RoleGranted",
      "type": "event"
    },
    {
      "anonymous": false,
      "inputs": [
        {
          "indexed": true,
          "internalType": "bytes32",
          "name": "role",
          "type": "bytes32"
        },
        {
          "indexed": true,
          "internalType": "address",
          "name": "account",
          "type": "address"
        },
        {
          "indexed": true,
          "internalType": "address",
          "name": "sender",
          "type": "address"
        }
      ],
      "name": "RoleRevoked",
      "type": "event"
    },
    {
      "anonymous": false,
      "inputs": [
        {
          "indexed": true,
          "internalType": "address",
          "name": "from",
          "type": "address"
        },
        {
          "indexed": true,
          "internalType": "address",
          "name": "to",
          "type": "address"
        },
        {
          "indexed": false,
          "internalType": "uint256",
          "name": "value",
          "type": "uint256"
        }
      ],
      "name": "Transfer",
      "type": "event"
    },
    {
      "inputs": [],
      "name": "DEFAULT_ADMIN_ROLE",
      "outputs": [
        {
          "internalType": "bytes32",
          "name": "",
          "type": "bytes32"
        }
      ],
      "stateMutability": "view",
      "type": "function",
      "constant": true
    },
    {
      "inputs": [],
      "name": "DELEGATION_TYPEHASH",
      "outputs": [
        {
          "internalType": "bytes32",
          "name": "",
          "type": "bytes32"
        }
      ],
      "stateMutability": "view",
      "type": "function",
      "constant": true
    },
    {
      "inputs": [],
      "name": "DOMAIN_TYPEHASH",
      "outputs": [
        {
          "internalType": "bytes32",
          "name": "",
          "type": "bytes32"
        }
      ],
      "stateMutability": "view",
      "type": "function",
      "constant": true
    },
    {
      "inputs": [
        {
          "internalType": "address",
          "name": "owner",
          "type": "address"
        },
        {
          "internalType": "address",
          "name": "spender",
          "type": "address"
        }
      ],
      "name": "allowance",
      "outputs": [
        {
          "internalType": "uint256",
          "name": "",
          "type": "uint256"
        }
      ],
      "stateMutability": "view",
      "type": "function",
      "constant": true
    },
    {
      "inputs": [],
      "name": "anunnaki",
      "outputs": [
        {
          "internalType": "bytes32",
          "name": "",
          "type": "bytes32"
        }
      ],
      "stateMutability": "view",
      "type": "function",
      "constant": true
    },
    {
      "inputs": [
        {
          "internalType": "address",
          "name": "spender",
          "type": "address"
        },
        {
          "internalType": "uint256",
          "name": "amount",
          "type": "uint256"
        }
      ],
      "name": "approve",
      "outputs": [
        {
          "internalType": "bool",
          "name": "",
          "type": "bool"
        }
      ],
      "stateMutability": "nonpayable",
      "type": "function"
    },
    {
      "inputs": [
        {
          "internalType": "address",
          "name": "account",
          "type": "address"
        }
      ],
      "name": "balanceOf",
      "outputs": [
        {
          "internalType": "uint256",
          "name": "",
          "type": "uint256"
        }
      ],
      "stateMutability": "view",
      "type": "function",
      "constant": true
    },
    {
      "inputs": [
        {
          "internalType": "address",
          "name": "",
          "type": "address"
        },
        {
          "internalType": "uint256",
          "name": "",
          "type": "uint256"
        }
      ],
      "name": "checkpoints",
      "outputs": [
        {
          "internalType": "uint256",
          "name": "fromTime",
          "type": "uint256"
        },
        {
          "internalType": "uint256",
          "name": "votes",
          "type": "uint256"
        }
      ],
      "stateMutability": "view",
      "type": "function",
      "constant": true
    },
    {
      "inputs": [],
      "name": "decimals",
      "outputs": [
        {
          "internalType": "uint8",
          "name": "",
          "type": "uint8"
        }
      ],
      "stateMutability": "view",
      "type": "function",
      "constant": true
    },
    {
      "inputs": [
        {
          "internalType": "address",
          "name": "spender",
          "type": "address"
        },
        {
          "internalType": "uint256",
          "name": "subtractedValue",
          "type": "uint256"
        }
      ],
      "name": "decreaseAllowance",
      "outputs": [
        {
          "internalType": "bool",
          "name": "",
          "type": "bool"
        }
      ],
      "stateMutability": "nonpayable",
      "type": "function"
    },
    {
      "inputs": [
        {
          "internalType": "bytes32",
          "name": "role",
          "type": "bytes32"
        }
      ],
      "name": "getRoleAdmin",
      "outputs": [
        {
          "internalType": "bytes32",
          "name": "",
          "type": "bytes32"
        }
      ],
      "stateMutability": "view",
      "type": "function",
      "constant": true
    },
    {
      "inputs": [
        {
          "internalType": "bytes32",
          "name": "role",
          "type": "bytes32"
        },
        {
          "internalType": "address",
          "name": "account",
          "type": "address"
        }
      ],
      "name": "grantRole",
      "outputs": [],
      "stateMutability": "nonpayable",
      "type": "function"
    },
    {
      "inputs": [
        {
          "internalType": "bytes32",
          "name": "role",
          "type": "bytes32"
        },
        {
          "internalType": "address",
          "name": "account",
          "type": "address"
        }
      ],
      "name": "hasRole",
      "outputs": [
        {
          "internalType": "bool",
          "name": "",
          "type": "bool"
        }
      ],
      "stateMutability": "view",
      "type": "function",
      "constant": true
    },
    {
      "inputs": [
        {
          "internalType": "address",
          "name": "spender",
          "type": "address"
        },
        {
          "internalType": "uint256",
          "name": "addedValue",
          "type": "uint256"
        }
      ],
      "name": "increaseAllowance",
      "outputs": [
        {
          "internalType": "bool",
          "name": "",
          "type": "bool"
        }
      ],
      "stateMutability": "nonpayable",
      "type": "function"
    },
    {
      "inputs": [],
      "name": "name",
      "outputs": [
        {
          "internalType": "string",
          "name": "",
          "type": "string"
        }
      ],
      "stateMutability": "view",
      "type": "function",
      "constant": true
    },
    {
      "inputs": [
        {
          "internalType": "address",
          "name": "",
          "type": "address"
        }
      ],
      "name": "nonces",
      "outputs": [
        {
          "internalType": "uint256",
          "name": "",
          "type": "uint256"
        }
      ],
      "stateMutability": "view",
      "type": "function",
      "constant": true
    },
    {
      "inputs": [
        {
          "internalType": "address",
          "name": "",
          "type": "address"
        }
      ],
      "name": "numCheckpoints",
      "outputs": [
        {
          "internalType": "uint256",
          "name": "",
          "type": "uint256"
        }
      ],
      "stateMutability": "view",
      "type": "function",
      "constant": true
    },
    {
      "inputs": [
        {
          "internalType": "bytes32",
          "name": "role",
          "type": "bytes32"
        },
        {
          "internalType": "address",
          "name": "account",
          "type": "address"
        }
      ],
      "name": "renounceRole",
      "outputs": [],
      "stateMutability": "nonpayable",
      "type": "function"
    },
    {
      "inputs": [
        {
          "internalType": "bytes32",
          "name": "role",
          "type": "bytes32"
        },
        {
          "internalType": "address",
          "name": "account",
          "type": "address"
        }
      ],
      "name": "revokeRole",
      "outputs": [],
      "stateMutability": "nonpayable",
      "type": "function"
    },
    {
      "inputs": [
        {
          "internalType": "bytes4",
          "name": "interfaceId",
          "type": "bytes4"
        }
      ],
      "name": "supportsInterface",
      "outputs": [
        {
          "internalType": "bool",
          "name": "",
          "type": "bool"
        }
      ],
      "stateMutability": "view",
      "type": "function",
      "constant": true
    },
    {
      "inputs": [],
      "name": "supreme",
      "outputs": [
        {
          "internalType": "address",
          "name": "",
          "type": "address"
        }
      ],
      "stateMutability": "view",
      "type": "function",
      "constant": true
    },
    {
      "inputs": [],
      "name": "symbol",
      "outputs": [
        {
          "internalType": "string",
          "name": "",
          "type": "string"
        }
      ],
      "stateMutability": "view",
      "type": "function",
      "constant": true
    },
    {
      "inputs": [],
      "name": "thoth",
      "outputs": [
        {
          "internalType": "bytes32",
          "name": "",
          "type": "bytes32"
        }
      ],
      "stateMutability": "view",
      "type": "function",
      "constant": true
    },
    {
      "inputs": [],
      "name": "totalSupply",
      "outputs": [
        {
          "internalType": "uint256",
          "name": "",
          "type": "uint256"
        }
      ],
      "stateMutability": "view",
      "type": "function",
      "constant": true
    },
    {
      "inputs": [
        {
          "internalType": "address",
          "name": "recipient",
          "type": "address"
        },
        {
          "internalType": "uint256",
          "name": "amount",
          "type": "uint256"
        }
      ],
      "name": "transfer",
      "outputs": [
        {
          "internalType": "bool",
          "name": "",
          "type": "bool"
        }
      ],
      "stateMutability": "nonpayable",
      "type": "function"
    },
    {
      "inputs": [
        {
          "internalType": "address",
          "name": "sender",
          "type": "address"
        },
        {
          "internalType": "address",
          "name": "recipient",
          "type": "address"
        },
        {
          "internalType": "uint256",
          "name": "amount",
          "type": "uint256"
        }
      ],
      "name": "transferFrom",
      "outputs": [
        {
          "internalType": "bool",
          "name": "",
          "type": "bool"
        }
      ],
      "stateMutability": "nonpayable",
      "type": "function"
    },
    {
      "inputs": [
        {
          "internalType": "bytes32",
          "name": "role",
          "type": "bytes32"
        },
        {
          "internalType": "address",
          "name": "oldAccount",
          "type": "address"
        },
        {
          "internalType": "address",
          "name": "newAccount",
          "type": "address"
        }
      ],
      "name": "rethroneRitual",
      "outputs": [],
      "stateMutability": "nonpayable",
      "type": "function"
    },
    {
      "inputs": [
        {
          "internalType": "address",
          "name": "_supreme",
          "type": "address"
        }
      ],
      "name": "newSupreme",
      "outputs": [],
      "stateMutability": "nonpayable",
      "type": "function"
    },
    {
      "inputs": [
        {
          "internalType": "bytes32",
          "name": "role",
          "type": "bytes32"
        }
      ],
      "name": "hasDivineRole",
      "outputs": [
        {
          "internalType": "bool",
          "name": "",
          "type": "bool"
        }
      ],
      "stateMutability": "view",
      "type": "function",
      "constant": true
    },
    {
      "inputs": [
        {
          "internalType": "address",
          "name": "_to",
          "type": "address"
        },
        {
          "internalType": "uint256",
          "name": "_amount",
          "type": "uint256"
        }
      ],
      "name": "mint",
      "outputs": [],
      "stateMutability": "nonpayable",
      "type": "function"
    },
    {
      "inputs": [
        {
          "internalType": "uint256",
          "name": "amount",
          "type": "uint256"
        }
      ],
      "name": "burn",
      "outputs": [],
      "stateMutability": "nonpayable",
      "type": "function"
    },
    {
      "inputs": [
        {
          "internalType": "address",
          "name": "account",
          "type": "address"
        },
        {
          "internalType": "uint256",
          "name": "amount",
          "type": "uint256"
        }
      ],
      "name": "burnFrom",
      "outputs": [],
      "stateMutability": "nonpayable",
      "type": "function"
    },
    {
      "inputs": [
        {
          "internalType": "address",
          "name": "delegator",
          "type": "address"
        }
      ],
      "name": "delegates",
      "outputs": [
        {
          "internalType": "address",
          "name": "",
          "type": "address"
        }
      ],
      "stateMutability": "view",
      "type": "function",
      "constant": true
    },
    {
      "inputs": [
        {
          "internalType": "address",
          "name": "delegatee",
          "type": "address"
        }
      ],
      "name": "delegate",
      "outputs": [],
      "stateMutability": "nonpayable",
      "type": "function"
    },
    {
      "inputs": [
        {
          "internalType": "address",
          "name": "delegatee",
          "type": "address"
        },
        {
          "internalType": "uint256",
          "name": "nonce",
          "type": "uint256"
        },
        {
          "internalType": "uint256",
          "name": "expiry",
          "type": "uint256"
        },
        {
          "internalType": "uint8",
          "name": "v",
          "type": "uint8"
        },
        {
          "internalType": "bytes32",
          "name": "r",
          "type": "bytes32"
        },
        {
          "internalType": "bytes32",
          "name": "s",
          "type": "bytes32"
        }
      ],
      "name": "delegateBySig",
      "outputs": [],
      "stateMutability": "nonpayable",
      "type": "function"
    },
    {
      "inputs": [
        {
          "internalType": "address",
          "name": "account",
          "type": "address"
        }
      ],
      "name": "getCurrentVotes",
      "outputs": [
        {
          "internalType": "uint256",
          "name": "",
          "type": "uint256"
        }
      ],
      "stateMutability": "view",
      "type": "function",
      "constant": true
    },
    {
      "inputs": [
        {
          "internalType": "address",
          "name": "account",
          "type": "address"
        },
        {
          "internalType": "uint256",
          "name": "blockTimestamp",
          "type": "uint256"
        }
      ],
      "name": "getPriorVotes",
      "outputs": [
        {
          "internalType": "uint256",
          "name": "",
          "type": "uint256"
        }
      ],
      "stateMutability": "view",
      "type": "function",
      "constant": true
    }
  ],
  "bytecode": "0x60806040523480156200001157600080fd5b506040518060400160405280600981526020017f536f756c506f77657200000000000000000000000000000000000000000000008152506040518060400160405280600481526020017f534f554c0000000000000000000000000000000000000000000000000000000081525081600390805190602001906200009692919062000fa6565b508060049080519060200190620000af92919062000fa6565b50505033600660006101000a81548173ffffffffffffffffffffffffffffffffffffffff021916908373ffffffffffffffffffffffffffffffffffffffff1602179055507f45552d869603260d0572333b5da740bb4eaf623685d53936ee462b64a9a771826007819055507fdffb0b033b8033405f5fb07b08f48c89fa1b4a3d5d5a475c3e2b8df5fbd4da0d6008819055506200017c6000801b6000801b600660009054906101000a900473ffffffffffffffffffffffffffffffffffffffff166200023360201b60201c565b620001b5600754600754600660009054906101000a900473ffffffffffffffffffffffffffffffffffffffff166200023360201b60201c565b620001ee600854600754600660009054906101000a900473ffffffffffffffffffffffffffffffffffffffff166200023360201b60201c565b6200022d600660009054906101000a900473ffffffffffffffffffffffffffffffffffffffff166a295be96e640669720000006200025c60201b60201c565b6200150f565b6200024583826200030a60201b60201c565b6200025783836200032060201b60201c565b505050565b6008546200028081620002746200038460201b60201c565b6200038c60201b60201c565b6200029283836200045060201b60201c565b620003056000600c60008673ffffffffffffffffffffffffffffffffffffffff1673ffffffffffffffffffffffffffffffffffffffff16815260200190815260200160002060009054906101000a900473ffffffffffffffffffffffffffffffffffffffff1684620005c960201b60201c565b505050565b6200031c82826200084660201b60201c565b5050565b600062000333836200093860201b60201c565b90508160056000858152602001908152602001600020600101819055508181847fbd79b86ffe0ab8e8776151514217cd7cacd52c909f66475c3af44e129f0b00ff60405160405180910390a4505050565b600033905090565b6200039e82826200095860201b60201c565b6200044c57620003d18173ffffffffffffffffffffffffffffffffffffffff166014620009c360201b62001a921760201c565b620003ec8360001c6020620009c360201b62001a921760201c565b604051602001620003ff929190620011e7565b6040516020818303038152906040526040517f08c379a000000000000000000000000000000000000000000000000000000000815260040162000443919062001229565b60405180910390fd5b5050565b600073ffffffffffffffffffffffffffffffffffffffff168273ffffffffffffffffffffffffffffffffffffffff161415620004c3576040517f08c379a0000000000000000000000000000000000000000000000000000000008152600401620004ba906200126f565b60405180910390fd5b620004d76000838362000cd260201b60201c565b8060026000828254620004eb919062001302565b92505081905550806000808473ffffffffffffffffffffffffffffffffffffffff1673ffffffffffffffffffffffffffffffffffffffff168152602001908152602001600020600082825462000542919062001302565b925050819055508173ffffffffffffffffffffffffffffffffffffffff16600073ffffffffffffffffffffffffffffffffffffffff167fddf252ad1be2c89b69c2b068fc378daa952ba7f163c4a11628f55a4df523b3ef83604051620005a9919062001291565b60405180910390a3620005c56000838362000cd760201b60201c565b5050565b8173ffffffffffffffffffffffffffffffffffffffff168373ffffffffffffffffffffffffffffffffffffffff1614158015620006065750600081115b156200084157600073ffffffffffffffffffffffffffffffffffffffff168373ffffffffffffffffffffffffffffffffffffffff161462000726576000600a60008573ffffffffffffffffffffffffffffffffffffffff1673ffffffffffffffffffffffffffffffffffffffff168152602001908152602001600020549050600080821162000697576000620006fa565b600960008673ffffffffffffffffffffffffffffffffffffffff1673ffffffffffffffffffffffffffffffffffffffff1681526020019081526020016000206000600184620006e79190620013c0565b8152602001908152602001600020600101545b9050600083826200070c9190620013c0565b9050620007228684848462000cdc60201b60201c565b5050505b600073ffffffffffffffffffffffffffffffffffffffff168273ffffffffffffffffffffffffffffffffffffffff161462000840576000600a60008473ffffffffffffffffffffffffffffffffffffffff1673ffffffffffffffffffffffffffffffffffffffff1681526020019081526020016000205490506000808211620007b157600062000814565b600960008573ffffffffffffffffffffffffffffffffffffffff1673ffffffffffffffffffffffffffffffffffffffff1681526020019081526020016000206000600184620008019190620013c0565b8152602001908152602001600020600101545b90506000838262000826919062001302565b90506200083c8584848462000cdc60201b60201c565b5050505b5b505050565b6200085882826200095860201b60201c565b620009345760016005600084815260200190815260200160002060000160008373ffffffffffffffffffffffffffffffffffffffff1673ffffffffffffffffffffffffffffffffffffffff16815260200190815260200160002060006101000a81548160ff021916908315150217905550620008d96200038460201b60201c565b73ffffffffffffffffffffffffffffffffffffffff168173ffffffffffffffffffffffffffffffffffffffff16837f2f8788117e7eff1d82e926ec794901d17c78024a50270940304540a733656f0d60405160405180910390a45b5050565b600060056000838152602001908152602001600020600101549050919050565b60006005600084815260200190815260200160002060000160008373ffffffffffffffffffffffffffffffffffffffff1673ffffffffffffffffffffffffffffffffffffffff16815260200190815260200160002060009054906101000a900460ff16905092915050565b606060006002836002620009d891906200135f565b620009e4919062001302565b67ffffffffffffffff81111562000a24577f4e487b7100000000000000000000000000000000000000000000000000000000600052604160045260246000fd5b6040519080825280601f01601f19166020018201604052801562000a575781602001600182028036833780820191505090505b5090507f30000000000000000000000000000000000000000000000000000000000000008160008151811062000ab6577f4e487b7100000000000000000000000000000000000000000000000000000000600052603260045260246000fd5b60200101907effffffffffffffffffffffffffffffffffffffffffffffffffffffffffffff1916908160001a9053507f78000000000000000000000000000000000000000000000000000000000000008160018151811062000b41577f4e487b7100000000000000000000000000000000000000000000000000000000600052603260045260246000fd5b60200101907effffffffffffffffffffffffffffffffffffffffffffffffffffffffffffff1916908160001a9053506000600184600262000b8391906200135f565b62000b8f919062001302565b90505b600181111562000c81577f3031323334353637383961626364656600000000000000000000000000000000600f86166010811062000bf9577f4e487b7100000000000000000000000000000000000000000000000000000000600052603260045260246000fd5b1a60f81b82828151811062000c37577f4e487b7100000000000000000000000000000000000000000000000000000000600052603260045260246000fd5b60200101907effffffffffffffffffffffffffffffffffffffffffffffffffffffffffffff1916908160001a905350600485901c94508062000c79906200143b565b905062000b92565b506000841462000cc8576040517f08c379a000000000000000000000000000000000000000000000000000000000815260040162000cbf906200124d565b60405180910390fd5b8091505092915050565b505050565b505050565b600062000d25426040518060400160405280602081526020017f626c6f636b2074696d657374616d70206578636565647320323536206269747381525062000f3260201b60201c565b905060008411801562000d98575080600960008773ffffffffffffffffffffffffffffffffffffffff1673ffffffffffffffffffffffffffffffffffffffff168152602001908152602001600020600060018762000d849190620013c0565b815260200190815260200160002060000154145b1562000e0a5781600960008773ffffffffffffffffffffffffffffffffffffffff1673ffffffffffffffffffffffffffffffffffffffff168152602001908152602001600020600060018762000def9190620013c0565b81526020019081526020016000206001018190555062000ed9565b604051806040016040528082815260200183815250600960008773ffffffffffffffffffffffffffffffffffffffff1673ffffffffffffffffffffffffffffffffffffffff1681526020019081526020016000206000868152602001908152602001600020600082015181600001556020820151816001015590505060018462000e95919062001302565b600a60008773ffffffffffffffffffffffffffffffffffffffff1673ffffffffffffffffffffffffffffffffffffffff168152602001908152602001600020819055505b8473ffffffffffffffffffffffffffffffffffffffff167fdec2bacdd2f05b59de34da9b523dff8be42e5e38e818c82fdb0bae774387a724848460405162000f23929190620012ae565b60405180910390a25050505050565b60007fffffffffffffffffffffffffffffffffffffffffffffffffffffffffffffffff8310829062000f9c576040517f08c379a000000000000000000000000000000000000000000000000000000000815260040162000f93919062001229565b60405180910390fd5b5082905092915050565b82805462000fb4906200146a565b90600052602060002090601f01602090048101928262000fd8576000855562001024565b82601f1062000ff357805160ff191683800117855562001024565b8280016001018555821562001024579182015b828111156200102357825182559160200191906001019062001006565b5b50905062001033919062001037565b5090565b5b808211156200105257600081600090555060010162001038565b5090565b60006200106382620012db565b6200106f8185620012e6565b93506200108181856020860162001405565b6200108c81620014fe565b840191505092915050565b6000620010a482620012db565b620010b08185620012f7565b9350620010c281856020860162001405565b80840191505092915050565b6000620010dd602083620012e6565b91507f537472696e67733a20686578206c656e67746820696e73756666696369656e746000830152602082019050919050565b60006200111f601783620012f7565b91507f416363657373436f6e74726f6c3a206163636f756e74200000000000000000006000830152601782019050919050565b600062001161601183620012f7565b91507f206973206d697373696e6720726f6c65200000000000000000000000000000006000830152601182019050919050565b6000620011a3601f83620012e6565b91507f45524332303a206d696e7420746f20746865207a65726f2061646472657373006000830152602082019050919050565b620011e181620013fb565b82525050565b6000620011f48262001110565b915062001202828562001097565b91506200120f8262001152565b91506200121d828462001097565b91508190509392505050565b6000602082019050818103600083015262001245818462001056565b905092915050565b600060208201905081810360008301526200126881620010ce565b9050919050565b600060208201905081810360008301526200128a8162001194565b9050919050565b6000602082019050620012a86000830184620011d6565b92915050565b6000604082019050620012c56000830185620011d6565b620012d46020830184620011d6565b9392505050565b600081519050919050565b600082825260208201905092915050565b600081905092915050565b60006200130f82620013fb565b91506200131c83620013fb565b9250827fffffffffffffffffffffffffffffffffffffffffffffffffffffffffffffffff03821115620013545762001353620014a0565b5b828201905092915050565b60006200136c82620013fb565b91506200137983620013fb565b9250817fffffffffffffffffffffffffffffffffffffffffffffffffffffffffffffffff0483118215151615620013b557620013b4620014a0565b5b828202905092915050565b6000620013cd82620013fb565b9150620013da83620013fb565b925082821015620013f057620013ef620014a0565b5b828203905092915050565b6000819050919050565b60005b838110156200142557808201518184015260208101905062001408565b8381111562001435576000848401525b50505050565b60006200144882620013fb565b915060008214156200145f576200145e620014a0565b5b600182039050919050565b600060028204905060018216806200148357607f821691505b602082108114156200149a5762001499620014cf565b5b50919050565b7f4e487b7100000000000000000000000000000000000000000000000000000000600052601160045260246000fd5b7f4e487b7100000000000000000000000000000000000000000000000000000000600052602260045260246000fd5b6000601f19601f8301169050919050565b6141fb806200151f6000396000f3fe608060405234801561001057600080fd5b50600436106102275760003560e01c80636fcfff4511610130578063a217fddf116100b8578063c3cda5201161007c578063c3cda520146106eb578063d547741f14610707578063dbaef9b014610723578063dd62ed3e14610753578063e7a324dc1461078357610227565b8063a217fddf1461061f578063a457c2d71461063d578063a6ed77ee1461066d578063a9059cbb1461068b578063b4b5ea57146106bb57610227565b806379cc6790116100ff57806379cc6790146105695780637ecebe001461058557806391d14854146105b557806395d89b41146105e55780639aeb37271461060357610227565b80636fcfff45146104bd57806370a08231146104ed578063743d507c1461051d578063782d6fe11461053957610227565b80632f2ff15d116101b357806340c10f191161018257806340c10f191461041b57806342966c681461043757806348f8bfea14610453578063587cde1e146104715780635c19a95c146104a157610227565b80632f2ff15d14610395578063313ce567146103b157806336568abe146103cf57806339509351146103eb57610227565b8063155dfb50116101fa578063155dfb50146102db57806318160ddd146102f957806320606b701461031757806323b872dd14610335578063248a9ca31461036557610227565b806301ffc9a71461022c57806306fdde031461025c578063095ea7b31461027a5780630cdfebfa146102aa575b600080fd5b61024660048036038101906102419190613122565b6107a1565b60405161025391906139ee565b60405180910390f35b61026461081b565b6040516102719190613b2a565b60405180910390f35b610294600480360381019061028f9190612fa9565b6108ad565b6040516102a191906139ee565b60405180910390f35b6102c460048036038101906102bf9190612fa9565b6108cb565b6040516102d2929190613dc7565b60405180910390f35b6102e36108fc565b6040516102f09190613a09565b60405180910390f35b610301610902565b60405161030e9190613dac565b60405180910390f35b61031f61090c565b60405161032c9190613a09565b60405180910390f35b61034f600480360381019061034a9190612f5a565b610930565b60405161035c91906139ee565b60405180910390f35b61037f600480360381019061037a919061306e565b610a31565b60405161038c9190613a09565b60405180910390f35b6103af60048036038101906103aa9190613097565b610a51565b005b6103b9610a7a565b6040516103c69190613df0565b60405180910390f35b6103e960048036038101906103e49190613097565b610a83565b005b61040560048036038101906104009190612fa9565b610b06565b60405161041291906139ee565b60405180910390f35b61043560048036038101906104309190612fa9565b610bb2565b005b610451600480360381019061044c919061314b565b610c40565b005b61045b610cc6565b60405161046891906139d3565b60405180910390f35b61048b60048036038101906104869190612ef5565b610cec565b60405161049891906139d3565b60405180910390f35b6104bb60048036038101906104b69190612ef5565b610d55565b005b6104d760048036038101906104d29190612ef5565b610d62565b6040516104e49190613dac565b60405180910390f35b61050760048036038101906105029190612ef5565b610d7a565b6040516105149190613dac565b60405180910390f35b610537600480360381019061053291906130d3565b610dc2565b005b610553600480360381019061054e9190612fa9565b610e98565b6040516105609190613dac565b60405180910390f35b610583600480360381019061057e9190612fa9565b6111c3565b005b61059f600480360381019061059a9190612ef5565b6112b2565b6040516105ac9190613dac565b60405180910390f35b6105cf60048036038101906105ca9190613097565b6112ca565b6040516105dc91906139ee565b60405180910390f35b6105ed611335565b6040516105fa9190613b2a565b60405180910390f35b61061d60048036038101906106189190612ef5565b6113c7565b005b61062761153a565b6040516106349190613a09565b60405180910390f35b61065760048036038101906106529190612fa9565b611541565b60405161066491906139ee565b60405180910390f35b610675611635565b6040516106829190613a09565b60405180910390f35b6106a560048036038101906106a09190612fa9565b61163b565b6040516106b291906139ee565b60405180910390f35b6106d560048036038101906106d09190612ef5565b611659565b6040516106e29190613dac565b60405180910390f35b61070560048036038101906107009190612fe5565b611716565b005b610721600480360381019061071c9190613097565b6119ab565b005b61073d6004803603810190610738919061306e565b6119d4565b60405161074a91906139ee565b60405180910390f35b61076d60048036038101906107689190612f1e565b6119e7565b60405161077a9190613dac565b60405180910390f35b61078b611a6e565b6040516107989190613a09565b60405180910390f35b60007f7965db0b000000000000000000000000000000000000000000000000000000007bffffffffffffffffffffffffffffffffffffffffffffffffffffffff1916827bffffffffffffffffffffffffffffffffffffffffffffffffffffffff19161480610814575061081382611d8c565b5b9050919050565b60606003805461082a9061402f565b80601f01602080910402602001604051908101604052809291908181526020018280546108569061402f565b80156108a35780601f10610878576101008083540402835291602001916108a3565b820191906000526020600020905b81548152906001019060200180831161088657829003601f168201915b5050505050905090565b60006108c16108ba611df6565b8484611dfe565b6001905092915050565b6009602052816000526040600020602052806000526040600020600091509150508060000154908060010154905082565b60075481565b6000600254905090565b7f797cfab58fcb15f590eb8e4252d5c228ff88f94f907e119e80c4393a946e8f3581565b600061093d848484611fc9565b6000600160008673ffffffffffffffffffffffffffffffffffffffff1673ffffffffffffffffffffffffffffffffffffffff1681526020019081526020016000206000610988611df6565b73ffffffffffffffffffffffffffffffffffffffff1673ffffffffffffffffffffffffffffffffffffffff16815260200190815260200160002054905082811015610a08576040517f08c379a00000000000000000000000000000000000000000000000000000000081526004016109ff90613c4c565b60405180910390fd5b610a2585610a14611df6565b8584610a209190613f13565b611dfe565b60019150509392505050565b600060056000838152602001908152602001600020600101549050919050565b610a5a82610a31565b610a6b81610a66611df6565b612253565b610a7583836122f0565b505050565b60006012905090565b610a8b611df6565b73ffffffffffffffffffffffffffffffffffffffff168173ffffffffffffffffffffffffffffffffffffffff1614610af8576040517f08c379a0000000000000000000000000000000000000000000000000000000008152600401610aef90613d6c565b60405180910390fd5b610b0282826123d1565b5050565b6000610ba8610b13611df6565b848460016000610b21611df6565b73ffffffffffffffffffffffffffffffffffffffff1673ffffffffffffffffffffffffffffffffffffffff16815260200190815260200160002060008873ffffffffffffffffffffffffffffffffffffffff1673ffffffffffffffffffffffffffffffffffffffff16815260200190815260200160002054610ba39190613e32565b611dfe565b6001905092915050565b600854610bc681610bc1611df6565b612253565b610bd083836124b3565b610c3b6000600c60008673ffffffffffffffffffffffffffffffffffffffff1673ffffffffffffffffffffffffffffffffffffffff16815260200190815260200160002060009054906101000a900473ffffffffffffffffffffffffffffffffffffffff1684612613565b505050565b610c51610c4b611df6565b82612870565b610cc3600c6000610c60611df6565b73ffffffffffffffffffffffffffffffffffffffff1673ffffffffffffffffffffffffffffffffffffffff16815260200190815260200160002060009054906101000a900473ffffffffffffffffffffffffffffffffffffffff16600083612613565b50565b600660009054906101000a900473ffffffffffffffffffffffffffffffffffffffff1681565b6000600c60008373ffffffffffffffffffffffffffffffffffffffff1673ffffffffffffffffffffffffffffffffffffffff16815260200190815260200160002060009054906101000a900473ffffffffffffffffffffffffffffffffffffffff169050919050565b610d5f3382612a50565b50565b600a6020528060005260406000206000915090505481565b60008060008373ffffffffffffffffffffffffffffffffffffffff1673ffffffffffffffffffffffffffffffffffffffff168152602001908152602001600020549050919050565b82610dd481610dcf611df6565b612253565b8173ffffffffffffffffffffffffffffffffffffffff168373ffffffffffffffffffffffffffffffffffffffff161415610e43576040517f08c379a0000000000000000000000000000000000000000000000000000000008152600401610e3a90613c6c565b60405180910390fd5b610e4d8483610a51565b610e578484610a83565b7f61d8718e0a8cd948a81621b18092fb2d08d9c1d961369cbf16aab6dc46e3e4b1848484604051610e8a93929190613a24565b60405180910390a150505050565b6000428210610edc576040517f08c379a0000000000000000000000000000000000000000000000000000000008152600401610ed390613b4c565b60405180910390fd5b6000600a60008573ffffffffffffffffffffffffffffffffffffffff1673ffffffffffffffffffffffffffffffffffffffff1681526020019081526020016000205490506000811415610f335760009150506111bd565b82600960008673ffffffffffffffffffffffffffffffffffffffff1673ffffffffffffffffffffffffffffffffffffffff1681526020019081526020016000206000600184610f829190613f13565b8152602001908152602001600020600001541161100157600960008573ffffffffffffffffffffffffffffffffffffffff1673ffffffffffffffffffffffffffffffffffffffff1681526020019081526020016000206000600183610fe79190613f13565b8152602001908152602001600020600101549150506111bd565b82600960008673ffffffffffffffffffffffffffffffffffffffff1673ffffffffffffffffffffffffffffffffffffffff16815260200190815260200160002060008081526020019081526020016000206000015411156110665760009150506111bd565b6000806001836110769190613f13565b90505b81811115611163576000600283836110919190613f13565b61109b9190613e88565b826110a69190613f13565b90506000600960008973ffffffffffffffffffffffffffffffffffffffff1673ffffffffffffffffffffffffffffffffffffffff16815260200190815260200160002060008381526020019081526020016000206040518060400160405290816000820154815260200160018201548152505090508681600001511415611138578060200151955050505050506111bd565b868160000151101561114c5781935061115c565b6001826111599190613f13565b92505b5050611079565b600960008773ffffffffffffffffffffffffffffffffffffffff1673ffffffffffffffffffffffffffffffffffffffff16815260200190815260200160002060008381526020019081526020016000206001015493505050505b92915050565b60006111d6836111d1611df6565b6119e7565b90508181101561121b576040517f08c379a000000000000000000000000000000000000000000000000000000000815260040161121290613d2c565b60405180910390fd5b61123883611227611df6565b84846112339190613f13565b611dfe565b6112428383612870565b6112ad600c60008573ffffffffffffffffffffffffffffffffffffffff1673ffffffffffffffffffffffffffffffffffffffff16815260200190815260200160002060009054906101000a900473ffffffffffffffffffffffffffffffffffffffff16600084612613565b505050565b600b6020528060005260406000206000915090505481565b60006005600084815260200190815260200160002060000160008373ffffffffffffffffffffffffffffffffffffffff1673ffffffffffffffffffffffffffffffffffffffff16815260200190815260200160002060009054906101000a900460ff16905092915050565b6060600480546113449061402f565b80601f01602080910402602001604051908101604052809291908181526020018280546113709061402f565b80156113bd5780601f10611392576101008083540402835291602001916113bd565b820191906000526020600020905b8154815290600101906020018083116113a057829003601f168201915b5050505050905090565b6007546113db816113d6611df6565b612253565b8173ffffffffffffffffffffffffffffffffffffffff16600660009054906101000a900473ffffffffffffffffffffffffffffffffffffffff1673ffffffffffffffffffffffffffffffffffffffff16141561146c576040517f08c379a000000000000000000000000000000000000000000000000000000000815260040161146390613cec565b60405180910390fd5b61149c6000801b600660009054906101000a900473ffffffffffffffffffffffffffffffffffffffff1684610dc2565b81600660006101000a81548173ffffffffffffffffffffffffffffffffffffffff021916908373ffffffffffffffffffffffffffffffffffffffff1602179055507f1c881cf11671f3ab7e97a339a15f6a1d287b427944d2d36d393c0846b1d35757600660009054906101000a900473ffffffffffffffffffffffffffffffffffffffff1660405161152e91906139d3565b60405180910390a15050565b6000801b81565b60008060016000611550611df6565b73ffffffffffffffffffffffffffffffffffffffff1673ffffffffffffffffffffffffffffffffffffffff16815260200190815260200160002060008573ffffffffffffffffffffffffffffffffffffffff1673ffffffffffffffffffffffffffffffffffffffff1681526020019081526020016000205490508281101561160d576040517f08c379a000000000000000000000000000000000000000000000000000000000815260040161160490613d4c565b60405180910390fd5b61162a611618611df6565b8585846116259190613f13565b611dfe565b600191505092915050565b60085481565b600061164f611648611df6565b8484611fc9565b6001905092915050565b600080600a60008473ffffffffffffffffffffffffffffffffffffffff1673ffffffffffffffffffffffffffffffffffffffff168152602001908152602001600020549050600081116116ad57600061170e565b600960008473ffffffffffffffffffffffffffffffffffffffff1673ffffffffffffffffffffffffffffffffffffffff16815260200190815260200160002060006001836116fb9190613f13565b8152602001908152602001600020600101545b915050919050565b60007f797cfab58fcb15f590eb8e4252d5c228ff88f94f907e119e80c4393a946e8f3561174161081b565b80519060200120611750612bc1565b306040516020016117649493929190613aa0565b60405160208183030381529060405280519060200120905060007f1ac861a6a8532f3704e1768564a53a32774f00d6cf20ccbbdf60ab61378302bc8888886040516020016117b59493929190613a5b565b604051602081830303815290604052805190602001209050600082826040516020016117e2929190613962565b60405160208183030381529060405280519060200120905060006001828888886040516000815260200160405260405161181f9493929190613ae5565b6020604051602081039080840390855afa158015611841573d6000803e3d6000fd5b505050602060405103519050600073ffffffffffffffffffffffffffffffffffffffff168173ffffffffffffffffffffffffffffffffffffffff1614156118bd576040517f08c379a00000000000000000000000000000000000000000000000000000000081526004016118b490613bec565b60405180910390fd5b600b60008273ffffffffffffffffffffffffffffffffffffffff1673ffffffffffffffffffffffffffffffffffffffff168152602001908152602001600020600081548092919061190d90614061565b919050558914611952576040517f08c379a000000000000000000000000000000000000000000000000000000000815260040161194990613c8c565b60405180910390fd5b87421115611995576040517f08c379a000000000000000000000000000000000000000000000000000000000815260040161198c90613c2c565b60405180910390fd5b61199f818b612a50565b50505050505050505050565b6119b482610a31565b6119c5816119c0611df6565b612253565b6119cf83836123d1565b505050565b60006119e082336112ca565b9050919050565b6000600160008473ffffffffffffffffffffffffffffffffffffffff1673ffffffffffffffffffffffffffffffffffffffff16815260200190815260200160002060008373ffffffffffffffffffffffffffffffffffffffff1673ffffffffffffffffffffffffffffffffffffffff16815260200190815260200160002054905092915050565b7f1ac861a6a8532f3704e1768564a53a32774f00d6cf20ccbbdf60ab61378302bc81565b606060006002836002611aa59190613eb9565b611aaf9190613e32565b67ffffffffffffffff811115611aee577f4e487b7100000000000000000000000000000000000000000000000000000000600052604160045260246000fd5b6040519080825280601f01601f191660200182016040528015611b205781602001600182028036833780820191505090505b5090507f300000000000000000000000000000000000000000000000000000000000000081600081518110611b7e577f4e487b7100000000000000000000000000000000000000000000000000000000600052603260045260246000fd5b60200101907effffffffffffffffffffffffffffffffffffffffffffffffffffffffffffff1916908160001a9053507f780000000000000000000000000000000000000000000000000000000000000081600181518110611c08577f4e487b7100000000000000000000000000000000000000000000000000000000600052603260045260246000fd5b60200101907effffffffffffffffffffffffffffffffffffffffffffffffffffffffffffff1916908160001a90535060006001846002611c489190613eb9565b611c529190613e32565b90505b6001811115611d3e577f3031323334353637383961626364656600000000000000000000000000000000600f861660108110611cba577f4e487b7100000000000000000000000000000000000000000000000000000000600052603260045260246000fd5b1a60f81b828281518110611cf7577f4e487b7100000000000000000000000000000000000000000000000000000000600052603260045260246000fd5b60200101907effffffffffffffffffffffffffffffffffffffffffffffffffffffffffffff1916908160001a905350600485901c945080611d3790614005565b9050611c55565b5060008414611d82576040517f08c379a0000000000000000000000000000000000000000000000000000000008152600401611d7990613b6c565b60405180910390fd5b8091505092915050565b60007f01ffc9a7000000000000000000000000000000000000000000000000000000007bffffffffffffffffffffffffffffffffffffffffffffffffffffffff1916827bffffffffffffffffffffffffffffffffffffffffffffffffffffffff1916149050919050565b600033905090565b600073ffffffffffffffffffffffffffffffffffffffff168373ffffffffffffffffffffffffffffffffffffffff161415611e6e576040517f08c379a0000000000000000000000000000000000000000000000000000000008152600401611e6590613d0c565b60405180910390fd5b600073ffffffffffffffffffffffffffffffffffffffff168273ffffffffffffffffffffffffffffffffffffffff161415611ede576040517f08c379a0000000000000000000000000000000000000000000000000000000008152600401611ed590613bcc565b60405180910390fd5b80600160008573ffffffffffffffffffffffffffffffffffffffff1673ffffffffffffffffffffffffffffffffffffffff16815260200190815260200160002060008473ffffffffffffffffffffffffffffffffffffffff1673ffffffffffffffffffffffffffffffffffffffff168152602001908152602001600020819055508173ffffffffffffffffffffffffffffffffffffffff168373ffffffffffffffffffffffffffffffffffffffff167f8c5be1e5ebec7d5bd14f71427d1e84f3dd0314c0f7b2291e5b200ac8c7c3b92583604051611fbc9190613dac565b60405180910390a3505050565b600073ffffffffffffffffffffffffffffffffffffffff168373ffffffffffffffffffffffffffffffffffffffff161415612039576040517f08c379a000000000000000000000000000000000000000000000000000000000815260040161203090613ccc565b60405180910390fd5b600073ffffffffffffffffffffffffffffffffffffffff168273ffffffffffffffffffffffffffffffffffffffff1614156120a9576040517f08c379a00000000000000000000000000000000000000000000000000000000081526004016120a090613b8c565b60405180910390fd5b6120b4838383612bce565b60008060008573ffffffffffffffffffffffffffffffffffffffff1673ffffffffffffffffffffffffffffffffffffffff1681526020019081526020016000205490508181101561213a576040517f08c379a000000000000000000000000000000000000000000000000000000000815260040161213190613c0c565b60405180910390fd5b81816121469190613f13565b6000808673ffffffffffffffffffffffffffffffffffffffff1673ffffffffffffffffffffffffffffffffffffffff16815260200190815260200160002081905550816000808573ffffffffffffffffffffffffffffffffffffffff1673ffffffffffffffffffffffffffffffffffffffff16815260200190815260200160002060008282546121d69190613e32565b925050819055508273ffffffffffffffffffffffffffffffffffffffff168473ffffffffffffffffffffffffffffffffffffffff167fddf252ad1be2c89b69c2b068fc378daa952ba7f163c4a11628f55a4df523b3ef8460405161223a9190613dac565b60405180910390a361224d848484612bd3565b50505050565b61225d82826112ca565b6122ec576122828173ffffffffffffffffffffffffffffffffffffffff166014611a92565b6122908360001c6020611a92565b6040516020016122a1929190613999565b6040516020818303038152906040526040517f08c379a00000000000000000000000000000000000000000000000000000000081526004016122e39190613b2a565b60405180910390fd5b5050565b6122fa82826112ca565b6123cd5760016005600084815260200190815260200160002060000160008373ffffffffffffffffffffffffffffffffffffffff1673ffffffffffffffffffffffffffffffffffffffff16815260200190815260200160002060006101000a81548160ff021916908315150217905550612372611df6565b73ffffffffffffffffffffffffffffffffffffffff168173ffffffffffffffffffffffffffffffffffffffff16837f2f8788117e7eff1d82e926ec794901d17c78024a50270940304540a733656f0d60405160405180910390a45b5050565b6123db82826112ca565b156124af5760006005600084815260200190815260200160002060000160008373ffffffffffffffffffffffffffffffffffffffff1673ffffffffffffffffffffffffffffffffffffffff16815260200190815260200160002060006101000a81548160ff021916908315150217905550612454611df6565b73ffffffffffffffffffffffffffffffffffffffff168173ffffffffffffffffffffffffffffffffffffffff16837ff6391f5c32d9c69d2a47ea670b442974b53935d1edc7fd64eb21e047a839171b60405160405180910390a45b5050565b600073ffffffffffffffffffffffffffffffffffffffff168273ffffffffffffffffffffffffffffffffffffffff161415612523576040517f08c379a000000000000000000000000000000000000000000000000000000000815260040161251a90613d8c565b60405180910390fd5b61252f60008383612bce565b80600260008282546125419190613e32565b92505081905550806000808473ffffffffffffffffffffffffffffffffffffffff1673ffffffffffffffffffffffffffffffffffffffff16815260200190815260200160002060008282546125969190613e32565b925050819055508173ffffffffffffffffffffffffffffffffffffffff16600073ffffffffffffffffffffffffffffffffffffffff167fddf252ad1be2c89b69c2b068fc378daa952ba7f163c4a11628f55a4df523b3ef836040516125fb9190613dac565b60405180910390a361260f60008383612bd3565b5050565b8173ffffffffffffffffffffffffffffffffffffffff168373ffffffffffffffffffffffffffffffffffffffff161415801561264f5750600081115b1561286b57600073ffffffffffffffffffffffffffffffffffffffff168373ffffffffffffffffffffffffffffffffffffffff161461275f576000600a60008573ffffffffffffffffffffffffffffffffffffffff1673ffffffffffffffffffffffffffffffffffffffff16815260200190815260200160002054905060008082116126dc57600061273d565b600960008673ffffffffffffffffffffffffffffffffffffffff1673ffffffffffffffffffffffffffffffffffffffff168152602001908152602001600020600060018461272a9190613f13565b8152602001908152602001600020600101545b90506000838261274d9190613f13565b905061275b86848484612bd8565b5050505b600073ffffffffffffffffffffffffffffffffffffffff168273ffffffffffffffffffffffffffffffffffffffff161461286a576000600a60008473ffffffffffffffffffffffffffffffffffffffff1673ffffffffffffffffffffffffffffffffffffffff16815260200190815260200160002054905060008082116127e7576000612848565b600960008573ffffffffffffffffffffffffffffffffffffffff1673ffffffffffffffffffffffffffffffffffffffff16815260200190815260200160002060006001846128359190613f13565b8152602001908152602001600020600101545b9050600083826128589190613e32565b905061286685848484612bd8565b5050505b5b505050565b600073ffffffffffffffffffffffffffffffffffffffff168273ffffffffffffffffffffffffffffffffffffffff1614156128e0576040517f08c379a00000000000000000000000000000000000000000000000000000000081526004016128d790613cac565b60405180910390fd5b6128ec82600083612bce565b60008060008473ffffffffffffffffffffffffffffffffffffffff1673ffffffffffffffffffffffffffffffffffffffff16815260200190815260200160002054905081811015612972576040517f08c379a000000000000000000000000000000000000000000000000000000000815260040161296990613bac565b60405180910390fd5b818161297e9190613f13565b6000808573ffffffffffffffffffffffffffffffffffffffff1673ffffffffffffffffffffffffffffffffffffffff1681526020019081526020016000208190555081600260008282546129d29190613f13565b92505081905550600073ffffffffffffffffffffffffffffffffffffffff168373ffffffffffffffffffffffffffffffffffffffff167fddf252ad1be2c89b69c2b068fc378daa952ba7f163c4a11628f55a4df523b3ef84604051612a379190613dac565b60405180910390a3612a4b83600084612bd3565b505050565b6000600c60008473ffffffffffffffffffffffffffffffffffffffff1673ffffffffffffffffffffffffffffffffffffffff16815260200190815260200160002060009054906101000a900473ffffffffffffffffffffffffffffffffffffffff1690506000612abf84610d7a565b905082600c60008673ffffffffffffffffffffffffffffffffffffffff1673ffffffffffffffffffffffffffffffffffffffff16815260200190815260200160002060006101000a81548173ffffffffffffffffffffffffffffffffffffffff021916908373ffffffffffffffffffffffffffffffffffffffff1602179055508273ffffffffffffffffffffffffffffffffffffffff168273ffffffffffffffffffffffffffffffffffffffff168573ffffffffffffffffffffffffffffffffffffffff167f3134e8a2e6d97e929a7e54011ea5485d7d196dd5f0ba4d4ef95803e8e3fc257f60405160405180910390a4612bbb828483612613565b50505050565b6000804690508091505090565b505050565b505050565b6000612c19426040518060400160405280602081526020017f626c6f636b2074696d657374616d702065786365656473203235362062697473815250612e1b565b9050600084118015612c89575080600960008773ffffffffffffffffffffffffffffffffffffffff1673ffffffffffffffffffffffffffffffffffffffff1681526020019081526020016000206000600187612c759190613f13565b815260200190815260200160002060000154145b15612cf75781600960008773ffffffffffffffffffffffffffffffffffffffff1673ffffffffffffffffffffffffffffffffffffffff1681526020019081526020016000206000600187612cdd9190613f13565b815260200190815260200160002060010181905550612dc4565b604051806040016040528082815260200183815250600960008773ffffffffffffffffffffffffffffffffffffffff1673ffffffffffffffffffffffffffffffffffffffff16815260200190815260200160002060008681526020019081526020016000206000820151816000015560208201518160010155905050600184612d809190613e32565b600a60008773ffffffffffffffffffffffffffffffffffffffff1673ffffffffffffffffffffffffffffffffffffffff168152602001908152602001600020819055505b8473ffffffffffffffffffffffffffffffffffffffff167fdec2bacdd2f05b59de34da9b523dff8be42e5e38e818c82fdb0bae774387a7248484604051612e0c929190613dc7565b60405180910390a25050505050565b60007fffffffffffffffffffffffffffffffffffffffffffffffffffffffffffffffff83108290612e82576040517f08c379a0000000000000000000000000000000000000000000000000000000008152600401612e799190613b2a565b60405180910390fd5b5082905092915050565b600081359050612e9b81614152565b92915050565b600081359050612eb081614169565b92915050565b600081359050612ec581614180565b92915050565b600081359050612eda81614197565b92915050565b600081359050612eef816141ae565b92915050565b600060208284031215612f0757600080fd5b6000612f1584828501612e8c565b91505092915050565b60008060408385031215612f3157600080fd5b6000612f3f85828601612e8c565b9250506020612f5085828601612e8c565b9150509250929050565b600080600060608486031215612f6f57600080fd5b6000612f7d86828701612e8c565b9350506020612f8e86828701612e8c565b9250506040612f9f86828701612ecb565b9150509250925092565b60008060408385031215612fbc57600080fd5b6000612fca85828601612e8c565b9250506020612fdb85828601612ecb565b9150509250929050565b60008060008060008060c08789031215612ffe57600080fd5b600061300c89828a01612e8c565b965050602061301d89828a01612ecb565b955050604061302e89828a01612ecb565b945050606061303f89828a01612ee0565b935050608061305089828a01612ea1565b92505060a061306189828a01612ea1565b9150509295509295509295565b60006020828403121561308057600080fd5b600061308e84828501612ea1565b91505092915050565b600080604083850312156130aa57600080fd5b60006130b885828601612ea1565b92505060206130c985828601612e8c565b9150509250929050565b6000806000606084860312156130e857600080fd5b60006130f686828701612ea1565b935050602061310786828701612e8c565b925050604061311886828701612e8c565b9150509250925092565b60006020828403121561313457600080fd5b600061314284828501612eb6565b91505092915050565b60006020828403121561315d57600080fd5b600061316b84828501612ecb565b91505092915050565b61317d81613f47565b82525050565b61318c81613f59565b82525050565b61319b81613f65565b82525050565b6131b26131ad82613f65565b6140aa565b82525050565b60006131c382613e0b565b6131cd8185613e16565b93506131dd818560208601613fd2565b6131e681614141565b840191505092915050565b60006131fc82613e0b565b6132068185613e27565b9350613216818560208601613fd2565b80840191505092915050565b600061322f602183613e16565b91507f6765745072696f72566f7465733a206e6f74207965742064657465726d696e6560008301527f64000000000000000000000000000000000000000000000000000000000000006020830152604082019050919050565b6000613295602083613e16565b91507f537472696e67733a20686578206c656e67746820696e73756666696369656e746000830152602082019050919050565b60006132d5602383613e16565b91507f45524332303a207472616e7366657220746f20746865207a65726f206164647260008301527f65737300000000000000000000000000000000000000000000000000000000006020830152604082019050919050565b600061333b602283613e16565b91507f45524332303a206275726e20616d6f756e7420657863656564732062616c616e60008301527f63650000000000000000000000000000000000000000000000000000000000006020830152604082019050919050565b60006133a1602283613e16565b91507f45524332303a20617070726f766520746f20746865207a65726f20616464726560008301527f73730000000000000000000000000000000000000000000000000000000000006020830152604082019050919050565b6000613407600283613e27565b91507f19010000000000000000000000000000000000000000000000000000000000006000830152600282019050919050565b6000613447602083613e16565b91507f64656c656761746542795369673a20696e76616c6964207369676e61747572656000830152602082019050919050565b6000613487602683613e16565b91507f45524332303a207472616e7366657220616d6f756e742065786365656473206260008301527f616c616e636500000000000000000000000000000000000000000000000000006020830152604082019050919050565b60006134ed602083613e16565b91507f64656c656761746542795369673a207369676e617475726520657870697265646000830152602082019050919050565b600061352d602883613e16565b91507f45524332303a207472616e7366657220616d6f756e742065786365656473206160008301527f6c6c6f77616e63650000000000000000000000000000000000000000000000006020830152604082019050919050565b6000613593601583613e16565b91507f6d7573742062652061206e6577206164647265737300000000000000000000006000830152602082019050919050565b60006135d3601c83613e16565b91507f64656c656761746542795369673a20696e76616c6964206e6f6e6365000000006000830152602082019050919050565b6000613613602183613e16565b91507f45524332303a206275726e2066726f6d20746865207a65726f2061646472657360008301527f73000000000000000000000000000000000000000000000000000000000000006020830152604082019050919050565b6000613679602583613e16565b91507f45524332303a207472616e736665722066726f6d20746865207a65726f20616460008301527f64726573730000000000000000000000000000000000000000000000000000006020830152604082019050919050565b60006136df601c83613e16565b91507f6d616b652061206368616e67652c20626520746865206368616e6765000000006000830152602082019050919050565b600061371f602483613e16565b91507f45524332303a20617070726f76652066726f6d20746865207a65726f2061646460008301527f72657373000000000000000000000000000000000000000000000000000000006020830152604082019050919050565b6000613785601d83613e16565b91507f6275726e20616d6f756e74206578636565647320616c6c6f77616e63650000006000830152602082019050919050565b60006137c5601783613e27565b91507f416363657373436f6e74726f6c3a206163636f756e74200000000000000000006000830152601782019050919050565b6000613805602583613e16565b91507f45524332303a2064656372656173656420616c6c6f77616e63652062656c6f7760008301527f207a65726f0000000000000000000000000000000000000000000000000000006020830152604082019050919050565b600061386b601183613e27565b91507f206973206d697373696e6720726f6c65200000000000000000000000000000006000830152601182019050919050565b60006138ab602f83613e16565b91507f416363657373436f6e74726f6c3a2063616e206f6e6c792072656e6f756e636560008301527f20726f6c657320666f722073656c6600000000000000000000000000000000006020830152604082019050919050565b6000613911601f83613e16565b91507f45524332303a206d696e7420746f20746865207a65726f2061646472657373006000830152602082019050919050565b61394d81613fbb565b82525050565b61395c81613fc5565b82525050565b600061396d826133fa565b915061397982856131a1565b60208201915061398982846131a1565b6020820191508190509392505050565b60006139a4826137b8565b91506139b082856131f1565b91506139bb8261385e565b91506139c782846131f1565b91508190509392505050565b60006020820190506139e86000830184613174565b92915050565b6000602082019050613a036000830184613183565b92915050565b6000602082019050613a1e6000830184613192565b92915050565b6000606082019050613a396000830186613192565b613a466020830185613174565b613a536040830184613174565b949350505050565b6000608082019050613a706000830187613192565b613a7d6020830186613174565b613a8a6040830185613944565b613a976060830184613944565b95945050505050565b6000608082019050613ab56000830187613192565b613ac26020830186613192565b613acf6040830185613944565b613adc6060830184613174565b95945050505050565b6000608082019050613afa6000830187613192565b613b076020830186613953565b613b146040830185613192565b613b216060830184613192565b95945050505050565b60006020820190508181036000830152613b4481846131b8565b905092915050565b60006020820190508181036000830152613b6581613222565b9050919050565b60006020820190508181036000830152613b8581613288565b9050919050565b60006020820190508181036000830152613ba5816132c8565b9050919050565b60006020820190508181036000830152613bc58161332e565b9050919050565b60006020820190508181036000830152613be581613394565b9050919050565b60006020820190508181036000830152613c058161343a565b9050919050565b60006020820190508181036000830152613c258161347a565b9050919050565b60006020820190508181036000830152613c45816134e0565b9050919050565b60006020820190508181036000830152613c6581613520565b9050919050565b60006020820190508181036000830152613c8581613586565b9050919050565b60006020820190508181036000830152613ca5816135c6565b9050919050565b60006020820190508181036000830152613cc581613606565b9050919050565b60006020820190508181036000830152613ce58161366c565b9050919050565b60006020820190508181036000830152613d05816136d2565b9050919050565b60006020820190508181036000830152613d2581613712565b9050919050565b60006020820190508181036000830152613d4581613778565b9050919050565b60006020820190508181036000830152613d65816137f8565b9050919050565b60006020820190508181036000830152613d858161389e565b9050919050565b60006020820190508181036000830152613da581613904565b9050919050565b6000602082019050613dc16000830184613944565b92915050565b6000604082019050613ddc6000830185613944565b613de96020830184613944565b9392505050565b6000602082019050613e056000830184613953565b92915050565b600081519050919050565b600082825260208201905092915050565b600081905092915050565b6000613e3d82613fbb565b9150613e4883613fbb565b9250827fffffffffffffffffffffffffffffffffffffffffffffffffffffffffffffffff03821115613e7d57613e7c6140b4565b5b828201905092915050565b6000613e9382613fbb565b9150613e9e83613fbb565b925082613eae57613ead6140e3565b5b828204905092915050565b6000613ec482613fbb565b9150613ecf83613fbb565b9250817fffffffffffffffffffffffffffffffffffffffffffffffffffffffffffffffff0483118215151615613f0857613f076140b4565b5b828202905092915050565b6000613f1e82613fbb565b9150613f2983613fbb565b925082821015613f3c57613f3b6140b4565b5b828203905092915050565b6000613f5282613f9b565b9050919050565b60008115159050919050565b6000819050919050565b60007fffffffff0000000000000000000000000000000000000000000000000000000082169050919050565b600073ffffffffffffffffffffffffffffffffffffffff82169050919050565b6000819050919050565b600060ff82169050919050565b60005b83811015613ff0578082015181840152602081019050613fd5565b83811115613fff576000848401525b50505050565b600061401082613fbb565b91506000821415614024576140236140b4565b5b600182039050919050565b6000600282049050600182168061404757607f821691505b6020821081141561405b5761405a614112565b5b50919050565b600061406c82613fbb565b91507fffffffffffffffffffffffffffffffffffffffffffffffffffffffffffffffff82141561409f5761409e6140b4565b5b600182019050919050565b6000819050919050565b7f4e487b7100000000000000000000000000000000000000000000000000000000600052601160045260246000fd5b7f4e487b7100000000000000000000000000000000000000000000000000000000600052601260045260246000fd5b7f4e487b7100000000000000000000000000000000000000000000000000000000600052602260045260246000fd5b6000601f19601f8301169050919050565b61415b81613f47565b811461416657600080fd5b50565b61417281613f65565b811461417d57600080fd5b50565b61418981613f6f565b811461419457600080fd5b50565b6141a081613fbb565b81146141ab57600080fd5b50565b6141b781613fc5565b81146141c257600080fd5b5056fea264697066735822122086de30631790528cb389bf14bf3645f2cca232b7da2f835c16d4d6e48037d8cc64736f6c63430008000033",
  "immutableReferences": {},
  "source": "// SPDX-License-Identifier: MIT\npragma solidity ^0.8.0;\n\nimport './libraries/ERC20.sol';\nimport '@openzeppelin/contracts/access/AccessControl.sol';\n\ncontract SoulPower is ERC20('SoulPower', 'SOUL'), AccessControl {\n\n    address public supreme;     // supreme divine\n    bytes32 public anunnaki;   // admin role\n    bytes32 public thoth;     // minter role\n\n    bytes32 public constant DOMAIN_TYPEHASH = // EIP-712 typehash for the contract's domain\n        keccak256('EIP712Domain(string name,uint chainId,address verifyingContract)');\n    bytes32 public constant DELEGATION_TYPEHASH = // EIP-712 typehash for the delegation struct used by the contract\n        keccak256('Delegation(address delegatee,uint nonce,uint expiry)'); \n\n    // mappings for user accounts (address)\n    mapping(address => mapping(uint => Checkpoint)) public checkpoints;   // vote checkpoints\n    mapping(address => uint) public numCheckpoints;                      // checkpoint count\n    mapping(address => uint) public nonces;                             // signing / validating states\n    mapping(address => address) internal _delegates;                      // each accounts' delegate\n\n    struct Checkpoint {  // checkpoint for marking number of votes from a given timestamp\n        uint fromTime;\n        uint votes;\n    }\n\n    event NewSupreme(address supreme);\n    event Rethroned(bytes32 role, address oldAccount, address newAccount);\n    event DelegateChanged( // emitted when an account changes its delegate\n        address indexed delegator,\n        address indexed fromDelegate,\n        address indexed toDelegate\n    );\n    event DelegateVotesChanged( // emitted when a delegate account's vote balance changes\n        address indexed delegate,\n        uint previousBalance,\n        uint newBalance\n    );\n\n    // restricted to the house of the role passed as an object to obey\n    modifier obey(bytes32 role) {\n        _checkRole(role, _msgSender());\n        _;\n    }\n\n    // channels the authority vested in anunnaki and thoth to the supreme\n    constructor() {\n        supreme = msg.sender;              // WARNING: set to multi-sig when deploying\n        anunnaki = keccak256('anunnaki'); // alpha supreme\n        thoth = keccak256('thoth');      // god of wisdom and magic\n\n        _divinationRitual(DEFAULT_ADMIN_ROLE, DEFAULT_ADMIN_ROLE, supreme); // supreme as root admin\n        _divinationRitual(anunnaki, anunnaki, supreme);                    // anunnaki as admin of anunnaki\n        _divinationRitual(thoth, anunnaki, supreme);                      // anunnaki as admin of thoth\n\n        mint(supreme, 50_000_000 * 1e18); // mints initial supply of 50M\n    }\n\n    // solidifies roles (internal)\n    function _divinationRitual(bytes32 _role, bytes32 _adminRole, address _account) internal {\n        _setupRole(_role, _account);\n        _setRoleAdmin(_role, _adminRole);\n    }\n\n    // grants `role` to `newAccount` && renounces `role` from `oldAccount` (public role)\n    function rethroneRitual(bytes32 role, address oldAccount, address newAccount) public obey(role) {\n        require(oldAccount != newAccount, 'must be a new address');\n        grantRole(role, newAccount);     // grants new account\n        renounceRole(role, oldAccount); //  removes old account of role\n        \n        emit Rethroned(role, oldAccount, newAccount);\n    }\n\n    // updates supreme address (public anunnaki)\n    function newSupreme(address _supreme) public obey(anunnaki) {\n        require(supreme != _supreme, 'make a change, be the change');  //  prevents self-destruct\n        rethroneRitual(DEFAULT_ADMIN_ROLE, supreme, _supreme);        //   empowers new supreme\n        supreme = _supreme;\n        \n        emit NewSupreme(supreme);\n    }\n\n    // checks whether sender has divine role (public view)\n    function hasDivineRole(bytes32 role) public view returns (bool) {\n        return hasRole(role, msg.sender);\n    }\n\n    // mints soul power as the house of thoth so wills (public thoth)\n    function mint(address _to, uint _amount) public obey(thoth) {\n        _mint(_to, _amount);\n        _moveDelegates(address(0), _delegates[_to], _amount);\n    }\n\n    // destroys `amount` tokens from the caller (public)\n    function burn(uint amount) public {\n        _burn(_msgSender(), amount);\n        _moveDelegates(_delegates[_msgSender()], address(0), amount);\n    }\n\n    // destroys `amount` tokens from the `account` (public)\n    function burnFrom(address account, uint amount) public {\n        uint currentAllowance = allowance(account, _msgSender());\n        require(currentAllowance >= amount, 'burn amount exceeds allowance');\n\n        _approve(account, _msgSender(), currentAllowance - amount);\n        _burn(account, amount);\n        _moveDelegates(_delegates[account], address(0), amount);\n    }\n\n    // returns the address delegated by a given delegator (external view)\n    function delegates(address delegator) external view returns (address) {\n        return _delegates[delegator];\n    }\n\n    // delegates to the `delegatee` (external)\n    function delegate(address delegatee) external {\n        return _delegate(msg.sender, delegatee);\n    }\n\n    // delegates votes from signatory to `delegatee` (external)\n    function delegateBySig(\n        address delegatee,\n        uint nonce,\n        uint expiry,\n        uint8 v,\n        bytes32 r,\n        bytes32 s\n    ) external {\n        bytes32 domainSeparator = keccak256(\n            abi.encode(DOMAIN_TYPEHASH, keccak256(bytes(name())), getChainId(), address(this))\n        );\n\n        bytes32 structHash = keccak256(\n            abi.encode(DELEGATION_TYPEHASH, delegatee, nonce, expiry)\n        );\n\n        bytes32 digest = keccak256(\n            abi.encodePacked('\\x19\\x01', domainSeparator, structHash)\n        );\n\n        address signatory = ecrecover(digest, v, r, s);\n        require(signatory != address(0), 'delegateBySig: invalid signature');\n        require(nonce == nonces[signatory]++, 'delegateBySig: invalid nonce');\n        require(block.timestamp <= expiry, 'delegateBySig: signature expired');\n        return _delegate(signatory, delegatee);\n    }\n\n    // returns current votes balance for `account` (external view)\n    function getCurrentVotes(address account) external view returns (uint) {\n        uint nCheckpoints = numCheckpoints[account];\n        return nCheckpoints > 0 ? checkpoints[account][nCheckpoints - 1].votes : 0;\n    }\n\n    // returns an account's prior vote count as of a given timestamp (external view)\n    function getPriorVotes(address account, uint blockTimestamp) external view returns (uint) {\n        require(blockTimestamp < block.timestamp, 'getPriorVotes: not yet determined');\n        \n        uint nCheckpoints = numCheckpoints[account];\n        if (nCheckpoints == 0) { return 0; }\n\n        // checks most recent balance\n        if (checkpoints[account][nCheckpoints - 1].fromTime <= blockTimestamp) {\n            return checkpoints[account][nCheckpoints - 1].votes;\n        }\n\n        // checks implicit zero balance\n        if (checkpoints[account][0].fromTime > blockTimestamp) {\n            return 0;\n        }\n\n        uint lower = 0;\n        uint upper = nCheckpoints - 1;\n        while (upper > lower) {\n            uint center = upper - (upper - lower) / 2; // avoids overflow\n            Checkpoint memory cp = checkpoints[account][center];\n            if (cp.fromTime == blockTimestamp) {\n                return cp.votes;\n            } else if (cp.fromTime < blockTimestamp) {\n                lower = center;\n            } else {\n                upper = center - 1;\n            }\n        }\n\n        return checkpoints[account][lower].votes;\n    }\n\n    function safe256(uint n, string memory errorMessage) internal pure returns (uint) {\n        require(n < type(uint).max, errorMessage);\n        return uint(n);\n    }\n\n    function getChainId() internal view returns (uint) {\n        uint chainId;\n        assembly { chainId := chainid() }\n        return chainId;\n    }\n\n    function _delegate(address delegator, address delegatee) internal {\n        address currentDelegate = _delegates[delegator];\n        uint delegatorBalance = balanceOf(delegator); // balance of underlying SOUL (not scaled)\n        _delegates[delegator] = delegatee;\n        emit DelegateChanged(delegator, currentDelegate, delegatee);\n        _moveDelegates(currentDelegate, delegatee, delegatorBalance);\n    }\n\n    function _moveDelegates(address srcRep, address dstRep, uint amount) internal {\n        if (srcRep != dstRep && amount > 0) {\n            if (srcRep != address(0)) {\n                // decreases old representative\n                uint srcRepNum = numCheckpoints[srcRep];\n                uint srcRepOld = srcRepNum > 0\n                    ? checkpoints[srcRep][srcRepNum - 1].votes\n                    : 0;\n                uint srcRepNew = srcRepOld - amount;\n                _writeCheckpoint(srcRep, srcRepNum, srcRepOld, srcRepNew);\n            }\n\n            if (dstRep != address(0)) {\n                // increases new representative\n                uint dstRepNum = numCheckpoints[dstRep];\n                uint dstRepOld = dstRepNum > 0\n                    ? checkpoints[dstRep][dstRepNum - 1].votes\n                    : 0;\n                uint dstRepNew = dstRepOld + amount;\n                _writeCheckpoint(dstRep, dstRepNum, dstRepOld, dstRepNew);\n            }\n        }\n    }\n\n    function _writeCheckpoint(\n        address delegatee,\n        uint nCheckpoints,\n        uint oldVotes,\n        uint newVotes\n    ) internal {\n        uint blockTimestamp = safe256(block.timestamp, 'block timestamp exceeds 256 bits');\n\n        if (nCheckpoints > 0 && checkpoints[delegatee][nCheckpoints - 1].fromTime == blockTimestamp) {\n            checkpoints[delegatee][nCheckpoints - 1].votes = newVotes;\n        } else { \n            checkpoints[delegatee][nCheckpoints] = Checkpoint(blockTimestamp, newVotes);\n            numCheckpoints[delegatee] = nCheckpoints + 1;\n        }\n\n        emit DelegateVotesChanged(delegatee, oldVotes, newVotes);\n    }\n}\n",
  "sourcePath": "/Users/Uni/Documents/GitHub/soulswap/soulswap-farms/contracts/SoulPower.sol",
  "compiler": {
    "name": "solc",
    "version": "0.8.0+commit.c7dfd78e.Emscripten.clang"
  },
  "schemaVersion": "3.4.1",
  "updatedAt": "2021-09-16T09:52:43.029Z",
  "networkType": "ethereum",
  "devdoc": {
    "kind": "dev",
    "methods": {
      "allowance(address,address)": {
        "details": "See {IERC20-allowance}."
      },
      "approve(address,uint256)": {
        "details": "See {IERC20-approve}. Requirements: - `spender` cannot be the zero address."
      },
      "balanceOf(address)": {
        "details": "See {IERC20-balanceOf}."
      },
      "decimals()": {
        "details": "Returns the number of decimals used to get its user representation. For example, if `decimals` equals `2`, a balance of `505` tokens should be displayed to a user as `5,05` (`505 / 10 ** 2`). Tokens usually opt for a value of 18, imitating the relationship between Ether and Wei. This is the value {ERC20} uses, unless this function is overridden; NOTE: This information is only used for _display_ purposes: it in no way affects any of the arithmetic of the contract, including {IERC20-balanceOf} and {IERC20-transfer}."
      },
      "decreaseAllowance(address,uint256)": {
        "details": "Atomically decreases the allowance granted to `spender` by the caller. This is an alternative to {approve} that can be used as a mitigation for problems described in {IERC20-approve}. Emits an {Approval} event indicating the updated allowance. Requirements: - `spender` cannot be the zero address. - `spender` must have allowance for the caller of at least `subtractedValue`."
      },
      "getRoleAdmin(bytes32)": {
        "details": "Returns the admin role that controls `role`. See {grantRole} and {revokeRole}. To change a role's admin, use {_setRoleAdmin}."
      },
      "grantRole(bytes32,address)": {
        "details": "Grants `role` to `account`. If `account` had not been already granted `role`, emits a {RoleGranted} event. Requirements: - the caller must have ``role``'s admin role."
      },
      "hasRole(bytes32,address)": {
        "details": "Returns `true` if `account` has been granted `role`."
      },
      "increaseAllowance(address,uint256)": {
        "details": "Atomically increases the allowance granted to `spender` by the caller. This is an alternative to {approve} that can be used as a mitigation for problems described in {IERC20-approve}. Emits an {Approval} event indicating the updated allowance. Requirements: - `spender` cannot be the zero address."
      },
      "name()": {
        "details": "Returns the name of the token."
      },
      "renounceRole(bytes32,address)": {
        "details": "Revokes `role` from the calling account. Roles are often managed via {grantRole} and {revokeRole}: this function's purpose is to provide a mechanism for accounts to lose their privileges if they are compromised (such as when a trusted device is misplaced). If the calling account had been granted `role`, emits a {RoleRevoked} event. Requirements: - the caller must be `account`."
      },
      "revokeRole(bytes32,address)": {
        "details": "Revokes `role` from `account`. If `account` had been granted `role`, emits a {RoleRevoked} event. Requirements: - the caller must have ``role``'s admin role."
      },
      "supportsInterface(bytes4)": {
        "details": "See {IERC165-supportsInterface}."
      },
      "symbol()": {
        "details": "Returns the symbol of the token, usually a shorter version of the name."
      },
      "totalSupply()": {
        "details": "See {IERC20-totalSupply}."
      },
      "transfer(address,uint256)": {
        "details": "See {IERC20-transfer}. Requirements: - `recipient` cannot be the zero address. - the caller must have a balance of at least `amount`."
      },
      "transferFrom(address,address,uint256)": {
        "details": "See {IERC20-transferFrom}. Emits an {Approval} event indicating the updated allowance. This is not required by the EIP. See the note at the beginning of {ERC20}. Requirements: - `sender` and `recipient` cannot be the zero address. - `sender` must have a balance of at least `amount`. - the caller must have allowance for ``sender``'s tokens of at least `amount`."
      }
    },
    "version": 1
  },
  "userdoc": {
    "kind": "user",
    "methods": {},
    "version": 1
  }
}