{
  "contractName": "SoulHarvestDistributor",
  "abi": [
    {
      "anonymous": false,
      "inputs": [
        {
          "indexed": true,
          "internalType": "address",
          "name": "account",
          "type": "address"
        },
        {
          "indexed": true,
          "internalType": "uint256",
          "name": "pid",
          "type": "uint256"
        },
        {
          "indexed": false,
          "internalType": "uint256",
          "name": "deposited",
          "type": "uint256"
        },
        {
          "indexed": false,
          "internalType": "uint256",
          "name": "harvested",
          "type": "uint256"
        }
      ],
      "name": "DepositAdded",
      "type": "event"
    },
    {
      "anonymous": false,
      "inputs": [
        {
          "indexed": true,
          "internalType": "address",
          "name": "account",
          "type": "address"
        },
        {
          "indexed": true,
          "internalType": "uint256",
          "name": "pid",
          "type": "uint256"
        },
        {
          "indexed": false,
          "internalType": "uint256",
          "name": "harvested",
          "type": "uint256"
        }
      ],
      "name": "HarvestAdded",
      "type": "event"
    },
    {
      "anonymous": false,
      "inputs": [
        {
          "indexed": true,
          "internalType": "address",
          "name": "account",
          "type": "address"
        },
        {
          "indexed": true,
          "internalType": "uint256",
          "name": "pid",
          "type": "uint256"
        },
        {
          "indexed": false,
          "internalType": "uint256",
          "name": "harvested",
          "type": "uint256"
        }
      ],
      "name": "TransactionAdded",
      "type": "event"
    },
    {
      "anonymous": false,
      "inputs": [
        {
          "indexed": true,
          "internalType": "address",
          "name": "account",
          "type": "address"
        },
        {
          "indexed": true,
          "internalType": "uint256",
          "name": "pid",
          "type": "uint256"
        },
        {
          "indexed": false,
          "internalType": "uint256",
          "name": "withdrawn",
          "type": "uint256"
        },
        {
          "indexed": false,
          "internalType": "uint256",
          "name": "harvested",
          "type": "uint256"
        }
      ],
      "name": "WithdrawAdded",
      "type": "event"
    },
    {
      "anonymous": false,
      "inputs": [
        {
          "indexed": false,
          "internalType": "address",
          "name": "accountant",
          "type": "address"
        }
      ],
      "name": "newAccountant",
      "type": "event"
    },
    {
      "inputs": [],
      "name": "accountant",
      "outputs": [
        {
          "internalType": "address",
          "name": "",
          "type": "address"
        }
      ],
      "stateMutability": "view",
      "type": "function"
    },
    {
      "inputs": [],
      "name": "summoner",
      "outputs": [
        {
          "internalType": "contract ISummoner",
          "name": "",
          "type": "address"
        }
      ],
      "stateMutability": "view",
      "type": "function"
    },
    {
      "inputs": [
        {
          "internalType": "uint256",
          "name": "",
          "type": "uint256"
        },
        {
          "internalType": "address",
          "name": "",
          "type": "address"
        }
      ],
      "name": "userInfo",
      "outputs": [
        {
          "internalType": "uint256",
          "name": "amount",
          "type": "uint256"
        },
        {
          "internalType": "uint256",
          "name": "rewardDebt",
          "type": "uint256"
        }
      ],
      "stateMutability": "view",
      "type": "function"
    },
    {
      "inputs": [
        {
          "internalType": "uint256",
          "name": "pid",
          "type": "uint256"
        }
      ],
      "name": "stakedAmount",
      "outputs": [
        {
          "internalType": "uint256",
          "name": "bigStaked",
          "type": "uint256"
        },
        {
          "internalType": "uint256",
          "name": "staked",
          "type": "uint256"
        }
      ],
      "stateMutability": "view",
      "type": "function"
    },
    {
      "inputs": [
        {
          "internalType": "uint256",
          "name": "pid",
          "type": "uint256"
        },
        {
          "internalType": "address",
          "name": "account",
          "type": "address"
        }
      ],
      "name": "stakedAmount",
      "outputs": [
        {
          "internalType": "uint256",
          "name": "bigStaked",
          "type": "uint256"
        },
        {
          "internalType": "uint256",
          "name": "staked",
          "type": "uint256"
        }
      ],
      "stateMutability": "view",
      "type": "function"
    },
    {
      "inputs": [
        {
          "internalType": "uint256",
          "name": "pid",
          "type": "uint256"
        },
        {
          "internalType": "address",
          "name": "account",
          "type": "address"
        }
      ],
      "name": "rewardDebt",
      "outputs": [
        {
          "internalType": "uint256",
          "name": "bigDebt",
          "type": "uint256"
        },
        {
          "internalType": "uint256",
          "name": "debt",
          "type": "uint256"
        }
      ],
      "stateMutability": "view",
      "type": "function"
    },
    {
      "inputs": [
        {
          "internalType": "uint256",
          "name": "pid",
          "type": "uint256"
        }
      ],
      "name": "rewardDebt",
      "outputs": [
        {
          "internalType": "uint256",
          "name": "bigDebt",
          "type": "uint256"
        },
        {
          "internalType": "uint256",
          "name": "debt",
          "type": "uint256"
        }
      ],
      "stateMutability": "view",
      "type": "function"
    },
    {
      "inputs": [
        {
          "internalType": "uint256",
          "name": "pid",
          "type": "uint256"
        }
      ],
      "name": "pendingRewards",
      "outputs": [
        {
          "internalType": "uint256",
          "name": "bigPending",
          "type": "uint256"
        },
        {
          "internalType": "uint256",
          "name": "pending",
          "type": "uint256"
        }
      ],
      "stateMutability": "view",
      "type": "function"
    },
    {
      "inputs": [
        {
          "internalType": "uint256",
          "name": "pid",
          "type": "uint256"
        },
        {
          "internalType": "address",
          "name": "account",
          "type": "address"
        }
      ],
      "name": "pendingRewards",
      "outputs": [
        {
          "internalType": "uint256",
          "name": "bigPending",
          "type": "uint256"
        },
        {
          "internalType": "uint256",
          "name": "pending",
          "type": "uint256"
        }
      ],
      "stateMutability": "view",
      "type": "function"
    },
    {
      "inputs": [
        {
          "internalType": "bool",
          "name": "isDeposit",
          "type": "bool"
        },
        {
          "internalType": "uint256",
          "name": "pid",
          "type": "uint256"
        },
        {
          "internalType": "address",
          "name": "account",
          "type": "address"
        },
        {
          "internalType": "uint256",
          "name": "amount",
          "type": "uint256"
        },
        {
          "internalType": "uint256",
          "name": "harvested",
          "type": "uint256"
        }
      ],
      "name": "addTransaction",
      "outputs": [],
      "stateMutability": "nonpayable",
      "type": "function"
    },
    {
      "inputs": [
        {
          "internalType": "uint256",
          "name": "pid",
          "type": "uint256"
        },
        {
          "internalType": "address",
          "name": "account",
          "type": "address"
        },
        {
          "internalType": "uint256",
          "name": "deposited",
          "type": "uint256"
        },
        {
          "internalType": "uint256",
          "name": "harvested",
          "type": "uint256"
        }
      ],
      "name": "addDeposit",
      "outputs": [],
      "stateMutability": "nonpayable",
      "type": "function"
    },
    {
      "inputs": [
        {
          "internalType": "uint256",
          "name": "pid",
          "type": "uint256"
        },
        {
          "internalType": "address",
          "name": "account",
          "type": "address"
        },
        {
          "internalType": "uint256",
          "name": "withdrawn",
          "type": "uint256"
        },
        {
          "internalType": "uint256",
          "name": "harvested",
          "type": "uint256"
        }
      ],
      "name": "addWithdrawal",
      "outputs": [],
      "stateMutability": "nonpayable",
      "type": "function"
    },
    {
      "inputs": [
        {
          "internalType": "uint256",
          "name": "pid",
          "type": "uint256"
        },
        {
          "internalType": "address",
          "name": "account",
          "type": "address"
        },
        {
          "internalType": "uint256",
          "name": "harvested",
          "type": "uint256"
        }
      ],
      "name": "addHarvest",
      "outputs": [],
      "stateMutability": "nonpayable",
      "type": "function"
    },
    {
      "inputs": [
        {
          "internalType": "address",
          "name": "_accountant",
          "type": "address"
        }
      ],
      "name": "updateAccountant",
      "outputs": [],
      "stateMutability": "nonpayable",
      "type": "function"
    },
    {
      "inputs": [
        {
          "internalType": "uint256",
          "name": "bigAmount",
          "type": "uint256"
        }
      ],
      "name": "fromWei",
      "outputs": [
        {
          "internalType": "uint256",
          "name": "amount",
          "type": "uint256"
        }
      ],
      "stateMutability": "pure",
      "type": "function"
    },
    {
      "inputs": [
        {
          "internalType": "uint256",
          "name": "amount",
          "type": "uint256"
        }
      ],
      "name": "toWei",
      "outputs": [
        {
          "internalType": "uint256",
          "name": "bigAmount",
          "type": "uint256"
        }
      ],
      "stateMutability": "pure",
      "type": "function"
    }
  ],
  "bytecode": "0x608060405273ce6ccbb1edad497b4d53d829df491af70065ab5b6000806101000a81548173ffffffffffffffffffffffffffffffffffffffff021916908373ffffffffffffffffffffffffffffffffffffffff16021790555033600160006101000a81548173ffffffffffffffffffffffffffffffffffffffff021916908373ffffffffffffffffffffffffffffffffffffffff1602179055503480156100a557600080fd5b50611601806100b56000396000f3fe608060405234801561001057600080fd5b50600436106101005760003560e01c8063b9e2a20711610097578063d7a5747211610066578063d7a57472146102e9578063dacaa9d114610305578063e65d152214610323578063f3371e9a1461035357610100565b8063b9e2a2071461024f578063c0b930da14610280578063d18df53c1461029c578063d49414a0146102cd57610100565b80636c222b17116100d35780636c222b17146101a05780637dcb2abf146101bc57806393f1a40b146101ed578063b85502a01461021e57610100565b80633714f467146101055780634fb3ccc5146101215780635a459ed41461013f578063669dafe814610170575b600080fd5b61011f600480360381019061011a9190610fac565b610384565b005b6101296104d8565b604051610136919061100e565b60405180910390f35b61015960048036038101906101549190611029565b6104fe565b604051610167929190611065565b60405180910390f35b61018a60048036038101906101859190611029565b6105c6565b604051610197919061108e565b60405180910390f35b6101ba60048036038101906101b591906110a9565b6105e3565b005b6101d660048036038101906101d19190611029565b6106ee565b6040516101e4929190611065565b60405180910390f35b610207600480360381019061020291906110d6565b61079f565b604051610215929190611065565b60405180910390f35b610238600480360381019061023391906110d6565b6107d0565b604051610246929190611065565b60405180910390f35b610269600480360381019061026491906110d6565b61089a565b604051610277929190611065565b60405180910390f35b61029a60048036038101906102959190611116565b610965565b005b6102b660048036038101906102b191906110d6565b610abc565b6040516102c4929190611065565b60405180910390f35b6102e760048036038101906102e291906111b5565b610b6f565b005b61030360048036038101906102fe9190611116565b610cb2565b005b61030d610e09565b60405161031a919061128f565b60405180910390f35b61033d60048036038101906103389190611029565b610e2d565b60405161034a919061108e565b60405180910390f35b61036d60048036038101906103689190611029565b610e4a565b60405161037b929190611065565b60405180910390f35b600160009054906101000a900473ffffffffffffffffffffffffffffffffffffffff1673ffffffffffffffffffffffffffffffffffffffff163373ffffffffffffffffffffffffffffffffffffffff1614610414576040517f08c379a000000000000000000000000000000000000000000000000000000000815260040161040b9061132d565b60405180910390fd5b60006002600085815260200190815260200160002060008473ffffffffffffffffffffffffffffffffffffffff1673ffffffffffffffffffffffffffffffffffffffff16815260200190815260200160002090508181600001600082825461047c919061137c565b92505081905550838373ffffffffffffffffffffffffffffffffffffffff167f191bdd1753131f689dd6a0af346459712296da4349b400f7ac90c56770b28401846040516104ca919061108e565b60405180910390a350505050565b600160009054906101000a900473ffffffffffffffffffffffffffffffffffffffff1681565b60008060008054906101000a900473ffffffffffffffffffffffffffffffffffffffff1673ffffffffffffffffffffffffffffffffffffffff166393f1a40b84336040518363ffffffff1660e01b815260040161055c9291906113b0565b60e060405180830381865afa158015610579573d6000803e3d6000fd5b505050506040513d601f19601f8201168201806040525081019061059d91906113ee565b909192939450909192935090919250909150905050809250506105bf82610e2d565b9050915091565b6000670de0b6b3a7640000826105dc9190611490565b9050919050565b600160009054906101000a900473ffffffffffffffffffffffffffffffffffffffff1673ffffffffffffffffffffffffffffffffffffffff163373ffffffffffffffffffffffffffffffffffffffff1614610673576040517f08c379a000000000000000000000000000000000000000000000000000000000815260040161066a9061151e565b60405180910390fd5b80600160006101000a81548173ffffffffffffffffffffffffffffffffffffffff021916908373ffffffffffffffffffffffffffffffffffffffff1602179055507f80af1874c8cf1478f036d640900191ba53c7882d0ed1b952fbc5f63b6dd31444816040516106e3919061100e565b60405180910390a150565b60008060008054906101000a900473ffffffffffffffffffffffffffffffffffffffff1673ffffffffffffffffffffffffffffffffffffffff1663bfafcad584336040518363ffffffff1660e01b815260040161074c9291906113b0565b602060405180830381865afa158015610769573d6000803e3d6000fd5b505050506040513d601f19601f8201168201806040525081019061078d919061153e565b915061079882610e2d565b9050915091565b6002602052816000526040600020602052806000526040600020600091509150508060000154908060010154905082565b60008060008054906101000a900473ffffffffffffffffffffffffffffffffffffffff1673ffffffffffffffffffffffffffffffffffffffff166393f1a40b85856040518363ffffffff1660e01b815260040161082e9291906113b0565b60e060405180830381865afa15801561084b573d6000803e3d6000fd5b505050506040513d601f19601f8201168201806040525081019061086f91906113ee565b9091929394509091929350909192509091509050508092505061089182610e2d565b90509250929050565b60008060008054906101000a900473ffffffffffffffffffffffffffffffffffffffff1673ffffffffffffffffffffffffffffffffffffffff166393f1a40b85856040518363ffffffff1660e01b81526004016108f89291906113b0565b60e060405180830381865afa158015610915573d6000803e3d6000fd5b505050506040513d601f19601f8201168201806040525081019061093991906113ee565b909192939495509091929350909192509091509050508092505061095c82610e2d565b90509250929050565b600160009054906101000a900473ffffffffffffffffffffffffffffffffffffffff1673ffffffffffffffffffffffffffffffffffffffff163373ffffffffffffffffffffffffffffffffffffffff16146109f5576040517f08c379a00000000000000000000000000000000000000000000000000000000081526004016109ec9061132d565b60405180910390fd5b60006002600086815260200190815260200160002060008573ffffffffffffffffffffffffffffffffffffffff1673ffffffffffffffffffffffffffffffffffffffff168152602001908152602001600020905082816000016000828254610a5d919061137c565b92505081905550848473ffffffffffffffffffffffffffffffffffffffff167fb37ee076389d0e0226e28f5eb753578001087ab4722dc31f831f024efb41da6f8585604051610aad929190611065565b60405180910390a35050505050565b60008060008054906101000a900473ffffffffffffffffffffffffffffffffffffffff1673ffffffffffffffffffffffffffffffffffffffff1663bfafcad585856040518363ffffffff1660e01b8152600401610b1a9291906113b0565b602060405180830381865afa158015610b37573d6000803e3d6000fd5b505050506040513d601f19601f82011682018060405250810190610b5b919061153e565b9150610b6682610e2d565b90509250929050565b600160009054906101000a900473ffffffffffffffffffffffffffffffffffffffff1673ffffffffffffffffffffffffffffffffffffffff163373ffffffffffffffffffffffffffffffffffffffff1614610bff576040517f08c379a0000000000000000000000000000000000000000000000000000000008152600401610bf69061132d565b60405180910390fd5b848015610c0c5750600082115b610c2057610c1b848483610384565b610c2d565b610c2c84848484610965565b5b84158015610c3b5750600082115b610c4f57610c4a848483610384565b610c5c565b610c5b84848484610cb2565b5b838373ffffffffffffffffffffffffffffffffffffffff167f5c43e8c5f73190fa7963ac770d275404f5293c5b23be8fad05338417ea6071fd83604051610ca3919061108e565b60405180910390a35050505050565b600160009054906101000a900473ffffffffffffffffffffffffffffffffffffffff1673ffffffffffffffffffffffffffffffffffffffff163373ffffffffffffffffffffffffffffffffffffffff1614610d42576040517f08c379a0000000000000000000000000000000000000000000000000000000008152600401610d399061132d565b60405180910390fd5b60006002600086815260200190815260200160002060008573ffffffffffffffffffffffffffffffffffffffff1673ffffffffffffffffffffffffffffffffffffffff168152602001908152602001600020905082816000016000828254610daa919061137c565b92505081905550848473ffffffffffffffffffffffffffffffffffffffff167feacabca1a41e6d0ae73ca044ae56ca67377e50c1a4a94d18d3eedffe8259a6b18585604051610dfa929190611065565b60405180910390a35050505050565b60008054906101000a900473ffffffffffffffffffffffffffffffffffffffff1681565b6000670de0b6b3a764000082610e43919061159a565b9050919050565b60008060008054906101000a900473ffffffffffffffffffffffffffffffffffffffff1673ffffffffffffffffffffffffffffffffffffffff166393f1a40b84336040518363ffffffff1660e01b8152600401610ea89291906113b0565b60e060405180830381865afa158015610ec5573d6000803e3d6000fd5b505050506040513d601f19601f82011682018060405250810190610ee991906113ee565b9091929394955090919293509091925090915090505080925050610f0c82610e2d565b9050915091565b600080fd5b6000819050919050565b610f2b81610f18565b8114610f3657600080fd5b50565b600081359050610f4881610f22565b92915050565b600073ffffffffffffffffffffffffffffffffffffffff82169050919050565b6000610f7982610f4e565b9050919050565b610f8981610f6e565b8114610f9457600080fd5b50565b600081359050610fa681610f80565b92915050565b600080600060608486031215610fc557610fc4610f13565b5b6000610fd386828701610f39565b9350506020610fe486828701610f97565b9250506040610ff586828701610f39565b9150509250925092565b61100881610f6e565b82525050565b60006020820190506110236000830184610fff565b92915050565b60006020828403121561103f5761103e610f13565b5b600061104d84828501610f39565b91505092915050565b61105f81610f18565b82525050565b600060408201905061107a6000830185611056565b6110876020830184611056565b9392505050565b60006020820190506110a36000830184611056565b92915050565b6000602082840312156110bf576110be610f13565b5b60006110cd84828501610f97565b91505092915050565b600080604083850312156110ed576110ec610f13565b5b60006110fb85828601610f39565b925050602061110c85828601610f97565b9150509250929050565b600080600080608085870312156111305761112f610f13565b5b600061113e87828801610f39565b945050602061114f87828801610f97565b935050604061116087828801610f39565b925050606061117187828801610f39565b91505092959194509250565b60008115159050919050565b6111928161117d565b811461119d57600080fd5b50565b6000813590506111af81611189565b92915050565b600080600080600060a086880312156111d1576111d0610f13565b5b60006111df888289016111a0565b95505060206111f088828901610f39565b945050604061120188828901610f97565b935050606061121288828901610f39565b925050608061122388828901610f39565b9150509295509295909350565b6000819050919050565b600061125561125061124b84610f4e565b611230565b610f4e565b9050919050565b60006112678261123a565b9050919050565b60006112798261125c565b9050919050565b6112898161126e565b82525050565b60006020820190506112a46000830184611280565b92915050565b600082825260208201905092915050565b7f6f6e6c7920746865206163636f756e74616e74206d617920757064617465206c60008201527f6564676572000000000000000000000000000000000000000000000000000000602082015250565b60006113176025836112aa565b9150611322826112bb565b604082019050919050565b600060208201905081810360008301526113468161130a565b9050919050565b7f4e487b7100000000000000000000000000000000000000000000000000000000600052601160045260246000fd5b600061138782610f18565b915061139283610f18565b92508282019050808211156113aa576113a961134d565b5b92915050565b60006040820190506113c56000830185611056565b6113d26020830184610fff565b9392505050565b6000815190506113e881610f22565b92915050565b600080600080600080600060e0888a03121561140d5761140c610f13565b5b600061141b8a828b016113d9565b975050602061142c8a828b016113d9565b965050604061143d8a828b016113d9565b955050606061144e8a828b016113d9565b945050608061145f8a828b016113d9565b93505060a06114708a828b016113d9565b92505060c06114818a828b016113d9565b91505092959891949750929550565b600061149b82610f18565b91506114a683610f18565b92508282026114b481610f18565b915082820484148315176114cb576114ca61134d565b5b5092915050565b7f6f6e6c79206163636f756e74616e74206d617920757064617465000000000000600082015250565b6000611508601a836112aa565b9150611513826114d2565b602082019050919050565b60006020820190508181036000830152611537816114fb565b9050919050565b60006020828403121561155457611553610f13565b5b6000611562848285016113d9565b91505092915050565b7f4e487b7100000000000000000000000000000000000000000000000000000000600052601260045260246000fd5b60006115a582610f18565b91506115b083610f18565b9250826115c0576115bf61156b565b5b82820490509291505056fea2646970667358221220cee5625cb6305a635d345d5b3a3abe0e46b561278af70e65a49efc1299988ec264736f6c63430008110033",
  "immutableReferences": {},
  "source": "// SPDX-License-Identifier: MIT\n\nimport '../interfaces/ISummoner.sol';\n\npragma solidity >=0.8.0;\n\ncontract SoulHarvestDistributor {\n\n    ISummoner public summoner = ISummoner(0xce6ccbB1EdAD497B4d53d829DF491aF70065AB5B);\n    address public accountant = msg.sender;\n\n    mapping (uint => mapping (address => Users)) public userInfo; // staker data\n\n\n    // user info\n    struct Users {\n        uint amount;           // total tokens user has provided.\n        uint rewardDebt;       // reward debt (see below).\n        //   pending reward = (user.amount * pool.accSoulPerShare) - user.rewardDebt\n\n        // the following occurs when a user +/- tokens to a pool:\n        //   1. pool: `accSoulPerShare` and `lastRewardTime` update.\n        //   2. user: receives pending reward.\n        //   3. user: `amount` updates(+/-).\n        //   4. user: `rewardDebt` updates (+/-).\n    }\n\n    event TransactionAdded(address indexed account, uint indexed pid, uint harvested);\n    event DepositAdded(address indexed account, uint indexed pid, uint deposited, uint harvested);\n    event WithdrawAdded(address indexed account, uint indexed pid, uint withdrawn, uint harvested);\n    event HarvestAdded(address indexed account, uint indexed pid, uint harvested);\n    event newAccountant(address accountant);\n    \n    function stakedAmount(uint pid) public view returns (uint bigStaked, uint staked) {\n       (bigStaked,,,,,,) = summoner.userInfo(pid, msg.sender);\n       staked = fromWei(bigStaked);\n\n       return (bigStaked, staked);\n    }\n\n    function stakedAmount(uint pid, address account) public view returns (uint bigStaked, uint staked) {\n        (bigStaked,,,,,,) = summoner.userInfo(pid, account);\n        staked = fromWei(bigStaked);\n\n        return (bigStaked, staked);\n\n    }\n\n    function rewardDebt(uint pid) public view returns (uint bigDebt, uint debt) {\n       (,bigDebt,,,,,) = summoner.userInfo(pid, msg.sender);\n        debt = fromWei(bigDebt);\n\n        return (bigDebt, debt);    \n    }\n\n    function rewardDebt(uint pid, address account) public view returns (uint bigDebt, uint debt) {\n       (,bigDebt,,,,,) = summoner.userInfo(pid, account);\n       debt = fromWei(bigDebt);\n\n        return (bigDebt, debt); \n    }\n\n    function pendingRewards(uint pid) public view returns (uint bigPending, uint pending) {\n       bigPending = summoner.pendingSoul(pid, msg.sender);\n       pending = fromWei(bigPending);\n\n       return (bigPending, pending);\n    }\n\n    function pendingRewards(uint pid, address account) public view returns (uint bigPending, uint pending) {\n        bigPending = summoner.pendingSoul(pid, account);\n        pending = fromWei(bigPending);\n\n       return (bigPending, pending);\n    }\n\n    // update user's ledger with a reported transaction\n    function addTransaction(bool isDeposit, uint pid, address account, uint amount, uint harvested) public {\n        require(msg.sender == accountant, 'only the accountant may update ledger');\n        \n        // case: tokens deposited, else harvested only.\n        isDeposit && amount > 0\n            ? addDeposit(pid, account, amount, harvested)\n            : addHarvest(pid, account, harvested);\n\n        // case: tokens withdrawn, else harvested only. \n        !isDeposit && amount > 0\n            ? addWithdrawal(pid, account, amount, harvested)\n            : addHarvest(pid, account, harvested);\n        \n        emit TransactionAdded(account, pid, harvested);\n    }\n\n    // update user's balance with a reported deposit\n    function addDeposit(uint pid, address account, uint deposited, uint harvested) public {\n        require(msg.sender == accountant, 'only the accountant may update ledger');\n        \n        Users storage user = userInfo[pid][account];\n        user.amount += deposited;\n\n        emit DepositAdded(account, pid, deposited, harvested);\n    }\n\n    // update user's balance with a reported withdrawal\n    function addWithdrawal(uint pid, address account, uint withdrawn, uint harvested) public {\n        require(msg.sender == accountant, 'only the accountant may update ledger');\n        \n        Users storage user = userInfo[pid][account];\n        user.amount += withdrawn;\n\n        emit WithdrawAdded(account, pid, withdrawn, harvested);\n    }\n\n    // update user's balance with a manually-added deposit\n    function addHarvest(uint pid, address account, uint harvested) public {\n        require(msg.sender == accountant, 'only the accountant may update ledger');\n        \n        Users storage user = userInfo[pid][account];\n        user.amount += harvested;\n\n        emit HarvestAdded(account, pid, harvested);\n    }\n\n    function updateAccountant(address _accountant) public {\n        require(msg.sender == accountant, 'only accountant may update');\n        \n        accountant = _accountant;\n\n        emit newAccountant(_accountant);\n    }\n\n    function fromWei(uint bigAmount) public pure returns(uint amount) {\n        return bigAmount / 1E18;\n    }\n\n    function toWei(uint amount) public pure returns(uint bigAmount) {\n        return amount * 1E18;\n    }\n}\n",
  "sourcePath": "/Users/buns/Documents/GitHub/SoulSwapFinance/soulswap-farms/contracts/helpers/SoulHarvestDistributor.sol",
  "compiler": {
    "name": "solc",
    "version": "0.8.17+commit.8df45f5f.Emscripten.clang"
  },
  "schemaVersion": "3.4.1",
  "updatedAt": "2022-10-01T21:51:29.721Z",
  "devdoc": {
    "kind": "dev",
    "methods": {},
    "version": 1
  },
  "userdoc": {
    "kind": "user",
    "methods": {},
    "version": 1
  }
}