{
  "contractName": "SoulSummoner",
  "abi": [
    {
      "inputs": [],
      "stateMutability": "nonpayable",
      "type": "constructor"
    },
    {
      "anonymous": false,
      "inputs": [
        {
          "indexed": false,
          "internalType": "address",
          "name": "dao",
          "type": "address"
        },
        {
          "indexed": false,
          "internalType": "address",
          "name": "team",
          "type": "address"
        }
      ],
      "name": "AccountsUpdated",
      "type": "event"
    },
    {
      "anonymous": false,
      "inputs": [
        {
          "indexed": true,
          "internalType": "address",
          "name": "user",
          "type": "address"
        },
        {
          "indexed": true,
          "internalType": "uint256",
          "name": "pid",
          "type": "uint256"
        },
        {
          "indexed": false,
          "internalType": "uint256",
          "name": "amount",
          "type": "uint256"
        }
      ],
      "name": "Deposit",
      "type": "event"
    },
    {
      "anonymous": false,
      "inputs": [
        {
          "indexed": false,
          "internalType": "address",
          "name": "team",
          "type": "address"
        },
        {
          "indexed": false,
          "internalType": "address",
          "name": "dao",
          "type": "address"
        },
        {
          "indexed": false,
          "internalType": "address",
          "name": "soul",
          "type": "address"
        },
        {
          "indexed": false,
          "internalType": "address",
          "name": "seance",
          "type": "address"
        },
        {
          "indexed": false,
          "internalType": "uint256",
          "name": "totalAllocPoint",
          "type": "uint256"
        },
        {
          "indexed": false,
          "internalType": "uint256",
          "name": "weight",
          "type": "uint256"
        }
      ],
      "name": "Initialized",
      "type": "event"
    },
    {
      "anonymous": false,
      "inputs": [
        {
          "indexed": true,
          "internalType": "address",
          "name": "previousOwner",
          "type": "address"
        },
        {
          "indexed": true,
          "internalType": "address",
          "name": "newOwner",
          "type": "address"
        }
      ],
      "name": "OwnershipTransferred",
      "type": "event"
    },
    {
      "anonymous": false,
      "inputs": [
        {
          "indexed": false,
          "internalType": "address",
          "name": "account",
          "type": "address"
        }
      ],
      "name": "Paused",
      "type": "event"
    },
    {
      "anonymous": false,
      "inputs": [
        {
          "indexed": false,
          "internalType": "uint256",
          "name": "pid",
          "type": "uint256"
        },
        {
          "indexed": false,
          "internalType": "uint256",
          "name": "allocPoint",
          "type": "uint256"
        },
        {
          "indexed": false,
          "internalType": "contract IERC20",
          "name": "lpToken",
          "type": "address"
        },
        {
          "indexed": false,
          "internalType": "uint256",
          "name": "totalAllocPoint",
          "type": "uint256"
        }
      ],
      "name": "PoolAdded",
      "type": "event"
    },
    {
      "anonymous": false,
      "inputs": [
        {
          "indexed": false,
          "internalType": "uint256",
          "name": "pid",
          "type": "uint256"
        },
        {
          "indexed": false,
          "internalType": "uint256",
          "name": "allocPoint",
          "type": "uint256"
        }
      ],
      "name": "PoolSet",
      "type": "event"
    },
    {
      "anonymous": false,
      "inputs": [
        {
          "indexed": false,
          "internalType": "uint256",
          "name": "dailySoul",
          "type": "uint256"
        },
        {
          "indexed": false,
          "internalType": "uint256",
          "name": "soulPerSecond",
          "type": "uint256"
        }
      ],
      "name": "RewardsUpdated",
      "type": "event"
    },
    {
      "anonymous": false,
      "inputs": [
        {
          "indexed": true,
          "internalType": "bytes32",
          "name": "role",
          "type": "bytes32"
        },
        {
          "indexed": true,
          "internalType": "bytes32",
          "name": "previousAdminRole",
          "type": "bytes32"
        },
        {
          "indexed": true,
          "internalType": "bytes32",
          "name": "newAdminRole",
          "type": "bytes32"
        }
      ],
      "name": "RoleAdminChanged",
      "type": "event"
    },
    {
      "anonymous": false,
      "inputs": [
        {
          "indexed": false,
          "internalType": "bytes32",
          "name": "role",
          "type": "bytes32"
        },
        {
          "indexed": false,
          "internalType": "bytes32",
          "name": "supreme",
          "type": "bytes32"
        }
      ],
      "name": "RoleDivinated",
      "type": "event"
    },
    {
      "anonymous": false,
      "inputs": [
        {
          "indexed": true,
          "internalType": "bytes32",
          "name": "role",
          "type": "bytes32"
        },
        {
          "indexed": true,
          "internalType": "address",
          "name": "account",
          "type": "address"
        },
        {
          "indexed": true,
          "internalType": "address",
          "name": "sender",
          "type": "address"
        }
      ],
      "name": "RoleGranted",
      "type": "event"
    },
    {
      "anonymous": false,
      "inputs": [
        {
          "indexed": true,
          "internalType": "bytes32",
          "name": "role",
          "type": "bytes32"
        },
        {
          "indexed": true,
          "internalType": "address",
          "name": "account",
          "type": "address"
        },
        {
          "indexed": true,
          "internalType": "address",
          "name": "sender",
          "type": "address"
        }
      ],
      "name": "RoleRevoked",
      "type": "event"
    },
    {
      "anonymous": false,
      "inputs": [
        {
          "indexed": false,
          "internalType": "address",
          "name": "soul",
          "type": "address"
        },
        {
          "indexed": false,
          "internalType": "address",
          "name": "seance",
          "type": "address"
        }
      ],
      "name": "TokensUpdated",
      "type": "event"
    },
    {
      "anonymous": false,
      "inputs": [
        {
          "indexed": false,
          "internalType": "address",
          "name": "account",
          "type": "address"
        }
      ],
      "name": "Unpaused",
      "type": "event"
    },
    {
      "anonymous": false,
      "inputs": [
        {
          "indexed": false,
          "internalType": "uint256",
          "name": "weight",
          "type": "uint256"
        },
        {
          "indexed": false,
          "internalType": "uint256",
          "name": "totalWeight",
          "type": "uint256"
        }
      ],
      "name": "WeightUpdated",
      "type": "event"
    },
    {
      "anonymous": false,
      "inputs": [
        {
          "indexed": true,
          "internalType": "address",
          "name": "user",
          "type": "address"
        },
        {
          "indexed": true,
          "internalType": "uint256",
          "name": "pid",
          "type": "uint256"
        },
        {
          "indexed": false,
          "internalType": "uint256",
          "name": "amount",
          "type": "uint256"
        }
      ],
      "name": "Withdraw",
      "type": "event"
    },
    {
      "inputs": [],
      "name": "DEFAULT_ADMIN_ROLE",
      "outputs": [
        {
          "internalType": "bytes32",
          "name": "",
          "type": "bytes32"
        }
      ],
      "stateMutability": "view",
      "type": "function"
    },
    {
      "inputs": [],
      "name": "bonusMultiplier",
      "outputs": [
        {
          "internalType": "uint256",
          "name": "",
          "type": "uint256"
        }
      ],
      "stateMutability": "view",
      "type": "function"
    },
    {
      "inputs": [],
      "name": "dailySoul",
      "outputs": [
        {
          "internalType": "uint256",
          "name": "",
          "type": "uint256"
        }
      ],
      "stateMutability": "view",
      "type": "function"
    },
    {
      "inputs": [],
      "name": "dao",
      "outputs": [
        {
          "internalType": "address",
          "name": "",
          "type": "address"
        }
      ],
      "stateMutability": "view",
      "type": "function"
    },
    {
      "inputs": [
        {
          "internalType": "bytes32",
          "name": "role",
          "type": "bytes32"
        }
      ],
      "name": "getRoleAdmin",
      "outputs": [
        {
          "internalType": "bytes32",
          "name": "",
          "type": "bytes32"
        }
      ],
      "stateMutability": "view",
      "type": "function"
    },
    {
      "inputs": [
        {
          "internalType": "bytes32",
          "name": "role",
          "type": "bytes32"
        },
        {
          "internalType": "address",
          "name": "account",
          "type": "address"
        }
      ],
      "name": "grantRole",
      "outputs": [],
      "stateMutability": "nonpayable",
      "type": "function"
    },
    {
      "inputs": [
        {
          "internalType": "bytes32",
          "name": "role",
          "type": "bytes32"
        },
        {
          "internalType": "address",
          "name": "account",
          "type": "address"
        }
      ],
      "name": "hasRole",
      "outputs": [
        {
          "internalType": "bool",
          "name": "",
          "type": "bool"
        }
      ],
      "stateMutability": "view",
      "type": "function"
    },
    {
      "inputs": [],
      "name": "isInitialized",
      "outputs": [
        {
          "internalType": "bool",
          "name": "",
          "type": "bool"
        }
      ],
      "stateMutability": "view",
      "type": "function"
    },
    {
      "inputs": [],
      "name": "isis",
      "outputs": [
        {
          "internalType": "bytes32",
          "name": "",
          "type": "bytes32"
        }
      ],
      "stateMutability": "view",
      "type": "function"
    },
    {
      "inputs": [],
      "name": "maat",
      "outputs": [
        {
          "internalType": "bytes32",
          "name": "",
          "type": "bytes32"
        }
      ],
      "stateMutability": "view",
      "type": "function"
    },
    {
      "inputs": [],
      "name": "migrator",
      "outputs": [
        {
          "internalType": "contract IMigrator",
          "name": "",
          "type": "address"
        }
      ],
      "stateMutability": "view",
      "type": "function"
    },
    {
      "inputs": [],
      "name": "owner",
      "outputs": [
        {
          "internalType": "address",
          "name": "",
          "type": "address"
        }
      ],
      "stateMutability": "view",
      "type": "function"
    },
    {
      "inputs": [],
      "name": "paused",
      "outputs": [
        {
          "internalType": "bool",
          "name": "",
          "type": "bool"
        }
      ],
      "stateMutability": "view",
      "type": "function"
    },
    {
      "inputs": [
        {
          "internalType": "uint256",
          "name": "",
          "type": "uint256"
        }
      ],
      "name": "poolInfo",
      "outputs": [
        {
          "internalType": "contract IERC20",
          "name": "lpToken",
          "type": "address"
        },
        {
          "internalType": "uint256",
          "name": "allocPoint",
          "type": "uint256"
        },
        {
          "internalType": "uint256",
          "name": "lastRewardTime",
          "type": "uint256"
        },
        {
          "internalType": "uint256",
          "name": "accSoulPerShare",
          "type": "uint256"
        }
      ],
      "stateMutability": "view",
      "type": "function"
    },
    {
      "inputs": [],
      "name": "renounceOwnership",
      "outputs": [],
      "stateMutability": "nonpayable",
      "type": "function"
    },
    {
      "inputs": [
        {
          "internalType": "bytes32",
          "name": "role",
          "type": "bytes32"
        },
        {
          "internalType": "address",
          "name": "account",
          "type": "address"
        }
      ],
      "name": "renounceRole",
      "outputs": [],
      "stateMutability": "nonpayable",
      "type": "function"
    },
    {
      "inputs": [
        {
          "internalType": "bytes32",
          "name": "role",
          "type": "bytes32"
        },
        {
          "internalType": "address",
          "name": "account",
          "type": "address"
        }
      ],
      "name": "revokeRole",
      "outputs": [],
      "stateMutability": "nonpayable",
      "type": "function"
    },
    {
      "inputs": [],
      "name": "seance",
      "outputs": [
        {
          "internalType": "contract SeanceCircle",
          "name": "",
          "type": "address"
        }
      ],
      "stateMutability": "view",
      "type": "function"
    },
    {
      "inputs": [],
      "name": "soul",
      "outputs": [
        {
          "internalType": "contract SoulPower",
          "name": "",
          "type": "address"
        }
      ],
      "stateMutability": "view",
      "type": "function"
    },
    {
      "inputs": [],
      "name": "soulPerSecond",
      "outputs": [
        {
          "internalType": "uint256",
          "name": "",
          "type": "uint256"
        }
      ],
      "stateMutability": "view",
      "type": "function"
    },
    {
      "inputs": [],
      "name": "startTime",
      "outputs": [
        {
          "internalType": "uint256",
          "name": "",
          "type": "uint256"
        }
      ],
      "stateMutability": "view",
      "type": "function"
    },
    {
      "inputs": [
        {
          "internalType": "bytes4",
          "name": "interfaceId",
          "type": "bytes4"
        }
      ],
      "name": "supportsInterface",
      "outputs": [
        {
          "internalType": "bool",
          "name": "",
          "type": "bool"
        }
      ],
      "stateMutability": "view",
      "type": "function"
    },
    {
      "inputs": [],
      "name": "team",
      "outputs": [
        {
          "internalType": "address",
          "name": "",
          "type": "address"
        }
      ],
      "stateMutability": "view",
      "type": "function"
    },
    {
      "inputs": [],
      "name": "totalAllocPoint",
      "outputs": [
        {
          "internalType": "uint256",
          "name": "",
          "type": "uint256"
        }
      ],
      "stateMutability": "view",
      "type": "function"
    },
    {
      "inputs": [],
      "name": "totalWeight",
      "outputs": [
        {
          "internalType": "uint256",
          "name": "",
          "type": "uint256"
        }
      ],
      "stateMutability": "view",
      "type": "function"
    },
    {
      "inputs": [
        {
          "internalType": "address",
          "name": "newOwner",
          "type": "address"
        }
      ],
      "name": "transferOwnership",
      "outputs": [],
      "stateMutability": "nonpayable",
      "type": "function"
    },
    {
      "inputs": [
        {
          "internalType": "uint256",
          "name": "",
          "type": "uint256"
        },
        {
          "internalType": "address",
          "name": "",
          "type": "address"
        }
      ],
      "name": "userInfo",
      "outputs": [
        {
          "internalType": "uint256",
          "name": "amount",
          "type": "uint256"
        },
        {
          "internalType": "uint256",
          "name": "rewardDebt",
          "type": "uint256"
        }
      ],
      "stateMutability": "view",
      "type": "function"
    },
    {
      "inputs": [],
      "name": "weight",
      "outputs": [
        {
          "internalType": "uint256",
          "name": "",
          "type": "uint256"
        }
      ],
      "stateMutability": "view",
      "type": "function"
    },
    {
      "inputs": [
        {
          "internalType": "bytes32",
          "name": "role",
          "type": "bytes32"
        }
      ],
      "name": "hasDivineRole",
      "outputs": [
        {
          "internalType": "bool",
          "name": "",
          "type": "bool"
        }
      ],
      "stateMutability": "view",
      "type": "function"
    },
    {
      "inputs": [
        {
          "internalType": "address",
          "name": "_soulAddress",
          "type": "address"
        },
        {
          "internalType": "address",
          "name": "_seanceAddress",
          "type": "address"
        },
        {
          "internalType": "uint256",
          "name": "_totalWeight",
          "type": "uint256"
        },
        {
          "internalType": "uint256",
          "name": "_weight",
          "type": "uint256"
        },
        {
          "internalType": "uint256",
          "name": "_stakingAlloc",
          "type": "uint256"
        }
      ],
      "name": "initialize",
      "outputs": [],
      "stateMutability": "nonpayable",
      "type": "function"
    },
    {
      "inputs": [
        {
          "internalType": "uint256",
          "name": "_bonusMultiplier",
          "type": "uint256"
        }
      ],
      "name": "updateMultiplier",
      "outputs": [],
      "stateMutability": "nonpayable",
      "type": "function"
    },
    {
      "inputs": [],
      "name": "poolLength",
      "outputs": [
        {
          "internalType": "uint256",
          "name": "",
          "type": "uint256"
        }
      ],
      "stateMutability": "view",
      "type": "function"
    },
    {
      "inputs": [
        {
          "internalType": "uint256",
          "name": "_allocPoint",
          "type": "uint256"
        },
        {
          "internalType": "contract IERC20",
          "name": "_lpToken",
          "type": "address"
        },
        {
          "internalType": "bool",
          "name": "_withUpdate",
          "type": "bool"
        }
      ],
      "name": "addPool",
      "outputs": [],
      "stateMutability": "nonpayable",
      "type": "function"
    },
    {
      "inputs": [
        {
          "internalType": "uint256",
          "name": "pid",
          "type": "uint256"
        },
        {
          "internalType": "uint256",
          "name": "allocPoint",
          "type": "uint256"
        },
        {
          "internalType": "bool",
          "name": "withUpdate",
          "type": "bool"
        }
      ],
      "name": "set",
      "outputs": [],
      "stateMutability": "nonpayable",
      "type": "function"
    },
    {
      "inputs": [
        {
          "internalType": "uint256",
          "name": "_weight",
          "type": "uint256"
        }
      ],
      "name": "updateWeight",
      "outputs": [],
      "stateMutability": "nonpayable",
      "type": "function"
    },
    {
      "inputs": [
        {
          "internalType": "contract IMigrator",
          "name": "_migrator",
          "type": "address"
        }
      ],
      "name": "setMigrator",
      "outputs": [],
      "stateMutability": "nonpayable",
      "type": "function"
    },
    {
      "inputs": [
        {
          "internalType": "uint256",
          "name": "pid",
          "type": "uint256"
        }
      ],
      "name": "migrate",
      "outputs": [],
      "stateMutability": "nonpayable",
      "type": "function"
    },
    {
      "inputs": [
        {
          "internalType": "uint256",
          "name": "from",
          "type": "uint256"
        },
        {
          "internalType": "uint256",
          "name": "to",
          "type": "uint256"
        }
      ],
      "name": "getMultiplier",
      "outputs": [
        {
          "internalType": "uint256",
          "name": "",
          "type": "uint256"
        }
      ],
      "stateMutability": "view",
      "type": "function"
    },
    {
      "inputs": [
        {
          "internalType": "uint256",
          "name": "pid",
          "type": "uint256"
        },
        {
          "internalType": "address",
          "name": "_user",
          "type": "address"
        }
      ],
      "name": "pendingSoul",
      "outputs": [
        {
          "internalType": "uint256",
          "name": "",
          "type": "uint256"
        }
      ],
      "stateMutability": "view",
      "type": "function"
    },
    {
      "inputs": [],
      "name": "massUpdatePools",
      "outputs": [],
      "stateMutability": "nonpayable",
      "type": "function"
    },
    {
      "inputs": [
        {
          "internalType": "uint256",
          "name": "pid",
          "type": "uint256"
        }
      ],
      "name": "updatePool",
      "outputs": [],
      "stateMutability": "nonpayable",
      "type": "function"
    },
    {
      "inputs": [
        {
          "internalType": "uint256",
          "name": "pid",
          "type": "uint256"
        },
        {
          "internalType": "uint256",
          "name": "amount",
          "type": "uint256"
        }
      ],
      "name": "deposit",
      "outputs": [],
      "stateMutability": "nonpayable",
      "type": "function"
    },
    {
      "inputs": [
        {
          "internalType": "uint256",
          "name": "pid",
          "type": "uint256"
        },
        {
          "internalType": "uint256",
          "name": "amount",
          "type": "uint256"
        }
      ],
      "name": "withdraw",
      "outputs": [],
      "stateMutability": "nonpayable",
      "type": "function"
    },
    {
      "inputs": [
        {
          "internalType": "uint256",
          "name": "amount",
          "type": "uint256"
        }
      ],
      "name": "enterStaking",
      "outputs": [],
      "stateMutability": "nonpayable",
      "type": "function"
    },
    {
      "inputs": [
        {
          "internalType": "uint256",
          "name": "amount",
          "type": "uint256"
        }
      ],
      "name": "leaveStaking",
      "outputs": [],
      "stateMutability": "nonpayable",
      "type": "function"
    },
    {
      "inputs": [
        {
          "internalType": "address",
          "name": "_dao",
          "type": "address"
        },
        {
          "internalType": "address",
          "name": "_team",
          "type": "address"
        }
      ],
      "name": "updateAccounts",
      "outputs": [],
      "stateMutability": "nonpayable",
      "type": "function"
    },
    {
      "inputs": [
        {
          "internalType": "address",
          "name": "_soul",
          "type": "address"
        },
        {
          "internalType": "address",
          "name": "_seance",
          "type": "address"
        }
      ],
      "name": "updateTokens",
      "outputs": [],
      "stateMutability": "nonpayable",
      "type": "function"
    }
  ],
  "bytecode": "0x60806040526001600e553480156200001657600080fd5b50620000376200002b6200020860201b60201c565b6200021060201b60201c565b6000600160146101000a81548160ff02191690831515021790555060016002819055507324d9e0ba5d79c15d7eeabd632214430d6f1677ca600760006101000a81548173ffffffffffffffffffffffffffffffffffffffff021916908373ffffffffffffffffffffffffffffffffffffffff160217905550732ffbdfb8f48edd34cb2727f4357d321bd71ddf25600860006101000a81548173ffffffffffffffffffffffffffffffffffffffff021916908373ffffffffffffffffffffffffffffffffffffffff1602179055507f36d5d8406f8379c6deba01145ec4f6a2966675cc67d71355b397a2a8e3572b296014819055507f0811b25c145e1379dc78112dd91057f09150f6db05dfd7e04deb910e6cefd4b76015819055506200018d6000801b6000801b600760009054906101000a900473ffffffffffffffffffffffffffffffffffffffff16620002d660201b60201c565b50620001c7601454601454600760009054906101000a900473ffffffffffffffffffffffffffffffffffffffff16620002d660201b60201c565b5062000201601554601454600860009054906101000a900473ffffffffffffffffffffffffffffffffffffffff16620002d660201b60201c565b50620004fa565b600033905090565b6000600160009054906101000a900473ffffffffffffffffffffffffffffffffffffffff16905081600160006101000a81548173ffffffffffffffffffffffffffffffffffffffff021916908373ffffffffffffffffffffffffffffffffffffffff1602179055508173ffffffffffffffffffffffffffffffffffffffff168173ffffffffffffffffffffffffffffffffffffffff167f8be0079c531659141344cd1fd0a4f28419497f9722a3daafe3b4186f6b6457e060405160405180910390a35050565b6000620002ea84836200030760201b60201c565b620002fc84846200031d60201b60201c565b600190509392505050565b6200031982826200038060201b60201c565b5050565b600062000330836200047160201b60201c565b905081600080858152602001908152602001600020600101819055508181847fbd79b86ffe0ab8e8776151514217cd7cacd52c909f66475c3af44e129f0b00ff60405160405180910390a4505050565b6200039282826200049060201b60201c565b6200046d57600160008084815260200190815260200160002060000160008373ffffffffffffffffffffffffffffffffffffffff1673ffffffffffffffffffffffffffffffffffffffff16815260200190815260200160002060006101000a81548160ff021916908315150217905550620004126200020860201b60201c565b73ffffffffffffffffffffffffffffffffffffffff168173ffffffffffffffffffffffffffffffffffffffff16837f2f8788117e7eff1d82e926ec794901d17c78024a50270940304540a733656f0d60405160405180910390a45b5050565b6000806000838152602001908152602001600020600101549050919050565b600080600084815260200190815260200160002060000160008373ffffffffffffffffffffffffffffffffffffffff1673ffffffffffffffffffffffffffffffffffffffff16815260200190815260200160002060009054906101000a900460ff16905092915050565b615321806200050a6000396000f3fe608060405234801561001057600080fd5b50600436106102955760003560e01c80637abceffd11610167578063a8b973a1116100ce578063e2bbb15811610087578063e2bbb158146107b8578063e7aa29e3146107d4578063ea4bf446146107f0578063ec3df6ad1461080e578063f2fde38b1461082a578063fd6f99d01461084657610295565b8063a8b973a1146106e6578063bfafcad514610704578063d13f90b414610734578063d547741f14610750578063dbaef9b01461076c578063e13e8ec21461079c57610295565b80638dbb1e3a116101205780638dbb1e3a146105fb57806391d148541461062b57806393f1a40b1461065b57806396c82e571461068c578063a1aab33f146106aa578063a217fddf146106c857610295565b80637abceffd146105495780637cd07e47146105655780637d500ec814610583578063815b7a8c146105a157806385f2aef2146105bf5780638da5cb5b146105dd57610295565b80634162169f1161020b5780635f9bf689116101c45780635f9bf689146104c15780635ffe6146146104df578063630b5ba1146104fb57806364482f7914610505578063715018a61461052157806378e979251461052b57610295565b80634162169f14610413578063441a3e7014610431578063454b06081461044d5780634ca01d451461046957806351eb05a6146104875780635c975abb146104a357610295565b806323cf31181161025d57806323cf311814610355578063248a9ca3146103715780632f2ff15d146103a157806336568abe146103bd578063392e53cd146103d957806341441d3b146103f757610295565b806301ffc9a71461029a578063081e3eda146102ca5780631058d281146102e85780631526fe271461030457806317caf6f114610337575b600080fd5b6102b460048036038101906102af9190614145565b610864565b6040516102c19190614ad5565b60405180910390f35b6102d26108de565b6040516102df9190614e3e565b60405180910390f35b61030260048036038101906102fd91906141c0565b6108eb565b005b61031e600480360381019061031991906141c0565b610c61565b60405161032e9493929190614b26565b60405180910390f35b61033f610cc1565b60405161034c9190614e3e565b60405180910390f35b61036f600480360381019061036a9190614197565b610cc7565b005b61038b600480360381019061038691906140e0565b610d6f565b6040516103989190614af0565b60405180910390f35b6103bb60048036038101906103b69190614109565b610d8e565b005b6103d760048036038101906103d29190614109565b610db7565b005b6103e1610e3a565b6040516103ee9190614ad5565b60405180910390f35b610411600480360381019061040c91906141c0565b610e4d565b005b61041b6111d4565b60405161042891906149d0565b60405180910390f35b61044b6004803603810190610446919061429d565b6111fa565b005b610467600480360381019061046291906141c0565b61156c565b005b610471611a0d565b60405161047e9190614b86565b60405180910390f35b6104a1600480360381019061049c91906141c0565b611a33565b005b6104ab611e84565b6040516104b89190614ad5565b60405180910390f35b6104c9611e9b565b6040516104d69190614e3e565b60405180910390f35b6104f960048036038101906104f491906141c0565b611ea1565b005b610503611ec0565b005b61051f600480360381019061051a91906142d9565b611ef3565b005b6105296120bd565b005b610533612145565b6040516105409190614e3e565b60405180910390f35b610563600480360381019061055e919061424e565b61214b565b005b61056d6121c8565b60405161057a9190614b6b565b60405180910390f35b61058b6121ee565b6040516105989190614e3e565b60405180910390f35b6105a96121f4565b6040516105b69190614ba1565b60405180910390f35b6105c761221a565b6040516105d491906149d0565b60405180910390f35b6105e5612240565b6040516105f291906149d0565b60405180910390f35b6106156004803603810190610610919061429d565b61226a565b6040516106229190614e3e565b60405180910390f35b61064560048036038101906106409190614109565b61228d565b6040516106529190614ad5565b60405180910390f35b61067560048036038101906106709190614212565b6122f7565b604051610683929190614e59565b60405180910390f35b610694612328565b6040516106a19190614e3e565b60405180910390f35b6106b261232e565b6040516106bf9190614e3e565b60405180910390f35b6106d0612334565b6040516106dd9190614af0565b60405180910390f35b6106ee61233b565b6040516106fb9190614e3e565b60405180910390f35b61071e60048036038101906107199190614212565b612341565b60405161072b9190614e3e565b60405180910390f35b61074e60048036038101906107499190614040565b61255c565b005b61076a60048036038101906107659190614109565b6129b5565b005b610786600480360381019061078191906140e0565b6129de565b6040516107939190614ad5565b60405180910390f35b6107b660048036038101906107b19190614004565b6129f1565b005b6107d260048036038101906107cd919061429d565b612bf3565b005b6107ee60048036038101906107e99190614004565b612f76565b005b6107f8613134565b6040516108059190614af0565b60405180910390f35b610828600480360381019061082391906141c0565b61313a565b005b610844600480360381019061083f9190613fdb565b6132a6565b005b61084e61339e565b60405161085b9190614af0565b60405180910390f35b60007f7965db0b000000000000000000000000000000000000000000000000000000007bffffffffffffffffffffffffffffffffffffffffffffffffffffffff1916827bffffffffffffffffffffffffffffffffffffffffffffffffffffffff191614806108d757506108d6826133a4565b5b9050919050565b6000601280549050905090565b600280541415610930576040517f08c379a000000000000000000000000000000000000000000000000000000000815260040161092790614dbe565b60405180910390fd5b6002808190555060006012600081548110610974577f4e487b7100000000000000000000000000000000000000000000000000000000600052603260045260246000fd5b9060005260206000209060040201905060006013600080815260200190815260200160002060003373ffffffffffffffffffffffffffffffffffffffff1673ffffffffffffffffffffffffffffffffffffffff16815260200190815260200160002090508281600001541015610a1f576040517f08c379a0000000000000000000000000000000000000000000000000000000008152600401610a1690614d5e565b60405180910390fd5b610a296000611a33565b6000816001015464e8d4a5100084600301548460000154610a4a9190614f75565b610a549190614f44565b610a5e9190614fcf565b90506000811115610a7457610a73338261340e565b5b6000841115610b4857838260000154610a8d9190614fcf565b82600001819055508260000160009054906101000a900473ffffffffffffffffffffffffffffffffffffffff1673ffffffffffffffffffffffffffffffffffffffff1663a9059cbb33866040518363ffffffff1660e01b8152600401610af4929190614aac565b602060405180830381600087803b158015610b0e57600080fd5b505af1158015610b22573d6000803e3d6000fd5b505050506040513d601f19601f82011682018060405250810190610b4691906140b7565b505b64e8d4a5100083600301548360000154610b629190614f75565b610b6c9190614f44565b8260010181905550600660009054906101000a900473ffffffffffffffffffffffffffffffffffffffff1673ffffffffffffffffffffffffffffffffffffffff16639dc29fac33866040518363ffffffff1660e01b8152600401610bd1929190614aac565b600060405180830381600087803b158015610beb57600080fd5b505af1158015610bff573d6000803e3d6000fd5b5050505060003373ffffffffffffffffffffffffffffffffffffffff167ff279e6a1f5e320cca91135676d9cb6e44ca8a08c0b88342bcdb1144f6511b56886604051610c4b9190614e3e565b60405180910390a3505050600160028190555050565b60128181548110610c7157600080fd5b90600052602060002090600402016000915090508060000160009054906101000a900473ffffffffffffffffffffffffffffffffffffffff16908060010154908060020154908060030154905084565b60105481565b601160009054906101000a900460ff16610d16576040517f08c379a0000000000000000000000000000000000000000000000000000000008152600401610d0d90614e1e565b60405180910390fd5b601454610d2a81610d256134a1565b6134a9565b81600960006101000a81548173ffffffffffffffffffffffffffffffffffffffff021916908373ffffffffffffffffffffffffffffffffffffffff1602179055505050565b6000806000838152602001908152602001600020600101549050919050565b610d9782610d6f565b610da881610da36134a1565b6134a9565b610db28383613546565b505050565b610dbf6134a1565b73ffffffffffffffffffffffffffffffffffffffff168173ffffffffffffffffffffffffffffffffffffffff1614610e2c576040517f08c379a0000000000000000000000000000000000000000000000000000000008152600401610e2390614dde565b60405180910390fd5b610e368282613626565b5050565b601160009054906101000a900460ff1681565b600280541415610e92576040517f08c379a0000000000000000000000000000000000000000000000000000000008152600401610e8990614dbe565b60405180910390fd5b60028081905550610ea1611e84565b15610ee1576040517f08c379a0000000000000000000000000000000000000000000000000000000008152600401610ed890614c1e565b60405180910390fd5b60006012600081548110610f1e577f4e487b7100000000000000000000000000000000000000000000000000000000600052603260045260246000fd5b9060005260206000209060040201905060006013600080815260200190815260200160002060003373ffffffffffffffffffffffffffffffffffffffff1673ffffffffffffffffffffffffffffffffffffffff1681526020019081526020016000209050610f8c6000611a33565b600081600001541115610fe6576000816001015464e8d4a5100084600301548460000154610fba9190614f75565b610fc49190614f44565b610fce9190614fcf565b90506000811115610fe457610fe3338261340e565b5b505b60008311156110bc578160000160009054906101000a900473ffffffffffffffffffffffffffffffffffffffff1673ffffffffffffffffffffffffffffffffffffffff166323b872dd3330866040518463ffffffff1660e01b815260040161105093929190614a75565b602060405180830381600087803b15801561106a57600080fd5b505af115801561107e573d6000803e3d6000fd5b505050506040513d601f19601f820116820180604052508101906110a291906140b7565b508281600001546110b39190614eee565b81600001819055505b64e8d4a51000826003015482600001546110d69190614f75565b6110e09190614f44565b8160010181905550600660009054906101000a900473ffffffffffffffffffffffffffffffffffffffff1673ffffffffffffffffffffffffffffffffffffffff166340c10f1933856040518363ffffffff1660e01b8152600401611145929190614aac565b600060405180830381600087803b15801561115f57600080fd5b505af1158015611173573d6000803e3d6000fd5b5050505060003373ffffffffffffffffffffffffffffffffffffffff167f90890809c654f11d6e72a28fa60149770a0d11ec6c92319d6ceb2bb0a4ea1a15856040516111bf9190614e3e565b60405180910390a35050600160028190555050565b600860009054906101000a900473ffffffffffffffffffffffffffffffffffffffff1681565b60028054141561123f576040517f08c379a000000000000000000000000000000000000000000000000000000000815260040161123690614dbe565b60405180910390fd5b6002808190555081601280549050811061128e576040517f08c379a000000000000000000000000000000000000000000000000000000000815260040161128590614d1e565b60405180910390fd5b60008314156112d2576040517f08c379a00000000000000000000000000000000000000000000000000000000081526004016112c990614c7e565b60405180910390fd5b60006012848154811061130e577f4e487b7100000000000000000000000000000000000000000000000000000000600052603260045260246000fd5b9060005260206000209060040201905060006013600086815260200190815260200160002060003373ffffffffffffffffffffffffffffffffffffffff1673ffffffffffffffffffffffffffffffffffffffff168152602001908152602001600020905083816000015410156113b9576040517f08c379a00000000000000000000000000000000000000000000000000000000081526004016113b090614d7e565b60405180910390fd5b6113c285611a33565b6000816001015464e8d4a51000846003015484600001546113e39190614f75565b6113ed9190614f44565b6113f79190614fcf565b9050600081111561140d5761140c338261340e565b5b60008511156114e1578482600001546114269190614fcf565b82600001819055508260000160009054906101000a900473ffffffffffffffffffffffffffffffffffffffff1673ffffffffffffffffffffffffffffffffffffffff1663a9059cbb33876040518363ffffffff1660e01b815260040161148d929190614aac565b602060405180830381600087803b1580156114a757600080fd5b505af11580156114bb573d6000803e3d6000fd5b505050506040513d601f19601f820116820180604052508101906114df91906140b7565b505b64e8d4a51000836003015483600001546114fb9190614f75565b6115059190614f44565b8260010181905550853373ffffffffffffffffffffffffffffffffffffffff167ff279e6a1f5e320cca91135676d9cb6e44ca8a08c0b88342bcdb1144f6511b568876040516115549190614e3e565b60405180910390a35050505060016002819055505050565b601160009054906101000a900460ff166115bb576040517f08c379a00000000000000000000000000000000000000000000000000000000081526004016115b290614e1e565b60405180910390fd5b806012805490508110611603576040517f08c379a00000000000000000000000000000000000000000000000000000000081526004016115fa90614d1e565b60405180910390fd5b600073ffffffffffffffffffffffffffffffffffffffff16600960009054906101000a900473ffffffffffffffffffffffffffffffffffffffff1673ffffffffffffffffffffffffffffffffffffffff161415611695576040517f08c379a000000000000000000000000000000000000000000000000000000000815260040161168c90614c5e565b60405180910390fd5b6000601283815481106116d1577f4e487b7100000000000000000000000000000000000000000000000000000000600052603260045260246000fd5b9060005260206000209060040201905060008160000160009054906101000a900473ffffffffffffffffffffffffffffffffffffffff16905060008173ffffffffffffffffffffffffffffffffffffffff166370a08231306040518263ffffffff1660e01b815260040161174591906149d0565b60206040518083038186803b15801561175d57600080fd5b505afa158015611771573d6000803e3d6000fd5b505050506040513d601f19601f8201168201806040525081019061179591906141e9565b90508173ffffffffffffffffffffffffffffffffffffffff1663095ea7b3600960009054906101000a900473ffffffffffffffffffffffffffffffffffffffff16836040518363ffffffff1660e01b81526004016117f4929190614aac565b602060405180830381600087803b15801561180e57600080fd5b505af1158015611822573d6000803e3d6000fd5b505050506040513d601f19601f8201168201806040525081019061184691906140b7565b506000600960009054906101000a900473ffffffffffffffffffffffffffffffffffffffff1673ffffffffffffffffffffffffffffffffffffffff1663ce5494bb846040518263ffffffff1660e01b81526004016118a49190614b0b565b602060405180830381600087803b1580156118be57600080fd5b505af11580156118d2573d6000803e3d6000fd5b505050506040513d601f19601f820116820180604052508101906118f6919061416e565b90508073ffffffffffffffffffffffffffffffffffffffff166370a08231306040518263ffffffff1660e01b815260040161193191906149d0565b60206040518083038186803b15801561194957600080fd5b505afa15801561195d573d6000803e3d6000fd5b505050506040513d601f19601f8201168201806040525081019061198191906141e9565b82146119c2576040517f08c379a00000000000000000000000000000000000000000000000000000000081526004016119b990614dfe565b60405180910390fd5b808460000160006101000a81548173ffffffffffffffffffffffffffffffffffffffff021916908373ffffffffffffffffffffffffffffffffffffffff160217905550505050505050565b600660009054906101000a900473ffffffffffffffffffffffffffffffffffffffff1681565b806012805490508110611a7b576040517f08c379a0000000000000000000000000000000000000000000000000000000008152600401611a7290614d1e565b60405180910390fd5b600060128381548110611ab7577f4e487b7100000000000000000000000000000000000000000000000000000000600052603260045260246000fd5b9060005260206000209060040201905080600201544211611ad85750611e80565b60008160000160009054906101000a900473ffffffffffffffffffffffffffffffffffffffff1673ffffffffffffffffffffffffffffffffffffffff166370a08231306040518263ffffffff1660e01b8152600401611b3791906149d0565b60206040518083038186803b158015611b4f57600080fd5b505afa158015611b63573d6000803e3d6000fd5b505050506040513d601f19601f82011682018060405250810190611b8791906141e9565b90506000811415611ba2574282600201819055505050611e80565b6000611bb283600201544261226a565b905060006010548460010154600d5484611bcc9190614f75565b611bd69190614f75565b611be09190614f44565b90506000650746a528800064e8d4a5100083611bfc9190614f75565b611c069190614f44565b90506000600282611c179190614f75565b905060008184611c279190614fcf565b9050600460009054906101000a900473ffffffffffffffffffffffffffffffffffffffff1673ffffffffffffffffffffffffffffffffffffffff166340c10f19600760009054906101000a900473ffffffffffffffffffffffffffffffffffffffff16856040518363ffffffff1660e01b8152600401611ca8929190614aac565b600060405180830381600087803b158015611cc257600080fd5b505af1158015611cd6573d6000803e3d6000fd5b50505050600460009054906101000a900473ffffffffffffffffffffffffffffffffffffffff1673ffffffffffffffffffffffffffffffffffffffff166340c10f19600860009054906101000a900473ffffffffffffffffffffffffffffffffffffffff16856040518363ffffffff1660e01b8152600401611d59929190614aac565b600060405180830381600087803b158015611d7357600080fd5b505af1158015611d87573d6000803e3d6000fd5b50505050600460009054906101000a900473ffffffffffffffffffffffffffffffffffffffff1673ffffffffffffffffffffffffffffffffffffffff166340c10f19600660009054906101000a900473ffffffffffffffffffffffffffffffffffffffff16836040518363ffffffff1660e01b8152600401611e0a929190614aac565b600060405180830381600087803b158015611e2457600080fd5b505af1158015611e38573d6000803e3d6000fd5b505050508564e8d4a5100085611e4e9190614f75565b611e589190614f44565b8760030154611e679190614eee565b8760030181905550428760020181905550505050505050505b5050565b6000600160149054906101000a900460ff16905090565b600d5481565b601554611eb581611eb06134a1565b6134a9565b81600e819055505050565b6000601280549050905060005b81811015611eef57611ede81611a33565b80611ee890615192565b9050611ecd565b5050565b601160009054906101000a900460ff16611f42576040517f08c379a0000000000000000000000000000000000000000000000000000000008152600401611f3990614e1e565b60405180910390fd5b826012805490508110611f8a576040517f08c379a0000000000000000000000000000000000000000000000000000000008152600401611f8190614d1e565b60405180910390fd5b601554611f9e81611f996134a1565b6134a9565b8215611fad57611fac611ec0565b5b600060128681548110611fe9577f4e487b7100000000000000000000000000000000000000000000000000000000600052603260045260246000fd5b90600052602060002090600402016001015490508460128781548110612038577f4e487b7100000000000000000000000000000000000000000000000000000000600052603260045260246000fd5b90600052602060002090600402016001018190555084811461207c5784816010546120639190614fcf565b61206d9190614eee565b60108190555061207b613707565b5b7fd88f859573973e938da5bf3e5100c16eee2090fa720e05ae3d452b4cd05cdcfd86866040516120ad929190614e59565b60405180910390a1505050505050565b6120c56134a1565b73ffffffffffffffffffffffffffffffffffffffff166120e3612240565b73ffffffffffffffffffffffffffffffffffffffff1614612139576040517f08c379a000000000000000000000000000000000000000000000000000000000815260040161213090614cbe565b60405180910390fd5b6121436000613864565b565b600f5481565b601160009054906101000a900460ff1661219a576040517f08c379a000000000000000000000000000000000000000000000000000000000815260040161219190614e1e565b60405180910390fd5b6014546121ae816121a96134a1565b6134a9565b6121b78361392a565b6121c2848484613a2f565b50505050565b600960009054906101000a900473ffffffffffffffffffffffffffffffffffffffff1681565b600c5481565b600460009054906101000a900473ffffffffffffffffffffffffffffffffffffffff1681565b600760009054906101000a900473ffffffffffffffffffffffffffffffffffffffff1681565b6000600160009054906101000a900473ffffffffffffffffffffffffffffffffffffffff16905090565b6000600e54838361227b9190614fcf565b6122859190614f75565b905092915050565b600080600084815260200190815260200160002060000160008373ffffffffffffffffffffffffffffffffffffffff1673ffffffffffffffffffffffffffffffffffffffff16815260200190815260200160002060009054906101000a900460ff16905092915050565b6013602052816000526040600020602052806000526040600020600091509150508060000154908060010154905082565b600a5481565b600b5481565b6000801b81565b600e5481565b6000806012848154811061237e577f4e487b7100000000000000000000000000000000000000000000000000000000600052603260045260246000fd5b9060005260206000209060040201905060006013600086815260200190815260200160002060008573ffffffffffffffffffffffffffffffffffffffff1673ffffffffffffffffffffffffffffffffffffffff168152602001908152602001600020905060008260030154905060008360000160009054906101000a900473ffffffffffffffffffffffffffffffffffffffff1673ffffffffffffffffffffffffffffffffffffffff166370a08231306040518263ffffffff1660e01b815260040161244a91906149d0565b60206040518083038186803b15801561246257600080fd5b505afa158015612476573d6000803e3d6000fd5b505050506040513d601f19601f8201168201806040525081019061249a91906141e9565b90508360020154421180156124b0575060008114155b156125215760006124c585600201544261226a565b905060006010548660010154600d54846124df9190614f75565b6124e99190614f75565b6124f39190614f44565b90508264e8d4a51000826125079190614f75565b6125119190614f44565b8461251c9190614eee565b935050505b826001015464e8d4a5100083856000015461253c9190614f75565b6125469190614f44565b6125509190614fcf565b94505050505092915050565b6014546125708161256b6134a1565b6134a9565b601160009054906101000a900460ff16156125c0576040517f08c379a00000000000000000000000000000000000000000000000000000000081526004016125b790614c3e565b60405180910390fd5b85600360006101000a81548173ffffffffffffffffffffffffffffffffffffffff021916908373ffffffffffffffffffffffffffffffffffffffff16021790555084600560006101000a81548173ffffffffffffffffffffffffffffffffffffffff021916908373ffffffffffffffffffffffffffffffffffffffff16021790555033600860006101000a81548173ffffffffffffffffffffffffffffffffffffffff021916908373ffffffffffffffffffffffffffffffffffffffff16021790555033600760006101000a81548173ffffffffffffffffffffffffffffffffffffffff021916908373ffffffffffffffffffffffffffffffffffffffff16021790555042600f8190555082846126d79190614eee565b600a8190555082600b819055506000829050600360009054906101000a900473ffffffffffffffffffffffffffffffffffffffff16600460006101000a81548173ffffffffffffffffffffffffffffffffffffffff021916908373ffffffffffffffffffffffffffffffffffffffff160217905550600560009054906101000a900473ffffffffffffffffffffffffffffffffffffffff16600660006101000a81548173ffffffffffffffffffffffffffffffffffffffff021916908373ffffffffffffffffffffffffffffffffffffffff1602179055506127bd600b54600a54613b8a565b60126040518060800160405280600460009054906101000a900473ffffffffffffffffffffffffffffffffffffffff1673ffffffffffffffffffffffffffffffffffffffff168152602001838152602001600f5481526020016000815250908060018154018082558091505060019003906000526020600020906004020160009091909190915060008201518160000160006101000a81548173ffffffffffffffffffffffffffffffffffffffff021916908373ffffffffffffffffffffffffffffffffffffffff16021790555060208201518160010155604082015181600201556060820151816003015550506001601160006101000a81548160ff02191690831515021790555080601060008282546128d89190614eee565b925050819055507f0476c5e4920930815a67a5a042e26836431f494d3be0f6e10c3034787a7a15f9600760009054906101000a900473ffffffffffffffffffffffffffffffffffffffff16600860009054906101000a900473ffffffffffffffffffffffffffffffffffffffff16600360009054906101000a900473ffffffffffffffffffffffffffffffffffffffff16600560009054906101000a900473ffffffffffffffffffffffffffffffffffffffff16601054600b546040516129a496959493929190614a14565b60405180910390a150505050505050565b6129be82610d6f565b6129cf816129ca6134a1565b6134a9565b6129d98383613626565b505050565b60006129ea823361228d565b9050919050565b601454612a0581612a006134a1565b6134a9565b8273ffffffffffffffffffffffffffffffffffffffff16600860009054906101000a900473ffffffffffffffffffffffffffffffffffffffff1673ffffffffffffffffffffffffffffffffffffffff16141580612ab057508173ffffffffffffffffffffffffffffffffffffffff16600760009054906101000a900473ffffffffffffffffffffffffffffffffffffffff1673ffffffffffffffffffffffffffffffffffffffff1614155b612aef576040517f08c379a0000000000000000000000000000000000000000000000000000000008152600401612ae690614cfe565b60405180910390fd5b82600860006101000a81548173ffffffffffffffffffffffffffffffffffffffff021916908373ffffffffffffffffffffffffffffffffffffffff16021790555081600760006101000a81548173ffffffffffffffffffffffffffffffffffffffff021916908373ffffffffffffffffffffffffffffffffffffffff1602179055507fd1c04282701cbf58aa2f0026f6876051cf3feb8ee7b8b5b5532ebb4ab03fb5d4600860009054906101000a900473ffffffffffffffffffffffffffffffffffffffff16600760009054906101000a900473ffffffffffffffffffffffffffffffffffffffff16604051612be69291906149eb565b60405180910390a1505050565b600280541415612c38576040517f08c379a0000000000000000000000000000000000000000000000000000000008152600401612c2f90614dbe565b60405180910390fd5b60028081905550816012805490508110612c87576040517f08c379a0000000000000000000000000000000000000000000000000000000008152600401612c7e90614d1e565b60405180910390fd5b612c8f611e84565b15612ccf576040517f08c379a0000000000000000000000000000000000000000000000000000000008152600401612cc690614c1e565b60405180910390fd5b6000831415612d13576040517f08c379a0000000000000000000000000000000000000000000000000000000008152600401612d0a90614c9e565b60405180910390fd5b600060128481548110612d4f577f4e487b7100000000000000000000000000000000000000000000000000000000600052603260045260246000fd5b9060005260206000209060040201905060006013600086815260200190815260200160002060003373ffffffffffffffffffffffffffffffffffffffff1673ffffffffffffffffffffffffffffffffffffffff1681526020019081526020016000209050612dbc85611a33565b600081600001541115612e16576000816001015464e8d4a5100084600301548460000154612dea9190614f75565b612df49190614f44565b612dfe9190614fcf565b90506000811115612e1457612e13338261340e565b5b505b6000841115612eec578160000160009054906101000a900473ffffffffffffffffffffffffffffffffffffffff1673ffffffffffffffffffffffffffffffffffffffff166323b872dd3330876040518463ffffffff1660e01b8152600401612e8093929190614a75565b602060405180830381600087803b158015612e9a57600080fd5b505af1158015612eae573d6000803e3d6000fd5b505050506040513d601f19601f82011682018060405250810190612ed291906140b7565b50838160000154612ee39190614eee565b81600001819055505b64e8d4a5100082600301548260000154612f069190614f75565b612f109190614f44565b8160010181905550843373ffffffffffffffffffffffffffffffffffffffff167f90890809c654f11d6e72a28fa60149770a0d11ec6c92319d6ceb2bb0a4ea1a1586604051612f5f9190614e3e565b60405180910390a350505060016002819055505050565b601454612f8a81612f856134a1565b6134a9565b8273ffffffffffffffffffffffffffffffffffffffff16600460009054906101000a900473ffffffffffffffffffffffffffffffffffffffff1673ffffffffffffffffffffffffffffffffffffffff1614158061303557508173ffffffffffffffffffffffffffffffffffffffff16600660009054906101000a900473ffffffffffffffffffffffffffffffffffffffff1673ffffffffffffffffffffffffffffffffffffffff1614155b613074576040517f08c379a000000000000000000000000000000000000000000000000000000000815260040161306b90614cde565b60405180910390fd5b82600460006101000a81548173ffffffffffffffffffffffffffffffffffffffff021916908373ffffffffffffffffffffffffffffffffffffffff16021790555081600660006101000a81548173ffffffffffffffffffffffffffffffffffffffff021916908373ffffffffffffffffffffffffffffffffffffffff1602179055507fdcc6331013de89f8c595d5328f0a724194f113cb6f8f2a707b3dff6de13f0d1783836040516131279291906149eb565b60405180910390a1505050565b60145481565b601160009054906101000a900460ff16613189576040517f08c379a000000000000000000000000000000000000000000000000000000000815260040161318090614e1e565b60405180910390fd5b60155461319d816131986134a1565b6134a9565b81600b5414156131e2576040517f08c379a00000000000000000000000000000000000000000000000000000000081526004016131d990614d3e565b60405180910390fd5b81600b541015613219576000600b54836131fc9190614fcf565b905080600a60008282546132109190614eee565b92505081905550505b81600b54111561325057600082600b546132339190614fcf565b905080600a60008282546132479190614fcf565b92505081905550505b81600b81905550613265600b54600a54613b8a565b7fb298bc23e07860d501fddce288f46d761aa04a0c7c3316099eb50f097aacf304600b54600a5460405161329a929190614e59565b60405180910390a15050565b6132ae6134a1565b73ffffffffffffffffffffffffffffffffffffffff166132cc612240565b73ffffffffffffffffffffffffffffffffffffffff1614613322576040517f08c379a000000000000000000000000000000000000000000000000000000000815260040161331990614cbe565b60405180910390fd5b600073ffffffffffffffffffffffffffffffffffffffff168173ffffffffffffffffffffffffffffffffffffffff161415613392576040517f08c379a000000000000000000000000000000000000000000000000000000000815260040161338990614bfe565b60405180910390fd5b61339b81613864565b50565b60155481565b60007f01ffc9a7000000000000000000000000000000000000000000000000000000007bffffffffffffffffffffffffffffffffffffffffffffffffffffffff1916827bffffffffffffffffffffffffffffffffffffffffffffffffffffffff1916149050919050565b600660009054906101000a900473ffffffffffffffffffffffffffffffffffffffff1673ffffffffffffffffffffffffffffffffffffffff1663b2a142aa83836040518363ffffffff1660e01b815260040161346b929190614aac565b600060405180830381600087803b15801561348557600080fd5b505af1158015613499573d6000803e3d6000fd5b505050505050565b600033905090565b6134b3828261228d565b613542576134d88173ffffffffffffffffffffffffffffffffffffffff166014613c0f565b6134e68360001c6020613c0f565b6040516020016134f7929190614996565b6040516020818303038152906040526040517f08c379a00000000000000000000000000000000000000000000000000000000081526004016135399190614bbc565b60405180910390fd5b5050565b613550828261228d565b61362257600160008084815260200190815260200160002060000160008373ffffffffffffffffffffffffffffffffffffffff1673ffffffffffffffffffffffffffffffffffffffff16815260200190815260200160002060006101000a81548160ff0219169083151502179055506135c76134a1565b73ffffffffffffffffffffffffffffffffffffffff168173ffffffffffffffffffffffffffffffffffffffff16837f2f8788117e7eff1d82e926ec794901d17c78024a50270940304540a733656f0d60405160405180910390a45b5050565b613630828261228d565b1561370357600080600084815260200190815260200160002060000160008373ffffffffffffffffffffffffffffffffffffffff1673ffffffffffffffffffffffffffffffffffffffff16815260200190815260200160002060006101000a81548160ff0219169083151502179055506136a86134a1565b73ffffffffffffffffffffffffffffffffffffffff168173ffffffffffffffffffffffffffffffffffffffff16837ff6391f5c32d9c69d2a47ea670b442974b53935d1edc7fd64eb21e047a839171b60405160405180910390a45b5050565b60006012805490509050600080600190505b8281101561378b576012818154811061375b577f4e487b7100000000000000000000000000000000000000000000000000000000600052603260045260246000fd5b906000526020600020906004020160010154826137789190614eee565b91508061378490615192565b9050613719565b5060008114613860576003816137a19190614f44565b90508060126000815481106137df577f4e487b7100000000000000000000000000000000000000000000000000000000600052603260045260246000fd5b9060005260206000209060040201600101546010546137fe9190614fcf565b6138089190614eee565b60108190555080601260008154811061384a577f4e487b7100000000000000000000000000000000000000000000000000000000600052603260045260246000fd5b9060005260206000209060040201600101819055505b5050565b6000600160009054906101000a900473ffffffffffffffffffffffffffffffffffffffff16905081600160006101000a81548173ffffffffffffffffffffffffffffffffffffffff021916908373ffffffffffffffffffffffffffffffffffffffff1602179055508173ffffffffffffffffffffffffffffffffffffffff168173ffffffffffffffffffffffffffffffffffffffff167f8be0079c531659141344cd1fd0a4f28419497f9722a3daafe3b4186f6b6457e060405160405180910390a35050565b6000601280549050905060005b81811015613a2a578273ffffffffffffffffffffffffffffffffffffffff1660128281548110613990577f4e487b7100000000000000000000000000000000000000000000000000000000600052603260045260246000fd5b906000526020600020906004020160000160009054906101000a900473ffffffffffffffffffffffffffffffffffffffff1673ffffffffffffffffffffffffffffffffffffffff161415613a19576040517f08c379a0000000000000000000000000000000000000000000000000000000008152600401613a1090614d9e565b60405180910390fd5b80613a2390615192565b9050613937565b505050565b8015613a3e57613a3d611ec0565b5b8260106000828254613a509190614eee565b92505081905550601260405180608001604052808473ffffffffffffffffffffffffffffffffffffffff168152602001858152602001600f544211613a9757600f54613a99565b425b81526020016000815250908060018154018082558091505060019003906000526020600020906004020160009091909190915060008201518160000160006101000a81548173ffffffffffffffffffffffffffffffffffffffff021916908373ffffffffffffffffffffffffffffffffffffffff1602179055506020820151816001015560408201518160020155606082015181600301555050613b3b613707565b600060128054905090507f20b669aa921947a6d9602a921d2db3b6b30f21b9aca98580fa3972530330b27a818585601054604051613b7c9493929190614e82565b60405180910390a150505050565b60008183613b989190614f44565b90506934f086f3b33b6840000081613bb09190614f75565b600c8190555062015180600c54613bc79190614f44565b600d819055507fcd7c861d63893659123f817b192b8621ff1923a7c4589c260173cedcf9e986a6600c54600d54604051613c02929190614e59565b60405180910390a1505050565b606060006002836002613c229190614f75565b613c2c9190614eee565b67ffffffffffffffff811115613c6b577f4e487b7100000000000000000000000000000000000000000000000000000000600052604160045260246000fd5b6040519080825280601f01601f191660200182016040528015613c9d5781602001600182028036833780820191505090505b5090507f300000000000000000000000000000000000000000000000000000000000000081600081518110613cfb577f4e487b7100000000000000000000000000000000000000000000000000000000600052603260045260246000fd5b60200101907effffffffffffffffffffffffffffffffffffffffffffffffffffffffffffff1916908160001a9053507f780000000000000000000000000000000000000000000000000000000000000081600181518110613d85577f4e487b7100000000000000000000000000000000000000000000000000000000600052603260045260246000fd5b60200101907effffffffffffffffffffffffffffffffffffffffffffffffffffffffffffff1916908160001a90535060006001846002613dc59190614f75565b613dcf9190614eee565b90505b6001811115613ebb577f3031323334353637383961626364656600000000000000000000000000000000600f861660108110613e37577f4e487b7100000000000000000000000000000000000000000000000000000000600052603260045260246000fd5b1a60f81b828281518110613e74577f4e487b7100000000000000000000000000000000000000000000000000000000600052603260045260246000fd5b60200101907effffffffffffffffffffffffffffffffffffffffffffffffffffffffffffff1916908160001a905350600485901c945080613eb490615168565b9050613dd2565b5060008414613eff576040517f08c379a0000000000000000000000000000000000000000000000000000000008152600401613ef690614bde565b60405180910390fd5b8091505092915050565b600081359050613f188161524a565b92915050565b600081359050613f2d81615261565b92915050565b600081519050613f4281615261565b92915050565b600081359050613f5781615278565b92915050565b600081359050613f6c8161528f565b92915050565b600081359050613f81816152a6565b92915050565b600081519050613f96816152a6565b92915050565b600081359050613fab816152bd565b92915050565b600081359050613fc0816152d4565b92915050565b600081519050613fd5816152d4565b92915050565b600060208284031215613fed57600080fd5b6000613ffb84828501613f09565b91505092915050565b6000806040838503121561401757600080fd5b600061402585828601613f09565b925050602061403685828601613f09565b9150509250929050565b600080600080600060a0868803121561405857600080fd5b600061406688828901613f09565b955050602061407788828901613f09565b945050604061408888828901613fb1565b935050606061409988828901613fb1565b92505060806140aa88828901613fb1565b9150509295509295909350565b6000602082840312156140c957600080fd5b60006140d784828501613f33565b91505092915050565b6000602082840312156140f257600080fd5b600061410084828501613f48565b91505092915050565b6000806040838503121561411c57600080fd5b600061412a85828601613f48565b925050602061413b85828601613f09565b9150509250929050565b60006020828403121561415757600080fd5b600061416584828501613f5d565b91505092915050565b60006020828403121561418057600080fd5b600061418e84828501613f87565b91505092915050565b6000602082840312156141a957600080fd5b60006141b784828501613f9c565b91505092915050565b6000602082840312156141d257600080fd5b60006141e084828501613fb1565b91505092915050565b6000602082840312156141fb57600080fd5b600061420984828501613fc6565b91505092915050565b6000806040838503121561422557600080fd5b600061423385828601613fb1565b925050602061424485828601613f09565b9150509250929050565b60008060006060848603121561426357600080fd5b600061427186828701613fb1565b935050602061428286828701613f72565b925050604061429386828701613f1e565b9150509250925092565b600080604083850312156142b057600080fd5b60006142be85828601613fb1565b92505060206142cf85828601613fb1565b9150509250929050565b6000806000606084860312156142ee57600080fd5b60006142fc86828701613fb1565b935050602061430d86828701613fb1565b925050604061431e86828701613f1e565b9150509250925092565b61433181615003565b82525050565b61434081615015565b82525050565b61434f81615021565b82525050565b61435e816150a5565b82525050565b61436d816150c9565b82525050565b61437c816150ed565b82525050565b61438b81615111565b82525050565b600061439c82614ec7565b6143a68185614ed2565b93506143b6818560208601615135565b6143bf81615239565b840191505092915050565b60006143d582614ec7565b6143df8185614ee3565b93506143ef818560208601615135565b80840191505092915050565b6000614408602083614ed2565b91507f537472696e67733a20686578206c656e67746820696e73756666696369656e746000830152602082019050919050565b6000614448602683614ed2565b91507f4f776e61626c653a206e6577206f776e657220697320746865207a65726f206160008301527f64647265737300000000000000000000000000000000000000000000000000006020830152604082019050919050565b60006144ae601083614ed2565b91507f5061757361626c653a20706175736564000000000000000000000000000000006000830152602082019050919050565b60006144ee601383614ed2565b91507f616c726561647920696e697469616c697a6564000000000000000000000000006000830152602082019050919050565b600061452e600f83614ed2565b91507f6e6f206d69677261746f722073657400000000000000000000000000000000006000830152602082019050919050565b600061456e601a83614ed2565b91507f776974686472617720534f554c20627920756e7374616b696e670000000000006000830152602082019050919050565b60006145ae601783614ed2565b91507f6465706f73697420534f554c206279207374616b696e670000000000000000006000830152602082019050919050565b60006145ee602083614ed2565b91507f4f776e61626c653a2063616c6c6572206973206e6f7420746865206f776e65726000830152602082019050919050565b600061462e601b83614ed2565b91507f6d7573742062652061206e657720746f6b656e206164647265737300000000006000830152602082019050919050565b600061466e601583614ed2565b91507f6d7573742062652061206e6577206163636f756e7400000000000000000000006000830152602082019050919050565b60006146ae601383614ed2565b91507f706f6f6c20646f6573206e6f74206578697374000000000000000000000000006000830152602082019050919050565b60006146ee601883614ed2565b91507f6d757374206265206e6577207765696768742076616c756500000000000000006000830152602082019050919050565b600061472e601283614ed2565b91507f77697468647261773a206e6f7420676f6f6400000000000000000000000000006000830152602082019050919050565b600061476e601783614ee3565b91507f416363657373436f6e74726f6c3a206163636f756e74200000000000000000006000830152601782019050919050565b60006147ae601183614ed2565b91507f7769746864726177206e6f7420676f6f640000000000000000000000000000006000830152602082019050919050565b60006147ee600f83614ed2565b91507f6475706c69636174656420706f6f6c00000000000000000000000000000000006000830152602082019050919050565b600061482e601f83614ed2565b91507f5265656e7472616e637947756172643a207265656e7472616e742063616c6c006000830152602082019050919050565b600061486e601183614ee3565b91507f206973206d697373696e6720726f6c65200000000000000000000000000000006000830152601182019050919050565b60006148ae602f83614ed2565b91507f416363657373436f6e74726f6c3a2063616e206f6e6c792072656e6f756e636560008301527f20726f6c657320666f722073656c6600000000000000000000000000000000006020830152604082019050919050565b6000614914601d83614ed2565b91507f6d6967726174653a20696e73756666696369656e742062616c616e63650000006000830152602082019050919050565b6000614954601a83614ed2565b91507f726577617264732068617665206e6f742079657420626567756e0000000000006000830152602082019050919050565b6149908161509b565b82525050565b60006149a182614761565b91506149ad82856143ca565b91506149b882614861565b91506149c482846143ca565b91508190509392505050565b60006020820190506149e56000830184614328565b92915050565b6000604082019050614a006000830185614328565b614a0d6020830184614328565b9392505050565b600060c082019050614a296000830189614328565b614a366020830188614328565b614a436040830187614328565b614a506060830186614328565b614a5d6080830185614987565b614a6a60a0830184614987565b979650505050505050565b6000606082019050614a8a6000830186614328565b614a976020830185614328565b614aa46040830184614987565b949350505050565b6000604082019050614ac16000830185614328565b614ace6020830184614987565b9392505050565b6000602082019050614aea6000830184614337565b92915050565b6000602082019050614b056000830184614346565b92915050565b6000602082019050614b206000830184614355565b92915050565b6000608082019050614b3b6000830187614355565b614b486020830186614987565b614b556040830185614987565b614b626060830184614987565b95945050505050565b6000602082019050614b806000830184614364565b92915050565b6000602082019050614b9b6000830184614373565b92915050565b6000602082019050614bb66000830184614382565b92915050565b60006020820190508181036000830152614bd68184614391565b905092915050565b60006020820190508181036000830152614bf7816143fb565b9050919050565b60006020820190508181036000830152614c178161443b565b9050919050565b60006020820190508181036000830152614c37816144a1565b9050919050565b60006020820190508181036000830152614c57816144e1565b9050919050565b60006020820190508181036000830152614c7781614521565b9050919050565b60006020820190508181036000830152614c9781614561565b9050919050565b60006020820190508181036000830152614cb7816145a1565b9050919050565b60006020820190508181036000830152614cd7816145e1565b9050919050565b60006020820190508181036000830152614cf781614621565b9050919050565b60006020820190508181036000830152614d1781614661565b9050919050565b60006020820190508181036000830152614d37816146a1565b9050919050565b60006020820190508181036000830152614d57816146e1565b9050919050565b60006020820190508181036000830152614d7781614721565b9050919050565b60006020820190508181036000830152614d97816147a1565b9050919050565b60006020820190508181036000830152614db7816147e1565b9050919050565b60006020820190508181036000830152614dd781614821565b9050919050565b60006020820190508181036000830152614df7816148a1565b9050919050565b60006020820190508181036000830152614e1781614907565b9050919050565b60006020820190508181036000830152614e3781614947565b9050919050565b6000602082019050614e536000830184614987565b92915050565b6000604082019050614e6e6000830185614987565b614e7b6020830184614987565b9392505050565b6000608082019050614e976000830187614987565b614ea46020830186614987565b614eb16040830185614355565b614ebe6060830184614987565b95945050505050565b600081519050919050565b600082825260208201905092915050565b600081905092915050565b6000614ef98261509b565b9150614f048361509b565b9250827fffffffffffffffffffffffffffffffffffffffffffffffffffffffffffffffff03821115614f3957614f386151db565b5b828201905092915050565b6000614f4f8261509b565b9150614f5a8361509b565b925082614f6a57614f6961520a565b5b828204905092915050565b6000614f808261509b565b9150614f8b8361509b565b9250817fffffffffffffffffffffffffffffffffffffffffffffffffffffffffffffffff0483118215151615614fc457614fc36151db565b5b828202905092915050565b6000614fda8261509b565b9150614fe58361509b565b925082821015614ff857614ff76151db565b5b828203905092915050565b600061500e8261507b565b9050919050565b60008115159050919050565b6000819050919050565b60007fffffffff0000000000000000000000000000000000000000000000000000000082169050919050565b600061506282615003565b9050919050565b600061507482615003565b9050919050565b600073ffffffffffffffffffffffffffffffffffffffff82169050919050565b6000819050919050565b60006150b0826150b7565b9050919050565b60006150c28261507b565b9050919050565b60006150d4826150db565b9050919050565b60006150e68261507b565b9050919050565b60006150f8826150ff565b9050919050565b600061510a8261507b565b9050919050565b600061511c82615123565b9050919050565b600061512e8261507b565b9050919050565b60005b83811015615153578082015181840152602081019050615138565b83811115615162576000848401525b50505050565b60006151738261509b565b91506000821415615187576151866151db565b5b600182039050919050565b600061519d8261509b565b91507fffffffffffffffffffffffffffffffffffffffffffffffffffffffffffffffff8214156151d0576151cf6151db565b5b600182019050919050565b7f4e487b7100000000000000000000000000000000000000000000000000000000600052601160045260246000fd5b7f4e487b7100000000000000000000000000000000000000000000000000000000600052601260045260246000fd5b6000601f19601f8301169050919050565b61525381615003565b811461525e57600080fd5b50565b61526a81615015565b811461527557600080fd5b50565b61528181615021565b811461528c57600080fd5b50565b6152988161502b565b81146152a357600080fd5b50565b6152af81615057565b81146152ba57600080fd5b50565b6152c681615069565b81146152d157600080fd5b50565b6152dd8161509b565b81146152e857600080fd5b5056fea264697066735822122019fe171aa294b21fd792188a2ff798eea603728bed580c91e5f975b6e4d5a23964736f6c63430008000033",
  "immutableReferences": {},
  "source": "// SPDX-License-Identifier: MIT\n\npragma solidity ^0.8.0;\nimport '@openzeppelin/contracts/access/AccessControl.sol';\nimport '@openzeppelin/contracts/access/Ownable.sol';\nimport '@openzeppelin/contracts/security/Pausable.sol';\nimport '@openzeppelin/contracts/security/ReentrancyGuard.sol';\nimport './SoulPower.sol';\nimport './SeanceCircle.sol';\nimport './interfaces/IMigrator.sol';\n\n// the summoner of souls | ownership transferred to a governance smart contract \n// upon sufficient distribution + the community's desire to self-govern.\n\ncontract SoulSummoner is AccessControl, Ownable, Pausable, ReentrancyGuard {\n\n    // user info\n    struct Users {\n        uint amount;     // total tokens user has provided\n        uint rewardDebt; // reward debt (see below)\n        //   pending reward = (user.amount * pool.accSoulPerShare) - user.rewardDebt\n\n        // the following occurs when a user +/- tokens to a pool:\n        //   1. pool: `accSoulPerShare` and `lastRewardTime` update.\n        //   2. user: receives pending reward.\n        //   3. user: `amount` updates(+/-).\n        //   4. user: `rewardDebt` updates (+/-).\n    }\n\n    // pool info\n    struct Pools {\n        IERC20 lpToken;       // lp token ierc20 contract.\n        uint allocPoint;      // allocation points assigned to this pool | SOULs to distribute per second.\n        uint lastRewardTime;  // most recent UNIX timestamp during which SOULs distribution occurred in the pool.\n        uint accSoulPerShare; // accumulated SOULs per share, times 1e12.\n    }\n\n    // soul power: our native utility token\n    address private soulAddress;\n    SoulPower public soul;\n    \n    // seance circle: our governance token\n    address private seanceAddress;\n    SeanceCircle public seance;\n\n    address public team; // receives 1/8 soul supply\n    address public dao; // recieves 1/8 soul supply\n\n    // migrator contract | has lotsa power\n    IMigrator public migrator;\n\n    // blockchain variables accounting for share of overall emissions\n    uint public totalWeight;\n    uint public weight;\n\n    // soul x day x this.chain\n    uint public dailySoul; // = weight * 250K * 1e18;\n\n    // soul x second x this.chain\n    uint public soulPerSecond; // = dailySoul / 86400;\n\n    // bonus muliplier for early soul summoners\n    uint public bonusMultiplier = 1;\n\n    // timestamp when soul rewards began (initialized)\n    uint public startTime;\n\n    // ttl allocation points | must be the sum of all allocation points\n    uint public totalAllocPoint;\n\n    // summoner initialized state.\n    bool public isInitialized;\n\n    Pools[] public poolInfo; // pool info\n    mapping (uint => mapping (address => Users)) public userInfo; // staker data\n\n    // divinated roles\n    bytes32 public isis; // soul summoning goddess of magic\n    bytes32 public maat; // goddess of cosmic order\n\n    event RoleDivinated(bytes32 role, bytes32 supreme);\n\n    // restricted to the council of the role passed as an object to obey (role)\n    modifier obey(bytes32 role) {\n        _checkRole(role, _msgSender());\n        _;\n    }\n\n    // prevents: early reward distribution\n    modifier isSummoned {\n        require(isInitialized, 'rewards have not yet begun');\n        _;\n    }\n\n    event Deposit(address indexed user, uint indexed pid, uint amount);\n    event Withdraw(address indexed user, uint indexed pid, uint amount);\n\n    event Initialized(address team, address dao, address soul, address seance, uint totalAllocPoint, uint weight);\n    event PoolAdded(uint pid, uint allocPoint, IERC20 lpToken, uint totalAllocPoint);\n    event PoolSet(uint pid, uint allocPoint);\n\n    event WeightUpdated(uint weight, uint totalWeight);\n    event RewardsUpdated(uint dailySoul, uint soulPerSecond);\n    event AccountsUpdated(address dao, address team);\n    event TokensUpdated(address soul, address seance);\n\n    // validates: pool exists\n    modifier validatePoolByPid(uint pid) {\n        require(pid < poolInfo.length, 'pool does not exist');\n        _;\n    }\n\n    // channels the power of the isis and ma'at to the deployer (deployer)\n    constructor() {\n        team = 0x24D9E0Ba5d79C15D7EEAbD632214430D6F1677cA; // multisig // FANTOM TESTNET\n        dao = 0x2ffbDFB8f48EDD34Cb2727F4357d321bD71ddF25; // multisig // FANTOM TESTNET\n        \n        isis = keccak256(\"isis\"); // goddess of magic who creates pools\n        maat = keccak256(\"maat\"); // goddess of cosmic order who allocates emissions\n\n        _divinationCeremony(DEFAULT_ADMIN_ROLE, DEFAULT_ADMIN_ROLE, team);\n        _divinationCeremony(isis, isis, team); // isis role created -- owner divined admin\n        _divinationCeremony(maat, isis, dao); // maat role created -- isis divined admin\n    } \n\n    function _divinationCeremony(bytes32 _role, bytes32 _adminRole, address _account) \n        internal returns (bool) {\n            _setupRole(_role, _account);\n            _setRoleAdmin(_role, _adminRole);\n\n        return true;\n    }\n\n    function hasDivineRole(bytes32 role) public view returns (bool) {\n        return hasRole(role, msg.sender);\n    }\n\n    // validate: pool uniqueness to eliminate duplication risk (internal view)\n    function checkPoolDuplicate(IERC20 _token) internal view {\n        uint length = poolInfo.length;\n\n        for (uint pid = 0; pid < length; ++pid) {\n            require(poolInfo[pid].lpToken != _token, 'duplicated pool');\n        }\n    }\n\n    // activates rewards (owner)\n    function initialize(\n        address _soulAddress, \n        address _seanceAddress, \n        uint _totalWeight,\n        uint _weight,\n        uint _stakingAlloc \n       ) external obey(isis) {\n        require(!isInitialized, 'already initialized');\n\n        soulAddress = _soulAddress;\n        seanceAddress = _seanceAddress;\n        dao = msg.sender;\n        team = msg.sender;\n\n        startTime = block.timestamp;\n\n        totalWeight = _totalWeight + _weight;\n        weight = _weight;\n        uint allocPoint = _stakingAlloc;\n\n        soul  = SoulPower(soulAddress);\n        seance = SeanceCircle(seanceAddress);\n\n        updateRewards(weight, totalWeight); // updates dailySoul and soulPerSecond\n\n        // staking pool\n        poolInfo.push(Pools({\n            lpToken: soul,\n            allocPoint: allocPoint,\n            lastRewardTime: startTime,\n            accSoulPerShare: 0\n        }));\n\n        isInitialized = true; // triggers initialize state\n        totalAllocPoint += allocPoint; // kickstarts total allocation\n\n        emit Initialized(team, dao, soulAddress, seanceAddress, totalAllocPoint, weight);\n    }\n\n    function updateMultiplier(uint _bonusMultiplier) external obey(maat) {\n        bonusMultiplier = _bonusMultiplier;\n    }\n\n    function updateRewards(uint _weight, uint _totalWeight) internal {\n        uint share = _weight / _totalWeight; // share of ttl emissions for chain (chain % ttl emissions)\n        dailySoul = share * (250000 * 1e18); // dailySoul (for this.chain) = share (%) x 250K (soul emissions constant)\n        soulPerSecond = dailySoul / 1 days; // updates: daily rewards expressed in seconds (1 days = 86,400 secs)\n\n        emit RewardsUpdated(dailySoul, soulPerSecond);\n    }\n\n    function poolLength() external view returns (uint) {\n        return poolInfo.length;\n    }\n\n    // add: new pool (isis)\n    function addPool(uint _allocPoint, IERC20 _lpToken, bool _withUpdate) \n        public isSummoned obey(isis) { // isis: the soul summoning goddess whose power transcends them all\n            checkPoolDuplicate(_lpToken);\n            _addPool(_allocPoint, _lpToken, _withUpdate);\n    }\n\n    // add: new pool (internal)\n    function _addPool(uint _allocPoint, IERC20 _lpToken, bool _withUpdate) internal {\n        if (_withUpdate) { massUpdatePools(); }\n\n        totalAllocPoint += _allocPoint;\n        \n        poolInfo.push(\n        Pools({\n            lpToken: _lpToken,\n            allocPoint: _allocPoint,\n            lastRewardTime: block.timestamp > startTime ? block.timestamp : startTime,\n            accSoulPerShare: 0\n        }));\n        \n        updateStakingPool();\n        uint pid = poolInfo.length;\n\n        emit PoolAdded(pid, _allocPoint, _lpToken, totalAllocPoint);\n    }\n\n    // set: allocation points (maat)\n    function set(uint pid, uint allocPoint, bool withUpdate) \n        external isSummoned validatePoolByPid(pid) obey(maat) {\n            if (withUpdate) { massUpdatePools(); } // updates all pools\n            \n            uint prevAllocPoint = poolInfo[pid].allocPoint;\n            poolInfo[pid].allocPoint = allocPoint;\n            \n            if (prevAllocPoint != allocPoint) {\n                totalAllocPoint = totalAllocPoint - prevAllocPoint + allocPoint;\n                \n                updateStakingPool(); // updates only selected pool\n        }\n\n        emit PoolSet(pid, allocPoint);\n    }\n\n    // update: weight (maat)\n    function updateWeight(uint _weight) external isSummoned obey(maat) {\n        require(weight != _weight, 'must be new weight value');\n\n        if (weight < _weight) {             // if weight is gained\n            uint gain = _weight - weight;   // calculates weight gained\n            totalWeight += gain;            // increases totalWeight\n        }\n        \n        if (weight > _weight)  {            // if weight is lost\n            uint loss = weight - _weight;   // calculates weight gained\n            totalWeight -= loss;            // decreases totalWeight\n        }\n\n        weight = _weight; // updates weight variable      \n        \n        updateRewards(weight, totalWeight);\n\n        emit WeightUpdated(weight, totalWeight);\n    }\n\n    // update: staking pool (internal)\n    function updateStakingPool() internal {\n        uint length = poolInfo.length;\n        uint points;\n        \n        for (uint pid = 1; pid < length; ++pid) { \n            points = points + poolInfo[pid].allocPoint; \n        }\n\n        if (points != 0) {\n            points = points / 3;\n            totalAllocPoint = totalAllocPoint - poolInfo[0].allocPoint + points;\n            poolInfo[0].allocPoint = points;\n        }\n    }\n\n    // set: migrator contract (owner)\n    function setMigrator(IMigrator _migrator) external isSummoned obey(isis) {\n        migrator = _migrator;\n    }\n\n    // migrate: lp tokens to another contract (migrator)\n    function migrate(uint pid) external isSummoned validatePoolByPid(pid) {\n        require(address(migrator) != address(0), 'no migrator set');\n        Pools storage pool = poolInfo[pid];\n        IERC20 lpToken = pool.lpToken;\n\n        uint bal = lpToken.balanceOf(address(this));\n        lpToken.approve(address(migrator), bal);\n        IERC20 _lpToken = migrator.migrate(lpToken);\n        \n        require(bal == _lpToken.balanceOf(address(this)), \"migrate: insufficient balance\");\n        pool.lpToken = _lpToken;\n    }\n\n    // view: bonus multiplier (public)\n    function getMultiplier(uint from, uint to) public view returns (uint) {\n        return (to - from) * bonusMultiplier; // todo: minus parens\n    }\n\n    // view: pending soul rewards (external)\n    function pendingSoul(uint pid, address _user) external view returns (uint) {\n        Pools storage pool = poolInfo[pid];\n        Users storage user = userInfo[pid][_user];\n\n        uint accSoulPerShare = pool.accSoulPerShare;\n        uint lpSupply = pool.lpToken.balanceOf(address(this));\n\n        if (block.timestamp > pool.lastRewardTime && lpSupply != 0) {\n            uint multiplier = getMultiplier(pool.lastRewardTime, block.timestamp);\n            uint soulReward = (multiplier * soulPerSecond * pool.allocPoint) / totalAllocPoint;\n            accSoulPerShare = accSoulPerShare + (soulReward * 1e12 / lpSupply);\n        }\n\n        return user.amount * accSoulPerShare / 1e12 - user.rewardDebt;\n    }\n\n    // update: rewards for all pools (public)\n    function massUpdatePools() public {\n        uint length = poolInfo.length;\n        for (uint pid = 0; pid < length; ++pid) { updatePool(pid); }\n    }\n\n    // update: rewards for a given pool id (public)\n    function updatePool(uint pid) public validatePoolByPid(pid) {\n        Pools storage pool = poolInfo[pid];\n\n        if (block.timestamp <= pool.lastRewardTime) { return; }\n        uint lpSupply = pool.lpToken.balanceOf(address(this));\n\n        if (lpSupply == 0) { pool.lastRewardTime = block.timestamp; return; } // first staker in pool\n\n        uint multiplier = getMultiplier(pool.lastRewardTime, block.timestamp);\n        uint soulReward = multiplier * soulPerSecond * pool.allocPoint / totalAllocPoint;\n        \n        uint divi = soulReward * 1e12 / 8e12; // 12.5% rewards x divi\n        uint divis = divi * 2; // total divis\n        uint shares = soulReward - divis; // net shares\n        \n        soul.mint(team, divi);\n        soul.mint(dao, divi);\n        soul.mint(address(seance), shares);\n\n        pool.accSoulPerShare = pool.accSoulPerShare + (soulReward * 1e12 / lpSupply);\n        pool.lastRewardTime = block.timestamp;\n    }\n\n    // deposit: lp tokens (lp owner)\n    function deposit(uint pid, uint amount) external nonReentrant validatePoolByPid(pid) whenNotPaused {\n        require (pid != 0, 'deposit SOUL by staking');\n\n        Pools storage pool = poolInfo[pid];\n        Users storage user = userInfo[pid][msg.sender];\n        updatePool(pid);\n\n        if (user.amount > 0) { // already deposited assets\n            uint pending = (user.amount * pool.accSoulPerShare) / 1e12 - user.rewardDebt;\n            if(pending > 0) { // sends pending rewards, if applicable\n                safeSoulTransfer(msg.sender, pending);\n            }\n        }\n\n        if (amount > 0) { // if adding more\n            pool.lpToken.transferFrom(address(msg.sender), address(this), amount);\n            user.amount = user.amount + amount;\n        }\n\n        user.rewardDebt = user.amount * pool.accSoulPerShare / 1e12;\n        emit Deposit(msg.sender, pid, amount);\n    }\n\n    // withdraw: lp tokens (external farmers)\n    function withdraw(uint pid, uint amount) external nonReentrant validatePoolByPid(pid) {\n        require (pid != 0, 'withdraw SOUL by unstaking');\n        Pools storage pool = poolInfo[pid];\n        Users storage user = userInfo[pid][msg.sender];\n\n        require(user.amount >= amount, 'withdraw not good');\n        updatePool(pid);\n\n        uint pending = user.amount * pool.accSoulPerShare / 1e12 - user.rewardDebt;\n\n        if(pending > 0) { safeSoulTransfer(msg.sender, pending); }\n\n        if(amount > 0) {\n            user.amount = user.amount - amount;\n            pool.lpToken.transfer(address(msg.sender), amount);\n        }\n\n        user.rewardDebt = user.amount * pool.accSoulPerShare / 1e12;\n        emit Withdraw(msg.sender, pid, amount);\n    }\n\n    // stake: soul into summoner (external)\n    function enterStaking(uint amount) external nonReentrant whenNotPaused {\n        Pools storage pool = poolInfo[0];\n        Users storage user = userInfo[0][msg.sender];\n        updatePool(0);\n\n        if (user.amount > 0) {\n            uint pending = user.amount * pool.accSoulPerShare / 1e12 - user.rewardDebt;\n            if(pending > 0) {\n                safeSoulTransfer(msg.sender, pending);\n            }\n        } \n        \n        if(amount > 0) {\n            pool.lpToken.transferFrom(address(msg.sender), address(this), amount);\n            user.amount = user.amount + amount;\n        }\n\n        user.rewardDebt = user.amount * pool.accSoulPerShare / 1e12;\n\n        seance.mint(msg.sender, amount);\n        emit Deposit(msg.sender, 0, amount);\n    }\n\n    // unstake: your soul (external staker)\n    function leaveStaking(uint amount) external nonReentrant {\n        Pools storage pool = poolInfo[0];\n        Users storage user = userInfo[0][msg.sender];\n\n        require(user.amount >= amount, \"withdraw: not good\");\n        updatePool(0);\n\n        uint pending = user.amount * pool.accSoulPerShare / 1e12 - user.rewardDebt;\n\n        if(pending > 0) {\n            safeSoulTransfer(msg.sender, pending);\n        }\n\n        if(amount > 0) {\n            user.amount = user.amount - amount;\n            pool.lpToken.transfer(address(msg.sender), amount);\n        }\n\n        user.rewardDebt = user.amount * pool.accSoulPerShare / 1e12;\n\n        seance.burn(msg.sender, amount);\n        emit Withdraw(msg.sender, 0, amount);\n    }\n    \n    // transfer: seance (internal)\n    function safeSoulTransfer(address account, uint amount) internal {\n        seance.safeSoulTransfer(account, amount);\n    }\n\n\n    // update accounts: dao and team addresses (owner)\n    function updateAccounts(address _dao, address _team) external obey(isis) {\n        require(dao != _dao || team != _team, 'must be a new account');\n\n        dao = _dao;\n        team = _team;\n\n        emit AccountsUpdated(dao, team);\n    }\n\n    // update token addresses: soul and seance addresses (owner)\n    function updateTokens(address _soul, address _seance) external obey(isis) {\n        require(soul != IERC20(_soul) || seance != IERC20(_seance), 'must be a new token address');\n\n        soul = SoulPower(_soul);\n        seance = SeanceCircle(_seance);\n\n        emit TokensUpdated(_soul, _seance);\n    }\n}\n",
  "sourcePath": "/Users/Uni/Documents/GitHub/soulswap/soulswap-farms/contracts/SoulSummoner.sol",
  "compiler": {
    "name": "solc",
    "version": "0.8.0+commit.c7dfd78e.Emscripten.clang"
  },
  "schemaVersion": "3.4.1",
  "updatedAt": "2021-08-31T06:57:05.674Z",
  "devdoc": {
    "kind": "dev",
    "methods": {
      "getRoleAdmin(bytes32)": {
        "details": "Returns the admin role that controls `role`. See {grantRole} and {revokeRole}. To change a role's admin, use {_setRoleAdmin}."
      },
      "grantRole(bytes32,address)": {
        "details": "Grants `role` to `account`. If `account` had not been already granted `role`, emits a {RoleGranted} event. Requirements: - the caller must have ``role``'s admin role."
      },
      "hasRole(bytes32,address)": {
        "details": "Returns `true` if `account` has been granted `role`."
      },
      "owner()": {
        "details": "Returns the address of the current owner."
      },
      "paused()": {
        "details": "Returns true if the contract is paused, and false otherwise."
      },
      "renounceOwnership()": {
        "details": "Leaves the contract without owner. It will not be possible to call `onlyOwner` functions anymore. Can only be called by the current owner. NOTE: Renouncing ownership will leave the contract without an owner, thereby removing any functionality that is only available to the owner."
      },
      "renounceRole(bytes32,address)": {
        "details": "Revokes `role` from the calling account. Roles are often managed via {grantRole} and {revokeRole}: this function's purpose is to provide a mechanism for accounts to lose their privileges if they are compromised (such as when a trusted device is misplaced). If the calling account had been granted `role`, emits a {RoleRevoked} event. Requirements: - the caller must be `account`."
      },
      "revokeRole(bytes32,address)": {
        "details": "Revokes `role` from `account`. If `account` had been granted `role`, emits a {RoleRevoked} event. Requirements: - the caller must have ``role``'s admin role."
      },
      "supportsInterface(bytes4)": {
        "details": "See {IERC165-supportsInterface}."
      },
      "transferOwnership(address)": {
        "details": "Transfers ownership of the contract to a new account (`newOwner`). Can only be called by the current owner."
      }
    },
    "version": 1
  },
  "userdoc": {
    "kind": "user",
    "methods": {},
    "version": 1
  }
}