{
  "contractName": "SoulSummoner",
  "abi": [
    {
      "anonymous": false,
      "inputs": [
        {
          "indexed": true,
          "internalType": "address",
          "name": "user",
          "type": "address"
        },
        {
          "indexed": true,
          "internalType": "uint256",
          "name": "pid",
          "type": "uint256"
        },
        {
          "indexed": false,
          "internalType": "uint256",
          "name": "amount",
          "type": "uint256"
        }
      ],
      "name": "Deposit",
      "type": "event"
    },
    {
      "anonymous": false,
      "inputs": [
        {
          "indexed": false,
          "internalType": "address",
          "name": "team",
          "type": "address"
        },
        {
          "indexed": false,
          "internalType": "address",
          "name": "dev",
          "type": "address"
        },
        {
          "indexed": false,
          "internalType": "address",
          "name": "soul",
          "type": "address"
        },
        {
          "indexed": false,
          "internalType": "address",
          "name": "seance",
          "type": "address"
        },
        {
          "indexed": false,
          "internalType": "uint256",
          "name": "chainId",
          "type": "uint256"
        },
        {
          "indexed": false,
          "internalType": "uint256",
          "name": "power",
          "type": "uint256"
        }
      ],
      "name": "Initialized",
      "type": "event"
    },
    {
      "anonymous": false,
      "inputs": [
        {
          "indexed": true,
          "internalType": "address",
          "name": "operator",
          "type": "address"
        },
        {
          "indexed": true,
          "internalType": "bool",
          "name": "access",
          "type": "bool"
        }
      ],
      "name": "OperatorUpdated",
      "type": "event"
    },
    {
      "anonymous": false,
      "inputs": [
        {
          "indexed": true,
          "internalType": "address",
          "name": "previousOwner",
          "type": "address"
        },
        {
          "indexed": true,
          "internalType": "address",
          "name": "newOwner",
          "type": "address"
        }
      ],
      "name": "OwnershipTransferred",
      "type": "event"
    },
    {
      "anonymous": false,
      "inputs": [
        {
          "indexed": false,
          "internalType": "uint256",
          "name": "pid",
          "type": "uint256"
        },
        {
          "indexed": false,
          "internalType": "uint256",
          "name": "allocPoint",
          "type": "uint256"
        },
        {
          "indexed": false,
          "internalType": "contract IERC20",
          "name": "lpToken",
          "type": "address"
        },
        {
          "indexed": false,
          "internalType": "uint256",
          "name": "totalAllocPoint",
          "type": "uint256"
        }
      ],
      "name": "PoolAdded",
      "type": "event"
    },
    {
      "anonymous": false,
      "inputs": [
        {
          "indexed": false,
          "internalType": "uint256",
          "name": "pid",
          "type": "uint256"
        },
        {
          "indexed": false,
          "internalType": "uint256",
          "name": "allocPoint",
          "type": "uint256"
        }
      ],
      "name": "PoolSet",
      "type": "event"
    },
    {
      "anonymous": false,
      "inputs": [
        {
          "indexed": false,
          "internalType": "uint256",
          "name": "dailySoul",
          "type": "uint256"
        },
        {
          "indexed": false,
          "internalType": "uint256",
          "name": "soulPerSecond",
          "type": "uint256"
        }
      ],
      "name": "RewardsUpdated",
      "type": "event"
    },
    {
      "anonymous": false,
      "inputs": [
        {
          "indexed": false,
          "internalType": "uint256",
          "name": "weight",
          "type": "uint256"
        },
        {
          "indexed": false,
          "internalType": "uint256",
          "name": "totalWeight",
          "type": "uint256"
        }
      ],
      "name": "WeightUpdated",
      "type": "event"
    },
    {
      "anonymous": false,
      "inputs": [
        {
          "indexed": true,
          "internalType": "address",
          "name": "user",
          "type": "address"
        },
        {
          "indexed": true,
          "internalType": "uint256",
          "name": "pid",
          "type": "uint256"
        },
        {
          "indexed": false,
          "internalType": "uint256",
          "name": "amount",
          "type": "uint256"
        }
      ],
      "name": "Withdraw",
      "type": "event"
    },
    {
      "inputs": [
        {
          "internalType": "address",
          "name": "newOperator",
          "type": "address"
        }
      ],
      "name": "addOperator",
      "outputs": [],
      "stateMutability": "nonpayable",
      "type": "function"
    },
    {
      "inputs": [],
      "name": "bonusMultiplier",
      "outputs": [
        {
          "internalType": "uint256",
          "name": "",
          "type": "uint256"
        }
      ],
      "stateMutability": "view",
      "type": "function",
      "constant": true
    },
    {
      "inputs": [],
      "name": "chainId",
      "outputs": [
        {
          "internalType": "uint256",
          "name": "",
          "type": "uint256"
        }
      ],
      "stateMutability": "view",
      "type": "function",
      "constant": true
    },
    {
      "inputs": [],
      "name": "dailySoul",
      "outputs": [
        {
          "internalType": "uint256",
          "name": "",
          "type": "uint256"
        }
      ],
      "stateMutability": "view",
      "type": "function",
      "constant": true
    },
    {
      "inputs": [],
      "name": "dao",
      "outputs": [
        {
          "internalType": "address",
          "name": "",
          "type": "address"
        }
      ],
      "stateMutability": "view",
      "type": "function",
      "constant": true
    },
    {
      "inputs": [],
      "name": "isInitialized",
      "outputs": [
        {
          "internalType": "bool",
          "name": "",
          "type": "bool"
        }
      ],
      "stateMutability": "view",
      "type": "function",
      "constant": true
    },
    {
      "inputs": [],
      "name": "migrator",
      "outputs": [
        {
          "internalType": "contract IMigrator",
          "name": "",
          "type": "address"
        }
      ],
      "stateMutability": "view",
      "type": "function",
      "constant": true
    },
    {
      "inputs": [
        {
          "internalType": "address",
          "name": "",
          "type": "address"
        }
      ],
      "name": "operator",
      "outputs": [
        {
          "internalType": "bool",
          "name": "",
          "type": "bool"
        }
      ],
      "stateMutability": "view",
      "type": "function",
      "constant": true
    },
    {
      "inputs": [
        {
          "internalType": "uint256",
          "name": "",
          "type": "uint256"
        }
      ],
      "name": "operators",
      "outputs": [
        {
          "internalType": "address",
          "name": "",
          "type": "address"
        }
      ],
      "stateMutability": "view",
      "type": "function",
      "constant": true
    },
    {
      "inputs": [],
      "name": "owner",
      "outputs": [
        {
          "internalType": "address",
          "name": "",
          "type": "address"
        }
      ],
      "stateMutability": "view",
      "type": "function",
      "constant": true
    },
    {
      "inputs": [
        {
          "internalType": "uint256",
          "name": "",
          "type": "uint256"
        }
      ],
      "name": "poolInfo",
      "outputs": [
        {
          "internalType": "contract IERC20",
          "name": "lpToken",
          "type": "address"
        },
        {
          "internalType": "uint256",
          "name": "allocPoint",
          "type": "uint256"
        },
        {
          "internalType": "uint256",
          "name": "lastRewardTime",
          "type": "uint256"
        },
        {
          "internalType": "uint256",
          "name": "accSoulPerShare",
          "type": "uint256"
        }
      ],
      "stateMutability": "view",
      "type": "function",
      "constant": true
    },
    {
      "inputs": [
        {
          "internalType": "address",
          "name": "removingOperator",
          "type": "address"
        }
      ],
      "name": "removeOperator",
      "outputs": [],
      "stateMutability": "nonpayable",
      "type": "function"
    },
    {
      "inputs": [],
      "name": "renounceOwnership",
      "outputs": [],
      "stateMutability": "nonpayable",
      "type": "function"
    },
    {
      "inputs": [],
      "name": "seance",
      "outputs": [
        {
          "internalType": "contract SeanceCircle",
          "name": "",
          "type": "address"
        }
      ],
      "stateMutability": "view",
      "type": "function",
      "constant": true
    },
    {
      "inputs": [],
      "name": "soul",
      "outputs": [
        {
          "internalType": "contract SoulPower",
          "name": "",
          "type": "address"
        }
      ],
      "stateMutability": "view",
      "type": "function",
      "constant": true
    },
    {
      "inputs": [],
      "name": "soulPerSecond",
      "outputs": [
        {
          "internalType": "uint256",
          "name": "",
          "type": "uint256"
        }
      ],
      "stateMutability": "view",
      "type": "function",
      "constant": true
    },
    {
      "inputs": [],
      "name": "startTime",
      "outputs": [
        {
          "internalType": "uint256",
          "name": "",
          "type": "uint256"
        }
      ],
      "stateMutability": "view",
      "type": "function",
      "constant": true
    },
    {
      "inputs": [],
      "name": "team",
      "outputs": [
        {
          "internalType": "address",
          "name": "",
          "type": "address"
        }
      ],
      "stateMutability": "view",
      "type": "function",
      "constant": true
    },
    {
      "inputs": [],
      "name": "totalAllocPoint",
      "outputs": [
        {
          "internalType": "uint256",
          "name": "",
          "type": "uint256"
        }
      ],
      "stateMutability": "view",
      "type": "function",
      "constant": true
    },
    {
      "inputs": [],
      "name": "totalChains",
      "outputs": [
        {
          "internalType": "uint256",
          "name": "",
          "type": "uint256"
        }
      ],
      "stateMutability": "view",
      "type": "function",
      "constant": true
    },
    {
      "inputs": [],
      "name": "totalWeight",
      "outputs": [
        {
          "internalType": "uint256",
          "name": "",
          "type": "uint256"
        }
      ],
      "stateMutability": "view",
      "type": "function",
      "constant": true
    },
    {
      "inputs": [
        {
          "internalType": "address",
          "name": "newOwner",
          "type": "address"
        }
      ],
      "name": "transferOwnership",
      "outputs": [],
      "stateMutability": "nonpayable",
      "type": "function"
    },
    {
      "inputs": [
        {
          "internalType": "uint256",
          "name": "",
          "type": "uint256"
        },
        {
          "internalType": "address",
          "name": "",
          "type": "address"
        }
      ],
      "name": "userInfo",
      "outputs": [
        {
          "internalType": "uint256",
          "name": "amount",
          "type": "uint256"
        },
        {
          "internalType": "uint256",
          "name": "rewardDebt",
          "type": "uint256"
        }
      ],
      "stateMutability": "view",
      "type": "function",
      "constant": true
    },
    {
      "inputs": [],
      "name": "weight",
      "outputs": [
        {
          "internalType": "uint256",
          "name": "",
          "type": "uint256"
        }
      ],
      "stateMutability": "view",
      "type": "function",
      "constant": true
    },
    {
      "inputs": [
        {
          "internalType": "address",
          "name": "_soulAddress",
          "type": "address"
        },
        {
          "internalType": "address",
          "name": "_seanceAddress",
          "type": "address"
        },
        {
          "internalType": "uint256",
          "name": "_chainId",
          "type": "uint256"
        },
        {
          "internalType": "uint256",
          "name": "_totalChains",
          "type": "uint256"
        },
        {
          "internalType": "uint256",
          "name": "_totalWeight",
          "type": "uint256"
        },
        {
          "internalType": "uint256",
          "name": "_weight",
          "type": "uint256"
        }
      ],
      "name": "initialize",
      "outputs": [],
      "stateMutability": "nonpayable",
      "type": "function"
    },
    {
      "inputs": [
        {
          "internalType": "uint256",
          "name": "_bonusMultiplier",
          "type": "uint256"
        }
      ],
      "name": "updateMultiplier",
      "outputs": [],
      "stateMutability": "nonpayable",
      "type": "function"
    },
    {
      "inputs": [],
      "name": "poolLength",
      "outputs": [
        {
          "internalType": "uint256",
          "name": "",
          "type": "uint256"
        }
      ],
      "stateMutability": "view",
      "type": "function",
      "constant": true
    },
    {
      "inputs": [
        {
          "internalType": "uint256",
          "name": "_allocPoint",
          "type": "uint256"
        },
        {
          "internalType": "contract IERC20",
          "name": "_lpToken",
          "type": "address"
        },
        {
          "internalType": "bool",
          "name": "_withUpdate",
          "type": "bool"
        }
      ],
      "name": "add",
      "outputs": [],
      "stateMutability": "nonpayable",
      "type": "function"
    },
    {
      "inputs": [
        {
          "internalType": "uint256",
          "name": "_pid",
          "type": "uint256"
        },
        {
          "internalType": "uint256",
          "name": "_allocPoint",
          "type": "uint256"
        },
        {
          "internalType": "bool",
          "name": "_withUpdate",
          "type": "bool"
        }
      ],
      "name": "set",
      "outputs": [],
      "stateMutability": "nonpayable",
      "type": "function"
    },
    {
      "inputs": [
        {
          "internalType": "uint256",
          "name": "_weight",
          "type": "uint256"
        }
      ],
      "name": "gainWeight",
      "outputs": [],
      "stateMutability": "nonpayable",
      "type": "function"
    },
    {
      "inputs": [
        {
          "internalType": "uint256",
          "name": "_weight",
          "type": "uint256"
        }
      ],
      "name": "loseWeight",
      "outputs": [],
      "stateMutability": "nonpayable",
      "type": "function"
    },
    {
      "inputs": [
        {
          "internalType": "contract IMigrator",
          "name": "_migrator",
          "type": "address"
        }
      ],
      "name": "setMigrator",
      "outputs": [],
      "stateMutability": "nonpayable",
      "type": "function"
    },
    {
      "inputs": [
        {
          "internalType": "uint256",
          "name": "_pid",
          "type": "uint256"
        }
      ],
      "name": "migrate",
      "outputs": [],
      "stateMutability": "nonpayable",
      "type": "function"
    },
    {
      "inputs": [
        {
          "internalType": "uint256",
          "name": "_from",
          "type": "uint256"
        },
        {
          "internalType": "uint256",
          "name": "_to",
          "type": "uint256"
        }
      ],
      "name": "getMultiplier",
      "outputs": [
        {
          "internalType": "uint256",
          "name": "",
          "type": "uint256"
        }
      ],
      "stateMutability": "view",
      "type": "function",
      "constant": true
    },
    {
      "inputs": [
        {
          "internalType": "uint256",
          "name": "_pid",
          "type": "uint256"
        },
        {
          "internalType": "address",
          "name": "_user",
          "type": "address"
        }
      ],
      "name": "pendingSoul",
      "outputs": [
        {
          "internalType": "uint256",
          "name": "",
          "type": "uint256"
        }
      ],
      "stateMutability": "view",
      "type": "function",
      "constant": true
    },
    {
      "inputs": [],
      "name": "massUpdatePools",
      "outputs": [],
      "stateMutability": "nonpayable",
      "type": "function"
    },
    {
      "inputs": [
        {
          "internalType": "uint256",
          "name": "_pid",
          "type": "uint256"
        }
      ],
      "name": "updatePool",
      "outputs": [],
      "stateMutability": "nonpayable",
      "type": "function"
    },
    {
      "inputs": [
        {
          "internalType": "uint256",
          "name": "_pid",
          "type": "uint256"
        },
        {
          "internalType": "uint256",
          "name": "_amount",
          "type": "uint256"
        }
      ],
      "name": "deposit",
      "outputs": [],
      "stateMutability": "nonpayable",
      "type": "function"
    },
    {
      "inputs": [
        {
          "internalType": "uint256",
          "name": "_pid",
          "type": "uint256"
        },
        {
          "internalType": "uint256",
          "name": "_amount",
          "type": "uint256"
        }
      ],
      "name": "withdraw",
      "outputs": [],
      "stateMutability": "nonpayable",
      "type": "function"
    },
    {
      "inputs": [
        {
          "internalType": "uint256",
          "name": "_amount",
          "type": "uint256"
        }
      ],
      "name": "enterStaking",
      "outputs": [],
      "stateMutability": "nonpayable",
      "type": "function"
    },
    {
      "inputs": [
        {
          "internalType": "uint256",
          "name": "_amount",
          "type": "uint256"
        }
      ],
      "name": "leaveStaking",
      "outputs": [],
      "stateMutability": "nonpayable",
      "type": "function"
    },
    {
      "inputs": [
        {
          "internalType": "address",
          "name": "_dao",
          "type": "address"
        }
      ],
      "name": "newDAO",
      "outputs": [],
      "stateMutability": "nonpayable",
      "type": "function"
    },
    {
      "inputs": [
        {
          "internalType": "address",
          "name": "_team",
          "type": "address"
        }
      ],
      "name": "newTeam",
      "outputs": [],
      "stateMutability": "nonpayable",
      "type": "function"
    },
    {
      "inputs": [
        {
          "internalType": "contract SoulPower",
          "name": "_soul",
          "type": "address"
        }
      ],
      "name": "newSoul",
      "outputs": [],
      "stateMutability": "nonpayable",
      "type": "function"
    },
    {
      "inputs": [
        {
          "internalType": "contract SeanceCircle",
          "name": "_seance",
          "type": "address"
        }
      ],
      "name": "newSeance",
      "outputs": [],
      "stateMutability": "nonpayable",
      "type": "function"
    }
  ],
  "bytecode": "0x60806040526934f086f3b33b68400000600f5562015180600f546200002591906200024c565b60105560016011553480156200003a57600080fd5b506200005b6200004f6200018060201b60201c565b6200018860201b60201c565b60006200006d6200018060201b60201c565b90506001600260008373ffffffffffffffffffffffffffffffffffffffff1673ffffffffffffffffffffffffffffffffffffffff16815260200190815260200160002060006101000a81548160ff0219169083151502179055506001819080600181540180825580915050600190039060005260206000200160009091909190916101000a81548173ffffffffffffffffffffffffffffffffffffffff021916908373ffffffffffffffffffffffffffffffffffffffff160217905550600115158173ffffffffffffffffffffffffffffffffffffffff167f966c160e1c4dbc7df8d69af4ace01e9297c3cf016397b7914971f2fbfa32672d60405160405180910390a3506001600381905550620002bd565b600033905090565b60008060009054906101000a900473ffffffffffffffffffffffffffffffffffffffff169050816000806101000a81548173ffffffffffffffffffffffffffffffffffffffff021916908373ffffffffffffffffffffffffffffffffffffffff1602179055508173ffffffffffffffffffffffffffffffffffffffff168173ffffffffffffffffffffffffffffffffffffffff167f8be0079c531659141344cd1fd0a4f28419497f9722a3daafe3b4186f6b6457e060405160405180910390a35050565b6000620002598262000284565b9150620002668362000284565b9250826200027957620002786200028e565b5b828204905092915050565b6000819050919050565b7f4e487b7100000000000000000000000000000000000000000000000000000000600052601260045260246000fd5b61551b80620002cd6000396000f3fe608060405234801561001057600080fd5b506004361061027f5760003560e01c80637d500ec81161015c578063a1aab33f116100ce578063e2bbb15811610087578063e2bbb15814610740578063e2f0edf61461075c578063e8ceedbe1461077a578063f2fde38b14610796578063f4081cc5146107b2578063f8a44b67146107ce5761027f565b8063a1aab33f1461066c578063a8b973a11461068a578063ac8a584a146106a8578063bfafcad5146106c4578063e06f926f146106f4578063e28d4906146107105761027f565b80638dbb1e3a116101205780638dbb1e3a1461058357806393f1a40b146105b357806396c82e57146105e45780639870d7fe146106025780639a3073911461061e5780639a8a05921461064e5761027f565b80637d500ec8146104ef578063815b7a8c1461050d57806385f2aef21461052b57806386489ba9146105495780638da5cb5b146105655761027f565b8063441a3e70116101f55780635ffe6146116101b95780635ffe614614610467578063630b5ba11461048357806364482f791461048d578063715018a6146104a957806378e97925146104b35780637cd07e47146104d15761027f565b8063441a3e70146103d7578063454b0608146103f35780634ca01d451461040f57806351eb05a61461042d5780635f9bf689146104495761027f565b80632168744411610247578063216874441461032b57806323cf311814610347578063260cf99614610363578063392e53cd1461037f57806341441d3b1461039d5780634162169f146103b95761027f565b8063081e3eda146102845780631058d281146102a25780631526fe27146102be57806317caf6f1146102f15780631eaaa0451461030f575b600080fd5b61028c6107ea565b6040516102999190615060565b60405180910390f35b6102bc60048036038101906102b791906144a9565b6107f7565b005b6102d860048036038101906102d391906144a9565b610b6f565b6040516102e89493929190614d4a565b60405180910390f35b6102f9610bcf565b6040516103069190615060565b60405180910390f35b61032960048036038101906103249190614537565b610bd5565b005b6103456004803603810190610340919061432a565b610cd6565b005b610361600480360381019061035c919061442e565b610e27565b005b61037d60048036038101906103789190614480565b610f36565b005b610387611087565b6040516103949190614d14565b60405180910390f35b6103b760048036038101906103b291906144a9565b61109a565b005b6103c16113db565b6040516103ce9190614c38565b60405180910390f35b6103f160048036038101906103ec9190614586565b611401565b005b61040d600480360381019061040891906144a9565b611775565b005b610417611c16565b6040516104249190614daa565b60405180910390f35b610447600480360381019061044291906144a9565b611c3c565b005b610451612088565b60405161045e9190615060565b60405180910390f35b610481600480360381019061047c91906144a9565b61208e565b005b61048b612131565b005b6104a760048036038101906104a291906145c2565b612164565b005b6104b16123b2565b005b6104bb61243a565b6040516104c89190615060565b60405180910390f35b6104d9612440565b6040516104e69190614d8f565b60405180910390f35b6104f7612466565b6040516105049190615060565b60405180910390f35b61051561246c565b6040516105229190614dc5565b60405180910390f35b610533612492565b6040516105409190614c38565b60405180910390f35b610563600480360381019061055e9190614353565b6124b8565b005b61056d61297d565b60405161057a9190614c38565b60405180910390f35b61059d60048036038101906105989190614586565b6129a6565b6040516105aa9190615060565b60405180910390f35b6105cd60048036038101906105c891906144fb565b6129c9565b6040516105db92919061507b565b60405180910390f35b6105ec6129fa565b6040516105f99190615060565b60405180910390f35b61061c6004803603810190610617919061432a565b612a00565b005b6106386004803603810190610633919061432a565b612c9b565b6040516106459190614d14565b60405180910390f35b610656612cbb565b6040516106639190615060565b60405180910390f35b610674612cc1565b6040516106819190615060565b60405180910390f35b610692612cc7565b60405161069f9190615060565b60405180910390f35b6106c260048036038101906106bd919061432a565b612ccd565b005b6106de60048036038101906106d991906144fb565b6130c2565b6040516106eb9190615060565b60405180910390f35b61070e6004803603810190610709919061432a565b6132dd565b005b61072a600480360381019061072591906144a9565b61342e565b6040516107379190614c38565b60405180910390f35b61075a60048036038101906107559190614586565b61346d565b005b6107646137aa565b6040516107719190615060565b60405180910390f35b610794600480360381019061078f91906144a9565b6137b0565b005b6107b060048036038101906107ab919061432a565b613908565b005b6107cc60048036038101906107c791906144a9565b613a00565b005b6107e860048036038101906107e39190614457565b613b58565b005b6000601580549050905090565b6002600354141561083d576040517f08c379a000000000000000000000000000000000000000000000000000000000815260040161083490615020565b60405180910390fd5b600260038190555060006015600081548110610882577f4e487b7100000000000000000000000000000000000000000000000000000000600052603260045260246000fd5b9060005260206000209060040201905060006016600080815260200190815260200160002060003373ffffffffffffffffffffffffffffffffffffffff1673ffffffffffffffffffffffffffffffffffffffff1681526020019081526020016000209050828160000154101561092d576040517f08c379a000000000000000000000000000000000000000000000000000000000815260040161092490614fe0565b60405180910390fd5b6109376000611c3c565b6000816001015464e8d4a510008460030154846000015461095891906151b8565b6109629190615187565b61096c9190615212565b90506000811115610982576109813382613ca9565b5b6000841115610a565783826000015461099b9190615212565b82600001819055508260000160009054906101000a900473ffffffffffffffffffffffffffffffffffffffff1673ffffffffffffffffffffffffffffffffffffffff1663a9059cbb33866040518363ffffffff1660e01b8152600401610a02929190614ceb565b602060405180830381600087803b158015610a1c57600080fd5b505af1158015610a30573d6000803e3d6000fd5b505050506040513d601f19601f82011682018060405250810190610a5491906143dc565b505b64e8d4a5100083600301548360000154610a7091906151b8565b610a7a9190615187565b8260010181905550600760009054906101000a900473ffffffffffffffffffffffffffffffffffffffff1673ffffffffffffffffffffffffffffffffffffffff16639dc29fac33866040518363ffffffff1660e01b8152600401610adf929190614ceb565b600060405180830381600087803b158015610af957600080fd5b505af1158015610b0d573d6000803e3d6000fd5b5050505060003373ffffffffffffffffffffffffffffffffffffffff167ff279e6a1f5e320cca91135676d9cb6e44ca8a08c0b88342bcdb1144f6511b56886604051610b599190615060565b60405180910390a3505050600160038190555050565b60158181548110610b7f57600080fd5b90600052602060002090600402016000915090508060000160009054906101000a900473ffffffffffffffffffffffffffffffffffffffff16908060010154908060020154908060030154905084565b60135481565b6000610bdf613d3c565b9050600260008273ffffffffffffffffffffffffffffffffffffffff1673ffffffffffffffffffffffffffffffffffffffff16815260200190815260200160002060009054906101000a900460ff16610c6d576040517f08c379a0000000000000000000000000000000000000000000000000000000008152600401610c6490614fa0565b60405180910390fd5b601460009054906101000a900460ff16610cbc576040517f08c379a0000000000000000000000000000000000000000000000000000000008152600401610cb390614e20565b60405180910390fd5b610cc583613d44565b610cd0848484613e49565b50505050565b610cde613d3c565b73ffffffffffffffffffffffffffffffffffffffff16610cfc61297d565b73ffffffffffffffffffffffffffffffffffffffff1614610d52576040517f08c379a0000000000000000000000000000000000000000000000000000000008152600401610d4990614ee0565b60405180910390fd5b8073ffffffffffffffffffffffffffffffffffffffff16600960009054906101000a900473ffffffffffffffffffffffffffffffffffffffff1673ffffffffffffffffffffffffffffffffffffffff161415610de3576040517f08c379a0000000000000000000000000000000000000000000000000000000008152600401610dda90614f00565b60405180910390fd5b80600960006101000a81548173ffffffffffffffffffffffffffffffffffffffff021916908373ffffffffffffffffffffffffffffffffffffffff16021790555050565b610e2f613d3c565b73ffffffffffffffffffffffffffffffffffffffff16610e4d61297d565b73ffffffffffffffffffffffffffffffffffffffff1614610ea3576040517f08c379a0000000000000000000000000000000000000000000000000000000008152600401610e9a90614ee0565b60405180910390fd5b601460009054906101000a900460ff16610ef2576040517f08c379a0000000000000000000000000000000000000000000000000000000008152600401610ee990614f40565b60405180910390fd5b80600a60006101000a81548173ffffffffffffffffffffffffffffffffffffffff021916908373ffffffffffffffffffffffffffffffffffffffff16021790555050565b610f3e613d3c565b73ffffffffffffffffffffffffffffffffffffffff16610f5c61297d565b73ffffffffffffffffffffffffffffffffffffffff1614610fb2576040517f08c379a0000000000000000000000000000000000000000000000000000000008152600401610fa990614ee0565b60405180910390fd5b8073ffffffffffffffffffffffffffffffffffffffff16600560009054906101000a900473ffffffffffffffffffffffffffffffffffffffff1673ffffffffffffffffffffffffffffffffffffffff161415611043576040517f08c379a000000000000000000000000000000000000000000000000000000000815260040161103a90614f00565b60405180910390fd5b80600560006101000a81548173ffffffffffffffffffffffffffffffffffffffff021916908373ffffffffffffffffffffffffffffffffffffffff16021790555050565b601460009054906101000a900460ff1681565b600260035414156110e0576040517f08c379a00000000000000000000000000000000000000000000000000000000081526004016110d790615020565b60405180910390fd5b600260038190555060006015600081548110611125577f4e487b7100000000000000000000000000000000000000000000000000000000600052603260045260246000fd5b9060005260206000209060040201905060006016600080815260200190815260200160002060003373ffffffffffffffffffffffffffffffffffffffff1673ffffffffffffffffffffffffffffffffffffffff16815260200190815260200160002090506111936000611c3c565b6000816000015411156111ed576000816001015464e8d4a51000846003015484600001546111c191906151b8565b6111cb9190615187565b6111d59190615212565b905060008111156111eb576111ea3382613ca9565b5b505b60008311156112c3578160000160009054906101000a900473ffffffffffffffffffffffffffffffffffffffff1673ffffffffffffffffffffffffffffffffffffffff166323b872dd3330866040518463ffffffff1660e01b815260040161125793929190614cb4565b602060405180830381600087803b15801561127157600080fd5b505af1158015611285573d6000803e3d6000fd5b505050506040513d601f19601f820116820180604052508101906112a991906143dc565b508281600001546112ba91906150fa565b81600001819055505b64e8d4a51000826003015482600001546112dd91906151b8565b6112e79190615187565b8160010181905550600760009054906101000a900473ffffffffffffffffffffffffffffffffffffffff1673ffffffffffffffffffffffffffffffffffffffff166340c10f1933856040518363ffffffff1660e01b815260040161134c929190614ceb565b600060405180830381600087803b15801561136657600080fd5b505af115801561137a573d6000803e3d6000fd5b5050505060003373ffffffffffffffffffffffffffffffffffffffff167f90890809c654f11d6e72a28fa60149770a0d11ec6c92319d6ceb2bb0a4ea1a15856040516113c69190615060565b60405180910390a35050600160038190555050565b600960009054906101000a900473ffffffffffffffffffffffffffffffffffffffff1681565b60026003541415611447576040517f08c379a000000000000000000000000000000000000000000000000000000000815260040161143e90615020565b60405180910390fd5b6002600381905550816015805490508110611497576040517f08c379a000000000000000000000000000000000000000000000000000000000815260040161148e90614f80565b60405180910390fd5b60008314156114db576040517f08c379a00000000000000000000000000000000000000000000000000000000081526004016114d290614ea0565b60405180910390fd5b600060158481548110611517577f4e487b7100000000000000000000000000000000000000000000000000000000600052603260045260246000fd5b9060005260206000209060040201905060006016600086815260200190815260200160002060003373ffffffffffffffffffffffffffffffffffffffff1673ffffffffffffffffffffffffffffffffffffffff168152602001908152602001600020905083816000015410156115c2576040517f08c379a00000000000000000000000000000000000000000000000000000000081526004016115b990615000565b60405180910390fd5b6115cb85611c3c565b6000816001015464e8d4a51000846003015484600001546115ec91906151b8565b6115f69190615187565b6116009190615212565b90506000811115611616576116153382613ca9565b5b60008511156116ea5784826000015461162f9190615212565b82600001819055508260000160009054906101000a900473ffffffffffffffffffffffffffffffffffffffff1673ffffffffffffffffffffffffffffffffffffffff1663a9059cbb33876040518363ffffffff1660e01b8152600401611696929190614ceb565b602060405180830381600087803b1580156116b057600080fd5b505af11580156116c4573d6000803e3d6000fd5b505050506040513d601f19601f820116820180604052508101906116e891906143dc565b505b64e8d4a510008360030154836000015461170491906151b8565b61170e9190615187565b8260010181905550853373ffffffffffffffffffffffffffffffffffffffff167ff279e6a1f5e320cca91135676d9cb6e44ca8a08c0b88342bcdb1144f6511b5688760405161175d9190615060565b60405180910390a35050505060016003819055505050565b8060158054905081106117bd576040517f08c379a00000000000000000000000000000000000000000000000000000000081526004016117b490614f80565b60405180910390fd5b601460009054906101000a900460ff1661180c576040517f08c379a000000000000000000000000000000000000000000000000000000000815260040161180390614f40565b60405180910390fd5b600073ffffffffffffffffffffffffffffffffffffffff16600a60009054906101000a900473ffffffffffffffffffffffffffffffffffffffff1673ffffffffffffffffffffffffffffffffffffffff16141561189e576040517f08c379a000000000000000000000000000000000000000000000000000000000815260040161189590614e80565b60405180910390fd5b6000601583815481106118da577f4e487b7100000000000000000000000000000000000000000000000000000000600052603260045260246000fd5b9060005260206000209060040201905060008160000160009054906101000a900473ffffffffffffffffffffffffffffffffffffffff16905060008173ffffffffffffffffffffffffffffffffffffffff166370a08231306040518263ffffffff1660e01b815260040161194e9190614c38565b60206040518083038186803b15801561196657600080fd5b505afa15801561197a573d6000803e3d6000fd5b505050506040513d601f19601f8201168201806040525081019061199e91906144d2565b90508173ffffffffffffffffffffffffffffffffffffffff1663095ea7b3600a60009054906101000a900473ffffffffffffffffffffffffffffffffffffffff16836040518363ffffffff1660e01b81526004016119fd929190614ceb565b602060405180830381600087803b158015611a1757600080fd5b505af1158015611a2b573d6000803e3d6000fd5b505050506040513d601f19601f82011682018060405250810190611a4f91906143dc565b506000600a60009054906101000a900473ffffffffffffffffffffffffffffffffffffffff1673ffffffffffffffffffffffffffffffffffffffff1663ce5494bb846040518263ffffffff1660e01b8152600401611aad9190614d2f565b602060405180830381600087803b158015611ac757600080fd5b505af1158015611adb573d6000803e3d6000fd5b505050506040513d601f19601f82011682018060405250810190611aff9190614405565b90508073ffffffffffffffffffffffffffffffffffffffff166370a08231306040518263ffffffff1660e01b8152600401611b3a9190614c38565b60206040518083038186803b158015611b5257600080fd5b505afa158015611b66573d6000803e3d6000fd5b505050506040513d601f19601f82011682018060405250810190611b8a91906144d2565b8214611bcb576040517f08c379a0000000000000000000000000000000000000000000000000000000008152600401611bc290615040565b60405180910390fd5b808460000160006101000a81548173ffffffffffffffffffffffffffffffffffffffff021916908373ffffffffffffffffffffffffffffffffffffffff160217905550505050505050565b600760009054906101000a900473ffffffffffffffffffffffffffffffffffffffff1681565b806015805490508110611c84576040517f08c379a0000000000000000000000000000000000000000000000000000000008152600401611c7b90614f80565b60405180910390fd5b600060158381548110611cc0577f4e487b7100000000000000000000000000000000000000000000000000000000600052603260045260246000fd5b9060005260206000209060040201905080600201544211611ce15750612084565b60008160000160009054906101000a900473ffffffffffffffffffffffffffffffffffffffff1673ffffffffffffffffffffffffffffffffffffffff166370a08231306040518263ffffffff1660e01b8152600401611d409190614c38565b60206040518083038186803b158015611d5857600080fd5b505afa158015611d6c573d6000803e3d6000fd5b505050506040513d601f19601f82011682018060405250810190611d9091906144d2565b90506000811415611dab574282600201819055505050612084565b6000611dbb8360020154426129a6565b90506000601354846001015460105484611dd591906151b8565b611ddf91906151b8565b611de99190615187565b90506000650746a528800064e8d4a5100083611e0591906151b8565b611e0f9190615187565b90506000600282611e2091906151b8565b905060008184611e309190615212565b9050600560009054906101000a900473ffffffffffffffffffffffffffffffffffffffff1673ffffffffffffffffffffffffffffffffffffffff166340c10f19600860009054906101000a900473ffffffffffffffffffffffffffffffffffffffff16856040518363ffffffff1660e01b8152600401611eb1929190614ceb565b600060405180830381600087803b158015611ecb57600080fd5b505af1158015611edf573d6000803e3d6000fd5b50505050600560009054906101000a900473ffffffffffffffffffffffffffffffffffffffff1673ffffffffffffffffffffffffffffffffffffffff166340c10f19600960009054906101000a900473ffffffffffffffffffffffffffffffffffffffff16856040518363ffffffff1660e01b8152600401611f62929190614ceb565b600060405180830381600087803b158015611f7c57600080fd5b505af1158015611f90573d6000803e3d6000fd5b50505050600560009054906101000a900473ffffffffffffffffffffffffffffffffffffffff1673ffffffffffffffffffffffffffffffffffffffff166340c10f19600760009054906101000a900473ffffffffffffffffffffffffffffffffffffffff16836040518363ffffffff1660e01b8152600401612013929190614ceb565b600060405180830381600087803b15801561202d57600080fd5b505af1158015612041573d6000803e3d6000fd5b5050505085818561205291906151b8565b61205c9190615187565b876003015461206b91906150fa565b8760030181905550428760020181905550505050505050505b5050565b60105481565b6000612098613d3c565b9050600260008273ffffffffffffffffffffffffffffffffffffffff1673ffffffffffffffffffffffffffffffffffffffff16815260200190815260200160002060009054906101000a900460ff16612126576040517f08c379a000000000000000000000000000000000000000000000000000000000815260040161211d90614fa0565b60405180910390fd5b816011819055505050565b6000601580549050905060005b818110156121605761214f81611c3c565b8061215990615373565b905061213e565b5050565b600061216e613d3c565b9050600260008273ffffffffffffffffffffffffffffffffffffffff1673ffffffffffffffffffffffffffffffffffffffff16815260200190815260200160002060009054906101000a900460ff166121fc576040517f08c379a00000000000000000000000000000000000000000000000000000000081526004016121f390614fa0565b60405180910390fd5b836015805490508110612244576040517f08c379a000000000000000000000000000000000000000000000000000000000815260040161223b90614f80565b60405180910390fd5b601460009054906101000a900460ff16612293576040517f08c379a000000000000000000000000000000000000000000000000000000000815260040161228a90614fc0565b60405180910390fd5b82156122a2576122a1612131565b5b6000601586815481106122de577f4e487b7100000000000000000000000000000000000000000000000000000000600052603260045260246000fd5b9060005260206000209060040201600101549050846015878154811061232d577f4e487b7100000000000000000000000000000000000000000000000000000000600052603260045260246000fd5b9060005260206000209060040201600101819055508481146123715784816013546123589190615212565b61236291906150fa565b601381905550612370613fa5565b5b7fd88f859573973e938da5bf3e5100c16eee2090fa720e05ae3d452b4cd05cdcfd86866040516123a292919061507b565b60405180910390a1505050505050565b6123ba613d3c565b73ffffffffffffffffffffffffffffffffffffffff166123d861297d565b73ffffffffffffffffffffffffffffffffffffffff161461242e576040517f08c379a000000000000000000000000000000000000000000000000000000000815260040161242590614ee0565b60405180910390fd5b6124386000614102565b565b60125481565b600a60009054906101000a900473ffffffffffffffffffffffffffffffffffffffff1681565b600f5481565b600560009054906101000a900473ffffffffffffffffffffffffffffffffffffffff1681565b600860009054906101000a900473ffffffffffffffffffffffffffffffffffffffff1681565b6124c0613d3c565b73ffffffffffffffffffffffffffffffffffffffff166124de61297d565b73ffffffffffffffffffffffffffffffffffffffff1614612534576040517f08c379a000000000000000000000000000000000000000000000000000000000815260040161252b90614ee0565b60405180910390fd5b601460009054906101000a900460ff1615612584576040517f08c379a000000000000000000000000000000000000000000000000000000000815260040161257b90614e40565b60405180910390fd5b85600460006101000a81548173ffffffffffffffffffffffffffffffffffffffff021916908373ffffffffffffffffffffffffffffffffffffffff16021790555084600660006101000a81548173ffffffffffffffffffffffffffffffffffffffff021916908373ffffffffffffffffffffffffffffffffffffffff16021790555033600960006101000a81548173ffffffffffffffffffffffffffffffffffffffff021916908373ffffffffffffffffffffffffffffffffffffffff16021790555033600860006101000a81548173ffffffffffffffffffffffffffffffffffffffff021916908373ffffffffffffffffffffffffffffffffffffffff1602179055504260128190555083600b8190555082600c8190555080826126a991906150fa565b600d8190555080600e81905550600460009054906101000a900473ffffffffffffffffffffffffffffffffffffffff16600560006101000a81548173ffffffffffffffffffffffffffffffffffffffff021916908373ffffffffffffffffffffffffffffffffffffffff160217905550600660009054906101000a900473ffffffffffffffffffffffffffffffffffffffff16600760006101000a81548173ffffffffffffffffffffffffffffffffffffffff021916908373ffffffffffffffffffffffffffffffffffffffff16021790555060156040518060800160405280600560009054906101000a900473ffffffffffffffffffffffffffffffffffffffff1673ffffffffffffffffffffffffffffffffffffffff1681526020016103e8815260200160125481526020016000815250908060018154018082558091505060019003906000526020600020906004020160009091909190915060008201518160000160006101000a81548173ffffffffffffffffffffffffffffffffffffffff021916908373ffffffffffffffffffffffffffffffffffffffff16021790555060208201518160010155604082015181600201556060820151816003015550506001601460006101000a81548160ff0219169083151502179055506103e8601381905550600c60008154809291906128a390615373565b91905055507f0476c5e4920930815a67a5a042e26836431f494d3be0f6e10c3034787a7a15f9600860009054906101000a900473ffffffffffffffffffffffffffffffffffffffff16600960009054906101000a900473ffffffffffffffffffffffffffffffffffffffff16600460009054906101000a900473ffffffffffffffffffffffffffffffffffffffff16600660009054906101000a900473ffffffffffffffffffffffffffffffffffffffff16600b54600e5460405161296d96959493929190614c53565b60405180910390a1505050505050565b60008060009054906101000a900473ffffffffffffffffffffffffffffffffffffffff16905090565b600060115483836129b79190615212565b6129c191906151b8565b905092915050565b6016602052816000526040600020602052806000526040600020600091509150508060000154908060010154905082565b600d5481565b6000612a0a613d3c565b9050600260008273ffffffffffffffffffffffffffffffffffffffff1673ffffffffffffffffffffffffffffffffffffffff16815260200190815260200160002060009054906101000a900460ff16612a98576040517f08c379a0000000000000000000000000000000000000000000000000000000008152600401612a8f90614fa0565b60405180910390fd5b600073ffffffffffffffffffffffffffffffffffffffff168273ffffffffffffffffffffffffffffffffffffffff161415612b08576040517f08c379a0000000000000000000000000000000000000000000000000000000008152600401612aff90614e00565b60405180910390fd5b600260008373ffffffffffffffffffffffffffffffffffffffff1673ffffffffffffffffffffffffffffffffffffffff16815260200190815260200160002060009054906101000a900460ff1615612b95576040517f08c379a0000000000000000000000000000000000000000000000000000000008152600401612b8c90614f60565b60405180910390fd5b6001600260008473ffffffffffffffffffffffffffffffffffffffff1673ffffffffffffffffffffffffffffffffffffffff16815260200190815260200160002060006101000a81548160ff0219169083151502179055506001829080600181540180825580915050600190039060005260206000200160009091909190916101000a81548173ffffffffffffffffffffffffffffffffffffffff021916908373ffffffffffffffffffffffffffffffffffffffff160217905550600115158273ffffffffffffffffffffffffffffffffffffffff167f966c160e1c4dbc7df8d69af4ace01e9297c3cf016397b7914971f2fbfa32672d60405160405180910390a35050565b60026020528060005260406000206000915054906101000a900460ff1681565b600b5481565b600e5481565b60115481565b6000612cd7613d3c565b9050600260008273ffffffffffffffffffffffffffffffffffffffff1673ffffffffffffffffffffffffffffffffffffffff16815260200190815260200160002060009054906101000a900460ff16612d65576040517f08c379a0000000000000000000000000000000000000000000000000000000008152600401612d5c90614fa0565b60405180910390fd5b600260008373ffffffffffffffffffffffffffffffffffffffff1673ffffffffffffffffffffffffffffffffffffffff16815260200190815260200160002060009054906101000a900460ff16612df1576040517f08c379a0000000000000000000000000000000000000000000000000000000008152600401612de890614e60565b60405180910390fd5b6000600260008473ffffffffffffffffffffffffffffffffffffffff1673ffffffffffffffffffffffffffffffffffffffff16815260200190815260200160002060006101000a81548160ff02191690831515021790555060005b6001805490508160ff1610156130bc578273ffffffffffffffffffffffffffffffffffffffff1660018260ff1681548110612eb0577f4e487b7100000000000000000000000000000000000000000000000000000000600052603260045260246000fd5b9060005260206000200160009054906101000a900473ffffffffffffffffffffffffffffffffffffffff1673ffffffffffffffffffffffffffffffffffffffff1614156130a95760018082612f059190615150565b60ff1681548110612f3f577f4e487b7100000000000000000000000000000000000000000000000000000000600052603260045260246000fd5b9060005260206000200160009054906101000a900473ffffffffffffffffffffffffffffffffffffffff1660018260ff1681548110612fa7577f4e487b7100000000000000000000000000000000000000000000000000000000600052603260045260246000fd5b9060005260206000200160006101000a81548173ffffffffffffffffffffffffffffffffffffffff021916908373ffffffffffffffffffffffffffffffffffffffff1602179055506001805480613027577f4e487b7100000000000000000000000000000000000000000000000000000000600052603160045260246000fd5b6001900381819060005260206000200160006101000a81549073ffffffffffffffffffffffffffffffffffffffff02191690559055600015158373ffffffffffffffffffffffffffffffffffffffff167f966c160e1c4dbc7df8d69af4ace01e9297c3cf016397b7914971f2fbfa32672d60405160405180910390a3506130be565b80806130b4906153bc565b915050612e4c565b505b5050565b600080601584815481106130ff577f4e487b7100000000000000000000000000000000000000000000000000000000600052603260045260246000fd5b9060005260206000209060040201905060006016600086815260200190815260200160002060008573ffffffffffffffffffffffffffffffffffffffff1673ffffffffffffffffffffffffffffffffffffffff168152602001908152602001600020905060008260030154905060008360000160009054906101000a900473ffffffffffffffffffffffffffffffffffffffff1673ffffffffffffffffffffffffffffffffffffffff166370a08231306040518263ffffffff1660e01b81526004016131cb9190614c38565b60206040518083038186803b1580156131e357600080fd5b505afa1580156131f7573d6000803e3d6000fd5b505050506040513d601f19601f8201168201806040525081019061321b91906144d2565b9050836002015442118015613231575060008114155b156132a25760006132468560020154426129a6565b9050600060135486600101546010548461326091906151b8565b61326a91906151b8565b6132749190615187565b90508264e8d4a510008261328891906151b8565b6132929190615187565b8461329d91906150fa565b935050505b826001015464e8d4a510008385600001546132bd91906151b8565b6132c79190615187565b6132d19190615212565b94505050505092915050565b6132e5613d3c565b73ffffffffffffffffffffffffffffffffffffffff1661330361297d565b73ffffffffffffffffffffffffffffffffffffffff1614613359576040517f08c379a000000000000000000000000000000000000000000000000000000000815260040161335090614ee0565b60405180910390fd5b8073ffffffffffffffffffffffffffffffffffffffff16600860009054906101000a900473ffffffffffffffffffffffffffffffffffffffff1673ffffffffffffffffffffffffffffffffffffffff1614156133ea576040517f08c379a00000000000000000000000000000000000000000000000000000000081526004016133e190614f00565b60405180910390fd5b80600860006101000a81548173ffffffffffffffffffffffffffffffffffffffff021916908373ffffffffffffffffffffffffffffffffffffffff16021790555050565b6001818154811061343e57600080fd5b906000526020600020016000915054906101000a900473ffffffffffffffffffffffffffffffffffffffff1681565b600260035414156134b3576040517f08c379a00000000000000000000000000000000000000000000000000000000081526004016134aa90615020565b60405180910390fd5b6002600381905550816015805490508110613503576040517f08c379a00000000000000000000000000000000000000000000000000000000081526004016134fa90614f80565b60405180910390fd5b6000831415613547576040517f08c379a000000000000000000000000000000000000000000000000000000000815260040161353e90614ec0565b60405180910390fd5b600060158481548110613583577f4e487b7100000000000000000000000000000000000000000000000000000000600052603260045260246000fd5b9060005260206000209060040201905060006016600086815260200190815260200160002060003373ffffffffffffffffffffffffffffffffffffffff1673ffffffffffffffffffffffffffffffffffffffff16815260200190815260200160002090506135f085611c3c565b60008160000154111561364a576000816001015464e8d4a510008460030154846000015461361e91906151b8565b6136289190615187565b6136329190615212565b90506000811115613648576136473382613ca9565b5b505b6000841115613720578160000160009054906101000a900473ffffffffffffffffffffffffffffffffffffffff1673ffffffffffffffffffffffffffffffffffffffff166323b872dd3330876040518463ffffffff1660e01b81526004016136b493929190614cb4565b602060405180830381600087803b1580156136ce57600080fd5b505af11580156136e2573d6000803e3d6000fd5b505050506040513d601f19601f8201168201806040525081019061370691906143dc565b5083816000015461371791906150fa565b81600001819055505b64e8d4a510008260030154826000015461373a91906151b8565b6137449190615187565b8160010181905550843373ffffffffffffffffffffffffffffffffffffffff167f90890809c654f11d6e72a28fa60149770a0d11ec6c92319d6ceb2bb0a4ea1a15866040516137939190615060565b60405180910390a350505060016003819055505050565b600c5481565b60006137ba613d3c565b9050600260008273ffffffffffffffffffffffffffffffffffffffff1673ffffffffffffffffffffffffffffffffffffffff16815260200190815260200160002060009054906101000a900460ff16613848576040517f08c379a000000000000000000000000000000000000000000000000000000000815260040161383f90614fa0565b60405180910390fd5b601460009054906101000a900460ff16613897576040517f08c379a000000000000000000000000000000000000000000000000000000000815260040161388e90614f40565b60405180910390fd5b81600e81905550600e54600d60008282546138b29190615212565b925050819055506138c7600e54600d546141c6565b7fb298bc23e07860d501fddce288f46d761aa04a0c7c3316099eb50f097aacf304600e54600d546040516138fc92919061507b565b60405180910390a15050565b613910613d3c565b73ffffffffffffffffffffffffffffffffffffffff1661392e61297d565b73ffffffffffffffffffffffffffffffffffffffff1614613984576040517f08c379a000000000000000000000000000000000000000000000000000000000815260040161397b90614ee0565b60405180910390fd5b600073ffffffffffffffffffffffffffffffffffffffff168173ffffffffffffffffffffffffffffffffffffffff1614156139f4576040517f08c379a00000000000000000000000000000000000000000000000000000000081526004016139eb90614de0565b60405180910390fd5b6139fd81614102565b50565b6000613a0a613d3c565b9050600260008273ffffffffffffffffffffffffffffffffffffffff1673ffffffffffffffffffffffffffffffffffffffff16815260200190815260200160002060009054906101000a900460ff16613a98576040517f08c379a0000000000000000000000000000000000000000000000000000000008152600401613a8f90614fa0565b60405180910390fd5b601460009054906101000a900460ff16613ae7576040517f08c379a0000000000000000000000000000000000000000000000000000000008152600401613ade90614f40565b60405180910390fd5b81600e81905550600e54600d6000828254613b0291906150fa565b92505081905550613b17600e54600d546141c6565b7fb298bc23e07860d501fddce288f46d761aa04a0c7c3316099eb50f097aacf304600e54600d54604051613b4c92919061507b565b60405180910390a15050565b613b60613d3c565b73ffffffffffffffffffffffffffffffffffffffff16613b7e61297d565b73ffffffffffffffffffffffffffffffffffffffff1614613bd4576040517f08c379a0000000000000000000000000000000000000000000000000000000008152600401613bcb90614ee0565b60405180910390fd5b8073ffffffffffffffffffffffffffffffffffffffff16600760009054906101000a900473ffffffffffffffffffffffffffffffffffffffff1673ffffffffffffffffffffffffffffffffffffffff161415613c65576040517f08c379a0000000000000000000000000000000000000000000000000000000008152600401613c5c90614f00565b60405180910390fd5b80600760006101000a81548173ffffffffffffffffffffffffffffffffffffffff021916908373ffffffffffffffffffffffffffffffffffffffff16021790555050565b600760009054906101000a900473ffffffffffffffffffffffffffffffffffffffff1673ffffffffffffffffffffffffffffffffffffffff1663b2a142aa83836040518363ffffffff1660e01b8152600401613d06929190614ceb565b600060405180830381600087803b158015613d2057600080fd5b505af1158015613d34573d6000803e3d6000fd5b505050505050565b600033905090565b6000601580549050905060005b81811015613e44578273ffffffffffffffffffffffffffffffffffffffff1660158281548110613daa577f4e487b7100000000000000000000000000000000000000000000000000000000600052603260045260246000fd5b906000526020600020906004020160000160009054906101000a900473ffffffffffffffffffffffffffffffffffffffff1673ffffffffffffffffffffffffffffffffffffffff161415613e33576040517f08c379a0000000000000000000000000000000000000000000000000000000008152600401613e2a90614f20565b60405180910390fd5b80613e3d90615373565b9050613d51565b505050565b8015613e5857613e57612131565b5b60006012544211613e6b57601254613e6d565b425b905083601354613e7d91906150fa565b601381905550601560405180608001604052808573ffffffffffffffffffffffffffffffffffffffff1681526020018681526020018381526020016000815250908060018154018082558091505060019003906000526020600020906004020160009091909190915060008201518160000160006101000a81548173ffffffffffffffffffffffffffffffffffffffff021916908373ffffffffffffffffffffffffffffffffffffffff1602179055506020820151816001015560408201518160020155606082015181600301555050613f55613fa5565b600060158054905090507f20b669aa921947a6d9602a921d2db3b6b30f21b9aca98580fa3972530330b27a818686601354604051613f9694939291906150a4565b60405180910390a15050505050565b60006015805490509050600080600190505b828110156140295760158181548110613ff9577f4e487b7100000000000000000000000000000000000000000000000000000000600052603260045260246000fd5b9060005260206000209060040201600101548261401691906150fa565b91508061402290615373565b9050613fb7565b50600081146140fe5760038161403f9190615187565b905080601560008154811061407d577f4e487b7100000000000000000000000000000000000000000000000000000000600052603260045260246000fd5b90600052602060002090600402016001015460135461409c9190615212565b6140a691906150fa565b6013819055508060156000815481106140e8577f4e487b7100000000000000000000000000000000000000000000000000000000600052603260045260246000fd5b9060005260206000209060040201600101819055505b5050565b60008060009054906101000a900473ffffffffffffffffffffffffffffffffffffffff169050816000806101000a81548173ffffffffffffffffffffffffffffffffffffffff021916908373ffffffffffffffffffffffffffffffffffffffff1602179055508173ffffffffffffffffffffffffffffffffffffffff168173ffffffffffffffffffffffffffffffffffffffff167f8be0079c531659141344cd1fd0a4f28419497f9722a3daafe3b4186f6b6457e060405160405180910390a35050565b600081836141d49190615187565b9050600c546934f086f3b33b68400000826141ef91906151b8565b6141f99190615187565b600f8190555062015180600f546142109190615187565b6010819055507fcd7c861d63893659123f817b192b8621ff1923a7c4589c260173cedcf9e986a6600f5460105460405161424b92919061507b565b60405180910390a1505050565b60008135905061426781615444565b92915050565b60008135905061427c8161545b565b92915050565b6000815190506142918161545b565b92915050565b6000813590506142a681615472565b92915050565b6000815190506142bb81615472565b92915050565b6000813590506142d081615489565b92915050565b6000813590506142e5816154a0565b92915050565b6000813590506142fa816154b7565b92915050565b60008135905061430f816154ce565b92915050565b600081519050614324816154ce565b92915050565b60006020828403121561433c57600080fd5b600061434a84828501614258565b91505092915050565b60008060008060008060c0878903121561436c57600080fd5b600061437a89828a01614258565b965050602061438b89828a01614258565b955050604061439c89828a01614300565b94505060606143ad89828a01614300565b93505060806143be89828a01614300565b92505060a06143cf89828a01614300565b9150509295509295509295565b6000602082840312156143ee57600080fd5b60006143fc84828501614282565b91505092915050565b60006020828403121561441757600080fd5b6000614425848285016142ac565b91505092915050565b60006020828403121561444057600080fd5b600061444e848285016142c1565b91505092915050565b60006020828403121561446957600080fd5b6000614477848285016142d6565b91505092915050565b60006020828403121561449257600080fd5b60006144a0848285016142eb565b91505092915050565b6000602082840312156144bb57600080fd5b60006144c984828501614300565b91505092915050565b6000602082840312156144e457600080fd5b60006144f284828501614315565b91505092915050565b6000806040838503121561450e57600080fd5b600061451c85828601614300565b925050602061452d85828601614258565b9150509250929050565b60008060006060848603121561454c57600080fd5b600061455a86828701614300565b935050602061456b86828701614297565b925050604061457c8682870161426d565b9150509250925092565b6000806040838503121561459957600080fd5b60006145a785828601614300565b92505060206145b885828601614300565b9150509250929050565b6000806000606084860312156145d757600080fd5b60006145e586828701614300565b93505060206145f686828701614300565b92505060406146078682870161426d565b9150509250925092565b61461a81615246565b82525050565b61462981615258565b82525050565b614638816152e3565b82525050565b61464781615307565b82525050565b6146568161532b565b82525050565b6146658161534f565b82525050565b60006146786026836150e9565b91507f4f776e61626c653a206e6577206f776e657220697320746865207a65726f206160008301527f64647265737300000000000000000000000000000000000000000000000000006020830152604082019050919050565b60006146de602a836150e9565b91507f4f70657261626c653a206e6577206f70657261746f7220697320746865207a6560008301527f726f2061646472657373000000000000000000000000000000000000000000006020830152604082019050919050565b6000614744601b836150e9565b91507f636f6e7472616374206973206e6f7420696e697469616c697a656400000000006000830152602082019050919050565b60006147846013836150e9565b91507f616c726561647920696e697469616c697a6564000000000000000000000000006000830152602082019050919050565b60006147c46024836150e9565b91507f4f70657261626c653a2061646472657373206973206e6f7420616e206f70657260008301527f61746f72000000000000000000000000000000000000000000000000000000006020830152604082019050919050565b600061482a600f836150e9565b91507f6e6f206d69677261746f722073657400000000000000000000000000000000006000830152602082019050919050565b600061486a601a836150e9565b91507f776974686472617720534f554c20627920756e7374616b696e670000000000006000830152602082019050919050565b60006148aa6017836150e9565b91507f6465706f73697420534f554c206279207374616b696e670000000000000000006000830152602082019050919050565b60006148ea6020836150e9565b91507f4f776e61626c653a2063616c6c6572206973206e6f7420746865206f776e65726000830152602082019050919050565b600061492a6015836150e9565b91507f6d7573742062652061206e6577206164647265737300000000000000000000006000830152602082019050919050565b600061496a6012836150e9565b91507f6164643a206578697374696e6720706f6f6c00000000000000000000000000006000830152602082019050919050565b60006149aa600b836150e9565b91507f6e6f7420736f20736f6f6e0000000000000000000000000000000000000000006000830152602082019050919050565b60006149ea6028836150e9565b91507f4f70657261626c653a206164647265737320697320616c726561647920616e2060008301527f6f70657261746f720000000000000000000000000000000000000000000000006020830152604082019050919050565b6000614a506013836150e9565b91507f706f6f6c20646f6573206e6f74206578697374000000000000000000000000006000830152602082019050919050565b6000614a906023836150e9565b91507f4f70657261746f723a2063616c6c6572206973206e6f7420616e206f7065726160008301527f746f7200000000000000000000000000000000000000000000000000000000006020830152604082019050919050565b6000614af66019836150e9565b91507f6661726d696e6720686173206e6f742079657420626567756e000000000000006000830152602082019050919050565b6000614b366012836150e9565b91507f77697468647261773a206e6f7420676f6f6400000000000000000000000000006000830152602082019050919050565b6000614b766011836150e9565b91507f7769746864726177206e6f7420676f6f640000000000000000000000000000006000830152602082019050919050565b6000614bb6601f836150e9565b91507f5265656e7472616e637947756172643a207265656e7472616e742063616c6c006000830152602082019050919050565b6000614bf6601d836150e9565b91507f6d6967726174653a20696e73756666696369656e742062616c616e63650000006000830152602082019050919050565b614c32816152cc565b82525050565b6000602082019050614c4d6000830184614611565b92915050565b600060c082019050614c686000830189614611565b614c756020830188614611565b614c826040830187614611565b614c8f6060830186614611565b614c9c6080830185614c29565b614ca960a0830184614c29565b979650505050505050565b6000606082019050614cc96000830186614611565b614cd66020830185614611565b614ce36040830184614c29565b949350505050565b6000604082019050614d006000830185614611565b614d0d6020830184614c29565b9392505050565b6000602082019050614d296000830184614620565b92915050565b6000602082019050614d44600083018461462f565b92915050565b6000608082019050614d5f600083018761462f565b614d6c6020830186614c29565b614d796040830185614c29565b614d866060830184614c29565b95945050505050565b6000602082019050614da4600083018461463e565b92915050565b6000602082019050614dbf600083018461464d565b92915050565b6000602082019050614dda600083018461465c565b92915050565b60006020820190508181036000830152614df98161466b565b9050919050565b60006020820190508181036000830152614e19816146d1565b9050919050565b60006020820190508181036000830152614e3981614737565b9050919050565b60006020820190508181036000830152614e5981614777565b9050919050565b60006020820190508181036000830152614e79816147b7565b9050919050565b60006020820190508181036000830152614e998161481d565b9050919050565b60006020820190508181036000830152614eb98161485d565b9050919050565b60006020820190508181036000830152614ed98161489d565b9050919050565b60006020820190508181036000830152614ef9816148dd565b9050919050565b60006020820190508181036000830152614f198161491d565b9050919050565b60006020820190508181036000830152614f398161495d565b9050919050565b60006020820190508181036000830152614f598161499d565b9050919050565b60006020820190508181036000830152614f79816149dd565b9050919050565b60006020820190508181036000830152614f9981614a43565b9050919050565b60006020820190508181036000830152614fb981614a83565b9050919050565b60006020820190508181036000830152614fd981614ae9565b9050919050565b60006020820190508181036000830152614ff981614b29565b9050919050565b6000602082019050818103600083015261501981614b69565b9050919050565b6000602082019050818103600083015261503981614ba9565b9050919050565b6000602082019050818103600083015261505981614be9565b9050919050565b60006020820190506150756000830184614c29565b92915050565b60006040820190506150906000830185614c29565b61509d6020830184614c29565b9392505050565b60006080820190506150b96000830187614c29565b6150c66020830186614c29565b6150d3604083018561462f565b6150e06060830184614c29565b95945050505050565b600082825260208201905092915050565b6000615105826152cc565b9150615110836152cc565b9250827fffffffffffffffffffffffffffffffffffffffffffffffffffffffffffffffff03821115615145576151446153e6565b5b828201905092915050565b600061515b826152d6565b9150615166836152d6565b92508260ff0382111561517c5761517b6153e6565b5b828201905092915050565b6000615192826152cc565b915061519d836152cc565b9250826151ad576151ac615415565b5b828204905092915050565b60006151c3826152cc565b91506151ce836152cc565b9250817fffffffffffffffffffffffffffffffffffffffffffffffffffffffffffffffff0483118215151615615207576152066153e6565b5b828202905092915050565b600061521d826152cc565b9150615228836152cc565b92508282101561523b5761523a6153e6565b5b828203905092915050565b6000615251826152ac565b9050919050565b60008115159050919050565b600061526f82615246565b9050919050565b600061528182615246565b9050919050565b600061529382615246565b9050919050565b60006152a582615246565b9050919050565b600073ffffffffffffffffffffffffffffffffffffffff82169050919050565b6000819050919050565b600060ff82169050919050565b60006152ee826152f5565b9050919050565b6000615300826152ac565b9050919050565b600061531282615319565b9050919050565b6000615324826152ac565b9050919050565b60006153368261533d565b9050919050565b6000615348826152ac565b9050919050565b600061535a82615361565b9050919050565b600061536c826152ac565b9050919050565b600061537e826152cc565b91507fffffffffffffffffffffffffffffffffffffffffffffffffffffffffffffffff8214156153b1576153b06153e6565b5b600182019050919050565b60006153c7826152d6565b915060ff8214156153db576153da6153e6565b5b600182019050919050565b7f4e487b7100000000000000000000000000000000000000000000000000000000600052601160045260246000fd5b7f4e487b7100000000000000000000000000000000000000000000000000000000600052601260045260246000fd5b61544d81615246565b811461545857600080fd5b50565b61546481615258565b811461546f57600080fd5b50565b61547b81615264565b811461548657600080fd5b50565b61549281615276565b811461549d57600080fd5b50565b6154a981615288565b81146154b457600080fd5b50565b6154c08161529a565b81146154cb57600080fd5b50565b6154d7816152cc565b81146154e257600080fd5b5056fea2646970667358221220b3de9e3ca1c1da0d05200d1f367cb5e72fa2e5aeee93cb0d1f0ad50d3d94034e64736f6c63430008000033",
  "immutableReferences": {},
  "source": "// SPDX-License-Identifier: MIT\n\npragma solidity ^0.8.0;\n\nimport \"@openzeppelin/contracts/security/ReentrancyGuard.sol\";\nimport './SoulPower.sol';\nimport './SeanceCircle.sol';\nimport './libs/IMigrator.sol';\n\n// the summoner of souls | ownership transferred to a governance smart contract \n// upon sufficient distribution + the community's desire to self-govern.\n\ncontract SoulSummoner is Operable, ReentrancyGuard {\n\n    // Info of each user.\n    struct Users {\n        uint amount;     // ttl lp tokens user has provided\n        uint rewardDebt; // reward debt (see below)\n        //\n        // we do some fancy math here. basically, any point in time, the amount of SOUL\n        // entitled to a user but is pending to be distributed is:\n        //\n        //   pending reward = (user.amount * pool.accSoulPerShare) - user.rewardDebt\n        //\n        // the following occurs when anyone deposits or withdraws lp tokens to a pool:\n        //   1. pool: `accSoulPerShare` and `lastRewardTime` get updated.\n        //   2. user: receives pending reward.\n        //   3. user: `amount` updates(+/-).\n        //   4. user: `rewardDebt` updates (+/-).\n    }\n\n    // info of each pool.\n    struct Pools {\n        IERC20 lpToken;       // lp token ierc20 contract.\n        uint allocPoint;      // allocation points assigned to this pool | SOULs to distribute per second.\n        uint lastRewardTime;  // most recent UNIX timestamp during which SOULs distribution occurred in the pool.\n        uint accSoulPerShare; // accumulated SOULs per share, times 1e12.\n    }\n\n    // SOUL POWER!\n    address private soulAddress;\n    SoulPower public soul;\n    \n    // SEANCE TOKEN!\n    address private seanceAddress;\n    SeanceCircle public seance;\n\n    address public team; // receives 1/8 soul supply\n    address public dao; // recieves 1/8 soul supply\n\n    // migrator contract | has a lot of power.\n    IMigrator public migrator;\n\n    // ** GLOBAL VARIABLES ** //\n    uint public chainId;\n    uint public totalChains;\n    uint public totalWeight;\n    uint public weight;\n\n    // SOUL per DAY\n    uint public dailySoul = 250000 * 1e18;\n\n    // SOUL power per second.\n    uint public soulPerSecond = dailySoul / 86400;\n\n    // bonus muliplier for early soul summoners.\n    uint public bonusMultiplier = 1;\n\n    // UNIX timestamp when SOUL mining starts.\n    uint public startTime;\n\n    // ttl allocation points | must be the sum of all allocation points.\n    uint public totalAllocPoint;\n\n    // summoner initialized state.\n    bool public isInitialized;\n\n    Pools[] public poolInfo; // pool info\n    mapping (uint => mapping (address => Users)) public userInfo; // staker data\n\n    event Deposit(address indexed user, uint indexed pid, uint amount);\n    event Withdraw(address indexed user, uint indexed pid, uint amount);\n\n    event Initialized(address team, address dev, address soul, address seance, uint chainId, uint power);\n\n    event PoolAdded(uint pid, uint allocPoint, IERC20 lpToken, uint totalAllocPoint);\n    event PoolSet(uint pid, uint allocPoint);\n\n    event WeightUpdated(uint weight, uint totalWeight);\n    event RewardsUpdated(uint dailySoul, uint soulPerSecond);\n\n    modifier validatePoolByPid(uint256 _pid) {\n        require(_pid < poolInfo.length, \"pool does not exist\");\n        _;\n    }\n\n    // VALIDATION -- ELIMINATES POOL DUPLICATION RISK -- NONE\n    function checkPoolDuplicate(IERC20 _token\n    ) internal view {\n        uint256 length = poolInfo.length;\n        for (uint256 pid = 0; pid < length; ++pid) {\n            require(poolInfo[pid].lpToken != _token, \"add: existing pool\");\n        }\n    }\n\n    function initialize(\n        address _soulAddress, \n        address _seanceAddress, \n        uint _chainId,\n        uint _totalChains,\n        uint _totalWeight,\n        uint _weight) external onlyOwner {\n        require(!isInitialized, 'already initialized');\n        soulAddress = _soulAddress;\n        seanceAddress = _seanceAddress;\n        dao = msg.sender;\n        team = msg.sender;\n\n        startTime = block.timestamp;\n\n        chainId = _chainId;\n        totalChains = _totalChains;\n        totalWeight = _totalWeight + _weight;\n        weight = _weight;\n\n        soul  = SoulPower(soulAddress);\n        seance = SeanceCircle(seanceAddress);\n\n\n        // staking pool\n        poolInfo.push(Pools({\n            lpToken: soul,\n            allocPoint: 1000,\n            lastRewardTime: startTime,\n            accSoulPerShare: 0\n        }));\n\n        isInitialized = true;\n\n        totalAllocPoint = 1000;\n        totalChains ++;\n\n        emit Initialized(team, dao, soulAddress, seanceAddress, chainId, weight);\n    }\n\n    function updateMultiplier(uint _bonusMultiplier) external onlyOperator {\n        bonusMultiplier = _bonusMultiplier;\n    }\n\n    function updateRewards(uint _power, uint _totalPower) internal {\n        uint factor = _power / _totalPower;\n\n        dailySoul = factor * (250000 * 1e18) / totalChains;\n        soulPerSecond = dailySoul / 1 days;\n\n        emit RewardsUpdated(dailySoul, soulPerSecond);\n    }\n\n    function poolLength() external view returns (uint) {\n        return poolInfo.length;\n    }\n\n    // ADD -- NEW LP POOL -- OPERATOR\n    function add(uint256 _allocPoint, IERC20 _lpToken, bool _withUpdate) public onlyOperator {\n        require(isInitialized, 'contract is not initialized');\n        checkPoolDuplicate(_lpToken);\n        addPool(_allocPoint, _lpToken, _withUpdate);\n    }\n\n    // ADD -- NEW LP POOL -- INTERNAL\n    function addPool(uint256 _allocPoint, IERC20 _lpToken, bool _withUpdate) internal {\n        if (_withUpdate) { massUpdatePools(); }\n        uint256 lastRewardTime = block.timestamp > startTime ? block.timestamp : startTime;\n        totalAllocPoint = totalAllocPoint + _allocPoint;\n        poolInfo.push(\n            Pools({\n                lpToken: _lpToken,\n                allocPoint: _allocPoint,\n                lastRewardTime: lastRewardTime,\n                accSoulPerShare: 0\n            })\n        );\n        \n        updateStakingPool();\n        uint _pid = poolInfo.length;\n\n        emit PoolAdded(_pid, _allocPoint, _lpToken, totalAllocPoint);\n    }\n\n    // set the allocation points (operator)\n    function set(uint _pid, uint _allocPoint, bool _withUpdate) external onlyOperator validatePoolByPid(_pid) {\n        require(isInitialized, 'farming has not yet begun');\n        if (_withUpdate) { massUpdatePools(); }\n        uint prevAllocPoint = poolInfo[_pid].allocPoint;\n        poolInfo[_pid].allocPoint = _allocPoint;\n        if (prevAllocPoint != _allocPoint) {\n            totalAllocPoint = totalAllocPoint - prevAllocPoint + _allocPoint;\n            updateStakingPool();\n       }\n\n       emit PoolSet(_pid, _allocPoint);\n    }\n\n    // increase weight (operator)\n    function gainWeight(uint _weight) external onlyOperator {\n        require(isInitialized, 'not so soon');\n        weight = _weight;\n        totalWeight += weight;\n\n        updateRewards(weight, totalWeight);\n        emit WeightUpdated(weight, totalWeight);\n    }\n\n    // decrease weight (operator)\n    function loseWeight(uint _weight) external onlyOperator {\n        require(isInitialized, 'not so soon');\n        weight = _weight;\n        totalWeight -= weight;\n\n        updateRewards(weight, totalWeight);\n        emit WeightUpdated(weight, totalWeight);\n    }\n\n    // updates staking pool (internal)\n    function updateStakingPool() internal {\n        uint length = poolInfo.length;\n        uint points = 0;\n        for (uint pid = 1; pid < length; ++pid) {\n            points = points + poolInfo[pid].allocPoint;\n        }\n        if (points != 0) {\n            points = points / 3;\n            totalAllocPoint = totalAllocPoint - poolInfo[0].allocPoint + points;\n            poolInfo[0].allocPoint = points;\n        }\n    }\n\n    // sets migrator contract (owner)\n    function setMigrator(IMigrator _migrator) external onlyOwner {\n        require(isInitialized, 'not so soon');\n        migrator = _migrator;\n    }\n\n    // migrates lp tokens to another contract (migrator)\n    function migrate(uint _pid) external validatePoolByPid(_pid) {\n        require(isInitialized, 'not so soon');\n        require(address(migrator) != address(0), 'no migrator set');\n        Pools storage pool = poolInfo[_pid];\n        IERC20 lpToken = pool.lpToken;\n        uint bal = lpToken.balanceOf(address(this));\n        lpToken.approve(address(migrator), bal);\n        IERC20 _lpToken = migrator.migrate(lpToken);\n        require(bal == _lpToken.balanceOf(address(this)), \"migrate: insufficient balance\");\n        pool.lpToken = _lpToken;\n    }\n\n    function getMultiplier(uint _from, uint _to) public view returns (uint) {\n        return (_to - _from) * bonusMultiplier; // todo: minus parens\n    }\n\n    // external view for pendingSoul\n    function pendingSoul(uint _pid, address _user) external view returns (uint) {\n        Pools storage pool = poolInfo[_pid];\n        Users storage user = userInfo[_pid][_user];\n        uint accSoulPerShare = pool.accSoulPerShare;\n        uint lpSupply = pool.lpToken.balanceOf(address(this));\n        if (block.timestamp > pool.lastRewardTime && lpSupply != 0) {\n            uint multiplier = getMultiplier(pool.lastRewardTime, block.timestamp);\n            uint soulReward = multiplier * soulPerSecond * pool.allocPoint / totalAllocPoint;\n            accSoulPerShare = accSoulPerShare + soulReward * 1e12 / lpSupply;\n        }\n\n        return user.amount * accSoulPerShare / 1e12 - user.rewardDebt;\n    }\n\n    // UPDATE -- REWARD VARIABLES FOR ALL POOLS (HIGH GAS) -- PUBLIC\n    function massUpdatePools() public {\n        uint length = poolInfo.length;\n        for (uint pid = 0; pid < length; ++pid) {\n            updatePool(pid);\n        }\n    }\n\n    // UPDATE -- REWARD VARIABLES (POOL) -- PUBLIC\n    function updatePool(uint _pid) public validatePoolByPid(_pid) {\n        Pools storage pool = poolInfo[_pid];\n        if (block.timestamp <= pool.lastRewardTime) {\n            return;\n        }\n        uint lpSupply = pool.lpToken.balanceOf(address(this));\n        if (lpSupply == 0) {\n            pool.lastRewardTime = block.timestamp;\n            return;\n        }\n        uint multiplier = getMultiplier(pool.lastRewardTime, block.timestamp);\n        uint soulReward = \n            multiplier * soulPerSecond * pool.allocPoint / totalAllocPoint;\n        \n        uint divi = soulReward * 1e12 / 8e12; // 1/8th rewards\n        uint divis = divi * 2; // total divis\n        uint shares = soulReward - divis; // net shares\n        \n        soul.mint(team, divi);\n        soul.mint(dao, divi);\n        \n        soul.mint(address(seance), shares);\n\n        pool.accSoulPerShare = pool.accSoulPerShare + soulReward * shares / lpSupply;\n\n        pool.lastRewardTime = block.timestamp;\n    }\n\n    // DEPOSIT -- LP TOKENS -- LP OWNERS\n    function deposit(uint _pid, uint _amount) external nonReentrant validatePoolByPid(_pid) {\n\n        require (_pid != 0, 'deposit SOUL by staking');\n\n        Pools storage pool = poolInfo[_pid];\n        Users storage user = userInfo[_pid][msg.sender];\n        updatePool(_pid);\n        if (user.amount > 0) { // already deposited assets\n            uint pending = (user.amount * pool.accSoulPerShare) / 1e12 - user.rewardDebt;\n            if(pending > 0) { // sends pending rewards, if applicable\n                safeSoulTransfer(msg.sender, pending);\n            }\n        }\n\n        if (_amount > 0) { // if adding more\n            pool.lpToken.transferFrom(address(msg.sender), address(this), _amount);\n            user.amount = user.amount + _amount;\n        }\n        user.rewardDebt = user.amount * pool.accSoulPerShare / 1e12;\n        emit Deposit(msg.sender, _pid, _amount);\n    }\n\n    // WITHDRAW -- LP TOKENS -- STAKERS\n    function withdraw(uint _pid, uint _amount) external nonReentrant validatePoolByPid(_pid) {\n\n        require (_pid != 0, 'withdraw SOUL by unstaking');\n        Pools storage pool = poolInfo[_pid];\n        Users storage user = userInfo[_pid][msg.sender];\n        require(user.amount >= _amount, 'withdraw not good');\n\n        updatePool(_pid);\n        uint pending = user.amount * pool.accSoulPerShare / 1e12 - user.rewardDebt;\n        if(pending > 0) {\n            safeSoulTransfer(msg.sender, pending);\n        }\n        if(_amount > 0) {\n            user.amount = user.amount - _amount;\n            pool.lpToken.transfer(address(msg.sender), _amount);\n        }\n        user.rewardDebt = user.amount * pool.accSoulPerShare / 1e12;\n        emit Withdraw(msg.sender, _pid, _amount);\n    }\n\n\n    // STAKE -- SOUL TO SOUL SUMMONER -- PUBLIC SOUL HOLDERS\n    function enterStaking(uint _amount) external nonReentrant {\n        Pools storage pool = poolInfo[0];\n        Users storage user = userInfo[0][msg.sender];\n        updatePool(0);\n        if (user.amount > 0) {\n            uint pending = user.amount * pool.accSoulPerShare / 1e12 - user.rewardDebt;\n            if(pending > 0) {\n                safeSoulTransfer(msg.sender, pending);\n            }\n        }\n        if(_amount > 0) {\n            pool.lpToken.transferFrom(address(msg.sender), address(this), _amount);\n            user.amount = user.amount + _amount;\n        }\n        user.rewardDebt = user.amount * pool.accSoulPerShare / 1e12;\n\n        seance.mint(msg.sender, _amount);\n        emit Deposit(msg.sender, 0, _amount);\n    }\n\n    // WITHDRAW -- SOUL powers from STAKING.\n    function leaveStaking(uint _amount) external nonReentrant {\n        Pools storage pool = poolInfo[0];\n        Users storage user = userInfo[0][msg.sender];\n        require(user.amount >= _amount, \"withdraw: not good\");\n        updatePool(0);\n        uint pending = user.amount * pool.accSoulPerShare / 1e12 - user.rewardDebt;\n        if(pending > 0) {\n            safeSoulTransfer(msg.sender, pending);\n        }\n        if(_amount > 0) {\n            user.amount = user.amount - _amount;\n            pool.lpToken.transfer(address(msg.sender), _amount);\n        }\n        user.rewardDebt = user.amount * pool.accSoulPerShare / 1e12;\n\n        seance.burn(msg.sender, _amount);\n        emit Withdraw(msg.sender, 0, _amount);\n    }\n    \n    // TRANSFER -- TRANSFERS SEANCE -- INTERNAL\n    function safeSoulTransfer(address _to, uint _amount) internal {\n        seance.safeSoulTransfer(_to, _amount);\n    }\n\n\n    // UPDATE -- DAO ADDRESS -- OWNER\n    function newDAO(address _dao) external onlyOwner {\n        require(dao != _dao, 'must be a new address');\n        dao = _dao;\n    }\n\n    // UPDATE -- TEAM ADDRESS -- OWNER\n    function newTeam(address _team) external onlyOwner {\n        require(team != _team, 'must be a new address');\n        team = _team;\n    }\n\n    // UPDATE -- SOUL ADDRESS -- OWNER\n    function newSoul(SoulPower _soul) external onlyOwner {\n        require(soul != _soul, 'must be a new address');\n        soul = _soul;\n    }\n\n    // UPDATE -- SEANCE ADDRESS -- OWNER\n    function newSeance(SeanceCircle _seance) external onlyOwner {\n        require(seance != _seance, 'must be a new address');\n        seance = _seance;\n    }\n\n}\n",
  "sourcePath": "/Users/unico/Documents/GitHub/SoulSwap/soulswap-farms/contracts/SoulSummoner.sol",
  "compiler": {
    "name": "solc",
    "version": "0.8.0+commit.c7dfd78e.Emscripten.clang"
  },
  "schemaVersion": "3.4.1",
  "updatedAt": "2021-07-26T00:00:03.635Z",
  "networkType": "ethereum",
  "devdoc": {
    "kind": "dev",
    "methods": {
      "addOperator(address)": {
        "details": "Adds address as operator of the contract. Can only be called by an operator."
      },
      "owner()": {
        "details": "Returns the address of the current owner."
      },
      "removeOperator(address)": {
        "details": "Leaves the contract without operator. It will not be possible to call `onlyOperator` functions anymore. Can only be called by an operator."
      },
      "renounceOwnership()": {
        "details": "Leaves the contract without owner. It will not be possible to call `onlyOwner` functions anymore. Can only be called by the current owner. NOTE: Renouncing ownership will leave the contract without an owner, thereby removing any functionality that is only available to the owner."
      },
      "transferOwnership(address)": {
        "details": "Transfers ownership of the contract to a new account (`newOwner`). Can only be called by the current owner."
      }
    },
    "version": 1
  },
  "userdoc": {
    "kind": "user",
    "methods": {},
    "version": 1
  }
}