{
  "contractName": "SoulSwapVoterProxy",
  "abi": [
    {
      "inputs": [],
      "stateMutability": "nonpayable",
      "type": "constructor"
    },
    {
      "inputs": [],
      "name": "votes",
      "outputs": [
        {
          "internalType": "address",
          "name": "",
          "type": "address"
        }
      ],
      "stateMutability": "view",
      "type": "function"
    },
    {
      "inputs": [],
      "name": "decimals",
      "outputs": [
        {
          "internalType": "uint8",
          "name": "",
          "type": "uint8"
        }
      ],
      "stateMutability": "pure",
      "type": "function"
    },
    {
      "inputs": [],
      "name": "name",
      "outputs": [
        {
          "internalType": "string",
          "name": "",
          "type": "string"
        }
      ],
      "stateMutability": "pure",
      "type": "function"
    },
    {
      "inputs": [],
      "name": "symbol",
      "outputs": [
        {
          "internalType": "string",
          "name": "",
          "type": "string"
        }
      ],
      "stateMutability": "pure",
      "type": "function"
    },
    {
      "inputs": [],
      "name": "totalSupply",
      "outputs": [
        {
          "internalType": "uint256",
          "name": "",
          "type": "uint256"
        }
      ],
      "stateMutability": "view",
      "type": "function"
    },
    {
      "inputs": [
        {
          "internalType": "address",
          "name": "_voter",
          "type": "address"
        }
      ],
      "name": "balanceOf",
      "outputs": [
        {
          "internalType": "uint256",
          "name": "",
          "type": "uint256"
        }
      ],
      "stateMutability": "view",
      "type": "function"
    }
  ],
  "bytecode": "0x608060405234801561001057600080fd5b5061058f806100206000396000f3fe608060405234801561001057600080fd5b50600436106100625760003560e01c806306fdde031461006757806318160ddd14610085578063313ce567146100a357806370a08231146100c157806395d89b41146100f1578063e168c3ec1461010f575b600080fd5b61006f61012d565b60405161007c919061042a565b60405180910390f35b61008d61016a565b60405161009a919061044c565b60405180910390f35b6100ab610210565b6040516100b89190610467565b60405180910390f35b6100db60048036038101906100d69190610357565b610219565b6040516100e8919061044c565b60405180910390f35b6100f96102cc565b604051610106919061042a565b60405180910390f35b610117610309565b604051610124919061040f565b60405180910390f35b60606040518060400160405280600a81526020017f5345414e4345564f544500000000000000000000000000000000000000000000815250905090565b60008060009054906101000a900473ffffffffffffffffffffffffffffffffffffffff1673ffffffffffffffffffffffffffffffffffffffff166318160ddd6040518163ffffffff1660e01b815260040160206040518083038186803b1580156101d357600080fd5b505afa1580156101e7573d6000803e3d6000fd5b505050506040513d601f19601f8201168201806040525081019061020b9190610380565b905090565b60006012905090565b60008060009054906101000a900473ffffffffffffffffffffffffffffffffffffffff1673ffffffffffffffffffffffffffffffffffffffff166370a08231836040518263ffffffff1660e01b8152600401610275919061040f565b60206040518083038186803b15801561028d57600080fd5b505afa1580156102a1573d6000803e3d6000fd5b505050506040513d601f19601f820116820180604052508101906102c59190610380565b9050919050565b60606040518060400160405280600681526020017f5345414e43450000000000000000000000000000000000000000000000000000815250905090565b60008054906101000a900473ffffffffffffffffffffffffffffffffffffffff1681565b60008135905061033c8161052b565b92915050565b60008151905061035181610542565b92915050565b60006020828403121561036957600080fd5b60006103778482850161032d565b91505092915050565b60006020828403121561039257600080fd5b60006103a084828501610342565b91505092915050565b6103b28161049e565b82525050565b60006103c382610482565b6103cd818561048d565b93506103dd8185602086016104e7565b6103e68161051a565b840191505092915050565b6103fa816104d0565b82525050565b610409816104da565b82525050565b600060208201905061042460008301846103a9565b92915050565b6000602082019050818103600083015261044481846103b8565b905092915050565b600060208201905061046160008301846103f1565b92915050565b600060208201905061047c6000830184610400565b92915050565b600081519050919050565b600082825260208201905092915050565b60006104a9826104b0565b9050919050565b600073ffffffffffffffffffffffffffffffffffffffff82169050919050565b6000819050919050565b600060ff82169050919050565b60005b838110156105055780820151818401526020810190506104ea565b83811115610514576000848401525b50505050565b6000601f19601f8301169050919050565b6105348161049e565b811461053f57600080fd5b50565b61054b816104d0565b811461055657600080fd5b5056fea26469706673582212200a89c68fb090867ed865d97c03f84d1affa57eb0b59c1f34e62523a05809787b64736f6c63430008000033",
  "immutableReferences": {},
  "source": "// SPDX-License-Identifier: MIT\n\npragma solidity ^0.8.0;\n\nimport '@openzeppelin/contracts/token/ERC20/IERC20.sol';\n\ncontract SoulSwapVoterProxy {\n    // SEANCE\n    address public votes; // constant votes = 0x744342261860f01826922ea973ecfecd727a25e0;\n\n    function decimals() external pure returns (uint8) {\n        return uint8(18);\n    }\n\n    function name() external pure returns (string memory) {\n        return 'SEANCEVOTE';\n    }\n\n    function symbol() external pure returns (string memory) {\n        return 'SEANCE';\n    }\n\n    function totalSupply() external view returns (uint256) {\n        return IERC20(votes).totalSupply();\n    }\n\n    function balanceOf(address _voter) external view returns (uint256) {\n        return IERC20(votes).balanceOf(_voter);\n    }\n\n    constructor() {}\n}\n",
  "sourcePath": "/Users/buns/Documents/GitHub/SoulSwapFinance/soulswap-farms/contracts/libraries/SoulSwapVoterProxy.sol",
  "compiler": {
    "name": "solc",
    "version": "0.8.0+commit.c7dfd78e.Emscripten.clang"
  },
  "schemaVersion": "3.4.1",
  "updatedAt": "2022-09-18T14:11:59.321Z",
  "devdoc": {
    "kind": "dev",
    "methods": {},
    "version": 1
  },
  "userdoc": {
    "kind": "user",
    "methods": {},
    "version": 1
  }
}