{
  "contractName": "SoulSummonerFantomV2",
  "abi": [
    {
      "inputs": [],
      "stateMutability": "nonpayable",
      "type": "constructor"
    },
    {
      "anonymous": false,
      "inputs": [
        {
          "indexed": false,
          "internalType": "address",
          "name": "dao",
          "type": "address"
        },
        {
          "indexed": false,
          "internalType": "address",
          "name": "team",
          "type": "address"
        },
        {
          "indexed": false,
          "internalType": "address",
          "name": "admin",
          "type": "address"
        }
      ],
      "name": "AccountsUpdated",
      "type": "event"
    },
    {
      "anonymous": false,
      "inputs": [
        {
          "indexed": true,
          "internalType": "address",
          "name": "user",
          "type": "address"
        },
        {
          "indexed": true,
          "internalType": "uint256",
          "name": "pid",
          "type": "uint256"
        },
        {
          "indexed": false,
          "internalType": "uint256",
          "name": "amount",
          "type": "uint256"
        }
      ],
      "name": "Deposit",
      "type": "event"
    },
    {
      "anonymous": false,
      "inputs": [
        {
          "indexed": false,
          "internalType": "uint256",
          "name": "_pid",
          "type": "uint256"
        },
        {
          "indexed": false,
          "internalType": "address",
          "name": "_user",
          "type": "address"
        },
        {
          "indexed": false,
          "internalType": "uint256",
          "name": "_time",
          "type": "uint256"
        }
      ],
      "name": "DepositRevised",
      "type": "event"
    },
    {
      "anonymous": false,
      "inputs": [
        {
          "indexed": false,
          "internalType": "address",
          "name": "team",
          "type": "address"
        },
        {
          "indexed": false,
          "internalType": "address",
          "name": "dao",
          "type": "address"
        },
        {
          "indexed": false,
          "internalType": "address",
          "name": "soul",
          "type": "address"
        },
        {
          "indexed": false,
          "internalType": "address",
          "name": "seance",
          "type": "address"
        },
        {
          "indexed": false,
          "internalType": "uint256",
          "name": "totalAllocPoint",
          "type": "uint256"
        },
        {
          "indexed": false,
          "internalType": "uint256",
          "name": "weight",
          "type": "uint256"
        }
      ],
      "name": "Initialized",
      "type": "event"
    },
    {
      "anonymous": false,
      "inputs": [
        {
          "indexed": false,
          "internalType": "uint256",
          "name": "pid",
          "type": "uint256"
        },
        {
          "indexed": false,
          "internalType": "uint256",
          "name": "allocPoint",
          "type": "uint256"
        },
        {
          "indexed": false,
          "internalType": "contract IERC20",
          "name": "lpToken",
          "type": "address"
        },
        {
          "indexed": false,
          "internalType": "uint256",
          "name": "totalAllocPoint",
          "type": "uint256"
        }
      ],
      "name": "PoolAdded",
      "type": "event"
    },
    {
      "anonymous": false,
      "inputs": [
        {
          "indexed": false,
          "internalType": "uint256",
          "name": "pid",
          "type": "uint256"
        },
        {
          "indexed": false,
          "internalType": "uint256",
          "name": "allocPoint",
          "type": "uint256"
        }
      ],
      "name": "PoolSet",
      "type": "event"
    },
    {
      "anonymous": false,
      "inputs": [
        {
          "indexed": false,
          "internalType": "uint256",
          "name": "dailySoul",
          "type": "uint256"
        },
        {
          "indexed": false,
          "internalType": "uint256",
          "name": "soulPerSecond",
          "type": "uint256"
        }
      ],
      "name": "RewardsUpdated",
      "type": "event"
    },
    {
      "anonymous": false,
      "inputs": [
        {
          "indexed": true,
          "internalType": "bytes32",
          "name": "role",
          "type": "bytes32"
        },
        {
          "indexed": true,
          "internalType": "bytes32",
          "name": "previousAdminRole",
          "type": "bytes32"
        },
        {
          "indexed": true,
          "internalType": "bytes32",
          "name": "newAdminRole",
          "type": "bytes32"
        }
      ],
      "name": "RoleAdminChanged",
      "type": "event"
    },
    {
      "anonymous": false,
      "inputs": [
        {
          "indexed": false,
          "internalType": "bytes32",
          "name": "role",
          "type": "bytes32"
        },
        {
          "indexed": false,
          "internalType": "bytes32",
          "name": "supreme",
          "type": "bytes32"
        }
      ],
      "name": "RoleDivinated",
      "type": "event"
    },
    {
      "anonymous": false,
      "inputs": [
        {
          "indexed": true,
          "internalType": "bytes32",
          "name": "role",
          "type": "bytes32"
        },
        {
          "indexed": true,
          "internalType": "address",
          "name": "account",
          "type": "address"
        },
        {
          "indexed": true,
          "internalType": "address",
          "name": "sender",
          "type": "address"
        }
      ],
      "name": "RoleGranted",
      "type": "event"
    },
    {
      "anonymous": false,
      "inputs": [
        {
          "indexed": true,
          "internalType": "bytes32",
          "name": "role",
          "type": "bytes32"
        },
        {
          "indexed": true,
          "internalType": "address",
          "name": "account",
          "type": "address"
        },
        {
          "indexed": true,
          "internalType": "address",
          "name": "sender",
          "type": "address"
        }
      ],
      "name": "RoleRevoked",
      "type": "event"
    },
    {
      "anonymous": false,
      "inputs": [
        {
          "indexed": false,
          "internalType": "uint256",
          "name": "startRate",
          "type": "uint256"
        }
      ],
      "name": "StartRateUpdated",
      "type": "event"
    },
    {
      "anonymous": false,
      "inputs": [
        {
          "indexed": false,
          "internalType": "address",
          "name": "soul",
          "type": "address"
        },
        {
          "indexed": false,
          "internalType": "address",
          "name": "seance",
          "type": "address"
        }
      ],
      "name": "TokensUpdated",
      "type": "event"
    },
    {
      "anonymous": false,
      "inputs": [
        {
          "indexed": false,
          "internalType": "uint256",
          "name": "weight",
          "type": "uint256"
        },
        {
          "indexed": false,
          "internalType": "uint256",
          "name": "totalWeight",
          "type": "uint256"
        }
      ],
      "name": "WeightUpdated",
      "type": "event"
    },
    {
      "anonymous": false,
      "inputs": [
        {
          "indexed": true,
          "internalType": "address",
          "name": "user",
          "type": "address"
        },
        {
          "indexed": true,
          "internalType": "uint256",
          "name": "pid",
          "type": "uint256"
        },
        {
          "indexed": false,
          "internalType": "uint256",
          "name": "amount",
          "type": "uint256"
        },
        {
          "indexed": false,
          "internalType": "uint256",
          "name": "timeStamp",
          "type": "uint256"
        }
      ],
      "name": "Withdraw",
      "type": "event"
    },
    {
      "inputs": [],
      "name": "DEFAULT_ADMIN_ROLE",
      "outputs": [
        {
          "internalType": "bytes32",
          "name": "",
          "type": "bytes32"
        }
      ],
      "stateMutability": "view",
      "type": "function"
    },
    {
      "inputs": [],
      "name": "bonusMultiplier",
      "outputs": [
        {
          "internalType": "uint256",
          "name": "",
          "type": "uint256"
        }
      ],
      "stateMutability": "view",
      "type": "function"
    },
    {
      "inputs": [],
      "name": "dailyDecay",
      "outputs": [
        {
          "internalType": "uint256",
          "name": "",
          "type": "uint256"
        }
      ],
      "stateMutability": "view",
      "type": "function"
    },
    {
      "inputs": [],
      "name": "dailySoul",
      "outputs": [
        {
          "internalType": "uint256",
          "name": "",
          "type": "uint256"
        }
      ],
      "stateMutability": "view",
      "type": "function"
    },
    {
      "inputs": [],
      "name": "dao",
      "outputs": [
        {
          "internalType": "address",
          "name": "",
          "type": "address"
        }
      ],
      "stateMutability": "view",
      "type": "function"
    },
    {
      "inputs": [
        {
          "internalType": "bytes32",
          "name": "role",
          "type": "bytes32"
        }
      ],
      "name": "getRoleAdmin",
      "outputs": [
        {
          "internalType": "bytes32",
          "name": "",
          "type": "bytes32"
        }
      ],
      "stateMutability": "view",
      "type": "function"
    },
    {
      "inputs": [
        {
          "internalType": "bytes32",
          "name": "role",
          "type": "bytes32"
        },
        {
          "internalType": "address",
          "name": "account",
          "type": "address"
        }
      ],
      "name": "grantRole",
      "outputs": [],
      "stateMutability": "nonpayable",
      "type": "function"
    },
    {
      "inputs": [
        {
          "internalType": "bytes32",
          "name": "role",
          "type": "bytes32"
        },
        {
          "internalType": "address",
          "name": "account",
          "type": "address"
        }
      ],
      "name": "hasRole",
      "outputs": [
        {
          "internalType": "bool",
          "name": "",
          "type": "bool"
        }
      ],
      "stateMutability": "view",
      "type": "function"
    },
    {
      "inputs": [],
      "name": "isInitialized",
      "outputs": [
        {
          "internalType": "bool",
          "name": "",
          "type": "bool"
        }
      ],
      "stateMutability": "view",
      "type": "function"
    },
    {
      "inputs": [],
      "name": "isis",
      "outputs": [
        {
          "internalType": "bytes32",
          "name": "",
          "type": "bytes32"
        }
      ],
      "stateMutability": "view",
      "type": "function"
    },
    {
      "inputs": [],
      "name": "maat",
      "outputs": [
        {
          "internalType": "bytes32",
          "name": "",
          "type": "bytes32"
        }
      ],
      "stateMutability": "view",
      "type": "function"
    },
    {
      "inputs": [
        {
          "internalType": "uint256",
          "name": "",
          "type": "uint256"
        }
      ],
      "name": "poolInfo",
      "outputs": [
        {
          "internalType": "contract IERC20",
          "name": "lpToken",
          "type": "address"
        },
        {
          "internalType": "uint256",
          "name": "allocPoint",
          "type": "uint256"
        },
        {
          "internalType": "uint256",
          "name": "lastRewardTime",
          "type": "uint256"
        },
        {
          "internalType": "uint256",
          "name": "accSoulPerShare",
          "type": "uint256"
        }
      ],
      "stateMutability": "view",
      "type": "function"
    },
    {
      "inputs": [
        {
          "internalType": "bytes32",
          "name": "role",
          "type": "bytes32"
        },
        {
          "internalType": "address",
          "name": "account",
          "type": "address"
        }
      ],
      "name": "renounceRole",
      "outputs": [],
      "stateMutability": "nonpayable",
      "type": "function"
    },
    {
      "inputs": [
        {
          "internalType": "bytes32",
          "name": "role",
          "type": "bytes32"
        },
        {
          "internalType": "address",
          "name": "account",
          "type": "address"
        }
      ],
      "name": "revokeRole",
      "outputs": [],
      "stateMutability": "nonpayable",
      "type": "function"
    },
    {
      "inputs": [],
      "name": "seance",
      "outputs": [
        {
          "internalType": "contract SeanceCircle",
          "name": "",
          "type": "address"
        }
      ],
      "stateMutability": "view",
      "type": "function"
    },
    {
      "inputs": [],
      "name": "soul",
      "outputs": [
        {
          "internalType": "contract SoulPower",
          "name": "",
          "type": "address"
        }
      ],
      "stateMutability": "view",
      "type": "function"
    },
    {
      "inputs": [],
      "name": "soulPerSecond",
      "outputs": [
        {
          "internalType": "uint256",
          "name": "",
          "type": "uint256"
        }
      ],
      "stateMutability": "view",
      "type": "function"
    },
    {
      "inputs": [],
      "name": "startRate",
      "outputs": [
        {
          "internalType": "uint256",
          "name": "",
          "type": "uint256"
        }
      ],
      "stateMutability": "view",
      "type": "function"
    },
    {
      "inputs": [],
      "name": "startTime",
      "outputs": [
        {
          "internalType": "uint256",
          "name": "",
          "type": "uint256"
        }
      ],
      "stateMutability": "view",
      "type": "function"
    },
    {
      "inputs": [
        {
          "internalType": "bytes4",
          "name": "interfaceId",
          "type": "bytes4"
        }
      ],
      "name": "supportsInterface",
      "outputs": [
        {
          "internalType": "bool",
          "name": "",
          "type": "bool"
        }
      ],
      "stateMutability": "view",
      "type": "function"
    },
    {
      "inputs": [],
      "name": "supreme",
      "outputs": [
        {
          "internalType": "address",
          "name": "",
          "type": "address"
        }
      ],
      "stateMutability": "view",
      "type": "function"
    },
    {
      "inputs": [],
      "name": "team",
      "outputs": [
        {
          "internalType": "address",
          "name": "",
          "type": "address"
        }
      ],
      "stateMutability": "view",
      "type": "function"
    },
    {
      "inputs": [],
      "name": "totalAllocPoint",
      "outputs": [
        {
          "internalType": "uint256",
          "name": "",
          "type": "uint256"
        }
      ],
      "stateMutability": "view",
      "type": "function"
    },
    {
      "inputs": [],
      "name": "totalWeight",
      "outputs": [
        {
          "internalType": "uint256",
          "name": "",
          "type": "uint256"
        }
      ],
      "stateMutability": "view",
      "type": "function"
    },
    {
      "inputs": [
        {
          "internalType": "uint256",
          "name": "",
          "type": "uint256"
        },
        {
          "internalType": "address",
          "name": "",
          "type": "address"
        }
      ],
      "name": "userInfo",
      "outputs": [
        {
          "internalType": "uint256",
          "name": "amount",
          "type": "uint256"
        },
        {
          "internalType": "uint256",
          "name": "rewardDebt",
          "type": "uint256"
        },
        {
          "internalType": "uint256",
          "name": "rewardDebtAtTime",
          "type": "uint256"
        },
        {
          "internalType": "uint256",
          "name": "lastWithdrawTime",
          "type": "uint256"
        },
        {
          "internalType": "uint256",
          "name": "firstDepositTime",
          "type": "uint256"
        },
        {
          "internalType": "uint256",
          "name": "timeDelta",
          "type": "uint256"
        },
        {
          "internalType": "uint256",
          "name": "lastDepositTime",
          "type": "uint256"
        }
      ],
      "stateMutability": "view",
      "type": "function"
    },
    {
      "inputs": [],
      "name": "weight",
      "outputs": [
        {
          "internalType": "uint256",
          "name": "",
          "type": "uint256"
        }
      ],
      "stateMutability": "view",
      "type": "function"
    },
    {
      "inputs": [],
      "name": "initialize",
      "outputs": [],
      "stateMutability": "nonpayable",
      "type": "function"
    },
    {
      "inputs": [],
      "name": "poolLength",
      "outputs": [
        {
          "internalType": "uint256",
          "name": "",
          "type": "uint256"
        }
      ],
      "stateMutability": "view",
      "type": "function"
    },
    {
      "inputs": [
        {
          "internalType": "uint256",
          "name": "_allocPoint",
          "type": "uint256"
        },
        {
          "internalType": "contract IERC20",
          "name": "_lpToken",
          "type": "address"
        },
        {
          "internalType": "bool",
          "name": "_withUpdate",
          "type": "bool"
        }
      ],
      "name": "addPool",
      "outputs": [],
      "stateMutability": "nonpayable",
      "type": "function"
    },
    {
      "inputs": [
        {
          "internalType": "uint256",
          "name": "pid",
          "type": "uint256"
        },
        {
          "internalType": "uint256",
          "name": "allocPoint",
          "type": "uint256"
        },
        {
          "internalType": "bool",
          "name": "withUpdate",
          "type": "bool"
        }
      ],
      "name": "set",
      "outputs": [],
      "stateMutability": "nonpayable",
      "type": "function"
    },
    {
      "inputs": [
        {
          "internalType": "uint256",
          "name": "_pid",
          "type": "uint256"
        },
        {
          "internalType": "address",
          "name": "_user",
          "type": "address"
        }
      ],
      "name": "userDelta",
      "outputs": [
        {
          "internalType": "uint256",
          "name": "delta",
          "type": "uint256"
        }
      ],
      "stateMutability": "view",
      "type": "function"
    },
    {
      "inputs": [
        {
          "internalType": "uint256",
          "name": "from",
          "type": "uint256"
        },
        {
          "internalType": "uint256",
          "name": "to",
          "type": "uint256"
        }
      ],
      "name": "getMultiplier",
      "outputs": [
        {
          "internalType": "uint256",
          "name": "",
          "type": "uint256"
        }
      ],
      "stateMutability": "view",
      "type": "function"
    },
    {
      "inputs": [
        {
          "internalType": "uint256",
          "name": "pid",
          "type": "uint256"
        },
        {
          "internalType": "uint256",
          "name": "timeDelta",
          "type": "uint256"
        }
      ],
      "name": "getFeeRate",
      "outputs": [
        {
          "internalType": "uint256",
          "name": "feeRate",
          "type": "uint256"
        }
      ],
      "stateMutability": "view",
      "type": "function"
    },
    {
      "inputs": [
        {
          "internalType": "uint256",
          "name": "pid",
          "type": "uint256"
        },
        {
          "internalType": "uint256",
          "name": "timeDelta",
          "type": "uint256"
        },
        {
          "internalType": "uint256",
          "name": "amount",
          "type": "uint256"
        }
      ],
      "name": "getWithdrawable",
      "outputs": [
        {
          "internalType": "uint256",
          "name": "_feeAmount",
          "type": "uint256"
        },
        {
          "internalType": "uint256",
          "name": "_withdrawable",
          "type": "uint256"
        }
      ],
      "stateMutability": "view",
      "type": "function"
    },
    {
      "inputs": [
        {
          "internalType": "uint256",
          "name": "pid",
          "type": "uint256"
        },
        {
          "internalType": "address",
          "name": "_user",
          "type": "address"
        }
      ],
      "name": "pendingSoul",
      "outputs": [
        {
          "internalType": "uint256",
          "name": "pendingAmount",
          "type": "uint256"
        }
      ],
      "stateMutability": "view",
      "type": "function"
    },
    {
      "inputs": [],
      "name": "massUpdatePools",
      "outputs": [],
      "stateMutability": "nonpayable",
      "type": "function"
    },
    {
      "inputs": [
        {
          "internalType": "uint256",
          "name": "pid",
          "type": "uint256"
        }
      ],
      "name": "updatePool",
      "outputs": [],
      "stateMutability": "nonpayable",
      "type": "function"
    },
    {
      "inputs": [
        {
          "internalType": "uint256",
          "name": "pid",
          "type": "uint256"
        },
        {
          "internalType": "uint256",
          "name": "amount",
          "type": "uint256"
        }
      ],
      "name": "deposit",
      "outputs": [],
      "stateMutability": "nonpayable",
      "type": "function"
    },
    {
      "inputs": [
        {
          "internalType": "uint256",
          "name": "pid",
          "type": "uint256"
        },
        {
          "internalType": "uint256",
          "name": "amount",
          "type": "uint256"
        }
      ],
      "name": "withdraw",
      "outputs": [],
      "stateMutability": "nonpayable",
      "type": "function"
    },
    {
      "inputs": [
        {
          "internalType": "uint256",
          "name": "amount",
          "type": "uint256"
        }
      ],
      "name": "enterStaking",
      "outputs": [],
      "stateMutability": "nonpayable",
      "type": "function"
    },
    {
      "inputs": [
        {
          "internalType": "uint256",
          "name": "amount",
          "type": "uint256"
        }
      ],
      "name": "leaveStaking",
      "outputs": [],
      "stateMutability": "nonpayable",
      "type": "function"
    },
    {
      "inputs": [
        {
          "internalType": "uint256",
          "name": "_weight",
          "type": "uint256"
        },
        {
          "internalType": "uint256",
          "name": "_totalWeight",
          "type": "uint256"
        }
      ],
      "name": "updateWeights",
      "outputs": [],
      "stateMutability": "nonpayable",
      "type": "function"
    },
    {
      "inputs": [
        {
          "internalType": "uint256",
          "name": "_bonusMultiplier",
          "type": "uint256"
        }
      ],
      "name": "updateMultiplier",
      "outputs": [],
      "stateMutability": "nonpayable",
      "type": "function"
    },
    {
      "inputs": [
        {
          "internalType": "uint256",
          "name": "_startRate",
          "type": "uint256"
        }
      ],
      "name": "updateStartRate",
      "outputs": [],
      "stateMutability": "nonpayable",
      "type": "function"
    },
    {
      "inputs": [
        {
          "internalType": "address",
          "name": "_dao",
          "type": "address"
        },
        {
          "internalType": "address",
          "name": "_team",
          "type": "address"
        },
        {
          "internalType": "address",
          "name": "_supreme",
          "type": "address"
        }
      ],
      "name": "updateAccounts",
      "outputs": [],
      "stateMutability": "nonpayable",
      "type": "function"
    },
    {
      "inputs": [
        {
          "internalType": "address",
          "name": "_soul",
          "type": "address"
        },
        {
          "internalType": "address",
          "name": "_seance",
          "type": "address"
        }
      ],
      "name": "updateTokens",
      "outputs": [],
      "stateMutability": "nonpayable",
      "type": "function"
    },
    {
      "inputs": [
        {
          "internalType": "uint256",
          "name": "_pid",
          "type": "uint256"
        },
        {
          "internalType": "address",
          "name": "_user",
          "type": "address"
        },
        {
          "internalType": "uint256",
          "name": "_time",
          "type": "uint256"
        }
      ],
      "name": "reviseDeposit",
      "outputs": [],
      "stateMutability": "nonpayable",
      "type": "function"
    },
    {
      "inputs": [
        {
          "internalType": "uint256",
          "name": "amount",
          "type": "uint256"
        }
      ],
      "name": "enWei",
      "outputs": [
        {
          "internalType": "uint256",
          "name": "",
          "type": "uint256"
        }
      ],
      "stateMutability": "pure",
      "type": "function"
    },
    {
      "inputs": [
        {
          "internalType": "uint256",
          "name": "amount",
          "type": "uint256"
        }
      ],
      "name": "fromWei",
      "outputs": [
        {
          "internalType": "uint256",
          "name": "",
          "type": "uint256"
        }
      ],
      "stateMutability": "pure",
      "type": "function"
    }
  ],
  "bytecode": "0x60a06040526001600d556200001b60016200023960201b60201c565b6080908152503480156200002e57600080fd5b50600180819055507381dd37687c74df8f957a370a9a4435d873f5e5a9600860006101000a81548173ffffffffffffffffffffffffffffffffffffffff021916908373ffffffffffffffffffffffffffffffffffffffff16021790555073d0744f7f9f65db946860b974966f83688d4f4630600660006101000a81548173ffffffffffffffffffffffffffffffffffffffff021916908373ffffffffffffffffffffffffffffffffffffffff160217905550731c63c726926197bd3cb75d86bcfb1daebcd87250600760006101000a81548173ffffffffffffffffffffffffffffffffffffffff021916908373ffffffffffffffffffffffffffffffffffffffff1602179055507f36d5d8406f8379c6deba01145ec4f6a2966675cc67d71355b397a2a8e3572b296014819055507f0811b25c145e1379dc78112dd91057f09150f6db05dfd7e04deb910e6cefd4b7601581905550620001be6000801b6000801b600860009054906101000a900473ffffffffffffffffffffffffffffffffffffffff166200025860201b60201c565b50620001f8601454601454600860009054906101000a900473ffffffffffffffffffffffffffffffffffffffff166200025860201b60201c565b5062000232601554601454600760009054906101000a900473ffffffffffffffffffffffffffffffffffffffff166200025860201b60201c565b506200051e565b6000670de0b6b3a76400008262000251919062000484565b9050919050565b60006200026c84836200028960201b60201c565b6200027e84846200029f60201b60201c565b600190509392505050565b6200029b82826200030260201b60201c565b5050565b6000620002b283620003f360201b60201c565b905081600080858152602001908152602001600020600101819055508181847fbd79b86ffe0ab8e8776151514217cd7cacd52c909f66475c3af44e129f0b00ff60405160405180910390a4505050565b6200031482826200041260201b60201c565b620003ef57600160008084815260200190815260200160002060000160008373ffffffffffffffffffffffffffffffffffffffff1673ffffffffffffffffffffffffffffffffffffffff16815260200190815260200160002060006101000a81548160ff021916908315150217905550620003946200047c60201b60201c565b73ffffffffffffffffffffffffffffffffffffffff168173ffffffffffffffffffffffffffffffffffffffff16837f2f8788117e7eff1d82e926ec794901d17c78024a50270940304540a733656f0d60405160405180910390a45b5050565b6000806000838152602001908152602001600020600101549050919050565b600080600084815260200190815260200160002060000160008373ffffffffffffffffffffffffffffffffffffffff1673ffffffffffffffffffffffffffffffffffffffff16815260200190815260200160002060009054906101000a900460ff16905092915050565b600033905090565b60006200049182620004e5565b91506200049e83620004e5565b9250817fffffffffffffffffffffffffffffffffffffffffffffffffffffffffffffffff0483118215151615620004da57620004d9620004ef565b5b828202905092915050565b6000819050919050565b7f4e487b7100000000000000000000000000000000000000000000000000000000600052601160045260246000fd5b608051614f246200053a60003960006131ce0152614f246000f3fe608060405234801561001057600080fd5b50600436106102bb5760003560e01c80637e668b4211610182578063a8b973a1116100e9578063e65d1522116100a2578063f107fd851161007c578063f107fd8514610890578063fb39d1e3146108ac578063fc90fdc0146108dc578063fd6f99d0146108fa576102bb565b8063e65d152214610826578063e7aa29e314610856578063ea4bf44614610872576102bb565b8063a8b973a114610754578063bfafcad514610772578063cf94ee96146107a2578063d547741f146107d2578063e2bbb158146107ee578063e40903311461080a576102bb565b806391d148541161013b57806391d148541461066457806393f1a40b1461069457806396c82e57146106ca5780639f6c5426146106e8578063a1aab33f14610718578063a217fddf14610736576102bb565b80637e668b42146105a15780638129fc1c146105d2578063815b7a8c146105dc57806382386d58146105fa57806385f2aef2146106165780638dbb1e3a14610634576102bb565b8063441a3e70116102265780635ffe6146116101df5780635ffe614614610507578063630b5ba11461052357806364482f791461052d57806378e97925146105495780637abceffd146105675780637d500ec814610583576102bb565b8063441a3e701461045957806348f8bfea146104755780634a962829146104935780634ca01d45146104af57806351eb05a6146104cd5780635f9bf689146104e9576102bb565b8063248a9ca311610278578063248a9ca3146103995780632f2ff15d146103c957806336568abe146103e5578063392e53cd1461040157806341441d3b1461041f5780634162169f1461043b576102bb565b806301ffc9a7146102c0578063081e3eda146102f05780631058d2811461030e5780631254f0dc1461032a5780631526fe271461034857806317caf6f11461037b575b600080fd5b6102da60048036038101906102d59190613e57565b610918565b6040516102e79190614735565b60405180910390f35b6102f8610992565b60405161030591906149e8565b60405180910390f35b61032860048036038101906103239190613e80565b61099f565b005b610332610d21565b60405161033f91906149e8565b60405180910390f35b610362600480360381019061035d9190613e80565b610d27565b604051610372949392919061476b565b60405180910390f35b610383610d87565b60405161039091906149e8565b60405180910390f35b6103b360048036038101906103ae9190613df2565b610d8d565b6040516103c09190614750565b60405180910390f35b6103e360048036038101906103de9190613e1b565b610dac565b005b6103ff60048036038101906103fa9190613e1b565b610dd5565b005b610409610e58565b6040516104169190614735565b60405180910390f35b61043960048036038101906104349190613e80565b610e6b565b005b6104436111cb565b60405161045091906145f9565b60405180910390f35b610473600480360381019061046e9190613fac565b6111f1565b005b61047d611701565b60405161048a91906145f9565b60405180910390f35b6104ad60048036038101906104a89190613e80565b611727565b005b6104b761179e565b6040516104c491906147b0565b60405180910390f35b6104e760048036038101906104e29190613e80565b6117c4565b005b6104f1611c15565b6040516104fe91906149e8565b60405180910390f35b610521600480360381019061051c9190613e80565b611c1b565b005b61052b611c3a565b005b61054760048036038101906105429190613fe8565b611c6d565b005b610551611e37565b60405161055e91906149e8565b60405180910390f35b610581600480360381019061057c9190613f5d565b611e3d565b005b61058b611eba565b60405161059891906149e8565b60405180910390f35b6105bb60048036038101906105b69190614037565b611ec0565b6040516105c9929190614a3a565b60405180910390f35b6105da611f16565b005b6105e461231b565b6040516105f191906147cb565b60405180910390f35b610614600480360381019061060f9190613f0e565b612341565b005b61061e6123f4565b60405161062b91906145f9565b60405180910390f35b61064e60048036038101906106499190613fac565b61241a565b60405161065b91906149e8565b60405180910390f35b61067e60048036038101906106799190613e1b565b61243d565b60405161068b9190614735565b60405180910390f35b6106ae60048036038101906106a99190613ed2565b6124a7565b6040516106c19796959493929190614aa8565b60405180910390f35b6106d26124f6565b6040516106df91906149e8565b60405180910390f35b61070260048036038101906106fd9190613fac565b6124fc565b60405161070f91906149e8565b60405180910390f35b61072061256f565b60405161072d91906149e8565b60405180910390f35b61073e612575565b60405161074b9190614750565b60405180910390f35b61075c61257c565b60405161076991906149e8565b60405180910390f35b61078c60048036038101906107879190613ed2565b612582565b60405161079991906149e8565b60405180910390f35b6107bc60048036038101906107b79190613e80565b61279d565b6040516107c991906149e8565b60405180910390f35b6107ec60048036038101906107e79190613e1b565b6127ba565b005b61080860048036038101906108039190613fac565b6127e3565b005b610824600480360381019061081f9190613d7a565b612b42565b005b610840600480360381019061083b9190613e80565b612e03565b60405161084d91906149e8565b60405180910390f35b610870600480360381019061086b9190613d3e565b612e20565b005b61087a612fde565b6040516108879190614750565b60405180910390f35b6108aa60048036038101906108a59190613fac565b612fe4565b005b6108c660048036038101906108c19190613ed2565b6130eb565b6040516108d391906149e8565b60405180910390f35b6108e46131cc565b6040516108f191906149e8565b60405180910390f35b6109026131f0565b60405161090f9190614750565b60405180910390f35b60007f7965db0b000000000000000000000000000000000000000000000000000000007bffffffffffffffffffffffffffffffffffffffffffffffffffffffff1916827bffffffffffffffffffffffffffffffffffffffffffffffffffffffff1916148061098b575061098a826131f6565b5b9050919050565b6000601280549050905090565b600260015414156109e5576040517f08c379a00000000000000000000000000000000000000000000000000000000081526004016109dc90614968565b60405180910390fd5b600260018190555060006012600081548110610a2a577f4e487b7100000000000000000000000000000000000000000000000000000000600052603260045260246000fd5b9060005260206000209060040201905060006013600080815260200190815260200160002060003373ffffffffffffffffffffffffffffffffffffffff1673ffffffffffffffffffffffffffffffffffffffff16815260200190815260200160002090508281600001541015610ad5576040517f08c379a0000000000000000000000000000000000000000000000000000000008152600401610acc90614908565b60405180910390fd5b610adf60006117c4565b6000816001015464e8d4a5100084600301548460000154610b009190614bc5565b610b0a9190614b94565b610b149190614c1f565b90506000811115610b2a57610b293382613260565b5b6000841115610bfe57838260000154610b439190614c1f565b82600001819055508260000160009054906101000a900473ffffffffffffffffffffffffffffffffffffffff1673ffffffffffffffffffffffffffffffffffffffff1663a9059cbb33866040518363ffffffff1660e01b8152600401610baa92919061470c565b602060405180830381600087803b158015610bc457600080fd5b505af1158015610bd8573d6000803e3d6000fd5b505050506040513d601f19601f82011682018060405250810190610bfc9190613dc9565b505b64e8d4a5100083600301548360000154610c189190614bc5565b610c229190614b94565b8260010181905550428260030181905550600560009054906101000a900473ffffffffffffffffffffffffffffffffffffffff1673ffffffffffffffffffffffffffffffffffffffff16639dc29fac33866040518363ffffffff1660e01b8152600401610c9092919061470c565b600060405180830381600087803b158015610caa57600080fd5b505af1158015610cbe573d6000803e3d6000fd5b5050505060003373ffffffffffffffffffffffffffffffffffffffff167f02f25270a4d87bea75db541cdfe559334a275b4a233520ed6c0a2429667cca948642604051610d0c929190614a3a565b60405180910390a35050506001808190555050565b60115481565b60128181548110610d3757600080fd5b90600052602060002090600402016000915090508060000160009054906101000a900473ffffffffffffffffffffffffffffffffffffffff16908060010154908060020154908060030154905084565b600f5481565b6000806000838152602001908152602001600020600101549050919050565b610db582610d8d565b610dc681610dc16132f3565b6132fb565b610dd08383613398565b505050565b610ddd6132f3565b73ffffffffffffffffffffffffffffffffffffffff168173ffffffffffffffffffffffffffffffffffffffff1614610e4a576040517f08c379a0000000000000000000000000000000000000000000000000000000008152600401610e4190614988565b60405180910390fd5b610e548282613478565b5050565b601060009054906101000a900460ff1681565b60026001541415610eb1576040517f08c379a0000000000000000000000000000000000000000000000000000000008152600401610ea890614968565b60405180910390fd5b600260018190555060006012600081548110610ef6577f4e487b7100000000000000000000000000000000000000000000000000000000600052603260045260246000fd5b9060005260206000209060040201905060006013600080815260200190815260200160002060003373ffffffffffffffffffffffffffffffffffffffff1673ffffffffffffffffffffffffffffffffffffffff1681526020019081526020016000209050610f6460006117c4565b600081600001541115610fbe576000816001015464e8d4a5100084600301548460000154610f929190614bc5565b610f9c9190614b94565b610fa69190614c1f565b90506000811115610fbc57610fbb3382613260565b5b505b6000831115611094578160000160009054906101000a900473ffffffffffffffffffffffffffffffffffffffff1673ffffffffffffffffffffffffffffffffffffffff166323b872dd3330866040518463ffffffff1660e01b8152600401611028939291906146d5565b602060405180830381600087803b15801561104257600080fd5b505af1158015611056573d6000803e3d6000fd5b505050506040513d601f19601f8201168201806040525081019061107a9190613dc9565b5082816000015461108b9190614b3e565b81600001819055505b60008160040154116110a657426110ac565b80600401545b816004018190555064e8d4a51000826003015482600001546110ce9190614bc5565b6110d89190614b94565b8160010181905550600560009054906101000a900473ffffffffffffffffffffffffffffffffffffffff1673ffffffffffffffffffffffffffffffffffffffff166340c10f1933856040518363ffffffff1660e01b815260040161113d92919061470c565b600060405180830381600087803b15801561115757600080fd5b505af115801561116b573d6000803e3d6000fd5b5050505060003373ffffffffffffffffffffffffffffffffffffffff167f90890809c654f11d6e72a28fa60149770a0d11ec6c92319d6ceb2bb0a4ea1a15856040516111b791906149e8565b60405180910390a350506001808190555050565b600760009054906101000a900473ffffffffffffffffffffffffffffffffffffffff1681565b60026001541415611237576040517f08c379a000000000000000000000000000000000000000000000000000000000815260040161122e90614968565b60405180910390fd5b6002600181905550816012805490508110611287576040517f08c379a000000000000000000000000000000000000000000000000000000000815260040161127e906148e8565b60405180910390fd5b60008314156112cb576040517f08c379a00000000000000000000000000000000000000000000000000000000081526004016112c290614868565b60405180910390fd5b600060128481548110611307577f4e487b7100000000000000000000000000000000000000000000000000000000600052603260045260246000fd5b9060005260206000209060040201905060006013600086815260200190815260200160002060003373ffffffffffffffffffffffffffffffffffffffff1673ffffffffffffffffffffffffffffffffffffffff168152602001908152602001600020905083816000015410156113b2576040517f08c379a00000000000000000000000000000000000000000000000000000000081526004016113a990614928565b60405180910390fd5b6113bb856117c4565b6000816001015464e8d4a51000846003015484600001546113dc9190614bc5565b6113e69190614b94565b6113f09190614c1f565b90506000811115611406576114053382613260565b5b600085111561146b576000826006015411156114395781600601544261142c9190614c1f565b8260050181905550611452565b8160040154426114499190614c1f565b82600501819055505b8482600001546114629190614c1f565b82600001819055505b60006013600088815260200190815260200160002060003373ffffffffffffffffffffffffffffffffffffffff1673ffffffffffffffffffffffffffffffffffffffff16815260200190815260200160002060050154905060006114d0888389611ec0565b915050600081886114e19190614c1f565b90508560000160009054906101000a900473ffffffffffffffffffffffffffffffffffffffff1673ffffffffffffffffffffffffffffffffffffffff1663a9059cbb600760009054906101000a900473ffffffffffffffffffffffffffffffffffffffff16836040518363ffffffff1660e01b815260040161156492919061470c565b602060405180830381600087803b15801561157e57600080fd5b505af1158015611592573d6000803e3d6000fd5b505050506040513d601f19601f820116820180604052508101906115b69190613dc9565b508560000160009054906101000a900473ffffffffffffffffffffffffffffffffffffffff1673ffffffffffffffffffffffffffffffffffffffff1663a9059cbb33846040518363ffffffff1660e01b815260040161161692919061470c565b602060405180830381600087803b15801561163057600080fd5b505af1158015611644573d6000803e3d6000fd5b505050506040513d601f19601f820116820180604052508101906116689190613dc9565b5064e8d4a51000866003015486600001546116839190614bc5565b61168d9190614b94565b8560010181905550428560030181905550883373ffffffffffffffffffffffffffffffffffffffff167f02f25270a4d87bea75db541cdfe559334a275b4a233520ed6c0a2429667cca948a426040516116e7929190614a3a565b60405180910390a350505050505050600180819055505050565b600860009054906101000a900473ffffffffffffffffffffffffffffffffffffffff1681565b60155461173b816117366132f3565b6132fb565b6117448261279d565b601154141561175257600080fd5b61175b8261279d565b6011819055507f580e2348a4d1118e1f915eeffd71aec4938e749307b28e67f19841ca64117df760115460405161179291906149e8565b60405180910390a15050565b600560009054906101000a900473ffffffffffffffffffffffffffffffffffffffff1681565b80601280549050811061180c576040517f08c379a0000000000000000000000000000000000000000000000000000000008152600401611803906148e8565b60405180910390fd5b600060128381548110611848577f4e487b7100000000000000000000000000000000000000000000000000000000600052603260045260246000fd5b90600052602060002090600402019050806002015442116118695750611c11565b60008160000160009054906101000a900473ffffffffffffffffffffffffffffffffffffffff1673ffffffffffffffffffffffffffffffffffffffff166370a08231306040518263ffffffff1660e01b81526004016118c891906145f9565b60206040518083038186803b1580156118e057600080fd5b505afa1580156118f4573d6000803e3d6000fd5b505050506040513d601f19601f820116820180604052508101906119189190613ea9565b90506000811415611933574282600201819055505050611c11565b600061194383600201544261241a565b90506000600f548460010154600c548461195d9190614bc5565b6119679190614bc5565b6119719190614b94565b90506000650746a528800064e8d4a510008361198d9190614bc5565b6119979190614b94565b905060006002826119a89190614bc5565b9050600081846119b89190614c1f565b9050600360009054906101000a900473ffffffffffffffffffffffffffffffffffffffff1673ffffffffffffffffffffffffffffffffffffffff166340c10f19600660009054906101000a900473ffffffffffffffffffffffffffffffffffffffff16856040518363ffffffff1660e01b8152600401611a3992919061470c565b600060405180830381600087803b158015611a5357600080fd5b505af1158015611a67573d6000803e3d6000fd5b50505050600360009054906101000a900473ffffffffffffffffffffffffffffffffffffffff1673ffffffffffffffffffffffffffffffffffffffff166340c10f19600760009054906101000a900473ffffffffffffffffffffffffffffffffffffffff16856040518363ffffffff1660e01b8152600401611aea92919061470c565b600060405180830381600087803b158015611b0457600080fd5b505af1158015611b18573d6000803e3d6000fd5b50505050600360009054906101000a900473ffffffffffffffffffffffffffffffffffffffff1673ffffffffffffffffffffffffffffffffffffffff166340c10f19600560009054906101000a900473ffffffffffffffffffffffffffffffffffffffff16836040518363ffffffff1660e01b8152600401611b9b92919061470c565b600060405180830381600087803b158015611bb557600080fd5b505af1158015611bc9573d6000803e3d6000fd5b505050508564e8d4a5100085611bdf9190614bc5565b611be99190614b94565b8760030154611bf89190614b3e565b8760030181905550428760020181905550505050505050505b5050565b600c5481565b601554611c2f81611c2a6132f3565b6132fb565b81600d819055505050565b6000601280549050905060005b81811015611c6957611c58816117c4565b80611c6290614dac565b9050611c47565b5050565b601060009054906101000a900460ff16611cbc576040517f08c379a0000000000000000000000000000000000000000000000000000000008152600401611cb3906149a8565b60405180910390fd5b826012805490508110611d04576040517f08c379a0000000000000000000000000000000000000000000000000000000008152600401611cfb906148e8565b60405180910390fd5b601554611d1881611d136132f3565b6132fb565b8215611d2757611d26611c3a565b5b600060128681548110611d63577f4e487b7100000000000000000000000000000000000000000000000000000000600052603260045260246000fd5b90600052602060002090600402016001015490508460128781548110611db2577f4e487b7100000000000000000000000000000000000000000000000000000000600052603260045260246000fd5b906000526020600020906004020160010181905550848114611df6578481600f54611ddd9190614c1f565b611de79190614b3e565b600f81905550611df5613559565b5b7fd88f859573973e938da5bf3e5100c16eee2090fa720e05ae3d452b4cd05cdcfd8686604051611e27929190614a3a565b60405180910390a1505050505050565b600e5481565b601060009054906101000a900460ff16611e8c576040517f08c379a0000000000000000000000000000000000000000000000000000000008152600401611e83906149a8565b60405180910390fd5b601454611ea081611e9b6132f3565b6132fb565b611ea9836136b6565b611eb48484846137bb565b50505050565b600b5481565b6000806000611ed7611ed287876124fc565b612e03565b9050600060648286611ee99190614bc5565b611ef39190614b94565b905060008186611f039190614c1f565b9050818194509450505050935093915050565b601454611f2a81611f256132f3565b6132fb565b601060009054906101000a900460ff1615611f7a576040517f08c379a0000000000000000000000000000000000000000000000000000000008152600401611f7190614848565b60405180910390fd5b73e2fb177009ff39f52c0134e8007fa0e4baacbd07600260006101000a81548173ffffffffffffffffffffffffffffffffffffffff021916908373ffffffffffffffffffffffffffffffffffffffff16021790555073124b06c5ce47de7a6e9efda71a946717130079e6600460006101000a81548173ffffffffffffffffffffffffffffffffffffffff021916908373ffffffffffffffffffffffffffffffffffffffff16021790555042600e819055506103e86009819055506103e8600a81905550612047600e61279d565b60118190555060006103e89050600260009054906101000a900473ffffffffffffffffffffffffffffffffffffffff16600360006101000a81548173ffffffffffffffffffffffffffffffffffffffff021916908373ffffffffffffffffffffffffffffffffffffffff160217905550600460009054906101000a900473ffffffffffffffffffffffffffffffffffffffff16600560006101000a81548173ffffffffffffffffffffffffffffffffffffffff021916908373ffffffffffffffffffffffffffffffffffffffff160217905550612128600a54600954613916565b60126040518060800160405280600360009054906101000a900473ffffffffffffffffffffffffffffffffffffffff1673ffffffffffffffffffffffffffffffffffffffff168152602001838152602001600e5481526020016000815250908060018154018082558091505060019003906000526020600020906004020160009091909190915060008201518160000160006101000a81548173ffffffffffffffffffffffffffffffffffffffff021916908373ffffffffffffffffffffffffffffffffffffffff16021790555060208201518160010155604082015181600201556060820151816003015550506001601060006101000a81548160ff02191690831515021790555080600f60008282546122439190614b3e565b925050819055507f0476c5e4920930815a67a5a042e26836431f494d3be0f6e10c3034787a7a15f9600660009054906101000a900473ffffffffffffffffffffffffffffffffffffffff16600760009054906101000a900473ffffffffffffffffffffffffffffffffffffffff16600260009054906101000a900473ffffffffffffffffffffffffffffffffffffffff16600460009054906101000a900473ffffffffffffffffffffffffffffffffffffffff16600f54600a5460405161230f96959493929190614674565b60405180910390a15050565b600360009054906101000a900473ffffffffffffffffffffffffffffffffffffffff1681565b601554612355816123506132f3565b6132fb565b60006013600086815260200190815260200160002060008573ffffffffffffffffffffffffffffffffffffffff1673ffffffffffffffffffffffffffffffffffffffff16815260200190815260200160002090508281600401819055507f40d6e8e3d60e4693375c73df2d1a71d582a28197c98fd8d2badad6ead06af64c8585856040516123e593929190614a03565b60405180910390a15050505050565b600660009054906101000a900473ffffffffffffffffffffffffffffffffffffffff1681565b6000600d54838361242b9190614c1f565b6124359190614bc5565b905092915050565b600080600084815260200190815260200160002060000160008373ffffffffffffffffffffffffffffffffffffffff1673ffffffffffffffffffffffffffffffffffffffff16815260200190815260200160002060009054906101000a900460ff16905092915050565b6013602052816000526040600020602052806000526040600020600091509150508060000154908060010154908060020154908060030154908060040154908060050154908060060154905087565b60095481565b60008062015180831061251d5762015180836125189190614b94565b612520565b60005b9050600061252d8261279d565b9050600060115482101561254e57816011546125499190614c1f565b612551565b60005b9050600086146125615780612564565b60005b935050505092915050565b600a5481565b6000801b81565b600d5481565b600080601284815481106125bf577f4e487b7100000000000000000000000000000000000000000000000000000000600052603260045260246000fd5b9060005260206000209060040201905060006013600086815260200190815260200160002060008573ffffffffffffffffffffffffffffffffffffffff1673ffffffffffffffffffffffffffffffffffffffff168152602001908152602001600020905060008260030154905060008360000160009054906101000a900473ffffffffffffffffffffffffffffffffffffffff1673ffffffffffffffffffffffffffffffffffffffff166370a08231306040518263ffffffff1660e01b815260040161268b91906145f9565b60206040518083038186803b1580156126a357600080fd5b505afa1580156126b7573d6000803e3d6000fd5b505050506040513d601f19601f820116820180604052508101906126db9190613ea9565b90508360020154421180156126f1575060008114155b1561276257600061270685600201544261241a565b90506000600f548660010154600c54846127209190614bc5565b61272a9190614bc5565b6127349190614b94565b90508264e8d4a51000826127489190614bc5565b6127529190614b94565b8461275d9190614b3e565b935050505b826001015464e8d4a5100083856000015461277d9190614bc5565b6127879190614b94565b6127919190614c1f565b94505050505092915050565b6000670de0b6b3a7640000826127b39190614bc5565b9050919050565b6127c382610d8d565b6127d4816127cf6132f3565b6132fb565b6127de8383613478565b505050565b60026001541415612829576040517f08c379a000000000000000000000000000000000000000000000000000000000815260040161282090614968565b60405180910390fd5b6002600181905550816012805490508110612879576040517f08c379a0000000000000000000000000000000000000000000000000000000008152600401612870906148e8565b60405180910390fd5b60008314156128bd576040517f08c379a00000000000000000000000000000000000000000000000000000000081526004016128b490614888565b60405180910390fd5b6000601284815481106128f9577f4e487b7100000000000000000000000000000000000000000000000000000000600052603260045260246000fd5b9060005260206000209060040201905060006013600086815260200190815260200160002060003373ffffffffffffffffffffffffffffffffffffffff1673ffffffffffffffffffffffffffffffffffffffff1681526020019081526020016000209050612966856117c4565b6000816000015411156129c0576000816001015464e8d4a51000846003015484600001546129949190614bc5565b61299e9190614b94565b6129a89190614c1f565b905060008111156129be576129bd3382613260565b5b505b6000841115612a99578160000160009054906101000a900473ffffffffffffffffffffffffffffffffffffffff1673ffffffffffffffffffffffffffffffffffffffff166323b872dd3330876040518463ffffffff1660e01b8152600401612a2a939291906146d5565b602060405180830381600087803b158015612a4457600080fd5b505af1158015612a58573d6000803e3d6000fd5b505050506040513d601f19601f82011682018060405250810190612a7c9190613dc9565b5083816000016000828254612a919190614b3e565b925050819055505b64e8d4a5100082600301548260000154612ab39190614bc5565b612abd9190614b94565b81600101819055506000816004015411612ad75742612add565b80600401545b8160040181905550843373ffffffffffffffffffffffffffffffffffffffff167f90890809c654f11d6e72a28fa60149770a0d11ec6c92319d6ceb2bb0a4ea1a1586604051612b2c91906149e8565b60405180910390a3505050600180819055505050565b601454612b5681612b516132f3565b6132fb565b8373ffffffffffffffffffffffffffffffffffffffff16600760009054906101000a900473ffffffffffffffffffffffffffffffffffffffff1673ffffffffffffffffffffffffffffffffffffffff16141580612c0157508273ffffffffffffffffffffffffffffffffffffffff16600660009054906101000a900473ffffffffffffffffffffffffffffffffffffffff1673ffffffffffffffffffffffffffffffffffffffff1614155b80612c5a57508173ffffffffffffffffffffffffffffffffffffffff16600860009054906101000a900473ffffffffffffffffffffffffffffffffffffffff1673ffffffffffffffffffffffffffffffffffffffff1614155b612c99576040517f08c379a0000000000000000000000000000000000000000000000000000000008152600401612c90906148c8565b60405180910390fd5b83600760006101000a81548173ffffffffffffffffffffffffffffffffffffffff021916908373ffffffffffffffffffffffffffffffffffffffff16021790555082600660006101000a81548173ffffffffffffffffffffffffffffffffffffffff021916908373ffffffffffffffffffffffffffffffffffffffff16021790555081600860006101000a81548173ffffffffffffffffffffffffffffffffffffffff021916908373ffffffffffffffffffffffffffffffffffffffff1602179055507f1af7fb2dca603676776ebce7af5086b001c893239c7e2a241e7184e6f3cf9282600760009054906101000a900473ffffffffffffffffffffffffffffffffffffffff16600660009054906101000a900473ffffffffffffffffffffffffffffffffffffffff16600860009054906101000a900473ffffffffffffffffffffffffffffffffffffffff16604051612df59392919061463d565b60405180910390a150505050565b6000670de0b6b3a764000082612e199190614b94565b9050919050565b601454612e3481612e2f6132f3565b6132fb565b8273ffffffffffffffffffffffffffffffffffffffff16600360009054906101000a900473ffffffffffffffffffffffffffffffffffffffff1673ffffffffffffffffffffffffffffffffffffffff16141580612edf57508173ffffffffffffffffffffffffffffffffffffffff16600560009054906101000a900473ffffffffffffffffffffffffffffffffffffffff1673ffffffffffffffffffffffffffffffffffffffff1614155b612f1e576040517f08c379a0000000000000000000000000000000000000000000000000000000008152600401612f15906148a8565b60405180910390fd5b82600360006101000a81548173ffffffffffffffffffffffffffffffffffffffff021916908373ffffffffffffffffffffffffffffffffffffffff16021790555081600560006101000a81548173ffffffffffffffffffffffffffffffffffffffff021916908373ffffffffffffffffffffffffffffffffffffffff1602179055507fdcc6331013de89f8c595d5328f0a724194f113cb6f8f2a707b3dff6de13f0d178383604051612fd1929190614614565b60405180910390a1505050565b60145481565b601554612ff881612ff36132f3565b6132fb565b82600a5414158061300b57508160095414155b61304a576040517f08c379a000000000000000000000000000000000000000000000000000000000815260040161304190614828565b60405180910390fd5b8282101561308d576040517f08c379a0000000000000000000000000000000000000000000000000000000008152600401613084906149c8565b60405180910390fd5b82600a81905550816009819055506130a9600a54600954613916565b7fb298bc23e07860d501fddce288f46d761aa04a0c7c3316099eb50f097aacf304600a546009546040516130de929190614a3a565b60405180910390a1505050565b6000806013600085815260200190815260200160002060008473ffffffffffffffffffffffffffffffffffffffff1673ffffffffffffffffffffffffffffffffffffffff1681526020019081526020016000206040518060e0016040529081600082015481526020016001820154815260200160028201548152602001600382015481526020016004820154815260200160058201548152602001600682015481525050905060008160600151116131b2578060800151426131ad9190614c1f565b6131c3565b8060600151426131c29190614c1f565b5b91505092915050565b7f000000000000000000000000000000000000000000000000000000000000000081565b60155481565b60007f01ffc9a7000000000000000000000000000000000000000000000000000000007bffffffffffffffffffffffffffffffffffffffffffffffffffffffff1916827bffffffffffffffffffffffffffffffffffffffffffffffffffffffff1916149050919050565b600560009054906101000a900473ffffffffffffffffffffffffffffffffffffffff1673ffffffffffffffffffffffffffffffffffffffff1663b2a142aa83836040518363ffffffff1660e01b81526004016132bd92919061470c565b600060405180830381600087803b1580156132d757600080fd5b505af11580156132eb573d6000803e3d6000fd5b505050505050565b600033905090565b613305828261243d565b6133945761332a8173ffffffffffffffffffffffffffffffffffffffff16601461399c565b6133388360001c602061399c565b6040516020016133499291906145bf565b6040516020818303038152906040526040517f08c379a000000000000000000000000000000000000000000000000000000000815260040161338b91906147e6565b60405180910390fd5b5050565b6133a2828261243d565b61347457600160008084815260200190815260200160002060000160008373ffffffffffffffffffffffffffffffffffffffff1673ffffffffffffffffffffffffffffffffffffffff16815260200190815260200160002060006101000a81548160ff0219169083151502179055506134196132f3565b73ffffffffffffffffffffffffffffffffffffffff168173ffffffffffffffffffffffffffffffffffffffff16837f2f8788117e7eff1d82e926ec794901d17c78024a50270940304540a733656f0d60405160405180910390a45b5050565b613482828261243d565b1561355557600080600084815260200190815260200160002060000160008373ffffffffffffffffffffffffffffffffffffffff1673ffffffffffffffffffffffffffffffffffffffff16815260200190815260200160002060006101000a81548160ff0219169083151502179055506134fa6132f3565b73ffffffffffffffffffffffffffffffffffffffff168173ffffffffffffffffffffffffffffffffffffffff16837ff6391f5c32d9c69d2a47ea670b442974b53935d1edc7fd64eb21e047a839171b60405160405180910390a45b5050565b60006012805490509050600080600190505b828110156135dd57601281815481106135ad577f4e487b7100000000000000000000000000000000000000000000000000000000600052603260045260246000fd5b906000526020600020906004020160010154826135ca9190614b3e565b9150806135d690614dac565b905061356b565b50600081146136b2576003816135f39190614b94565b9050806012600081548110613631577f4e487b7100000000000000000000000000000000000000000000000000000000600052603260045260246000fd5b906000526020600020906004020160010154600f546136509190614c1f565b61365a9190614b3e565b600f8190555080601260008154811061369c577f4e487b7100000000000000000000000000000000000000000000000000000000600052603260045260246000fd5b9060005260206000209060040201600101819055505b5050565b6000601280549050905060005b818110156137b6578273ffffffffffffffffffffffffffffffffffffffff166012828154811061371c577f4e487b7100000000000000000000000000000000000000000000000000000000600052603260045260246000fd5b906000526020600020906004020160000160009054906101000a900473ffffffffffffffffffffffffffffffffffffffff1673ffffffffffffffffffffffffffffffffffffffff1614156137a5576040517f08c379a000000000000000000000000000000000000000000000000000000000815260040161379c90614948565b60405180910390fd5b806137af90614dac565b90506136c3565b505050565b80156137ca576137c9611c3a565b5b82600f60008282546137dc9190614b3e565b92505081905550601260405180608001604052808473ffffffffffffffffffffffffffffffffffffffff168152602001858152602001600e54421161382357600e54613825565b425b81526020016000815250908060018154018082558091505060019003906000526020600020906004020160009091909190915060008201518160000160006101000a81548173ffffffffffffffffffffffffffffffffffffffff021916908373ffffffffffffffffffffffffffffffffffffffff16021790555060208201518160010155604082015181600201556060820151816003015550506138c7613559565b600060128054905090507f20b669aa921947a6d9602a921d2db3b6b30f21b9aca98580fa3972530330b27a818585600f546040516139089493929190614a63565b60405180910390a150505050565b6000816139228461279d565b61392c9190614b94565b90506203d0908161393d9190614bc5565b600b8190555062015180600b546139549190614b94565b600c819055507fcd7c861d63893659123f817b192b8621ff1923a7c4589c260173cedcf9e986a6600b54600c5460405161398f929190614a3a565b60405180910390a1505050565b6060600060028360026139af9190614bc5565b6139b99190614b3e565b67ffffffffffffffff8111156139f8577f4e487b7100000000000000000000000000000000000000000000000000000000600052604160045260246000fd5b6040519080825280601f01601f191660200182016040528015613a2a5781602001600182028036833780820191505090505b5090507f300000000000000000000000000000000000000000000000000000000000000081600081518110613a88577f4e487b7100000000000000000000000000000000000000000000000000000000600052603260045260246000fd5b60200101907effffffffffffffffffffffffffffffffffffffffffffffffffffffffffffff1916908160001a9053507f780000000000000000000000000000000000000000000000000000000000000081600181518110613b12577f4e487b7100000000000000000000000000000000000000000000000000000000600052603260045260246000fd5b60200101907effffffffffffffffffffffffffffffffffffffffffffffffffffffffffffff1916908160001a90535060006001846002613b529190614bc5565b613b5c9190614b3e565b90505b6001811115613c48577f3031323334353637383961626364656600000000000000000000000000000000600f861660108110613bc4577f4e487b7100000000000000000000000000000000000000000000000000000000600052603260045260246000fd5b1a60f81b828281518110613c01577f4e487b7100000000000000000000000000000000000000000000000000000000600052603260045260246000fd5b60200101907effffffffffffffffffffffffffffffffffffffffffffffffffffffffffffff1916908160001a905350600485901c945080613c4190614d82565b9050613b5f565b5060008414613c8c576040517f08c379a0000000000000000000000000000000000000000000000000000000008152600401613c8390614808565b60405180910390fd5b8091505092915050565b600081359050613ca581614e64565b92915050565b600081359050613cba81614e7b565b92915050565b600081519050613ccf81614e7b565b92915050565b600081359050613ce481614e92565b92915050565b600081359050613cf981614ea9565b92915050565b600081359050613d0e81614ec0565b92915050565b600081359050613d2381614ed7565b92915050565b600081519050613d3881614ed7565b92915050565b60008060408385031215613d5157600080fd5b6000613d5f85828601613c96565b9250506020613d7085828601613c96565b9150509250929050565b600080600060608486031215613d8f57600080fd5b6000613d9d86828701613c96565b9350506020613dae86828701613c96565b9250506040613dbf86828701613c96565b9150509250925092565b600060208284031215613ddb57600080fd5b6000613de984828501613cc0565b91505092915050565b600060208284031215613e0457600080fd5b6000613e1284828501613cd5565b91505092915050565b60008060408385031215613e2e57600080fd5b6000613e3c85828601613cd5565b9250506020613e4d85828601613c96565b9150509250929050565b600060208284031215613e6957600080fd5b6000613e7784828501613cea565b91505092915050565b600060208284031215613e9257600080fd5b6000613ea084828501613d14565b91505092915050565b600060208284031215613ebb57600080fd5b6000613ec984828501613d29565b91505092915050565b60008060408385031215613ee557600080fd5b6000613ef385828601613d14565b9250506020613f0485828601613c96565b9150509250929050565b600080600060608486031215613f2357600080fd5b6000613f3186828701613d14565b9350506020613f4286828701613c96565b9250506040613f5386828701613d14565b9150509250925092565b600080600060608486031215613f7257600080fd5b6000613f8086828701613d14565b9350506020613f9186828701613cff565b9250506040613fa286828701613cab565b9150509250925092565b60008060408385031215613fbf57600080fd5b6000613fcd85828601613d14565b9250506020613fde85828601613d14565b9150509250929050565b600080600060608486031215613ffd57600080fd5b600061400b86828701613d14565b935050602061401c86828701613d14565b925050604061402d86828701613cab565b9150509250925092565b60008060006060848603121561404c57600080fd5b600061405a86828701613d14565b935050602061406b86828701613d14565b925050604061407c86828701613d14565b9150509250925092565b61408f81614c53565b82525050565b61409e81614c65565b82525050565b6140ad81614c71565b82525050565b6140bc81614ce3565b82525050565b6140cb81614d07565b82525050565b6140da81614d2b565b82525050565b60006140eb82614b17565b6140f58185614b22565b9350614105818560208601614d4f565b61410e81614e53565b840191505092915050565b600061412482614b17565b61412e8185614b33565b935061413e818560208601614d4f565b80840191505092915050565b6000614157602083614b22565b91507f537472696e67733a20686578206c656e67746820696e73756666696369656e746000830152602082019050919050565b6000614197601e83614b22565b91507f6d757374206265206174206c65617374206f6e65206e65772076616c756500006000830152602082019050919050565b60006141d7601383614b22565b91507f616c726561647920696e697469616c697a6564000000000000000000000000006000830152602082019050919050565b6000614217601a83614b22565b91507f776974686472617720534f554c20627920756e7374616b696e670000000000006000830152602082019050919050565b6000614257601783614b22565b91507f6465706f73697420534f554c206279207374616b696e670000000000000000006000830152602082019050919050565b6000614297601b83614b22565b91507f6d7573742062652061206e657720746f6b656e206164647265737300000000006000830152602082019050919050565b60006142d7601583614b22565b91507f6d7573742062652061206e6577206163636f756e7400000000000000000000006000830152602082019050919050565b6000614317601383614b22565b91507f706f6f6c20646f6573206e6f74206578697374000000000000000000000000006000830152602082019050919050565b6000614357601283614b22565b91507f77697468647261773a206e6f7420676f6f6400000000000000000000000000006000830152602082019050919050565b6000614397601783614b33565b91507f416363657373436f6e74726f6c3a206163636f756e74200000000000000000006000830152601782019050919050565b60006143d7601183614b22565b91507f7769746864726177206e6f7420676f6f640000000000000000000000000000006000830152602082019050919050565b6000614417600f83614b22565b91507f6475706c69636174656420706f6f6c00000000000000000000000000000000006000830152602082019050919050565b6000614457601f83614b22565b91507f5265656e7472616e637947756172643a207265656e7472616e742063616c6c006000830152602082019050919050565b6000614497601183614b33565b91507f206973206d697373696e6720726f6c65200000000000000000000000000000006000830152601182019050919050565b60006144d7602f83614b22565b91507f416363657373436f6e74726f6c3a2063616e206f6e6c792072656e6f756e636560008301527f20726f6c657320666f722073656c6600000000000000000000000000000000006020830152604082019050919050565b600061453d601a83614b22565b91507f726577617264732068617665206e6f742079657420626567756e0000000000006000830152602082019050919050565b600061457d602083614b22565b91507f7765696768742063616e6e6f742065786365656420746f74616c5765696768746000830152602082019050919050565b6145b981614cd9565b82525050565b60006145ca8261438a565b91506145d68285614119565b91506145e18261448a565b91506145ed8284614119565b91508190509392505050565b600060208201905061460e6000830184614086565b92915050565b60006040820190506146296000830185614086565b6146366020830184614086565b9392505050565b60006060820190506146526000830186614086565b61465f6020830185614086565b61466c6040830184614086565b949350505050565b600060c0820190506146896000830189614086565b6146966020830188614086565b6146a36040830187614086565b6146b06060830186614086565b6146bd60808301856145b0565b6146ca60a08301846145b0565b979650505050505050565b60006060820190506146ea6000830186614086565b6146f76020830185614086565b61470460408301846145b0565b949350505050565b60006040820190506147216000830185614086565b61472e60208301846145b0565b9392505050565b600060208201905061474a6000830184614095565b92915050565b600060208201905061476560008301846140a4565b92915050565b600060808201905061478060008301876140b3565b61478d60208301866145b0565b61479a60408301856145b0565b6147a760608301846145b0565b95945050505050565b60006020820190506147c560008301846140c2565b92915050565b60006020820190506147e060008301846140d1565b92915050565b6000602082019050818103600083015261480081846140e0565b905092915050565b600060208201905081810360008301526148218161414a565b9050919050565b600060208201905081810360008301526148418161418a565b9050919050565b60006020820190508181036000830152614861816141ca565b9050919050565b600060208201905081810360008301526148818161420a565b9050919050565b600060208201905081810360008301526148a18161424a565b9050919050565b600060208201905081810360008301526148c18161428a565b9050919050565b600060208201905081810360008301526148e1816142ca565b9050919050565b600060208201905081810360008301526149018161430a565b9050919050565b600060208201905081810360008301526149218161434a565b9050919050565b60006020820190508181036000830152614941816143ca565b9050919050565b600060208201905081810360008301526149618161440a565b9050919050565b600060208201905081810360008301526149818161444a565b9050919050565b600060208201905081810360008301526149a1816144ca565b9050919050565b600060208201905081810360008301526149c181614530565b9050919050565b600060208201905081810360008301526149e181614570565b9050919050565b60006020820190506149fd60008301846145b0565b92915050565b6000606082019050614a1860008301866145b0565b614a256020830185614086565b614a3260408301846145b0565b949350505050565b6000604082019050614a4f60008301856145b0565b614a5c60208301846145b0565b9392505050565b6000608082019050614a7860008301876145b0565b614a8560208301866145b0565b614a9260408301856140b3565b614a9f60608301846145b0565b95945050505050565b600060e082019050614abd600083018a6145b0565b614aca60208301896145b0565b614ad760408301886145b0565b614ae460608301876145b0565b614af160808301866145b0565b614afe60a08301856145b0565b614b0b60c08301846145b0565b98975050505050505050565b600081519050919050565b600082825260208201905092915050565b600081905092915050565b6000614b4982614cd9565b9150614b5483614cd9565b9250827fffffffffffffffffffffffffffffffffffffffffffffffffffffffffffffffff03821115614b8957614b88614df5565b5b828201905092915050565b6000614b9f82614cd9565b9150614baa83614cd9565b925082614bba57614bb9614e24565b5b828204905092915050565b6000614bd082614cd9565b9150614bdb83614cd9565b9250817fffffffffffffffffffffffffffffffffffffffffffffffffffffffffffffffff0483118215151615614c1457614c13614df5565b5b828202905092915050565b6000614c2a82614cd9565b9150614c3583614cd9565b925082821015614c4857614c47614df5565b5b828203905092915050565b6000614c5e82614cb9565b9050919050565b60008115159050919050565b6000819050919050565b60007fffffffff0000000000000000000000000000000000000000000000000000000082169050919050565b6000614cb282614c53565b9050919050565b600073ffffffffffffffffffffffffffffffffffffffff82169050919050565b6000819050919050565b6000614cee82614cf5565b9050919050565b6000614d0082614cb9565b9050919050565b6000614d1282614d19565b9050919050565b6000614d2482614cb9565b9050919050565b6000614d3682614d3d565b9050919050565b6000614d4882614cb9565b9050919050565b60005b83811015614d6d578082015181840152602081019050614d52565b83811115614d7c576000848401525b50505050565b6000614d8d82614cd9565b91506000821415614da157614da0614df5565b5b600182039050919050565b6000614db782614cd9565b91507fffffffffffffffffffffffffffffffffffffffffffffffffffffffffffffffff821415614dea57614de9614df5565b5b600182019050919050565b7f4e487b7100000000000000000000000000000000000000000000000000000000600052601160045260246000fd5b7f4e487b7100000000000000000000000000000000000000000000000000000000600052601260045260246000fd5b6000601f19601f8301169050919050565b614e6d81614c53565b8114614e7857600080fd5b50565b614e8481614c65565b8114614e8f57600080fd5b50565b614e9b81614c71565b8114614ea657600080fd5b50565b614eb281614c7b565b8114614ebd57600080fd5b50565b614ec981614ca7565b8114614ed457600080fd5b50565b614ee081614cd9565b8114614eeb57600080fd5b5056fea264697066735822122061f65f6fda5cd7ffcf0cf1547a5ce4024ad5260ff786db2b5a6d84c44db5358c64736f6c63430008000033",
  "immutableReferences": {
    "7146": [
      {
        "length": 32,
        "start": 12750
      }
    ]
  },
  "source": "// SPDX-License-Identifier: MIT\n\npragma solidity ^0.8.0;\nimport '@openzeppelin/contracts/access/AccessControl.sol';\nimport '@openzeppelin/contracts/security/ReentrancyGuard.sol';\nimport '../tokens/SoulPower.sol';\nimport '../tokens/SeanceCircle.sol';\n\n// the summoner of souls | ownership transferred to a governance smart contract \n// upon sufficient distribution + the community's desire to self-govern.\n\ncontract SoulSummonerFantomV2 is AccessControl, ReentrancyGuard {\n\n    // user info\n    struct Users {\n        uint amount;           // total tokens user has provided.\n        uint rewardDebt;       // reward debt (see below).\n        uint rewardDebtAtTime; // the last time user stake.\n        uint lastWithdrawTime; // the last time a user withdrew at.\n        uint firstDepositTime; // the last time a user deposited at.\n        uint timeDelta;        // time passed since withdrawals.\n        uint lastDepositTime;  // most recent deposit time.\n\n        //   pending reward = (user.amount * pool.accSoulPerShare) - user.rewardDebt\n\n        // the following occurs when a user +/- tokens to a pool:\n        //   1. pool: `accSoulPerShare` and `lastRewardTime` update.\n        //   2. user: receives pending reward.\n        //   3. user: `amount` updates(+/-).\n        //   4. user: `rewardDebt` updates (+/-).\n    }\n\n    // pool info\n    struct Pools {\n        IERC20 lpToken;       // lp token ierc20 contract.\n        uint allocPoint;      // allocation points assigned to this pool | SOULs to distribute per second.\n        uint lastRewardTime;  // most recent UNIX timestamp during which SOULs distribution occurred in the pool.\n        uint accSoulPerShare; // accumulated SOULs per share, times 1e12.\n    }\n\n    // soul power: our native utility token\n    address private soulAddress;\n    SoulPower public soul;\n    \n    // seance circle: our governance token\n    address private seanceAddress;\n    SeanceCircle public seance;\n\n    address public team; // receives 1/8 soul supply\n    address public dao; // recieves 1/8 soul supply\n    address public supreme; // has supreme role\n\n    // blockchain variables accounting for share of overall emissions\n    uint public totalWeight;\n    uint public weight;\n\n    // soul x day x this.chain\n    uint public dailySoul; // = weight * 250K * 1e18;\n\n    // soul x second x this.chain\n    uint public soulPerSecond; // = dailySoul / 86400;\n\n    // bonus muliplier for early soul summoners\n    uint public bonusMultiplier = 1;\n\n    // timestamp when soul rewards began (initialized)\n    uint public startTime;\n\n    // ttl allocation points | must be the sum of all allocation points\n    uint public totalAllocPoint;\n\n    // summoner initialized state.\n    bool public isInitialized;\n\n    // decay rate on withdrawal fee of 1%.\n    uint public immutable dailyDecay = enWei(1);\n\n    // start rate for the withdrawal fee.\n    uint public startRate;\n\n    Pools[] public poolInfo; // pool info\n    mapping (uint => mapping (address => Users)) public userInfo; // staker data\n\n    // divinated roles\n    bytes32 public isis; // soul summoning goddess of magic\n    bytes32 public maat; // goddess of cosmic order\n\n    event RoleDivinated(bytes32 role, bytes32 supreme);\n\n    // restricted to the council of the role passed as an object to obey (role)\n    modifier obey(bytes32 role) {\n        _checkRole(role, _msgSender());\n        _;\n    }\n\n    // prevents: early reward distribution\n    modifier isSummoned {\n        require(isInitialized, 'rewards have not yet begun');\n        _;\n    }\n\n    event Deposit(address indexed user, uint indexed pid, uint amount);\n    event Withdraw(address indexed user, uint indexed pid, uint amount, uint timeStamp);\n\n    event Initialized(address team, address dao, address soul, address seance, uint totalAllocPoint, uint weight);\n    event PoolAdded(uint pid, uint allocPoint, IERC20 lpToken, uint totalAllocPoint);\n    event PoolSet(uint pid, uint allocPoint);\n\n    event WeightUpdated(uint weight, uint totalWeight);\n    event RewardsUpdated(uint dailySoul, uint soulPerSecond);\n    event StartRateUpdated(uint startRate);\n\n    event AccountsUpdated(address dao, address team, address admin);\n    event TokensUpdated(address soul, address seance);\n    event DepositRevised(uint _pid, address _user, uint _time);\n\n    // validates: pool exists\n    modifier validatePoolByPid(uint pid) {\n        require(pid < poolInfo.length, 'pool does not exist');\n        _;\n    }\n\n    // channels the power of the isis and ma'at to the deployer (deployer)\n    constructor() {\n        supreme = 0x81Dd37687c74Df8F957a370A9A4435D873F5e5A9;    // multi-sig safe\n        team = 0xd0744f7F9f65db946860B974966f83688D4f4630;      // team wallet\n        dao = 0x1C63C726926197BD3CB75d86bCFB1DaeBcD87250;      // dao treasury (multi-sig)\n\n        isis = keccak256(\"isis\"); // goddess of magic who creates pools\n        maat = keccak256(\"maat\"); // goddess of cosmic order who allocates emissions\n\n        _divinationCeremony(DEFAULT_ADMIN_ROLE, DEFAULT_ADMIN_ROLE, supreme);\n        _divinationCeremony(isis, isis, supreme); // isis role created -- supreme divined admin\n        _divinationCeremony(maat, isis, dao); // maat role created -- isis divined admin\n    } \n\n    function _divinationCeremony(bytes32 _role, bytes32 _adminRole, address _account) \n        internal returns (bool) {\n            _setupRole(_role, _account);\n            _setRoleAdmin(_role, _adminRole);\n        return true;\n    }\n\n    // validate: pool uniqueness to eliminate duplication risk (internal view)\n    function checkPoolDuplicate(IERC20 _token) internal view {\n        uint length = poolInfo.length;\n\n        for (uint pid = 0; pid < length; ++pid) {\n            require(poolInfo[pid].lpToken != _token, 'duplicated pool');\n        }\n    }\n\n    // activates: rewards (owner)\n    function initialize() external obey(isis) {\n        require(!isInitialized, 'already initialized');\n\n        soulAddress = 0xe2fb177009FF39F52C0134E8007FA0e4BaAcBd07;\n        seanceAddress = 0x124B06C5ce47De7A6e9EFDA71a946717130079E6;\n\n        // [required]: update global constants\n        startTime = block.timestamp;\n        totalWeight = 1000;\n        weight = 1000;\n        startRate = enWei(14);\n        uint allocPoint = 1000;\n        soul  = SoulPower(soulAddress);\n        seance = SeanceCircle(seanceAddress);\n\n        // updates: dailySoul and soulPerSecond\n        updateRewards(weight, totalWeight); \n\n        // adds: staking pool\n        poolInfo.push(Pools({\n            lpToken: soul,\n            allocPoint: allocPoint,\n            lastRewardTime: startTime,\n            accSoulPerShare: 0\n        }));\n\n        isInitialized = true;           // triggers: initialize state\n        totalAllocPoint += allocPoint; // kickstarts: total allocation\n\n        emit Initialized(team, dao, soulAddress, seanceAddress, totalAllocPoint, weight);\n    }\n\n    // returns: amount of pools\n    function poolLength() external view returns (uint) { return poolInfo.length; }\n\n    // add: new pool (isis)\n    function addPool(uint _allocPoint, IERC20 _lpToken, bool _withUpdate) \n        public isSummoned obey(isis) { // isis: the soul summoning goddess whose power transcends them all\n            checkPoolDuplicate(_lpToken);\n            _addPool(_allocPoint, _lpToken, _withUpdate);\n    }\n\n    // add: new pool (internal)\n    function _addPool(uint _allocPoint, IERC20 _lpToken, bool _withUpdate) internal {\n        if (_withUpdate) { massUpdatePools(); }\n\n        totalAllocPoint += _allocPoint;\n        \n        poolInfo.push(\n        Pools({\n            lpToken: _lpToken,\n            allocPoint: _allocPoint,\n            lastRewardTime: block.timestamp > startTime ? block.timestamp : startTime,\n            accSoulPerShare: 0\n        }));\n        \n        updateStakingPool();\n        uint pid = poolInfo.length;\n\n        emit PoolAdded(pid, _allocPoint, _lpToken, totalAllocPoint);\n    }\n\n    // set: allocation points (maat)\n    function set(uint pid, uint allocPoint, bool withUpdate) \n        external isSummoned validatePoolByPid(pid) obey(maat) {\n            if (withUpdate) { massUpdatePools(); } // updates all pools\n            \n            uint prevAllocPoint = poolInfo[pid].allocPoint;\n            poolInfo[pid].allocPoint = allocPoint;\n            \n            if (prevAllocPoint != allocPoint) {\n                totalAllocPoint = totalAllocPoint - prevAllocPoint + allocPoint;\n                \n                updateStakingPool(); // updates only selected pool\n        }\n\n        emit PoolSet(pid, allocPoint);\n    }\n\n    // view: user delta\n\tfunction userDelta(uint256 _pid, address _user) public view returns (uint256 delta) {\n        Users memory user = userInfo[_pid][_user];\n\n        return user.lastWithdrawTime > 0\n            ? block.timestamp - user.lastWithdrawTime\n            : block.timestamp - user.firstDepositTime;\n\t}\n\n    // view: bonus multiplier (public view)\n    function getMultiplier(uint from, uint to) public view returns (uint) {\n        return (to - from) * bonusMultiplier; // todo: minus parens\n    }\n\n    // returns: decay rate for a pid (public view)\n    function getFeeRate(uint pid, uint timeDelta) public view returns (uint feeRate) {\n        uint daysPassed = timeDelta < 1 days ? 0 : timeDelta / 1 days;\n        uint rateDecayed = enWei(daysPassed);\n        uint _rate = rateDecayed >= startRate ? 0 : startRate - rateDecayed;\n        \n        // returns 0 for SAS\n        return pid == 0 ? 0 : _rate;\n    }\n\n    // returns: feeAmount and with withdrawableAmount for a given pid and amount\n    function getWithdrawable(uint pid, uint timeDelta, uint amount) public view returns (uint _feeAmount, uint _withdrawable) {\n        uint feeRate = fromWei(getFeeRate(pid, timeDelta));\n        uint feeAmount = (amount * feeRate) / 100;\n        uint withdrawable = amount - feeAmount;\n\n        return (feeAmount, withdrawable);\n    }\n\n    // view: pending soul rewards (external)\n    function pendingSoul(uint pid, address _user) external view returns (uint pendingAmount) {\n        Pools storage pool = poolInfo[pid];\n        Users storage user = userInfo[pid][_user];\n\n        uint accSoulPerShare = pool.accSoulPerShare;\n        uint lpSupply = pool.lpToken.balanceOf(address(this));\n\n        if (block.timestamp > pool.lastRewardTime && lpSupply != 0) {\n            uint multiplier = getMultiplier(pool.lastRewardTime, block.timestamp);\n            uint soulReward = multiplier * soulPerSecond * pool.allocPoint / totalAllocPoint;\n            accSoulPerShare = accSoulPerShare + soulReward * 1e12 / lpSupply;\n        }\n\n        return user.amount * accSoulPerShare / 1e12 - user.rewardDebt;\n    }\n\n    // update: rewards for all pools (public)\n    function massUpdatePools() public {\n        uint length = poolInfo.length;\n        for (uint pid = 0; pid < length; ++pid) { updatePool(pid); }\n    }\n\n    // update: rewards for a given pool id (public)\n    function updatePool(uint pid) public validatePoolByPid(pid) {\n        Pools storage pool = poolInfo[pid];\n\n        if (block.timestamp <= pool.lastRewardTime) { return; }\n        uint lpSupply = pool.lpToken.balanceOf(address(this));\n\n        if (lpSupply == 0) { pool.lastRewardTime = block.timestamp; return; } // first staker in pool\n\n        uint multiplier = getMultiplier(pool.lastRewardTime, block.timestamp);\n        uint soulReward = multiplier * soulPerSecond * pool.allocPoint / totalAllocPoint;\n        \n        uint divi = soulReward * 1e12 / 8e12;   // 12.5% rewards\n        uint divis = divi * 2;                  // total divis\n        uint shares = soulReward - divis;       // net shares\n        \n        soul.mint(team, divi);\n        soul.mint(dao, divi);\n        soul.mint(address(seance), shares);\n\n        pool.accSoulPerShare = pool.accSoulPerShare + (soulReward * 1e12 / lpSupply);\n        pool.lastRewardTime = block.timestamp;\n    }\n\n    // deposit: lp tokens (lp owner)\n    function deposit(uint pid, uint amount) external nonReentrant validatePoolByPid(pid) {\n        require (pid != 0, 'deposit SOUL by staking');\n\n        Pools storage pool = poolInfo[pid];\n        Users storage user = userInfo[pid][msg.sender];\n        updatePool(pid);\n\n        if (user.amount > 0) { // already deposited assets\n            uint pending = (user.amount * pool.accSoulPerShare) / 1e12 - user.rewardDebt;\n            if(pending > 0) { // sends pending rewards, if applicable\n                safeSoulTransfer(msg.sender, pending);\n            }\n        }\n\n        if (amount > 0) { // if adding more\n            pool.lpToken.transferFrom(address(msg.sender), address(this), amount);\n            user.amount += amount;\n        }\n\n        user.rewardDebt = user.amount * pool.accSoulPerShare / 1e12;\n\n        // marks timestamp for first deposit\n        user.firstDepositTime = \n            user.firstDepositTime > 0 \n                ? user.firstDepositTime\n                : block.timestamp;\n\n        emit Deposit(msg.sender, pid, amount);\n    }\n\n    // withdraw: lp tokens (external farmers)\n    function withdraw(uint pid, uint amount) external nonReentrant validatePoolByPid(pid) {\n        require (pid != 0, 'withdraw SOUL by unstaking');\n        Pools storage pool = poolInfo[pid];\n        Users storage user = userInfo[pid][msg.sender];\n\n        require(user.amount >= amount, 'withdraw not good');\n        updatePool(pid);\n\n        uint pending = user.amount * pool.accSoulPerShare / 1e12 - user.rewardDebt;\n\n        if(pending > 0) { safeSoulTransfer(msg.sender, pending); }\n\n        if(amount > 0) {\n            if(user.lastDepositTime > 0){\n\t\t\t\tuser.timeDelta = block.timestamp - user.lastDepositTime; }\n\t\t\telse { user.timeDelta = block.timestamp - user.firstDepositTime; }\n            \n            user.amount = user.amount - amount;\n            \n        }\n        \n        uint timeDelta = userInfo[pid][msg.sender].timeDelta;\n        (, uint withdrawable) = getWithdrawable(pid, timeDelta, amount); // removes feeAmount from amount\n        uint feeAmount = amount - withdrawable;\n\n        pool.lpToken.transfer(address(dao), feeAmount);\n        pool.lpToken.transfer(address(msg.sender), withdrawable);\n\n        user.rewardDebt = user.amount * pool.accSoulPerShare / 1e12;\n        user.lastWithdrawTime = block.timestamp;\n\n        emit Withdraw(msg.sender, pid, amount, block.timestamp);\n    }\n\n    // stake: soul into summoner (external)\n    function enterStaking(uint amount) external nonReentrant {\n        Pools storage pool = poolInfo[0];\n        Users storage user = userInfo[0][msg.sender];\n        updatePool(0);\n\n        if (user.amount > 0) {\n            uint pending = user.amount * pool.accSoulPerShare / 1e12 - user.rewardDebt;\n            if(pending > 0) {\n                safeSoulTransfer(msg.sender, pending);\n            }\n        } \n        \n        if(amount > 0) {\n            pool.lpToken.transferFrom(address(msg.sender), address(this), amount);\n            user.amount = user.amount + amount;\n        }\n\n        // marks timestamp for first deposit\n        user.firstDepositTime = \n            user.firstDepositTime > 0 \n                ? user.firstDepositTime\n                : block.timestamp;\n\n        user.rewardDebt = user.amount * pool.accSoulPerShare / 1e12;\n\n        seance.mint(msg.sender, amount);\n        emit Deposit(msg.sender, 0, amount);\n    }\n\n    // unstake: your soul (external staker)\n    function leaveStaking(uint amount) external nonReentrant {\n        Pools storage pool = poolInfo[0];\n        Users storage user = userInfo[0][msg.sender];\n\n        require(user.amount >= amount, \"withdraw: not good\");\n        updatePool(0);\n\n        uint pending = user.amount * pool.accSoulPerShare / 1e12 - user.rewardDebt;\n\n        if(pending > 0) {\n            safeSoulTransfer(msg.sender, pending);\n        }\n\n        if(amount > 0) {\n            user.amount = user.amount - amount;\n            pool.lpToken.transfer(address(msg.sender), amount);\n        }\n\n        user.rewardDebt = user.amount * pool.accSoulPerShare / 1e12;\n        user.lastWithdrawTime = block.timestamp;\n        \n        seance.burn(msg.sender, amount);\n        emit Withdraw(msg.sender, 0, amount, block.timestamp);\n    }\n    \n    // transfer: seance (internal)\n    function safeSoulTransfer(address account, uint amount) internal {\n        seance.safeSoulTransfer(account, amount);\n    }\n\n    // ** UPDATE FUNCTIONS ** // \n\n    // update: weight (maat)\n    function updateWeights(uint _weight, uint _totalWeight) external obey(maat) {\n        require(weight != _weight || totalWeight != _totalWeight, 'must be at least one new value');\n        require(_totalWeight >= _weight, 'weight cannot exceed totalWeight');\n\n        weight = _weight;     \n        totalWeight = _totalWeight;\n\n        updateRewards(weight, totalWeight);\n\n        emit WeightUpdated(weight, totalWeight);\n    }\n\n    // update: staking pool (internal)\n    function updateStakingPool() internal {\n        uint length = poolInfo.length;\n        uint points;\n        \n        for (uint pid = 1; pid < length; ++pid) { \n            points = points + poolInfo[pid].allocPoint; \n        }\n\n        if (points != 0) {\n            points = points / 3;\n            totalAllocPoint = totalAllocPoint - poolInfo[0].allocPoint + points;\n            poolInfo[0].allocPoint = points;\n        }\n    }\n\n    // update: multiplier (maat)\n    function updateMultiplier(uint _bonusMultiplier) external obey(maat) {\n        bonusMultiplier = _bonusMultiplier;\n    }\n\n    // update: rewards (internal)\n    function updateRewards(uint _weight, uint _totalWeight) internal {\n        uint share = enWei(_weight) / _totalWeight; // share of ttl emissions for chain (chain % ttl emissions)\n        \n        dailySoul = share * (250_000); // dailySoul (for this.chain) = share (%) x 250K (soul emissions constant)\n        soulPerSecond = dailySoul / 1 days; // updates: daily rewards expressed in seconds (1 days = 86,400 secs)\n\n        emit RewardsUpdated(dailySoul, soulPerSecond);\n    }\n\n    // update: startRate (maat)\n    function updateStartRate(uint _startRate) public obey(maat) {\n        require(startRate != enWei(_startRate));\n        startRate = enWei(_startRate);\n        \n        emit StartRateUpdated(startRate);\n    }\n\n    // update accounts: dao, team, and supreme addresses (isis)\n    function updateAccounts(address _dao, address _team, address _supreme) external obey(isis) {\n        require(dao != _dao || team != _team || supreme != _supreme, 'must be a new account');\n\n        dao = _dao;\n        team = _team;\n        supreme = _supreme;\n\n        emit AccountsUpdated(dao, team, supreme);\n    }\n\n    // update tokens: soul and seance addresses (isis)\n    function updateTokens(address _soul, address _seance) external obey(isis) {\n        require(soul != IERC20(_soul) || seance != IERC20(_seance), 'must be a new token address');\n\n        soul = SoulPower(_soul);\n        seance = SeanceCircle(_seance);\n\n        emit TokensUpdated(_soul, _seance);\n    }\n\n    // manual override to reassign the first deposit time for a given (pid, account)\n    function reviseDeposit(uint _pid, address _user, uint256 _time) public obey(maat) {\n        Users storage user = userInfo[_pid][_user];\n        user.firstDepositTime = _time;\n\n        emit DepositRevised(_pid, _user, _time);\n\t}\n\n    // ** HELPER FUNCTIONS ** // \n\n    // helper functions to convert to wei and 1/100th\n    function enWei(uint amount) public pure returns (uint) {  return amount * 1e18; }\n    function fromWei(uint amount) public pure returns (uint) { return amount / 1e18; }\n}\n",
  "sourcePath": "/Users/buns/Documents/GitHub/SoulSwapFinance/soulswap-farms/contracts/rewards/SoulSummonerFantomV2.sol",
  "compiler": {
    "name": "solc",
    "version": "0.8.0+commit.c7dfd78e.Emscripten.clang"
  },
  "schemaVersion": "3.4.1",
  "updatedAt": "2022-09-19T21:23:15.662Z",
  "devdoc": {
    "kind": "dev",
    "methods": {
      "getRoleAdmin(bytes32)": {
        "details": "Returns the admin role that controls `role`. See {grantRole} and {revokeRole}. To change a role's admin, use {_setRoleAdmin}."
      },
      "grantRole(bytes32,address)": {
        "details": "Grants `role` to `account`. If `account` had not been already granted `role`, emits a {RoleGranted} event. Requirements: - the caller must have ``role``'s admin role."
      },
      "hasRole(bytes32,address)": {
        "details": "Returns `true` if `account` has been granted `role`."
      },
      "renounceRole(bytes32,address)": {
        "details": "Revokes `role` from the calling account. Roles are often managed via {grantRole} and {revokeRole}: this function's purpose is to provide a mechanism for accounts to lose their privileges if they are compromised (such as when a trusted device is misplaced). If the calling account had been granted `role`, emits a {RoleRevoked} event. Requirements: - the caller must be `account`."
      },
      "revokeRole(bytes32,address)": {
        "details": "Revokes `role` from `account`. If `account` had been granted `role`, emits a {RoleRevoked} event. Requirements: - the caller must have ``role``'s admin role."
      },
      "supportsInterface(bytes4)": {
        "details": "See {IERC165-supportsInterface}."
      }
    },
    "version": 1
  },
  "userdoc": {
    "kind": "user",
    "methods": {},
    "version": 1
  }
}