{
  "contractName": "SoulSummoner",
  "abi": [
    {
      "inputs": [],
      "stateMutability": "nonpayable",
      "type": "constructor"
    },
    {
      "anonymous": false,
      "inputs": [
        {
          "indexed": false,
          "internalType": "address",
          "name": "dao",
          "type": "address"
        },
        {
          "indexed": false,
          "internalType": "address",
          "name": "team",
          "type": "address"
        }
      ],
      "name": "AccountsUpdated",
      "type": "event"
    },
    {
      "anonymous": false,
      "inputs": [
        {
          "indexed": true,
          "internalType": "address",
          "name": "user",
          "type": "address"
        },
        {
          "indexed": true,
          "internalType": "uint256",
          "name": "pid",
          "type": "uint256"
        },
        {
          "indexed": false,
          "internalType": "uint256",
          "name": "amount",
          "type": "uint256"
        }
      ],
      "name": "Deposit",
      "type": "event"
    },
    {
      "anonymous": false,
      "inputs": [
        {
          "indexed": false,
          "internalType": "address",
          "name": "team",
          "type": "address"
        },
        {
          "indexed": false,
          "internalType": "address",
          "name": "dao",
          "type": "address"
        },
        {
          "indexed": false,
          "internalType": "address",
          "name": "soul",
          "type": "address"
        },
        {
          "indexed": false,
          "internalType": "address",
          "name": "seance",
          "type": "address"
        },
        {
          "indexed": false,
          "internalType": "uint256",
          "name": "totalAllocPoint",
          "type": "uint256"
        },
        {
          "indexed": false,
          "internalType": "uint256",
          "name": "weight",
          "type": "uint256"
        }
      ],
      "name": "Initialized",
      "type": "event"
    },
    {
      "anonymous": false,
      "inputs": [
        {
          "indexed": true,
          "internalType": "address",
          "name": "previousOwner",
          "type": "address"
        },
        {
          "indexed": true,
          "internalType": "address",
          "name": "newOwner",
          "type": "address"
        }
      ],
      "name": "OwnershipTransferred",
      "type": "event"
    },
    {
      "anonymous": false,
      "inputs": [
        {
          "indexed": false,
          "internalType": "address",
          "name": "account",
          "type": "address"
        }
      ],
      "name": "Paused",
      "type": "event"
    },
    {
      "anonymous": false,
      "inputs": [
        {
          "indexed": false,
          "internalType": "uint256",
          "name": "pid",
          "type": "uint256"
        },
        {
          "indexed": false,
          "internalType": "uint256",
          "name": "allocPoint",
          "type": "uint256"
        },
        {
          "indexed": false,
          "internalType": "contract IERC20",
          "name": "lpToken",
          "type": "address"
        },
        {
          "indexed": false,
          "internalType": "uint256",
          "name": "totalAllocPoint",
          "type": "uint256"
        }
      ],
      "name": "PoolAdded",
      "type": "event"
    },
    {
      "anonymous": false,
      "inputs": [
        {
          "indexed": false,
          "internalType": "uint256",
          "name": "pid",
          "type": "uint256"
        },
        {
          "indexed": false,
          "internalType": "uint256",
          "name": "allocPoint",
          "type": "uint256"
        }
      ],
      "name": "PoolSet",
      "type": "event"
    },
    {
      "anonymous": false,
      "inputs": [
        {
          "indexed": false,
          "internalType": "uint256",
          "name": "dailySoul",
          "type": "uint256"
        },
        {
          "indexed": false,
          "internalType": "uint256",
          "name": "soulPerSecond",
          "type": "uint256"
        }
      ],
      "name": "RewardsUpdated",
      "type": "event"
    },
    {
      "anonymous": false,
      "inputs": [
        {
          "indexed": true,
          "internalType": "bytes32",
          "name": "role",
          "type": "bytes32"
        },
        {
          "indexed": true,
          "internalType": "bytes32",
          "name": "previousAdminRole",
          "type": "bytes32"
        },
        {
          "indexed": true,
          "internalType": "bytes32",
          "name": "newAdminRole",
          "type": "bytes32"
        }
      ],
      "name": "RoleAdminChanged",
      "type": "event"
    },
    {
      "anonymous": false,
      "inputs": [
        {
          "indexed": false,
          "internalType": "bytes32",
          "name": "role",
          "type": "bytes32"
        },
        {
          "indexed": false,
          "internalType": "bytes32",
          "name": "supreme",
          "type": "bytes32"
        }
      ],
      "name": "RoleDivinated",
      "type": "event"
    },
    {
      "anonymous": false,
      "inputs": [
        {
          "indexed": true,
          "internalType": "bytes32",
          "name": "role",
          "type": "bytes32"
        },
        {
          "indexed": true,
          "internalType": "address",
          "name": "account",
          "type": "address"
        },
        {
          "indexed": true,
          "internalType": "address",
          "name": "sender",
          "type": "address"
        }
      ],
      "name": "RoleGranted",
      "type": "event"
    },
    {
      "anonymous": false,
      "inputs": [
        {
          "indexed": true,
          "internalType": "bytes32",
          "name": "role",
          "type": "bytes32"
        },
        {
          "indexed": true,
          "internalType": "address",
          "name": "account",
          "type": "address"
        },
        {
          "indexed": true,
          "internalType": "address",
          "name": "sender",
          "type": "address"
        }
      ],
      "name": "RoleRevoked",
      "type": "event"
    },
    {
      "anonymous": false,
      "inputs": [
        {
          "indexed": false,
          "internalType": "address",
          "name": "soul",
          "type": "address"
        },
        {
          "indexed": false,
          "internalType": "address",
          "name": "seance",
          "type": "address"
        }
      ],
      "name": "TokensUpdated",
      "type": "event"
    },
    {
      "anonymous": false,
      "inputs": [
        {
          "indexed": false,
          "internalType": "address",
          "name": "account",
          "type": "address"
        }
      ],
      "name": "Unpaused",
      "type": "event"
    },
    {
      "anonymous": false,
      "inputs": [
        {
          "indexed": false,
          "internalType": "uint256",
          "name": "weight",
          "type": "uint256"
        },
        {
          "indexed": false,
          "internalType": "uint256",
          "name": "totalWeight",
          "type": "uint256"
        }
      ],
      "name": "WeightUpdated",
      "type": "event"
    },
    {
      "anonymous": false,
      "inputs": [
        {
          "indexed": true,
          "internalType": "address",
          "name": "user",
          "type": "address"
        },
        {
          "indexed": true,
          "internalType": "uint256",
          "name": "pid",
          "type": "uint256"
        },
        {
          "indexed": false,
          "internalType": "uint256",
          "name": "amount",
          "type": "uint256"
        },
        {
          "indexed": false,
          "internalType": "uint256",
          "name": "timeStamp",
          "type": "uint256"
        }
      ],
      "name": "Withdraw",
      "type": "event"
    },
    {
      "inputs": [],
      "name": "DEFAULT_ADMIN_ROLE",
      "outputs": [
        {
          "internalType": "bytes32",
          "name": "",
          "type": "bytes32"
        }
      ],
      "stateMutability": "view",
      "type": "function"
    },
    {
      "inputs": [],
      "name": "bonusMultiplier",
      "outputs": [
        {
          "internalType": "uint256",
          "name": "",
          "type": "uint256"
        }
      ],
      "stateMutability": "view",
      "type": "function"
    },
    {
      "inputs": [],
      "name": "dailyDecay",
      "outputs": [
        {
          "internalType": "uint256",
          "name": "",
          "type": "uint256"
        }
      ],
      "stateMutability": "view",
      "type": "function"
    },
    {
      "inputs": [],
      "name": "dailySoul",
      "outputs": [
        {
          "internalType": "uint256",
          "name": "",
          "type": "uint256"
        }
      ],
      "stateMutability": "view",
      "type": "function"
    },
    {
      "inputs": [],
      "name": "dao",
      "outputs": [
        {
          "internalType": "address",
          "name": "",
          "type": "address"
        }
      ],
      "stateMutability": "view",
      "type": "function"
    },
    {
      "inputs": [
        {
          "internalType": "bytes32",
          "name": "role",
          "type": "bytes32"
        }
      ],
      "name": "getRoleAdmin",
      "outputs": [
        {
          "internalType": "bytes32",
          "name": "",
          "type": "bytes32"
        }
      ],
      "stateMutability": "view",
      "type": "function"
    },
    {
      "inputs": [
        {
          "internalType": "bytes32",
          "name": "role",
          "type": "bytes32"
        },
        {
          "internalType": "address",
          "name": "account",
          "type": "address"
        }
      ],
      "name": "grantRole",
      "outputs": [],
      "stateMutability": "nonpayable",
      "type": "function"
    },
    {
      "inputs": [
        {
          "internalType": "bytes32",
          "name": "role",
          "type": "bytes32"
        },
        {
          "internalType": "address",
          "name": "account",
          "type": "address"
        }
      ],
      "name": "hasRole",
      "outputs": [
        {
          "internalType": "bool",
          "name": "",
          "type": "bool"
        }
      ],
      "stateMutability": "view",
      "type": "function"
    },
    {
      "inputs": [],
      "name": "isInitialized",
      "outputs": [
        {
          "internalType": "bool",
          "name": "",
          "type": "bool"
        }
      ],
      "stateMutability": "view",
      "type": "function"
    },
    {
      "inputs": [],
      "name": "isis",
      "outputs": [
        {
          "internalType": "bytes32",
          "name": "",
          "type": "bytes32"
        }
      ],
      "stateMutability": "view",
      "type": "function"
    },
    {
      "inputs": [],
      "name": "maat",
      "outputs": [
        {
          "internalType": "bytes32",
          "name": "",
          "type": "bytes32"
        }
      ],
      "stateMutability": "view",
      "type": "function"
    },
    {
      "inputs": [],
      "name": "migrator",
      "outputs": [
        {
          "internalType": "contract IMigrator",
          "name": "",
          "type": "address"
        }
      ],
      "stateMutability": "view",
      "type": "function"
    },
    {
      "inputs": [],
      "name": "owner",
      "outputs": [
        {
          "internalType": "address",
          "name": "",
          "type": "address"
        }
      ],
      "stateMutability": "view",
      "type": "function"
    },
    {
      "inputs": [],
      "name": "paused",
      "outputs": [
        {
          "internalType": "bool",
          "name": "",
          "type": "bool"
        }
      ],
      "stateMutability": "view",
      "type": "function"
    },
    {
      "inputs": [
        {
          "internalType": "uint256",
          "name": "",
          "type": "uint256"
        }
      ],
      "name": "poolInfo",
      "outputs": [
        {
          "internalType": "contract IERC20",
          "name": "lpToken",
          "type": "address"
        },
        {
          "internalType": "uint256",
          "name": "allocPoint",
          "type": "uint256"
        },
        {
          "internalType": "uint256",
          "name": "lastRewardTime",
          "type": "uint256"
        },
        {
          "internalType": "uint256",
          "name": "accSoulPerShare",
          "type": "uint256"
        }
      ],
      "stateMutability": "view",
      "type": "function"
    },
    {
      "inputs": [],
      "name": "renounceOwnership",
      "outputs": [],
      "stateMutability": "nonpayable",
      "type": "function"
    },
    {
      "inputs": [
        {
          "internalType": "bytes32",
          "name": "role",
          "type": "bytes32"
        },
        {
          "internalType": "address",
          "name": "account",
          "type": "address"
        }
      ],
      "name": "renounceRole",
      "outputs": [],
      "stateMutability": "nonpayable",
      "type": "function"
    },
    {
      "inputs": [
        {
          "internalType": "bytes32",
          "name": "role",
          "type": "bytes32"
        },
        {
          "internalType": "address",
          "name": "account",
          "type": "address"
        }
      ],
      "name": "revokeRole",
      "outputs": [],
      "stateMutability": "nonpayable",
      "type": "function"
    },
    {
      "inputs": [],
      "name": "seance",
      "outputs": [
        {
          "internalType": "contract SeanceCircle",
          "name": "",
          "type": "address"
        }
      ],
      "stateMutability": "view",
      "type": "function"
    },
    {
      "inputs": [],
      "name": "soul",
      "outputs": [
        {
          "internalType": "contract SoulPower",
          "name": "",
          "type": "address"
        }
      ],
      "stateMutability": "view",
      "type": "function"
    },
    {
      "inputs": [],
      "name": "soulPerSecond",
      "outputs": [
        {
          "internalType": "uint256",
          "name": "",
          "type": "uint256"
        }
      ],
      "stateMutability": "view",
      "type": "function"
    },
    {
      "inputs": [],
      "name": "startRate",
      "outputs": [
        {
          "internalType": "uint256",
          "name": "",
          "type": "uint256"
        }
      ],
      "stateMutability": "view",
      "type": "function"
    },
    {
      "inputs": [],
      "name": "startTime",
      "outputs": [
        {
          "internalType": "uint256",
          "name": "",
          "type": "uint256"
        }
      ],
      "stateMutability": "view",
      "type": "function"
    },
    {
      "inputs": [
        {
          "internalType": "bytes4",
          "name": "interfaceId",
          "type": "bytes4"
        }
      ],
      "name": "supportsInterface",
      "outputs": [
        {
          "internalType": "bool",
          "name": "",
          "type": "bool"
        }
      ],
      "stateMutability": "view",
      "type": "function"
    },
    {
      "inputs": [],
      "name": "team",
      "outputs": [
        {
          "internalType": "address",
          "name": "",
          "type": "address"
        }
      ],
      "stateMutability": "view",
      "type": "function"
    },
    {
      "inputs": [],
      "name": "totalAllocPoint",
      "outputs": [
        {
          "internalType": "uint256",
          "name": "",
          "type": "uint256"
        }
      ],
      "stateMutability": "view",
      "type": "function"
    },
    {
      "inputs": [],
      "name": "totalWeight",
      "outputs": [
        {
          "internalType": "uint256",
          "name": "",
          "type": "uint256"
        }
      ],
      "stateMutability": "view",
      "type": "function"
    },
    {
      "inputs": [
        {
          "internalType": "address",
          "name": "newOwner",
          "type": "address"
        }
      ],
      "name": "transferOwnership",
      "outputs": [],
      "stateMutability": "nonpayable",
      "type": "function"
    },
    {
      "inputs": [
        {
          "internalType": "uint256",
          "name": "",
          "type": "uint256"
        },
        {
          "internalType": "address",
          "name": "",
          "type": "address"
        }
      ],
      "name": "userInfo",
      "outputs": [
        {
          "internalType": "uint256",
          "name": "amount",
          "type": "uint256"
        },
        {
          "internalType": "uint256",
          "name": "rewardDebt",
          "type": "uint256"
        },
        {
          "internalType": "uint256",
          "name": "rewardDebtAtTime",
          "type": "uint256"
        },
        {
          "internalType": "uint256",
          "name": "lastWithdrawTime",
          "type": "uint256"
        },
        {
          "internalType": "uint256",
          "name": "firstDepositTime",
          "type": "uint256"
        },
        {
          "internalType": "uint256",
          "name": "timeDelta",
          "type": "uint256"
        },
        {
          "internalType": "uint256",
          "name": "lastDepositTime",
          "type": "uint256"
        }
      ],
      "stateMutability": "view",
      "type": "function"
    },
    {
      "inputs": [],
      "name": "weight",
      "outputs": [
        {
          "internalType": "uint256",
          "name": "",
          "type": "uint256"
        }
      ],
      "stateMutability": "view",
      "type": "function"
    },
    {
      "inputs": [
        {
          "internalType": "bytes32",
          "name": "role",
          "type": "bytes32"
        }
      ],
      "name": "hasDivineRole",
      "outputs": [
        {
          "internalType": "bool",
          "name": "",
          "type": "bool"
        }
      ],
      "stateMutability": "view",
      "type": "function"
    },
    {
      "inputs": [
        {
          "internalType": "address",
          "name": "_soulAddress",
          "type": "address"
        },
        {
          "internalType": "address",
          "name": "_seanceAddress",
          "type": "address"
        },
        {
          "internalType": "uint256",
          "name": "_totalWeight",
          "type": "uint256"
        },
        {
          "internalType": "uint256",
          "name": "_weight",
          "type": "uint256"
        },
        {
          "internalType": "uint256",
          "name": "_stakingAlloc",
          "type": "uint256"
        },
        {
          "internalType": "uint256",
          "name": "_startRate",
          "type": "uint256"
        },
        {
          "internalType": "uint256",
          "name": "_dailyDecay",
          "type": "uint256"
        }
      ],
      "name": "initialize",
      "outputs": [],
      "stateMutability": "nonpayable",
      "type": "function"
    },
    {
      "inputs": [
        {
          "internalType": "uint256",
          "name": "_bonusMultiplier",
          "type": "uint256"
        }
      ],
      "name": "updateMultiplier",
      "outputs": [],
      "stateMutability": "nonpayable",
      "type": "function"
    },
    {
      "inputs": [],
      "name": "poolLength",
      "outputs": [
        {
          "internalType": "uint256",
          "name": "",
          "type": "uint256"
        }
      ],
      "stateMutability": "view",
      "type": "function"
    },
    {
      "inputs": [
        {
          "internalType": "uint256",
          "name": "_allocPoint",
          "type": "uint256"
        },
        {
          "internalType": "contract IERC20",
          "name": "_lpToken",
          "type": "address"
        },
        {
          "internalType": "bool",
          "name": "_withUpdate",
          "type": "bool"
        }
      ],
      "name": "addPool",
      "outputs": [],
      "stateMutability": "nonpayable",
      "type": "function"
    },
    {
      "inputs": [
        {
          "internalType": "uint256",
          "name": "pid",
          "type": "uint256"
        },
        {
          "internalType": "uint256",
          "name": "allocPoint",
          "type": "uint256"
        },
        {
          "internalType": "bool",
          "name": "withUpdate",
          "type": "bool"
        }
      ],
      "name": "set",
      "outputs": [],
      "stateMutability": "nonpayable",
      "type": "function"
    },
    {
      "inputs": [
        {
          "internalType": "uint256",
          "name": "_weight",
          "type": "uint256"
        }
      ],
      "name": "updateWeight",
      "outputs": [],
      "stateMutability": "nonpayable",
      "type": "function"
    },
    {
      "inputs": [
        {
          "internalType": "contract IMigrator",
          "name": "_migrator",
          "type": "address"
        }
      ],
      "name": "setMigrator",
      "outputs": [],
      "stateMutability": "nonpayable",
      "type": "function"
    },
    {
      "inputs": [
        {
          "internalType": "uint256",
          "name": "_pid",
          "type": "uint256"
        }
      ],
      "name": "userDelta",
      "outputs": [
        {
          "internalType": "uint256",
          "name": "",
          "type": "uint256"
        }
      ],
      "stateMutability": "view",
      "type": "function"
    },
    {
      "inputs": [
        {
          "internalType": "uint256",
          "name": "pid",
          "type": "uint256"
        }
      ],
      "name": "migrate",
      "outputs": [],
      "stateMutability": "nonpayable",
      "type": "function"
    },
    {
      "inputs": [
        {
          "internalType": "uint256",
          "name": "from",
          "type": "uint256"
        },
        {
          "internalType": "uint256",
          "name": "to",
          "type": "uint256"
        }
      ],
      "name": "getMultiplier",
      "outputs": [
        {
          "internalType": "uint256",
          "name": "",
          "type": "uint256"
        }
      ],
      "stateMutability": "view",
      "type": "function"
    },
    {
      "inputs": [
        {
          "internalType": "uint256",
          "name": "pid",
          "type": "uint256"
        }
      ],
      "name": "getFee",
      "outputs": [
        {
          "internalType": "uint256",
          "name": "",
          "type": "uint256"
        }
      ],
      "stateMutability": "view",
      "type": "function"
    },
    {
      "inputs": [
        {
          "internalType": "uint256",
          "name": "pid",
          "type": "uint256"
        }
      ],
      "name": "timeUntilNextDecrease",
      "outputs": [
        {
          "internalType": "uint256",
          "name": "",
          "type": "uint256"
        }
      ],
      "stateMutability": "view",
      "type": "function"
    },
    {
      "inputs": [
        {
          "internalType": "uint256",
          "name": "pid",
          "type": "uint256"
        },
        {
          "internalType": "uint256",
          "name": "amount",
          "type": "uint256"
        }
      ],
      "name": "getWithdrawable",
      "outputs": [
        {
          "internalType": "uint256",
          "name": "fee",
          "type": "uint256"
        },
        {
          "internalType": "uint256",
          "name": "withdrawable",
          "type": "uint256"
        }
      ],
      "stateMutability": "view",
      "type": "function"
    },
    {
      "inputs": [
        {
          "internalType": "uint256",
          "name": "pid",
          "type": "uint256"
        },
        {
          "internalType": "address",
          "name": "_user",
          "type": "address"
        }
      ],
      "name": "pendingSoul",
      "outputs": [
        {
          "internalType": "uint256",
          "name": "pendingAmount",
          "type": "uint256"
        }
      ],
      "stateMutability": "view",
      "type": "function"
    },
    {
      "inputs": [],
      "name": "massUpdatePools",
      "outputs": [],
      "stateMutability": "nonpayable",
      "type": "function"
    },
    {
      "inputs": [
        {
          "internalType": "uint256",
          "name": "pid",
          "type": "uint256"
        }
      ],
      "name": "updatePool",
      "outputs": [],
      "stateMutability": "nonpayable",
      "type": "function"
    },
    {
      "inputs": [
        {
          "internalType": "uint256",
          "name": "pid",
          "type": "uint256"
        },
        {
          "internalType": "uint256",
          "name": "amount",
          "type": "uint256"
        }
      ],
      "name": "deposit",
      "outputs": [],
      "stateMutability": "nonpayable",
      "type": "function"
    },
    {
      "inputs": [
        {
          "internalType": "uint256",
          "name": "pid",
          "type": "uint256"
        },
        {
          "internalType": "uint256",
          "name": "amount",
          "type": "uint256"
        }
      ],
      "name": "withdraw",
      "outputs": [],
      "stateMutability": "nonpayable",
      "type": "function"
    },
    {
      "inputs": [
        {
          "internalType": "uint256",
          "name": "amount",
          "type": "uint256"
        }
      ],
      "name": "enterStaking",
      "outputs": [],
      "stateMutability": "nonpayable",
      "type": "function"
    },
    {
      "inputs": [
        {
          "internalType": "uint256",
          "name": "amount",
          "type": "uint256"
        }
      ],
      "name": "leaveStaking",
      "outputs": [],
      "stateMutability": "nonpayable",
      "type": "function"
    },
    {
      "inputs": [
        {
          "internalType": "address",
          "name": "_dao",
          "type": "address"
        },
        {
          "internalType": "address",
          "name": "_team",
          "type": "address"
        }
      ],
      "name": "updateAccounts",
      "outputs": [],
      "stateMutability": "nonpayable",
      "type": "function"
    },
    {
      "inputs": [
        {
          "internalType": "address",
          "name": "_soul",
          "type": "address"
        },
        {
          "internalType": "address",
          "name": "_seance",
          "type": "address"
        }
      ],
      "name": "updateTokens",
      "outputs": [],
      "stateMutability": "nonpayable",
      "type": "function"
    },
    {
      "inputs": [
        {
          "internalType": "uint256",
          "name": "_pid",
          "type": "uint256"
        },
        {
          "internalType": "address",
          "name": "_user",
          "type": "address"
        },
        {
          "internalType": "uint256",
          "name": "_time",
          "type": "uint256"
        }
      ],
      "name": "reviseDeposit",
      "outputs": [],
      "stateMutability": "nonpayable",
      "type": "function"
    },
    {
      "inputs": [
        {
          "internalType": "uint256",
          "name": "amount",
          "type": "uint256"
        }
      ],
      "name": "enWei",
      "outputs": [
        {
          "internalType": "uint256",
          "name": "",
          "type": "uint256"
        }
      ],
      "stateMutability": "pure",
      "type": "function"
    },
    {
      "inputs": [
        {
          "internalType": "uint256",
          "name": "amount",
          "type": "uint256"
        }
      ],
      "name": "oneHundreth",
      "outputs": [
        {
          "internalType": "uint256",
          "name": "",
          "type": "uint256"
        }
      ],
      "stateMutability": "pure",
      "type": "function"
    }
  ],
  "bytecode": "0x60806040526001600e553480156200001657600080fd5b50620000376200002b620001e060201b60201c565b620001e860201b60201c565b6000600160146101000a81548160ff021916908315150217905550600160028190555033600760006101000a81548173ffffffffffffffffffffffffffffffffffffffff021916908373ffffffffffffffffffffffffffffffffffffffff16021790555033600860006101000a81548173ffffffffffffffffffffffffffffffffffffffff021916908373ffffffffffffffffffffffffffffffffffffffff1602179055507f36d5d8406f8379c6deba01145ec4f6a2966675cc67d71355b397a2a8e3572b296016819055507f0811b25c145e1379dc78112dd91057f09150f6db05dfd7e04deb910e6cefd4b7601781905550620001656000801b6000801b600760009054906101000a900473ffffffffffffffffffffffffffffffffffffffff16620002ae60201b60201c565b506200019f601654601654600760009054906101000a900473ffffffffffffffffffffffffffffffffffffffff16620002ae60201b60201c565b50620001d9601754601654600860009054906101000a900473ffffffffffffffffffffffffffffffffffffffff16620002ae60201b60201c565b50620004d2565b600033905090565b6000600160009054906101000a900473ffffffffffffffffffffffffffffffffffffffff16905081600160006101000a81548173ffffffffffffffffffffffffffffffffffffffff021916908373ffffffffffffffffffffffffffffffffffffffff1602179055508173ffffffffffffffffffffffffffffffffffffffff168173ffffffffffffffffffffffffffffffffffffffff167f8be0079c531659141344cd1fd0a4f28419497f9722a3daafe3b4186f6b6457e060405160405180910390a35050565b6000620002c28483620002df60201b60201c565b620002d48484620002f560201b60201c565b600190509392505050565b620002f182826200035860201b60201c565b5050565b600062000308836200044960201b60201c565b905081600080858152602001908152602001600020600101819055508181847fbd79b86ffe0ab8e8776151514217cd7cacd52c909f66475c3af44e129f0b00ff60405160405180910390a4505050565b6200036a82826200046860201b60201c565b6200044557600160008084815260200190815260200160002060000160008373ffffffffffffffffffffffffffffffffffffffff1673ffffffffffffffffffffffffffffffffffffffff16815260200190815260200160002060006101000a81548160ff021916908315150217905550620003ea620001e060201b60201c565b73ffffffffffffffffffffffffffffffffffffffff168173ffffffffffffffffffffffffffffffffffffffff16837f2f8788117e7eff1d82e926ec794901d17c78024a50270940304540a733656f0d60405160405180910390a45b5050565b6000806000838152602001908152602001600020600101549050919050565b600080600084815260200190815260200160002060000160008373ffffffffffffffffffffffffffffffffffffffff1673ffffffffffffffffffffffffffffffffffffffff16815260200190815260200160002060009054906101000a900460ff16905092915050565b61599880620004e26000396000f3fe608060405234801561001057600080fd5b50600436106103785760003560e01c8063815b7a8c116101d3578063d547741f11610104578063ec3df6ad116100a2578063fb60dc181161007c578063fb60dc1814610a29578063fc90fdc014610a59578063fcee45f414610a77578063fd6f99d014610aa757610378565b8063ec3df6ad146109d5578063edbf4ac2146109f1578063f2fde38b14610a0d57610378565b8063e13e8ec2116100de578063e13e8ec214610963578063e2bbb1581461097f578063e7aa29e31461099b578063ea4bf446146109b757610378565b8063d547741f146108e7578063da755b4b14610903578063dbaef9b01461093357610378565b806393f1a40b11610171578063a217fddf1161014b578063a217fddf1461084b578063a8b973a114610869578063bfafcad514610887578063cf94ee96146108b757610378565b806393f1a40b146107d957806396c82e571461080f578063a1aab33f1461082d57610378565b80638da5cb5b116101ad5780638da5cb5b1461072a5780638dbb1e3a1461074857806390fb575b1461077857806391d14854146107a957610378565b8063815b7a8c146106d257806382386d58146106f057806385f2aef21461070c57610378565b8063441a3e70116102ad578063630b5ba11161024b57806378e979251161022557806378e979251461065c5780637abceffd1461067a5780637cd07e47146106965780637d500ec8146106b457610378565b8063630b5ba11461062c57806364482f7914610636578063715018a61461065257610378565b806351eb05a61161028757806351eb05a6146105b85780635c975abb146105d45780635f9bf689146105f25780635ffe61461461061057610378565b8063441a3e7014610562578063454b06081461057e5780634ca01d451461059a57610378565b806323cf31181161031a57806336568abe116102f457806336568abe146104ee578063392e53cd1461050a57806341441d3b146105285780634162169f1461054457610378565b806323cf311814610486578063248a9ca3146104a25780632f2ff15d146104d257610378565b80631058d281116103565780631058d281146103fb5780631254f0dc146104175780631526fe271461043557806317caf6f11461046857610378565b806301ffc9a71461037d578063081e3eda146103ad57806309ae4d2c146103cb575b600080fd5b610397600480360381019061039291906146fe565b610ac5565b6040516103a491906150dd565b60405180910390f35b6103b5610b3f565b6040516103c29190615446565b60405180910390f35b6103e560048036038101906103e09190614779565b610b4c565b6040516103f29190615446565b60405180910390f35b61041560048036038101906104109190614779565b610beb565b005b61041f610f63565b60405161042c9190615446565b60405180910390f35b61044f600480360381019061044a9190614779565b610f69565b60405161045f949392919061512e565b60405180910390f35b610470610fc9565b60405161047d9190615446565b60405180910390f35b6104a0600480360381019061049b9190614750565b610fcf565b005b6104bc60048036038101906104b79190614699565b611077565b6040516104c991906150f8565b60405180910390f35b6104ec60048036038101906104e791906146c2565b611096565b005b610508600480360381019061050391906146c2565b6110bf565b005b610512611142565b60405161051f91906150dd565b60405180910390f35b610542600480360381019061053d9190614779565b611155565b005b61054c6114dc565b6040516105599190614fd8565b60405180910390f35b61057c600480360381019061057791906148a5565b611502565b005b61059860048036038101906105939190614779565b6118d2565b005b6105a2611d73565b6040516105af919061518e565b60405180910390f35b6105d260048036038101906105cd9190614779565b611d99565b005b6105dc6121ea565b6040516105e991906150dd565b60405180910390f35b6105fa612201565b6040516106079190615446565b60405180910390f35b61062a60048036038101906106259190614779565b612207565b005b610634612226565b005b610650600480360381019061064b91906148e1565b612259565b005b61065a612423565b005b6106646124ab565b6040516106719190615446565b60405180910390f35b610694600480360381019061068f9190614856565b6124b1565b005b61069e61252e565b6040516106ab9190615173565b60405180910390f35b6106bc612554565b6040516106c99190615446565b60405180910390f35b6106da61255a565b6040516106e791906151a9565b60405180910390f35b61070a60048036038101906107059190614807565b612580565b005b6107146125f8565b6040516107219190614fd8565b60405180910390f35b61073261261e565b60405161073f9190614fd8565b60405180910390f35b610762600480360381019061075d91906148a5565b612648565b60405161076f9190615446565b60405180910390f35b610792600480360381019061078d91906148a5565b61266b565b6040516107a0929190615461565b60405180910390f35b6107c360048036038101906107be91906146c2565b61269a565b6040516107d091906150dd565b60405180910390f35b6107f360048036038101906107ee91906147cb565b612704565b60405161080697969594939291906154cf565b60405180910390f35b610817612753565b6040516108249190615446565b60405180910390f35b610835612759565b6040516108429190615446565b60405180910390f35b61085361275f565b60405161086091906150f8565b60405180910390f35b610871612766565b60405161087e9190615446565b60405180910390f35b6108a1600480360381019061089c91906147cb565b61276c565b6040516108ae9190615446565b60405180910390f35b6108d160048036038101906108cc9190614779565b612987565b6040516108de9190615446565b60405180910390f35b61090160048036038101906108fc91906146c2565b6129a4565b005b61091d60048036038101906109189190614779565b6129cd565b60405161092a9190615446565b60405180910390f35b61094d60048036038101906109489190614699565b612a76565b60405161095a91906150dd565b60405180910390f35b61097d60048036038101906109789190614596565b612a89565b005b610999600480360381019061099491906148a5565b612c8b565b005b6109b560048036038101906109b09190614596565b613035565b005b6109bf6131f3565b6040516109cc91906150f8565b60405180910390f35b6109ef60048036038101906109ea9190614779565b6131f9565b005b610a0b6004803603810190610a0691906145d2565b613365565b005b610a276004803603810190610a22919061456d565b61375c565b005b610a436004803603810190610a3e9190614779565b613854565b604051610a509190615446565b60405180910390f35b610a61613870565b604051610a6e9190615446565b60405180910390f35b610a916004803603810190610a8c9190614779565b613876565b604051610a9e9190615446565b60405180910390f35b610aaf613930565b604051610abc91906150f8565b60405180910390f35b60007f7965db0b000000000000000000000000000000000000000000000000000000007bffffffffffffffffffffffffffffffffffffffffffffffffffffffff1916827bffffffffffffffffffffffffffffffffffffffffffffffffffffffff19161480610b385750610b3782613936565b5b9050919050565b6000601480549050905090565b6000806015600084815260200190815260200160002060003373ffffffffffffffffffffffffffffffffffffffff1673ffffffffffffffffffffffffffffffffffffffff1681526020019081526020016000209050600081600301541115610bcc576000816003015443610bc09190615646565b90508092505050610be6565b6000816004015443610bde9190615646565b905080925050505b919050565b600280541415610c30576040517f08c379a0000000000000000000000000000000000000000000000000000000008152600401610c27906153c6565b60405180910390fd5b6002808190555060006014600081548110610c74577f4e487b7100000000000000000000000000000000000000000000000000000000600052603260045260246000fd5b9060005260206000209060040201905060006015600080815260200190815260200160002060003373ffffffffffffffffffffffffffffffffffffffff1673ffffffffffffffffffffffffffffffffffffffff16815260200190815260200160002090508281600001541015610d1f576040517f08c379a0000000000000000000000000000000000000000000000000000000008152600401610d1690615366565b60405180910390fd5b610d296000611d99565b6000816001015464e8d4a5100084600301548460000154610d4a91906155ec565b610d5491906155bb565b610d5e9190615646565b90506000811115610d7457610d7333826139a0565b5b6000841115610e4857838260000154610d8d9190615646565b82600001819055508260000160009054906101000a900473ffffffffffffffffffffffffffffffffffffffff1673ffffffffffffffffffffffffffffffffffffffff1663a9059cbb33866040518363ffffffff1660e01b8152600401610df49291906150b4565b602060405180830381600087803b158015610e0e57600080fd5b505af1158015610e22573d6000803e3d6000fd5b505050506040513d601f19601f82011682018060405250810190610e469190614670565b505b64e8d4a5100083600301548360000154610e6291906155ec565b610e6c91906155bb565b8260010181905550600660009054906101000a900473ffffffffffffffffffffffffffffffffffffffff1673ffffffffffffffffffffffffffffffffffffffff16639dc29fac33866040518363ffffffff1660e01b8152600401610ed19291906150b4565b600060405180830381600087803b158015610eeb57600080fd5b505af1158015610eff573d6000803e3d6000fd5b5050505060003373ffffffffffffffffffffffffffffffffffffffff167f02f25270a4d87bea75db541cdfe559334a275b4a233520ed6c0a2429667cca948642604051610f4d929190615461565b60405180910390a3505050600160028190555050565b60135481565b60148181548110610f7957600080fd5b90600052602060002090600402016000915090508060000160009054906101000a900473ffffffffffffffffffffffffffffffffffffffff16908060010154908060020154908060030154905084565b60105481565b601160009054906101000a900460ff1661101e576040517f08c379a000000000000000000000000000000000000000000000000000000000815260040161101590615426565b60405180910390fd5b6016546110328161102d613a33565b613a3b565b81600960006101000a81548173ffffffffffffffffffffffffffffffffffffffff021916908373ffffffffffffffffffffffffffffffffffffffff1602179055505050565b6000806000838152602001908152602001600020600101549050919050565b61109f82611077565b6110b0816110ab613a33565b613a3b565b6110ba8383613ad8565b505050565b6110c7613a33565b73ffffffffffffffffffffffffffffffffffffffff168173ffffffffffffffffffffffffffffffffffffffff1614611134576040517f08c379a000000000000000000000000000000000000000000000000000000000815260040161112b906153e6565b60405180910390fd5b61113e8282613bb8565b5050565b601160009054906101000a900460ff1681565b60028054141561119a576040517f08c379a0000000000000000000000000000000000000000000000000000000008152600401611191906153c6565b60405180910390fd5b600280819055506111a96121ea565b156111e9576040517f08c379a00000000000000000000000000000000000000000000000000000000081526004016111e090615226565b60405180910390fd5b60006014600081548110611226577f4e487b7100000000000000000000000000000000000000000000000000000000600052603260045260246000fd5b9060005260206000209060040201905060006015600080815260200190815260200160002060003373ffffffffffffffffffffffffffffffffffffffff1673ffffffffffffffffffffffffffffffffffffffff16815260200190815260200160002090506112946000611d99565b6000816000015411156112ee576000816001015464e8d4a51000846003015484600001546112c291906155ec565b6112cc91906155bb565b6112d69190615646565b905060008111156112ec576112eb33826139a0565b5b505b60008311156113c4578160000160009054906101000a900473ffffffffffffffffffffffffffffffffffffffff1673ffffffffffffffffffffffffffffffffffffffff166323b872dd3330866040518463ffffffff1660e01b81526004016113589392919061507d565b602060405180830381600087803b15801561137257600080fd5b505af1158015611386573d6000803e3d6000fd5b505050506040513d601f19601f820116820180604052508101906113aa9190614670565b508281600001546113bb9190615565565b81600001819055505b64e8d4a51000826003015482600001546113de91906155ec565b6113e891906155bb565b8160010181905550600660009054906101000a900473ffffffffffffffffffffffffffffffffffffffff1673ffffffffffffffffffffffffffffffffffffffff166340c10f1933856040518363ffffffff1660e01b815260040161144d9291906150b4565b600060405180830381600087803b15801561146757600080fd5b505af115801561147b573d6000803e3d6000fd5b5050505060003373ffffffffffffffffffffffffffffffffffffffff167f90890809c654f11d6e72a28fa60149770a0d11ec6c92319d6ceb2bb0a4ea1a15856040516114c79190615446565b60405180910390a35050600160028190555050565b600860009054906101000a900473ffffffffffffffffffffffffffffffffffffffff1681565b600280541415611547576040517f08c379a000000000000000000000000000000000000000000000000000000000815260040161153e906153c6565b60405180910390fd5b60028081905550816014805490508110611596576040517f08c379a000000000000000000000000000000000000000000000000000000000815260040161158d90615326565b60405180910390fd5b60008314156115da576040517f08c379a00000000000000000000000000000000000000000000000000000000081526004016115d190615286565b60405180910390fd5b600060148481548110611616577f4e487b7100000000000000000000000000000000000000000000000000000000600052603260045260246000fd5b9060005260206000209060040201905060006015600086815260200190815260200160002060003373ffffffffffffffffffffffffffffffffffffffff1673ffffffffffffffffffffffffffffffffffffffff168152602001908152602001600020905083816000015410156116c1576040517f08c379a00000000000000000000000000000000000000000000000000000000081526004016116b890615386565b60405180910390fd5b6116ca85611d99565b6000816001015464e8d4a51000846003015484600001546116eb91906155ec565b6116f591906155bb565b6116ff9190615646565b905060008111156117155761171433826139a0565b5b600085111561183c576000826006015411156117485781600601544261173b9190615646565b8260050181905550611761565b8160040154426117589190615646565b82600501819055505b8482600001546117719190615646565b82600001819055506000611785878761266b565b9150508360000160009054906101000a900473ffffffffffffffffffffffffffffffffffffffff1673ffffffffffffffffffffffffffffffffffffffff1663a9059cbb33836040518363ffffffff1660e01b81526004016117e79291906150b4565b602060405180830381600087803b15801561180157600080fd5b505af1158015611815573d6000803e3d6000fd5b505050506040513d601f19601f820116820180604052508101906118399190614670565b50505b64e8d4a510008360030154836000015461185691906155ec565b61186091906155bb565b8260010181905550428260030181905550853373ffffffffffffffffffffffffffffffffffffffff167f02f25270a4d87bea75db541cdfe559334a275b4a233520ed6c0a2429667cca9487426040516118ba929190615461565b60405180910390a35050505060016002819055505050565b601160009054906101000a900460ff16611921576040517f08c379a000000000000000000000000000000000000000000000000000000000815260040161191890615426565b60405180910390fd5b806014805490508110611969576040517f08c379a000000000000000000000000000000000000000000000000000000000815260040161196090615326565b60405180910390fd5b600073ffffffffffffffffffffffffffffffffffffffff16600960009054906101000a900473ffffffffffffffffffffffffffffffffffffffff1673ffffffffffffffffffffffffffffffffffffffff1614156119fb576040517f08c379a00000000000000000000000000000000000000000000000000000000081526004016119f290615266565b60405180910390fd5b600060148381548110611a37577f4e487b7100000000000000000000000000000000000000000000000000000000600052603260045260246000fd5b9060005260206000209060040201905060008160000160009054906101000a900473ffffffffffffffffffffffffffffffffffffffff16905060008173ffffffffffffffffffffffffffffffffffffffff166370a08231306040518263ffffffff1660e01b8152600401611aab9190614fd8565b60206040518083038186803b158015611ac357600080fd5b505afa158015611ad7573d6000803e3d6000fd5b505050506040513d601f19601f82011682018060405250810190611afb91906147a2565b90508173ffffffffffffffffffffffffffffffffffffffff1663095ea7b3600960009054906101000a900473ffffffffffffffffffffffffffffffffffffffff16836040518363ffffffff1660e01b8152600401611b5a9291906150b4565b602060405180830381600087803b158015611b7457600080fd5b505af1158015611b88573d6000803e3d6000fd5b505050506040513d601f19601f82011682018060405250810190611bac9190614670565b506000600960009054906101000a900473ffffffffffffffffffffffffffffffffffffffff1673ffffffffffffffffffffffffffffffffffffffff1663ce5494bb846040518263ffffffff1660e01b8152600401611c0a9190615113565b602060405180830381600087803b158015611c2457600080fd5b505af1158015611c38573d6000803e3d6000fd5b505050506040513d601f19601f82011682018060405250810190611c5c9190614727565b90508073ffffffffffffffffffffffffffffffffffffffff166370a08231306040518263ffffffff1660e01b8152600401611c979190614fd8565b60206040518083038186803b158015611caf57600080fd5b505afa158015611cc3573d6000803e3d6000fd5b505050506040513d601f19601f82011682018060405250810190611ce791906147a2565b8214611d28576040517f08c379a0000000000000000000000000000000000000000000000000000000008152600401611d1f90615406565b60405180910390fd5b808460000160006101000a81548173ffffffffffffffffffffffffffffffffffffffff021916908373ffffffffffffffffffffffffffffffffffffffff160217905550505050505050565b600660009054906101000a900473ffffffffffffffffffffffffffffffffffffffff1681565b806014805490508110611de1576040517f08c379a0000000000000000000000000000000000000000000000000000000008152600401611dd890615326565b60405180910390fd5b600060148381548110611e1d577f4e487b7100000000000000000000000000000000000000000000000000000000600052603260045260246000fd5b9060005260206000209060040201905080600201544211611e3e57506121e6565b60008160000160009054906101000a900473ffffffffffffffffffffffffffffffffffffffff1673ffffffffffffffffffffffffffffffffffffffff166370a08231306040518263ffffffff1660e01b8152600401611e9d9190614fd8565b60206040518083038186803b158015611eb557600080fd5b505afa158015611ec9573d6000803e3d6000fd5b505050506040513d601f19601f82011682018060405250810190611eed91906147a2565b90506000811415611f085742826002018190555050506121e6565b6000611f18836002015442612648565b905060006010548460010154600d5484611f3291906155ec565b611f3c91906155ec565b611f4691906155bb565b90506000650746a528800064e8d4a5100083611f6291906155ec565b611f6c91906155bb565b90506000600282611f7d91906155ec565b905060008184611f8d9190615646565b9050600460009054906101000a900473ffffffffffffffffffffffffffffffffffffffff1673ffffffffffffffffffffffffffffffffffffffff166340c10f19600760009054906101000a900473ffffffffffffffffffffffffffffffffffffffff16856040518363ffffffff1660e01b815260040161200e9291906150b4565b600060405180830381600087803b15801561202857600080fd5b505af115801561203c573d6000803e3d6000fd5b50505050600460009054906101000a900473ffffffffffffffffffffffffffffffffffffffff1673ffffffffffffffffffffffffffffffffffffffff166340c10f19600860009054906101000a900473ffffffffffffffffffffffffffffffffffffffff16856040518363ffffffff1660e01b81526004016120bf9291906150b4565b600060405180830381600087803b1580156120d957600080fd5b505af11580156120ed573d6000803e3d6000fd5b50505050600460009054906101000a900473ffffffffffffffffffffffffffffffffffffffff1673ffffffffffffffffffffffffffffffffffffffff166340c10f19600660009054906101000a900473ffffffffffffffffffffffffffffffffffffffff16836040518363ffffffff1660e01b81526004016121709291906150b4565b600060405180830381600087803b15801561218a57600080fd5b505af115801561219e573d6000803e3d6000fd5b505050508564e8d4a51000856121b491906155ec565b6121be91906155bb565b87600301546121cd9190615565565b8760030181905550428760020181905550505050505050505b5050565b6000600160149054906101000a900460ff16905090565b600d5481565b60175461221b81612216613a33565b613a3b565b81600e819055505050565b6000601480549050905060005b818110156122555761224481611d99565b8061224e90615809565b9050612233565b5050565b601160009054906101000a900460ff166122a8576040517f08c379a000000000000000000000000000000000000000000000000000000000815260040161229f90615426565b60405180910390fd5b8260148054905081106122f0576040517f08c379a00000000000000000000000000000000000000000000000000000000081526004016122e790615326565b60405180910390fd5b601754612304816122ff613a33565b613a3b565b821561231357612312612226565b5b60006014868154811061234f577f4e487b7100000000000000000000000000000000000000000000000000000000600052603260045260246000fd5b9060005260206000209060040201600101549050846014878154811061239e577f4e487b7100000000000000000000000000000000000000000000000000000000600052603260045260246000fd5b9060005260206000209060040201600101819055508481146123e25784816010546123c99190615646565b6123d39190615565565b6010819055506123e1613c99565b5b7fd88f859573973e938da5bf3e5100c16eee2090fa720e05ae3d452b4cd05cdcfd8686604051612413929190615461565b60405180910390a1505050505050565b61242b613a33565b73ffffffffffffffffffffffffffffffffffffffff1661244961261e565b73ffffffffffffffffffffffffffffffffffffffff161461249f576040517f08c379a0000000000000000000000000000000000000000000000000000000008152600401612496906152c6565b60405180910390fd5b6124a96000613df6565b565b600f5481565b601160009054906101000a900460ff16612500576040517f08c379a00000000000000000000000000000000000000000000000000000000081526004016124f790615426565b60405180910390fd5b6016546125148161250f613a33565b613a3b565b61251d83613ebc565b612528848484613fc1565b50505050565b600960009054906101000a900473ffffffffffffffffffffffffffffffffffffffff1681565b600c5481565b600460009054906101000a900473ffffffffffffffffffffffffffffffffffffffff1681565b6017546125948161258f613a33565b613a3b565b60006015600086815260200190815260200160002060008573ffffffffffffffffffffffffffffffffffffffff1673ffffffffffffffffffffffffffffffffffffffff16815260200190815260200160002090508281600401819055505050505050565b600760009054906101000a900473ffffffffffffffffffffffffffffffffffffffff1681565b6000600160009054906101000a900473ffffffffffffffffffffffffffffffffffffffff16905090565b6000600e5483836126599190615646565b61266391906155ec565b905092915050565b600080600061267985613876565b9050600083856126899190615646565b905081819350935050509250929050565b600080600084815260200190815260200160002060000160008373ffffffffffffffffffffffffffffffffffffffff1673ffffffffffffffffffffffffffffffffffffffff16815260200190815260200160002060009054906101000a900460ff16905092915050565b6015602052816000526040600020602052806000526040600020600091509150508060000154908060010154908060020154908060030154908060040154908060050154908060060154905087565b600a5481565b600b5481565b6000801b81565b600e5481565b600080601484815481106127a9577f4e487b7100000000000000000000000000000000000000000000000000000000600052603260045260246000fd5b9060005260206000209060040201905060006015600086815260200190815260200160002060008573ffffffffffffffffffffffffffffffffffffffff1673ffffffffffffffffffffffffffffffffffffffff168152602001908152602001600020905060008260030154905060008360000160009054906101000a900473ffffffffffffffffffffffffffffffffffffffff1673ffffffffffffffffffffffffffffffffffffffff166370a08231306040518263ffffffff1660e01b81526004016128759190614fd8565b60206040518083038186803b15801561288d57600080fd5b505afa1580156128a1573d6000803e3d6000fd5b505050506040513d601f19601f820116820180604052508101906128c591906147a2565b90508360020154421180156128db575060008114155b1561294c5760006128f0856002015442612648565b905060006010548660010154600d548461290a91906155ec565b61291491906155ec565b61291e91906155bb565b90508264e8d4a510008261293291906155ec565b61293c91906155bb565b846129479190615565565b935050505b826001015464e8d4a5100083856000015461296791906155ec565b61297191906155bb565b61297b9190615646565b94505050505092915050565b6000670de0b6b3a76400008261299d91906155ec565b9050919050565b6129ad82611077565b6129be816129b9613a33565b613a3b565b6129c88383613bb8565b505050565b6000806015600084815260200190815260200160002060003373ffffffffffffffffffffffffffffffffffffffff1673ffffffffffffffffffffffffffffffffffffffff1681526020019081526020016000206005015490506000811415612a39576000915050612a71565b60006201518082612a4a91906155bb565b905060008162015180612a5d91906155ec565b83612a689190615646565b90508093505050505b919050565b6000612a82823361269a565b9050919050565b601654612a9d81612a98613a33565b613a3b565b8273ffffffffffffffffffffffffffffffffffffffff16600860009054906101000a900473ffffffffffffffffffffffffffffffffffffffff1673ffffffffffffffffffffffffffffffffffffffff16141580612b4857508173ffffffffffffffffffffffffffffffffffffffff16600760009054906101000a900473ffffffffffffffffffffffffffffffffffffffff1673ffffffffffffffffffffffffffffffffffffffff1614155b612b87576040517f08c379a0000000000000000000000000000000000000000000000000000000008152600401612b7e90615306565b60405180910390fd5b82600860006101000a81548173ffffffffffffffffffffffffffffffffffffffff021916908373ffffffffffffffffffffffffffffffffffffffff16021790555081600760006101000a81548173ffffffffffffffffffffffffffffffffffffffff021916908373ffffffffffffffffffffffffffffffffffffffff1602179055507fd1c04282701cbf58aa2f0026f6876051cf3feb8ee7b8b5b5532ebb4ab03fb5d4600860009054906101000a900473ffffffffffffffffffffffffffffffffffffffff16600760009054906101000a900473ffffffffffffffffffffffffffffffffffffffff16604051612c7e929190614ff3565b60405180910390a1505050565b600280541415612cd0576040517f08c379a0000000000000000000000000000000000000000000000000000000008152600401612cc7906153c6565b60405180910390fd5b60028081905550816014805490508110612d1f576040517f08c379a0000000000000000000000000000000000000000000000000000000008152600401612d1690615326565b60405180910390fd5b612d276121ea565b15612d67576040517f08c379a0000000000000000000000000000000000000000000000000000000008152600401612d5e90615226565b60405180910390fd5b6000831415612dab576040517f08c379a0000000000000000000000000000000000000000000000000000000008152600401612da2906152a6565b60405180910390fd5b600060148481548110612de7577f4e487b7100000000000000000000000000000000000000000000000000000000600052603260045260246000fd5b9060005260206000209060040201905060006015600086815260200190815260200160002060003373ffffffffffffffffffffffffffffffffffffffff1673ffffffffffffffffffffffffffffffffffffffff1681526020019081526020016000209050612e5485611d99565b600081600001541115612eae576000816001015464e8d4a5100084600301548460000154612e8291906155ec565b612e8c91906155bb565b612e969190615646565b90506000811115612eac57612eab33826139a0565b5b505b6000841115612f84578160000160009054906101000a900473ffffffffffffffffffffffffffffffffffffffff1673ffffffffffffffffffffffffffffffffffffffff166323b872dd3330876040518463ffffffff1660e01b8152600401612f189392919061507d565b602060405180830381600087803b158015612f3257600080fd5b505af1158015612f46573d6000803e3d6000fd5b505050506040513d601f19601f82011682018060405250810190612f6a9190614670565b50838160000154612f7b9190615565565b81600001819055505b64e8d4a5100082600301548260000154612f9e91906155ec565b612fa891906155bb565b81600101819055506000816004015411612fc9574281600401819055612fd6565b8060040154816004018190555b50843373ffffffffffffffffffffffffffffffffffffffff167f90890809c654f11d6e72a28fa60149770a0d11ec6c92319d6ceb2bb0a4ea1a158660405161301e9190615446565b60405180910390a350505060016002819055505050565b60165461304981613044613a33565b613a3b565b8273ffffffffffffffffffffffffffffffffffffffff16600460009054906101000a900473ffffffffffffffffffffffffffffffffffffffff1673ffffffffffffffffffffffffffffffffffffffff161415806130f457508173ffffffffffffffffffffffffffffffffffffffff16600660009054906101000a900473ffffffffffffffffffffffffffffffffffffffff1673ffffffffffffffffffffffffffffffffffffffff1614155b613133576040517f08c379a000000000000000000000000000000000000000000000000000000000815260040161312a906152e6565b60405180910390fd5b82600460006101000a81548173ffffffffffffffffffffffffffffffffffffffff021916908373ffffffffffffffffffffffffffffffffffffffff16021790555081600660006101000a81548173ffffffffffffffffffffffffffffffffffffffff021916908373ffffffffffffffffffffffffffffffffffffffff1602179055507fdcc6331013de89f8c595d5328f0a724194f113cb6f8f2a707b3dff6de13f0d1783836040516131e6929190614ff3565b60405180910390a1505050565b60165481565b601160009054906101000a900460ff16613248576040517f08c379a000000000000000000000000000000000000000000000000000000000815260040161323f90615426565b60405180910390fd5b60175461325c81613257613a33565b613a3b565b81600b5414156132a1576040517f08c379a000000000000000000000000000000000000000000000000000000000815260040161329890615346565b60405180910390fd5b81600b5410156132d8576000600b54836132bb9190615646565b905080600a60008282546132cf9190615565565b92505081905550505b81600b54111561330f57600082600b546132f29190615646565b905080600a60008282546133069190615646565b92505081905550505b81600b81905550613324600b54600a5461411c565b7fb298bc23e07860d501fddce288f46d761aa04a0c7c3316099eb50f097aacf304600b54600a54604051613359929190615461565b60405180910390a15050565b60165461337981613374613a33565b613a3b565b601160009054906101000a900460ff16156133c9576040517f08c379a00000000000000000000000000000000000000000000000000000000081526004016133c090615246565b60405180910390fd5b87600360006101000a81548173ffffffffffffffffffffffffffffffffffffffff021916908373ffffffffffffffffffffffffffffffffffffffff16021790555086600560006101000a81548173ffffffffffffffffffffffffffffffffffffffff021916908373ffffffffffffffffffffffffffffffffffffffff16021790555042600f81905550848661345e9190615565565b600a8190555084600b8190555061347483612987565b60138190555061348382613854565b6012819055506000849050600360009054906101000a900473ffffffffffffffffffffffffffffffffffffffff16600460006101000a81548173ffffffffffffffffffffffffffffffffffffffff021916908373ffffffffffffffffffffffffffffffffffffffff160217905550600560009054906101000a900473ffffffffffffffffffffffffffffffffffffffff16600660006101000a81548173ffffffffffffffffffffffffffffffffffffffff021916908373ffffffffffffffffffffffffffffffffffffffff160217905550613562600b54600a5461411c565b60146040518060800160405280600460009054906101000a900473ffffffffffffffffffffffffffffffffffffffff1673ffffffffffffffffffffffffffffffffffffffff168152602001838152602001600f5481526020016000815250908060018154018082558091505060019003906000526020600020906004020160009091909190915060008201518160000160006101000a81548173ffffffffffffffffffffffffffffffffffffffff021916908373ffffffffffffffffffffffffffffffffffffffff16021790555060208201518160010155604082015181600201556060820151816003015550506001601160006101000a81548160ff021916908315150217905550806010600082825461367d9190615565565b925050819055507f0476c5e4920930815a67a5a042e26836431f494d3be0f6e10c3034787a7a15f9600760009054906101000a900473ffffffffffffffffffffffffffffffffffffffff16600860009054906101000a900473ffffffffffffffffffffffffffffffffffffffff16600360009054906101000a900473ffffffffffffffffffffffffffffffffffffffff16600560009054906101000a900473ffffffffffffffffffffffffffffffffffffffff16601054600b546040516137499695949392919061501c565b60405180910390a1505050505050505050565b613764613a33565b73ffffffffffffffffffffffffffffffffffffffff1661378261261e565b73ffffffffffffffffffffffffffffffffffffffff16146137d8576040517f08c379a00000000000000000000000000000000000000000000000000000000081526004016137cf906152c6565b60405180910390fd5b600073ffffffffffffffffffffffffffffffffffffffff168173ffffffffffffffffffffffffffffffffffffffff161415613848576040517f08c379a000000000000000000000000000000000000000000000000000000000815260040161383f90615206565b60405180910390fd5b61385181613df6565b50565b6000662386f26fc100008261386991906155ec565b9050919050565b60125481565b6000806015600084815260200190815260200160002060003373ffffffffffffffffffffffffffffffffffffffff1673ffffffffffffffffffffffffffffffffffffffff16815260200190815260200160002060050154905060006201518082106138ef5762015180826138ea91906155bb565b6138f2565b60005b905060006012548261390491906155ec565b9050601354811015613923578060135461391e9190615646565b613926565b60005b9350505050919050565b60175481565b60007f01ffc9a7000000000000000000000000000000000000000000000000000000007bffffffffffffffffffffffffffffffffffffffffffffffffffffffff1916827bffffffffffffffffffffffffffffffffffffffffffffffffffffffff1916149050919050565b600660009054906101000a900473ffffffffffffffffffffffffffffffffffffffff1673ffffffffffffffffffffffffffffffffffffffff1663b2a142aa83836040518363ffffffff1660e01b81526004016139fd9291906150b4565b600060405180830381600087803b158015613a1757600080fd5b505af1158015613a2b573d6000803e3d6000fd5b505050505050565b600033905090565b613a45828261269a565b613ad457613a6a8173ffffffffffffffffffffffffffffffffffffffff1660146141a1565b613a788360001c60206141a1565b604051602001613a89929190614f9e565b6040516020818303038152906040526040517f08c379a0000000000000000000000000000000000000000000000000000000008152600401613acb91906151c4565b60405180910390fd5b5050565b613ae2828261269a565b613bb457600160008084815260200190815260200160002060000160008373ffffffffffffffffffffffffffffffffffffffff1673ffffffffffffffffffffffffffffffffffffffff16815260200190815260200160002060006101000a81548160ff021916908315150217905550613b59613a33565b73ffffffffffffffffffffffffffffffffffffffff168173ffffffffffffffffffffffffffffffffffffffff16837f2f8788117e7eff1d82e926ec794901d17c78024a50270940304540a733656f0d60405160405180910390a45b5050565b613bc2828261269a565b15613c9557600080600084815260200190815260200160002060000160008373ffffffffffffffffffffffffffffffffffffffff1673ffffffffffffffffffffffffffffffffffffffff16815260200190815260200160002060006101000a81548160ff021916908315150217905550613c3a613a33565b73ffffffffffffffffffffffffffffffffffffffff168173ffffffffffffffffffffffffffffffffffffffff16837ff6391f5c32d9c69d2a47ea670b442974b53935d1edc7fd64eb21e047a839171b60405160405180910390a45b5050565b60006014805490509050600080600190505b82811015613d1d5760148181548110613ced577f4e487b7100000000000000000000000000000000000000000000000000000000600052603260045260246000fd5b90600052602060002090600402016001015482613d0a9190615565565b915080613d1690615809565b9050613cab565b5060008114613df257600381613d3391906155bb565b9050806014600081548110613d71577f4e487b7100000000000000000000000000000000000000000000000000000000600052603260045260246000fd5b906000526020600020906004020160010154601054613d909190615646565b613d9a9190615565565b601081905550806014600081548110613ddc577f4e487b7100000000000000000000000000000000000000000000000000000000600052603260045260246000fd5b9060005260206000209060040201600101819055505b5050565b6000600160009054906101000a900473ffffffffffffffffffffffffffffffffffffffff16905081600160006101000a81548173ffffffffffffffffffffffffffffffffffffffff021916908373ffffffffffffffffffffffffffffffffffffffff1602179055508173ffffffffffffffffffffffffffffffffffffffff168173ffffffffffffffffffffffffffffffffffffffff167f8be0079c531659141344cd1fd0a4f28419497f9722a3daafe3b4186f6b6457e060405160405180910390a35050565b6000601480549050905060005b81811015613fbc578273ffffffffffffffffffffffffffffffffffffffff1660148281548110613f22577f4e487b7100000000000000000000000000000000000000000000000000000000600052603260045260246000fd5b906000526020600020906004020160000160009054906101000a900473ffffffffffffffffffffffffffffffffffffffff1673ffffffffffffffffffffffffffffffffffffffff161415613fab576040517f08c379a0000000000000000000000000000000000000000000000000000000008152600401613fa2906153a6565b60405180910390fd5b80613fb590615809565b9050613ec9565b505050565b8015613fd057613fcf612226565b5b8260106000828254613fe29190615565565b92505081905550601460405180608001604052808473ffffffffffffffffffffffffffffffffffffffff168152602001858152602001600f54421161402957600f5461402b565b425b81526020016000815250908060018154018082558091505060019003906000526020600020906004020160009091909190915060008201518160000160006101000a81548173ffffffffffffffffffffffffffffffffffffffff021916908373ffffffffffffffffffffffffffffffffffffffff16021790555060208201518160010155604082015181600201556060820151816003015550506140cd613c99565b600060148054905090507f20b669aa921947a6d9602a921d2db3b6b30f21b9aca98580fa3972530330b27a81858560105460405161410e949392919061548a565b60405180910390a150505050565b6000818361412a91906155bb565b90506934f086f3b33b684000008161414291906155ec565b600c8190555062015180600c5461415991906155bb565b600d819055507fcd7c861d63893659123f817b192b8621ff1923a7c4589c260173cedcf9e986a6600c54600d54604051614194929190615461565b60405180910390a1505050565b6060600060028360026141b491906155ec565b6141be9190615565565b67ffffffffffffffff8111156141fd577f4e487b7100000000000000000000000000000000000000000000000000000000600052604160045260246000fd5b6040519080825280601f01601f19166020018201604052801561422f5781602001600182028036833780820191505090505b5090507f30000000000000000000000000000000000000000000000000000000000000008160008151811061428d577f4e487b7100000000000000000000000000000000000000000000000000000000600052603260045260246000fd5b60200101907effffffffffffffffffffffffffffffffffffffffffffffffffffffffffffff1916908160001a9053507f780000000000000000000000000000000000000000000000000000000000000081600181518110614317577f4e487b7100000000000000000000000000000000000000000000000000000000600052603260045260246000fd5b60200101907effffffffffffffffffffffffffffffffffffffffffffffffffffffffffffff1916908160001a9053506000600184600261435791906155ec565b6143619190615565565b90505b600181111561444d577f3031323334353637383961626364656600000000000000000000000000000000600f8616601081106143c9577f4e487b7100000000000000000000000000000000000000000000000000000000600052603260045260246000fd5b1a60f81b828281518110614406577f4e487b7100000000000000000000000000000000000000000000000000000000600052603260045260246000fd5b60200101907effffffffffffffffffffffffffffffffffffffffffffffffffffffffffffff1916908160001a905350600485901c945080614446906157df565b9050614364565b5060008414614491576040517f08c379a0000000000000000000000000000000000000000000000000000000008152600401614488906151e6565b60405180910390fd5b8091505092915050565b6000813590506144aa816158c1565b92915050565b6000813590506144bf816158d8565b92915050565b6000815190506144d4816158d8565b92915050565b6000813590506144e9816158ef565b92915050565b6000813590506144fe81615906565b92915050565b6000813590506145138161591d565b92915050565b6000815190506145288161591d565b92915050565b60008135905061453d81615934565b92915050565b6000813590506145528161594b565b92915050565b6000815190506145678161594b565b92915050565b60006020828403121561457f57600080fd5b600061458d8482850161449b565b91505092915050565b600080604083850312156145a957600080fd5b60006145b78582860161449b565b92505060206145c88582860161449b565b9150509250929050565b600080600080600080600060e0888a0312156145ed57600080fd5b60006145fb8a828b0161449b565b975050602061460c8a828b0161449b565b965050604061461d8a828b01614543565b955050606061462e8a828b01614543565b945050608061463f8a828b01614543565b93505060a06146508a828b01614543565b92505060c06146618a828b01614543565b91505092959891949750929550565b60006020828403121561468257600080fd5b6000614690848285016144c5565b91505092915050565b6000602082840312156146ab57600080fd5b60006146b9848285016144da565b91505092915050565b600080604083850312156146d557600080fd5b60006146e3858286016144da565b92505060206146f48582860161449b565b9150509250929050565b60006020828403121561471057600080fd5b600061471e848285016144ef565b91505092915050565b60006020828403121561473957600080fd5b600061474784828501614519565b91505092915050565b60006020828403121561476257600080fd5b60006147708482850161452e565b91505092915050565b60006020828403121561478b57600080fd5b600061479984828501614543565b91505092915050565b6000602082840312156147b457600080fd5b60006147c284828501614558565b91505092915050565b600080604083850312156147de57600080fd5b60006147ec85828601614543565b92505060206147fd8582860161449b565b9150509250929050565b60008060006060848603121561481c57600080fd5b600061482a86828701614543565b935050602061483b8682870161449b565b925050604061484c86828701614543565b9150509250925092565b60008060006060848603121561486b57600080fd5b600061487986828701614543565b935050602061488a86828701614504565b925050604061489b868287016144b0565b9150509250925092565b600080604083850312156148b857600080fd5b60006148c685828601614543565b92505060206148d785828601614543565b9150509250929050565b6000806000606084860312156148f657600080fd5b600061490486828701614543565b935050602061491586828701614543565b9250506040614926868287016144b0565b9150509250925092565b6149398161567a565b82525050565b6149488161568c565b82525050565b61495781615698565b82525050565b6149668161571c565b82525050565b61497581615740565b82525050565b61498481615764565b82525050565b61499381615788565b82525050565b60006149a48261553e565b6149ae8185615549565b93506149be8185602086016157ac565b6149c7816158b0565b840191505092915050565b60006149dd8261553e565b6149e7818561555a565b93506149f78185602086016157ac565b80840191505092915050565b6000614a10602083615549565b91507f537472696e67733a20686578206c656e67746820696e73756666696369656e746000830152602082019050919050565b6000614a50602683615549565b91507f4f776e61626c653a206e6577206f776e657220697320746865207a65726f206160008301527f64647265737300000000000000000000000000000000000000000000000000006020830152604082019050919050565b6000614ab6601083615549565b91507f5061757361626c653a20706175736564000000000000000000000000000000006000830152602082019050919050565b6000614af6601383615549565b91507f616c726561647920696e697469616c697a6564000000000000000000000000006000830152602082019050919050565b6000614b36600f83615549565b91507f6e6f206d69677261746f722073657400000000000000000000000000000000006000830152602082019050919050565b6000614b76601a83615549565b91507f776974686472617720534f554c20627920756e7374616b696e670000000000006000830152602082019050919050565b6000614bb6601783615549565b91507f6465706f73697420534f554c206279207374616b696e670000000000000000006000830152602082019050919050565b6000614bf6602083615549565b91507f4f776e61626c653a2063616c6c6572206973206e6f7420746865206f776e65726000830152602082019050919050565b6000614c36601b83615549565b91507f6d7573742062652061206e657720746f6b656e206164647265737300000000006000830152602082019050919050565b6000614c76601583615549565b91507f6d7573742062652061206e6577206163636f756e7400000000000000000000006000830152602082019050919050565b6000614cb6601383615549565b91507f706f6f6c20646f6573206e6f74206578697374000000000000000000000000006000830152602082019050919050565b6000614cf6601883615549565b91507f6d757374206265206e6577207765696768742076616c756500000000000000006000830152602082019050919050565b6000614d36601283615549565b91507f77697468647261773a206e6f7420676f6f6400000000000000000000000000006000830152602082019050919050565b6000614d7660178361555a565b91507f416363657373436f6e74726f6c3a206163636f756e74200000000000000000006000830152601782019050919050565b6000614db6601183615549565b91507f7769746864726177206e6f7420676f6f640000000000000000000000000000006000830152602082019050919050565b6000614df6600f83615549565b91507f6475706c69636174656420706f6f6c00000000000000000000000000000000006000830152602082019050919050565b6000614e36601f83615549565b91507f5265656e7472616e637947756172643a207265656e7472616e742063616c6c006000830152602082019050919050565b6000614e7660118361555a565b91507f206973206d697373696e6720726f6c65200000000000000000000000000000006000830152601182019050919050565b6000614eb6602f83615549565b91507f416363657373436f6e74726f6c3a2063616e206f6e6c792072656e6f756e636560008301527f20726f6c657320666f722073656c6600000000000000000000000000000000006020830152604082019050919050565b6000614f1c601d83615549565b91507f6d6967726174653a20696e73756666696369656e742062616c616e63650000006000830152602082019050919050565b6000614f5c601a83615549565b91507f726577617264732068617665206e6f742079657420626567756e0000000000006000830152602082019050919050565b614f9881615712565b82525050565b6000614fa982614d69565b9150614fb582856149d2565b9150614fc082614e69565b9150614fcc82846149d2565b91508190509392505050565b6000602082019050614fed6000830184614930565b92915050565b60006040820190506150086000830185614930565b6150156020830184614930565b9392505050565b600060c0820190506150316000830189614930565b61503e6020830188614930565b61504b6040830187614930565b6150586060830186614930565b6150656080830185614f8f565b61507260a0830184614f8f565b979650505050505050565b60006060820190506150926000830186614930565b61509f6020830185614930565b6150ac6040830184614f8f565b949350505050565b60006040820190506150c96000830185614930565b6150d66020830184614f8f565b9392505050565b60006020820190506150f2600083018461493f565b92915050565b600060208201905061510d600083018461494e565b92915050565b6000602082019050615128600083018461495d565b92915050565b6000608082019050615143600083018761495d565b6151506020830186614f8f565b61515d6040830185614f8f565b61516a6060830184614f8f565b95945050505050565b6000602082019050615188600083018461496c565b92915050565b60006020820190506151a3600083018461497b565b92915050565b60006020820190506151be600083018461498a565b92915050565b600060208201905081810360008301526151de8184614999565b905092915050565b600060208201905081810360008301526151ff81614a03565b9050919050565b6000602082019050818103600083015261521f81614a43565b9050919050565b6000602082019050818103600083015261523f81614aa9565b9050919050565b6000602082019050818103600083015261525f81614ae9565b9050919050565b6000602082019050818103600083015261527f81614b29565b9050919050565b6000602082019050818103600083015261529f81614b69565b9050919050565b600060208201905081810360008301526152bf81614ba9565b9050919050565b600060208201905081810360008301526152df81614be9565b9050919050565b600060208201905081810360008301526152ff81614c29565b9050919050565b6000602082019050818103600083015261531f81614c69565b9050919050565b6000602082019050818103600083015261533f81614ca9565b9050919050565b6000602082019050818103600083015261535f81614ce9565b9050919050565b6000602082019050818103600083015261537f81614d29565b9050919050565b6000602082019050818103600083015261539f81614da9565b9050919050565b600060208201905081810360008301526153bf81614de9565b9050919050565b600060208201905081810360008301526153df81614e29565b9050919050565b600060208201905081810360008301526153ff81614ea9565b9050919050565b6000602082019050818103600083015261541f81614f0f565b9050919050565b6000602082019050818103600083015261543f81614f4f565b9050919050565b600060208201905061545b6000830184614f8f565b92915050565b60006040820190506154766000830185614f8f565b6154836020830184614f8f565b9392505050565b600060808201905061549f6000830187614f8f565b6154ac6020830186614f8f565b6154b9604083018561495d565b6154c66060830184614f8f565b95945050505050565b600060e0820190506154e4600083018a614f8f565b6154f16020830189614f8f565b6154fe6040830188614f8f565b61550b6060830187614f8f565b6155186080830186614f8f565b61552560a0830185614f8f565b61553260c0830184614f8f565b98975050505050505050565b600081519050919050565b600082825260208201905092915050565b600081905092915050565b600061557082615712565b915061557b83615712565b9250827fffffffffffffffffffffffffffffffffffffffffffffffffffffffffffffffff038211156155b0576155af615852565b5b828201905092915050565b60006155c682615712565b91506155d183615712565b9250826155e1576155e0615881565b5b828204905092915050565b60006155f782615712565b915061560283615712565b9250817fffffffffffffffffffffffffffffffffffffffffffffffffffffffffffffffff048311821515161561563b5761563a615852565b5b828202905092915050565b600061565182615712565b915061565c83615712565b92508282101561566f5761566e615852565b5b828203905092915050565b6000615685826156f2565b9050919050565b60008115159050919050565b6000819050919050565b60007fffffffff0000000000000000000000000000000000000000000000000000000082169050919050565b60006156d98261567a565b9050919050565b60006156eb8261567a565b9050919050565b600073ffffffffffffffffffffffffffffffffffffffff82169050919050565b6000819050919050565b60006157278261572e565b9050919050565b6000615739826156f2565b9050919050565b600061574b82615752565b9050919050565b600061575d826156f2565b9050919050565b600061576f82615776565b9050919050565b6000615781826156f2565b9050919050565b60006157938261579a565b9050919050565b60006157a5826156f2565b9050919050565b60005b838110156157ca5780820151818401526020810190506157af565b838111156157d9576000848401525b50505050565b60006157ea82615712565b915060008214156157fe576157fd615852565b5b600182039050919050565b600061581482615712565b91507fffffffffffffffffffffffffffffffffffffffffffffffffffffffffffffffff82141561584757615846615852565b5b600182019050919050565b7f4e487b7100000000000000000000000000000000000000000000000000000000600052601160045260246000fd5b7f4e487b7100000000000000000000000000000000000000000000000000000000600052601260045260246000fd5b6000601f19601f8301169050919050565b6158ca8161567a565b81146158d557600080fd5b50565b6158e18161568c565b81146158ec57600080fd5b50565b6158f881615698565b811461590357600080fd5b50565b61590f816156a2565b811461591a57600080fd5b50565b615926816156ce565b811461593157600080fd5b50565b61593d816156e0565b811461594857600080fd5b50565b61595481615712565b811461595f57600080fd5b5056fea2646970667358221220d9548ecbaa1ec72c90f0a1841eb7ed2c3bb46529d21c5770378fee3bf01de3ac64736f6c63430008000033",
  "immutableReferences": {},
  "source": "// SPDX-License-Identifier: MIT\n\npragma solidity ^0.8.0;\nimport '@openzeppelin/contracts/access/AccessControl.sol';\nimport '@openzeppelin/contracts/access/Ownable.sol';\nimport '@openzeppelin/contracts/security/Pausable.sol';\nimport '@openzeppelin/contracts/security/ReentrancyGuard.sol';\nimport './SoulPower.sol';\nimport './SeanceCircle.sol';\nimport './interfaces/IMigrator.sol';\n\n// the summoner of souls | ownership transferred to a governance smart contract \n// upon sufficient distribution + the community's desire to self-govern.\n\ncontract SoulSummoner is AccessControl, Ownable, Pausable, ReentrancyGuard {\n\n    // user info\n    struct Users {\n        uint amount;           // total tokens user has provided.\n        uint rewardDebt;       // reward debt (see below).\n        uint rewardDebtAtTime; // the last time user stake.\n        uint lastWithdrawTime; // the last time a user withdrew at.\n        uint firstDepositTime; // the last time a user deposited at.\n        uint timeDelta;        // time passed since withdrawals.\n        uint lastDepositTime;  // most recent deposit time.\n\n        //   pending reward = (user.amount * pool.accSoulPerShare) - user.rewardDebt\n\n        // the following occurs when a user +/- tokens to a pool:\n        //   1. pool: `accSoulPerShare` and `lastRewardTime` update.\n        //   2. user: receives pending reward.\n        //   3. user: `amount` updates(+/-).\n        //   4. user: `rewardDebt` updates (+/-).\n    }\n\n    // pool info\n    struct Pools {\n        IERC20 lpToken;       // lp token ierc20 contract.\n        uint allocPoint;      // allocation points assigned to this pool | SOULs to distribute per second.\n        uint lastRewardTime;  // most recent UNIX timestamp during which SOULs distribution occurred in the pool.\n        uint accSoulPerShare; // accumulated SOULs per share, times 1e12.\n    }\n\n    // soul power: our native utility token\n    address private soulAddress;\n    SoulPower public soul;\n    \n    // seance circle: our governance token\n    address private seanceAddress;\n    SeanceCircle public seance;\n\n    address public team; // receives 1/8 soul supply\n    address public dao; // recieves 1/8 soul supply\n\n    // migrator contract | has lotsa power\n    IMigrator public migrator;\n\n    // blockchain variables accounting for share of overall emissions\n    uint public totalWeight;\n    uint public weight;\n\n    // soul x day x this.chain\n    uint public dailySoul; // = weight * 250K * 1e18;\n\n    // soul x second x this.chain\n    uint public soulPerSecond; // = dailySoul / 86400;\n\n    // bonus muliplier for early soul summoners\n    uint public bonusMultiplier = 1;\n\n    // timestamp when soul rewards began (initialized)\n    uint public startTime;\n\n    // ttl allocation points | must be the sum of all allocation points\n    uint public totalAllocPoint;\n\n    // summoner initialized state.\n    bool public isInitialized;\n\n    // decay rate on withdrawal fee.\n    uint public dailyDecay;\n\n    // start rate for the withdrawal fee.\n    uint public startRate;\n\n    Pools[] public poolInfo; // pool info\n    mapping (uint => mapping (address => Users)) public userInfo; // staker data\n\n    // divinated roles\n    bytes32 public isis; // soul summoning goddess of magic\n    bytes32 public maat; // goddess of cosmic order\n\n    event RoleDivinated(bytes32 role, bytes32 supreme);\n\n    // restricted to the council of the role passed as an object to obey (role)\n    modifier obey(bytes32 role) {\n        _checkRole(role, _msgSender());\n        _;\n    }\n\n    // prevents: early reward distribution\n    modifier isSummoned {\n        require(isInitialized, 'rewards have not yet begun');\n        _;\n    }\n\n    event Deposit(address indexed user, uint indexed pid, uint amount);\n    event Withdraw(address indexed user, uint indexed pid, uint amount, uint timeStamp);\n\n    event Initialized(address team, address dao, address soul, address seance, uint totalAllocPoint, uint weight);\n    event PoolAdded(uint pid, uint allocPoint, IERC20 lpToken, uint totalAllocPoint);\n    event PoolSet(uint pid, uint allocPoint);\n\n    event WeightUpdated(uint weight, uint totalWeight);\n    event RewardsUpdated(uint dailySoul, uint soulPerSecond);\n    event AccountsUpdated(address dao, address team);\n    event TokensUpdated(address soul, address seance);\n\n    // validates: pool exists\n    modifier validatePoolByPid(uint pid) {\n        require(pid < poolInfo.length, 'pool does not exist');\n        _;\n    }\n\n    // channels the power of the isis and ma'at to the deployer (deployer)\n    constructor() {\n        team = msg.sender; // todo: update to multisig\n        dao = msg.sender; // todo: update to multisig\n        \n        isis = keccak256(\"isis\"); // goddess of magic who creates pools\n        maat = keccak256(\"maat\"); // goddess of cosmic order who allocates emissions\n\n        _divinationCeremony(DEFAULT_ADMIN_ROLE, DEFAULT_ADMIN_ROLE, team);\n        _divinationCeremony(isis, isis, team); // isis role created -- owner divined admin\n        _divinationCeremony(maat, isis, dao); // maat role created -- isis divined admin\n    } \n\n    function _divinationCeremony(bytes32 _role, bytes32 _adminRole, address _account) \n        internal returns (bool) {\n            _setupRole(_role, _account);\n            _setRoleAdmin(_role, _adminRole);\n\n        return true;\n    }\n\n    function hasDivineRole(bytes32 role) public view returns (bool) {\n        return hasRole(role, msg.sender);\n    }\n\n    // validate: pool uniqueness to eliminate duplication risk (internal view)\n    function checkPoolDuplicate(IERC20 _token) internal view {\n        uint length = poolInfo.length;\n\n        for (uint pid = 0; pid < length; ++pid) {\n            require(poolInfo[pid].lpToken != _token, 'duplicated pool');\n        }\n    }\n\n    // activates rewards (owner)\n    function initialize(\n        address _soulAddress, \n        address _seanceAddress, \n        uint _totalWeight,\n        uint _weight,\n        uint _stakingAlloc ,\n        uint _startRate,\n        uint _dailyDecay\n       ) external obey(isis) {\n        require(!isInitialized, 'already initialized');\n\n        soulAddress = _soulAddress;\n        seanceAddress = _seanceAddress;\n\n        startTime = block.timestamp;\n\n        totalWeight = _totalWeight + _weight;\n        weight = _weight;\n        startRate = enWei(_startRate);\n        dailyDecay = oneHundreth(_dailyDecay);\n        uint allocPoint = _stakingAlloc;\n\n        soul  = SoulPower(soulAddress);\n        seance = SeanceCircle(seanceAddress);\n\n        updateRewards(weight, totalWeight); // updates dailySoul and soulPerSecond\n\n        // staking pool\n        poolInfo.push(Pools({\n            lpToken: soul,\n            allocPoint: allocPoint,\n            lastRewardTime: startTime,\n            accSoulPerShare: 0\n        }));\n\n        isInitialized = true; // triggers initialize state\n        totalAllocPoint += allocPoint; // kickstarts total allocation\n\n        emit Initialized(team, dao, soulAddress, seanceAddress, totalAllocPoint, weight);\n    }\n\n    function updateMultiplier(uint _bonusMultiplier) external obey(maat) {\n        bonusMultiplier = _bonusMultiplier;\n    }\n\n    function updateRewards(uint _weight, uint _totalWeight) internal {\n        uint share = _weight / _totalWeight; // share of ttl emissions for chain (chain % ttl emissions)\n        dailySoul = share * (250000 * 1e18); // dailySoul (for this.chain) = share (%) x 250K (soul emissions constant)\n        soulPerSecond = dailySoul / 1 days; // updates: daily rewards expressed in seconds (1 days = 86,400 secs)\n\n        emit RewardsUpdated(dailySoul, soulPerSecond);\n    }\n\n    function poolLength() external view returns (uint) {\n        return poolInfo.length;\n    }\n\n    // add: new pool (isis)\n    function addPool(uint _allocPoint, IERC20 _lpToken, bool _withUpdate) \n        public isSummoned obey(isis) { // isis: the soul summoning goddess whose power transcends them all\n            checkPoolDuplicate(_lpToken);\n            _addPool(_allocPoint, _lpToken, _withUpdate);\n    }\n\n    // add: new pool (internal)\n    function _addPool(uint _allocPoint, IERC20 _lpToken, bool _withUpdate) internal {\n        if (_withUpdate) { massUpdatePools(); }\n\n        totalAllocPoint += _allocPoint;\n        \n        poolInfo.push(\n        Pools({\n            lpToken: _lpToken,\n            allocPoint: _allocPoint,\n            lastRewardTime: block.timestamp > startTime ? block.timestamp : startTime,\n            accSoulPerShare: 0\n        }));\n        \n        updateStakingPool();\n        uint pid = poolInfo.length;\n\n        emit PoolAdded(pid, _allocPoint, _lpToken, totalAllocPoint);\n    }\n\n    // set: allocation points (maat)\n    function set(uint pid, uint allocPoint, bool withUpdate) \n        external isSummoned validatePoolByPid(pid) obey(maat) {\n            if (withUpdate) { massUpdatePools(); } // updates all pools\n            \n            uint prevAllocPoint = poolInfo[pid].allocPoint;\n            poolInfo[pid].allocPoint = allocPoint;\n            \n            if (prevAllocPoint != allocPoint) {\n                totalAllocPoint = totalAllocPoint - prevAllocPoint + allocPoint;\n                \n                updateStakingPool(); // updates only selected pool\n        }\n\n        emit PoolSet(pid, allocPoint);\n    }\n\n    // update: weight (maat)\n    function updateWeight(uint _weight) external isSummoned obey(maat) {\n        require(weight != _weight, 'must be new weight value');\n\n        if (weight < _weight) {             // if weight is gained\n            uint gain = _weight - weight;   // calculates weight gained\n            totalWeight += gain;            // increases totalWeight\n        }\n        \n        if (weight > _weight)  {            // if weight is lost\n            uint loss = weight - _weight;   // calculates weight gained\n            totalWeight -= loss;            // decreases totalWeight\n        }\n\n        weight = _weight; // updates weight variable      \n        \n        updateRewards(weight, totalWeight);\n\n        emit WeightUpdated(weight, totalWeight);\n    }\n\n    // update: staking pool (internal)\n    function updateStakingPool() internal {\n        uint length = poolInfo.length;\n        uint points;\n        \n        for (uint pid = 1; pid < length; ++pid) { \n            points = points + poolInfo[pid].allocPoint; \n        }\n\n        if (points != 0) {\n            points = points / 3;\n            totalAllocPoint = totalAllocPoint - poolInfo[0].allocPoint + points;\n            poolInfo[0].allocPoint = points;\n        }\n    }\n\n    // set: migrator contract (owner)\n    function setMigrator(IMigrator _migrator) external isSummoned obey(isis) {\n        migrator = _migrator;\n    }\n\n    // view: user delta\n\tfunction userDelta(uint256 _pid) public view returns (uint256) {\n        Users storage user = userInfo[_pid][msg.sender];\n\t\tif (user.lastWithdrawTime > 0) {\n\t\t\tuint256 estDelta = block.number - user.lastWithdrawTime;\n\t\t\treturn estDelta;\n\t\t} else {\n\t\t    uint256 estDelta = block.number - user.firstDepositTime;\n\t\t\treturn estDelta;\n\t\t}\n\t}\n\n    // migrate: lp tokens to another contract (migrator)\n    function migrate(uint pid) external isSummoned validatePoolByPid(pid) {\n        require(address(migrator) != address(0), 'no migrator set');\n        Pools storage pool = poolInfo[pid];\n        IERC20 lpToken = pool.lpToken;\n\n        uint bal = lpToken.balanceOf(address(this));\n        lpToken.approve(address(migrator), bal);\n        IERC20 _lpToken = migrator.migrate(lpToken);\n        \n        require(bal == _lpToken.balanceOf(address(this)), \"migrate: insufficient balance\");\n        pool.lpToken = _lpToken;\n    }\n\n    // view: bonus multiplier (public)\n    function getMultiplier(uint from, uint to) public view returns (uint) {\n        return (to - from) * bonusMultiplier; // todo: minus parens\n    }\n\n    // acquires decay rate at a given moment (unix)\n    function getFee(uint pid) public view returns (uint) {\n        uint secondsPassed = userInfo[pid][msg.sender].timeDelta;\n        uint daysPassed = secondsPassed < 1 days ? 0 : secondsPassed / 86400;\n        uint decreaseAmount = daysPassed * dailyDecay;\n\n        return decreaseAmount >= startRate ? 0 : startRate - decreaseAmount;\n    }\n\n    // returns the seconds remaining until the next withdrawal decrease\n    function timeUntilNextDecrease(uint pid) public view returns (uint) {\n        uint secondsPassed = userInfo[pid][msg.sender].timeDelta;\n        if (secondsPassed == 0) return 0;\n        uint daysPassed = secondsPassed / 86400;\n        uint untilNextDecay = secondsPassed - (86400 * daysPassed);\n\n        return untilNextDecay;\n    }\n\n    // returns the actual amount taxed and withdrawed\n    function getWithdrawable(uint pid, uint amount) public view returns (uint fee, uint withdrawable) {\n        uint _fee = getFee(pid); // acquires fee for user at timestamp\n        uint _withdrawable = amount - fee;\n\n        return (_fee, _withdrawable);\n    }\n\n    // view: pending soul rewards (external)\n    function pendingSoul(uint pid, address _user) external view returns (uint pendingAmount) {\n        Pools storage pool = poolInfo[pid];\n        Users storage user = userInfo[pid][_user];\n\n        uint accSoulPerShare = pool.accSoulPerShare;\n        uint lpSupply = pool.lpToken.balanceOf(address(this));\n\n        if (block.timestamp > pool.lastRewardTime && lpSupply != 0) {\n            uint multiplier = getMultiplier(pool.lastRewardTime, block.timestamp);\n            uint soulReward = multiplier * soulPerSecond * pool.allocPoint / totalAllocPoint;\n            accSoulPerShare = accSoulPerShare + soulReward * 1e12 / lpSupply;\n        }\n\n        return user.amount * accSoulPerShare / 1e12 - user.rewardDebt;\n    }\n\n    // update: rewards for all pools (public)\n    function massUpdatePools() public {\n        uint length = poolInfo.length;\n        for (uint pid = 0; pid < length; ++pid) { updatePool(pid); }\n    }\n\n    // update: rewards for a given pool id (public)\n    function updatePool(uint pid) public validatePoolByPid(pid) {\n        Pools storage pool = poolInfo[pid];\n\n        if (block.timestamp <= pool.lastRewardTime) { return; }\n        uint lpSupply = pool.lpToken.balanceOf(address(this));\n\n        if (lpSupply == 0) { pool.lastRewardTime = block.timestamp; return; } // first staker in pool\n\n        uint multiplier = getMultiplier(pool.lastRewardTime, block.timestamp);\n        uint soulReward = multiplier * soulPerSecond * pool.allocPoint / totalAllocPoint;\n        \n        uint divi = soulReward * 1e12 / 8e12;   // 12.5% rewards\n        uint divis = divi * 2;                  // total divis\n        uint shares = soulReward - divis;       // net shares\n        \n        soul.mint(team, divi);\n        soul.mint(dao, divi);\n        soul.mint(address(seance), shares);\n\n        pool.accSoulPerShare = pool.accSoulPerShare + (soulReward * 1e12 / lpSupply);\n        pool.lastRewardTime = block.timestamp;\n    }\n\n    // deposit: lp tokens (lp owner)\n    function deposit(uint pid, uint amount) external nonReentrant validatePoolByPid(pid) whenNotPaused {\n        require (pid != 0, 'deposit SOUL by staking');\n\n        Pools storage pool = poolInfo[pid];\n        Users storage user = userInfo[pid][msg.sender];\n        updatePool(pid);\n\n        if (user.amount > 0) { // already deposited assets\n            uint pending = (user.amount * pool.accSoulPerShare) / 1e12 - user.rewardDebt;\n            if(pending > 0) { // sends pending rewards, if applicable\n                safeSoulTransfer(msg.sender, pending);\n            }\n        }\n\n        if (amount > 0) { // if adding more\n            pool.lpToken.transferFrom(address(msg.sender), address(this), amount);\n            user.amount = user.amount + amount;\n        }\n\n        user.rewardDebt = user.amount * pool.accSoulPerShare / 1e12;\n\n        user.firstDepositTime > 0 \n            ? user.firstDepositTime = user.firstDepositTime\n            : user.firstDepositTime = block.timestamp;\n\n        emit Deposit(msg.sender, pid, amount);\n    }\n\n    // withdraw: lp tokens (external farmers)\n    function withdraw(uint pid, uint amount) external nonReentrant validatePoolByPid(pid) {\n        require (pid != 0, 'withdraw SOUL by unstaking');\n        Pools storage pool = poolInfo[pid];\n        Users storage user = userInfo[pid][msg.sender];\n\n        require(user.amount >= amount, 'withdraw not good');\n        updatePool(pid);\n\n        uint pending = user.amount * pool.accSoulPerShare / 1e12 - user.rewardDebt;\n\n        if(pending > 0) { safeSoulTransfer(msg.sender, pending); }\n\n        if(amount > 0) {\n            if(user.lastDepositTime > 0){\n\t\t\t\tuser.timeDelta = block.timestamp - user.lastDepositTime; }\n\t\t\telse { user.timeDelta = block.timestamp - user.firstDepositTime; }\n            \n            user.amount = user.amount - amount;\n            \n            (, uint withdrawable) = getWithdrawable(pid, amount);\n\n            pool.lpToken.transfer(address(msg.sender), withdrawable);\n        }\n      \n        user.rewardDebt = user.amount * pool.accSoulPerShare / 1e12;\n        user.lastWithdrawTime = block.timestamp;\n\n        emit Withdraw(msg.sender, pid, amount, block.timestamp);\n    }\n\n    // stake: soul into summoner (external)\n    function enterStaking(uint amount) external nonReentrant whenNotPaused {\n        Pools storage pool = poolInfo[0];\n        Users storage user = userInfo[0][msg.sender];\n        updatePool(0);\n\n        if (user.amount > 0) {\n            uint pending = user.amount * pool.accSoulPerShare / 1e12 - user.rewardDebt;\n            if(pending > 0) {\n                safeSoulTransfer(msg.sender, pending);\n            }\n        } \n        \n        if(amount > 0) {\n            pool.lpToken.transferFrom(address(msg.sender), address(this), amount);\n            user.amount = user.amount + amount;\n        }\n\n        user.rewardDebt = user.amount * pool.accSoulPerShare / 1e12;\n\n        seance.mint(msg.sender, amount);\n        emit Deposit(msg.sender, 0, amount);\n    }\n\n    // unstake: your soul (external staker)\n    function leaveStaking(uint amount) external nonReentrant {\n        Pools storage pool = poolInfo[0];\n        Users storage user = userInfo[0][msg.sender];\n\n        require(user.amount >= amount, \"withdraw: not good\");\n        updatePool(0);\n\n        uint pending = user.amount * pool.accSoulPerShare / 1e12 - user.rewardDebt;\n\n        if(pending > 0) {\n            safeSoulTransfer(msg.sender, pending);\n        }\n\n        if(amount > 0) {\n            user.amount = user.amount - amount;\n            pool.lpToken.transfer(address(msg.sender), amount);\n        }\n\n        user.rewardDebt = user.amount * pool.accSoulPerShare / 1e12;\n\n        seance.burn(msg.sender, amount);\n        emit Withdraw(msg.sender, 0, amount, block.timestamp);\n    }\n    \n    // transfer: seance (internal)\n    function safeSoulTransfer(address account, uint amount) internal {\n        seance.safeSoulTransfer(account, amount);\n    }\n\n    // update accounts: dao and team addresses (owner)\n    function updateAccounts(address _dao, address _team) external obey(isis) {\n        require(dao != _dao || team != _team, 'must be a new account');\n\n        dao = _dao;\n        team = _team;\n\n        emit AccountsUpdated(dao, team);\n    }\n\n    // update token addresses: soul and seance addresses (owner)\n    function updateTokens(address _soul, address _seance) external obey(isis) {\n        require(soul != IERC20(_soul) || seance != IERC20(_seance), 'must be a new token address');\n\n        soul = SoulPower(_soul);\n        seance = SeanceCircle(_seance);\n\n        emit TokensUpdated(_soul, _seance);\n    }\n\n    function reviseDeposit(uint _pid, address _user, uint256 _time) public obey(maat) {\n        Users storage user = userInfo[_pid][_user];\n        user.firstDepositTime = _time;\n\t    \n\t}\n\n    // helper functions to convert to wei and 1/100th\n    function enWei(uint amount) public pure returns (uint) {  return amount * 1e18; }\n    \n    function oneHundreth(uint amount) public pure returns (uint) { return amount * 1e16; }\n}\n",
  "sourcePath": "/Users/unico/Documents/GitHub/soulswap/soulswap-farms/contracts/SoulSummoner.sol",
  "compiler": {
    "name": "solc",
    "version": "0.8.0+commit.c7dfd78e.Emscripten.clang"
  },
  "schemaVersion": "3.4.1",
  "updatedAt": "2021-09-11T23:51:48.780Z",
  "devdoc": {
    "kind": "dev",
    "methods": {
      "getRoleAdmin(bytes32)": {
        "details": "Returns the admin role that controls `role`. See {grantRole} and {revokeRole}. To change a role's admin, use {_setRoleAdmin}."
      },
      "grantRole(bytes32,address)": {
        "details": "Grants `role` to `account`. If `account` had not been already granted `role`, emits a {RoleGranted} event. Requirements: - the caller must have ``role``'s admin role."
      },
      "hasRole(bytes32,address)": {
        "details": "Returns `true` if `account` has been granted `role`."
      },
      "owner()": {
        "details": "Returns the address of the current owner."
      },
      "paused()": {
        "details": "Returns true if the contract is paused, and false otherwise."
      },
      "renounceOwnership()": {
        "details": "Leaves the contract without owner. It will not be possible to call `onlyOwner` functions anymore. Can only be called by the current owner. NOTE: Renouncing ownership will leave the contract without an owner, thereby removing any functionality that is only available to the owner."
      },
      "renounceRole(bytes32,address)": {
        "details": "Revokes `role` from the calling account. Roles are often managed via {grantRole} and {revokeRole}: this function's purpose is to provide a mechanism for accounts to lose their privileges if they are compromised (such as when a trusted device is misplaced). If the calling account had been granted `role`, emits a {RoleRevoked} event. Requirements: - the caller must be `account`."
      },
      "revokeRole(bytes32,address)": {
        "details": "Revokes `role` from `account`. If `account` had been granted `role`, emits a {RoleRevoked} event. Requirements: - the caller must have ``role``'s admin role."
      },
      "supportsInterface(bytes4)": {
        "details": "See {IERC165-supportsInterface}."
      },
      "transferOwnership(address)": {
        "details": "Transfers ownership of the contract to a new account (`newOwner`). Can only be called by the current owner."
      }
    },
    "version": 1
  },
  "userdoc": {
    "kind": "user",
    "methods": {},
    "version": 1
  }
}