{
  "contractName": "SoulPossession",
  "abi": [
    {
      "anonymous": false,
      "inputs": [
        {
          "indexed": false,
          "internalType": "address",
          "name": "account",
          "type": "address"
        }
      ],
      "name": "Paused",
      "type": "event"
    },
    {
      "anonymous": false,
      "inputs": [
        {
          "indexed": true,
          "internalType": "bytes32",
          "name": "role",
          "type": "bytes32"
        },
        {
          "indexed": true,
          "internalType": "bytes32",
          "name": "previousAdminRole",
          "type": "bytes32"
        },
        {
          "indexed": true,
          "internalType": "bytes32",
          "name": "newAdminRole",
          "type": "bytes32"
        }
      ],
      "name": "RoleAdminChanged",
      "type": "event"
    },
    {
      "anonymous": false,
      "inputs": [
        {
          "indexed": true,
          "internalType": "bytes32",
          "name": "role",
          "type": "bytes32"
        },
        {
          "indexed": true,
          "internalType": "address",
          "name": "account",
          "type": "address"
        },
        {
          "indexed": true,
          "internalType": "address",
          "name": "sender",
          "type": "address"
        }
      ],
      "name": "RoleGranted",
      "type": "event"
    },
    {
      "anonymous": false,
      "inputs": [
        {
          "indexed": true,
          "internalType": "bytes32",
          "name": "role",
          "type": "bytes32"
        },
        {
          "indexed": true,
          "internalType": "address",
          "name": "account",
          "type": "address"
        },
        {
          "indexed": true,
          "internalType": "address",
          "name": "sender",
          "type": "address"
        }
      ],
      "name": "RoleRevoked",
      "type": "event"
    },
    {
      "anonymous": false,
      "inputs": [
        {
          "indexed": false,
          "internalType": "address",
          "name": "account",
          "type": "address"
        }
      ],
      "name": "Unpaused",
      "type": "event"
    },
    {
      "inputs": [],
      "name": "DEFAULT_ADMIN_ROLE",
      "outputs": [
        {
          "internalType": "bytes32",
          "name": "",
          "type": "bytes32"
        }
      ],
      "stateMutability": "view",
      "type": "function"
    },
    {
      "inputs": [],
      "name": "SEANCE",
      "outputs": [
        {
          "internalType": "contract IERC20",
          "name": "",
          "type": "address"
        }
      ],
      "stateMutability": "view",
      "type": "function"
    },
    {
      "inputs": [],
      "name": "SOUL",
      "outputs": [
        {
          "internalType": "contract IERC20",
          "name": "",
          "type": "address"
        }
      ],
      "stateMutability": "view",
      "type": "function"
    },
    {
      "inputs": [],
      "name": "dao",
      "outputs": [
        {
          "internalType": "address",
          "name": "",
          "type": "address"
        }
      ],
      "stateMutability": "view",
      "type": "function"
    },
    {
      "inputs": [
        {
          "internalType": "bytes32",
          "name": "role",
          "type": "bytes32"
        }
      ],
      "name": "getRoleAdmin",
      "outputs": [
        {
          "internalType": "bytes32",
          "name": "",
          "type": "bytes32"
        }
      ],
      "stateMutability": "view",
      "type": "function"
    },
    {
      "inputs": [
        {
          "internalType": "bytes32",
          "name": "role",
          "type": "bytes32"
        },
        {
          "internalType": "address",
          "name": "account",
          "type": "address"
        }
      ],
      "name": "grantRole",
      "outputs": [],
      "stateMutability": "nonpayable",
      "type": "function"
    },
    {
      "inputs": [
        {
          "internalType": "bytes32",
          "name": "role",
          "type": "bytes32"
        },
        {
          "internalType": "address",
          "name": "account",
          "type": "address"
        }
      ],
      "name": "hasRole",
      "outputs": [
        {
          "internalType": "bool",
          "name": "",
          "type": "bool"
        }
      ],
      "stateMutability": "view",
      "type": "function"
    },
    {
      "inputs": [],
      "name": "paused",
      "outputs": [
        {
          "internalType": "bool",
          "name": "",
          "type": "bool"
        }
      ],
      "stateMutability": "view",
      "type": "function"
    },
    {
      "inputs": [
        {
          "internalType": "bytes32",
          "name": "role",
          "type": "bytes32"
        },
        {
          "internalType": "address",
          "name": "account",
          "type": "address"
        }
      ],
      "name": "renounceRole",
      "outputs": [],
      "stateMutability": "nonpayable",
      "type": "function"
    },
    {
      "inputs": [
        {
          "internalType": "bytes32",
          "name": "role",
          "type": "bytes32"
        },
        {
          "internalType": "address",
          "name": "account",
          "type": "address"
        }
      ],
      "name": "revokeRole",
      "outputs": [],
      "stateMutability": "nonpayable",
      "type": "function"
    },
    {
      "inputs": [
        {
          "internalType": "bytes4",
          "name": "interfaceId",
          "type": "bytes4"
        }
      ],
      "name": "supportsInterface",
      "outputs": [
        {
          "internalType": "bool",
          "name": "",
          "type": "bool"
        }
      ],
      "stateMutability": "view",
      "type": "function"
    },
    {
      "inputs": [],
      "name": "supreme",
      "outputs": [
        {
          "internalType": "address",
          "name": "",
          "type": "address"
        }
      ],
      "stateMutability": "view",
      "type": "function"
    },
    {
      "inputs": [],
      "name": "team",
      "outputs": [
        {
          "internalType": "address",
          "name": "",
          "type": "address"
        }
      ],
      "stateMutability": "view",
      "type": "function"
    }
  ],
  "bytecode": "0x60c060405273e2fb177009ff39f52c0134e8007fa0e4baacbd0773ffffffffffffffffffffffffffffffffffffffff1660809073ffffffffffffffffffffffffffffffffffffffff1660601b81525073124b06c5ce47de7a6e9efda71a946717130079e673ffffffffffffffffffffffffffffffffffffffff1660a09073ffffffffffffffffffffffffffffffffffffffff1660601b81525073d0744f7f9f65db946860b974966f83688d4f4630600360006101000a81548173ffffffffffffffffffffffffffffffffffffffff021916908373ffffffffffffffffffffffffffffffffffffffff160217905550731c63c726926197bd3cb75d86bcfb1daebcd87250600460006101000a81548173ffffffffffffffffffffffffffffffffffffffff021916908373ffffffffffffffffffffffffffffffffffffffff1602179055507381dd37687c74df8f957a370a9a4435d873f5e5a9600560006101000a81548173ffffffffffffffffffffffffffffffffffffffff021916908373ffffffffffffffffffffffffffffffffffffffff1602179055503480156101a357600080fd5b506000600160006101000a81548160ff021916908315150217905550600160028190555060805160601c60a05160601c6111366101f260003960006104c40152600061051801526111366000f3fe608060405234801561001057600080fd5b50600436106100cf5760003560e01c80635c975abb1161008c5780639316daff116100665780639316daff14610214578063a217fddf14610232578063d547741f14610250578063e402ceeb1461026c576100cf565b80635c975abb146101a857806385f2aef2146101c657806391d14854146101e4576100cf565b806301ffc9a7146100d4578063248a9ca3146101045780632f2ff15d1461013457806336568abe146101505780634162169f1461016c57806348f8bfea1461018a575b600080fd5b6100ee60048036038101906100e99190610ba8565b61028a565b6040516100fb9190610df2565b60405180910390f35b61011e60048036038101906101199190610b43565b610304565b60405161012b9190610e0d565b60405180910390f35b61014e60048036038101906101499190610b6c565b610323565b005b61016a60048036038101906101659190610b6c565b61034c565b005b6101746103cf565b6040516101819190610dd7565b60405180910390f35b6101926103f5565b60405161019f9190610dd7565b60405180910390f35b6101b061041b565b6040516101bd9190610df2565b60405180910390f35b6101ce610432565b6040516101db9190610dd7565b60405180910390f35b6101fe60048036038101906101f99190610b6c565b610458565b60405161020b9190610df2565b60405180910390f35b61021c6104c2565b6040516102299190610e28565b60405180910390f35b61023a6104e6565b6040516102479190610e0d565b60405180910390f35b61026a60048036038101906102659190610b6c565b6104ed565b005b610274610516565b6040516102819190610e28565b60405180910390f35b60007f7965db0b000000000000000000000000000000000000000000000000000000007bffffffffffffffffffffffffffffffffffffffffffffffffffffffff1916827bffffffffffffffffffffffffffffffffffffffffffffffffffffffff191614806102fd57506102fc8261053a565b5b9050919050565b6000806000838152602001908152602001600020600101549050919050565b61032c82610304565b61033d816103386105a4565b6105ac565b6103478383610649565b505050565b6103546105a4565b73ffffffffffffffffffffffffffffffffffffffff168173ffffffffffffffffffffffffffffffffffffffff16146103c1576040517f08c379a00000000000000000000000000000000000000000000000000000000081526004016103b890610e85565b60405180910390fd5b6103cb8282610729565b5050565b600460009054906101000a900473ffffffffffffffffffffffffffffffffffffffff1681565b600560009054906101000a900473ffffffffffffffffffffffffffffffffffffffff1681565b6000600160009054906101000a900460ff16905090565b600360009054906101000a900473ffffffffffffffffffffffffffffffffffffffff1681565b600080600084815260200190815260200160002060000160008373ffffffffffffffffffffffffffffffffffffffff1673ffffffffffffffffffffffffffffffffffffffff16815260200190815260200160002060009054906101000a900460ff16905092915050565b7f000000000000000000000000000000000000000000000000000000000000000081565b6000801b81565b6104f682610304565b610507816105026105a4565b6105ac565b6105118383610729565b505050565b7f000000000000000000000000000000000000000000000000000000000000000081565b60007f01ffc9a7000000000000000000000000000000000000000000000000000000007bffffffffffffffffffffffffffffffffffffffffffffffffffffffff1916827bffffffffffffffffffffffffffffffffffffffffffffffffffffffff1916149050919050565b600033905090565b6105b68282610458565b610645576105db8173ffffffffffffffffffffffffffffffffffffffff16601461080a565b6105e98360001c602061080a565b6040516020016105fa929190610d9d565b6040516020818303038152906040526040517f08c379a000000000000000000000000000000000000000000000000000000000815260040161063c9190610e43565b60405180910390fd5b5050565b6106538282610458565b61072557600160008084815260200190815260200160002060000160008373ffffffffffffffffffffffffffffffffffffffff1673ffffffffffffffffffffffffffffffffffffffff16815260200190815260200160002060006101000a81548160ff0219169083151502179055506106ca6105a4565b73ffffffffffffffffffffffffffffffffffffffff168173ffffffffffffffffffffffffffffffffffffffff16837f2f8788117e7eff1d82e926ec794901d17c78024a50270940304540a733656f0d60405160405180910390a45b5050565b6107338282610458565b1561080657600080600084815260200190815260200160002060000160008373ffffffffffffffffffffffffffffffffffffffff1673ffffffffffffffffffffffffffffffffffffffff16815260200190815260200160002060006101000a81548160ff0219169083151502179055506107ab6105a4565b73ffffffffffffffffffffffffffffffffffffffff168173ffffffffffffffffffffffffffffffffffffffff16837ff6391f5c32d9c69d2a47ea670b442974b53935d1edc7fd64eb21e047a839171b60405160405180910390a45b5050565b60606000600283600261081d9190610f22565b6108279190610ecc565b67ffffffffffffffff811115610866577f4e487b7100000000000000000000000000000000000000000000000000000000600052604160045260246000fd5b6040519080825280601f01601f1916602001820160405280156108985781602001600182028036833780820191505090505b5090507f3000000000000000000000000000000000000000000000000000000000000000816000815181106108f6577f4e487b7100000000000000000000000000000000000000000000000000000000600052603260045260246000fd5b60200101907effffffffffffffffffffffffffffffffffffffffffffffffffffffffffffff1916908160001a9053507f780000000000000000000000000000000000000000000000000000000000000081600181518110610980577f4e487b7100000000000000000000000000000000000000000000000000000000600052603260045260246000fd5b60200101907effffffffffffffffffffffffffffffffffffffffffffffffffffffffffffff1916908160001a905350600060018460026109c09190610f22565b6109ca9190610ecc565b90505b6001811115610ab6577f3031323334353637383961626364656600000000000000000000000000000000600f861660108110610a32577f4e487b7100000000000000000000000000000000000000000000000000000000600052603260045260246000fd5b1a60f81b828281518110610a6f577f4e487b7100000000000000000000000000000000000000000000000000000000600052603260045260246000fd5b60200101907effffffffffffffffffffffffffffffffffffffffffffffffffffffffffffff1916908160001a905350600485901c945080610aaf90611051565b90506109cd565b5060008414610afa576040517f08c379a0000000000000000000000000000000000000000000000000000000008152600401610af190610e65565b60405180910390fd5b8091505092915050565b600081359050610b13816110bb565b92915050565b600081359050610b28816110d2565b92915050565b600081359050610b3d816110e9565b92915050565b600060208284031215610b5557600080fd5b6000610b6384828501610b19565b91505092915050565b60008060408385031215610b7f57600080fd5b6000610b8d85828601610b19565b9250506020610b9e85828601610b04565b9150509250929050565b600060208284031215610bba57600080fd5b6000610bc884828501610b2e565b91505092915050565b610bda81610f7c565b82525050565b610be981610f8e565b82525050565b610bf881610f9a565b82525050565b610c0781610ffa565b82525050565b6000610c1882610ea5565b610c228185610eb0565b9350610c3281856020860161101e565b610c3b816110aa565b840191505092915050565b6000610c5182610ea5565b610c5b8185610ec1565b9350610c6b81856020860161101e565b80840191505092915050565b6000610c84602083610eb0565b91507f537472696e67733a20686578206c656e67746820696e73756666696369656e746000830152602082019050919050565b6000610cc4601783610ec1565b91507f416363657373436f6e74726f6c3a206163636f756e74200000000000000000006000830152601782019050919050565b6000610d04601183610ec1565b91507f206973206d697373696e6720726f6c65200000000000000000000000000000006000830152601182019050919050565b6000610d44602f83610eb0565b91507f416363657373436f6e74726f6c3a2063616e206f6e6c792072656e6f756e636560008301527f20726f6c657320666f722073656c6600000000000000000000000000000000006020830152604082019050919050565b6000610da882610cb7565b9150610db48285610c46565b9150610dbf82610cf7565b9150610dcb8284610c46565b91508190509392505050565b6000602082019050610dec6000830184610bd1565b92915050565b6000602082019050610e076000830184610be0565b92915050565b6000602082019050610e226000830184610bef565b92915050565b6000602082019050610e3d6000830184610bfe565b92915050565b60006020820190508181036000830152610e5d8184610c0d565b905092915050565b60006020820190508181036000830152610e7e81610c77565b9050919050565b60006020820190508181036000830152610e9e81610d37565b9050919050565b600081519050919050565b600082825260208201905092915050565b600081905092915050565b6000610ed782610ff0565b9150610ee283610ff0565b9250827fffffffffffffffffffffffffffffffffffffffffffffffffffffffffffffffff03821115610f1757610f1661107b565b5b828201905092915050565b6000610f2d82610ff0565b9150610f3883610ff0565b9250817fffffffffffffffffffffffffffffffffffffffffffffffffffffffffffffffff0483118215151615610f7157610f7061107b565b5b828202905092915050565b6000610f8782610fd0565b9050919050565b60008115159050919050565b6000819050919050565b60007fffffffff0000000000000000000000000000000000000000000000000000000082169050919050565b600073ffffffffffffffffffffffffffffffffffffffff82169050919050565b6000819050919050565b60006110058261100c565b9050919050565b600061101782610fd0565b9050919050565b60005b8381101561103c578082015181840152602081019050611021565b8381111561104b576000848401525b50505050565b600061105c82610ff0565b915060008214156110705761106f61107b565b5b600182039050919050565b7f4e487b7100000000000000000000000000000000000000000000000000000000600052601160045260246000fd5b6000601f19601f8301169050919050565b6110c481610f7c565b81146110cf57600080fd5b50565b6110db81610f9a565b81146110e657600080fd5b50565b6110f281610fa4565b81146110fd57600080fd5b5056fea2646970667358221220240e9fa1bda060e72a19319ffef0d70f6a0d717cca244e0c60c91fcd177d181c64736f6c63430008000033",
  "immutableReferences": {
    "19579": [
      {
        "length": 32,
        "start": 1304
      }
    ],
    "19585": [
      {
        "length": 32,
        "start": 1220
      }
    ]
  },
  "source": "// SPDX-License-Identifier: MIT\n\n//// @title SoulPossession.sol\n/// @author Buns Enchantress\n/// @notice Contract that controls the farming pools and enforces congruence.\n/// @dev Ensure the contract consolidates power to initialize DAO-ification.\n\n/* \n\nNOTABLE FEATURES & ENCHANCEMENTS\n\n    SUMMARY: Isolated Farming Pools that enable the localization of rewards mechanism via a universal controller.\n    This (Activates) Protocol Management (x) Leveraging Decentralized (Control), which helps our protocol keeps up \n    with new defi-farming techniques.\n\n     Single Source of Truth | Consolidates: the Protocol, Pools, and Power.\n\n        1. Protocol Management\n             Rewards Allocation via AURA Transmutation\n             Gauge-esque Rewards\n                - Use voting power to allocate towards multiplier on allocation.\n\n        2. Pools Management\n             Creation of New Pools (\"Farms\")\n             Rewards Allocation (Control)\n             Key Function Calls\n        \n        3. Powered by Possession\n             Embedded AURA Allocation Visibility\n             \"AURA-Empowered Emissions\"\n\n     Key Benefits | Clarifies, Controls, Consolidates\n\n        1. Clarifies\n             The utility of SOUL and power of one's AURA.\n             The voting power a user has at any given moment.\n\n        2. Controls\n             Farming Allocation: this prevent over or under allocation.\n             Eliminates: Migrator Functionality.\n             Flexible Rewards Expression\n                - For example, use rewards to auto-reinvest.\n\n        3. Consolidates\n             Key Protocol Metrics: TVL, APR, Ownership, Generated Revenue.\n             Key User Metrics: voting power, total pending rewards, AURA allocation.\n             Strategies in effect, profitability of each component.\n             Updates: Alerts Upcoming Changes\n                - New Integrated Farms: alerts users of new farms.\n                - Farm Removal: alerts users when the farm is near expiration or termination.\n                - Allocation Deltas: alert users to provides notification of a substantial change in allocation.\n                - @dev consider using events + event listener for off-chain, UI notification system.\n    \n     Examples | Farming Pools Smart Contracts\n        1. Autocompounding Vault\n             Re-invests Harvests\n        2. Rewards Variants\n             Rewards Vested Over Time\n             Time-Locked Rewards\n             Fees + Redistribution\n        3. Early Withdrawal Fees\n        4. Bonding Mechanisms (with voting power)\n        5. Dual-Rewards // Rewards Fusion\n\n*/\n\npragma solidity =0.8.0;\n\nimport '../libraries/ERC20.sol';\nimport '@openzeppelin/contracts/access/AccessControl.sol';\nimport '@openzeppelin/contracts/security/ReentrancyGuard.sol';\nimport '@openzeppelin/contracts/security/Pausable.sol';\n\ncontract SoulPossession is AccessControl, Pausable, ReentrancyGuard {\n\n    // KEY ADDRESSES //\n\n    // soul power: our native utility token.\n    IERC20 public immutable SOUL = IERC20(0xe2fb177009FF39F52C0134E8007FA0e4BaAcBd07);\n    // seance circle: our receipt token.\n    IERC20 public immutable SEANCE = IERC20(0x124B06C5ce47De7A6e9EFDA71a946717130079E6);\n    // team and dao: each receive 12.5% overall emissions.\n    address public team = 0xd0744f7F9f65db946860B974966f83688D4f4630;\n    address public dao = 0x1C63C726926197BD3CB75d86bCFB1DaeBcD87250;\n    address public supreme = 0x81Dd37687c74Df8F957a370A9A4435D873F5e5A9;\n\n    // KEY STRUCTS: MEMBERS + FARMERS + FARMS //\n\n    // Member-Level Details (Member)\n    struct Members {\n        uint power;                  // total voting power a user holds (aka AURA).\n        uint level;                  // corresponding AURA level (?)\n        uint allocated;              // voting power allocated to a farm.\n        uint claimed;                // total claimed by a user.\n        uint lastTimeClaimed;        // most recent time a user claimed.\n        uint lastTimeAllocated;      // most recent time user allocated power to a farm.\n\n        //  pending reward = (user.amount * pool.accSoulPerShare) - user.rewardDebt\n\n        // the following occurs when a user +/- to a pool (where applicable):\n        //   1. members: `lastTimeClaimed` and/or `lastTimeAllocated` is updated.\n        //   2. members: `power` and `level` are updated (if applicable).\n        //   3. members: `allocated` and `claimed` update (+/-).\n    }\n\n    // Farmer-Level Details (Farm-Member) //\n    struct Farmers {\n        uint amount;           // total tokens farmer has deposited.\n        uint rewardDebt;       // reward debt (see below).\n        uint rewardDebtAtTime; // the last time user stake.\n        uint lastWithdrawTime; // the last time a user withdrew at.\n        uint firstDepositTime; // the last time a user deposited at.\n        uint timeDelta;        // time passed since withdrawals.\n        uint lastDepositTime;  // most recent deposit time.\n\n        //  pending reward = (user.amount * pool.accSoulPerShare) - user.rewardDebt\n\n        // the following occurs when a farmer +/- to a pool:\n        //   1. pool: `accSoulPerShare` and `lastRewardTime` update.\n        //   2. farmer: receives pending reward.\n        //   3. farmer: `amount` updates(+/-).\n        //   4. farmer: `rewardDebt` updates (+/-).\n    }\n\n    // Farm-Level Details\n    struct Pools {\n        IERC20 lpToken;       // lp token ierc20 contract.\n        uint allocPoint;      // allocation points assigned to this pool | SOULs to distribute per second.\n        uint lastRewardTime;  // most recent UNIX timestamp during which SOULs distribution occurred in the pool.\n        uint accSoulPerShare; // accumulated SOULs per share, times 1e12.\n    }\n\n\n\n}",
  "sourcePath": "/Users/buns/Documents/GitHub/SoulSwapFinance/soulswap-farms/contracts/rewards/SoulPossession.sol",
  "compiler": {
    "name": "solc",
    "version": "0.8.0+commit.c7dfd78e.Emscripten.clang"
  },
  "schemaVersion": "3.4.1",
  "updatedAt": "2022-09-18T14:14:41.965Z",
  "devdoc": {
    "kind": "dev",
    "methods": {
      "getRoleAdmin(bytes32)": {
        "details": "Returns the admin role that controls `role`. See {grantRole} and {revokeRole}. To change a role's admin, use {_setRoleAdmin}."
      },
      "grantRole(bytes32,address)": {
        "details": "Grants `role` to `account`. If `account` had not been already granted `role`, emits a {RoleGranted} event. Requirements: - the caller must have ``role``'s admin role."
      },
      "hasRole(bytes32,address)": {
        "details": "Returns `true` if `account` has been granted `role`."
      },
      "paused()": {
        "details": "Returns true if the contract is paused, and false otherwise."
      },
      "renounceRole(bytes32,address)": {
        "details": "Revokes `role` from the calling account. Roles are often managed via {grantRole} and {revokeRole}: this function's purpose is to provide a mechanism for accounts to lose their privileges if they are compromised (such as when a trusted device is misplaced). If the calling account had been granted `role`, emits a {RoleRevoked} event. Requirements: - the caller must be `account`."
      },
      "revokeRole(bytes32,address)": {
        "details": "Revokes `role` from `account`. If `account` had been granted `role`, emits a {RoleRevoked} event. Requirements: - the caller must have ``role``'s admin role."
      },
      "supportsInterface(bytes4)": {
        "details": "See {IERC165-supportsInterface}."
      }
    },
    "version": 1
  },
  "userdoc": {
    "kind": "user",
    "methods": {},
    "version": 1
  }
}