{
  "contractName": "SoulManifester",
  "abi": [
    {
      "inputs": [],
      "stateMutability": "nonpayable",
      "type": "constructor"
    },
    {
      "anonymous": false,
      "inputs": [
        {
          "indexed": false,
          "internalType": "address",
          "name": "dao",
          "type": "address"
        },
        {
          "indexed": false,
          "internalType": "address",
          "name": "team",
          "type": "address"
        }
      ],
      "name": "AccountsUpdated",
      "type": "event"
    },
    {
      "anonymous": false,
      "inputs": [
        {
          "indexed": true,
          "internalType": "address",
          "name": "user",
          "type": "address"
        },
        {
          "indexed": true,
          "internalType": "uint256",
          "name": "pid",
          "type": "uint256"
        },
        {
          "indexed": false,
          "internalType": "uint256",
          "name": "amount",
          "type": "uint256"
        },
        {
          "indexed": false,
          "internalType": "uint256",
          "name": "timestamp",
          "type": "uint256"
        }
      ],
      "name": "Deposit",
      "type": "event"
    },
    {
      "anonymous": false,
      "inputs": [
        {
          "indexed": false,
          "internalType": "uint256",
          "name": "pid",
          "type": "uint256"
        },
        {
          "indexed": false,
          "internalType": "address",
          "name": "account",
          "type": "address"
        },
        {
          "indexed": false,
          "internalType": "uint256",
          "name": "timestamp",
          "type": "uint256"
        }
      ],
      "name": "DepositRevised",
      "type": "event"
    },
    {
      "anonymous": false,
      "inputs": [
        {
          "indexed": true,
          "internalType": "address",
          "name": "user",
          "type": "address"
        },
        {
          "indexed": true,
          "internalType": "uint256",
          "name": "pid",
          "type": "uint256"
        },
        {
          "indexed": false,
          "internalType": "uint256",
          "name": "amount",
          "type": "uint256"
        }
      ],
      "name": "EmergencyWithdraw",
      "type": "event"
    },
    {
      "anonymous": false,
      "inputs": [
        {
          "indexed": false,
          "internalType": "uint256",
          "name": "pid",
          "type": "uint256"
        },
        {
          "indexed": false,
          "internalType": "uint256",
          "name": "feeDays",
          "type": "uint256"
        }
      ],
      "name": "FeeDaysUpdated",
      "type": "event"
    },
    {
      "anonymous": false,
      "inputs": [
        {
          "indexed": false,
          "internalType": "address",
          "name": "soulAddress",
          "type": "address"
        },
        {
          "indexed": false,
          "internalType": "address",
          "name": "seanceAddress",
          "type": "address"
        },
        {
          "indexed": false,
          "internalType": "uint256",
          "name": "weight",
          "type": "uint256"
        }
      ],
      "name": "Initialized",
      "type": "event"
    },
    {
      "anonymous": false,
      "inputs": [
        {
          "indexed": false,
          "internalType": "uint256",
          "name": "pid",
          "type": "uint256"
        },
        {
          "indexed": false,
          "internalType": "uint256",
          "name": "allocPoint",
          "type": "uint256"
        },
        {
          "indexed": false,
          "internalType": "contract IERC20",
          "name": "lpToken",
          "type": "address"
        },
        {
          "indexed": false,
          "internalType": "uint256",
          "name": "totalAllocPoint",
          "type": "uint256"
        }
      ],
      "name": "PoolAdded",
      "type": "event"
    },
    {
      "anonymous": false,
      "inputs": [
        {
          "indexed": false,
          "internalType": "uint256",
          "name": "pid",
          "type": "uint256"
        },
        {
          "indexed": false,
          "internalType": "uint256",
          "name": "allocPoint",
          "type": "uint256"
        }
      ],
      "name": "PoolSet",
      "type": "event"
    },
    {
      "anonymous": false,
      "inputs": [
        {
          "indexed": false,
          "internalType": "uint256",
          "name": "dailySoul",
          "type": "uint256"
        },
        {
          "indexed": false,
          "internalType": "uint256",
          "name": "soulPerSecond",
          "type": "uint256"
        }
      ],
      "name": "RewardsUpdated",
      "type": "event"
    },
    {
      "anonymous": false,
      "inputs": [
        {
          "indexed": true,
          "internalType": "bytes32",
          "name": "role",
          "type": "bytes32"
        },
        {
          "indexed": true,
          "internalType": "bytes32",
          "name": "previousAdminRole",
          "type": "bytes32"
        },
        {
          "indexed": true,
          "internalType": "bytes32",
          "name": "newAdminRole",
          "type": "bytes32"
        }
      ],
      "name": "RoleAdminChanged",
      "type": "event"
    },
    {
      "anonymous": false,
      "inputs": [
        {
          "indexed": true,
          "internalType": "bytes32",
          "name": "role",
          "type": "bytes32"
        },
        {
          "indexed": true,
          "internalType": "address",
          "name": "account",
          "type": "address"
        },
        {
          "indexed": true,
          "internalType": "address",
          "name": "sender",
          "type": "address"
        }
      ],
      "name": "RoleGranted",
      "type": "event"
    },
    {
      "anonymous": false,
      "inputs": [
        {
          "indexed": true,
          "internalType": "bytes32",
          "name": "role",
          "type": "bytes32"
        },
        {
          "indexed": true,
          "internalType": "address",
          "name": "account",
          "type": "address"
        },
        {
          "indexed": true,
          "internalType": "address",
          "name": "sender",
          "type": "address"
        }
      ],
      "name": "RoleRevoked",
      "type": "event"
    },
    {
      "anonymous": false,
      "inputs": [
        {
          "indexed": false,
          "internalType": "address",
          "name": "soul",
          "type": "address"
        },
        {
          "indexed": false,
          "internalType": "address",
          "name": "seance",
          "type": "address"
        }
      ],
      "name": "TokensUpdated",
      "type": "event"
    },
    {
      "anonymous": false,
      "inputs": [
        {
          "indexed": false,
          "internalType": "uint256",
          "name": "weight",
          "type": "uint256"
        },
        {
          "indexed": false,
          "internalType": "uint256",
          "name": "totalWeight",
          "type": "uint256"
        }
      ],
      "name": "WeightUpdated",
      "type": "event"
    },
    {
      "anonymous": false,
      "inputs": [
        {
          "indexed": true,
          "internalType": "address",
          "name": "user",
          "type": "address"
        },
        {
          "indexed": true,
          "internalType": "uint256",
          "name": "pid",
          "type": "uint256"
        },
        {
          "indexed": false,
          "internalType": "uint256",
          "name": "amount",
          "type": "uint256"
        },
        {
          "indexed": false,
          "internalType": "uint256",
          "name": "feeAmount",
          "type": "uint256"
        },
        {
          "indexed": false,
          "internalType": "uint256",
          "name": "timeStamp",
          "type": "uint256"
        }
      ],
      "name": "Withdraw",
      "type": "event"
    },
    {
      "inputs": [],
      "name": "DEFAULT_ADMIN_ROLE",
      "outputs": [
        {
          "internalType": "bytes32",
          "name": "",
          "type": "bytes32"
        }
      ],
      "stateMutability": "view",
      "type": "function"
    },
    {
      "inputs": [],
      "name": "bonusMultiplier",
      "outputs": [
        {
          "internalType": "uint256",
          "name": "",
          "type": "uint256"
        }
      ],
      "stateMutability": "view",
      "type": "function"
    },
    {
      "inputs": [],
      "name": "dailyDecay",
      "outputs": [
        {
          "internalType": "uint256",
          "name": "",
          "type": "uint256"
        }
      ],
      "stateMutability": "view",
      "type": "function"
    },
    {
      "inputs": [],
      "name": "dailySoul",
      "outputs": [
        {
          "internalType": "uint256",
          "name": "",
          "type": "uint256"
        }
      ],
      "stateMutability": "view",
      "type": "function"
    },
    {
      "inputs": [],
      "name": "dao",
      "outputs": [
        {
          "internalType": "address",
          "name": "",
          "type": "address"
        }
      ],
      "stateMutability": "view",
      "type": "function"
    },
    {
      "inputs": [
        {
          "internalType": "bytes32",
          "name": "role",
          "type": "bytes32"
        }
      ],
      "name": "getRoleAdmin",
      "outputs": [
        {
          "internalType": "bytes32",
          "name": "",
          "type": "bytes32"
        }
      ],
      "stateMutability": "view",
      "type": "function"
    },
    {
      "inputs": [],
      "name": "globalDailySoul",
      "outputs": [
        {
          "internalType": "uint256",
          "name": "",
          "type": "uint256"
        }
      ],
      "stateMutability": "view",
      "type": "function"
    },
    {
      "inputs": [
        {
          "internalType": "bytes32",
          "name": "role",
          "type": "bytes32"
        },
        {
          "internalType": "address",
          "name": "account",
          "type": "address"
        }
      ],
      "name": "grantRole",
      "outputs": [],
      "stateMutability": "nonpayable",
      "type": "function"
    },
    {
      "inputs": [
        {
          "internalType": "bytes32",
          "name": "role",
          "type": "bytes32"
        },
        {
          "internalType": "address",
          "name": "account",
          "type": "address"
        }
      ],
      "name": "hasRole",
      "outputs": [
        {
          "internalType": "bool",
          "name": "",
          "type": "bool"
        }
      ],
      "stateMutability": "view",
      "type": "function"
    },
    {
      "inputs": [],
      "name": "isActivated",
      "outputs": [
        {
          "internalType": "bool",
          "name": "",
          "type": "bool"
        }
      ],
      "stateMutability": "view",
      "type": "function"
    },
    {
      "inputs": [],
      "name": "isEmergency",
      "outputs": [
        {
          "internalType": "bool",
          "name": "",
          "type": "bool"
        }
      ],
      "stateMutability": "view",
      "type": "function"
    },
    {
      "inputs": [],
      "name": "isInitialized",
      "outputs": [
        {
          "internalType": "bool",
          "name": "",
          "type": "bool"
        }
      ],
      "stateMutability": "view",
      "type": "function"
    },
    {
      "inputs": [],
      "name": "isis",
      "outputs": [
        {
          "internalType": "bytes32",
          "name": "",
          "type": "bytes32"
        }
      ],
      "stateMutability": "view",
      "type": "function"
    },
    {
      "inputs": [],
      "name": "maat",
      "outputs": [
        {
          "internalType": "bytes32",
          "name": "",
          "type": "bytes32"
        }
      ],
      "stateMutability": "view",
      "type": "function"
    },
    {
      "inputs": [],
      "name": "maxFeeDays",
      "outputs": [
        {
          "internalType": "uint256",
          "name": "",
          "type": "uint256"
        }
      ],
      "stateMutability": "view",
      "type": "function"
    },
    {
      "inputs": [
        {
          "internalType": "uint256",
          "name": "",
          "type": "uint256"
        }
      ],
      "name": "poolInfo",
      "outputs": [
        {
          "internalType": "contract IERC20",
          "name": "lpToken",
          "type": "address"
        },
        {
          "internalType": "uint256",
          "name": "allocPoint",
          "type": "uint256"
        },
        {
          "internalType": "uint256",
          "name": "lastRewardTime",
          "type": "uint256"
        },
        {
          "internalType": "uint256",
          "name": "accSoulPerShare",
          "type": "uint256"
        },
        {
          "internalType": "uint256",
          "name": "feeDays",
          "type": "uint256"
        }
      ],
      "stateMutability": "view",
      "type": "function"
    },
    {
      "inputs": [
        {
          "internalType": "bytes32",
          "name": "role",
          "type": "bytes32"
        },
        {
          "internalType": "address",
          "name": "account",
          "type": "address"
        }
      ],
      "name": "renounceRole",
      "outputs": [],
      "stateMutability": "nonpayable",
      "type": "function"
    },
    {
      "inputs": [
        {
          "internalType": "bytes32",
          "name": "role",
          "type": "bytes32"
        },
        {
          "internalType": "address",
          "name": "account",
          "type": "address"
        }
      ],
      "name": "revokeRole",
      "outputs": [],
      "stateMutability": "nonpayable",
      "type": "function"
    },
    {
      "inputs": [],
      "name": "seance",
      "outputs": [
        {
          "internalType": "contract IToken",
          "name": "",
          "type": "address"
        }
      ],
      "stateMutability": "view",
      "type": "function"
    },
    {
      "inputs": [],
      "name": "soul",
      "outputs": [
        {
          "internalType": "contract IToken",
          "name": "",
          "type": "address"
        }
      ],
      "stateMutability": "view",
      "type": "function"
    },
    {
      "inputs": [],
      "name": "soulPerSecond",
      "outputs": [
        {
          "internalType": "uint256",
          "name": "",
          "type": "uint256"
        }
      ],
      "stateMutability": "view",
      "type": "function"
    },
    {
      "inputs": [],
      "name": "startTime",
      "outputs": [
        {
          "internalType": "uint256",
          "name": "",
          "type": "uint256"
        }
      ],
      "stateMutability": "view",
      "type": "function"
    },
    {
      "inputs": [
        {
          "internalType": "bytes4",
          "name": "interfaceId",
          "type": "bytes4"
        }
      ],
      "name": "supportsInterface",
      "outputs": [
        {
          "internalType": "bool",
          "name": "",
          "type": "bool"
        }
      ],
      "stateMutability": "view",
      "type": "function"
    },
    {
      "inputs": [],
      "name": "supreme",
      "outputs": [
        {
          "internalType": "address",
          "name": "",
          "type": "address"
        }
      ],
      "stateMutability": "view",
      "type": "function"
    },
    {
      "inputs": [],
      "name": "team",
      "outputs": [
        {
          "internalType": "address",
          "name": "",
          "type": "address"
        }
      ],
      "stateMutability": "view",
      "type": "function"
    },
    {
      "inputs": [],
      "name": "totalAllocPoint",
      "outputs": [
        {
          "internalType": "uint256",
          "name": "",
          "type": "uint256"
        }
      ],
      "stateMutability": "view",
      "type": "function"
    },
    {
      "inputs": [],
      "name": "totalWeight",
      "outputs": [
        {
          "internalType": "uint256",
          "name": "",
          "type": "uint256"
        }
      ],
      "stateMutability": "view",
      "type": "function"
    },
    {
      "inputs": [
        {
          "internalType": "uint256",
          "name": "",
          "type": "uint256"
        },
        {
          "internalType": "address",
          "name": "",
          "type": "address"
        }
      ],
      "name": "userInfo",
      "outputs": [
        {
          "internalType": "uint256",
          "name": "amount",
          "type": "uint256"
        },
        {
          "internalType": "uint256",
          "name": "rewardDebt",
          "type": "uint256"
        },
        {
          "internalType": "uint256",
          "name": "withdrawalTime",
          "type": "uint256"
        },
        {
          "internalType": "uint256",
          "name": "depositTime",
          "type": "uint256"
        },
        {
          "internalType": "uint256",
          "name": "timeDelta",
          "type": "uint256"
        },
        {
          "internalType": "uint256",
          "name": "deltaDays",
          "type": "uint256"
        }
      ],
      "stateMutability": "view",
      "type": "function"
    },
    {
      "inputs": [],
      "name": "weight",
      "outputs": [
        {
          "internalType": "uint256",
          "name": "",
          "type": "uint256"
        }
      ],
      "stateMutability": "view",
      "type": "function"
    },
    {
      "inputs": [
        {
          "internalType": "address",
          "name": "_soulAddress",
          "type": "address"
        },
        {
          "internalType": "address",
          "name": "_seanceAddress",
          "type": "address"
        },
        {
          "internalType": "uint256",
          "name": "_weight",
          "type": "uint256"
        }
      ],
      "name": "initialize",
      "outputs": [],
      "stateMutability": "nonpayable",
      "type": "function"
    },
    {
      "inputs": [
        {
          "internalType": "bool",
          "name": "enabled",
          "type": "bool"
        }
      ],
      "name": "toggleEmergency",
      "outputs": [],
      "stateMutability": "nonpayable",
      "type": "function"
    },
    {
      "inputs": [
        {
          "internalType": "bool",
          "name": "enabled",
          "type": "bool"
        }
      ],
      "name": "toggleActive",
      "outputs": [],
      "stateMutability": "nonpayable",
      "type": "function"
    },
    {
      "inputs": [],
      "name": "poolLength",
      "outputs": [
        {
          "internalType": "uint256",
          "name": "",
          "type": "uint256"
        }
      ],
      "stateMutability": "view",
      "type": "function"
    },
    {
      "inputs": [
        {
          "internalType": "uint256",
          "name": "_allocPoint",
          "type": "uint256"
        },
        {
          "internalType": "contract IERC20",
          "name": "_lpToken",
          "type": "address"
        },
        {
          "internalType": "bool",
          "name": "_withUpdate",
          "type": "bool"
        },
        {
          "internalType": "uint256",
          "name": "_feeDays",
          "type": "uint256"
        }
      ],
      "name": "addPool",
      "outputs": [],
      "stateMutability": "nonpayable",
      "type": "function"
    },
    {
      "inputs": [
        {
          "internalType": "uint256",
          "name": "pid",
          "type": "uint256"
        },
        {
          "internalType": "uint256",
          "name": "allocPoint",
          "type": "uint256"
        },
        {
          "internalType": "bool",
          "name": "withUpdate",
          "type": "bool"
        }
      ],
      "name": "set",
      "outputs": [],
      "stateMutability": "nonpayable",
      "type": "function"
    },
    {
      "inputs": [
        {
          "internalType": "uint256",
          "name": "pid",
          "type": "uint256"
        }
      ],
      "name": "userDelta",
      "outputs": [
        {
          "internalType": "uint256",
          "name": "delta",
          "type": "uint256"
        }
      ],
      "stateMutability": "view",
      "type": "function"
    },
    {
      "inputs": [
        {
          "internalType": "uint256",
          "name": "pid",
          "type": "uint256"
        },
        {
          "internalType": "address",
          "name": "_user",
          "type": "address"
        }
      ],
      "name": "userDelta",
      "outputs": [
        {
          "internalType": "uint256",
          "name": "delta",
          "type": "uint256"
        }
      ],
      "stateMutability": "view",
      "type": "function"
    },
    {
      "inputs": [
        {
          "internalType": "uint256",
          "name": "from",
          "type": "uint256"
        },
        {
          "internalType": "uint256",
          "name": "to",
          "type": "uint256"
        }
      ],
      "name": "getMultiplier",
      "outputs": [
        {
          "internalType": "uint256",
          "name": "",
          "type": "uint256"
        }
      ],
      "stateMutability": "pure",
      "type": "function"
    },
    {
      "inputs": [
        {
          "internalType": "uint256",
          "name": "timeDelta",
          "type": "uint256"
        }
      ],
      "name": "getDeltaDays",
      "outputs": [
        {
          "internalType": "uint256",
          "name": "deltaDays",
          "type": "uint256"
        }
      ],
      "stateMutability": "pure",
      "type": "function"
    },
    {
      "inputs": [
        {
          "internalType": "uint256",
          "name": "pid",
          "type": "uint256"
        },
        {
          "internalType": "uint256",
          "name": "deltaDays",
          "type": "uint256"
        }
      ],
      "name": "getFeeRate",
      "outputs": [
        {
          "internalType": "uint256",
          "name": "feeRate",
          "type": "uint256"
        }
      ],
      "stateMutability": "view",
      "type": "function"
    },
    {
      "inputs": [
        {
          "internalType": "uint256",
          "name": "pid",
          "type": "uint256"
        },
        {
          "internalType": "uint256",
          "name": "deltaDays",
          "type": "uint256"
        },
        {
          "internalType": "uint256",
          "name": "amount",
          "type": "uint256"
        }
      ],
      "name": "getWithdrawable",
      "outputs": [
        {
          "internalType": "uint256",
          "name": "_feeAmount",
          "type": "uint256"
        },
        {
          "internalType": "uint256",
          "name": "_withdrawable",
          "type": "uint256"
        }
      ],
      "stateMutability": "view",
      "type": "function"
    },
    {
      "inputs": [
        {
          "internalType": "uint256",
          "name": "pid",
          "type": "uint256"
        },
        {
          "internalType": "address",
          "name": "account",
          "type": "address"
        }
      ],
      "name": "pendingSoul",
      "outputs": [
        {
          "internalType": "uint256",
          "name": "pendingAmount",
          "type": "uint256"
        }
      ],
      "stateMutability": "view",
      "type": "function"
    },
    {
      "inputs": [],
      "name": "massUpdatePools",
      "outputs": [],
      "stateMutability": "nonpayable",
      "type": "function"
    },
    {
      "inputs": [
        {
          "internalType": "uint256",
          "name": "pid",
          "type": "uint256"
        }
      ],
      "name": "updatePool",
      "outputs": [],
      "stateMutability": "nonpayable",
      "type": "function"
    },
    {
      "inputs": [
        {
          "internalType": "uint256",
          "name": "pid",
          "type": "uint256"
        }
      ],
      "name": "harvest",
      "outputs": [],
      "stateMutability": "nonpayable",
      "type": "function"
    },
    {
      "inputs": [
        {
          "internalType": "uint256[]",
          "name": "_pids",
          "type": "uint256[]"
        }
      ],
      "name": "harvestAll",
      "outputs": [],
      "stateMutability": "nonpayable",
      "type": "function"
    },
    {
      "inputs": [
        {
          "internalType": "uint256",
          "name": "pid",
          "type": "uint256"
        },
        {
          "internalType": "uint256",
          "name": "amount",
          "type": "uint256"
        }
      ],
      "name": "deposit",
      "outputs": [],
      "stateMutability": "nonpayable",
      "type": "function"
    },
    {
      "inputs": [
        {
          "internalType": "uint256",
          "name": "pid",
          "type": "uint256"
        },
        {
          "internalType": "uint256",
          "name": "amount",
          "type": "uint256"
        }
      ],
      "name": "withdraw",
      "outputs": [],
      "stateMutability": "nonpayable",
      "type": "function"
    },
    {
      "inputs": [
        {
          "internalType": "uint256",
          "name": "pid",
          "type": "uint256"
        }
      ],
      "name": "emergencyWithdraw",
      "outputs": [],
      "stateMutability": "nonpayable",
      "type": "function"
    },
    {
      "inputs": [
        {
          "internalType": "uint256",
          "name": "amount",
          "type": "uint256"
        }
      ],
      "name": "enterStaking",
      "outputs": [],
      "stateMutability": "nonpayable",
      "type": "function"
    },
    {
      "inputs": [
        {
          "internalType": "uint256",
          "name": "amount",
          "type": "uint256"
        }
      ],
      "name": "leaveStaking",
      "outputs": [],
      "stateMutability": "nonpayable",
      "type": "function"
    },
    {
      "inputs": [
        {
          "internalType": "uint256",
          "name": "_weight",
          "type": "uint256"
        },
        {
          "internalType": "uint256",
          "name": "_totalWeight",
          "type": "uint256"
        }
      ],
      "name": "updateWeight",
      "outputs": [],
      "stateMutability": "nonpayable",
      "type": "function"
    },
    {
      "inputs": [
        {
          "internalType": "uint256",
          "name": "pid",
          "type": "uint256"
        },
        {
          "internalType": "uint256",
          "name": "_daysRequested",
          "type": "uint256"
        }
      ],
      "name": "updateFeeDays",
      "outputs": [],
      "stateMutability": "nonpayable",
      "type": "function"
    },
    {
      "inputs": [
        {
          "internalType": "address",
          "name": "_dao",
          "type": "address"
        },
        {
          "internalType": "address",
          "name": "_team",
          "type": "address"
        }
      ],
      "name": "updateAccounts",
      "outputs": [],
      "stateMutability": "nonpayable",
      "type": "function"
    },
    {
      "inputs": [
        {
          "internalType": "uint256",
          "name": "amount",
          "type": "uint256"
        }
      ],
      "name": "enWei",
      "outputs": [
        {
          "internalType": "uint256",
          "name": "",
          "type": "uint256"
        }
      ],
      "stateMutability": "pure",
      "type": "function"
    },
    {
      "inputs": [
        {
          "internalType": "uint256",
          "name": "amount",
          "type": "uint256"
        }
      ],
      "name": "fromWei",
      "outputs": [
        {
          "internalType": "uint256",
          "name": "",
          "type": "uint256"
        }
      ],
      "stateMutability": "pure",
      "type": "function"
    }
  ],
  "bytecode": "0x61010060405233600660006101000a81548173ffffffffffffffffffffffffffffffffffffffff021916908373ffffffffffffffffffffffffffffffffffffffff1602179055506203d090608090815250600160a0908152506200006a60016200026760201b60201c565b60c0908152506200008260646200026760201b60201c565b60e0908152503480156200009557600080fd5b5060018081905550600660009054906101000a900473ffffffffffffffffffffffffffffffffffffffff16600760006101000a81548173ffffffffffffffffffffffffffffffffffffffff021916908373ffffffffffffffffffffffffffffffffffffffff160217905550600660009054906101000a900473ffffffffffffffffffffffffffffffffffffffff16600860006101000a81548173ffffffffffffffffffffffffffffffffffffffff021916908373ffffffffffffffffffffffffffffffffffffffff1602179055507f36d5d8406f8379c6deba01145ec4f6a2966675cc67d71355b397a2a8e3572b296012819055507f0811b25c145e1379dc78112dd91057f09150f6db05dfd7e04deb910e6cefd4b7601381905550620001ec6000801b6000801b600660009054906101000a900473ffffffffffffffffffffffffffffffffffffffff166200028660201b60201c565b5062000226601254601254600660009054906101000a900473ffffffffffffffffffffffffffffffffffffffff166200028660201b60201c565b5062000260601354601254600660009054906101000a900473ffffffffffffffffffffffffffffffffffffffff166200028660201b60201c565b506200054c565b6000670de0b6b3a7640000826200027f9190620004b2565b9050919050565b60006200029a8483620002b760201b60201c565b620002ac8484620002cd60201b60201c565b600190509392505050565b620002c982826200033060201b60201c565b5050565b6000620002e0836200042160201b60201c565b905081600080858152602001908152602001600020600101819055508181847fbd79b86ffe0ab8e8776151514217cd7cacd52c909f66475c3af44e129f0b00ff60405160405180910390a4505050565b6200034282826200044060201b60201c565b6200041d57600160008084815260200190815260200160002060000160008373ffffffffffffffffffffffffffffffffffffffff1673ffffffffffffffffffffffffffffffffffffffff16815260200190815260200160002060006101000a81548160ff021916908315150217905550620003c2620004aa60201b60201c565b73ffffffffffffffffffffffffffffffffffffffff168173ffffffffffffffffffffffffffffffffffffffff16837f2f8788117e7eff1d82e926ec794901d17c78024a50270940304540a733656f0d60405160405180910390a45b5050565b6000806000838152602001908152602001600020600101549050919050565b600080600084815260200190815260200160002060000160008373ffffffffffffffffffffffffffffffffffffffff1673ffffffffffffffffffffffffffffffffffffffff16815260200190815260200160002060009054906101000a900460ff16905092915050565b600033905090565b6000620004bf8262000513565b9150620004cc8362000513565b9250817fffffffffffffffffffffffffffffffffffffffffffffffffffffffffffffffff04831182151516156200050857620005076200051d565b5b828202905092915050565b6000819050919050565b7f4e487b7100000000000000000000000000000000000000000000000000000000600052601160045260246000fd5b60805160a05160c05160e051615fed6200059b60003960008181611518015261325b015260006139a6015260008181612bb20152612df50152600081816113a60152613c9b0152615fed6000f3fe608060405234801561001057600080fd5b50600436106103785760003560e01c80637d500ec8116101d3578063bfafcad511610104578063e2bbb158116100a2578063fb39d1e31161007c578063fb39d1e314610a51578063fbe0508c14610a81578063fc90fdc014610a9d578063fd6f99d014610abb57610378565b8063e2bbb158146109e7578063e65d152214610a03578063ea4bf44614610a3357610378565b8063d547741f116100de578063d547741f14610975578063d99e50da14610991578063ddc63262146109af578063e13e8ec2146109cb57610378565b8063bfafcad5146108f9578063cb68bef814610929578063cf94ee961461094557610378565b806395aca47311610171578063a1aab33f1161014b578063a1aab33f14610883578063a217fddf146108a1578063a8b973a1146108bf578063af62147e146108dd57610378565b806395aca4731461080557806396c82e57146108355780639f6c54261461085357610378565b806385f2aef2116101ad57806385f2aef2146107525780638dbb1e3a1461077057806391d14854146107a057806393f1a40b146107d057610378565b80637d500ec8146106e55780637e668b4214610703578063815b7a8c1461073457610378565b806341441d3b116102ad57806351eb05a61161024b5780635f9e8f82116102255780635f9e8f8214610683578063630b5ba1146106a157806364482f79146106ab57806378e97925146106c757610378565b806351eb05a61461062d5780635312ea8e146106495780635f9bf6891461066557610378565b806348f8bfea1161028757806348f8bfea146105b75780634a8c1fb4146105d55780634ca01d45146105f35780634e5ef2a51461061157610378565b806341441d3b146105615780634162169f1461057d578063441a3e701461059b57610378565b8063248a9ca31161031a5780632f2ff15d116102f45780632f2ff15d146104ef5780632fe2d7ce1461050b57806336568abe14610527578063392e53cd1461054357610378565b8063248a9ca31461048557806324dd9ab2146104b55780632aabff15146104d357610378565b80631058d281116103565780631058d281146103fb5780631526fe27146104175780631794bb3c1461044b57806317caf6f11461046757610378565b806301ffc9a71461037d578063081e3eda146103ad57806309ae4d2c146103cb575b600080fd5b61039760048036038101906103929190614b21565b610ad9565b6040516103a491906156be565b60405180910390f35b6103b5610b53565b6040516103c29190615a84565b60405180910390f35b6103e560048036038101906103e09190614b4a565b610b60565b6040516103f29190615a84565b60405180910390f35b61041560048036038101906104109190614b4a565b610c3b565b005b610431600480360381019061042c9190614b4a565b611036565b6040516104429594939291906156f4565b60405180910390f35b610465600480360381019061046091906149d6565b61109c565b005b61046f61137f565b60405161047c9190615a84565b60405180910390f35b61049f600480360381019061049a9190614abc565b611385565b6040516104ac91906156d9565b60405180910390f35b6104bd6113a4565b6040516104ca9190615a84565b60405180910390f35b6104ed60048036038101906104e89190614a25565b6113c8565b005b61050960048036038101906105049190614ae5565b611434565b005b61052560048036038101906105209190614c3b565b61145d565b005b610541600480360381019061053c9190614ae5565b6115c3565b005b61054b611646565b60405161055891906156be565b60405180910390f35b61057b60048036038101906105769190614b4a565b611659565b005b610585611a31565b604051610592919061561a565b60405180910390f35b6105b560048036038101906105b09190614c3b565b611a57565b005b6105bf611fad565b6040516105cc919061561a565b60405180910390f35b6105dd611fd3565b6040516105ea91906156be565b60405180910390f35b6105fb611fe6565b6040516106089190615747565b60405180910390f35b61062b60048036038101906106269190614bd8565b61200c565b005b61064760048036038101906106429190614b4a565b6120da565b005b610663600480360381019061065e9190614b4a565b612508565b005b61066d61289b565b60405161067a9190615a84565b60405180910390f35b61068b6128a1565b60405161069891906156be565b60405180910390f35b6106a96128b4565b005b6106c560048036038101906106c09190614c77565b6128e7565b005b6106cf612b00565b6040516106dc9190615a84565b60405180910390f35b6106ed612b06565b6040516106fa9190615a84565b60405180910390f35b61071d60048036038101906107189190614cc6565b612b0c565b60405161072b929190615ad6565b60405180910390f35b61073c612b62565b6040516107499190615747565b60405180910390f35b61075a612b88565b604051610767919061561a565b60405180910390f35b61078a60048036038101906107859190614c3b565b612bae565b6040516107979190615a84565b60405180910390f35b6107ba60048036038101906107b59190614ae5565b612bef565b6040516107c791906156be565b60405180910390f35b6107ea60048036038101906107e59190614b9c565b612c59565b6040516107fc96959493929190615b7b565b60405180910390f35b61081f600480360381019061081a9190614b4a565b612ca2565b60405161082c9190615a84565b60405180910390f35b61083d612ccc565b60405161084a9190615a84565b60405180910390f35b61086d60048036038101906108689190614c3b565b612cd2565b60405161087a9190615a84565b60405180910390f35b61088b612de6565b6040516108989190615a84565b60405180910390f35b6108a9612dec565b6040516108b691906156d9565b60405180910390f35b6108c7612df3565b6040516108d49190615a84565b60405180910390f35b6108f760048036038101906108f29190614c3b565b612e17565b005b610913600480360381019061090e9190614b9c565b612f16565b6040516109209190615a84565b60405180910390f35b610943600480360381019061093e9190614a6a565b6131e1565b005b61095f600480360381019061095a9190614b4a565b613213565b60405161096c9190615a84565b60405180910390f35b61098f600480360381019061098a9190614ae5565b613230565b005b610999613259565b6040516109a69190615a84565b60405180910390f35b6109c960048036038101906109c49190614b4a565b61327d565b005b6109e560048036038101906109e0919061499a565b6132a4565b005b610a0160048036038101906109fc9190614c3b565b6134a6565b005b610a1d6004803603810190610a189190614b4a565b613873565b604051610a2a9190615a84565b60405180910390f35b610a3b613890565b604051610a4891906156d9565b60405180910390f35b610a6b6004803603810190610a669190614b9c565b613896565b604051610a789190615a84565b60405180910390f35b610a9b6004803603810190610a969190614a6a565b613972565b005b610aa56139a4565b604051610ab29190615a84565b60405180910390f35b610ac36139c8565b604051610ad091906156d9565b60405180910390f35b60007f7965db0b000000000000000000000000000000000000000000000000000000007bffffffffffffffffffffffffffffffffffffffffffffffffffffffff1916827bffffffffffffffffffffffffffffffffffffffffffffffffffffffff19161480610b4c5750610b4b826139ce565b5b9050919050565b6000601080549050905090565b6000806011600084815260200190815260200160002060003373ffffffffffffffffffffffffffffffffffffffff1673ffffffffffffffffffffffffffffffffffffffff1681526020019081526020016000206040518060c0016040529081600082015481526020016001820154815260200160028201548152602001600382015481526020016004820154815260200160058201548152505090506000816040015114610c2057806040015142610c189190615cfa565b915081610c34565b806060015142610c309190615cfa565b9150815b5050919050565b60026001541415610c81576040517f08c379a0000000000000000000000000000000000000000000000000000000008152600401610c7890615a24565b60405180910390fd5b6002600181905550600f60009054906101000a900460ff16610cd8576040517f08c379a0000000000000000000000000000000000000000000000000000000008152600401610ccf90615984565b60405180910390fd5b600f60029054906101000a900460ff16610d27576040517f08c379a0000000000000000000000000000000000000000000000000000000008152600401610d1e906157a4565b60405180910390fd5b60006010600081548110610d64577f4e487b7100000000000000000000000000000000000000000000000000000000600052603260045260246000fd5b9060005260206000209060050201905060006011600080815260200190815260200160002060003373ffffffffffffffffffffffffffffffffffffffff1673ffffffffffffffffffffffffffffffffffffffff16815260200190815260200160002090508281600001541015610e0f576040517f08c379a0000000000000000000000000000000000000000000000000000000008152600401610e0690615804565b60405180910390fd5b610e1960006120da565b6000610e26600033612f16565b90506000811115610e3c57610e3b3382613a38565b5b6000841115610fd457838260000154610e559190615cfa565b8260000181905550600560009054906101000a900473ffffffffffffffffffffffffffffffffffffffff1673ffffffffffffffffffffffffffffffffffffffff16639dc29fac33866040518363ffffffff1660e01b8152600401610eba929190615695565b600060405180830381600087803b158015610ed457600080fd5b505af1158015610ee8573d6000803e3d6000fd5b5050505064e8d4a5100083600301548360000154610f069190615ca0565b610f109190615c6f565b82600101819055504282600201819055508260000160009054906101000a900473ffffffffffffffffffffffffffffffffffffffff1673ffffffffffffffffffffffffffffffffffffffff1663a9059cbb33866040518363ffffffff1660e01b8152600401610f80929190615695565b602060405180830381600087803b158015610f9a57600080fd5b505af1158015610fae573d6000803e3d6000fd5b505050506040513d601f19601f82011682018060405250810190610fd29190614a93565b505b60003373ffffffffffffffffffffffffffffffffffffffff167fe08737ac48a1dab4b1a46c7dc9398bd5bfc6d7ad6fabb7cd8caa254de14def358660004260405161102193929190615a9f565b60405180910390a35050506001808190555050565b6010818154811061104657600080fd5b90600052602060002090600502016000915090508060000160009054906101000a900473ffffffffffffffffffffffffffffffffffffffff16908060010154908060020154908060030154908060040154905085565b6012546110b0816110ab613bdc565b613be4565b600f60009054906101000a900460ff1615611100576040517f08c379a00000000000000000000000000000000000000000000000000000000081526004016110f790615a04565b60405180910390fd5b42600d819055506103e860098190555081600a8190555083600260006101000a81548173ffffffffffffffffffffffffffffffffffffffff021916908373ffffffffffffffffffffffffffffffffffffffff16021790555082600460006101000a81548173ffffffffffffffffffffffffffffffffffffffff021916908373ffffffffffffffffffffffffffffffffffffffff16021790555083600360006101000a81548173ffffffffffffffffffffffffffffffffffffffff021916908373ffffffffffffffffffffffffffffffffffffffff16021790555082600560006101000a81548173ffffffffffffffffffffffffffffffffffffffff021916908373ffffffffffffffffffffffffffffffffffffffff160217905550611229600a54600954613c81565b60106040518060a001604052808673ffffffffffffffffffffffffffffffffffffffff1681526020016103e88152602001600d548152602001600081526020016000815250908060018154018082558091505060019003906000526020600020906005020160009091909190915060008201518160000160006101000a81548173ffffffffffffffffffffffffffffffffffffffff021916908373ffffffffffffffffffffffffffffffffffffffff1602179055506020820151816001015560408201518160020155606082015181600301556080820151816004015550506001600f60006101000a81548160ff0219169083151502179055506103e8600e60008282546113379190615c19565b925050819055507f10f27652c1015195ca7e6bc9b4c724cbf18e91c42117d92124703a3f49bb240f8484846040516113719392919061565e565b60405180910390a150505050565b600e5481565b6000806000838152602001908152602001600020600101549050919050565b7f000000000000000000000000000000000000000000000000000000000000000081565b60005b8282905081101561142f5761141e838383818110611412577f4e487b7100000000000000000000000000000000000000000000000000000000600052603260045260246000fd5b9050602002013561327d565b8061142890615e75565b90506113cb565b505050565b61143d82611385565b61144e81611449613bdc565b613be4565b6114588383613d24565b505050565b6013546114718161146c613bdc565b613be4565b6000601084815481106114ad577f4e487b7100000000000000000000000000000000000000000000000000000000600052603260045260246000fd5b9060005260206000209060050201905060006114c884613213565b905060008260040154905081811415611516576040517f08c379a000000000000000000000000000000000000000000000000000000000815260040161150d90615824565b60405180910390fd5b7f0000000000000000000000000000000000000000000000000000000000000000811115611579576040517f08c379a000000000000000000000000000000000000000000000000000000000815260040161157090615844565b60405180910390fd5b8183600401819055507f11866c6bd0f6c9f4753a4891ab4d2e17484dbbdc2aa908db44e66a35c5c331dc86836040516115b3929190615ad6565b60405180910390a1505050505050565b6115cb613bdc565b73ffffffffffffffffffffffffffffffffffffffff168173ffffffffffffffffffffffffffffffffffffffff1614611638576040517f08c379a000000000000000000000000000000000000000000000000000000000815260040161162f90615a44565b60405180910390fd5b6116428282613e04565b5050565b600f60009054906101000a900460ff1681565b6002600154141561169f576040517f08c379a000000000000000000000000000000000000000000000000000000000815260040161169690615a24565b60405180910390fd5b6002600181905550600f60009054906101000a900460ff166116f6576040517f08c379a00000000000000000000000000000000000000000000000000000000081526004016116ed90615984565b60405180910390fd5b600f60029054906101000a900460ff16611745576040517f08c379a000000000000000000000000000000000000000000000000000000000815260040161173c906157a4565b60405180910390fd5b60006010600081548110611782577f4e487b7100000000000000000000000000000000000000000000000000000000600052603260045260246000fd5b9060005260206000209060050201905060006011600080815260200190815260200160002060003373ffffffffffffffffffffffffffffffffffffffff1673ffffffffffffffffffffffffffffffffffffffff16815260200190815260200160002090506117f060006120da565b600081600001549050600081111561181d57600061180f600033612f16565b905061181b3382613a38565b505b60008411156118f6578260000160009054906101000a900473ffffffffffffffffffffffffffffffffffffffff1673ffffffffffffffffffffffffffffffffffffffff166323b872dd3330876040518463ffffffff1660e01b81526004016118879392919061565e565b602060405180830381600087803b1580156118a157600080fd5b505af11580156118b5573d6000803e3d6000fd5b505050506040513d601f19601f820116820180604052508101906118d99190614a93565b50838260000160008282546118ee9190615c19565b925050819055505b60008260030154141561190d574282600301819055505b64e8d4a51000836003015483600001546119279190615ca0565b6119319190615c6f565b826001018190555060008411156119d257600560009054906101000a900473ffffffffffffffffffffffffffffffffffffffff1673ffffffffffffffffffffffffffffffffffffffff166340c10f1933866040518363ffffffff1660e01b815260040161199f929190615695565b600060405180830381600087803b1580156119b957600080fd5b505af11580156119cd573d6000803e3d6000fd5b505050505b60003373ffffffffffffffffffffffffffffffffffffffff167f36af321ec8d3c75236829c5317affd40ddb308863a1236d2d277a4025cccee1e8642604051611a1c929190615ad6565b60405180910390a35050506001808190555050565b600860009054906101000a900473ffffffffffffffffffffffffffffffffffffffff1681565b60026001541415611a9d576040517f08c379a0000000000000000000000000000000000000000000000000000000008152600401611a9490615a24565b60405180910390fd5b6002600181905550600f60009054906101000a900460ff16611af4576040517f08c379a0000000000000000000000000000000000000000000000000000000008152600401611aeb90615984565b60405180910390fd5b600f60029054906101000a900460ff16611b43576040517f08c379a0000000000000000000000000000000000000000000000000000000008152600401611b3a906157a4565b60405180910390fd5b816010805490508110611b8b576040517f08c379a0000000000000000000000000000000000000000000000000000000008152600401611b82906158e4565b60405180910390fd5b6000831415611bcf576040517f08c379a0000000000000000000000000000000000000000000000000000000008152600401611bc690615904565b60405180910390fd5b60008211611c12576040517f08c379a0000000000000000000000000000000000000000000000000000000008152600401611c0990615944565b60405180910390fd5b600060108481548110611c4e577f4e487b7100000000000000000000000000000000000000000000000000000000600052603260045260246000fd5b9060005260206000209060050201905060006011600086815260200190815260200160002060003373ffffffffffffffffffffffffffffffffffffffff1673ffffffffffffffffffffffffffffffffffffffff16815260200190815260200160002090508381600001541015611cf9576040517f08c379a0000000000000000000000000000000000000000000000000000000008152600401611cf0906157c4565b60405180910390fd5b611d02856120da565b6000611d0e8633612f16565b90506000811115611d2457611d233382613a38565b5b6000611d308733613896565b90506000611d3d82612ca2565b905086846000016000828254611d539190615cfa565b925050819055508184600401819055508084600501819055506000611d7989838a612b0c565b91505060008189611d8a9190615cfa565b90508660000160009054906101000a900473ffffffffffffffffffffffffffffffffffffffff1673ffffffffffffffffffffffffffffffffffffffff1663a9059cbb600860009054906101000a900473ffffffffffffffffffffffffffffffffffffffff16836040518363ffffffff1660e01b8152600401611e0d929190615695565b602060405180830381600087803b158015611e2757600080fd5b505af1158015611e3b573d6000803e3d6000fd5b505050506040513d601f19601f82011682018060405250810190611e5f9190614a93565b508660000160009054906101000a900473ffffffffffffffffffffffffffffffffffffffff1673ffffffffffffffffffffffffffffffffffffffff1663a9059cbb33846040518363ffffffff1660e01b8152600401611ebf929190615695565b602060405180830381600087803b158015611ed957600080fd5b505af1158015611eed573d6000803e3d6000fd5b505050506040513d601f19601f82011682018060405250810190611f119190614a93565b5064e8d4a5100087600301548760000154611f2c9190615ca0565b611f369190615c6f565b8660010181905550428660020181905550893373ffffffffffffffffffffffffffffffffffffffff167fe08737ac48a1dab4b1a46c7dc9398bd5bfc6d7ad6fabb7cd8caa254de14def358b8442604051611f9293929190615b44565b60405180910390a35050505050505050600180819055505050565b600660009054906101000a900473ffffffffffffffffffffffffffffffffffffffff1681565b600f60029054906101000a900460ff1681565b600560009054906101000a900473ffffffffffffffffffffffffffffffffffffffff1681565b600f60009054906101000a900460ff1661205b576040517f08c379a000000000000000000000000000000000000000000000000000000000815260040161205290615984565b60405180910390fd5b600f60029054906101000a900460ff166120aa576040517f08c379a00000000000000000000000000000000000000000000000000000000081526004016120a1906157a4565b60405180910390fd5b6012546120be816120b9613bdc565b613be4565b6120c784613ee5565b6120d385858585613fea565b5050505050565b806010805490508110612122576040517f08c379a0000000000000000000000000000000000000000000000000000000008152600401612119906158e4565b60405180910390fd5b60006010838154811061215e577f4e487b7100000000000000000000000000000000000000000000000000000000600052603260045260246000fd5b906000526020600020906005020190508060020154421161217f5750612504565b60008160000160009054906101000a900473ffffffffffffffffffffffffffffffffffffffff1673ffffffffffffffffffffffffffffffffffffffff166370a08231306040518263ffffffff1660e01b81526004016121de919061561a565b60206040518083038186803b1580156121f657600080fd5b505afa15801561220a573d6000803e3d6000fd5b505050506040513d601f19601f8201168201806040525081019061222e9190614b73565b90506000811415612249574282600201819055505050612504565b6000612259836002015442612bae565b90506000600e548460010154600c54846122739190615ca0565b61227d9190615ca0565b6122879190615c6f565b90506000650746a528800064e8d4a51000836122a39190615ca0565b6122ad9190615c6f565b9050600360009054906101000a900473ffffffffffffffffffffffffffffffffffffffff1673ffffffffffffffffffffffffffffffffffffffff166340c10f19600760009054906101000a900473ffffffffffffffffffffffffffffffffffffffff16836040518363ffffffff1660e01b815260040161232e929190615695565b600060405180830381600087803b15801561234857600080fd5b505af115801561235c573d6000803e3d6000fd5b50505050600360009054906101000a900473ffffffffffffffffffffffffffffffffffffffff1673ffffffffffffffffffffffffffffffffffffffff166340c10f19600860009054906101000a900473ffffffffffffffffffffffffffffffffffffffff16836040518363ffffffff1660e01b81526004016123df929190615695565b600060405180830381600087803b1580156123f957600080fd5b505af115801561240d573d6000803e3d6000fd5b50505050600360009054906101000a900473ffffffffffffffffffffffffffffffffffffffff1673ffffffffffffffffffffffffffffffffffffffff166340c10f19600560009054906101000a900473ffffffffffffffffffffffffffffffffffffffff16846040518363ffffffff1660e01b8152600401612490929190615695565b600060405180830381600087803b1580156124aa57600080fd5b505af11580156124be573d6000803e3d6000fd5b505050508364e8d4a51000836124d49190615ca0565b6124de9190615c6f565b85600301546124ed9190615c19565b856003018190555042856002018190555050505050505b5050565b6002600154141561254e576040517f08c379a000000000000000000000000000000000000000000000000000000000815260040161254590615a24565b60405180910390fd5b6002600181905550600f60019054906101000a900460ff166125a5576040517f08c379a000000000000000000000000000000000000000000000000000000000815260040161259c90615864565b60405180910390fd5b6000601082815481106125e1577f4e487b7100000000000000000000000000000000000000000000000000000000600052603260045260246000fd5b9060005260206000209060050201905060006011600084815260200190815260200160002060003373ffffffffffffffffffffffffffffffffffffffff1673ffffffffffffffffffffffffffffffffffffffff168152602001908152602001600020905060008314156127d5578060000154600560009054906101000a900473ffffffffffffffffffffffffffffffffffffffff1673ffffffffffffffffffffffffffffffffffffffff166370a08231336040518263ffffffff1660e01b81526004016126ae919061561a565b602060405180830381600087803b1580156126c857600080fd5b505af11580156126dc573d6000803e3d6000fd5b505050506040513d601f19601f820116820180604052508101906127009190614b73565b1015612741576040517f08c379a000000000000000000000000000000000000000000000000000000000815260040161273890615924565b60405180910390fd5b600560009054906101000a900473ffffffffffffffffffffffffffffffffffffffff1673ffffffffffffffffffffffffffffffffffffffff16639dc29fac3383600001546040518363ffffffff1660e01b81526004016127a2929190615695565b600060405180830381600087803b1580156127bc57600080fd5b505af11580156127d0573d6000803e3d6000fd5b505050505b6128283382600001548460000160009054906101000a900473ffffffffffffffffffffffffffffffffffffffff1673ffffffffffffffffffffffffffffffffffffffff1661415e9092919063ffffffff16565b6000816000018190555060008160010181905550823373ffffffffffffffffffffffffffffffffffffffff167fbb757047c2b5f3974fe26b7c10f732e7bce710b0952a71082702781e62ae059583600001546040516128879190615a84565b60405180910390a350506001808190555050565b600c5481565b600f60019054906101000a900460ff1681565b6000601080549050905060005b818110156128e3576128d2816120da565b806128dc90615e75565b90506128c1565b5050565b600f60009054906101000a900460ff16612936576040517f08c379a000000000000000000000000000000000000000000000000000000000815260040161292d90615984565b60405180910390fd5b600f60029054906101000a900460ff16612985576040517f08c379a000000000000000000000000000000000000000000000000000000000815260040161297c906157a4565b60405180910390fd5b8260108054905081106129cd576040517f08c379a00000000000000000000000000000000000000000000000000000000081526004016129c4906158e4565b60405180910390fd5b6013546129e1816129dc613bdc565b613be4565b82156129f0576129ef6128b4565b5b600060108681548110612a2c577f4e487b7100000000000000000000000000000000000000000000000000000000600052603260045260246000fd5b90600052602060002090600502016001015490508460108781548110612a7b577f4e487b7100000000000000000000000000000000000000000000000000000000600052603260045260246000fd5b906000526020600020906005020160010181905550848114612abf578481600e54612aa69190615cfa565b612ab09190615c19565b600e81905550612abe6141e4565b5b7fd88f859573973e938da5bf3e5100c16eee2090fa720e05ae3d452b4cd05cdcfd8686604051612af0929190615ad6565b60405180910390a1505050505050565b600d5481565b600b5481565b6000806000612b23612b1e8787612cd2565b613873565b9050600060648286612b359190615ca0565b612b3f9190615c6f565b905060008186612b4f9190615cfa565b9050818194509450505050935093915050565b600360009054906101000a900473ffffffffffffffffffffffffffffffffffffffff1681565b600760009054906101000a900473ffffffffffffffffffffffffffffffffffffffff1681565b60007f00000000000000000000000000000000000000000000000000000000000000008383612bdd9190615cfa565b612be79190615ca0565b905092915050565b600080600084815260200190815260200160002060000160008373ffffffffffffffffffffffffffffffffffffffff1673ffffffffffffffffffffffffffffffffffffffff16815260200190815260200160002060009054906101000a900460ff16905092915050565b6011602052816000526040600020602052806000526040600020600091509150508060000154908060010154908060020154908060030154908060040154908060050154905086565b6000620151808210612cc2576201518082612cbd9190615c6f565b612cc5565b60005b9050919050565b60095481565b600080612cde83613213565b9050600060108581548110612d1c577f4e487b7100000000000000000000000000000000000000000000000000000000600052603260045260246000fd5b90600052602060002090600502016040518060a00160405290816000820160009054906101000a900473ffffffffffffffffffffffffffffffffffffffff1673ffffffffffffffffffffffffffffffffffffffff1673ffffffffffffffffffffffffffffffffffffffff1681526020016001820154815260200160028201548152602001600382015481526020016004820154815250509050600081608001519050808310612dce5760009350612ddd565b8281612dda9190615cfa565b93505b50505092915050565b600a5481565b6000801b81565b7f000000000000000000000000000000000000000000000000000000000000000081565b601354612e2b81612e26613bdc565b613be4565b82600a54141580612e3e57508160095414155b612e7d576040517f08c379a0000000000000000000000000000000000000000000000000000000008152600401612e74906158c4565b60405180910390fd5b82821015612ec0576040517f08c379a0000000000000000000000000000000000000000000000000000000008152600401612eb790615a64565b60405180910390fd5b82600a8190555081600981905550612ed88383613c81565b7fb298bc23e07860d501fddce288f46d761aa04a0c7c3316099eb50f097aacf3048383604051612f09929190615ad6565b60405180910390a1505050565b60008060108481548110612f53577f4e487b7100000000000000000000000000000000000000000000000000000000600052603260045260246000fd5b90600052602060002090600502016040518060a00160405290816000820160009054906101000a900473ffffffffffffffffffffffffffffffffffffffff1673ffffffffffffffffffffffffffffffffffffffff1673ffffffffffffffffffffffffffffffffffffffff168152602001600182015481526020016002820154815260200160038201548152602001600482015481525050905060006011600086815260200190815260200160002060008573ffffffffffffffffffffffffffffffffffffffff1673ffffffffffffffffffffffffffffffffffffffff1681526020019081526020016000206040518060c0016040529081600082015481526020016001820154815260200160028201548152602001600382015481526020016004820154815260200160058201548152505090506000826060015190506000836000015173ffffffffffffffffffffffffffffffffffffffff166370a08231306040518263ffffffff1660e01b81526004016130cf919061561a565b60206040518083038186803b1580156130e757600080fd5b505afa1580156130fb573d6000803e3d6000fd5b505050506040513d601f19601f8201168201806040525081019061311f9190614b73565b9050836040015142118015613135575060008114155b156131a657600061314a856040015142612bae565b90506000600e548660200151600c54846131649190615ca0565b61316e9190615ca0565b6131789190615c6f565b90508264e8d4a510008261318c9190615ca0565b6131969190615c6f565b846131a19190615c19565b935050505b826020015164e8d4a510008385600001516131c19190615ca0565b6131cb9190615c6f565b6131d59190615cfa565b94505050505092915050565b6013546131f5816131f0613bdc565b613be4565b81600f60016101000a81548160ff0219169083151502179055505050565b6000670de0b6b3a7640000826132299190615ca0565b9050919050565b61323982611385565b61324a81613245613bdc565b613be4565b6132548383613e04565b505050565b7f000000000000000000000000000000000000000000000000000000000000000081565b6000811415613295576132906000611659565b6132a1565b6132a08160006134a6565b5b50565b6012546132b8816132b3613bdc565b613be4565b8273ffffffffffffffffffffffffffffffffffffffff16600860009054906101000a900473ffffffffffffffffffffffffffffffffffffffff1673ffffffffffffffffffffffffffffffffffffffff1614158061336357508173ffffffffffffffffffffffffffffffffffffffff16600760009054906101000a900473ffffffffffffffffffffffffffffffffffffffff1673ffffffffffffffffffffffffffffffffffffffff1614155b6133a2576040517f08c379a0000000000000000000000000000000000000000000000000000000008152600401613399906159a4565b60405180910390fd5b82600860006101000a81548173ffffffffffffffffffffffffffffffffffffffff021916908373ffffffffffffffffffffffffffffffffffffffff16021790555081600760006101000a81548173ffffffffffffffffffffffffffffffffffffffff021916908373ffffffffffffffffffffffffffffffffffffffff1602179055507fd1c04282701cbf58aa2f0026f6876051cf3feb8ee7b8b5b5532ebb4ab03fb5d4600860009054906101000a900473ffffffffffffffffffffffffffffffffffffffff16600760009054906101000a900473ffffffffffffffffffffffffffffffffffffffff16604051613499929190615635565b60405180910390a1505050565b600260015414156134ec576040517f08c379a00000000000000000000000000000000000000000000000000000000081526004016134e390615a24565b60405180910390fd5b6002600181905550600f60009054906101000a900460ff16613543576040517f08c379a000000000000000000000000000000000000000000000000000000000815260040161353a90615984565b60405180910390fd5b600f60029054906101000a900460ff16613592576040517f08c379a0000000000000000000000000000000000000000000000000000000008152600401613589906157a4565b60405180910390fd5b8160108054905081106135da576040517f08c379a00000000000000000000000000000000000000000000000000000000081526004016135d1906158e4565b60405180910390fd5b600083141561361e576040517f08c379a000000000000000000000000000000000000000000000000000000000815260040161361590615884565b60405180910390fd5b60006010848154811061365a577f4e487b7100000000000000000000000000000000000000000000000000000000600052603260045260246000fd5b9060005260206000209060050201905060006011600086815260200190815260200160002060003373ffffffffffffffffffffffffffffffffffffffff1673ffffffffffffffffffffffffffffffffffffffff16815260200190815260200160002090506136c7856120da565b6000816000015411156136f85760006136e08633612f16565b905060008111156136f6576136f53382613a38565b5b505b60008411156137d1578160000160009054906101000a900473ffffffffffffffffffffffffffffffffffffffff1673ffffffffffffffffffffffffffffffffffffffff166323b872dd3330876040518463ffffffff1660e01b81526004016137629392919061565e565b602060405180830381600087803b15801561377c57600080fd5b505af1158015613790573d6000803e3d6000fd5b505050506040513d601f19601f820116820180604052508101906137b49190614a93565b50838160000160008282546137c99190615c19565b925050819055505b64e8d4a51000826003015482600001546137eb9190615ca0565b6137f59190615c6f565b8160010181905550600081600301541415613814574281600301819055505b843373ffffffffffffffffffffffffffffffffffffffff167f36af321ec8d3c75236829c5317affd40ddb308863a1236d2d277a4025cccee1e864260405161385d929190615ad6565b60405180910390a3505050600180819055505050565b6000670de0b6b3a7640000826138899190615c6f565b9050919050565b60125481565b6000806011600085815260200190815260200160002060008473ffffffffffffffffffffffffffffffffffffffff1673ffffffffffffffffffffffffffffffffffffffff1681526020019081526020016000206040518060c00160405290816000820154815260200160018201548152602001600282015481526020016003820154815260200160048201548152602001600582015481525050905060008160400151146139565780604001514261394e9190615cfa565b91508161396a565b8060600151426139669190615cfa565b9150815b505092915050565b60125461398681613981613bdc565b613be4565b81600f60026101000a81548160ff0219169083151502179055505050565b7f000000000000000000000000000000000000000000000000000000000000000081565b60135481565b60007f01ffc9a7000000000000000000000000000000000000000000000000000000007bffffffffffffffffffffffffffffffffffffffffffffffffffffffff1916827bffffffffffffffffffffffffffffffffffffffffffffffffffffffff1916149050919050565b80600560009054906101000a900473ffffffffffffffffffffffffffffffffffffffff1673ffffffffffffffffffffffffffffffffffffffff166370a08231600260009054906101000a900473ffffffffffffffffffffffffffffffffffffffff166040518263ffffffff1660e01b8152600401613ab6919061561a565b602060405180830381600087803b158015613ad057600080fd5b505af1158015613ae4573d6000803e3d6000fd5b505050506040513d601f19601f82011682018060405250810190613b089190614b73565b1015613b49576040517f08c379a0000000000000000000000000000000000000000000000000000000008152600401613b40906157e4565b60405180910390fd5b600560009054906101000a900473ffffffffffffffffffffffffffffffffffffffff1673ffffffffffffffffffffffffffffffffffffffff1663b2a142aa83836040518363ffffffff1660e01b8152600401613ba6929190615695565b600060405180830381600087803b158015613bc057600080fd5b505af1158015613bd4573d6000803e3d6000fd5b505050505050565b600033905090565b613bee8282612bef565b613c7d57613c138173ffffffffffffffffffffffffffffffffffffffff166014614341565b613c218360001c6020614341565b604051602001613c329291906155e0565b6040516020818303038152906040526040517f08c379a0000000000000000000000000000000000000000000000000000000008152600401613c749190615762565b60405180910390fd5b5050565b600081613c8d84613213565b613c979190615c6f565b90507f000000000000000000000000000000000000000000000000000000000000000081613cc59190615ca0565b600b8190555062015180600b54613cdc9190615c6f565b600c819055507fcd7c861d63893659123f817b192b8621ff1923a7c4589c260173cedcf9e986a6600b54600c54604051613d17929190615ad6565b60405180910390a1505050565b613d2e8282612bef565b613e0057600160008084815260200190815260200160002060000160008373ffffffffffffffffffffffffffffffffffffffff1673ffffffffffffffffffffffffffffffffffffffff16815260200190815260200160002060006101000a81548160ff021916908315150217905550613da5613bdc565b73ffffffffffffffffffffffffffffffffffffffff168173ffffffffffffffffffffffffffffffffffffffff16837f2f8788117e7eff1d82e926ec794901d17c78024a50270940304540a733656f0d60405160405180910390a45b5050565b613e0e8282612bef565b15613ee157600080600084815260200190815260200160002060000160008373ffffffffffffffffffffffffffffffffffffffff1673ffffffffffffffffffffffffffffffffffffffff16815260200190815260200160002060006101000a81548160ff021916908315150217905550613e86613bdc565b73ffffffffffffffffffffffffffffffffffffffff168173ffffffffffffffffffffffffffffffffffffffff16837ff6391f5c32d9c69d2a47ea670b442974b53935d1edc7fd64eb21e047a839171b60405160405180910390a45b5050565b6000601080549050905060005b81811015613fe5578273ffffffffffffffffffffffffffffffffffffffff1660108281548110613f4b577f4e487b7100000000000000000000000000000000000000000000000000000000600052603260045260246000fd5b906000526020600020906005020160000160009054906101000a900473ffffffffffffffffffffffffffffffffffffffff1673ffffffffffffffffffffffffffffffffffffffff161415613fd4576040517f08c379a0000000000000000000000000000000000000000000000000000000008152600401613fcb906159c4565b60405180910390fd5b80613fde90615e75565b9050613ef2565b505050565b8115613ff957613ff86128b4565b5b83600e600082825461400b9190615c19565b9250508190555060106040518060a001604052808573ffffffffffffffffffffffffffffffffffffffff168152602001868152602001600d54421161405257600d54614054565b425b81526020016000815260200161406984613213565b815250908060018154018082558091505060019003906000526020600020906005020160009091909190915060008201518160000160006101000a81548173ffffffffffffffffffffffffffffffffffffffff021916908373ffffffffffffffffffffffffffffffffffffffff16021790555060208201518160010155604082015181600201556060820151816003015560808201518160040155505061410e6141e4565b600060108054905090507f20b669aa921947a6d9602a921d2db3b6b30f21b9aca98580fa3972530330b27a818686600e5460405161414f9493929190615aff565b60405180910390a15050505050565b6141df8363a9059cbb60e01b848460405160240161417d929190615695565b604051602081830303815290604052907bffffffffffffffffffffffffffffffffffffffffffffffffffffffff19166020820180517bffffffffffffffffffffffffffffffffffffffffffffffffffffffff838183161783525050505061463b565b505050565b60006010805490509050600080600190505b828110156142685760108181548110614238577f4e487b7100000000000000000000000000000000000000000000000000000000600052603260045260246000fd5b906000526020600020906005020160010154826142559190615c19565b91508061426190615e75565b90506141f6565b506000811461433d5760038161427e9190615c6f565b90508060106000815481106142bc577f4e487b7100000000000000000000000000000000000000000000000000000000600052603260045260246000fd5b906000526020600020906005020160010154600e546142db9190615cfa565b6142e59190615c19565b600e81905550806010600081548110614327577f4e487b7100000000000000000000000000000000000000000000000000000000600052603260045260246000fd5b9060005260206000209060050201600101819055505b5050565b6060600060028360026143549190615ca0565b61435e9190615c19565b67ffffffffffffffff81111561439d577f4e487b7100000000000000000000000000000000000000000000000000000000600052604160045260246000fd5b6040519080825280601f01601f1916602001820160405280156143cf5781602001600182028036833780820191505090505b5090507f30000000000000000000000000000000000000000000000000000000000000008160008151811061442d577f4e487b7100000000000000000000000000000000000000000000000000000000600052603260045260246000fd5b60200101907effffffffffffffffffffffffffffffffffffffffffffffffffffffffffffff1916908160001a9053507f7800000000000000000000000000000000000000000000000000000000000000816001815181106144b7577f4e487b7100000000000000000000000000000000000000000000000000000000600052603260045260246000fd5b60200101907effffffffffffffffffffffffffffffffffffffffffffffffffffffffffffff1916908160001a905350600060018460026144f79190615ca0565b6145019190615c19565b90505b60018111156145ed577f3031323334353637383961626364656600000000000000000000000000000000600f861660108110614569577f4e487b7100000000000000000000000000000000000000000000000000000000600052603260045260246000fd5b1a60f81b8282815181106145a6577f4e487b7100000000000000000000000000000000000000000000000000000000600052603260045260246000fd5b60200101907effffffffffffffffffffffffffffffffffffffffffffffffffffffffffffff1916908160001a905350600485901c9450806145e690615e4b565b9050614504565b5060008414614631576040517f08c379a000000000000000000000000000000000000000000000000000000000815260040161462890615784565b60405180910390fd5b8091505092915050565b600061469d826040518060400160405280602081526020017f5361666545524332303a206c6f772d6c6576656c2063616c6c206661696c65648152508573ffffffffffffffffffffffffffffffffffffffff166147029092919063ffffffff16565b90506000815111156146fd57808060200190518101906146bd9190614a93565b6146fc576040517f08c379a00000000000000000000000000000000000000000000000000000000081526004016146f3906159e4565b60405180910390fd5b5b505050565b6060614711848460008561471a565b90509392505050565b60608247101561475f576040517f08c379a0000000000000000000000000000000000000000000000000000000008152600401614756906158a4565b60405180910390fd5b6147688561482e565b6147a7576040517f08c379a000000000000000000000000000000000000000000000000000000000815260040161479e90615964565b60405180910390fd5b6000808673ffffffffffffffffffffffffffffffffffffffff1685876040516147d091906155c9565b60006040518083038185875af1925050503d806000811461480d576040519150601f19603f3d011682016040523d82523d6000602084013e614812565b606091505b5091509150614822828286614841565b92505050949350505050565b600080823b905060008111915050919050565b60608315614851578290506148a1565b6000835111156148645782518084602001fd5b816040517f08c379a00000000000000000000000000000000000000000000000000000000081526004016148989190615762565b60405180910390fd5b9392505050565b6000813590506148b781615f2d565b92915050565b60008083601f8401126148cf57600080fd5b8235905067ffffffffffffffff8111156148e857600080fd5b60208301915083602082028301111561490057600080fd5b9250929050565b60008135905061491681615f44565b92915050565b60008151905061492b81615f44565b92915050565b60008135905061494081615f5b565b92915050565b60008135905061495581615f72565b92915050565b60008135905061496a81615f89565b92915050565b60008135905061497f81615fa0565b92915050565b60008151905061499481615fa0565b92915050565b600080604083850312156149ad57600080fd5b60006149bb858286016148a8565b92505060206149cc858286016148a8565b9150509250929050565b6000806000606084860312156149eb57600080fd5b60006149f9868287016148a8565b9350506020614a0a868287016148a8565b9250506040614a1b86828701614970565b9150509250925092565b60008060208385031215614a3857600080fd5b600083013567ffffffffffffffff811115614a5257600080fd5b614a5e858286016148bd565b92509250509250929050565b600060208284031215614a7c57600080fd5b6000614a8a84828501614907565b91505092915050565b600060208284031215614aa557600080fd5b6000614ab38482850161491c565b91505092915050565b600060208284031215614ace57600080fd5b6000614adc84828501614931565b91505092915050565b60008060408385031215614af857600080fd5b6000614b0685828601614931565b9250506020614b17858286016148a8565b9150509250929050565b600060208284031215614b3357600080fd5b6000614b4184828501614946565b91505092915050565b600060208284031215614b5c57600080fd5b6000614b6a84828501614970565b91505092915050565b600060208284031215614b8557600080fd5b6000614b9384828501614985565b91505092915050565b60008060408385031215614baf57600080fd5b6000614bbd85828601614970565b9250506020614bce858286016148a8565b9150509250929050565b60008060008060808587031215614bee57600080fd5b6000614bfc87828801614970565b9450506020614c0d8782880161495b565b9350506040614c1e87828801614907565b9250506060614c2f87828801614970565b91505092959194509250565b60008060408385031215614c4e57600080fd5b6000614c5c85828601614970565b9250506020614c6d85828601614970565b9150509250929050565b600080600060608486031215614c8c57600080fd5b6000614c9a86828701614970565b9350506020614cab86828701614970565b9250506040614cbc86828701614907565b9150509250925092565b600080600060608486031215614cdb57600080fd5b6000614ce986828701614970565b9350506020614cfa86828701614970565b9250506040614d0b86828701614970565b9150509250925092565b614d1e81615d2e565b82525050565b614d2d81615d40565b82525050565b614d3c81615d4c565b82525050565b6000614d4d82615bdc565b614d578185615bf2565b9350614d67818560208601615e18565b80840191505092915050565b614d7c81615dbe565b82525050565b614d8b81615de2565b82525050565b614d9a81615e06565b82525050565b6000614dab82615be7565b614db58185615bfd565b9350614dc5818560208601615e18565b614dce81615f1c565b840191505092915050565b6000614de482615be7565b614dee8185615c0e565b9350614dfe818560208601615e18565b80840191505092915050565b6000614e17602083615bfd565b91507f537472696e67733a20686578206c656e67746820696e73756666696369656e746000830152602082019050919050565b6000614e57601c83615bfd565b91507f636f6e74726163742069732063757272656e746c7920706175736564000000006000830152602082019050919050565b6000614e97601a83615bfd565b91507f7769746864726177616c2065786365656473206465706f7369740000000000006000830152602082019050919050565b6000614ed7603483615bfd565b91507f696e73756666696369656e7420636f76657261676520666f722072657175657360008301527f74656420534f554c2066726f6d205345414e43450000000000000000000000006020830152604082019050919050565b6000614f3d602b83615bfd565b91507f726571756573746564207769746864726177616c20657863656564732073746160008301527f6b65642062616c616e63650000000000000000000000000000000000000000006020830152604082019050919050565b6000614fa3601383615bfd565b91507f6d7573742062652061206e65772076616c7565000000000000000000000000006000830152602082019050919050565b6000614fe3601983615bfd565b91507f6578636565647320616c6c6f7761626c652066656544617973000000000000006000830152602082019050919050565b6000615023601d83615bfd565b91507f656d657267656e6379206d6f6465206973206e6f74206163746976652e0000006000830152602082019050919050565b6000615063602683615bfd565b91507f6465706f73697420534f554c206279207374616b696e672028656e746572537460008301527f616b696e672900000000000000000000000000000000000000000000000000006020830152604082019050919050565b60006150c9602683615bfd565b91507f416464726573733a20696e73756666696369656e742062616c616e636520666f60008301527f722063616c6c00000000000000000000000000000000000000000000000000006020830152604082019050919050565b600061512f601883615bfd565b91507f6d75737420696e636c7564652061206e65772076616c756500000000000000006000830152602082019050919050565b600061516f601383615bfd565b91507f706f6f6c20646f6573206e6f74206578697374000000000000000000000000006000830152602082019050919050565b60006151af602983615bfd565b91507f776974686472617720534f554c20627920756e7374616b696e6720286c65617660008301527f655374616b696e672900000000000000000000000000000000000000000000006020830152604082019050919050565b6000615215603483615bfd565b91507f696e73756666696369656e74205345414e434520746f20636f76657220534f5560008301527f4c207769746864726177616c20726571756573740000000000000000000000006020830152604082019050919050565b600061527b601483615bfd565b91507f63616e6e6f74207769746864726177207a65726f0000000000000000000000006000830152602082019050919050565b60006152bb601d83615bfd565b91507f416464726573733a2063616c6c20746f206e6f6e2d636f6e74726163740000006000830152602082019050919050565b60006152fb601b83615bfd565b91507f726577617264732068617665206e6f742079657420626567756e2e00000000006000830152602082019050919050565b600061533b601783615c0e565b91507f416363657373436f6e74726f6c3a206163636f756e74200000000000000000006000830152601782019050919050565b600061537b601a83615bfd565b91507f6d75737420696e636c7564652061206e6577206163636f756e740000000000006000830152602082019050919050565b60006153bb600f83615bfd565b91507f6475706c69636174656420706f6f6c00000000000000000000000000000000006000830152602082019050919050565b60006153fb602a83615bfd565b91507f5361666545524332303a204552433230206f7065726174696f6e20646964206e60008301527f6f742073756363656564000000000000000000000000000000000000000000006020830152604082019050919050565b6000615461601a83615bfd565b91507f72657761726473206861766520616c726561647920626567756e0000000000006000830152602082019050919050565b60006154a1601f83615bfd565b91507f5265656e7472616e637947756172643a207265656e7472616e742063616c6c006000830152602082019050919050565b60006154e1601183615c0e565b91507f206973206d697373696e6720726f6c65200000000000000000000000000000006000830152601182019050919050565b6000615521602f83615bfd565b91507f416363657373436f6e74726f6c3a2063616e206f6e6c792072656e6f756e636560008301527f20726f6c657320666f722073656c6600000000000000000000000000000000006020830152604082019050919050565b6000615587602083615bfd565b91507f7765696768742063616e6e6f742065786365656420746f74616c5765696768746000830152602082019050919050565b6155c381615db4565b82525050565b60006155d58284614d42565b915081905092915050565b60006155eb8261532e565b91506155f78285614dd9565b9150615602826154d4565b915061560e8284614dd9565b91508190509392505050565b600060208201905061562f6000830184614d15565b92915050565b600060408201905061564a6000830185614d15565b6156576020830184614d15565b9392505050565b60006060820190506156736000830186614d15565b6156806020830185614d15565b61568d60408301846155ba565b949350505050565b60006040820190506156aa6000830185614d15565b6156b760208301846155ba565b9392505050565b60006020820190506156d36000830184614d24565b92915050565b60006020820190506156ee6000830184614d33565b92915050565b600060a0820190506157096000830188614d73565b61571660208301876155ba565b61572360408301866155ba565b61573060608301856155ba565b61573d60808301846155ba565b9695505050505050565b600060208201905061575c6000830184614d82565b92915050565b6000602082019050818103600083015261577c8184614da0565b905092915050565b6000602082019050818103600083015261579d81614e0a565b9050919050565b600060208201905081810360008301526157bd81614e4a565b9050919050565b600060208201905081810360008301526157dd81614e8a565b9050919050565b600060208201905081810360008301526157fd81614eca565b9050919050565b6000602082019050818103600083015261581d81614f30565b9050919050565b6000602082019050818103600083015261583d81614f96565b9050919050565b6000602082019050818103600083015261585d81614fd6565b9050919050565b6000602082019050818103600083015261587d81615016565b9050919050565b6000602082019050818103600083015261589d81615056565b9050919050565b600060208201905081810360008301526158bd816150bc565b9050919050565b600060208201905081810360008301526158dd81615122565b9050919050565b600060208201905081810360008301526158fd81615162565b9050919050565b6000602082019050818103600083015261591d816151a2565b9050919050565b6000602082019050818103600083015261593d81615208565b9050919050565b6000602082019050818103600083015261595d8161526e565b9050919050565b6000602082019050818103600083015261597d816152ae565b9050919050565b6000602082019050818103600083015261599d816152ee565b9050919050565b600060208201905081810360008301526159bd8161536e565b9050919050565b600060208201905081810360008301526159dd816153ae565b9050919050565b600060208201905081810360008301526159fd816153ee565b9050919050565b60006020820190508181036000830152615a1d81615454565b9050919050565b60006020820190508181036000830152615a3d81615494565b9050919050565b60006020820190508181036000830152615a5d81615514565b9050919050565b60006020820190508181036000830152615a7d8161557a565b9050919050565b6000602082019050615a9960008301846155ba565b92915050565b6000606082019050615ab460008301866155ba565b615ac16020830185614d91565b615ace60408301846155ba565b949350505050565b6000604082019050615aeb60008301856155ba565b615af860208301846155ba565b9392505050565b6000608082019050615b1460008301876155ba565b615b2160208301866155ba565b615b2e6040830185614d73565b615b3b60608301846155ba565b95945050505050565b6000606082019050615b5960008301866155ba565b615b6660208301856155ba565b615b7360408301846155ba565b949350505050565b600060c082019050615b9060008301896155ba565b615b9d60208301886155ba565b615baa60408301876155ba565b615bb760608301866155ba565b615bc460808301856155ba565b615bd160a08301846155ba565b979650505050505050565b600081519050919050565b600081519050919050565b600081905092915050565b600082825260208201905092915050565b600081905092915050565b6000615c2482615db4565b9150615c2f83615db4565b9250827fffffffffffffffffffffffffffffffffffffffffffffffffffffffffffffffff03821115615c6457615c63615ebe565b5b828201905092915050565b6000615c7a82615db4565b9150615c8583615db4565b925082615c9557615c94615eed565b5b828204905092915050565b6000615cab82615db4565b9150615cb683615db4565b9250817fffffffffffffffffffffffffffffffffffffffffffffffffffffffffffffffff0483118215151615615cef57615cee615ebe565b5b828202905092915050565b6000615d0582615db4565b9150615d1083615db4565b925082821015615d2357615d22615ebe565b5b828203905092915050565b6000615d3982615d94565b9050919050565b60008115159050919050565b6000819050919050565b60007fffffffff0000000000000000000000000000000000000000000000000000000082169050919050565b6000615d8d82615d2e565b9050919050565b600073ffffffffffffffffffffffffffffffffffffffff82169050919050565b6000819050919050565b6000615dc982615dd0565b9050919050565b6000615ddb82615d94565b9050919050565b6000615ded82615df4565b9050919050565b6000615dff82615d94565b9050919050565b6000615e1182615db4565b9050919050565b60005b83811015615e36578082015181840152602081019050615e1b565b83811115615e45576000848401525b50505050565b6000615e5682615db4565b91506000821415615e6a57615e69615ebe565b5b600182039050919050565b6000615e8082615db4565b91507fffffffffffffffffffffffffffffffffffffffffffffffffffffffffffffffff821415615eb357615eb2615ebe565b5b600182019050919050565b7f4e487b7100000000000000000000000000000000000000000000000000000000600052601160045260246000fd5b7f4e487b7100000000000000000000000000000000000000000000000000000000600052601260045260246000fd5b6000601f19601f8301169050919050565b615f3681615d2e565b8114615f4157600080fd5b50565b615f4d81615d40565b8114615f5857600080fd5b50565b615f6481615d4c565b8114615f6f57600080fd5b50565b615f7b81615d56565b8114615f8657600080fd5b50565b615f9281615d82565b8114615f9d57600080fd5b50565b615fa981615db4565b8114615fb457600080fd5b5056fea264697066735822122052596539aa38b674d607d17124395caf15fd79767906dd78ed5181308ed8683d64736f6c63430008000033",
  "immutableReferences": {
    "2319": [
      {
        "length": 32,
        "start": 5030
      },
      {
        "length": 32,
        "start": 15515
      }
    ],
    "2330": [
      {
        "length": 32,
        "start": 11186
      },
      {
        "length": 32,
        "start": 11765
      }
    ],
    "2335": [
      {
        "length": 32,
        "start": 14758
      }
    ],
    "2340": [
      {
        "length": 32,
        "start": 5400
      },
      {
        "length": 32,
        "start": 12891
      }
    ]
  },
  "source": "// SPDX-License-Identifier: MIT\n\npragma solidity ^0.8.0;\nimport '@openzeppelin/contracts/access/AccessControl.sol';\nimport '@openzeppelin/contracts/security/ReentrancyGuard.sol';\nimport '../libraries/SafeERC20.sol';\nimport '../interfaces/IToken.sol';\n\n// manifestor of new souls | ownership transferred to a governance smart contract \n// upon sufficient distribution + the community's desire to self-govern.\n\ncontract SoulManifester is AccessControl, ReentrancyGuard {\n    using SafeERC20 for IERC20;\n\n    // user info\n    struct Users {\n        uint amount;            // deposited amount.\n        uint rewardDebt;        // reward debt (see: pendingSoul).\n        uint withdrawalTime;    // last withdrawal time.\n        uint depositTime;       // first deposit time.\n        uint timeDelta;         // seconds accounted for in fee calculation.\n        uint deltaDays;         // days accounted for in fee calculation\n\n        // the following occurs when a user +/- tokens to a pool:\n        //   1. pool: `accSoulPerShare` and `lastRewardTime` update.\n        //   2. user: receives pending reward.\n        //   3. user: `amount` updates(+/-).\n        //   4. user: `rewardDebt` updates (+/-).\n    }\n\n    // pool info\n    struct Pools {\n        IERC20 lpToken;       // lp token contract.\n        uint allocPoint;      // allocation points, which determines SOUL distribution per second.\n        uint lastRewardTime;  // latest SOUL distribution in the pool.\n        uint accSoulPerShare; // accumulated SOUL per share (times 1e12).\n        uint feeDays;         // days during which a fee applies (aka startRate or feeDuration).\n    }\n\n    // soul power: our native utility token\n    address private soulAddress;\n    IToken public soul;\n    \n    // seance circle: our governance token\n    address private seanceAddress;\n    IToken public seance;\n\n    address public supreme = msg.sender;        // I.AM.SHE.\n    address public team;                        // receives 1/8 supply\n    address public dao;                         // recieves 1/8 supply\n\n    // rewarder variables: used to calculate share of overall emissions.\n    uint public totalWeight;\n    uint public weight;\n\n    // global daily SOUL\n    uint public immutable globalDailySoul = 250_000;\n\n    // local daily SOUL\n    uint public dailySoul; // = weight * globalDailySoul * 1e18;\n    // rewards per second for this rewarder\n    uint public soulPerSecond; // = dailySoul / 86400;\n\n    // marks the beginning of soul rewards.\n    uint public startTime;\n\n    // total allocation points: must be the sum of all allocation points\n    uint public totalAllocPoint;\n\n    // bonus muliplier\n    uint public immutable bonusMultiplier = 1;\n\n    // decay rate on withdrawal fee of 1%.\n    uint public immutable dailyDecay = enWei(1);\n    \n    // limits the maximum days to wait for a fee-less withdrawal.\n    uint public immutable maxFeeDays = enWei(100);\n\n    // initialization state\n    bool public isInitialized;\n    \n    // emergency state\n    bool public isEmergency;\n\n    // activation state\n    bool public isActivated;\n\n    // pool info\n    Pools[] public poolInfo;\n\n    // user info\n    mapping (uint => mapping (address => Users)) public userInfo;\n\n    // divine roles\n    bytes32 public isis; // soul summoning goddess of magic\n    bytes32 public maat; // goddess of cosmic order\n\n    // restricts: function to the council of the role passed as an object to obey (role)\n    modifier obey(bytes32 role) {\n        _checkRole(role, _msgSender());\n        _;\n    }\n\n    // controls: emergencyWithdrawals.\n    modifier emergencyActive {\n        require(isEmergency, 'emergency mode is not active.');\n        _;\n    }\n\n    // proxy for pausing contract.\n    modifier isActive {\n        require(isInitialized, 'rewards have not yet begun.');\n        require(isActivated, 'contract is currently paused');\n        _;\n    }\n\n    // validates: pool exists\n    modifier validatePoolByPid(uint pid) {\n        require(pid < poolInfo.length, 'pool does not exist');\n        _;\n    }\n\n    /*/ events /*/\n    event Deposit(address indexed user, uint indexed pid, uint amount, uint timestamp);\n    event Withdraw(address indexed user, uint indexed pid, uint amount, uint feeAmount, uint timeStamp);\n    event Initialized(address soulAddress, address seanceAddress, uint weight);\n    event PoolAdded(uint pid, uint allocPoint, IERC20 lpToken, uint totalAllocPoint);\n    event PoolSet(uint pid, uint allocPoint);\n    event WeightUpdated(uint weight, uint totalWeight);\n    event RewardsUpdated(uint dailySoul, uint soulPerSecond);\n    event FeeDaysUpdated(uint pid, uint feeDays);\n    event AccountsUpdated(address dao, address team);\n    event TokensUpdated(address soul, address seance);\n    event DepositRevised(uint pid, address account, uint timestamp);\n    event EmergencyWithdraw(address indexed user, uint indexed pid, uint amount);\n\n    // channels: power to the divine goddesses isis & ma'at\n    constructor() {\n        team = supreme;\n        dao = supreme;\n\n        isis = keccak256(\"isis\"); // goddess of magic (who creates pools)\n        maat = keccak256(\"maat\"); // goddess of cosmic order (who allocates emissions)\n\n        _divinationCeremony(DEFAULT_ADMIN_ROLE, DEFAULT_ADMIN_ROLE, supreme);\n        _divinationCeremony(isis, isis, supreme); // isis role created -- supreme divined admin\n        _divinationCeremony(maat, isis, supreme); // maat role created -- isis divined admin\n    } \n\n    function _divinationCeremony(bytes32 _role, bytes32 _adminRole, address _account) internal returns (bool) {\n            _setupRole(_role, _account);\n            _setRoleAdmin(_role, _adminRole);\n        return true;\n    }\n\n    // validates: pool uniqueness to eliminate duplication risk (internal view)\n    function checkPoolDuplicate(IERC20 _token) internal view {\n        uint length = poolInfo.length;\n\n        for (uint pid = 0; pid < length; ++pid) {\n            require(poolInfo[pid].lpToken != _token, 'duplicated pool');\n        }\n    }\n\n    // activates: rewards (isis)\n    function initialize(address _soulAddress, address _seanceAddress, uint _weight) external obey(isis) {\n        // checks: rewards have not already begun\n        require(!isInitialized, 'rewards have already begun');\n\n        // sets: times & weights\n        startTime = block.timestamp;\n        totalWeight = 1_000;\n        weight = _weight;\n\n        // sets: tokens\n        soulAddress = _soulAddress;\n        seanceAddress = _seanceAddress;\n        soul  = IToken(_soulAddress);\n        seance = IToken(_seanceAddress);\n\n        // updates: dailySoul and soulPerSecond\n        updateRewards(weight, totalWeight); \n\n        // adds: staking pool (allocation: 1,000 & withdrawFee: 0).\n        poolInfo.push(Pools({\n            lpToken: IERC20(_soulAddress),\n            allocPoint: 1_000,\n            lastRewardTime: startTime,\n            accSoulPerShare: 0,\n            feeDays: 0\n        }));\n        \n        // triggers: initialization\n        isInitialized = true;\n\n        // sets: total allocation point.\n        totalAllocPoint += 1_000;\n\n        emit Initialized(_soulAddress, _seanceAddress, _weight);\n    }\n\n    // enables: panic button (ma'at)\n    function toggleEmergency(bool enabled) external obey(maat) {\n        isEmergency = enabled;\n    }\n\n    // toggles: pause state (isis)\n    function toggleActive(bool enabled) external obey(isis) {\n        isActivated = enabled;\n    }\n\n    // returns: amount of pools\n    function poolLength() external view returns (uint) { return poolInfo.length; }\n\n    // add: new pool created by the soul summoning goddess whose power transcends all (isis)\n    function addPool(uint _allocPoint, IERC20 _lpToken, bool _withUpdate, uint _feeDays) public isActive obey(isis) { \n            checkPoolDuplicate(_lpToken);\n\n            _addPool(_allocPoint, _lpToken, _withUpdate, _feeDays);\n    }\n\n    // add: pool\n    function _addPool(uint _allocPoint, IERC20 _lpToken, bool _withUpdate, uint _feeDays) internal {\n        if (_withUpdate) { massUpdatePools(); }\n\n        totalAllocPoint += _allocPoint;\n\n        poolInfo.push(\n        Pools({\n            lpToken: _lpToken,\n            allocPoint: _allocPoint,\n            lastRewardTime: block.timestamp > startTime ? block.timestamp : startTime,\n            accSoulPerShare: 0,\n            feeDays: enWei(_feeDays)\n        }));\n        \n        updateStakingPool();\n        uint pid = poolInfo.length;\n\n        emit PoolAdded(pid, _allocPoint, _lpToken, totalAllocPoint);\n    }\n\n    // set: allocation points (ma'at)\n    function set(uint pid, uint allocPoint, bool withUpdate) external isActive validatePoolByPid(pid) obey(maat) {\n            // [if] withUpdate, [then] execute mass pool update.\n            if (withUpdate) { massUpdatePools(); }\n            \n            // gets: previous allocation point & sets new allocation point\n            uint prevAllocPoint = poolInfo[pid].allocPoint;\n            poolInfo[pid].allocPoint = allocPoint;\n            \n            if (prevAllocPoint != allocPoint) {\n                totalAllocPoint = totalAllocPoint - prevAllocPoint + allocPoint;\n                \n                updateStakingPool(); // updates selected pool (only)\n        }\n\n        emit PoolSet(pid, allocPoint);\n    }\n\n    // view: user delta is the time since user either last withdrew OR first deposited.\n\tfunction userDelta(uint pid, address _user) public view returns (uint delta) {\n        // grabs the stored user data for the pool\n        Users memory user = userInfo[pid][_user];\n\n        // if user has never withdrawn\n        user.withdrawalTime == 0 \n            // then use the time since their first deposit\n            ? delta = block.timestamp - user.depositTime\n            // else, use the time since the last withdrawal\n            : delta = block.timestamp - user.withdrawalTime;\n\n        return delta;\n\t}\n\n    // view: user delta is the time since user either last withdrew OR first deposited.\n\tfunction userDelta(uint pid) public view returns (uint delta) {\n        // grabs the stored user data for the pool\n        Users memory user = userInfo[pid][msg.sender];\n\n        // if user has never withdrawn\n        user.withdrawalTime == 0 \n            // then use the time since their first deposit\n            ? delta = block.timestamp - user.depositTime\n            // else, use the time since the last withdrawal\n            : delta = block.timestamp - user.withdrawalTime;\n\n        return delta;  \n\t}\n\n    // returns: multiplier during a period.\n    function getMultiplier(uint from, uint to) public pure returns (uint) {\n        return (to - from) * bonusMultiplier;\n    }\n\n    // gets: days based off a given timeDelta (seconds).\n    function getDeltaDays(uint timeDelta) public pure returns (uint deltaDays) {\n        deltaDays = timeDelta < 1 days ? 0 : timeDelta / 1 days;\n        return deltaDays;     \n    }\n\n    // returns: fee rate for a given pid and timeDelta.\n    function getFeeRate(uint pid, uint deltaDays) public view returns (uint feeRate) {\n        // calculates: rateDecayed (converts to wei).\n        uint rateDecayed = enWei(deltaDays);\n\n        // gets: info & feeDays (pool)\n        Pools memory pool = poolInfo[pid];\n        uint feeDays = pool.feeDays; \n\n        // [if] more time has elapsed than wait period\n        if (rateDecayed >= feeDays) {\n            // [then] set feeRate to 0.\n            feeRate = 0;\n        } else { // [else] reduce feeDays by the rateDecayed.\n            feeRate = feeDays - rateDecayed;\n        }\n\n        return feeRate;\n    }\n\n    // returns: feeAmount and with withdrawableAmount for a given pid and amount\n    function getWithdrawable(uint pid, uint deltaDays, uint amount) public view returns (uint _feeAmount, uint _withdrawable) {\n        // gets: feeRate\n        uint feeRate = fromWei(getFeeRate(pid, deltaDays));\n        // gets: feeAmount\n        uint feeAmount = (amount * feeRate) / 100;\n        // calculates: withdrawable amount\n        uint withdrawable = amount - feeAmount;\n\n        return (feeAmount, withdrawable);\n    }\n\n    // view: pending soul rewards\n    function pendingSoul(uint pid, address account) public view returns (uint pendingAmount) {\n        // gets: pool and user data\n        Pools memory pool = poolInfo[pid];\n        Users memory user = userInfo[pid][account];\n\n        // gets: `accSoulPerShare` & `lpSupply` (pool)\n        uint accSoulPerShare = pool.accSoulPerShare;\n        uint lpSupply = pool.lpToken.balanceOf(address(this));\n\n        // [if] holds deposits & rewards issued at least once (pool)\n        if (block.timestamp > pool.lastRewardTime && lpSupply != 0) {\n            // gets: multiplier from the time since now and last time rewards issued (pool)\n            uint multiplier = getMultiplier(pool.lastRewardTime, block.timestamp);\n            // get: reward as the product of the elapsed emissions and the share of soul rewards (pool)\n            uint soulReward = multiplier * soulPerSecond * pool.allocPoint / totalAllocPoint;\n            // adds: product of soulReward and 1e12\n            accSoulPerShare += soulReward * 1e12 / lpSupply;\n        }\n        // returns: rewardShare for user minus the amount paid out (user)\n        return user.amount * accSoulPerShare / 1e12 - user.rewardDebt;\n    }\n\n    // update: rewards for all pools (public)\n    function massUpdatePools() public {\n        uint length = poolInfo.length;\n        for (uint pid = 0; pid < length; ++pid) { updatePool(pid); }\n    }\n\n    // update: rewards for a given pool id (public)\n    function updatePool(uint pid) public validatePoolByPid(pid) {\n        Pools storage pool = poolInfo[pid];\n\n        if (block.timestamp <= pool.lastRewardTime) { return; }\n        uint lpSupply = pool.lpToken.balanceOf(address(this));\n\n        // [if] first staker in pool, [then] set lastRewardTime to meow.\n        if (lpSupply == 0) { pool.lastRewardTime = block.timestamp; return; }\n\n        // gets: multiplier from time elasped since pool began issuing rewards.\n        uint multiplier = getMultiplier(pool.lastRewardTime, block.timestamp);\n        uint soulReward = multiplier * soulPerSecond * pool.allocPoint / totalAllocPoint;\n        // gets: divi\n        uint divi = soulReward * 1e12 / 8e12;   // 12.5% rewards\n        \n        soul.mint(team, divi);\n        soul.mint(dao, divi);\n        soul.mint(address(seance), soulReward); // prevents reward errors\n\n        pool.accSoulPerShare = pool.accSoulPerShare + (soulReward * 1e12 / lpSupply);\n        pool.lastRewardTime = block.timestamp;\n    }\n\n    // harvests: pending rewards for a given pid.\n    function harvest(uint pid) public {\n        if (pid == 0) { enterStaking(0); }\n        else { deposit(pid, 0); }\n    }\n    \n    // harvest: all pools in a single transaction.\n    function harvestAll(uint[] calldata _pids) public {\n        for (uint i = 0; i < _pids.length; ++i) {\n            harvest(_pids[i]);\n        }\n    }\n\n    // deposit: lp tokens (lp owner)\n    function deposit(uint pid, uint amount) public nonReentrant isActive validatePoolByPid(pid) {\n        require (pid != 0, 'deposit SOUL by staking (enterStaking)');\n        \n        // gets: stored data for pool and user.\n        Pools storage pool = poolInfo[pid];\n        Users storage user = userInfo[pid][msg.sender];\n\n        updatePool(pid);\n\n        // [if] already deposited (user)\n        if (user.amount > 0) {\n            // [then] gets: pendingRewards using pendingSoul (pid, user).\n            uint pendingRewards = pendingSoul(pid, msg.sender);\n            // [if] rewards pending, then transfer to user.\n            if(pendingRewards > 0) { \n                safeSoulTransfer(msg.sender, pendingRewards);\n            }\n        }\n\n        // [if] depositing more\n        if (amount > 0) {\n            // [then] transfer lpToken from user to contract\n            pool.lpToken.transferFrom(address(msg.sender), address(this), amount);\n            // [then] increment deposit amount (user).\n            user.amount += amount;\n        }\n\n        // updates: reward debt (user).\n        user.rewardDebt = user.amount * pool.accSoulPerShare / 1e12;\n\n        // [if] first time depositing (user)\n        if (user.depositTime == 0) {\n            // [then] update depositTime\n            user.depositTime = block.timestamp;\n        }\n        \n        emit Deposit(msg.sender, pid, amount, block.timestamp);\n    }\n\n    // withdraw: lp tokens (external farmers)\n    function withdraw(uint pid, uint amount) external nonReentrant isActive validatePoolByPid(pid) {\n        require (pid != 0, 'withdraw SOUL by unstaking (leaveStaking)');\n        require(amount > 0, 'cannot withdraw zero');\n\n        Pools storage pool = poolInfo[pid];\n        Users storage user = userInfo[pid][msg.sender];\n\n        require(user.amount >= amount, 'withdrawal exceeds deposit');\n        updatePool(pid);\n\n        // gets: pending rewards as determined by pendingSoul.\n        uint pending = pendingSoul(pid, msg.sender);\n        // [if] rewards are pending, [then] send rewards to user.\n        if(pending > 0) { safeSoulTransfer(msg.sender, pending); }\n\n        // gets: timeDelta as the time since last withdrawal.\n        uint timeDelta = userDelta(pid, msg.sender);\n\n        // gets: deltaDays as days passed using timeDelta.\n        uint deltaDays = getDeltaDays(timeDelta);\n\n        // updates: deposit, timeDelta, & deltaDays (user)\n        user.amount -= amount;\n        user.timeDelta = timeDelta;\n        user.deltaDays = deltaDays;\n\n        // calculates: withdrawable amount (pid, deltaDays, amount).\n        (, uint withdrawableAmount) = getWithdrawable(pid, deltaDays, amount); \n\n        // calculates: `feeAmount` as the `amount` requested minus `withdrawableAmount`.\n        uint feeAmount = amount - withdrawableAmount;\n\n        // transfers: `feeAmount` --> DAO.\n        pool.lpToken.transfer(address(dao), feeAmount);\n        // transfers: withdrawableAmount amount --> user.\n        pool.lpToken.transfer(address(msg.sender), withdrawableAmount);\n\n        // updates: rewardDebt and withdrawalTime (user)\n        user.rewardDebt = user.amount * pool.accSoulPerShare / 1e12;\n        user.withdrawalTime = block.timestamp;\n\n        emit Withdraw(msg.sender, pid, amount, feeAmount, block.timestamp);\n    }\n\n    // enables: withdrawal without caring about rewards (for example, when rewards end).\n    function emergencyWithdraw(uint pid) external nonReentrant emergencyActive {\n        // gets: pool & user data (to update later).\n        Pools storage pool = poolInfo[pid];\n        Users storage user = userInfo[pid][msg.sender];\n\n        // [if] removing from staking\n        if (pid == 0) {\n            // [then] require SEANCE balance covers request (user).\n            require(seance.balanceOf(msg.sender) >= user.amount, 'insufficient SEANCE to cover SOUL withdrawal request');\n            // [then] burn seance from sender.\n            seance.burn(msg.sender, user.amount); \n        }\n\n        // transfers: lpToken to the user.\n        pool.lpToken.safeTransfer(msg.sender, user.amount);\n\n        // eliminates: user deposit and rewardDebt.\n        user.amount = 0;\n        user.rewardDebt = 0;\n\n        emit EmergencyWithdraw(msg.sender, pid, user.amount);\n    }\n\n    // stakes: soul into summoner.\n    function enterStaking(uint amount) public nonReentrant isActive {\n        Pools storage pool = poolInfo[0];\n        Users storage user = userInfo[0][msg.sender];\n\n        updatePool(0);\n\n        // gets: staked amount (user).\n        uint stakedAmount = user.amount;\n\n        // [if] already staked (user)\n        if (stakedAmount > 0) {\n            // [then] get: pending rewards.\n            uint pending = pendingSoul(0, msg.sender);\n            // [then] send: pending rewards.\n            safeSoulTransfer(msg.sender, pending);\n        }\n        \n        // [if] staking ( harvest)\n        if (amount > 0) {\n            // [then] transfer: `amount` of SOUL from user to contract.\n            pool.lpToken.transferFrom(msg.sender, address(this), amount);\n            // [then] increase: stored deposit amount (user).\n            user.amount += amount;\n        }\n\n        // [if] first deposit, [then] set depositTime to meow (user).\n        if (user.depositTime == 0) { user.depositTime = block.timestamp; }\n\n        // updates: reward debt (user)\n        user.rewardDebt = user.amount * pool.accSoulPerShare / 1e12;\n\n        // mints & sends: requested `amount` of SEANCE to sender as a receipt.\n        if (amount > 0) { seance.mint(msg.sender, amount); }\n\n        emit Deposit(msg.sender, 0, amount, block.timestamp);\n    }\n\n    // unstake: your soul (external staker)\n    function leaveStaking(uint amount) external nonReentrant isActive {\n        Pools storage pool = poolInfo[0];\n        Users storage user = userInfo[0][msg.sender];\n\n        // checks: sufficient balance to cover request (user).\n        require(user.amount >= amount, 'requested withdrawal exceeds staked balance');\n        updatePool(0);\n\n        // gets: pending staking pool rewards (user).\n        uint pending = pendingSoul(0, msg.sender);\n\n        // [if] sender has pending rewards, [then] transfer rewards to sender.\n        if (pending > 0) { safeSoulTransfer(msg.sender, pending); }\n\n        // [if] withdrawing from stake.\n        if (amount > 0) {\n            // [then] decrease: stored deposit by withdrawal amount.\n            user.amount = user.amount - amount;\n            // [then] burn: SEANCE in the specified `amount` (user).\n            seance.burn(msg.sender, amount);\n            // [then] update: reward debt (user).\n            user.rewardDebt = user.amount * pool.accSoulPerShare / 1e12;\n            // [then] update: withdrawal time (user).\n            user.withdrawalTime = block.timestamp;\n            // [then] transfer: requested SOUL (user).\n            pool.lpToken.transfer(address(msg.sender), amount);\n        }\n\n        emit Withdraw(msg.sender, 0, amount, 0, block.timestamp);\n    }\n    \n    // transfer: seance (only if there is sufficient coverage for payout).\n    function safeSoulTransfer(address account, uint amount) internal {\n        require(seance.balanceOf(soulAddress) >= amount, 'insufficient coverage for requested SOUL from SEANCE');\n        seance.safeSoulTransfer(account, amount);\n    }\n\n    // update: weight (ma'at)\n    function updateWeight(uint _weight, uint _totalWeight) external obey(maat) {\n        require(weight != _weight || totalWeight != _totalWeight, 'must include a new value');\n        require(_totalWeight >= _weight, 'weight cannot exceed totalWeight');\n\n        weight = _weight;     \n        totalWeight = _totalWeight;\n\n        updateRewards(_weight, _totalWeight);\n\n        emit WeightUpdated(_weight, _totalWeight);\n    }\n\n    // update: staking pool\n    function updateStakingPool() internal {\n        uint length = poolInfo.length;\n        uint points;\n        \n        for (uint pid = 1; pid < length; ++pid) { \n            points = points + poolInfo[pid].allocPoint; \n        }\n\n        if (points != 0) {\n            points = points / 3;\n            totalAllocPoint = totalAllocPoint - poolInfo[0].allocPoint + points;\n            poolInfo[0].allocPoint = points;\n        }\n    }\n\n    // update: rewards\n    function updateRewards(uint _weight, uint _totalWeight) internal {\n        uint share = enWei(_weight) / _totalWeight; // share of total emissions for rewarder (rewarder % total emissions)\n        \n        dailySoul = share * globalDailySoul; // dailySoul (for rewarder) = share (%) x globalDailySoul (soul emissions constant)\n        soulPerSecond = dailySoul / 1 days; // updates: daily rewards expressed in seconds (1 days = 86,400 secs)\n\n        emit RewardsUpdated(dailySoul, soulPerSecond);\n    }\n\n    // updates: feeDays (ma'at)\n    function updateFeeDays(uint pid, uint _daysRequested) external obey(maat) {\n        Pools storage pool = poolInfo[pid];\n        // converts & stores requested days (enWei).\n        uint _feeDays = enWei(_daysRequested);\n\n        // gets: current fee days & ensures distinction (pool)\n        uint feeDays = pool.feeDays;\n        require(feeDays != _feeDays, 'must be a new value');\n        \n        // limits: feeDays by maxFeeDays\n        require(feeDays <= maxFeeDays, 'exceeds allowable feeDays');\n        \n        // updates: fee days (pool)\n        pool.feeDays = _feeDays;\n        \n        emit FeeDaysUpdated(pid, _feeDays);\n    }\n\n    // updates: dao & team addresses (isis)\n    function updateAccounts(address _dao, address _team) external obey(isis) {\n        require(dao != _dao || team != _team, 'must include a new account');\n        dao = _dao;\n        team = _team;\n\n        emit AccountsUpdated(dao, team);\n    }\n\n    // helper functions to convert to wei and 1/100th\n    function enWei(uint amount) public pure returns (uint) {  return amount * 1e18; }\n    function fromWei(uint amount) public pure returns (uint) { return amount / 1e18; }\n}\n",
  "sourcePath": "/Users/buns/Documents/GitHub/SoulSwapFinance/soulswap-farms/contracts/rewards/SoulManifester.sol",
  "compiler": {
    "name": "solc",
    "version": "0.8.0+commit.c7dfd78e.Emscripten.clang"
  },
  "schemaVersion": "3.4.1",
  "updatedAt": "2022-09-19T00:41:59.291Z",
  "devdoc": {
    "kind": "dev",
    "methods": {
      "getRoleAdmin(bytes32)": {
        "details": "Returns the admin role that controls `role`. See {grantRole} and {revokeRole}. To change a role's admin, use {_setRoleAdmin}."
      },
      "grantRole(bytes32,address)": {
        "details": "Grants `role` to `account`. If `account` had not been already granted `role`, emits a {RoleGranted} event. Requirements: - the caller must have ``role``'s admin role."
      },
      "hasRole(bytes32,address)": {
        "details": "Returns `true` if `account` has been granted `role`."
      },
      "renounceRole(bytes32,address)": {
        "details": "Revokes `role` from the calling account. Roles are often managed via {grantRole} and {revokeRole}: this function's purpose is to provide a mechanism for accounts to lose their privileges if they are compromised (such as when a trusted device is misplaced). If the calling account had been granted `role`, emits a {RoleRevoked} event. Requirements: - the caller must be `account`."
      },
      "revokeRole(bytes32,address)": {
        "details": "Revokes `role` from `account`. If `account` had been granted `role`, emits a {RoleRevoked} event. Requirements: - the caller must have ``role``'s admin role."
      },
      "supportsInterface(bytes4)": {
        "details": "See {IERC165-supportsInterface}."
      }
    },
    "version": 1
  },
  "userdoc": {
    "kind": "user",
    "methods": {},
    "version": 1
  }
}