{
  "contractName": "SoulSummonerFantomV2",
  "abi": [
    {
      "inputs": [],
      "stateMutability": "nonpayable",
      "type": "constructor"
    },
    {
      "anonymous": false,
      "inputs": [
        {
          "indexed": false,
          "internalType": "address",
          "name": "dao",
          "type": "address"
        },
        {
          "indexed": false,
          "internalType": "address",
          "name": "team",
          "type": "address"
        },
        {
          "indexed": false,
          "internalType": "address",
          "name": "admin",
          "type": "address"
        }
      ],
      "name": "AccountsUpdated",
      "type": "event"
    },
    {
      "anonymous": false,
      "inputs": [
        {
          "indexed": true,
          "internalType": "address",
          "name": "user",
          "type": "address"
        },
        {
          "indexed": true,
          "internalType": "uint256",
          "name": "pid",
          "type": "uint256"
        },
        {
          "indexed": false,
          "internalType": "uint256",
          "name": "amount",
          "type": "uint256"
        }
      ],
      "name": "Deposit",
      "type": "event"
    },
    {
      "anonymous": false,
      "inputs": [
        {
          "indexed": false,
          "internalType": "uint256",
          "name": "_pid",
          "type": "uint256"
        },
        {
          "indexed": false,
          "internalType": "address",
          "name": "_user",
          "type": "address"
        },
        {
          "indexed": false,
          "internalType": "uint256",
          "name": "_time",
          "type": "uint256"
        }
      ],
      "name": "DepositRevised",
      "type": "event"
    },
    {
      "anonymous": false,
      "inputs": [
        {
          "indexed": false,
          "internalType": "address",
          "name": "team",
          "type": "address"
        },
        {
          "indexed": false,
          "internalType": "address",
          "name": "dao",
          "type": "address"
        },
        {
          "indexed": false,
          "internalType": "address",
          "name": "soul",
          "type": "address"
        },
        {
          "indexed": false,
          "internalType": "address",
          "name": "seance",
          "type": "address"
        },
        {
          "indexed": false,
          "internalType": "uint256",
          "name": "totalAllocPoint",
          "type": "uint256"
        },
        {
          "indexed": false,
          "internalType": "uint256",
          "name": "weight",
          "type": "uint256"
        }
      ],
      "name": "Initialized",
      "type": "event"
    },
    {
      "anonymous": false,
      "inputs": [
        {
          "indexed": false,
          "internalType": "uint256",
          "name": "pid",
          "type": "uint256"
        },
        {
          "indexed": false,
          "internalType": "uint256",
          "name": "allocPoint",
          "type": "uint256"
        },
        {
          "indexed": false,
          "internalType": "contract IERC20",
          "name": "lpToken",
          "type": "address"
        },
        {
          "indexed": false,
          "internalType": "uint256",
          "name": "totalAllocPoint",
          "type": "uint256"
        }
      ],
      "name": "PoolAdded",
      "type": "event"
    },
    {
      "anonymous": false,
      "inputs": [
        {
          "indexed": false,
          "internalType": "uint256",
          "name": "pid",
          "type": "uint256"
        },
        {
          "indexed": false,
          "internalType": "uint256",
          "name": "allocPoint",
          "type": "uint256"
        }
      ],
      "name": "PoolSet",
      "type": "event"
    },
    {
      "anonymous": false,
      "inputs": [
        {
          "indexed": false,
          "internalType": "uint256",
          "name": "dailySoul",
          "type": "uint256"
        },
        {
          "indexed": false,
          "internalType": "uint256",
          "name": "soulPerSecond",
          "type": "uint256"
        }
      ],
      "name": "RewardsUpdated",
      "type": "event"
    },
    {
      "anonymous": false,
      "inputs": [
        {
          "indexed": true,
          "internalType": "bytes32",
          "name": "role",
          "type": "bytes32"
        },
        {
          "indexed": true,
          "internalType": "bytes32",
          "name": "previousAdminRole",
          "type": "bytes32"
        },
        {
          "indexed": true,
          "internalType": "bytes32",
          "name": "newAdminRole",
          "type": "bytes32"
        }
      ],
      "name": "RoleAdminChanged",
      "type": "event"
    },
    {
      "anonymous": false,
      "inputs": [
        {
          "indexed": false,
          "internalType": "bytes32",
          "name": "role",
          "type": "bytes32"
        },
        {
          "indexed": false,
          "internalType": "bytes32",
          "name": "supreme",
          "type": "bytes32"
        }
      ],
      "name": "RoleDivinated",
      "type": "event"
    },
    {
      "anonymous": false,
      "inputs": [
        {
          "indexed": true,
          "internalType": "bytes32",
          "name": "role",
          "type": "bytes32"
        },
        {
          "indexed": true,
          "internalType": "address",
          "name": "account",
          "type": "address"
        },
        {
          "indexed": true,
          "internalType": "address",
          "name": "sender",
          "type": "address"
        }
      ],
      "name": "RoleGranted",
      "type": "event"
    },
    {
      "anonymous": false,
      "inputs": [
        {
          "indexed": true,
          "internalType": "bytes32",
          "name": "role",
          "type": "bytes32"
        },
        {
          "indexed": true,
          "internalType": "address",
          "name": "account",
          "type": "address"
        },
        {
          "indexed": true,
          "internalType": "address",
          "name": "sender",
          "type": "address"
        }
      ],
      "name": "RoleRevoked",
      "type": "event"
    },
    {
      "anonymous": false,
      "inputs": [
        {
          "indexed": false,
          "internalType": "uint256",
          "name": "startRate",
          "type": "uint256"
        }
      ],
      "name": "StartRateUpdated",
      "type": "event"
    },
    {
      "anonymous": false,
      "inputs": [
        {
          "indexed": false,
          "internalType": "address",
          "name": "soul",
          "type": "address"
        },
        {
          "indexed": false,
          "internalType": "address",
          "name": "seance",
          "type": "address"
        }
      ],
      "name": "TokensUpdated",
      "type": "event"
    },
    {
      "anonymous": false,
      "inputs": [
        {
          "indexed": false,
          "internalType": "uint256",
          "name": "weight",
          "type": "uint256"
        },
        {
          "indexed": false,
          "internalType": "uint256",
          "name": "totalWeight",
          "type": "uint256"
        }
      ],
      "name": "WeightUpdated",
      "type": "event"
    },
    {
      "anonymous": false,
      "inputs": [
        {
          "indexed": true,
          "internalType": "address",
          "name": "user",
          "type": "address"
        },
        {
          "indexed": true,
          "internalType": "uint256",
          "name": "pid",
          "type": "uint256"
        },
        {
          "indexed": false,
          "internalType": "uint256",
          "name": "amount",
          "type": "uint256"
        },
        {
          "indexed": false,
          "internalType": "uint256",
          "name": "timeStamp",
          "type": "uint256"
        }
      ],
      "name": "Withdraw",
      "type": "event"
    },
    {
      "inputs": [],
      "name": "DEFAULT_ADMIN_ROLE",
      "outputs": [
        {
          "internalType": "bytes32",
          "name": "",
          "type": "bytes32"
        }
      ],
      "stateMutability": "view",
      "type": "function"
    },
    {
      "inputs": [],
      "name": "bonusMultiplier",
      "outputs": [
        {
          "internalType": "uint256",
          "name": "",
          "type": "uint256"
        }
      ],
      "stateMutability": "view",
      "type": "function"
    },
    {
      "inputs": [],
      "name": "dailyDecay",
      "outputs": [
        {
          "internalType": "uint256",
          "name": "",
          "type": "uint256"
        }
      ],
      "stateMutability": "view",
      "type": "function"
    },
    {
      "inputs": [],
      "name": "dailySoul",
      "outputs": [
        {
          "internalType": "uint256",
          "name": "",
          "type": "uint256"
        }
      ],
      "stateMutability": "view",
      "type": "function"
    },
    {
      "inputs": [],
      "name": "dao",
      "outputs": [
        {
          "internalType": "address",
          "name": "",
          "type": "address"
        }
      ],
      "stateMutability": "view",
      "type": "function"
    },
    {
      "inputs": [
        {
          "internalType": "bytes32",
          "name": "role",
          "type": "bytes32"
        }
      ],
      "name": "getRoleAdmin",
      "outputs": [
        {
          "internalType": "bytes32",
          "name": "",
          "type": "bytes32"
        }
      ],
      "stateMutability": "view",
      "type": "function"
    },
    {
      "inputs": [
        {
          "internalType": "bytes32",
          "name": "role",
          "type": "bytes32"
        },
        {
          "internalType": "address",
          "name": "account",
          "type": "address"
        }
      ],
      "name": "grantRole",
      "outputs": [],
      "stateMutability": "nonpayable",
      "type": "function"
    },
    {
      "inputs": [
        {
          "internalType": "bytes32",
          "name": "role",
          "type": "bytes32"
        },
        {
          "internalType": "address",
          "name": "account",
          "type": "address"
        }
      ],
      "name": "hasRole",
      "outputs": [
        {
          "internalType": "bool",
          "name": "",
          "type": "bool"
        }
      ],
      "stateMutability": "view",
      "type": "function"
    },
    {
      "inputs": [],
      "name": "isInitialized",
      "outputs": [
        {
          "internalType": "bool",
          "name": "",
          "type": "bool"
        }
      ],
      "stateMutability": "view",
      "type": "function"
    },
    {
      "inputs": [],
      "name": "isis",
      "outputs": [
        {
          "internalType": "bytes32",
          "name": "",
          "type": "bytes32"
        }
      ],
      "stateMutability": "view",
      "type": "function"
    },
    {
      "inputs": [],
      "name": "maat",
      "outputs": [
        {
          "internalType": "bytes32",
          "name": "",
          "type": "bytes32"
        }
      ],
      "stateMutability": "view",
      "type": "function"
    },
    {
      "inputs": [
        {
          "internalType": "uint256",
          "name": "",
          "type": "uint256"
        }
      ],
      "name": "poolInfo",
      "outputs": [
        {
          "internalType": "contract IERC20",
          "name": "lpToken",
          "type": "address"
        },
        {
          "internalType": "uint256",
          "name": "allocPoint",
          "type": "uint256"
        },
        {
          "internalType": "uint256",
          "name": "lastRewardTime",
          "type": "uint256"
        },
        {
          "internalType": "uint256",
          "name": "accSoulPerShare",
          "type": "uint256"
        }
      ],
      "stateMutability": "view",
      "type": "function"
    },
    {
      "inputs": [
        {
          "internalType": "bytes32",
          "name": "role",
          "type": "bytes32"
        },
        {
          "internalType": "address",
          "name": "account",
          "type": "address"
        }
      ],
      "name": "renounceRole",
      "outputs": [],
      "stateMutability": "nonpayable",
      "type": "function"
    },
    {
      "inputs": [
        {
          "internalType": "bytes32",
          "name": "role",
          "type": "bytes32"
        },
        {
          "internalType": "address",
          "name": "account",
          "type": "address"
        }
      ],
      "name": "revokeRole",
      "outputs": [],
      "stateMutability": "nonpayable",
      "type": "function"
    },
    {
      "inputs": [],
      "name": "seance",
      "outputs": [
        {
          "internalType": "contract SeanceCircle",
          "name": "",
          "type": "address"
        }
      ],
      "stateMutability": "view",
      "type": "function"
    },
    {
      "inputs": [],
      "name": "soul",
      "outputs": [
        {
          "internalType": "contract SoulPower",
          "name": "",
          "type": "address"
        }
      ],
      "stateMutability": "view",
      "type": "function"
    },
    {
      "inputs": [],
      "name": "soulPerSecond",
      "outputs": [
        {
          "internalType": "uint256",
          "name": "",
          "type": "uint256"
        }
      ],
      "stateMutability": "view",
      "type": "function"
    },
    {
      "inputs": [],
      "name": "startRate",
      "outputs": [
        {
          "internalType": "uint256",
          "name": "",
          "type": "uint256"
        }
      ],
      "stateMutability": "view",
      "type": "function"
    },
    {
      "inputs": [],
      "name": "startTime",
      "outputs": [
        {
          "internalType": "uint256",
          "name": "",
          "type": "uint256"
        }
      ],
      "stateMutability": "view",
      "type": "function"
    },
    {
      "inputs": [
        {
          "internalType": "bytes4",
          "name": "interfaceId",
          "type": "bytes4"
        }
      ],
      "name": "supportsInterface",
      "outputs": [
        {
          "internalType": "bool",
          "name": "",
          "type": "bool"
        }
      ],
      "stateMutability": "view",
      "type": "function"
    },
    {
      "inputs": [],
      "name": "supreme",
      "outputs": [
        {
          "internalType": "address",
          "name": "",
          "type": "address"
        }
      ],
      "stateMutability": "view",
      "type": "function"
    },
    {
      "inputs": [],
      "name": "team",
      "outputs": [
        {
          "internalType": "address",
          "name": "",
          "type": "address"
        }
      ],
      "stateMutability": "view",
      "type": "function"
    },
    {
      "inputs": [],
      "name": "totalAllocPoint",
      "outputs": [
        {
          "internalType": "uint256",
          "name": "",
          "type": "uint256"
        }
      ],
      "stateMutability": "view",
      "type": "function"
    },
    {
      "inputs": [],
      "name": "totalWeight",
      "outputs": [
        {
          "internalType": "uint256",
          "name": "",
          "type": "uint256"
        }
      ],
      "stateMutability": "view",
      "type": "function"
    },
    {
      "inputs": [
        {
          "internalType": "uint256",
          "name": "",
          "type": "uint256"
        },
        {
          "internalType": "address",
          "name": "",
          "type": "address"
        }
      ],
      "name": "userInfo",
      "outputs": [
        {
          "internalType": "uint256",
          "name": "amount",
          "type": "uint256"
        },
        {
          "internalType": "uint256",
          "name": "rewardDebt",
          "type": "uint256"
        },
        {
          "internalType": "uint256",
          "name": "rewardDebtAtTime",
          "type": "uint256"
        },
        {
          "internalType": "uint256",
          "name": "lastWithdrawTime",
          "type": "uint256"
        },
        {
          "internalType": "uint256",
          "name": "firstDepositTime",
          "type": "uint256"
        },
        {
          "internalType": "uint256",
          "name": "timeDelta",
          "type": "uint256"
        },
        {
          "internalType": "uint256",
          "name": "lastDepositTime",
          "type": "uint256"
        }
      ],
      "stateMutability": "view",
      "type": "function"
    },
    {
      "inputs": [],
      "name": "weight",
      "outputs": [
        {
          "internalType": "uint256",
          "name": "",
          "type": "uint256"
        }
      ],
      "stateMutability": "view",
      "type": "function"
    },
    {
      "inputs": [],
      "name": "initialize",
      "outputs": [],
      "stateMutability": "nonpayable",
      "type": "function"
    },
    {
      "inputs": [],
      "name": "poolLength",
      "outputs": [
        {
          "internalType": "uint256",
          "name": "",
          "type": "uint256"
        }
      ],
      "stateMutability": "view",
      "type": "function"
    },
    {
      "inputs": [
        {
          "internalType": "uint256",
          "name": "_allocPoint",
          "type": "uint256"
        },
        {
          "internalType": "contract IERC20",
          "name": "_lpToken",
          "type": "address"
        },
        {
          "internalType": "bool",
          "name": "_withUpdate",
          "type": "bool"
        }
      ],
      "name": "addPool",
      "outputs": [],
      "stateMutability": "nonpayable",
      "type": "function"
    },
    {
      "inputs": [
        {
          "internalType": "uint256",
          "name": "pid",
          "type": "uint256"
        },
        {
          "internalType": "uint256",
          "name": "allocPoint",
          "type": "uint256"
        },
        {
          "internalType": "bool",
          "name": "withUpdate",
          "type": "bool"
        }
      ],
      "name": "set",
      "outputs": [],
      "stateMutability": "nonpayable",
      "type": "function"
    },
    {
      "inputs": [
        {
          "internalType": "uint256",
          "name": "_pid",
          "type": "uint256"
        },
        {
          "internalType": "address",
          "name": "_user",
          "type": "address"
        }
      ],
      "name": "userDelta",
      "outputs": [
        {
          "internalType": "uint256",
          "name": "delta",
          "type": "uint256"
        }
      ],
      "stateMutability": "view",
      "type": "function"
    },
    {
      "inputs": [
        {
          "internalType": "uint256",
          "name": "from",
          "type": "uint256"
        },
        {
          "internalType": "uint256",
          "name": "to",
          "type": "uint256"
        }
      ],
      "name": "getMultiplier",
      "outputs": [
        {
          "internalType": "uint256",
          "name": "",
          "type": "uint256"
        }
      ],
      "stateMutability": "view",
      "type": "function"
    },
    {
      "inputs": [
        {
          "internalType": "uint256",
          "name": "pid",
          "type": "uint256"
        },
        {
          "internalType": "uint256",
          "name": "timeDelta",
          "type": "uint256"
        }
      ],
      "name": "getFeeRate",
      "outputs": [
        {
          "internalType": "uint256",
          "name": "feeRate",
          "type": "uint256"
        }
      ],
      "stateMutability": "view",
      "type": "function"
    },
    {
      "inputs": [
        {
          "internalType": "uint256",
          "name": "pid",
          "type": "uint256"
        },
        {
          "internalType": "uint256",
          "name": "timeDelta",
          "type": "uint256"
        },
        {
          "internalType": "uint256",
          "name": "amount",
          "type": "uint256"
        }
      ],
      "name": "getWithdrawable",
      "outputs": [
        {
          "internalType": "uint256",
          "name": "_feeAmount",
          "type": "uint256"
        },
        {
          "internalType": "uint256",
          "name": "_withdrawable",
          "type": "uint256"
        }
      ],
      "stateMutability": "view",
      "type": "function"
    },
    {
      "inputs": [
        {
          "internalType": "uint256",
          "name": "pid",
          "type": "uint256"
        },
        {
          "internalType": "address",
          "name": "_user",
          "type": "address"
        }
      ],
      "name": "pendingSoul",
      "outputs": [
        {
          "internalType": "uint256",
          "name": "pendingAmount",
          "type": "uint256"
        }
      ],
      "stateMutability": "view",
      "type": "function"
    },
    {
      "inputs": [],
      "name": "massUpdatePools",
      "outputs": [],
      "stateMutability": "nonpayable",
      "type": "function"
    },
    {
      "inputs": [
        {
          "internalType": "uint256",
          "name": "pid",
          "type": "uint256"
        }
      ],
      "name": "updatePool",
      "outputs": [],
      "stateMutability": "nonpayable",
      "type": "function"
    },
    {
      "inputs": [
        {
          "internalType": "uint256",
          "name": "pid",
          "type": "uint256"
        },
        {
          "internalType": "uint256",
          "name": "amount",
          "type": "uint256"
        }
      ],
      "name": "deposit",
      "outputs": [],
      "stateMutability": "nonpayable",
      "type": "function"
    },
    {
      "inputs": [
        {
          "internalType": "uint256",
          "name": "pid",
          "type": "uint256"
        },
        {
          "internalType": "uint256",
          "name": "amount",
          "type": "uint256"
        }
      ],
      "name": "withdraw",
      "outputs": [],
      "stateMutability": "nonpayable",
      "type": "function"
    },
    {
      "inputs": [
        {
          "internalType": "uint256",
          "name": "amount",
          "type": "uint256"
        }
      ],
      "name": "enterStaking",
      "outputs": [],
      "stateMutability": "nonpayable",
      "type": "function"
    },
    {
      "inputs": [
        {
          "internalType": "uint256",
          "name": "amount",
          "type": "uint256"
        }
      ],
      "name": "leaveStaking",
      "outputs": [],
      "stateMutability": "nonpayable",
      "type": "function"
    },
    {
      "inputs": [
        {
          "internalType": "uint256",
          "name": "_weight",
          "type": "uint256"
        },
        {
          "internalType": "uint256",
          "name": "_totalWeight",
          "type": "uint256"
        }
      ],
      "name": "updateWeights",
      "outputs": [],
      "stateMutability": "nonpayable",
      "type": "function"
    },
    {
      "inputs": [
        {
          "internalType": "uint256",
          "name": "_bonusMultiplier",
          "type": "uint256"
        }
      ],
      "name": "updateMultiplier",
      "outputs": [],
      "stateMutability": "nonpayable",
      "type": "function"
    },
    {
      "inputs": [
        {
          "internalType": "uint256",
          "name": "_startRate",
          "type": "uint256"
        }
      ],
      "name": "updateStartRate",
      "outputs": [],
      "stateMutability": "nonpayable",
      "type": "function"
    },
    {
      "inputs": [
        {
          "internalType": "address",
          "name": "_dao",
          "type": "address"
        },
        {
          "internalType": "address",
          "name": "_team",
          "type": "address"
        },
        {
          "internalType": "address",
          "name": "_supreme",
          "type": "address"
        }
      ],
      "name": "updateAccounts",
      "outputs": [],
      "stateMutability": "nonpayable",
      "type": "function"
    },
    {
      "inputs": [
        {
          "internalType": "address",
          "name": "_soul",
          "type": "address"
        },
        {
          "internalType": "address",
          "name": "_seance",
          "type": "address"
        }
      ],
      "name": "updateTokens",
      "outputs": [],
      "stateMutability": "nonpayable",
      "type": "function"
    },
    {
      "inputs": [
        {
          "internalType": "uint256",
          "name": "_pid",
          "type": "uint256"
        },
        {
          "internalType": "address",
          "name": "_user",
          "type": "address"
        },
        {
          "internalType": "uint256",
          "name": "_time",
          "type": "uint256"
        }
      ],
      "name": "reviseDeposit",
      "outputs": [],
      "stateMutability": "nonpayable",
      "type": "function"
    },
    {
      "inputs": [
        {
          "internalType": "uint256",
          "name": "amount",
          "type": "uint256"
        }
      ],
      "name": "enWei",
      "outputs": [
        {
          "internalType": "uint256",
          "name": "",
          "type": "uint256"
        }
      ],
      "stateMutability": "pure",
      "type": "function"
    },
    {
      "inputs": [
        {
          "internalType": "uint256",
          "name": "amount",
          "type": "uint256"
        }
      ],
      "name": "fromWei",
      "outputs": [
        {
          "internalType": "uint256",
          "name": "",
          "type": "uint256"
        }
      ],
      "stateMutability": "pure",
      "type": "function"
    }
  ],
  "bytecode": "0x60a06040526001600d556200001b60016200023960201b60201c565b6080908152503480156200002e57600080fd5b50600180819055507381dd37687c74df8f957a370a9a4435d873f5e5a9600860006101000a81548173ffffffffffffffffffffffffffffffffffffffff021916908373ffffffffffffffffffffffffffffffffffffffff16021790555073d0744f7f9f65db946860b974966f83688d4f4630600660006101000a81548173ffffffffffffffffffffffffffffffffffffffff021916908373ffffffffffffffffffffffffffffffffffffffff160217905550731c63c726926197bd3cb75d86bcfb1daebcd87250600760006101000a81548173ffffffffffffffffffffffffffffffffffffffff021916908373ffffffffffffffffffffffffffffffffffffffff1602179055507f36d5d8406f8379c6deba01145ec4f6a2966675cc67d71355b397a2a8e3572b296014819055507f0811b25c145e1379dc78112dd91057f09150f6db05dfd7e04deb910e6cefd4b7601581905550620001be6000801b6000801b600860009054906101000a900473ffffffffffffffffffffffffffffffffffffffff166200025860201b60201c565b50620001f8601454601454600860009054906101000a900473ffffffffffffffffffffffffffffffffffffffff166200025860201b60201c565b5062000232601554601454600760009054906101000a900473ffffffffffffffffffffffffffffffffffffffff166200025860201b60201c565b5062000508565b6000670de0b6b3a764000082620002519190620004bd565b9050919050565b60006200026c84836200028960201b60201c565b6200027e84846200029f60201b60201c565b600190509392505050565b6200029b82826200030260201b60201c565b5050565b6000620002b283620003f360201b60201c565b905081600080858152602001908152602001600020600101819055508181847fbd79b86ffe0ab8e8776151514217cd7cacd52c909f66475c3af44e129f0b00ff60405160405180910390a4505050565b6200031482826200041260201b60201c565b620003ef57600160008084815260200190815260200160002060000160008373ffffffffffffffffffffffffffffffffffffffff1673ffffffffffffffffffffffffffffffffffffffff16815260200190815260200160002060006101000a81548160ff021916908315150217905550620003946200047c60201b60201c565b73ffffffffffffffffffffffffffffffffffffffff168173ffffffffffffffffffffffffffffffffffffffff16837f2f8788117e7eff1d82e926ec794901d17c78024a50270940304540a733656f0d60405160405180910390a45b5050565b6000806000838152602001908152602001600020600101549050919050565b600080600084815260200190815260200160002060000160008373ffffffffffffffffffffffffffffffffffffffff1673ffffffffffffffffffffffffffffffffffffffff16815260200190815260200160002060009054906101000a900460ff16905092915050565b600033905090565b6000819050919050565b7f4e487b7100000000000000000000000000000000000000000000000000000000600052601160045260246000fd5b6000620004ca8262000484565b9150620004d78362000484565b9250828202620004e78162000484565b915082820484148315176200050157620005006200048e565b5b5092915050565b608051614d5662000524600039600061302d0152614d566000f3fe608060405234801561001057600080fd5b50600436106102bb5760003560e01c80637e668b4211610182578063a8b973a1116100e9578063e65d1522116100a2578063f107fd851161007c578063f107fd8514610890578063fb39d1e3146108ac578063fc90fdc0146108dc578063fd6f99d0146108fa576102bb565b8063e65d152214610826578063e7aa29e314610856578063ea4bf44614610872576102bb565b8063a8b973a114610754578063bfafcad514610772578063cf94ee96146107a2578063d547741f146107d2578063e2bbb158146107ee578063e40903311461080a576102bb565b806391d148541161013b57806391d148541461066457806393f1a40b1461069457806396c82e57146106ca5780639f6c5426146106e8578063a1aab33f14610718578063a217fddf14610736576102bb565b80637e668b42146105a15780638129fc1c146105d2578063815b7a8c146105dc57806382386d58146105fa57806385f2aef2146106165780638dbb1e3a14610634576102bb565b8063441a3e70116102265780635ffe6146116101df5780635ffe614614610507578063630b5ba11461052357806364482f791461052d57806378e97925146105495780637abceffd146105675780637d500ec814610583576102bb565b8063441a3e701461045957806348f8bfea146104755780634a962829146104935780634ca01d45146104af57806351eb05a6146104cd5780635f9bf689146104e9576102bb565b8063248a9ca311610278578063248a9ca3146103995780632f2ff15d146103c957806336568abe146103e5578063392e53cd1461040157806341441d3b1461041f5780634162169f1461043b576102bb565b806301ffc9a7146102c0578063081e3eda146102f05780631058d2811461030e5780631254f0dc1461032a5780631526fe271461034857806317caf6f11461037b575b600080fd5b6102da60048036038101906102d591906139fb565b610918565b6040516102e79190613a43565b60405180910390f35b6102f8610992565b6040516103059190613a77565b60405180910390f35b61032860048036038101906103239190613abe565b61099f565b005b610332610ceb565b60405161033f9190613a77565b60405180910390f35b610362600480360381019061035d9190613abe565b610cf1565b6040516103729493929190613b6a565b60405180910390f35b610383610d51565b6040516103909190613a77565b60405180910390f35b6103b360048036038101906103ae9190613be5565b610d57565b6040516103c09190613c21565b60405180910390f35b6103e360048036038101906103de9190613c7a565b610d76565b005b6103ff60048036038101906103fa9190613c7a565b610d9f565b005b610409610e22565b6040516104169190613a43565b60405180910390f35b61043960048036038101906104349190613abe565b610e35565b005b61044361115f565b6040516104509190613cc9565b60405180910390f35b610473600480360381019061046e9190613ce4565b611185565b005b61047d61164f565b60405161048a9190613cc9565b60405180910390f35b6104ad60048036038101906104a89190613abe565b611675565b005b6104b76116eb565b6040516104c49190613d45565b60405180910390f35b6104e760048036038101906104e29190613abe565b611711565b005b6104f1611b2c565b6040516104fe9190613a77565b60405180910390f35b610521600480360381019061051c9190613abe565b611b32565b005b61052b611b51565b005b61054760048036038101906105429190613d8c565b611b84565b005b610551611d02565b60405161055e9190613a77565b60405180910390f35b610581600480360381019061057c9190613e1d565b611d08565b005b61058b611d85565b6040516105989190613a77565b60405180910390f35b6105bb60048036038101906105b69190613e70565b611d8b565b6040516105c9929190613ec3565b60405180910390f35b6105da611de1565b005b6105e46121e6565b6040516105f19190613f0d565b60405180910390f35b610614600480360381019061060f9190613f28565b61220c565b005b61061e6122bf565b60405161062b9190613cc9565b60405180910390f35b61064e60048036038101906106499190613ce4565b6122e5565b60405161065b9190613a77565b60405180910390f35b61067e60048036038101906106799190613c7a565b612308565b60405161068b9190613a43565b60405180910390f35b6106ae60048036038101906106a99190613f7b565b612372565b6040516106c19796959493929190613fbb565b60405180910390f35b6106d26123c1565b6040516106df9190613a77565b60405180910390f35b61070260048036038101906106fd9190613ce4565b6123c7565b60405161070f9190613a77565b60405180910390f35b61072061243a565b60405161072d9190613a77565b60405180910390f35b61073e612440565b60405161074b9190613c21565b60405180910390f35b61075c612447565b6040516107699190613a77565b60405180910390f35b61078c60048036038101906107879190613f7b565b61244d565b6040516107999190613a77565b60405180910390f35b6107bc60048036038101906107b79190613abe565b612633565b6040516107c99190613a77565b60405180910390f35b6107ec60048036038101906107e79190613c7a565b612650565b005b61080860048036038101906108039190613ce4565b612679565b005b610824600480360381019061081f919061402a565b6129a1565b005b610840600480360381019061083b9190613abe565b612c62565b60405161084d9190613a77565b60405180910390f35b610870600480360381019061086b919061407d565b612c7f565b005b61087a612e3d565b6040516108879190613c21565b60405180910390f35b6108aa60048036038101906108a59190613ce4565b612e43565b005b6108c660048036038101906108c19190613f7b565b612f4a565b6040516108d39190613a77565b60405180910390f35b6108e461302b565b6040516108f19190613a77565b60405180910390f35b61090261304f565b60405161090f9190613c21565b60405180910390f35b60007f7965db0b000000000000000000000000000000000000000000000000000000007bffffffffffffffffffffffffffffffffffffffffffffffffffffffff1916827bffffffffffffffffffffffffffffffffffffffffffffffffffffffff1916148061098b575061098a82613055565b5b9050919050565b6000601280549050905090565b6002600154036109e4576040517f08c379a00000000000000000000000000000000000000000000000000000000081526004016109db9061411a565b60405180910390fd5b600260018190555060006012600081548110610a0357610a0261413a565b5b9060005260206000209060040201905060006013600080815260200190815260200160002060003373ffffffffffffffffffffffffffffffffffffffff1673ffffffffffffffffffffffffffffffffffffffff16815260200190815260200160002090508281600001541015610aae576040517f08c379a0000000000000000000000000000000000000000000000000000000008152600401610aa5906141b5565b60405180910390fd5b610ab86000611711565b6000816001015464e8d4a5100084600301548460000154610ad99190614204565b610ae39190614275565b610aed91906142a6565b90506000811115610b0357610b0233826130bf565b5b6000841115610bc857838260000154610b1c91906142a6565b82600001819055508260000160009054906101000a900473ffffffffffffffffffffffffffffffffffffffff1673ffffffffffffffffffffffffffffffffffffffff1663a9059cbb33866040518363ffffffff1660e01b8152600401610b839291906142da565b6020604051808303816000875af1158015610ba2573d6000803e3d6000fd5b505050506040513d601f19601f82011682018060405250810190610bc69190614318565b505b64e8d4a5100083600301548360000154610be29190614204565b610bec9190614275565b8260010181905550428260030181905550600560009054906101000a900473ffffffffffffffffffffffffffffffffffffffff1673ffffffffffffffffffffffffffffffffffffffff16639dc29fac33866040518363ffffffff1660e01b8152600401610c5a9291906142da565b600060405180830381600087803b158015610c7457600080fd5b505af1158015610c88573d6000803e3d6000fd5b5050505060003373ffffffffffffffffffffffffffffffffffffffff167f02f25270a4d87bea75db541cdfe559334a275b4a233520ed6c0a2429667cca948642604051610cd6929190613ec3565b60405180910390a35050506001808190555050565b60115481565b60128181548110610d0157600080fd5b90600052602060002090600402016000915090508060000160009054906101000a900473ffffffffffffffffffffffffffffffffffffffff16908060010154908060020154908060030154905084565b600f5481565b6000806000838152602001908152602001600020600101549050919050565b610d7f82610d57565b610d9081610d8b613152565b61315a565b610d9a83836131f7565b505050565b610da7613152565b73ffffffffffffffffffffffffffffffffffffffff168173ffffffffffffffffffffffffffffffffffffffff1614610e14576040517f08c379a0000000000000000000000000000000000000000000000000000000008152600401610e0b906143b7565b60405180910390fd5b610e1e82826132d7565b5050565b601060009054906101000a900460ff1681565b600260015403610e7a576040517f08c379a0000000000000000000000000000000000000000000000000000000008152600401610e719061411a565b60405180910390fd5b600260018190555060006012600081548110610e9957610e9861413a565b5b9060005260206000209060040201905060006013600080815260200190815260200160002060003373ffffffffffffffffffffffffffffffffffffffff1673ffffffffffffffffffffffffffffffffffffffff1681526020019081526020016000209050610f076000611711565b600081600001541115610f61576000816001015464e8d4a5100084600301548460000154610f359190614204565b610f3f9190614275565b610f4991906142a6565b90506000811115610f5f57610f5e33826130bf565b5b505b6000831115611028578160000160009054906101000a900473ffffffffffffffffffffffffffffffffffffffff1673ffffffffffffffffffffffffffffffffffffffff166323b872dd3330866040518463ffffffff1660e01b8152600401610fcb939291906143d7565b6020604051808303816000875af1158015610fea573d6000803e3d6000fd5b505050506040513d601f19601f8201168201806040525081019061100e9190614318565b5082816000015461101f919061440e565b81600001819055505b600081600401541161103a5742611040565b80600401545b816004018190555064e8d4a51000826003015482600001546110629190614204565b61106c9190614275565b8160010181905550600560009054906101000a900473ffffffffffffffffffffffffffffffffffffffff1673ffffffffffffffffffffffffffffffffffffffff166340c10f1933856040518363ffffffff1660e01b81526004016110d19291906142da565b600060405180830381600087803b1580156110eb57600080fd5b505af11580156110ff573d6000803e3d6000fd5b5050505060003373ffffffffffffffffffffffffffffffffffffffff167f90890809c654f11d6e72a28fa60149770a0d11ec6c92319d6ceb2bb0a4ea1a158560405161114b9190613a77565b60405180910390a350506001808190555050565b600760009054906101000a900473ffffffffffffffffffffffffffffffffffffffff1681565b6002600154036111ca576040517f08c379a00000000000000000000000000000000000000000000000000000000081526004016111c19061411a565b60405180910390fd5b600260018190555081601280549050811061121a576040517f08c379a00000000000000000000000000000000000000000000000000000000081526004016112119061448e565b60405180910390fd5b6000830361125d576040517f08c379a0000000000000000000000000000000000000000000000000000000008152600401611254906144fa565b60405180910390fd5b6000601284815481106112735761127261413a565b5b9060005260206000209060040201905060006013600086815260200190815260200160002060003373ffffffffffffffffffffffffffffffffffffffff1673ffffffffffffffffffffffffffffffffffffffff1681526020019081526020016000209050838160000154101561131e576040517f08c379a000000000000000000000000000000000000000000000000000000000815260040161131590614566565b60405180910390fd5b61132785611711565b6000816001015464e8d4a51000846003015484600001546113489190614204565b6113529190614275565b61135c91906142a6565b905060008111156113725761137133826130bf565b5b60008511156113d7576000826006015411156113a55781600601544261139891906142a6565b82600501819055506113be565b8160040154426113b591906142a6565b82600501819055505b8482600001546113ce91906142a6565b82600001819055505b60006013600088815260200190815260200160002060003373ffffffffffffffffffffffffffffffffffffffff1673ffffffffffffffffffffffffffffffffffffffff168152602001908152602001600020600501549050600061143c888389611d8b565b9150506000818861144d91906142a6565b90508560000160009054906101000a900473ffffffffffffffffffffffffffffffffffffffff1673ffffffffffffffffffffffffffffffffffffffff1663a9059cbb600760009054906101000a900473ffffffffffffffffffffffffffffffffffffffff16836040518363ffffffff1660e01b81526004016114d09291906142da565b6020604051808303816000875af11580156114ef573d6000803e3d6000fd5b505050506040513d601f19601f820116820180604052508101906115139190614318565b508560000160009054906101000a900473ffffffffffffffffffffffffffffffffffffffff1673ffffffffffffffffffffffffffffffffffffffff1663a9059cbb33846040518363ffffffff1660e01b81526004016115739291906142da565b6020604051808303816000875af1158015611592573d6000803e3d6000fd5b505050506040513d601f19601f820116820180604052508101906115b69190614318565b5064e8d4a51000866003015486600001546115d19190614204565b6115db9190614275565b8560010181905550428560030181905550883373ffffffffffffffffffffffffffffffffffffffff167f02f25270a4d87bea75db541cdfe559334a275b4a233520ed6c0a2429667cca948a42604051611635929190613ec3565b60405180910390a350505050505050600180819055505050565b600860009054906101000a900473ffffffffffffffffffffffffffffffffffffffff1681565b60155461168981611684613152565b61315a565b61169282612633565b6011540361169f57600080fd5b6116a882612633565b6011819055507f580e2348a4d1118e1f915eeffd71aec4938e749307b28e67f19841ca64117df76011546040516116df9190613a77565b60405180910390a15050565b600560009054906101000a900473ffffffffffffffffffffffffffffffffffffffff1681565b806012805490508110611759576040517f08c379a00000000000000000000000000000000000000000000000000000000081526004016117509061448e565b60405180910390fd5b60006012838154811061176f5761176e61413a565b5b90600052602060002090600402019050806002015442116117905750611b28565b60008160000160009054906101000a900473ffffffffffffffffffffffffffffffffffffffff1673ffffffffffffffffffffffffffffffffffffffff166370a08231306040518263ffffffff1660e01b81526004016117ef9190613cc9565b602060405180830381865afa15801561180c573d6000803e3d6000fd5b505050506040513d601f19601f82011682018060405250810190611830919061459b565b90506000810361184a574282600201819055505050611b28565b600061185a8360020154426122e5565b90506000600f548460010154600c54846118749190614204565b61187e9190614204565b6118889190614275565b90506000650746a528800064e8d4a51000836118a49190614204565b6118ae9190614275565b905060006002826118bf9190614204565b9050600081846118cf91906142a6565b9050600360009054906101000a900473ffffffffffffffffffffffffffffffffffffffff1673ffffffffffffffffffffffffffffffffffffffff166340c10f19600660009054906101000a900473ffffffffffffffffffffffffffffffffffffffff16856040518363ffffffff1660e01b81526004016119509291906142da565b600060405180830381600087803b15801561196a57600080fd5b505af115801561197e573d6000803e3d6000fd5b50505050600360009054906101000a900473ffffffffffffffffffffffffffffffffffffffff1673ffffffffffffffffffffffffffffffffffffffff166340c10f19600760009054906101000a900473ffffffffffffffffffffffffffffffffffffffff16856040518363ffffffff1660e01b8152600401611a019291906142da565b600060405180830381600087803b158015611a1b57600080fd5b505af1158015611a2f573d6000803e3d6000fd5b50505050600360009054906101000a900473ffffffffffffffffffffffffffffffffffffffff1673ffffffffffffffffffffffffffffffffffffffff166340c10f19600560009054906101000a900473ffffffffffffffffffffffffffffffffffffffff16836040518363ffffffff1660e01b8152600401611ab29291906142da565b600060405180830381600087803b158015611acc57600080fd5b505af1158015611ae0573d6000803e3d6000fd5b505050508564e8d4a5100085611af69190614204565b611b009190614275565b8760030154611b0f919061440e565b8760030181905550428760020181905550505050505050505b5050565b600c5481565b601554611b4681611b41613152565b61315a565b81600d819055505050565b6000601280549050905060005b81811015611b8057611b6f81611711565b80611b79906145c8565b9050611b5e565b5050565b601060009054906101000a900460ff16611bd3576040517f08c379a0000000000000000000000000000000000000000000000000000000008152600401611bca9061465c565b60405180910390fd5b826012805490508110611c1b576040517f08c379a0000000000000000000000000000000000000000000000000000000008152600401611c129061448e565b60405180910390fd5b601554611c2f81611c2a613152565b61315a565b8215611c3e57611c3d611b51565b5b600060128681548110611c5457611c5361413a565b5b90600052602060002090600402016001015490508460128781548110611c7d57611c7c61413a565b5b906000526020600020906004020160010181905550848114611cc1578481600f54611ca891906142a6565b611cb2919061440e565b600f81905550611cc06133b8565b5b7fd88f859573973e938da5bf3e5100c16eee2090fa720e05ae3d452b4cd05cdcfd8686604051611cf2929190613ec3565b60405180910390a1505050505050565b600e5481565b601060009054906101000a900460ff16611d57576040517f08c379a0000000000000000000000000000000000000000000000000000000008152600401611d4e9061465c565b60405180910390fd5b601454611d6b81611d66613152565b61315a565b611d74836134a3565b611d7f848484613581565b50505050565b600b5481565b6000806000611da2611d9d87876123c7565b612c62565b9050600060648286611db49190614204565b611dbe9190614275565b905060008186611dce91906142a6565b9050818194509450505050935093915050565b601454611df581611df0613152565b61315a565b601060009054906101000a900460ff1615611e45576040517f08c379a0000000000000000000000000000000000000000000000000000000008152600401611e3c906146c8565b60405180910390fd5b73e2fb177009ff39f52c0134e8007fa0e4baacbd07600260006101000a81548173ffffffffffffffffffffffffffffffffffffffff021916908373ffffffffffffffffffffffffffffffffffffffff16021790555073124b06c5ce47de7a6e9efda71a946717130079e6600460006101000a81548173ffffffffffffffffffffffffffffffffffffffff021916908373ffffffffffffffffffffffffffffffffffffffff16021790555042600e819055506103e86009819055506103e8600a81905550611f12600e612633565b60118190555060006103e89050600260009054906101000a900473ffffffffffffffffffffffffffffffffffffffff16600360006101000a81548173ffffffffffffffffffffffffffffffffffffffff021916908373ffffffffffffffffffffffffffffffffffffffff160217905550600460009054906101000a900473ffffffffffffffffffffffffffffffffffffffff16600560006101000a81548173ffffffffffffffffffffffffffffffffffffffff021916908373ffffffffffffffffffffffffffffffffffffffff160217905550611ff3600a546009546136dc565b60126040518060800160405280600360009054906101000a900473ffffffffffffffffffffffffffffffffffffffff1673ffffffffffffffffffffffffffffffffffffffff168152602001838152602001600e5481526020016000815250908060018154018082558091505060019003906000526020600020906004020160009091909190915060008201518160000160006101000a81548173ffffffffffffffffffffffffffffffffffffffff021916908373ffffffffffffffffffffffffffffffffffffffff16021790555060208201518160010155604082015181600201556060820151816003015550506001601060006101000a81548160ff02191690831515021790555080600f600082825461210e919061440e565b925050819055507f0476c5e4920930815a67a5a042e26836431f494d3be0f6e10c3034787a7a15f9600660009054906101000a900473ffffffffffffffffffffffffffffffffffffffff16600760009054906101000a900473ffffffffffffffffffffffffffffffffffffffff16600260009054906101000a900473ffffffffffffffffffffffffffffffffffffffff16600460009054906101000a900473ffffffffffffffffffffffffffffffffffffffff16600f54600a546040516121da969594939291906146e8565b60405180910390a15050565b600360009054906101000a900473ffffffffffffffffffffffffffffffffffffffff1681565b6015546122208161221b613152565b61315a565b60006013600086815260200190815260200160002060008573ffffffffffffffffffffffffffffffffffffffff1673ffffffffffffffffffffffffffffffffffffffff16815260200190815260200160002090508281600401819055507f40d6e8e3d60e4693375c73df2d1a71d582a28197c98fd8d2badad6ead06af64c8585856040516122b093929190614749565b60405180910390a15050505050565b600660009054906101000a900473ffffffffffffffffffffffffffffffffffffffff1681565b6000600d5483836122f691906142a6565b6123009190614204565b905092915050565b600080600084815260200190815260200160002060000160008373ffffffffffffffffffffffffffffffffffffffff1673ffffffffffffffffffffffffffffffffffffffff16815260200190815260200160002060009054906101000a900460ff16905092915050565b6013602052816000526040600020602052806000526040600020600091509150508060000154908060010154908060020154908060030154908060040154908060050154908060060154905087565b60095481565b6000806201518083106123e85762015180836123e39190614275565b6123eb565b60005b905060006123f882612633565b90506000601154821015612419578160115461241491906142a6565b61241c565b60005b90506000861461242c578061242f565b60005b935050505092915050565b600a5481565b6000801b81565b600d5481565b600080601284815481106124645761246361413a565b5b9060005260206000209060040201905060006013600086815260200190815260200160002060008573ffffffffffffffffffffffffffffffffffffffff1673ffffffffffffffffffffffffffffffffffffffff168152602001908152602001600020905060008260030154905060008360000160009054906101000a900473ffffffffffffffffffffffffffffffffffffffff1673ffffffffffffffffffffffffffffffffffffffff166370a08231306040518263ffffffff1660e01b81526004016125309190613cc9565b602060405180830381865afa15801561254d573d6000803e3d6000fd5b505050506040513d601f19601f82011682018060405250810190612571919061459b565b9050836002015442118015612587575060008114155b156125f857600061259c8560020154426122e5565b90506000600f548660010154600c54846125b69190614204565b6125c09190614204565b6125ca9190614275565b90508264e8d4a51000826125de9190614204565b6125e89190614275565b846125f3919061440e565b935050505b826001015464e8d4a510008385600001546126139190614204565b61261d9190614275565b61262791906142a6565b94505050505092915050565b6000670de0b6b3a7640000826126499190614204565b9050919050565b61265982610d57565b61266a81612665613152565b61315a565b61267483836132d7565b505050565b6002600154036126be576040517f08c379a00000000000000000000000000000000000000000000000000000000081526004016126b59061411a565b60405180910390fd5b600260018190555081601280549050811061270e576040517f08c379a00000000000000000000000000000000000000000000000000000000081526004016127059061448e565b60405180910390fd5b60008303612751576040517f08c379a0000000000000000000000000000000000000000000000000000000008152600401612748906147cc565b60405180910390fd5b6000601284815481106127675761276661413a565b5b9060005260206000209060040201905060006013600086815260200190815260200160002060003373ffffffffffffffffffffffffffffffffffffffff1673ffffffffffffffffffffffffffffffffffffffff16815260200190815260200160002090506127d485611711565b60008160000154111561282e576000816001015464e8d4a51000846003015484600001546128029190614204565b61280c9190614275565b61281691906142a6565b9050600081111561282c5761282b33826130bf565b5b505b60008411156128f8578160000160009054906101000a900473ffffffffffffffffffffffffffffffffffffffff1673ffffffffffffffffffffffffffffffffffffffff166323b872dd3330876040518463ffffffff1660e01b8152600401612898939291906143d7565b6020604051808303816000875af11580156128b7573d6000803e3d6000fd5b505050506040513d601f19601f820116820180604052508101906128db9190614318565b50838160000160008282546128f0919061440e565b925050819055505b64e8d4a51000826003015482600001546129129190614204565b61291c9190614275565b81600101819055506000816004015411612936574261293c565b80600401545b8160040181905550843373ffffffffffffffffffffffffffffffffffffffff167f90890809c654f11d6e72a28fa60149770a0d11ec6c92319d6ceb2bb0a4ea1a158660405161298b9190613a77565b60405180910390a3505050600180819055505050565b6014546129b5816129b0613152565b61315a565b8373ffffffffffffffffffffffffffffffffffffffff16600760009054906101000a900473ffffffffffffffffffffffffffffffffffffffff1673ffffffffffffffffffffffffffffffffffffffff16141580612a6057508273ffffffffffffffffffffffffffffffffffffffff16600660009054906101000a900473ffffffffffffffffffffffffffffffffffffffff1673ffffffffffffffffffffffffffffffffffffffff1614155b80612ab957508173ffffffffffffffffffffffffffffffffffffffff16600860009054906101000a900473ffffffffffffffffffffffffffffffffffffffff1673ffffffffffffffffffffffffffffffffffffffff1614155b612af8576040517f08c379a0000000000000000000000000000000000000000000000000000000008152600401612aef90614838565b60405180910390fd5b83600760006101000a81548173ffffffffffffffffffffffffffffffffffffffff021916908373ffffffffffffffffffffffffffffffffffffffff16021790555082600660006101000a81548173ffffffffffffffffffffffffffffffffffffffff021916908373ffffffffffffffffffffffffffffffffffffffff16021790555081600860006101000a81548173ffffffffffffffffffffffffffffffffffffffff021916908373ffffffffffffffffffffffffffffffffffffffff1602179055507f1af7fb2dca603676776ebce7af5086b001c893239c7e2a241e7184e6f3cf9282600760009054906101000a900473ffffffffffffffffffffffffffffffffffffffff16600660009054906101000a900473ffffffffffffffffffffffffffffffffffffffff16600860009054906101000a900473ffffffffffffffffffffffffffffffffffffffff16604051612c5493929190614858565b60405180910390a150505050565b6000670de0b6b3a764000082612c789190614275565b9050919050565b601454612c9381612c8e613152565b61315a565b8273ffffffffffffffffffffffffffffffffffffffff16600360009054906101000a900473ffffffffffffffffffffffffffffffffffffffff1673ffffffffffffffffffffffffffffffffffffffff16141580612d3e57508173ffffffffffffffffffffffffffffffffffffffff16600560009054906101000a900473ffffffffffffffffffffffffffffffffffffffff1673ffffffffffffffffffffffffffffffffffffffff1614155b612d7d576040517f08c379a0000000000000000000000000000000000000000000000000000000008152600401612d74906148db565b60405180910390fd5b82600360006101000a81548173ffffffffffffffffffffffffffffffffffffffff021916908373ffffffffffffffffffffffffffffffffffffffff16021790555081600560006101000a81548173ffffffffffffffffffffffffffffffffffffffff021916908373ffffffffffffffffffffffffffffffffffffffff1602179055507fdcc6331013de89f8c595d5328f0a724194f113cb6f8f2a707b3dff6de13f0d178383604051612e309291906148fb565b60405180910390a1505050565b60145481565b601554612e5781612e52613152565b61315a565b82600a54141580612e6a57508160095414155b612ea9576040517f08c379a0000000000000000000000000000000000000000000000000000000008152600401612ea090614970565b60405180910390fd5b82821015612eec576040517f08c379a0000000000000000000000000000000000000000000000000000000008152600401612ee3906149dc565b60405180910390fd5b82600a8190555081600981905550612f08600a546009546136dc565b7fb298bc23e07860d501fddce288f46d761aa04a0c7c3316099eb50f097aacf304600a54600954604051612f3d929190613ec3565b60405180910390a1505050565b6000806013600085815260200190815260200160002060008473ffffffffffffffffffffffffffffffffffffffff1673ffffffffffffffffffffffffffffffffffffffff1681526020019081526020016000206040518060e0016040529081600082015481526020016001820154815260200160028201548152602001600382015481526020016004820154815260200160058201548152602001600682015481525050905060008160600151116130115780608001514261300c91906142a6565b613022565b80606001514261302191906142a6565b5b91505092915050565b7f000000000000000000000000000000000000000000000000000000000000000081565b60155481565b60007f01ffc9a7000000000000000000000000000000000000000000000000000000007bffffffffffffffffffffffffffffffffffffffffffffffffffffffff1916827bffffffffffffffffffffffffffffffffffffffffffffffffffffffff1916149050919050565b600560009054906101000a900473ffffffffffffffffffffffffffffffffffffffff1673ffffffffffffffffffffffffffffffffffffffff1663b2a142aa83836040518363ffffffff1660e01b815260040161311c9291906142da565b600060405180830381600087803b15801561313657600080fd5b505af115801561314a573d6000803e3d6000fd5b505050505050565b600033905090565b6131648282612308565b6131f3576131898173ffffffffffffffffffffffffffffffffffffffff166014613762565b6131978360001c6020613762565b6040516020016131a8929190614b05565b6040516020818303038152906040526040517f08c379a00000000000000000000000000000000000000000000000000000000081526004016131ea9190614b89565b60405180910390fd5b5050565b6132018282612308565b6132d357600160008084815260200190815260200160002060000160008373ffffffffffffffffffffffffffffffffffffffff1673ffffffffffffffffffffffffffffffffffffffff16815260200190815260200160002060006101000a81548160ff021916908315150217905550613278613152565b73ffffffffffffffffffffffffffffffffffffffff168173ffffffffffffffffffffffffffffffffffffffff16837f2f8788117e7eff1d82e926ec794901d17c78024a50270940304540a733656f0d60405160405180910390a45b5050565b6132e18282612308565b156133b457600080600084815260200190815260200160002060000160008373ffffffffffffffffffffffffffffffffffffffff1673ffffffffffffffffffffffffffffffffffffffff16815260200190815260200160002060006101000a81548160ff021916908315150217905550613359613152565b73ffffffffffffffffffffffffffffffffffffffff168173ffffffffffffffffffffffffffffffffffffffff16837ff6391f5c32d9c69d2a47ea670b442974b53935d1edc7fd64eb21e047a839171b60405160405180910390a45b5050565b60006012805490509050600080600190505b8281101561341657601281815481106133e6576133e561413a565b5b90600052602060002090600402016001015482613403919061440e565b91508061340f906145c8565b90506133ca565b506000811461349f5760038161342c9190614275565b90508060126000815481106134445761344361413a565b5b906000526020600020906004020160010154600f5461346391906142a6565b61346d919061440e565b600f819055508060126000815481106134895761348861413a565b5b9060005260206000209060040201600101819055505b5050565b6000601280549050905060005b8181101561357c578273ffffffffffffffffffffffffffffffffffffffff16601282815481106134e3576134e261413a565b5b906000526020600020906004020160000160009054906101000a900473ffffffffffffffffffffffffffffffffffffffff1673ffffffffffffffffffffffffffffffffffffffff160361356b576040517f08c379a000000000000000000000000000000000000000000000000000000000815260040161356290614bf7565b60405180910390fd5b80613575906145c8565b90506134b0565b505050565b80156135905761358f611b51565b5b82600f60008282546135a2919061440e565b92505081905550601260405180608001604052808473ffffffffffffffffffffffffffffffffffffffff168152602001858152602001600e5442116135e957600e546135eb565b425b81526020016000815250908060018154018082558091505060019003906000526020600020906004020160009091909190915060008201518160000160006101000a81548173ffffffffffffffffffffffffffffffffffffffff021916908373ffffffffffffffffffffffffffffffffffffffff160217905550602082015181600101556040820151816002015560608201518160030155505061368d6133b8565b600060128054905090507f20b669aa921947a6d9602a921d2db3b6b30f21b9aca98580fa3972530330b27a818585600f546040516136ce9493929190614c17565b60405180910390a150505050565b6000816136e884612633565b6136f29190614275565b90506203d090816137039190614204565b600b8190555062015180600b5461371a9190614275565b600c819055507fcd7c861d63893659123f817b192b8621ff1923a7c4589c260173cedcf9e986a6600b54600c54604051613755929190613ec3565b60405180910390a1505050565b6060600060028360026137759190614204565b61377f919061440e565b67ffffffffffffffff81111561379857613797614c5c565b5b6040519080825280601f01601f1916602001820160405280156137ca5781602001600182028036833780820191505090505b5090507f3000000000000000000000000000000000000000000000000000000000000000816000815181106138025761380161413a565b5b60200101907effffffffffffffffffffffffffffffffffffffffffffffffffffffffffffff1916908160001a9053507f7800000000000000000000000000000000000000000000000000000000000000816001815181106138665761386561413a565b5b60200101907effffffffffffffffffffffffffffffffffffffffffffffffffffffffffffff1916908160001a905350600060018460026138a69190614204565b6138b0919061440e565b90505b6001811115613950577f3031323334353637383961626364656600000000000000000000000000000000600f8616601081106138f2576138f161413a565b5b1a60f81b8282815181106139095761390861413a565b5b60200101907effffffffffffffffffffffffffffffffffffffffffffffffffffffffffffff1916908160001a905350600485901c94508061394990614c8b565b90506138b3565b5060008414613994576040517f08c379a000000000000000000000000000000000000000000000000000000000815260040161398b90614d00565b60405180910390fd5b8091505092915050565b600080fd5b60007fffffffff0000000000000000000000000000000000000000000000000000000082169050919050565b6139d8816139a3565b81146139e357600080fd5b50565b6000813590506139f5816139cf565b92915050565b600060208284031215613a1157613a1061399e565b5b6000613a1f848285016139e6565b91505092915050565b60008115159050919050565b613a3d81613a28565b82525050565b6000602082019050613a586000830184613a34565b92915050565b6000819050919050565b613a7181613a5e565b82525050565b6000602082019050613a8c6000830184613a68565b92915050565b613a9b81613a5e565b8114613aa657600080fd5b50565b600081359050613ab881613a92565b92915050565b600060208284031215613ad457613ad361399e565b5b6000613ae284828501613aa9565b91505092915050565b600073ffffffffffffffffffffffffffffffffffffffff82169050919050565b6000819050919050565b6000613b30613b2b613b2684613aeb565b613b0b565b613aeb565b9050919050565b6000613b4282613b15565b9050919050565b6000613b5482613b37565b9050919050565b613b6481613b49565b82525050565b6000608082019050613b7f6000830187613b5b565b613b8c6020830186613a68565b613b996040830185613a68565b613ba66060830184613a68565b95945050505050565b6000819050919050565b613bc281613baf565b8114613bcd57600080fd5b50565b600081359050613bdf81613bb9565b92915050565b600060208284031215613bfb57613bfa61399e565b5b6000613c0984828501613bd0565b91505092915050565b613c1b81613baf565b82525050565b6000602082019050613c366000830184613c12565b92915050565b6000613c4782613aeb565b9050919050565b613c5781613c3c565b8114613c6257600080fd5b50565b600081359050613c7481613c4e565b92915050565b60008060408385031215613c9157613c9061399e565b5b6000613c9f85828601613bd0565b9250506020613cb085828601613c65565b9150509250929050565b613cc381613c3c565b82525050565b6000602082019050613cde6000830184613cba565b92915050565b60008060408385031215613cfb57613cfa61399e565b5b6000613d0985828601613aa9565b9250506020613d1a85828601613aa9565b9150509250929050565b6000613d2f82613b37565b9050919050565b613d3f81613d24565b82525050565b6000602082019050613d5a6000830184613d36565b92915050565b613d6981613a28565b8114613d7457600080fd5b50565b600081359050613d8681613d60565b92915050565b600080600060608486031215613da557613da461399e565b5b6000613db386828701613aa9565b9350506020613dc486828701613aa9565b9250506040613dd586828701613d77565b9150509250925092565b6000613dea82613c3c565b9050919050565b613dfa81613ddf565b8114613e0557600080fd5b50565b600081359050613e1781613df1565b92915050565b600080600060608486031215613e3657613e3561399e565b5b6000613e4486828701613aa9565b9350506020613e5586828701613e08565b9250506040613e6686828701613d77565b9150509250925092565b600080600060608486031215613e8957613e8861399e565b5b6000613e9786828701613aa9565b9350506020613ea886828701613aa9565b9250506040613eb986828701613aa9565b9150509250925092565b6000604082019050613ed86000830185613a68565b613ee56020830184613a68565b9392505050565b6000613ef782613b37565b9050919050565b613f0781613eec565b82525050565b6000602082019050613f226000830184613efe565b92915050565b600080600060608486031215613f4157613f4061399e565b5b6000613f4f86828701613aa9565b9350506020613f6086828701613c65565b9250506040613f7186828701613aa9565b9150509250925092565b60008060408385031215613f9257613f9161399e565b5b6000613fa085828601613aa9565b9250506020613fb185828601613c65565b9150509250929050565b600060e082019050613fd0600083018a613a68565b613fdd6020830189613a68565b613fea6040830188613a68565b613ff76060830187613a68565b6140046080830186613a68565b61401160a0830185613a68565b61401e60c0830184613a68565b98975050505050505050565b6000806000606084860312156140435761404261399e565b5b600061405186828701613c65565b935050602061406286828701613c65565b925050604061407386828701613c65565b9150509250925092565b600080604083850312156140945761409361399e565b5b60006140a285828601613c65565b92505060206140b385828601613c65565b9150509250929050565b600082825260208201905092915050565b7f5265656e7472616e637947756172643a207265656e7472616e742063616c6c00600082015250565b6000614104601f836140bd565b915061410f826140ce565b602082019050919050565b60006020820190508181036000830152614133816140f7565b9050919050565b7f4e487b7100000000000000000000000000000000000000000000000000000000600052603260045260246000fd5b7f77697468647261773a206e6f7420676f6f640000000000000000000000000000600082015250565b600061419f6012836140bd565b91506141aa82614169565b602082019050919050565b600060208201905081810360008301526141ce81614192565b9050919050565b7f4e487b7100000000000000000000000000000000000000000000000000000000600052601160045260246000fd5b600061420f82613a5e565b915061421a83613a5e565b925082820261422881613a5e565b9150828204841483151761423f5761423e6141d5565b5b5092915050565b7f4e487b7100000000000000000000000000000000000000000000000000000000600052601260045260246000fd5b600061428082613a5e565b915061428b83613a5e565b92508261429b5761429a614246565b5b828204905092915050565b60006142b182613a5e565b91506142bc83613a5e565b92508282039050818111156142d4576142d36141d5565b5b92915050565b60006040820190506142ef6000830185613cba565b6142fc6020830184613a68565b9392505050565b60008151905061431281613d60565b92915050565b60006020828403121561432e5761432d61399e565b5b600061433c84828501614303565b91505092915050565b7f416363657373436f6e74726f6c3a2063616e206f6e6c792072656e6f756e636560008201527f20726f6c657320666f722073656c660000000000000000000000000000000000602082015250565b60006143a1602f836140bd565b91506143ac82614345565b604082019050919050565b600060208201905081810360008301526143d081614394565b9050919050565b60006060820190506143ec6000830186613cba565b6143f96020830185613cba565b6144066040830184613a68565b949350505050565b600061441982613a5e565b915061442483613a5e565b925082820190508082111561443c5761443b6141d5565b5b92915050565b7f706f6f6c20646f6573206e6f7420657869737400000000000000000000000000600082015250565b60006144786013836140bd565b915061448382614442565b602082019050919050565b600060208201905081810360008301526144a78161446b565b9050919050565b7f776974686472617720534f554c20627920756e7374616b696e67000000000000600082015250565b60006144e4601a836140bd565b91506144ef826144ae565b602082019050919050565b60006020820190508181036000830152614513816144d7565b9050919050565b7f7769746864726177206e6f7420676f6f64000000000000000000000000000000600082015250565b60006145506011836140bd565b915061455b8261451a565b602082019050919050565b6000602082019050818103600083015261457f81614543565b9050919050565b60008151905061459581613a92565b92915050565b6000602082840312156145b1576145b061399e565b5b60006145bf84828501614586565b91505092915050565b60006145d382613a5e565b91507fffffffffffffffffffffffffffffffffffffffffffffffffffffffffffffffff8203614605576146046141d5565b5b600182019050919050565b7f726577617264732068617665206e6f742079657420626567756e000000000000600082015250565b6000614646601a836140bd565b915061465182614610565b602082019050919050565b6000602082019050818103600083015261467581614639565b9050919050565b7f616c726561647920696e697469616c697a656400000000000000000000000000600082015250565b60006146b26013836140bd565b91506146bd8261467c565b602082019050919050565b600060208201905081810360008301526146e1816146a5565b9050919050565b600060c0820190506146fd6000830189613cba565b61470a6020830188613cba565b6147176040830187613cba565b6147246060830186613cba565b6147316080830185613a68565b61473e60a0830184613a68565b979650505050505050565b600060608201905061475e6000830186613a68565b61476b6020830185613cba565b6147786040830184613a68565b949350505050565b7f6465706f73697420534f554c206279207374616b696e67000000000000000000600082015250565b60006147b66017836140bd565b91506147c182614780565b602082019050919050565b600060208201905081810360008301526147e5816147a9565b9050919050565b7f6d7573742062652061206e6577206163636f756e740000000000000000000000600082015250565b60006148226015836140bd565b915061482d826147ec565b602082019050919050565b6000602082019050818103600083015261485181614815565b9050919050565b600060608201905061486d6000830186613cba565b61487a6020830185613cba565b6148876040830184613cba565b949350505050565b7f6d7573742062652061206e657720746f6b656e20616464726573730000000000600082015250565b60006148c5601b836140bd565b91506148d08261488f565b602082019050919050565b600060208201905081810360008301526148f4816148b8565b9050919050565b60006040820190506149106000830185613cba565b61491d6020830184613cba565b9392505050565b7f6d757374206265206174206c65617374206f6e65206e65772076616c75650000600082015250565b600061495a601e836140bd565b915061496582614924565b602082019050919050565b600060208201905081810360008301526149898161494d565b9050919050565b7f7765696768742063616e6e6f742065786365656420746f74616c576569676874600082015250565b60006149c66020836140bd565b91506149d182614990565b602082019050919050565b600060208201905081810360008301526149f5816149b9565b9050919050565b600081905092915050565b7f416363657373436f6e74726f6c3a206163636f756e7420000000000000000000600082015250565b6000614a3d6017836149fc565b9150614a4882614a07565b601782019050919050565b600081519050919050565b60005b83811015614a7c578082015181840152602081019050614a61565b60008484015250505050565b6000614a9382614a53565b614a9d81856149fc565b9350614aad818560208601614a5e565b80840191505092915050565b7f206973206d697373696e6720726f6c6520000000000000000000000000000000600082015250565b6000614aef6011836149fc565b9150614afa82614ab9565b601182019050919050565b6000614b1082614a30565b9150614b1c8285614a88565b9150614b2782614ae2565b9150614b338284614a88565b91508190509392505050565b6000601f19601f8301169050919050565b6000614b5b82614a53565b614b6581856140bd565b9350614b75818560208601614a5e565b614b7e81614b3f565b840191505092915050565b60006020820190508181036000830152614ba38184614b50565b905092915050565b7f6475706c69636174656420706f6f6c0000000000000000000000000000000000600082015250565b6000614be1600f836140bd565b9150614bec82614bab565b602082019050919050565b60006020820190508181036000830152614c1081614bd4565b9050919050565b6000608082019050614c2c6000830187613a68565b614c396020830186613a68565b614c466040830185613b5b565b614c536060830184613a68565b95945050505050565b7f4e487b7100000000000000000000000000000000000000000000000000000000600052604160045260246000fd5b6000614c9682613a5e565b915060008203614ca957614ca86141d5565b5b600182039050919050565b7f537472696e67733a20686578206c656e67746820696e73756666696369656e74600082015250565b6000614cea6020836140bd565b9150614cf582614cb4565b602082019050919050565b60006020820190508181036000830152614d1981614cdd565b905091905056fea26469706673582212208e01239d00ac3bdd8938b4ab1c0a108ae1e0475e3cc0933c6e58c4e255e51fe864736f6c63430008110033",
  "immutableReferences": {
    "37480": [
      {
        "length": 32,
        "start": 12333
      }
    ]
  },
  "source": "// SPDX-License-Identifier: MIT\n\npragma solidity >=0.8.0;\nimport '@openzeppelin/contracts/access/AccessControl.sol';\nimport '@openzeppelin/contracts/security/ReentrancyGuard.sol';\nimport '../tokens/SoulPower.sol';\nimport '../tokens/SeanceCircle.sol';\n\n// the summoner of souls | ownership transferred to a governance smart contract \n// upon sufficient distribution + the community's desire to self-govern.\n\ncontract SoulSummonerFantomV2 is AccessControl, ReentrancyGuard {\n\n    // user info\n    struct Users {\n        uint amount;           // total tokens user has provided.\n        uint rewardDebt;       // reward debt (see below).\n        uint rewardDebtAtTime; // the last time user stake.\n        uint lastWithdrawTime; // the last time a user withdrew at.\n        uint firstDepositTime; // the last time a user deposited at.\n        uint timeDelta;        // time passed since withdrawals.\n        uint lastDepositTime;  // most recent deposit time.\n\n        //   pending reward = (user.amount * pool.accSoulPerShare) - user.rewardDebt\n\n        // the following occurs when a user +/- tokens to a pool:\n        //   1. pool: `accSoulPerShare` and `lastRewardTime` update.\n        //   2. user: receives pending reward.\n        //   3. user: `amount` updates(+/-).\n        //   4. user: `rewardDebt` updates (+/-).\n    }\n\n    // pool info\n    struct Pools {\n        IERC20 lpToken;       // lp token ierc20 contract.\n        uint allocPoint;      // allocation points assigned to this pool | SOULs to distribute per second.\n        uint lastRewardTime;  // most recent UNIX timestamp during which SOULs distribution occurred in the pool.\n        uint accSoulPerShare; // accumulated SOULs per share, times 1e12.\n    }\n\n    // soul power: our native utility token\n    address private soulAddress;\n    SoulPower public soul;\n    \n    // seance circle: our governance token\n    address private seanceAddress;\n    SeanceCircle public seance;\n\n    address public team; // receives 1/8 soul supply\n    address public dao; // recieves 1/8 soul supply\n    address public supreme; // has supreme role\n\n    // blockchain variables accounting for share of overall emissions\n    uint public totalWeight;\n    uint public weight;\n\n    // soul x day x this.chain\n    uint public dailySoul; // = weight * 250K * 1e18;\n\n    // soul x second x this.chain\n    uint public soulPerSecond; // = dailySoul / 86400;\n\n    // bonus muliplier for early soul summoners\n    uint public bonusMultiplier = 1;\n\n    // timestamp when soul rewards began (initialized)\n    uint public startTime;\n\n    // ttl allocation points | must be the sum of all allocation points\n    uint public totalAllocPoint;\n\n    // summoner initialized state.\n    bool public isInitialized;\n\n    // decay rate on withdrawal fee of 1%.\n    uint public immutable dailyDecay = enWei(1);\n\n    // start rate for the withdrawal fee.\n    uint public startRate;\n\n    Pools[] public poolInfo; // pool info\n    mapping (uint => mapping (address => Users)) public userInfo; // staker data\n\n    // divinated roles\n    bytes32 public isis; // soul summoning goddess of magic\n    bytes32 public maat; // goddess of cosmic order\n\n    event RoleDivinated(bytes32 role, bytes32 supreme);\n\n    // restricted to the council of the role passed as an object to obey (role)\n    modifier obey(bytes32 role) {\n        _checkRole(role, _msgSender());\n        _;\n    }\n\n    // prevents: early reward distribution\n    modifier isSummoned {\n        require(isInitialized, 'rewards have not yet begun');\n        _;\n    }\n\n    event Deposit(address indexed user, uint indexed pid, uint amount);\n    event Withdraw(address indexed user, uint indexed pid, uint amount, uint timeStamp);\n\n    event Initialized(address team, address dao, address soul, address seance, uint totalAllocPoint, uint weight);\n    event PoolAdded(uint pid, uint allocPoint, IERC20 lpToken, uint totalAllocPoint);\n    event PoolSet(uint pid, uint allocPoint);\n\n    event WeightUpdated(uint weight, uint totalWeight);\n    event RewardsUpdated(uint dailySoul, uint soulPerSecond);\n    event StartRateUpdated(uint startRate);\n\n    event AccountsUpdated(address dao, address team, address admin);\n    event TokensUpdated(address soul, address seance);\n    event DepositRevised(uint _pid, address _user, uint _time);\n\n    // validates: pool exists\n    modifier validatePoolByPid(uint pid) {\n        require(pid < poolInfo.length, 'pool does not exist');\n        _;\n    }\n\n    // channels the power of the isis and ma'at to the deployer (deployer)\n    constructor() {\n        supreme = 0x81Dd37687c74Df8F957a370A9A4435D873F5e5A9;    // multi-sig safe\n        team = 0xd0744f7F9f65db946860B974966f83688D4f4630;      // team wallet\n        dao = 0x1C63C726926197BD3CB75d86bCFB1DaeBcD87250;      // dao treasury (multi-sig)\n\n        isis = keccak256(\"isis\"); // goddess of magic who creates pools\n        maat = keccak256(\"maat\"); // goddess of cosmic order who allocates emissions\n\n        _divinationCeremony(DEFAULT_ADMIN_ROLE, DEFAULT_ADMIN_ROLE, supreme);\n        _divinationCeremony(isis, isis, supreme); // isis role created -- supreme divined admin\n        _divinationCeremony(maat, isis, dao); // maat role created -- isis divined admin\n    } \n\n    function _divinationCeremony(bytes32 _role, bytes32 _adminRole, address _account) \n        internal returns (bool) {\n            _setupRole(_role, _account);\n            _setRoleAdmin(_role, _adminRole);\n        return true;\n    }\n\n    // validate: pool uniqueness to eliminate duplication risk (internal view)\n    function checkPoolDuplicate(IERC20 _token) internal view {\n        uint length = poolInfo.length;\n\n        for (uint pid = 0; pid < length; ++pid) {\n            require(poolInfo[pid].lpToken != _token, 'duplicated pool');\n        }\n    }\n\n    // activates: rewards (owner)\n    function initialize() external obey(isis) {\n        require(!isInitialized, 'already initialized');\n\n        soulAddress = 0xe2fb177009FF39F52C0134E8007FA0e4BaAcBd07;\n        seanceAddress = 0x124B06C5ce47De7A6e9EFDA71a946717130079E6;\n\n        // [required]: update global constants\n        startTime = block.timestamp;\n        totalWeight = 1000;\n        weight = 1000;\n        startRate = enWei(14);\n        uint allocPoint = 1000;\n        soul  = SoulPower(soulAddress);\n        seance = SeanceCircle(seanceAddress);\n\n        // updates: dailySoul and soulPerSecond\n        updateRewards(weight, totalWeight); \n\n        // adds: staking pool\n        poolInfo.push(Pools({\n            lpToken: soul,\n            allocPoint: allocPoint,\n            lastRewardTime: startTime,\n            accSoulPerShare: 0\n        }));\n\n        isInitialized = true;           // triggers: initialize state\n        totalAllocPoint += allocPoint; // kickstarts: total allocation\n\n        emit Initialized(team, dao, soulAddress, seanceAddress, totalAllocPoint, weight);\n    }\n\n    // returns: amount of pools\n    function poolLength() external view returns (uint) { return poolInfo.length; }\n\n    // add: new pool (isis)\n    function addPool(uint _allocPoint, IERC20 _lpToken, bool _withUpdate) \n        public isSummoned obey(isis) { // isis: the soul summoning goddess whose power transcends them all\n            checkPoolDuplicate(_lpToken);\n            _addPool(_allocPoint, _lpToken, _withUpdate);\n    }\n\n    // add: new pool (internal)\n    function _addPool(uint _allocPoint, IERC20 _lpToken, bool _withUpdate) internal {\n        if (_withUpdate) { massUpdatePools(); }\n\n        totalAllocPoint += _allocPoint;\n        \n        poolInfo.push(\n        Pools({\n            lpToken: _lpToken,\n            allocPoint: _allocPoint,\n            lastRewardTime: block.timestamp > startTime ? block.timestamp : startTime,\n            accSoulPerShare: 0\n        }));\n        \n        updateStakingPool();\n        uint pid = poolInfo.length;\n\n        emit PoolAdded(pid, _allocPoint, _lpToken, totalAllocPoint);\n    }\n\n    // set: allocation points (maat)\n    function set(uint pid, uint allocPoint, bool withUpdate) \n        external isSummoned validatePoolByPid(pid) obey(maat) {\n            if (withUpdate) { massUpdatePools(); } // updates all pools\n            \n            uint prevAllocPoint = poolInfo[pid].allocPoint;\n            poolInfo[pid].allocPoint = allocPoint;\n            \n            if (prevAllocPoint != allocPoint) {\n                totalAllocPoint = totalAllocPoint - prevAllocPoint + allocPoint;\n                \n                updateStakingPool(); // updates only selected pool\n        }\n\n        emit PoolSet(pid, allocPoint);\n    }\n\n    // view: user delta\n\tfunction userDelta(uint256 _pid, address _user) public view returns (uint256 delta) {\n        Users memory user = userInfo[_pid][_user];\n\n        return user.lastWithdrawTime > 0\n            ? block.timestamp - user.lastWithdrawTime\n            : block.timestamp - user.firstDepositTime;\n\t}\n\n    // view: bonus multiplier (public view)\n    function getMultiplier(uint from, uint to) public view returns (uint) {\n        return (to - from) * bonusMultiplier;\n    }\n\n    // returns: decay rate for a pid (public view)\n    function getFeeRate(uint pid, uint timeDelta) public view returns (uint feeRate) {\n        uint daysPassed = timeDelta < 1 days ? 0 : timeDelta / 1 days;\n        uint rateDecayed = enWei(daysPassed);\n        uint _rate = rateDecayed >= startRate ? 0 : startRate - rateDecayed;\n        \n        // returns 0 for SAS\n        return pid == 0 ? 0 : _rate;\n    }\n\n    // returns: feeAmount and with withdrawableAmount for a given pid and amount\n    function getWithdrawable(uint pid, uint timeDelta, uint amount) public view returns (uint _feeAmount, uint _withdrawable) {\n        uint feeRate = fromWei(getFeeRate(pid, timeDelta));\n        uint feeAmount = (amount * feeRate) / 100;\n        uint withdrawable = amount - feeAmount;\n\n        return (feeAmount, withdrawable);\n    }\n\n    // view: pending soul rewards (external)\n    function pendingSoul(uint pid, address _user) external view returns (uint pendingAmount) {\n        Pools storage pool = poolInfo[pid];\n        Users storage user = userInfo[pid][_user];\n\n        uint accSoulPerShare = pool.accSoulPerShare;\n        uint lpSupply = pool.lpToken.balanceOf(address(this));\n\n        if (block.timestamp > pool.lastRewardTime && lpSupply != 0) {\n            uint multiplier = getMultiplier(pool.lastRewardTime, block.timestamp);\n            uint soulReward = multiplier * soulPerSecond * pool.allocPoint / totalAllocPoint;\n            accSoulPerShare = accSoulPerShare + soulReward * 1e12 / lpSupply;\n        }\n\n        return user.amount * accSoulPerShare / 1e12 - user.rewardDebt;\n    }\n\n    // update: rewards for all pools (public)\n    function massUpdatePools() public {\n        uint length = poolInfo.length;\n        for (uint pid = 0; pid < length; ++pid) { updatePool(pid); }\n    }\n\n    // update: rewards for a given pool id (public)\n    function updatePool(uint pid) public validatePoolByPid(pid) {\n        Pools storage pool = poolInfo[pid];\n\n        if (block.timestamp <= pool.lastRewardTime) { return; }\n        uint lpSupply = pool.lpToken.balanceOf(address(this));\n\n        if (lpSupply == 0) { pool.lastRewardTime = block.timestamp; return; } // first staker in pool\n\n        uint multiplier = getMultiplier(pool.lastRewardTime, block.timestamp);\n        uint soulReward = multiplier * soulPerSecond * pool.allocPoint / totalAllocPoint;\n        \n        uint divi = soulReward * 1e12 / 8e12;   // 12.5% rewards\n        uint divis = divi * 2;                  // total divis\n        uint shares = soulReward - divis;       // net shares\n        \n        soul.mint(team, divi);\n        soul.mint(dao, divi);\n        soul.mint(address(seance), shares);\n\n        pool.accSoulPerShare = pool.accSoulPerShare + (soulReward * 1e12 / lpSupply);\n        pool.lastRewardTime = block.timestamp;\n    }\n\n    // deposit: lp tokens (lp owner)\n    function deposit(uint pid, uint amount) external nonReentrant validatePoolByPid(pid) {\n        require (pid != 0, 'deposit SOUL by staking');\n\n        Pools storage pool = poolInfo[pid];\n        Users storage user = userInfo[pid][msg.sender];\n        updatePool(pid);\n\n        if (user.amount > 0) { // already deposited assets\n            uint pending = (user.amount * pool.accSoulPerShare) / 1e12 - user.rewardDebt;\n            if(pending > 0) { // sends pending rewards, if applicable\n                safeSoulTransfer(msg.sender, pending);\n            }\n        }\n\n        if (amount > 0) { // if adding more\n            pool.lpToken.transferFrom(address(msg.sender), address(this), amount);\n            user.amount += amount;\n        }\n\n        user.rewardDebt = user.amount * pool.accSoulPerShare / 1e12;\n\n        // marks timestamp for first deposit\n        user.firstDepositTime = \n            user.firstDepositTime > 0 \n                ? user.firstDepositTime\n                : block.timestamp;\n\n        emit Deposit(msg.sender, pid, amount);\n    }\n\n    // withdraw: lp tokens (external farmers)\n    function withdraw(uint pid, uint amount) external nonReentrant validatePoolByPid(pid) {\n        require (pid != 0, 'withdraw SOUL by unstaking');\n        Pools storage pool = poolInfo[pid];\n        Users storage user = userInfo[pid][msg.sender];\n\n        require(user.amount >= amount, 'withdraw not good');\n        updatePool(pid);\n\n        uint pending = user.amount * pool.accSoulPerShare / 1e12 - user.rewardDebt;\n\n        if(pending > 0) { safeSoulTransfer(msg.sender, pending); }\n\n        if(amount > 0) {\n            if(user.lastDepositTime > 0){\n\t\t\t\tuser.timeDelta = block.timestamp - user.lastDepositTime; }\n\t\t\telse { user.timeDelta = block.timestamp - user.firstDepositTime; }\n            \n            user.amount = user.amount - amount;\n            \n        }\n        \n        uint timeDelta = userInfo[pid][msg.sender].timeDelta;\n        (, uint withdrawable) = getWithdrawable(pid, timeDelta, amount); // removes feeAmount from amount\n        uint feeAmount = amount - withdrawable;\n\n        pool.lpToken.transfer(address(dao), feeAmount);\n        pool.lpToken.transfer(address(msg.sender), withdrawable);\n\n        user.rewardDebt = user.amount * pool.accSoulPerShare / 1e12;\n        user.lastWithdrawTime = block.timestamp;\n\n        emit Withdraw(msg.sender, pid, amount, block.timestamp);\n    }\n\n    // stake: soul into summoner (external)\n    function enterStaking(uint amount) external nonReentrant {\n        Pools storage pool = poolInfo[0];\n        Users storage user = userInfo[0][msg.sender];\n        updatePool(0);\n\n        if (user.amount > 0) {\n            uint pending = user.amount * pool.accSoulPerShare / 1e12 - user.rewardDebt;\n            if(pending > 0) {\n                safeSoulTransfer(msg.sender, pending);\n            }\n        } \n        \n        if(amount > 0) {\n            pool.lpToken.transferFrom(address(msg.sender), address(this), amount);\n            user.amount = user.amount + amount;\n        }\n\n        // marks timestamp for first deposit\n        user.firstDepositTime = \n            user.firstDepositTime > 0 \n                ? user.firstDepositTime\n                : block.timestamp;\n\n        user.rewardDebt = user.amount * pool.accSoulPerShare / 1e12;\n\n        seance.mint(msg.sender, amount);\n        emit Deposit(msg.sender, 0, amount);\n    }\n\n    // unstake: your soul (external staker)\n    function leaveStaking(uint amount) external nonReentrant {\n        Pools storage pool = poolInfo[0];\n        Users storage user = userInfo[0][msg.sender];\n\n        require(user.amount >= amount, \"withdraw: not good\");\n        updatePool(0);\n\n        uint pending = user.amount * pool.accSoulPerShare / 1e12 - user.rewardDebt;\n\n        if(pending > 0) {\n            safeSoulTransfer(msg.sender, pending);\n        }\n\n        if(amount > 0) {\n            user.amount = user.amount - amount;\n            pool.lpToken.transfer(address(msg.sender), amount);\n        }\n\n        user.rewardDebt = user.amount * pool.accSoulPerShare / 1e12;\n        user.lastWithdrawTime = block.timestamp;\n        \n        seance.burn(msg.sender, amount);\n        emit Withdraw(msg.sender, 0, amount, block.timestamp);\n    }\n    \n    // transfer: seance (internal)\n    function safeSoulTransfer(address account, uint amount) internal {\n        seance.safeSoulTransfer(account, amount);\n    }\n\n    // ** UPDATE FUNCTIONS ** // \n\n    // update: weight (maat)\n    function updateWeights(uint _weight, uint _totalWeight) external obey(maat) {\n        require(weight != _weight || totalWeight != _totalWeight, 'must be at least one new value');\n        require(_totalWeight >= _weight, 'weight cannot exceed totalWeight');\n\n        weight = _weight;     \n        totalWeight = _totalWeight;\n\n        updateRewards(weight, totalWeight);\n\n        emit WeightUpdated(weight, totalWeight);\n    }\n\n    // update: staking pool (internal)\n    function updateStakingPool() internal {\n        uint length = poolInfo.length;\n        uint points;\n        \n        for (uint pid = 1; pid < length; ++pid) { \n            points = points + poolInfo[pid].allocPoint; \n        }\n\n        if (points != 0) {\n            points = points / 3;\n            totalAllocPoint = totalAllocPoint - poolInfo[0].allocPoint + points;\n            poolInfo[0].allocPoint = points;\n        }\n    }\n\n    // update: multiplier (maat)\n    function updateMultiplier(uint _bonusMultiplier) external obey(maat) {\n        bonusMultiplier = _bonusMultiplier;\n    }\n\n    // update: rewards (internal)\n    function updateRewards(uint _weight, uint _totalWeight) internal {\n        uint share = enWei(_weight) / _totalWeight; // share of ttl emissions for chain (chain % ttl emissions)\n        \n        dailySoul = share * (250_000); // dailySoul (for this.chain) = share (%) x 250K (soul emissions constant)\n        soulPerSecond = dailySoul / 1 days; // updates: daily rewards expressed in seconds (1 days = 86,400 secs)\n\n        emit RewardsUpdated(dailySoul, soulPerSecond);\n    }\n\n    // update: startRate (maat)\n    function updateStartRate(uint _startRate) public obey(maat) {\n        require(startRate != enWei(_startRate));\n        startRate = enWei(_startRate);\n        \n        emit StartRateUpdated(startRate);\n    }\n\n    // update accounts: dao, team, and supreme addresses (isis)\n    function updateAccounts(address _dao, address _team, address _supreme) external obey(isis) {\n        require(dao != _dao || team != _team || supreme != _supreme, 'must be a new account');\n\n        dao = _dao;\n        team = _team;\n        supreme = _supreme;\n\n        emit AccountsUpdated(dao, team, supreme);\n    }\n\n    // update tokens: soul and seance addresses (isis)\n    function updateTokens(address _soul, address _seance) external obey(isis) {\n        require(soul != IERC20(_soul) || seance != IERC20(_seance), 'must be a new token address');\n\n        soul = SoulPower(_soul);\n        seance = SeanceCircle(_seance);\n\n        emit TokensUpdated(_soul, _seance);\n    }\n\n    // manual override to reassign the first deposit time for a given (pid, account)\n    function reviseDeposit(uint _pid, address _user, uint256 _time) public obey(maat) {\n        Users storage user = userInfo[_pid][_user];\n        user.firstDepositTime = _time;\n\n        emit DepositRevised(_pid, _user, _time);\n\t}\n\n    // ** HELPER FUNCTIONS ** // \n\n    // helper functions to convert to wei and 1/100th\n    function enWei(uint amount) public pure returns (uint) {  return amount * 1e18; }\n    function fromWei(uint amount) public pure returns (uint) { return amount / 1e18; }\n}\n",
  "sourcePath": "/Users/buns/Documents/GitHub/SoulSwapFinance/soulswap-farms/contracts/rewards/SoulSummonerFantomV2.sol",
  "compiler": {
    "name": "solc",
    "version": "0.8.17+commit.8df45f5f.Emscripten.clang"
  },
  "schemaVersion": "3.4.1",
  "updatedAt": "2022-10-01T21:51:30.522Z",
  "devdoc": {
    "kind": "dev",
    "methods": {
      "getRoleAdmin(bytes32)": {
        "details": "Returns the admin role that controls `role`. See {grantRole} and {revokeRole}. To change a role's admin, use {_setRoleAdmin}."
      },
      "grantRole(bytes32,address)": {
        "details": "Grants `role` to `account`. If `account` had not been already granted `role`, emits a {RoleGranted} event. Requirements: - the caller must have ``role``'s admin role."
      },
      "hasRole(bytes32,address)": {
        "details": "Returns `true` if `account` has been granted `role`."
      },
      "renounceRole(bytes32,address)": {
        "details": "Revokes `role` from the calling account. Roles are often managed via {grantRole} and {revokeRole}: this function's purpose is to provide a mechanism for accounts to lose their privileges if they are compromised (such as when a trusted device is misplaced). If the calling account had been granted `role`, emits a {RoleRevoked} event. Requirements: - the caller must be `account`."
      },
      "revokeRole(bytes32,address)": {
        "details": "Revokes `role` from `account`. If `account` had been granted `role`, emits a {RoleRevoked} event. Requirements: - the caller must have ``role``'s admin role."
      },
      "supportsInterface(bytes4)": {
        "details": "See {IERC165-supportsInterface}."
      }
    },
    "version": 1
  },
  "userdoc": {
    "kind": "user",
    "methods": {},
    "version": 1
  }
}