{
  "contractName": "SoulSummoner",
  "abi": [
    {
      "inputs": [],
      "stateMutability": "nonpayable",
      "type": "constructor"
    },
    {
      "anonymous": false,
      "inputs": [
        {
          "indexed": false,
          "internalType": "address",
          "name": "dao",
          "type": "address"
        },
        {
          "indexed": false,
          "internalType": "address",
          "name": "team",
          "type": "address"
        }
      ],
      "name": "AccountsUpdated",
      "type": "event"
    },
    {
      "anonymous": false,
      "inputs": [
        {
          "indexed": true,
          "internalType": "address",
          "name": "user",
          "type": "address"
        },
        {
          "indexed": true,
          "internalType": "uint256",
          "name": "pid",
          "type": "uint256"
        },
        {
          "indexed": false,
          "internalType": "uint256",
          "name": "amount",
          "type": "uint256"
        }
      ],
      "name": "Deposit",
      "type": "event"
    },
    {
      "anonymous": false,
      "inputs": [
        {
          "indexed": false,
          "internalType": "uint256",
          "name": "_pid",
          "type": "uint256"
        },
        {
          "indexed": false,
          "internalType": "address",
          "name": "_user",
          "type": "address"
        },
        {
          "indexed": false,
          "internalType": "uint256",
          "name": "_time",
          "type": "uint256"
        }
      ],
      "name": "DepositRevised",
      "type": "event"
    },
    {
      "anonymous": false,
      "inputs": [
        {
          "indexed": false,
          "internalType": "address",
          "name": "team",
          "type": "address"
        },
        {
          "indexed": false,
          "internalType": "address",
          "name": "dao",
          "type": "address"
        },
        {
          "indexed": false,
          "internalType": "address",
          "name": "soul",
          "type": "address"
        },
        {
          "indexed": false,
          "internalType": "address",
          "name": "seance",
          "type": "address"
        },
        {
          "indexed": false,
          "internalType": "uint256",
          "name": "totalAllocPoint",
          "type": "uint256"
        },
        {
          "indexed": false,
          "internalType": "uint256",
          "name": "weight",
          "type": "uint256"
        }
      ],
      "name": "Initialized",
      "type": "event"
    },
    {
      "anonymous": false,
      "inputs": [
        {
          "indexed": true,
          "internalType": "address",
          "name": "previousOwner",
          "type": "address"
        },
        {
          "indexed": true,
          "internalType": "address",
          "name": "newOwner",
          "type": "address"
        }
      ],
      "name": "OwnershipTransferred",
      "type": "event"
    },
    {
      "anonymous": false,
      "inputs": [
        {
          "indexed": false,
          "internalType": "address",
          "name": "account",
          "type": "address"
        }
      ],
      "name": "Paused",
      "type": "event"
    },
    {
      "anonymous": false,
      "inputs": [
        {
          "indexed": false,
          "internalType": "uint256",
          "name": "pid",
          "type": "uint256"
        },
        {
          "indexed": false,
          "internalType": "uint256",
          "name": "allocPoint",
          "type": "uint256"
        },
        {
          "indexed": false,
          "internalType": "contract IERC20",
          "name": "lpToken",
          "type": "address"
        },
        {
          "indexed": false,
          "internalType": "uint256",
          "name": "totalAllocPoint",
          "type": "uint256"
        }
      ],
      "name": "PoolAdded",
      "type": "event"
    },
    {
      "anonymous": false,
      "inputs": [
        {
          "indexed": false,
          "internalType": "uint256",
          "name": "pid",
          "type": "uint256"
        },
        {
          "indexed": false,
          "internalType": "uint256",
          "name": "allocPoint",
          "type": "uint256"
        }
      ],
      "name": "PoolSet",
      "type": "event"
    },
    {
      "anonymous": false,
      "inputs": [
        {
          "indexed": false,
          "internalType": "uint256",
          "name": "dailySoul",
          "type": "uint256"
        },
        {
          "indexed": false,
          "internalType": "uint256",
          "name": "soulPerSecond",
          "type": "uint256"
        }
      ],
      "name": "RewardsUpdated",
      "type": "event"
    },
    {
      "anonymous": false,
      "inputs": [
        {
          "indexed": true,
          "internalType": "bytes32",
          "name": "role",
          "type": "bytes32"
        },
        {
          "indexed": true,
          "internalType": "bytes32",
          "name": "previousAdminRole",
          "type": "bytes32"
        },
        {
          "indexed": true,
          "internalType": "bytes32",
          "name": "newAdminRole",
          "type": "bytes32"
        }
      ],
      "name": "RoleAdminChanged",
      "type": "event"
    },
    {
      "anonymous": false,
      "inputs": [
        {
          "indexed": false,
          "internalType": "bytes32",
          "name": "role",
          "type": "bytes32"
        },
        {
          "indexed": false,
          "internalType": "bytes32",
          "name": "supreme",
          "type": "bytes32"
        }
      ],
      "name": "RoleDivinated",
      "type": "event"
    },
    {
      "anonymous": false,
      "inputs": [
        {
          "indexed": true,
          "internalType": "bytes32",
          "name": "role",
          "type": "bytes32"
        },
        {
          "indexed": true,
          "internalType": "address",
          "name": "account",
          "type": "address"
        },
        {
          "indexed": true,
          "internalType": "address",
          "name": "sender",
          "type": "address"
        }
      ],
      "name": "RoleGranted",
      "type": "event"
    },
    {
      "anonymous": false,
      "inputs": [
        {
          "indexed": true,
          "internalType": "bytes32",
          "name": "role",
          "type": "bytes32"
        },
        {
          "indexed": true,
          "internalType": "address",
          "name": "account",
          "type": "address"
        },
        {
          "indexed": true,
          "internalType": "address",
          "name": "sender",
          "type": "address"
        }
      ],
      "name": "RoleRevoked",
      "type": "event"
    },
    {
      "anonymous": false,
      "inputs": [
        {
          "indexed": false,
          "internalType": "address",
          "name": "soul",
          "type": "address"
        },
        {
          "indexed": false,
          "internalType": "address",
          "name": "seance",
          "type": "address"
        }
      ],
      "name": "TokensUpdated",
      "type": "event"
    },
    {
      "anonymous": false,
      "inputs": [
        {
          "indexed": false,
          "internalType": "address",
          "name": "account",
          "type": "address"
        }
      ],
      "name": "Unpaused",
      "type": "event"
    },
    {
      "anonymous": false,
      "inputs": [
        {
          "indexed": false,
          "internalType": "uint256",
          "name": "weight",
          "type": "uint256"
        },
        {
          "indexed": false,
          "internalType": "uint256",
          "name": "totalWeight",
          "type": "uint256"
        }
      ],
      "name": "WeightUpdated",
      "type": "event"
    },
    {
      "anonymous": false,
      "inputs": [
        {
          "indexed": true,
          "internalType": "address",
          "name": "user",
          "type": "address"
        },
        {
          "indexed": true,
          "internalType": "uint256",
          "name": "pid",
          "type": "uint256"
        },
        {
          "indexed": false,
          "internalType": "uint256",
          "name": "amount",
          "type": "uint256"
        },
        {
          "indexed": false,
          "internalType": "uint256",
          "name": "timeStamp",
          "type": "uint256"
        }
      ],
      "name": "Withdraw",
      "type": "event"
    },
    {
      "inputs": [],
      "name": "DEFAULT_ADMIN_ROLE",
      "outputs": [
        {
          "internalType": "bytes32",
          "name": "",
          "type": "bytes32"
        }
      ],
      "stateMutability": "view",
      "type": "function",
      "constant": true
    },
    {
      "inputs": [],
      "name": "bonusMultiplier",
      "outputs": [
        {
          "internalType": "uint256",
          "name": "",
          "type": "uint256"
        }
      ],
      "stateMutability": "view",
      "type": "function",
      "constant": true
    },
    {
      "inputs": [],
      "name": "dailyDecay",
      "outputs": [
        {
          "internalType": "uint256",
          "name": "",
          "type": "uint256"
        }
      ],
      "stateMutability": "view",
      "type": "function",
      "constant": true
    },
    {
      "inputs": [],
      "name": "dailySoul",
      "outputs": [
        {
          "internalType": "uint256",
          "name": "",
          "type": "uint256"
        }
      ],
      "stateMutability": "view",
      "type": "function",
      "constant": true
    },
    {
      "inputs": [],
      "name": "dao",
      "outputs": [
        {
          "internalType": "address",
          "name": "",
          "type": "address"
        }
      ],
      "stateMutability": "view",
      "type": "function",
      "constant": true
    },
    {
      "inputs": [
        {
          "internalType": "bytes32",
          "name": "role",
          "type": "bytes32"
        }
      ],
      "name": "getRoleAdmin",
      "outputs": [
        {
          "internalType": "bytes32",
          "name": "",
          "type": "bytes32"
        }
      ],
      "stateMutability": "view",
      "type": "function",
      "constant": true
    },
    {
      "inputs": [
        {
          "internalType": "bytes32",
          "name": "role",
          "type": "bytes32"
        },
        {
          "internalType": "address",
          "name": "account",
          "type": "address"
        }
      ],
      "name": "grantRole",
      "outputs": [],
      "stateMutability": "nonpayable",
      "type": "function"
    },
    {
      "inputs": [
        {
          "internalType": "bytes32",
          "name": "role",
          "type": "bytes32"
        },
        {
          "internalType": "address",
          "name": "account",
          "type": "address"
        }
      ],
      "name": "hasRole",
      "outputs": [
        {
          "internalType": "bool",
          "name": "",
          "type": "bool"
        }
      ],
      "stateMutability": "view",
      "type": "function",
      "constant": true
    },
    {
      "inputs": [],
      "name": "isInitialized",
      "outputs": [
        {
          "internalType": "bool",
          "name": "",
          "type": "bool"
        }
      ],
      "stateMutability": "view",
      "type": "function",
      "constant": true
    },
    {
      "inputs": [],
      "name": "isis",
      "outputs": [
        {
          "internalType": "bytes32",
          "name": "",
          "type": "bytes32"
        }
      ],
      "stateMutability": "view",
      "type": "function",
      "constant": true
    },
    {
      "inputs": [],
      "name": "maat",
      "outputs": [
        {
          "internalType": "bytes32",
          "name": "",
          "type": "bytes32"
        }
      ],
      "stateMutability": "view",
      "type": "function",
      "constant": true
    },
    {
      "inputs": [],
      "name": "migrator",
      "outputs": [
        {
          "internalType": "contract IMigrator",
          "name": "",
          "type": "address"
        }
      ],
      "stateMutability": "view",
      "type": "function",
      "constant": true
    },
    {
      "inputs": [],
      "name": "owner",
      "outputs": [
        {
          "internalType": "address",
          "name": "",
          "type": "address"
        }
      ],
      "stateMutability": "view",
      "type": "function",
      "constant": true
    },
    {
      "inputs": [],
      "name": "paused",
      "outputs": [
        {
          "internalType": "bool",
          "name": "",
          "type": "bool"
        }
      ],
      "stateMutability": "view",
      "type": "function",
      "constant": true
    },
    {
      "inputs": [
        {
          "internalType": "uint256",
          "name": "",
          "type": "uint256"
        }
      ],
      "name": "poolInfo",
      "outputs": [
        {
          "internalType": "contract IERC20",
          "name": "lpToken",
          "type": "address"
        },
        {
          "internalType": "uint256",
          "name": "allocPoint",
          "type": "uint256"
        },
        {
          "internalType": "uint256",
          "name": "lastRewardTime",
          "type": "uint256"
        },
        {
          "internalType": "uint256",
          "name": "accSoulPerShare",
          "type": "uint256"
        }
      ],
      "stateMutability": "view",
      "type": "function",
      "constant": true
    },
    {
      "inputs": [],
      "name": "renounceOwnership",
      "outputs": [],
      "stateMutability": "nonpayable",
      "type": "function"
    },
    {
      "inputs": [
        {
          "internalType": "bytes32",
          "name": "role",
          "type": "bytes32"
        },
        {
          "internalType": "address",
          "name": "account",
          "type": "address"
        }
      ],
      "name": "renounceRole",
      "outputs": [],
      "stateMutability": "nonpayable",
      "type": "function"
    },
    {
      "inputs": [
        {
          "internalType": "bytes32",
          "name": "role",
          "type": "bytes32"
        },
        {
          "internalType": "address",
          "name": "account",
          "type": "address"
        }
      ],
      "name": "revokeRole",
      "outputs": [],
      "stateMutability": "nonpayable",
      "type": "function"
    },
    {
      "inputs": [],
      "name": "seance",
      "outputs": [
        {
          "internalType": "contract SeanceCircle",
          "name": "",
          "type": "address"
        }
      ],
      "stateMutability": "view",
      "type": "function",
      "constant": true
    },
    {
      "inputs": [],
      "name": "soul",
      "outputs": [
        {
          "internalType": "contract SoulPower",
          "name": "",
          "type": "address"
        }
      ],
      "stateMutability": "view",
      "type": "function",
      "constant": true
    },
    {
      "inputs": [],
      "name": "soulPerSecond",
      "outputs": [
        {
          "internalType": "uint256",
          "name": "",
          "type": "uint256"
        }
      ],
      "stateMutability": "view",
      "type": "function",
      "constant": true
    },
    {
      "inputs": [],
      "name": "startRate",
      "outputs": [
        {
          "internalType": "uint256",
          "name": "",
          "type": "uint256"
        }
      ],
      "stateMutability": "view",
      "type": "function",
      "constant": true
    },
    {
      "inputs": [],
      "name": "startTime",
      "outputs": [
        {
          "internalType": "uint256",
          "name": "",
          "type": "uint256"
        }
      ],
      "stateMutability": "view",
      "type": "function",
      "constant": true
    },
    {
      "inputs": [
        {
          "internalType": "bytes4",
          "name": "interfaceId",
          "type": "bytes4"
        }
      ],
      "name": "supportsInterface",
      "outputs": [
        {
          "internalType": "bool",
          "name": "",
          "type": "bool"
        }
      ],
      "stateMutability": "view",
      "type": "function",
      "constant": true
    },
    {
      "inputs": [],
      "name": "team",
      "outputs": [
        {
          "internalType": "address",
          "name": "",
          "type": "address"
        }
      ],
      "stateMutability": "view",
      "type": "function",
      "constant": true
    },
    {
      "inputs": [],
      "name": "totalAllocPoint",
      "outputs": [
        {
          "internalType": "uint256",
          "name": "",
          "type": "uint256"
        }
      ],
      "stateMutability": "view",
      "type": "function",
      "constant": true
    },
    {
      "inputs": [],
      "name": "totalWeight",
      "outputs": [
        {
          "internalType": "uint256",
          "name": "",
          "type": "uint256"
        }
      ],
      "stateMutability": "view",
      "type": "function",
      "constant": true
    },
    {
      "inputs": [
        {
          "internalType": "address",
          "name": "newOwner",
          "type": "address"
        }
      ],
      "name": "transferOwnership",
      "outputs": [],
      "stateMutability": "nonpayable",
      "type": "function"
    },
    {
      "inputs": [
        {
          "internalType": "uint256",
          "name": "",
          "type": "uint256"
        },
        {
          "internalType": "address",
          "name": "",
          "type": "address"
        }
      ],
      "name": "userInfo",
      "outputs": [
        {
          "internalType": "uint256",
          "name": "amount",
          "type": "uint256"
        },
        {
          "internalType": "uint256",
          "name": "rewardDebt",
          "type": "uint256"
        },
        {
          "internalType": "uint256",
          "name": "rewardDebtAtTime",
          "type": "uint256"
        },
        {
          "internalType": "uint256",
          "name": "lastWithdrawTime",
          "type": "uint256"
        },
        {
          "internalType": "uint256",
          "name": "firstDepositTime",
          "type": "uint256"
        },
        {
          "internalType": "uint256",
          "name": "timeDelta",
          "type": "uint256"
        },
        {
          "internalType": "uint256",
          "name": "lastDepositTime",
          "type": "uint256"
        }
      ],
      "stateMutability": "view",
      "type": "function",
      "constant": true
    },
    {
      "inputs": [],
      "name": "weight",
      "outputs": [
        {
          "internalType": "uint256",
          "name": "",
          "type": "uint256"
        }
      ],
      "stateMutability": "view",
      "type": "function",
      "constant": true
    },
    {
      "inputs": [
        {
          "internalType": "bytes32",
          "name": "role",
          "type": "bytes32"
        }
      ],
      "name": "hasDivineRole",
      "outputs": [
        {
          "internalType": "bool",
          "name": "",
          "type": "bool"
        }
      ],
      "stateMutability": "view",
      "type": "function",
      "constant": true
    },
    {
      "inputs": [
        {
          "internalType": "address",
          "name": "_soulAddress",
          "type": "address"
        },
        {
          "internalType": "address",
          "name": "_seanceAddress",
          "type": "address"
        },
        {
          "internalType": "uint256",
          "name": "_totalWeight",
          "type": "uint256"
        },
        {
          "internalType": "uint256",
          "name": "_weight",
          "type": "uint256"
        },
        {
          "internalType": "uint256",
          "name": "_stakingAlloc",
          "type": "uint256"
        },
        {
          "internalType": "uint256",
          "name": "_startRate",
          "type": "uint256"
        },
        {
          "internalType": "uint256",
          "name": "_dailyDecay",
          "type": "uint256"
        }
      ],
      "name": "initialize",
      "outputs": [],
      "stateMutability": "nonpayable",
      "type": "function"
    },
    {
      "inputs": [
        {
          "internalType": "uint256",
          "name": "_bonusMultiplier",
          "type": "uint256"
        }
      ],
      "name": "updateMultiplier",
      "outputs": [],
      "stateMutability": "nonpayable",
      "type": "function"
    },
    {
      "inputs": [],
      "name": "poolLength",
      "outputs": [
        {
          "internalType": "uint256",
          "name": "",
          "type": "uint256"
        }
      ],
      "stateMutability": "view",
      "type": "function",
      "constant": true
    },
    {
      "inputs": [
        {
          "internalType": "uint256",
          "name": "_allocPoint",
          "type": "uint256"
        },
        {
          "internalType": "contract IERC20",
          "name": "_lpToken",
          "type": "address"
        },
        {
          "internalType": "bool",
          "name": "_withUpdate",
          "type": "bool"
        }
      ],
      "name": "addPool",
      "outputs": [],
      "stateMutability": "nonpayable",
      "type": "function"
    },
    {
      "inputs": [
        {
          "internalType": "uint256",
          "name": "pid",
          "type": "uint256"
        },
        {
          "internalType": "uint256",
          "name": "allocPoint",
          "type": "uint256"
        },
        {
          "internalType": "bool",
          "name": "withUpdate",
          "type": "bool"
        }
      ],
      "name": "set",
      "outputs": [],
      "stateMutability": "nonpayable",
      "type": "function"
    },
    {
      "inputs": [
        {
          "internalType": "uint256",
          "name": "_weight",
          "type": "uint256"
        }
      ],
      "name": "updateWeight",
      "outputs": [],
      "stateMutability": "nonpayable",
      "type": "function"
    },
    {
      "inputs": [
        {
          "internalType": "contract IMigrator",
          "name": "_migrator",
          "type": "address"
        }
      ],
      "name": "setMigrator",
      "outputs": [],
      "stateMutability": "nonpayable",
      "type": "function"
    },
    {
      "inputs": [
        {
          "internalType": "uint256",
          "name": "_pid",
          "type": "uint256"
        }
      ],
      "name": "userDelta",
      "outputs": [
        {
          "internalType": "uint256",
          "name": "",
          "type": "uint256"
        }
      ],
      "stateMutability": "view",
      "type": "function",
      "constant": true
    },
    {
      "inputs": [
        {
          "internalType": "uint256",
          "name": "pid",
          "type": "uint256"
        }
      ],
      "name": "migrate",
      "outputs": [],
      "stateMutability": "nonpayable",
      "type": "function"
    },
    {
      "inputs": [
        {
          "internalType": "uint256",
          "name": "from",
          "type": "uint256"
        },
        {
          "internalType": "uint256",
          "name": "to",
          "type": "uint256"
        }
      ],
      "name": "getMultiplier",
      "outputs": [
        {
          "internalType": "uint256",
          "name": "",
          "type": "uint256"
        }
      ],
      "stateMutability": "view",
      "type": "function",
      "constant": true
    },
    {
      "inputs": [
        {
          "internalType": "uint256",
          "name": "pid",
          "type": "uint256"
        },
        {
          "internalType": "uint256",
          "name": "timeDelta",
          "type": "uint256"
        }
      ],
      "name": "getFeeRate",
      "outputs": [
        {
          "internalType": "uint256",
          "name": "feeRate",
          "type": "uint256"
        }
      ],
      "stateMutability": "view",
      "type": "function",
      "constant": true
    },
    {
      "inputs": [
        {
          "internalType": "uint256",
          "name": "pid",
          "type": "uint256"
        },
        {
          "internalType": "uint256",
          "name": "amount",
          "type": "uint256"
        }
      ],
      "name": "getFee",
      "outputs": [
        {
          "internalType": "uint256",
          "name": "fee",
          "type": "uint256"
        }
      ],
      "stateMutability": "view",
      "type": "function",
      "constant": true
    },
    {
      "inputs": [
        {
          "internalType": "uint256",
          "name": "pid",
          "type": "uint256"
        },
        {
          "internalType": "uint256",
          "name": "timeDelta",
          "type": "uint256"
        },
        {
          "internalType": "uint256",
          "name": "amount",
          "type": "uint256"
        }
      ],
      "name": "getWithdrawable",
      "outputs": [
        {
          "internalType": "uint256",
          "name": "_feeAmount",
          "type": "uint256"
        },
        {
          "internalType": "uint256",
          "name": "_withdrawable",
          "type": "uint256"
        }
      ],
      "stateMutability": "view",
      "type": "function",
      "constant": true
    },
    {
      "inputs": [
        {
          "internalType": "uint256",
          "name": "pid",
          "type": "uint256"
        }
      ],
      "name": "timeUntilNextDecrease",
      "outputs": [
        {
          "internalType": "uint256",
          "name": "untilNextDecay",
          "type": "uint256"
        }
      ],
      "stateMutability": "view",
      "type": "function",
      "constant": true
    },
    {
      "inputs": [
        {
          "internalType": "uint256",
          "name": "pid",
          "type": "uint256"
        },
        {
          "internalType": "address",
          "name": "_user",
          "type": "address"
        }
      ],
      "name": "pendingSoul",
      "outputs": [
        {
          "internalType": "uint256",
          "name": "pendingAmount",
          "type": "uint256"
        }
      ],
      "stateMutability": "view",
      "type": "function",
      "constant": true
    },
    {
      "inputs": [],
      "name": "massUpdatePools",
      "outputs": [],
      "stateMutability": "nonpayable",
      "type": "function"
    },
    {
      "inputs": [
        {
          "internalType": "uint256",
          "name": "pid",
          "type": "uint256"
        }
      ],
      "name": "updatePool",
      "outputs": [],
      "stateMutability": "nonpayable",
      "type": "function"
    },
    {
      "inputs": [
        {
          "internalType": "uint256",
          "name": "pid",
          "type": "uint256"
        },
        {
          "internalType": "uint256",
          "name": "amount",
          "type": "uint256"
        }
      ],
      "name": "deposit",
      "outputs": [],
      "stateMutability": "nonpayable",
      "type": "function"
    },
    {
      "inputs": [
        {
          "internalType": "uint256",
          "name": "pid",
          "type": "uint256"
        },
        {
          "internalType": "uint256",
          "name": "amount",
          "type": "uint256"
        }
      ],
      "name": "withdraw",
      "outputs": [],
      "stateMutability": "nonpayable",
      "type": "function"
    },
    {
      "inputs": [
        {
          "internalType": "uint256",
          "name": "amount",
          "type": "uint256"
        }
      ],
      "name": "enterStaking",
      "outputs": [],
      "stateMutability": "nonpayable",
      "type": "function"
    },
    {
      "inputs": [
        {
          "internalType": "uint256",
          "name": "amount",
          "type": "uint256"
        }
      ],
      "name": "leaveStaking",
      "outputs": [],
      "stateMutability": "nonpayable",
      "type": "function"
    },
    {
      "inputs": [
        {
          "internalType": "address",
          "name": "_dao",
          "type": "address"
        },
        {
          "internalType": "address",
          "name": "_team",
          "type": "address"
        }
      ],
      "name": "updateAccounts",
      "outputs": [],
      "stateMutability": "nonpayable",
      "type": "function"
    },
    {
      "inputs": [
        {
          "internalType": "address",
          "name": "_soul",
          "type": "address"
        },
        {
          "internalType": "address",
          "name": "_seance",
          "type": "address"
        }
      ],
      "name": "updateTokens",
      "outputs": [],
      "stateMutability": "nonpayable",
      "type": "function"
    },
    {
      "inputs": [
        {
          "internalType": "uint256",
          "name": "_pid",
          "type": "uint256"
        },
        {
          "internalType": "address",
          "name": "_user",
          "type": "address"
        },
        {
          "internalType": "uint256",
          "name": "_time",
          "type": "uint256"
        }
      ],
      "name": "reviseDeposit",
      "outputs": [],
      "stateMutability": "nonpayable",
      "type": "function"
    },
    {
      "inputs": [
        {
          "internalType": "uint256",
          "name": "amount",
          "type": "uint256"
        }
      ],
      "name": "enWei",
      "outputs": [
        {
          "internalType": "uint256",
          "name": "",
          "type": "uint256"
        }
      ],
      "stateMutability": "pure",
      "type": "function",
      "constant": true
    },
    {
      "inputs": [
        {
          "internalType": "uint256",
          "name": "amount",
          "type": "uint256"
        }
      ],
      "name": "fromWei",
      "outputs": [
        {
          "internalType": "uint256",
          "name": "",
          "type": "uint256"
        }
      ],
      "stateMutability": "pure",
      "type": "function",
      "constant": true
    },
    {
      "inputs": [
        {
          "internalType": "uint256",
          "name": "amount",
          "type": "uint256"
        }
      ],
      "name": "oneHundreth",
      "outputs": [
        {
          "internalType": "uint256",
          "name": "",
          "type": "uint256"
        }
      ],
      "stateMutability": "pure",
      "type": "function",
      "constant": true
    }
  ],
  "bytecode": "0x60806040526001600e553480156200001657600080fd5b50620000376200002b620001e060201b60201c565b620001e860201b60201c565b6000600160146101000a81548160ff021916908315150217905550600160028190555033600760006101000a81548173ffffffffffffffffffffffffffffffffffffffff021916908373ffffffffffffffffffffffffffffffffffffffff16021790555033600860006101000a81548173ffffffffffffffffffffffffffffffffffffffff021916908373ffffffffffffffffffffffffffffffffffffffff1602179055507f36d5d8406f8379c6deba01145ec4f6a2966675cc67d71355b397a2a8e3572b296016819055507f0811b25c145e1379dc78112dd91057f09150f6db05dfd7e04deb910e6cefd4b7601781905550620001656000801b6000801b600760009054906101000a900473ffffffffffffffffffffffffffffffffffffffff16620002ae60201b60201c565b506200019f601654601654600760009054906101000a900473ffffffffffffffffffffffffffffffffffffffff16620002ae60201b60201c565b50620001d9601754601654600860009054906101000a900473ffffffffffffffffffffffffffffffffffffffff16620002ae60201b60201c565b50620004d2565b600033905090565b6000600160009054906101000a900473ffffffffffffffffffffffffffffffffffffffff16905081600160006101000a81548173ffffffffffffffffffffffffffffffffffffffff021916908373ffffffffffffffffffffffffffffffffffffffff1602179055508173ffffffffffffffffffffffffffffffffffffffff168173ffffffffffffffffffffffffffffffffffffffff167f8be0079c531659141344cd1fd0a4f28419497f9722a3daafe3b4186f6b6457e060405160405180910390a35050565b6000620002c28483620002df60201b60201c565b620002d48484620002f560201b60201c565b600190509392505050565b620002f182826200035860201b60201c565b5050565b600062000308836200044960201b60201c565b905081600080858152602001908152602001600020600101819055508181847fbd79b86ffe0ab8e8776151514217cd7cacd52c909f66475c3af44e129f0b00ff60405160405180910390a4505050565b6200036a82826200046860201b60201c565b6200044557600160008084815260200190815260200160002060000160008373ffffffffffffffffffffffffffffffffffffffff1673ffffffffffffffffffffffffffffffffffffffff16815260200190815260200160002060006101000a81548160ff021916908315150217905550620003ea620001e060201b60201c565b73ffffffffffffffffffffffffffffffffffffffff168173ffffffffffffffffffffffffffffffffffffffff16837f2f8788117e7eff1d82e926ec794901d17c78024a50270940304540a733656f0d60405160405180910390a45b5050565b6000806000838152602001908152602001600020600101549050919050565b600080600084815260200190815260200160002060000160008373ffffffffffffffffffffffffffffffffffffffff1673ffffffffffffffffffffffffffffffffffffffff16815260200190815260200160002060009054906101000a900460ff16905092915050565b615ce480620004e26000396000f3fe608060405234801561001057600080fd5b506004361061038e5760003560e01c8063815b7a8c116101de578063d250185c1161010f578063e7aa29e3116100ad578063f2fde38b1161007c578063f2fde38b14610ab3578063fb60dc1814610acf578063fc90fdc014610aff578063fd6f99d014610b1d5761038e565b8063e7aa29e314610a41578063ea4bf44614610a5d578063ec3df6ad14610a7b578063edbf4ac214610a975761038e565b8063dbaef9b0116100e9578063dbaef9b0146109a9578063e13e8ec2146109d9578063e2bbb158146109f5578063e65d152214610a115761038e565b8063d250185c1461092d578063d547741f1461095d578063da755b4b146109795761038e565b806396c82e571161017c578063a217fddf11610156578063a217fddf14610891578063a8b973a1146108af578063bfafcad5146108cd578063cf94ee96146108fd5761038e565b806396c82e57146108255780639f6c542614610843578063a1aab33f146108735761038e565b80638da5cb5b116101b85780638da5cb5b146107715780638dbb1e3a1461078f57806391d14854146107bf57806393f1a40b146107ef5761038e565b8063815b7a8c1461071957806382386d581461073757806385f2aef2146107535761038e565b8063441a3e70116102c3578063630b5ba1116102615780637abceffd116102305780637abceffd146106905780637cd07e47146106ac5780637d500ec8146106ca5780637e668b42146106e85761038e565b8063630b5ba11461064257806364482f791461064c578063715018a61461066857806378e97925146106725761038e565b806351eb05a61161029d57806351eb05a6146105ce5780635c975abb146105ea5780635f9bf689146106085780635ffe6146146106265761038e565b8063441a3e7014610578578063454b0608146105945780634ca01d45146105b05761038e565b806323cf31181161033057806336568abe1161030a57806336568abe14610504578063392e53cd1461052057806341441d3b1461053e5780634162169f1461055a5761038e565b806323cf31181461049c578063248a9ca3146104b85780632f2ff15d146104e85761038e565b80631058d2811161036c5780631058d281146104115780631254f0dc1461042d5780631526fe271461044b57806317caf6f11461047e5761038e565b806301ffc9a714610393578063081e3eda146103c357806309ae4d2c146103e1575b600080fd5b6103ad60048036038101906103a891906149c4565b610b3b565b6040516103ba91906153f2565b60405180910390f35b6103cb610bb5565b6040516103d8919061575b565b60405180910390f35b6103fb60048036038101906103f69190614a3f565b610bc2565b604051610408919061575b565b60405180910390f35b61042b60048036038101906104269190614a3f565b610c61565b005b610435610fd9565b604051610442919061575b565b60405180910390f35b61046560048036038101906104609190614a3f565b610fdf565b6040516104759493929190615443565b60405180910390f35b61048661103f565b604051610493919061575b565b60405180910390f35b6104b660048036038101906104b19190614a16565b611045565b005b6104d260048036038101906104cd919061495f565b6110ed565b6040516104df919061540d565b60405180910390f35b61050260048036038101906104fd9190614988565b61110c565b005b61051e60048036038101906105199190614988565b611135565b005b6105286111b8565b60405161053591906153f2565b60405180910390f35b61055860048036038101906105539190614a3f565b6111cb565b005b610562611552565b60405161056f91906152ed565b60405180910390f35b610592600480360381019061058d9190614b6b565b611578565b005b6105ae60048036038101906105a99190614a3f565b611a2c565b005b6105b8611ecd565b6040516105c591906154a3565b60405180910390f35b6105e860048036038101906105e39190614a3f565b611ef3565b005b6105f2612344565b6040516105ff91906153f2565b60405180910390f35b61061061235b565b60405161061d919061575b565b60405180910390f35b610640600480360381019061063b9190614a3f565b612361565b005b61064a612380565b005b61066660048036038101906106619190614ba7565b6123b3565b005b61067061257d565b005b61067a612605565b604051610687919061575b565b60405180910390f35b6106aa60048036038101906106a59190614b1c565b61260b565b005b6106b4612688565b6040516106c19190615488565b60405180910390f35b6106d26126ae565b6040516106df919061575b565b60405180910390f35b61070260048036038101906106fd9190614bf6565b6126b4565b6040516107109291906157ad565b60405180910390f35b610721612702565b60405161072e91906154be565b60405180910390f35b610751600480360381019061074c9190614acd565b612728565b005b61075b6127db565b60405161076891906152ed565b60405180910390f35b610779612801565b60405161078691906152ed565b60405180910390f35b6107a960048036038101906107a49190614b6b565b61282b565b6040516107b6919061575b565b60405180910390f35b6107d960048036038101906107d49190614988565b61284e565b6040516107e691906153f2565b60405180910390f35b61080960048036038101906108049190614a91565b6128b8565b60405161081c979695949392919061581b565b60405180910390f35b61082d612907565b60405161083a919061575b565b60405180910390f35b61085d60048036038101906108589190614b6b565b61290d565b60405161086a919061575b565b60405180910390f35b61087b612985565b604051610888919061575b565b60405180910390f35b61089961298b565b6040516108a6919061540d565b60405180910390f35b6108b7612992565b6040516108c4919061575b565b60405180910390f35b6108e760048036038101906108e29190614a91565b612998565b6040516108f4919061575b565b60405180910390f35b61091760048036038101906109129190614a3f565b612bb3565b604051610924919061575b565b60405180910390f35b61094760048036038101906109429190614b6b565b612bd0565b604051610954919061575b565b60405180910390f35b61097760048036038101906109729190614988565b612c9c565b005b610993600480360381019061098e9190614a3f565b612cc5565b6040516109a0919061575b565b60405180910390f35b6109c360048036038101906109be919061495f565b612dd9565b6040516109d091906153f2565b60405180910390f35b6109f360048036038101906109ee919061485c565b612dec565b005b610a0f6004803603810190610a0a9190614b6b565b612fee565b005b610a2b6004803603810190610a269190614a3f565b613398565b604051610a38919061575b565b60405180910390f35b610a5b6004803603810190610a56919061485c565b6133b5565b005b610a65613573565b604051610a72919061540d565b60405180910390f35b610a956004803603810190610a909190614a3f565b613579565b005b610ab16004803603810190610aac9190614898565b6136e5565b005b610acd6004803603810190610ac89190614833565b613adc565b005b610ae96004803603810190610ae49190614a3f565b613bd4565b604051610af6919061575b565b60405180910390f35b610b07613bf0565b604051610b14919061575b565b60405180910390f35b610b25613bf6565b604051610b32919061540d565b60405180910390f35b60007f7965db0b000000000000000000000000000000000000000000000000000000007bffffffffffffffffffffffffffffffffffffffffffffffffffffffff1916827bffffffffffffffffffffffffffffffffffffffffffffffffffffffff19161480610bae5750610bad82613bfc565b5b9050919050565b6000601480549050905090565b6000806015600084815260200190815260200160002060003373ffffffffffffffffffffffffffffffffffffffff1673ffffffffffffffffffffffffffffffffffffffff1681526020019081526020016000209050600081600301541115610c42576000816003015443610c369190615992565b90508092505050610c5c565b6000816004015443610c549190615992565b905080925050505b919050565b600280541415610ca6576040517f08c379a0000000000000000000000000000000000000000000000000000000008152600401610c9d906156db565b60405180910390fd5b6002808190555060006014600081548110610cea577f4e487b7100000000000000000000000000000000000000000000000000000000600052603260045260246000fd5b9060005260206000209060040201905060006015600080815260200190815260200160002060003373ffffffffffffffffffffffffffffffffffffffff1673ffffffffffffffffffffffffffffffffffffffff16815260200190815260200160002090508281600001541015610d95576040517f08c379a0000000000000000000000000000000000000000000000000000000008152600401610d8c9061567b565b60405180910390fd5b610d9f6000611ef3565b6000816001015464e8d4a5100084600301548460000154610dc09190615938565b610dca9190615907565b610dd49190615992565b90506000811115610dea57610de93382613c66565b5b6000841115610ebe57838260000154610e039190615992565b82600001819055508260000160009054906101000a900473ffffffffffffffffffffffffffffffffffffffff1673ffffffffffffffffffffffffffffffffffffffff1663a9059cbb33866040518363ffffffff1660e01b8152600401610e6a9291906153c9565b602060405180830381600087803b158015610e8457600080fd5b505af1158015610e98573d6000803e3d6000fd5b505050506040513d601f19601f82011682018060405250810190610ebc9190614936565b505b64e8d4a5100083600301548360000154610ed89190615938565b610ee29190615907565b8260010181905550600660009054906101000a900473ffffffffffffffffffffffffffffffffffffffff1673ffffffffffffffffffffffffffffffffffffffff16639dc29fac33866040518363ffffffff1660e01b8152600401610f479291906153c9565b600060405180830381600087803b158015610f6157600080fd5b505af1158015610f75573d6000803e3d6000fd5b5050505060003373ffffffffffffffffffffffffffffffffffffffff167f02f25270a4d87bea75db541cdfe559334a275b4a233520ed6c0a2429667cca948642604051610fc39291906157ad565b60405180910390a3505050600160028190555050565b60135481565b60148181548110610fef57600080fd5b90600052602060002090600402016000915090508060000160009054906101000a900473ffffffffffffffffffffffffffffffffffffffff16908060010154908060020154908060030154905084565b60105481565b601160009054906101000a900460ff16611094576040517f08c379a000000000000000000000000000000000000000000000000000000000815260040161108b9061573b565b60405180910390fd5b6016546110a8816110a3613cf9565b613d01565b81600960006101000a81548173ffffffffffffffffffffffffffffffffffffffff021916908373ffffffffffffffffffffffffffffffffffffffff1602179055505050565b6000806000838152602001908152602001600020600101549050919050565b611115826110ed565b61112681611121613cf9565b613d01565b6111308383613d9e565b505050565b61113d613cf9565b73ffffffffffffffffffffffffffffffffffffffff168173ffffffffffffffffffffffffffffffffffffffff16146111aa576040517f08c379a00000000000000000000000000000000000000000000000000000000081526004016111a1906156fb565b60405180910390fd5b6111b48282613e7e565b5050565b601160009054906101000a900460ff1681565b600280541415611210576040517f08c379a0000000000000000000000000000000000000000000000000000000008152600401611207906156db565b60405180910390fd5b6002808190555061121f612344565b1561125f576040517f08c379a00000000000000000000000000000000000000000000000000000000081526004016112569061553b565b60405180910390fd5b6000601460008154811061129c577f4e487b7100000000000000000000000000000000000000000000000000000000600052603260045260246000fd5b9060005260206000209060040201905060006015600080815260200190815260200160002060003373ffffffffffffffffffffffffffffffffffffffff1673ffffffffffffffffffffffffffffffffffffffff168152602001908152602001600020905061130a6000611ef3565b600081600001541115611364576000816001015464e8d4a51000846003015484600001546113389190615938565b6113429190615907565b61134c9190615992565b90506000811115611362576113613382613c66565b5b505b600083111561143a578160000160009054906101000a900473ffffffffffffffffffffffffffffffffffffffff1673ffffffffffffffffffffffffffffffffffffffff166323b872dd3330866040518463ffffffff1660e01b81526004016113ce93929190615392565b602060405180830381600087803b1580156113e857600080fd5b505af11580156113fc573d6000803e3d6000fd5b505050506040513d601f19601f820116820180604052508101906114209190614936565b5082816000015461143191906158b1565b81600001819055505b64e8d4a51000826003015482600001546114549190615938565b61145e9190615907565b8160010181905550600660009054906101000a900473ffffffffffffffffffffffffffffffffffffffff1673ffffffffffffffffffffffffffffffffffffffff166340c10f1933856040518363ffffffff1660e01b81526004016114c39291906153c9565b600060405180830381600087803b1580156114dd57600080fd5b505af11580156114f1573d6000803e3d6000fd5b5050505060003373ffffffffffffffffffffffffffffffffffffffff167f90890809c654f11d6e72a28fa60149770a0d11ec6c92319d6ceb2bb0a4ea1a158560405161153d919061575b565b60405180910390a35050600160028190555050565b600860009054906101000a900473ffffffffffffffffffffffffffffffffffffffff1681565b6002805414156115bd576040517f08c379a00000000000000000000000000000000000000000000000000000000081526004016115b4906156db565b60405180910390fd5b6002808190555081601480549050811061160c576040517f08c379a00000000000000000000000000000000000000000000000000000000081526004016116039061563b565b60405180910390fd5b6000831415611650576040517f08c379a00000000000000000000000000000000000000000000000000000000081526004016116479061559b565b60405180910390fd5b60006014848154811061168c577f4e487b7100000000000000000000000000000000000000000000000000000000600052603260045260246000fd5b9060005260206000209060040201905060006015600086815260200190815260200160002060003373ffffffffffffffffffffffffffffffffffffffff1673ffffffffffffffffffffffffffffffffffffffff16815260200190815260200160002090508381600001541015611737576040517f08c379a000000000000000000000000000000000000000000000000000000000815260040161172e9061569b565b60405180910390fd5b61174085611ef3565b6000816001015464e8d4a51000846003015484600001546117619190615938565b61176b9190615907565b6117759190615992565b9050600081111561178b5761178a3382613c66565b5b60008511156117f0576000826006015411156117be578160060154426117b19190615992565b82600501819055506117d7565b8160040154426117ce9190615992565b82600501819055505b8482600001546117e79190615992565b82600001819055505b60006117fc8787612bd0565b90506000818761180c9190615992565b90508460000160009054906101000a900473ffffffffffffffffffffffffffffffffffffffff1673ffffffffffffffffffffffffffffffffffffffff1663a9059cbb600860009054906101000a900473ffffffffffffffffffffffffffffffffffffffff16846040518363ffffffff1660e01b815260040161188f9291906153c9565b602060405180830381600087803b1580156118a957600080fd5b505af11580156118bd573d6000803e3d6000fd5b505050506040513d601f19601f820116820180604052508101906118e19190614936565b508460000160009054906101000a900473ffffffffffffffffffffffffffffffffffffffff1673ffffffffffffffffffffffffffffffffffffffff1663a9059cbb33836040518363ffffffff1660e01b81526004016119419291906153c9565b602060405180830381600087803b15801561195b57600080fd5b505af115801561196f573d6000803e3d6000fd5b505050506040513d601f19601f820116820180604052508101906119939190614936565b5064e8d4a51000856003015485600001546119ae9190615938565b6119b89190615907565b8460010181905550428460030181905550873373ffffffffffffffffffffffffffffffffffffffff167f02f25270a4d87bea75db541cdfe559334a275b4a233520ed6c0a2429667cca948942604051611a129291906157ad565b60405180910390a350505050505060016002819055505050565b601160009054906101000a900460ff16611a7b576040517f08c379a0000000000000000000000000000000000000000000000000000000008152600401611a729061573b565b60405180910390fd5b806014805490508110611ac3576040517f08c379a0000000000000000000000000000000000000000000000000000000008152600401611aba9061563b565b60405180910390fd5b600073ffffffffffffffffffffffffffffffffffffffff16600960009054906101000a900473ffffffffffffffffffffffffffffffffffffffff1673ffffffffffffffffffffffffffffffffffffffff161415611b55576040517f08c379a0000000000000000000000000000000000000000000000000000000008152600401611b4c9061557b565b60405180910390fd5b600060148381548110611b91577f4e487b7100000000000000000000000000000000000000000000000000000000600052603260045260246000fd5b9060005260206000209060040201905060008160000160009054906101000a900473ffffffffffffffffffffffffffffffffffffffff16905060008173ffffffffffffffffffffffffffffffffffffffff166370a08231306040518263ffffffff1660e01b8152600401611c0591906152ed565b60206040518083038186803b158015611c1d57600080fd5b505afa158015611c31573d6000803e3d6000fd5b505050506040513d601f19601f82011682018060405250810190611c559190614a68565b90508173ffffffffffffffffffffffffffffffffffffffff1663095ea7b3600960009054906101000a900473ffffffffffffffffffffffffffffffffffffffff16836040518363ffffffff1660e01b8152600401611cb49291906153c9565b602060405180830381600087803b158015611cce57600080fd5b505af1158015611ce2573d6000803e3d6000fd5b505050506040513d601f19601f82011682018060405250810190611d069190614936565b506000600960009054906101000a900473ffffffffffffffffffffffffffffffffffffffff1673ffffffffffffffffffffffffffffffffffffffff1663ce5494bb846040518263ffffffff1660e01b8152600401611d649190615428565b602060405180830381600087803b158015611d7e57600080fd5b505af1158015611d92573d6000803e3d6000fd5b505050506040513d601f19601f82011682018060405250810190611db691906149ed565b90508073ffffffffffffffffffffffffffffffffffffffff166370a08231306040518263ffffffff1660e01b8152600401611df191906152ed565b60206040518083038186803b158015611e0957600080fd5b505afa158015611e1d573d6000803e3d6000fd5b505050506040513d601f19601f82011682018060405250810190611e419190614a68565b8214611e82576040517f08c379a0000000000000000000000000000000000000000000000000000000008152600401611e799061571b565b60405180910390fd5b808460000160006101000a81548173ffffffffffffffffffffffffffffffffffffffff021916908373ffffffffffffffffffffffffffffffffffffffff160217905550505050505050565b600660009054906101000a900473ffffffffffffffffffffffffffffffffffffffff1681565b806014805490508110611f3b576040517f08c379a0000000000000000000000000000000000000000000000000000000008152600401611f329061563b565b60405180910390fd5b600060148381548110611f77577f4e487b7100000000000000000000000000000000000000000000000000000000600052603260045260246000fd5b9060005260206000209060040201905080600201544211611f985750612340565b60008160000160009054906101000a900473ffffffffffffffffffffffffffffffffffffffff1673ffffffffffffffffffffffffffffffffffffffff166370a08231306040518263ffffffff1660e01b8152600401611ff791906152ed565b60206040518083038186803b15801561200f57600080fd5b505afa158015612023573d6000803e3d6000fd5b505050506040513d601f19601f820116820180604052508101906120479190614a68565b90506000811415612062574282600201819055505050612340565b600061207283600201544261282b565b905060006010548460010154600d548461208c9190615938565b6120969190615938565b6120a09190615907565b90506000650746a528800064e8d4a51000836120bc9190615938565b6120c69190615907565b905060006002826120d79190615938565b9050600081846120e79190615992565b9050600460009054906101000a900473ffffffffffffffffffffffffffffffffffffffff1673ffffffffffffffffffffffffffffffffffffffff166340c10f19600760009054906101000a900473ffffffffffffffffffffffffffffffffffffffff16856040518363ffffffff1660e01b81526004016121689291906153c9565b600060405180830381600087803b15801561218257600080fd5b505af1158015612196573d6000803e3d6000fd5b50505050600460009054906101000a900473ffffffffffffffffffffffffffffffffffffffff1673ffffffffffffffffffffffffffffffffffffffff166340c10f19600860009054906101000a900473ffffffffffffffffffffffffffffffffffffffff16856040518363ffffffff1660e01b81526004016122199291906153c9565b600060405180830381600087803b15801561223357600080fd5b505af1158015612247573d6000803e3d6000fd5b50505050600460009054906101000a900473ffffffffffffffffffffffffffffffffffffffff1673ffffffffffffffffffffffffffffffffffffffff166340c10f19600660009054906101000a900473ffffffffffffffffffffffffffffffffffffffff16836040518363ffffffff1660e01b81526004016122ca9291906153c9565b600060405180830381600087803b1580156122e457600080fd5b505af11580156122f8573d6000803e3d6000fd5b505050508564e8d4a510008561230e9190615938565b6123189190615907565b876003015461232791906158b1565b8760030181905550428760020181905550505050505050505b5050565b6000600160149054906101000a900460ff16905090565b600d5481565b60175461237581612370613cf9565b613d01565b81600e819055505050565b6000601480549050905060005b818110156123af5761239e81611ef3565b806123a890615b55565b905061238d565b5050565b601160009054906101000a900460ff16612402576040517f08c379a00000000000000000000000000000000000000000000000000000000081526004016123f99061573b565b60405180910390fd5b82601480549050811061244a576040517f08c379a00000000000000000000000000000000000000000000000000000000081526004016124419061563b565b60405180910390fd5b60175461245e81612459613cf9565b613d01565b821561246d5761246c612380565b5b6000601486815481106124a9577f4e487b7100000000000000000000000000000000000000000000000000000000600052603260045260246000fd5b906000526020600020906004020160010154905084601487815481106124f8577f4e487b7100000000000000000000000000000000000000000000000000000000600052603260045260246000fd5b90600052602060002090600402016001018190555084811461253c5784816010546125239190615992565b61252d91906158b1565b60108190555061253b613f5f565b5b7fd88f859573973e938da5bf3e5100c16eee2090fa720e05ae3d452b4cd05cdcfd868660405161256d9291906157ad565b60405180910390a1505050505050565b612585613cf9565b73ffffffffffffffffffffffffffffffffffffffff166125a3612801565b73ffffffffffffffffffffffffffffffffffffffff16146125f9576040517f08c379a00000000000000000000000000000000000000000000000000000000081526004016125f0906155db565b60405180910390fd5b61260360006140bc565b565b600f5481565b601160009054906101000a900460ff1661265a576040517f08c379a00000000000000000000000000000000000000000000000000000000081526004016126519061573b565b60405180910390fd5b60165461266e81612669613cf9565b613d01565b61267783614182565b612682848484614287565b50505050565b600960009054906101000a900473ffffffffffffffffffffffffffffffffffffffff1681565b600c5481565b60008060006126c3868661290d565b90506000606482866126d59190615938565b6126df9190615907565b9050600081866126ef9190615992565b9050818194509450505050935093915050565b600460009054906101000a900473ffffffffffffffffffffffffffffffffffffffff1681565b60175461273c81612737613cf9565b613d01565b60006015600086815260200190815260200160002060008573ffffffffffffffffffffffffffffffffffffffff1673ffffffffffffffffffffffffffffffffffffffff16815260200190815260200160002090508281600401819055507f40d6e8e3d60e4693375c73df2d1a71d582a28197c98fd8d2badad6ead06af64c8585856040516127cc93929190615776565b60405180910390a15050505050565b600760009054906101000a900473ffffffffffffffffffffffffffffffffffffffff1681565b6000600160009054906101000a900473ffffffffffffffffffffffffffffffffffffffff16905090565b6000600e54838361283c9190615992565b6128469190615938565b905092915050565b600080600084815260200190815260200160002060000160008373ffffffffffffffffffffffffffffffffffffffff1673ffffffffffffffffffffffffffffffffffffffff16815260200190815260200160002060009054906101000a900460ff16905092915050565b6015602052816000526040600020602052806000526040600020600091509150508060000154908060010154908060020154908060030154908060040154908060050154908060060154905087565b600a5481565b60008062015180831061292e5762015180836129299190615907565b612931565b60005b90506000601254826129439190615938565b90506000601354821015612964578160135461295f9190615992565b612967565b60005b905060008614612977578061297a565b60005b935050505092915050565b600b5481565b6000801b81565b600e5481565b600080601484815481106129d5577f4e487b7100000000000000000000000000000000000000000000000000000000600052603260045260246000fd5b9060005260206000209060040201905060006015600086815260200190815260200160002060008573ffffffffffffffffffffffffffffffffffffffff1673ffffffffffffffffffffffffffffffffffffffff168152602001908152602001600020905060008260030154905060008360000160009054906101000a900473ffffffffffffffffffffffffffffffffffffffff1673ffffffffffffffffffffffffffffffffffffffff166370a08231306040518263ffffffff1660e01b8152600401612aa191906152ed565b60206040518083038186803b158015612ab957600080fd5b505afa158015612acd573d6000803e3d6000fd5b505050506040513d601f19601f82011682018060405250810190612af19190614a68565b9050836002015442118015612b07575060008114155b15612b78576000612b1c85600201544261282b565b905060006010548660010154600d5484612b369190615938565b612b409190615938565b612b4a9190615907565b90508264e8d4a5100082612b5e9190615938565b612b689190615907565b84612b7391906158b1565b935050505b826001015464e8d4a51000838560000154612b939190615938565b612b9d9190615907565b612ba79190615992565b94505050505092915050565b6000670de0b6b3a764000082612bc99190615938565b9050919050565b6000806015600085815260200190815260200160002060003373ffffffffffffffffffffffffffffffffffffffff1673ffffffffffffffffffffffffffffffffffffffff16815260200190815260200160002060050154905060006012546201518083612c3d9190615907565b612c479190615938565b90506000606482601354612c5b9190615992565b612c659190615907565b9050600081612c7387613398565b612c7d9190615938565b905060008714612c8d5780612c90565b60005b94505050505092915050565b612ca5826110ed565b612cb681612cb1613cf9565b613d01565b612cc08383613e7e565b505050565b6000806015600080815260200190815260200160002060003373ffffffffffffffffffffffffffffffffffffffff1673ffffffffffffffffffffffffffffffffffffffff1681526020019081526020016000209050600080826006015411612d80576015600085815260200190815260200160002060003373ffffffffffffffffffffffffffffffffffffffff1673ffffffffffffffffffffffffffffffffffffffff16815260200190815260200160002060050154612d91565b816006015442612d909190615992565b5b90506000808214612db0576201518082612dab9190615907565b612db3565b60005b90508062015180612dc49190615938565b82612dcf9190615992565b9350505050919050565b6000612de5823361284e565b9050919050565b601654612e0081612dfb613cf9565b613d01565b8273ffffffffffffffffffffffffffffffffffffffff16600860009054906101000a900473ffffffffffffffffffffffffffffffffffffffff1673ffffffffffffffffffffffffffffffffffffffff16141580612eab57508173ffffffffffffffffffffffffffffffffffffffff16600760009054906101000a900473ffffffffffffffffffffffffffffffffffffffff1673ffffffffffffffffffffffffffffffffffffffff1614155b612eea576040517f08c379a0000000000000000000000000000000000000000000000000000000008152600401612ee19061561b565b60405180910390fd5b82600860006101000a81548173ffffffffffffffffffffffffffffffffffffffff021916908373ffffffffffffffffffffffffffffffffffffffff16021790555081600760006101000a81548173ffffffffffffffffffffffffffffffffffffffff021916908373ffffffffffffffffffffffffffffffffffffffff1602179055507fd1c04282701cbf58aa2f0026f6876051cf3feb8ee7b8b5b5532ebb4ab03fb5d4600860009054906101000a900473ffffffffffffffffffffffffffffffffffffffff16600760009054906101000a900473ffffffffffffffffffffffffffffffffffffffff16604051612fe1929190615308565b60405180910390a1505050565b600280541415613033576040517f08c379a000000000000000000000000000000000000000000000000000000000815260040161302a906156db565b60405180910390fd5b60028081905550816014805490508110613082576040517f08c379a00000000000000000000000000000000000000000000000000000000081526004016130799061563b565b60405180910390fd5b61308a612344565b156130ca576040517f08c379a00000000000000000000000000000000000000000000000000000000081526004016130c19061553b565b60405180910390fd5b600083141561310e576040517f08c379a0000000000000000000000000000000000000000000000000000000008152600401613105906155bb565b60405180910390fd5b60006014848154811061314a577f4e487b7100000000000000000000000000000000000000000000000000000000600052603260045260246000fd5b9060005260206000209060040201905060006015600086815260200190815260200160002060003373ffffffffffffffffffffffffffffffffffffffff1673ffffffffffffffffffffffffffffffffffffffff16815260200190815260200160002090506131b785611ef3565b600081600001541115613211576000816001015464e8d4a51000846003015484600001546131e59190615938565b6131ef9190615907565b6131f99190615992565b9050600081111561320f5761320e3382613c66565b5b505b60008411156132e7578160000160009054906101000a900473ffffffffffffffffffffffffffffffffffffffff1673ffffffffffffffffffffffffffffffffffffffff166323b872dd3330876040518463ffffffff1660e01b815260040161327b93929190615392565b602060405180830381600087803b15801561329557600080fd5b505af11580156132a9573d6000803e3d6000fd5b505050506040513d601f19601f820116820180604052508101906132cd9190614936565b508381600001546132de91906158b1565b81600001819055505b64e8d4a51000826003015482600001546133019190615938565b61330b9190615907565b8160010181905550600081600401541161332c574281600401819055613339565b8060040154816004018190555b50843373ffffffffffffffffffffffffffffffffffffffff167f90890809c654f11d6e72a28fa60149770a0d11ec6c92319d6ceb2bb0a4ea1a1586604051613381919061575b565b60405180910390a350505060016002819055505050565b6000670de0b6b3a7640000826133ae9190615907565b9050919050565b6016546133c9816133c4613cf9565b613d01565b8273ffffffffffffffffffffffffffffffffffffffff16600460009054906101000a900473ffffffffffffffffffffffffffffffffffffffff1673ffffffffffffffffffffffffffffffffffffffff1614158061347457508173ffffffffffffffffffffffffffffffffffffffff16600660009054906101000a900473ffffffffffffffffffffffffffffffffffffffff1673ffffffffffffffffffffffffffffffffffffffff1614155b6134b3576040517f08c379a00000000000000000000000000000000000000000000000000000000081526004016134aa906155fb565b60405180910390fd5b82600460006101000a81548173ffffffffffffffffffffffffffffffffffffffff021916908373ffffffffffffffffffffffffffffffffffffffff16021790555081600660006101000a81548173ffffffffffffffffffffffffffffffffffffffff021916908373ffffffffffffffffffffffffffffffffffffffff1602179055507fdcc6331013de89f8c595d5328f0a724194f113cb6f8f2a707b3dff6de13f0d178383604051613566929190615308565b60405180910390a1505050565b60165481565b601160009054906101000a900460ff166135c8576040517f08c379a00000000000000000000000000000000000000000000000000000000081526004016135bf9061573b565b60405180910390fd5b6017546135dc816135d7613cf9565b613d01565b81600b541415613621576040517f08c379a00000000000000000000000000000000000000000000000000000000081526004016136189061565b565b60405180910390fd5b81600b541015613658576000600b548361363b9190615992565b905080600a600082825461364f91906158b1565b92505081905550505b81600b54111561368f57600082600b546136729190615992565b905080600a60008282546136869190615992565b92505081905550505b81600b819055506136a4600b54600a546143e2565b7fb298bc23e07860d501fddce288f46d761aa04a0c7c3316099eb50f097aacf304600b54600a546040516136d99291906157ad565b60405180910390a15050565b6016546136f9816136f4613cf9565b613d01565b601160009054906101000a900460ff1615613749576040517f08c379a00000000000000000000000000000000000000000000000000000000081526004016137409061555b565b60405180910390fd5b87600360006101000a81548173ffffffffffffffffffffffffffffffffffffffff021916908373ffffffffffffffffffffffffffffffffffffffff16021790555086600560006101000a81548173ffffffffffffffffffffffffffffffffffffffff021916908373ffffffffffffffffffffffffffffffffffffffff16021790555042600f8190555084866137de91906158b1565b600a8190555084600b819055506137f483612bb3565b60138190555061380382613bd4565b6012819055506000849050600360009054906101000a900473ffffffffffffffffffffffffffffffffffffffff16600460006101000a81548173ffffffffffffffffffffffffffffffffffffffff021916908373ffffffffffffffffffffffffffffffffffffffff160217905550600560009054906101000a900473ffffffffffffffffffffffffffffffffffffffff16600660006101000a81548173ffffffffffffffffffffffffffffffffffffffff021916908373ffffffffffffffffffffffffffffffffffffffff1602179055506138e2600b54600a546143e2565b60146040518060800160405280600460009054906101000a900473ffffffffffffffffffffffffffffffffffffffff1673ffffffffffffffffffffffffffffffffffffffff168152602001838152602001600f5481526020016000815250908060018154018082558091505060019003906000526020600020906004020160009091909190915060008201518160000160006101000a81548173ffffffffffffffffffffffffffffffffffffffff021916908373ffffffffffffffffffffffffffffffffffffffff16021790555060208201518160010155604082015181600201556060820151816003015550506001601160006101000a81548160ff02191690831515021790555080601060008282546139fd91906158b1565b925050819055507f0476c5e4920930815a67a5a042e26836431f494d3be0f6e10c3034787a7a15f9600760009054906101000a900473ffffffffffffffffffffffffffffffffffffffff16600860009054906101000a900473ffffffffffffffffffffffffffffffffffffffff16600360009054906101000a900473ffffffffffffffffffffffffffffffffffffffff16600560009054906101000a900473ffffffffffffffffffffffffffffffffffffffff16601054600b54604051613ac996959493929190615331565b60405180910390a1505050505050505050565b613ae4613cf9565b73ffffffffffffffffffffffffffffffffffffffff16613b02612801565b73ffffffffffffffffffffffffffffffffffffffff1614613b58576040517f08c379a0000000000000000000000000000000000000000000000000000000008152600401613b4f906155db565b60405180910390fd5b600073ffffffffffffffffffffffffffffffffffffffff168173ffffffffffffffffffffffffffffffffffffffff161415613bc8576040517f08c379a0000000000000000000000000000000000000000000000000000000008152600401613bbf9061551b565b60405180910390fd5b613bd1816140bc565b50565b6000662386f26fc1000082613be99190615938565b9050919050565b60125481565b60175481565b60007f01ffc9a7000000000000000000000000000000000000000000000000000000007bffffffffffffffffffffffffffffffffffffffffffffffffffffffff1916827bffffffffffffffffffffffffffffffffffffffffffffffffffffffff1916149050919050565b600660009054906101000a900473ffffffffffffffffffffffffffffffffffffffff1673ffffffffffffffffffffffffffffffffffffffff1663b2a142aa83836040518363ffffffff1660e01b8152600401613cc39291906153c9565b600060405180830381600087803b158015613cdd57600080fd5b505af1158015613cf1573d6000803e3d6000fd5b505050505050565b600033905090565b613d0b828261284e565b613d9a57613d308173ffffffffffffffffffffffffffffffffffffffff166014614467565b613d3e8360001c6020614467565b604051602001613d4f9291906152b3565b6040516020818303038152906040526040517f08c379a0000000000000000000000000000000000000000000000000000000008152600401613d9191906154d9565b60405180910390fd5b5050565b613da8828261284e565b613e7a57600160008084815260200190815260200160002060000160008373ffffffffffffffffffffffffffffffffffffffff1673ffffffffffffffffffffffffffffffffffffffff16815260200190815260200160002060006101000a81548160ff021916908315150217905550613e1f613cf9565b73ffffffffffffffffffffffffffffffffffffffff168173ffffffffffffffffffffffffffffffffffffffff16837f2f8788117e7eff1d82e926ec794901d17c78024a50270940304540a733656f0d60405160405180910390a45b5050565b613e88828261284e565b15613f5b57600080600084815260200190815260200160002060000160008373ffffffffffffffffffffffffffffffffffffffff1673ffffffffffffffffffffffffffffffffffffffff16815260200190815260200160002060006101000a81548160ff021916908315150217905550613f00613cf9565b73ffffffffffffffffffffffffffffffffffffffff168173ffffffffffffffffffffffffffffffffffffffff16837ff6391f5c32d9c69d2a47ea670b442974b53935d1edc7fd64eb21e047a839171b60405160405180910390a45b5050565b60006014805490509050600080600190505b82811015613fe35760148181548110613fb3577f4e487b7100000000000000000000000000000000000000000000000000000000600052603260045260246000fd5b90600052602060002090600402016001015482613fd091906158b1565b915080613fdc90615b55565b9050613f71565b50600081146140b857600381613ff99190615907565b9050806014600081548110614037577f4e487b7100000000000000000000000000000000000000000000000000000000600052603260045260246000fd5b9060005260206000209060040201600101546010546140569190615992565b61406091906158b1565b6010819055508060146000815481106140a2577f4e487b7100000000000000000000000000000000000000000000000000000000600052603260045260246000fd5b9060005260206000209060040201600101819055505b5050565b6000600160009054906101000a900473ffffffffffffffffffffffffffffffffffffffff16905081600160006101000a81548173ffffffffffffffffffffffffffffffffffffffff021916908373ffffffffffffffffffffffffffffffffffffffff1602179055508173ffffffffffffffffffffffffffffffffffffffff168173ffffffffffffffffffffffffffffffffffffffff167f8be0079c531659141344cd1fd0a4f28419497f9722a3daafe3b4186f6b6457e060405160405180910390a35050565b6000601480549050905060005b81811015614282578273ffffffffffffffffffffffffffffffffffffffff16601482815481106141e8577f4e487b7100000000000000000000000000000000000000000000000000000000600052603260045260246000fd5b906000526020600020906004020160000160009054906101000a900473ffffffffffffffffffffffffffffffffffffffff1673ffffffffffffffffffffffffffffffffffffffff161415614271576040517f08c379a0000000000000000000000000000000000000000000000000000000008152600401614268906156bb565b60405180910390fd5b8061427b90615b55565b905061418f565b505050565b801561429657614295612380565b5b82601060008282546142a891906158b1565b92505081905550601460405180608001604052808473ffffffffffffffffffffffffffffffffffffffff168152602001858152602001600f5442116142ef57600f546142f1565b425b81526020016000815250908060018154018082558091505060019003906000526020600020906004020160009091909190915060008201518160000160006101000a81548173ffffffffffffffffffffffffffffffffffffffff021916908373ffffffffffffffffffffffffffffffffffffffff1602179055506020820151816001015560408201518160020155606082015181600301555050614393613f5f565b600060148054905090507f20b669aa921947a6d9602a921d2db3b6b30f21b9aca98580fa3972530330b27a8185856010546040516143d494939291906157d6565b60405180910390a150505050565b600081836143f09190615907565b90506934f086f3b33b68400000816144089190615938565b600c8190555062015180600c5461441f9190615907565b600d819055507fcd7c861d63893659123f817b192b8621ff1923a7c4589c260173cedcf9e986a6600c54600d5460405161445a9291906157ad565b60405180910390a1505050565b60606000600283600261447a9190615938565b61448491906158b1565b67ffffffffffffffff8111156144c3577f4e487b7100000000000000000000000000000000000000000000000000000000600052604160045260246000fd5b6040519080825280601f01601f1916602001820160405280156144f55781602001600182028036833780820191505090505b5090507f300000000000000000000000000000000000000000000000000000000000000081600081518110614553577f4e487b7100000000000000000000000000000000000000000000000000000000600052603260045260246000fd5b60200101907effffffffffffffffffffffffffffffffffffffffffffffffffffffffffffff1916908160001a9053507f7800000000000000000000000000000000000000000000000000000000000000816001815181106145dd577f4e487b7100000000000000000000000000000000000000000000000000000000600052603260045260246000fd5b60200101907effffffffffffffffffffffffffffffffffffffffffffffffffffffffffffff1916908160001a9053506000600184600261461d9190615938565b61462791906158b1565b90505b6001811115614713577f3031323334353637383961626364656600000000000000000000000000000000600f86166010811061468f577f4e487b7100000000000000000000000000000000000000000000000000000000600052603260045260246000fd5b1a60f81b8282815181106146cc577f4e487b7100000000000000000000000000000000000000000000000000000000600052603260045260246000fd5b60200101907effffffffffffffffffffffffffffffffffffffffffffffffffffffffffffff1916908160001a905350600485901c94508061470c90615b2b565b905061462a565b5060008414614757576040517f08c379a000000000000000000000000000000000000000000000000000000000815260040161474e906154fb565b60405180910390fd5b8091505092915050565b60008135905061477081615c0d565b92915050565b60008135905061478581615c24565b92915050565b60008151905061479a81615c24565b92915050565b6000813590506147af81615c3b565b92915050565b6000813590506147c481615c52565b92915050565b6000813590506147d981615c69565b92915050565b6000815190506147ee81615c69565b92915050565b60008135905061480381615c80565b92915050565b60008135905061481881615c97565b92915050565b60008151905061482d81615c97565b92915050565b60006020828403121561484557600080fd5b600061485384828501614761565b91505092915050565b6000806040838503121561486f57600080fd5b600061487d85828601614761565b925050602061488e85828601614761565b9150509250929050565b600080600080600080600060e0888a0312156148b357600080fd5b60006148c18a828b01614761565b97505060206148d28a828b01614761565b96505060406148e38a828b01614809565b95505060606148f48a828b01614809565b94505060806149058a828b01614809565b93505060a06149168a828b01614809565b92505060c06149278a828b01614809565b91505092959891949750929550565b60006020828403121561494857600080fd5b60006149568482850161478b565b91505092915050565b60006020828403121561497157600080fd5b600061497f848285016147a0565b91505092915050565b6000806040838503121561499b57600080fd5b60006149a9858286016147a0565b92505060206149ba85828601614761565b9150509250929050565b6000602082840312156149d657600080fd5b60006149e4848285016147b5565b91505092915050565b6000602082840312156149ff57600080fd5b6000614a0d848285016147df565b91505092915050565b600060208284031215614a2857600080fd5b6000614a36848285016147f4565b91505092915050565b600060208284031215614a5157600080fd5b6000614a5f84828501614809565b91505092915050565b600060208284031215614a7a57600080fd5b6000614a888482850161481e565b91505092915050565b60008060408385031215614aa457600080fd5b6000614ab285828601614809565b9250506020614ac385828601614761565b9150509250929050565b600080600060608486031215614ae257600080fd5b6000614af086828701614809565b9350506020614b0186828701614761565b9250506040614b1286828701614809565b9150509250925092565b600080600060608486031215614b3157600080fd5b6000614b3f86828701614809565b9350506020614b50868287016147ca565b9250506040614b6186828701614776565b9150509250925092565b60008060408385031215614b7e57600080fd5b6000614b8c85828601614809565b9250506020614b9d85828601614809565b9150509250929050565b600080600060608486031215614bbc57600080fd5b6000614bca86828701614809565b9350506020614bdb86828701614809565b9250506040614bec86828701614776565b9150509250925092565b600080600060608486031215614c0b57600080fd5b6000614c1986828701614809565b9350506020614c2a86828701614809565b9250506040614c3b86828701614809565b9150509250925092565b614c4e816159c6565b82525050565b614c5d816159d8565b82525050565b614c6c816159e4565b82525050565b614c7b81615a68565b82525050565b614c8a81615a8c565b82525050565b614c9981615ab0565b82525050565b614ca881615ad4565b82525050565b6000614cb98261588a565b614cc38185615895565b9350614cd3818560208601615af8565b614cdc81615bfc565b840191505092915050565b6000614cf28261588a565b614cfc81856158a6565b9350614d0c818560208601615af8565b80840191505092915050565b6000614d25602083615895565b91507f537472696e67733a20686578206c656e67746820696e73756666696369656e746000830152602082019050919050565b6000614d65602683615895565b91507f4f776e61626c653a206e6577206f776e657220697320746865207a65726f206160008301527f64647265737300000000000000000000000000000000000000000000000000006020830152604082019050919050565b6000614dcb601083615895565b91507f5061757361626c653a20706175736564000000000000000000000000000000006000830152602082019050919050565b6000614e0b601383615895565b91507f616c726561647920696e697469616c697a6564000000000000000000000000006000830152602082019050919050565b6000614e4b600f83615895565b91507f6e6f206d69677261746f722073657400000000000000000000000000000000006000830152602082019050919050565b6000614e8b601a83615895565b91507f776974686472617720534f554c20627920756e7374616b696e670000000000006000830152602082019050919050565b6000614ecb601783615895565b91507f6465706f73697420534f554c206279207374616b696e670000000000000000006000830152602082019050919050565b6000614f0b602083615895565b91507f4f776e61626c653a2063616c6c6572206973206e6f7420746865206f776e65726000830152602082019050919050565b6000614f4b601b83615895565b91507f6d7573742062652061206e657720746f6b656e206164647265737300000000006000830152602082019050919050565b6000614f8b601583615895565b91507f6d7573742062652061206e6577206163636f756e7400000000000000000000006000830152602082019050919050565b6000614fcb601383615895565b91507f706f6f6c20646f6573206e6f74206578697374000000000000000000000000006000830152602082019050919050565b600061500b601883615895565b91507f6d757374206265206e6577207765696768742076616c756500000000000000006000830152602082019050919050565b600061504b601283615895565b91507f77697468647261773a206e6f7420676f6f6400000000000000000000000000006000830152602082019050919050565b600061508b6017836158a6565b91507f416363657373436f6e74726f6c3a206163636f756e74200000000000000000006000830152601782019050919050565b60006150cb601183615895565b91507f7769746864726177206e6f7420676f6f640000000000000000000000000000006000830152602082019050919050565b600061510b600f83615895565b91507f6475706c69636174656420706f6f6c00000000000000000000000000000000006000830152602082019050919050565b600061514b601f83615895565b91507f5265656e7472616e637947756172643a207265656e7472616e742063616c6c006000830152602082019050919050565b600061518b6011836158a6565b91507f206973206d697373696e6720726f6c65200000000000000000000000000000006000830152601182019050919050565b60006151cb602f83615895565b91507f416363657373436f6e74726f6c3a2063616e206f6e6c792072656e6f756e636560008301527f20726f6c657320666f722073656c6600000000000000000000000000000000006020830152604082019050919050565b6000615231601d83615895565b91507f6d6967726174653a20696e73756666696369656e742062616c616e63650000006000830152602082019050919050565b6000615271601a83615895565b91507f726577617264732068617665206e6f742079657420626567756e0000000000006000830152602082019050919050565b6152ad81615a5e565b82525050565b60006152be8261507e565b91506152ca8285614ce7565b91506152d58261517e565b91506152e18284614ce7565b91508190509392505050565b60006020820190506153026000830184614c45565b92915050565b600060408201905061531d6000830185614c45565b61532a6020830184614c45565b9392505050565b600060c0820190506153466000830189614c45565b6153536020830188614c45565b6153606040830187614c45565b61536d6060830186614c45565b61537a60808301856152a4565b61538760a08301846152a4565b979650505050505050565b60006060820190506153a76000830186614c45565b6153b46020830185614c45565b6153c160408301846152a4565b949350505050565b60006040820190506153de6000830185614c45565b6153eb60208301846152a4565b9392505050565b60006020820190506154076000830184614c54565b92915050565b60006020820190506154226000830184614c63565b92915050565b600060208201905061543d6000830184614c72565b92915050565b60006080820190506154586000830187614c72565b61546560208301866152a4565b61547260408301856152a4565b61547f60608301846152a4565b95945050505050565b600060208201905061549d6000830184614c81565b92915050565b60006020820190506154b86000830184614c90565b92915050565b60006020820190506154d36000830184614c9f565b92915050565b600060208201905081810360008301526154f38184614cae565b905092915050565b6000602082019050818103600083015261551481614d18565b9050919050565b6000602082019050818103600083015261553481614d58565b9050919050565b6000602082019050818103600083015261555481614dbe565b9050919050565b6000602082019050818103600083015261557481614dfe565b9050919050565b6000602082019050818103600083015261559481614e3e565b9050919050565b600060208201905081810360008301526155b481614e7e565b9050919050565b600060208201905081810360008301526155d481614ebe565b9050919050565b600060208201905081810360008301526155f481614efe565b9050919050565b6000602082019050818103600083015261561481614f3e565b9050919050565b6000602082019050818103600083015261563481614f7e565b9050919050565b6000602082019050818103600083015261565481614fbe565b9050919050565b6000602082019050818103600083015261567481614ffe565b9050919050565b600060208201905081810360008301526156948161503e565b9050919050565b600060208201905081810360008301526156b4816150be565b9050919050565b600060208201905081810360008301526156d4816150fe565b9050919050565b600060208201905081810360008301526156f48161513e565b9050919050565b60006020820190508181036000830152615714816151be565b9050919050565b6000602082019050818103600083015261573481615224565b9050919050565b6000602082019050818103600083015261575481615264565b9050919050565b600060208201905061577060008301846152a4565b92915050565b600060608201905061578b60008301866152a4565b6157986020830185614c45565b6157a560408301846152a4565b949350505050565b60006040820190506157c260008301856152a4565b6157cf60208301846152a4565b9392505050565b60006080820190506157eb60008301876152a4565b6157f860208301866152a4565b6158056040830185614c72565b61581260608301846152a4565b95945050505050565b600060e082019050615830600083018a6152a4565b61583d60208301896152a4565b61584a60408301886152a4565b61585760608301876152a4565b61586460808301866152a4565b61587160a08301856152a4565b61587e60c08301846152a4565b98975050505050505050565b600081519050919050565b600082825260208201905092915050565b600081905092915050565b60006158bc82615a5e565b91506158c783615a5e565b9250827fffffffffffffffffffffffffffffffffffffffffffffffffffffffffffffffff038211156158fc576158fb615b9e565b5b828201905092915050565b600061591282615a5e565b915061591d83615a5e565b92508261592d5761592c615bcd565b5b828204905092915050565b600061594382615a5e565b915061594e83615a5e565b9250817fffffffffffffffffffffffffffffffffffffffffffffffffffffffffffffffff048311821515161561598757615986615b9e565b5b828202905092915050565b600061599d82615a5e565b91506159a883615a5e565b9250828210156159bb576159ba615b9e565b5b828203905092915050565b60006159d182615a3e565b9050919050565b60008115159050919050565b6000819050919050565b60007fffffffff0000000000000000000000000000000000000000000000000000000082169050919050565b6000615a25826159c6565b9050919050565b6000615a37826159c6565b9050919050565b600073ffffffffffffffffffffffffffffffffffffffff82169050919050565b6000819050919050565b6000615a7382615a7a565b9050919050565b6000615a8582615a3e565b9050919050565b6000615a9782615a9e565b9050919050565b6000615aa982615a3e565b9050919050565b6000615abb82615ac2565b9050919050565b6000615acd82615a3e565b9050919050565b6000615adf82615ae6565b9050919050565b6000615af182615a3e565b9050919050565b60005b83811015615b16578082015181840152602081019050615afb565b83811115615b25576000848401525b50505050565b6000615b3682615a5e565b91506000821415615b4a57615b49615b9e565b5b600182039050919050565b6000615b6082615a5e565b91507fffffffffffffffffffffffffffffffffffffffffffffffffffffffffffffffff821415615b9357615b92615b9e565b5b600182019050919050565b7f4e487b7100000000000000000000000000000000000000000000000000000000600052601160045260246000fd5b7f4e487b7100000000000000000000000000000000000000000000000000000000600052601260045260246000fd5b6000601f19601f8301169050919050565b615c16816159c6565b8114615c2157600080fd5b50565b615c2d816159d8565b8114615c3857600080fd5b50565b615c44816159e4565b8114615c4f57600080fd5b50565b615c5b816159ee565b8114615c6657600080fd5b50565b615c7281615a1a565b8114615c7d57600080fd5b50565b615c8981615a2c565b8114615c9457600080fd5b50565b615ca081615a5e565b8114615cab57600080fd5b5056fea2646970667358221220fbf19a3406fe791b51b96b0a0faa4531bb8e5b60c7d9d2ffb01f60317b96f3f764736f6c63430008000033",
  "immutableReferences": {},
  "source": "// SPDX-License-Identifier: MIT\n\npragma solidity ^0.8.0;\nimport '@openzeppelin/contracts/access/AccessControl.sol';\nimport '@openzeppelin/contracts/access/Ownable.sol';\nimport '@openzeppelin/contracts/security/Pausable.sol';\nimport '@openzeppelin/contracts/security/ReentrancyGuard.sol';\nimport './SoulPower.sol';\nimport './SeanceCircle.sol';\nimport './interfaces/IMigrator.sol';\n\n// the summoner of souls | ownership transferred to a governance smart contract \n// upon sufficient distribution + the community's desire to self-govern.\n\ncontract SoulSummoner is AccessControl, Ownable, Pausable, ReentrancyGuard {\n\n    // user info\n    struct Users {\n        uint amount;           // total tokens user has provided.\n        uint rewardDebt;       // reward debt (see below).\n        uint rewardDebtAtTime; // the last time user stake.\n        uint lastWithdrawTime; // the last time a user withdrew at.\n        uint firstDepositTime; // the last time a user deposited at.\n        uint timeDelta;        // time passed since withdrawals.\n        uint lastDepositTime;  // most recent deposit time.\n\n        //   pending reward = (user.amount * pool.accSoulPerShare) - user.rewardDebt\n\n        // the following occurs when a user +/- tokens to a pool:\n        //   1. pool: `accSoulPerShare` and `lastRewardTime` update.\n        //   2. user: receives pending reward.\n        //   3. user: `amount` updates(+/-).\n        //   4. user: `rewardDebt` updates (+/-).\n    }\n\n    // pool info\n    struct Pools {\n        IERC20 lpToken;       // lp token ierc20 contract.\n        uint allocPoint;      // allocation points assigned to this pool | SOULs to distribute per second.\n        uint lastRewardTime;  // most recent UNIX timestamp during which SOULs distribution occurred in the pool.\n        uint accSoulPerShare; // accumulated SOULs per share, times 1e12.\n    }\n\n    // soul power: our native utility token\n    address private soulAddress;\n    SoulPower public soul;\n    \n    // seance circle: our governance token\n    address private seanceAddress;\n    SeanceCircle public seance;\n\n    address public team; // receives 1/8 soul supply\n    address public dao; // recieves 1/8 soul supply\n\n    // migrator contract | has lotsa power\n    IMigrator public migrator;\n\n    // blockchain variables accounting for share of overall emissions\n    uint public totalWeight;\n    uint public weight;\n\n    // soul x day x this.chain\n    uint public dailySoul; // = weight * 250K * 1e18;\n\n    // soul x second x this.chain\n    uint public soulPerSecond; // = dailySoul / 86400;\n\n    // bonus muliplier for early soul summoners\n    uint public bonusMultiplier = 1;\n\n    // timestamp when soul rewards began (initialized)\n    uint public startTime;\n\n    // ttl allocation points | must be the sum of all allocation points\n    uint public totalAllocPoint;\n\n    // summoner initialized state.\n    bool public isInitialized;\n\n    // decay rate on withdrawal fee.\n    uint public dailyDecay;\n\n    // start rate for the withdrawal fee.\n    uint public startRate;\n\n    Pools[] public poolInfo; // pool info\n    mapping (uint => mapping (address => Users)) public userInfo; // staker data\n\n    // divinated roles\n    bytes32 public isis; // soul summoning goddess of magic\n    bytes32 public maat; // goddess of cosmic order\n\n    event RoleDivinated(bytes32 role, bytes32 supreme);\n\n    // restricted to the council of the role passed as an object to obey (role)\n    modifier obey(bytes32 role) {\n        _checkRole(role, _msgSender());\n        _;\n    }\n\n    // prevents: early reward distribution\n    modifier isSummoned {\n        require(isInitialized, 'rewards have not yet begun');\n        _;\n    }\n\n    event Deposit(address indexed user, uint indexed pid, uint amount);\n    event Withdraw(address indexed user, uint indexed pid, uint amount, uint timeStamp);\n\n    event Initialized(address team, address dao, address soul, address seance, uint totalAllocPoint, uint weight);\n    event PoolAdded(uint pid, uint allocPoint, IERC20 lpToken, uint totalAllocPoint);\n    event PoolSet(uint pid, uint allocPoint);\n\n    event WeightUpdated(uint weight, uint totalWeight);\n    event RewardsUpdated(uint dailySoul, uint soulPerSecond);\n    event AccountsUpdated(address dao, address team);\n    event TokensUpdated(address soul, address seance);\n    event DepositRevised(uint _pid, address _user, uint _time);\n\n    // validates: pool exists\n    modifier validatePoolByPid(uint pid) {\n        require(pid < poolInfo.length, 'pool does not exist');\n        _;\n    }\n\n    // channels the power of the isis and ma'at to the deployer (deployer)\n    constructor() {\n        team = msg.sender; // 0x81Dd37687c74Df8F957a370A9A4435D873F5e5A9;\n        dao = msg.sender; // 0x1C63C726926197BD3CB75d86bCFB1DaeBcD87250;        \n        isis = keccak256(\"isis\"); // goddess of magic who creates pools\n        maat = keccak256(\"maat\"); // goddess of cosmic order who allocates emissions\n\n        _divinationCeremony(DEFAULT_ADMIN_ROLE, DEFAULT_ADMIN_ROLE, team);\n        _divinationCeremony(isis, isis, team); // isis role created -- owner divined admin\n        _divinationCeremony(maat, isis, dao); // maat role created -- isis divined admin\n    } \n\n    function _divinationCeremony(bytes32 _role, bytes32 _adminRole, address _account) \n        internal returns (bool) {\n            _setupRole(_role, _account);\n            _setRoleAdmin(_role, _adminRole);\n\n        return true;\n    }\n\n    function hasDivineRole(bytes32 role) public view returns (bool) {\n        return hasRole(role, msg.sender);\n    }\n\n    // validate: pool uniqueness to eliminate duplication risk (internal view)\n    function checkPoolDuplicate(IERC20 _token) internal view {\n        uint length = poolInfo.length;\n\n        for (uint pid = 0; pid < length; ++pid) {\n            require(poolInfo[pid].lpToken != _token, 'duplicated pool');\n        }\n    }\n\n    // activates rewards (owner)\n    function initialize(\n        address _soulAddress, \n        address _seanceAddress, \n        uint _totalWeight,\n        uint _weight,\n        uint _stakingAlloc ,\n        uint _startRate,\n        uint _dailyDecay\n       ) external obey(isis) {\n        require(!isInitialized, 'already initialized');\n\n        soulAddress = _soulAddress;\n        seanceAddress = _seanceAddress;\n\n        startTime = block.timestamp;\n\n        totalWeight = _totalWeight + _weight;\n        weight = _weight;\n        startRate = enWei(_startRate);\n        dailyDecay = oneHundreth(_dailyDecay);\n        uint allocPoint = _stakingAlloc;\n\n        soul  = SoulPower(soulAddress);\n        seance = SeanceCircle(seanceAddress);\n\n        // updates dailySoul and soulPerSecond\n        updateRewards(weight, totalWeight); \n\n        // staking pool\n        poolInfo.push(Pools({\n            lpToken: soul,\n            allocPoint: allocPoint,\n            lastRewardTime: startTime,\n            accSoulPerShare: 0\n        }));\n\n        isInitialized = true; // triggers initialize state\n        totalAllocPoint += allocPoint; // kickstarts total allocation\n\n        emit Initialized(team, dao, soulAddress, seanceAddress, totalAllocPoint, weight);\n    }\n\n    function updateMultiplier(uint _bonusMultiplier) external obey(maat) {\n        bonusMultiplier = _bonusMultiplier;\n    }\n\n    function updateRewards(uint _weight, uint _totalWeight) internal {\n        uint share = _weight / _totalWeight; // share of ttl emissions for chain (chain % ttl emissions)\n        dailySoul = share * (250000 * 1e18); // dailySoul (for this.chain) = share (%) x 250K (soul emissions constant)\n        soulPerSecond = dailySoul / 1 days; // updates: daily rewards expressed in seconds (1 days = 86,400 secs)\n\n        emit RewardsUpdated(dailySoul, soulPerSecond);\n    }\n\n    // returns: amount of pools\n    function poolLength() external view returns (uint) {\n        return poolInfo.length;\n    }\n\n    // add: new pool (isis)\n    function addPool(uint _allocPoint, IERC20 _lpToken, bool _withUpdate) \n        public isSummoned obey(isis) { // isis: the soul summoning goddess whose power transcends them all\n            checkPoolDuplicate(_lpToken);\n            _addPool(_allocPoint, _lpToken, _withUpdate);\n    }\n\n    // add: new pool (internal)\n    function _addPool(uint _allocPoint, IERC20 _lpToken, bool _withUpdate) internal {\n        if (_withUpdate) { massUpdatePools(); }\n\n        totalAllocPoint += _allocPoint;\n        \n        poolInfo.push(\n        Pools({\n            lpToken: _lpToken,\n            allocPoint: _allocPoint,\n            lastRewardTime: block.timestamp > startTime ? block.timestamp : startTime,\n            accSoulPerShare: 0\n        }));\n        \n        updateStakingPool();\n        uint pid = poolInfo.length;\n\n        emit PoolAdded(pid, _allocPoint, _lpToken, totalAllocPoint);\n    }\n\n    // set: allocation points (maat)\n    function set(uint pid, uint allocPoint, bool withUpdate) \n        external isSummoned validatePoolByPid(pid) obey(maat) {\n            if (withUpdate) { massUpdatePools(); } // updates all pools\n            \n            uint prevAllocPoint = poolInfo[pid].allocPoint;\n            poolInfo[pid].allocPoint = allocPoint;\n            \n            if (prevAllocPoint != allocPoint) {\n                totalAllocPoint = totalAllocPoint - prevAllocPoint + allocPoint;\n                \n                updateStakingPool(); // updates only selected pool\n        }\n\n        emit PoolSet(pid, allocPoint);\n    }\n\n    // update: weight (maat)\n    function updateWeight(uint _weight) external isSummoned obey(maat) {\n        require(weight != _weight, 'must be new weight value');\n\n        if (weight < _weight) {             // if weight is gained\n            uint gain = _weight - weight;   // calculates weight gained\n            totalWeight += gain;            // increases totalWeight\n        }\n        \n        if (weight > _weight)  {            // if weight is lost\n            uint loss = weight - _weight;   // calculates weight gained\n            totalWeight -= loss;            // decreases totalWeight\n        }\n\n        weight = _weight; // updates weight variable      \n        \n        updateRewards(weight, totalWeight);\n\n        emit WeightUpdated(weight, totalWeight);\n    }\n\n    // update: staking pool (internal)\n    function updateStakingPool() internal {\n        uint length = poolInfo.length;\n        uint points;\n        \n        for (uint pid = 1; pid < length; ++pid) { \n            points = points + poolInfo[pid].allocPoint; \n        }\n\n        if (points != 0) {\n            points = points / 3;\n            totalAllocPoint = totalAllocPoint - poolInfo[0].allocPoint + points;\n            poolInfo[0].allocPoint = points;\n        }\n    }\n\n    // set: migrator contract (owner)\n    function setMigrator(IMigrator _migrator) external isSummoned obey(isis) {\n        migrator = _migrator;\n    }\n\n    // view: user delta\n\tfunction userDelta(uint256 _pid) public view returns (uint256) {\n        Users storage user = userInfo[_pid][msg.sender];\n\t\tif (user.lastWithdrawTime > 0) {\n\t\t\tuint256 estDelta = block.number - user.lastWithdrawTime;\n\t\t\treturn estDelta;\n\t\t} else {\n\t\t    uint256 estDelta = block.number - user.firstDepositTime;\n\t\t\treturn estDelta;\n\t\t}\n\t}\n\n    // migrate: lp tokens to another contract (migrator)\n    function migrate(uint pid) external isSummoned validatePoolByPid(pid) {\n        require(address(migrator) != address(0), 'no migrator set');\n        Pools storage pool = poolInfo[pid];\n        IERC20 lpToken = pool.lpToken;\n\n        uint bal = lpToken.balanceOf(address(this));\n        lpToken.approve(address(migrator), bal);\n        IERC20 _lpToken = migrator.migrate(lpToken);\n        \n        require(bal == _lpToken.balanceOf(address(this)), \"migrate: insufficient balance\");\n        pool.lpToken = _lpToken;\n    }\n\n    // view: bonus multiplier (public)\n    function getMultiplier(uint from, uint to) public view returns (uint) {\n        return (to - from) * bonusMultiplier; // todo: minus parens\n    }\n\n    // returns: decay rate for a pid\n    function getFeeRate(uint pid, uint timeDelta) public view returns (uint feeRate) {\n        // uint secondsPassed = userInfo[pid][msg.sender].timeDelta;\n        uint daysPassed = timeDelta < 1 days\n            ? 0 \n            : timeDelta / 86400;\n            \n        uint rateDecayed = daysPassed * dailyDecay;\n\n        uint _rate = rateDecayed >= startRate \n            ? 0 \n            : startRate - rateDecayed;\n        \n        // returns 0 for SAS\n        return pid == 0\n            ? 0\n            : _rate;\n    }\n\n    // returns: `fee` for a given pid, user\n    function getFee(uint pid, uint amount) public view returns (uint fee) {\n        uint timeDelta = userInfo[pid][msg.sender].timeDelta;\n        \n        uint rateDecayed = (timeDelta / 86400) * dailyDecay;\n\n        uint _rate = (startRate - rateDecayed) / 100;\n\n        uint _fee = fromWei(amount) * _rate;\n\n        return pid == 0\n            ? 0\n            : _fee;\n    }\n\n    // returns: feeAmount and with withdrawableAmount for a given pid and amount\n    function getWithdrawable(uint pid, uint timeDelta, uint amount) public view returns (uint _feeAmount, uint _withdrawable) {\n        (uint feeRate) = getFeeRate(pid, timeDelta);\n        uint feeAmount = (amount * feeRate) / 100;\n        uint withdrawable = amount - feeAmount;\n\n        return (feeAmount, withdrawable);\n    }\n    // returns: the seconds remaining until the next withdrawal decrease\n    function timeUntilNextDecrease(uint pid) public view returns (uint untilNextDecay) {\n        Users storage user = userInfo[0][msg.sender];\n        uint timeDelta = user.lastDepositTime > 0\n            ? block.timestamp - user.lastDepositTime\n            : userInfo[pid][msg.sender].timeDelta;\n        \n        uint daysPassed =\n            timeDelta == 0 \n                ? 0 \n                : timeDelta / 86400;\n                \n        return timeDelta - (86400 * daysPassed);\n    }\n\n    // view: pending soul rewards (external)\n    function pendingSoul(uint pid, address _user) external view returns (uint pendingAmount) {\n        Pools storage pool = poolInfo[pid];\n        Users storage user = userInfo[pid][_user];\n\n        uint accSoulPerShare = pool.accSoulPerShare;\n        uint lpSupply = pool.lpToken.balanceOf(address(this));\n\n        if (block.timestamp > pool.lastRewardTime && lpSupply != 0) {\n            uint multiplier = getMultiplier(pool.lastRewardTime, block.timestamp);\n            uint soulReward = multiplier * soulPerSecond * pool.allocPoint / totalAllocPoint;\n            accSoulPerShare = accSoulPerShare + soulReward * 1e12 / lpSupply;\n        }\n\n        return user.amount * accSoulPerShare / 1e12 - user.rewardDebt;\n    }\n\n    // update: rewards for all pools (public)\n    function massUpdatePools() public {\n        uint length = poolInfo.length;\n        for (uint pid = 0; pid < length; ++pid) { updatePool(pid); }\n    }\n\n    // update: rewards for a given pool id (public)\n    function updatePool(uint pid) public validatePoolByPid(pid) {\n        Pools storage pool = poolInfo[pid];\n\n        if (block.timestamp <= pool.lastRewardTime) { return; }\n        uint lpSupply = pool.lpToken.balanceOf(address(this));\n\n        if (lpSupply == 0) { pool.lastRewardTime = block.timestamp; return; } // first staker in pool\n\n        uint multiplier = getMultiplier(pool.lastRewardTime, block.timestamp);\n        uint soulReward = multiplier * soulPerSecond * pool.allocPoint / totalAllocPoint;\n        \n        uint divi = soulReward * 1e12 / 8e12;   // 12.5% rewards\n        uint divis = divi * 2;                  // total divis\n        uint shares = soulReward - divis;       // net shares\n        \n        soul.mint(team, divi);\n        soul.mint(dao, divi);\n        soul.mint(address(seance), shares);\n\n        pool.accSoulPerShare = pool.accSoulPerShare + (soulReward * 1e12 / lpSupply);\n        pool.lastRewardTime = block.timestamp;\n    }\n\n    // deposit: lp tokens (lp owner)\n    function deposit(uint pid, uint amount) external nonReentrant validatePoolByPid(pid) whenNotPaused {\n        require (pid != 0, 'deposit SOUL by staking');\n\n        Pools storage pool = poolInfo[pid];\n        Users storage user = userInfo[pid][msg.sender];\n        updatePool(pid);\n\n        if (user.amount > 0) { // already deposited assets\n            uint pending = (user.amount * pool.accSoulPerShare) / 1e12 - user.rewardDebt;\n            if(pending > 0) { // sends pending rewards, if applicable\n                safeSoulTransfer(msg.sender, pending);\n            }\n        }\n\n        if (amount > 0) { // if adding more\n            pool.lpToken.transferFrom(address(msg.sender), address(this), amount);\n            user.amount = user.amount + amount;\n        }\n\n        user.rewardDebt = user.amount * pool.accSoulPerShare / 1e12;\n\n        user.firstDepositTime > 0 \n            ? user.firstDepositTime = user.firstDepositTime\n            : user.firstDepositTime = block.timestamp;\n\n        emit Deposit(msg.sender, pid, amount);\n    }\n\n    // withdraw: lp tokens (external farmers)\n    function withdraw(uint pid, uint amount) external nonReentrant validatePoolByPid(pid) {\n        require (pid != 0, 'withdraw SOUL by unstaking');\n        Pools storage pool = poolInfo[pid];\n        Users storage user = userInfo[pid][msg.sender];\n\n        require(user.amount >= amount, 'withdraw not good');\n        updatePool(pid);\n\n        uint pending = user.amount * pool.accSoulPerShare / 1e12 - user.rewardDebt;\n\n        if(pending > 0) { safeSoulTransfer(msg.sender, pending); }\n\n        if(amount > 0) {\n            if(user.lastDepositTime > 0){\n\t\t\t\tuser.timeDelta = block.timestamp - user.lastDepositTime; }\n\t\t\telse { user.timeDelta = block.timestamp - user.firstDepositTime; }\n            \n            user.amount = user.amount - amount;\n            \n        }\n        \n        uint feeAmount =  getFee(pid, amount); // uses rate to acquire feeAmount\n        uint withdrawable = amount - feeAmount; // removes feeAmount from feeRate\n\n        pool.lpToken.transfer(address(dao), feeAmount);\n        pool.lpToken.transfer(address(msg.sender), withdrawable);\n\n        user.rewardDebt = user.amount * pool.accSoulPerShare / 1e12;\n        user.lastWithdrawTime = block.timestamp;\n\n        emit Withdraw(msg.sender, pid, amount, block.timestamp);\n    }\n\n    // stake: soul into summoner (external)\n    function enterStaking(uint amount) external nonReentrant whenNotPaused {\n        Pools storage pool = poolInfo[0];\n        Users storage user = userInfo[0][msg.sender];\n        updatePool(0);\n\n        if (user.amount > 0) {\n            uint pending = user.amount * pool.accSoulPerShare / 1e12 - user.rewardDebt;\n            if(pending > 0) {\n                safeSoulTransfer(msg.sender, pending);\n            }\n        } \n        \n        if(amount > 0) {\n            pool.lpToken.transferFrom(address(msg.sender), address(this), amount);\n            user.amount = user.amount + amount;\n        }\n\n        user.rewardDebt = user.amount * pool.accSoulPerShare / 1e12;\n\n        seance.mint(msg.sender, amount);\n        emit Deposit(msg.sender, 0, amount);\n    }\n\n    // unstake: your soul (external staker)\n    function leaveStaking(uint amount) external nonReentrant {\n        Pools storage pool = poolInfo[0];\n        Users storage user = userInfo[0][msg.sender];\n\n        require(user.amount >= amount, \"withdraw: not good\");\n        updatePool(0);\n\n        uint pending = user.amount * pool.accSoulPerShare / 1e12 - user.rewardDebt;\n\n        if(pending > 0) {\n            safeSoulTransfer(msg.sender, pending);\n        }\n\n        if(amount > 0) {\n            user.amount = user.amount - amount;\n            pool.lpToken.transfer(address(msg.sender), amount);\n        }\n\n        user.rewardDebt = user.amount * pool.accSoulPerShare / 1e12;\n\n        seance.burn(msg.sender, amount);\n        emit Withdraw(msg.sender, 0, amount, block.timestamp);\n    }\n    \n    // transfer: seance (internal)\n    function safeSoulTransfer(address account, uint amount) internal {\n        seance.safeSoulTransfer(account, amount);\n    }\n\n    // update accounts: dao and team addresses (owner)\n    function updateAccounts(address _dao, address _team) external obey(isis) {\n        require(dao != _dao || team != _team, 'must be a new account');\n\n        dao = _dao;\n        team = _team;\n\n        emit AccountsUpdated(dao, team);\n    }\n\n    // update tokens: soul and seance addresses (owner)\n    function updateTokens(address _soul, address _seance) external obey(isis) {\n        require(soul != IERC20(_soul) || seance != IERC20(_seance), 'must be a new token address');\n\n        soul = SoulPower(_soul);\n        seance = SeanceCircle(_seance);\n\n        emit TokensUpdated(_soul, _seance);\n    }\n\n    // manual override to reassign the first deposit time for a given (pid, account)\n    function reviseDeposit(uint _pid, address _user, uint256 _time) public obey(maat) {\n        Users storage user = userInfo[_pid][_user];\n        user.firstDepositTime = _time;\n\n        emit DepositRevised(_pid, _user, _time);\n\t}\n\n    // helper functions to convert to wei and 1/100th\n    function enWei(uint amount) public pure returns (uint) {  return amount * 1e18; }\n    function fromWei(uint amount) public pure returns (uint) { return amount / 1e18; }\n    function oneHundreth(uint amount) public pure returns (uint) { return amount * 1e16; }\n}\n",
  "sourcePath": "/Users/Uni/Documents/GitHub/soulswap/soulswap-farms/contracts/SoulSummoner.sol",
  "compiler": {
    "name": "solc",
    "version": "0.8.0+commit.c7dfd78e.Emscripten.clang"
  },
  "schemaVersion": "3.4.1",
  "updatedAt": "2021-09-16T09:52:43.064Z",
  "networkType": "ethereum",
  "devdoc": {
    "kind": "dev",
    "methods": {
      "getRoleAdmin(bytes32)": {
        "details": "Returns the admin role that controls `role`. See {grantRole} and {revokeRole}. To change a role's admin, use {_setRoleAdmin}."
      },
      "grantRole(bytes32,address)": {
        "details": "Grants `role` to `account`. If `account` had not been already granted `role`, emits a {RoleGranted} event. Requirements: - the caller must have ``role``'s admin role."
      },
      "hasRole(bytes32,address)": {
        "details": "Returns `true` if `account` has been granted `role`."
      },
      "owner()": {
        "details": "Returns the address of the current owner."
      },
      "paused()": {
        "details": "Returns true if the contract is paused, and false otherwise."
      },
      "renounceOwnership()": {
        "details": "Leaves the contract without owner. It will not be possible to call `onlyOwner` functions anymore. Can only be called by the current owner. NOTE: Renouncing ownership will leave the contract without an owner, thereby removing any functionality that is only available to the owner."
      },
      "renounceRole(bytes32,address)": {
        "details": "Revokes `role` from the calling account. Roles are often managed via {grantRole} and {revokeRole}: this function's purpose is to provide a mechanism for accounts to lose their privileges if they are compromised (such as when a trusted device is misplaced). If the calling account had been granted `role`, emits a {RoleRevoked} event. Requirements: - the caller must be `account`."
      },
      "revokeRole(bytes32,address)": {
        "details": "Revokes `role` from `account`. If `account` had been granted `role`, emits a {RoleRevoked} event. Requirements: - the caller must have ``role``'s admin role."
      },
      "supportsInterface(bytes4)": {
        "details": "See {IERC165-supportsInterface}."
      },
      "transferOwnership(address)": {
        "details": "Transfers ownership of the contract to a new account (`newOwner`). Can only be called by the current owner."
      }
    },
    "version": 1
  },
  "userdoc": {
    "kind": "user",
    "methods": {},
    "version": 1
  }
}