{
  "contractName": "SoulSummoner",
  "abi": [
    {
      "anonymous": false,
      "inputs": [
        {
          "indexed": true,
          "internalType": "address",
          "name": "user",
          "type": "address"
        },
        {
          "indexed": true,
          "internalType": "uint256",
          "name": "pid",
          "type": "uint256"
        },
        {
          "indexed": false,
          "internalType": "uint256",
          "name": "amount",
          "type": "uint256"
        }
      ],
      "name": "Deposit",
      "type": "event"
    },
    {
      "anonymous": false,
      "inputs": [
        {
          "indexed": false,
          "internalType": "address",
          "name": "team",
          "type": "address"
        },
        {
          "indexed": false,
          "internalType": "address",
          "name": "dev",
          "type": "address"
        },
        {
          "indexed": false,
          "internalType": "address",
          "name": "soul",
          "type": "address"
        },
        {
          "indexed": false,
          "internalType": "address",
          "name": "seance",
          "type": "address"
        },
        {
          "indexed": false,
          "internalType": "uint256",
          "name": "chainId",
          "type": "uint256"
        },
        {
          "indexed": false,
          "internalType": "uint256",
          "name": "power",
          "type": "uint256"
        }
      ],
      "name": "Initialized",
      "type": "event"
    },
    {
      "anonymous": false,
      "inputs": [
        {
          "indexed": true,
          "internalType": "address",
          "name": "operator",
          "type": "address"
        },
        {
          "indexed": true,
          "internalType": "bool",
          "name": "access",
          "type": "bool"
        }
      ],
      "name": "OperatorUpdated",
      "type": "event"
    },
    {
      "anonymous": false,
      "inputs": [
        {
          "indexed": true,
          "internalType": "address",
          "name": "previousOwner",
          "type": "address"
        },
        {
          "indexed": true,
          "internalType": "address",
          "name": "newOwner",
          "type": "address"
        }
      ],
      "name": "OwnershipTransferred",
      "type": "event"
    },
    {
      "anonymous": false,
      "inputs": [
        {
          "indexed": false,
          "internalType": "uint256",
          "name": "pid",
          "type": "uint256"
        },
        {
          "indexed": false,
          "internalType": "uint256",
          "name": "allocPoint",
          "type": "uint256"
        },
        {
          "indexed": false,
          "internalType": "contract IERC20",
          "name": "lpToken",
          "type": "address"
        },
        {
          "indexed": false,
          "internalType": "uint256",
          "name": "totalAllocPoint",
          "type": "uint256"
        }
      ],
      "name": "PoolAdded",
      "type": "event"
    },
    {
      "anonymous": false,
      "inputs": [
        {
          "indexed": false,
          "internalType": "uint256",
          "name": "pid",
          "type": "uint256"
        },
        {
          "indexed": false,
          "internalType": "uint256",
          "name": "allocPoint",
          "type": "uint256"
        }
      ],
      "name": "PoolSet",
      "type": "event"
    },
    {
      "anonymous": false,
      "inputs": [
        {
          "indexed": false,
          "internalType": "uint256",
          "name": "dailySoul",
          "type": "uint256"
        },
        {
          "indexed": false,
          "internalType": "uint256",
          "name": "soulPerSecond",
          "type": "uint256"
        }
      ],
      "name": "RewardsUpdated",
      "type": "event"
    },
    {
      "anonymous": false,
      "inputs": [
        {
          "indexed": false,
          "internalType": "uint256",
          "name": "weight",
          "type": "uint256"
        },
        {
          "indexed": false,
          "internalType": "uint256",
          "name": "totalWeight",
          "type": "uint256"
        }
      ],
      "name": "WeightUpdated",
      "type": "event"
    },
    {
      "anonymous": false,
      "inputs": [
        {
          "indexed": true,
          "internalType": "address",
          "name": "user",
          "type": "address"
        },
        {
          "indexed": true,
          "internalType": "uint256",
          "name": "pid",
          "type": "uint256"
        },
        {
          "indexed": false,
          "internalType": "uint256",
          "name": "amount",
          "type": "uint256"
        }
      ],
      "name": "Withdraw",
      "type": "event"
    },
    {
      "inputs": [
        {
          "internalType": "address",
          "name": "newOperator",
          "type": "address"
        }
      ],
      "name": "addOperator",
      "outputs": [],
      "stateMutability": "nonpayable",
      "type": "function"
    },
    {
      "inputs": [],
      "name": "bonusMultiplier",
      "outputs": [
        {
          "internalType": "uint256",
          "name": "",
          "type": "uint256"
        }
      ],
      "stateMutability": "view",
      "type": "function",
      "constant": true
    },
    {
      "inputs": [],
      "name": "chainId",
      "outputs": [
        {
          "internalType": "uint256",
          "name": "",
          "type": "uint256"
        }
      ],
      "stateMutability": "view",
      "type": "function",
      "constant": true
    },
    {
      "inputs": [],
      "name": "dailySoul",
      "outputs": [
        {
          "internalType": "uint256",
          "name": "",
          "type": "uint256"
        }
      ],
      "stateMutability": "view",
      "type": "function",
      "constant": true
    },
    {
      "inputs": [],
      "name": "dao",
      "outputs": [
        {
          "internalType": "address",
          "name": "",
          "type": "address"
        }
      ],
      "stateMutability": "view",
      "type": "function",
      "constant": true
    },
    {
      "inputs": [],
      "name": "isInitialized",
      "outputs": [
        {
          "internalType": "bool",
          "name": "",
          "type": "bool"
        }
      ],
      "stateMutability": "view",
      "type": "function",
      "constant": true
    },
    {
      "inputs": [],
      "name": "migrator",
      "outputs": [
        {
          "internalType": "contract IMigrator",
          "name": "",
          "type": "address"
        }
      ],
      "stateMutability": "view",
      "type": "function",
      "constant": true
    },
    {
      "inputs": [
        {
          "internalType": "address",
          "name": "",
          "type": "address"
        }
      ],
      "name": "operator",
      "outputs": [
        {
          "internalType": "bool",
          "name": "",
          "type": "bool"
        }
      ],
      "stateMutability": "view",
      "type": "function",
      "constant": true
    },
    {
      "inputs": [
        {
          "internalType": "uint256",
          "name": "",
          "type": "uint256"
        }
      ],
      "name": "operators",
      "outputs": [
        {
          "internalType": "address",
          "name": "",
          "type": "address"
        }
      ],
      "stateMutability": "view",
      "type": "function",
      "constant": true
    },
    {
      "inputs": [],
      "name": "owner",
      "outputs": [
        {
          "internalType": "address",
          "name": "",
          "type": "address"
        }
      ],
      "stateMutability": "view",
      "type": "function",
      "constant": true
    },
    {
      "inputs": [
        {
          "internalType": "uint256",
          "name": "",
          "type": "uint256"
        }
      ],
      "name": "poolInfo",
      "outputs": [
        {
          "internalType": "contract IERC20",
          "name": "lpToken",
          "type": "address"
        },
        {
          "internalType": "uint256",
          "name": "allocPoint",
          "type": "uint256"
        },
        {
          "internalType": "uint256",
          "name": "lastRewardTime",
          "type": "uint256"
        },
        {
          "internalType": "uint256",
          "name": "accSoulPerShare",
          "type": "uint256"
        }
      ],
      "stateMutability": "view",
      "type": "function",
      "constant": true
    },
    {
      "inputs": [
        {
          "internalType": "address",
          "name": "removingOperator",
          "type": "address"
        }
      ],
      "name": "removeOperator",
      "outputs": [],
      "stateMutability": "nonpayable",
      "type": "function"
    },
    {
      "inputs": [],
      "name": "renounceOwnership",
      "outputs": [],
      "stateMutability": "nonpayable",
      "type": "function"
    },
    {
      "inputs": [],
      "name": "seance",
      "outputs": [
        {
          "internalType": "contract SeanceCircle",
          "name": "",
          "type": "address"
        }
      ],
      "stateMutability": "view",
      "type": "function",
      "constant": true
    },
    {
      "inputs": [],
      "name": "soul",
      "outputs": [
        {
          "internalType": "contract SoulPower",
          "name": "",
          "type": "address"
        }
      ],
      "stateMutability": "view",
      "type": "function",
      "constant": true
    },
    {
      "inputs": [],
      "name": "soulPerSecond",
      "outputs": [
        {
          "internalType": "uint256",
          "name": "",
          "type": "uint256"
        }
      ],
      "stateMutability": "view",
      "type": "function",
      "constant": true
    },
    {
      "inputs": [],
      "name": "startTime",
      "outputs": [
        {
          "internalType": "uint256",
          "name": "",
          "type": "uint256"
        }
      ],
      "stateMutability": "view",
      "type": "function",
      "constant": true
    },
    {
      "inputs": [],
      "name": "team",
      "outputs": [
        {
          "internalType": "address",
          "name": "",
          "type": "address"
        }
      ],
      "stateMutability": "view",
      "type": "function",
      "constant": true
    },
    {
      "inputs": [],
      "name": "totalAllocPoint",
      "outputs": [
        {
          "internalType": "uint256",
          "name": "",
          "type": "uint256"
        }
      ],
      "stateMutability": "view",
      "type": "function",
      "constant": true
    },
    {
      "inputs": [],
      "name": "totalWeight",
      "outputs": [
        {
          "internalType": "uint256",
          "name": "",
          "type": "uint256"
        }
      ],
      "stateMutability": "view",
      "type": "function",
      "constant": true
    },
    {
      "inputs": [
        {
          "internalType": "address",
          "name": "newOwner",
          "type": "address"
        }
      ],
      "name": "transferOwnership",
      "outputs": [],
      "stateMutability": "nonpayable",
      "type": "function"
    },
    {
      "inputs": [
        {
          "internalType": "uint256",
          "name": "",
          "type": "uint256"
        },
        {
          "internalType": "address",
          "name": "",
          "type": "address"
        }
      ],
      "name": "userInfo",
      "outputs": [
        {
          "internalType": "uint256",
          "name": "amount",
          "type": "uint256"
        },
        {
          "internalType": "uint256",
          "name": "rewardDebt",
          "type": "uint256"
        }
      ],
      "stateMutability": "view",
      "type": "function",
      "constant": true
    },
    {
      "inputs": [],
      "name": "weight",
      "outputs": [
        {
          "internalType": "uint256",
          "name": "",
          "type": "uint256"
        }
      ],
      "stateMutability": "view",
      "type": "function",
      "constant": true
    },
    {
      "inputs": [
        {
          "internalType": "address",
          "name": "_soulAddress",
          "type": "address"
        },
        {
          "internalType": "address",
          "name": "_seanceAddress",
          "type": "address"
        },
        {
          "internalType": "uint256",
          "name": "_chainId",
          "type": "uint256"
        },
        {
          "internalType": "uint256",
          "name": "_totalWeight",
          "type": "uint256"
        },
        {
          "internalType": "uint256",
          "name": "_weight",
          "type": "uint256"
        }
      ],
      "name": "initialize",
      "outputs": [],
      "stateMutability": "nonpayable",
      "type": "function"
    },
    {
      "inputs": [
        {
          "internalType": "uint256",
          "name": "_bonusMultiplier",
          "type": "uint256"
        }
      ],
      "name": "updateMultiplier",
      "outputs": [],
      "stateMutability": "nonpayable",
      "type": "function"
    },
    {
      "inputs": [],
      "name": "poolLength",
      "outputs": [
        {
          "internalType": "uint256",
          "name": "",
          "type": "uint256"
        }
      ],
      "stateMutability": "view",
      "type": "function",
      "constant": true
    },
    {
      "inputs": [
        {
          "internalType": "uint256",
          "name": "_allocPoint",
          "type": "uint256"
        },
        {
          "internalType": "contract IERC20",
          "name": "_lpToken",
          "type": "address"
        },
        {
          "internalType": "bool",
          "name": "_withUpdate",
          "type": "bool"
        }
      ],
      "name": "add",
      "outputs": [],
      "stateMutability": "nonpayable",
      "type": "function"
    },
    {
      "inputs": [
        {
          "internalType": "uint256",
          "name": "_pid",
          "type": "uint256"
        },
        {
          "internalType": "uint256",
          "name": "_allocPoint",
          "type": "uint256"
        },
        {
          "internalType": "bool",
          "name": "_withUpdate",
          "type": "bool"
        }
      ],
      "name": "set",
      "outputs": [],
      "stateMutability": "nonpayable",
      "type": "function"
    },
    {
      "inputs": [
        {
          "internalType": "uint256",
          "name": "_weight",
          "type": "uint256"
        }
      ],
      "name": "newWeight",
      "outputs": [],
      "stateMutability": "nonpayable",
      "type": "function"
    },
    {
      "inputs": [
        {
          "internalType": "contract IMigrator",
          "name": "_migrator",
          "type": "address"
        }
      ],
      "name": "setMigrator",
      "outputs": [],
      "stateMutability": "nonpayable",
      "type": "function"
    },
    {
      "inputs": [
        {
          "internalType": "uint256",
          "name": "_pid",
          "type": "uint256"
        }
      ],
      "name": "migrate",
      "outputs": [],
      "stateMutability": "nonpayable",
      "type": "function"
    },
    {
      "inputs": [
        {
          "internalType": "uint256",
          "name": "_from",
          "type": "uint256"
        },
        {
          "internalType": "uint256",
          "name": "_to",
          "type": "uint256"
        }
      ],
      "name": "getMultiplier",
      "outputs": [
        {
          "internalType": "uint256",
          "name": "",
          "type": "uint256"
        }
      ],
      "stateMutability": "view",
      "type": "function",
      "constant": true
    },
    {
      "inputs": [
        {
          "internalType": "uint256",
          "name": "_pid",
          "type": "uint256"
        },
        {
          "internalType": "address",
          "name": "_user",
          "type": "address"
        }
      ],
      "name": "pendingSoul",
      "outputs": [
        {
          "internalType": "uint256",
          "name": "",
          "type": "uint256"
        }
      ],
      "stateMutability": "view",
      "type": "function",
      "constant": true
    },
    {
      "inputs": [],
      "name": "massUpdatePools",
      "outputs": [],
      "stateMutability": "nonpayable",
      "type": "function"
    },
    {
      "inputs": [
        {
          "internalType": "uint256",
          "name": "_pid",
          "type": "uint256"
        }
      ],
      "name": "updatePool",
      "outputs": [],
      "stateMutability": "nonpayable",
      "type": "function"
    },
    {
      "inputs": [
        {
          "internalType": "uint256",
          "name": "_pid",
          "type": "uint256"
        },
        {
          "internalType": "uint256",
          "name": "_amount",
          "type": "uint256"
        }
      ],
      "name": "deposit",
      "outputs": [],
      "stateMutability": "nonpayable",
      "type": "function"
    },
    {
      "inputs": [
        {
          "internalType": "uint256",
          "name": "_pid",
          "type": "uint256"
        },
        {
          "internalType": "uint256",
          "name": "_amount",
          "type": "uint256"
        }
      ],
      "name": "withdraw",
      "outputs": [],
      "stateMutability": "nonpayable",
      "type": "function"
    },
    {
      "inputs": [
        {
          "internalType": "uint256",
          "name": "_amount",
          "type": "uint256"
        }
      ],
      "name": "enterStaking",
      "outputs": [],
      "stateMutability": "nonpayable",
      "type": "function"
    },
    {
      "inputs": [
        {
          "internalType": "uint256",
          "name": "_amount",
          "type": "uint256"
        }
      ],
      "name": "leaveStaking",
      "outputs": [],
      "stateMutability": "nonpayable",
      "type": "function"
    },
    {
      "inputs": [
        {
          "internalType": "address",
          "name": "_dao",
          "type": "address"
        }
      ],
      "name": "newDAO",
      "outputs": [],
      "stateMutability": "nonpayable",
      "type": "function"
    },
    {
      "inputs": [
        {
          "internalType": "address",
          "name": "_team",
          "type": "address"
        }
      ],
      "name": "newTeam",
      "outputs": [],
      "stateMutability": "nonpayable",
      "type": "function"
    },
    {
      "inputs": [
        {
          "internalType": "contract SoulPower",
          "name": "_soul",
          "type": "address"
        }
      ],
      "name": "newSoul",
      "outputs": [],
      "stateMutability": "nonpayable",
      "type": "function"
    },
    {
      "inputs": [
        {
          "internalType": "contract SeanceCircle",
          "name": "_seance",
          "type": "address"
        }
      ],
      "name": "newSeance",
      "outputs": [],
      "stateMutability": "nonpayable",
      "type": "function"
    }
  ],
  "bytecode": "0x608060405260016010553480156200001657600080fd5b50620000376200002b6200015c60201b60201c565b6200016460201b60201c565b6000620000496200015c60201b60201c565b90506001600260008373ffffffffffffffffffffffffffffffffffffffff1673ffffffffffffffffffffffffffffffffffffffff16815260200190815260200160002060006101000a81548160ff0219169083151502179055506001819080600181540180825580915050600190039060005260206000200160009091909190916101000a81548173ffffffffffffffffffffffffffffffffffffffff021916908373ffffffffffffffffffffffffffffffffffffffff160217905550600115158173ffffffffffffffffffffffffffffffffffffffff167f966c160e1c4dbc7df8d69af4ace01e9297c3cf016397b7914971f2fbfa32672d60405160405180910390a350600160038190555062000228565b600033905090565b60008060009054906101000a900473ffffffffffffffffffffffffffffffffffffffff169050816000806101000a81548173ffffffffffffffffffffffffffffffffffffffff021916908373ffffffffffffffffffffffffffffffffffffffff1602179055508173ffffffffffffffffffffffffffffffffffffffff168173ffffffffffffffffffffffffffffffffffffffff167f8be0079c531659141344cd1fd0a4f28419497f9722a3daafe3b4186f6b6457e060405160405180910390a35050565b61537480620002386000396000f3fe608060405234801561001057600080fd5b50600436106102695760003560e01c806378e97925116101515780639a8a0592116100c3578063d13f90b411610087578063d13f90b4146106de578063e06f926f146106fa578063e28d490614610716578063e2bbb15814610746578063f2fde38b14610762578063f8a44b671461077e57610269565b80639a8a059214610638578063a1aab33f14610656578063a8b973a114610674578063ac8a584a14610692578063bfafcad5146106ae57610269565b80638da5cb5b116101155780638da5cb5b1461054f5780638dbb1e3a1461056d57806393f1a40b1461059d57806396c82e57146105ce5780639870d7fe146105ec5780639a3073911461060857610269565b806378e97925146104b95780637cd07e47146104d75780637d500ec8146104f5578063815b7a8c1461051357806385f2aef21461053157610269565b806341441d3b116101ea57806351eb05a6116101ae57806351eb05a6146104335780635f9bf6891461044f5780635ffe61461461046d578063630b5ba11461048957806364482f7914610493578063715018a6146104af57610269565b806341441d3b146103a35780634162169f146103bf578063441a3e70146103dd578063454b0608146103f95780634ca01d451461041557610269565b80632168744411610231578063216874441461031557806323cf311814610331578063260cf9961461034d578063275592a114610369578063392e53cd1461038557610269565b8063081e3eda1461026e5780631058d2811461028c5780631526fe27146102a857806317caf6f1146102db5780631eaaa045146102f9575b600080fd5b61027661079a565b6040516102839190614eb9565b60405180910390f35b6102a660048036038101906102a19190614362565b6107a7565b005b6102c260048036038101906102bd9190614362565b610b1f565b6040516102d29493929190614bc3565b60405180910390f35b6102e3610b7f565b6040516102f09190614eb9565b60405180910390f35b610313600480360381019061030e91906143f0565b610b85565b005b61032f600480360381019061032a91906141f5565b610c86565b005b61034b600480360381019061034691906142e7565b610dd7565b005b61036760048036038101906103629190614339565b610ee6565b005b610383600480360381019061037e9190614362565b611037565b005b61038d611227565b60405161039a9190614b8d565b60405180910390f35b6103bd60048036038101906103b89190614362565b61123a565b005b6103c761157b565b6040516103d49190614ab1565b60405180910390f35b6103f760048036038101906103f2919061443f565b6115a1565b005b610413600480360381019061040e9190614362565b611915565b005b61041d611db6565b60405161042a9190614c23565b60405180910390f35b61044d60048036038101906104489190614362565b611ddc565b005b610457612228565b6040516104649190614eb9565b60405180910390f35b61048760048036038101906104829190614362565b61222e565b005b6104916122d1565b005b6104ad60048036038101906104a8919061447b565b612304565b005b6104b7612552565b005b6104c16125da565b6040516104ce9190614eb9565b60405180910390f35b6104df6125e0565b6040516104ec9190614c08565b60405180910390f35b6104fd612606565b60405161050a9190614eb9565b60405180910390f35b61051b61260c565b6040516105289190614c3e565b60405180910390f35b610539612632565b6040516105469190614ab1565b60405180910390f35b610557612658565b6040516105649190614ab1565b60405180910390f35b6105876004803603810190610582919061443f565b612681565b6040516105949190614eb9565b60405180910390f35b6105b760048036038101906105b291906143b4565b6126a4565b6040516105c5929190614ed4565b60405180910390f35b6105d66126d5565b6040516105e39190614eb9565b60405180910390f35b610606600480360381019061060191906141f5565b6126db565b005b610622600480360381019061061d91906141f5565b612976565b60405161062f9190614b8d565b60405180910390f35b610640612996565b60405161064d9190614eb9565b60405180910390f35b61065e61299c565b60405161066b9190614eb9565b60405180910390f35b61067c6129a2565b6040516106899190614eb9565b60405180910390f35b6106ac60048036038101906106a791906141f5565b6129a8565b005b6106c860048036038101906106c391906143b4565b612d9d565b6040516106d59190614eb9565b60405180910390f35b6106f860048036038101906106f3919061421e565b612fb8565b005b610714600480360381019061070f91906141f5565b61346b565b005b610730600480360381019061072b9190614362565b6135bc565b60405161073d9190614ab1565b60405180910390f35b610760600480360381019061075b919061443f565b6135fb565b005b61077c600480360381019061077791906141f5565b613938565b005b61079860048036038101906107939190614310565b613a30565b005b6000601480549050905090565b600260035414156107ed576040517f08c379a00000000000000000000000000000000000000000000000000000000081526004016107e490614e79565b60405180910390fd5b600260038190555060006014600081548110610832577f4e487b7100000000000000000000000000000000000000000000000000000000600052603260045260246000fd5b9060005260206000209060040201905060006015600080815260200190815260200160002060003373ffffffffffffffffffffffffffffffffffffffff1673ffffffffffffffffffffffffffffffffffffffff168152602001908152602001600020905082816000015410156108dd576040517f08c379a00000000000000000000000000000000000000000000000000000000081526004016108d490614e39565b60405180910390fd5b6108e76000611ddc565b6000816001015464e8d4a51000846003015484600001546109089190615011565b6109129190614fe0565b61091c919061506b565b90506000811115610932576109313382613b81565b5b6000841115610a065783826000015461094b919061506b565b82600001819055508260000160009054906101000a900473ffffffffffffffffffffffffffffffffffffffff1673ffffffffffffffffffffffffffffffffffffffff1663a9059cbb33866040518363ffffffff1660e01b81526004016109b2929190614b64565b602060405180830381600087803b1580156109cc57600080fd5b505af11580156109e0573d6000803e3d6000fd5b505050506040513d601f19601f82011682018060405250810190610a049190614295565b505b64e8d4a5100083600301548360000154610a209190615011565b610a2a9190614fe0565b8260010181905550600760009054906101000a900473ffffffffffffffffffffffffffffffffffffffff1673ffffffffffffffffffffffffffffffffffffffff16639dc29fac33866040518363ffffffff1660e01b8152600401610a8f929190614b64565b600060405180830381600087803b158015610aa957600080fd5b505af1158015610abd573d6000803e3d6000fd5b5050505060003373ffffffffffffffffffffffffffffffffffffffff167ff279e6a1f5e320cca91135676d9cb6e44ca8a08c0b88342bcdb1144f6511b56886604051610b099190614eb9565b60405180910390a3505050600160038190555050565b60148181548110610b2f57600080fd5b90600052602060002090600402016000915090508060000160009054906101000a900473ffffffffffffffffffffffffffffffffffffffff16908060010154908060020154908060030154905084565b60125481565b601360009054906101000a900460ff16610bd4576040517f08c379a0000000000000000000000000000000000000000000000000000000008152600401610bcb90614e19565b60405180910390fd5b6000610bde613c14565b9050600260008273ffffffffffffffffffffffffffffffffffffffff1673ffffffffffffffffffffffffffffffffffffffff16815260200190815260200160002060009054906101000a900460ff16610c6c576040517f08c379a0000000000000000000000000000000000000000000000000000000008152600401610c6390614dd9565b60405180910390fd5b610c7583613c1c565b610c80848484613d21565b50505050565b610c8e613c14565b73ffffffffffffffffffffffffffffffffffffffff16610cac612658565b73ffffffffffffffffffffffffffffffffffffffff1614610d02576040517f08c379a0000000000000000000000000000000000000000000000000000000008152600401610cf990614d39565b60405180910390fd5b8073ffffffffffffffffffffffffffffffffffffffff16600960009054906101000a900473ffffffffffffffffffffffffffffffffffffffff1673ffffffffffffffffffffffffffffffffffffffff161415610d93576040517f08c379a0000000000000000000000000000000000000000000000000000000008152600401610d8a90614d59565b60405180910390fd5b80600960006101000a81548173ffffffffffffffffffffffffffffffffffffffff021916908373ffffffffffffffffffffffffffffffffffffffff16021790555050565b601360009054906101000a900460ff16610e26576040517f08c379a0000000000000000000000000000000000000000000000000000000008152600401610e1d90614e19565b60405180910390fd5b610e2e613c14565b73ffffffffffffffffffffffffffffffffffffffff16610e4c612658565b73ffffffffffffffffffffffffffffffffffffffff1614610ea2576040517f08c379a0000000000000000000000000000000000000000000000000000000008152600401610e9990614d39565b60405180910390fd5b80600a60006101000a81548173ffffffffffffffffffffffffffffffffffffffff021916908373ffffffffffffffffffffffffffffffffffffffff16021790555050565b610eee613c14565b73ffffffffffffffffffffffffffffffffffffffff16610f0c612658565b73ffffffffffffffffffffffffffffffffffffffff1614610f62576040517f08c379a0000000000000000000000000000000000000000000000000000000008152600401610f5990614d39565b60405180910390fd5b8073ffffffffffffffffffffffffffffffffffffffff16600560009054906101000a900473ffffffffffffffffffffffffffffffffffffffff1673ffffffffffffffffffffffffffffffffffffffff161415610ff3576040517f08c379a0000000000000000000000000000000000000000000000000000000008152600401610fea90614d59565b60405180910390fd5b80600560006101000a81548173ffffffffffffffffffffffffffffffffffffffff021916908373ffffffffffffffffffffffffffffffffffffffff16021790555050565b601360009054906101000a900460ff16611086576040517f08c379a000000000000000000000000000000000000000000000000000000000815260040161107d90614e19565b60405180910390fd5b6000611090613c14565b9050600260008273ffffffffffffffffffffffffffffffffffffffff1673ffffffffffffffffffffffffffffffffffffffff16815260200190815260200160002060009054906101000a900460ff1661111e576040517f08c379a000000000000000000000000000000000000000000000000000000000815260040161111590614dd9565b60405180910390fd5b81600d541415611163576040517f08c379a000000000000000000000000000000000000000000000000000000000815260040161115a90614df9565b60405180910390fd5b81600d5410156111d8576000600d548361117d919061506b565b905080600c60008282546111919190614f53565b9250508190555082600d5411156111cf57600083600d546111b2919061506b565b905080600c60008282546111c6919061506b565b92505081905550505b82600d81905550505b6111e6600d54600c54613e7d565b7fb298bc23e07860d501fddce288f46d761aa04a0c7c3316099eb50f097aacf304600d54600c5460405161121b929190614ed4565b60405180910390a15050565b601360009054906101000a900460ff1681565b60026003541415611280576040517f08c379a000000000000000000000000000000000000000000000000000000000815260040161127790614e79565b60405180910390fd5b6002600381905550600060146000815481106112c5577f4e487b7100000000000000000000000000000000000000000000000000000000600052603260045260246000fd5b9060005260206000209060040201905060006015600080815260200190815260200160002060003373ffffffffffffffffffffffffffffffffffffffff1673ffffffffffffffffffffffffffffffffffffffff16815260200190815260200160002090506113336000611ddc565b60008160000154111561138d576000816001015464e8d4a51000846003015484600001546113619190615011565b61136b9190614fe0565b611375919061506b565b9050600081111561138b5761138a3382613b81565b5b505b6000831115611463578160000160009054906101000a900473ffffffffffffffffffffffffffffffffffffffff1673ffffffffffffffffffffffffffffffffffffffff166323b872dd3330866040518463ffffffff1660e01b81526004016113f793929190614b2d565b602060405180830381600087803b15801561141157600080fd5b505af1158015611425573d6000803e3d6000fd5b505050506040513d601f19601f820116820180604052508101906114499190614295565b5082816000015461145a9190614f53565b81600001819055505b64e8d4a510008260030154826000015461147d9190615011565b6114879190614fe0565b8160010181905550600760009054906101000a900473ffffffffffffffffffffffffffffffffffffffff1673ffffffffffffffffffffffffffffffffffffffff166340c10f1933856040518363ffffffff1660e01b81526004016114ec929190614b64565b600060405180830381600087803b15801561150657600080fd5b505af115801561151a573d6000803e3d6000fd5b5050505060003373ffffffffffffffffffffffffffffffffffffffff167f90890809c654f11d6e72a28fa60149770a0d11ec6c92319d6ceb2bb0a4ea1a15856040516115669190614eb9565b60405180910390a35050600160038190555050565b600960009054906101000a900473ffffffffffffffffffffffffffffffffffffffff1681565b600260035414156115e7576040517f08c379a00000000000000000000000000000000000000000000000000000000081526004016115de90614e79565b60405180910390fd5b6002600381905550816014805490508110611637576040517f08c379a000000000000000000000000000000000000000000000000000000000815260040161162e90614db9565b60405180910390fd5b600083141561167b576040517f08c379a000000000000000000000000000000000000000000000000000000000815260040161167290614cf9565b60405180910390fd5b6000601484815481106116b7577f4e487b7100000000000000000000000000000000000000000000000000000000600052603260045260246000fd5b9060005260206000209060040201905060006015600086815260200190815260200160002060003373ffffffffffffffffffffffffffffffffffffffff1673ffffffffffffffffffffffffffffffffffffffff16815260200190815260200160002090508381600001541015611762576040517f08c379a000000000000000000000000000000000000000000000000000000000815260040161175990614e59565b60405180910390fd5b61176b85611ddc565b6000816001015464e8d4a510008460030154846000015461178c9190615011565b6117969190614fe0565b6117a0919061506b565b905060008111156117b6576117b53382613b81565b5b600085111561188a578482600001546117cf919061506b565b82600001819055508260000160009054906101000a900473ffffffffffffffffffffffffffffffffffffffff1673ffffffffffffffffffffffffffffffffffffffff1663a9059cbb33876040518363ffffffff1660e01b8152600401611836929190614b64565b602060405180830381600087803b15801561185057600080fd5b505af1158015611864573d6000803e3d6000fd5b505050506040513d601f19601f820116820180604052508101906118889190614295565b505b64e8d4a51000836003015483600001546118a49190615011565b6118ae9190614fe0565b8260010181905550853373ffffffffffffffffffffffffffffffffffffffff167ff279e6a1f5e320cca91135676d9cb6e44ca8a08c0b88342bcdb1144f6511b568876040516118fd9190614eb9565b60405180910390a35050505060016003819055505050565b601360009054906101000a900460ff16611964576040517f08c379a000000000000000000000000000000000000000000000000000000000815260040161195b90614e19565b60405180910390fd5b8060148054905081106119ac576040517f08c379a00000000000000000000000000000000000000000000000000000000081526004016119a390614db9565b60405180910390fd5b600073ffffffffffffffffffffffffffffffffffffffff16600a60009054906101000a900473ffffffffffffffffffffffffffffffffffffffff1673ffffffffffffffffffffffffffffffffffffffff161415611a3e576040517f08c379a0000000000000000000000000000000000000000000000000000000008152600401611a3590614cd9565b60405180910390fd5b600060148381548110611a7a577f4e487b7100000000000000000000000000000000000000000000000000000000600052603260045260246000fd5b9060005260206000209060040201905060008160000160009054906101000a900473ffffffffffffffffffffffffffffffffffffffff16905060008173ffffffffffffffffffffffffffffffffffffffff166370a08231306040518263ffffffff1660e01b8152600401611aee9190614ab1565b60206040518083038186803b158015611b0657600080fd5b505afa158015611b1a573d6000803e3d6000fd5b505050506040513d601f19601f82011682018060405250810190611b3e919061438b565b90508173ffffffffffffffffffffffffffffffffffffffff1663095ea7b3600a60009054906101000a900473ffffffffffffffffffffffffffffffffffffffff16836040518363ffffffff1660e01b8152600401611b9d929190614b64565b602060405180830381600087803b158015611bb757600080fd5b505af1158015611bcb573d6000803e3d6000fd5b505050506040513d601f19601f82011682018060405250810190611bef9190614295565b506000600a60009054906101000a900473ffffffffffffffffffffffffffffffffffffffff1673ffffffffffffffffffffffffffffffffffffffff1663ce5494bb846040518263ffffffff1660e01b8152600401611c4d9190614ba8565b602060405180830381600087803b158015611c6757600080fd5b505af1158015611c7b573d6000803e3d6000fd5b505050506040513d601f19601f82011682018060405250810190611c9f91906142be565b90508073ffffffffffffffffffffffffffffffffffffffff166370a08231306040518263ffffffff1660e01b8152600401611cda9190614ab1565b60206040518083038186803b158015611cf257600080fd5b505afa158015611d06573d6000803e3d6000fd5b505050506040513d601f19601f82011682018060405250810190611d2a919061438b565b8214611d6b576040517f08c379a0000000000000000000000000000000000000000000000000000000008152600401611d6290614e99565b60405180910390fd5b808460000160006101000a81548173ffffffffffffffffffffffffffffffffffffffff021916908373ffffffffffffffffffffffffffffffffffffffff160217905550505050505050565b600760009054906101000a900473ffffffffffffffffffffffffffffffffffffffff1681565b806014805490508110611e24576040517f08c379a0000000000000000000000000000000000000000000000000000000008152600401611e1b90614db9565b60405180910390fd5b600060148381548110611e60577f4e487b7100000000000000000000000000000000000000000000000000000000600052603260045260246000fd5b9060005260206000209060040201905080600201544211611e815750612224565b60008160000160009054906101000a900473ffffffffffffffffffffffffffffffffffffffff1673ffffffffffffffffffffffffffffffffffffffff166370a08231306040518263ffffffff1660e01b8152600401611ee09190614ab1565b60206040518083038186803b158015611ef857600080fd5b505afa158015611f0c573d6000803e3d6000fd5b505050506040513d601f19601f82011682018060405250810190611f30919061438b565b90506000811415611f4b574282600201819055505050612224565b6000611f5b836002015442612681565b905060006012548460010154600f5484611f759190615011565b611f7f9190615011565b611f899190614fe0565b90506000650746a528800064e8d4a5100083611fa59190615011565b611faf9190614fe0565b90506000600282611fc09190615011565b905060008184611fd0919061506b565b9050600560009054906101000a900473ffffffffffffffffffffffffffffffffffffffff1673ffffffffffffffffffffffffffffffffffffffff166340c10f19600860009054906101000a900473ffffffffffffffffffffffffffffffffffffffff16856040518363ffffffff1660e01b8152600401612051929190614b64565b600060405180830381600087803b15801561206b57600080fd5b505af115801561207f573d6000803e3d6000fd5b50505050600560009054906101000a900473ffffffffffffffffffffffffffffffffffffffff1673ffffffffffffffffffffffffffffffffffffffff166340c10f19600960009054906101000a900473ffffffffffffffffffffffffffffffffffffffff16856040518363ffffffff1660e01b8152600401612102929190614b64565b600060405180830381600087803b15801561211c57600080fd5b505af1158015612130573d6000803e3d6000fd5b50505050600560009054906101000a900473ffffffffffffffffffffffffffffffffffffffff1673ffffffffffffffffffffffffffffffffffffffff166340c10f19600760009054906101000a900473ffffffffffffffffffffffffffffffffffffffff16836040518363ffffffff1660e01b81526004016121b3929190614b64565b600060405180830381600087803b1580156121cd57600080fd5b505af11580156121e1573d6000803e3d6000fd5b505050508581856121f29190615011565b6121fc9190614fe0565b876003015461220b9190614f53565b8760030181905550428760020181905550505050505050505b5050565b600f5481565b6000612238613c14565b9050600260008273ffffffffffffffffffffffffffffffffffffffff1673ffffffffffffffffffffffffffffffffffffffff16815260200190815260200160002060009054906101000a900460ff166122c6576040517f08c379a00000000000000000000000000000000000000000000000000000000081526004016122bd90614dd9565b60405180910390fd5b816010819055505050565b6000601480549050905060005b81811015612300576122ef81611ddc565b806122f9906151cc565b90506122de565b5050565b601360009054906101000a900460ff16612353576040517f08c379a000000000000000000000000000000000000000000000000000000000815260040161234a90614e19565b60405180910390fd5b82601480549050811061239b576040517f08c379a000000000000000000000000000000000000000000000000000000000815260040161239290614db9565b60405180910390fd5b60006123a5613c14565b9050600260008273ffffffffffffffffffffffffffffffffffffffff1673ffffffffffffffffffffffffffffffffffffffff16815260200190815260200160002060009054906101000a900460ff16612433576040517f08c379a000000000000000000000000000000000000000000000000000000000815260040161242a90614dd9565b60405180910390fd5b8215612442576124416122d1565b5b60006014868154811061247e577f4e487b7100000000000000000000000000000000000000000000000000000000600052603260045260246000fd5b906000526020600020906004020160010154905084601487815481106124cd577f4e487b7100000000000000000000000000000000000000000000000000000000600052603260045260246000fd5b9060005260206000209060040201600101819055508481146125115784816012546124f8919061506b565b6125029190614f53565b601281905550612510613f02565b5b7fd88f859573973e938da5bf3e5100c16eee2090fa720e05ae3d452b4cd05cdcfd8686604051612542929190614ed4565b60405180910390a1505050505050565b61255a613c14565b73ffffffffffffffffffffffffffffffffffffffff16612578612658565b73ffffffffffffffffffffffffffffffffffffffff16146125ce576040517f08c379a00000000000000000000000000000000000000000000000000000000081526004016125c590614d39565b60405180910390fd5b6125d8600061405f565b565b60115481565b600a60009054906101000a900473ffffffffffffffffffffffffffffffffffffffff1681565b600e5481565b600560009054906101000a900473ffffffffffffffffffffffffffffffffffffffff1681565b600860009054906101000a900473ffffffffffffffffffffffffffffffffffffffff1681565b60008060009054906101000a900473ffffffffffffffffffffffffffffffffffffffff16905090565b60006010548383612692919061506b565b61269c9190615011565b905092915050565b6015602052816000526040600020602052806000526040600020600091509150508060000154908060010154905082565b600c5481565b60006126e5613c14565b9050600260008273ffffffffffffffffffffffffffffffffffffffff1673ffffffffffffffffffffffffffffffffffffffff16815260200190815260200160002060009054906101000a900460ff16612773576040517f08c379a000000000000000000000000000000000000000000000000000000000815260040161276a90614dd9565b60405180910390fd5b600073ffffffffffffffffffffffffffffffffffffffff168273ffffffffffffffffffffffffffffffffffffffff1614156127e3576040517f08c379a00000000000000000000000000000000000000000000000000000000081526004016127da90614c79565b60405180910390fd5b600260008373ffffffffffffffffffffffffffffffffffffffff1673ffffffffffffffffffffffffffffffffffffffff16815260200190815260200160002060009054906101000a900460ff1615612870576040517f08c379a000000000000000000000000000000000000000000000000000000000815260040161286790614d99565b60405180910390fd5b6001600260008473ffffffffffffffffffffffffffffffffffffffff1673ffffffffffffffffffffffffffffffffffffffff16815260200190815260200160002060006101000a81548160ff0219169083151502179055506001829080600181540180825580915050600190039060005260206000200160009091909190916101000a81548173ffffffffffffffffffffffffffffffffffffffff021916908373ffffffffffffffffffffffffffffffffffffffff160217905550600115158273ffffffffffffffffffffffffffffffffffffffff167f966c160e1c4dbc7df8d69af4ace01e9297c3cf016397b7914971f2fbfa32672d60405160405180910390a35050565b60026020528060005260406000206000915054906101000a900460ff1681565b600b5481565b600d5481565b60105481565b60006129b2613c14565b9050600260008273ffffffffffffffffffffffffffffffffffffffff1673ffffffffffffffffffffffffffffffffffffffff16815260200190815260200160002060009054906101000a900460ff16612a40576040517f08c379a0000000000000000000000000000000000000000000000000000000008152600401612a3790614dd9565b60405180910390fd5b600260008373ffffffffffffffffffffffffffffffffffffffff1673ffffffffffffffffffffffffffffffffffffffff16815260200190815260200160002060009054906101000a900460ff16612acc576040517f08c379a0000000000000000000000000000000000000000000000000000000008152600401612ac390614cb9565b60405180910390fd5b6000600260008473ffffffffffffffffffffffffffffffffffffffff1673ffffffffffffffffffffffffffffffffffffffff16815260200190815260200160002060006101000a81548160ff02191690831515021790555060005b6001805490508160ff161015612d97578273ffffffffffffffffffffffffffffffffffffffff1660018260ff1681548110612b8b577f4e487b7100000000000000000000000000000000000000000000000000000000600052603260045260246000fd5b9060005260206000200160009054906101000a900473ffffffffffffffffffffffffffffffffffffffff1673ffffffffffffffffffffffffffffffffffffffff161415612d845760018082612be09190614fa9565b60ff1681548110612c1a577f4e487b7100000000000000000000000000000000000000000000000000000000600052603260045260246000fd5b9060005260206000200160009054906101000a900473ffffffffffffffffffffffffffffffffffffffff1660018260ff1681548110612c82577f4e487b7100000000000000000000000000000000000000000000000000000000600052603260045260246000fd5b9060005260206000200160006101000a81548173ffffffffffffffffffffffffffffffffffffffff021916908373ffffffffffffffffffffffffffffffffffffffff1602179055506001805480612d02577f4e487b7100000000000000000000000000000000000000000000000000000000600052603160045260246000fd5b6001900381819060005260206000200160006101000a81549073ffffffffffffffffffffffffffffffffffffffff02191690559055600015158373ffffffffffffffffffffffffffffffffffffffff167f966c160e1c4dbc7df8d69af4ace01e9297c3cf016397b7914971f2fbfa32672d60405160405180910390a350612d99565b8080612d8f90615215565b915050612b27565b505b5050565b60008060148481548110612dda577f4e487b7100000000000000000000000000000000000000000000000000000000600052603260045260246000fd5b9060005260206000209060040201905060006015600086815260200190815260200160002060008573ffffffffffffffffffffffffffffffffffffffff1673ffffffffffffffffffffffffffffffffffffffff168152602001908152602001600020905060008260030154905060008360000160009054906101000a900473ffffffffffffffffffffffffffffffffffffffff1673ffffffffffffffffffffffffffffffffffffffff166370a08231306040518263ffffffff1660e01b8152600401612ea69190614ab1565b60206040518083038186803b158015612ebe57600080fd5b505afa158015612ed2573d6000803e3d6000fd5b505050506040513d601f19601f82011682018060405250810190612ef6919061438b565b9050836002015442118015612f0c575060008114155b15612f7d576000612f21856002015442612681565b905060006012548660010154600f5484612f3b9190615011565b612f459190615011565b612f4f9190614fe0565b90508264e8d4a5100082612f639190615011565b612f6d9190614fe0565b84612f789190614f53565b935050505b826001015464e8d4a51000838560000154612f989190615011565b612fa29190614fe0565b612fac919061506b565b94505050505092915050565b612fc0613c14565b73ffffffffffffffffffffffffffffffffffffffff16612fde612658565b73ffffffffffffffffffffffffffffffffffffffff1614613034576040517f08c379a000000000000000000000000000000000000000000000000000000000815260040161302b90614d39565b60405180910390fd5b601360009054906101000a900460ff1615613084576040517f08c379a000000000000000000000000000000000000000000000000000000000815260040161307b90614c99565b60405180910390fd5b84600460006101000a81548173ffffffffffffffffffffffffffffffffffffffff021916908373ffffffffffffffffffffffffffffffffffffffff16021790555083600660006101000a81548173ffffffffffffffffffffffffffffffffffffffff021916908373ffffffffffffffffffffffffffffffffffffffff16021790555033600960006101000a81548173ffffffffffffffffffffffffffffffffffffffff021916908373ffffffffffffffffffffffffffffffffffffffff16021790555033600860006101000a81548173ffffffffffffffffffffffffffffffffffffffff021916908373ffffffffffffffffffffffffffffffffffffffff1602179055504260118190555082600b8190555080826131a29190614f53565b600c8190555080600d81905550600460009054906101000a900473ffffffffffffffffffffffffffffffffffffffff16600560006101000a81548173ffffffffffffffffffffffffffffffffffffffff021916908373ffffffffffffffffffffffffffffffffffffffff160217905550600660009054906101000a900473ffffffffffffffffffffffffffffffffffffffff16600760006101000a81548173ffffffffffffffffffffffffffffffffffffffff021916908373ffffffffffffffffffffffffffffffffffffffff160217905550613283600d54600c54613e7d565b60146040518060800160405280600560009054906101000a900473ffffffffffffffffffffffffffffffffffffffff1673ffffffffffffffffffffffffffffffffffffffff1681526020016103e8815260200160115481526020016000815250908060018154018082558091505060019003906000526020600020906004020160009091909190915060008201518160000160006101000a81548173ffffffffffffffffffffffffffffffffffffffff021916908373ffffffffffffffffffffffffffffffffffffffff16021790555060208201518160010155604082015181600201556060820151816003015550506001601360006101000a81548160ff0219169083151502179055506103e86012819055507f0476c5e4920930815a67a5a042e26836431f494d3be0f6e10c3034787a7a15f9600860009054906101000a900473ffffffffffffffffffffffffffffffffffffffff16600960009054906101000a900473ffffffffffffffffffffffffffffffffffffffff16600460009054906101000a900473ffffffffffffffffffffffffffffffffffffffff16600660009054906101000a900473ffffffffffffffffffffffffffffffffffffffff16600b54600d5460405161345c96959493929190614acc565b60405180910390a15050505050565b613473613c14565b73ffffffffffffffffffffffffffffffffffffffff16613491612658565b73ffffffffffffffffffffffffffffffffffffffff16146134e7576040517f08c379a00000000000000000000000000000000000000000000000000000000081526004016134de90614d39565b60405180910390fd5b8073ffffffffffffffffffffffffffffffffffffffff16600860009054906101000a900473ffffffffffffffffffffffffffffffffffffffff1673ffffffffffffffffffffffffffffffffffffffff161415613578576040517f08c379a000000000000000000000000000000000000000000000000000000000815260040161356f90614d59565b60405180910390fd5b80600860006101000a81548173ffffffffffffffffffffffffffffffffffffffff021916908373ffffffffffffffffffffffffffffffffffffffff16021790555050565b600181815481106135cc57600080fd5b906000526020600020016000915054906101000a900473ffffffffffffffffffffffffffffffffffffffff1681565b60026003541415613641576040517f08c379a000000000000000000000000000000000000000000000000000000000815260040161363890614e79565b60405180910390fd5b6002600381905550816014805490508110613691576040517f08c379a000000000000000000000000000000000000000000000000000000000815260040161368890614db9565b60405180910390fd5b60008314156136d5576040517f08c379a00000000000000000000000000000000000000000000000000000000081526004016136cc90614d19565b60405180910390fd5b600060148481548110613711577f4e487b7100000000000000000000000000000000000000000000000000000000600052603260045260246000fd5b9060005260206000209060040201905060006015600086815260200190815260200160002060003373ffffffffffffffffffffffffffffffffffffffff1673ffffffffffffffffffffffffffffffffffffffff168152602001908152602001600020905061377e85611ddc565b6000816000015411156137d8576000816001015464e8d4a51000846003015484600001546137ac9190615011565b6137b69190614fe0565b6137c0919061506b565b905060008111156137d6576137d53382613b81565b5b505b60008411156138ae578160000160009054906101000a900473ffffffffffffffffffffffffffffffffffffffff1673ffffffffffffffffffffffffffffffffffffffff166323b872dd3330876040518463ffffffff1660e01b815260040161384293929190614b2d565b602060405180830381600087803b15801561385c57600080fd5b505af1158015613870573d6000803e3d6000fd5b505050506040513d601f19601f820116820180604052508101906138949190614295565b508381600001546138a59190614f53565b81600001819055505b64e8d4a51000826003015482600001546138c89190615011565b6138d29190614fe0565b8160010181905550843373ffffffffffffffffffffffffffffffffffffffff167f90890809c654f11d6e72a28fa60149770a0d11ec6c92319d6ceb2bb0a4ea1a15866040516139219190614eb9565b60405180910390a350505060016003819055505050565b613940613c14565b73ffffffffffffffffffffffffffffffffffffffff1661395e612658565b73ffffffffffffffffffffffffffffffffffffffff16146139b4576040517f08c379a00000000000000000000000000000000000000000000000000000000081526004016139ab90614d39565b60405180910390fd5b600073ffffffffffffffffffffffffffffffffffffffff168173ffffffffffffffffffffffffffffffffffffffff161415613a24576040517f08c379a0000000000000000000000000000000000000000000000000000000008152600401613a1b90614c59565b60405180910390fd5b613a2d8161405f565b50565b613a38613c14565b73ffffffffffffffffffffffffffffffffffffffff16613a56612658565b73ffffffffffffffffffffffffffffffffffffffff1614613aac576040517f08c379a0000000000000000000000000000000000000000000000000000000008152600401613aa390614d39565b60405180910390fd5b8073ffffffffffffffffffffffffffffffffffffffff16600760009054906101000a900473ffffffffffffffffffffffffffffffffffffffff1673ffffffffffffffffffffffffffffffffffffffff161415613b3d576040517f08c379a0000000000000000000000000000000000000000000000000000000008152600401613b3490614d59565b60405180910390fd5b80600760006101000a81548173ffffffffffffffffffffffffffffffffffffffff021916908373ffffffffffffffffffffffffffffffffffffffff16021790555050565b600760009054906101000a900473ffffffffffffffffffffffffffffffffffffffff1673ffffffffffffffffffffffffffffffffffffffff1663b2a142aa83836040518363ffffffff1660e01b8152600401613bde929190614b64565b600060405180830381600087803b158015613bf857600080fd5b505af1158015613c0c573d6000803e3d6000fd5b505050505050565b600033905090565b6000601480549050905060005b81811015613d1c578273ffffffffffffffffffffffffffffffffffffffff1660148281548110613c82577f4e487b7100000000000000000000000000000000000000000000000000000000600052603260045260246000fd5b906000526020600020906004020160000160009054906101000a900473ffffffffffffffffffffffffffffffffffffffff1673ffffffffffffffffffffffffffffffffffffffff161415613d0b576040517f08c379a0000000000000000000000000000000000000000000000000000000008152600401613d0290614d79565b60405180910390fd5b80613d15906151cc565b9050613c29565b505050565b8015613d3057613d2f6122d1565b5b60006011544211613d4357601154613d45565b425b905083601254613d559190614f53565b601281905550601460405180608001604052808573ffffffffffffffffffffffffffffffffffffffff1681526020018681526020018381526020016000815250908060018154018082558091505060019003906000526020600020906004020160009091909190915060008201518160000160006101000a81548173ffffffffffffffffffffffffffffffffffffffff021916908373ffffffffffffffffffffffffffffffffffffffff1602179055506020820151816001015560408201518160020155606082015181600301555050613e2d613f02565b600060148054905090507f20b669aa921947a6d9602a921d2db3b6b30f21b9aca98580fa3972530330b27a818686601254604051613e6e9493929190614efd565b60405180910390a15050505050565b60008183613e8b9190614fe0565b90506934f086f3b33b6840000081613ea39190615011565b600e8190555062015180600e54613eba9190614fe0565b600f819055507fcd7c861d63893659123f817b192b8621ff1923a7c4589c260173cedcf9e986a6600e54600f54604051613ef5929190614ed4565b60405180910390a1505050565b60006014805490509050600080600190505b82811015613f865760148181548110613f56577f4e487b7100000000000000000000000000000000000000000000000000000000600052603260045260246000fd5b90600052602060002090600402016001015482613f739190614f53565b915080613f7f906151cc565b9050613f14565b506000811461405b57600381613f9c9190614fe0565b9050806014600081548110613fda577f4e487b7100000000000000000000000000000000000000000000000000000000600052603260045260246000fd5b906000526020600020906004020160010154601254613ff9919061506b565b6140039190614f53565b601281905550806014600081548110614045577f4e487b7100000000000000000000000000000000000000000000000000000000600052603260045260246000fd5b9060005260206000209060040201600101819055505b5050565b60008060009054906101000a900473ffffffffffffffffffffffffffffffffffffffff169050816000806101000a81548173ffffffffffffffffffffffffffffffffffffffff021916908373ffffffffffffffffffffffffffffffffffffffff1602179055508173ffffffffffffffffffffffffffffffffffffffff168173ffffffffffffffffffffffffffffffffffffffff167f8be0079c531659141344cd1fd0a4f28419497f9722a3daafe3b4186f6b6457e060405160405180910390a35050565b6000813590506141328161529d565b92915050565b600081359050614147816152b4565b92915050565b60008151905061415c816152b4565b92915050565b600081359050614171816152cb565b92915050565b600081519050614186816152cb565b92915050565b60008135905061419b816152e2565b92915050565b6000813590506141b0816152f9565b92915050565b6000813590506141c581615310565b92915050565b6000813590506141da81615327565b92915050565b6000815190506141ef81615327565b92915050565b60006020828403121561420757600080fd5b600061421584828501614123565b91505092915050565b600080600080600060a0868803121561423657600080fd5b600061424488828901614123565b955050602061425588828901614123565b9450506040614266888289016141cb565b9350506060614277888289016141cb565b9250506080614288888289016141cb565b9150509295509295909350565b6000602082840312156142a757600080fd5b60006142b58482850161414d565b91505092915050565b6000602082840312156142d057600080fd5b60006142de84828501614177565b91505092915050565b6000602082840312156142f957600080fd5b60006143078482850161418c565b91505092915050565b60006020828403121561432257600080fd5b6000614330848285016141a1565b91505092915050565b60006020828403121561434b57600080fd5b6000614359848285016141b6565b91505092915050565b60006020828403121561437457600080fd5b6000614382848285016141cb565b91505092915050565b60006020828403121561439d57600080fd5b60006143ab848285016141e0565b91505092915050565b600080604083850312156143c757600080fd5b60006143d5858286016141cb565b92505060206143e685828601614123565b9150509250929050565b60008060006060848603121561440557600080fd5b6000614413868287016141cb565b935050602061442486828701614162565b925050604061443586828701614138565b9150509250925092565b6000806040838503121561445257600080fd5b6000614460858286016141cb565b9250506020614471858286016141cb565b9150509250929050565b60008060006060848603121561449057600080fd5b600061449e868287016141cb565b93505060206144af868287016141cb565b92505060406144c086828701614138565b9150509250925092565b6144d38161509f565b82525050565b6144e2816150b1565b82525050565b6144f18161513c565b82525050565b61450081615160565b82525050565b61450f81615184565b82525050565b61451e816151a8565b82525050565b6000614531602683614f42565b91507f4f776e61626c653a206e6577206f776e657220697320746865207a65726f206160008301527f64647265737300000000000000000000000000000000000000000000000000006020830152604082019050919050565b6000614597602a83614f42565b91507f4f70657261626c653a206e6577206f70657261746f7220697320746865207a6560008301527f726f2061646472657373000000000000000000000000000000000000000000006020830152604082019050919050565b60006145fd601383614f42565b91507f616c726561647920696e697469616c697a6564000000000000000000000000006000830152602082019050919050565b600061463d602483614f42565b91507f4f70657261626c653a2061646472657373206973206e6f7420616e206f70657260008301527f61746f72000000000000000000000000000000000000000000000000000000006020830152604082019050919050565b60006146a3600f83614f42565b91507f6e6f206d69677261746f722073657400000000000000000000000000000000006000830152602082019050919050565b60006146e3601a83614f42565b91507f776974686472617720534f554c20627920756e7374616b696e670000000000006000830152602082019050919050565b6000614723601783614f42565b91507f6465706f73697420534f554c206279207374616b696e670000000000000000006000830152602082019050919050565b6000614763602083614f42565b91507f4f776e61626c653a2063616c6c6572206973206e6f7420746865206f776e65726000830152602082019050919050565b60006147a3601583614f42565b91507f6d7573742062652061206e6577206164647265737300000000000000000000006000830152602082019050919050565b60006147e3601283614f42565b91507f6164643a206578697374696e6720706f6f6c00000000000000000000000000006000830152602082019050919050565b6000614823602883614f42565b91507f4f70657261626c653a206164647265737320697320616c726561647920616e2060008301527f6f70657261746f720000000000000000000000000000000000000000000000006020830152604082019050919050565b6000614889601383614f42565b91507f706f6f6c20646f6573206e6f74206578697374000000000000000000000000006000830152602082019050919050565b60006148c9602383614f42565b91507f4f70657261746f723a2063616c6c6572206973206e6f7420616e206f7065726160008301527f746f7200000000000000000000000000000000000000000000000000000000006020830152604082019050919050565b600061492f601883614f42565b91507f6d757374206265206e6577207765696768742076616c756500000000000000006000830152602082019050919050565b600061496f601983614f42565b91507f6661726d696e6720686173206e6f742079657420626567756e000000000000006000830152602082019050919050565b60006149af601283614f42565b91507f77697468647261773a206e6f7420676f6f6400000000000000000000000000006000830152602082019050919050565b60006149ef601183614f42565b91507f7769746864726177206e6f7420676f6f640000000000000000000000000000006000830152602082019050919050565b6000614a2f601f83614f42565b91507f5265656e7472616e637947756172643a207265656e7472616e742063616c6c006000830152602082019050919050565b6000614a6f601d83614f42565b91507f6d6967726174653a20696e73756666696369656e742062616c616e63650000006000830152602082019050919050565b614aab81615125565b82525050565b6000602082019050614ac660008301846144ca565b92915050565b600060c082019050614ae160008301896144ca565b614aee60208301886144ca565b614afb60408301876144ca565b614b0860608301866144ca565b614b156080830185614aa2565b614b2260a0830184614aa2565b979650505050505050565b6000606082019050614b4260008301866144ca565b614b4f60208301856144ca565b614b5c6040830184614aa2565b949350505050565b6000604082019050614b7960008301856144ca565b614b866020830184614aa2565b9392505050565b6000602082019050614ba260008301846144d9565b92915050565b6000602082019050614bbd60008301846144e8565b92915050565b6000608082019050614bd860008301876144e8565b614be56020830186614aa2565b614bf26040830185614aa2565b614bff6060830184614aa2565b95945050505050565b6000602082019050614c1d60008301846144f7565b92915050565b6000602082019050614c386000830184614506565b92915050565b6000602082019050614c536000830184614515565b92915050565b60006020820190508181036000830152614c7281614524565b9050919050565b60006020820190508181036000830152614c928161458a565b9050919050565b60006020820190508181036000830152614cb2816145f0565b9050919050565b60006020820190508181036000830152614cd281614630565b9050919050565b60006020820190508181036000830152614cf281614696565b9050919050565b60006020820190508181036000830152614d12816146d6565b9050919050565b60006020820190508181036000830152614d3281614716565b9050919050565b60006020820190508181036000830152614d5281614756565b9050919050565b60006020820190508181036000830152614d7281614796565b9050919050565b60006020820190508181036000830152614d92816147d6565b9050919050565b60006020820190508181036000830152614db281614816565b9050919050565b60006020820190508181036000830152614dd28161487c565b9050919050565b60006020820190508181036000830152614df2816148bc565b9050919050565b60006020820190508181036000830152614e1281614922565b9050919050565b60006020820190508181036000830152614e3281614962565b9050919050565b60006020820190508181036000830152614e52816149a2565b9050919050565b60006020820190508181036000830152614e72816149e2565b9050919050565b60006020820190508181036000830152614e9281614a22565b9050919050565b60006020820190508181036000830152614eb281614a62565b9050919050565b6000602082019050614ece6000830184614aa2565b92915050565b6000604082019050614ee96000830185614aa2565b614ef66020830184614aa2565b9392505050565b6000608082019050614f126000830187614aa2565b614f1f6020830186614aa2565b614f2c60408301856144e8565b614f396060830184614aa2565b95945050505050565b600082825260208201905092915050565b6000614f5e82615125565b9150614f6983615125565b9250827fffffffffffffffffffffffffffffffffffffffffffffffffffffffffffffffff03821115614f9e57614f9d61523f565b5b828201905092915050565b6000614fb48261512f565b9150614fbf8361512f565b92508260ff03821115614fd557614fd461523f565b5b828201905092915050565b6000614feb82615125565b9150614ff683615125565b9250826150065761500561526e565b5b828204905092915050565b600061501c82615125565b915061502783615125565b9250817fffffffffffffffffffffffffffffffffffffffffffffffffffffffffffffffff04831182151516156150605761505f61523f565b5b828202905092915050565b600061507682615125565b915061508183615125565b9250828210156150945761509361523f565b5b828203905092915050565b60006150aa82615105565b9050919050565b60008115159050919050565b60006150c88261509f565b9050919050565b60006150da8261509f565b9050919050565b60006150ec8261509f565b9050919050565b60006150fe8261509f565b9050919050565b600073ffffffffffffffffffffffffffffffffffffffff82169050919050565b6000819050919050565b600060ff82169050919050565b60006151478261514e565b9050919050565b600061515982615105565b9050919050565b600061516b82615172565b9050919050565b600061517d82615105565b9050919050565b600061518f82615196565b9050919050565b60006151a182615105565b9050919050565b60006151b3826151ba565b9050919050565b60006151c582615105565b9050919050565b60006151d782615125565b91507fffffffffffffffffffffffffffffffffffffffffffffffffffffffffffffffff82141561520a5761520961523f565b5b600182019050919050565b60006152208261512f565b915060ff8214156152345761523361523f565b5b600182019050919050565b7f4e487b7100000000000000000000000000000000000000000000000000000000600052601160045260246000fd5b7f4e487b7100000000000000000000000000000000000000000000000000000000600052601260045260246000fd5b6152a68161509f565b81146152b157600080fd5b50565b6152bd816150b1565b81146152c857600080fd5b50565b6152d4816150bd565b81146152df57600080fd5b50565b6152eb816150cf565b81146152f657600080fd5b50565b615302816150e1565b811461530d57600080fd5b50565b615319816150f3565b811461532457600080fd5b50565b61533081615125565b811461533b57600080fd5b5056fea2646970667358221220aa51b33c1e0e86deac73fb2b802638f8efc52e2a3c7a861de635e3f9ac8ec01764736f6c63430008000033",
  "immutableReferences": {},
  "source": "// SPDX-License-Identifier: MIT\n\npragma solidity ^0.8.0;\n\nimport '@openzeppelin/contracts/security/ReentrancyGuard.sol';\nimport './SoulPower.sol';\nimport './SeanceCircle.sol';\nimport './interfaces/IMigrator.sol';\n\n// the summoner of souls | ownership transferred to a governance smart contract \n// upon sufficient distribution + the community's desire to self-govern.\n\ncontract SoulSummoner is Operable, ReentrancyGuard {\n\n    // info of each user.\n    struct Users {\n        uint amount;     // ttl lp tokens user has provided\n        uint rewardDebt; // reward debt (see below)\n        //\n        // we do some fancy math here. basically, any point in time, the amount of SOUL\n        // entitled to a user but is pending to be distributed is:\n        //\n        //   pending reward = (user.amount * pool.accSoulPerShare) - user.rewardDebt\n        //\n        // the following occurs when anyone deposits or withdraws lp tokens to a pool:\n        //   1. pool: `accSoulPerShare` and `lastRewardTime` get updated.\n        //   2. user: receives pending reward.\n        //   3. user: `amount` updates(+/-).\n        //   4. user: `rewardDebt` updates (+/-).\n    }\n\n    // info of each pool.\n    struct Pools {\n        IERC20 lpToken;       // lp token ierc20 contract.\n        uint allocPoint;      // allocation points assigned to this pool | SOULs to distribute per second.\n        uint lastRewardTime;  // most recent UNIX timestamp during which SOULs distribution occurred in the pool.\n        uint accSoulPerShare; // accumulated SOULs per share, times 1e12.\n    }\n\n    // SOUL POWER!\n    address private soulAddress;\n    SoulPower public soul;\n    \n    // SEANCE TOKEN!\n    address private seanceAddress;\n    SeanceCircle public seance;\n\n    address public team; // receives 1/8 soul supply\n    address public dao; // recieves 1/8 soul supply\n\n    // migrator contract | has a lot of power.\n    IMigrator public migrator;\n\n    // ** GLOBAL VARIABLES ** //\n    uint public chainId;\n    uint public totalWeight;\n    uint public weight;\n\n    // SOUL per DAY\n    uint public dailySoul; // = weight * 250K * 1e18;\n\n    // SOUL / second.\n    uint public soulPerSecond; // = dailySoul / 86400;\n\n    // bonus muliplier for early soul summoners.\n    uint public bonusMultiplier = 1;\n\n    // UNIX timestamp when SOUL mining starts.\n    uint public startTime;\n\n    // ttl allocation points | must be the sum of all allocation points.\n    uint public totalAllocPoint;\n\n    // summoner initialized state.\n    bool public isInitialized;\n\n    Pools[] public poolInfo; // pool info\n    mapping (uint => mapping (address => Users)) public userInfo; // staker data\n\n    modifier isSummoned {\n        require(isInitialized, 'farming has not yet begun');\n        _;\n    }\n\n    event Deposit(address indexed user, uint indexed pid, uint amount);\n    event Withdraw(address indexed user, uint indexed pid, uint amount);\n\n    event Initialized(address team, address dev, address soul, address seance, uint chainId, uint power);\n\n    event PoolAdded(uint pid, uint allocPoint, IERC20 lpToken, uint totalAllocPoint);\n    event PoolSet(uint pid, uint allocPoint);\n\n    event WeightUpdated(uint weight, uint totalWeight);\n    event RewardsUpdated(uint dailySoul, uint soulPerSecond);\n\n    modifier validatePoolByPid(uint256 _pid) {\n        require(_pid < poolInfo.length, \"pool does not exist\");\n        _;\n    }\n\n    // VALIDATION -- ELIMINATES POOL DUPLICATION RISK -- NONE\n    function checkPoolDuplicate(IERC20 _token\n    ) internal view {\n        uint256 length = poolInfo.length;\n        for (uint256 pid = 0; pid < length; ++pid) {\n            require(poolInfo[pid].lpToken != _token, \"add: existing pool\");\n        }\n    }\n\n    function initialize(\n        address _soulAddress, \n        address _seanceAddress, \n        uint _chainId,\n        uint _totalWeight,\n        uint _weight) external onlyOwner {\n        require(!isInitialized, 'already initialized');\n\n        soulAddress = _soulAddress;\n        seanceAddress = _seanceAddress;\n        dao = msg.sender;\n        team = msg.sender;\n\n        startTime = block.timestamp;\n\n        chainId = _chainId;\n        totalWeight = _totalWeight + _weight;\n        weight = _weight;\n\n        soul  = SoulPower(soulAddress);\n        seance = SeanceCircle(seanceAddress);\n\n        updateRewards(weight, totalWeight); // updates dailySoul and soulPerSecond\n\n        // staking pool\n        poolInfo.push(Pools({\n            lpToken: soul,\n            allocPoint: 1000,\n            lastRewardTime: startTime,\n            accSoulPerShare: 0\n        }));\n\n        isInitialized = true;\n        totalAllocPoint = 1000;\n\n        emit Initialized(team, dao, soulAddress, seanceAddress, chainId, weight);\n    }\n\n    function updateMultiplier(uint _bonusMultiplier) external onlyOperator {\n        bonusMultiplier = _bonusMultiplier;\n    }\n\n    function updateRewards(uint _weight, uint _totalWeight) internal {\n        uint share = _weight / _totalWeight; // share of ttl emissions for chain\n        dailySoul = share * (250000 * 1e18); // updates daily rewards x share(%) of ttl emissions\n        soulPerSecond = dailySoul / 1 days; // updates daily soul rewards / sec\n\n        emit RewardsUpdated(dailySoul, soulPerSecond);\n    }\n\n    function poolLength() external view returns (uint) {\n        return poolInfo.length;\n    }\n\n    // add -- NEW LP POOL -- OPERATOR\n    function add(uint256 _allocPoint, IERC20 _lpToken, bool _withUpdate) public isSummoned onlyOperator {\n        checkPoolDuplicate(_lpToken);\n        addPool(_allocPoint, _lpToken, _withUpdate);\n    }\n\n    // ADD -- NEW LP POOL -- INTERNAL\n    function addPool(uint256 _allocPoint, IERC20 _lpToken, bool _withUpdate) internal {\n        if (_withUpdate) { massUpdatePools(); }\n        uint256 lastRewardTime = block.timestamp > startTime ? block.timestamp : startTime;\n        totalAllocPoint = totalAllocPoint + _allocPoint;\n        poolInfo.push(\n            Pools({\n                lpToken: _lpToken,\n                allocPoint: _allocPoint,\n                lastRewardTime: lastRewardTime,\n                accSoulPerShare: 0\n            })\n        );\n        \n        updateStakingPool();\n        uint _pid = poolInfo.length;\n\n        emit PoolAdded(_pid, _allocPoint, _lpToken, totalAllocPoint);\n    }\n\n    // set the allocation points (operator)\n    function set(uint _pid, uint _allocPoint, bool _withUpdate) external isSummoned validatePoolByPid(_pid) onlyOperator {\n        if (_withUpdate) { massUpdatePools(); }\n        uint prevAllocPoint = poolInfo[_pid].allocPoint;\n        poolInfo[_pid].allocPoint = _allocPoint;\n        if (prevAllocPoint != _allocPoint) {\n            totalAllocPoint = totalAllocPoint - prevAllocPoint + _allocPoint;\n            updateStakingPool();\n       }\n\n       emit PoolSet(_pid, _allocPoint);\n    }\n\n    // increase weight (operator)\n    function newWeight(uint _weight) external isSummoned onlyOperator {\n        require(weight != _weight, 'must be new weight value');\n        \n        if (weight < _weight) { // if weight is gained\n            uint gain = _weight - weight; // calculates weight gained\n            totalWeight += gain; // increases totalWeight\n\n            if (weight > _weight)  { // if weight is lost\n                uint loss = weight - _weight; // calculates weight gained\n                totalWeight -= loss; // decreases totalWeight\n            }\n\n            weight = _weight; // updates weight variable      \n        }\n        \n        updateRewards(weight, totalWeight);\n        emit WeightUpdated(weight, totalWeight);\n    }\n\n    // updates staking pool (internal)\n    function updateStakingPool() internal {\n        uint length = poolInfo.length;\n        uint points = 0;\n        for (uint pid = 1; pid < length; ++pid) {\n            points = points + poolInfo[pid].allocPoint;\n        }\n        if (points != 0) {\n            points = points / 3;\n            totalAllocPoint = totalAllocPoint - poolInfo[0].allocPoint + points;\n            poolInfo[0].allocPoint = points;\n        }\n    }\n\n    // sets migrator contract (owner)\n    function setMigrator(IMigrator _migrator) external isSummoned onlyOwner {\n        migrator = _migrator;\n    }\n\n    // migrates lp tokens to another contract (migrator)\n    function migrate(uint _pid) external isSummoned validatePoolByPid(_pid) {\n        require(address(migrator) != address(0), 'no migrator set');\n        Pools storage pool = poolInfo[_pid];\n        IERC20 lpToken = pool.lpToken;\n        uint bal = lpToken.balanceOf(address(this));\n        lpToken.approve(address(migrator), bal);\n        IERC20 _lpToken = migrator.migrate(lpToken);\n        require(bal == _lpToken.balanceOf(address(this)), \"migrate: insufficient balance\");\n        pool.lpToken = _lpToken;\n    }\n\n    function getMultiplier(uint _from, uint _to) public view returns (uint) {\n        return (_to - _from) * bonusMultiplier; // todo: minus parens\n    }\n\n    // external view for pendingSoul\n    function pendingSoul(uint _pid, address _user) external view returns (uint) {\n        Pools storage pool = poolInfo[_pid];\n        Users storage user = userInfo[_pid][_user];\n        uint accSoulPerShare = pool.accSoulPerShare;\n        uint lpSupply = pool.lpToken.balanceOf(address(this));\n        if (block.timestamp > pool.lastRewardTime && lpSupply != 0) {\n            uint multiplier = getMultiplier(pool.lastRewardTime, block.timestamp);\n            uint soulReward = multiplier * soulPerSecond * pool.allocPoint / totalAllocPoint;\n            accSoulPerShare = accSoulPerShare + soulReward * 1e12 / lpSupply;\n        }\n\n        return user.amount * accSoulPerShare / 1e12 - user.rewardDebt;\n    }\n\n    // update: rewards for all pools (public)\n    function massUpdatePools() public {\n        uint length = poolInfo.length;\n        for (uint pid = 0; pid < length; ++pid) {\n            updatePool(pid);\n        }\n    }\n\n    // update: rewards for a given pool id (public)\n    function updatePool(uint _pid) public validatePoolByPid(_pid) {\n        Pools storage pool = poolInfo[_pid];\n        if (block.timestamp <= pool.lastRewardTime) {\n            return;\n        }\n        uint lpSupply = pool.lpToken.balanceOf(address(this));\n        if (lpSupply == 0) {\n            pool.lastRewardTime = block.timestamp;\n            return;\n        }\n        uint multiplier = getMultiplier(pool.lastRewardTime, block.timestamp);\n        uint soulReward = \n            multiplier * soulPerSecond * pool.allocPoint / totalAllocPoint;\n        \n        uint divi = soulReward * 1e12 / 8e12; // 1/8th rewards\n        uint divis = divi * 2; // total divis\n        uint shares = soulReward - divis; // net shares\n        \n        soul.mint(team, divi);\n        soul.mint(dao, divi);\n        \n        soul.mint(address(seance), shares);\n\n        pool.accSoulPerShare = pool.accSoulPerShare + soulReward * shares / lpSupply;\n\n        pool.lastRewardTime = block.timestamp;\n    }\n\n    // deposit: lp tokens (lp owner)\n    function deposit(uint _pid, uint _amount) external nonReentrant validatePoolByPid(_pid) {\n\n        require (_pid != 0, 'deposit SOUL by staking');\n\n        Pools storage pool = poolInfo[_pid];\n        Users storage user = userInfo[_pid][msg.sender];\n        updatePool(_pid);\n        if (user.amount > 0) { // already deposited assets\n            uint pending = (user.amount * pool.accSoulPerShare) / 1e12 - user.rewardDebt;\n            if(pending > 0) { // sends pending rewards, if applicable\n                safeSoulTransfer(msg.sender, pending);\n            }\n        }\n\n        if (_amount > 0) { // if adding more\n            pool.lpToken.transferFrom(address(msg.sender), address(this), _amount);\n            user.amount = user.amount + _amount;\n        }\n        user.rewardDebt = user.amount * pool.accSoulPerShare / 1e12;\n        emit Deposit(msg.sender, _pid, _amount);\n    }\n\n    // withdraw: lp tokens (stakers)\n    function withdraw(uint _pid, uint _amount) external nonReentrant validatePoolByPid(_pid) {\n\n        require (_pid != 0, 'withdraw SOUL by unstaking');\n        Pools storage pool = poolInfo[_pid];\n        Users storage user = userInfo[_pid][msg.sender];\n        require(user.amount >= _amount, 'withdraw not good');\n\n        updatePool(_pid);\n        uint pending = user.amount * pool.accSoulPerShare / 1e12 - user.rewardDebt;\n        if(pending > 0) {\n            safeSoulTransfer(msg.sender, pending);\n        }\n        if(_amount > 0) {\n            user.amount = user.amount - _amount;\n            pool.lpToken.transfer(address(msg.sender), _amount);\n        }\n        user.rewardDebt = user.amount * pool.accSoulPerShare / 1e12;\n        emit Withdraw(msg.sender, _pid, _amount);\n    }\n\n\n    // STAKE -- SOUL TO SOUL SUMMONER -- PUBLIC SOUL HOLDERS\n    function enterStaking(uint _amount) external nonReentrant {\n        Pools storage pool = poolInfo[0];\n        Users storage user = userInfo[0][msg.sender];\n        updatePool(0);\n        if (user.amount > 0) {\n            uint pending = user.amount * pool.accSoulPerShare / 1e12 - user.rewardDebt;\n            if(pending > 0) {\n                safeSoulTransfer(msg.sender, pending);\n            }\n        }\n        if(_amount > 0) {\n            pool.lpToken.transferFrom(address(msg.sender), address(this), _amount);\n            user.amount = user.amount + _amount;\n        }\n        user.rewardDebt = user.amount * pool.accSoulPerShare / 1e12;\n\n        seance.mint(msg.sender, _amount);\n        emit Deposit(msg.sender, 0, _amount);\n    }\n\n    // WITHDRAW -- SOUL powers from STAKING.\n    function leaveStaking(uint _amount) external nonReentrant {\n        Pools storage pool = poolInfo[0];\n        Users storage user = userInfo[0][msg.sender];\n        require(user.amount >= _amount, \"withdraw: not good\");\n        updatePool(0);\n        uint pending = user.amount * pool.accSoulPerShare / 1e12 - user.rewardDebt;\n        if(pending > 0) {\n            safeSoulTransfer(msg.sender, pending);\n        }\n        if(_amount > 0) {\n            user.amount = user.amount - _amount;\n            pool.lpToken.transfer(address(msg.sender), _amount);\n        }\n        user.rewardDebt = user.amount * pool.accSoulPerShare / 1e12;\n\n        seance.burn(msg.sender, _amount);\n        emit Withdraw(msg.sender, 0, _amount);\n    }\n    \n    // TRANSFER -- TRANSFERS SEANCE -- INTERNAL\n    function safeSoulTransfer(address _to, uint _amount) internal {\n        seance.safeSoulTransfer(_to, _amount);\n    }\n\n\n    // UPDATE -- DAO ADDRESS -- OWNER\n    function newDAO(address _dao) external onlyOwner {\n        require(dao != _dao, 'must be a new address');\n        dao = _dao;\n    }\n\n    // UPDATE -- TEAM ADDRESS -- OWNER\n    function newTeam(address _team) external onlyOwner {\n        require(team != _team, 'must be a new address');\n        team = _team;\n    }\n\n    // UPDATE -- SOUL ADDRESS -- OWNER\n    function newSoul(SoulPower _soul) external onlyOwner {\n        require(soul != _soul, 'must be a new address');\n        soul = _soul;\n    }\n\n    // UPDATE -- SEANCE ADDRESS -- OWNER\n    function newSeance(SeanceCircle _seance) external onlyOwner {\n        require(seance != _seance, 'must be a new address');\n        seance = _seance;\n    }\n\n}\n",
  "sourcePath": "/Users/unico/Documents/GitHub/soulswap/soulswap-farms/contracts/SoulSummoner.sol",
  "compiler": {
    "name": "solc",
    "version": "0.8.0+commit.c7dfd78e.Emscripten.clang"
  },
  "schemaVersion": "3.4.1",
  "updatedAt": "2021-07-29T15:14:17.287Z",
  "networkType": "ethereum",
  "devdoc": {
    "kind": "dev",
    "methods": {
      "addOperator(address)": {
        "details": "Adds address as operator of the contract. Can only be called by an operator."
      },
      "owner()": {
        "details": "Returns the address of the current owner."
      },
      "removeOperator(address)": {
        "details": "Leaves the contract without operator. It will not be possible to call `onlyOperator` functions anymore. Can only be called by an operator."
      },
      "renounceOwnership()": {
        "details": "Leaves the contract without owner. It will not be possible to call `onlyOwner` functions anymore. Can only be called by the current owner. NOTE: Renouncing ownership will leave the contract without an owner, thereby removing any functionality that is only available to the owner."
      },
      "transferOwnership(address)": {
        "details": "Transfers ownership of the contract to a new account (`newOwner`). Can only be called by the current owner."
      }
    },
    "version": 1
  },
  "userdoc": {
    "kind": "user",
    "methods": {},
    "version": 1
  }
}