{
  "contractName": "SoulMaker",
  "abi": [
    {
      "inputs": [
        {
          "internalType": "address",
          "name": "_factory",
          "type": "address"
        },
        {
          "internalType": "address",
          "name": "_spell",
          "type": "address"
        },
        {
          "internalType": "address",
          "name": "_soul",
          "type": "address"
        },
        {
          "internalType": "address",
          "name": "_weth",
          "type": "address"
        }
      ],
      "stateMutability": "nonpayable",
      "type": "constructor"
    },
    {
      "anonymous": false,
      "inputs": [
        {
          "indexed": true,
          "internalType": "address",
          "name": "token",
          "type": "address"
        },
        {
          "indexed": true,
          "internalType": "address",
          "name": "bridge",
          "type": "address"
        }
      ],
      "name": "LogBridgeSet",
      "type": "event"
    },
    {
      "anonymous": false,
      "inputs": [
        {
          "indexed": true,
          "internalType": "address",
          "name": "server",
          "type": "address"
        },
        {
          "indexed": true,
          "internalType": "address",
          "name": "token0",
          "type": "address"
        },
        {
          "indexed": true,
          "internalType": "address",
          "name": "token1",
          "type": "address"
        },
        {
          "indexed": false,
          "internalType": "uint256",
          "name": "amount0",
          "type": "uint256"
        },
        {
          "indexed": false,
          "internalType": "uint256",
          "name": "amount1",
          "type": "uint256"
        },
        {
          "indexed": false,
          "internalType": "uint256",
          "name": "amountSOUL",
          "type": "uint256"
        }
      ],
      "name": "LogConvert",
      "type": "event"
    },
    {
      "anonymous": false,
      "inputs": [
        {
          "indexed": true,
          "internalType": "address",
          "name": "operator",
          "type": "address"
        },
        {
          "indexed": true,
          "internalType": "bool",
          "name": "access",
          "type": "bool"
        }
      ],
      "name": "OperatorUpdated",
      "type": "event"
    },
    {
      "anonymous": false,
      "inputs": [
        {
          "indexed": true,
          "internalType": "address",
          "name": "previousOwner",
          "type": "address"
        },
        {
          "indexed": true,
          "internalType": "address",
          "name": "newOwner",
          "type": "address"
        }
      ],
      "name": "OwnershipTransferred",
      "type": "event"
    },
    {
      "inputs": [
        {
          "internalType": "address",
          "name": "newOperator",
          "type": "address"
        }
      ],
      "name": "addOperator",
      "outputs": [],
      "stateMutability": "nonpayable",
      "type": "function"
    },
    {
      "inputs": [],
      "name": "factory",
      "outputs": [
        {
          "internalType": "contract ISoulSwapFactory",
          "name": "",
          "type": "address"
        }
      ],
      "stateMutability": "view",
      "type": "function"
    },
    {
      "inputs": [
        {
          "internalType": "address",
          "name": "",
          "type": "address"
        }
      ],
      "name": "operator",
      "outputs": [
        {
          "internalType": "bool",
          "name": "",
          "type": "bool"
        }
      ],
      "stateMutability": "view",
      "type": "function"
    },
    {
      "inputs": [
        {
          "internalType": "uint256",
          "name": "",
          "type": "uint256"
        }
      ],
      "name": "operators",
      "outputs": [
        {
          "internalType": "address",
          "name": "",
          "type": "address"
        }
      ],
      "stateMutability": "view",
      "type": "function"
    },
    {
      "inputs": [],
      "name": "owner",
      "outputs": [
        {
          "internalType": "address",
          "name": "",
          "type": "address"
        }
      ],
      "stateMutability": "view",
      "type": "function"
    },
    {
      "inputs": [
        {
          "internalType": "address",
          "name": "removingOperator",
          "type": "address"
        }
      ],
      "name": "removeOperator",
      "outputs": [],
      "stateMutability": "nonpayable",
      "type": "function"
    },
    {
      "inputs": [],
      "name": "renounceOwnership",
      "outputs": [],
      "stateMutability": "nonpayable",
      "type": "function"
    },
    {
      "inputs": [],
      "name": "spell",
      "outputs": [
        {
          "internalType": "address",
          "name": "",
          "type": "address"
        }
      ],
      "stateMutability": "view",
      "type": "function"
    },
    {
      "inputs": [
        {
          "internalType": "address",
          "name": "newOwner",
          "type": "address"
        }
      ],
      "name": "transferOwnership",
      "outputs": [],
      "stateMutability": "nonpayable",
      "type": "function"
    },
    {
      "inputs": [
        {
          "internalType": "address",
          "name": "token",
          "type": "address"
        }
      ],
      "name": "bridgeFor",
      "outputs": [
        {
          "internalType": "address",
          "name": "bridge",
          "type": "address"
        }
      ],
      "stateMutability": "view",
      "type": "function"
    },
    {
      "inputs": [
        {
          "internalType": "address",
          "name": "token",
          "type": "address"
        },
        {
          "internalType": "address",
          "name": "bridge",
          "type": "address"
        }
      ],
      "name": "setBridge",
      "outputs": [],
      "stateMutability": "nonpayable",
      "type": "function"
    },
    {
      "inputs": [
        {
          "internalType": "address",
          "name": "token0",
          "type": "address"
        },
        {
          "internalType": "address",
          "name": "token1",
          "type": "address"
        }
      ],
      "name": "convert",
      "outputs": [],
      "stateMutability": "nonpayable",
      "type": "function"
    },
    {
      "inputs": [
        {
          "internalType": "address[]",
          "name": "token0",
          "type": "address[]"
        },
        {
          "internalType": "address[]",
          "name": "token1",
          "type": "address[]"
        }
      ],
      "name": "convertMultiple",
      "outputs": [],
      "stateMutability": "nonpayable",
      "type": "function"
    }
  ],
  "bytecode": "0x6101006040523480156200001257600080fd5b506040516200373138038062003731833981810160405281019062000038919062000338565b620000586200004c6200025560201b60201c565b6200025d60201b60201c565b60006200006a6200025560201b60201c565b90506001600260008373ffffffffffffffffffffffffffffffffffffffff1673ffffffffffffffffffffffffffffffffffffffff16815260200190815260200160002060006101000a81548160ff0219169083151502179055506001819080600181540180825580915050600190039060005260206000200160009091909190916101000a81548173ffffffffffffffffffffffffffffffffffffffff021916908373ffffffffffffffffffffffffffffffffffffffff160217905550600115158173ffffffffffffffffffffffffffffffffffffffff167f966c160e1c4dbc7df8d69af4ace01e9297c3cf016397b7914971f2fbfa32672d60405160405180910390a3508373ffffffffffffffffffffffffffffffffffffffff1660808173ffffffffffffffffffffffffffffffffffffffff1660601b815250508273ffffffffffffffffffffffffffffffffffffffff1660a08173ffffffffffffffffffffffffffffffffffffffff1660601b815250508173ffffffffffffffffffffffffffffffffffffffff1660c08173ffffffffffffffffffffffffffffffffffffffff1660601b815250508073ffffffffffffffffffffffffffffffffffffffff1660e08173ffffffffffffffffffffffffffffffffffffffff1660601b8152505050505050620003f2565b600033905090565b60008060009054906101000a900473ffffffffffffffffffffffffffffffffffffffff169050816000806101000a81548173ffffffffffffffffffffffffffffffffffffffff021916908373ffffffffffffffffffffffffffffffffffffffff1602179055508173ffffffffffffffffffffffffffffffffffffffff168173ffffffffffffffffffffffffffffffffffffffff167f8be0079c531659141344cd1fd0a4f28419497f9722a3daafe3b4186f6b6457e060405160405180910390a35050565b6000815190506200033281620003d8565b92915050565b600080600080608085870312156200034f57600080fd5b60006200035f8782880162000321565b9450506020620003728782880162000321565b9350506040620003858782880162000321565b9250506060620003988782880162000321565b91505092959194509250565b6000620003b182620003b8565b9050919050565b600073ffffffffffffffffffffffffffffffffffffffff82169050919050565b620003e381620003a4565b8114620003ef57600080fd5b50565b60805160601c60a05160601c60c05160601c60e05160601c61325f620004d26000396000818161080d01528181610a4b01528181611673015281816116ca015281816118e1015281816119380152818161195e0152818161199c015281816119f30152611a190152600081816107b6015281816115ac015281816116250152818161172b015281816117a4015281816118060152818161187f0152611c17015260008181610f4801528181611603015281816117820152818161185d0152611c39015260008181610ee5015281816110660152611c6a015261325f6000f3fe608060405234801561001057600080fd5b50600436106100cf5760003560e01c8063a761a9391161008c578063c45a015511610066578063c45a0155146101e8578063e28d490614610206578063ea762b7914610236578063f2fde38b14610254576100cf565b8063a761a93914610180578063ac8a584a146101b0578063bd1b820c146101cc576100cf565b8063303e6aa4146100d4578063715018a6146100f05780638da5cb5b146100fa5780639870d7fe146101185780639a307391146101345780639d22ae8c14610164575b600080fd5b6100ee60048036038101906100e99190612493565b610270565b005b6100f86103b0565b005b610102610438565b60405161010f9190612b5d565b60405180910390f35b610132600480360381019061012d9190612405565b610461565b005b61014e60048036038101906101499190612405565b6106fc565b60405161015b9190612bca565b60405180910390f35b61017e60048036038101906101799190612457565b61071c565b005b61019a60048036038101906101959190612405565b6109b0565b6040516101a79190612b5d565b60405180910390f35b6101ca60048036038101906101c59190612405565b610a72565b005b6101e660048036038101906101e19190612457565b610e67565b005b6101f0610ee3565b6040516101fd9190612be5565b60405180910390f35b610220600480360381019061021b9190612580565b610f07565b60405161022d9190612b5d565b60405180910390f35b61023e610f46565b60405161024b9190612b5d565b60405180910390f35b61026e60048036038101906102699190612405565b610f6a565b005b3273ffffffffffffffffffffffffffffffffffffffff163373ffffffffffffffffffffffffffffffffffffffff16146102de576040517f08c379a00000000000000000000000000000000000000000000000000000000081526004016102d590612c6e565b60405180910390fd5b600084849050905060005b818110156103a85761039586868381811061032d577f4e487b7100000000000000000000000000000000000000000000000000000000600052603260045260246000fd5b90506020020160208101906103429190612405565b85858481811061037b577f4e487b7100000000000000000000000000000000000000000000000000000000600052603260045260246000fd5b90506020020160208101906103909190612405565b611062565b80806103a0906130d4565b9150506102e9565b505050505050565b6103b8611412565b73ffffffffffffffffffffffffffffffffffffffff166103d6610438565b73ffffffffffffffffffffffffffffffffffffffff161461042c576040517f08c379a000000000000000000000000000000000000000000000000000000000815260040161042390612d2e565b60405180910390fd5b610436600061141a565b565b60008060009054906101000a900473ffffffffffffffffffffffffffffffffffffffff16905090565b600061046b611412565b9050600260008273ffffffffffffffffffffffffffffffffffffffff1673ffffffffffffffffffffffffffffffffffffffff16815260200190815260200160002060009054906101000a900460ff166104f9576040517f08c379a00000000000000000000000000000000000000000000000000000000081526004016104f090612d6e565b60405180910390fd5b600073ffffffffffffffffffffffffffffffffffffffff168273ffffffffffffffffffffffffffffffffffffffff161415610569576040517f08c379a000000000000000000000000000000000000000000000000000000000815260040161056090612cce565b60405180910390fd5b600260008373ffffffffffffffffffffffffffffffffffffffff1673ffffffffffffffffffffffffffffffffffffffff16815260200190815260200160002060009054906101000a900460ff16156105f6576040517f08c379a00000000000000000000000000000000000000000000000000000000081526004016105ed90612d4e565b60405180910390fd5b6001600260008473ffffffffffffffffffffffffffffffffffffffff1673ffffffffffffffffffffffffffffffffffffffff16815260200190815260200160002060006101000a81548160ff0219169083151502179055506001829080600181540180825580915050600190039060005260206000200160009091909190916101000a81548173ffffffffffffffffffffffffffffffffffffffff021916908373ffffffffffffffffffffffffffffffffffffffff160217905550600115158273ffffffffffffffffffffffffffffffffffffffff167f966c160e1c4dbc7df8d69af4ace01e9297c3cf016397b7914971f2fbfa32672d60405160405180910390a35050565b60026020528060005260406000206000915054906101000a900460ff1681565b6000610726611412565b9050600260008273ffffffffffffffffffffffffffffffffffffffff1673ffffffffffffffffffffffffffffffffffffffff16815260200190815260200160002060009054906101000a900460ff166107b4576040517f08c379a00000000000000000000000000000000000000000000000000000000081526004016107ab90612d6e565b60405180910390fd5b7f000000000000000000000000000000000000000000000000000000000000000073ffffffffffffffffffffffffffffffffffffffff168373ffffffffffffffffffffffffffffffffffffffff161415801561085c57507f000000000000000000000000000000000000000000000000000000000000000073ffffffffffffffffffffffffffffffffffffffff168373ffffffffffffffffffffffffffffffffffffffff1614155b801561089457508173ffffffffffffffffffffffffffffffffffffffff168373ffffffffffffffffffffffffffffffffffffffff1614155b6108d3576040517f08c379a00000000000000000000000000000000000000000000000000000000081526004016108ca90612dee565b60405180910390fd5b81600360008573ffffffffffffffffffffffffffffffffffffffff1673ffffffffffffffffffffffffffffffffffffffff16815260200190815260200160002060006101000a81548173ffffffffffffffffffffffffffffffffffffffff021916908373ffffffffffffffffffffffffffffffffffffffff1602179055508173ffffffffffffffffffffffffffffffffffffffff168373ffffffffffffffffffffffffffffffffffffffff167f2e103aa707acc565f9a1547341914802b2bfe977fd79c595209f248ae4b0061360405160405180910390a3505050565b6000600360008373ffffffffffffffffffffffffffffffffffffffff1673ffffffffffffffffffffffffffffffffffffffff16815260200190815260200160002060009054906101000a900473ffffffffffffffffffffffffffffffffffffffff169050600073ffffffffffffffffffffffffffffffffffffffff168173ffffffffffffffffffffffffffffffffffffffff161415610a6d577f000000000000000000000000000000000000000000000000000000000000000090505b919050565b6000610a7c611412565b9050600260008273ffffffffffffffffffffffffffffffffffffffff1673ffffffffffffffffffffffffffffffffffffffff16815260200190815260200160002060009054906101000a900460ff16610b0a576040517f08c379a0000000000000000000000000000000000000000000000000000000008152600401610b0190612d6e565b60405180910390fd5b600260008373ffffffffffffffffffffffffffffffffffffffff1673ffffffffffffffffffffffffffffffffffffffff16815260200190815260200160002060009054906101000a900460ff16610b96576040517f08c379a0000000000000000000000000000000000000000000000000000000008152600401610b8d90612d0e565b60405180910390fd5b6000600260008473ffffffffffffffffffffffffffffffffffffffff1673ffffffffffffffffffffffffffffffffffffffff16815260200190815260200160002060006101000a81548160ff02191690831515021790555060005b6001805490508160ff161015610e61578273ffffffffffffffffffffffffffffffffffffffff1660018260ff1681548110610c55577f4e487b7100000000000000000000000000000000000000000000000000000000600052603260045260246000fd5b9060005260206000200160009054906101000a900473ffffffffffffffffffffffffffffffffffffffff1673ffffffffffffffffffffffffffffffffffffffff161415610e4e5760018082610caa9190612f2a565b60ff1681548110610ce4577f4e487b7100000000000000000000000000000000000000000000000000000000600052603260045260246000fd5b9060005260206000200160009054906101000a900473ffffffffffffffffffffffffffffffffffffffff1660018260ff1681548110610d4c577f4e487b7100000000000000000000000000000000000000000000000000000000600052603260045260246000fd5b9060005260206000200160006101000a81548173ffffffffffffffffffffffffffffffffffffffff021916908373ffffffffffffffffffffffffffffffffffffffff1602179055506001805480610dcc577f4e487b7100000000000000000000000000000000000000000000000000000000600052603160045260246000fd5b6001900381819060005260206000200160006101000a81549073ffffffffffffffffffffffffffffffffffffffff02191690559055600015158373ffffffffffffffffffffffffffffffffffffffff167f966c160e1c4dbc7df8d69af4ace01e9297c3cf016397b7914971f2fbfa32672d60405160405180910390a350610e63565b8080610e599061311d565b915050610bf1565b505b5050565b3273ffffffffffffffffffffffffffffffffffffffff163373ffffffffffffffffffffffffffffffffffffffff1614610ed5576040517f08c379a0000000000000000000000000000000000000000000000000000000008152600401610ecc90612c6e565b60405180910390fd5b610edf8282611062565b5050565b7f000000000000000000000000000000000000000000000000000000000000000081565b60018181548110610f1757600080fd5b906000526020600020016000915054906101000a900473ffffffffffffffffffffffffffffffffffffffff1681565b7f000000000000000000000000000000000000000000000000000000000000000081565b610f72611412565b73ffffffffffffffffffffffffffffffffffffffff16610f90610438565b73ffffffffffffffffffffffffffffffffffffffff1614610fe6576040517f08c379a0000000000000000000000000000000000000000000000000000000008152600401610fdd90612d2e565b60405180910390fd5b600073ffffffffffffffffffffffffffffffffffffffff168173ffffffffffffffffffffffffffffffffffffffff161415611056576040517f08c379a000000000000000000000000000000000000000000000000000000000815260040161104d90612cae565b60405180910390fd5b61105f8161141a565b50565b60007f000000000000000000000000000000000000000000000000000000000000000073ffffffffffffffffffffffffffffffffffffffff1663e6a4390584846040518363ffffffff1660e01b81526004016110bf929190612b78565b60206040518083038186803b1580156110d757600080fd5b505afa1580156110eb573d6000803e3d6000fd5b505050506040513d601f19601f8201168201806040525081019061110f919061242e565b9050600073ffffffffffffffffffffffffffffffffffffffff168173ffffffffffffffffffffffffffffffffffffffff161415611181576040517f08c379a000000000000000000000000000000000000000000000000000000000815260040161117890612c8e565b60405180910390fd5b611234818273ffffffffffffffffffffffffffffffffffffffff166370a08231306040518263ffffffff1660e01b81526004016111be9190612b5d565b60206040518083038186803b1580156111d657600080fd5b505afa1580156111ea573d6000803e3d6000fd5b505050506040513d601f19601f8201168201806040525081019061120e91906125a9565b8373ffffffffffffffffffffffffffffffffffffffff166114de9092919063ffffffff16565b6000808273ffffffffffffffffffffffffffffffffffffffff166389afcb44306040518263ffffffff1660e01b81526004016112709190612b5d565b6040805180830381600087803b15801561128957600080fd5b505af115801561129d573d6000803e3d6000fd5b505050506040513d601f19601f820116820180604052508101906112c191906125d2565b915091508273ffffffffffffffffffffffffffffffffffffffff16630dfe16816040518163ffffffff1660e01b815260040160206040518083038186803b15801561130b57600080fd5b505afa15801561131f573d6000803e3d6000fd5b505050506040513d601f19601f82011682018060405250810190611343919061242e565b73ffffffffffffffffffffffffffffffffffffffff168573ffffffffffffffffffffffffffffffffffffffff161461138057808280925081935050505b8373ffffffffffffffffffffffffffffffffffffffff168573ffffffffffffffffffffffffffffffffffffffff163373ffffffffffffffffffffffffffffffffffffffff167fd06b1d7ed79b664d17472c6f6997b929f1abe463ccccb4e5b6a0038f2f730c1585856113f48b8b8a8a611564565b60405161140393929190612e5a565b60405180910390a45050505050565b600033905090565b60008060009054906101000a900473ffffffffffffffffffffffffffffffffffffffff169050816000806101000a81548173ffffffffffffffffffffffffffffffffffffffff021916908373ffffffffffffffffffffffffffffffffffffffff1602179055508173ffffffffffffffffffffffffffffffffffffffff168173ffffffffffffffffffffffffffffffffffffffff167f8be0079c531659141344cd1fd0a4f28419497f9722a3daafe3b4186f6b6457e060405160405180910390a35050565b61155f8363a9059cbb60e01b84846040516024016114fd929190612ba1565b604051602081830303815290604052907bffffffffffffffffffffffffffffffffffffffffffffffffffffffff19166020820180517bffffffffffffffffffffffffffffffffffffffffffffffffffffffff8381831617835250505050611b48565b505050565b60008373ffffffffffffffffffffffffffffffffffffffff168573ffffffffffffffffffffffffffffffffffffffff16141561172957600082846115a89190612ed4565b90507f000000000000000000000000000000000000000000000000000000000000000073ffffffffffffffffffffffffffffffffffffffff168673ffffffffffffffffffffffffffffffffffffffff161415611671576116697f0000000000000000000000000000000000000000000000000000000000000000827f000000000000000000000000000000000000000000000000000000000000000073ffffffffffffffffffffffffffffffffffffffff166114de9092919063ffffffff16565b809150611723565b7f000000000000000000000000000000000000000000000000000000000000000073ffffffffffffffffffffffffffffffffffffffff168673ffffffffffffffffffffffffffffffffffffffff1614156116f6576116ef7f000000000000000000000000000000000000000000000000000000000000000082611c0f565b9150611722565b6000611701876109b0565b905061170f87828430611c65565b915061171e8182846000611564565b9250505b5b50611b40565b7f000000000000000000000000000000000000000000000000000000000000000073ffffffffffffffffffffffffffffffffffffffff168573ffffffffffffffffffffffffffffffffffffffff161415611804576117e87f0000000000000000000000000000000000000000000000000000000000000000847f000000000000000000000000000000000000000000000000000000000000000073ffffffffffffffffffffffffffffffffffffffff166114de9092919063ffffffff16565b826117f38584611c0f565b6117fd9190612ed4565b9050611b3f565b7f000000000000000000000000000000000000000000000000000000000000000073ffffffffffffffffffffffffffffffffffffffff168473ffffffffffffffffffffffffffffffffffffffff1614156118df576118c37f0000000000000000000000000000000000000000000000000000000000000000837f000000000000000000000000000000000000000000000000000000000000000073ffffffffffffffffffffffffffffffffffffffff166114de9092919063ffffffff16565b816118ce8685611c0f565b6118d89190612ed4565b9050611b3e565b7f000000000000000000000000000000000000000000000000000000000000000073ffffffffffffffffffffffffffffffffffffffff168573ffffffffffffffffffffffffffffffffffffffff16141561199a576119937f000000000000000000000000000000000000000000000000000000000000000084611984877f00000000000000000000000000000000000000000000000000000000000000008730611c65565b61198e9190612ed4565b611c0f565b9050611b3d565b7f000000000000000000000000000000000000000000000000000000000000000073ffffffffffffffffffffffffffffffffffffffff168473ffffffffffffffffffffffffffffffffffffffff161415611a5557611a4e7f000000000000000000000000000000000000000000000000000000000000000083611a3f887f00000000000000000000000000000000000000000000000000000000000000008830611c65565b611a499190612ed4565b611c0f565b9050611b3c565b6000611a60866109b0565b90506000611a6d866109b0565b90508573ffffffffffffffffffffffffffffffffffffffff168273ffffffffffffffffffffffffffffffffffffffff161415611ac157611aba8287611ab48a868a30611c65565b87611564565b9250611b39565b8673ffffffffffffffffffffffffffffffffffffffff168173ffffffffffffffffffffffffffffffffffffffff161415611b1357611b0c878287611b078a868a30611c65565b611564565b9250611b38565b611b358282611b248a868a30611c65565b611b308a868a30611c65565b611564565b92505b5b50505b5b5b5b5b949350505050565b6000611baa826040518060400160405280602081526020017f5361666545524332303a206c6f772d6c6576656c2063616c6c206661696c65648152508573ffffffffffffffffffffffffffffffffffffffff166121829092919063ffffffff16565b9050600081511115611c0a5780806020019051810190611bca9190612508565b611c09576040517f08c379a0000000000000000000000000000000000000000000000000000000008152600401611c0090612dce565b60405180910390fd5b5b505050565b6000611c5d837f0000000000000000000000000000000000000000000000000000000000000000847f0000000000000000000000000000000000000000000000000000000000000000611c65565b905092915050565b6000807f000000000000000000000000000000000000000000000000000000000000000073ffffffffffffffffffffffffffffffffffffffff1663e6a4390587876040518363ffffffff1660e01b8152600401611cc3929190612b78565b60206040518083038186803b158015611cdb57600080fd5b505afa158015611cef573d6000803e3d6000fd5b505050506040513d601f19601f82011682018060405250810190611d13919061242e565b9050600073ffffffffffffffffffffffffffffffffffffffff168173ffffffffffffffffffffffffffffffffffffffff161415611d85576040517f08c379a0000000000000000000000000000000000000000000000000000000008152600401611d7c90612dae565b60405180910390fd5b6000808273ffffffffffffffffffffffffffffffffffffffff16630902f1ac6040518163ffffffff1660e01b815260040160606040518083038186803b158015611dce57600080fd5b505afa158015611de2573d6000803e3d6000fd5b505050506040513d601f19601f82011682018060405250810190611e069190612531565b506dffffffffffffffffffffffffffff1691506dffffffffffffffffffffffffffff16915060006103e587611e3b9190612f92565b90508373ffffffffffffffffffffffffffffffffffffffff16630dfe16816040518163ffffffff1660e01b815260040160206040518083038186803b158015611e8357600080fd5b505afa158015611e97573d6000803e3d6000fd5b505050506040513d601f19601f82011682018060405250810190611ebb919061242e565b73ffffffffffffffffffffffffffffffffffffffff168973ffffffffffffffffffffffffffffffffffffffff16141561203457806103e8848484611eff9190612f92565b611f099190612f61565b611f139190612f92565b611f1d9190612ed4565b9450611f4a84888b73ffffffffffffffffffffffffffffffffffffffff166114de9092919063ffffffff16565b8373ffffffffffffffffffffffffffffffffffffffff1663022c0d9f60008789600067ffffffffffffffff811115611fab577f4e487b7100000000000000000000000000000000000000000000000000000000600052604160045260246000fd5b6040519080825280601f01601f191660200182016040528015611fdd5781602001600182028036833780820191505090505b506040518563ffffffff1660e01b8152600401611ffd9493929190612c00565b600060405180830381600087803b15801561201757600080fd5b505af115801561202b573d6000803e3d6000fd5b50505050612176565b806103e88385846120459190612f92565b61204f9190612f61565b6120599190612f92565b6120639190612ed4565b945061209084888b73ffffffffffffffffffffffffffffffffffffffff166114de9092919063ffffffff16565b8373ffffffffffffffffffffffffffffffffffffffff1663022c0d9f86600089600067ffffffffffffffff8111156120f1577f4e487b7100000000000000000000000000000000000000000000000000000000600052604160045260246000fd5b6040519080825280601f01601f1916602001820160405280156121235781602001600182028036833780820191505090505b506040518563ffffffff1660e01b81526004016121439493929190612e0e565b600060405180830381600087803b15801561215d57600080fd5b505af1158015612171573d6000803e3d6000fd5b505050505b50505050949350505050565b6060612191848460008561219a565b90509392505050565b6060824710156121df576040517f08c379a00000000000000000000000000000000000000000000000000000000081526004016121d690612cee565b60405180910390fd5b6121e8856122ae565b612227576040517f08c379a000000000000000000000000000000000000000000000000000000000815260040161221e90612d8e565b60405180910390fd5b6000808673ffffffffffffffffffffffffffffffffffffffff1685876040516122509190612b46565b60006040518083038185875af1925050503d806000811461228d576040519150601f19603f3d011682016040523d82523d6000602084013e612292565b606091505b50915091506122a28282866122c1565b92505050949350505050565b600080823b905060008111915050919050565b606083156122d157829050612321565b6000835111156122e45782518084602001fd5b816040517f08c379a00000000000000000000000000000000000000000000000000000000081526004016123189190612c4c565b60405180910390fd5b9392505050565b600081359050612337816131b6565b92915050565b60008151905061234c816131b6565b92915050565b60008083601f84011261236457600080fd5b8235905067ffffffffffffffff81111561237d57600080fd5b60208301915083602082028301111561239557600080fd5b9250929050565b6000815190506123ab816131cd565b92915050565b6000815190506123c0816131e4565b92915050565b6000813590506123d5816131fb565b92915050565b6000815190506123ea816131fb565b92915050565b6000815190506123ff81613212565b92915050565b60006020828403121561241757600080fd5b600061242584828501612328565b91505092915050565b60006020828403121561244057600080fd5b600061244e8482850161233d565b91505092915050565b6000806040838503121561246a57600080fd5b600061247885828601612328565b925050602061248985828601612328565b9150509250929050565b600080600080604085870312156124a957600080fd5b600085013567ffffffffffffffff8111156124c357600080fd5b6124cf87828801612352565b9450945050602085013567ffffffffffffffff8111156124ee57600080fd5b6124fa87828801612352565b925092505092959194509250565b60006020828403121561251a57600080fd5b60006125288482850161239c565b91505092915050565b60008060006060848603121561254657600080fd5b6000612554868287016123b1565b9350506020612565868287016123b1565b9250506040612576868287016123f0565b9150509250925092565b60006020828403121561259257600080fd5b60006125a0848285016123c6565b91505092915050565b6000602082840312156125bb57600080fd5b60006125c9848285016123db565b91505092915050565b600080604083850312156125e557600080fd5b60006125f3858286016123db565b9250506020612604858286016123db565b9150509250929050565b61261781612fec565b82525050565b61262681612ffe565b82525050565b600061263782612e91565b6126418185612ea7565b93506126518185602086016130a1565b61265a816131a5565b840191505092915050565b600061267082612e91565b61267a8185612eb8565b935061268a8185602086016130a1565b80840191505092915050565b61269f8161306b565b82525050565b6126ae8161308f565b82525050565b60006126bf82612e9c565b6126c98185612ec3565b93506126d98185602086016130a1565b6126e2816131a5565b840191505092915050565b60006126fa601783612ec3565b91507f536f756c4d616b65723a206d7573742075736520454f410000000000000000006000830152602082019050919050565b600061273a601783612ec3565b91507f536f756c4d616b65723a20496e76616c696420706169720000000000000000006000830152602082019050919050565b600061277a602683612ec3565b91507f4f776e61626c653a206e6577206f776e657220697320746865207a65726f206160008301527f64647265737300000000000000000000000000000000000000000000000000006020830152604082019050919050565b60006127e0602a83612ec3565b91507f4f70657261626c653a206e6577206f70657261746f7220697320746865207a6560008301527f726f2061646472657373000000000000000000000000000000000000000000006020830152604082019050919050565b6000612846602683612ec3565b91507f416464726573733a20696e73756666696369656e742062616c616e636520666f60008301527f722063616c6c00000000000000000000000000000000000000000000000000006020830152604082019050919050565b60006128ac602483612ec3565b91507f4f70657261626c653a2061646472657373206973206e6f7420616e206f70657260008301527f61746f72000000000000000000000000000000000000000000000000000000006020830152604082019050919050565b6000612912602083612ec3565b91507f4f776e61626c653a2063616c6c6572206973206e6f7420746865206f776e65726000830152602082019050919050565b6000612952602883612ec3565b91507f4f70657261626c653a206164647265737320697320616c726561647920616e2060008301527f6f70657261746f720000000000000000000000000000000000000000000000006020830152604082019050919050565b60006129b8602383612ec3565b91507f4f70657261746f723a2063616c6c6572206973206e6f7420616e206f7065726160008301527f746f7200000000000000000000000000000000000000000000000000000000006020830152604082019050919050565b6000612a1e601d83612ec3565b91507f416464726573733a2063616c6c20746f206e6f6e2d636f6e74726163740000006000830152602082019050919050565b6000612a5e601983612ec3565b91507f536f756c4d616b65723a2043616e6e6f7420636f6e76657274000000000000006000830152602082019050919050565b6000612a9e602a83612ec3565b91507f5361666545524332303a204552433230206f7065726174696f6e20646964206e60008301527f6f742073756363656564000000000000000000000000000000000000000000006020830152604082019050919050565b6000612b04601983612ec3565b91507f536f756c4d616b65723a20496e76616c696420627269646765000000000000006000830152602082019050919050565b612b4081613044565b82525050565b6000612b528284612665565b915081905092915050565b6000602082019050612b72600083018461260e565b92915050565b6000604082019050612b8d600083018561260e565b612b9a602083018461260e565b9392505050565b6000604082019050612bb6600083018561260e565b612bc36020830184612b37565b9392505050565b6000602082019050612bdf600083018461261d565b92915050565b6000602082019050612bfa6000830184612696565b92915050565b6000608082019050612c1560008301876126a5565b612c226020830186612b37565b612c2f604083018561260e565b8181036060830152612c41818461262c565b905095945050505050565b60006020820190508181036000830152612c6681846126b4565b905092915050565b60006020820190508181036000830152612c87816126ed565b9050919050565b60006020820190508181036000830152612ca78161272d565b9050919050565b60006020820190508181036000830152612cc78161276d565b9050919050565b60006020820190508181036000830152612ce7816127d3565b9050919050565b60006020820190508181036000830152612d0781612839565b9050919050565b60006020820190508181036000830152612d278161289f565b9050919050565b60006020820190508181036000830152612d4781612905565b9050919050565b60006020820190508181036000830152612d6781612945565b9050919050565b60006020820190508181036000830152612d87816129ab565b9050919050565b60006020820190508181036000830152612da781612a11565b9050919050565b60006020820190508181036000830152612dc781612a51565b9050919050565b60006020820190508181036000830152612de781612a91565b9050919050565b60006020820190508181036000830152612e0781612af7565b9050919050565b6000608082019050612e236000830187612b37565b612e3060208301866126a5565b612e3d604083018561260e565b8181036060830152612e4f818461262c565b905095945050505050565b6000606082019050612e6f6000830186612b37565b612e7c6020830185612b37565b612e896040830184612b37565b949350505050565b600081519050919050565b600081519050919050565b600082825260208201905092915050565b600081905092915050565b600082825260208201905092915050565b6000612edf82613044565b9150612eea83613044565b9250827fffffffffffffffffffffffffffffffffffffffffffffffffffffffffffffffff03821115612f1f57612f1e613147565b5b828201905092915050565b6000612f358261305e565b9150612f408361305e565b92508260ff03821115612f5657612f55613147565b5b828201905092915050565b6000612f6c82613044565b9150612f7783613044565b925082612f8757612f86613176565b5b828204905092915050565b6000612f9d82613044565b9150612fa883613044565b9250817fffffffffffffffffffffffffffffffffffffffffffffffffffffffffffffffff0483118215151615612fe157612fe0613147565b5b828202905092915050565b6000612ff782613024565b9050919050565b60008115159050919050565b60006dffffffffffffffffffffffffffff82169050919050565b600073ffffffffffffffffffffffffffffffffffffffff82169050919050565b6000819050919050565b600063ffffffff82169050919050565b600060ff82169050919050565b60006130768261307d565b9050919050565b600061308882613024565b9050919050565b600061309a82613044565b9050919050565b60005b838110156130bf5780820151818401526020810190506130a4565b838111156130ce576000848401525b50505050565b60006130df82613044565b91507fffffffffffffffffffffffffffffffffffffffffffffffffffffffffffffffff82141561311257613111613147565b5b600182019050919050565b60006131288261305e565b915060ff82141561313c5761313b613147565b5b600182019050919050565b7f4e487b7100000000000000000000000000000000000000000000000000000000600052601160045260246000fd5b7f4e487b7100000000000000000000000000000000000000000000000000000000600052601260045260246000fd5b6000601f19601f8301169050919050565b6131bf81612fec565b81146131ca57600080fd5b50565b6131d681612ffe565b81146131e157600080fd5b50565b6131ed8161300a565b81146131f857600080fd5b50565b61320481613044565b811461320f57600080fd5b50565b61321b8161304e565b811461322657600080fd5b5056fea2646970667358221220dedcadf2e36c4c8d176a3329e1699de16e2c6ab0662d784bf6f90978a6ac6e6e64736f6c63430008000033",
  "immutableReferences": {
    "11023": [
      {
        "length": 32,
        "start": 3813
      },
      {
        "length": 32,
        "start": 4198
      },
      {
        "length": 32,
        "start": 7274
      }
    ],
    "11025": [
      {
        "length": 32,
        "start": 3912
      },
      {
        "length": 32,
        "start": 5635
      },
      {
        "length": 32,
        "start": 6018
      },
      {
        "length": 32,
        "start": 6237
      },
      {
        "length": 32,
        "start": 7225
      }
    ],
    "11027": [
      {
        "length": 32,
        "start": 1974
      },
      {
        "length": 32,
        "start": 5548
      },
      {
        "length": 32,
        "start": 5669
      },
      {
        "length": 32,
        "start": 5931
      },
      {
        "length": 32,
        "start": 6052
      },
      {
        "length": 32,
        "start": 6150
      },
      {
        "length": 32,
        "start": 6271
      },
      {
        "length": 32,
        "start": 7191
      }
    ],
    "11029": [
      {
        "length": 32,
        "start": 2061
      },
      {
        "length": 32,
        "start": 2635
      },
      {
        "length": 32,
        "start": 5747
      },
      {
        "length": 32,
        "start": 5834
      },
      {
        "length": 32,
        "start": 6369
      },
      {
        "length": 32,
        "start": 6456
      },
      {
        "length": 32,
        "start": 6494
      },
      {
        "length": 32,
        "start": 6556
      },
      {
        "length": 32,
        "start": 6643
      },
      {
        "length": 32,
        "start": 6681
      }
    ]
  },
  "source": "// SPDX-License-Identifier: MIT\n\n// P1 - P3: OK\npragma solidity ^0.8.0;\n\nimport './libraries/SafeERC20.sol';\nimport '@soulswap/swap-core/contracts/interfaces/ISoulSwapPair.sol';\nimport '@soulswap/swap-core/contracts/interfaces/ISoulSwapFactory.sol';\nimport './libraries/Operable.sol';\n\n// SoulMaker is SoulSummoner's most generous wizard. SoulMaker may cook up Soul from pretty much anything!\n// This contract handles 'serving up' rewards for SpellBound holders by trading tokens collected from fees for Soul.\n\n// T1 - T4: OK\ncontract SoulMaker is Ownable, Operable {\n    using SafeERC20 for IERC20;\n\n    ISoulSwapFactory public immutable factory;\n    address public immutable spell;\n    address private immutable soul;\n    address private immutable weth;\n\n    mapping(address => address) internal _bridges;\n\n    event LogBridgeSet(address indexed token, address indexed bridge);\n    event LogConvert(\n        address indexed server,\n        address indexed token0,\n        address indexed token1,\n        uint256 amount0,\n        uint256 amount1,\n        uint256 amountSOUL\n    );\n\n    constructor(\n        address _factory,\n        address _spell,\n        address _soul,\n        address _weth\n    ) {\n        factory = ISoulSwapFactory(_factory);\n        spell = _spell;\n        soul = _soul;\n        weth = _weth;\n    }\n\n    function bridgeFor(address token) public view returns (address bridge) {\n        bridge = _bridges[token];\n        if (bridge == address(0)) {\n            bridge = weth;\n        }\n    }\n\n    function setBridge(address token, address bridge) external onlyOperator {\n        // Checks\n        require(\n            token != soul && token != weth && token != bridge,\n            'SoulMaker: Invalid bridge'\n        );\n\n        // Effects\n        _bridges[token] = bridge;\n        emit LogBridgeSet(token, bridge);\n    }\n\n    // not a fool proof, but prevents flash loans, so here it's ok to use tx.origin\n    modifier onlyEOA() {\n        // try to making flash-loan exploit harder to do by only allowing externally owned addresses.\n        require(msg.sender == tx.origin, 'SoulMaker: must use EOA');\n        _;\n    }\n\n    // _convert is separate to save gas by only checking the 'onlyEOA' modifier once in case of convertMultiple\n    // there is an exploit to add lots of SOUL to the spellbound, run convert, then remove the SOUL again.\n    // as the size of the SpellBound has grown, this requires large amounts of funds and isn't super profitable anymore\n    // the onlyEOA modifier prevents this being done with a flash loan.\n    function convert(address token0, address token1) external onlyEOA() {\n        _convert(token0, token1);\n    }\n\n    // C3: Loop is under control of the caller\n    function convertMultiple(\n        address[] calldata token0,\n        address[] calldata token1\n    ) external onlyEOA() {\n        // TODO: This can be optimized a fair bit, but this is safer and simpler for now\n        uint256 len = token0.length;\n        for (uint256 i = 0; i < len; i++) {\n            _convert(token0[i], token1[i]);\n        }\n    }\n\n    function _convert(address token0, address token1) internal {\n        // Interactions\n        ISoulSwapPair pair = ISoulSwapPair(factory.getPair(token0, token1));\n        require(address(pair) != address(0), 'SoulMaker: Invalid pair');\n        IERC20(address(pair)).safeTransfer(\n            address(pair),\n            pair.balanceOf(address(this))\n        );\n\n        (uint256 amount0, uint256 amount1) = pair.burn(address(this));\n\n        if (token0 != pair.token0()) { (amount0, amount1) = (amount1, amount0); }\n        emit LogConvert(\n            msg.sender,\n            token0,\n            token1,\n            amount0,\n            amount1,\n            _convertStep(token0, token1, amount0, amount1)\n        );\n    }\n\n    function _convertStep(\n        address token0,\n        address token1,\n        uint256 amount0,\n        uint256 amount1\n    ) internal returns (uint256 soulOut) {\n        // Interactions\n        if (token0 == token1) {\n            uint256 amount = amount0 + amount1;\n            if (token0 == soul) {\n                IERC20(soul).safeTransfer(spell, amount);\n                soulOut = amount;\n            } else if (token0 == weth) {\n                soulOut = _toSOUL(weth, amount);\n            } else {\n                address bridge = bridgeFor(token0);\n                amount = _swap(token0, bridge, amount, address(this));\n                soulOut = _convertStep(bridge, bridge, amount, 0);\n            }\n        } else if (token0 == soul) {\n            // eg. SOUL - ETH\n            IERC20(soul).safeTransfer(spell, amount0);\n            soulOut = _toSOUL(token1, amount1) + amount0;\n        } else if (token1 == soul) {\n            // eg. USDT - SOUL\n            IERC20(soul).safeTransfer(spell, amount1);\n            soulOut = _toSOUL(token0, amount0) + amount1;\n        } else if (token0 == weth) {\n            // eg. ETH - USDC\n            soulOut = _toSOUL(\n                weth,\n                _swap(token1, weth, amount1, address(this)) + amount0\n            );\n        } else if (token1 == weth) {\n            // eg. USDT - ETH\n            soulOut = _toSOUL(\n                weth,\n                _swap(token0, weth, amount0, address(this)) + amount1\n            );\n        } else {\n            // eg. MIC - USDT\n            address bridge0 = bridgeFor(token0);\n            address bridge1 = bridgeFor(token1);\n            if (bridge0 == token1) {\n                // eg. MIC - USDT - and bridgeFor(MIC) = USDT\n                soulOut = _convertStep(\n                    bridge0,\n                    token1,\n                    _swap(token0, bridge0, amount0, address(this)),\n                    amount1\n                );\n            } else if (bridge1 == token0) {\n                // eg. WBTC - DSD - and bridgeFor(DSD) = WBTC\n                soulOut = _convertStep(\n                    token0,\n                    bridge1,\n                    amount0,\n                    _swap(token1, bridge1, amount1, address(this))\n                );\n            } else {\n                soulOut = _convertStep(\n                    bridge0,\n                    bridge1, // eg. USDT - DSD - and bridgeFor(DSD) = WBTC\n                    _swap(token0, bridge0, amount0, address(this)),\n                    _swap(token1, bridge1, amount1, address(this))\n                );\n            }\n        }\n    }\n\n    function _swap(\n        address fromToken,\n        address toToken,\n        uint256 amountIn,\n        address to\n    ) internal returns (uint256 amountOut) {\n        // Checks\n        ISoulSwapPair pair =\n            ISoulSwapPair(factory.getPair(fromToken, toToken));\n        require(address(pair) != address(0), 'SoulMaker: Cannot convert');\n\n        // Interactions\n        (uint256 reserve0, uint256 reserve1, ) = pair.getReserves();\n        uint256 amountInWithFee = amountIn * 997;\n        if (fromToken == pair.token0()) {\n            amountOut =\n                amountInWithFee * reserve1 /\n                reserve0 * 1000 + amountInWithFee;\n            IERC20(fromToken).safeTransfer(address(pair), amountIn);\n            pair.swap(0, amountOut, to, new bytes(0));\n            // TODO: Add maximum slippage?\n        } else {\n            amountOut =\n                amountInWithFee * reserve0 /\n                reserve1 * 1000 + amountInWithFee;\n            IERC20(fromToken).safeTransfer(address(pair), amountIn);\n            pair.swap(amountOut, 0, to, new bytes(0));\n            // TODO: Add maximum slippage?\n        }\n    }\n\n    function _toSOUL(address token, uint256 amountIn)\n        internal\n        returns (uint256 amountOut)\n    {\n        amountOut = _swap(token, soul, amountIn, spell);\n    }\n\n}",
  "sourcePath": "/Users/Uni/Documents/GitHub/soulswap/soulswap-farms/contracts/SoulMaker.sol",
  "compiler": {
    "name": "solc",
    "version": "0.8.0+commit.c7dfd78e.Emscripten.clang"
  },
  "schemaVersion": "3.4.1",
  "updatedAt": "2021-09-16T09:32:08.510Z",
  "devdoc": {
    "kind": "dev",
    "methods": {
      "addOperator(address)": {
        "details": "Adds address as operator of the contract. Can only be called by an operator."
      },
      "owner()": {
        "details": "Returns the address of the current owner."
      },
      "removeOperator(address)": {
        "details": "Leaves the contract without operator. It will not be possible to call `onlyOperator` functions anymore. Can only be called by an operator."
      },
      "renounceOwnership()": {
        "details": "Leaves the contract without owner. It will not be possible to call `onlyOwner` functions anymore. Can only be called by the current owner. NOTE: Renouncing ownership will leave the contract without an owner, thereby removing any functionality that is only available to the owner."
      },
      "transferOwnership(address)": {
        "details": "Transfers ownership of the contract to a new account (`newOwner`). Can only be called by the current owner."
      }
    },
    "version": 1
  },
  "userdoc": {
    "kind": "user",
    "methods": {},
    "version": 1
  }
}