{
  "contractName": "SoulSummonerFantom",
  "abi": [
    {
      "inputs": [],
      "stateMutability": "nonpayable",
      "type": "constructor"
    },
    {
      "anonymous": false,
      "inputs": [
        {
          "indexed": false,
          "internalType": "address",
          "name": "dao",
          "type": "address"
        },
        {
          "indexed": false,
          "internalType": "address",
          "name": "team",
          "type": "address"
        },
        {
          "indexed": false,
          "internalType": "address",
          "name": "admin",
          "type": "address"
        }
      ],
      "name": "AccountsUpdated",
      "type": "event"
    },
    {
      "anonymous": false,
      "inputs": [
        {
          "indexed": true,
          "internalType": "address",
          "name": "user",
          "type": "address"
        },
        {
          "indexed": true,
          "internalType": "uint256",
          "name": "pid",
          "type": "uint256"
        },
        {
          "indexed": false,
          "internalType": "uint256",
          "name": "amount",
          "type": "uint256"
        }
      ],
      "name": "Deposit",
      "type": "event"
    },
    {
      "anonymous": false,
      "inputs": [
        {
          "indexed": false,
          "internalType": "uint256",
          "name": "_pid",
          "type": "uint256"
        },
        {
          "indexed": false,
          "internalType": "address",
          "name": "_user",
          "type": "address"
        },
        {
          "indexed": false,
          "internalType": "uint256",
          "name": "_time",
          "type": "uint256"
        }
      ],
      "name": "DepositRevised",
      "type": "event"
    },
    {
      "anonymous": false,
      "inputs": [
        {
          "indexed": false,
          "internalType": "address",
          "name": "team",
          "type": "address"
        },
        {
          "indexed": false,
          "internalType": "address",
          "name": "dao",
          "type": "address"
        },
        {
          "indexed": false,
          "internalType": "address",
          "name": "soul",
          "type": "address"
        },
        {
          "indexed": false,
          "internalType": "address",
          "name": "seance",
          "type": "address"
        },
        {
          "indexed": false,
          "internalType": "uint256",
          "name": "totalAllocPoint",
          "type": "uint256"
        },
        {
          "indexed": false,
          "internalType": "uint256",
          "name": "weight",
          "type": "uint256"
        }
      ],
      "name": "Initialized",
      "type": "event"
    },
    {
      "anonymous": false,
      "inputs": [
        {
          "indexed": false,
          "internalType": "address",
          "name": "account",
          "type": "address"
        }
      ],
      "name": "Paused",
      "type": "event"
    },
    {
      "anonymous": false,
      "inputs": [
        {
          "indexed": false,
          "internalType": "uint256",
          "name": "pid",
          "type": "uint256"
        },
        {
          "indexed": false,
          "internalType": "uint256",
          "name": "allocPoint",
          "type": "uint256"
        },
        {
          "indexed": false,
          "internalType": "contract IERC20",
          "name": "lpToken",
          "type": "address"
        },
        {
          "indexed": false,
          "internalType": "uint256",
          "name": "totalAllocPoint",
          "type": "uint256"
        }
      ],
      "name": "PoolAdded",
      "type": "event"
    },
    {
      "anonymous": false,
      "inputs": [
        {
          "indexed": false,
          "internalType": "uint256",
          "name": "pid",
          "type": "uint256"
        },
        {
          "indexed": false,
          "internalType": "uint256",
          "name": "allocPoint",
          "type": "uint256"
        }
      ],
      "name": "PoolSet",
      "type": "event"
    },
    {
      "anonymous": false,
      "inputs": [
        {
          "indexed": false,
          "internalType": "uint256",
          "name": "dailySoul",
          "type": "uint256"
        },
        {
          "indexed": false,
          "internalType": "uint256",
          "name": "soulPerSecond",
          "type": "uint256"
        }
      ],
      "name": "RewardsUpdated",
      "type": "event"
    },
    {
      "anonymous": false,
      "inputs": [
        {
          "indexed": true,
          "internalType": "bytes32",
          "name": "role",
          "type": "bytes32"
        },
        {
          "indexed": true,
          "internalType": "bytes32",
          "name": "previousAdminRole",
          "type": "bytes32"
        },
        {
          "indexed": true,
          "internalType": "bytes32",
          "name": "newAdminRole",
          "type": "bytes32"
        }
      ],
      "name": "RoleAdminChanged",
      "type": "event"
    },
    {
      "anonymous": false,
      "inputs": [
        {
          "indexed": false,
          "internalType": "bytes32",
          "name": "role",
          "type": "bytes32"
        },
        {
          "indexed": false,
          "internalType": "bytes32",
          "name": "supreme",
          "type": "bytes32"
        }
      ],
      "name": "RoleDivinated",
      "type": "event"
    },
    {
      "anonymous": false,
      "inputs": [
        {
          "indexed": true,
          "internalType": "bytes32",
          "name": "role",
          "type": "bytes32"
        },
        {
          "indexed": true,
          "internalType": "address",
          "name": "account",
          "type": "address"
        },
        {
          "indexed": true,
          "internalType": "address",
          "name": "sender",
          "type": "address"
        }
      ],
      "name": "RoleGranted",
      "type": "event"
    },
    {
      "anonymous": false,
      "inputs": [
        {
          "indexed": true,
          "internalType": "bytes32",
          "name": "role",
          "type": "bytes32"
        },
        {
          "indexed": true,
          "internalType": "address",
          "name": "account",
          "type": "address"
        },
        {
          "indexed": true,
          "internalType": "address",
          "name": "sender",
          "type": "address"
        }
      ],
      "name": "RoleRevoked",
      "type": "event"
    },
    {
      "anonymous": false,
      "inputs": [
        {
          "indexed": false,
          "internalType": "uint256",
          "name": "startRate",
          "type": "uint256"
        }
      ],
      "name": "StartRateUpdated",
      "type": "event"
    },
    {
      "anonymous": false,
      "inputs": [
        {
          "indexed": false,
          "internalType": "address",
          "name": "soul",
          "type": "address"
        },
        {
          "indexed": false,
          "internalType": "address",
          "name": "seance",
          "type": "address"
        }
      ],
      "name": "TokensUpdated",
      "type": "event"
    },
    {
      "anonymous": false,
      "inputs": [
        {
          "indexed": false,
          "internalType": "address",
          "name": "account",
          "type": "address"
        }
      ],
      "name": "Unpaused",
      "type": "event"
    },
    {
      "anonymous": false,
      "inputs": [
        {
          "indexed": false,
          "internalType": "uint256",
          "name": "weight",
          "type": "uint256"
        },
        {
          "indexed": false,
          "internalType": "uint256",
          "name": "totalWeight",
          "type": "uint256"
        }
      ],
      "name": "WeightUpdated",
      "type": "event"
    },
    {
      "anonymous": false,
      "inputs": [
        {
          "indexed": true,
          "internalType": "address",
          "name": "user",
          "type": "address"
        },
        {
          "indexed": true,
          "internalType": "uint256",
          "name": "pid",
          "type": "uint256"
        },
        {
          "indexed": false,
          "internalType": "uint256",
          "name": "amount",
          "type": "uint256"
        },
        {
          "indexed": false,
          "internalType": "uint256",
          "name": "timeStamp",
          "type": "uint256"
        }
      ],
      "name": "Withdraw",
      "type": "event"
    },
    {
      "inputs": [],
      "name": "DEFAULT_ADMIN_ROLE",
      "outputs": [
        {
          "internalType": "bytes32",
          "name": "",
          "type": "bytes32"
        }
      ],
      "stateMutability": "view",
      "type": "function"
    },
    {
      "inputs": [],
      "name": "bonusMultiplier",
      "outputs": [
        {
          "internalType": "uint256",
          "name": "",
          "type": "uint256"
        }
      ],
      "stateMutability": "view",
      "type": "function"
    },
    {
      "inputs": [],
      "name": "dailyDecay",
      "outputs": [
        {
          "internalType": "uint256",
          "name": "",
          "type": "uint256"
        }
      ],
      "stateMutability": "view",
      "type": "function"
    },
    {
      "inputs": [],
      "name": "dailySoul",
      "outputs": [
        {
          "internalType": "uint256",
          "name": "",
          "type": "uint256"
        }
      ],
      "stateMutability": "view",
      "type": "function"
    },
    {
      "inputs": [],
      "name": "dao",
      "outputs": [
        {
          "internalType": "address",
          "name": "",
          "type": "address"
        }
      ],
      "stateMutability": "view",
      "type": "function"
    },
    {
      "inputs": [
        {
          "internalType": "bytes32",
          "name": "role",
          "type": "bytes32"
        }
      ],
      "name": "getRoleAdmin",
      "outputs": [
        {
          "internalType": "bytes32",
          "name": "",
          "type": "bytes32"
        }
      ],
      "stateMutability": "view",
      "type": "function"
    },
    {
      "inputs": [
        {
          "internalType": "bytes32",
          "name": "role",
          "type": "bytes32"
        },
        {
          "internalType": "address",
          "name": "account",
          "type": "address"
        }
      ],
      "name": "grantRole",
      "outputs": [],
      "stateMutability": "nonpayable",
      "type": "function"
    },
    {
      "inputs": [
        {
          "internalType": "bytes32",
          "name": "role",
          "type": "bytes32"
        },
        {
          "internalType": "address",
          "name": "account",
          "type": "address"
        }
      ],
      "name": "hasRole",
      "outputs": [
        {
          "internalType": "bool",
          "name": "",
          "type": "bool"
        }
      ],
      "stateMutability": "view",
      "type": "function"
    },
    {
      "inputs": [],
      "name": "isInitialized",
      "outputs": [
        {
          "internalType": "bool",
          "name": "",
          "type": "bool"
        }
      ],
      "stateMutability": "view",
      "type": "function"
    },
    {
      "inputs": [],
      "name": "isis",
      "outputs": [
        {
          "internalType": "bytes32",
          "name": "",
          "type": "bytes32"
        }
      ],
      "stateMutability": "view",
      "type": "function"
    },
    {
      "inputs": [],
      "name": "maat",
      "outputs": [
        {
          "internalType": "bytes32",
          "name": "",
          "type": "bytes32"
        }
      ],
      "stateMutability": "view",
      "type": "function"
    },
    {
      "inputs": [],
      "name": "migrator",
      "outputs": [
        {
          "internalType": "contract IMigrator",
          "name": "",
          "type": "address"
        }
      ],
      "stateMutability": "view",
      "type": "function"
    },
    {
      "inputs": [],
      "name": "paused",
      "outputs": [
        {
          "internalType": "bool",
          "name": "",
          "type": "bool"
        }
      ],
      "stateMutability": "view",
      "type": "function"
    },
    {
      "inputs": [
        {
          "internalType": "uint256",
          "name": "",
          "type": "uint256"
        }
      ],
      "name": "poolInfo",
      "outputs": [
        {
          "internalType": "contract IERC20",
          "name": "lpToken",
          "type": "address"
        },
        {
          "internalType": "uint256",
          "name": "allocPoint",
          "type": "uint256"
        },
        {
          "internalType": "uint256",
          "name": "lastRewardTime",
          "type": "uint256"
        },
        {
          "internalType": "uint256",
          "name": "accSoulPerShare",
          "type": "uint256"
        }
      ],
      "stateMutability": "view",
      "type": "function"
    },
    {
      "inputs": [
        {
          "internalType": "bytes32",
          "name": "role",
          "type": "bytes32"
        },
        {
          "internalType": "address",
          "name": "account",
          "type": "address"
        }
      ],
      "name": "renounceRole",
      "outputs": [],
      "stateMutability": "nonpayable",
      "type": "function"
    },
    {
      "inputs": [
        {
          "internalType": "bytes32",
          "name": "role",
          "type": "bytes32"
        },
        {
          "internalType": "address",
          "name": "account",
          "type": "address"
        }
      ],
      "name": "revokeRole",
      "outputs": [],
      "stateMutability": "nonpayable",
      "type": "function"
    },
    {
      "inputs": [],
      "name": "seance",
      "outputs": [
        {
          "internalType": "contract SeanceCircle",
          "name": "",
          "type": "address"
        }
      ],
      "stateMutability": "view",
      "type": "function"
    },
    {
      "inputs": [],
      "name": "soul",
      "outputs": [
        {
          "internalType": "contract SoulPower",
          "name": "",
          "type": "address"
        }
      ],
      "stateMutability": "view",
      "type": "function"
    },
    {
      "inputs": [],
      "name": "soulPerSecond",
      "outputs": [
        {
          "internalType": "uint256",
          "name": "",
          "type": "uint256"
        }
      ],
      "stateMutability": "view",
      "type": "function"
    },
    {
      "inputs": [],
      "name": "startRate",
      "outputs": [
        {
          "internalType": "uint256",
          "name": "",
          "type": "uint256"
        }
      ],
      "stateMutability": "view",
      "type": "function"
    },
    {
      "inputs": [],
      "name": "startTime",
      "outputs": [
        {
          "internalType": "uint256",
          "name": "",
          "type": "uint256"
        }
      ],
      "stateMutability": "view",
      "type": "function"
    },
    {
      "inputs": [
        {
          "internalType": "bytes4",
          "name": "interfaceId",
          "type": "bytes4"
        }
      ],
      "name": "supportsInterface",
      "outputs": [
        {
          "internalType": "bool",
          "name": "",
          "type": "bool"
        }
      ],
      "stateMutability": "view",
      "type": "function"
    },
    {
      "inputs": [],
      "name": "supreme",
      "outputs": [
        {
          "internalType": "address",
          "name": "",
          "type": "address"
        }
      ],
      "stateMutability": "view",
      "type": "function"
    },
    {
      "inputs": [],
      "name": "team",
      "outputs": [
        {
          "internalType": "address",
          "name": "",
          "type": "address"
        }
      ],
      "stateMutability": "view",
      "type": "function"
    },
    {
      "inputs": [],
      "name": "totalAllocPoint",
      "outputs": [
        {
          "internalType": "uint256",
          "name": "",
          "type": "uint256"
        }
      ],
      "stateMutability": "view",
      "type": "function"
    },
    {
      "inputs": [],
      "name": "totalWeight",
      "outputs": [
        {
          "internalType": "uint256",
          "name": "",
          "type": "uint256"
        }
      ],
      "stateMutability": "view",
      "type": "function"
    },
    {
      "inputs": [
        {
          "internalType": "uint256",
          "name": "",
          "type": "uint256"
        },
        {
          "internalType": "address",
          "name": "",
          "type": "address"
        }
      ],
      "name": "userInfo",
      "outputs": [
        {
          "internalType": "uint256",
          "name": "amount",
          "type": "uint256"
        },
        {
          "internalType": "uint256",
          "name": "rewardDebt",
          "type": "uint256"
        },
        {
          "internalType": "uint256",
          "name": "rewardDebtAtTime",
          "type": "uint256"
        },
        {
          "internalType": "uint256",
          "name": "lastWithdrawTime",
          "type": "uint256"
        },
        {
          "internalType": "uint256",
          "name": "firstDepositTime",
          "type": "uint256"
        },
        {
          "internalType": "uint256",
          "name": "timeDelta",
          "type": "uint256"
        },
        {
          "internalType": "uint256",
          "name": "lastDepositTime",
          "type": "uint256"
        }
      ],
      "stateMutability": "view",
      "type": "function"
    },
    {
      "inputs": [],
      "name": "weight",
      "outputs": [
        {
          "internalType": "uint256",
          "name": "",
          "type": "uint256"
        }
      ],
      "stateMutability": "view",
      "type": "function"
    },
    {
      "inputs": [],
      "name": "initialize",
      "outputs": [],
      "stateMutability": "nonpayable",
      "type": "function"
    },
    {
      "inputs": [],
      "name": "poolLength",
      "outputs": [
        {
          "internalType": "uint256",
          "name": "",
          "type": "uint256"
        }
      ],
      "stateMutability": "view",
      "type": "function"
    },
    {
      "inputs": [
        {
          "internalType": "uint256",
          "name": "_allocPoint",
          "type": "uint256"
        },
        {
          "internalType": "contract IERC20",
          "name": "_lpToken",
          "type": "address"
        },
        {
          "internalType": "bool",
          "name": "_withUpdate",
          "type": "bool"
        }
      ],
      "name": "addPool",
      "outputs": [],
      "stateMutability": "nonpayable",
      "type": "function"
    },
    {
      "inputs": [
        {
          "internalType": "uint256",
          "name": "pid",
          "type": "uint256"
        },
        {
          "internalType": "uint256",
          "name": "allocPoint",
          "type": "uint256"
        },
        {
          "internalType": "bool",
          "name": "withUpdate",
          "type": "bool"
        }
      ],
      "name": "set",
      "outputs": [],
      "stateMutability": "nonpayable",
      "type": "function"
    },
    {
      "inputs": [
        {
          "internalType": "contract IMigrator",
          "name": "_migrator",
          "type": "address"
        }
      ],
      "name": "setMigrator",
      "outputs": [],
      "stateMutability": "nonpayable",
      "type": "function"
    },
    {
      "inputs": [
        {
          "internalType": "uint256",
          "name": "_pid",
          "type": "uint256"
        },
        {
          "internalType": "address",
          "name": "_user",
          "type": "address"
        }
      ],
      "name": "userDelta",
      "outputs": [
        {
          "internalType": "uint256",
          "name": "delta",
          "type": "uint256"
        }
      ],
      "stateMutability": "view",
      "type": "function"
    },
    {
      "inputs": [
        {
          "internalType": "uint256",
          "name": "pid",
          "type": "uint256"
        }
      ],
      "name": "migrate",
      "outputs": [],
      "stateMutability": "nonpayable",
      "type": "function"
    },
    {
      "inputs": [
        {
          "internalType": "uint256",
          "name": "from",
          "type": "uint256"
        },
        {
          "internalType": "uint256",
          "name": "to",
          "type": "uint256"
        }
      ],
      "name": "getMultiplier",
      "outputs": [
        {
          "internalType": "uint256",
          "name": "",
          "type": "uint256"
        }
      ],
      "stateMutability": "view",
      "type": "function"
    },
    {
      "inputs": [
        {
          "internalType": "uint256",
          "name": "pid",
          "type": "uint256"
        },
        {
          "internalType": "uint256",
          "name": "timeDelta",
          "type": "uint256"
        }
      ],
      "name": "getFeeRate",
      "outputs": [
        {
          "internalType": "uint256",
          "name": "feeRate",
          "type": "uint256"
        }
      ],
      "stateMutability": "view",
      "type": "function"
    },
    {
      "inputs": [
        {
          "internalType": "uint256",
          "name": "pid",
          "type": "uint256"
        },
        {
          "internalType": "uint256",
          "name": "timeDelta",
          "type": "uint256"
        },
        {
          "internalType": "uint256",
          "name": "amount",
          "type": "uint256"
        }
      ],
      "name": "getWithdrawable",
      "outputs": [
        {
          "internalType": "uint256",
          "name": "_feeAmount",
          "type": "uint256"
        },
        {
          "internalType": "uint256",
          "name": "_withdrawable",
          "type": "uint256"
        }
      ],
      "stateMutability": "view",
      "type": "function"
    },
    {
      "inputs": [
        {
          "internalType": "uint256",
          "name": "pid",
          "type": "uint256"
        },
        {
          "internalType": "address",
          "name": "_user",
          "type": "address"
        }
      ],
      "name": "pendingSoul",
      "outputs": [
        {
          "internalType": "uint256",
          "name": "pendingAmount",
          "type": "uint256"
        }
      ],
      "stateMutability": "view",
      "type": "function"
    },
    {
      "inputs": [],
      "name": "massUpdatePools",
      "outputs": [],
      "stateMutability": "nonpayable",
      "type": "function"
    },
    {
      "inputs": [
        {
          "internalType": "uint256",
          "name": "pid",
          "type": "uint256"
        }
      ],
      "name": "updatePool",
      "outputs": [],
      "stateMutability": "nonpayable",
      "type": "function"
    },
    {
      "inputs": [
        {
          "internalType": "uint256",
          "name": "pid",
          "type": "uint256"
        },
        {
          "internalType": "uint256",
          "name": "amount",
          "type": "uint256"
        }
      ],
      "name": "deposit",
      "outputs": [],
      "stateMutability": "nonpayable",
      "type": "function"
    },
    {
      "inputs": [
        {
          "internalType": "uint256",
          "name": "pid",
          "type": "uint256"
        },
        {
          "internalType": "uint256",
          "name": "amount",
          "type": "uint256"
        }
      ],
      "name": "withdraw",
      "outputs": [],
      "stateMutability": "nonpayable",
      "type": "function"
    },
    {
      "inputs": [
        {
          "internalType": "uint256",
          "name": "amount",
          "type": "uint256"
        }
      ],
      "name": "enterStaking",
      "outputs": [],
      "stateMutability": "nonpayable",
      "type": "function"
    },
    {
      "inputs": [
        {
          "internalType": "uint256",
          "name": "amount",
          "type": "uint256"
        }
      ],
      "name": "leaveStaking",
      "outputs": [],
      "stateMutability": "nonpayable",
      "type": "function"
    },
    {
      "inputs": [
        {
          "internalType": "uint256",
          "name": "_weight",
          "type": "uint256"
        },
        {
          "internalType": "uint256",
          "name": "_totalWeight",
          "type": "uint256"
        }
      ],
      "name": "updateWeights",
      "outputs": [],
      "stateMutability": "nonpayable",
      "type": "function"
    },
    {
      "inputs": [
        {
          "internalType": "uint256",
          "name": "_bonusMultiplier",
          "type": "uint256"
        }
      ],
      "name": "updateMultiplier",
      "outputs": [],
      "stateMutability": "nonpayable",
      "type": "function"
    },
    {
      "inputs": [
        {
          "internalType": "uint256",
          "name": "_startRate",
          "type": "uint256"
        }
      ],
      "name": "updateStartRate",
      "outputs": [],
      "stateMutability": "nonpayable",
      "type": "function"
    },
    {
      "inputs": [
        {
          "internalType": "address",
          "name": "_dao",
          "type": "address"
        },
        {
          "internalType": "address",
          "name": "_team",
          "type": "address"
        },
        {
          "internalType": "address",
          "name": "_supreme",
          "type": "address"
        }
      ],
      "name": "updateAccounts",
      "outputs": [],
      "stateMutability": "nonpayable",
      "type": "function"
    },
    {
      "inputs": [
        {
          "internalType": "address",
          "name": "_soul",
          "type": "address"
        },
        {
          "internalType": "address",
          "name": "_seance",
          "type": "address"
        }
      ],
      "name": "updateTokens",
      "outputs": [],
      "stateMutability": "nonpayable",
      "type": "function"
    },
    {
      "inputs": [
        {
          "internalType": "uint256",
          "name": "_pid",
          "type": "uint256"
        },
        {
          "internalType": "address",
          "name": "_user",
          "type": "address"
        },
        {
          "internalType": "uint256",
          "name": "_time",
          "type": "uint256"
        }
      ],
      "name": "reviseDeposit",
      "outputs": [],
      "stateMutability": "nonpayable",
      "type": "function"
    },
    {
      "inputs": [
        {
          "internalType": "uint256",
          "name": "amount",
          "type": "uint256"
        }
      ],
      "name": "enWei",
      "outputs": [
        {
          "internalType": "uint256",
          "name": "",
          "type": "uint256"
        }
      ],
      "stateMutability": "pure",
      "type": "function"
    },
    {
      "inputs": [
        {
          "internalType": "uint256",
          "name": "amount",
          "type": "uint256"
        }
      ],
      "name": "fromWei",
      "outputs": [
        {
          "internalType": "uint256",
          "name": "",
          "type": "uint256"
        }
      ],
      "stateMutability": "pure",
      "type": "function"
    }
  ],
  "bytecode": "0x60a06040526001600f556200001b60016200025560201b60201c565b6080908152503480156200002e57600080fd5b506000600160006101000a81548160ff02191690831515021790555060016002819055507381dd37687c74df8f957a370a9a4435d873f5e5a9600960006101000a81548173ffffffffffffffffffffffffffffffffffffffff021916908373ffffffffffffffffffffffffffffffffffffffff1602179055507336d0164e87b58427c4153c089aedda8ec0b80b9d600760006101000a81548173ffffffffffffffffffffffffffffffffffffffff021916908373ffffffffffffffffffffffffffffffffffffffff160217905550731c63c726926197bd3cb75d86bcfb1daebcd87250600860006101000a81548173ffffffffffffffffffffffffffffffffffffffff021916908373ffffffffffffffffffffffffffffffffffffffff1602179055507f36d5d8406f8379c6deba01145ec4f6a2966675cc67d71355b397a2a8e3572b296016819055507f0811b25c145e1379dc78112dd91057f09150f6db05dfd7e04deb910e6cefd4b7601781905550620001da6000801b6000801b600960009054906101000a900473ffffffffffffffffffffffffffffffffffffffff166200027460201b60201c565b5062000214601654601654600960009054906101000a900473ffffffffffffffffffffffffffffffffffffffff166200027460201b60201c565b506200024e601754601654600860009054906101000a900473ffffffffffffffffffffffffffffffffffffffff166200027460201b60201c565b506200053a565b6000670de0b6b3a7640000826200026d9190620004a0565b9050919050565b6000620002888483620002a560201b60201c565b6200029a8484620002bb60201b60201c565b600190509392505050565b620002b782826200031e60201b60201c565b5050565b6000620002ce836200040f60201b60201c565b905081600080858152602001908152602001600020600101819055508181847fbd79b86ffe0ab8e8776151514217cd7cacd52c909f66475c3af44e129f0b00ff60405160405180910390a4505050565b6200033082826200042e60201b60201c565b6200040b57600160008084815260200190815260200160002060000160008373ffffffffffffffffffffffffffffffffffffffff1673ffffffffffffffffffffffffffffffffffffffff16815260200190815260200160002060006101000a81548160ff021916908315150217905550620003b06200049860201b60201c565b73ffffffffffffffffffffffffffffffffffffffff168173ffffffffffffffffffffffffffffffffffffffff16837f2f8788117e7eff1d82e926ec794901d17c78024a50270940304540a733656f0d60405160405180910390a45b5050565b6000806000838152602001908152602001600020600101549050919050565b600080600084815260200190815260200160002060000160008373ffffffffffffffffffffffffffffffffffffffff1673ffffffffffffffffffffffffffffffffffffffff16815260200190815260200160002060009054906101000a900460ff16905092915050565b600033905090565b6000620004ad8262000501565b9150620004ba8362000501565b9250817fffffffffffffffffffffffffffffffffffffffffffffffffffffffffffffffff0483118215151615620004f657620004f56200050b565b5b828202905092915050565b6000819050919050565b7f4e487b7100000000000000000000000000000000000000000000000000000000600052601160045260246000fd5b6080516158446200055660003960006138c001526158446000f3fe608060405234801561001057600080fd5b50600436106103275760003560e01c80637cd07e47116101b8578063a217fddf11610104578063e65d1522116100a2578063f107fd851161007c578063f107fd8514610970578063fb39d1e31461098c578063fc90fdc0146109bc578063fd6f99d0146109da57610327565b8063e65d152214610906578063e7aa29e314610936578063ea4bf4461461095257610327565b8063cf94ee96116100de578063cf94ee9614610882578063d547741f146108b2578063e2bbb158146108ce578063e4090331146108ea57610327565b8063a217fddf14610816578063a8b973a114610834578063bfafcad51461085257610327565b806385f2aef21161017157806393f1a40b1161014b57806393f1a40b1461077457806396c82e57146107aa5780639f6c5426146107c8578063a1aab33f146107f857610327565b806385f2aef2146106f65780638dbb1e3a1461071457806391d148541461074457610327565b80637cd07e47146106455780637d500ec8146106635780637e668b42146106815780638129fc1c146106b2578063815b7a8c146106bc57806382386d58146106da57610327565b8063441a3e70116102775780635c975abb11610230578063630b5ba11161020a578063630b5ba1146105e557806364482f79146105ef57806378e979251461060b5780637abceffd1461062957610327565b80635c975abb1461058d5780635f9bf689146105ab5780635ffe6146146105c957610327565b8063441a3e70146104e1578063454b0608146104fd57806348f8bfea146105195780634a962829146105375780634ca01d451461055357806351eb05a61461057157610327565b806323cf3118116102e457806336568abe116102be57806336568abe1461046d578063392e53cd1461048957806341441d3b146104a75780634162169f146104c357610327565b806323cf311814610405578063248a9ca3146104215780632f2ff15d1461045157610327565b806301ffc9a71461032c578063081e3eda1461035c5780631058d2811461037a5780631254f0dc146103965780631526fe27146103b457806317caf6f1146103e7575b600080fd5b61034660048036038101906103419190614573565b6109f8565b6040516103539190614f72565b60405180910390f35b610364610a72565b60405161037191906152bb565b60405180910390f35b610394600480360381019061038f91906145ee565b610a7f565b005b61039e610e00565b6040516103ab91906152bb565b60405180910390f35b6103ce60048036038101906103c991906145ee565b610e06565b6040516103de9493929190614fc3565b60405180910390f35b6103ef610e66565b6040516103fc91906152bb565b60405180910390f35b61041f600480360381019061041a91906145c5565b610e6c565b005b61043b6004803603810190610436919061450e565b610f14565b6040516104489190614f8d565b60405180910390f35b61046b60048036038101906104669190614537565b610f33565b005b61048760048036038101906104829190614537565b610f5c565b005b610491610fdf565b60405161049e9190614f72565b60405180910390f35b6104c160048036038101906104bc91906145ee565b610ff2565b005b6104cb611399565b6040516104d89190614e36565b60405180910390f35b6104fb60048036038101906104f6919061471a565b6113bf565b005b610517600480360381019061051291906145ee565b6118ce565b005b610521611d6f565b60405161052e9190614e36565b60405180910390f35b610551600480360381019061054c91906145ee565b611d95565b005b61055b611e0c565b6040516105689190615023565b60405180910390f35b61058b600480360381019061058691906145ee565b611e32565b005b610595612283565b6040516105a29190614f72565b60405180910390f35b6105b361229a565b6040516105c091906152bb565b60405180910390f35b6105e360048036038101906105de91906145ee565b6122a0565b005b6105ed6122bf565b005b61060960048036038101906106049190614756565b6122f2565b005b6106136124bc565b60405161062091906152bb565b60405180910390f35b610643600480360381019061063e91906146cb565b6124c2565b005b61064d61253f565b60405161065a9190615008565b60405180910390f35b61066b612565565b60405161067891906152bb565b60405180910390f35b61069b600480360381019061069691906147a5565b61256b565b6040516106a992919061530d565b60405180910390f35b6106ba6125c1565b005b6106c46129c6565b6040516106d1919061503e565b60405180910390f35b6106f460048036038101906106ef919061467c565b6129ec565b005b6106fe612a9f565b60405161070b9190614e36565b60405180910390f35b61072e6004803603810190610729919061471a565b612ac5565b60405161073b91906152bb565b60405180910390f35b61075e60048036038101906107599190614537565b612ae8565b60405161076b9190614f72565b60405180910390f35b61078e60048036038101906107899190614640565b612b52565b6040516107a1979695949392919061537b565b60405180910390f35b6107b2612ba1565b6040516107bf91906152bb565b60405180910390f35b6107e260048036038101906107dd919061471a565b612ba7565b6040516107ef91906152bb565b60405180910390f35b610800612c1a565b60405161080d91906152bb565b60405180910390f35b61081e612c20565b60405161082b9190614f8d565b60405180910390f35b61083c612c27565b60405161084991906152bb565b60405180910390f35b61086c60048036038101906108679190614640565b612c2d565b60405161087991906152bb565b60405180910390f35b61089c600480360381019061089791906145ee565b612e48565b6040516108a991906152bb565b60405180910390f35b6108cc60048036038101906108c79190614537565b612e65565b005b6108e860048036038101906108e3919061471a565b612e8e565b005b61090460048036038101906108ff9190614496565b613234565b005b610920600480360381019061091b91906145ee565b6134f5565b60405161092d91906152bb565b60405180910390f35b610950600480360381019061094b919061445a565b613512565b005b61095a6136d0565b6040516109679190614f8d565b60405180910390f35b61098a6004803603810190610985919061471a565b6136d6565b005b6109a660048036038101906109a19190614640565b6137dd565b6040516109b391906152bb565b60405180910390f35b6109c46138be565b6040516109d191906152bb565b60405180910390f35b6109e26138e2565b6040516109ef9190614f8d565b60405180910390f35b60007f7965db0b000000000000000000000000000000000000000000000000000000007bffffffffffffffffffffffffffffffffffffffffffffffffffffffff1916827bffffffffffffffffffffffffffffffffffffffffffffffffffffffff19161480610a6b5750610a6a826138e8565b5b9050919050565b6000601480549050905090565b600280541415610ac4576040517f08c379a0000000000000000000000000000000000000000000000000000000008152600401610abb9061521b565b60405180910390fd5b6002808190555060006014600081548110610b08577f4e487b7100000000000000000000000000000000000000000000000000000000600052603260045260246000fd5b9060005260206000209060040201905060006015600080815260200190815260200160002060003373ffffffffffffffffffffffffffffffffffffffff1673ffffffffffffffffffffffffffffffffffffffff16815260200190815260200160002090508281600001541015610bb3576040517f08c379a0000000000000000000000000000000000000000000000000000000008152600401610baa906151bb565b60405180910390fd5b610bbd6000611e32565b6000816001015464e8d4a5100084600301548460000154610bde9190615498565b610be89190615467565b610bf291906154f2565b90506000811115610c0857610c073382613952565b5b6000841115610cdc57838260000154610c2191906154f2565b82600001819055508260000160009054906101000a900473ffffffffffffffffffffffffffffffffffffffff1673ffffffffffffffffffffffffffffffffffffffff1663a9059cbb33866040518363ffffffff1660e01b8152600401610c88929190614f49565b602060405180830381600087803b158015610ca257600080fd5b505af1158015610cb6573d6000803e3d6000fd5b505050506040513d601f19601f82011682018060405250810190610cda91906144e5565b505b64e8d4a5100083600301548360000154610cf69190615498565b610d009190615467565b8260010181905550428260030181905550600660009054906101000a900473ffffffffffffffffffffffffffffffffffffffff1673ffffffffffffffffffffffffffffffffffffffff16639dc29fac33866040518363ffffffff1660e01b8152600401610d6e929190614f49565b600060405180830381600087803b158015610d8857600080fd5b505af1158015610d9c573d6000803e3d6000fd5b5050505060003373ffffffffffffffffffffffffffffffffffffffff167f02f25270a4d87bea75db541cdfe559334a275b4a233520ed6c0a2429667cca948642604051610dea92919061530d565b60405180910390a3505050600160028190555050565b60135481565b60148181548110610e1657600080fd5b90600052602060002090600402016000915090508060000160009054906101000a900473ffffffffffffffffffffffffffffffffffffffff16908060010154908060020154908060030154905084565b60115481565b601260009054906101000a900460ff16610ebb576040517f08c379a0000000000000000000000000000000000000000000000000000000008152600401610eb29061527b565b60405180910390fd5b601654610ecf81610eca6139e5565b6139ed565b81600a60006101000a81548173ffffffffffffffffffffffffffffffffffffffff021916908373ffffffffffffffffffffffffffffffffffffffff1602179055505050565b6000806000838152602001908152602001600020600101549050919050565b610f3c82610f14565b610f4d81610f486139e5565b6139ed565b610f578383613a8a565b505050565b610f646139e5565b73ffffffffffffffffffffffffffffffffffffffff168173ffffffffffffffffffffffffffffffffffffffff1614610fd1576040517f08c379a0000000000000000000000000000000000000000000000000000000008152600401610fc89061523b565b60405180910390fd5b610fdb8282613b6a565b5050565b601260009054906101000a900460ff1681565b600280541415611037576040517f08c379a000000000000000000000000000000000000000000000000000000000815260040161102e9061521b565b60405180910390fd5b60028081905550611046612283565b15611086576040517f08c379a000000000000000000000000000000000000000000000000000000000815260040161107d906150bb565b60405180910390fd5b600060146000815481106110c3577f4e487b7100000000000000000000000000000000000000000000000000000000600052603260045260246000fd5b9060005260206000209060040201905060006015600080815260200190815260200160002060003373ffffffffffffffffffffffffffffffffffffffff1673ffffffffffffffffffffffffffffffffffffffff16815260200190815260200160002090506111316000611e32565b60008160000154111561118b576000816001015464e8d4a510008460030154846000015461115f9190615498565b6111699190615467565b61117391906154f2565b90506000811115611189576111883382613952565b5b505b6000831115611261578160000160009054906101000a900473ffffffffffffffffffffffffffffffffffffffff1673ffffffffffffffffffffffffffffffffffffffff166323b872dd3330866040518463ffffffff1660e01b81526004016111f593929190614f12565b602060405180830381600087803b15801561120f57600080fd5b505af1158015611223573d6000803e3d6000fd5b505050506040513d601f19601f8201168201806040525081019061124791906144e5565b508281600001546112589190615411565b81600001819055505b60008160040154116112735742611279565b80600401545b816004018190555064e8d4a510008260030154826000015461129b9190615498565b6112a59190615467565b8160010181905550600660009054906101000a900473ffffffffffffffffffffffffffffffffffffffff1673ffffffffffffffffffffffffffffffffffffffff166340c10f1933856040518363ffffffff1660e01b815260040161130a929190614f49565b600060405180830381600087803b15801561132457600080fd5b505af1158015611338573d6000803e3d6000fd5b5050505060003373ffffffffffffffffffffffffffffffffffffffff167f90890809c654f11d6e72a28fa60149770a0d11ec6c92319d6ceb2bb0a4ea1a158560405161138491906152bb565b60405180910390a35050600160028190555050565b600860009054906101000a900473ffffffffffffffffffffffffffffffffffffffff1681565b600280541415611404576040517f08c379a00000000000000000000000000000000000000000000000000000000081526004016113fb9061521b565b60405180910390fd5b60028081905550816014805490508110611453576040517f08c379a000000000000000000000000000000000000000000000000000000000815260040161144a9061519b565b60405180910390fd5b6000831415611497576040517f08c379a000000000000000000000000000000000000000000000000000000000815260040161148e9061511b565b60405180910390fd5b6000601484815481106114d3577f4e487b7100000000000000000000000000000000000000000000000000000000600052603260045260246000fd5b9060005260206000209060040201905060006015600086815260200190815260200160002060003373ffffffffffffffffffffffffffffffffffffffff1673ffffffffffffffffffffffffffffffffffffffff1681526020019081526020016000209050838160000154101561157e576040517f08c379a0000000000000000000000000000000000000000000000000000000008152600401611575906151db565b60405180910390fd5b61158785611e32565b6000816001015464e8d4a51000846003015484600001546115a89190615498565b6115b29190615467565b6115bc91906154f2565b905060008111156115d2576115d13382613952565b5b600085111561163757600082600601541115611605578160060154426115f891906154f2565b826005018190555061161e565b81600401544261161591906154f2565b82600501819055505b84826000015461162e91906154f2565b82600001819055505b60006015600088815260200190815260200160002060003373ffffffffffffffffffffffffffffffffffffffff1673ffffffffffffffffffffffffffffffffffffffff168152602001908152602001600020600501549050600061169c88838961256b565b915050600081886116ad91906154f2565b90508560000160009054906101000a900473ffffffffffffffffffffffffffffffffffffffff1673ffffffffffffffffffffffffffffffffffffffff1663a9059cbb600860009054906101000a900473ffffffffffffffffffffffffffffffffffffffff16836040518363ffffffff1660e01b8152600401611730929190614f49565b602060405180830381600087803b15801561174a57600080fd5b505af115801561175e573d6000803e3d6000fd5b505050506040513d601f19601f8201168201806040525081019061178291906144e5565b508560000160009054906101000a900473ffffffffffffffffffffffffffffffffffffffff1673ffffffffffffffffffffffffffffffffffffffff1663a9059cbb33846040518363ffffffff1660e01b81526004016117e2929190614f49565b602060405180830381600087803b1580156117fc57600080fd5b505af1158015611810573d6000803e3d6000fd5b505050506040513d601f19601f8201168201806040525081019061183491906144e5565b5064e8d4a510008660030154866000015461184f9190615498565b6118599190615467565b8560010181905550428560030181905550883373ffffffffffffffffffffffffffffffffffffffff167f02f25270a4d87bea75db541cdfe559334a275b4a233520ed6c0a2429667cca948a426040516118b392919061530d565b60405180910390a35050505050505060016002819055505050565b601260009054906101000a900460ff1661191d576040517f08c379a00000000000000000000000000000000000000000000000000000000081526004016119149061527b565b60405180910390fd5b806014805490508110611965576040517f08c379a000000000000000000000000000000000000000000000000000000000815260040161195c9061519b565b60405180910390fd5b600073ffffffffffffffffffffffffffffffffffffffff16600a60009054906101000a900473ffffffffffffffffffffffffffffffffffffffff1673ffffffffffffffffffffffffffffffffffffffff1614156119f7576040517f08c379a00000000000000000000000000000000000000000000000000000000081526004016119ee906150fb565b60405180910390fd5b600060148381548110611a33577f4e487b7100000000000000000000000000000000000000000000000000000000600052603260045260246000fd5b9060005260206000209060040201905060008160000160009054906101000a900473ffffffffffffffffffffffffffffffffffffffff16905060008173ffffffffffffffffffffffffffffffffffffffff166370a08231306040518263ffffffff1660e01b8152600401611aa79190614e36565b60206040518083038186803b158015611abf57600080fd5b505afa158015611ad3573d6000803e3d6000fd5b505050506040513d601f19601f82011682018060405250810190611af79190614617565b90508173ffffffffffffffffffffffffffffffffffffffff1663095ea7b3600a60009054906101000a900473ffffffffffffffffffffffffffffffffffffffff16836040518363ffffffff1660e01b8152600401611b56929190614f49565b602060405180830381600087803b158015611b7057600080fd5b505af1158015611b84573d6000803e3d6000fd5b505050506040513d601f19601f82011682018060405250810190611ba891906144e5565b506000600a60009054906101000a900473ffffffffffffffffffffffffffffffffffffffff1673ffffffffffffffffffffffffffffffffffffffff1663ce5494bb846040518263ffffffff1660e01b8152600401611c069190614fa8565b602060405180830381600087803b158015611c2057600080fd5b505af1158015611c34573d6000803e3d6000fd5b505050506040513d601f19601f82011682018060405250810190611c58919061459c565b90508073ffffffffffffffffffffffffffffffffffffffff166370a08231306040518263ffffffff1660e01b8152600401611c939190614e36565b60206040518083038186803b158015611cab57600080fd5b505afa158015611cbf573d6000803e3d6000fd5b505050506040513d601f19601f82011682018060405250810190611ce39190614617565b8214611d24576040517f08c379a0000000000000000000000000000000000000000000000000000000008152600401611d1b9061525b565b60405180910390fd5b808460000160006101000a81548173ffffffffffffffffffffffffffffffffffffffff021916908373ffffffffffffffffffffffffffffffffffffffff160217905550505050505050565b600960009054906101000a900473ffffffffffffffffffffffffffffffffffffffff1681565b601754611da981611da46139e5565b6139ed565b611db282612e48565b6013541415611dc057600080fd5b611dc982612e48565b6013819055507f580e2348a4d1118e1f915eeffd71aec4938e749307b28e67f19841ca64117df7601354604051611e0091906152bb565b60405180910390a15050565b600660009054906101000a900473ffffffffffffffffffffffffffffffffffffffff1681565b806014805490508110611e7a576040517f08c379a0000000000000000000000000000000000000000000000000000000008152600401611e719061519b565b60405180910390fd5b600060148381548110611eb6577f4e487b7100000000000000000000000000000000000000000000000000000000600052603260045260246000fd5b9060005260206000209060040201905080600201544211611ed7575061227f565b60008160000160009054906101000a900473ffffffffffffffffffffffffffffffffffffffff1673ffffffffffffffffffffffffffffffffffffffff166370a08231306040518263ffffffff1660e01b8152600401611f369190614e36565b60206040518083038186803b158015611f4e57600080fd5b505afa158015611f62573d6000803e3d6000fd5b505050506040513d601f19601f82011682018060405250810190611f869190614617565b90506000811415611fa157428260020181905550505061227f565b6000611fb1836002015442612ac5565b905060006011548460010154600e5484611fcb9190615498565b611fd59190615498565b611fdf9190615467565b90506000650746a528800064e8d4a5100083611ffb9190615498565b6120059190615467565b905060006002826120169190615498565b90506000818461202691906154f2565b9050600460009054906101000a900473ffffffffffffffffffffffffffffffffffffffff1673ffffffffffffffffffffffffffffffffffffffff166340c10f19600760009054906101000a900473ffffffffffffffffffffffffffffffffffffffff16856040518363ffffffff1660e01b81526004016120a7929190614f49565b600060405180830381600087803b1580156120c157600080fd5b505af11580156120d5573d6000803e3d6000fd5b50505050600460009054906101000a900473ffffffffffffffffffffffffffffffffffffffff1673ffffffffffffffffffffffffffffffffffffffff166340c10f19600860009054906101000a900473ffffffffffffffffffffffffffffffffffffffff16856040518363ffffffff1660e01b8152600401612158929190614f49565b600060405180830381600087803b15801561217257600080fd5b505af1158015612186573d6000803e3d6000fd5b50505050600460009054906101000a900473ffffffffffffffffffffffffffffffffffffffff1673ffffffffffffffffffffffffffffffffffffffff166340c10f19600660009054906101000a900473ffffffffffffffffffffffffffffffffffffffff16836040518363ffffffff1660e01b8152600401612209929190614f49565b600060405180830381600087803b15801561222357600080fd5b505af1158015612237573d6000803e3d6000fd5b505050508564e8d4a510008561224d9190615498565b6122579190615467565b87600301546122669190615411565b8760030181905550428760020181905550505050505050505b5050565b6000600160009054906101000a900460ff16905090565b600e5481565b6017546122b4816122af6139e5565b6139ed565b81600f819055505050565b6000601480549050905060005b818110156122ee576122dd81611e32565b806122e7906156b5565b90506122cc565b5050565b601260009054906101000a900460ff16612341576040517f08c379a00000000000000000000000000000000000000000000000000000000081526004016123389061527b565b60405180910390fd5b826014805490508110612389576040517f08c379a00000000000000000000000000000000000000000000000000000000081526004016123809061519b565b60405180910390fd5b60175461239d816123986139e5565b6139ed565b82156123ac576123ab6122bf565b5b6000601486815481106123e8577f4e487b7100000000000000000000000000000000000000000000000000000000600052603260045260246000fd5b90600052602060002090600402016001015490508460148781548110612437577f4e487b7100000000000000000000000000000000000000000000000000000000600052603260045260246000fd5b90600052602060002090600402016001018190555084811461247b57848160115461246291906154f2565b61246c9190615411565b60118190555061247a613c4b565b5b7fd88f859573973e938da5bf3e5100c16eee2090fa720e05ae3d452b4cd05cdcfd86866040516124ac92919061530d565b60405180910390a1505050505050565b60105481565b601260009054906101000a900460ff16612511576040517f08c379a00000000000000000000000000000000000000000000000000000000081526004016125089061527b565b60405180910390fd5b601654612525816125206139e5565b6139ed565b61252e83613da8565b612539848484613ead565b50505050565b600a60009054906101000a900473ffffffffffffffffffffffffffffffffffffffff1681565b600d5481565b600080600061258261257d8787612ba7565b6134f5565b90506000606482866125949190615498565b61259e9190615467565b9050600081866125ae91906154f2565b9050818194509450505050935093915050565b6016546125d5816125d06139e5565b6139ed565b601260009054906101000a900460ff1615612625576040517f08c379a000000000000000000000000000000000000000000000000000000000815260040161261c906150db565b60405180910390fd5b73e2fb177009ff39f52c0134e8007fa0e4baacbd07600360006101000a81548173ffffffffffffffffffffffffffffffffffffffff021916908373ffffffffffffffffffffffffffffffffffffffff16021790555073124b06c5ce47de7a6e9efda71a946717130079e6600560006101000a81548173ffffffffffffffffffffffffffffffffffffffff021916908373ffffffffffffffffffffffffffffffffffffffff160217905550426010819055506103e8600b819055506103e8600c819055506126f2600e612e48565b60138190555060006103e89050600360009054906101000a900473ffffffffffffffffffffffffffffffffffffffff16600460006101000a81548173ffffffffffffffffffffffffffffffffffffffff021916908373ffffffffffffffffffffffffffffffffffffffff160217905550600560009054906101000a900473ffffffffffffffffffffffffffffffffffffffff16600660006101000a81548173ffffffffffffffffffffffffffffffffffffffff021916908373ffffffffffffffffffffffffffffffffffffffff1602179055506127d3600c54600b54614008565b60146040518060800160405280600460009054906101000a900473ffffffffffffffffffffffffffffffffffffffff1673ffffffffffffffffffffffffffffffffffffffff16815260200183815260200160105481526020016000815250908060018154018082558091505060019003906000526020600020906004020160009091909190915060008201518160000160006101000a81548173ffffffffffffffffffffffffffffffffffffffff021916908373ffffffffffffffffffffffffffffffffffffffff16021790555060208201518160010155604082015181600201556060820151816003015550506001601260006101000a81548160ff02191690831515021790555080601160008282546128ee9190615411565b925050819055507f0476c5e4920930815a67a5a042e26836431f494d3be0f6e10c3034787a7a15f9600760009054906101000a900473ffffffffffffffffffffffffffffffffffffffff16600860009054906101000a900473ffffffffffffffffffffffffffffffffffffffff16600360009054906101000a900473ffffffffffffffffffffffffffffffffffffffff16600560009054906101000a900473ffffffffffffffffffffffffffffffffffffffff16601154600c546040516129ba96959493929190614eb1565b60405180910390a15050565b600460009054906101000a900473ffffffffffffffffffffffffffffffffffffffff1681565b601754612a00816129fb6139e5565b6139ed565b60006015600086815260200190815260200160002060008573ffffffffffffffffffffffffffffffffffffffff1673ffffffffffffffffffffffffffffffffffffffff16815260200190815260200160002090508281600401819055507f40d6e8e3d60e4693375c73df2d1a71d582a28197c98fd8d2badad6ead06af64c858585604051612a90939291906152d6565b60405180910390a15050505050565b600760009054906101000a900473ffffffffffffffffffffffffffffffffffffffff1681565b6000600f548383612ad691906154f2565b612ae09190615498565b905092915050565b600080600084815260200190815260200160002060000160008373ffffffffffffffffffffffffffffffffffffffff1673ffffffffffffffffffffffffffffffffffffffff16815260200190815260200160002060009054906101000a900460ff16905092915050565b6015602052816000526040600020602052806000526040600020600091509150508060000154908060010154908060020154908060030154908060040154908060050154908060060154905087565b600b5481565b600080620151808310612bc8576201518083612bc39190615467565b612bcb565b60005b90506000612bd882612e48565b90506000601354821015612bf95781601354612bf491906154f2565b612bfc565b60005b905060008614612c0c5780612c0f565b60005b935050505092915050565b600c5481565b6000801b81565b600f5481565b60008060148481548110612c6a577f4e487b7100000000000000000000000000000000000000000000000000000000600052603260045260246000fd5b9060005260206000209060040201905060006015600086815260200190815260200160002060008573ffffffffffffffffffffffffffffffffffffffff1673ffffffffffffffffffffffffffffffffffffffff168152602001908152602001600020905060008260030154905060008360000160009054906101000a900473ffffffffffffffffffffffffffffffffffffffff1673ffffffffffffffffffffffffffffffffffffffff166370a08231306040518263ffffffff1660e01b8152600401612d369190614e36565b60206040518083038186803b158015612d4e57600080fd5b505afa158015612d62573d6000803e3d6000fd5b505050506040513d601f19601f82011682018060405250810190612d869190614617565b9050836002015442118015612d9c575060008114155b15612e0d576000612db1856002015442612ac5565b905060006011548660010154600e5484612dcb9190615498565b612dd59190615498565b612ddf9190615467565b90508264e8d4a5100082612df39190615498565b612dfd9190615467565b84612e089190615411565b935050505b826001015464e8d4a51000838560000154612e289190615498565b612e329190615467565b612e3c91906154f2565b94505050505092915050565b6000670de0b6b3a764000082612e5e9190615498565b9050919050565b612e6e82610f14565b612e7f81612e7a6139e5565b6139ed565b612e898383613b6a565b505050565b600280541415612ed3576040517f08c379a0000000000000000000000000000000000000000000000000000000008152600401612eca9061521b565b60405180910390fd5b60028081905550816014805490508110612f22576040517f08c379a0000000000000000000000000000000000000000000000000000000008152600401612f199061519b565b60405180910390fd5b612f2a612283565b15612f6a576040517f08c379a0000000000000000000000000000000000000000000000000000000008152600401612f61906150bb565b60405180910390fd5b6000831415612fae576040517f08c379a0000000000000000000000000000000000000000000000000000000008152600401612fa59061513b565b60405180910390fd5b600060148481548110612fea577f4e487b7100000000000000000000000000000000000000000000000000000000600052603260045260246000fd5b9060005260206000209060040201905060006015600086815260200190815260200160002060003373ffffffffffffffffffffffffffffffffffffffff1673ffffffffffffffffffffffffffffffffffffffff168152602001908152602001600020905061305785611e32565b6000816000015411156130b1576000816001015464e8d4a51000846003015484600001546130859190615498565b61308f9190615467565b61309991906154f2565b905060008111156130af576130ae3382613952565b5b505b600084111561318a578160000160009054906101000a900473ffffffffffffffffffffffffffffffffffffffff1673ffffffffffffffffffffffffffffffffffffffff166323b872dd3330876040518463ffffffff1660e01b815260040161311b93929190614f12565b602060405180830381600087803b15801561313557600080fd5b505af1158015613149573d6000803e3d6000fd5b505050506040513d601f19601f8201168201806040525081019061316d91906144e5565b50838160000160008282546131829190615411565b925050819055505b64e8d4a51000826003015482600001546131a49190615498565b6131ae9190615467565b816001018190555060008160040154116131c857426131ce565b80600401545b8160040181905550843373ffffffffffffffffffffffffffffffffffffffff167f90890809c654f11d6e72a28fa60149770a0d11ec6c92319d6ceb2bb0a4ea1a158660405161321d91906152bb565b60405180910390a350505060016002819055505050565b601654613248816132436139e5565b6139ed565b8373ffffffffffffffffffffffffffffffffffffffff16600860009054906101000a900473ffffffffffffffffffffffffffffffffffffffff1673ffffffffffffffffffffffffffffffffffffffff161415806132f357508273ffffffffffffffffffffffffffffffffffffffff16600760009054906101000a900473ffffffffffffffffffffffffffffffffffffffff1673ffffffffffffffffffffffffffffffffffffffff1614155b8061334c57508173ffffffffffffffffffffffffffffffffffffffff16600960009054906101000a900473ffffffffffffffffffffffffffffffffffffffff1673ffffffffffffffffffffffffffffffffffffffff1614155b61338b576040517f08c379a00000000000000000000000000000000000000000000000000000000081526004016133829061517b565b60405180910390fd5b83600860006101000a81548173ffffffffffffffffffffffffffffffffffffffff021916908373ffffffffffffffffffffffffffffffffffffffff16021790555082600760006101000a81548173ffffffffffffffffffffffffffffffffffffffff021916908373ffffffffffffffffffffffffffffffffffffffff16021790555081600960006101000a81548173ffffffffffffffffffffffffffffffffffffffff021916908373ffffffffffffffffffffffffffffffffffffffff1602179055507f1af7fb2dca603676776ebce7af5086b001c893239c7e2a241e7184e6f3cf9282600860009054906101000a900473ffffffffffffffffffffffffffffffffffffffff16600760009054906101000a900473ffffffffffffffffffffffffffffffffffffffff16600960009054906101000a900473ffffffffffffffffffffffffffffffffffffffff166040516134e793929190614e7a565b60405180910390a150505050565b6000670de0b6b3a76400008261350b9190615467565b9050919050565b601654613526816135216139e5565b6139ed565b8273ffffffffffffffffffffffffffffffffffffffff16600460009054906101000a900473ffffffffffffffffffffffffffffffffffffffff1673ffffffffffffffffffffffffffffffffffffffff161415806135d157508173ffffffffffffffffffffffffffffffffffffffff16600660009054906101000a900473ffffffffffffffffffffffffffffffffffffffff1673ffffffffffffffffffffffffffffffffffffffff1614155b613610576040517f08c379a00000000000000000000000000000000000000000000000000000000081526004016136079061515b565b60405180910390fd5b82600460006101000a81548173ffffffffffffffffffffffffffffffffffffffff021916908373ffffffffffffffffffffffffffffffffffffffff16021790555081600660006101000a81548173ffffffffffffffffffffffffffffffffffffffff021916908373ffffffffffffffffffffffffffffffffffffffff1602179055507fdcc6331013de89f8c595d5328f0a724194f113cb6f8f2a707b3dff6de13f0d1783836040516136c3929190614e51565b60405180910390a1505050565b60165481565b6017546136ea816136e56139e5565b6139ed565b82600c541415806136fd575081600b5414155b61373c576040517f08c379a00000000000000000000000000000000000000000000000000000000081526004016137339061509b565b60405180910390fd5b8282101561377f576040517f08c379a00000000000000000000000000000000000000000000000000000000081526004016137769061529b565b60405180910390fd5b82600c8190555081600b8190555061379b600c54600b54614008565b7fb298bc23e07860d501fddce288f46d761aa04a0c7c3316099eb50f097aacf304600c54600b546040516137d092919061530d565b60405180910390a1505050565b6000806015600085815260200190815260200160002060008473ffffffffffffffffffffffffffffffffffffffff1673ffffffffffffffffffffffffffffffffffffffff1681526020019081526020016000206040518060e0016040529081600082015481526020016001820154815260200160028201548152602001600382015481526020016004820154815260200160058201548152602001600682015481525050905060008160600151116138a45780608001514261389f91906154f2565b6138b5565b8060600151426138b491906154f2565b5b91505092915050565b7f000000000000000000000000000000000000000000000000000000000000000081565b60175481565b60007f01ffc9a7000000000000000000000000000000000000000000000000000000007bffffffffffffffffffffffffffffffffffffffffffffffffffffffff1916827bffffffffffffffffffffffffffffffffffffffffffffffffffffffff1916149050919050565b600660009054906101000a900473ffffffffffffffffffffffffffffffffffffffff1673ffffffffffffffffffffffffffffffffffffffff1663b2a142aa83836040518363ffffffff1660e01b81526004016139af929190614f49565b600060405180830381600087803b1580156139c957600080fd5b505af11580156139dd573d6000803e3d6000fd5b505050505050565b600033905090565b6139f78282612ae8565b613a8657613a1c8173ffffffffffffffffffffffffffffffffffffffff16601461408e565b613a2a8360001c602061408e565b604051602001613a3b929190614dfc565b6040516020818303038152906040526040517f08c379a0000000000000000000000000000000000000000000000000000000008152600401613a7d9190615059565b60405180910390fd5b5050565b613a948282612ae8565b613b6657600160008084815260200190815260200160002060000160008373ffffffffffffffffffffffffffffffffffffffff1673ffffffffffffffffffffffffffffffffffffffff16815260200190815260200160002060006101000a81548160ff021916908315150217905550613b0b6139e5565b73ffffffffffffffffffffffffffffffffffffffff168173ffffffffffffffffffffffffffffffffffffffff16837f2f8788117e7eff1d82e926ec794901d17c78024a50270940304540a733656f0d60405160405180910390a45b5050565b613b748282612ae8565b15613c4757600080600084815260200190815260200160002060000160008373ffffffffffffffffffffffffffffffffffffffff1673ffffffffffffffffffffffffffffffffffffffff16815260200190815260200160002060006101000a81548160ff021916908315150217905550613bec6139e5565b73ffffffffffffffffffffffffffffffffffffffff168173ffffffffffffffffffffffffffffffffffffffff16837ff6391f5c32d9c69d2a47ea670b442974b53935d1edc7fd64eb21e047a839171b60405160405180910390a45b5050565b60006014805490509050600080600190505b82811015613ccf5760148181548110613c9f577f4e487b7100000000000000000000000000000000000000000000000000000000600052603260045260246000fd5b90600052602060002090600402016001015482613cbc9190615411565b915080613cc8906156b5565b9050613c5d565b5060008114613da457600381613ce59190615467565b9050806014600081548110613d23577f4e487b7100000000000000000000000000000000000000000000000000000000600052603260045260246000fd5b906000526020600020906004020160010154601154613d4291906154f2565b613d4c9190615411565b601181905550806014600081548110613d8e577f4e487b7100000000000000000000000000000000000000000000000000000000600052603260045260246000fd5b9060005260206000209060040201600101819055505b5050565b6000601480549050905060005b81811015613ea8578273ffffffffffffffffffffffffffffffffffffffff1660148281548110613e0e577f4e487b7100000000000000000000000000000000000000000000000000000000600052603260045260246000fd5b906000526020600020906004020160000160009054906101000a900473ffffffffffffffffffffffffffffffffffffffff1673ffffffffffffffffffffffffffffffffffffffff161415613e97576040517f08c379a0000000000000000000000000000000000000000000000000000000008152600401613e8e906151fb565b60405180910390fd5b80613ea1906156b5565b9050613db5565b505050565b8015613ebc57613ebb6122bf565b5b8260116000828254613ece9190615411565b92505081905550601460405180608001604052808473ffffffffffffffffffffffffffffffffffffffff1681526020018581526020016010544211613f1557601054613f17565b425b81526020016000815250908060018154018082558091505060019003906000526020600020906004020160009091909190915060008201518160000160006101000a81548173ffffffffffffffffffffffffffffffffffffffff021916908373ffffffffffffffffffffffffffffffffffffffff1602179055506020820151816001015560408201518160020155606082015181600301555050613fb9613c4b565b600060148054905090507f20b669aa921947a6d9602a921d2db3b6b30f21b9aca98580fa3972530330b27a818585601154604051613ffa9493929190615336565b60405180910390a150505050565b60008161401484612e48565b61401e9190615467565b90506203d0908161402f9190615498565b600d8190555062015180600d546140469190615467565b600e819055507fcd7c861d63893659123f817b192b8621ff1923a7c4589c260173cedcf9e986a6600d54600e5460405161408192919061530d565b60405180910390a1505050565b6060600060028360026140a19190615498565b6140ab9190615411565b67ffffffffffffffff8111156140ea577f4e487b7100000000000000000000000000000000000000000000000000000000600052604160045260246000fd5b6040519080825280601f01601f19166020018201604052801561411c5781602001600182028036833780820191505090505b5090507f30000000000000000000000000000000000000000000000000000000000000008160008151811061417a577f4e487b7100000000000000000000000000000000000000000000000000000000600052603260045260246000fd5b60200101907effffffffffffffffffffffffffffffffffffffffffffffffffffffffffffff1916908160001a9053507f780000000000000000000000000000000000000000000000000000000000000081600181518110614204577f4e487b7100000000000000000000000000000000000000000000000000000000600052603260045260246000fd5b60200101907effffffffffffffffffffffffffffffffffffffffffffffffffffffffffffff1916908160001a905350600060018460026142449190615498565b61424e9190615411565b90505b600181111561433a577f3031323334353637383961626364656600000000000000000000000000000000600f8616601081106142b6577f4e487b7100000000000000000000000000000000000000000000000000000000600052603260045260246000fd5b1a60f81b8282815181106142f3577f4e487b7100000000000000000000000000000000000000000000000000000000600052603260045260246000fd5b60200101907effffffffffffffffffffffffffffffffffffffffffffffffffffffffffffff1916908160001a905350600485901c9450806143339061568b565b9050614251565b506000841461437e576040517f08c379a00000000000000000000000000000000000000000000000000000000081526004016143759061507b565b60405180910390fd5b8091505092915050565b6000813590506143978161576d565b92915050565b6000813590506143ac81615784565b92915050565b6000815190506143c181615784565b92915050565b6000813590506143d68161579b565b92915050565b6000813590506143eb816157b2565b92915050565b600081359050614400816157c9565b92915050565b600081519050614415816157c9565b92915050565b60008135905061442a816157e0565b92915050565b60008135905061443f816157f7565b92915050565b600081519050614454816157f7565b92915050565b6000806040838503121561446d57600080fd5b600061447b85828601614388565b925050602061448c85828601614388565b9150509250929050565b6000806000606084860312156144ab57600080fd5b60006144b986828701614388565b93505060206144ca86828701614388565b92505060406144db86828701614388565b9150509250925092565b6000602082840312156144f757600080fd5b6000614505848285016143b2565b91505092915050565b60006020828403121561452057600080fd5b600061452e848285016143c7565b91505092915050565b6000806040838503121561454a57600080fd5b6000614558858286016143c7565b925050602061456985828601614388565b9150509250929050565b60006020828403121561458557600080fd5b6000614593848285016143dc565b91505092915050565b6000602082840312156145ae57600080fd5b60006145bc84828501614406565b91505092915050565b6000602082840312156145d757600080fd5b60006145e58482850161441b565b91505092915050565b60006020828403121561460057600080fd5b600061460e84828501614430565b91505092915050565b60006020828403121561462957600080fd5b600061463784828501614445565b91505092915050565b6000806040838503121561465357600080fd5b600061466185828601614430565b925050602061467285828601614388565b9150509250929050565b60008060006060848603121561469157600080fd5b600061469f86828701614430565b93505060206146b086828701614388565b92505060406146c186828701614430565b9150509250925092565b6000806000606084860312156146e057600080fd5b60006146ee86828701614430565b93505060206146ff868287016143f1565b92505060406147108682870161439d565b9150509250925092565b6000806040838503121561472d57600080fd5b600061473b85828601614430565b925050602061474c85828601614430565b9150509250929050565b60008060006060848603121561476b57600080fd5b600061477986828701614430565b935050602061478a86828701614430565b925050604061479b8682870161439d565b9150509250925092565b6000806000606084860312156147ba57600080fd5b60006147c886828701614430565b93505060206147d986828701614430565b92505060406147ea86828701614430565b9150509250925092565b6147fd81615526565b82525050565b61480c81615538565b82525050565b61481b81615544565b82525050565b61482a816155c8565b82525050565b614839816155ec565b82525050565b61484881615610565b82525050565b61485781615634565b82525050565b6000614868826153ea565b61487281856153f5565b9350614882818560208601615658565b61488b8161575c565b840191505092915050565b60006148a1826153ea565b6148ab8185615406565b93506148bb818560208601615658565b80840191505092915050565b60006148d46020836153f5565b91507f537472696e67733a20686578206c656e67746820696e73756666696369656e746000830152602082019050919050565b6000614914601e836153f5565b91507f6d757374206265206174206c65617374206f6e65206e65772076616c756500006000830152602082019050919050565b60006149546010836153f5565b91507f5061757361626c653a20706175736564000000000000000000000000000000006000830152602082019050919050565b60006149946013836153f5565b91507f616c726561647920696e697469616c697a6564000000000000000000000000006000830152602082019050919050565b60006149d4600f836153f5565b91507f6e6f206d69677261746f722073657400000000000000000000000000000000006000830152602082019050919050565b6000614a14601a836153f5565b91507f776974686472617720534f554c20627920756e7374616b696e670000000000006000830152602082019050919050565b6000614a546017836153f5565b91507f6465706f73697420534f554c206279207374616b696e670000000000000000006000830152602082019050919050565b6000614a94601b836153f5565b91507f6d7573742062652061206e657720746f6b656e206164647265737300000000006000830152602082019050919050565b6000614ad46015836153f5565b91507f6d7573742062652061206e6577206163636f756e7400000000000000000000006000830152602082019050919050565b6000614b146013836153f5565b91507f706f6f6c20646f6573206e6f74206578697374000000000000000000000000006000830152602082019050919050565b6000614b546012836153f5565b91507f77697468647261773a206e6f7420676f6f6400000000000000000000000000006000830152602082019050919050565b6000614b94601783615406565b91507f416363657373436f6e74726f6c3a206163636f756e74200000000000000000006000830152601782019050919050565b6000614bd46011836153f5565b91507f7769746864726177206e6f7420676f6f640000000000000000000000000000006000830152602082019050919050565b6000614c14600f836153f5565b91507f6475706c69636174656420706f6f6c00000000000000000000000000000000006000830152602082019050919050565b6000614c54601f836153f5565b91507f5265656e7472616e637947756172643a207265656e7472616e742063616c6c006000830152602082019050919050565b6000614c94601183615406565b91507f206973206d697373696e6720726f6c65200000000000000000000000000000006000830152601182019050919050565b6000614cd4602f836153f5565b91507f416363657373436f6e74726f6c3a2063616e206f6e6c792072656e6f756e636560008301527f20726f6c657320666f722073656c6600000000000000000000000000000000006020830152604082019050919050565b6000614d3a601d836153f5565b91507f6d6967726174653a20696e73756666696369656e742062616c616e63650000006000830152602082019050919050565b6000614d7a601a836153f5565b91507f726577617264732068617665206e6f742079657420626567756e0000000000006000830152602082019050919050565b6000614dba6020836153f5565b91507f7765696768742063616e6e6f742065786365656420746f74616c5765696768746000830152602082019050919050565b614df6816155be565b82525050565b6000614e0782614b87565b9150614e138285614896565b9150614e1e82614c87565b9150614e2a8284614896565b91508190509392505050565b6000602082019050614e4b60008301846147f4565b92915050565b6000604082019050614e6660008301856147f4565b614e7360208301846147f4565b9392505050565b6000606082019050614e8f60008301866147f4565b614e9c60208301856147f4565b614ea960408301846147f4565b949350505050565b600060c082019050614ec660008301896147f4565b614ed360208301886147f4565b614ee060408301876147f4565b614eed60608301866147f4565b614efa6080830185614ded565b614f0760a0830184614ded565b979650505050505050565b6000606082019050614f2760008301866147f4565b614f3460208301856147f4565b614f416040830184614ded565b949350505050565b6000604082019050614f5e60008301856147f4565b614f6b6020830184614ded565b9392505050565b6000602082019050614f876000830184614803565b92915050565b6000602082019050614fa26000830184614812565b92915050565b6000602082019050614fbd6000830184614821565b92915050565b6000608082019050614fd86000830187614821565b614fe56020830186614ded565b614ff26040830185614ded565b614fff6060830184614ded565b95945050505050565b600060208201905061501d6000830184614830565b92915050565b6000602082019050615038600083018461483f565b92915050565b6000602082019050615053600083018461484e565b92915050565b60006020820190508181036000830152615073818461485d565b905092915050565b60006020820190508181036000830152615094816148c7565b9050919050565b600060208201905081810360008301526150b481614907565b9050919050565b600060208201905081810360008301526150d481614947565b9050919050565b600060208201905081810360008301526150f481614987565b9050919050565b60006020820190508181036000830152615114816149c7565b9050919050565b6000602082019050818103600083015261513481614a07565b9050919050565b6000602082019050818103600083015261515481614a47565b9050919050565b6000602082019050818103600083015261517481614a87565b9050919050565b6000602082019050818103600083015261519481614ac7565b9050919050565b600060208201905081810360008301526151b481614b07565b9050919050565b600060208201905081810360008301526151d481614b47565b9050919050565b600060208201905081810360008301526151f481614bc7565b9050919050565b6000602082019050818103600083015261521481614c07565b9050919050565b6000602082019050818103600083015261523481614c47565b9050919050565b6000602082019050818103600083015261525481614cc7565b9050919050565b6000602082019050818103600083015261527481614d2d565b9050919050565b6000602082019050818103600083015261529481614d6d565b9050919050565b600060208201905081810360008301526152b481614dad565b9050919050565b60006020820190506152d06000830184614ded565b92915050565b60006060820190506152eb6000830186614ded565b6152f860208301856147f4565b6153056040830184614ded565b949350505050565b60006040820190506153226000830185614ded565b61532f6020830184614ded565b9392505050565b600060808201905061534b6000830187614ded565b6153586020830186614ded565b6153656040830185614821565b6153726060830184614ded565b95945050505050565b600060e082019050615390600083018a614ded565b61539d6020830189614ded565b6153aa6040830188614ded565b6153b76060830187614ded565b6153c46080830186614ded565b6153d160a0830185614ded565b6153de60c0830184614ded565b98975050505050505050565b600081519050919050565b600082825260208201905092915050565b600081905092915050565b600061541c826155be565b9150615427836155be565b9250827fffffffffffffffffffffffffffffffffffffffffffffffffffffffffffffffff0382111561545c5761545b6156fe565b5b828201905092915050565b6000615472826155be565b915061547d836155be565b92508261548d5761548c61572d565b5b828204905092915050565b60006154a3826155be565b91506154ae836155be565b9250817fffffffffffffffffffffffffffffffffffffffffffffffffffffffffffffffff04831182151516156154e7576154e66156fe565b5b828202905092915050565b60006154fd826155be565b9150615508836155be565b92508282101561551b5761551a6156fe565b5b828203905092915050565b60006155318261559e565b9050919050565b60008115159050919050565b6000819050919050565b60007fffffffff0000000000000000000000000000000000000000000000000000000082169050919050565b600061558582615526565b9050919050565b600061559782615526565b9050919050565b600073ffffffffffffffffffffffffffffffffffffffff82169050919050565b6000819050919050565b60006155d3826155da565b9050919050565b60006155e58261559e565b9050919050565b60006155f7826155fe565b9050919050565b60006156098261559e565b9050919050565b600061561b82615622565b9050919050565b600061562d8261559e565b9050919050565b600061563f82615646565b9050919050565b60006156518261559e565b9050919050565b60005b8381101561567657808201518184015260208101905061565b565b83811115615685576000848401525b50505050565b6000615696826155be565b915060008214156156aa576156a96156fe565b5b600182039050919050565b60006156c0826155be565b91507fffffffffffffffffffffffffffffffffffffffffffffffffffffffffffffffff8214156156f3576156f26156fe565b5b600182019050919050565b7f4e487b7100000000000000000000000000000000000000000000000000000000600052601160045260246000fd5b7f4e487b7100000000000000000000000000000000000000000000000000000000600052601260045260246000fd5b6000601f19601f8301169050919050565b61577681615526565b811461578157600080fd5b50565b61578d81615538565b811461579857600080fd5b50565b6157a481615544565b81146157af57600080fd5b50565b6157bb8161554e565b81146157c657600080fd5b50565b6157d28161557a565b81146157dd57600080fd5b50565b6157e98161558c565b81146157f457600080fd5b50565b615800816155be565b811461580b57600080fd5b5056fea2646970667358221220bd41ff664788e0378e20f7390dd3cd9e6accd8b86efddc5b86a55f34274d540f64736f6c63430008000033",
  "immutableReferences": {
    "5168": [
      {
        "length": 32,
        "start": 14528
      }
    ]
  },
  "source": "// SPDX-License-Identifier: MIT\n\npragma solidity ^0.8.0;\nimport '@openzeppelin/contracts/access/AccessControl.sol';\nimport '@openzeppelin/contracts/security/Pausable.sol';\nimport '@openzeppelin/contracts/security/ReentrancyGuard.sol';\nimport '../tokens/SoulPower.sol';\nimport '../tokens/SeanceCircle.sol';\nimport '../interfaces/IMigrator.sol';\n\n// the summoner of souls | ownership transferred to a governance smart contract \n// upon sufficient distribution + the community's desire to self-govern.\n\ncontract SoulSummonerFantom is AccessControl, Pausable, ReentrancyGuard {\n\n    // user info\n    struct Users {\n        uint amount;           // total tokens user has provided.\n        uint rewardDebt;       // reward debt (see below).\n        uint rewardDebtAtTime; // the last time user stake.\n        uint lastWithdrawTime; // the last time a user withdrew at.\n        uint firstDepositTime; // the last time a user deposited at.\n        uint timeDelta;        // time passed since withdrawals.\n        uint lastDepositTime;  // most recent deposit time.\n\n        //   pending reward = (user.amount * pool.accSoulPerShare) - user.rewardDebt\n\n        // the following occurs when a user +/- tokens to a pool:\n        //   1. pool: `accSoulPerShare` and `lastRewardTime` update.\n        //   2. user: receives pending reward.\n        //   3. user: `amount` updates(+/-).\n        //   4. user: `rewardDebt` updates (+/-).\n    }\n\n    // pool info\n    struct Pools {\n        IERC20 lpToken;       // lp token ierc20 contract.\n        uint allocPoint;      // allocation points assigned to this pool | SOULs to distribute per second.\n        uint lastRewardTime;  // most recent UNIX timestamp during which SOULs distribution occurred in the pool.\n        uint accSoulPerShare; // accumulated SOULs per share, times 1e12.\n    }\n\n    // soul power: our native utility token\n    address private soulAddress;\n    SoulPower public soul;\n    \n    // seance circle: our governance token\n    address private seanceAddress;\n    SeanceCircle public seance;\n\n    address public team; // receives 1/8 soul supply\n    address public dao; // recieves 1/8 soul supply\n    address public supreme; // has supreme role\n\n    // migrator contract | has lotsa power\n    IMigrator public migrator;\n\n    // blockchain variables accounting for share of overall emissions\n    uint public totalWeight;\n    uint public weight;\n\n    // soul x day x this.chain\n    uint public dailySoul; // = weight * 250K * 1e18;\n\n    // soul x second x this.chain\n    uint public soulPerSecond; // = dailySoul / 86400;\n\n    // bonus muliplier for early soul summoners\n    uint public bonusMultiplier = 1;\n\n    // timestamp when soul rewards began (initialized)\n    uint public startTime;\n\n    // ttl allocation points | must be the sum of all allocation points\n    uint public totalAllocPoint;\n\n    // summoner initialized state.\n    bool public isInitialized;\n\n    // decay rate on withdrawal fee of 1%.\n    uint public immutable dailyDecay = enWei(1);\n\n    // start rate for the withdrawal fee.\n    uint public startRate;\n\n    Pools[] public poolInfo; // pool info\n    mapping (uint => mapping (address => Users)) public userInfo; // staker data\n\n    // divinated roles\n    bytes32 public isis; // soul summoning goddess of magic\n    bytes32 public maat; // goddess of cosmic order\n\n    event RoleDivinated(bytes32 role, bytes32 supreme);\n\n    // restricted to the council of the role passed as an object to obey (role)\n    modifier obey(bytes32 role) {\n        _checkRole(role, _msgSender());\n        _;\n    }\n\n    // prevents: early reward distribution\n    modifier isSummoned {\n        require(isInitialized, 'rewards have not yet begun');\n        _;\n    }\n\n    event Deposit(address indexed user, uint indexed pid, uint amount);\n    event Withdraw(address indexed user, uint indexed pid, uint amount, uint timeStamp);\n\n    event Initialized(address team, address dao, address soul, address seance, uint totalAllocPoint, uint weight);\n    event PoolAdded(uint pid, uint allocPoint, IERC20 lpToken, uint totalAllocPoint);\n    event PoolSet(uint pid, uint allocPoint);\n\n    event WeightUpdated(uint weight, uint totalWeight);\n    event RewardsUpdated(uint dailySoul, uint soulPerSecond);\n    event StartRateUpdated(uint startRate);\n\n    event AccountsUpdated(address dao, address team, address admin);\n    event TokensUpdated(address soul, address seance);\n    event DepositRevised(uint _pid, address _user, uint _time);\n\n    // validates: pool exists\n    modifier validatePoolByPid(uint pid) {\n        require(pid < poolInfo.length, 'pool does not exist');\n        _;\n    }\n\n    // channels the power of the isis and ma'at to the deployer (deployer)\n    constructor() {\n        supreme = 0x81Dd37687c74Df8F957a370A9A4435D873F5e5A9;    // multi-sig safe\n        team = 0x36d0164e87B58427c4153c089aeDDa8Ec0B80B9D;      // team wallet\n        dao = 0x1C63C726926197BD3CB75d86bCFB1DaeBcD87250;      // dao treasury (multi-sig)\n\n        isis = keccak256(\"isis\"); // goddess of magic who creates pools\n        maat = keccak256(\"maat\"); // goddess of cosmic order who allocates emissions\n\n        _divinationCeremony(DEFAULT_ADMIN_ROLE, DEFAULT_ADMIN_ROLE, supreme);\n        _divinationCeremony(isis, isis, supreme); // isis role created -- supreme divined admin\n        _divinationCeremony(maat, isis, dao); // maat role created -- isis divined admin\n    } \n\n    function _divinationCeremony(bytes32 _role, bytes32 _adminRole, address _account) \n        internal returns (bool) {\n            _setupRole(_role, _account);\n            _setRoleAdmin(_role, _adminRole);\n        return true;\n    }\n\n    // validate: pool uniqueness to eliminate duplication risk (internal view)\n    function checkPoolDuplicate(IERC20 _token) internal view {\n        uint length = poolInfo.length;\n\n        for (uint pid = 0; pid < length; ++pid) {\n            require(poolInfo[pid].lpToken != _token, 'duplicated pool');\n        }\n    }\n\n    // activates: rewards (owner)\n    function initialize() external obey(isis) {\n        require(!isInitialized, 'already initialized');\n\n        soulAddress = 0xe2fb177009FF39F52C0134E8007FA0e4BaAcBd07;\n        seanceAddress = 0x124B06C5ce47De7A6e9EFDA71a946717130079E6;\n\n        // [required]: update global constants\n        startTime = block.timestamp;\n        totalWeight = 1000;\n        weight = 1000;\n        startRate = enWei(14);\n        uint allocPoint = 1000;\n        soul  = SoulPower(soulAddress);\n        seance = SeanceCircle(seanceAddress);\n\n        // updates: dailySoul and soulPerSecond\n        updateRewards(weight, totalWeight); \n\n        // adds: staking pool\n        poolInfo.push(Pools({\n            lpToken: soul,\n            allocPoint: allocPoint,\n            lastRewardTime: startTime,\n            accSoulPerShare: 0\n        }));\n\n        isInitialized = true;           // triggers: initialize state\n        totalAllocPoint += allocPoint; // kickstarts: total allocation\n\n        emit Initialized(team, dao, soulAddress, seanceAddress, totalAllocPoint, weight);\n    }\n\n    // returns: amount of pools\n    function poolLength() external view returns (uint) { return poolInfo.length; }\n\n    // add: new pool (isis)\n    function addPool(uint _allocPoint, IERC20 _lpToken, bool _withUpdate) \n        public isSummoned obey(isis) { // isis: the soul summoning goddess whose power transcends them all\n            checkPoolDuplicate(_lpToken);\n            _addPool(_allocPoint, _lpToken, _withUpdate);\n    }\n\n    // add: new pool (internal)\n    function _addPool(uint _allocPoint, IERC20 _lpToken, bool _withUpdate) internal {\n        if (_withUpdate) { massUpdatePools(); }\n\n        totalAllocPoint += _allocPoint;\n        \n        poolInfo.push(\n        Pools({\n            lpToken: _lpToken,\n            allocPoint: _allocPoint,\n            lastRewardTime: block.timestamp > startTime ? block.timestamp : startTime,\n            accSoulPerShare: 0\n        }));\n        \n        updateStakingPool();\n        uint pid = poolInfo.length;\n\n        emit PoolAdded(pid, _allocPoint, _lpToken, totalAllocPoint);\n    }\n\n    // set: allocation points (maat)\n    function set(uint pid, uint allocPoint, bool withUpdate) \n        external isSummoned validatePoolByPid(pid) obey(maat) {\n            if (withUpdate) { massUpdatePools(); } // updates all pools\n            \n            uint prevAllocPoint = poolInfo[pid].allocPoint;\n            poolInfo[pid].allocPoint = allocPoint;\n            \n            if (prevAllocPoint != allocPoint) {\n                totalAllocPoint = totalAllocPoint - prevAllocPoint + allocPoint;\n                \n                updateStakingPool(); // updates only selected pool\n        }\n\n        emit PoolSet(pid, allocPoint);\n    }\n\n    // set: migrator contract (isis)\n    function setMigrator(IMigrator _migrator) external isSummoned obey(isis) {\n        migrator = _migrator;\n    }\n\n    // view: user delta\n\tfunction userDelta(uint256 _pid, address _user) public view returns (uint256 delta) {\n        Users memory user = userInfo[_pid][_user];\n\n        return user.lastWithdrawTime > 0\n            ? block.timestamp - user.lastWithdrawTime\n            : block.timestamp - user.firstDepositTime;\n\t}\n\n    // migrate: lp tokens to another contract (migrator)\n    function migrate(uint pid) external isSummoned validatePoolByPid(pid) {\n        require(address(migrator) != address(0), 'no migrator set');\n        Pools storage pool = poolInfo[pid];\n        IERC20 lpToken = pool.lpToken;\n\n        uint bal = lpToken.balanceOf(address(this));\n        lpToken.approve(address(migrator), bal);\n        IERC20 _lpToken = migrator.migrate(lpToken);\n        \n        require(bal == _lpToken.balanceOf(address(this)), \"migrate: insufficient balance\");\n        pool.lpToken = _lpToken;\n    }\n\n    // view: bonus multiplier (public view)\n    function getMultiplier(uint from, uint to) public view returns (uint) {\n        return (to - from) * bonusMultiplier; // todo: minus parens\n    }\n\n    // returns: decay rate for a pid (public view)\n    function getFeeRate(uint pid, uint timeDelta) public view returns (uint feeRate) {\n        uint daysPassed = timeDelta < 1 days ? 0 : timeDelta / 1 days;\n        uint rateDecayed = enWei(daysPassed);\n        uint _rate = rateDecayed >= startRate ? 0 : startRate - rateDecayed;\n        \n        // returns 0 for SAS\n        return pid == 0 ? 0 : _rate;\n    }\n\n    // returns: feeAmount and with withdrawableAmount for a given pid and amount\n    function getWithdrawable(uint pid, uint timeDelta, uint amount) public view returns (uint _feeAmount, uint _withdrawable) {\n        uint feeRate = fromWei(getFeeRate(pid, timeDelta));\n        uint feeAmount = (amount * feeRate) / 100;\n        uint withdrawable = amount - feeAmount;\n\n        return (feeAmount, withdrawable);\n    }\n\n    // view: pending soul rewards (external)\n    function pendingSoul(uint pid, address _user) external view returns (uint pendingAmount) {\n        Pools storage pool = poolInfo[pid];\n        Users storage user = userInfo[pid][_user];\n\n        uint accSoulPerShare = pool.accSoulPerShare;\n        uint lpSupply = pool.lpToken.balanceOf(address(this));\n\n        if (block.timestamp > pool.lastRewardTime && lpSupply != 0) {\n            uint multiplier = getMultiplier(pool.lastRewardTime, block.timestamp);\n            uint soulReward = multiplier * soulPerSecond * pool.allocPoint / totalAllocPoint;\n            accSoulPerShare = accSoulPerShare + soulReward * 1e12 / lpSupply;\n        }\n\n        return user.amount * accSoulPerShare / 1e12 - user.rewardDebt;\n    }\n\n    // update: rewards for all pools (public)\n    function massUpdatePools() public {\n        uint length = poolInfo.length;\n        for (uint pid = 0; pid < length; ++pid) { updatePool(pid); }\n    }\n\n    // update: rewards for a given pool id (public)\n    function updatePool(uint pid) public validatePoolByPid(pid) {\n        Pools storage pool = poolInfo[pid];\n\n        if (block.timestamp <= pool.lastRewardTime) { return; }\n        uint lpSupply = pool.lpToken.balanceOf(address(this));\n\n        if (lpSupply == 0) { pool.lastRewardTime = block.timestamp; return; } // first staker in pool\n\n        uint multiplier = getMultiplier(pool.lastRewardTime, block.timestamp);\n        uint soulReward = multiplier * soulPerSecond * pool.allocPoint / totalAllocPoint;\n        \n        uint divi = soulReward * 1e12 / 8e12;   // 12.5% rewards\n        uint divis = divi * 2;                  // total divis\n        uint shares = soulReward - divis;       // net shares\n        \n        soul.mint(team, divi);\n        soul.mint(dao, divi);\n        soul.mint(address(seance), shares);\n\n        pool.accSoulPerShare = pool.accSoulPerShare + (soulReward * 1e12 / lpSupply);\n        pool.lastRewardTime = block.timestamp;\n    }\n\n    // deposit: lp tokens (lp owner)\n    function deposit(uint pid, uint amount) external nonReentrant validatePoolByPid(pid) whenNotPaused {\n        require (pid != 0, 'deposit SOUL by staking');\n\n        Pools storage pool = poolInfo[pid];\n        Users storage user = userInfo[pid][msg.sender];\n        updatePool(pid);\n\n        if (user.amount > 0) { // already deposited assets\n            uint pending = (user.amount * pool.accSoulPerShare) / 1e12 - user.rewardDebt;\n            if(pending > 0) { // sends pending rewards, if applicable\n                safeSoulTransfer(msg.sender, pending);\n            }\n        }\n\n        if (amount > 0) { // if adding more\n            pool.lpToken.transferFrom(address(msg.sender), address(this), amount);\n            user.amount += amount;\n        }\n\n        user.rewardDebt = user.amount * pool.accSoulPerShare / 1e12;\n\n        // marks timestamp for first deposit\n        user.firstDepositTime = \n            user.firstDepositTime > 0 \n                ? user.firstDepositTime\n                : block.timestamp;\n\n        emit Deposit(msg.sender, pid, amount);\n    }\n\n    // withdraw: lp tokens (external farmers)\n    function withdraw(uint pid, uint amount) external nonReentrant validatePoolByPid(pid) {\n        require (pid != 0, 'withdraw SOUL by unstaking');\n        Pools storage pool = poolInfo[pid];\n        Users storage user = userInfo[pid][msg.sender];\n\n        require(user.amount >= amount, 'withdraw not good');\n        updatePool(pid);\n\n        uint pending = user.amount * pool.accSoulPerShare / 1e12 - user.rewardDebt;\n\n        if(pending > 0) { safeSoulTransfer(msg.sender, pending); }\n\n        if(amount > 0) {\n            if(user.lastDepositTime > 0){\n\t\t\t\tuser.timeDelta = block.timestamp - user.lastDepositTime; }\n\t\t\telse { user.timeDelta = block.timestamp - user.firstDepositTime; }\n            \n            user.amount = user.amount - amount;\n            \n        }\n        \n        uint timeDelta = userInfo[pid][msg.sender].timeDelta;\n        (, uint withdrawable) = getWithdrawable(pid, timeDelta, amount); // removes feeAmount from amount\n        uint feeAmount = amount - withdrawable;\n\n        pool.lpToken.transfer(address(dao), feeAmount);\n        pool.lpToken.transfer(address(msg.sender), withdrawable);\n\n        user.rewardDebt = user.amount * pool.accSoulPerShare / 1e12;\n        user.lastWithdrawTime = block.timestamp;\n\n        emit Withdraw(msg.sender, pid, amount, block.timestamp);\n    }\n\n    // stake: soul into summoner (external)\n    function enterStaking(uint amount) external nonReentrant whenNotPaused {\n        Pools storage pool = poolInfo[0];\n        Users storage user = userInfo[0][msg.sender];\n        updatePool(0);\n\n        if (user.amount > 0) {\n            uint pending = user.amount * pool.accSoulPerShare / 1e12 - user.rewardDebt;\n            if(pending > 0) {\n                safeSoulTransfer(msg.sender, pending);\n            }\n        } \n        \n        if(amount > 0) {\n            pool.lpToken.transferFrom(address(msg.sender), address(this), amount);\n            user.amount = user.amount + amount;\n        }\n\n        // marks timestamp for first deposit\n        user.firstDepositTime = \n            user.firstDepositTime > 0 \n                ? user.firstDepositTime\n                : block.timestamp;\n\n        user.rewardDebt = user.amount * pool.accSoulPerShare / 1e12;\n\n        seance.mint(msg.sender, amount);\n        emit Deposit(msg.sender, 0, amount);\n    }\n\n    // unstake: your soul (external staker)\n    function leaveStaking(uint amount) external nonReentrant {\n        Pools storage pool = poolInfo[0];\n        Users storage user = userInfo[0][msg.sender];\n\n        require(user.amount >= amount, \"withdraw: not good\");\n        updatePool(0);\n\n        uint pending = user.amount * pool.accSoulPerShare / 1e12 - user.rewardDebt;\n\n        if(pending > 0) {\n            safeSoulTransfer(msg.sender, pending);\n        }\n\n        if(amount > 0) {\n            user.amount = user.amount - amount;\n            pool.lpToken.transfer(address(msg.sender), amount);\n        }\n\n        user.rewardDebt = user.amount * pool.accSoulPerShare / 1e12;\n        user.lastWithdrawTime = block.timestamp;\n        \n        seance.burn(msg.sender, amount);\n        emit Withdraw(msg.sender, 0, amount, block.timestamp);\n    }\n    \n    // transfer: seance (internal)\n    function safeSoulTransfer(address account, uint amount) internal {\n        seance.safeSoulTransfer(account, amount);\n    }\n\n    // ** UPDATE FUNCTIONS ** // \n\n    // update: weight (maat)\n    function updateWeights(uint _weight, uint _totalWeight) external obey(maat) {\n        require(weight != _weight || totalWeight != _totalWeight, 'must be at least one new value');\n        require(_totalWeight >= _weight, 'weight cannot exceed totalWeight');\n\n        weight = _weight;     \n        totalWeight = _totalWeight;\n\n        updateRewards(weight, totalWeight);\n\n        emit WeightUpdated(weight, totalWeight);\n    }\n\n    // update: staking pool (internal)\n    function updateStakingPool() internal {\n        uint length = poolInfo.length;\n        uint points;\n        \n        for (uint pid = 1; pid < length; ++pid) { \n            points = points + poolInfo[pid].allocPoint; \n        }\n\n        if (points != 0) {\n            points = points / 3;\n            totalAllocPoint = totalAllocPoint - poolInfo[0].allocPoint + points;\n            poolInfo[0].allocPoint = points;\n        }\n    }\n\n    // update: multiplier (maat)\n    function updateMultiplier(uint _bonusMultiplier) external obey(maat) {\n        bonusMultiplier = _bonusMultiplier;\n    }\n\n    // update: rewards (internal)\n    function updateRewards(uint _weight, uint _totalWeight) internal {\n        uint share = enWei(_weight) / _totalWeight; // share of ttl emissions for chain (chain % ttl emissions)\n        \n        dailySoul = share * (250_000); // dailySoul (for this.chain) = share (%) x 250K (soul emissions constant)\n        soulPerSecond = dailySoul / 1 days; // updates: daily rewards expressed in seconds (1 days = 86,400 secs)\n\n        emit RewardsUpdated(dailySoul, soulPerSecond);\n    }\n\n    // update: startRate (maat)\n    function updateStartRate(uint _startRate) public obey(maat) {\n        require(startRate != enWei(_startRate));\n        startRate = enWei(_startRate);\n        \n        emit StartRateUpdated(startRate);\n    }\n\n    // update accounts: dao, team, and supreme addresses (isis)\n    function updateAccounts(address _dao, address _team, address _supreme) external obey(isis) {\n        require(dao != _dao || team != _team || supreme != _supreme, 'must be a new account');\n\n        dao = _dao;\n        team = _team;\n        supreme = _supreme;\n\n        emit AccountsUpdated(dao, team, supreme);\n    }\n\n    // update tokens: soul and seance addresses (isis)\n    function updateTokens(address _soul, address _seance) external obey(isis) {\n        require(soul != IERC20(_soul) || seance != IERC20(_seance), 'must be a new token address');\n\n        soul = SoulPower(_soul);\n        seance = SeanceCircle(_seance);\n\n        emit TokensUpdated(_soul, _seance);\n    }\n\n    // manual override to reassign the first deposit time for a given (pid, account)\n    function reviseDeposit(uint _pid, address _user, uint256 _time) public obey(maat) {\n        Users storage user = userInfo[_pid][_user];\n        user.firstDepositTime = _time;\n\n        emit DepositRevised(_pid, _user, _time);\n\t}\n\n    // ** HELPER FUNCTIONS ** // \n\n    // helper functions to convert to wei and 1/100th\n    function enWei(uint amount) public pure returns (uint) {  return amount * 1e18; }\n    function fromWei(uint amount) public pure returns (uint) { return amount / 1e18; }\n}\n",
  "sourcePath": "/Users/buns/Documents/GitHub/SoulSwapFinance/soulswap-farms/contracts/rewards/SoulSummonerFantom.sol",
  "compiler": {
    "name": "solc",
    "version": "0.8.0+commit.c7dfd78e.Emscripten.clang"
  },
  "schemaVersion": "3.4.1",
  "updatedAt": "2022-09-19T21:23:15.623Z",
  "devdoc": {
    "kind": "dev",
    "methods": {
      "getRoleAdmin(bytes32)": {
        "details": "Returns the admin role that controls `role`. See {grantRole} and {revokeRole}. To change a role's admin, use {_setRoleAdmin}."
      },
      "grantRole(bytes32,address)": {
        "details": "Grants `role` to `account`. If `account` had not been already granted `role`, emits a {RoleGranted} event. Requirements: - the caller must have ``role``'s admin role."
      },
      "hasRole(bytes32,address)": {
        "details": "Returns `true` if `account` has been granted `role`."
      },
      "paused()": {
        "details": "Returns true if the contract is paused, and false otherwise."
      },
      "renounceRole(bytes32,address)": {
        "details": "Revokes `role` from the calling account. Roles are often managed via {grantRole} and {revokeRole}: this function's purpose is to provide a mechanism for accounts to lose their privileges if they are compromised (such as when a trusted device is misplaced). If the calling account had been granted `role`, emits a {RoleRevoked} event. Requirements: - the caller must be `account`."
      },
      "revokeRole(bytes32,address)": {
        "details": "Revokes `role` from `account`. If `account` had been granted `role`, emits a {RoleRevoked} event. Requirements: - the caller must have ``role``'s admin role."
      },
      "supportsInterface(bytes4)": {
        "details": "See {IERC165-supportsInterface}."
      }
    },
    "version": 1
  },
  "userdoc": {
    "kind": "user",
    "methods": {},
    "version": 1
  }
}