{
  "contractName": "SoulScarab",
  "abi": [
    {
      "anonymous": false,
      "inputs": [
        {
          "indexed": false,
          "internalType": "address",
          "name": "recipient",
          "type": "address"
        },
        {
          "indexed": false,
          "internalType": "uint256",
          "name": "amount",
          "type": "uint256"
        }
      ],
      "name": "Repossesed",
      "type": "event"
    },
    {
      "anonymous": false,
      "inputs": [
        {
          "indexed": false,
          "internalType": "address",
          "name": "recipient",
          "type": "address"
        },
        {
          "indexed": false,
          "internalType": "uint256",
          "name": "amount",
          "type": "uint256"
        }
      ],
      "name": "Saved",
      "type": "event"
    },
    {
      "anonymous": false,
      "inputs": [
        {
          "indexed": false,
          "internalType": "uint256",
          "name": "amount",
          "type": "uint256"
        },
        {
          "indexed": false,
          "internalType": "uint256",
          "name": "id",
          "type": "uint256"
        }
      ],
      "name": "ScarabSummoned",
      "type": "event"
    },
    {
      "anonymous": false,
      "inputs": [
        {
          "indexed": false,
          "internalType": "address",
          "name": "recipient",
          "type": "address"
        },
        {
          "indexed": false,
          "internalType": "uint256",
          "name": "amount",
          "type": "uint256"
        }
      ],
      "name": "Withdraw",
      "type": "event"
    },
    {
      "inputs": [
        {
          "internalType": "address",
          "name": "",
          "type": "address"
        },
        {
          "internalType": "uint256",
          "name": "",
          "type": "uint256"
        }
      ],
      "name": "depositsByRecipient",
      "outputs": [
        {
          "internalType": "uint256",
          "name": "",
          "type": "uint256"
        }
      ],
      "stateMutability": "view",
      "type": "function"
    },
    {
      "inputs": [],
      "name": "depositsCount",
      "outputs": [
        {
          "internalType": "uint256",
          "name": "",
          "type": "uint256"
        }
      ],
      "stateMutability": "view",
      "type": "function"
    },
    {
      "inputs": [],
      "name": "outcaster",
      "outputs": [
        {
          "internalType": "contract Outcaster",
          "name": "",
          "type": "address"
        }
      ],
      "stateMutability": "view",
      "type": "function"
    },
    {
      "inputs": [
        {
          "internalType": "uint256",
          "name": "",
          "type": "uint256"
        }
      ],
      "name": "scarabs",
      "outputs": [
        {
          "internalType": "contract IERC20",
          "name": "token",
          "type": "address"
        },
        {
          "internalType": "address",
          "name": "recipient",
          "type": "address"
        },
        {
          "internalType": "uint256",
          "name": "amount",
          "type": "uint256"
        },
        {
          "internalType": "uint256",
          "name": "tribute",
          "type": "uint256"
        },
        {
          "internalType": "uint256",
          "name": "unlockTimestamp",
          "type": "uint256"
        },
        {
          "internalType": "bool",
          "name": "withdrawn",
          "type": "bool"
        }
      ],
      "stateMutability": "view",
      "type": "function"
    },
    {
      "inputs": [],
      "name": "seance",
      "outputs": [
        {
          "internalType": "contract SeanceCircle",
          "name": "",
          "type": "address"
        }
      ],
      "stateMutability": "view",
      "type": "function"
    },
    {
      "inputs": [],
      "name": "soul",
      "outputs": [
        {
          "internalType": "contract SoulPower",
          "name": "",
          "type": "address"
        }
      ],
      "stateMutability": "view",
      "type": "function"
    },
    {
      "inputs": [],
      "name": "tributeRate",
      "outputs": [
        {
          "internalType": "uint256",
          "name": "",
          "type": "uint256"
        }
      ],
      "stateMutability": "view",
      "type": "function"
    },
    {
      "inputs": [
        {
          "internalType": "address",
          "name": "",
          "type": "address"
        }
      ],
      "name": "walletBalance",
      "outputs": [
        {
          "internalType": "uint256",
          "name": "",
          "type": "uint256"
        }
      ],
      "stateMutability": "view",
      "type": "function"
    },
    {
      "inputs": [
        {
          "internalType": "address",
          "name": "",
          "type": "address"
        },
        {
          "internalType": "address",
          "name": "",
          "type": "address"
        }
      ],
      "name": "walletTokenBalance",
      "outputs": [
        {
          "internalType": "uint256",
          "name": "",
          "type": "uint256"
        }
      ],
      "stateMutability": "view",
      "type": "function"
    },
    {
      "inputs": [
        {
          "internalType": "address",
          "name": "_recipient",
          "type": "address"
        },
        {
          "internalType": "uint256",
          "name": "_amount",
          "type": "uint256"
        },
        {
          "internalType": "uint256",
          "name": "_unlockTimestamp",
          "type": "uint256"
        }
      ],
      "name": "lockSouls",
      "outputs": [
        {
          "internalType": "uint256",
          "name": "id",
          "type": "uint256"
        }
      ],
      "stateMutability": "nonpayable",
      "type": "function"
    },
    {
      "inputs": [
        {
          "internalType": "uint256",
          "name": "id",
          "type": "uint256"
        }
      ],
      "name": "withdrawTokens",
      "outputs": [],
      "stateMutability": "nonpayable",
      "type": "function"
    },
    {
      "inputs": [
        {
          "internalType": "uint256",
          "name": "id",
          "type": "uint256"
        }
      ],
      "name": "claimUnclaimed",
      "outputs": [],
      "stateMutability": "nonpayable",
      "type": "function"
    },
    {
      "inputs": [
        {
          "internalType": "uint256",
          "name": "id",
          "type": "uint256"
        }
      ],
      "name": "savingGrace",
      "outputs": [],
      "stateMutability": "nonpayable",
      "type": "function"
    },
    {
      "inputs": [
        {
          "internalType": "uint256",
          "name": "count",
          "type": "uint256"
        }
      ],
      "name": "claimScarabs",
      "outputs": [],
      "stateMutability": "nonpayable",
      "type": "function"
    },
    {
      "inputs": [
        {
          "internalType": "uint256",
          "name": "amount",
          "type": "uint256"
        }
      ],
      "name": "getTribute",
      "outputs": [
        {
          "internalType": "uint256",
          "name": "fee",
          "type": "uint256"
        }
      ],
      "stateMutability": "view",
      "type": "function"
    },
    {
      "inputs": [
        {
          "internalType": "address",
          "name": "_token",
          "type": "address"
        }
      ],
      "name": "getDepositsByTokenAddress",
      "outputs": [
        {
          "internalType": "uint256[]",
          "name": "",
          "type": "uint256[]"
        }
      ],
      "stateMutability": "view",
      "type": "function"
    },
    {
      "inputs": [
        {
          "internalType": "address",
          "name": "_recipient",
          "type": "address"
        }
      ],
      "name": "getDepositsByRecipient",
      "outputs": [
        {
          "internalType": "uint256[]",
          "name": "",
          "type": "uint256[]"
        }
      ],
      "stateMutability": "view",
      "type": "function"
    },
    {
      "inputs": [],
      "name": "getScarabs",
      "outputs": [
        {
          "internalType": "uint256[]",
          "name": "",
          "type": "uint256[]"
        }
      ],
      "stateMutability": "view",
      "type": "function"
    },
    {
      "inputs": [],
      "name": "getTotalLockedBalance",
      "outputs": [
        {
          "internalType": "uint256",
          "name": "",
          "type": "uint256"
        }
      ],
      "stateMutability": "view",
      "type": "function"
    },
    {
      "inputs": [
        {
          "internalType": "uint256",
          "name": "amount",
          "type": "uint256"
        }
      ],
      "name": "enWei",
      "outputs": [
        {
          "internalType": "uint256",
          "name": "",
          "type": "uint256"
        }
      ],
      "stateMutability": "pure",
      "type": "function"
    },
    {
      "inputs": [
        {
          "internalType": "uint256",
          "name": "amount",
          "type": "uint256"
        }
      ],
      "name": "fromWei",
      "outputs": [
        {
          "internalType": "uint256",
          "name": "",
          "type": "uint256"
        }
      ],
      "stateMutability": "pure",
      "type": "function"
    }
  ],
  "bytecode": "0x60e060405273124b06c5ce47de7a6e9efda71a946717130079e673ffffffffffffffffffffffffffffffffffffffff1660809073ffffffffffffffffffffffffffffffffffffffff1660601b81525073e2fb177009ff39f52c0134e8007fa0e4baacbd0773ffffffffffffffffffffffffffffffffffffffff1660a09073ffffffffffffffffffffffffffffffffffffffff1660601b81525073ce530f22d82a2437f2fb4b43df0e1e4fd446f0ff73ffffffffffffffffffffffffffffffffffffffff1660c09073ffffffffffffffffffffffffffffffffffffffff1660601b815250600a6006553480156100f357600080fd5b5060805160601c60a05160601c60c05160601c612f756101d4600039600081816104650152818161097c015281816119640152611ed90152600081816107fb01528181610a0701528181610cdb01528181610dc901528181610e7401528181610f2601528181611047015281816110ee015281816111a0015281816113540152818161147e015281816117e3015281816119ef01528181611d5801528181611f6401526121c3015260008181610681015281816108cc01528181610bad0152818161165d015281816118b401528181611bd20152611e290152612f756000f3fe608060405234801561001057600080fd5b50600436106101375760003560e01c806386f65a22116100b8578063cf616f401161007c578063cf616f4014610379578063cf94ee9614610397578063cf9cd8f8146103c7578063d5c25890146103f7578063e0c6768a14610415578063e65d15221461043357610137565b806386f65a22146102c5578063958d17f2146102f5578063a117735614610311578063b9e7df1c1461032d578063c42f79ab1461035d57610137565b80634ca01d45116100ff5780634ca01d45146101f95780636703063714610217578063671070fa146102475780636f8dfd0914610277578063815b7a8c146102a757610137565b8063072824fe1461013c578063077891f91461015a578063315a095d1461018a5780633cd2e4ec146101a65780634506e935146101db575b600080fd5b610144610463565b6040516101519190612a27565b60405180910390f35b610174600480360381019061016f9190612375565b610487565b60405161018191906129a4565b60405180910390f35b6101a4600480360381019061019f919061248e565b61051e565b005b6101c060048036038101906101bb919061248e565b610b1c565b6040516101d2969594939291906129c6565b60405180910390f35b6101e3610ba5565b6040516101f09190612bd8565b60405180910390f35b610201610bab565b60405161020e9190612a42565b60405180910390f35b610231600480360381019061022c91906123da565b610bcf565b60405161023e9190612bd8565b60405180910390f35b610261600480360381019061025c9190612416565b610c00565b60405161026e9190612bd8565b60405180910390f35b610291600480360381019061028c919061248e565b611417565b60405161029e9190612bd8565b60405180910390f35b6102af61147c565b6040516102bc9190612a5d565b60405180910390f35b6102df60048036038101906102da9190612375565b6114a0565b6040516102ec91906129a4565b60405180910390f35b61030f600480360381019061030a919061248e565b611537565b005b61032b6004803603810190610326919061248e565b611b05565b005b6103476004803603810190610342919061239e565b61207a565b6040516103549190612bd8565b60405180910390f35b6103776004803603810190610372919061248e565b61209f565b005b610381612184565b60405161038e9190612bd8565b60405180910390f35b6103b160048036038101906103ac919061248e565b61218a565b6040516103be9190612bd8565b60405180910390f35b6103e160048036038101906103dc9190612375565b6121a7565b6040516103ee9190612bd8565b60405180910390f35b6103ff6121bf565b60405161040c9190612bd8565b60405180910390f35b61041d61226f565b60405161042a91906129a4565b60405180910390f35b61044d6004803603810190610448919061248e565b612304565b60405161045a9190612bd8565b60405180910390f35b7f000000000000000000000000000000000000000000000000000000000000000081565b6060600160008373ffffffffffffffffffffffffffffffffffffffff1673ffffffffffffffffffffffffffffffffffffffff16815260200190815260200160002080548060200260200160405190810160405280929190818152602001828054801561051257602002820191906000526020600020905b8154815260200190600101908083116104fe575b50505050509050919050565b6003600082815260200190815260200160002060040154421015610577576040517f08c379a000000000000000000000000000000000000000000000000000000000815260040161056e90612a98565b60405180910390fd5b6003600082815260200190815260200160002060010160009054906101000a900473ffffffffffffffffffffffffffffffffffffffff1673ffffffffffffffffffffffffffffffffffffffff163373ffffffffffffffffffffffffffffffffffffffff161461061b576040517f08c379a000000000000000000000000000000000000000000000000000000000815260040161061290612b58565b60405180910390fd5b6003600082815260200190815260200160002060050160009054906101000a900460ff161561067f576040517f08c379a000000000000000000000000000000000000000000000000000000000815260040161067690612ad8565b60405180910390fd5b7f000000000000000000000000000000000000000000000000000000000000000073ffffffffffffffffffffffffffffffffffffffff1663095ea7b33060036000858152602001908152602001600020600201546040518363ffffffff1660e01b81526004016106f092919061297b565b602060405180830381600087803b15801561070a57600080fd5b505af115801561071e573d6000803e3d6000fd5b505050506040513d601f19601f820116820180604052508101906107429190612465565b5060016003600083815260200190815260200160002060050160006101000a81548160ff0219169083151502179055506003600082815260200190815260200160002060020154600460003373ffffffffffffffffffffffffffffffffffffffff1673ffffffffffffffffffffffffffffffffffffffff16815260200190815260200160002060008282546107d79190612d47565b925050819055506003600082815260200190815260200160002060020154600560007f000000000000000000000000000000000000000000000000000000000000000073ffffffffffffffffffffffffffffffffffffffff1673ffffffffffffffffffffffffffffffffffffffff16815260200190815260200160002060003373ffffffffffffffffffffffffffffffffffffffff1673ffffffffffffffffffffffffffffffffffffffff16815260200190815260200160002060008282546108a09190612d47565b9250508190555060006108c86003600084815260200190815260200160002060020154611417565b90507f000000000000000000000000000000000000000000000000000000000000000073ffffffffffffffffffffffffffffffffffffffff166323b872dd3330846040518463ffffffff1660e01b815260040161092793929190612944565b602060405180830381600087803b15801561094157600080fd5b505af1158015610955573d6000803e3d6000fd5b505050506040513d601f19601f820116820180604052508101906109799190612465565b507f000000000000000000000000000000000000000000000000000000000000000073ffffffffffffffffffffffffffffffffffffffff16633595fb76826040518263ffffffff1660e01b81526004016109d39190612bd8565b600060405180830381600087803b1580156109ed57600080fd5b505af1158015610a01573d6000803e3d6000fd5b505050507f000000000000000000000000000000000000000000000000000000000000000073ffffffffffffffffffffffffffffffffffffffff1663a9059cbb3360036000868152602001908152602001600020600201546040518363ffffffff1660e01b8152600401610a7692919061297b565b602060405180830381600087803b158015610a9057600080fd5b505af1158015610aa4573d6000803e3d6000fd5b505050506040513d601f19601f82011682018060405250810190610ac89190612465565b507f884edad9ce6fa2440d8a54cc123490eb96d2768479d49ff9c7366125a9424364336003600085815260200190815260200160002060020154604051610b1092919061297b565b60405180910390a15050565b60036020528060005260406000206000915090508060000160009054906101000a900473ffffffffffffffffffffffffffffffffffffffff16908060010160009054906101000a900473ffffffffffffffffffffffffffffffffffffffff16908060020154908060030154908060040154908060050160009054906101000a900460ff16905086565b60005481565b7f000000000000000000000000000000000000000000000000000000000000000081565b60016020528160005260406000208181548110610beb57600080fd5b90600052602060002001600091509150505481565b6000808311610c44576040517f08c379a0000000000000000000000000000000000000000000000000000000008152600401610c3b90612b38565b60405180910390fd5b6301e1338042610c549190612c66565b821115610c96576040517f08c379a0000000000000000000000000000000000000000000000000000000008152600401610c8d90612af8565b60405180910390fd5b428211610cd8576040517f08c379a0000000000000000000000000000000000000000000000000000000008152600401610ccf90612a78565b60405180910390fd5b827f000000000000000000000000000000000000000000000000000000000000000073ffffffffffffffffffffffffffffffffffffffff1663dd62ed3e33306040518363ffffffff1660e01b8152600401610d3492919061291b565b60206040518083038186803b158015610d4c57600080fd5b505afa158015610d60573d6000803e3d6000fd5b505050506040513d601f19601f82011682018060405250810190610d8491906124b7565b1015610dc5576040517f08c379a0000000000000000000000000000000000000000000000000000000008152600401610dbc90612bb8565b60405180910390fd5b60007f000000000000000000000000000000000000000000000000000000000000000073ffffffffffffffffffffffffffffffffffffffff166370a08231306040518263ffffffff1660e01b8152600401610e209190612900565b60206040518083038186803b158015610e3857600080fd5b505afa158015610e4c573d6000803e3d6000fd5b505050506040513d601f19601f82011682018060405250810190610e7091906124b7565b90507f000000000000000000000000000000000000000000000000000000000000000073ffffffffffffffffffffffffffffffffffffffff166323b872dd3330876040518463ffffffff1660e01b8152600401610ecf93929190612944565b602060405180830381600087803b158015610ee957600080fd5b505af1158015610efd573d6000803e3d6000fd5b505050506040513d601f19601f82011682018060405250810190610f219190612465565b5060007f000000000000000000000000000000000000000000000000000000000000000073ffffffffffffffffffffffffffffffffffffffff166370a08231306040518263ffffffff1660e01b8152600401610f7d9190612900565b60206040518083038186803b158015610f9557600080fd5b505afa158015610fa9573d6000803e3d6000fd5b505050506040513d601f19601f82011682018060405250810190610fcd91906124b7565b90508181610fdb9190612d47565b94506000610fe886611417565b905085600460008973ffffffffffffffffffffffffffffffffffffffff1673ffffffffffffffffffffffffffffffffffffffff16815260200190815260200160002060008282546110399190612c66565b9250508190555085600560007f000000000000000000000000000000000000000000000000000000000000000073ffffffffffffffffffffffffffffffffffffffff1673ffffffffffffffffffffffffffffffffffffffff16815260200190815260200160002060008973ffffffffffffffffffffffffffffffffffffffff1673ffffffffffffffffffffffffffffffffffffffff168152602001908152602001600020546110e89190612c66565b600560007f000000000000000000000000000000000000000000000000000000000000000073ffffffffffffffffffffffffffffffffffffffff1673ffffffffffffffffffffffffffffffffffffffff16815260200190815260200160002060008973ffffffffffffffffffffffffffffffffffffffff1673ffffffffffffffffffffffffffffffffffffffff16815260200190815260200160002081905550600080815461119690612e53565b91905081905593507f00000000000000000000000000000000000000000000000000000000000000006003600086815260200190815260200160002060000160006101000a81548173ffffffffffffffffffffffffffffffffffffffff021916908373ffffffffffffffffffffffffffffffffffffffff160217905550866003600086815260200190815260200160002060010160006101000a81548173ffffffffffffffffffffffffffffffffffffffff021916908373ffffffffffffffffffffffffffffffffffffffff16021790555085600360008681526020019081526020016000206002018190555080600360008681526020019081526020016000206003018190555084600360008681526020019081526020016000206004018190555060006003600086815260200190815260200160002060050160006101000a81548160ff021916908315150217905550600160008873ffffffffffffffffffffffffffffffffffffffff1673ffffffffffffffffffffffffffffffffffffffff168152602001908152602001600020849080600181540180825580915050600190039060005260206000200160009091909190915055600260007f000000000000000000000000000000000000000000000000000000000000000073ffffffffffffffffffffffffffffffffffffffff1673ffffffffffffffffffffffffffffffffffffffff1681526020019081526020016000208490806001815401808255809150506001900390600052602060002001600090919091909150557fd17981b1afb7bf9743fe0e201535996fcbbd54c07ce342a74f7a8f1150326ea28685604051611405929190612bf3565b60405180910390a15050509392505050565b600080821161145b576040517f08c379a000000000000000000000000000000000000000000000000000000000815260040161145290612b78565b60405180910390fd5b60646006548361146b9190612ced565b6114759190612cbc565b9050919050565b7f000000000000000000000000000000000000000000000000000000000000000081565b6060600260008373ffffffffffffffffffffffffffffffffffffffff1673ffffffffffffffffffffffffffffffffffffffff16815260200190815260200160002080548060200260200160405190810160405280929190818152602001828054801561152b57602002820191906000526020600020905b815481526020019060010190808311611517575b50505050509050919050565b6003600082815260200190815260200160002060040154421015611590576040517f08c379a000000000000000000000000000000000000000000000000000000000815260040161158790612a98565b60405180910390fd5b6276a70060036000838152602001908152602001600020600401546115b59190612c66565b4211156115f7576040517f08c379a00000000000000000000000000000000000000000000000000000000081526004016115ee90612b98565b60405180910390fd5b6003600082815260200190815260200160002060050160009054906101000a900460ff161561165b576040517f08c379a000000000000000000000000000000000000000000000000000000000815260040161165290612ad8565b60405180910390fd5b7f000000000000000000000000000000000000000000000000000000000000000073ffffffffffffffffffffffffffffffffffffffff1663095ea7b33060036000858152602001908152602001600020600201546040518363ffffffff1660e01b81526004016116cc92919061297b565b602060405180830381600087803b1580156116e657600080fd5b505af11580156116fa573d6000803e3d6000fd5b505050506040513d601f19601f8201168201806040525081019061171e9190612465565b5060006003600083815260200190815260200160002060010160009054906101000a900473ffffffffffffffffffffffffffffffffffffffff1690506003600083815260200190815260200160002060020154600460008373ffffffffffffffffffffffffffffffffffffffff1673ffffffffffffffffffffffffffffffffffffffff16815260200190815260200160002060008282546117bf9190612d47565b925050819055506003600083815260200190815260200160002060020154600560007f000000000000000000000000000000000000000000000000000000000000000073ffffffffffffffffffffffffffffffffffffffff1673ffffffffffffffffffffffffffffffffffffffff16815260200190815260200160002060008373ffffffffffffffffffffffffffffffffffffffff1673ffffffffffffffffffffffffffffffffffffffff16815260200190815260200160002060008282546118889190612d47565b9250508190555060006118b06003600085815260200190815260200160002060020154611417565b90507f000000000000000000000000000000000000000000000000000000000000000073ffffffffffffffffffffffffffffffffffffffff166323b872dd3330846040518463ffffffff1660e01b815260040161190f93929190612944565b602060405180830381600087803b15801561192957600080fd5b505af115801561193d573d6000803e3d6000fd5b505050506040513d601f19601f820116820180604052508101906119619190612465565b507f000000000000000000000000000000000000000000000000000000000000000073ffffffffffffffffffffffffffffffffffffffff16633595fb76826040518263ffffffff1660e01b81526004016119bb9190612bd8565b600060405180830381600087803b1580156119d557600080fd5b505af11580156119e9573d6000803e3d6000fd5b505050507f000000000000000000000000000000000000000000000000000000000000000073ffffffffffffffffffffffffffffffffffffffff1663a9059cbb8360036000878152602001908152602001600020600201546040518363ffffffff1660e01b8152600401611a5e92919061297b565b602060405180830381600087803b158015611a7857600080fd5b505af1158015611a8c573d6000803e3d6000fd5b505050506040513d601f19601f82011682018060405250810190611ab09190612465565b507fed23a82fe3387ce0bc3ec900dee36d8ca8c965f8dc65c02281a59f7e9e69728c826003600086815260200190815260200160002060020154604051611af892919061297b565b60405180910390a1505050565b624f1a006003600083815260200190815260200160002060040154611b2a9190612c66565b421015611b6c576040517f08c379a0000000000000000000000000000000000000000000000000000000008152600401611b6390612ab8565b60405180910390fd5b6003600082815260200190815260200160002060050160009054906101000a900460ff1615611bd0576040517f08c379a0000000000000000000000000000000000000000000000000000000008152600401611bc790612ad8565b60405180910390fd5b7f000000000000000000000000000000000000000000000000000000000000000073ffffffffffffffffffffffffffffffffffffffff1663095ea7b33060036000858152602001908152602001600020600201546040518363ffffffff1660e01b8152600401611c4192919061297b565b602060405180830381600087803b158015611c5b57600080fd5b505af1158015611c6f573d6000803e3d6000fd5b505050506040513d601f19601f82011682018060405250810190611c939190612465565b5060006003600083815260200190815260200160002060010160009054906101000a900473ffffffffffffffffffffffffffffffffffffffff1690506003600083815260200190815260200160002060020154600460008373ffffffffffffffffffffffffffffffffffffffff1673ffffffffffffffffffffffffffffffffffffffff1681526020019081526020016000206000828254611d349190612d47565b925050819055506003600083815260200190815260200160002060020154600560007f000000000000000000000000000000000000000000000000000000000000000073ffffffffffffffffffffffffffffffffffffffff1673ffffffffffffffffffffffffffffffffffffffff16815260200190815260200160002060008373ffffffffffffffffffffffffffffffffffffffff1673ffffffffffffffffffffffffffffffffffffffff1681526020019081526020016000206000828254611dfd9190612d47565b925050819055506000611e256003600085815260200190815260200160002060020154611417565b90507f000000000000000000000000000000000000000000000000000000000000000073ffffffffffffffffffffffffffffffffffffffff166323b872dd3330846040518463ffffffff1660e01b8152600401611e8493929190612944565b602060405180830381600087803b158015611e9e57600080fd5b505af1158015611eb2573d6000803e3d6000fd5b505050506040513d601f19601f82011682018060405250810190611ed69190612465565b507f000000000000000000000000000000000000000000000000000000000000000073ffffffffffffffffffffffffffffffffffffffff16633595fb76826040518263ffffffff1660e01b8152600401611f309190612bd8565b600060405180830381600087803b158015611f4a57600080fd5b505af1158015611f5e573d6000803e3d6000fd5b505050507f000000000000000000000000000000000000000000000000000000000000000073ffffffffffffffffffffffffffffffffffffffff1663a9059cbb3360036000878152602001908152602001600020600201546040518363ffffffff1660e01b8152600401611fd392919061297b565b602060405180830381600087803b158015611fed57600080fd5b505af1158015612001573d6000803e3d6000fd5b505050506040513d601f19601f820116820180604052508101906120259190612465565b507f81253951d7863bb57f42138c51aff2cd8c9e73e303ff9733c96d24d0583d61ac33600360008681526020019081526020016000206002015460405161206d92919061297b565b60405180910390a1505050565b6005602052816000526040600020602052806000526040600020600091509150505481565b60006120a961226f565b905060058211156120ef576040517f08c379a00000000000000000000000000000000000000000000000000000000081526004016120e690612b18565b60405180910390fd5b60005b8281101561217f578281101561215e5761214b82828151811061213e577f4e487b7100000000000000000000000000000000000000000000000000000000600052603260045260246000fd5b602002602001015161051e565b808061215690612e53565b91505061216c565b8281111561216b5761217f565b5b808061217790612e53565b9150506120f2565b505050565b60065481565b6000670de0b6b3a7640000826121a09190612ced565b9050919050565b60046020528060005260406000206000915090505481565b60007f000000000000000000000000000000000000000000000000000000000000000073ffffffffffffffffffffffffffffffffffffffff166370a08231306040518263ffffffff1660e01b815260040161221a9190612900565b60206040518083038186803b15801561223257600080fd5b505afa158015612246573d6000803e3d6000fd5b505050506040513d601f19601f8201168201806040525081019061226a91906124b7565b905090565b6060600160003373ffffffffffffffffffffffffffffffffffffffff1673ffffffffffffffffffffffffffffffffffffffff1681526020019081526020016000208054806020026020016040519081016040528092919081815260200182805480156122fa57602002820191906000526020600020905b8154815260200190600101908083116122e6575b5050505050905090565b6000670de0b6b3a76400008261231a9190612cbc565b9050919050565b60008135905061233081612efa565b92915050565b60008151905061234581612f11565b92915050565b60008135905061235a81612f28565b92915050565b60008151905061236f81612f28565b92915050565b60006020828403121561238757600080fd5b600061239584828501612321565b91505092915050565b600080604083850312156123b157600080fd5b60006123bf85828601612321565b92505060206123d085828601612321565b9150509250929050565b600080604083850312156123ed57600080fd5b60006123fb85828601612321565b925050602061240c8582860161234b565b9150509250929050565b60008060006060848603121561242b57600080fd5b600061243986828701612321565b935050602061244a8682870161234b565b925050604061245b8682870161234b565b9150509250925092565b60006020828403121561247757600080fd5b600061248584828501612336565b91505092915050565b6000602082840312156124a057600080fd5b60006124ae8482850161234b565b91505092915050565b6000602082840312156124c957600080fd5b60006124d784828501612360565b91505092915050565b60006124ec83836128e2565b60208301905092915050565b61250181612d7b565b82525050565b600061251282612c2c565b61251c8185612c44565b935061252783612c1c565b8060005b8381101561255857815161253f88826124e0565b975061254a83612c37565b92505060018101905061252b565b5085935050505092915050565b61256e81612d8d565b82525050565b61257d81612dc3565b82525050565b61258c81612de7565b82525050565b61259b81612e0b565b82525050565b6125aa81612e2f565b82525050565b60006125bd601c83612c55565b91507f556e6c6f636b206973206e6f7420696e20746865206675747572652e000000006000830152602082019050919050565b60006125fd601883612c55565b91507f546f6b656e7320617265207374696c6c206c6f636b65642e00000000000000006000830152602082019050919050565b600061263d602683612c55565b91507f546f6b656e7320617265207374696c6c2077697468696e20636c61696d73207060008301527f6572696f642e00000000000000000000000000000000000000000000000000006020830152604082019050919050565b60006126a3601d83612c55565b91507f546f6b656e732061726520616c72656164792077697468647261776e2e0000006000830152602082019050919050565b60006126e3601f83612c55565b91507f556e6c6f636b206d7573742062652077697468696e206f6e6520796561722e006000830152602082019050919050565b6000612723602a83612c55565b91507f43616e6e6f7420657863656564203520636c61696d7320696e206f6e6520747260008301527f616e73616374696f6e2e000000000000000000000000000000000000000000006020830152604082019050919050565b6000612789601a83612c55565b91507f496e73756666696369656e7420534f554c2062616c616e63652e0000000000006000830152602082019050919050565b60006127c9601a83612c55565b91507f596f7520617265206e6f742074686520726563697069656e742e0000000000006000830152602082019050919050565b6000612809601483612c55565b91507f63616e6e6f742068617665207a65726f206665650000000000000000000000006000830152602082019050919050565b6000612849602a83612c55565b91507f546f6b656e7320617265206e6f206c6f6e6765722077697468696e20636c616960008301527f6d7320706572696f642e000000000000000000000000000000000000000000006020830152604082019050919050565b60006128af601383612c55565b91507f417070726f766520534f554c2066697273742e000000000000000000000000006000830152602082019050919050565b6128eb81612db9565b82525050565b6128fa81612db9565b82525050565b600060208201905061291560008301846124f8565b92915050565b600060408201905061293060008301856124f8565b61293d60208301846124f8565b9392505050565b600060608201905061295960008301866124f8565b61296660208301856124f8565b61297360408301846128f1565b949350505050565b600060408201905061299060008301856124f8565b61299d60208301846128f1565b9392505050565b600060208201905081810360008301526129be8184612507565b905092915050565b600060c0820190506129db6000830189612574565b6129e860208301886124f8565b6129f560408301876128f1565b612a0260608301866128f1565b612a0f60808301856128f1565b612a1c60a0830184612565565b979650505050505050565b6000602082019050612a3c6000830184612583565b92915050565b6000602082019050612a576000830184612592565b92915050565b6000602082019050612a7260008301846125a1565b92915050565b60006020820190508181036000830152612a91816125b0565b9050919050565b60006020820190508181036000830152612ab1816125f0565b9050919050565b60006020820190508181036000830152612ad181612630565b9050919050565b60006020820190508181036000830152612af181612696565b9050919050565b60006020820190508181036000830152612b11816126d6565b9050919050565b60006020820190508181036000830152612b3181612716565b9050919050565b60006020820190508181036000830152612b518161277c565b9050919050565b60006020820190508181036000830152612b71816127bc565b9050919050565b60006020820190508181036000830152612b91816127fc565b9050919050565b60006020820190508181036000830152612bb18161283c565b9050919050565b60006020820190508181036000830152612bd1816128a2565b9050919050565b6000602082019050612bed60008301846128f1565b92915050565b6000604082019050612c0860008301856128f1565b612c1560208301846128f1565b9392505050565b6000819050602082019050919050565b600081519050919050565b6000602082019050919050565b600082825260208201905092915050565b600082825260208201905092915050565b6000612c7182612db9565b9150612c7c83612db9565b9250827fffffffffffffffffffffffffffffffffffffffffffffffffffffffffffffffff03821115612cb157612cb0612e9c565b5b828201905092915050565b6000612cc782612db9565b9150612cd283612db9565b925082612ce257612ce1612ecb565b5b828204905092915050565b6000612cf882612db9565b9150612d0383612db9565b9250817fffffffffffffffffffffffffffffffffffffffffffffffffffffffffffffffff0483118215151615612d3c57612d3b612e9c565b5b828202905092915050565b6000612d5282612db9565b9150612d5d83612db9565b925082821015612d7057612d6f612e9c565b5b828203905092915050565b6000612d8682612d99565b9050919050565b60008115159050919050565b600073ffffffffffffffffffffffffffffffffffffffff82169050919050565b6000819050919050565b6000612dce82612dd5565b9050919050565b6000612de082612d99565b9050919050565b6000612df282612df9565b9050919050565b6000612e0482612d99565b9050919050565b6000612e1682612e1d565b9050919050565b6000612e2882612d99565b9050919050565b6000612e3a82612e41565b9050919050565b6000612e4c82612d99565b9050919050565b6000612e5e82612db9565b91507fffffffffffffffffffffffffffffffffffffffffffffffffffffffffffffffff821415612e9157612e90612e9c565b5b600182019050919050565b7f4e487b7100000000000000000000000000000000000000000000000000000000600052601160045260246000fd5b7f4e487b7100000000000000000000000000000000000000000000000000000000600052601260045260246000fd5b612f0381612d7b565b8114612f0e57600080fd5b50565b612f1a81612d8d565b8114612f2557600080fd5b50565b612f3181612db9565b8114612f3c57600080fd5b5056fea2646970667358221220404a1465e3163bb53377323766ea706b13c4b11bd7fc60c867ee0c7112c8a77764736f6c63430008000033",
  "immutableReferences": {
    "2304": [
      {
        "length": 32,
        "start": 1665
      },
      {
        "length": 32,
        "start": 2252
      },
      {
        "length": 32,
        "start": 2989
      },
      {
        "length": 32,
        "start": 5725
      },
      {
        "length": 32,
        "start": 6324
      },
      {
        "length": 32,
        "start": 7122
      },
      {
        "length": 32,
        "start": 7721
      }
    ],
    "2310": [
      {
        "length": 32,
        "start": 2043
      },
      {
        "length": 32,
        "start": 2567
      },
      {
        "length": 32,
        "start": 3291
      },
      {
        "length": 32,
        "start": 3529
      },
      {
        "length": 32,
        "start": 3700
      },
      {
        "length": 32,
        "start": 3878
      },
      {
        "length": 32,
        "start": 4167
      },
      {
        "length": 32,
        "start": 4334
      },
      {
        "length": 32,
        "start": 4512
      },
      {
        "length": 32,
        "start": 4948
      },
      {
        "length": 32,
        "start": 5246
      },
      {
        "length": 32,
        "start": 6115
      },
      {
        "length": 32,
        "start": 6639
      },
      {
        "length": 32,
        "start": 7512
      },
      {
        "length": 32,
        "start": 8036
      },
      {
        "length": 32,
        "start": 8643
      }
    ],
    "2316": [
      {
        "length": 32,
        "start": 1125
      },
      {
        "length": 32,
        "start": 2428
      },
      {
        "length": 32,
        "start": 6500
      },
      {
        "length": 32,
        "start": 7897
      }
    ]
  },
  "source": "// SPDX-License-Identifier: MIT\npragma solidity ^0.8.0;\n\nimport '../libraries/SafeERC20.sol';\nimport './Outcaster.sol';\n\ncontract SoulScarab {\n\n    SeanceCircle public immutable seance = SeanceCircle(0x124B06C5ce47De7A6e9EFDA71a946717130079E6);\n    SoulPower public immutable soul = SoulPower(0xe2fb177009FF39F52C0134E8007FA0e4BaAcBd07);\n\n    Outcaster public immutable outcaster = Outcaster(0xce530f22d82A2437F2fb4b43Df0e1e4fD446f0ff);\n\n    struct Scarab {\n        IERC20 token;\n        address recipient;\n        uint amount;\n        uint tribute;\n        uint unlockTimestamp;\n        bool withdrawn;\n    }\n    \n    uint public depositsCount;\n    mapping (address => uint[]) public depositsByRecipient;\n    mapping (address => uint[]) private depositsByTokenAddress;\n\n    mapping (uint => Scarab) public scarabs;\n    mapping (address => uint) public walletBalance;\n    mapping (address => mapping(address => uint)) public walletTokenBalance;\n    \n    uint public tributeRate = 10;        // 10%\n    \n    event Withdraw(address recipient, uint amount);\n    event Repossesed(address recipient, uint amount);\n    event Saved(address recipient, uint amount);\n    event ScarabSummoned(uint amount, uint id);\n        \n    function lockSouls(address _recipient, uint _amount, uint _unlockTimestamp) external returns (uint id) {\n        require(_amount > 0, 'Insufficient SOUL balance.');\n        require(_unlockTimestamp <= block.timestamp + 365 days, 'Unlock must be within one year.');\n        require(_unlockTimestamp > block.timestamp, 'Unlock is not in the future.');\n        require(soul.allowance(msg.sender, address(this)) >= _amount, 'Approve SOUL first.');\n\n        // soul balance [before the deposit]\n        uint beforeDeposit = soul.balanceOf(address(this));\n\n        // transfers your soul into a Scarab\n        soul.transferFrom(msg.sender, address(this), _amount);\n\n        // soul balance [after the deposit]\n        uint afterDeposit = soul.balanceOf(address(this));\n        \n        // safety precaution (requires contract recieves SOUL)\n        _amount = afterDeposit - beforeDeposit; \n\n        // calulates tribute amount\n        uint _tribute = getTribute(_amount);\n                \n        walletBalance[_recipient] += _amount;\n        walletTokenBalance[address(soul)][_recipient] = walletTokenBalance[address(soul)][_recipient] + _amount;\n        \n        // create a new id, based off deposit count\n        id = ++depositsCount;\n        scarabs[id].token = soul;\n        scarabs[id].recipient = _recipient;\n        scarabs[id].amount = _amount;\n        scarabs[id].tribute = _tribute;\n        scarabs[id].unlockTimestamp = _unlockTimestamp;\n        scarabs[id].withdrawn = false;\n        \n        depositsByRecipient[_recipient].push(id);\n        depositsByTokenAddress[address(soul)].push(id);\n\n        emit ScarabSummoned(_amount, id);\n        \n        return id;\n    }\n    \n    function withdrawTokens(uint id) public {\n        require(block.timestamp >= scarabs[id].unlockTimestamp, 'Tokens are still locked.');\n        require(msg.sender == scarabs[id].recipient, 'You are not the recipient.');\n        require(!scarabs[id].withdrawn, 'Tokens are already withdrawn.');\n        seance.approve(address(this), scarabs[id].amount);\n        scarabs[id].withdrawn = true;\n        \n        walletBalance[msg.sender] -= scarabs[id].amount;\n        walletTokenBalance[address(soul)][msg.sender] -= scarabs[id].amount;\n\n\n        // [1] acquires tribute amount\n        uint tribute = getTribute(scarabs[id].amount);\n        \n        // [2] burns tribute to enable recipient to claim\n        seance.transferFrom(msg.sender, address(this), tribute);\n        outcaster.outCast(tribute);\n\n        // [3] transfers soul to the sender\n        soul.transfer(msg.sender, scarabs[id].amount);\n\n        emit Withdraw(msg.sender, scarabs[id].amount);  \n    }\n    \n    function claimUnclaimed(uint id) public {\n        require(block.timestamp >= scarabs[id].unlockTimestamp + 60 days, 'Tokens are still within claims period.');\n        require(!scarabs[id].withdrawn, 'Tokens are already withdrawn.');\n        seance.approve(address(this), scarabs[id].amount);\n\n        address recipient = scarabs[id].recipient;\n        walletBalance[recipient] -= scarabs[id].amount;\n        walletTokenBalance[address(soul)][recipient] -= scarabs[id].amount;\n\n        // [1] acquires tribute amount\n        uint tribute = getTribute(scarabs[id].amount);\n        \n        // [2] burns tribute to enable you to claim.\n        seance.transferFrom(msg.sender, address(this), tribute);\n        outcaster.outCast(tribute);\n\n        // [3] transfers soul to the sender.\n        soul.transfer(msg.sender, scarabs[id].amount);\n\n        emit Repossesed(msg.sender, scarabs[id].amount);  \n\n    }\n    \n    function savingGrace(uint id) public {\n        require(block.timestamp >= scarabs[id].unlockTimestamp, 'Tokens are still locked.');\n        require(block.timestamp <= scarabs[id].unlockTimestamp + 90 days, 'Tokens are no longer within claims period.');\n        require(!scarabs[id].withdrawn, 'Tokens are already withdrawn.');\n        seance.approve(address(this), scarabs[id].amount);\n\n        address recipient = scarabs[id].recipient;\n        \n        walletBalance[recipient] -= scarabs[id].amount;\n        walletTokenBalance[address(soul)][recipient] -= scarabs[id].amount;\n\n        // [1] acquires tribute amount.\n        uint tribute = getTribute(scarabs[id].amount);\n        \n        // [2] burns tribute to claim for recipient.\n        seance.transferFrom(msg.sender, address(this), tribute);\n        outcaster.outCast(tribute);\n\n        // [3] transfers soul to the recipient\n        soul.transfer(recipient, scarabs[id].amount);\n\n        emit Saved(recipient, scarabs[id].amount);  \n\n    }\n\n    function claimScarabs(uint count) external {\n        uint[] memory myScarabs = getScarabs();\n        require(count <= 5, 'Cannot exceed 5 claims in one transaction.');\n\n        // for loop: withdraws up to 5.\n        for (uint i = 0; i < count; i++) {\n            if (i < count) {\n                withdrawTokens(myScarabs[i]);\n                i ++;\n                // skip to next iteration with continue\n                continue;\n            }\n\n            if (i > count) {\n                // exit loop with break: when amount limit reached\n                break;\n            }\n        }\n    }\n\n    function getTribute(uint amount) public view returns (uint fee) {\n        require(amount > 0, 'cannot have zero fee');\n        return amount * tributeRate / 100;\n    }\n    \n    function getDepositsByTokenAddress(address _token) view external returns (uint[] memory) { return depositsByTokenAddress[_token]; }\n    function getDepositsByRecipient(address _recipient) view external returns (uint[] memory) { return depositsByRecipient[_recipient]; }\n    function getScarabs() view public returns (uint[] memory) { return depositsByRecipient[msg.sender]; }\n    function getTotalLockedBalance() view external returns (uint) { return soul.balanceOf(address(this)); }\n    \n    function enWei(uint amount) public pure returns (uint) { return amount * 1E18; }\n    function fromWei(uint amount) public pure returns (uint) { return amount / 1E18; }\n}",
  "sourcePath": "/Users/buns/Documents/GitHub/SoulSwapFinance/soulswap-farms/contracts/majestic/SoulScarab.sol",
  "compiler": {
    "name": "solc",
    "version": "0.8.0+commit.c7dfd78e.Emscripten.clang"
  },
  "schemaVersion": "3.4.1",
  "updatedAt": "2022-09-19T21:23:15.551Z",
  "devdoc": {
    "kind": "dev",
    "methods": {},
    "version": 1
  },
  "userdoc": {
    "kind": "user",
    "methods": {},
    "version": 1
  }
}