{
  "contractName": "SoulSummonerAvalancheExt",
  "abi": [
    {
      "inputs": [],
      "stateMutability": "nonpayable",
      "type": "constructor"
    },
    {
      "anonymous": false,
      "inputs": [
        {
          "indexed": false,
          "internalType": "address",
          "name": "dao",
          "type": "address"
        },
        {
          "indexed": false,
          "internalType": "address",
          "name": "team",
          "type": "address"
        }
      ],
      "name": "AccountsUpdated",
      "type": "event"
    },
    {
      "anonymous": false,
      "inputs": [
        {
          "indexed": true,
          "internalType": "address",
          "name": "user",
          "type": "address"
        },
        {
          "indexed": true,
          "internalType": "uint256",
          "name": "pid",
          "type": "uint256"
        },
        {
          "indexed": false,
          "internalType": "uint256",
          "name": "amount",
          "type": "uint256"
        },
        {
          "indexed": false,
          "internalType": "uint256",
          "name": "timestamp",
          "type": "uint256"
        }
      ],
      "name": "Deposit",
      "type": "event"
    },
    {
      "anonymous": false,
      "inputs": [
        {
          "indexed": false,
          "internalType": "uint256",
          "name": "pid",
          "type": "uint256"
        },
        {
          "indexed": false,
          "internalType": "address",
          "name": "account",
          "type": "address"
        },
        {
          "indexed": false,
          "internalType": "uint256",
          "name": "timestamp",
          "type": "uint256"
        }
      ],
      "name": "DepositRevised",
      "type": "event"
    },
    {
      "anonymous": false,
      "inputs": [
        {
          "indexed": true,
          "internalType": "address",
          "name": "user",
          "type": "address"
        },
        {
          "indexed": true,
          "internalType": "uint256",
          "name": "pid",
          "type": "uint256"
        },
        {
          "indexed": false,
          "internalType": "uint256",
          "name": "amount",
          "type": "uint256"
        }
      ],
      "name": "EmergencyWithdraw",
      "type": "event"
    },
    {
      "anonymous": false,
      "inputs": [
        {
          "indexed": false,
          "internalType": "uint256",
          "name": "pid",
          "type": "uint256"
        },
        {
          "indexed": false,
          "internalType": "uint256",
          "name": "feeDays",
          "type": "uint256"
        }
      ],
      "name": "FeeDaysUpdated",
      "type": "event"
    },
    {
      "anonymous": false,
      "inputs": [
        {
          "indexed": false,
          "internalType": "address",
          "name": "soulAddress",
          "type": "address"
        },
        {
          "indexed": false,
          "internalType": "address",
          "name": "seanceAddress",
          "type": "address"
        },
        {
          "indexed": false,
          "internalType": "uint256",
          "name": "weight",
          "type": "uint256"
        }
      ],
      "name": "Initialized",
      "type": "event"
    },
    {
      "anonymous": false,
      "inputs": [
        {
          "indexed": false,
          "internalType": "uint256",
          "name": "pid",
          "type": "uint256"
        },
        {
          "indexed": false,
          "internalType": "uint256",
          "name": "allocPoint",
          "type": "uint256"
        },
        {
          "indexed": false,
          "internalType": "contract IERC20",
          "name": "lpToken",
          "type": "address"
        },
        {
          "indexed": false,
          "internalType": "uint256",
          "name": "totalAllocPoint",
          "type": "uint256"
        }
      ],
      "name": "PoolAdded",
      "type": "event"
    },
    {
      "anonymous": false,
      "inputs": [
        {
          "indexed": false,
          "internalType": "uint256",
          "name": "pid",
          "type": "uint256"
        },
        {
          "indexed": false,
          "internalType": "uint256",
          "name": "allocPoint",
          "type": "uint256"
        }
      ],
      "name": "PoolSet",
      "type": "event"
    },
    {
      "anonymous": false,
      "inputs": [
        {
          "indexed": false,
          "internalType": "uint256",
          "name": "dailySoul",
          "type": "uint256"
        },
        {
          "indexed": false,
          "internalType": "uint256",
          "name": "soulPerSecond",
          "type": "uint256"
        }
      ],
      "name": "RewardsUpdated",
      "type": "event"
    },
    {
      "anonymous": false,
      "inputs": [
        {
          "indexed": true,
          "internalType": "bytes32",
          "name": "role",
          "type": "bytes32"
        },
        {
          "indexed": true,
          "internalType": "bytes32",
          "name": "previousAdminRole",
          "type": "bytes32"
        },
        {
          "indexed": true,
          "internalType": "bytes32",
          "name": "newAdminRole",
          "type": "bytes32"
        }
      ],
      "name": "RoleAdminChanged",
      "type": "event"
    },
    {
      "anonymous": false,
      "inputs": [
        {
          "indexed": true,
          "internalType": "bytes32",
          "name": "role",
          "type": "bytes32"
        },
        {
          "indexed": true,
          "internalType": "address",
          "name": "account",
          "type": "address"
        },
        {
          "indexed": true,
          "internalType": "address",
          "name": "sender",
          "type": "address"
        }
      ],
      "name": "RoleGranted",
      "type": "event"
    },
    {
      "anonymous": false,
      "inputs": [
        {
          "indexed": true,
          "internalType": "bytes32",
          "name": "role",
          "type": "bytes32"
        },
        {
          "indexed": true,
          "internalType": "address",
          "name": "account",
          "type": "address"
        },
        {
          "indexed": true,
          "internalType": "address",
          "name": "sender",
          "type": "address"
        }
      ],
      "name": "RoleRevoked",
      "type": "event"
    },
    {
      "anonymous": false,
      "inputs": [
        {
          "indexed": false,
          "internalType": "address",
          "name": "soul",
          "type": "address"
        },
        {
          "indexed": false,
          "internalType": "address",
          "name": "seance",
          "type": "address"
        }
      ],
      "name": "TokensUpdated",
      "type": "event"
    },
    {
      "anonymous": false,
      "inputs": [
        {
          "indexed": false,
          "internalType": "uint256",
          "name": "weight",
          "type": "uint256"
        },
        {
          "indexed": false,
          "internalType": "uint256",
          "name": "totalWeight",
          "type": "uint256"
        }
      ],
      "name": "WeightUpdated",
      "type": "event"
    },
    {
      "anonymous": false,
      "inputs": [
        {
          "indexed": true,
          "internalType": "address",
          "name": "user",
          "type": "address"
        },
        {
          "indexed": true,
          "internalType": "uint256",
          "name": "pid",
          "type": "uint256"
        },
        {
          "indexed": false,
          "internalType": "uint256",
          "name": "amount",
          "type": "uint256"
        },
        {
          "indexed": false,
          "internalType": "uint256",
          "name": "feeAmount",
          "type": "uint256"
        },
        {
          "indexed": false,
          "internalType": "uint256",
          "name": "timeStamp",
          "type": "uint256"
        }
      ],
      "name": "Withdraw",
      "type": "event"
    },
    {
      "inputs": [],
      "name": "DEFAULT_ADMIN_ROLE",
      "outputs": [
        {
          "internalType": "bytes32",
          "name": "",
          "type": "bytes32"
        }
      ],
      "stateMutability": "view",
      "type": "function"
    },
    {
      "inputs": [],
      "name": "bonusMultiplier",
      "outputs": [
        {
          "internalType": "uint256",
          "name": "",
          "type": "uint256"
        }
      ],
      "stateMutability": "view",
      "type": "function"
    },
    {
      "inputs": [],
      "name": "calculator",
      "outputs": [
        {
          "internalType": "contract ICalculator",
          "name": "",
          "type": "address"
        }
      ],
      "stateMutability": "view",
      "type": "function"
    },
    {
      "inputs": [],
      "name": "dailyDecay",
      "outputs": [
        {
          "internalType": "uint256",
          "name": "",
          "type": "uint256"
        }
      ],
      "stateMutability": "view",
      "type": "function"
    },
    {
      "inputs": [],
      "name": "dailySoul",
      "outputs": [
        {
          "internalType": "uint256",
          "name": "",
          "type": "uint256"
        }
      ],
      "stateMutability": "view",
      "type": "function"
    },
    {
      "inputs": [],
      "name": "dao",
      "outputs": [
        {
          "internalType": "address",
          "name": "",
          "type": "address"
        }
      ],
      "stateMutability": "view",
      "type": "function"
    },
    {
      "inputs": [
        {
          "internalType": "bytes32",
          "name": "role",
          "type": "bytes32"
        }
      ],
      "name": "getRoleAdmin",
      "outputs": [
        {
          "internalType": "bytes32",
          "name": "",
          "type": "bytes32"
        }
      ],
      "stateMutability": "view",
      "type": "function"
    },
    {
      "inputs": [],
      "name": "globalDailySoul",
      "outputs": [
        {
          "internalType": "uint256",
          "name": "",
          "type": "uint256"
        }
      ],
      "stateMutability": "view",
      "type": "function"
    },
    {
      "inputs": [
        {
          "internalType": "bytes32",
          "name": "role",
          "type": "bytes32"
        },
        {
          "internalType": "address",
          "name": "account",
          "type": "address"
        }
      ],
      "name": "grantRole",
      "outputs": [],
      "stateMutability": "nonpayable",
      "type": "function"
    },
    {
      "inputs": [
        {
          "internalType": "bytes32",
          "name": "role",
          "type": "bytes32"
        },
        {
          "internalType": "address",
          "name": "account",
          "type": "address"
        }
      ],
      "name": "hasRole",
      "outputs": [
        {
          "internalType": "bool",
          "name": "",
          "type": "bool"
        }
      ],
      "stateMutability": "view",
      "type": "function"
    },
    {
      "inputs": [],
      "name": "isEmergency",
      "outputs": [
        {
          "internalType": "bool",
          "name": "",
          "type": "bool"
        }
      ],
      "stateMutability": "view",
      "type": "function"
    },
    {
      "inputs": [],
      "name": "isInitialized",
      "outputs": [
        {
          "internalType": "bool",
          "name": "",
          "type": "bool"
        }
      ],
      "stateMutability": "view",
      "type": "function"
    },
    {
      "inputs": [],
      "name": "isPaused",
      "outputs": [
        {
          "internalType": "bool",
          "name": "",
          "type": "bool"
        }
      ],
      "stateMutability": "view",
      "type": "function"
    },
    {
      "inputs": [],
      "name": "isis",
      "outputs": [
        {
          "internalType": "bytes32",
          "name": "",
          "type": "bytes32"
        }
      ],
      "stateMutability": "view",
      "type": "function"
    },
    {
      "inputs": [],
      "name": "maat",
      "outputs": [
        {
          "internalType": "bytes32",
          "name": "",
          "type": "bytes32"
        }
      ],
      "stateMutability": "view",
      "type": "function"
    },
    {
      "inputs": [],
      "name": "maxFeeDays",
      "outputs": [
        {
          "internalType": "uint256",
          "name": "",
          "type": "uint256"
        }
      ],
      "stateMutability": "view",
      "type": "function"
    },
    {
      "inputs": [
        {
          "internalType": "uint256",
          "name": "",
          "type": "uint256"
        }
      ],
      "name": "poolInfo",
      "outputs": [
        {
          "internalType": "contract IERC20",
          "name": "lpToken",
          "type": "address"
        },
        {
          "internalType": "uint256",
          "name": "allocPoint",
          "type": "uint256"
        },
        {
          "internalType": "uint256",
          "name": "lastRewardTime",
          "type": "uint256"
        },
        {
          "internalType": "uint256",
          "name": "accSoulPerShare",
          "type": "uint256"
        },
        {
          "internalType": "uint256",
          "name": "feeDays",
          "type": "uint256"
        }
      ],
      "stateMutability": "view",
      "type": "function"
    },
    {
      "inputs": [
        {
          "internalType": "bytes32",
          "name": "role",
          "type": "bytes32"
        },
        {
          "internalType": "address",
          "name": "account",
          "type": "address"
        }
      ],
      "name": "renounceRole",
      "outputs": [],
      "stateMutability": "nonpayable",
      "type": "function"
    },
    {
      "inputs": [
        {
          "internalType": "bytes32",
          "name": "role",
          "type": "bytes32"
        },
        {
          "internalType": "address",
          "name": "account",
          "type": "address"
        }
      ],
      "name": "revokeRole",
      "outputs": [],
      "stateMutability": "nonpayable",
      "type": "function"
    },
    {
      "inputs": [],
      "name": "seance",
      "outputs": [
        {
          "internalType": "contract IToken",
          "name": "",
          "type": "address"
        }
      ],
      "stateMutability": "view",
      "type": "function"
    },
    {
      "inputs": [],
      "name": "soul",
      "outputs": [
        {
          "internalType": "contract IToken",
          "name": "",
          "type": "address"
        }
      ],
      "stateMutability": "view",
      "type": "function"
    },
    {
      "inputs": [],
      "name": "soulPerSecond",
      "outputs": [
        {
          "internalType": "uint256",
          "name": "",
          "type": "uint256"
        }
      ],
      "stateMutability": "view",
      "type": "function"
    },
    {
      "inputs": [],
      "name": "startTime",
      "outputs": [
        {
          "internalType": "uint256",
          "name": "",
          "type": "uint256"
        }
      ],
      "stateMutability": "view",
      "type": "function"
    },
    {
      "inputs": [
        {
          "internalType": "bytes4",
          "name": "interfaceId",
          "type": "bytes4"
        }
      ],
      "name": "supportsInterface",
      "outputs": [
        {
          "internalType": "bool",
          "name": "",
          "type": "bool"
        }
      ],
      "stateMutability": "view",
      "type": "function"
    },
    {
      "inputs": [],
      "name": "team",
      "outputs": [
        {
          "internalType": "address",
          "name": "",
          "type": "address"
        }
      ],
      "stateMutability": "view",
      "type": "function"
    },
    {
      "inputs": [],
      "name": "totalAllocPoint",
      "outputs": [
        {
          "internalType": "uint256",
          "name": "",
          "type": "uint256"
        }
      ],
      "stateMutability": "view",
      "type": "function"
    },
    {
      "inputs": [],
      "name": "totalWeight",
      "outputs": [
        {
          "internalType": "uint256",
          "name": "",
          "type": "uint256"
        }
      ],
      "stateMutability": "view",
      "type": "function"
    },
    {
      "inputs": [
        {
          "internalType": "uint256",
          "name": "",
          "type": "uint256"
        },
        {
          "internalType": "address",
          "name": "",
          "type": "address"
        }
      ],
      "name": "userInfo",
      "outputs": [
        {
          "internalType": "uint256",
          "name": "amount",
          "type": "uint256"
        },
        {
          "internalType": "uint256",
          "name": "rewardDebt",
          "type": "uint256"
        },
        {
          "internalType": "uint256",
          "name": "withdrawalTime",
          "type": "uint256"
        },
        {
          "internalType": "uint256",
          "name": "depositTime",
          "type": "uint256"
        },
        {
          "internalType": "uint256",
          "name": "timeDelta",
          "type": "uint256"
        },
        {
          "internalType": "uint256",
          "name": "deltaDays",
          "type": "uint256"
        }
      ],
      "stateMutability": "view",
      "type": "function"
    },
    {
      "inputs": [],
      "name": "weight",
      "outputs": [
        {
          "internalType": "uint256",
          "name": "",
          "type": "uint256"
        }
      ],
      "stateMutability": "view",
      "type": "function"
    },
    {
      "inputs": [
        {
          "internalType": "address",
          "name": "_soulAddress",
          "type": "address"
        },
        {
          "internalType": "address",
          "name": "_seanceAddress",
          "type": "address"
        },
        {
          "internalType": "uint256",
          "name": "_weight",
          "type": "uint256"
        }
      ],
      "name": "initialize",
      "outputs": [],
      "stateMutability": "nonpayable",
      "type": "function"
    },
    {
      "inputs": [
        {
          "internalType": "bool",
          "name": "enabled",
          "type": "bool"
        }
      ],
      "name": "toggleEmergency",
      "outputs": [],
      "stateMutability": "nonpayable",
      "type": "function"
    },
    {
      "inputs": [
        {
          "internalType": "bool",
          "name": "enabled",
          "type": "bool"
        }
      ],
      "name": "togglePause",
      "outputs": [],
      "stateMutability": "nonpayable",
      "type": "function"
    },
    {
      "inputs": [],
      "name": "poolLength",
      "outputs": [
        {
          "internalType": "uint256",
          "name": "",
          "type": "uint256"
        }
      ],
      "stateMutability": "view",
      "type": "function"
    },
    {
      "inputs": [
        {
          "internalType": "uint256",
          "name": "_allocPoint",
          "type": "uint256"
        },
        {
          "internalType": "contract IERC20",
          "name": "_lpToken",
          "type": "address"
        },
        {
          "internalType": "bool",
          "name": "_withUpdate",
          "type": "bool"
        },
        {
          "internalType": "uint256",
          "name": "_feeDays",
          "type": "uint256"
        }
      ],
      "name": "addPool",
      "outputs": [],
      "stateMutability": "nonpayable",
      "type": "function"
    },
    {
      "inputs": [
        {
          "internalType": "uint256",
          "name": "pid",
          "type": "uint256"
        },
        {
          "internalType": "uint256",
          "name": "allocPoint",
          "type": "uint256"
        },
        {
          "internalType": "bool",
          "name": "withUpdate",
          "type": "bool"
        }
      ],
      "name": "set",
      "outputs": [],
      "stateMutability": "nonpayable",
      "type": "function"
    },
    {
      "inputs": [
        {
          "internalType": "uint256",
          "name": "pid",
          "type": "uint256"
        }
      ],
      "name": "userDelta",
      "outputs": [
        {
          "internalType": "uint256",
          "name": "delta",
          "type": "uint256"
        }
      ],
      "stateMutability": "view",
      "type": "function"
    },
    {
      "inputs": [
        {
          "internalType": "uint256",
          "name": "pid",
          "type": "uint256"
        },
        {
          "internalType": "address",
          "name": "_user",
          "type": "address"
        }
      ],
      "name": "userDelta",
      "outputs": [
        {
          "internalType": "uint256",
          "name": "delta",
          "type": "uint256"
        }
      ],
      "stateMutability": "view",
      "type": "function"
    },
    {
      "inputs": [
        {
          "internalType": "uint256",
          "name": "from",
          "type": "uint256"
        },
        {
          "internalType": "uint256",
          "name": "to",
          "type": "uint256"
        }
      ],
      "name": "getMultiplier",
      "outputs": [
        {
          "internalType": "uint256",
          "name": "",
          "type": "uint256"
        }
      ],
      "stateMutability": "pure",
      "type": "function"
    },
    {
      "inputs": [
        {
          "internalType": "uint256",
          "name": "timeDelta",
          "type": "uint256"
        }
      ],
      "name": "getDeltaDays",
      "outputs": [
        {
          "internalType": "uint256",
          "name": "deltaDays",
          "type": "uint256"
        }
      ],
      "stateMutability": "pure",
      "type": "function"
    },
    {
      "inputs": [
        {
          "internalType": "uint256",
          "name": "pid",
          "type": "uint256"
        },
        {
          "internalType": "uint256",
          "name": "deltaDays",
          "type": "uint256"
        }
      ],
      "name": "getFeeRate",
      "outputs": [
        {
          "internalType": "uint256",
          "name": "feeRate",
          "type": "uint256"
        }
      ],
      "stateMutability": "view",
      "type": "function"
    },
    {
      "inputs": [
        {
          "internalType": "uint256",
          "name": "pid",
          "type": "uint256"
        },
        {
          "internalType": "uint256",
          "name": "deltaDays",
          "type": "uint256"
        },
        {
          "internalType": "uint256",
          "name": "amount",
          "type": "uint256"
        }
      ],
      "name": "getWithdrawable",
      "outputs": [
        {
          "internalType": "uint256",
          "name": "_feeAmount",
          "type": "uint256"
        },
        {
          "internalType": "uint256",
          "name": "_withdrawable",
          "type": "uint256"
        }
      ],
      "stateMutability": "view",
      "type": "function"
    },
    {
      "inputs": [
        {
          "internalType": "uint256",
          "name": "pid",
          "type": "uint256"
        }
      ],
      "name": "pendingSoul",
      "outputs": [
        {
          "internalType": "uint256",
          "name": "pendingAmount",
          "type": "uint256"
        }
      ],
      "stateMutability": "view",
      "type": "function"
    },
    {
      "inputs": [
        {
          "internalType": "uint256",
          "name": "pid",
          "type": "uint256"
        },
        {
          "internalType": "address",
          "name": "account",
          "type": "address"
        }
      ],
      "name": "pendingSoul",
      "outputs": [
        {
          "internalType": "uint256",
          "name": "pendingAmount",
          "type": "uint256"
        }
      ],
      "stateMutability": "view",
      "type": "function"
    },
    {
      "inputs": [],
      "name": "massUpdatePools",
      "outputs": [],
      "stateMutability": "nonpayable",
      "type": "function"
    },
    {
      "inputs": [
        {
          "internalType": "uint256",
          "name": "pid",
          "type": "uint256"
        }
      ],
      "name": "updatePool",
      "outputs": [],
      "stateMutability": "nonpayable",
      "type": "function"
    },
    {
      "inputs": [
        {
          "internalType": "uint256",
          "name": "pid",
          "type": "uint256"
        }
      ],
      "name": "harvest",
      "outputs": [],
      "stateMutability": "nonpayable",
      "type": "function"
    },
    {
      "inputs": [
        {
          "internalType": "uint256[]",
          "name": "_pids",
          "type": "uint256[]"
        }
      ],
      "name": "harvestAll",
      "outputs": [],
      "stateMutability": "nonpayable",
      "type": "function"
    },
    {
      "inputs": [
        {
          "internalType": "uint256",
          "name": "pid",
          "type": "uint256"
        },
        {
          "internalType": "address",
          "name": "account",
          "type": "address"
        }
      ],
      "name": "userShare",
      "outputs": [
        {
          "internalType": "uint256",
          "name": "share",
          "type": "uint256"
        }
      ],
      "stateMutability": "view",
      "type": "function"
    },
    {
      "inputs": [
        {
          "internalType": "uint256",
          "name": "pid",
          "type": "uint256"
        }
      ],
      "name": "getPrice",
      "outputs": [
        {
          "internalType": "uint256",
          "name": "tokenPrice",
          "type": "uint256"
        }
      ],
      "stateMutability": "view",
      "type": "function"
    },
    {
      "inputs": [
        {
          "internalType": "uint256",
          "name": "pid",
          "type": "uint256"
        },
        {
          "internalType": "address",
          "name": "account",
          "type": "address"
        }
      ],
      "name": "getDepositedValue",
      "outputs": [
        {
          "internalType": "uint256",
          "name": "depositValue",
          "type": "uint256"
        }
      ],
      "stateMutability": "view",
      "type": "function"
    },
    {
      "inputs": [
        {
          "internalType": "uint256",
          "name": "pid",
          "type": "uint256"
        }
      ],
      "name": "getPoolTVL",
      "outputs": [
        {
          "internalType": "uint256",
          "name": "poolTVL",
          "type": "uint256"
        }
      ],
      "stateMutability": "view",
      "type": "function"
    },
    {
      "inputs": [
        {
          "internalType": "uint256[]",
          "name": "_pids",
          "type": "uint256[]"
        }
      ],
      "name": "getTVL",
      "outputs": [
        {
          "internalType": "uint256",
          "name": "valueLocked",
          "type": "uint256"
        }
      ],
      "stateMutability": "view",
      "type": "function"
    },
    {
      "inputs": [
        {
          "internalType": "uint256",
          "name": "pid",
          "type": "uint256"
        },
        {
          "internalType": "address",
          "name": "account",
          "type": "address"
        }
      ],
      "name": "getPendingValue",
      "outputs": [
        {
          "internalType": "uint256",
          "name": "pendingValue",
          "type": "uint256"
        }
      ],
      "stateMutability": "view",
      "type": "function"
    },
    {
      "inputs": [
        {
          "internalType": "uint256",
          "name": "pid",
          "type": "uint256"
        },
        {
          "internalType": "uint256",
          "name": "amount",
          "type": "uint256"
        }
      ],
      "name": "deposit",
      "outputs": [],
      "stateMutability": "nonpayable",
      "type": "function"
    },
    {
      "inputs": [
        {
          "internalType": "uint256",
          "name": "pid",
          "type": "uint256"
        },
        {
          "internalType": "uint256",
          "name": "amount",
          "type": "uint256"
        }
      ],
      "name": "withdraw",
      "outputs": [],
      "stateMutability": "nonpayable",
      "type": "function"
    },
    {
      "inputs": [
        {
          "internalType": "uint256",
          "name": "pid",
          "type": "uint256"
        }
      ],
      "name": "emergencyWithdraw",
      "outputs": [],
      "stateMutability": "nonpayable",
      "type": "function"
    },
    {
      "inputs": [
        {
          "internalType": "uint256",
          "name": "amount",
          "type": "uint256"
        }
      ],
      "name": "enterStaking",
      "outputs": [],
      "stateMutability": "nonpayable",
      "type": "function"
    },
    {
      "inputs": [
        {
          "internalType": "uint256",
          "name": "amount",
          "type": "uint256"
        }
      ],
      "name": "leaveStaking",
      "outputs": [],
      "stateMutability": "nonpayable",
      "type": "function"
    },
    {
      "inputs": [
        {
          "internalType": "uint256",
          "name": "_weight",
          "type": "uint256"
        },
        {
          "internalType": "uint256",
          "name": "_totalWeight",
          "type": "uint256"
        }
      ],
      "name": "updateWeight",
      "outputs": [],
      "stateMutability": "nonpayable",
      "type": "function"
    },
    {
      "inputs": [
        {
          "internalType": "uint256",
          "name": "pid",
          "type": "uint256"
        },
        {
          "internalType": "uint256",
          "name": "_daysRequested",
          "type": "uint256"
        }
      ],
      "name": "updateFeeDays",
      "outputs": [],
      "stateMutability": "nonpayable",
      "type": "function"
    },
    {
      "inputs": [
        {
          "internalType": "address",
          "name": "_dao",
          "type": "address"
        },
        {
          "internalType": "address",
          "name": "_team",
          "type": "address"
        }
      ],
      "name": "updateAccounts",
      "outputs": [],
      "stateMutability": "nonpayable",
      "type": "function"
    },
    {
      "inputs": [
        {
          "internalType": "address",
          "name": "_soulAddress",
          "type": "address"
        },
        {
          "internalType": "address",
          "name": "_seanceAddress",
          "type": "address"
        }
      ],
      "name": "updateTokens",
      "outputs": [],
      "stateMutability": "nonpayable",
      "type": "function"
    },
    {
      "inputs": [
        {
          "internalType": "address",
          "name": "_calculator",
          "type": "address"
        }
      ],
      "name": "updateCalculator",
      "outputs": [],
      "stateMutability": "nonpayable",
      "type": "function"
    },
    {
      "inputs": [
        {
          "internalType": "uint256",
          "name": "amount",
          "type": "uint256"
        }
      ],
      "name": "enWei",
      "outputs": [
        {
          "internalType": "uint256",
          "name": "",
          "type": "uint256"
        }
      ],
      "stateMutability": "pure",
      "type": "function"
    },
    {
      "inputs": [
        {
          "internalType": "uint256",
          "name": "amount",
          "type": "uint256"
        }
      ],
      "name": "fromWei",
      "outputs": [
        {
          "internalType": "uint256",
          "name": "",
          "type": "uint256"
        }
      ],
      "stateMutability": "pure",
      "type": "function"
    }
  ],
  "bytecode": "0x6101006040526203d090608090815250600160a0908152506200002960016200018260201b60201c565b60c0908152506200004160646200018260201b60201c565b60e0908152503480156200005457600080fd5b5060018081905550600033905080600760006101000a81548173ffffffffffffffffffffffffffffffffffffffff021916908373ffffffffffffffffffffffffffffffffffffffff16021790555080600860006101000a81548173ffffffffffffffffffffffffffffffffffffffff021916908373ffffffffffffffffffffffffffffffffffffffff1602179055507f36d5d8406f8379c6deba01145ec4f6a2966675cc67d71355b397a2a8e3572b296012819055507f0811b25c145e1379dc78112dd91057f09150f6db05dfd7e04deb910e6cefd4b76013819055506200014a6000801b6000801b83620001a160201b60201c565b506200016260125460125483620001a160201b60201c565b506200017a60135460125483620001a160201b60201c565b505062000451565b6000670de0b6b3a7640000826200019a919062000406565b9050919050565b6000620001b58483620001d260201b60201c565b620001c78484620001e860201b60201c565b600190509392505050565b620001e482826200024b60201b60201c565b5050565b6000620001fb836200033c60201b60201c565b905081600080858152602001908152602001600020600101819055508181847fbd79b86ffe0ab8e8776151514217cd7cacd52c909f66475c3af44e129f0b00ff60405160405180910390a4505050565b6200025d82826200035b60201b60201c565b6200033857600160008084815260200190815260200160002060000160008373ffffffffffffffffffffffffffffffffffffffff1673ffffffffffffffffffffffffffffffffffffffff16815260200190815260200160002060006101000a81548160ff021916908315150217905550620002dd620003c560201b60201c565b73ffffffffffffffffffffffffffffffffffffffff168173ffffffffffffffffffffffffffffffffffffffff16837f2f8788117e7eff1d82e926ec794901d17c78024a50270940304540a733656f0d60405160405180910390a45b5050565b6000806000838152602001908152602001600020600101549050919050565b600080600084815260200190815260200160002060000160008373ffffffffffffffffffffffffffffffffffffffff1673ffffffffffffffffffffffffffffffffffffffff16815260200190815260200160002060009054906101000a900460ff16905092915050565b600033905090565b6000819050919050565b7f4e487b7100000000000000000000000000000000000000000000000000000000600052601160045260246000fd5b60006200041382620003cd565b91506200042083620003cd565b92508282026200043081620003cd565b915082820484148315176200044a5762000449620003d7565b5b5092915050565b60805160a05160c05160e051616bf7620004a060003960008181611631015261368f01526000614457015260008181612bc50152612f3701526000818161150c015261473d0152616bf76000f3fe608060405234801561001057600080fd5b50600436106103db5760003560e01c806385f2aef21161020a578063cb68bef811610125578063e65d1522116100b8578063ea4bf44611610087578063ea4bf44614610c0a578063fb39d1e314610c28578063fb5ad33014610c58578063fc90fdc014610c88578063fd6f99d014610ca6576103db565b8063e65d152214610b5e578063e748bf0714610b8e578063e757223014610bbe578063e7aa29e314610bee576103db565b8063d99e50da116100f4578063d99e50da14610aec578063ddc6326214610b0a578063e13e8ec214610b26578063e2bbb15814610b42576103db565b8063cb68bef814610a66578063ce3e39c014610a82578063cf94ee9614610aa0578063d547741f14610ad0576103db565b8063a1aab33f1161019d578063af62147e1161016c578063af62147e146109e0578063b187bd26146109fc578063b5d011fd14610a1a578063bfafcad514610a36576103db565b8063a1aab33f14610956578063a217fddf14610974578063a8b973a114610992578063a9958fd5146109b0576103db565b806393f1a40b116101d957806393f1a40b146108a357806395aca473146108d857806396c82e57146109085780639f6c542614610926576103db565b806385f2aef2146107f55780638dbb1e3a146108135780638f2446301461084357806391d1485414610873576103db565b8063441a3e70116102fa5780635f9e8f821161028d57806378e979251161025c57806378e979251461076a5780637d500ec8146107885780637e668b42146107a6578063815b7a8c146107d7576103db565b80635f9e8f82146106f6578063630b5ba11461071457806363e0cb4f1461071e57806364482f791461074e576103db565b80635312ea8e116102c95780635312ea8e1461067057806357aed3501461068c57806357d159c6146106bc5780635f9bf689146106d8576103db565b8063441a3e70146105fe5780634ca01d451461061a5780634e5ef2a51461063857806351eb05a614610654576103db565b806324dd9ab21161037257806336568abe1161034157806336568abe1461058a578063392e53cd146105a657806341441d3b146105c45780634162169f146105e0576103db565b806324dd9ab2146105185780632aabff15146105365780632f2ff15d146105525780632fe2d7ce1461056e576103db565b80631526fe27116103ae5780631526fe271461047a5780631794bb3c146104ae57806317caf6f1146104ca578063248a9ca3146104e8576103db565b806301ffc9a7146103e0578063081e3eda1461041057806309ae4d2c1461042e5780631058d2811461045e575b600080fd5b6103fa60048036038101906103f59190615255565b610cc4565b604051610407919061529d565b60405180910390f35b610418610d3e565b60405161042591906152d1565b60405180910390f35b61044860048036038101906104439190615318565b610d4b565b60405161045591906152d1565b60405180910390f35b61047860048036038101906104739190615318565b610e26565b005b610494600480360381019061048f9190615318565b61119c565b6040516104a59594939291906153c4565b60405180910390f35b6104c860048036038101906104c39190615455565b611202565b005b6104d26114e5565b6040516104df91906152d1565b60405180910390f35b61050260048036038101906104fd91906154de565b6114eb565b60405161050f919061551a565b60405180910390f35b61052061150a565b60405161052d91906152d1565b60405180910390f35b610550600480360381019061054b919061559a565b61152e565b005b61056c600480360381019061056791906155e7565b611574565b005b61058860048036038101906105839190615627565b61159d565b005b6105a4600480360381019061059f91906155e7565b6116dc565b005b6105ae61175f565b6040516105bb919061529d565b60405180910390f35b6105de60048036038101906105d99190615318565b611772565b005b6105e8611ac4565b6040516105f59190615676565b60405180910390f35b61061860048036038101906106139190615627565b611aea565b005b610622611ffb565b60405161062f91906156b2565b60405180910390f35b610652600480360381019061064d9190615737565b612021565b005b61066e60048036038101906106699190615318565b6120a0565b005b61068a60048036038101906106859190615318565b612498565b005b6106a660048036038101906106a1919061559a565b6127f4565b6040516106b391906152d1565b60405180910390f35b6106d660048036038101906106d1919061579e565b61284e565b005b6106e0612880565b6040516106ed91906152d1565b60405180910390f35b6106fe612886565b60405161070b919061529d565b60405180910390f35b61071c612899565b005b610738600480360381019061073391906157cb565b6128cc565b60405161074591906152d1565b60405180910390f35b6107686004803603810190610763919061580b565b612995565b005b610772612b13565b60405161077f91906152d1565b60405180910390f35b610790612b19565b60405161079d91906152d1565b60405180910390f35b6107c060048036038101906107bb919061585e565b612b1f565b6040516107ce9291906158b1565b60405180910390f35b6107df612b75565b6040516107ec91906156b2565b60405180910390f35b6107fd612b9b565b60405161080a9190615676565b60405180910390f35b61082d60048036038101906108289190615627565b612bc1565b60405161083a91906152d1565b60405180910390f35b61085d60048036038101906108589190615318565b612c02565b60405161086a91906152d1565b60405180910390f35b61088d600480360381019061088891906155e7565b612d57565b60405161089a919061529d565b60405180910390f35b6108bd60048036038101906108b891906157cb565b612dc1565b6040516108cf969594939291906158da565b60405180910390f35b6108f260048036038101906108ed9190615318565b612e0a565b6040516108ff91906152d1565b60405180910390f35b610910612e34565b60405161091d91906152d1565b60405180910390f35b610940600480360381019061093b9190615627565b612e3a565b60405161094d91906152d1565b60405180910390f35b61095e612f28565b60405161096b91906152d1565b60405180910390f35b61097c612f2e565b604051610989919061551a565b60405180910390f35b61099a612f35565b6040516109a791906152d1565b60405180910390f35b6109ca60048036038101906109c59190615318565b612f59565b6040516109d791906152d1565b60405180910390f35b6109fa60048036038101906109f59190615627565b6131ee565b005b610a046132ed565b604051610a11919061529d565b60405180910390f35b610a346004803603810190610a2f919061593b565b613300565b005b610a506004803603810190610a4b91906157cb565b613359565b604051610a5d91906152d1565b60405180910390f35b610a806004803603810190610a7b919061579e565b6135ef565b005b610a8a613621565b604051610a979190615989565b60405180910390f35b610aba6004803603810190610ab59190615318565b613647565b604051610ac791906152d1565b60405180910390f35b610aea6004803603810190610ae591906155e7565b613664565b005b610af461368d565b604051610b0191906152d1565b60405180910390f35b610b246004803603810190610b1f9190615318565b6136b1565b005b610b406004803603810190610b3b91906159a4565b6136d7565b005b610b5c6004803603810190610b579190615627565b6138d9565b005b610b786004803603810190610b739190615318565b613c6f565b604051610b8591906152d1565b60405180910390f35b610ba86004803603810190610ba391906157cb565b613c8c565b604051610bb591906152d1565b60405180910390f35b610bd86004803603810190610bd39190615318565b613e7a565b604051610be591906152d1565b60405180910390f35b610c086004803603810190610c0391906159a4565b614079565b005b610c126142b9565b604051610c1f919061551a565b60405180910390f35b610c426004803603810190610c3d91906157cb565b6142bf565b604051610c4f91906152d1565b60405180910390f35b610c726004803603810190610c6d91906157cb565b61439b565b604051610c7f91906152d1565b60405180910390f35b610c90614455565b604051610c9d91906152d1565b60405180910390f35b610cae614479565b604051610cbb919061551a565b60405180910390f35b60007f7965db0b000000000000000000000000000000000000000000000000000000007bffffffffffffffffffffffffffffffffffffffffffffffffffffffff1916827bffffffffffffffffffffffffffffffffffffffffffffffffffffffff19161480610d375750610d368261447f565b5b9050919050565b6000601080549050905090565b6000806011600084815260200190815260200160002060003373ffffffffffffffffffffffffffffffffffffffff1673ffffffffffffffffffffffffffffffffffffffff1681526020019081526020016000206040518060c0016040529081600082015481526020016001820154815260200160028201548152602001600382015481526020016004820154815260200160058201548152505090506000816040015114610e0b57806040015142610e039190615a13565b915081610e1f565b806060015142610e1b9190615a13565b9150815b5050919050565b600260015403610e6b576040517f08c379a0000000000000000000000000000000000000000000000000000000008152600401610e6290615aa4565b60405180910390fd5b6002600181905550600f60009054906101000a900460ff16610ec2576040517f08c379a0000000000000000000000000000000000000000000000000000000008152600401610eb990615b10565b60405180910390fd5b60006010600081548110610ed957610ed8615b30565b5b9060005260206000209060050201905060006011600080815260200190815260200160002060003373ffffffffffffffffffffffffffffffffffffffff1673ffffffffffffffffffffffffffffffffffffffff16815260200190815260200160002090508281600001541015610f84576040517f08c379a0000000000000000000000000000000000000000000000000000000008152600401610f7b90615bd1565b60405180910390fd5b610f8e60006120a0565b6000610f9b600033613359565b90506000811115610fb157610fb033826144e9565b5b600084111561113a57838260000154610fca9190615a13565b8260000181905550600560009054906101000a900473ffffffffffffffffffffffffffffffffffffffff1673ffffffffffffffffffffffffffffffffffffffff16639dc29fac33866040518363ffffffff1660e01b815260040161102f929190615bf1565b600060405180830381600087803b15801561104957600080fd5b505af115801561105d573d6000803e3d6000fd5b5050505064e8d4a510008360030154836000015461107b9190615c1a565b6110859190615c8b565b82600101819055504282600201819055508260000160009054906101000a900473ffffffffffffffffffffffffffffffffffffffff1673ffffffffffffffffffffffffffffffffffffffff1663a9059cbb33866040518363ffffffff1660e01b81526004016110f5929190615bf1565b6020604051808303816000875af1158015611114573d6000803e3d6000fd5b505050506040513d601f19601f820116820180604052508101906111389190615cd1565b505b60003373ffffffffffffffffffffffffffffffffffffffff167fe08737ac48a1dab4b1a46c7dc9398bd5bfc6d7ad6fabb7cd8caa254de14def358660004260405161118793929190615d39565b60405180910390a35050506001808190555050565b601081815481106111ac57600080fd5b90600052602060002090600502016000915090508060000160009054906101000a900473ffffffffffffffffffffffffffffffffffffffff16908060010154908060020154908060030154908060040154905085565b6012546112168161121161467e565b614686565b600f60009054906101000a900460ff1615611266576040517f08c379a000000000000000000000000000000000000000000000000000000000815260040161125d90615dbc565b60405180910390fd5b42600d819055506103e860098190555081600a8190555083600260006101000a81548173ffffffffffffffffffffffffffffffffffffffff021916908373ffffffffffffffffffffffffffffffffffffffff16021790555082600460006101000a81548173ffffffffffffffffffffffffffffffffffffffff021916908373ffffffffffffffffffffffffffffffffffffffff16021790555083600360006101000a81548173ffffffffffffffffffffffffffffffffffffffff021916908373ffffffffffffffffffffffffffffffffffffffff16021790555082600560006101000a81548173ffffffffffffffffffffffffffffffffffffffff021916908373ffffffffffffffffffffffffffffffffffffffff16021790555061138f600a54600954614723565b60106040518060a001604052808673ffffffffffffffffffffffffffffffffffffffff1681526020016103e88152602001600d548152602001600081526020016000815250908060018154018082558091505060019003906000526020600020906005020160009091909190915060008201518160000160006101000a81548173ffffffffffffffffffffffffffffffffffffffff021916908373ffffffffffffffffffffffffffffffffffffffff1602179055506020820151816001015560408201518160020155606082015181600301556080820151816004015550506001600f60006101000a81548160ff0219169083151502179055506103e8600e600082825461149d9190615ddc565b925050819055507f10f27652c1015195ca7e6bc9b4c724cbf18e91c42117d92124703a3f49bb240f8484846040516114d793929190615e10565b60405180910390a150505050565b600e5481565b6000806000838152602001908152602001600020600101549050919050565b7f000000000000000000000000000000000000000000000000000000000000000081565b60005b8282905081101561156f5761155e83838381811061155257611551615b30565b5b905060200201356136b1565b8061156890615e47565b9050611531565b505050565b61157d826114eb565b61158e8161158961467e565b614686565b61159883836147c6565b505050565b6013546115b1816115ac61467e565b614686565b6000601084815481106115c7576115c6615b30565b5b9060005260206000209060050201905060006115e284613647565b905060008260040154905081810361162f576040517f08c379a000000000000000000000000000000000000000000000000000000000815260040161162690615edb565b60405180910390fd5b7f0000000000000000000000000000000000000000000000000000000000000000811115611692576040517f08c379a000000000000000000000000000000000000000000000000000000000815260040161168990615f47565b60405180910390fd5b8183600401819055507f11866c6bd0f6c9f4753a4891ab4d2e17484dbbdc2aa908db44e66a35c5c331dc86836040516116cc9291906158b1565b60405180910390a1505050505050565b6116e461467e565b73ffffffffffffffffffffffffffffffffffffffff168173ffffffffffffffffffffffffffffffffffffffff1614611751576040517f08c379a000000000000000000000000000000000000000000000000000000000815260040161174890615fd9565b60405180910390fd5b61175b82826148a6565b5050565b600f60009054906101000a900460ff1681565b6002600154036117b7576040517f08c379a00000000000000000000000000000000000000000000000000000000081526004016117ae90615aa4565b60405180910390fd5b6002600181905550600f60009054906101000a900460ff1661180e576040517f08c379a000000000000000000000000000000000000000000000000000000000815260040161180590615b10565b60405180910390fd5b6000601060008154811061182557611824615b30565b5b9060005260206000209060050201905060006011600080815260200190815260200160002060003373ffffffffffffffffffffffffffffffffffffffff1673ffffffffffffffffffffffffffffffffffffffff168152602001908152602001600020905061189360006120a0565b60008160000154905060008111156118c05760006118b2600033613359565b90506118be33826144e9565b505b600084111561198a578260000160009054906101000a900473ffffffffffffffffffffffffffffffffffffffff1673ffffffffffffffffffffffffffffffffffffffff166323b872dd3330876040518463ffffffff1660e01b815260040161192a93929190615e10565b6020604051808303816000875af1158015611949573d6000803e3d6000fd5b505050506040513d601f19601f8201168201806040525081019061196d9190615cd1565b50838260000160008282546119829190615ddc565b925050819055505b60008260030154036119a0574282600301819055505b64e8d4a51000836003015483600001546119ba9190615c1a565b6119c49190615c8b565b82600101819055506000841115611a6557600560009054906101000a900473ffffffffffffffffffffffffffffffffffffffff1673ffffffffffffffffffffffffffffffffffffffff166340c10f1933866040518363ffffffff1660e01b8152600401611a32929190615bf1565b600060405180830381600087803b158015611a4c57600080fd5b505af1158015611a60573d6000803e3d6000fd5b505050505b60003373ffffffffffffffffffffffffffffffffffffffff167f36af321ec8d3c75236829c5317affd40ddb308863a1236d2d277a4025cccee1e8642604051611aaf9291906158b1565b60405180910390a35050506001808190555050565b600860009054906101000a900473ffffffffffffffffffffffffffffffffffffffff1681565b600260015403611b2f576040517f08c379a0000000000000000000000000000000000000000000000000000000008152600401611b2690615aa4565b60405180910390fd5b6002600181905550600f60009054906101000a900460ff16611b86576040517f08c379a0000000000000000000000000000000000000000000000000000000008152600401611b7d90615b10565b60405180910390fd5b600f60029054906101000a900460ff1615611bd6576040517f08c379a0000000000000000000000000000000000000000000000000000000008152600401611bcd90616045565b60405180910390fd5b816010805490508110611c1e576040517f08c379a0000000000000000000000000000000000000000000000000000000008152600401611c15906160b1565b60405180910390fd5b60008303611c61576040517f08c379a0000000000000000000000000000000000000000000000000000000008152600401611c5890616143565b60405180910390fd5b60008211611ca4576040517f08c379a0000000000000000000000000000000000000000000000000000000008152600401611c9b906161af565b60405180910390fd5b600060108481548110611cba57611cb9615b30565b5b9060005260206000209060050201905060006011600086815260200190815260200160002060003373ffffffffffffffffffffffffffffffffffffffff1673ffffffffffffffffffffffffffffffffffffffff16815260200190815260200160002090508381600001541015611d65576040517f08c379a0000000000000000000000000000000000000000000000000000000008152600401611d5c9061621b565b60405180910390fd5b611d6e856120a0565b6000611d7a8633613359565b90506000811115611d9057611d8f33826144e9565b5b6000611d9c87336142bf565b90506000611da982612e0a565b905086846000016000828254611dbf9190615a13565b925050819055508184600401819055508084600501819055506000611de589838a612b1f565b91505060008189611df69190615a13565b90508660000160009054906101000a900473ffffffffffffffffffffffffffffffffffffffff1673ffffffffffffffffffffffffffffffffffffffff1663a9059cbb600860009054906101000a900473ffffffffffffffffffffffffffffffffffffffff16836040518363ffffffff1660e01b8152600401611e79929190615bf1565b6020604051808303816000875af1158015611e98573d6000803e3d6000fd5b505050506040513d601f19601f82011682018060405250810190611ebc9190615cd1565b508660000160009054906101000a900473ffffffffffffffffffffffffffffffffffffffff1673ffffffffffffffffffffffffffffffffffffffff1663a9059cbb33846040518363ffffffff1660e01b8152600401611f1c929190615bf1565b6020604051808303816000875af1158015611f3b573d6000803e3d6000fd5b505050506040513d601f19601f82011682018060405250810190611f5f9190615cd1565b5064e8d4a5100087600301548760000154611f7a9190615c1a565b611f849190615c8b565b8660010181905550428660020181905550893373ffffffffffffffffffffffffffffffffffffffff167fe08737ac48a1dab4b1a46c7dc9398bd5bfc6d7ad6fabb7cd8caa254de14def358b8442604051611fe09392919061623b565b60405180910390a35050505050505050600180819055505050565b600560009054906101000a900473ffffffffffffffffffffffffffffffffffffffff1681565b600f60009054906101000a900460ff16612070576040517f08c379a000000000000000000000000000000000000000000000000000000000815260040161206790615b10565b60405180910390fd5b6012546120848161207f61467e565b614686565b61208d84614987565b61209985858585614a65565b5050505050565b8060108054905081106120e8576040517f08c379a00000000000000000000000000000000000000000000000000000000081526004016120df906160b1565b60405180910390fd5b6000601083815481106120fe576120fd615b30565b5b906000526020600020906005020190508060020154421161211f5750612494565b60008160000160009054906101000a900473ffffffffffffffffffffffffffffffffffffffff1673ffffffffffffffffffffffffffffffffffffffff166370a08231306040518263ffffffff1660e01b815260040161217e9190615676565b602060405180830381865afa15801561219b573d6000803e3d6000fd5b505050506040513d601f19601f820116820180604052508101906121bf9190616287565b9050600081036121d9574282600201819055505050612494565b60006121e9836002015442612bc1565b90506000600e548460010154600c54846122039190615c1a565b61220d9190615c1a565b6122179190615c8b565b90506000650746a528800064e8d4a51000836122339190615c1a565b61223d9190615c8b565b9050600360009054906101000a900473ffffffffffffffffffffffffffffffffffffffff1673ffffffffffffffffffffffffffffffffffffffff166340c10f19600760009054906101000a900473ffffffffffffffffffffffffffffffffffffffff16836040518363ffffffff1660e01b81526004016122be929190615bf1565b600060405180830381600087803b1580156122d857600080fd5b505af11580156122ec573d6000803e3d6000fd5b50505050600360009054906101000a900473ffffffffffffffffffffffffffffffffffffffff1673ffffffffffffffffffffffffffffffffffffffff166340c10f19600860009054906101000a900473ffffffffffffffffffffffffffffffffffffffff16836040518363ffffffff1660e01b815260040161236f929190615bf1565b600060405180830381600087803b15801561238957600080fd5b505af115801561239d573d6000803e3d6000fd5b50505050600360009054906101000a900473ffffffffffffffffffffffffffffffffffffffff1673ffffffffffffffffffffffffffffffffffffffff166340c10f19600560009054906101000a900473ffffffffffffffffffffffffffffffffffffffff16846040518363ffffffff1660e01b8152600401612420929190615bf1565b600060405180830381600087803b15801561243a57600080fd5b505af115801561244e573d6000803e3d6000fd5b505050508364e8d4a51000836124649190615c1a565b61246e9190615c8b565b856003015461247d9190615ddc565b856003018190555042856002018190555050505050505b5050565b6002600154036124dd576040517f08c379a00000000000000000000000000000000000000000000000000000000081526004016124d490615aa4565b60405180910390fd5b6002600181905550600f60019054906101000a900460ff16612534576040517f08c379a000000000000000000000000000000000000000000000000000000000815260040161252b90616300565b60405180910390fd5b60006010828154811061254a57612549615b30565b5b9060005260206000209060050201905060006011600084815260200190815260200160002060003373ffffffffffffffffffffffffffffffffffffffff1673ffffffffffffffffffffffffffffffffffffffff16815260200190815260200160002090506000830361272e578060000154600560009054906101000a900473ffffffffffffffffffffffffffffffffffffffff1673ffffffffffffffffffffffffffffffffffffffff166370a08231336040518263ffffffff1660e01b81526004016126169190615676565b6020604051808303816000875af1158015612635573d6000803e3d6000fd5b505050506040513d601f19601f820116820180604052508101906126599190616287565b101561269a576040517f08c379a000000000000000000000000000000000000000000000000000000000815260040161269190616392565b60405180910390fd5b600560009054906101000a900473ffffffffffffffffffffffffffffffffffffffff1673ffffffffffffffffffffffffffffffffffffffff16639dc29fac3383600001546040518363ffffffff1660e01b81526004016126fb929190615bf1565b600060405180830381600087803b15801561271557600080fd5b505af1158015612729573d6000803e3d6000fd5b505050505b6127813382600001548460000160009054906101000a900473ffffffffffffffffffffffffffffffffffffffff1673ffffffffffffffffffffffffffffffffffffffff16614bd99092919063ffffffff16565b6000816000018190555060008160010181905550823373ffffffffffffffffffffffffffffffffffffffff167fbb757047c2b5f3974fe26b7c10f732e7bce710b0952a71082702781e62ae059583600001546040516127e091906152d1565b60405180910390a350506001808190555050565b600080600090505b838390508110156128475761282984848381811061281d5761281c615b30565b5b90506020020135612c02565b826128349190615ddc565b91508061284090615e47565b90506127fc565b5092915050565b6012546128628161285d61467e565b614686565b81600f60026101000a81548160ff0219169083151502179055505050565b600c5481565b600f60019054906101000a900460ff1681565b6000601080549050905060005b818110156128c8576128b7816120a0565b806128c190615e47565b90506128a6565b5050565b6000806011600085815260200190815260200160002060008473ffffffffffffffffffffffffffffffffffffffff1673ffffffffffffffffffffffffffffffffffffffff1681526020019081526020016000206040518060c001604052908160008201548152602001600182015481526020016002820154815260200160038201548152602001600482015481526020016005820154815250509050600061297385613e7a565b9050600082600001519050808261298a9190615c1a565b935050505092915050565b600f60009054906101000a900460ff166129e4576040517f08c379a00000000000000000000000000000000000000000000000000000000081526004016129db90615b10565b60405180910390fd5b826010805490508110612a2c576040517f08c379a0000000000000000000000000000000000000000000000000000000008152600401612a23906160b1565b60405180910390fd5b601354612a4081612a3b61467e565b614686565b8215612a4f57612a4e612899565b5b600060108681548110612a6557612a64615b30565b5b90600052602060002090600502016001015490508460108781548110612a8e57612a8d615b30565b5b906000526020600020906005020160010181905550848114612ad2578481600e54612ab99190615a13565b612ac39190615ddc565b600e81905550612ad1614c5f565b5b7fd88f859573973e938da5bf3e5100c16eee2090fa720e05ae3d452b4cd05cdcfd8686604051612b039291906158b1565b60405180910390a1505050505050565b600d5481565b600b5481565b6000806000612b36612b318787612e3a565b613c6f565b9050600060648286612b489190615c1a565b612b529190615c8b565b905060008186612b629190615a13565b9050818194509450505050935093915050565b600360009054906101000a900473ffffffffffffffffffffffffffffffffffffffff1681565b600760009054906101000a900473ffffffffffffffffffffffffffffffffffffffff1681565b60007f00000000000000000000000000000000000000000000000000000000000000008383612bf09190615a13565b612bfa9190615c1a565b905092915050565b60008060108381548110612c1957612c18615b30565b5b90600052602060002090600502016040518060a00160405290816000820160009054906101000a900473ffffffffffffffffffffffffffffffffffffffff1673ffffffffffffffffffffffffffffffffffffffff1673ffffffffffffffffffffffffffffffffffffffff16815260200160018201548152602001600282015481526020016003820154815260200160048201548152505090506000816000015173ffffffffffffffffffffffffffffffffffffffff166370a08231306040518263ffffffff1660e01b8152600401612cf19190615676565b602060405180830381865afa158015612d0e573d6000803e3d6000fd5b505050506040513d601f19601f82011682018060405250810190612d329190616287565b90506000612d3f85613e7a565b90508181612d4d9190615c1a565b9350505050919050565b600080600084815260200190815260200160002060000160008373ffffffffffffffffffffffffffffffffffffffff1673ffffffffffffffffffffffffffffffffffffffff16815260200190815260200160002060009054906101000a900460ff16905092915050565b6011602052816000526040600020602052806000526040600020600091509150508060000154908060010154908060020154908060030154908060040154908060050154905086565b6000620151808210612e2a576201518082612e259190615c8b565b612e2d565b60005b9050919050565b60095481565b600080612e4683613647565b9050600060108581548110612e5e57612e5d615b30565b5b90600052602060002090600502016040518060a00160405290816000820160009054906101000a900473ffffffffffffffffffffffffffffffffffffffff1673ffffffffffffffffffffffffffffffffffffffff1673ffffffffffffffffffffffffffffffffffffffff1681526020016001820154815260200160028201548152602001600382015481526020016004820154815250509050600081608001519050808310612f105760009350612f1f565b8281612f1c9190615a13565b93505b50505092915050565b600a5481565b6000801b81565b7f000000000000000000000000000000000000000000000000000000000000000081565b60008060108381548110612f7057612f6f615b30565b5b90600052602060002090600502016040518060a00160405290816000820160009054906101000a900473ffffffffffffffffffffffffffffffffffffffff1673ffffffffffffffffffffffffffffffffffffffff1673ffffffffffffffffffffffffffffffffffffffff168152602001600182015481526020016002820154815260200160038201548152602001600482015481525050905060006011600085815260200190815260200160002060003373ffffffffffffffffffffffffffffffffffffffff1673ffffffffffffffffffffffffffffffffffffffff1681526020019081526020016000206040518060c0016040529081600082015481526020016001820154815260200160028201548152602001600382015481526020016004820154815260200160058201548152505090506000826060015190506000836000015173ffffffffffffffffffffffffffffffffffffffff166370a08231306040518263ffffffff1660e01b81526004016130ec9190615676565b602060405180830381865afa158015613109573d6000803e3d6000fd5b505050506040513d601f19601f8201168201806040525081019061312d9190616287565b9050836040015142118015613143575060008114155b156131b4576000613158856040015142612bc1565b90506000600e548660200151600c54846131729190615c1a565b61317c9190615c1a565b6131869190615c8b565b90508264e8d4a510008261319a9190615c1a565b6131a49190615c8b565b846131af9190615ddc565b935050505b826020015164e8d4a510008385600001516131cf9190615c1a565b6131d99190615c8b565b6131e39190615a13565b945050505050919050565b601354613202816131fd61467e565b614686565b82600a5414158061321557508160095414155b613254576040517f08c379a000000000000000000000000000000000000000000000000000000000815260040161324b906163fe565b60405180910390fd5b82821015613297576040517f08c379a000000000000000000000000000000000000000000000000000000000815260040161328e9061646a565b60405180910390fd5b82600a81905550816009819055506132af8383614723565b7fb298bc23e07860d501fddce288f46d761aa04a0c7c3316099eb50f097aacf30483836040516132e09291906158b1565b60405180910390a1505050565b600f60029054906101000a900460ff1681565b6012546133148161330f61467e565b614686565b81600660006101000a81548173ffffffffffffffffffffffffffffffffffffffff021916908373ffffffffffffffffffffffffffffffffffffffff1602179055505050565b600080601084815481106133705761336f615b30565b5b90600052602060002090600502016040518060a00160405290816000820160009054906101000a900473ffffffffffffffffffffffffffffffffffffffff1673ffffffffffffffffffffffffffffffffffffffff1673ffffffffffffffffffffffffffffffffffffffff168152602001600182015481526020016002820154815260200160038201548152602001600482015481525050905060006011600086815260200190815260200160002060008573ffffffffffffffffffffffffffffffffffffffff1673ffffffffffffffffffffffffffffffffffffffff1681526020019081526020016000206040518060c0016040529081600082015481526020016001820154815260200160028201548152602001600382015481526020016004820154815260200160058201548152505090506000826060015190506000836000015173ffffffffffffffffffffffffffffffffffffffff166370a08231306040518263ffffffff1660e01b81526004016134ec9190615676565b602060405180830381865afa158015613509573d6000803e3d6000fd5b505050506040513d601f19601f8201168201806040525081019061352d9190616287565b9050836040015142118015613543575060008114155b156135b4576000613558856040015142612bc1565b90506000600e548660200151600c54846135729190615c1a565b61357c9190615c1a565b6135869190615c8b565b90508264e8d4a510008261359a9190615c1a565b6135a49190615c8b565b846135af9190615ddc565b935050505b826020015164e8d4a510008385600001516135cf9190615c1a565b6135d99190615c8b565b6135e39190615a13565b94505050505092915050565b601354613603816135fe61467e565b614686565b81600f60016101000a81548160ff0219169083151502179055505050565b600660009054906101000a900473ffffffffffffffffffffffffffffffffffffffff1681565b6000670de0b6b3a76400008261365d9190615c1a565b9050919050565b61366d826114eb565b61367e8161367961467e565b614686565b61368883836148a6565b505050565b7f000000000000000000000000000000000000000000000000000000000000000081565b600081036136c8576136c36000611772565b6136d4565b6136d38160006138d9565b5b50565b6012546136eb816136e661467e565b614686565b8273ffffffffffffffffffffffffffffffffffffffff16600860009054906101000a900473ffffffffffffffffffffffffffffffffffffffff1673ffffffffffffffffffffffffffffffffffffffff1614158061379657508173ffffffffffffffffffffffffffffffffffffffff16600760009054906101000a900473ffffffffffffffffffffffffffffffffffffffff1673ffffffffffffffffffffffffffffffffffffffff1614155b6137d5576040517f08c379a00000000000000000000000000000000000000000000000000000000081526004016137cc906164d6565b60405180910390fd5b82600860006101000a81548173ffffffffffffffffffffffffffffffffffffffff021916908373ffffffffffffffffffffffffffffffffffffffff16021790555081600760006101000a81548173ffffffffffffffffffffffffffffffffffffffff021916908373ffffffffffffffffffffffffffffffffffffffff1602179055507fd1c04282701cbf58aa2f0026f6876051cf3feb8ee7b8b5b5532ebb4ab03fb5d4600860009054906101000a900473ffffffffffffffffffffffffffffffffffffffff16600760009054906101000a900473ffffffffffffffffffffffffffffffffffffffff166040516138cc9291906164f6565b60405180910390a1505050565b60026001540361391e576040517f08c379a000000000000000000000000000000000000000000000000000000000815260040161391590615aa4565b60405180910390fd5b6002600181905550600f60009054906101000a900460ff16613975576040517f08c379a000000000000000000000000000000000000000000000000000000000815260040161396c90615b10565b60405180910390fd5b600f60029054906101000a900460ff16156139c5576040517f08c379a00000000000000000000000000000000000000000000000000000000081526004016139bc90616045565b60405180910390fd5b816010805490508110613a0d576040517f08c379a0000000000000000000000000000000000000000000000000000000008152600401613a04906160b1565b60405180910390fd5b60008303613a50576040517f08c379a0000000000000000000000000000000000000000000000000000000008152600401613a4790616591565b60405180910390fd5b600060108481548110613a6657613a65615b30565b5b9060005260206000209060050201905060006011600086815260200190815260200160002060003373ffffffffffffffffffffffffffffffffffffffff1673ffffffffffffffffffffffffffffffffffffffff1681526020019081526020016000209050613ad3856120a0565b600081600001541115613b04576000613aec8633613359565b90506000811115613b0257613b0133826144e9565b5b505b6000841115613bce578160000160009054906101000a900473ffffffffffffffffffffffffffffffffffffffff1673ffffffffffffffffffffffffffffffffffffffff166323b872dd3330876040518463ffffffff1660e01b8152600401613b6e93929190615e10565b6020604051808303816000875af1158015613b8d573d6000803e3d6000fd5b505050506040513d601f19601f82011682018060405250810190613bb19190615cd1565b5083816000016000828254613bc69190615ddc565b925050819055505b64e8d4a5100082600301548260000154613be89190615c1a565b613bf29190615c8b565b81600101819055506000816003015403613c10574281600301819055505b843373ffffffffffffffffffffffffffffffffffffffff167f36af321ec8d3c75236829c5317affd40ddb308863a1236d2d277a4025cccee1e8642604051613c599291906158b1565b60405180910390a3505050600180819055505050565b6000670de0b6b3a764000082613c859190615c8b565b9050919050565b60008060108481548110613ca357613ca2615b30565b5b90600052602060002090600502016040518060a00160405290816000820160009054906101000a900473ffffffffffffffffffffffffffffffffffffffff1673ffffffffffffffffffffffffffffffffffffffff1673ffffffffffffffffffffffffffffffffffffffff168152602001600182015481526020016002820154815260200160038201548152602001600482015481525050905060006011600086815260200190815260200160002060008573ffffffffffffffffffffffffffffffffffffffff1673ffffffffffffffffffffffffffffffffffffffff1681526020019081526020016000206040518060c0016040529081600082015481526020016001820154815260200160028201548152602001600382015481526020016004820154815260200160058201548152505090506000826000015173ffffffffffffffffffffffffffffffffffffffff166370a08231306040518263ffffffff1660e01b8152600401613e169190615676565b602060405180830381865afa158015613e33573d6000803e3d6000fd5b505050506040513d601f19601f82011682018060405250810190613e579190616287565b90506000826000015190508181613e6e9190615c8b565b94505050505092915050565b60008060108381548110613e9157613e90615b30565b5b90600052602060002090600502016040518060a00160405290816000820160009054906101000a900473ffffffffffffffffffffffffffffffffffffffff1673ffffffffffffffffffffffffffffffffffffffff1673ffffffffffffffffffffffffffffffffffffffff168152602001600182015481526020016002820154815260200160038201548152602001600482015481525050905060008160000151905060008403613fd357600660009054906101000a900473ffffffffffffffffffffffffffffffffffffffff1673ffffffffffffffffffffffffffffffffffffffff1663c399c7d96040518163ffffffff1660e01b8152600401602060405180830381865afa158015613fa8573d6000803e3d6000fd5b505050506040513d601f19601f82011682018060405250810190613fcc9190616287565b9250614072565b600660009054906101000a900473ffffffffffffffffffffffffffffffffffffffff1673ffffffffffffffffffffffffffffffffffffffff16630a6de2c9826040518263ffffffff1660e01b815260040161402e9190615676565b602060405180830381865afa15801561404b573d6000803e3d6000fd5b505050506040513d601f19601f8201168201806040525081019061406f9190616287565b92505b5050919050565b60125461408d8161408861467e565b614686565b8273ffffffffffffffffffffffffffffffffffffffff16600260009054906101000a900473ffffffffffffffffffffffffffffffffffffffff1673ffffffffffffffffffffffffffffffffffffffff1614158061413857508173ffffffffffffffffffffffffffffffffffffffff16600460009054906101000a900473ffffffffffffffffffffffffffffffffffffffff1673ffffffffffffffffffffffffffffffffffffffff1614155b614177576040517f08c379a000000000000000000000000000000000000000000000000000000000815260040161416e906165fd565b60405180910390fd5b82600260006101000a81548173ffffffffffffffffffffffffffffffffffffffff021916908373ffffffffffffffffffffffffffffffffffffffff16021790555082600360006101000a81548173ffffffffffffffffffffffffffffffffffffffff021916908373ffffffffffffffffffffffffffffffffffffffff16021790555081600460006101000a81548173ffffffffffffffffffffffffffffffffffffffff021916908373ffffffffffffffffffffffffffffffffffffffff16021790555081600560006101000a81548173ffffffffffffffffffffffffffffffffffffffff021916908373ffffffffffffffffffffffffffffffffffffffff1602179055507fdcc6331013de89f8c595d5328f0a724194f113cb6f8f2a707b3dff6de13f0d1783836040516142ac9291906164f6565b60405180910390a1505050565b60125481565b6000806011600085815260200190815260200160002060008473ffffffffffffffffffffffffffffffffffffffff1673ffffffffffffffffffffffffffffffffffffffff1681526020019081526020016000206040518060c001604052908160008201548152602001600182015481526020016002820154815260200160038201548152602001600482015481526020016005820154815250509050600081604001511461437f578060400151426143779190615a13565b915081614393565b80606001514261438f9190615a13565b9150815b505092915050565b6000806143a88484613359565b90506000600660009054906101000a900473ffffffffffffffffffffffffffffffffffffffff1673ffffffffffffffffffffffffffffffffffffffff1663c399c7d96040518163ffffffff1660e01b8152600401602060405180830381865afa158015614419573d6000803e3d6000fd5b505050506040513d601f19601f8201168201806040525081019061443d9190616287565b9050808261444b9190615c1a565b9250505092915050565b7f000000000000000000000000000000000000000000000000000000000000000081565b60135481565b60007f01ffc9a7000000000000000000000000000000000000000000000000000000007bffffffffffffffffffffffffffffffffffffffffffffffffffffffff1916827bffffffffffffffffffffffffffffffffffffffffffffffffffffffff1916149050919050565b80600560009054906101000a900473ffffffffffffffffffffffffffffffffffffffff1673ffffffffffffffffffffffffffffffffffffffff166370a08231600260009054906101000a900473ffffffffffffffffffffffffffffffffffffffff166040518263ffffffff1660e01b81526004016145679190615676565b6020604051808303816000875af1158015614586573d6000803e3d6000fd5b505050506040513d601f19601f820116820180604052508101906145aa9190616287565b10156145eb576040517f08c379a00000000000000000000000000000000000000000000000000000000081526004016145e29061668f565b60405180910390fd5b600560009054906101000a900473ffffffffffffffffffffffffffffffffffffffff1673ffffffffffffffffffffffffffffffffffffffff1663b2a142aa83836040518363ffffffff1660e01b8152600401614648929190615bf1565b600060405180830381600087803b15801561466257600080fd5b505af1158015614676573d6000803e3d6000fd5b505050505050565b600033905090565b6146908282612d57565b61471f576146b58173ffffffffffffffffffffffffffffffffffffffff166014614d4a565b6146c38360001c6020614d4a565b6040516020016146d49291906167b8565b6040516020818303038152906040526040517f08c379a0000000000000000000000000000000000000000000000000000000008152600401614716919061683c565b60405180910390fd5b5050565b60008161472f84613647565b6147399190615c8b565b90507f0000000000000000000000000000000000000000000000000000000000000000816147679190615c1a565b600b8190555062015180600b5461477e9190615c8b565b600c819055507fcd7c861d63893659123f817b192b8621ff1923a7c4589c260173cedcf9e986a6600b54600c546040516147b99291906158b1565b60405180910390a1505050565b6147d08282612d57565b6148a257600160008084815260200190815260200160002060000160008373ffffffffffffffffffffffffffffffffffffffff1673ffffffffffffffffffffffffffffffffffffffff16815260200190815260200160002060006101000a81548160ff02191690831515021790555061484761467e565b73ffffffffffffffffffffffffffffffffffffffff168173ffffffffffffffffffffffffffffffffffffffff16837f2f8788117e7eff1d82e926ec794901d17c78024a50270940304540a733656f0d60405160405180910390a45b5050565b6148b08282612d57565b1561498357600080600084815260200190815260200160002060000160008373ffffffffffffffffffffffffffffffffffffffff1673ffffffffffffffffffffffffffffffffffffffff16815260200190815260200160002060006101000a81548160ff02191690831515021790555061492861467e565b73ffffffffffffffffffffffffffffffffffffffff168173ffffffffffffffffffffffffffffffffffffffff16837ff6391f5c32d9c69d2a47ea670b442974b53935d1edc7fd64eb21e047a839171b60405160405180910390a45b5050565b6000601080549050905060005b81811015614a60578273ffffffffffffffffffffffffffffffffffffffff16601082815481106149c7576149c6615b30565b5b906000526020600020906005020160000160009054906101000a900473ffffffffffffffffffffffffffffffffffffffff1673ffffffffffffffffffffffffffffffffffffffff1603614a4f576040517f08c379a0000000000000000000000000000000000000000000000000000000008152600401614a46906168aa565b60405180910390fd5b80614a5990615e47565b9050614994565b505050565b8115614a7457614a73612899565b5b83600e6000828254614a869190615ddc565b9250508190555060106040518060a001604052808573ffffffffffffffffffffffffffffffffffffffff168152602001868152602001600d544211614acd57600d54614acf565b425b815260200160008152602001614ae484613647565b815250908060018154018082558091505060019003906000526020600020906005020160009091909190915060008201518160000160006101000a81548173ffffffffffffffffffffffffffffffffffffffff021916908373ffffffffffffffffffffffffffffffffffffffff160217905550602082015181600101556040820151816002015560608201518160030155608082015181600401555050614b89614c5f565b600060108054905090507f20b669aa921947a6d9602a921d2db3b6b30f21b9aca98580fa3972530330b27a818686600e54604051614bca94939291906168ca565b60405180910390a15050505050565b614c5a8363a9059cbb60e01b8484604051602401614bf8929190615bf1565b604051602081830303815290604052907bffffffffffffffffffffffffffffffffffffffffffffffffffffffff19166020820180517bffffffffffffffffffffffffffffffffffffffffffffffffffffffff8381831617835250505050614f86565b505050565b60006010805490509050600080600190505b82811015614cbd5760108181548110614c8d57614c8c615b30565b5b90600052602060002090600502016001015482614caa9190615ddc565b915080614cb690615e47565b9050614c71565b5060008114614d4657600381614cd39190615c8b565b9050806010600081548110614ceb57614cea615b30565b5b906000526020600020906005020160010154600e54614d0a9190615a13565b614d149190615ddc565b600e81905550806010600081548110614d3057614d2f615b30565b5b9060005260206000209060050201600101819055505b5050565b606060006002836002614d5d9190615c1a565b614d679190615ddc565b67ffffffffffffffff811115614d8057614d7f61690f565b5b6040519080825280601f01601f191660200182016040528015614db25781602001600182028036833780820191505090505b5090507f300000000000000000000000000000000000000000000000000000000000000081600081518110614dea57614de9615b30565b5b60200101907effffffffffffffffffffffffffffffffffffffffffffffffffffffffffffff1916908160001a9053507f780000000000000000000000000000000000000000000000000000000000000081600181518110614e4e57614e4d615b30565b5b60200101907effffffffffffffffffffffffffffffffffffffffffffffffffffffffffffff1916908160001a90535060006001846002614e8e9190615c1a565b614e989190615ddc565b90505b6001811115614f38577f3031323334353637383961626364656600000000000000000000000000000000600f861660108110614eda57614ed9615b30565b5b1a60f81b828281518110614ef157614ef0615b30565b5b60200101907effffffffffffffffffffffffffffffffffffffffffffffffffffffffffffff1916908160001a905350600485901c945080614f319061693e565b9050614e9b565b5060008414614f7c576040517f08c379a0000000000000000000000000000000000000000000000000000000008152600401614f73906169b3565b60405180910390fd5b8091505092915050565b6000614fe8826040518060400160405280602081526020017f5361666545524332303a206c6f772d6c6576656c2063616c6c206661696c65648152508573ffffffffffffffffffffffffffffffffffffffff1661504d9092919063ffffffff16565b905060008151111561504857808060200190518101906150089190615cd1565b615047576040517f08c379a000000000000000000000000000000000000000000000000000000000815260040161503e90616a45565b60405180910390fd5b5b505050565b606061505c8484600085615065565b90509392505050565b6060824710156150aa576040517f08c379a00000000000000000000000000000000000000000000000000000000081526004016150a190616ad7565b60405180910390fd5b6150b385615179565b6150f2576040517f08c379a00000000000000000000000000000000000000000000000000000000081526004016150e990616b43565b60405180910390fd5b6000808673ffffffffffffffffffffffffffffffffffffffff16858760405161511b9190616baa565b60006040518083038185875af1925050503d8060008114615158576040519150601f19603f3d011682016040523d82523d6000602084013e61515d565b606091505b509150915061516d82828661518c565b92505050949350505050565b600080823b905060008111915050919050565b6060831561519c578290506151ec565b6000835111156151af5782518084602001fd5b816040517f08c379a00000000000000000000000000000000000000000000000000000000081526004016151e3919061683c565b60405180910390fd5b9392505050565b600080fd5b600080fd5b60007fffffffff0000000000000000000000000000000000000000000000000000000082169050919050565b615232816151fd565b811461523d57600080fd5b50565b60008135905061524f81615229565b92915050565b60006020828403121561526b5761526a6151f3565b5b600061527984828501615240565b91505092915050565b60008115159050919050565b61529781615282565b82525050565b60006020820190506152b2600083018461528e565b92915050565b6000819050919050565b6152cb816152b8565b82525050565b60006020820190506152e660008301846152c2565b92915050565b6152f5816152b8565b811461530057600080fd5b50565b600081359050615312816152ec565b92915050565b60006020828403121561532e5761532d6151f3565b5b600061533c84828501615303565b91505092915050565b600073ffffffffffffffffffffffffffffffffffffffff82169050919050565b6000819050919050565b600061538a61538561538084615345565b615365565b615345565b9050919050565b600061539c8261536f565b9050919050565b60006153ae82615391565b9050919050565b6153be816153a3565b82525050565b600060a0820190506153d960008301886153b5565b6153e660208301876152c2565b6153f360408301866152c2565b61540060608301856152c2565b61540d60808301846152c2565b9695505050505050565b600061542282615345565b9050919050565b61543281615417565b811461543d57600080fd5b50565b60008135905061544f81615429565b92915050565b60008060006060848603121561546e5761546d6151f3565b5b600061547c86828701615440565b935050602061548d86828701615440565b925050604061549e86828701615303565b9150509250925092565b6000819050919050565b6154bb816154a8565b81146154c657600080fd5b50565b6000813590506154d8816154b2565b92915050565b6000602082840312156154f4576154f36151f3565b5b6000615502848285016154c9565b91505092915050565b615514816154a8565b82525050565b600060208201905061552f600083018461550b565b92915050565b600080fd5b600080fd5b600080fd5b60008083601f84011261555a57615559615535565b5b8235905067ffffffffffffffff8111156155775761557661553a565b5b6020830191508360208202830111156155935761559261553f565b5b9250929050565b600080602083850312156155b1576155b06151f3565b5b600083013567ffffffffffffffff8111156155cf576155ce6151f8565b5b6155db85828601615544565b92509250509250929050565b600080604083850312156155fe576155fd6151f3565b5b600061560c858286016154c9565b925050602061561d85828601615440565b9150509250929050565b6000806040838503121561563e5761563d6151f3565b5b600061564c85828601615303565b925050602061565d85828601615303565b9150509250929050565b61567081615417565b82525050565b600060208201905061568b6000830184615667565b92915050565b600061569c82615391565b9050919050565b6156ac81615691565b82525050565b60006020820190506156c760008301846156a3565b92915050565b60006156d882615417565b9050919050565b6156e8816156cd565b81146156f357600080fd5b50565b600081359050615705816156df565b92915050565b61571481615282565b811461571f57600080fd5b50565b6000813590506157318161570b565b92915050565b60008060008060808587031215615751576157506151f3565b5b600061575f87828801615303565b9450506020615770878288016156f6565b935050604061578187828801615722565b925050606061579287828801615303565b91505092959194509250565b6000602082840312156157b4576157b36151f3565b5b60006157c284828501615722565b91505092915050565b600080604083850312156157e2576157e16151f3565b5b60006157f085828601615303565b925050602061580185828601615440565b9150509250929050565b600080600060608486031215615824576158236151f3565b5b600061583286828701615303565b935050602061584386828701615303565b925050604061585486828701615722565b9150509250925092565b600080600060608486031215615877576158766151f3565b5b600061588586828701615303565b935050602061589686828701615303565b92505060406158a786828701615303565b9150509250925092565b60006040820190506158c660008301856152c2565b6158d360208301846152c2565b9392505050565b600060c0820190506158ef60008301896152c2565b6158fc60208301886152c2565b61590960408301876152c2565b61591660608301866152c2565b61592360808301856152c2565b61593060a08301846152c2565b979650505050505050565b600060208284031215615951576159506151f3565b5b600061595f84828501615440565b91505092915050565b600061597382615391565b9050919050565b61598381615968565b82525050565b600060208201905061599e600083018461597a565b92915050565b600080604083850312156159bb576159ba6151f3565b5b60006159c985828601615440565b92505060206159da85828601615440565b9150509250929050565b7f4e487b7100000000000000000000000000000000000000000000000000000000600052601160045260246000fd5b6000615a1e826152b8565b9150615a29836152b8565b9250828203905081811115615a4157615a406159e4565b5b92915050565b600082825260208201905092915050565b7f5265656e7472616e637947756172643a207265656e7472616e742063616c6c00600082015250565b6000615a8e601f83615a47565b9150615a9982615a58565b602082019050919050565b60006020820190508181036000830152615abd81615a81565b9050919050565b7f726577617264732068617665206e6f742079657420626567756e2e0000000000600082015250565b6000615afa601b83615a47565b9150615b0582615ac4565b602082019050919050565b60006020820190508181036000830152615b2981615aed565b9050919050565b7f4e487b7100000000000000000000000000000000000000000000000000000000600052603260045260246000fd5b7f726571756573746564207769746864726177616c20657863656564732073746160008201527f6b65642062616c616e6365000000000000000000000000000000000000000000602082015250565b6000615bbb602b83615a47565b9150615bc682615b5f565b604082019050919050565b60006020820190508181036000830152615bea81615bae565b9050919050565b6000604082019050615c066000830185615667565b615c1360208301846152c2565b9392505050565b6000615c25826152b8565b9150615c30836152b8565b9250828202615c3e816152b8565b91508282048414831517615c5557615c546159e4565b5b5092915050565b7f4e487b7100000000000000000000000000000000000000000000000000000000600052601260045260246000fd5b6000615c96826152b8565b9150615ca1836152b8565b925082615cb157615cb0615c5c565b5b828204905092915050565b600081519050615ccb8161570b565b92915050565b600060208284031215615ce757615ce66151f3565b5b6000615cf584828501615cbc565b91505092915050565b6000819050919050565b6000615d23615d1e615d1984615cfe565b615365565b6152b8565b9050919050565b615d3381615d08565b82525050565b6000606082019050615d4e60008301866152c2565b615d5b6020830185615d2a565b615d6860408301846152c2565b949350505050565b7f72657761726473206861766520616c726561647920626567756e000000000000600082015250565b6000615da6601a83615a47565b9150615db182615d70565b602082019050919050565b60006020820190508181036000830152615dd581615d99565b9050919050565b6000615de7826152b8565b9150615df2836152b8565b9250828201905080821115615e0a57615e096159e4565b5b92915050565b6000606082019050615e256000830186615667565b615e326020830185615667565b615e3f60408301846152c2565b949350505050565b6000615e52826152b8565b91507fffffffffffffffffffffffffffffffffffffffffffffffffffffffffffffffff8203615e8457615e836159e4565b5b600182019050919050565b7f6d7573742062652061206e65772076616c756500000000000000000000000000600082015250565b6000615ec5601383615a47565b9150615ed082615e8f565b602082019050919050565b60006020820190508181036000830152615ef481615eb8565b9050919050565b7f6578636565647320616c6c6f7761626c65206665654461797300000000000000600082015250565b6000615f31601983615a47565b9150615f3c82615efb565b602082019050919050565b60006020820190508181036000830152615f6081615f24565b9050919050565b7f416363657373436f6e74726f6c3a2063616e206f6e6c792072656e6f756e636560008201527f20726f6c657320666f722073656c660000000000000000000000000000000000602082015250565b6000615fc3602f83615a47565b9150615fce82615f67565b604082019050919050565b60006020820190508181036000830152615ff281615fb6565b9050919050565b7f636f6e74726163742069732063757272656e746c792070617573656400000000600082015250565b600061602f601c83615a47565b915061603a82615ff9565b602082019050919050565b6000602082019050818103600083015261605e81616022565b9050919050565b7f706f6f6c20646f6573206e6f7420657869737400000000000000000000000000600082015250565b600061609b601383615a47565b91506160a682616065565b602082019050919050565b600060208201905081810360008301526160ca8161608e565b9050919050565b7f776974686472617720534f554c20627920756e7374616b696e6720286c65617660008201527f655374616b696e67290000000000000000000000000000000000000000000000602082015250565b600061612d602983615a47565b9150616138826160d1565b604082019050919050565b6000602082019050818103600083015261615c81616120565b9050919050565b7f63616e6e6f74207769746864726177207a65726f000000000000000000000000600082015250565b6000616199601483615a47565b91506161a482616163565b602082019050919050565b600060208201905081810360008301526161c88161618c565b9050919050565b7f7769746864726177616c2065786365656473206465706f736974000000000000600082015250565b6000616205601a83615a47565b9150616210826161cf565b602082019050919050565b60006020820190508181036000830152616234816161f8565b9050919050565b600060608201905061625060008301866152c2565b61625d60208301856152c2565b61626a60408301846152c2565b949350505050565b600081519050616281816152ec565b92915050565b60006020828403121561629d5761629c6151f3565b5b60006162ab84828501616272565b91505092915050565b7f656d657267656e6379206d6f6465206973206e6f74206163746976652e000000600082015250565b60006162ea601d83615a47565b91506162f5826162b4565b602082019050919050565b60006020820190508181036000830152616319816162dd565b9050919050565b7f696e73756666696369656e74205345414e434520746f20636f76657220534f5560008201527f4c207769746864726177616c2072657175657374000000000000000000000000602082015250565b600061637c603483615a47565b915061638782616320565b604082019050919050565b600060208201905081810360008301526163ab8161636f565b9050919050565b7f6d75737420696e636c7564652061206e65772076616c75650000000000000000600082015250565b60006163e8601883615a47565b91506163f3826163b2565b602082019050919050565b60006020820190508181036000830152616417816163db565b9050919050565b7f7765696768742063616e6e6f742065786365656420746f74616c576569676874600082015250565b6000616454602083615a47565b915061645f8261641e565b602082019050919050565b6000602082019050818103600083015261648381616447565b9050919050565b7f6d75737420696e636c7564652061206e6577206163636f756e74000000000000600082015250565b60006164c0601a83615a47565b91506164cb8261648a565b602082019050919050565b600060208201905081810360008301526164ef816164b3565b9050919050565b600060408201905061650b6000830185615667565b6165186020830184615667565b9392505050565b7f6465706f73697420534f554c206279207374616b696e672028656e746572537460008201527f616b696e67290000000000000000000000000000000000000000000000000000602082015250565b600061657b602683615a47565b91506165868261651f565b604082019050919050565b600060208201905081810360008301526165aa8161656e565b9050919050565b7f6d7573742062652061206e657720746f6b656e20616464726573730000000000600082015250565b60006165e7601b83615a47565b91506165f2826165b1565b602082019050919050565b60006020820190508181036000830152616616816165da565b9050919050565b7f696e73756666696369656e7420636f76657261676520666f722072657175657360008201527f74656420534f554c2066726f6d205345414e4345000000000000000000000000602082015250565b6000616679603483615a47565b91506166848261661d565b604082019050919050565b600060208201905081810360008301526166a88161666c565b9050919050565b600081905092915050565b7f416363657373436f6e74726f6c3a206163636f756e7420000000000000000000600082015250565b60006166f06017836166af565b91506166fb826166ba565b601782019050919050565b600081519050919050565b60005b8381101561672f578082015181840152602081019050616714565b60008484015250505050565b600061674682616706565b61675081856166af565b9350616760818560208601616711565b80840191505092915050565b7f206973206d697373696e6720726f6c6520000000000000000000000000000000600082015250565b60006167a26011836166af565b91506167ad8261676c565b601182019050919050565b60006167c3826166e3565b91506167cf828561673b565b91506167da82616795565b91506167e6828461673b565b91508190509392505050565b6000601f19601f8301169050919050565b600061680e82616706565b6168188185615a47565b9350616828818560208601616711565b616831816167f2565b840191505092915050565b600060208201905081810360008301526168568184616803565b905092915050565b7f6475706c69636174656420706f6f6c0000000000000000000000000000000000600082015250565b6000616894600f83615a47565b915061689f8261685e565b602082019050919050565b600060208201905081810360008301526168c381616887565b9050919050565b60006080820190506168df60008301876152c2565b6168ec60208301866152c2565b6168f960408301856153b5565b61690660608301846152c2565b95945050505050565b7f4e487b7100000000000000000000000000000000000000000000000000000000600052604160045260246000fd5b6000616949826152b8565b91506000820361695c5761695b6159e4565b5b600182039050919050565b7f537472696e67733a20686578206c656e67746820696e73756666696369656e74600082015250565b600061699d602083615a47565b91506169a882616967565b602082019050919050565b600060208201905081810360008301526169cc81616990565b9050919050565b7f5361666545524332303a204552433230206f7065726174696f6e20646964206e60008201527f6f74207375636365656400000000000000000000000000000000000000000000602082015250565b6000616a2f602a83615a47565b9150616a3a826169d3565b604082019050919050565b60006020820190508181036000830152616a5e81616a22565b9050919050565b7f416464726573733a20696e73756666696369656e742062616c616e636520666f60008201527f722063616c6c0000000000000000000000000000000000000000000000000000602082015250565b6000616ac1602683615a47565b9150616acc82616a65565b604082019050919050565b60006020820190508181036000830152616af081616ab4565b9050919050565b7f416464726573733a2063616c6c20746f206e6f6e2d636f6e7472616374000000600082015250565b6000616b2d601d83615a47565b9150616b3882616af7565b602082019050919050565b60006020820190508181036000830152616b5c81616b20565b9050919050565b600081519050919050565b600081905092915050565b6000616b8482616b63565b616b8e8185616b6e565b9350616b9e818560208601616711565b80840191505092915050565b6000616bb68284616b79565b91508190509291505056fea2646970667358221220f189a064fe4c9597635b6996efb09bb60de08daf2638de7fd3be14f101b1fd1964736f6c63430008110033",
  "immutableReferences": {
    "33056": [
      {
        "length": 32,
        "start": 5388
      },
      {
        "length": 32,
        "start": 18237
      }
    ],
    "33067": [
      {
        "length": 32,
        "start": 11205
      },
      {
        "length": 32,
        "start": 12087
      }
    ],
    "33072": [
      {
        "length": 32,
        "start": 17495
      }
    ],
    "33077": [
      {
        "length": 32,
        "start": 5681
      },
      {
        "length": 32,
        "start": 13967
      }
    ]
  },
  "source": "// SPDX-License-Identifier: MIT\n\npragma solidity >=0.8.0;\nimport '@openzeppelin/contracts/access/AccessControl.sol';\nimport '@openzeppelin/contracts/security/ReentrancyGuard.sol';\nimport '@openzeppelin/contracts/token/ERC20/IERC20.sol';\nimport '../libraries/SafeERC20.sol';\nimport '../interfaces/IToken.sol';\n\ninterface ICalculator {\n    function getTokenPrice(address tokenAddress) external view returns (uint tokenPrice);\n    function getSoulPrice() external view returns (uint soulPrice);\n    function getPoolPrice(address poolAddress) external view returns (uint poolPrice);\n    function getPendingRewardsValue(uint pid, address userAddress) external view returns (uint pendingValue);\n    function getNativePrice() external view returns (uint nativePrice);\n    function getPooledValue(uint pid, address lpAddress) external view returns (uint value);\n}\n\n// summoner of souls | ownership transferred to a governance smart contract \n// upon sufficient distribution + the community's desire to self-govern.\n// Enchantress: @0xBuns\n\ncontract SoulSummonerAvalancheExt is AccessControl, ReentrancyGuard {\n    using SafeERC20 for IERC20;\n\n    // user info\n    struct Users {\n        uint amount;            // deposited amount.\n        uint rewardDebt;        // reward debt (see: pendingSoul).\n        uint withdrawalTime;    // last withdrawal time.\n        uint depositTime;       // first deposit time.\n        uint timeDelta;         // seconds accounted for in fee calculation.\n        uint deltaDays;         // days accounted for in fee calculation\n\n        // the following occurs when a user +/- tokens to a pool:\n        //   1. pool: `accSoulPerShare` and `lastRewardTime` update.\n        //   2. user: receives pending reward.\n        //   3. user: `amount` updates(+/-).\n        //   4. user: `rewardDebt` updates (+/-).\n    }\n\n    // pool info\n    struct Pools {\n        IERC20 lpToken;       // lp token contract.\n        uint allocPoint;      // allocation points, which determines SOUL distribution per second.\n        uint lastRewardTime;  // latest SOUL distribution in the pool.\n        uint accSoulPerShare; // accumulated SOUL per share (times 1e12).\n        uint feeDays;         // days during which a fee applies (aka startRate or feeDuration).\n    }\n\n    // soul power: our native utility token\n    address private soulAddress;\n    IToken public soul;\n    \n    // seance circle: our governance token\n    address private seanceAddress;\n    IToken public seance;\n\n    // price calculator\n    ICalculator public calculator;\n\n    address public team;        // receives 1/8 supply\n    address public dao;         // recieves 1/8 supply\n\n    // rewarder variables: used to calculate share of overall emissions.\n    uint public totalWeight;\n    uint public weight;\n\n    // global daily SOUL\n    uint public immutable globalDailySoul = 250_000;\n\n    // local daily SOUL\n    uint public dailySoul; // = weight * globalDailySoul * 1e18;\n    // rewards per second for this rewarder\n    uint public soulPerSecond; // = dailySoul / 86400;\n\n    // marks the beginning of soul rewards.\n    uint public startTime;\n\n    // total allocation points: must be the sum of all allocation points\n    uint public totalAllocPoint;\n\n    // bonus muliplier\n    uint public immutable bonusMultiplier = 1;\n\n    // decay rate on withdrawal fee of 1%.\n    uint public immutable dailyDecay = enWei(1);\n    \n    // limits the maximum days to wait for a fee-less withdrawal.\n    uint public immutable maxFeeDays = enWei(100);\n\n    // initialization state\n    bool public isInitialized;\n    \n    // emergency state\n    bool public isEmergency;\n\n    // pause state\n    bool public isPaused;\n\n    // pool info\n    Pools[] public poolInfo;\n\n    // user info\n    mapping (uint => mapping (address => Users)) public userInfo;\n\n    // divine roles\n    bytes32 public isis; // soul summoning goddess of magic\n    bytes32 public maat; // goddess of cosmic order\n\n    // restricts: function to the council of the role passed as an object to obey (role)\n    modifier obey(bytes32 role) {\n        _checkRole(role, _msgSender());\n        _;\n    }\n\n    // prevents: early reward distribution\n    modifier isSummoned {\n        require(isInitialized, 'rewards have not yet begun.');\n        _;\n    }\n   \n    // controls: emergencyWithdrawals\n    modifier emergencyActive {\n        require(isEmergency, 'emergency mode is not active.');\n        _;\n    }\n\n    // controls: deposits\n    modifier isActive {\n        require(!isPaused, 'contract is currently paused');\n        _;\n    }\n\n    // validates: pool exists\n    modifier validatePoolByPid(uint pid) {\n        require(pid < poolInfo.length, 'pool does not exist');\n        _;\n    }\n\n    /*/ events /*/\n    event Deposit(address indexed user, uint indexed pid, uint amount, uint timestamp);\n    event Withdraw(address indexed user, uint indexed pid, uint amount, uint feeAmount, uint timeStamp);\n    event Initialized(address soulAddress, address seanceAddress, uint weight);\n    event PoolAdded(uint pid, uint allocPoint, IERC20 lpToken, uint totalAllocPoint);\n    event PoolSet(uint pid, uint allocPoint);\n    event WeightUpdated(uint weight, uint totalWeight);\n    event RewardsUpdated(uint dailySoul, uint soulPerSecond);\n    event FeeDaysUpdated(uint pid, uint feeDays);\n    event AccountsUpdated(address dao, address team);\n    event TokensUpdated(address soul, address seance);\n    event DepositRevised(uint pid, address account, uint timestamp);\n    event EmergencyWithdraw(address indexed user, uint indexed pid, uint amount);\n\n    // channels the power of isis & ma'at\n    constructor() {\n        address supreme = msg.sender;\n        team = supreme;\n        dao = supreme;\n\n        isis = keccak256(\"isis\"); // goddess of magic who creates pools\n        maat = keccak256(\"maat\"); // goddess of cosmic order who allocates emissions\n\n        _divinationCeremony(DEFAULT_ADMIN_ROLE, DEFAULT_ADMIN_ROLE, supreme);\n        _divinationCeremony(isis, isis, supreme); // isis role created -- supreme divined admin\n        _divinationCeremony(maat, isis, supreme); // maat role created -- isis divined admin\n    } \n\n    function _divinationCeremony(bytes32 _role, bytes32 _adminRole, address _account) internal returns (bool) {\n            _setupRole(_role, _account);\n            _setRoleAdmin(_role, _adminRole);\n        return true;\n    }\n\n    // validates: pool uniqueness to eliminate duplication risk (internal view)\n    function checkPoolDuplicate(IERC20 _token) internal view {\n        uint length = poolInfo.length;\n\n        for (uint pid = 0; pid < length; ++pid) {\n            require(poolInfo[pid].lpToken != _token, 'duplicated pool');\n        }\n    }\n\n    // activates: rewards (isis)\n    function initialize(address _soulAddress, address _seanceAddress, uint _weight) external obey(isis) {\n        // checks: rewards have not already begun\n        require(!isInitialized, 'rewards have already begun');\n\n        // sets: times & weights\n        startTime = block.timestamp;\n        totalWeight = 1_000;\n        weight = _weight;\n\n        // sets: tokens\n        soulAddress = _soulAddress;\n        seanceAddress = _seanceAddress;\n        soul  = IToken(_soulAddress);\n        seance = IToken(_seanceAddress);\n\n        // updates: dailySoul and soulPerSecond\n        updateRewards(weight, totalWeight); \n\n        // adds: staking pool (allocation: 1,000 & withdrawFee: 0).\n        poolInfo.push(Pools({\n            lpToken: IERC20(_soulAddress),\n            allocPoint: 1_000,\n            lastRewardTime: startTime,\n            accSoulPerShare: 0,\n            feeDays: 0\n        }));\n        \n        // triggers: initialization\n        isInitialized = true;\n\n        // sets: total allocation point.\n        totalAllocPoint += 1_000;\n\n        emit Initialized(_soulAddress, _seanceAddress, _weight);\n    }\n\n    // enables: panic button (ma'at)\n    function toggleEmergency(bool enabled) external obey(maat) {\n        isEmergency = enabled;\n    }\n\n    // toggles: pause state (isis)\n    function togglePause(bool enabled) external obey(isis) {\n        isPaused = enabled;\n    }\n\n    // returns: amount of pools\n    function poolLength() external view returns (uint) { return poolInfo.length; }\n\n    // add: new pool created by the soul summoning goddess whose power transcends all (isis)\n    function addPool(uint _allocPoint, IERC20 _lpToken, bool _withUpdate, uint _feeDays) public isSummoned obey(isis) { \n            checkPoolDuplicate(_lpToken);\n\n            _addPool(_allocPoint, _lpToken, _withUpdate, _feeDays);\n    }\n\n    // add: pool\n    function _addPool(uint _allocPoint, IERC20 _lpToken, bool _withUpdate, uint _feeDays) internal {\n        if (_withUpdate) { massUpdatePools(); }\n\n        totalAllocPoint += _allocPoint;\n\n        poolInfo.push(\n        Pools({\n            lpToken: _lpToken,\n            allocPoint: _allocPoint,\n            lastRewardTime: block.timestamp > startTime ? block.timestamp : startTime,\n            accSoulPerShare: 0,\n            feeDays: enWei(_feeDays)\n        }));\n        \n        updateStakingPool();\n        uint pid = poolInfo.length;\n\n        emit PoolAdded(pid, _allocPoint, _lpToken, totalAllocPoint);\n    }\n\n    // set: allocation points (ma'at)\n    function set(uint pid, uint allocPoint, bool withUpdate) external isSummoned validatePoolByPid(pid) obey(maat) {\n            // [if] withUpdate, [then] execute mass pool update.\n            if (withUpdate) { massUpdatePools(); }\n            \n            // gets: previous allocation point & sets new allocation point\n            uint prevAllocPoint = poolInfo[pid].allocPoint;\n            poolInfo[pid].allocPoint = allocPoint;\n            \n            if (prevAllocPoint != allocPoint) {\n                totalAllocPoint = totalAllocPoint - prevAllocPoint + allocPoint;\n                \n                updateStakingPool(); // updates selected pool (only)\n        }\n\n        emit PoolSet(pid, allocPoint);\n    }\n\n    // view: user delta is the time since user either last withdrew OR first deposited.\n\tfunction userDelta(uint pid, address _user) public view returns (uint delta) {\n        // grabs the stored user data for the pool\n        Users memory user = userInfo[pid][_user];\n\n        // if user has never withdrawn\n        user.withdrawalTime == 0 \n            // then use the time since their first deposit\n            ? delta = block.timestamp - user.depositTime\n            // else, use the time since the last withdrawal\n            : delta = block.timestamp - user.withdrawalTime;\n\n        return delta;\n\t}\n\n    // view: user delta is the time since user either last withdrew OR first deposited.\n\tfunction userDelta(uint pid) public view returns (uint delta) {\n        // grabs the stored user data for the pool\n        Users memory user = userInfo[pid][msg.sender];\n\n        // if user has never withdrawn\n        user.withdrawalTime == 0 \n            // then use the time since their first deposit\n            ? delta = block.timestamp - user.depositTime\n            // else, use the time since the last withdrawal\n            : delta = block.timestamp - user.withdrawalTime;\n\n        return delta;  \n\t}\n\n    // returns: multiplier during a period.\n    function getMultiplier(uint from, uint to) public pure returns (uint) {\n        return (to - from) * bonusMultiplier;\n    }\n\n    // gets: days based off a given timeDelta (seconds).\n    function getDeltaDays(uint timeDelta) public pure returns (uint deltaDays) {\n        deltaDays = timeDelta < 1 days ? 0 : timeDelta / 1 days;\n        return deltaDays;     \n    }\n\n    // returns: fee rate for a given pid and timeDelta.\n    function getFeeRate(uint pid, uint deltaDays) public view returns (uint feeRate) {\n        // calculates: rateDecayed (converts to wei).\n        uint rateDecayed = enWei(deltaDays);\n\n        // gets: info & feeDays (pool)\n        Pools memory pool = poolInfo[pid];\n        uint feeDays = pool.feeDays; \n\n        // [if] more time has elapsed than wait period\n        if (rateDecayed >= feeDays) {\n            // [then] set feeRate to 0.\n            feeRate = 0;\n        } else { // [else] reduce feeDays by the rateDecayed.\n            feeRate = feeDays - rateDecayed;\n        }\n\n        return feeRate;\n    }\n\n    // returns: feeAmount and with withdrawableAmount for a given pid and amount\n    function getWithdrawable(uint pid, uint deltaDays, uint amount) public view returns (uint _feeAmount, uint _withdrawable) {\n        // gets: feeRate\n        uint feeRate = fromWei(getFeeRate(pid, deltaDays));\n        // gets: feeAmount\n        uint feeAmount = (amount * feeRate) / 100;\n        // calculates: withdrawable amount\n        uint withdrawable = amount - feeAmount;\n\n        return (feeAmount, withdrawable);\n    }\n\n    // view: pending soul rewards\n    function pendingSoul(uint pid, address account) public view returns (uint pendingAmount) {\n        // gets: pool and user data\n        Pools memory pool = poolInfo[pid];\n        Users memory user = userInfo[pid][account];\n\n        // gets: `accSoulPerShare` & `lpSupply` (pool)\n        uint accSoulPerShare = pool.accSoulPerShare;\n        uint lpSupply = pool.lpToken.balanceOf(address(this));\n\n        // [if] holds deposits & rewards issued at least once (pool)\n        if (block.timestamp > pool.lastRewardTime && lpSupply != 0) {\n            // gets: multiplier from the time since now and last time rewards issued (pool)\n            uint multiplier = getMultiplier(pool.lastRewardTime, block.timestamp);\n            // get: reward as the product of the elapsed emissions and the share of soul rewards (pool)\n            uint soulReward = multiplier * soulPerSecond * pool.allocPoint / totalAllocPoint;\n            // adds: product of soulReward and 1e12\n            accSoulPerShare += soulReward * 1e12 / lpSupply;\n        }\n        // returns: rewardShare for user minus the amount paid out (user)\n        return user.amount * accSoulPerShare / 1e12 - user.rewardDebt;\n    }\n\n    // view: pending soul rewards (for sender)\n    function pendingSoul(uint pid) public view returns (uint pendingAmount) {\n        Pools memory pool = poolInfo[pid];\n        Users memory user = userInfo[pid][msg.sender];\n\n        uint accSoulPerShare = pool.accSoulPerShare;\n        uint lpSupply = pool.lpToken.balanceOf(address(this));\n\n        if (block.timestamp > pool.lastRewardTime && lpSupply != 0) {\n            uint multiplier = getMultiplier(pool.lastRewardTime, block.timestamp);\n            uint soulReward = multiplier * soulPerSecond * pool.allocPoint / totalAllocPoint;\n            accSoulPerShare = accSoulPerShare + soulReward * 1e12 / lpSupply;\n        }\n        // returns: rewardShare for user minus the amount paid out (user)\n        return user.amount * accSoulPerShare / 1e12 - user.rewardDebt;\n    }\n\n    // update: rewards for all pools (public)\n    function massUpdatePools() public {\n        uint length = poolInfo.length;\n        for (uint pid = 0; pid < length; ++pid) { updatePool(pid); }\n    }\n\n    // update: rewards for a given pool id (public)\n    function updatePool(uint pid) public validatePoolByPid(pid) {\n        Pools storage pool = poolInfo[pid];\n\n        if (block.timestamp <= pool.lastRewardTime) { return; }\n        uint lpSupply = pool.lpToken.balanceOf(address(this));\n\n        // [if] first staker in pool, [then] set lastRewardTime to meow.\n        if (lpSupply == 0) { pool.lastRewardTime = block.timestamp; return; }\n\n        // gets: multiplier from time elasped since pool began issuing rewards.\n        uint multiplier = getMultiplier(pool.lastRewardTime, block.timestamp);\n        uint soulReward = multiplier * soulPerSecond * pool.allocPoint / totalAllocPoint;\n        // gets\n        uint divi = soulReward * 1e12 / 8e12;   // 12.5% rewards\n        \n        soul.mint(team, divi);\n        soul.mint(dao, divi);\n        soul.mint(address(seance), soulReward); // prevents reward errors\n\n        pool.accSoulPerShare = pool.accSoulPerShare + (soulReward * 1e12 / lpSupply);\n        pool.lastRewardTime = block.timestamp;\n    }\n\n    // harvests: pending rewards for a given pid.\n    function harvest(uint pid) public {\n        if (pid == 0) { enterStaking(0); }\n        else { deposit(pid, 0); }\n    }\n    \n    // harvest: all pools in a single transaction.\n    function harvestAll(uint[] calldata _pids) public {\n        for (uint i = 0; i < _pids.length; ++i) {\n            harvest(_pids[i]);\n        }\n    }\n\n    // calculates: user portion of total deposits for a given pid.\n    function userShare(uint pid, address account) external view returns (uint share) {\n        Pools memory pool = poolInfo[pid];\n        Users memory user = userInfo[pid][account];\n\n        // gets: total supply of lpToken in summoner (pool)\n        uint totalDeposited = pool.lpToken.balanceOf(address(this));\n        // gets: total staked (user)\n        uint userStaked = user.amount;\n        // calculates: user share of totalDeposited\n        share = userStaked / totalDeposited;\n\n        return share;\n    }\n\n    // gets: price for a given pid.\n    function getPrice(uint pid) public view returns (uint tokenPrice) {\n        Pools memory pool = poolInfo[pid];\n        address tokenAddress = address(pool.lpToken);\n        // [if] staking pool, [then] use soulPrice\n        if (pid == 0) { tokenPrice = calculator.getSoulPrice(); }\n        // [else] use lpPrice\n        else { tokenPrice = calculator.getPoolPrice(tokenAddress); }\n        return tokenPrice;\n    }\n\n    // gets: deposited value (pid, account)\n    function getDepositedValue(uint pid, address account) external view returns (uint depositValue) {\n        Users memory user = userInfo[pid][account];\n\n        uint price = getPrice(pid);\n        uint depositAmount = user.amount;\n\n        depositValue = price * depositAmount;\n\n        return depositValue;\n    }\n\n    // gets: deposited value (pid)\n    function getPoolTVL(uint pid) public view returns (uint poolTVL) {\n        Pools memory pool = poolInfo[pid];\n        uint totalDeposited = pool.lpToken.balanceOf(address(this));\n        uint price = getPrice(pid);\n\n        poolTVL = price * totalDeposited;\n\n        return poolTVL;\n    }\n\n    // gets: total value deposited\n    function getTVL(uint[] calldata _pids) external view returns (uint valueLocked) {\n            for (uint i = 0; i < _pids.length; ++i) {\n            valueLocked += getPoolTVL(_pids[i]);\n        }\n    }\n\n    // calculates: pending value (pid, account)\n    function getPendingValue(uint pid, address account) external view returns (uint pendingValue) {\n        uint pendingRewards = pendingSoul(pid, account);\n        uint soulPrice = calculator.getSoulPrice();\n        pendingValue = pendingRewards * soulPrice;\n\n        return pendingValue;\n    }\n\n    // deposit: lp tokens (lp owner)\n    function deposit(uint pid, uint amount) public nonReentrant isSummoned isActive validatePoolByPid(pid) {\n        require (pid != 0, 'deposit SOUL by staking (enterStaking)');\n        \n        // gets: stored data for pool and user.\n        Pools storage pool = poolInfo[pid];\n        Users storage user = userInfo[pid][msg.sender];\n\n        updatePool(pid);\n\n        // [if] already deposited (user)\n        if (user.amount > 0) {\n            // [then] gets: pendingRewards using pendingSoul (pid, user).\n            uint pendingRewards = pendingSoul(pid, msg.sender);\n            // [if] rewards pending, then transfer to user.\n            if(pendingRewards > 0) { \n                safeSoulTransfer(msg.sender, pendingRewards);\n            }\n        }\n\n        // [if] depositing more\n        if (amount > 0) {\n            // [then] transfer lpToken from user to contract\n            pool.lpToken.transferFrom(address(msg.sender), address(this), amount);\n            // [then] increment deposit amount (user).\n            user.amount += amount;\n        }\n\n        // updates: reward debt (user).\n        user.rewardDebt = user.amount * pool.accSoulPerShare / 1e12;\n\n        // [if] first time depositing (user)\n        if (user.depositTime == 0) {\n            // [then] update depositTime\n            user.depositTime = block.timestamp;\n        }\n        \n        emit Deposit(msg.sender, pid, amount, block.timestamp);\n    }\n\n    // withdraw: lp tokens (external farmers)\n    function withdraw(uint pid, uint amount) external nonReentrant isSummoned isActive validatePoolByPid(pid) {\n        require (pid != 0, 'withdraw SOUL by unstaking (leaveStaking)');\n        require(amount > 0, 'cannot withdraw zero');\n\n        Pools storage pool = poolInfo[pid];\n        Users storage user = userInfo[pid][msg.sender];\n\n        require(user.amount >= amount, 'withdrawal exceeds deposit');\n        updatePool(pid);\n\n        // gets: pending rewards as determined by pendingSoul.\n        uint pending = pendingSoul(pid, msg.sender);\n        // [if] rewards are pending, [then] send rewards to user.\n        if(pending > 0) { safeSoulTransfer(msg.sender, pending); }\n\n        // gets: timeDelta as the time since last withdrawal.\n        uint timeDelta = userDelta(pid, msg.sender);\n\n        // gets: deltaDays as days passed using timeDelta.\n        uint deltaDays = getDeltaDays(timeDelta);\n\n        // updates: deposit, timeDelta, & deltaDays (user)\n        user.amount -= amount;\n        user.timeDelta = timeDelta;\n        user.deltaDays = deltaDays;\n\n        // calculates: withdrawable amount (pid, deltaDays, amount).\n        (, uint withdrawableAmount) = getWithdrawable(pid, deltaDays, amount); \n\n        // calculates: `feeAmount` as the `amount` requested minus `withdrawableAmount`.\n        uint feeAmount = amount - withdrawableAmount;\n\n        // transfers: `feeAmount` --> DAO.\n        pool.lpToken.transfer(address(dao), feeAmount);\n        // transfers: withdrawableAmount amount --> user.\n        pool.lpToken.transfer(address(msg.sender), withdrawableAmount);\n\n        // updates: rewardDebt and withdrawalTime (user)\n        user.rewardDebt = user.amount * pool.accSoulPerShare / 1e12;\n        user.withdrawalTime = block.timestamp;\n\n        emit Withdraw(msg.sender, pid, amount, feeAmount, block.timestamp);\n    }\n\n    // enables: withdrawal without caring about rewards (for example, when rewards end).\n    function emergencyWithdraw(uint pid) external nonReentrant emergencyActive {\n        // gets: pool & user data (to update later).\n        Pools storage pool = poolInfo[pid];\n        Users storage user = userInfo[pid][msg.sender];\n\n        // [if] removing from staking\n        if (pid == 0) {\n            // [then] require SEANCE balance covers request (user).\n            require(seance.balanceOf(msg.sender) >= user.amount, 'insufficient SEANCE to cover SOUL withdrawal request');\n            // [then] burn seance from sender.\n            seance.burn(msg.sender, user.amount); \n        }\n\n        // transfers: lpToken to the user.\n        pool.lpToken.safeTransfer(msg.sender, user.amount);\n\n        // eliminates: user deposit and rewardDebt.\n        user.amount = 0;\n        user.rewardDebt = 0;\n\n        emit EmergencyWithdraw(msg.sender, pid, user.amount);\n    }\n\n    // stakes: soul into summoner.\n    function enterStaking(uint amount) public nonReentrant isSummoned {\n        Pools storage pool = poolInfo[0];\n        Users storage user = userInfo[0][msg.sender];\n\n        updatePool(0);\n\n        // gets: staked amount (user).\n        uint stakedAmount = user.amount;\n\n        // [if] already staked (user)\n        if (stakedAmount > 0) {\n            // [then] get: pending rewards.\n            uint pending = pendingSoul(0, msg.sender);\n            // [then] send: pending rewards.\n            safeSoulTransfer(msg.sender, pending);\n        }\n        \n        // [if] staking ( harvest)\n        if (amount > 0) {\n            // [then] transfer: `amount` of SOUL from user to contract.\n            pool.lpToken.transferFrom(msg.sender, address(this), amount);\n            // [then] increase: stored deposit amount (user).\n            user.amount += amount;\n        }\n\n        // [if] first deposit, [then] set depositTime to meow (user).\n        if (user.depositTime == 0) { user.depositTime = block.timestamp; }\n\n        // updates: reward debt (user)\n        user.rewardDebt = user.amount * pool.accSoulPerShare / 1e12;\n\n        // mints & sends: requested `amount` of SEANCE to sender as a receipt.\n        if (amount > 0) { seance.mint(msg.sender, amount); }\n\n        emit Deposit(msg.sender, 0, amount, block.timestamp);\n    }\n\n    // unstake: your soul (external staker)\n    function leaveStaking(uint amount) external nonReentrant isSummoned {\n        Pools storage pool = poolInfo[0];\n        Users storage user = userInfo[0][msg.sender];\n\n        // checks: sufficient balance to cover request (user).\n        require(user.amount >= amount, 'requested withdrawal exceeds staked balance');\n        updatePool(0);\n\n        // gets: pending staking pool rewards (user).\n        uint pending = pendingSoul(0, msg.sender);\n\n        // [if] sender has pending rewards, [then] transfer rewards to sender.\n        if (pending > 0) { safeSoulTransfer(msg.sender, pending); }\n\n        // [if] withdrawing from stake.\n        if (amount > 0) {\n            // [then] decrease: stored deposit by withdrawal amount.\n            user.amount = user.amount - amount;\n            // [then] burn: SEANCE in the specified `amount` (user).\n            seance.burn(msg.sender, amount);\n            // [then] update: reward debt (user).\n            user.rewardDebt = user.amount * pool.accSoulPerShare / 1e12;\n            // [then] update: withdrawal time (user).\n            user.withdrawalTime = block.timestamp;\n            // [then] transfer: requested SOUL (user).\n            pool.lpToken.transfer(address(msg.sender), amount);\n        }\n\n        emit Withdraw(msg.sender, 0, amount, 0, block.timestamp);\n    }\n    \n    // transfer: seance (only if there is sufficient coverage for payout).\n    function safeSoulTransfer(address account, uint amount) internal {\n        require(seance.balanceOf(soulAddress) >= amount, 'insufficient coverage for requested SOUL from SEANCE');\n        seance.safeSoulTransfer(account, amount);\n    }\n\n    // update: weight (ma'at)\n    function updateWeight(uint _weight, uint _totalWeight) external obey(maat) {\n        require(weight != _weight || totalWeight != _totalWeight, 'must include a new value');\n        require(_totalWeight >= _weight, 'weight cannot exceed totalWeight');\n\n        weight = _weight;     \n        totalWeight = _totalWeight;\n\n        updateRewards(_weight, _totalWeight);\n\n        emit WeightUpdated(_weight, _totalWeight);\n    }\n\n    // update: staking pool\n    function updateStakingPool() internal {\n        uint length = poolInfo.length;\n        uint points;\n        \n        for (uint pid = 1; pid < length; ++pid) { \n            points = points + poolInfo[pid].allocPoint; \n        }\n\n        if (points != 0) {\n            points = points / 3;\n            totalAllocPoint = totalAllocPoint - poolInfo[0].allocPoint + points;\n            poolInfo[0].allocPoint = points;\n        }\n    }\n\n    // update: rewards\n    function updateRewards(uint _weight, uint _totalWeight) internal {\n        uint share = enWei(_weight) / _totalWeight; // share of total emissions for rewarder (rewarder % total emissions)\n        \n        dailySoul = share * globalDailySoul; // dailySoul (for rewarder) = share (%) x globalDailySoul (soul emissions constant)\n        soulPerSecond = dailySoul / 1 days; // updates: daily rewards expressed in seconds (1 days = 86,400 secs)\n\n        emit RewardsUpdated(dailySoul, soulPerSecond);\n    }\n\n    // updates: feeDays (ma'at)\n    function updateFeeDays(uint pid, uint _daysRequested) external obey(maat) {\n        Pools storage pool = poolInfo[pid];\n        // converts & stores requested days (enWei).\n        uint _feeDays = enWei(_daysRequested);\n\n        // gets: current fee days & ensures distinction (pool)\n        uint feeDays = pool.feeDays;\n        require(feeDays != _feeDays, 'must be a new value');\n        \n        // limits: feeDays by maxFeeDays\n        require(feeDays <= maxFeeDays, 'exceeds allowable feeDays');\n        \n        // updates: fee days (pool)\n        pool.feeDays = _feeDays;\n        \n        emit FeeDaysUpdated(pid, _feeDays);\n    }\n\n    // updates: dao & team addresses (isis)\n    function updateAccounts(address _dao, address _team) external obey(isis) {\n        require(dao != _dao || team != _team, 'must include a new account');\n        dao = _dao;\n        team = _team;\n\n        emit AccountsUpdated(dao, team);\n    }\n\n    // updates: soul & seance addresses (isis)\n    function updateTokens(address _soulAddress, address _seanceAddress) external obey(isis) {\n        require(soulAddress != _soulAddress || seanceAddress != _seanceAddress, 'must be a new token address');\n\n        // update: soul\n        soulAddress = _soulAddress;\n        soul = IToken(_soulAddress);\n        \n        // update seance\n        seanceAddress = _seanceAddress;\n        seance = IToken(_seanceAddress);\n\n        emit TokensUpdated(_soulAddress, _seanceAddress);\n    }\n\n    // updates: calculator address (strictly used for frontend)\n    function updateCalculator(address _calculator) external obey(isis) {\n        calculator = ICalculator(_calculator);\n    }\n\n    // helper functions to convert to wei and 1/100th\n    function enWei(uint amount) public pure returns (uint) {  return amount * 1e18; }\n    function fromWei(uint amount) public pure returns (uint) { return amount / 1e18; }\n}\n",
  "sourcePath": "/Users/buns/Documents/GitHub/SoulSwapFinance/soulswap-farms/contracts/rewards/SoulSummonerAvalancheExt.sol",
  "compiler": {
    "name": "solc",
    "version": "0.8.17+commit.8df45f5f.Emscripten.clang"
  },
  "schemaVersion": "3.4.1",
  "updatedAt": "2022-10-01T21:51:30.470Z",
  "devdoc": {
    "kind": "dev",
    "methods": {
      "getRoleAdmin(bytes32)": {
        "details": "Returns the admin role that controls `role`. See {grantRole} and {revokeRole}. To change a role's admin, use {_setRoleAdmin}."
      },
      "grantRole(bytes32,address)": {
        "details": "Grants `role` to `account`. If `account` had not been already granted `role`, emits a {RoleGranted} event. Requirements: - the caller must have ``role``'s admin role."
      },
      "hasRole(bytes32,address)": {
        "details": "Returns `true` if `account` has been granted `role`."
      },
      "renounceRole(bytes32,address)": {
        "details": "Revokes `role` from the calling account. Roles are often managed via {grantRole} and {revokeRole}: this function's purpose is to provide a mechanism for accounts to lose their privileges if they are compromised (such as when a trusted device is misplaced). If the calling account had been granted `role`, emits a {RoleRevoked} event. Requirements: - the caller must be `account`."
      },
      "revokeRole(bytes32,address)": {
        "details": "Revokes `role` from `account`. If `account` had been granted `role`, emits a {RoleRevoked} event. Requirements: - the caller must have ``role``'s admin role."
      },
      "supportsInterface(bytes4)": {
        "details": "See {IERC165-supportsInterface}."
      }
    },
    "version": 1
  },
  "userdoc": {
    "kind": "user",
    "methods": {},
    "version": 1
  }
}