{
  "contractName": "SoulManifester",
  "abi": [
    {
      "inputs": [],
      "stateMutability": "nonpayable",
      "type": "constructor"
    },
    {
      "anonymous": false,
      "inputs": [
        {
          "indexed": false,
          "internalType": "address",
          "name": "dao",
          "type": "address"
        },
        {
          "indexed": false,
          "internalType": "address",
          "name": "team",
          "type": "address"
        }
      ],
      "name": "AccountsUpdated",
      "type": "event"
    },
    {
      "anonymous": false,
      "inputs": [
        {
          "indexed": true,
          "internalType": "address",
          "name": "user",
          "type": "address"
        },
        {
          "indexed": true,
          "internalType": "uint256",
          "name": "pid",
          "type": "uint256"
        },
        {
          "indexed": false,
          "internalType": "uint256",
          "name": "amount",
          "type": "uint256"
        },
        {
          "indexed": false,
          "internalType": "uint256",
          "name": "timestamp",
          "type": "uint256"
        }
      ],
      "name": "Deposit",
      "type": "event"
    },
    {
      "anonymous": false,
      "inputs": [
        {
          "indexed": false,
          "internalType": "uint256",
          "name": "pid",
          "type": "uint256"
        },
        {
          "indexed": false,
          "internalType": "address",
          "name": "account",
          "type": "address"
        },
        {
          "indexed": false,
          "internalType": "uint256",
          "name": "timestamp",
          "type": "uint256"
        }
      ],
      "name": "DepositRevised",
      "type": "event"
    },
    {
      "anonymous": false,
      "inputs": [
        {
          "indexed": true,
          "internalType": "address",
          "name": "user",
          "type": "address"
        },
        {
          "indexed": true,
          "internalType": "uint256",
          "name": "pid",
          "type": "uint256"
        },
        {
          "indexed": false,
          "internalType": "uint256",
          "name": "amount",
          "type": "uint256"
        },
        {
          "indexed": false,
          "internalType": "uint256",
          "name": "timestamp",
          "type": "uint256"
        }
      ],
      "name": "EmergencyWithdraw",
      "type": "event"
    },
    {
      "anonymous": false,
      "inputs": [
        {
          "indexed": false,
          "internalType": "uint256",
          "name": "pid",
          "type": "uint256"
        },
        {
          "indexed": false,
          "internalType": "uint256",
          "name": "feeDays",
          "type": "uint256"
        }
      ],
      "name": "FeeDaysUpdated",
      "type": "event"
    },
    {
      "anonymous": false,
      "inputs": [
        {
          "indexed": false,
          "internalType": "uint256",
          "name": "weight",
          "type": "uint256"
        },
        {
          "indexed": false,
          "internalType": "uint256",
          "name": "timestamp",
          "type": "uint256"
        }
      ],
      "name": "Initialized",
      "type": "event"
    },
    {
      "anonymous": false,
      "inputs": [
        {
          "indexed": false,
          "internalType": "uint256",
          "name": "pid",
          "type": "uint256"
        },
        {
          "indexed": false,
          "internalType": "uint256",
          "name": "allocPoint",
          "type": "uint256"
        },
        {
          "indexed": false,
          "internalType": "contract IERC20",
          "name": "lpToken",
          "type": "address"
        },
        {
          "indexed": false,
          "internalType": "uint256",
          "name": "totalAllocPoint",
          "type": "uint256"
        }
      ],
      "name": "PoolAdded",
      "type": "event"
    },
    {
      "anonymous": false,
      "inputs": [
        {
          "indexed": false,
          "internalType": "uint256",
          "name": "pid",
          "type": "uint256"
        },
        {
          "indexed": false,
          "internalType": "uint256",
          "name": "allocPoint",
          "type": "uint256"
        },
        {
          "indexed": false,
          "internalType": "uint256",
          "name": "totalAllocPoint",
          "type": "uint256"
        },
        {
          "indexed": false,
          "internalType": "uint256",
          "name": "absDelta",
          "type": "uint256"
        },
        {
          "indexed": false,
          "internalType": "uint256",
          "name": "timestamp",
          "type": "uint256"
        }
      ],
      "name": "PoolSet",
      "type": "event"
    },
    {
      "anonymous": false,
      "inputs": [
        {
          "indexed": false,
          "internalType": "uint256",
          "name": "dailySoul",
          "type": "uint256"
        },
        {
          "indexed": false,
          "internalType": "uint256",
          "name": "soulPerSecond",
          "type": "uint256"
        }
      ],
      "name": "RewardsUpdated",
      "type": "event"
    },
    {
      "anonymous": false,
      "inputs": [
        {
          "indexed": true,
          "internalType": "bytes32",
          "name": "role",
          "type": "bytes32"
        },
        {
          "indexed": true,
          "internalType": "bytes32",
          "name": "previousAdminRole",
          "type": "bytes32"
        },
        {
          "indexed": true,
          "internalType": "bytes32",
          "name": "newAdminRole",
          "type": "bytes32"
        }
      ],
      "name": "RoleAdminChanged",
      "type": "event"
    },
    {
      "anonymous": false,
      "inputs": [
        {
          "indexed": true,
          "internalType": "bytes32",
          "name": "role",
          "type": "bytes32"
        },
        {
          "indexed": true,
          "internalType": "address",
          "name": "account",
          "type": "address"
        },
        {
          "indexed": true,
          "internalType": "address",
          "name": "sender",
          "type": "address"
        }
      ],
      "name": "RoleGranted",
      "type": "event"
    },
    {
      "anonymous": false,
      "inputs": [
        {
          "indexed": true,
          "internalType": "bytes32",
          "name": "role",
          "type": "bytes32"
        },
        {
          "indexed": true,
          "internalType": "address",
          "name": "account",
          "type": "address"
        },
        {
          "indexed": true,
          "internalType": "address",
          "name": "sender",
          "type": "address"
        }
      ],
      "name": "RoleRevoked",
      "type": "event"
    },
    {
      "anonymous": false,
      "inputs": [
        {
          "indexed": false,
          "internalType": "address",
          "name": "soul",
          "type": "address"
        },
        {
          "indexed": false,
          "internalType": "address",
          "name": "seance",
          "type": "address"
        }
      ],
      "name": "TokensUpdated",
      "type": "event"
    },
    {
      "anonymous": false,
      "inputs": [
        {
          "indexed": false,
          "internalType": "uint256",
          "name": "weight",
          "type": "uint256"
        },
        {
          "indexed": false,
          "internalType": "uint256",
          "name": "totalWeight",
          "type": "uint256"
        }
      ],
      "name": "WeightUpdated",
      "type": "event"
    },
    {
      "anonymous": false,
      "inputs": [
        {
          "indexed": true,
          "internalType": "address",
          "name": "user",
          "type": "address"
        },
        {
          "indexed": true,
          "internalType": "uint256",
          "name": "pid",
          "type": "uint256"
        },
        {
          "indexed": false,
          "internalType": "uint256",
          "name": "amount",
          "type": "uint256"
        },
        {
          "indexed": false,
          "internalType": "uint256",
          "name": "feeAmount",
          "type": "uint256"
        },
        {
          "indexed": false,
          "internalType": "uint256",
          "name": "timestamp",
          "type": "uint256"
        }
      ],
      "name": "Withdraw",
      "type": "event"
    },
    {
      "inputs": [],
      "name": "DEFAULT_ADMIN_ROLE",
      "outputs": [
        {
          "internalType": "bytes32",
          "name": "",
          "type": "bytes32"
        }
      ],
      "stateMutability": "view",
      "type": "function"
    },
    {
      "inputs": [],
      "name": "dailySoul",
      "outputs": [
        {
          "internalType": "uint256",
          "name": "",
          "type": "uint256"
        }
      ],
      "stateMutability": "view",
      "type": "function"
    },
    {
      "inputs": [],
      "name": "dao",
      "outputs": [
        {
          "internalType": "address",
          "name": "",
          "type": "address"
        }
      ],
      "stateMutability": "view",
      "type": "function"
    },
    {
      "inputs": [
        {
          "internalType": "bytes32",
          "name": "role",
          "type": "bytes32"
        }
      ],
      "name": "getRoleAdmin",
      "outputs": [
        {
          "internalType": "bytes32",
          "name": "",
          "type": "bytes32"
        }
      ],
      "stateMutability": "view",
      "type": "function"
    },
    {
      "inputs": [
        {
          "internalType": "bytes32",
          "name": "role",
          "type": "bytes32"
        },
        {
          "internalType": "address",
          "name": "account",
          "type": "address"
        }
      ],
      "name": "grantRole",
      "outputs": [],
      "stateMutability": "nonpayable",
      "type": "function"
    },
    {
      "inputs": [
        {
          "internalType": "bytes32",
          "name": "role",
          "type": "bytes32"
        },
        {
          "internalType": "address",
          "name": "account",
          "type": "address"
        }
      ],
      "name": "hasRole",
      "outputs": [
        {
          "internalType": "bool",
          "name": "",
          "type": "bool"
        }
      ],
      "stateMutability": "view",
      "type": "function"
    },
    {
      "inputs": [],
      "name": "isis",
      "outputs": [
        {
          "internalType": "bytes32",
          "name": "",
          "type": "bytes32"
        }
      ],
      "stateMutability": "view",
      "type": "function"
    },
    {
      "inputs": [],
      "name": "maat",
      "outputs": [
        {
          "internalType": "bytes32",
          "name": "",
          "type": "bytes32"
        }
      ],
      "stateMutability": "view",
      "type": "function"
    },
    {
      "inputs": [],
      "name": "maxFeeDays",
      "outputs": [
        {
          "internalType": "uint256",
          "name": "",
          "type": "uint256"
        }
      ],
      "stateMutability": "view",
      "type": "function"
    },
    {
      "inputs": [
        {
          "internalType": "uint256",
          "name": "",
          "type": "uint256"
        }
      ],
      "name": "poolInfo",
      "outputs": [
        {
          "internalType": "contract IERC20",
          "name": "lpToken",
          "type": "address"
        },
        {
          "internalType": "uint256",
          "name": "allocPoint",
          "type": "uint256"
        },
        {
          "internalType": "uint256",
          "name": "lastRewardTime",
          "type": "uint256"
        },
        {
          "internalType": "uint256",
          "name": "accSoulPerShare",
          "type": "uint256"
        },
        {
          "internalType": "uint256",
          "name": "feeDays",
          "type": "uint256"
        }
      ],
      "stateMutability": "view",
      "type": "function"
    },
    {
      "inputs": [
        {
          "internalType": "bytes32",
          "name": "role",
          "type": "bytes32"
        },
        {
          "internalType": "address",
          "name": "account",
          "type": "address"
        }
      ],
      "name": "renounceRole",
      "outputs": [],
      "stateMutability": "nonpayable",
      "type": "function"
    },
    {
      "inputs": [
        {
          "internalType": "bytes32",
          "name": "role",
          "type": "bytes32"
        },
        {
          "internalType": "address",
          "name": "account",
          "type": "address"
        }
      ],
      "name": "revokeRole",
      "outputs": [],
      "stateMutability": "nonpayable",
      "type": "function"
    },
    {
      "inputs": [],
      "name": "seance",
      "outputs": [
        {
          "internalType": "contract IToken",
          "name": "",
          "type": "address"
        }
      ],
      "stateMutability": "view",
      "type": "function"
    },
    {
      "inputs": [],
      "name": "soul",
      "outputs": [
        {
          "internalType": "contract IToken",
          "name": "",
          "type": "address"
        }
      ],
      "stateMutability": "view",
      "type": "function"
    },
    {
      "inputs": [],
      "name": "soulPerSecond",
      "outputs": [
        {
          "internalType": "uint256",
          "name": "",
          "type": "uint256"
        }
      ],
      "stateMutability": "view",
      "type": "function"
    },
    {
      "inputs": [],
      "name": "startTime",
      "outputs": [
        {
          "internalType": "uint256",
          "name": "",
          "type": "uint256"
        }
      ],
      "stateMutability": "view",
      "type": "function"
    },
    {
      "inputs": [
        {
          "internalType": "bytes4",
          "name": "interfaceId",
          "type": "bytes4"
        }
      ],
      "name": "supportsInterface",
      "outputs": [
        {
          "internalType": "bool",
          "name": "",
          "type": "bool"
        }
      ],
      "stateMutability": "view",
      "type": "function"
    },
    {
      "inputs": [],
      "name": "totalAllocPoint",
      "outputs": [
        {
          "internalType": "uint256",
          "name": "",
          "type": "uint256"
        }
      ],
      "stateMutability": "view",
      "type": "function"
    },
    {
      "inputs": [],
      "name": "totalWeight",
      "outputs": [
        {
          "internalType": "uint256",
          "name": "",
          "type": "uint256"
        }
      ],
      "stateMutability": "view",
      "type": "function"
    },
    {
      "inputs": [
        {
          "internalType": "uint256",
          "name": "",
          "type": "uint256"
        },
        {
          "internalType": "address",
          "name": "",
          "type": "address"
        }
      ],
      "name": "userInfo",
      "outputs": [
        {
          "internalType": "uint256",
          "name": "amount",
          "type": "uint256"
        },
        {
          "internalType": "uint256",
          "name": "rewardDebt",
          "type": "uint256"
        },
        {
          "internalType": "uint256",
          "name": "withdrawalTime",
          "type": "uint256"
        },
        {
          "internalType": "uint256",
          "name": "depositTime",
          "type": "uint256"
        },
        {
          "internalType": "uint256",
          "name": "timeDelta",
          "type": "uint256"
        },
        {
          "internalType": "uint256",
          "name": "deltaDays",
          "type": "uint256"
        }
      ],
      "stateMutability": "view",
      "type": "function"
    },
    {
      "inputs": [],
      "name": "weight",
      "outputs": [
        {
          "internalType": "uint256",
          "name": "",
          "type": "uint256"
        }
      ],
      "stateMutability": "view",
      "type": "function"
    },
    {
      "inputs": [
        {
          "internalType": "bool",
          "name": "enabled",
          "type": "bool"
        }
      ],
      "name": "toggleEmergency",
      "outputs": [],
      "stateMutability": "nonpayable",
      "type": "function"
    },
    {
      "inputs": [
        {
          "internalType": "bool",
          "name": "enabled",
          "type": "bool"
        }
      ],
      "name": "toggleActive",
      "outputs": [],
      "stateMutability": "nonpayable",
      "type": "function"
    },
    {
      "inputs": [],
      "name": "poolLength",
      "outputs": [
        {
          "internalType": "uint256",
          "name": "",
          "type": "uint256"
        }
      ],
      "stateMutability": "view",
      "type": "function"
    },
    {
      "inputs": [
        {
          "internalType": "uint256",
          "name": "_allocPoint",
          "type": "uint256"
        },
        {
          "internalType": "contract IERC20",
          "name": "_lpToken",
          "type": "address"
        },
        {
          "internalType": "bool",
          "name": "_withUpdate",
          "type": "bool"
        },
        {
          "internalType": "uint256",
          "name": "_feeDays",
          "type": "uint256"
        }
      ],
      "name": "addPool",
      "outputs": [],
      "stateMutability": "nonpayable",
      "type": "function"
    },
    {
      "inputs": [
        {
          "internalType": "uint256",
          "name": "pid",
          "type": "uint256"
        },
        {
          "internalType": "uint256",
          "name": "_allocPoint",
          "type": "uint256"
        },
        {
          "internalType": "uint256",
          "name": "_feeDays",
          "type": "uint256"
        },
        {
          "internalType": "bool",
          "name": "withUpdate",
          "type": "bool"
        }
      ],
      "name": "setPool",
      "outputs": [],
      "stateMutability": "nonpayable",
      "type": "function"
    },
    {
      "inputs": [
        {
          "internalType": "uint256",
          "name": "_totalAllocPoint",
          "type": "uint256"
        }
      ],
      "name": "setTotalAllocPoint",
      "outputs": [],
      "stateMutability": "nonpayable",
      "type": "function"
    },
    {
      "inputs": [
        {
          "internalType": "uint256",
          "name": "pid",
          "type": "uint256"
        },
        {
          "internalType": "address",
          "name": "account",
          "type": "address"
        }
      ],
      "name": "getUserDelta",
      "outputs": [
        {
          "internalType": "uint256",
          "name": "timeDelta",
          "type": "uint256"
        }
      ],
      "stateMutability": "view",
      "type": "function"
    },
    {
      "inputs": [
        {
          "internalType": "uint256",
          "name": "from",
          "type": "uint256"
        },
        {
          "internalType": "uint256",
          "name": "to",
          "type": "uint256"
        }
      ],
      "name": "getMultiplier",
      "outputs": [
        {
          "internalType": "uint256",
          "name": "",
          "type": "uint256"
        }
      ],
      "stateMutability": "pure",
      "type": "function"
    },
    {
      "inputs": [
        {
          "internalType": "address",
          "name": "account",
          "type": "address"
        },
        {
          "internalType": "uint256",
          "name": "pid",
          "type": "uint256"
        }
      ],
      "name": "getMaxFee",
      "outputs": [
        {
          "internalType": "uint256",
          "name": "maxFee",
          "type": "uint256"
        }
      ],
      "stateMutability": "view",
      "type": "function"
    },
    {
      "inputs": [
        {
          "internalType": "uint256",
          "name": "timeDelta",
          "type": "uint256"
        }
      ],
      "name": "getDeltaDays",
      "outputs": [
        {
          "internalType": "uint256",
          "name": "deltaDays",
          "type": "uint256"
        }
      ],
      "stateMutability": "pure",
      "type": "function"
    },
    {
      "inputs": [
        {
          "internalType": "uint256",
          "name": "pid",
          "type": "uint256"
        },
        {
          "internalType": "uint256",
          "name": "deltaDays",
          "type": "uint256"
        }
      ],
      "name": "getFeeRate",
      "outputs": [
        {
          "internalType": "uint256",
          "name": "feeRate",
          "type": "uint256"
        }
      ],
      "stateMutability": "view",
      "type": "function"
    },
    {
      "inputs": [
        {
          "internalType": "uint256",
          "name": "pid",
          "type": "uint256"
        },
        {
          "internalType": "uint256",
          "name": "deltaDays",
          "type": "uint256"
        },
        {
          "internalType": "uint256",
          "name": "amount",
          "type": "uint256"
        }
      ],
      "name": "getWithdrawable",
      "outputs": [
        {
          "internalType": "uint256",
          "name": "_feeAmount",
          "type": "uint256"
        },
        {
          "internalType": "uint256",
          "name": "_withdrawable",
          "type": "uint256"
        }
      ],
      "stateMutability": "view",
      "type": "function"
    },
    {
      "inputs": [
        {
          "internalType": "uint256",
          "name": "pid",
          "type": "uint256"
        },
        {
          "internalType": "address",
          "name": "account",
          "type": "address"
        }
      ],
      "name": "pendingSoul",
      "outputs": [
        {
          "internalType": "uint256",
          "name": "pendingAmount",
          "type": "uint256"
        }
      ],
      "stateMutability": "view",
      "type": "function"
    },
    {
      "inputs": [],
      "name": "massUpdatePools",
      "outputs": [],
      "stateMutability": "nonpayable",
      "type": "function"
    },
    {
      "inputs": [
        {
          "internalType": "uint256",
          "name": "pid",
          "type": "uint256"
        }
      ],
      "name": "updatePool",
      "outputs": [],
      "stateMutability": "nonpayable",
      "type": "function"
    },
    {
      "inputs": [
        {
          "internalType": "uint256",
          "name": "pid",
          "type": "uint256"
        }
      ],
      "name": "harvest",
      "outputs": [],
      "stateMutability": "nonpayable",
      "type": "function"
    },
    {
      "inputs": [
        {
          "internalType": "uint256[]",
          "name": "pids",
          "type": "uint256[]"
        }
      ],
      "name": "harvestAll",
      "outputs": [],
      "stateMutability": "nonpayable",
      "type": "function"
    },
    {
      "inputs": [],
      "name": "harvestAll",
      "outputs": [],
      "stateMutability": "nonpayable",
      "type": "function"
    },
    {
      "inputs": [
        {
          "internalType": "uint256",
          "name": "pid",
          "type": "uint256"
        },
        {
          "internalType": "uint256",
          "name": "amount",
          "type": "uint256"
        }
      ],
      "name": "deposit",
      "outputs": [],
      "stateMutability": "nonpayable",
      "type": "function"
    },
    {
      "inputs": [
        {
          "internalType": "uint256",
          "name": "pid",
          "type": "uint256"
        },
        {
          "internalType": "uint256",
          "name": "amount",
          "type": "uint256"
        }
      ],
      "name": "withdraw",
      "outputs": [],
      "stateMutability": "nonpayable",
      "type": "function"
    },
    {
      "inputs": [
        {
          "internalType": "uint256",
          "name": "pid",
          "type": "uint256"
        }
      ],
      "name": "emergencyWithdraw",
      "outputs": [],
      "stateMutability": "nonpayable",
      "type": "function"
    },
    {
      "inputs": [
        {
          "internalType": "uint256",
          "name": "amount",
          "type": "uint256"
        }
      ],
      "name": "enterStaking",
      "outputs": [],
      "stateMutability": "nonpayable",
      "type": "function"
    },
    {
      "inputs": [
        {
          "internalType": "uint256",
          "name": "amount",
          "type": "uint256"
        }
      ],
      "name": "leaveStaking",
      "outputs": [],
      "stateMutability": "nonpayable",
      "type": "function"
    },
    {
      "inputs": [
        {
          "internalType": "uint256",
          "name": "_weight",
          "type": "uint256"
        },
        {
          "internalType": "uint256",
          "name": "_totalWeight",
          "type": "uint256"
        }
      ],
      "name": "updateWeight",
      "outputs": [],
      "stateMutability": "nonpayable",
      "type": "function"
    },
    {
      "inputs": [
        {
          "internalType": "uint256",
          "name": "pid",
          "type": "uint256"
        },
        {
          "internalType": "uint256",
          "name": "_daysRequested",
          "type": "uint256"
        }
      ],
      "name": "updateFeeDays",
      "outputs": [],
      "stateMutability": "nonpayable",
      "type": "function"
    },
    {
      "inputs": [
        {
          "internalType": "address",
          "name": "_dao",
          "type": "address"
        },
        {
          "internalType": "address",
          "name": "_team",
          "type": "address"
        }
      ],
      "name": "updateAccounts",
      "outputs": [],
      "stateMutability": "nonpayable",
      "type": "function"
    },
    {
      "inputs": [
        {
          "internalType": "address",
          "name": "_soulAddress",
          "type": "address"
        },
        {
          "internalType": "address",
          "name": "_seanceAddress",
          "type": "address"
        }
      ],
      "name": "setTokens",
      "outputs": [],
      "stateMutability": "nonpayable",
      "type": "function"
    },
    {
      "inputs": [
        {
          "internalType": "uint256",
          "name": "amount",
          "type": "uint256"
        }
      ],
      "name": "toWei",
      "outputs": [
        {
          "internalType": "uint256",
          "name": "",
          "type": "uint256"
        }
      ],
      "stateMutability": "pure",
      "type": "function"
    },
    {
      "inputs": [
        {
          "internalType": "uint256",
          "name": "amount",
          "type": "uint256"
        }
      ],
      "name": "fromWei",
      "outputs": [
        {
          "internalType": "uint256",
          "name": "",
          "type": "uint256"
        }
      ],
      "stateMutability": "pure",
      "type": "function"
    }
  ],
  "bytecode": "0x60a06040526203d090600a556200001d6064620002e460201b60201c565b6080908152503480156200003057600080fd5b506001808190555073221cac060a2257c8f77b6eb1b03e36ea85a1675a600260006101000a81548173ffffffffffffffffffffffffffffffffffffffff021916908373ffffffffffffffffffffffffffffffffffffffff16021790555073f551d88fe8fae7a97292d28876a0cdd49dc373fa600360006101000a81548173ffffffffffffffffffffffffffffffffffffffff021916908373ffffffffffffffffffffffffffffffffffffffff1602179055507f36d5d8406f8379c6deba01145ec4f6a2966675cc67d71355b397a2a8e3572b296012819055507f0811b25c145e1379dc78112dd91057f09150f6db05dfd7e04deb910e6cefd4b7601381905550620001496000801b6000801b336200030360201b60201c565b5062000161601254601254336200030360201b60201c565b5062000179601354601254336200030360201b60201c565b5042600d81905550620001bb7311d6dd25c1695764e64f439e32cc7746f39455437397ee3c9cf4e5de384f95e595a8f327e65265cc4e6200033460201b60201c565b620001d060016103e86200058a60201b60201c565b60106040518060a001604052807311d6dd25c1695764e64f439e32cc7746f394554373ffffffffffffffffffffffffffffffffffffffff1681526020016103e88152602001428152602001600081526020016000815250908060018154018082558091505060019003906000526020600020906005020160009091909190915060008201518160000160006101000a81548173ffffffffffffffffffffffffffffffffffffffff021916908373ffffffffffffffffffffffffffffffffffffffff1602179055506020820151816001015560408201518160020155606082015181600301556080820151816004015550506103e8600e6000828254620002d7919062000c92565b9250508190555062001265565b6000670de0b6b3a764000082620002fc919062000ccd565b9050919050565b6000620003178483620006aa60201b60201c565b620003298484620006c060201b60201c565b600190509392505050565b60125462000358816200034c6200072360201b60201c565b6200072b60201b60201c565b8273ffffffffffffffffffffffffffffffffffffffff16600460009054906101000a900473ffffffffffffffffffffffffffffffffffffffff1673ffffffffffffffffffffffffffffffffffffffff161415806200040457508173ffffffffffffffffffffffffffffffffffffffff16600560009054906101000a900473ffffffffffffffffffffffffffffffffffffffff1673ffffffffffffffffffffffffffffffffffffffff1614155b62000446576040517f08c379a00000000000000000000000000000000000000000000000000000000081526004016200043d9062000d79565b60405180910390fd5b82600460006101000a81548173ffffffffffffffffffffffffffffffffffffffff021916908373ffffffffffffffffffffffffffffffffffffffff16021790555081600560006101000a81548173ffffffffffffffffffffffffffffffffffffffff021916908373ffffffffffffffffffffffffffffffffffffffff16021790555082600660006101000a81548173ffffffffffffffffffffffffffffffffffffffff021916908373ffffffffffffffffffffffffffffffffffffffff16021790555081600760006101000a81548173ffffffffffffffffffffffffffffffffffffffff021916908373ffffffffffffffffffffffffffffffffffffffff1602179055507fdcc6331013de89f8c595d5328f0a724194f113cb6f8f2a707b3dff6de13f0d1783836040516200057d92919062000de0565b60405180910390a1505050565b601354620005ae81620005a26200072360201b60201c565b6200072b60201b60201c565b82600954141580620005c257508160085414155b62000604576040517f08c379a0000000000000000000000000000000000000000000000000000000008152600401620005fb9062000e5d565b60405180910390fd5b828210156200064a576040517f08c379a0000000000000000000000000000000000000000000000000000000008152600401620006419062000ecf565b60405180910390fd5b82600981905550816008819055506200066a8383620007ef60201b60201c565b7fb298bc23e07860d501fddce288f46d761aa04a0c7c3316099eb50f097aacf30483836040516200069d92919062000f02565b60405180910390a1505050565b620006bc82826200088460201b60201c565b5050565b6000620006d3836200097560201b60201c565b905081600080858152602001908152602001600020600101819055508181847fbd79b86ffe0ab8e8776151514217cd7cacd52c909f66475c3af44e129f0b00ff60405160405180910390a4505050565b600033905090565b6200073d82826200099460201b60201c565b620007eb57620007708173ffffffffffffffffffffffffffffffffffffffff166014620009fe60201b620033461760201c565b6200078b8360001c6020620009fe60201b620033461760201c565b6040516020016200079e92919062001048565b6040516020818303038152906040526040517f08c379a0000000000000000000000000000000000000000000000000000000008152600401620007e29190620010dc565b60405180910390fd5b5050565b6000816200080384620002e460201b60201c565b6200080f91906200112f565b9050600a548162000821919062000ccd565b600b8190555062015180600b546200083a91906200112f565b600c819055507fcd7c861d63893659123f817b192b8621ff1923a7c4589c260173cedcf9e986a6600b54600c546040516200087792919062000f02565b60405180910390a1505050565b6200089682826200099460201b60201c565b6200097157600160008084815260200190815260200160002060000160008373ffffffffffffffffffffffffffffffffffffffff1673ffffffffffffffffffffffffffffffffffffffff16815260200190815260200160002060006101000a81548160ff021916908315150217905550620009166200072360201b60201c565b73ffffffffffffffffffffffffffffffffffffffff168173ffffffffffffffffffffffffffffffffffffffff16837f2f8788117e7eff1d82e926ec794901d17c78024a50270940304540a733656f0d60405160405180910390a45b5050565b6000806000838152602001908152602001600020600101549050919050565b600080600084815260200190815260200160002060000160008373ffffffffffffffffffffffffffffffffffffffff1673ffffffffffffffffffffffffffffffffffffffff16815260200190815260200160002060009054906101000a900460ff16905092915050565b60606000600283600262000a13919062000ccd565b62000a1f919062000c92565b67ffffffffffffffff81111562000a3b5762000a3a62001167565b5b6040519080825280601f01601f19166020018201604052801562000a6e5781602001600182028036833780820191505090505b5090507f30000000000000000000000000000000000000000000000000000000000000008160008151811062000aa95762000aa862001196565b5b60200101907effffffffffffffffffffffffffffffffffffffffffffffffffffffffffffff1916908160001a9053507f78000000000000000000000000000000000000000000000000000000000000008160018151811062000b105762000b0f62001196565b5b60200101907effffffffffffffffffffffffffffffffffffffffffffffffffffffffffffff1916908160001a9053506000600184600262000b52919062000ccd565b62000b5e919062000c92565b90505b600181111562000c08577f3031323334353637383961626364656600000000000000000000000000000000600f86166010811062000ba45762000ba362001196565b5b1a60f81b82828151811062000bbe5762000bbd62001196565b5b60200101907effffffffffffffffffffffffffffffffffffffffffffffffffffffffffffff1916908160001a905350600485901c94508062000c0090620011c5565b905062000b61565b506000841462000c4f576040517f08c379a000000000000000000000000000000000000000000000000000000000815260040162000c469062001243565b60405180910390fd5b8091505092915050565b6000819050919050565b7f4e487b7100000000000000000000000000000000000000000000000000000000600052601160045260246000fd5b600062000c9f8262000c59565b915062000cac8362000c59565b925082820190508082111562000cc75762000cc662000c63565b5b92915050565b600062000cda8262000c59565b915062000ce78362000c59565b925082820262000cf78162000c59565b9150828204841483151762000d115762000d1062000c63565b5b5092915050565b600082825260208201905092915050565b7f6e6f206368616e67652072657175657374656400000000000000000000000000600082015250565b600062000d6160138362000d18565b915062000d6e8262000d29565b602082019050919050565b6000602082019050818103600083015262000d948162000d52565b9050919050565b600073ffffffffffffffffffffffffffffffffffffffff82169050919050565b600062000dc88262000d9b565b9050919050565b62000dda8162000dbb565b82525050565b600060408201905062000df7600083018562000dcf565b62000e06602083018462000dcf565b9392505050565b7f6d75737420696e636c7564652061206e65772076616c75650000000000000000600082015250565b600062000e4560188362000d18565b915062000e528262000e0d565b602082019050919050565b6000602082019050818103600083015262000e788162000e36565b9050919050565b7f7765696768742063616e6e6f742065786365656420746f74616c576569676874600082015250565b600062000eb760208362000d18565b915062000ec48262000e7f565b602082019050919050565b6000602082019050818103600083015262000eea8162000ea8565b9050919050565b62000efc8162000c59565b82525050565b600060408201905062000f19600083018562000ef1565b62000f28602083018462000ef1565b9392505050565b600081905092915050565b7f416363657373436f6e74726f6c3a206163636f756e7420000000000000000000600082015250565b600062000f7260178362000f2f565b915062000f7f8262000f3a565b601782019050919050565b600081519050919050565b60005b8381101562000fb557808201518184015260208101905062000f98565b60008484015250505050565b600062000fce8262000f8a565b62000fda818562000f2f565b935062000fec81856020860162000f95565b80840191505092915050565b7f206973206d697373696e6720726f6c6520000000000000000000000000000000600082015250565b60006200103060118362000f2f565b91506200103d8262000ff8565b601182019050919050565b6000620010558262000f63565b915062001063828562000fc1565b9150620010708262001021565b91506200107e828462000fc1565b91508190509392505050565b6000601f19601f8301169050919050565b6000620010a88262000f8a565b620010b4818562000d18565b9350620010c681856020860162000f95565b620010d1816200108a565b840191505092915050565b60006020820190508181036000830152620010f881846200109b565b905092915050565b7f4e487b7100000000000000000000000000000000000000000000000000000000600052601260045260246000fd5b60006200113c8262000c59565b9150620011498362000c59565b9250826200115c576200115b62001100565b5b828204905092915050565b7f4e487b7100000000000000000000000000000000000000000000000000000000600052604160045260246000fd5b7f4e487b7100000000000000000000000000000000000000000000000000000000600052603260045260246000fd5b6000620011d28262000c59565b915060008203620011e857620011e762000c63565b5b600182039050919050565b7f537472696e67733a20686578206c656e67746820696e73756666696369656e74600082015250565b60006200122b60208362000d18565b91506200123882620011f3565b602082019050919050565b600060208201905081810360008301526200125e816200121c565b9050919050565b6080516159526200129660003960008181610b2c0152818161118d01528181611b840152612d3201526159526000f3fe608060405234801561001057600080fd5b50600436106102d65760003560e01c8063815b7a8c11610182578063ca8e6c03116100e9578063ddc63262116100a2578063e65d15221161007c578063e65d1522146108e5578063ea4bf44614610915578063fbe0508c14610933578063fd6f99d01461094f576102d6565b8063ddc6326214610891578063e13e8ec2146108ad578063e2bbb158146108c9576102d6565b8063ca8e6c03146107d3578063cb68bef8146107ef578063cbc7854e1461080b578063d270234014610827578063d547741f14610857578063d99e50da14610873576102d6565b806396c82e571161013b57806396c82e57146106fd5780639f6c54261461071b578063a1aab33f1461074b578063a217fddf14610769578063af62147e14610787578063bfafcad5146107a3576102d6565b8063815b7a8c146106105780638dbb1e3a1461062e5780638ed955b91461065e57806391d148541461066857806393f1a40b1461069857806395aca473146106cd576102d6565b80634162169f116102415780635f9bf689116101fa57806375b4bc0c116101d457806375b4bc0c1461057357806378e97925146105a35780637d500ec8146105c15780637e668b42146105df576102d6565b80635f9bf6891461051b578063630b5ba114610539578063669dafe814610543576102d6565b80634162169f1461046f578063441a3e701461048d5780634ca01d45146104a95780634e5ef2a5146104c757806351eb05a6146104e35780635312ea8e146104ff576102d6565b8063248a9ca311610293578063248a9ca3146103b35780632aabff15146103e35780632f2ff15d146103ff5780632fe2d7ce1461041b57806336568abe1461043757806341441d3b14610453576102d6565b806301ffc9a7146102db578063081e3eda1461030b5780630ec5a50c146103295780631058d281146103455780631526fe271461036157806317caf6f114610395575b600080fd5b6102f560048036038101906102f0919061400b565b61096d565b6040516103029190614053565b60405180910390f35b6103136109e7565b6040516103209190614087565b60405180910390f35b610343600480360381019061033e91906140fa565b6109f4565b005b61035f600480360381019061035a9190614161565b610c61565b005b61037b60048036038101906103769190614161565b610fff565b60405161038c95949392919061420d565b60405180910390f35b61039d611065565b6040516103aa9190614087565b60405180910390f35b6103cd60048036038101906103c89190614296565b61106b565b6040516103da91906142d2565b60405180910390f35b6103fd60048036038101906103f89190614352565b61108a565b005b610419600480360381019061041491906143dd565b6110d0565b005b6104356004803603810190610430919061441d565b6110f9565b005b610451600480360381019061044c91906143dd565b611238565b005b61046d60048036038101906104689190614161565b6112bb565b005b61047761162f565b604051610484919061446c565b60405180910390f35b6104a760048036038101906104a2919061441d565b611655565b005b6104b1611b3f565b6040516104be91906144a8565b60405180910390f35b6104e160048036038101906104dc9190614501565b611b65565b005b6104fd60048036038101906104f89190614161565b611bf8565b005b61051960048036038101906105149190614161565b611ff0565b005b61052361235b565b6040516105309190614087565b60405180910390f35b610541612361565b005b61055d60048036038101906105589190614161565b612394565b60405161056a9190614087565b60405180910390f35b61058d60048036038101906105889190614568565b6123b1565b60405161059a9190614087565b60405180910390f35b6105ab612453565b6040516105b89190614087565b60405180910390f35b6105c9612459565b6040516105d69190614087565b60405180910390f35b6105f960048036038101906105f491906145a8565b61245f565b6040516106079291906145fb565b60405180910390f35b6106186124b5565b60405161062591906144a8565b60405180910390f35b6106486004803603810190610643919061441d565b6124db565b6040516106559190614087565b60405180910390f35b6106666124f1565b005b610682600480360381019061067d91906143dd565b612581565b60405161068f9190614053565b60405180910390f35b6106b260048036038101906106ad9190614624565b6125eb565b6040516106c496959493929190614664565b60405180910390f35b6106e760048036038101906106e29190614161565b612634565b6040516106f49190614087565b60405180910390f35b61070561265e565b6040516107129190614087565b60405180910390f35b6107356004803603810190610730919061441d565b612664565b6040516107429190614087565b60405180910390f35b6107536126c9565b6040516107609190614087565b60405180910390f35b6107716126cf565b60405161077e91906142d2565b60405180910390f35b6107a1600480360381019061079c919061441d565b6126d6565b005b6107bd60048036038101906107b89190614624565b6127d5565b6040516107ca9190614087565b60405180910390f35b6107ed60048036038101906107e89190614161565b6129bb565b005b610809600480360381019061080491906146c5565b6129da565b005b610825600480360381019061082091906146f2565b612a0c565b005b610841600480360381019061083c9190614624565b612c4c565b60405161084e9190614087565b60405180910390f35b610871600480360381019061086c91906143dd565b612d07565b005b61087b612d30565b6040516108889190614087565b60405180910390f35b6108ab60048036038101906108a69190614161565b612d54565b005b6108c760048036038101906108c291906146f2565b612d7a565b005b6108e360048036038101906108de919061441d565b612f7c565b005b6108ff60048036038101906108fa9190614161565b6132eb565b60405161090c9190614087565b60405180910390f35b61091d613308565b60405161092a91906142d2565b60405180910390f35b61094d600480360381019061094891906146c5565b61330e565b005b610957613340565b60405161096491906142d2565b60405180910390f35b60007f7965db0b000000000000000000000000000000000000000000000000000000007bffffffffffffffffffffffffffffffffffffffffffffffffffffffff1916827bffffffffffffffffffffffffffffffffffffffffffffffffffffffff191614806109e057506109df82613582565b5b9050919050565b6000601080549050905090565b600f60019054906101000a900460ff16610a43576040517f08c379a0000000000000000000000000000000000000000000000000000000008152600401610a3a9061478f565b60405180910390fd5b836010805490508110610a8b576040517f08c379a0000000000000000000000000000000000000000000000000000000008152600401610a82906147fb565b60405180910390fd5b601354610a9f81610a9a6135ec565b6135f4565b600060108781548110610ab557610ab461481b565b5b906000526020600020906005020190508315610ad457610ad3612361565b5b858160010154141580610aeb575084816004015414155b610b2a576040517f08c379a0000000000000000000000000000000000000000000000000000000008152600401610b2190614896565b60405180910390fd5b7f0000000000000000000000000000000000000000000000000000000000000000851115610b8d576040517f08c379a0000000000000000000000000000000000000000000000000000000008152600401610b8490614902565b60405180910390fd5b6000816001015487119050600081610bb457878360010154610baf9190614951565b610bc5565b826001015488610bc49190614951565b5b905087836001018190555086836004018190555081610bfb5780600e6000828254610bf09190614951565b925050819055610c14565b80600e6000828254610c0d9190614985565b9250508190555b507f81812e4c1e8eddf8d0d3a4879e3cf023d05f4066149028c949e9f55f128d3d6e8989600e548442604051610c4e9594939291906149b9565b60405180910390a1505050505050505050565b600260015403610ca6576040517f08c379a0000000000000000000000000000000000000000000000000000000008152600401610c9d90614a58565b60405180910390fd5b6002600181905550600f60019054906101000a900460ff16610cfd576040517f08c379a0000000000000000000000000000000000000000000000000000000008152600401610cf49061478f565b60405180910390fd5b60006010600081548110610d1457610d1361481b565b5b9060005260206000209060050201905060006011600080815260200190815260200160002060003373ffffffffffffffffffffffffffffffffffffffff1673ffffffffffffffffffffffffffffffffffffffff16815260200190815260200160002090508281600001541015610dbf576040517f08c379a0000000000000000000000000000000000000000000000000000000008152600401610db690614aea565b60405180910390fd5b610dc96000611bf8565b6000816001015464e8d4a5100084600301548460000154610dea9190614b0a565b610df49190614b7b565b610dfe9190614951565b90506000811115610e1457610e133382613691565b5b6000841115610f9d57838260000154610e2d9190614951565b8260000181905550600760009054906101000a900473ffffffffffffffffffffffffffffffffffffffff1673ffffffffffffffffffffffffffffffffffffffff16639dc29fac33866040518363ffffffff1660e01b8152600401610e92929190614bac565b600060405180830381600087803b158015610eac57600080fd5b505af1158015610ec0573d6000803e3d6000fd5b5050505064e8d4a5100083600301548360000154610ede9190614b0a565b610ee89190614b7b565b82600101819055504282600201819055508260000160009054906101000a900473ffffffffffffffffffffffffffffffffffffffff1673ffffffffffffffffffffffffffffffffffffffff1663a9059cbb33866040518363ffffffff1660e01b8152600401610f58929190614bac565b6020604051808303816000875af1158015610f77573d6000803e3d6000fd5b505050506040513d601f19601f82011682018060405250810190610f9b9190614bea565b505b60003373ffffffffffffffffffffffffffffffffffffffff167fe08737ac48a1dab4b1a46c7dc9398bd5bfc6d7ad6fabb7cd8caa254de14def3586600042604051610fea93929190614c52565b60405180910390a35050506001808190555050565b6010818154811061100f57600080fd5b90600052602060002090600502016000915090508060000160009054906101000a900473ffffffffffffffffffffffffffffffffffffffff16908060010154908060020154908060030154908060040154905085565b600e5481565b6000806000838152602001908152602001600020600101549050919050565b60005b828290508110156110cb576110ba8383838181106110ae576110ad61481b565b5b90506020020135612d54565b806110c490614c89565b905061108d565b505050565b6110d98261106b565b6110ea816110e56135ec565b6135f4565b6110f48383613826565b505050565b60135461110d816111086135ec565b6135f4565b6000601084815481106111235761112261481b565b5b90600052602060002090600502019050600061113e84612394565b905060008260040154905081810361118b576040517f08c379a000000000000000000000000000000000000000000000000000000000815260040161118290614d1d565b60405180910390fd5b7f00000000000000000000000000000000000000000000000000000000000000008111156111ee576040517f08c379a00000000000000000000000000000000000000000000000000000000081526004016111e590614d89565b60405180910390fd5b8183600401819055507f11866c6bd0f6c9f4753a4891ab4d2e17484dbbdc2aa908db44e66a35c5c331dc86836040516112289291906145fb565b60405180910390a1505050505050565b6112406135ec565b73ffffffffffffffffffffffffffffffffffffffff168173ffffffffffffffffffffffffffffffffffffffff16146112ad576040517f08c379a00000000000000000000000000000000000000000000000000000000081526004016112a490614e1b565b60405180910390fd5b6112b78282613906565b5050565b600260015403611300576040517f08c379a00000000000000000000000000000000000000000000000000000000081526004016112f790614a58565b60405180910390fd5b6002600181905550600f60019054906101000a900460ff16611357576040517f08c379a000000000000000000000000000000000000000000000000000000000815260040161134e9061478f565b60405180910390fd5b6000601060008154811061136e5761136d61481b565b5b9060005260206000209060050201905060006011600080815260200190815260200160002060003373ffffffffffffffffffffffffffffffffffffffff1673ffffffffffffffffffffffffffffffffffffffff16815260200190815260200160002090506113dc6000611bf8565b60008160000154111561142c576000816001015464e8d4a510008460030154846000015461140a9190614b0a565b6114149190614b7b565b61141e9190614951565b905061142a3382613691565b505b60008311156114f6578160000160009054906101000a900473ffffffffffffffffffffffffffffffffffffffff1673ffffffffffffffffffffffffffffffffffffffff166323b872dd3330866040518463ffffffff1660e01b815260040161149693929190614e3b565b6020604051808303816000875af11580156114b5573d6000803e3d6000fd5b505050506040513d601f19601f820116820180604052508101906114d99190614bea565b50828160000160008282546114ee9190614985565b925050819055505b600081600301540361150c574281600301819055505b64e8d4a51000826003015482600001546115269190614b0a565b6115309190614b7b565b816001018190555060008311156115d157600760009054906101000a900473ffffffffffffffffffffffffffffffffffffffff1673ffffffffffffffffffffffffffffffffffffffff166340c10f1933856040518363ffffffff1660e01b815260040161159e929190614bac565b600060405180830381600087803b1580156115b857600080fd5b505af11580156115cc573d6000803e3d6000fd5b505050505b60003373ffffffffffffffffffffffffffffffffffffffff167f36af321ec8d3c75236829c5317affd40ddb308863a1236d2d277a4025cccee1e854260405161161b9291906145fb565b60405180910390a350506001808190555050565b600360009054906101000a900473ffffffffffffffffffffffffffffffffffffffff1681565b60026001540361169a576040517f08c379a000000000000000000000000000000000000000000000000000000000815260040161169190614a58565b60405180910390fd5b6002600181905550600f60019054906101000a900460ff166116f1576040517f08c379a00000000000000000000000000000000000000000000000000000000081526004016116e89061478f565b60405180910390fd5b816010805490508110611739576040517f08c379a0000000000000000000000000000000000000000000000000000000008152600401611730906147fb565b60405180910390fd5b6000830361177c576040517f08c379a000000000000000000000000000000000000000000000000000000000815260040161177390614ee4565b60405180910390fd5b600082116117bf576040517f08c379a00000000000000000000000000000000000000000000000000000000081526004016117b690614f50565b60405180910390fd5b6000601084815481106117d5576117d461481b565b5b9060005260206000209060050201905060006011600086815260200190815260200160002060003373ffffffffffffffffffffffffffffffffffffffff1673ffffffffffffffffffffffffffffffffffffffff16815260200190815260200160002090508381600001541015611880576040517f08c379a000000000000000000000000000000000000000000000000000000000815260040161187790614fbc565b60405180910390fd5b61188985611bf8565b6000816001015464e8d4a51000846003015484600001546118aa9190614b0a565b6118b49190614b7b565b6118be9190614951565b905060008111156118d4576118d33382613691565b5b60006118e08733612c4c565b905060006118ed82612634565b9050868460000160008282546119039190614951565b92505081905550818460040181905550808460050181905550600061192989838a61245f565b9150506000818961193a9190614951565b90508660000160009054906101000a900473ffffffffffffffffffffffffffffffffffffffff1673ffffffffffffffffffffffffffffffffffffffff1663a9059cbb600360009054906101000a900473ffffffffffffffffffffffffffffffffffffffff16836040518363ffffffff1660e01b81526004016119bd929190614bac565b6020604051808303816000875af11580156119dc573d6000803e3d6000fd5b505050506040513d601f19601f82011682018060405250810190611a009190614bea565b508660000160009054906101000a900473ffffffffffffffffffffffffffffffffffffffff1673ffffffffffffffffffffffffffffffffffffffff1663a9059cbb33846040518363ffffffff1660e01b8152600401611a60929190614bac565b6020604051808303816000875af1158015611a7f573d6000803e3d6000fd5b505050506040513d601f19601f82011682018060405250810190611aa39190614bea565b5064e8d4a5100087600301548760000154611abe9190614b0a565b611ac89190614b7b565b8660010181905550428660020181905550893373ffffffffffffffffffffffffffffffffffffffff167fe08737ac48a1dab4b1a46c7dc9398bd5bfc6d7ad6fabb7cd8caa254de14def358b8442604051611b2493929190614fdc565b60405180910390a35050505050505050600180819055505050565b600760009054906101000a900473ffffffffffffffffffffffffffffffffffffffff1681565b601254611b7981611b746135ec565b6135f4565b611b82846139e7565b7f0000000000000000000000000000000000000000000000000000000000000000821115611be5576040517f08c379a0000000000000000000000000000000000000000000000000000000008152600401611bdc90615085565b60405180910390fd5b611bf185858585613ac5565b5050505050565b806010805490508110611c40576040517f08c379a0000000000000000000000000000000000000000000000000000000008152600401611c37906147fb565b60405180910390fd5b600060108381548110611c5657611c5561481b565b5b9060005260206000209060050201905080600201544211611c775750611fec565b60008160000160009054906101000a900473ffffffffffffffffffffffffffffffffffffffff1673ffffffffffffffffffffffffffffffffffffffff166370a08231306040518263ffffffff1660e01b8152600401611cd6919061446c565b602060405180830381865afa158015611cf3573d6000803e3d6000fd5b505050506040513d601f19601f82011682018060405250810190611d1791906150ba565b905060008103611d31574282600201819055505050611fec565b6000611d418360020154426124db565b90506000600e548460010154600c5484611d5b9190614b0a565b611d659190614b0a565b611d6f9190614b7b565b90506000650746a528800064e8d4a5100083611d8b9190614b0a565b611d959190614b7b565b9050600660009054906101000a900473ffffffffffffffffffffffffffffffffffffffff1673ffffffffffffffffffffffffffffffffffffffff166340c10f19600260009054906101000a900473ffffffffffffffffffffffffffffffffffffffff16836040518363ffffffff1660e01b8152600401611e16929190614bac565b600060405180830381600087803b158015611e3057600080fd5b505af1158015611e44573d6000803e3d6000fd5b50505050600660009054906101000a900473ffffffffffffffffffffffffffffffffffffffff1673ffffffffffffffffffffffffffffffffffffffff166340c10f19600360009054906101000a900473ffffffffffffffffffffffffffffffffffffffff16836040518363ffffffff1660e01b8152600401611ec7929190614bac565b600060405180830381600087803b158015611ee157600080fd5b505af1158015611ef5573d6000803e3d6000fd5b50505050600660009054906101000a900473ffffffffffffffffffffffffffffffffffffffff1673ffffffffffffffffffffffffffffffffffffffff166340c10f19600760009054906101000a900473ffffffffffffffffffffffffffffffffffffffff16846040518363ffffffff1660e01b8152600401611f78929190614bac565b600060405180830381600087803b158015611f9257600080fd5b505af1158015611fa6573d6000803e3d6000fd5b505050508364e8d4a5100083611fbc9190614b0a565b611fc69190614b7b565b8560030154611fd59190614985565b856003018190555042856002018190555050505050505b5050565b600260015403612035576040517f08c379a000000000000000000000000000000000000000000000000000000000815260040161202c90614a58565b60405180910390fd5b6002600181905550600f60009054906101000a900460ff1661208c576040517f08c379a000000000000000000000000000000000000000000000000000000000815260040161208390615133565b60405180910390fd5b6000601082815481106120a2576120a161481b565b5b9060005260206000209060050201905060006011600084815260200190815260200160002060003373ffffffffffffffffffffffffffffffffffffffff1673ffffffffffffffffffffffffffffffffffffffff168152602001908152602001600020905060008303612286578060000154600760009054906101000a900473ffffffffffffffffffffffffffffffffffffffff1673ffffffffffffffffffffffffffffffffffffffff166370a08231336040518263ffffffff1660e01b815260040161216e919061446c565b6020604051808303816000875af115801561218d573d6000803e3d6000fd5b505050506040513d601f19601f820116820180604052508101906121b191906150ba565b10156121f2576040517f08c379a00000000000000000000000000000000000000000000000000000000081526004016121e9906151c5565b60405180910390fd5b600760009054906101000a900473ffffffffffffffffffffffffffffffffffffffff1673ffffffffffffffffffffffffffffffffffffffff16639dc29fac3383600001546040518363ffffffff1660e01b8152600401612253929190614bac565b600060405180830381600087803b15801561226d57600080fd5b505af1158015612281573d6000803e3d6000fd5b505050505b6122d93382600001548460000160009054906101000a900473ffffffffffffffffffffffffffffffffffffffff1673ffffffffffffffffffffffffffffffffffffffff16613c319092919063ffffffff16565b6000816000018190555060008160010181905550428160020181905550823373ffffffffffffffffffffffffffffffffffffffff167f2369db1bafee945aee5630782f4a170682e3f8188d8dc247a4c73eb8c9e692d2836000015484600201546040516123479291906145fb565b60405180910390a350506001808190555050565b600c5481565b6000601080549050905060005b818110156123905761237f81611bf8565b8061238990614c89565b905061236e565b5050565b6000670de0b6b3a7640000826123aa9190614b0a565b9050919050565b6000806011600084815260200190815260200160002060008573ffffffffffffffffffffffffffffffffffffffff1673ffffffffffffffffffffffffffffffffffffffff1681526020019081526020016000209050600081600001549050600061241b8587612c4c565b9050600061242882612634565b9050600061243787838661245f565b91505080846124469190614951565b9550505050505092915050565b600d5481565b600b5481565b60008060006124766124718787612664565b6132eb565b90506000606482866124889190614b0a565b6124929190614b7b565b9050600081866124a29190614951565b9050818194509450505050935093915050565b600660009054906101000a900473ffffffffffffffffffffffffffffffffffffffff1681565b600082826124e99190614951565b905092915050565b60005b60108054905081101561257e5760006011600083815260200190815260200160002060003373ffffffffffffffffffffffffffffffffffffffff1673ffffffffffffffffffffffffffffffffffffffff168152602001908152602001600020905060008160000154111561256c5761256b82612d54565b5b508061257790614c89565b90506124f4565b50565b600080600084815260200190815260200160002060000160008373ffffffffffffffffffffffffffffffffffffffff1673ffffffffffffffffffffffffffffffffffffffff16815260200190815260200160002060009054906101000a900460ff16905092915050565b6011602052816000526040600020602052806000526040600020600091509150508060000154908060010154908060020154908060030154908060040154908060050154905086565b600062015180821061265457620151808261264f9190614b7b565b612657565b60005b9050919050565b60085481565b60008061267083612394565b90506000601085815481106126885761268761481b565b5b906000526020600020906005020190506000816004015490508083106126b157600093506126c0565b82816126bd9190614951565b93505b50505092915050565b60095481565b6000801b81565b6013546126ea816126e56135ec565b6135f4565b826009541415806126fd57508160085414155b61273c576040517f08c379a000000000000000000000000000000000000000000000000000000000815260040161273390615231565b60405180910390fd5b8282101561277f576040517f08c379a00000000000000000000000000000000000000000000000000000000081526004016127769061529d565b60405180910390fd5b82600981905550816008819055506127978383613cb7565b7fb298bc23e07860d501fddce288f46d761aa04a0c7c3316099eb50f097aacf30483836040516127c89291906145fb565b60405180910390a1505050565b600080601084815481106127ec576127eb61481b565b5b9060005260206000209060050201905060006011600086815260200190815260200160002060008573ffffffffffffffffffffffffffffffffffffffff1673ffffffffffffffffffffffffffffffffffffffff168152602001908152602001600020905060008260030154905060008360000160009054906101000a900473ffffffffffffffffffffffffffffffffffffffff1673ffffffffffffffffffffffffffffffffffffffff166370a08231306040518263ffffffff1660e01b81526004016128b8919061446c565b602060405180830381865afa1580156128d5573d6000803e3d6000fd5b505050506040513d601f19601f820116820180604052508101906128f991906150ba565b905083600201544211801561290f575060008114155b156129805760006129248560020154426124db565b90506000600e548660010154600c548461293e9190614b0a565b6129489190614b0a565b6129529190614b7b565b90508264e8d4a51000826129669190614b0a565b6129709190614b7b565b8461297b9190614985565b935050505b826001015464e8d4a5100083856000015461299b9190614b0a565b6129a59190614b7b565b6129af9190614951565b94505050505092915050565b6012546129cf816129ca6135ec565b6135f4565b81600e819055505050565b6013546129ee816129e96135ec565b6135f4565b81600f60006101000a81548160ff0219169083151502179055505050565b601254612a2081612a1b6135ec565b6135f4565b8273ffffffffffffffffffffffffffffffffffffffff16600460009054906101000a900473ffffffffffffffffffffffffffffffffffffffff1673ffffffffffffffffffffffffffffffffffffffff16141580612acb57508173ffffffffffffffffffffffffffffffffffffffff16600560009054906101000a900473ffffffffffffffffffffffffffffffffffffffff1673ffffffffffffffffffffffffffffffffffffffff1614155b612b0a576040517f08c379a0000000000000000000000000000000000000000000000000000000008152600401612b0190614d1d565b60405180910390fd5b82600460006101000a81548173ffffffffffffffffffffffffffffffffffffffff021916908373ffffffffffffffffffffffffffffffffffffffff16021790555081600560006101000a81548173ffffffffffffffffffffffffffffffffffffffff021916908373ffffffffffffffffffffffffffffffffffffffff16021790555082600660006101000a81548173ffffffffffffffffffffffffffffffffffffffff021916908373ffffffffffffffffffffffffffffffffffffffff16021790555081600760006101000a81548173ffffffffffffffffffffffffffffffffffffffff021916908373ffffffffffffffffffffffffffffffffffffffff1602179055507fdcc6331013de89f8c595d5328f0a724194f113cb6f8f2a707b3dff6de13f0d178383604051612c3f9291906152bd565b60405180910390a1505050565b6000806011600085815260200190815260200160002060008473ffffffffffffffffffffffffffffffffffffffff1673ffffffffffffffffffffffffffffffffffffffff168152602001908152602001600020905060008160020154148015612cb9575060008160030154115b15612cd657806003015442612cce9190614951565b915050612d01565b600081600201541115612cfb57806002015442612cf39190614951565b915050612d01565b60009150505b92915050565b612d108261106b565b612d2181612d1c6135ec565b6135f4565b612d2b8383613906565b505050565b7f000000000000000000000000000000000000000000000000000000000000000081565b60008103612d6b57612d6660006112bb565b612d77565b612d76816000612f7c565b5b50565b601254612d8e81612d896135ec565b6135f4565b8273ffffffffffffffffffffffffffffffffffffffff16600360009054906101000a900473ffffffffffffffffffffffffffffffffffffffff1673ffffffffffffffffffffffffffffffffffffffff16141580612e3957508173ffffffffffffffffffffffffffffffffffffffff16600260009054906101000a900473ffffffffffffffffffffffffffffffffffffffff1673ffffffffffffffffffffffffffffffffffffffff1614155b612e78576040517f08c379a0000000000000000000000000000000000000000000000000000000008152600401612e6f90614d1d565b60405180910390fd5b82600360006101000a81548173ffffffffffffffffffffffffffffffffffffffff021916908373ffffffffffffffffffffffffffffffffffffffff16021790555081600260006101000a81548173ffffffffffffffffffffffffffffffffffffffff021916908373ffffffffffffffffffffffffffffffffffffffff1602179055507fd1c04282701cbf58aa2f0026f6876051cf3feb8ee7b8b5b5532ebb4ab03fb5d4600360009054906101000a900473ffffffffffffffffffffffffffffffffffffffff16600260009054906101000a900473ffffffffffffffffffffffffffffffffffffffff16604051612f6f9291906152bd565b60405180910390a1505050565b600260015403612fc1576040517f08c379a0000000000000000000000000000000000000000000000000000000008152600401612fb890614a58565b60405180910390fd5b6002600181905550600f60019054906101000a900460ff16613018576040517f08c379a000000000000000000000000000000000000000000000000000000000815260040161300f9061478f565b60405180910390fd5b816010805490508110613060576040517f08c379a0000000000000000000000000000000000000000000000000000000008152600401613057906147fb565b60405180910390fd5b600083036130a3576040517f08c379a000000000000000000000000000000000000000000000000000000000815260040161309a90615358565b60405180910390fd5b6000601084815481106130b9576130b861481b565b5b9060005260206000209060050201905060006011600086815260200190815260200160002060003373ffffffffffffffffffffffffffffffffffffffff1673ffffffffffffffffffffffffffffffffffffffff168152602001908152602001600020905061312685611bf8565b600081600001541115613180576000816001015464e8d4a51000846003015484600001546131549190614b0a565b61315e9190614b7b565b6131689190614951565b9050600081111561317e5761317d3382613691565b5b505b600084111561324a578160000160009054906101000a900473ffffffffffffffffffffffffffffffffffffffff1673ffffffffffffffffffffffffffffffffffffffff166323b872dd3330876040518463ffffffff1660e01b81526004016131ea93929190614e3b565b6020604051808303816000875af1158015613209573d6000803e3d6000fd5b505050506040513d601f19601f8201168201806040525081019061322d9190614bea565b50838160000160008282546132429190614985565b925050819055505b64e8d4a51000826003015482600001546132649190614b0a565b61326e9190614b7b565b8160010181905550600081600301540361328c574281600301819055505b843373ffffffffffffffffffffffffffffffffffffffff167f36af321ec8d3c75236829c5317affd40ddb308863a1236d2d277a4025cccee1e86426040516132d59291906145fb565b60405180910390a3505050600180819055505050565b6000670de0b6b3a7640000826133019190614b7b565b9050919050565b60125481565b6012546133228161331d6135ec565b6135f4565b81600f60016101000a81548160ff0219169083151502179055505050565b60135481565b6060600060028360026133599190614b0a565b6133639190614985565b67ffffffffffffffff81111561337c5761337b615378565b5b6040519080825280601f01601f1916602001820160405280156133ae5781602001600182028036833780820191505090505b5090507f3000000000000000000000000000000000000000000000000000000000000000816000815181106133e6576133e561481b565b5b60200101907effffffffffffffffffffffffffffffffffffffffffffffffffffffffffffff1916908160001a9053507f78000000000000000000000000000000000000000000000000000000000000008160018151811061344a5761344961481b565b5b60200101907effffffffffffffffffffffffffffffffffffffffffffffffffffffffffffff1916908160001a9053506000600184600261348a9190614b0a565b6134949190614985565b90505b6001811115613534577f3031323334353637383961626364656600000000000000000000000000000000600f8616601081106134d6576134d561481b565b5b1a60f81b8282815181106134ed576134ec61481b565b5b60200101907effffffffffffffffffffffffffffffffffffffffffffffffffffffffffffff1916908160001a905350600485901c94508061352d906153a7565b9050613497565b5060008414613578576040517f08c379a000000000000000000000000000000000000000000000000000000000815260040161356f9061541c565b60405180910390fd5b8091505092915050565b60007f01ffc9a7000000000000000000000000000000000000000000000000000000007bffffffffffffffffffffffffffffffffffffffffffffffffffffffff1916827bffffffffffffffffffffffffffffffffffffffffffffffffffffffff1916149050919050565b600033905090565b6135fe8282612581565b61368d576136238173ffffffffffffffffffffffffffffffffffffffff166014613346565b6136318360001c6020613346565b604051602001613642929190615545565b6040516020818303038152906040526040517f08c379a000000000000000000000000000000000000000000000000000000000815260040161368491906155c9565b60405180910390fd5b5050565b80600660009054906101000a900473ffffffffffffffffffffffffffffffffffffffff1673ffffffffffffffffffffffffffffffffffffffff166370a08231600560009054906101000a900473ffffffffffffffffffffffffffffffffffffffff166040518263ffffffff1660e01b815260040161370f919061446c565b6020604051808303816000875af115801561372e573d6000803e3d6000fd5b505050506040513d601f19601f8201168201806040525081019061375291906150ba565b1015613793576040517f08c379a000000000000000000000000000000000000000000000000000000000815260040161378a9061565d565b60405180910390fd5b600760009054906101000a900473ffffffffffffffffffffffffffffffffffffffff1673ffffffffffffffffffffffffffffffffffffffff1663b2a142aa83836040518363ffffffff1660e01b81526004016137f0929190614bac565b600060405180830381600087803b15801561380a57600080fd5b505af115801561381e573d6000803e3d6000fd5b505050505050565b6138308282612581565b61390257600160008084815260200190815260200160002060000160008373ffffffffffffffffffffffffffffffffffffffff1673ffffffffffffffffffffffffffffffffffffffff16815260200190815260200160002060006101000a81548160ff0219169083151502179055506138a76135ec565b73ffffffffffffffffffffffffffffffffffffffff168173ffffffffffffffffffffffffffffffffffffffff16837f2f8788117e7eff1d82e926ec794901d17c78024a50270940304540a733656f0d60405160405180910390a45b5050565b6139108282612581565b156139e357600080600084815260200190815260200160002060000160008373ffffffffffffffffffffffffffffffffffffffff1673ffffffffffffffffffffffffffffffffffffffff16815260200190815260200160002060006101000a81548160ff0219169083151502179055506139886135ec565b73ffffffffffffffffffffffffffffffffffffffff168173ffffffffffffffffffffffffffffffffffffffff16837ff6391f5c32d9c69d2a47ea670b442974b53935d1edc7fd64eb21e047a839171b60405160405180910390a45b5050565b6000601080549050905060005b81811015613ac0578273ffffffffffffffffffffffffffffffffffffffff1660108281548110613a2757613a2661481b565b5b906000526020600020906005020160000160009054906101000a900473ffffffffffffffffffffffffffffffffffffffff1673ffffffffffffffffffffffffffffffffffffffff1603613aaf576040517f08c379a0000000000000000000000000000000000000000000000000000000008152600401613aa6906156c9565b60405180910390fd5b80613ab990614c89565b90506139f4565b505050565b8115613ad457613ad3612361565b5b83600e6000828254613ae69190614985565b9250508190555060106040518060a001604052808573ffffffffffffffffffffffffffffffffffffffff168152602001868152602001600d544211613b2d57600d54613b2f565b425b815260200160008152602001613b4484612394565b815250908060018154018082558091505060019003906000526020600020906005020160009091909190915060008201518160000160006101000a81548173ffffffffffffffffffffffffffffffffffffffff021916908373ffffffffffffffffffffffffffffffffffffffff160217905550602082015181600101556040820151816002015560608201518160030155608082015181600401555050600060108054905090507f20b669aa921947a6d9602a921d2db3b6b30f21b9aca98580fa3972530330b27a818686600e54604051613c2294939291906156e9565b60405180910390a15050505050565b613cb28363a9059cbb60e01b8484604051602401613c50929190614bac565b604051602081830303815290604052907bffffffffffffffffffffffffffffffffffffffffffffffffffffffff19166020820180517bffffffffffffffffffffffffffffffffffffffffffffffffffffffff8381831617835250505050613d3c565b505050565b600081613cc384612394565b613ccd9190614b7b565b9050600a5481613cdd9190614b0a565b600b8190555062015180600b54613cf49190614b7b565b600c819055507fcd7c861d63893659123f817b192b8621ff1923a7c4589c260173cedcf9e986a6600b54600c54604051613d2f9291906145fb565b60405180910390a1505050565b6000613d9e826040518060400160405280602081526020017f5361666545524332303a206c6f772d6c6576656c2063616c6c206661696c65648152508573ffffffffffffffffffffffffffffffffffffffff16613e039092919063ffffffff16565b9050600081511115613dfe5780806020019051810190613dbe9190614bea565b613dfd576040517f08c379a0000000000000000000000000000000000000000000000000000000008152600401613df4906157a0565b60405180910390fd5b5b505050565b6060613e128484600085613e1b565b90509392505050565b606082471015613e60576040517f08c379a0000000000000000000000000000000000000000000000000000000008152600401613e5790615832565b60405180910390fd5b613e6985613f2f565b613ea8576040517f08c379a0000000000000000000000000000000000000000000000000000000008152600401613e9f9061589e565b60405180910390fd5b6000808673ffffffffffffffffffffffffffffffffffffffff168587604051613ed19190615905565b60006040518083038185875af1925050503d8060008114613f0e576040519150601f19603f3d011682016040523d82523d6000602084013e613f13565b606091505b5091509150613f23828286613f42565b92505050949350505050565b600080823b905060008111915050919050565b60608315613f5257829050613fa2565b600083511115613f655782518084602001fd5b816040517f08c379a0000000000000000000000000000000000000000000000000000000008152600401613f9991906155c9565b60405180910390fd5b9392505050565b600080fd5b600080fd5b60007fffffffff0000000000000000000000000000000000000000000000000000000082169050919050565b613fe881613fb3565b8114613ff357600080fd5b50565b60008135905061400581613fdf565b92915050565b60006020828403121561402157614020613fa9565b5b600061402f84828501613ff6565b91505092915050565b60008115159050919050565b61404d81614038565b82525050565b60006020820190506140686000830184614044565b92915050565b6000819050919050565b6140818161406e565b82525050565b600060208201905061409c6000830184614078565b92915050565b6140ab8161406e565b81146140b657600080fd5b50565b6000813590506140c8816140a2565b92915050565b6140d781614038565b81146140e257600080fd5b50565b6000813590506140f4816140ce565b92915050565b6000806000806080858703121561411457614113613fa9565b5b6000614122878288016140b9565b9450506020614133878288016140b9565b9350506040614144878288016140b9565b9250506060614155878288016140e5565b91505092959194509250565b60006020828403121561417757614176613fa9565b5b6000614185848285016140b9565b91505092915050565b600073ffffffffffffffffffffffffffffffffffffffff82169050919050565b6000819050919050565b60006141d36141ce6141c98461418e565b6141ae565b61418e565b9050919050565b60006141e5826141b8565b9050919050565b60006141f7826141da565b9050919050565b614207816141ec565b82525050565b600060a08201905061422260008301886141fe565b61422f6020830187614078565b61423c6040830186614078565b6142496060830185614078565b6142566080830184614078565b9695505050505050565b6000819050919050565b61427381614260565b811461427e57600080fd5b50565b6000813590506142908161426a565b92915050565b6000602082840312156142ac576142ab613fa9565b5b60006142ba84828501614281565b91505092915050565b6142cc81614260565b82525050565b60006020820190506142e760008301846142c3565b92915050565b600080fd5b600080fd5b600080fd5b60008083601f840112614312576143116142ed565b5b8235905067ffffffffffffffff81111561432f5761432e6142f2565b5b60208301915083602082028301111561434b5761434a6142f7565b5b9250929050565b6000806020838503121561436957614368613fa9565b5b600083013567ffffffffffffffff81111561438757614386613fae565b5b614393858286016142fc565b92509250509250929050565b60006143aa8261418e565b9050919050565b6143ba8161439f565b81146143c557600080fd5b50565b6000813590506143d7816143b1565b92915050565b600080604083850312156143f4576143f3613fa9565b5b600061440285828601614281565b9250506020614413858286016143c8565b9150509250929050565b6000806040838503121561443457614433613fa9565b5b6000614442858286016140b9565b9250506020614453858286016140b9565b9150509250929050565b6144668161439f565b82525050565b6000602082019050614481600083018461445d565b92915050565b6000614492826141da565b9050919050565b6144a281614487565b82525050565b60006020820190506144bd6000830184614499565b92915050565b60006144ce8261439f565b9050919050565b6144de816144c3565b81146144e957600080fd5b50565b6000813590506144fb816144d5565b92915050565b6000806000806080858703121561451b5761451a613fa9565b5b6000614529878288016140b9565b945050602061453a878288016144ec565b935050604061454b878288016140e5565b925050606061455c878288016140b9565b91505092959194509250565b6000806040838503121561457f5761457e613fa9565b5b600061458d858286016143c8565b925050602061459e858286016140b9565b9150509250929050565b6000806000606084860312156145c1576145c0613fa9565b5b60006145cf868287016140b9565b93505060206145e0868287016140b9565b92505060406145f1868287016140b9565b9150509250925092565b60006040820190506146106000830185614078565b61461d6020830184614078565b9392505050565b6000806040838503121561463b5761463a613fa9565b5b6000614649858286016140b9565b925050602061465a858286016143c8565b9150509250929050565b600060c0820190506146796000830189614078565b6146866020830188614078565b6146936040830187614078565b6146a06060830186614078565b6146ad6080830185614078565b6146ba60a0830184614078565b979650505050505050565b6000602082840312156146db576146da613fa9565b5b60006146e9848285016140e5565b91505092915050565b6000806040838503121561470957614708613fa9565b5b6000614717858286016143c8565b9250506020614728858286016143c8565b9150509250929050565b600082825260208201905092915050565b7f636f6e74726163742069732063757272656e746c792070617573656400000000600082015250565b6000614779601c83614732565b915061478482614743565b602082019050919050565b600060208201905081810360008301526147a88161476c565b9050919050565b7f706f6f6c20646f6573206e6f7420657869737400000000000000000000000000600082015250565b60006147e5601383614732565b91506147f0826147af565b602082019050919050565b60006020820190508181036000830152614814816147d8565b9050919050565b7f4e487b7100000000000000000000000000000000000000000000000000000000600052603260045260246000fd5b7f6e6f206368616e6765207265717565737465642e000000000000000000000000600082015250565b6000614880601483614732565b915061488b8261484a565b602082019050919050565b600060208201905081810360008301526148af81614873565b9050919050565b7f66656520646179732065786365656473206d6178000000000000000000000000600082015250565b60006148ec601483614732565b91506148f7826148b6565b602082019050919050565b6000602082019050818103600083015261491b816148df565b9050919050565b7f4e487b7100000000000000000000000000000000000000000000000000000000600052601160045260246000fd5b600061495c8261406e565b91506149678361406e565b925082820390508181111561497f5761497e614922565b5b92915050565b60006149908261406e565b915061499b8361406e565b92508282019050808211156149b3576149b2614922565b5b92915050565b600060a0820190506149ce6000830188614078565b6149db6020830187614078565b6149e86040830186614078565b6149f56060830185614078565b614a026080830184614078565b9695505050505050565b7f5265656e7472616e637947756172643a207265656e7472616e742063616c6c00600082015250565b6000614a42601f83614732565b9150614a4d82614a0c565b602082019050919050565b60006020820190508181036000830152614a7181614a35565b9050919050565b7f726571756573746564207769746864726177616c20657863656564732073746160008201527f6b65642062616c616e6365000000000000000000000000000000000000000000602082015250565b6000614ad4602b83614732565b9150614adf82614a78565b604082019050919050565b60006020820190508181036000830152614b0381614ac7565b9050919050565b6000614b158261406e565b9150614b208361406e565b9250828202614b2e8161406e565b91508282048414831517614b4557614b44614922565b5b5092915050565b7f4e487b7100000000000000000000000000000000000000000000000000000000600052601260045260246000fd5b6000614b868261406e565b9150614b918361406e565b925082614ba157614ba0614b4c565b5b828204905092915050565b6000604082019050614bc1600083018561445d565b614bce6020830184614078565b9392505050565b600081519050614be4816140ce565b92915050565b600060208284031215614c0057614bff613fa9565b5b6000614c0e84828501614bd5565b91505092915050565b6000819050919050565b6000614c3c614c37614c3284614c17565b6141ae565b61406e565b9050919050565b614c4c81614c21565b82525050565b6000606082019050614c676000830186614078565b614c746020830185614c43565b614c816040830184614078565b949350505050565b6000614c948261406e565b91507fffffffffffffffffffffffffffffffffffffffffffffffffffffffffffffffff8203614cc657614cc5614922565b5b600182019050919050565b7f6e6f206368616e67652072657175657374656400000000000000000000000000600082015250565b6000614d07601383614732565b9150614d1282614cd1565b602082019050919050565b60006020820190508181036000830152614d3681614cfa565b9050919050565b7f6578636565647320616c6c6f7761626c65206665654461797300000000000000600082015250565b6000614d73601983614732565b9150614d7e82614d3d565b602082019050919050565b60006020820190508181036000830152614da281614d66565b9050919050565b7f416363657373436f6e74726f6c3a2063616e206f6e6c792072656e6f756e636560008201527f20726f6c657320666f722073656c660000000000000000000000000000000000602082015250565b6000614e05602f83614732565b9150614e1082614da9565b604082019050919050565b60006020820190508181036000830152614e3481614df8565b9050919050565b6000606082019050614e50600083018661445d565b614e5d602083018561445d565b614e6a6040830184614078565b949350505050565b7f776974686472617720534f554c20627920756e7374616b696e6720286c65617660008201527f655374616b696e67290000000000000000000000000000000000000000000000602082015250565b6000614ece602983614732565b9150614ed982614e72565b604082019050919050565b60006020820190508181036000830152614efd81614ec1565b9050919050565b7f63616e6e6f74207769746864726177207a65726f000000000000000000000000600082015250565b6000614f3a601483614732565b9150614f4582614f04565b602082019050919050565b60006020820190508181036000830152614f6981614f2d565b9050919050565b7f7769746864726177616c2065786365656473206465706f736974000000000000600082015250565b6000614fa6601a83614732565b9150614fb182614f70565b602082019050919050565b60006020820190508181036000830152614fd581614f99565b9050919050565b6000606082019050614ff16000830186614078565b614ffe6020830185614078565b61500b6040830184614078565b949350505050565b7f66656544617973206d6179206e6f742065786365656420746865206d6178696d60008201527f756d206f66203130302064617973000000000000000000000000000000000000602082015250565b600061506f602e83614732565b915061507a82615013565b604082019050919050565b6000602082019050818103600083015261509e81615062565b9050919050565b6000815190506150b4816140a2565b92915050565b6000602082840312156150d0576150cf613fa9565b5b60006150de848285016150a5565b91505092915050565b7f656d657267656e6379206d6f6465206973206e6f74206163746976652e000000600082015250565b600061511d601d83614732565b9150615128826150e7565b602082019050919050565b6000602082019050818103600083015261514c81615110565b9050919050565b7f696e73756666696369656e74205345414e434520746f20636f76657220534f5560008201527f4c207769746864726177616c2072657175657374000000000000000000000000602082015250565b60006151af603483614732565b91506151ba82615153565b604082019050919050565b600060208201905081810360008301526151de816151a2565b9050919050565b7f6d75737420696e636c7564652061206e65772076616c75650000000000000000600082015250565b600061521b601883614732565b9150615226826151e5565b602082019050919050565b6000602082019050818103600083015261524a8161520e565b9050919050565b7f7765696768742063616e6e6f742065786365656420746f74616c576569676874600082015250565b6000615287602083614732565b915061529282615251565b602082019050919050565b600060208201905081810360008301526152b68161527a565b9050919050565b60006040820190506152d2600083018561445d565b6152df602083018461445d565b9392505050565b7f6465706f73697420534f554c206279207374616b696e672028656e746572537460008201527f616b696e67290000000000000000000000000000000000000000000000000000602082015250565b6000615342602683614732565b915061534d826152e6565b604082019050919050565b6000602082019050818103600083015261537181615335565b9050919050565b7f4e487b7100000000000000000000000000000000000000000000000000000000600052604160045260246000fd5b60006153b28261406e565b9150600082036153c5576153c4614922565b5b600182039050919050565b7f537472696e67733a20686578206c656e67746820696e73756666696369656e74600082015250565b6000615406602083614732565b9150615411826153d0565b602082019050919050565b60006020820190508181036000830152615435816153f9565b9050919050565b600081905092915050565b7f416363657373436f6e74726f6c3a206163636f756e7420000000000000000000600082015250565b600061547d60178361543c565b915061548882615447565b601782019050919050565b600081519050919050565b60005b838110156154bc5780820151818401526020810190506154a1565b60008484015250505050565b60006154d382615493565b6154dd818561543c565b93506154ed81856020860161549e565b80840191505092915050565b7f206973206d697373696e6720726f6c6520000000000000000000000000000000600082015250565b600061552f60118361543c565b915061553a826154f9565b601182019050919050565b600061555082615470565b915061555c82856154c8565b915061556782615522565b915061557382846154c8565b91508190509392505050565b6000601f19601f8301169050919050565b600061559b82615493565b6155a58185614732565b93506155b581856020860161549e565b6155be8161557f565b840191505092915050565b600060208201905081810360008301526155e38184615590565b905092915050565b7f696e73756666696369656e7420636f76657261676520666f722072657175657360008201527f74656420534f554c2066726f6d205345414e4345000000000000000000000000602082015250565b6000615647603483614732565b9150615652826155eb565b604082019050919050565b600060208201905081810360008301526156768161563a565b9050919050565b7f6475706c69636174656420706f6f6c0000000000000000000000000000000000600082015250565b60006156b3600f83614732565b91506156be8261567d565b602082019050919050565b600060208201905081810360008301526156e2816156a6565b9050919050565b60006080820190506156fe6000830187614078565b61570b6020830186614078565b61571860408301856141fe565b6157256060830184614078565b95945050505050565b7f5361666545524332303a204552433230206f7065726174696f6e20646964206e60008201527f6f74207375636365656400000000000000000000000000000000000000000000602082015250565b600061578a602a83614732565b91506157958261572e565b604082019050919050565b600060208201905081810360008301526157b98161577d565b9050919050565b7f416464726573733a20696e73756666696369656e742062616c616e636520666f60008201527f722063616c6c0000000000000000000000000000000000000000000000000000602082015250565b600061581c602683614732565b9150615827826157c0565b604082019050919050565b6000602082019050818103600083015261584b8161580f565b9050919050565b7f416464726573733a2063616c6c20746f206e6f6e2d636f6e7472616374000000600082015250565b6000615888601d83614732565b915061589382615852565b602082019050919050565b600060208201905081810360008301526158b78161587b565b9050919050565b600081519050919050565b600081905092915050565b60006158df826158be565b6158e981856158c9565b93506158f981856020860161549e565b80840191505092915050565b600061591182846158d4565b91508190509291505056fea2646970667358221220121ed4a2e875a3554c3cbb83ca903ff6f59ee240c890a1c33ea2b6b74960138564736f6c63430008110033",
  "immutableReferences": {
    "28938": [
      {
        "length": 32,
        "start": 2860
      },
      {
        "length": 32,
        "start": 4493
      },
      {
        "length": 32,
        "start": 7044
      },
      {
        "length": 32,
        "start": 11570
      }
    ]
  },
  "source": "// SPDX-License-Identifier: MIT\n\npragma solidity >=0.8.0;\nimport '@openzeppelin/contracts/access/AccessControl.sol';\nimport '@openzeppelin/contracts/security/ReentrancyGuard.sol';\nimport '../libraries/SafeERC20.sol';\nimport '../interfaces/IToken.sol';\n\npragma solidity >=0.8.0;\n\n// manifester of new souls\ncontract SoulManifester is AccessControl, ReentrancyGuard {\n    using SafeERC20 for IERC20;\n\n    // user info\n    struct Users {\n        uint amount;            // deposited amount.\n        uint rewardDebt;        // reward debt (see: pendingSoul).\n        uint withdrawalTime;    // last withdrawal time.\n        uint depositTime;       // first deposit time.\n        uint timeDelta;         // seconds accounted for in fee calculation.\n        uint deltaDays;         // days accounted for in fee calculation\n\n        // the following occurs when a user +/- tokens to a pool:\n        //   1. pool: `accSoulPerShare` and `lastRewardTime` update.\n        //   2. user: receives pending reward.\n        //   3. user: `amount` updates (+/-).\n        //   4. user: `rewardDebt` updates (+/-).\n        //   5. user: [if] first-timer, \n            // [then] `depositTime` updates,\n            // [else] `withdrawalTime` updates.\n    }\n\n    // pool info\n    struct Pools {\n        IERC20 lpToken;       // lp token contract.\n        uint allocPoint;      // allocation points, which determines SOUL distribution per second.\n        uint lastRewardTime;  // latest SOUL distribution in the pool.\n        uint accSoulPerShare; // accumulated SOUL per share (times 1e12).\n        uint feeDays;         // days during which a fee applies (aka startRate or feeDuration).\n    }\n\n    // team addresses\n    address private team; // receives 1/8 soul supply\n    address public dao; // recieves 1/8 soul supply\n\n    // soul & seance addresses\n    address private soulAddress;\n    address private seanceAddress;\n\n    // tokens: soul & seance\n    IToken public soul;\n    IToken public seance;\n\n    // rewarder variables: used to calculate share of overall emissions.\n    uint public totalWeight;\n    uint public weight;\n\n    // global daily SOUL\n    uint private globalDailySoul = 250_000;\n\n    // local daily SOUL\n    uint public dailySoul; // = weight * globalDailySoul * 1e18;\n\n    // rewards per second for this rewarder\n    uint public soulPerSecond; // = dailySoul / 86_400;\n\n    // marks the beginning of soul rewards.\n    uint public startTime;\n\n    // total allocation points: must be the sum of all allocation points\n    uint public totalAllocPoint;\n    \n    // limits the maximum days to wait for a fee-less withdrawal.\n    uint public immutable maxFeeDays = toWei(100);\n\n    // emergency state\n    bool private isEmergency;\n\n    // activation state\n    bool private isActivated;\n\n    // pool info\n    Pools[] public poolInfo;\n\n    // user info\n    mapping (uint => mapping (address => Users)) public userInfo;\n\n    // divine roles\n    bytes32 public isis; // soul summoning goddess of magic\n    bytes32 public maat; // goddess of cosmic order\n\n    // restricts: function to the council of the role passed as an object to obey (role)\n    modifier obey(bytes32 role) {\n        _checkRole(role, _msgSender());\n        _;\n    }\n\n    // controls: emergencyWithdrawals.\n    modifier emergencyActive {\n        require(isEmergency, 'emergency mode is not active.');\n        _;\n    }\n\n    // proxy for pausing contract.\n    modifier isActive {\n        require(isActivated, 'contract is currently paused');\n        _;\n    }\n\n    // validates: pool exists\n    modifier validatePoolByPid(uint pid) {\n        require(pid < poolInfo.length, 'pool does not exist');\n        _;\n    }\n\n    /*/ events /*/\n    event Deposit(address indexed user, uint indexed pid, uint amount, uint timestamp);\n    event Withdraw(address indexed user, uint indexed pid, uint amount, uint feeAmount, uint timestamp);\n    event Initialized(uint weight, uint timestamp);\n    event PoolAdded(uint pid, uint allocPoint, IERC20 lpToken, uint totalAllocPoint);\n    event PoolSet(uint pid, uint allocPoint, uint totalAllocPoint, uint absDelta, uint timestamp);\n    event WeightUpdated(uint weight, uint totalWeight);\n    event RewardsUpdated(uint dailySoul, uint soulPerSecond);\n    event FeeDaysUpdated(uint pid, uint feeDays);\n    event AccountsUpdated(address dao, address team);\n    event TokensUpdated(address soul, address seance);\n    event DepositRevised(uint pid, address account, uint timestamp);\n    event EmergencyWithdraw(address indexed user, uint indexed pid, uint amount, uint timestamp);\n\n    // channels: power to the divine goddesses isis & ma'at\n    constructor() {\n        // sets: user addresses\n        team = 0x221cAc060A2257C8F77B6eb1b03e36ea85A1675A;\n        dao = 0xf551D88fE8fae7a97292d28876A0cdD49dC373fa;\n\n        // sets: roles\n        isis = keccak256(\"isis\"); // goddess of magic (who creates pools)\n        maat = keccak256(\"maat\"); // goddess of cosmic order (who allocates emissions)\n\n        // divines: role admins\n        _divinationCeremony(DEFAULT_ADMIN_ROLE, DEFAULT_ADMIN_ROLE, msg.sender);\n        _divinationCeremony(isis, isis, msg.sender); // isis role created -- supreme divined admin\n        _divinationCeremony(maat, isis, msg.sender); // maat role created -- isis divined admin\n\n        // sets: `startTime`\n        startTime = block.timestamp;\n\n        // sets: `soul` & `seance`\n        setTokens(0x11d6DD25c1695764e64F439E32cc7746f3945543, 0x97Ee3C9Cf4E5DE384f95e595a8F327e65265cC4E);\n    \n        // sets: `weight`, `totalWeight`, `dailySoul` & `soulPerSecond`\n        updateWeight(1, 1_000);\n\n        // adds: staking pool (allocation: 1,000 & withdrawFee: 0).\n        poolInfo.push(Pools({\n            lpToken: IERC20(0x11d6DD25c1695764e64F439E32cc7746f3945543),\n            allocPoint: 1_000,\n            lastRewardTime: block.timestamp,\n            accSoulPerShare: 0,\n            feeDays: 0\n        }));\n\n        // sets: total allocation point.\n        totalAllocPoint += 1_000;\n        \n    } \n\n    // divines: `role` to recipient.\n    function _divinationCeremony(bytes32 _role, bytes32 _adminRole, address _account) internal returns (bool) {\n        _setupRole(_role, _account);\n        _setRoleAdmin(_role, _adminRole);\n        return true;\n    }\n\n    // validates: pool uniqueness to eliminate duplication risk (internal view)\n    function checkPoolDuplicate(IERC20 _token) internal view {\n        uint length = poolInfo.length;\n\n        for (uint pid = 0; pid < length; ++pid) {\n            require(poolInfo[pid].lpToken != _token, 'duplicated pool');\n        }\n    }\n\n    // enables: panic button (ma'at)\n    function toggleEmergency(bool enabled) external obey(maat) {\n        isEmergency = enabled;\n    }\n\n    // toggles: pause state (isis)\n    function toggleActive(bool enabled) external obey(isis) {\n        isActivated = enabled;\n    }\n\n    // returns: amount of pools\n    function poolLength() external view returns (uint) { return poolInfo.length; }\n\n    // add: new pool created by the soul summoning goddess whose power transcends all (isis)\n    function addPool(uint _allocPoint, IERC20 _lpToken, bool _withUpdate, uint _feeDays) public obey(isis) { \n            checkPoolDuplicate(_lpToken);\n            require(_feeDays <= maxFeeDays, 'feeDays may not exceed the maximum of 100 days');\n\n            _addPool(_allocPoint, _lpToken, _withUpdate, _feeDays);\n    }\n\n    // add: pool\n    function _addPool(uint _allocPoint, IERC20 _lpToken, bool _withUpdate, uint _feeDays) internal {\n        if (_withUpdate) { massUpdatePools(); }\n\n        totalAllocPoint += _allocPoint;\n\n        poolInfo.push(\n        Pools({\n            lpToken: _lpToken,\n            allocPoint: _allocPoint,\n            lastRewardTime: block.timestamp > startTime ? block.timestamp : startTime,\n            accSoulPerShare: 0,\n            feeDays: toWei(_feeDays)\n        }));\n        \n        uint pid = poolInfo.length;\n\n        emit PoolAdded(pid, _allocPoint, _lpToken, totalAllocPoint);\n    }\n\n    // updates: allocation points (ma'at)\n    function setPool(\n        uint pid, \n        uint _allocPoint, \n        uint _feeDays, \n        bool withUpdate\n    ) external isActive validatePoolByPid(pid) obey(maat) {\n        // gets: pool data (stored for updates).\n            Pools storage pool = poolInfo[pid];\n            // [if] withUpdate, [then] execute mass pool update.\n            if (withUpdate) { massUpdatePools(); }\n                        \n            // checks: an update is being executed.\n            require(pool.allocPoint != _allocPoint || pool.feeDays != _feeDays, 'no change requested.');\n            \n            // checks: fee is below maximum\n            require(_feeDays <= maxFeeDays, 'fee days exceeds max');\n\n            // identifies: treatment of new allocation.\n            bool isIncrease = _allocPoint > pool.allocPoint;\n            \n            // calculates: | delta | for global allocation;\n            uint absDelta \n                = isIncrease \n                    ? _allocPoint - pool.allocPoint\n                    : pool.allocPoint - _allocPoint;\n\n            // sets: new `pool.allocPoint`\n            pool.allocPoint = _allocPoint;\n\n            // sets: new `pool.feeDays`\n            pool.feeDays = _feeDays;\n\n            // updates: `totalAllocPoint`\n            isIncrease \n                ? totalAllocPoint += absDelta\n                : totalAllocPoint -= absDelta;\n\n        emit PoolSet(pid, _allocPoint, totalAllocPoint, absDelta, block.timestamp);\n    }\n\n    // safety: in case of errors.\n    function setTotalAllocPoint(uint _totalAllocPoint) external obey(isis) {\n        totalAllocPoint = _totalAllocPoint;\n    }\n\n    // returns: user delta is the time since user either last withdrew OR first deposited OR 0.\n\tfunction getUserDelta(uint pid, address account) public view returns (uint timeDelta) {\n        // gets: stored `user` data (for a given pid).\n        Users storage user = userInfo[pid][account];\n\n        // [if] has never withdrawn & has deposited, [then] returns: `timeDelta` as the seconds since first `depositTime`.\n        if (user.withdrawalTime == 0 && user.depositTime > 0) { return timeDelta = block.timestamp - user.depositTime; }\n            // [else if] `user` has withdrawn, [then] returns: `timeDelta` as the time since the last withdrawal.\n            else if(user.withdrawalTime > 0) { return timeDelta = block.timestamp - user.withdrawalTime; }\n                // [else] returns: `timeDelta` as 0, since the user has never deposited.\n                else return timeDelta = 0;\n\t}\n\n    // returns: multiplier during a period.\n    function getMultiplier(uint from, uint to) public pure returns (uint) {\n        return to - from;\n    }\n    \n    // returns: multiplier during a period.\n    function getMaxFee(address account, uint pid) public view returns (uint maxFee) {\n        // gets: stored `user` data (`pid`).\n        Users storage user = userInfo[pid][account];\n\n        // gets: stored `user` staked `amount` (`pid`).\n        uint stakedBal = user.amount;\n\n        // gets: `timeDelta` as the time since last withdrawal or first deposit (`pid`, `account`).\n        uint timeDelta = getUserDelta(pid, account);\n\n        // gets: `deltaDays` from the `timeDelta` of the specified `account` (`pid`).\n        uint deltaDays = getDeltaDays(timeDelta);\n\n        // calculates: withdrawable amount (`pid`, `deltaDays`, `stakedBal`).\n        (, uint withdrawableAmount) = getWithdrawable(pid, deltaDays, stakedBal); \n\n        // calculates: `maxFee` as the `amount` requested minus `withdrawableAmount`.\n        maxFee = stakedBal - withdrawableAmount;\n\n        return maxFee;\n \n    }\n\n    // gets: days based off a given timeDelta (seconds).\n    function getDeltaDays(uint timeDelta) public pure returns (uint deltaDays) {\n        deltaDays = timeDelta < 1 days ? 0 : timeDelta / 1 days;\n        return deltaDays;     \n    }\n\n    // returns: fee rate for a given pid and timeDelta.\n    function getFeeRate(uint pid, uint deltaDays) public view returns (uint feeRate) {\n        // calculates: rateDecayed (converts to wei).\n        uint rateDecayed = toWei(deltaDays);\n\n        // gets: info & feeDays (pool)\n        Pools storage pool = poolInfo[pid];\n        uint feeDays = pool.feeDays; \n\n        // [if] more time has elapsed than wait period\n        if (rateDecayed >= feeDays) {\n            // [then] set feeRate to 0.\n            feeRate = 0;\n        } else { // [else] reduce feeDays by the rateDecayed.\n            feeRate = feeDays - rateDecayed;\n        }\n\n        return feeRate;\n    }\n\n    // returns: feeAmount and with withdrawableAmount for a given pid and amount\n    function getWithdrawable(uint pid, uint deltaDays, uint amount) public view returns (uint _feeAmount, uint _withdrawable) {\n        // gets: feeRate\n        uint feeRate = fromWei(getFeeRate(pid, deltaDays));\n        // gets: feeAmount\n        uint feeAmount = (amount * feeRate) / 100;\n        // calculates: withdrawable amount\n        uint withdrawable = amount - feeAmount;\n\n        return (feeAmount, withdrawable);\n    }\n\n    // view: pending soul rewards\n    function pendingSoul(uint pid, address account) external view returns (uint pendingAmount) {\n        // gets: pool and user data\n        Pools storage pool = poolInfo[pid];\n        Users storage user = userInfo[pid][account];\n\n        // gets: `accSoulPerShare` & `lpSupply` (pool)\n        uint accSoulPerShare = pool.accSoulPerShare;\n        uint lpSupply = pool.lpToken.balanceOf(address(this));\n\n        // [if] holds deposits & rewards issued at least once (pool)\n        if (block.timestamp > pool.lastRewardTime && lpSupply != 0) {\n            // gets: multiplier from the time since now and last time rewards issued (pool)\n            uint multiplier = getMultiplier(pool.lastRewardTime, block.timestamp);\n            // get: reward as the product of the elapsed emissions and the share of soul rewards (pool)\n            uint soulReward = multiplier * soulPerSecond * pool.allocPoint / totalAllocPoint;\n            // adds: product of soulReward and 1e12\n            accSoulPerShare = accSoulPerShare + soulReward * 1e12 / lpSupply;\n        }\n        // returns: rewardShare for user minus the amount paid out (user)\n        return user.amount * accSoulPerShare / 1e12 - user.rewardDebt;\n    }\n\n    // updates: rewards for all pools (public)\n    function massUpdatePools() public {\n        uint length = poolInfo.length;\n        for (uint pid = 0; pid < length; ++pid) { updatePool(pid); }\n    }\n\n    // rewards: accounts for a given pool id\n    function updatePool(uint pid) public validatePoolByPid(pid) {\n        Pools storage pool = poolInfo[pid];\n\n        if (block.timestamp <= pool.lastRewardTime) { return; }\n        uint lpSupply = pool.lpToken.balanceOf(address(this));\n\n        // [if] first staker in pool, [then] set lastRewardTime to meow.\n        if (lpSupply == 0) { pool.lastRewardTime = block.timestamp; return; }\n\n        // gets: multiplier from time elasped since pool began issuing rewards.\n        uint multiplier = getMultiplier(pool.lastRewardTime, block.timestamp);\n        uint soulReward = multiplier * soulPerSecond * pool.allocPoint / totalAllocPoint;\n        // gets: divi\n        uint divi = soulReward * 1e12 / 8e12;   // 12.5% rewards\n        \n        soul.mint(team, divi);\n        soul.mint(dao, divi);\n        soul.mint(address(seance), soulReward); // prevents reward errors\n\n        pool.accSoulPerShare = pool.accSoulPerShare + (soulReward * 1e12 / lpSupply);\n        pool.lastRewardTime = block.timestamp;\n    }\n\n    // harvests: pending rewards for a given pid.\n    function harvest(uint pid) public {\n        if (pid == 0) { enterStaking(0); }\n        else { deposit(pid, 0); }\n    }\n    \n    // harvest: all pools in a single transaction.\n    function harvestAll(uint[] calldata pids) external {\n        for (uint i = 0; i < pids.length; ++i) {\n            harvest(pids[i]);\n        }\n    }\n\n    // harvest: all pools in a single transaction.\n    function harvestAll() external {\n        for (uint pid = 0; pid < poolInfo.length; ++pid) {\n        // gets senders pending rewards (where staked)\n        Users storage user = userInfo[pid][msg.sender];\n            if (user.amount > 0) { harvest(pid); }\n        }\n    }\n\n    // deposit: lp tokens (lp owner)\n    function deposit(uint pid, uint amount) public nonReentrant isActive validatePoolByPid(pid) {\n        require (pid != 0, 'deposit SOUL by staking (enterStaking)');\n        \n        // gets: stored data for pool and user.\n        Pools storage pool = poolInfo[pid];\n        Users storage user = userInfo[pid][msg.sender];\n\n        updatePool(pid);\n\n        // [if] already deposited (user)\n        if (user.amount > 0) {\n            // [then] gets: pendingReward.\n        uint pendingReward = user.amount * pool.accSoulPerShare / 1e12 - user.rewardDebt;\n                // [if] rewards pending, [then] transfer to user.\n                if(pendingReward > 0) { \n                    safeSoulTransfer(msg.sender, pendingReward);\n                }\n        }\n\n        // [if] depositing more\n        if (amount > 0) {\n            // [then] transfer lpToken from user to contract\n            pool.lpToken.transferFrom(address(msg.sender), address(this), amount);\n            // [then] increment deposit amount (user).\n            user.amount += amount;\n        }\n\n        // updates: reward debt (user).\n        user.rewardDebt = user.amount * pool.accSoulPerShare / 1e12;\n\n        // [if] first time depositing (user)\n        if (user.depositTime == 0) {\n            // [then] update depositTime\n            user.depositTime = block.timestamp;\n        }\n        \n        emit Deposit(msg.sender, pid, amount, block.timestamp);\n    }\n\n    // withdraw: lp tokens (external farmers)\n    function withdraw(uint pid, uint amount) external nonReentrant isActive validatePoolByPid(pid) {\n        require (pid != 0, 'withdraw SOUL by unstaking (leaveStaking)');\n        require(amount > 0, 'cannot withdraw zero');\n\n        Pools storage pool = poolInfo[pid];\n        Users storage user = userInfo[pid][msg.sender];\n\n        require(user.amount >= amount, 'withdrawal exceeds deposit');\n        updatePool(pid);\n\n        // gets: pending rewards as determined by pendingSoul.\n        uint pendingReward = user.amount * pool.accSoulPerShare / 1e12 - user.rewardDebt;\n        // [if] rewards are pending, [then] send rewards to user.\n        if(pendingReward > 0) { safeSoulTransfer(msg.sender, pendingReward); }\n\n        // gets: timeDelta as the time since last withdrawal.\n        uint timeDelta = getUserDelta(pid, msg.sender);\n\n        // gets: deltaDays as days passed using timeDelta.\n        uint deltaDays = getDeltaDays(timeDelta);\n\n        // updates: deposit, timeDelta, & deltaDays (user)\n        user.amount -= amount;\n        user.timeDelta = timeDelta;\n        user.deltaDays = deltaDays;\n\n        // calculates: withdrawable amount (pid, deltaDays, amount).\n        (, uint withdrawableAmount) = getWithdrawable(pid, deltaDays, amount); \n\n        // calculates: `feeAmount` as the `amount` requested minus `withdrawableAmount`.\n        uint feeAmount = amount - withdrawableAmount;\n\n        // transfers: `feeAmount` --> DAO.\n        pool.lpToken.transfer(address(dao), feeAmount);\n        // transfers: withdrawableAmount amount --> user.\n        pool.lpToken.transfer(address(msg.sender), withdrawableAmount);\n\n        // updates: rewardDebt and withdrawalTime (user)\n        user.rewardDebt = user.amount * pool.accSoulPerShare / 1e12;\n        user.withdrawalTime = block.timestamp;\n\n        emit Withdraw(msg.sender, pid, amount, feeAmount, block.timestamp);\n    }\n\n    // enables: withdrawal without caring about rewards (for example, when rewards end).\n    function emergencyWithdraw(uint pid) external nonReentrant emergencyActive {\n        // gets: pool & user data (to update later).\n        Pools storage pool = poolInfo[pid];\n        Users storage user = userInfo[pid][msg.sender];\n\n        // [if] removing from staking\n        if (pid == 0) {\n            // [then] require SEANCE balance covers request (user).\n            require(seance.balanceOf(msg.sender) >= user.amount, 'insufficient SEANCE to cover SOUL withdrawal request');\n            // [then] burn seance from sender.\n            seance.burn(msg.sender, user.amount); \n        }\n\n        // transfers: lpToken to the user.\n        pool.lpToken.safeTransfer(msg.sender, user.amount);\n\n        // eliminates: user deposit `amount` & `rewardDebt`.\n        user.amount = 0;\n        user.rewardDebt = 0;\n\n        // updates: user `withdrawTime`.\n        user.withdrawalTime = block.timestamp;\n\n        emit EmergencyWithdraw(msg.sender, pid, user.amount, user.withdrawalTime);\n    }\n\n    // stakes: soul into summoner.\n    function enterStaking(uint amount) public nonReentrant isActive {\n        Pools storage pool = poolInfo[0];\n        Users storage user = userInfo[0][msg.sender];\n\n        updatePool(0);\n\n        // [if] already staked (user)\n        if (user.amount > 0) {\n            // [then] get: pending rewards.\n            uint pendingReward = user.amount * pool.accSoulPerShare / 1e12 - user.rewardDebt;\n            // [then] send: pending rewards.\n            safeSoulTransfer(msg.sender, pendingReward);\n        }\n        \n        // [if] staking ( harvest)\n        if (amount > 0) {\n            // [then] transfer: `amount` of SOUL from user to contract.\n            pool.lpToken.transferFrom(msg.sender, address(this), amount);\n            // [then] increase: stored deposit amount (user).\n            user.amount += amount;\n        }\n\n        // [if] first deposit, [then] set depositTime to meow (user).\n        if (user.depositTime == 0) { user.depositTime = block.timestamp; }\n\n        // updates: reward debt (user)\n        user.rewardDebt = user.amount * pool.accSoulPerShare / 1e12;\n\n        // mints & sends: requested `amount` of SEANCE to sender as a receipt.\n        if (amount > 0) { seance.mint(msg.sender, amount); }\n\n        emit Deposit(msg.sender, 0, amount, block.timestamp);\n    }\n\n    // unstake: your soul (external staker)\n    function leaveStaking(uint amount) external nonReentrant isActive {\n        Pools storage pool = poolInfo[0];\n        Users storage user = userInfo[0][msg.sender];\n\n        // checks: sufficient balance to cover request (user).\n        require(user.amount >= amount, 'requested withdrawal exceeds staked balance');\n        updatePool(0);\n\n        // gets: pending staking pool rewards (user).\n        uint pendingReward = user.amount * pool.accSoulPerShare / 1e12 - user.rewardDebt;\n\n        // [if] sender has pending rewards, [then] transfer rewards to sender.\n        if (pendingReward > 0) { safeSoulTransfer(msg.sender, pendingReward); }\n\n        // [if] withdrawing from stake.\n        if (amount > 0) {\n            // [then] decrease: stored deposit by withdrawal amount.\n            user.amount = user.amount - amount;\n            // [then] burn: SEANCE in the specified `amount` (user).\n            seance.burn(msg.sender, amount);\n            // [then] update: reward debt (user).\n            user.rewardDebt = user.amount * pool.accSoulPerShare / 1e12;\n            // [then] update: withdrawal time (user).\n            user.withdrawalTime = block.timestamp;\n            // [then] transfer: requested SOUL (user).\n            pool.lpToken.transfer(address(msg.sender), amount);\n        }\n\n        emit Withdraw(msg.sender, 0, amount, 0, block.timestamp);\n    }\n    \n    // transfer: seance (only if there is sufficient coverage for payout).\n    function safeSoulTransfer(address account, uint amount) internal {\n        require(soul.balanceOf(seanceAddress) >= amount, 'insufficient coverage for requested SOUL from SEANCE');\n        seance.safeSoulTransfer(account, amount);\n    }\n\n    // update: weight (ma'at)\n    function updateWeight(uint _weight, uint _totalWeight) public obey(maat) {\n        require(weight != _weight || totalWeight != _totalWeight, 'must include a new value');\n        require(_totalWeight >= _weight, 'weight cannot exceed totalWeight');\n\n        weight = _weight;     \n        totalWeight = _totalWeight;\n\n        updateRewards(_weight, _totalWeight);\n\n        emit WeightUpdated(_weight, _totalWeight);\n    }\n\n    // update: rewards\n    function updateRewards(uint _weight, uint _totalWeight) internal {\n        uint share = toWei(_weight) / _totalWeight; // share of total emissions for rewarder (rewarder % total emissions)\n        \n        // sets: `dailySoul` = share (%) x globalDailySoul (soul emissions constant)\n        dailySoul = share * globalDailySoul;\n\n        // sets: `soulPerSecond` as `dailySoul` expressed per second (1 days = 86,400 secs).\n        soulPerSecond = dailySoul / 1 days;\n\n        emit RewardsUpdated(dailySoul, soulPerSecond);\n    }\n\n    // updates: feeDays (ma'at)\n    function updateFeeDays(uint pid, uint _daysRequested) external obey(maat) {\n        Pools storage pool = poolInfo[pid];\n        \n        // converts: requested days (toWei).\n        uint _feeDays = toWei(_daysRequested);\n\n        // gets: current fee days & ensures distinction (pool)\n        uint feeDays = pool.feeDays;\n        require(feeDays != _feeDays, 'no change requested');\n        \n        // limits: feeDays by maxFeeDays\n        require(feeDays <= maxFeeDays, 'exceeds allowable feeDays');\n        \n        // updates: fee days (pool)\n        pool.feeDays = _feeDays;\n        \n        emit FeeDaysUpdated(pid, _feeDays);\n    }\n\n    // updates: dao & team addresses (isis)\n    function updateAccounts(address _dao, address _team) public obey(isis) {\n        require(dao != _dao || team != _team, 'no change requested');\n        dao = _dao;\n        team = _team;\n\n        emit AccountsUpdated(dao, team);\n    }\n\n    // updates: soul & seance addresses (isis)\n    function setTokens(address _soulAddress, address _seanceAddress) public obey(isis) {\n        require(soulAddress != _soulAddress || seanceAddress != _seanceAddress, 'no change requested');\n        soulAddress = _soulAddress;\n        seanceAddress = _seanceAddress;\n\n        soul = IToken(_soulAddress);\n        seance = IToken(_seanceAddress);\n\n        emit TokensUpdated(_soulAddress, _seanceAddress);\n    }\n\n    // helper functions to convert to wei and 1/100th\n    function toWei(uint amount) public pure returns (uint) { return amount * 1e18; }\n    function fromWei(uint amount) public pure returns (uint) { return amount / 1e18; }\n}",
  "sourcePath": "/Users/buns/Documents/GitHub/SoulSwapFinance/soulswap-farms/contracts/rewards/SoulManifester.sol",
  "compiler": {
    "name": "solc",
    "version": "0.8.17+commit.8df45f5f.Emscripten.clang"
  },
  "schemaVersion": "3.4.1",
  "updatedAt": "2022-10-01T21:51:30.412Z",
  "devdoc": {
    "kind": "dev",
    "methods": {
      "getRoleAdmin(bytes32)": {
        "details": "Returns the admin role that controls `role`. See {grantRole} and {revokeRole}. To change a role's admin, use {_setRoleAdmin}."
      },
      "grantRole(bytes32,address)": {
        "details": "Grants `role` to `account`. If `account` had not been already granted `role`, emits a {RoleGranted} event. Requirements: - the caller must have ``role``'s admin role."
      },
      "hasRole(bytes32,address)": {
        "details": "Returns `true` if `account` has been granted `role`."
      },
      "renounceRole(bytes32,address)": {
        "details": "Revokes `role` from the calling account. Roles are often managed via {grantRole} and {revokeRole}: this function's purpose is to provide a mechanism for accounts to lose their privileges if they are compromised (such as when a trusted device is misplaced). If the calling account had been granted `role`, emits a {RoleRevoked} event. Requirements: - the caller must be `account`."
      },
      "revokeRole(bytes32,address)": {
        "details": "Revokes `role` from `account`. If `account` had been granted `role`, emits a {RoleRevoked} event. Requirements: - the caller must have ``role``'s admin role."
      },
      "supportsInterface(bytes4)": {
        "details": "See {IERC165-supportsInterface}."
      }
    },
    "version": 1
  },
  "userdoc": {
    "kind": "user",
    "methods": {},
    "version": 1
  }
}