{
  "contractName": "SoulSummonerAvalancheExt",
  "abi": [
    {
      "inputs": [],
      "stateMutability": "nonpayable",
      "type": "constructor"
    },
    {
      "anonymous": false,
      "inputs": [
        {
          "indexed": false,
          "internalType": "address",
          "name": "dao",
          "type": "address"
        },
        {
          "indexed": false,
          "internalType": "address",
          "name": "team",
          "type": "address"
        }
      ],
      "name": "AccountsUpdated",
      "type": "event"
    },
    {
      "anonymous": false,
      "inputs": [
        {
          "indexed": true,
          "internalType": "address",
          "name": "user",
          "type": "address"
        },
        {
          "indexed": true,
          "internalType": "uint256",
          "name": "pid",
          "type": "uint256"
        },
        {
          "indexed": false,
          "internalType": "uint256",
          "name": "amount",
          "type": "uint256"
        },
        {
          "indexed": false,
          "internalType": "uint256",
          "name": "timestamp",
          "type": "uint256"
        }
      ],
      "name": "Deposit",
      "type": "event"
    },
    {
      "anonymous": false,
      "inputs": [
        {
          "indexed": false,
          "internalType": "uint256",
          "name": "pid",
          "type": "uint256"
        },
        {
          "indexed": false,
          "internalType": "address",
          "name": "account",
          "type": "address"
        },
        {
          "indexed": false,
          "internalType": "uint256",
          "name": "timestamp",
          "type": "uint256"
        }
      ],
      "name": "DepositRevised",
      "type": "event"
    },
    {
      "anonymous": false,
      "inputs": [
        {
          "indexed": true,
          "internalType": "address",
          "name": "user",
          "type": "address"
        },
        {
          "indexed": true,
          "internalType": "uint256",
          "name": "pid",
          "type": "uint256"
        },
        {
          "indexed": false,
          "internalType": "uint256",
          "name": "amount",
          "type": "uint256"
        }
      ],
      "name": "EmergencyWithdraw",
      "type": "event"
    },
    {
      "anonymous": false,
      "inputs": [
        {
          "indexed": false,
          "internalType": "uint256",
          "name": "pid",
          "type": "uint256"
        },
        {
          "indexed": false,
          "internalType": "uint256",
          "name": "feeDays",
          "type": "uint256"
        }
      ],
      "name": "FeeDaysUpdated",
      "type": "event"
    },
    {
      "anonymous": false,
      "inputs": [
        {
          "indexed": false,
          "internalType": "address",
          "name": "soulAddress",
          "type": "address"
        },
        {
          "indexed": false,
          "internalType": "address",
          "name": "seanceAddress",
          "type": "address"
        },
        {
          "indexed": false,
          "internalType": "uint256",
          "name": "weight",
          "type": "uint256"
        }
      ],
      "name": "Initialized",
      "type": "event"
    },
    {
      "anonymous": false,
      "inputs": [
        {
          "indexed": false,
          "internalType": "uint256",
          "name": "pid",
          "type": "uint256"
        },
        {
          "indexed": false,
          "internalType": "uint256",
          "name": "allocPoint",
          "type": "uint256"
        },
        {
          "indexed": false,
          "internalType": "contract IERC20",
          "name": "lpToken",
          "type": "address"
        },
        {
          "indexed": false,
          "internalType": "uint256",
          "name": "totalAllocPoint",
          "type": "uint256"
        }
      ],
      "name": "PoolAdded",
      "type": "event"
    },
    {
      "anonymous": false,
      "inputs": [
        {
          "indexed": false,
          "internalType": "uint256",
          "name": "pid",
          "type": "uint256"
        },
        {
          "indexed": false,
          "internalType": "uint256",
          "name": "allocPoint",
          "type": "uint256"
        }
      ],
      "name": "PoolSet",
      "type": "event"
    },
    {
      "anonymous": false,
      "inputs": [
        {
          "indexed": false,
          "internalType": "uint256",
          "name": "dailySoul",
          "type": "uint256"
        },
        {
          "indexed": false,
          "internalType": "uint256",
          "name": "soulPerSecond",
          "type": "uint256"
        }
      ],
      "name": "RewardsUpdated",
      "type": "event"
    },
    {
      "anonymous": false,
      "inputs": [
        {
          "indexed": true,
          "internalType": "bytes32",
          "name": "role",
          "type": "bytes32"
        },
        {
          "indexed": true,
          "internalType": "bytes32",
          "name": "previousAdminRole",
          "type": "bytes32"
        },
        {
          "indexed": true,
          "internalType": "bytes32",
          "name": "newAdminRole",
          "type": "bytes32"
        }
      ],
      "name": "RoleAdminChanged",
      "type": "event"
    },
    {
      "anonymous": false,
      "inputs": [
        {
          "indexed": true,
          "internalType": "bytes32",
          "name": "role",
          "type": "bytes32"
        },
        {
          "indexed": true,
          "internalType": "address",
          "name": "account",
          "type": "address"
        },
        {
          "indexed": true,
          "internalType": "address",
          "name": "sender",
          "type": "address"
        }
      ],
      "name": "RoleGranted",
      "type": "event"
    },
    {
      "anonymous": false,
      "inputs": [
        {
          "indexed": true,
          "internalType": "bytes32",
          "name": "role",
          "type": "bytes32"
        },
        {
          "indexed": true,
          "internalType": "address",
          "name": "account",
          "type": "address"
        },
        {
          "indexed": true,
          "internalType": "address",
          "name": "sender",
          "type": "address"
        }
      ],
      "name": "RoleRevoked",
      "type": "event"
    },
    {
      "anonymous": false,
      "inputs": [
        {
          "indexed": false,
          "internalType": "address",
          "name": "soul",
          "type": "address"
        },
        {
          "indexed": false,
          "internalType": "address",
          "name": "seance",
          "type": "address"
        }
      ],
      "name": "TokensUpdated",
      "type": "event"
    },
    {
      "anonymous": false,
      "inputs": [
        {
          "indexed": false,
          "internalType": "uint256",
          "name": "weight",
          "type": "uint256"
        },
        {
          "indexed": false,
          "internalType": "uint256",
          "name": "totalWeight",
          "type": "uint256"
        }
      ],
      "name": "WeightUpdated",
      "type": "event"
    },
    {
      "anonymous": false,
      "inputs": [
        {
          "indexed": true,
          "internalType": "address",
          "name": "user",
          "type": "address"
        },
        {
          "indexed": true,
          "internalType": "uint256",
          "name": "pid",
          "type": "uint256"
        },
        {
          "indexed": false,
          "internalType": "uint256",
          "name": "amount",
          "type": "uint256"
        },
        {
          "indexed": false,
          "internalType": "uint256",
          "name": "feeAmount",
          "type": "uint256"
        },
        {
          "indexed": false,
          "internalType": "uint256",
          "name": "timeStamp",
          "type": "uint256"
        }
      ],
      "name": "Withdraw",
      "type": "event"
    },
    {
      "inputs": [],
      "name": "DEFAULT_ADMIN_ROLE",
      "outputs": [
        {
          "internalType": "bytes32",
          "name": "",
          "type": "bytes32"
        }
      ],
      "stateMutability": "view",
      "type": "function"
    },
    {
      "inputs": [],
      "name": "bonusMultiplier",
      "outputs": [
        {
          "internalType": "uint256",
          "name": "",
          "type": "uint256"
        }
      ],
      "stateMutability": "view",
      "type": "function"
    },
    {
      "inputs": [],
      "name": "calculator",
      "outputs": [
        {
          "internalType": "contract ICalculator",
          "name": "",
          "type": "address"
        }
      ],
      "stateMutability": "view",
      "type": "function"
    },
    {
      "inputs": [],
      "name": "dailyDecay",
      "outputs": [
        {
          "internalType": "uint256",
          "name": "",
          "type": "uint256"
        }
      ],
      "stateMutability": "view",
      "type": "function"
    },
    {
      "inputs": [],
      "name": "dailySoul",
      "outputs": [
        {
          "internalType": "uint256",
          "name": "",
          "type": "uint256"
        }
      ],
      "stateMutability": "view",
      "type": "function"
    },
    {
      "inputs": [],
      "name": "dao",
      "outputs": [
        {
          "internalType": "address",
          "name": "",
          "type": "address"
        }
      ],
      "stateMutability": "view",
      "type": "function"
    },
    {
      "inputs": [
        {
          "internalType": "bytes32",
          "name": "role",
          "type": "bytes32"
        }
      ],
      "name": "getRoleAdmin",
      "outputs": [
        {
          "internalType": "bytes32",
          "name": "",
          "type": "bytes32"
        }
      ],
      "stateMutability": "view",
      "type": "function"
    },
    {
      "inputs": [],
      "name": "globalDailySoul",
      "outputs": [
        {
          "internalType": "uint256",
          "name": "",
          "type": "uint256"
        }
      ],
      "stateMutability": "view",
      "type": "function"
    },
    {
      "inputs": [
        {
          "internalType": "bytes32",
          "name": "role",
          "type": "bytes32"
        },
        {
          "internalType": "address",
          "name": "account",
          "type": "address"
        }
      ],
      "name": "grantRole",
      "outputs": [],
      "stateMutability": "nonpayable",
      "type": "function"
    },
    {
      "inputs": [
        {
          "internalType": "bytes32",
          "name": "role",
          "type": "bytes32"
        },
        {
          "internalType": "address",
          "name": "account",
          "type": "address"
        }
      ],
      "name": "hasRole",
      "outputs": [
        {
          "internalType": "bool",
          "name": "",
          "type": "bool"
        }
      ],
      "stateMutability": "view",
      "type": "function"
    },
    {
      "inputs": [],
      "name": "isEmergency",
      "outputs": [
        {
          "internalType": "bool",
          "name": "",
          "type": "bool"
        }
      ],
      "stateMutability": "view",
      "type": "function"
    },
    {
      "inputs": [],
      "name": "isInitialized",
      "outputs": [
        {
          "internalType": "bool",
          "name": "",
          "type": "bool"
        }
      ],
      "stateMutability": "view",
      "type": "function"
    },
    {
      "inputs": [],
      "name": "isPaused",
      "outputs": [
        {
          "internalType": "bool",
          "name": "",
          "type": "bool"
        }
      ],
      "stateMutability": "view",
      "type": "function"
    },
    {
      "inputs": [],
      "name": "isis",
      "outputs": [
        {
          "internalType": "bytes32",
          "name": "",
          "type": "bytes32"
        }
      ],
      "stateMutability": "view",
      "type": "function"
    },
    {
      "inputs": [],
      "name": "maat",
      "outputs": [
        {
          "internalType": "bytes32",
          "name": "",
          "type": "bytes32"
        }
      ],
      "stateMutability": "view",
      "type": "function"
    },
    {
      "inputs": [],
      "name": "maxFeeDays",
      "outputs": [
        {
          "internalType": "uint256",
          "name": "",
          "type": "uint256"
        }
      ],
      "stateMutability": "view",
      "type": "function"
    },
    {
      "inputs": [
        {
          "internalType": "uint256",
          "name": "",
          "type": "uint256"
        }
      ],
      "name": "poolInfo",
      "outputs": [
        {
          "internalType": "contract IERC20",
          "name": "lpToken",
          "type": "address"
        },
        {
          "internalType": "uint256",
          "name": "allocPoint",
          "type": "uint256"
        },
        {
          "internalType": "uint256",
          "name": "lastRewardTime",
          "type": "uint256"
        },
        {
          "internalType": "uint256",
          "name": "accSoulPerShare",
          "type": "uint256"
        },
        {
          "internalType": "uint256",
          "name": "feeDays",
          "type": "uint256"
        }
      ],
      "stateMutability": "view",
      "type": "function"
    },
    {
      "inputs": [
        {
          "internalType": "bytes32",
          "name": "role",
          "type": "bytes32"
        },
        {
          "internalType": "address",
          "name": "account",
          "type": "address"
        }
      ],
      "name": "renounceRole",
      "outputs": [],
      "stateMutability": "nonpayable",
      "type": "function"
    },
    {
      "inputs": [
        {
          "internalType": "bytes32",
          "name": "role",
          "type": "bytes32"
        },
        {
          "internalType": "address",
          "name": "account",
          "type": "address"
        }
      ],
      "name": "revokeRole",
      "outputs": [],
      "stateMutability": "nonpayable",
      "type": "function"
    },
    {
      "inputs": [],
      "name": "seance",
      "outputs": [
        {
          "internalType": "contract IToken",
          "name": "",
          "type": "address"
        }
      ],
      "stateMutability": "view",
      "type": "function"
    },
    {
      "inputs": [],
      "name": "soul",
      "outputs": [
        {
          "internalType": "contract IToken",
          "name": "",
          "type": "address"
        }
      ],
      "stateMutability": "view",
      "type": "function"
    },
    {
      "inputs": [],
      "name": "soulPerSecond",
      "outputs": [
        {
          "internalType": "uint256",
          "name": "",
          "type": "uint256"
        }
      ],
      "stateMutability": "view",
      "type": "function"
    },
    {
      "inputs": [],
      "name": "startTime",
      "outputs": [
        {
          "internalType": "uint256",
          "name": "",
          "type": "uint256"
        }
      ],
      "stateMutability": "view",
      "type": "function"
    },
    {
      "inputs": [
        {
          "internalType": "bytes4",
          "name": "interfaceId",
          "type": "bytes4"
        }
      ],
      "name": "supportsInterface",
      "outputs": [
        {
          "internalType": "bool",
          "name": "",
          "type": "bool"
        }
      ],
      "stateMutability": "view",
      "type": "function"
    },
    {
      "inputs": [],
      "name": "team",
      "outputs": [
        {
          "internalType": "address",
          "name": "",
          "type": "address"
        }
      ],
      "stateMutability": "view",
      "type": "function"
    },
    {
      "inputs": [],
      "name": "totalAllocPoint",
      "outputs": [
        {
          "internalType": "uint256",
          "name": "",
          "type": "uint256"
        }
      ],
      "stateMutability": "view",
      "type": "function"
    },
    {
      "inputs": [],
      "name": "totalWeight",
      "outputs": [
        {
          "internalType": "uint256",
          "name": "",
          "type": "uint256"
        }
      ],
      "stateMutability": "view",
      "type": "function"
    },
    {
      "inputs": [
        {
          "internalType": "uint256",
          "name": "",
          "type": "uint256"
        },
        {
          "internalType": "address",
          "name": "",
          "type": "address"
        }
      ],
      "name": "userInfo",
      "outputs": [
        {
          "internalType": "uint256",
          "name": "amount",
          "type": "uint256"
        },
        {
          "internalType": "uint256",
          "name": "rewardDebt",
          "type": "uint256"
        },
        {
          "internalType": "uint256",
          "name": "withdrawalTime",
          "type": "uint256"
        },
        {
          "internalType": "uint256",
          "name": "depositTime",
          "type": "uint256"
        },
        {
          "internalType": "uint256",
          "name": "timeDelta",
          "type": "uint256"
        },
        {
          "internalType": "uint256",
          "name": "deltaDays",
          "type": "uint256"
        }
      ],
      "stateMutability": "view",
      "type": "function"
    },
    {
      "inputs": [],
      "name": "weight",
      "outputs": [
        {
          "internalType": "uint256",
          "name": "",
          "type": "uint256"
        }
      ],
      "stateMutability": "view",
      "type": "function"
    },
    {
      "inputs": [
        {
          "internalType": "address",
          "name": "_soulAddress",
          "type": "address"
        },
        {
          "internalType": "address",
          "name": "_seanceAddress",
          "type": "address"
        },
        {
          "internalType": "uint256",
          "name": "_weight",
          "type": "uint256"
        }
      ],
      "name": "initialize",
      "outputs": [],
      "stateMutability": "nonpayable",
      "type": "function"
    },
    {
      "inputs": [
        {
          "internalType": "bool",
          "name": "enabled",
          "type": "bool"
        }
      ],
      "name": "toggleEmergency",
      "outputs": [],
      "stateMutability": "nonpayable",
      "type": "function"
    },
    {
      "inputs": [
        {
          "internalType": "bool",
          "name": "enabled",
          "type": "bool"
        }
      ],
      "name": "togglePause",
      "outputs": [],
      "stateMutability": "nonpayable",
      "type": "function"
    },
    {
      "inputs": [],
      "name": "poolLength",
      "outputs": [
        {
          "internalType": "uint256",
          "name": "",
          "type": "uint256"
        }
      ],
      "stateMutability": "view",
      "type": "function"
    },
    {
      "inputs": [
        {
          "internalType": "uint256",
          "name": "_allocPoint",
          "type": "uint256"
        },
        {
          "internalType": "contract IERC20",
          "name": "_lpToken",
          "type": "address"
        },
        {
          "internalType": "bool",
          "name": "_withUpdate",
          "type": "bool"
        },
        {
          "internalType": "uint256",
          "name": "_feeDays",
          "type": "uint256"
        }
      ],
      "name": "addPool",
      "outputs": [],
      "stateMutability": "nonpayable",
      "type": "function"
    },
    {
      "inputs": [
        {
          "internalType": "uint256",
          "name": "pid",
          "type": "uint256"
        },
        {
          "internalType": "uint256",
          "name": "allocPoint",
          "type": "uint256"
        },
        {
          "internalType": "bool",
          "name": "withUpdate",
          "type": "bool"
        }
      ],
      "name": "set",
      "outputs": [],
      "stateMutability": "nonpayable",
      "type": "function"
    },
    {
      "inputs": [
        {
          "internalType": "uint256",
          "name": "pid",
          "type": "uint256"
        }
      ],
      "name": "userDelta",
      "outputs": [
        {
          "internalType": "uint256",
          "name": "delta",
          "type": "uint256"
        }
      ],
      "stateMutability": "view",
      "type": "function"
    },
    {
      "inputs": [
        {
          "internalType": "uint256",
          "name": "pid",
          "type": "uint256"
        },
        {
          "internalType": "address",
          "name": "_user",
          "type": "address"
        }
      ],
      "name": "userDelta",
      "outputs": [
        {
          "internalType": "uint256",
          "name": "delta",
          "type": "uint256"
        }
      ],
      "stateMutability": "view",
      "type": "function"
    },
    {
      "inputs": [
        {
          "internalType": "uint256",
          "name": "from",
          "type": "uint256"
        },
        {
          "internalType": "uint256",
          "name": "to",
          "type": "uint256"
        }
      ],
      "name": "getMultiplier",
      "outputs": [
        {
          "internalType": "uint256",
          "name": "",
          "type": "uint256"
        }
      ],
      "stateMutability": "pure",
      "type": "function"
    },
    {
      "inputs": [
        {
          "internalType": "uint256",
          "name": "timeDelta",
          "type": "uint256"
        }
      ],
      "name": "getDeltaDays",
      "outputs": [
        {
          "internalType": "uint256",
          "name": "deltaDays",
          "type": "uint256"
        }
      ],
      "stateMutability": "pure",
      "type": "function"
    },
    {
      "inputs": [
        {
          "internalType": "uint256",
          "name": "pid",
          "type": "uint256"
        },
        {
          "internalType": "uint256",
          "name": "deltaDays",
          "type": "uint256"
        }
      ],
      "name": "getFeeRate",
      "outputs": [
        {
          "internalType": "uint256",
          "name": "feeRate",
          "type": "uint256"
        }
      ],
      "stateMutability": "view",
      "type": "function"
    },
    {
      "inputs": [
        {
          "internalType": "uint256",
          "name": "pid",
          "type": "uint256"
        },
        {
          "internalType": "uint256",
          "name": "deltaDays",
          "type": "uint256"
        },
        {
          "internalType": "uint256",
          "name": "amount",
          "type": "uint256"
        }
      ],
      "name": "getWithdrawable",
      "outputs": [
        {
          "internalType": "uint256",
          "name": "_feeAmount",
          "type": "uint256"
        },
        {
          "internalType": "uint256",
          "name": "_withdrawable",
          "type": "uint256"
        }
      ],
      "stateMutability": "view",
      "type": "function"
    },
    {
      "inputs": [
        {
          "internalType": "uint256",
          "name": "pid",
          "type": "uint256"
        }
      ],
      "name": "pendingSoul",
      "outputs": [
        {
          "internalType": "uint256",
          "name": "pendingAmount",
          "type": "uint256"
        }
      ],
      "stateMutability": "view",
      "type": "function"
    },
    {
      "inputs": [
        {
          "internalType": "uint256",
          "name": "pid",
          "type": "uint256"
        },
        {
          "internalType": "address",
          "name": "account",
          "type": "address"
        }
      ],
      "name": "pendingSoul",
      "outputs": [
        {
          "internalType": "uint256",
          "name": "pendingAmount",
          "type": "uint256"
        }
      ],
      "stateMutability": "view",
      "type": "function"
    },
    {
      "inputs": [],
      "name": "massUpdatePools",
      "outputs": [],
      "stateMutability": "nonpayable",
      "type": "function"
    },
    {
      "inputs": [
        {
          "internalType": "uint256",
          "name": "pid",
          "type": "uint256"
        }
      ],
      "name": "updatePool",
      "outputs": [],
      "stateMutability": "nonpayable",
      "type": "function"
    },
    {
      "inputs": [
        {
          "internalType": "uint256",
          "name": "pid",
          "type": "uint256"
        }
      ],
      "name": "harvest",
      "outputs": [],
      "stateMutability": "nonpayable",
      "type": "function"
    },
    {
      "inputs": [
        {
          "internalType": "uint256[]",
          "name": "_pids",
          "type": "uint256[]"
        }
      ],
      "name": "harvestAll",
      "outputs": [],
      "stateMutability": "nonpayable",
      "type": "function"
    },
    {
      "inputs": [
        {
          "internalType": "uint256",
          "name": "pid",
          "type": "uint256"
        },
        {
          "internalType": "address",
          "name": "account",
          "type": "address"
        }
      ],
      "name": "userShare",
      "outputs": [
        {
          "internalType": "uint256",
          "name": "share",
          "type": "uint256"
        }
      ],
      "stateMutability": "view",
      "type": "function"
    },
    {
      "inputs": [
        {
          "internalType": "uint256",
          "name": "pid",
          "type": "uint256"
        }
      ],
      "name": "getPrice",
      "outputs": [
        {
          "internalType": "uint256",
          "name": "tokenPrice",
          "type": "uint256"
        }
      ],
      "stateMutability": "view",
      "type": "function"
    },
    {
      "inputs": [
        {
          "internalType": "uint256",
          "name": "pid",
          "type": "uint256"
        },
        {
          "internalType": "address",
          "name": "account",
          "type": "address"
        }
      ],
      "name": "getDepositedValue",
      "outputs": [
        {
          "internalType": "uint256",
          "name": "depositValue",
          "type": "uint256"
        }
      ],
      "stateMutability": "view",
      "type": "function"
    },
    {
      "inputs": [
        {
          "internalType": "uint256",
          "name": "pid",
          "type": "uint256"
        }
      ],
      "name": "getPoolTVL",
      "outputs": [
        {
          "internalType": "uint256",
          "name": "poolTVL",
          "type": "uint256"
        }
      ],
      "stateMutability": "view",
      "type": "function"
    },
    {
      "inputs": [
        {
          "internalType": "uint256[]",
          "name": "_pids",
          "type": "uint256[]"
        }
      ],
      "name": "getTVL",
      "outputs": [
        {
          "internalType": "uint256",
          "name": "valueLocked",
          "type": "uint256"
        }
      ],
      "stateMutability": "view",
      "type": "function"
    },
    {
      "inputs": [
        {
          "internalType": "uint256",
          "name": "pid",
          "type": "uint256"
        },
        {
          "internalType": "address",
          "name": "account",
          "type": "address"
        }
      ],
      "name": "getPendingValue",
      "outputs": [
        {
          "internalType": "uint256",
          "name": "pendingValue",
          "type": "uint256"
        }
      ],
      "stateMutability": "view",
      "type": "function"
    },
    {
      "inputs": [
        {
          "internalType": "uint256",
          "name": "pid",
          "type": "uint256"
        },
        {
          "internalType": "uint256",
          "name": "amount",
          "type": "uint256"
        }
      ],
      "name": "deposit",
      "outputs": [],
      "stateMutability": "nonpayable",
      "type": "function"
    },
    {
      "inputs": [
        {
          "internalType": "uint256",
          "name": "pid",
          "type": "uint256"
        },
        {
          "internalType": "uint256",
          "name": "amount",
          "type": "uint256"
        }
      ],
      "name": "withdraw",
      "outputs": [],
      "stateMutability": "nonpayable",
      "type": "function"
    },
    {
      "inputs": [
        {
          "internalType": "uint256",
          "name": "pid",
          "type": "uint256"
        }
      ],
      "name": "emergencyWithdraw",
      "outputs": [],
      "stateMutability": "nonpayable",
      "type": "function"
    },
    {
      "inputs": [
        {
          "internalType": "uint256",
          "name": "amount",
          "type": "uint256"
        }
      ],
      "name": "enterStaking",
      "outputs": [],
      "stateMutability": "nonpayable",
      "type": "function"
    },
    {
      "inputs": [
        {
          "internalType": "uint256",
          "name": "amount",
          "type": "uint256"
        }
      ],
      "name": "leaveStaking",
      "outputs": [],
      "stateMutability": "nonpayable",
      "type": "function"
    },
    {
      "inputs": [
        {
          "internalType": "uint256",
          "name": "_weight",
          "type": "uint256"
        },
        {
          "internalType": "uint256",
          "name": "_totalWeight",
          "type": "uint256"
        }
      ],
      "name": "updateWeight",
      "outputs": [],
      "stateMutability": "nonpayable",
      "type": "function"
    },
    {
      "inputs": [
        {
          "internalType": "uint256",
          "name": "pid",
          "type": "uint256"
        },
        {
          "internalType": "uint256",
          "name": "_daysRequested",
          "type": "uint256"
        }
      ],
      "name": "updateFeeDays",
      "outputs": [],
      "stateMutability": "nonpayable",
      "type": "function"
    },
    {
      "inputs": [
        {
          "internalType": "address",
          "name": "_dao",
          "type": "address"
        },
        {
          "internalType": "address",
          "name": "_team",
          "type": "address"
        }
      ],
      "name": "updateAccounts",
      "outputs": [],
      "stateMutability": "nonpayable",
      "type": "function"
    },
    {
      "inputs": [
        {
          "internalType": "address",
          "name": "_soulAddress",
          "type": "address"
        },
        {
          "internalType": "address",
          "name": "_seanceAddress",
          "type": "address"
        }
      ],
      "name": "updateTokens",
      "outputs": [],
      "stateMutability": "nonpayable",
      "type": "function"
    },
    {
      "inputs": [
        {
          "internalType": "address",
          "name": "_calculator",
          "type": "address"
        }
      ],
      "name": "updateCalculator",
      "outputs": [],
      "stateMutability": "nonpayable",
      "type": "function"
    },
    {
      "inputs": [
        {
          "internalType": "uint256",
          "name": "amount",
          "type": "uint256"
        }
      ],
      "name": "enWei",
      "outputs": [
        {
          "internalType": "uint256",
          "name": "",
          "type": "uint256"
        }
      ],
      "stateMutability": "pure",
      "type": "function"
    },
    {
      "inputs": [
        {
          "internalType": "uint256",
          "name": "amount",
          "type": "uint256"
        }
      ],
      "name": "fromWei",
      "outputs": [
        {
          "internalType": "uint256",
          "name": "",
          "type": "uint256"
        }
      ],
      "stateMutability": "pure",
      "type": "function"
    }
  ],
  "bytecode": "0x6101006040526203d090608090815250600160a0908152506200002960016200018260201b60201c565b60c0908152506200004160646200018260201b60201c565b60e0908152503480156200005457600080fd5b5060018081905550600033905080600760006101000a81548173ffffffffffffffffffffffffffffffffffffffff021916908373ffffffffffffffffffffffffffffffffffffffff16021790555080600860006101000a81548173ffffffffffffffffffffffffffffffffffffffff021916908373ffffffffffffffffffffffffffffffffffffffff1602179055507f36d5d8406f8379c6deba01145ec4f6a2966675cc67d71355b397a2a8e3572b296012819055507f0811b25c145e1379dc78112dd91057f09150f6db05dfd7e04deb910e6cefd4b76013819055506200014a6000801b6000801b83620001a160201b60201c565b506200016260125460125483620001a160201b60201c565b506200017a60135460125483620001a160201b60201c565b505062000467565b6000670de0b6b3a7640000826200019a9190620003cd565b9050919050565b6000620001b58483620001d260201b60201c565b620001c78484620001e860201b60201c565b600190509392505050565b620001e482826200024b60201b60201c565b5050565b6000620001fb836200033c60201b60201c565b905081600080858152602001908152602001600020600101819055508181847fbd79b86ffe0ab8e8776151514217cd7cacd52c909f66475c3af44e129f0b00ff60405160405180910390a4505050565b6200025d82826200035b60201b60201c565b6200033857600160008084815260200190815260200160002060000160008373ffffffffffffffffffffffffffffffffffffffff1673ffffffffffffffffffffffffffffffffffffffff16815260200190815260200160002060006101000a81548160ff021916908315150217905550620002dd620003c560201b60201c565b73ffffffffffffffffffffffffffffffffffffffff168173ffffffffffffffffffffffffffffffffffffffff16837f2f8788117e7eff1d82e926ec794901d17c78024a50270940304540a733656f0d60405160405180910390a45b5050565b6000806000838152602001908152602001600020600101549050919050565b600080600084815260200190815260200160002060000160008373ffffffffffffffffffffffffffffffffffffffff1673ffffffffffffffffffffffffffffffffffffffff16815260200190815260200160002060009054906101000a900460ff16905092915050565b600033905090565b6000620003da826200042e565b9150620003e7836200042e565b9250817fffffffffffffffffffffffffffffffffffffffffffffffffffffffffffffffff048311821515161562000423576200042262000438565b5b828202905092915050565b6000819050919050565b7f4e487b7100000000000000000000000000000000000000000000000000000000600052601160045260246000fd5b60805160a05160c05160e051616edb620004b6600039600081816116b40152613933015260006147bd015260008181612da401526131710152600081816115420152614ab20152616edb6000f3fe608060405234801561001057600080fd5b50600436106103db5760003560e01c806385f2aef21161020a578063cb68bef811610125578063e65d1522116100b8578063ea4bf44611610087578063ea4bf44614610c0a578063fb39d1e314610c28578063fb5ad33014610c58578063fc90fdc014610c88578063fd6f99d014610ca6576103db565b8063e65d152214610b5e578063e748bf0714610b8e578063e757223014610bbe578063e7aa29e314610bee576103db565b8063d99e50da116100f4578063d99e50da14610aec578063ddc6326214610b0a578063e13e8ec214610b26578063e2bbb15814610b42576103db565b8063cb68bef814610a66578063ce3e39c014610a82578063cf94ee9614610aa0578063d547741f14610ad0576103db565b8063a1aab33f1161019d578063af62147e1161016c578063af62147e146109e0578063b187bd26146109fc578063b5d011fd14610a1a578063bfafcad514610a36576103db565b8063a1aab33f14610956578063a217fddf14610974578063a8b973a114610992578063a9958fd5146109b0576103db565b806393f1a40b116101d957806393f1a40b146108a357806395aca473146108d857806396c82e57146109085780639f6c542614610926576103db565b806385f2aef2146107f55780638dbb1e3a146108135780638f2446301461084357806391d1485414610873576103db565b8063441a3e70116102fa5780635f9e8f821161028d57806378e979251161025c57806378e979251461076a5780637d500ec8146107885780637e668b42146107a6578063815b7a8c146107d7576103db565b80635f9e8f82146106f6578063630b5ba11461071457806363e0cb4f1461071e57806364482f791461074e576103db565b80635312ea8e116102c95780635312ea8e1461067057806357aed3501461068c57806357d159c6146106bc5780635f9bf689146106d8576103db565b8063441a3e70146105fe5780634ca01d451461061a5780634e5ef2a51461063857806351eb05a614610654576103db565b806324dd9ab21161037257806336568abe1161034157806336568abe1461058a578063392e53cd146105a657806341441d3b146105c45780634162169f146105e0576103db565b806324dd9ab2146105185780632aabff15146105365780632f2ff15d146105525780632fe2d7ce1461056e576103db565b80631526fe27116103ae5780631526fe271461047a5780631794bb3c146104ae57806317caf6f1146104ca578063248a9ca3146104e8576103db565b806301ffc9a7146103e0578063081e3eda1461041057806309ae4d2c1461042e5780631058d2811461045e575b600080fd5b6103fa60048036038101906103f59190615961565b610cc4565b604051610407919061654d565b60405180910390f35b610418610d3e565b604051610425919061694e565b60405180910390f35b6104486004803603810190610443919061598a565b610d4b565b604051610455919061694e565b60405180910390f35b6104786004803603810190610473919061598a565b610e26565b005b610494600480360381019061048f919061598a565b6111d2565b6040516104a595949392919061659e565b60405180910390f35b6104c860048036038101906104c39190615816565b611238565b005b6104d261151b565b6040516104df919061694e565b60405180910390f35b61050260048036038101906104fd91906158fc565b611521565b60405161050f9190616568565b60405180910390f35b610520611540565b60405161052d919061694e565b60405180910390f35b610550600480360381019061054b9190615865565b611564565b005b61056c60048036038101906105679190615925565b6115d0565b005b61058860048036038101906105839190615a7b565b6115f9565b005b6105a4600480360381019061059f9190615925565b61175f565b005b6105ae6117e2565b6040516105bb919061654d565b60405180910390f35b6105de60048036038101906105d9919061598a565b6117f5565b005b6105e8611b7e565b6040516105f591906164a9565b60405180910390f35b61061860048036038101906106139190615a7b565b611ba4565b005b6106226120fb565b60405161062f91906165f1565b60405180910390f35b610652600480360381019061064d9190615a18565b612121565b005b61066e6004803603810190610669919061598a565b6121a0565b005b61068a6004803603810190610685919061598a565b6125ce565b005b6106a660048036038101906106a19190615865565b612961565b6040516106b3919061694e565b60405180910390f35b6106d660048036038101906106d191906158aa565b6129e1565b005b6106e0612a13565b6040516106ed919061694e565b60405180910390f35b6106fe612a19565b60405161070b919061654d565b60405180910390f35b61071c612a2c565b005b610738600480360381019061073391906159dc565b612a5f565b604051610745919061694e565b60405180910390f35b61076860048036038101906107639190615ab7565b612b28565b005b610772612cf2565b60405161077f919061694e565b60405180910390f35b610790612cf8565b60405161079d919061694e565b60405180910390f35b6107c060048036038101906107bb9190615b06565b612cfe565b6040516107ce9291906169a0565b60405180910390f35b6107df612d54565b6040516107ec91906165f1565b60405180910390f35b6107fd612d7a565b60405161080a91906164a9565b60405180910390f35b61082d60048036038101906108289190615a7b565b612da0565b60405161083a919061694e565b60405180910390f35b61085d6004803603810190610858919061598a565b612de1565b60405161086a919061694e565b60405180910390f35b61088d60048036038101906108889190615925565b612f6b565b60405161089a919061654d565b60405180910390f35b6108bd60048036038101906108b891906159dc565b612fd5565b6040516108cf96959493929190616a45565b60405180910390f35b6108f260048036038101906108ed919061598a565b61301e565b6040516108ff919061694e565b60405180910390f35b610910613048565b60405161091d919061694e565b60405180910390f35b610940600480360381019061093b9190615a7b565b61304e565b60405161094d919061694e565b60405180910390f35b61095e613162565b60405161096b919061694e565b60405180910390f35b61097c613168565b6040516109899190616568565b60405180910390f35b61099a61316f565b6040516109a7919061694e565b60405180910390f35b6109ca60048036038101906109c5919061598a565b613193565b6040516109d7919061694e565b60405180910390f35b6109fa60048036038101906109f59190615a7b565b61345d565b005b610a0461355c565b604051610a11919061654d565b60405180910390f35b610a346004803603810190610a2f91906157b1565b61356f565b005b610a506004803603810190610a4b91906159dc565b6135c8565b604051610a5d919061694e565b60405180910390f35b610a806004803603810190610a7b91906158aa565b613893565b005b610a8a6138c5565b604051610a979190616583565b60405180910390f35b610aba6004803603810190610ab5919061598a565b6138eb565b604051610ac7919061694e565b60405180910390f35b610aea6004803603810190610ae59190615925565b613908565b005b610af4613931565b604051610b01919061694e565b60405180910390f35b610b246004803603810190610b1f919061598a565b613955565b005b610b406004803603810190610b3b91906157da565b61397c565b005b610b5c6004803603810190610b579190615a7b565b613b7e565b005b610b786004803603810190610b73919061598a565b613f4c565b604051610b85919061694e565b60405180910390f35b610ba86004803603810190610ba391906159dc565b613f69565b604051610bb5919061694e565b60405180910390f35b610bd86004803603810190610bd3919061598a565b61418c565b604051610be5919061694e565b60405180910390f35b610c086004803603810190610c0391906157da565b6143d0565b005b610c12614610565b604051610c1f9190616568565b60405180910390f35b610c426004803603810190610c3d91906159dc565b614616565b604051610c4f919061694e565b60405180910390f35b610c726004803603810190610c6d91906159dc565b6146f2565b604051610c7f919061694e565b60405180910390f35b610c906147bb565b604051610c9d919061694e565b60405180910390f35b610cae6147df565b604051610cbb9190616568565b60405180910390f35b60007f7965db0b000000000000000000000000000000000000000000000000000000007bffffffffffffffffffffffffffffffffffffffffffffffffffffffff1916827bffffffffffffffffffffffffffffffffffffffffffffffffffffffff19161480610d375750610d36826147e5565b5b9050919050565b6000601080549050905090565b6000806011600084815260200190815260200160002060003373ffffffffffffffffffffffffffffffffffffffff1673ffffffffffffffffffffffffffffffffffffffff1681526020019081526020016000206040518060c0016040529081600082015481526020016001820154815260200160028201548152602001600382015481526020016004820154815260200160058201548152505090506000816040015114610e0b57806040015142610e039190616bc4565b915081610e1f565b806060015142610e1b9190616bc4565b9150815b5050919050565b60026001541415610e6c576040517f08c379a0000000000000000000000000000000000000000000000000000000008152600401610e63906168ee565b60405180910390fd5b6002600181905550600f60009054906101000a900460ff16610ec3576040517f08c379a0000000000000000000000000000000000000000000000000000000008152600401610eba9061684e565b60405180910390fd5b60006010600081548110610f00577f4e487b7100000000000000000000000000000000000000000000000000000000600052603260045260246000fd5b9060005260206000209060050201905060006011600080815260200190815260200160002060003373ffffffffffffffffffffffffffffffffffffffff1673ffffffffffffffffffffffffffffffffffffffff16815260200190815260200160002090508281600001541015610fab576040517f08c379a0000000000000000000000000000000000000000000000000000000008152600401610fa2906166ae565b60405180910390fd5b610fb560006121a0565b6000610fc26000336135c8565b90506000811115610fd857610fd7338261484f565b5b600084111561117057838260000154610ff19190616bc4565b8260000181905550600560009054906101000a900473ffffffffffffffffffffffffffffffffffffffff1673ffffffffffffffffffffffffffffffffffffffff16639dc29fac33866040518363ffffffff1660e01b8152600401611056929190616524565b600060405180830381600087803b15801561107057600080fd5b505af1158015611084573d6000803e3d6000fd5b5050505064e8d4a51000836003015483600001546110a29190616b6a565b6110ac9190616b39565b82600101819055504282600201819055508260000160009054906101000a900473ffffffffffffffffffffffffffffffffffffffff1673ffffffffffffffffffffffffffffffffffffffff1663a9059cbb33866040518363ffffffff1660e01b815260040161111c929190616524565b602060405180830381600087803b15801561113657600080fd5b505af115801561114a573d6000803e3d6000fd5b505050506040513d601f19601f8201168201806040525081019061116e91906158d3565b505b60003373ffffffffffffffffffffffffffffffffffffffff167fe08737ac48a1dab4b1a46c7dc9398bd5bfc6d7ad6fabb7cd8caa254de14def35866000426040516111bd93929190616969565b60405180910390a35050506001808190555050565b601081815481106111e257600080fd5b90600052602060002090600502016000915090508060000160009054906101000a900473ffffffffffffffffffffffffffffffffffffffff16908060010154908060020154908060030154908060040154905085565b60125461124c816112476149f3565b6149fb565b600f60009054906101000a900460ff161561129c576040517f08c379a0000000000000000000000000000000000000000000000000000000008152600401611293906168ce565b60405180910390fd5b42600d819055506103e860098190555081600a8190555083600260006101000a81548173ffffffffffffffffffffffffffffffffffffffff021916908373ffffffffffffffffffffffffffffffffffffffff16021790555082600460006101000a81548173ffffffffffffffffffffffffffffffffffffffff021916908373ffffffffffffffffffffffffffffffffffffffff16021790555083600360006101000a81548173ffffffffffffffffffffffffffffffffffffffff021916908373ffffffffffffffffffffffffffffffffffffffff16021790555082600560006101000a81548173ffffffffffffffffffffffffffffffffffffffff021916908373ffffffffffffffffffffffffffffffffffffffff1602179055506113c5600a54600954614a98565b60106040518060a001604052808673ffffffffffffffffffffffffffffffffffffffff1681526020016103e88152602001600d548152602001600081526020016000815250908060018154018082558091505060019003906000526020600020906005020160009091909190915060008201518160000160006101000a81548173ffffffffffffffffffffffffffffffffffffffff021916908373ffffffffffffffffffffffffffffffffffffffff1602179055506020820151816001015560408201518160020155606082015181600301556080820151816004015550506001600f60006101000a81548160ff0219169083151502179055506103e8600e60008282546114d39190616ae3565b925050819055507f10f27652c1015195ca7e6bc9b4c724cbf18e91c42117d92124703a3f49bb240f84848460405161150d939291906164ed565b60405180910390a150505050565b600e5481565b6000806000838152602001908152602001600020600101549050919050565b7f000000000000000000000000000000000000000000000000000000000000000081565b60005b828290508110156115cb576115ba8383838181106115ae577f4e487b7100000000000000000000000000000000000000000000000000000000600052603260045260246000fd5b90506020020135613955565b806115c490616d63565b9050611567565b505050565b6115d982611521565b6115ea816115e56149f3565b6149fb565b6115f48383614b3b565b505050565b60135461160d816116086149f3565b6149fb565b600060108481548110611649577f4e487b7100000000000000000000000000000000000000000000000000000000600052603260045260246000fd5b906000526020600020906005020190506000611664846138eb565b9050600082600401549050818114156116b2576040517f08c379a00000000000000000000000000000000000000000000000000000000081526004016116a9906166ce565b60405180910390fd5b7f0000000000000000000000000000000000000000000000000000000000000000811115611715576040517f08c379a000000000000000000000000000000000000000000000000000000000815260040161170c906166ee565b60405180910390fd5b8183600401819055507f11866c6bd0f6c9f4753a4891ab4d2e17484dbbdc2aa908db44e66a35c5c331dc868360405161174f9291906169a0565b60405180910390a1505050505050565b6117676149f3565b73ffffffffffffffffffffffffffffffffffffffff168173ffffffffffffffffffffffffffffffffffffffff16146117d4576040517f08c379a00000000000000000000000000000000000000000000000000000000081526004016117cb9061690e565b60405180910390fd5b6117de8282614c1b565b5050565b600f60009054906101000a900460ff1681565b6002600154141561183b576040517f08c379a0000000000000000000000000000000000000000000000000000000008152600401611832906168ee565b60405180910390fd5b6002600181905550600f60009054906101000a900460ff16611892576040517f08c379a00000000000000000000000000000000000000000000000000000000081526004016118899061684e565b60405180910390fd5b600060106000815481106118cf577f4e487b7100000000000000000000000000000000000000000000000000000000600052603260045260246000fd5b9060005260206000209060050201905060006011600080815260200190815260200160002060003373ffffffffffffffffffffffffffffffffffffffff1673ffffffffffffffffffffffffffffffffffffffff168152602001908152602001600020905061193d60006121a0565b600081600001549050600081111561196a57600061195c6000336135c8565b9050611968338261484f565b505b6000841115611a43578260000160009054906101000a900473ffffffffffffffffffffffffffffffffffffffff1673ffffffffffffffffffffffffffffffffffffffff166323b872dd3330876040518463ffffffff1660e01b81526004016119d4939291906164ed565b602060405180830381600087803b1580156119ee57600080fd5b505af1158015611a02573d6000803e3d6000fd5b505050506040513d601f19601f82011682018060405250810190611a2691906158d3565b5083826000016000828254611a3b9190616ae3565b925050819055505b600082600301541415611a5a574282600301819055505b64e8d4a5100083600301548360000154611a749190616b6a565b611a7e9190616b39565b82600101819055506000841115611b1f57600560009054906101000a900473ffffffffffffffffffffffffffffffffffffffff1673ffffffffffffffffffffffffffffffffffffffff166340c10f1933866040518363ffffffff1660e01b8152600401611aec929190616524565b600060405180830381600087803b158015611b0657600080fd5b505af1158015611b1a573d6000803e3d6000fd5b505050505b60003373ffffffffffffffffffffffffffffffffffffffff167f36af321ec8d3c75236829c5317affd40ddb308863a1236d2d277a4025cccee1e8642604051611b699291906169a0565b60405180910390a35050506001808190555050565b600860009054906101000a900473ffffffffffffffffffffffffffffffffffffffff1681565b60026001541415611bea576040517f08c379a0000000000000000000000000000000000000000000000000000000008152600401611be1906168ee565b60405180910390fd5b6002600181905550600f60009054906101000a900460ff16611c41576040517f08c379a0000000000000000000000000000000000000000000000000000000008152600401611c389061684e565b60405180910390fd5b600f60029054906101000a900460ff1615611c91576040517f08c379a0000000000000000000000000000000000000000000000000000000008152600401611c889061664e565b60405180910390fd5b816010805490508110611cd9576040517f08c379a0000000000000000000000000000000000000000000000000000000008152600401611cd0906167ae565b60405180910390fd5b6000831415611d1d576040517f08c379a0000000000000000000000000000000000000000000000000000000008152600401611d14906167ce565b60405180910390fd5b60008211611d60576040517f08c379a0000000000000000000000000000000000000000000000000000000008152600401611d579061680e565b60405180910390fd5b600060108481548110611d9c577f4e487b7100000000000000000000000000000000000000000000000000000000600052603260045260246000fd5b9060005260206000209060050201905060006011600086815260200190815260200160002060003373ffffffffffffffffffffffffffffffffffffffff1673ffffffffffffffffffffffffffffffffffffffff16815260200190815260200160002090508381600001541015611e47576040517f08c379a0000000000000000000000000000000000000000000000000000000008152600401611e3e9061666e565b60405180910390fd5b611e50856121a0565b6000611e5c86336135c8565b90506000811115611e7257611e71338261484f565b5b6000611e7e8733614616565b90506000611e8b8261301e565b905086846000016000828254611ea19190616bc4565b925050819055508184600401819055508084600501819055506000611ec789838a612cfe565b91505060008189611ed89190616bc4565b90508660000160009054906101000a900473ffffffffffffffffffffffffffffffffffffffff1673ffffffffffffffffffffffffffffffffffffffff1663a9059cbb600860009054906101000a900473ffffffffffffffffffffffffffffffffffffffff16836040518363ffffffff1660e01b8152600401611f5b929190616524565b602060405180830381600087803b158015611f7557600080fd5b505af1158015611f89573d6000803e3d6000fd5b505050506040513d601f19601f82011682018060405250810190611fad91906158d3565b508660000160009054906101000a900473ffffffffffffffffffffffffffffffffffffffff1673ffffffffffffffffffffffffffffffffffffffff1663a9059cbb33846040518363ffffffff1660e01b815260040161200d929190616524565b602060405180830381600087803b15801561202757600080fd5b505af115801561203b573d6000803e3d6000fd5b505050506040513d601f19601f8201168201806040525081019061205f91906158d3565b5064e8d4a510008760030154876000015461207a9190616b6a565b6120849190616b39565b8660010181905550428660020181905550893373ffffffffffffffffffffffffffffffffffffffff167fe08737ac48a1dab4b1a46c7dc9398bd5bfc6d7ad6fabb7cd8caa254de14def358b84426040516120e093929190616a0e565b60405180910390a35050505050505050600180819055505050565b600560009054906101000a900473ffffffffffffffffffffffffffffffffffffffff1681565b600f60009054906101000a900460ff16612170576040517f08c379a00000000000000000000000000000000000000000000000000000000081526004016121679061684e565b60405180910390fd5b6012546121848161217f6149f3565b6149fb565b61218d84614cfc565b61219985858585614e01565b5050505050565b8060108054905081106121e8576040517f08c379a00000000000000000000000000000000000000000000000000000000081526004016121df906167ae565b60405180910390fd5b600060108381548110612224577f4e487b7100000000000000000000000000000000000000000000000000000000600052603260045260246000fd5b906000526020600020906005020190508060020154421161224557506125ca565b60008160000160009054906101000a900473ffffffffffffffffffffffffffffffffffffffff1673ffffffffffffffffffffffffffffffffffffffff166370a08231306040518263ffffffff1660e01b81526004016122a491906164a9565b60206040518083038186803b1580156122bc57600080fd5b505afa1580156122d0573d6000803e3d6000fd5b505050506040513d601f19601f820116820180604052508101906122f491906159b3565b9050600081141561230f5742826002018190555050506125ca565b600061231f836002015442612da0565b90506000600e548460010154600c54846123399190616b6a565b6123439190616b6a565b61234d9190616b39565b90506000650746a528800064e8d4a51000836123699190616b6a565b6123739190616b39565b9050600360009054906101000a900473ffffffffffffffffffffffffffffffffffffffff1673ffffffffffffffffffffffffffffffffffffffff166340c10f19600760009054906101000a900473ffffffffffffffffffffffffffffffffffffffff16836040518363ffffffff1660e01b81526004016123f4929190616524565b600060405180830381600087803b15801561240e57600080fd5b505af1158015612422573d6000803e3d6000fd5b50505050600360009054906101000a900473ffffffffffffffffffffffffffffffffffffffff1673ffffffffffffffffffffffffffffffffffffffff166340c10f19600860009054906101000a900473ffffffffffffffffffffffffffffffffffffffff16836040518363ffffffff1660e01b81526004016124a5929190616524565b600060405180830381600087803b1580156124bf57600080fd5b505af11580156124d3573d6000803e3d6000fd5b50505050600360009054906101000a900473ffffffffffffffffffffffffffffffffffffffff1673ffffffffffffffffffffffffffffffffffffffff166340c10f19600560009054906101000a900473ffffffffffffffffffffffffffffffffffffffff16846040518363ffffffff1660e01b8152600401612556929190616524565b600060405180830381600087803b15801561257057600080fd5b505af1158015612584573d6000803e3d6000fd5b505050508364e8d4a510008361259a9190616b6a565b6125a49190616b39565b85600301546125b39190616ae3565b856003018190555042856002018190555050505050505b5050565b60026001541415612614576040517f08c379a000000000000000000000000000000000000000000000000000000000815260040161260b906168ee565b60405180910390fd5b6002600181905550600f60019054906101000a900460ff1661266b576040517f08c379a00000000000000000000000000000000000000000000000000000000081526004016126629061670e565b60405180910390fd5b6000601082815481106126a7577f4e487b7100000000000000000000000000000000000000000000000000000000600052603260045260246000fd5b9060005260206000209060050201905060006011600084815260200190815260200160002060003373ffffffffffffffffffffffffffffffffffffffff1673ffffffffffffffffffffffffffffffffffffffff1681526020019081526020016000209050600083141561289b578060000154600560009054906101000a900473ffffffffffffffffffffffffffffffffffffffff1673ffffffffffffffffffffffffffffffffffffffff166370a08231336040518263ffffffff1660e01b815260040161277491906164a9565b602060405180830381600087803b15801561278e57600080fd5b505af11580156127a2573d6000803e3d6000fd5b505050506040513d601f19601f820116820180604052508101906127c691906159b3565b1015612807576040517f08c379a00000000000000000000000000000000000000000000000000000000081526004016127fe906167ee565b60405180910390fd5b600560009054906101000a900473ffffffffffffffffffffffffffffffffffffffff1673ffffffffffffffffffffffffffffffffffffffff16639dc29fac3383600001546040518363ffffffff1660e01b8152600401612868929190616524565b600060405180830381600087803b15801561288257600080fd5b505af1158015612896573d6000803e3d6000fd5b505050505b6128ee3382600001548460000160009054906101000a900473ffffffffffffffffffffffffffffffffffffffff1673ffffffffffffffffffffffffffffffffffffffff16614f759092919063ffffffff16565b6000816000018190555060008160010181905550823373ffffffffffffffffffffffffffffffffffffffff167fbb757047c2b5f3974fe26b7c10f732e7bce710b0952a71082702781e62ae0595836000015460405161294d919061694e565b60405180910390a350506001808190555050565b600080600090505b838390508110156129da576129bc8484838181106129b0577f4e487b7100000000000000000000000000000000000000000000000000000000600052603260045260246000fd5b90506020020135612de1565b826129c79190616ae3565b9150806129d390616d63565b9050612969565b5092915050565b6012546129f5816129f06149f3565b6149fb565b81600f60026101000a81548160ff0219169083151502179055505050565b600c5481565b600f60019054906101000a900460ff1681565b6000601080549050905060005b81811015612a5b57612a4a816121a0565b80612a5490616d63565b9050612a39565b5050565b6000806011600085815260200190815260200160002060008473ffffffffffffffffffffffffffffffffffffffff1673ffffffffffffffffffffffffffffffffffffffff1681526020019081526020016000206040518060c0016040529081600082015481526020016001820154815260200160028201548152602001600382015481526020016004820154815260200160058201548152505090506000612b068561418c565b90506000826000015190508082612b1d9190616b6a565b935050505092915050565b600f60009054906101000a900460ff16612b77576040517f08c379a0000000000000000000000000000000000000000000000000000000008152600401612b6e9061684e565b60405180910390fd5b826010805490508110612bbf576040517f08c379a0000000000000000000000000000000000000000000000000000000008152600401612bb6906167ae565b60405180910390fd5b601354612bd381612bce6149f3565b6149fb565b8215612be257612be1612a2c565b5b600060108681548110612c1e577f4e487b7100000000000000000000000000000000000000000000000000000000600052603260045260246000fd5b90600052602060002090600502016001015490508460108781548110612c6d577f4e487b7100000000000000000000000000000000000000000000000000000000600052603260045260246000fd5b906000526020600020906005020160010181905550848114612cb1578481600e54612c989190616bc4565b612ca29190616ae3565b600e81905550612cb0614ffb565b5b7fd88f859573973e938da5bf3e5100c16eee2090fa720e05ae3d452b4cd05cdcfd8686604051612ce29291906169a0565b60405180910390a1505050505050565b600d5481565b600b5481565b6000806000612d15612d10878761304e565b613f4c565b9050600060648286612d279190616b6a565b612d319190616b39565b905060008186612d419190616bc4565b9050818194509450505050935093915050565b600360009054906101000a900473ffffffffffffffffffffffffffffffffffffffff1681565b600760009054906101000a900473ffffffffffffffffffffffffffffffffffffffff1681565b60007f00000000000000000000000000000000000000000000000000000000000000008383612dcf9190616bc4565b612dd99190616b6a565b905092915050565b60008060108381548110612e1e577f4e487b7100000000000000000000000000000000000000000000000000000000600052603260045260246000fd5b90600052602060002090600502016040518060a00160405290816000820160009054906101000a900473ffffffffffffffffffffffffffffffffffffffff1673ffffffffffffffffffffffffffffffffffffffff1673ffffffffffffffffffffffffffffffffffffffff16815260200160018201548152602001600282015481526020016003820154815260200160048201548152505090506000816000015173ffffffffffffffffffffffffffffffffffffffff166370a08231306040518263ffffffff1660e01b8152600401612ef691906164a9565b60206040518083038186803b158015612f0e57600080fd5b505afa158015612f22573d6000803e3d6000fd5b505050506040513d601f19601f82011682018060405250810190612f4691906159b3565b90506000612f538561418c565b90508181612f619190616b6a565b9350505050919050565b600080600084815260200190815260200160002060000160008373ffffffffffffffffffffffffffffffffffffffff1673ffffffffffffffffffffffffffffffffffffffff16815260200190815260200160002060009054906101000a900460ff16905092915050565b6011602052816000526040600020602052806000526040600020600091509150508060000154908060010154908060020154908060030154908060040154908060050154905086565b600062015180821061303e5762015180826130399190616b39565b613041565b60005b9050919050565b60095481565b60008061305a836138eb565b9050600060108581548110613098577f4e487b7100000000000000000000000000000000000000000000000000000000600052603260045260246000fd5b90600052602060002090600502016040518060a00160405290816000820160009054906101000a900473ffffffffffffffffffffffffffffffffffffffff1673ffffffffffffffffffffffffffffffffffffffff1673ffffffffffffffffffffffffffffffffffffffff168152602001600182015481526020016002820154815260200160038201548152602001600482015481525050905060008160800151905080831061314a5760009350613159565b82816131569190616bc4565b93505b50505092915050565b600a5481565b6000801b81565b7f000000000000000000000000000000000000000000000000000000000000000081565b600080601083815481106131d0577f4e487b7100000000000000000000000000000000000000000000000000000000600052603260045260246000fd5b90600052602060002090600502016040518060a00160405290816000820160009054906101000a900473ffffffffffffffffffffffffffffffffffffffff1673ffffffffffffffffffffffffffffffffffffffff1673ffffffffffffffffffffffffffffffffffffffff168152602001600182015481526020016002820154815260200160038201548152602001600482015481525050905060006011600085815260200190815260200160002060003373ffffffffffffffffffffffffffffffffffffffff1673ffffffffffffffffffffffffffffffffffffffff1681526020019081526020016000206040518060c0016040529081600082015481526020016001820154815260200160028201548152602001600382015481526020016004820154815260200160058201548152505090506000826060015190506000836000015173ffffffffffffffffffffffffffffffffffffffff166370a08231306040518263ffffffff1660e01b815260040161334c91906164a9565b60206040518083038186803b15801561336457600080fd5b505afa158015613378573d6000803e3d6000fd5b505050506040513d601f19601f8201168201806040525081019061339c91906159b3565b90508360400151421180156133b2575060008114155b156134235760006133c7856040015142612da0565b90506000600e548660200151600c54846133e19190616b6a565b6133eb9190616b6a565b6133f59190616b39565b90508264e8d4a51000826134099190616b6a565b6134139190616b39565b8461341e9190616ae3565b935050505b826020015164e8d4a5100083856000015161343e9190616b6a565b6134489190616b39565b6134529190616bc4565b945050505050919050565b6013546134718161346c6149f3565b6149fb565b82600a5414158061348457508160095414155b6134c3576040517f08c379a00000000000000000000000000000000000000000000000000000000081526004016134ba9061678e565b60405180910390fd5b82821015613506576040517f08c379a00000000000000000000000000000000000000000000000000000000081526004016134fd9061692e565b60405180910390fd5b82600a819055508160098190555061351e8383614a98565b7fb298bc23e07860d501fddce288f46d761aa04a0c7c3316099eb50f097aacf304838360405161354f9291906169a0565b60405180910390a1505050565b600f60029054906101000a900460ff1681565b6012546135838161357e6149f3565b6149fb565b81600660006101000a81548173ffffffffffffffffffffffffffffffffffffffff021916908373ffffffffffffffffffffffffffffffffffffffff1602179055505050565b60008060108481548110613605577f4e487b7100000000000000000000000000000000000000000000000000000000600052603260045260246000fd5b90600052602060002090600502016040518060a00160405290816000820160009054906101000a900473ffffffffffffffffffffffffffffffffffffffff1673ffffffffffffffffffffffffffffffffffffffff1673ffffffffffffffffffffffffffffffffffffffff168152602001600182015481526020016002820154815260200160038201548152602001600482015481525050905060006011600086815260200190815260200160002060008573ffffffffffffffffffffffffffffffffffffffff1673ffffffffffffffffffffffffffffffffffffffff1681526020019081526020016000206040518060c0016040529081600082015481526020016001820154815260200160028201548152602001600382015481526020016004820154815260200160058201548152505090506000826060015190506000836000015173ffffffffffffffffffffffffffffffffffffffff166370a08231306040518263ffffffff1660e01b815260040161378191906164a9565b60206040518083038186803b15801561379957600080fd5b505afa1580156137ad573d6000803e3d6000fd5b505050506040513d601f19601f820116820180604052508101906137d191906159b3565b90508360400151421180156137e7575060008114155b156138585760006137fc856040015142612da0565b90506000600e548660200151600c54846138169190616b6a565b6138209190616b6a565b61382a9190616b39565b90508264e8d4a510008261383e9190616b6a565b6138489190616b39565b846138539190616ae3565b935050505b826020015164e8d4a510008385600001516138739190616b6a565b61387d9190616b39565b6138879190616bc4565b94505050505092915050565b6013546138a7816138a26149f3565b6149fb565b81600f60016101000a81548160ff0219169083151502179055505050565b600660009054906101000a900473ffffffffffffffffffffffffffffffffffffffff1681565b6000670de0b6b3a7640000826139019190616b6a565b9050919050565b61391182611521565b6139228161391d6149f3565b6149fb565b61392c8383614c1b565b505050565b7f000000000000000000000000000000000000000000000000000000000000000081565b600081141561396d5761396860006117f5565b613979565b613978816000613b7e565b5b50565b6012546139908161398b6149f3565b6149fb565b8273ffffffffffffffffffffffffffffffffffffffff16600860009054906101000a900473ffffffffffffffffffffffffffffffffffffffff1673ffffffffffffffffffffffffffffffffffffffff16141580613a3b57508173ffffffffffffffffffffffffffffffffffffffff16600760009054906101000a900473ffffffffffffffffffffffffffffffffffffffff1673ffffffffffffffffffffffffffffffffffffffff1614155b613a7a576040517f08c379a0000000000000000000000000000000000000000000000000000000008152600401613a719061686e565b60405180910390fd5b82600860006101000a81548173ffffffffffffffffffffffffffffffffffffffff021916908373ffffffffffffffffffffffffffffffffffffffff16021790555081600760006101000a81548173ffffffffffffffffffffffffffffffffffffffff021916908373ffffffffffffffffffffffffffffffffffffffff1602179055507fd1c04282701cbf58aa2f0026f6876051cf3feb8ee7b8b5b5532ebb4ab03fb5d4600860009054906101000a900473ffffffffffffffffffffffffffffffffffffffff16600760009054906101000a900473ffffffffffffffffffffffffffffffffffffffff16604051613b719291906164c4565b60405180910390a1505050565b60026001541415613bc4576040517f08c379a0000000000000000000000000000000000000000000000000000000008152600401613bbb906168ee565b60405180910390fd5b6002600181905550600f60009054906101000a900460ff16613c1b576040517f08c379a0000000000000000000000000000000000000000000000000000000008152600401613c129061684e565b60405180910390fd5b600f60029054906101000a900460ff1615613c6b576040517f08c379a0000000000000000000000000000000000000000000000000000000008152600401613c629061664e565b60405180910390fd5b816010805490508110613cb3576040517f08c379a0000000000000000000000000000000000000000000000000000000008152600401613caa906167ae565b60405180910390fd5b6000831415613cf7576040517f08c379a0000000000000000000000000000000000000000000000000000000008152600401613cee9061672e565b60405180910390fd5b600060108481548110613d33577f4e487b7100000000000000000000000000000000000000000000000000000000600052603260045260246000fd5b9060005260206000209060050201905060006011600086815260200190815260200160002060003373ffffffffffffffffffffffffffffffffffffffff1673ffffffffffffffffffffffffffffffffffffffff1681526020019081526020016000209050613da0856121a0565b600081600001541115613dd1576000613db986336135c8565b90506000811115613dcf57613dce338261484f565b5b505b6000841115613eaa578160000160009054906101000a900473ffffffffffffffffffffffffffffffffffffffff1673ffffffffffffffffffffffffffffffffffffffff166323b872dd3330876040518463ffffffff1660e01b8152600401613e3b939291906164ed565b602060405180830381600087803b158015613e5557600080fd5b505af1158015613e69573d6000803e3d6000fd5b505050506040513d601f19601f82011682018060405250810190613e8d91906158d3565b5083816000016000828254613ea29190616ae3565b925050819055505b64e8d4a5100082600301548260000154613ec49190616b6a565b613ece9190616b39565b8160010181905550600081600301541415613eed574281600301819055505b843373ffffffffffffffffffffffffffffffffffffffff167f36af321ec8d3c75236829c5317affd40ddb308863a1236d2d277a4025cccee1e8642604051613f369291906169a0565b60405180910390a3505050600180819055505050565b6000670de0b6b3a764000082613f629190616b39565b9050919050565b60008060108481548110613fa6577f4e487b7100000000000000000000000000000000000000000000000000000000600052603260045260246000fd5b90600052602060002090600502016040518060a00160405290816000820160009054906101000a900473ffffffffffffffffffffffffffffffffffffffff1673ffffffffffffffffffffffffffffffffffffffff1673ffffffffffffffffffffffffffffffffffffffff168152602001600182015481526020016002820154815260200160038201548152602001600482015481525050905060006011600086815260200190815260200160002060008573ffffffffffffffffffffffffffffffffffffffff1673ffffffffffffffffffffffffffffffffffffffff1681526020019081526020016000206040518060c0016040529081600082015481526020016001820154815260200160028201548152602001600382015481526020016004820154815260200160058201548152505090506000826000015173ffffffffffffffffffffffffffffffffffffffff166370a08231306040518263ffffffff1660e01b815260040161411991906164a9565b60206040518083038186803b15801561413157600080fd5b505afa158015614145573d6000803e3d6000fd5b505050506040513d601f19601f8201168201806040525081019061416991906159b3565b905060008260000151905081816141809190616b39565b94505050505092915050565b600080601083815481106141c9577f4e487b7100000000000000000000000000000000000000000000000000000000600052603260045260246000fd5b90600052602060002090600502016040518060a00160405290816000820160009054906101000a900473ffffffffffffffffffffffffffffffffffffffff1673ffffffffffffffffffffffffffffffffffffffff1673ffffffffffffffffffffffffffffffffffffffff1681526020016001820154815260200160028201548152602001600382015481526020016004820154815250509050600081600001519050600084141561431b57600660009054906101000a900473ffffffffffffffffffffffffffffffffffffffff1673ffffffffffffffffffffffffffffffffffffffff1663c399c7d96040518163ffffffff1660e01b815260040160206040518083038186803b1580156142dc57600080fd5b505afa1580156142f0573d6000803e3d6000fd5b505050506040513d601f19601f8201168201806040525081019061431491906159b3565b92506143c9565b600660009054906101000a900473ffffffffffffffffffffffffffffffffffffffff1673ffffffffffffffffffffffffffffffffffffffff16630a6de2c9826040518263ffffffff1660e01b815260040161437691906164a9565b60206040518083038186803b15801561438e57600080fd5b505afa1580156143a2573d6000803e3d6000fd5b505050506040513d601f19601f820116820180604052508101906143c691906159b3565b92505b5050919050565b6012546143e4816143df6149f3565b6149fb565b8273ffffffffffffffffffffffffffffffffffffffff16600260009054906101000a900473ffffffffffffffffffffffffffffffffffffffff1673ffffffffffffffffffffffffffffffffffffffff1614158061448f57508173ffffffffffffffffffffffffffffffffffffffff16600460009054906101000a900473ffffffffffffffffffffffffffffffffffffffff1673ffffffffffffffffffffffffffffffffffffffff1614155b6144ce576040517f08c379a00000000000000000000000000000000000000000000000000000000081526004016144c59061676e565b60405180910390fd5b82600260006101000a81548173ffffffffffffffffffffffffffffffffffffffff021916908373ffffffffffffffffffffffffffffffffffffffff16021790555082600360006101000a81548173ffffffffffffffffffffffffffffffffffffffff021916908373ffffffffffffffffffffffffffffffffffffffff16021790555081600460006101000a81548173ffffffffffffffffffffffffffffffffffffffff021916908373ffffffffffffffffffffffffffffffffffffffff16021790555081600560006101000a81548173ffffffffffffffffffffffffffffffffffffffff021916908373ffffffffffffffffffffffffffffffffffffffff1602179055507fdcc6331013de89f8c595d5328f0a724194f113cb6f8f2a707b3dff6de13f0d1783836040516146039291906164c4565b60405180910390a1505050565b60125481565b6000806011600085815260200190815260200160002060008473ffffffffffffffffffffffffffffffffffffffff1673ffffffffffffffffffffffffffffffffffffffff1681526020019081526020016000206040518060c00160405290816000820154815260200160018201548152602001600282015481526020016003820154815260200160048201548152602001600582015481525050905060008160400151146146d6578060400151426146ce9190616bc4565b9150816146ea565b8060600151426146e69190616bc4565b9150815b505092915050565b6000806146ff84846135c8565b90506000600660009054906101000a900473ffffffffffffffffffffffffffffffffffffffff1673ffffffffffffffffffffffffffffffffffffffff1663c399c7d96040518163ffffffff1660e01b815260040160206040518083038186803b15801561476b57600080fd5b505afa15801561477f573d6000803e3d6000fd5b505050506040513d601f19601f820116820180604052508101906147a391906159b3565b905080826147b19190616b6a565b9250505092915050565b7f000000000000000000000000000000000000000000000000000000000000000081565b60135481565b60007f01ffc9a7000000000000000000000000000000000000000000000000000000007bffffffffffffffffffffffffffffffffffffffffffffffffffffffff1916827bffffffffffffffffffffffffffffffffffffffffffffffffffffffff1916149050919050565b80600560009054906101000a900473ffffffffffffffffffffffffffffffffffffffff1673ffffffffffffffffffffffffffffffffffffffff166370a08231600260009054906101000a900473ffffffffffffffffffffffffffffffffffffffff166040518263ffffffff1660e01b81526004016148cd91906164a9565b602060405180830381600087803b1580156148e757600080fd5b505af11580156148fb573d6000803e3d6000fd5b505050506040513d601f19601f8201168201806040525081019061491f91906159b3565b1015614960576040517f08c379a00000000000000000000000000000000000000000000000000000000081526004016149579061668e565b60405180910390fd5b600560009054906101000a900473ffffffffffffffffffffffffffffffffffffffff1673ffffffffffffffffffffffffffffffffffffffff1663b2a142aa83836040518363ffffffff1660e01b81526004016149bd929190616524565b600060405180830381600087803b1580156149d757600080fd5b505af11580156149eb573d6000803e3d6000fd5b505050505050565b600033905090565b614a058282612f6b565b614a9457614a2a8173ffffffffffffffffffffffffffffffffffffffff166014615158565b614a388360001c6020615158565b604051602001614a4992919061646f565b6040516020818303038152906040526040517f08c379a0000000000000000000000000000000000000000000000000000000008152600401614a8b919061660c565b60405180910390fd5b5050565b600081614aa4846138eb565b614aae9190616b39565b90507f000000000000000000000000000000000000000000000000000000000000000081614adc9190616b6a565b600b8190555062015180600b54614af39190616b39565b600c819055507fcd7c861d63893659123f817b192b8621ff1923a7c4589c260173cedcf9e986a6600b54600c54604051614b2e9291906169a0565b60405180910390a1505050565b614b458282612f6b565b614c1757600160008084815260200190815260200160002060000160008373ffffffffffffffffffffffffffffffffffffffff1673ffffffffffffffffffffffffffffffffffffffff16815260200190815260200160002060006101000a81548160ff021916908315150217905550614bbc6149f3565b73ffffffffffffffffffffffffffffffffffffffff168173ffffffffffffffffffffffffffffffffffffffff16837f2f8788117e7eff1d82e926ec794901d17c78024a50270940304540a733656f0d60405160405180910390a45b5050565b614c258282612f6b565b15614cf857600080600084815260200190815260200160002060000160008373ffffffffffffffffffffffffffffffffffffffff1673ffffffffffffffffffffffffffffffffffffffff16815260200190815260200160002060006101000a81548160ff021916908315150217905550614c9d6149f3565b73ffffffffffffffffffffffffffffffffffffffff168173ffffffffffffffffffffffffffffffffffffffff16837ff6391f5c32d9c69d2a47ea670b442974b53935d1edc7fd64eb21e047a839171b60405160405180910390a45b5050565b6000601080549050905060005b81811015614dfc578273ffffffffffffffffffffffffffffffffffffffff1660108281548110614d62577f4e487b7100000000000000000000000000000000000000000000000000000000600052603260045260246000fd5b906000526020600020906005020160000160009054906101000a900473ffffffffffffffffffffffffffffffffffffffff1673ffffffffffffffffffffffffffffffffffffffff161415614deb576040517f08c379a0000000000000000000000000000000000000000000000000000000008152600401614de29061688e565b60405180910390fd5b80614df590616d63565b9050614d09565b505050565b8115614e1057614e0f612a2c565b5b83600e6000828254614e229190616ae3565b9250508190555060106040518060a001604052808573ffffffffffffffffffffffffffffffffffffffff168152602001868152602001600d544211614e6957600d54614e6b565b425b815260200160008152602001614e80846138eb565b815250908060018154018082558091505060019003906000526020600020906005020160009091909190915060008201518160000160006101000a81548173ffffffffffffffffffffffffffffffffffffffff021916908373ffffffffffffffffffffffffffffffffffffffff160217905550602082015181600101556040820151816002015560608201518160030155608082015181600401555050614f25614ffb565b600060108054905090507f20b669aa921947a6d9602a921d2db3b6b30f21b9aca98580fa3972530330b27a818686600e54604051614f6694939291906169c9565b60405180910390a15050505050565b614ff68363a9059cbb60e01b8484604051602401614f94929190616524565b604051602081830303815290604052907bffffffffffffffffffffffffffffffffffffffffffffffffffffffff19166020820180517bffffffffffffffffffffffffffffffffffffffffffffffffffffffff8381831617835250505050615452565b505050565b60006010805490509050600080600190505b8281101561507f576010818154811061504f577f4e487b7100000000000000000000000000000000000000000000000000000000600052603260045260246000fd5b9060005260206000209060050201600101548261506c9190616ae3565b91508061507890616d63565b905061500d565b5060008114615154576003816150959190616b39565b90508060106000815481106150d3577f4e487b7100000000000000000000000000000000000000000000000000000000600052603260045260246000fd5b906000526020600020906005020160010154600e546150f29190616bc4565b6150fc9190616ae3565b600e8190555080601060008154811061513e577f4e487b7100000000000000000000000000000000000000000000000000000000600052603260045260246000fd5b9060005260206000209060050201600101819055505b5050565b60606000600283600261516b9190616b6a565b6151759190616ae3565b67ffffffffffffffff8111156151b4577f4e487b7100000000000000000000000000000000000000000000000000000000600052604160045260246000fd5b6040519080825280601f01601f1916602001820160405280156151e65781602001600182028036833780820191505090505b5090507f300000000000000000000000000000000000000000000000000000000000000081600081518110615244577f4e487b7100000000000000000000000000000000000000000000000000000000600052603260045260246000fd5b60200101907effffffffffffffffffffffffffffffffffffffffffffffffffffffffffffff1916908160001a9053507f7800000000000000000000000000000000000000000000000000000000000000816001815181106152ce577f4e487b7100000000000000000000000000000000000000000000000000000000600052603260045260246000fd5b60200101907effffffffffffffffffffffffffffffffffffffffffffffffffffffffffffff1916908160001a9053506000600184600261530e9190616b6a565b6153189190616ae3565b90505b6001811115615404577f3031323334353637383961626364656600000000000000000000000000000000600f861660108110615380577f4e487b7100000000000000000000000000000000000000000000000000000000600052603260045260246000fd5b1a60f81b8282815181106153bd577f4e487b7100000000000000000000000000000000000000000000000000000000600052603260045260246000fd5b60200101907effffffffffffffffffffffffffffffffffffffffffffffffffffffffffffff1916908160001a905350600485901c9450806153fd90616d39565b905061531b565b5060008414615448576040517f08c379a000000000000000000000000000000000000000000000000000000000815260040161543f9061662e565b60405180910390fd5b8091505092915050565b60006154b4826040518060400160405280602081526020017f5361666545524332303a206c6f772d6c6576656c2063616c6c206661696c65648152508573ffffffffffffffffffffffffffffffffffffffff166155199092919063ffffffff16565b905060008151111561551457808060200190518101906154d491906158d3565b615513576040517f08c379a000000000000000000000000000000000000000000000000000000000815260040161550a906168ae565b60405180910390fd5b5b505050565b60606155288484600085615531565b90509392505050565b606082471015615576576040517f08c379a000000000000000000000000000000000000000000000000000000000815260040161556d9061674e565b60405180910390fd5b61557f85615645565b6155be576040517f08c379a00000000000000000000000000000000000000000000000000000000081526004016155b59061682e565b60405180910390fd5b6000808673ffffffffffffffffffffffffffffffffffffffff1685876040516155e79190616458565b60006040518083038185875af1925050503d8060008114615624576040519150601f19603f3d011682016040523d82523d6000602084013e615629565b606091505b5091509150615639828286615658565b92505050949350505050565b600080823b905060008111915050919050565b60608315615668578290506156b8565b60008351111561567b5782518084602001fd5b816040517f08c379a00000000000000000000000000000000000000000000000000000000081526004016156af919061660c565b60405180910390fd5b9392505050565b6000813590506156ce81616e1b565b92915050565b60008083601f8401126156e657600080fd5b8235905067ffffffffffffffff8111156156ff57600080fd5b60208301915083602082028301111561571757600080fd5b9250929050565b60008135905061572d81616e32565b92915050565b60008151905061574281616e32565b92915050565b60008135905061575781616e49565b92915050565b60008135905061576c81616e60565b92915050565b60008135905061578181616e77565b92915050565b60008135905061579681616e8e565b92915050565b6000815190506157ab81616e8e565b92915050565b6000602082840312156157c357600080fd5b60006157d1848285016156bf565b91505092915050565b600080604083850312156157ed57600080fd5b60006157fb858286016156bf565b925050602061580c858286016156bf565b9150509250929050565b60008060006060848603121561582b57600080fd5b6000615839868287016156bf565b935050602061584a868287016156bf565b925050604061585b86828701615787565b9150509250925092565b6000806020838503121561587857600080fd5b600083013567ffffffffffffffff81111561589257600080fd5b61589e858286016156d4565b92509250509250929050565b6000602082840312156158bc57600080fd5b60006158ca8482850161571e565b91505092915050565b6000602082840312156158e557600080fd5b60006158f384828501615733565b91505092915050565b60006020828403121561590e57600080fd5b600061591c84828501615748565b91505092915050565b6000806040838503121561593857600080fd5b600061594685828601615748565b9250506020615957858286016156bf565b9150509250929050565b60006020828403121561597357600080fd5b60006159818482850161575d565b91505092915050565b60006020828403121561599c57600080fd5b60006159aa84828501615787565b91505092915050565b6000602082840312156159c557600080fd5b60006159d38482850161579c565b91505092915050565b600080604083850312156159ef57600080fd5b60006159fd85828601615787565b9250506020615a0e858286016156bf565b9150509250929050565b60008060008060808587031215615a2e57600080fd5b6000615a3c87828801615787565b9450506020615a4d87828801615772565b9350506040615a5e8782880161571e565b9250506060615a6f87828801615787565b91505092959194509250565b60008060408385031215615a8e57600080fd5b6000615a9c85828601615787565b9250506020615aad85828601615787565b9150509250929050565b600080600060608486031215615acc57600080fd5b6000615ada86828701615787565b9350506020615aeb86828701615787565b9250506040615afc8682870161571e565b9150509250925092565b600080600060608486031215615b1b57600080fd5b6000615b2986828701615787565b9350506020615b3a86828701615787565b9250506040615b4b86828701615787565b9150509250925092565b615b5e81616bf8565b82525050565b615b6d81616c0a565b82525050565b615b7c81616c16565b82525050565b6000615b8d82616aa6565b615b978185616abc565b9350615ba7818560208601616d06565b80840191505092915050565b615bbc81616c88565b82525050565b615bcb81616cac565b82525050565b615bda81616cd0565b82525050565b615be981616cf4565b82525050565b6000615bfa82616ab1565b615c048185616ac7565b9350615c14818560208601616d06565b615c1d81616e0a565b840191505092915050565b6000615c3382616ab1565b615c3d8185616ad8565b9350615c4d818560208601616d06565b80840191505092915050565b6000615c66602083616ac7565b91507f537472696e67733a20686578206c656e67746820696e73756666696369656e746000830152602082019050919050565b6000615ca6601c83616ac7565b91507f636f6e74726163742069732063757272656e746c7920706175736564000000006000830152602082019050919050565b6000615ce6601a83616ac7565b91507f7769746864726177616c2065786365656473206465706f7369740000000000006000830152602082019050919050565b6000615d26603483616ac7565b91507f696e73756666696369656e7420636f76657261676520666f722072657175657360008301527f74656420534f554c2066726f6d205345414e43450000000000000000000000006020830152604082019050919050565b6000615d8c602b83616ac7565b91507f726571756573746564207769746864726177616c20657863656564732073746160008301527f6b65642062616c616e63650000000000000000000000000000000000000000006020830152604082019050919050565b6000615df2601383616ac7565b91507f6d7573742062652061206e65772076616c7565000000000000000000000000006000830152602082019050919050565b6000615e32601983616ac7565b91507f6578636565647320616c6c6f7761626c652066656544617973000000000000006000830152602082019050919050565b6000615e72601d83616ac7565b91507f656d657267656e6379206d6f6465206973206e6f74206163746976652e0000006000830152602082019050919050565b6000615eb2602683616ac7565b91507f6465706f73697420534f554c206279207374616b696e672028656e746572537460008301527f616b696e672900000000000000000000000000000000000000000000000000006020830152604082019050919050565b6000615f18602683616ac7565b91507f416464726573733a20696e73756666696369656e742062616c616e636520666f60008301527f722063616c6c00000000000000000000000000000000000000000000000000006020830152604082019050919050565b6000615f7e601b83616ac7565b91507f6d7573742062652061206e657720746f6b656e206164647265737300000000006000830152602082019050919050565b6000615fbe601883616ac7565b91507f6d75737420696e636c7564652061206e65772076616c756500000000000000006000830152602082019050919050565b6000615ffe601383616ac7565b91507f706f6f6c20646f6573206e6f74206578697374000000000000000000000000006000830152602082019050919050565b600061603e602983616ac7565b91507f776974686472617720534f554c20627920756e7374616b696e6720286c65617660008301527f655374616b696e672900000000000000000000000000000000000000000000006020830152604082019050919050565b60006160a4603483616ac7565b91507f696e73756666696369656e74205345414e434520746f20636f76657220534f5560008301527f4c207769746864726177616c20726571756573740000000000000000000000006020830152604082019050919050565b600061610a601483616ac7565b91507f63616e6e6f74207769746864726177207a65726f0000000000000000000000006000830152602082019050919050565b600061614a601d83616ac7565b91507f416464726573733a2063616c6c20746f206e6f6e2d636f6e74726163740000006000830152602082019050919050565b600061618a601b83616ac7565b91507f726577617264732068617665206e6f742079657420626567756e2e00000000006000830152602082019050919050565b60006161ca601783616ad8565b91507f416363657373436f6e74726f6c3a206163636f756e74200000000000000000006000830152601782019050919050565b600061620a601a83616ac7565b91507f6d75737420696e636c7564652061206e6577206163636f756e740000000000006000830152602082019050919050565b600061624a600f83616ac7565b91507f6475706c69636174656420706f6f6c00000000000000000000000000000000006000830152602082019050919050565b600061628a602a83616ac7565b91507f5361666545524332303a204552433230206f7065726174696f6e20646964206e60008301527f6f742073756363656564000000000000000000000000000000000000000000006020830152604082019050919050565b60006162f0601a83616ac7565b91507f72657761726473206861766520616c726561647920626567756e0000000000006000830152602082019050919050565b6000616330601f83616ac7565b91507f5265656e7472616e637947756172643a207265656e7472616e742063616c6c006000830152602082019050919050565b6000616370601183616ad8565b91507f206973206d697373696e6720726f6c65200000000000000000000000000000006000830152601182019050919050565b60006163b0602f83616ac7565b91507f416363657373436f6e74726f6c3a2063616e206f6e6c792072656e6f756e636560008301527f20726f6c657320666f722073656c6600000000000000000000000000000000006020830152604082019050919050565b6000616416602083616ac7565b91507f7765696768742063616e6e6f742065786365656420746f74616c5765696768746000830152602082019050919050565b61645281616c7e565b82525050565b60006164648284615b82565b915081905092915050565b600061647a826161bd565b91506164868285615c28565b915061649182616363565b915061649d8284615c28565b91508190509392505050565b60006020820190506164be6000830184615b55565b92915050565b60006040820190506164d96000830185615b55565b6164e66020830184615b55565b9392505050565b60006060820190506165026000830186615b55565b61650f6020830185615b55565b61651c6040830184616449565b949350505050565b60006040820190506165396000830185615b55565b6165466020830184616449565b9392505050565b60006020820190506165626000830184615b64565b92915050565b600060208201905061657d6000830184615b73565b92915050565b60006020820190506165986000830184615bb3565b92915050565b600060a0820190506165b36000830188615bc2565b6165c06020830187616449565b6165cd6040830186616449565b6165da6060830185616449565b6165e76080830184616449565b9695505050505050565b60006020820190506166066000830184615bd1565b92915050565b600060208201905081810360008301526166268184615bef565b905092915050565b6000602082019050818103600083015261664781615c59565b9050919050565b6000602082019050818103600083015261666781615c99565b9050919050565b6000602082019050818103600083015261668781615cd9565b9050919050565b600060208201905081810360008301526166a781615d19565b9050919050565b600060208201905081810360008301526166c781615d7f565b9050919050565b600060208201905081810360008301526166e781615de5565b9050919050565b6000602082019050818103600083015261670781615e25565b9050919050565b6000602082019050818103600083015261672781615e65565b9050919050565b6000602082019050818103600083015261674781615ea5565b9050919050565b6000602082019050818103600083015261676781615f0b565b9050919050565b6000602082019050818103600083015261678781615f71565b9050919050565b600060208201905081810360008301526167a781615fb1565b9050919050565b600060208201905081810360008301526167c781615ff1565b9050919050565b600060208201905081810360008301526167e781616031565b9050919050565b6000602082019050818103600083015261680781616097565b9050919050565b60006020820190508181036000830152616827816160fd565b9050919050565b600060208201905081810360008301526168478161613d565b9050919050565b600060208201905081810360008301526168678161617d565b9050919050565b60006020820190508181036000830152616887816161fd565b9050919050565b600060208201905081810360008301526168a78161623d565b9050919050565b600060208201905081810360008301526168c78161627d565b9050919050565b600060208201905081810360008301526168e7816162e3565b9050919050565b6000602082019050818103600083015261690781616323565b9050919050565b60006020820190508181036000830152616927816163a3565b9050919050565b6000602082019050818103600083015261694781616409565b9050919050565b60006020820190506169636000830184616449565b92915050565b600060608201905061697e6000830186616449565b61698b6020830185615be0565b6169986040830184616449565b949350505050565b60006040820190506169b56000830185616449565b6169c26020830184616449565b9392505050565b60006080820190506169de6000830187616449565b6169eb6020830186616449565b6169f86040830185615bc2565b616a056060830184616449565b95945050505050565b6000606082019050616a236000830186616449565b616a306020830185616449565b616a3d6040830184616449565b949350505050565b600060c082019050616a5a6000830189616449565b616a676020830188616449565b616a746040830187616449565b616a816060830186616449565b616a8e6080830185616449565b616a9b60a0830184616449565b979650505050505050565b600081519050919050565b600081519050919050565b600081905092915050565b600082825260208201905092915050565b600081905092915050565b6000616aee82616c7e565b9150616af983616c7e565b9250827fffffffffffffffffffffffffffffffffffffffffffffffffffffffffffffffff03821115616b2e57616b2d616dac565b5b828201905092915050565b6000616b4482616c7e565b9150616b4f83616c7e565b925082616b5f57616b5e616ddb565b5b828204905092915050565b6000616b7582616c7e565b9150616b8083616c7e565b9250817fffffffffffffffffffffffffffffffffffffffffffffffffffffffffffffffff0483118215151615616bb957616bb8616dac565b5b828202905092915050565b6000616bcf82616c7e565b9150616bda83616c7e565b925082821015616bed57616bec616dac565b5b828203905092915050565b6000616c0382616c5e565b9050919050565b60008115159050919050565b6000819050919050565b60007fffffffff0000000000000000000000000000000000000000000000000000000082169050919050565b6000616c5782616bf8565b9050919050565b600073ffffffffffffffffffffffffffffffffffffffff82169050919050565b6000819050919050565b6000616c9382616c9a565b9050919050565b6000616ca582616c5e565b9050919050565b6000616cb782616cbe565b9050919050565b6000616cc982616c5e565b9050919050565b6000616cdb82616ce2565b9050919050565b6000616ced82616c5e565b9050919050565b6000616cff82616c7e565b9050919050565b60005b83811015616d24578082015181840152602081019050616d09565b83811115616d33576000848401525b50505050565b6000616d4482616c7e565b91506000821415616d5857616d57616dac565b5b600182039050919050565b6000616d6e82616c7e565b91507fffffffffffffffffffffffffffffffffffffffffffffffffffffffffffffffff821415616da157616da0616dac565b5b600182019050919050565b7f4e487b7100000000000000000000000000000000000000000000000000000000600052601160045260246000fd5b7f4e487b7100000000000000000000000000000000000000000000000000000000600052601260045260246000fd5b6000601f19601f8301169050919050565b616e2481616bf8565b8114616e2f57600080fd5b50565b616e3b81616c0a565b8114616e4657600080fd5b50565b616e5281616c16565b8114616e5d57600080fd5b50565b616e6981616c20565b8114616e7457600080fd5b50565b616e8081616c4c565b8114616e8b57600080fd5b50565b616e9781616c7e565b8114616ea257600080fd5b5056fea264697066735822122025017d481e75cd6f17871ac5ed300904ed4e42714dc060b589d92709ddb939cc64736f6c63430008000033",
  "immutableReferences": {
    "21753": [
      {
        "length": 32,
        "start": 5442
      },
      {
        "length": 32,
        "start": 19122
      }
    ],
    "21764": [
      {
        "length": 32,
        "start": 11684
      },
      {
        "length": 32,
        "start": 12657
      }
    ],
    "21769": [
      {
        "length": 32,
        "start": 18365
      }
    ],
    "21774": [
      {
        "length": 32,
        "start": 5812
      },
      {
        "length": 32,
        "start": 14643
      }
    ]
  },
  "source": "// SPDX-License-Identifier: MIT\n\npragma solidity ^0.8.0;\nimport '@openzeppelin/contracts/access/AccessControl.sol';\nimport '@openzeppelin/contracts/security/ReentrancyGuard.sol';\nimport '@openzeppelin/contracts/token/ERC20/IERC20.sol';\nimport '../libraries/SafeERC20.sol';\n\n// interface used for interacting with SOUL & SEANCE\ninterface IToken {\n    function mint(address to, uint amount) external;\n    function burn(address from, uint amount) external;\n    function safeSoulTransfer(address to, uint amount) external;\n    function balanceOf(address account) external returns (uint balance);\n}\n\ninterface ICalculator {\n    function getTokenPrice(address tokenAddress) external view returns (uint tokenPrice);\n    function getSoulPrice() external view returns (uint soulPrice);\n    function getPoolPrice(address poolAddress) external view returns (uint poolPrice);\n    function getPendingRewardsValue(uint pid, address userAddress) external view returns (uint pendingValue);\n    function getNativePrice() external view returns (uint nativePrice);\n    function getPooledValue(uint pid, address lpAddress) external view returns (uint value);\n}\n\n// summoner of souls | ownership transferred to a governance smart contract \n// upon sufficient distribution + the community's desire to self-govern.\n// Enchantress: @0xBuns\n\ncontract SoulSummonerAvalancheExt is AccessControl, ReentrancyGuard {\n    using SafeERC20 for IERC20;\n\n    // user info\n    struct Users {\n        uint amount;            // deposited amount.\n        uint rewardDebt;        // reward debt (see: pendingSoul).\n        uint withdrawalTime;    // last withdrawal time.\n        uint depositTime;       // first deposit time.\n        uint timeDelta;         // seconds accounted for in fee calculation.\n        uint deltaDays;         // days accounted for in fee calculation\n\n        // the following occurs when a user +/- tokens to a pool:\n        //   1. pool: `accSoulPerShare` and `lastRewardTime` update.\n        //   2. user: receives pending reward.\n        //   3. user: `amount` updates(+/-).\n        //   4. user: `rewardDebt` updates (+/-).\n    }\n\n    // pool info\n    struct Pools {\n        IERC20 lpToken;       // lp token contract.\n        uint allocPoint;      // allocation points, which determines SOUL distribution per second.\n        uint lastRewardTime;  // latest SOUL distribution in the pool.\n        uint accSoulPerShare; // accumulated SOUL per share (times 1e12).\n        uint feeDays;         // days during which a fee applies (aka startRate or feeDuration).\n    }\n\n    // soul power: our native utility token\n    address private soulAddress;\n    IToken public soul;\n    \n    // seance circle: our governance token\n    address private seanceAddress;\n    IToken public seance;\n\n    // price calculator\n    ICalculator public calculator;\n\n    address public team;        // receives 1/8 supply\n    address public dao;         // recieves 1/8 supply\n\n    // rewarder variables: used to calculate share of overall emissions.\n    uint public totalWeight;\n    uint public weight;\n\n    // global daily SOUL\n    uint public immutable globalDailySoul = 250_000;\n\n    // local daily SOUL\n    uint public dailySoul; // = weight * globalDailySoul * 1e18;\n    // rewards per second for this rewarder\n    uint public soulPerSecond; // = dailySoul / 86400;\n\n    // marks the beginning of soul rewards.\n    uint public startTime;\n\n    // total allocation points: must be the sum of all allocation points\n    uint public totalAllocPoint;\n\n    // bonus muliplier\n    uint public immutable bonusMultiplier = 1;\n\n    // decay rate on withdrawal fee of 1%.\n    uint public immutable dailyDecay = enWei(1);\n    \n    // limits the maximum days to wait for a fee-less withdrawal.\n    uint public immutable maxFeeDays = enWei(100);\n\n    // initialization state\n    bool public isInitialized;\n    \n    // emergency state\n    bool public isEmergency;\n\n    // pause state\n    bool public isPaused;\n\n    // pool info\n    Pools[] public poolInfo;\n\n    // user info\n    mapping (uint => mapping (address => Users)) public userInfo;\n\n    // divine roles\n    bytes32 public isis; // soul summoning goddess of magic\n    bytes32 public maat; // goddess of cosmic order\n\n    // restricts: function to the council of the role passed as an object to obey (role)\n    modifier obey(bytes32 role) {\n        _checkRole(role, _msgSender());\n        _;\n    }\n\n    // prevents: early reward distribution\n    modifier isSummoned {\n        require(isInitialized, 'rewards have not yet begun.');\n        _;\n    }\n   \n    // controls: emergencyWithdrawals\n    modifier emergencyActive {\n        require(isEmergency, 'emergency mode is not active.');\n        _;\n    }\n\n    // controls: deposits\n    modifier isActive {\n        require(!isPaused, 'contract is currently paused');\n        _;\n    }\n\n    // validates: pool exists\n    modifier validatePoolByPid(uint pid) {\n        require(pid < poolInfo.length, 'pool does not exist');\n        _;\n    }\n\n    /*/ events /*/\n    event Deposit(address indexed user, uint indexed pid, uint amount, uint timestamp);\n    event Withdraw(address indexed user, uint indexed pid, uint amount, uint feeAmount, uint timeStamp);\n    event Initialized(address soulAddress, address seanceAddress, uint weight);\n    event PoolAdded(uint pid, uint allocPoint, IERC20 lpToken, uint totalAllocPoint);\n    event PoolSet(uint pid, uint allocPoint);\n    event WeightUpdated(uint weight, uint totalWeight);\n    event RewardsUpdated(uint dailySoul, uint soulPerSecond);\n    event FeeDaysUpdated(uint pid, uint feeDays);\n    event AccountsUpdated(address dao, address team);\n    event TokensUpdated(address soul, address seance);\n    event DepositRevised(uint pid, address account, uint timestamp);\n    event EmergencyWithdraw(address indexed user, uint indexed pid, uint amount);\n\n    // channels the power of isis & ma'at\n    constructor() {\n        address supreme = msg.sender;\n        team = supreme;\n        dao = supreme;\n\n        isis = keccak256(\"isis\"); // goddess of magic who creates pools\n        maat = keccak256(\"maat\"); // goddess of cosmic order who allocates emissions\n\n        _divinationCeremony(DEFAULT_ADMIN_ROLE, DEFAULT_ADMIN_ROLE, supreme);\n        _divinationCeremony(isis, isis, supreme); // isis role created -- supreme divined admin\n        _divinationCeremony(maat, isis, supreme); // maat role created -- isis divined admin\n    } \n\n    function _divinationCeremony(bytes32 _role, bytes32 _adminRole, address _account) internal returns (bool) {\n            _setupRole(_role, _account);\n            _setRoleAdmin(_role, _adminRole);\n        return true;\n    }\n\n    // validates: pool uniqueness to eliminate duplication risk (internal view)\n    function checkPoolDuplicate(IERC20 _token) internal view {\n        uint length = poolInfo.length;\n\n        for (uint pid = 0; pid < length; ++pid) {\n            require(poolInfo[pid].lpToken != _token, 'duplicated pool');\n        }\n    }\n\n    // activates: rewards (isis)\n    function initialize(address _soulAddress, address _seanceAddress, uint _weight) external obey(isis) {\n        // checks: rewards have not already begun\n        require(!isInitialized, 'rewards have already begun');\n\n        // sets: times & weights\n        startTime = block.timestamp;\n        totalWeight = 1_000;\n        weight = _weight;\n\n        // sets: tokens\n        soulAddress = _soulAddress;\n        seanceAddress = _seanceAddress;\n        soul  = IToken(_soulAddress);\n        seance = IToken(_seanceAddress);\n\n        // updates: dailySoul and soulPerSecond\n        updateRewards(weight, totalWeight); \n\n        // adds: staking pool (allocation: 1,000 & withdrawFee: 0).\n        poolInfo.push(Pools({\n            lpToken: IERC20(_soulAddress),\n            allocPoint: 1_000,\n            lastRewardTime: startTime,\n            accSoulPerShare: 0,\n            feeDays: 0\n        }));\n        \n        // triggers: initialization\n        isInitialized = true;\n\n        // sets: total allocation point.\n        totalAllocPoint += 1_000;\n\n        emit Initialized(_soulAddress, _seanceAddress, _weight);\n    }\n\n    // enables: panic button (ma'at)\n    function toggleEmergency(bool enabled) external obey(maat) {\n        isEmergency = enabled;\n    }\n\n    // toggles: pause state (isis)\n    function togglePause(bool enabled) external obey(isis) {\n        isPaused = enabled;\n    }\n\n    // returns: amount of pools\n    function poolLength() external view returns (uint) { return poolInfo.length; }\n\n    // add: new pool created by the soul summoning goddess whose power transcends all (isis)\n    function addPool(uint _allocPoint, IERC20 _lpToken, bool _withUpdate, uint _feeDays) public isSummoned obey(isis) { \n            checkPoolDuplicate(_lpToken);\n\n            _addPool(_allocPoint, _lpToken, _withUpdate, _feeDays);\n    }\n\n    // add: pool\n    function _addPool(uint _allocPoint, IERC20 _lpToken, bool _withUpdate, uint _feeDays) internal {\n        if (_withUpdate) { massUpdatePools(); }\n\n        totalAllocPoint += _allocPoint;\n\n        poolInfo.push(\n        Pools({\n            lpToken: _lpToken,\n            allocPoint: _allocPoint,\n            lastRewardTime: block.timestamp > startTime ? block.timestamp : startTime,\n            accSoulPerShare: 0,\n            feeDays: enWei(_feeDays)\n        }));\n        \n        updateStakingPool();\n        uint pid = poolInfo.length;\n\n        emit PoolAdded(pid, _allocPoint, _lpToken, totalAllocPoint);\n    }\n\n    // set: allocation points (ma'at)\n    function set(uint pid, uint allocPoint, bool withUpdate) external isSummoned validatePoolByPid(pid) obey(maat) {\n            // [if] withUpdate, [then] execute mass pool update.\n            if (withUpdate) { massUpdatePools(); }\n            \n            // gets: previous allocation point & sets new allocation point\n            uint prevAllocPoint = poolInfo[pid].allocPoint;\n            poolInfo[pid].allocPoint = allocPoint;\n            \n            if (prevAllocPoint != allocPoint) {\n                totalAllocPoint = totalAllocPoint - prevAllocPoint + allocPoint;\n                \n                updateStakingPool(); // updates selected pool (only)\n        }\n\n        emit PoolSet(pid, allocPoint);\n    }\n\n    // view: user delta is the time since user either last withdrew OR first deposited.\n\tfunction userDelta(uint pid, address _user) public view returns (uint delta) {\n        // grabs the stored user data for the pool\n        Users memory user = userInfo[pid][_user];\n\n        // if user has never withdrawn\n        user.withdrawalTime == 0 \n            // then use the time since their first deposit\n            ? delta = block.timestamp - user.depositTime\n            // else, use the time since the last withdrawal\n            : delta = block.timestamp - user.withdrawalTime;\n\n        return delta;\n\t}\n\n    // view: user delta is the time since user either last withdrew OR first deposited.\n\tfunction userDelta(uint pid) public view returns (uint delta) {\n        // grabs the stored user data for the pool\n        Users memory user = userInfo[pid][msg.sender];\n\n        // if user has never withdrawn\n        user.withdrawalTime == 0 \n            // then use the time since their first deposit\n            ? delta = block.timestamp - user.depositTime\n            // else, use the time since the last withdrawal\n            : delta = block.timestamp - user.withdrawalTime;\n\n        return delta;  \n\t}\n\n    // returns: multiplier during a period.\n    function getMultiplier(uint from, uint to) public pure returns (uint) {\n        return (to - from) * bonusMultiplier;\n    }\n\n    // gets: days based off a given timeDelta (seconds).\n    function getDeltaDays(uint timeDelta) public pure returns (uint deltaDays) {\n        deltaDays = timeDelta < 1 days ? 0 : timeDelta / 1 days;\n        return deltaDays;     \n    }\n\n    // returns: fee rate for a given pid and timeDelta.\n    function getFeeRate(uint pid, uint deltaDays) public view returns (uint feeRate) {\n        // calculates: rateDecayed (converts to wei).\n        uint rateDecayed = enWei(deltaDays);\n\n        // gets: info & feeDays (pool)\n        Pools memory pool = poolInfo[pid];\n        uint feeDays = pool.feeDays; \n\n        // [if] more time has elapsed than wait period\n        if (rateDecayed >= feeDays) {\n            // [then] set feeRate to 0.\n            feeRate = 0;\n        } else { // [else] reduce feeDays by the rateDecayed.\n            feeRate = feeDays - rateDecayed;\n        }\n\n        return feeRate;\n    }\n\n    // returns: feeAmount and with withdrawableAmount for a given pid and amount\n    function getWithdrawable(uint pid, uint deltaDays, uint amount) public view returns (uint _feeAmount, uint _withdrawable) {\n        // gets: feeRate\n        uint feeRate = fromWei(getFeeRate(pid, deltaDays));\n        // gets: feeAmount\n        uint feeAmount = (amount * feeRate) / 100;\n        // calculates: withdrawable amount\n        uint withdrawable = amount - feeAmount;\n\n        return (feeAmount, withdrawable);\n    }\n\n    // view: pending soul rewards\n    function pendingSoul(uint pid, address account) public view returns (uint pendingAmount) {\n        // gets: pool and user data\n        Pools memory pool = poolInfo[pid];\n        Users memory user = userInfo[pid][account];\n\n        // gets: `accSoulPerShare` & `lpSupply` (pool)\n        uint accSoulPerShare = pool.accSoulPerShare;\n        uint lpSupply = pool.lpToken.balanceOf(address(this));\n\n        // [if] holds deposits & rewards issued at least once (pool)\n        if (block.timestamp > pool.lastRewardTime && lpSupply != 0) {\n            // gets: multiplier from the time since now and last time rewards issued (pool)\n            uint multiplier = getMultiplier(pool.lastRewardTime, block.timestamp);\n            // get: reward as the product of the elapsed emissions and the share of soul rewards (pool)\n            uint soulReward = multiplier * soulPerSecond * pool.allocPoint / totalAllocPoint;\n            // adds: product of soulReward and 1e12\n            accSoulPerShare += soulReward * 1e12 / lpSupply;\n        }\n        // returns: rewardShare for user minus the amount paid out (user)\n        return user.amount * accSoulPerShare / 1e12 - user.rewardDebt;\n    }\n\n    // view: pending soul rewards (for sender)\n    function pendingSoul(uint pid) public view returns (uint pendingAmount) {\n        Pools memory pool = poolInfo[pid];\n        Users memory user = userInfo[pid][msg.sender];\n\n        uint accSoulPerShare = pool.accSoulPerShare;\n        uint lpSupply = pool.lpToken.balanceOf(address(this));\n\n        if (block.timestamp > pool.lastRewardTime && lpSupply != 0) {\n            uint multiplier = getMultiplier(pool.lastRewardTime, block.timestamp);\n            uint soulReward = multiplier * soulPerSecond * pool.allocPoint / totalAllocPoint;\n            accSoulPerShare = accSoulPerShare + soulReward * 1e12 / lpSupply;\n        }\n        // returns: rewardShare for user minus the amount paid out (user)\n        return user.amount * accSoulPerShare / 1e12 - user.rewardDebt;\n    }\n\n    // update: rewards for all pools (public)\n    function massUpdatePools() public {\n        uint length = poolInfo.length;\n        for (uint pid = 0; pid < length; ++pid) { updatePool(pid); }\n    }\n\n    // update: rewards for a given pool id (public)\n    function updatePool(uint pid) public validatePoolByPid(pid) {\n        Pools storage pool = poolInfo[pid];\n\n        if (block.timestamp <= pool.lastRewardTime) { return; }\n        uint lpSupply = pool.lpToken.balanceOf(address(this));\n\n        // [if] first staker in pool, [then] set lastRewardTime to meow.\n        if (lpSupply == 0) { pool.lastRewardTime = block.timestamp; return; }\n\n        // gets: multiplier from time elasped since pool began issuing rewards.\n        uint multiplier = getMultiplier(pool.lastRewardTime, block.timestamp);\n        uint soulReward = multiplier * soulPerSecond * pool.allocPoint / totalAllocPoint;\n        // gets\n        uint divi = soulReward * 1e12 / 8e12;   // 12.5% rewards\n        \n        soul.mint(team, divi);\n        soul.mint(dao, divi);\n        soul.mint(address(seance), soulReward); // prevents reward errors\n\n        pool.accSoulPerShare = pool.accSoulPerShare + (soulReward * 1e12 / lpSupply);\n        pool.lastRewardTime = block.timestamp;\n    }\n\n    // harvests: pending rewards for a given pid.\n    function harvest(uint pid) public {\n        if (pid == 0) { enterStaking(0); }\n        else { deposit(pid, 0); }\n    }\n    \n    // harvest: all pools in a single transaction.\n    function harvestAll(uint[] calldata _pids) public {\n        for (uint i = 0; i < _pids.length; ++i) {\n            harvest(_pids[i]);\n        }\n    }\n\n    // calculates: user portion of total deposits for a given pid.\n    function userShare(uint pid, address account) external view returns (uint share) {\n        Pools memory pool = poolInfo[pid];\n        Users memory user = userInfo[pid][account];\n\n        // gets: total supply of lpToken in summoner (pool)\n        uint totalDeposited = pool.lpToken.balanceOf(address(this));\n        // gets: total staked (user)\n        uint userStaked = user.amount;\n        // calculates: user share of totalDeposited\n        share = userStaked / totalDeposited;\n\n        return share;\n    }\n\n    // gets: price for a given pid.\n    function getPrice(uint pid) public view returns (uint tokenPrice) {\n        Pools memory pool = poolInfo[pid];\n        address tokenAddress = address(pool.lpToken);\n        // [if] staking pool, [then] use soulPrice\n        if (pid == 0) { tokenPrice = calculator.getSoulPrice(); }\n        // [else] use lpPrice\n        else { tokenPrice = calculator.getPoolPrice(tokenAddress); }\n        return tokenPrice;\n    }\n\n    // gets: deposited value (pid, account)\n    function getDepositedValue(uint pid, address account) external view returns (uint depositValue) {\n        Users memory user = userInfo[pid][account];\n\n        uint price = getPrice(pid);\n        uint depositAmount = user.amount;\n\n        depositValue = price * depositAmount;\n\n        return depositValue;\n    }\n\n    // gets: deposited value (pid)\n    function getPoolTVL(uint pid) public view returns (uint poolTVL) {\n        Pools memory pool = poolInfo[pid];\n        uint totalDeposited = pool.lpToken.balanceOf(address(this));\n        uint price = getPrice(pid);\n\n        poolTVL = price * totalDeposited;\n\n        return poolTVL;\n    }\n\n    // gets: total value deposited\n    function getTVL(uint[] calldata _pids) external view returns (uint valueLocked) {\n            for (uint i = 0; i < _pids.length; ++i) {\n            valueLocked += getPoolTVL(_pids[i]);\n        }\n    }\n\n    // calculates: pending value (pid, account)\n    function getPendingValue(uint pid, address account) external view returns (uint pendingValue) {\n        uint pendingRewards = pendingSoul(pid, account);\n        uint soulPrice = calculator.getSoulPrice();\n        pendingValue = pendingRewards * soulPrice;\n\n        return pendingValue;\n    }\n\n    // deposit: lp tokens (lp owner)\n    function deposit(uint pid, uint amount) public nonReentrant isSummoned isActive validatePoolByPid(pid) {\n        require (pid != 0, 'deposit SOUL by staking (enterStaking)');\n        \n        // gets: stored data for pool and user.\n        Pools storage pool = poolInfo[pid];\n        Users storage user = userInfo[pid][msg.sender];\n\n        updatePool(pid);\n\n        // [if] already deposited (user)\n        if (user.amount > 0) {\n            // [then] gets: pendingRewards using pendingSoul (pid, user).\n            uint pendingRewards = pendingSoul(pid, msg.sender);\n            // [if] rewards pending, then transfer to user.\n            if(pendingRewards > 0) { \n                safeSoulTransfer(msg.sender, pendingRewards);\n            }\n        }\n\n        // [if] depositing more\n        if (amount > 0) {\n            // [then] transfer lpToken from user to contract\n            pool.lpToken.transferFrom(address(msg.sender), address(this), amount);\n            // [then] increment deposit amount (user).\n            user.amount += amount;\n        }\n\n        // updates: reward debt (user).\n        user.rewardDebt = user.amount * pool.accSoulPerShare / 1e12;\n\n        // [if] first time depositing (user)\n        if (user.depositTime == 0) {\n            // [then] update depositTime\n            user.depositTime = block.timestamp;\n        }\n        \n        emit Deposit(msg.sender, pid, amount, block.timestamp);\n    }\n\n    // withdraw: lp tokens (external farmers)\n    function withdraw(uint pid, uint amount) external nonReentrant isSummoned isActive validatePoolByPid(pid) {\n        require (pid != 0, 'withdraw SOUL by unstaking (leaveStaking)');\n        require(amount > 0, 'cannot withdraw zero');\n\n        Pools storage pool = poolInfo[pid];\n        Users storage user = userInfo[pid][msg.sender];\n\n        require(user.amount >= amount, 'withdrawal exceeds deposit');\n        updatePool(pid);\n\n        // gets: pending rewards as determined by pendingSoul.\n        uint pending = pendingSoul(pid, msg.sender);\n        // [if] rewards are pending, [then] send rewards to user.\n        if(pending > 0) { safeSoulTransfer(msg.sender, pending); }\n\n        // gets: timeDelta as the time since last withdrawal.\n        uint timeDelta = userDelta(pid, msg.sender);\n\n        // gets: deltaDays as days passed using timeDelta.\n        uint deltaDays = getDeltaDays(timeDelta);\n\n        // updates: deposit, timeDelta, & deltaDays (user)\n        user.amount -= amount;\n        user.timeDelta = timeDelta;\n        user.deltaDays = deltaDays;\n\n        // calculates: withdrawable amount (pid, deltaDays, amount).\n        (, uint withdrawableAmount) = getWithdrawable(pid, deltaDays, amount); \n\n        // calculates: `feeAmount` as the `amount` requested minus `withdrawableAmount`.\n        uint feeAmount = amount - withdrawableAmount;\n\n        // transfers: `feeAmount` --> DAO.\n        pool.lpToken.transfer(address(dao), feeAmount);\n        // transfers: withdrawableAmount amount --> user.\n        pool.lpToken.transfer(address(msg.sender), withdrawableAmount);\n\n        // updates: rewardDebt and withdrawalTime (user)\n        user.rewardDebt = user.amount * pool.accSoulPerShare / 1e12;\n        user.withdrawalTime = block.timestamp;\n\n        emit Withdraw(msg.sender, pid, amount, feeAmount, block.timestamp);\n    }\n\n    // enables: withdrawal without caring about rewards (for example, when rewards end).\n    function emergencyWithdraw(uint pid) external nonReentrant emergencyActive {\n        // gets: pool & user data (to update later).\n        Pools storage pool = poolInfo[pid];\n        Users storage user = userInfo[pid][msg.sender];\n\n        // [if] removing from staking\n        if (pid == 0) {\n            // [then] require SEANCE balance covers request (user).\n            require(seance.balanceOf(msg.sender) >= user.amount, 'insufficient SEANCE to cover SOUL withdrawal request');\n            // [then] burn seance from sender.\n            seance.burn(msg.sender, user.amount); \n        }\n\n        // transfers: lpToken to the user.\n        pool.lpToken.safeTransfer(msg.sender, user.amount);\n\n        // eliminates: user deposit and rewardDebt.\n        user.amount = 0;\n        user.rewardDebt = 0;\n\n        emit EmergencyWithdraw(msg.sender, pid, user.amount);\n    }\n\n    // stakes: soul into summoner.\n    function enterStaking(uint amount) public nonReentrant isSummoned {\n        Pools storage pool = poolInfo[0];\n        Users storage user = userInfo[0][msg.sender];\n\n        updatePool(0);\n\n        // gets: staked amount (user).\n        uint stakedAmount = user.amount;\n\n        // [if] already staked (user)\n        if (stakedAmount > 0) {\n            // [then] get: pending rewards.\n            uint pending = pendingSoul(0, msg.sender);\n            // [then] send: pending rewards.\n            safeSoulTransfer(msg.sender, pending);\n        }\n        \n        // [if] staking ( harvest)\n        if (amount > 0) {\n            // [then] transfer: `amount` of SOUL from user to contract.\n            pool.lpToken.transferFrom(msg.sender, address(this), amount);\n            // [then] increase: stored deposit amount (user).\n            user.amount += amount;\n        }\n\n        // [if] first deposit, [then] set depositTime to meow (user).\n        if (user.depositTime == 0) { user.depositTime = block.timestamp; }\n\n        // updates: reward debt (user)\n        user.rewardDebt = user.amount * pool.accSoulPerShare / 1e12;\n\n        // mints & sends: requested `amount` of SEANCE to sender as a receipt.\n        if (amount > 0) { seance.mint(msg.sender, amount); }\n\n        emit Deposit(msg.sender, 0, amount, block.timestamp);\n    }\n\n    // unstake: your soul (external staker)\n    function leaveStaking(uint amount) external nonReentrant isSummoned {\n        Pools storage pool = poolInfo[0];\n        Users storage user = userInfo[0][msg.sender];\n\n        // checks: sufficient balance to cover request (user).\n        require(user.amount >= amount, 'requested withdrawal exceeds staked balance');\n        updatePool(0);\n\n        // gets: pending staking pool rewards (user).\n        uint pending = pendingSoul(0, msg.sender);\n\n        // [if] sender has pending rewards, [then] transfer rewards to sender.\n        if (pending > 0) { safeSoulTransfer(msg.sender, pending); }\n\n        // [if] withdrawing from stake.\n        if (amount > 0) {\n            // [then] decrease: stored deposit by withdrawal amount.\n            user.amount = user.amount - amount;\n            // [then] burn: SEANCE in the specified `amount` (user).\n            seance.burn(msg.sender, amount);\n            // [then] update: reward debt (user).\n            user.rewardDebt = user.amount * pool.accSoulPerShare / 1e12;\n            // [then] update: withdrawal time (user).\n            user.withdrawalTime = block.timestamp;\n            // [then] transfer: requested SOUL (user).\n            pool.lpToken.transfer(address(msg.sender), amount);\n        }\n\n        emit Withdraw(msg.sender, 0, amount, 0, block.timestamp);\n    }\n    \n    // transfer: seance (only if there is sufficient coverage for payout).\n    function safeSoulTransfer(address account, uint amount) internal {\n        require(seance.balanceOf(soulAddress) >= amount, 'insufficient coverage for requested SOUL from SEANCE');\n        seance.safeSoulTransfer(account, amount);\n    }\n\n    // update: weight (ma'at)\n    function updateWeight(uint _weight, uint _totalWeight) external obey(maat) {\n        require(weight != _weight || totalWeight != _totalWeight, 'must include a new value');\n        require(_totalWeight >= _weight, 'weight cannot exceed totalWeight');\n\n        weight = _weight;     \n        totalWeight = _totalWeight;\n\n        updateRewards(_weight, _totalWeight);\n\n        emit WeightUpdated(_weight, _totalWeight);\n    }\n\n    // update: staking pool\n    function updateStakingPool() internal {\n        uint length = poolInfo.length;\n        uint points;\n        \n        for (uint pid = 1; pid < length; ++pid) { \n            points = points + poolInfo[pid].allocPoint; \n        }\n\n        if (points != 0) {\n            points = points / 3;\n            totalAllocPoint = totalAllocPoint - poolInfo[0].allocPoint + points;\n            poolInfo[0].allocPoint = points;\n        }\n    }\n\n    // update: rewards\n    function updateRewards(uint _weight, uint _totalWeight) internal {\n        uint share = enWei(_weight) / _totalWeight; // share of total emissions for rewarder (rewarder % total emissions)\n        \n        dailySoul = share * globalDailySoul; // dailySoul (for rewarder) = share (%) x globalDailySoul (soul emissions constant)\n        soulPerSecond = dailySoul / 1 days; // updates: daily rewards expressed in seconds (1 days = 86,400 secs)\n\n        emit RewardsUpdated(dailySoul, soulPerSecond);\n    }\n\n    // updates: feeDays (ma'at)\n    function updateFeeDays(uint pid, uint _daysRequested) external obey(maat) {\n        Pools storage pool = poolInfo[pid];\n        // converts & stores requested days (enWei).\n        uint _feeDays = enWei(_daysRequested);\n\n        // gets: current fee days & ensures distinction (pool)\n        uint feeDays = pool.feeDays;\n        require(feeDays != _feeDays, 'must be a new value');\n        \n        // limits: feeDays by maxFeeDays\n        require(feeDays <= maxFeeDays, 'exceeds allowable feeDays');\n        \n        // updates: fee days (pool)\n        pool.feeDays = _feeDays;\n        \n        emit FeeDaysUpdated(pid, _feeDays);\n    }\n\n    // updates: dao & team addresses (isis)\n    function updateAccounts(address _dao, address _team) external obey(isis) {\n        require(dao != _dao || team != _team, 'must include a new account');\n        dao = _dao;\n        team = _team;\n\n        emit AccountsUpdated(dao, team);\n    }\n\n    // updates: soul & seance addresses (isis)\n    function updateTokens(address _soulAddress, address _seanceAddress) external obey(isis) {\n        require(soulAddress != _soulAddress || seanceAddress != _seanceAddress, 'must be a new token address');\n\n        // update: soul\n        soulAddress = _soulAddress;\n        soul = IToken(_soulAddress);\n        \n        // update seance\n        seanceAddress = _seanceAddress;\n        seance = IToken(_seanceAddress);\n\n        emit TokensUpdated(_soulAddress, _seanceAddress);\n    }\n\n    // updates: calculator address (strictly used for frontend)\n    function updateCalculator(address _calculator) external obey(isis) {\n        calculator = ICalculator(_calculator);\n    }\n\n    // helper functions to convert to wei and 1/100th\n    function enWei(uint amount) public pure returns (uint) {  return amount * 1e18; }\n    function fromWei(uint amount) public pure returns (uint) { return amount / 1e18; }\n}\n",
  "sourcePath": "/Users/buns/Documents/GitHub/SoulSwapFinance/soulswap-farms/contracts/rewards/SoulSummonerAvalancheExt.sol",
  "compiler": {
    "name": "solc",
    "version": "0.8.0+commit.c7dfd78e.Emscripten.clang"
  },
  "schemaVersion": "3.4.1",
  "updatedAt": "2022-09-18T14:14:42.002Z",
  "devdoc": {
    "kind": "dev",
    "methods": {
      "getRoleAdmin(bytes32)": {
        "details": "Returns the admin role that controls `role`. See {grantRole} and {revokeRole}. To change a role's admin, use {_setRoleAdmin}."
      },
      "grantRole(bytes32,address)": {
        "details": "Grants `role` to `account`. If `account` had not been already granted `role`, emits a {RoleGranted} event. Requirements: - the caller must have ``role``'s admin role."
      },
      "hasRole(bytes32,address)": {
        "details": "Returns `true` if `account` has been granted `role`."
      },
      "renounceRole(bytes32,address)": {
        "details": "Revokes `role` from the calling account. Roles are often managed via {grantRole} and {revokeRole}: this function's purpose is to provide a mechanism for accounts to lose their privileges if they are compromised (such as when a trusted device is misplaced). If the calling account had been granted `role`, emits a {RoleRevoked} event. Requirements: - the caller must be `account`."
      },
      "revokeRole(bytes32,address)": {
        "details": "Revokes `role` from `account`. If `account` had been granted `role`, emits a {RoleRevoked} event. Requirements: - the caller must have ``role``'s admin role."
      },
      "supportsInterface(bytes4)": {
        "details": "See {IERC165-supportsInterface}."
      }
    },
    "version": 1
  },
  "userdoc": {
    "kind": "user",
    "methods": {},
    "version": 1
  }
}