{
  "contractName": "SoulHarvestDistributor",
  "abi": [
    {
      "anonymous": false,
      "inputs": [
        {
          "indexed": true,
          "internalType": "address",
          "name": "account",
          "type": "address"
        },
        {
          "indexed": true,
          "internalType": "uint256",
          "name": "pid",
          "type": "uint256"
        },
        {
          "indexed": false,
          "internalType": "uint256",
          "name": "deposited",
          "type": "uint256"
        },
        {
          "indexed": false,
          "internalType": "uint256",
          "name": "harvested",
          "type": "uint256"
        }
      ],
      "name": "DepositAdded",
      "type": "event"
    },
    {
      "anonymous": false,
      "inputs": [
        {
          "indexed": true,
          "internalType": "address",
          "name": "account",
          "type": "address"
        },
        {
          "indexed": true,
          "internalType": "uint256",
          "name": "pid",
          "type": "uint256"
        },
        {
          "indexed": false,
          "internalType": "uint256",
          "name": "harvested",
          "type": "uint256"
        }
      ],
      "name": "HarvestAdded",
      "type": "event"
    },
    {
      "anonymous": false,
      "inputs": [
        {
          "indexed": true,
          "internalType": "address",
          "name": "account",
          "type": "address"
        },
        {
          "indexed": true,
          "internalType": "uint256",
          "name": "pid",
          "type": "uint256"
        },
        {
          "indexed": false,
          "internalType": "uint256",
          "name": "harvested",
          "type": "uint256"
        }
      ],
      "name": "TransactionAdded",
      "type": "event"
    },
    {
      "anonymous": false,
      "inputs": [
        {
          "indexed": true,
          "internalType": "address",
          "name": "account",
          "type": "address"
        },
        {
          "indexed": true,
          "internalType": "uint256",
          "name": "pid",
          "type": "uint256"
        },
        {
          "indexed": false,
          "internalType": "uint256",
          "name": "withdrawn",
          "type": "uint256"
        },
        {
          "indexed": false,
          "internalType": "uint256",
          "name": "harvested",
          "type": "uint256"
        }
      ],
      "name": "WithdrawAdded",
      "type": "event"
    },
    {
      "anonymous": false,
      "inputs": [
        {
          "indexed": false,
          "internalType": "address",
          "name": "accountant",
          "type": "address"
        }
      ],
      "name": "newAccountant",
      "type": "event"
    },
    {
      "inputs": [],
      "name": "accountant",
      "outputs": [
        {
          "internalType": "address",
          "name": "",
          "type": "address"
        }
      ],
      "stateMutability": "view",
      "type": "function"
    },
    {
      "inputs": [],
      "name": "summoner",
      "outputs": [
        {
          "internalType": "contract ISummoner",
          "name": "",
          "type": "address"
        }
      ],
      "stateMutability": "view",
      "type": "function"
    },
    {
      "inputs": [
        {
          "internalType": "uint256",
          "name": "",
          "type": "uint256"
        },
        {
          "internalType": "address",
          "name": "",
          "type": "address"
        }
      ],
      "name": "userInfo",
      "outputs": [
        {
          "internalType": "uint256",
          "name": "amount",
          "type": "uint256"
        },
        {
          "internalType": "uint256",
          "name": "rewardDebt",
          "type": "uint256"
        }
      ],
      "stateMutability": "view",
      "type": "function"
    },
    {
      "inputs": [
        {
          "internalType": "uint256",
          "name": "pid",
          "type": "uint256"
        }
      ],
      "name": "stakedAmount",
      "outputs": [
        {
          "internalType": "uint256",
          "name": "bigStaked",
          "type": "uint256"
        },
        {
          "internalType": "uint256",
          "name": "staked",
          "type": "uint256"
        }
      ],
      "stateMutability": "view",
      "type": "function"
    },
    {
      "inputs": [
        {
          "internalType": "uint256",
          "name": "pid",
          "type": "uint256"
        },
        {
          "internalType": "address",
          "name": "account",
          "type": "address"
        }
      ],
      "name": "stakedAmount",
      "outputs": [
        {
          "internalType": "uint256",
          "name": "bigStaked",
          "type": "uint256"
        },
        {
          "internalType": "uint256",
          "name": "staked",
          "type": "uint256"
        }
      ],
      "stateMutability": "view",
      "type": "function"
    },
    {
      "inputs": [
        {
          "internalType": "uint256",
          "name": "pid",
          "type": "uint256"
        },
        {
          "internalType": "address",
          "name": "account",
          "type": "address"
        }
      ],
      "name": "rewardDebt",
      "outputs": [
        {
          "internalType": "uint256",
          "name": "bigDebt",
          "type": "uint256"
        },
        {
          "internalType": "uint256",
          "name": "debt",
          "type": "uint256"
        }
      ],
      "stateMutability": "view",
      "type": "function"
    },
    {
      "inputs": [
        {
          "internalType": "uint256",
          "name": "pid",
          "type": "uint256"
        }
      ],
      "name": "rewardDebt",
      "outputs": [
        {
          "internalType": "uint256",
          "name": "bigDebt",
          "type": "uint256"
        },
        {
          "internalType": "uint256",
          "name": "debt",
          "type": "uint256"
        }
      ],
      "stateMutability": "view",
      "type": "function"
    },
    {
      "inputs": [
        {
          "internalType": "uint256",
          "name": "pid",
          "type": "uint256"
        }
      ],
      "name": "pendingRewards",
      "outputs": [
        {
          "internalType": "uint256",
          "name": "bigPending",
          "type": "uint256"
        },
        {
          "internalType": "uint256",
          "name": "pending",
          "type": "uint256"
        }
      ],
      "stateMutability": "view",
      "type": "function"
    },
    {
      "inputs": [
        {
          "internalType": "uint256",
          "name": "pid",
          "type": "uint256"
        },
        {
          "internalType": "address",
          "name": "account",
          "type": "address"
        }
      ],
      "name": "pendingRewards",
      "outputs": [
        {
          "internalType": "uint256",
          "name": "bigPending",
          "type": "uint256"
        },
        {
          "internalType": "uint256",
          "name": "pending",
          "type": "uint256"
        }
      ],
      "stateMutability": "view",
      "type": "function"
    },
    {
      "inputs": [
        {
          "internalType": "bool",
          "name": "isDeposit",
          "type": "bool"
        },
        {
          "internalType": "uint256",
          "name": "pid",
          "type": "uint256"
        },
        {
          "internalType": "address",
          "name": "account",
          "type": "address"
        },
        {
          "internalType": "uint256",
          "name": "amount",
          "type": "uint256"
        },
        {
          "internalType": "uint256",
          "name": "harvested",
          "type": "uint256"
        }
      ],
      "name": "addTransaction",
      "outputs": [],
      "stateMutability": "nonpayable",
      "type": "function"
    },
    {
      "inputs": [
        {
          "internalType": "uint256",
          "name": "pid",
          "type": "uint256"
        },
        {
          "internalType": "address",
          "name": "account",
          "type": "address"
        },
        {
          "internalType": "uint256",
          "name": "deposited",
          "type": "uint256"
        },
        {
          "internalType": "uint256",
          "name": "harvested",
          "type": "uint256"
        }
      ],
      "name": "addDeposit",
      "outputs": [],
      "stateMutability": "nonpayable",
      "type": "function"
    },
    {
      "inputs": [
        {
          "internalType": "uint256",
          "name": "pid",
          "type": "uint256"
        },
        {
          "internalType": "address",
          "name": "account",
          "type": "address"
        },
        {
          "internalType": "uint256",
          "name": "withdrawn",
          "type": "uint256"
        },
        {
          "internalType": "uint256",
          "name": "harvested",
          "type": "uint256"
        }
      ],
      "name": "addWithdrawal",
      "outputs": [],
      "stateMutability": "nonpayable",
      "type": "function"
    },
    {
      "inputs": [
        {
          "internalType": "uint256",
          "name": "pid",
          "type": "uint256"
        },
        {
          "internalType": "address",
          "name": "account",
          "type": "address"
        },
        {
          "internalType": "uint256",
          "name": "harvested",
          "type": "uint256"
        }
      ],
      "name": "addHarvest",
      "outputs": [],
      "stateMutability": "nonpayable",
      "type": "function"
    },
    {
      "inputs": [
        {
          "internalType": "address",
          "name": "_accountant",
          "type": "address"
        }
      ],
      "name": "updateAccountant",
      "outputs": [],
      "stateMutability": "nonpayable",
      "type": "function"
    },
    {
      "inputs": [
        {
          "internalType": "uint256",
          "name": "bigAmount",
          "type": "uint256"
        }
      ],
      "name": "fromWei",
      "outputs": [
        {
          "internalType": "uint256",
          "name": "amount",
          "type": "uint256"
        }
      ],
      "stateMutability": "pure",
      "type": "function"
    },
    {
      "inputs": [
        {
          "internalType": "uint256",
          "name": "amount",
          "type": "uint256"
        }
      ],
      "name": "toWei",
      "outputs": [
        {
          "internalType": "uint256",
          "name": "bigAmount",
          "type": "uint256"
        }
      ],
      "stateMutability": "pure",
      "type": "function"
    }
  ],
  "bytecode": "0x608060405273ce6ccbb1edad497b4d53d829df491af70065ab5b6000806101000a81548173ffffffffffffffffffffffffffffffffffffffff021916908373ffffffffffffffffffffffffffffffffffffffff16021790555033600160006101000a81548173ffffffffffffffffffffffffffffffffffffffff021916908373ffffffffffffffffffffffffffffffffffffffff1602179055503480156100a557600080fd5b5061162c806100b56000396000f3fe608060405234801561001057600080fd5b50600436106101005760003560e01c8063b9e2a20711610097578063d7a5747211610066578063d7a57472146102e9578063dacaa9d114610305578063e65d152214610323578063f3371e9a1461035357610100565b8063b9e2a2071461024f578063c0b930da14610280578063d18df53c1461029c578063d49414a0146102cd57610100565b80636c222b17116100d35780636c222b17146101a05780637dcb2abf146101bc57806393f1a40b146101ed578063b85502a01461021e57610100565b80633714f467146101055780634fb3ccc5146101215780635a459ed41461013f578063669dafe814610170575b600080fd5b61011f600480360381019061011a91906110ef565b610384565b005b6101296104d8565b6040516101369190611312565b60405180910390f35b61015960048036038101906101549190611061565b6104fe565b6040516101679291906113cc565b60405180910390f35b61018a60048036038101906101859190611061565b6105d5565b6040516101979190611388565b60405180910390f35b6101ba60048036038101906101b59190610fc1565b6105f2565b005b6101d660048036038101906101d19190611061565b6106fd565b6040516101e49291906113cc565b60405180910390f35b610207600480360381019061020291906110b3565b6107bd565b6040516102159291906113cc565b60405180910390f35b610238600480360381019061023391906110b3565b6107ee565b6040516102469291906113cc565b60405180910390f35b610269600480360381019061026491906110b3565b6108c7565b6040516102779291906113cc565b60405180910390f35b61029a6004803603810190610295919061113e565b6109a1565b005b6102b660048036038101906102b191906110b3565b610af8565b6040516102c49291906113cc565b60405180910390f35b6102e760048036038101906102e29190610fea565b610bba565b005b61030360048036038101906102fe919061113e565b610cfd565b005b61030d610e54565b60405161031a919061132d565b60405180910390f35b61033d60048036038101906103389190611061565b610e78565b60405161034a9190611388565b60405180910390f35b61036d60048036038101906103689190611061565b610e95565b60405161037b9291906113cc565b60405180910390f35b600160009054906101000a900473ffffffffffffffffffffffffffffffffffffffff1673ffffffffffffffffffffffffffffffffffffffff163373ffffffffffffffffffffffffffffffffffffffff1614610414576040517f08c379a000000000000000000000000000000000000000000000000000000000815260040161040b90611348565b60405180910390fd5b60006002600085815260200190815260200160002060008473ffffffffffffffffffffffffffffffffffffffff1673ffffffffffffffffffffffffffffffffffffffff16815260200190815260200160002090508181600001600082825461047c9190611406565b92505081905550838373ffffffffffffffffffffffffffffffffffffffff167f191bdd1753131f689dd6a0af346459712296da4349b400f7ac90c56770b28401846040516104ca9190611388565b60405180910390a350505050565b600160009054906101000a900473ffffffffffffffffffffffffffffffffffffffff1681565b60008060008054906101000a900473ffffffffffffffffffffffffffffffffffffffff1673ffffffffffffffffffffffffffffffffffffffff166393f1a40b84336040518363ffffffff1660e01b815260040161055c9291906113a3565b60e06040518083038186803b15801561057457600080fd5b505afa158015610588573d6000803e3d6000fd5b505050506040513d601f19601f820116820180604052508101906105ac91906111a1565b909192939450909192935090919250909150905050809250506105ce82610e78565b9050915091565b6000670de0b6b3a7640000826105eb919061148d565b9050919050565b600160009054906101000a900473ffffffffffffffffffffffffffffffffffffffff1673ffffffffffffffffffffffffffffffffffffffff163373ffffffffffffffffffffffffffffffffffffffff1614610682576040517f08c379a000000000000000000000000000000000000000000000000000000000815260040161067990611368565b60405180910390fd5b80600160006101000a81548173ffffffffffffffffffffffffffffffffffffffff021916908373ffffffffffffffffffffffffffffffffffffffff1602179055507f80af1874c8cf1478f036d640900191ba53c7882d0ed1b952fbc5f63b6dd31444816040516106f29190611312565b60405180910390a150565b60008060008054906101000a900473ffffffffffffffffffffffffffffffffffffffff1673ffffffffffffffffffffffffffffffffffffffff1663bfafcad584336040518363ffffffff1660e01b815260040161075b9291906113a3565b60206040518083038186803b15801561077357600080fd5b505afa158015610787573d6000803e3d6000fd5b505050506040513d601f19601f820116820180604052508101906107ab919061108a565b91506107b682610e78565b9050915091565b6002602052816000526040600020602052806000526040600020600091509150508060000154908060010154905082565b60008060008054906101000a900473ffffffffffffffffffffffffffffffffffffffff1673ffffffffffffffffffffffffffffffffffffffff166393f1a40b85856040518363ffffffff1660e01b815260040161084c9291906113a3565b60e06040518083038186803b15801561086457600080fd5b505afa158015610878573d6000803e3d6000fd5b505050506040513d601f19601f8201168201806040525081019061089c91906111a1565b909192939450909192935090919250909150905050809250506108be82610e78565b90509250929050565b60008060008054906101000a900473ffffffffffffffffffffffffffffffffffffffff1673ffffffffffffffffffffffffffffffffffffffff166393f1a40b85856040518363ffffffff1660e01b81526004016109259291906113a3565b60e06040518083038186803b15801561093d57600080fd5b505afa158015610951573d6000803e3d6000fd5b505050506040513d601f19601f8201168201806040525081019061097591906111a1565b909192939495509091929350909192509091509050508092505061099882610e78565b90509250929050565b600160009054906101000a900473ffffffffffffffffffffffffffffffffffffffff1673ffffffffffffffffffffffffffffffffffffffff163373ffffffffffffffffffffffffffffffffffffffff1614610a31576040517f08c379a0000000000000000000000000000000000000000000000000000000008152600401610a2890611348565b60405180910390fd5b60006002600086815260200190815260200160002060008573ffffffffffffffffffffffffffffffffffffffff1673ffffffffffffffffffffffffffffffffffffffff168152602001908152602001600020905082816000016000828254610a999190611406565b92505081905550848473ffffffffffffffffffffffffffffffffffffffff167fb37ee076389d0e0226e28f5eb753578001087ab4722dc31f831f024efb41da6f8585604051610ae99291906113cc565b60405180910390a35050505050565b60008060008054906101000a900473ffffffffffffffffffffffffffffffffffffffff1673ffffffffffffffffffffffffffffffffffffffff1663bfafcad585856040518363ffffffff1660e01b8152600401610b569291906113a3565b60206040518083038186803b158015610b6e57600080fd5b505afa158015610b82573d6000803e3d6000fd5b505050506040513d601f19601f82011682018060405250810190610ba6919061108a565b9150610bb182610e78565b90509250929050565b600160009054906101000a900473ffffffffffffffffffffffffffffffffffffffff1673ffffffffffffffffffffffffffffffffffffffff163373ffffffffffffffffffffffffffffffffffffffff1614610c4a576040517f08c379a0000000000000000000000000000000000000000000000000000000008152600401610c4190611348565b60405180910390fd5b848015610c575750600082115b610c6b57610c66848483610384565b610c78565b610c77848484846109a1565b5b84158015610c865750600082115b610c9a57610c95848483610384565b610ca7565b610ca684848484610cfd565b5b838373ffffffffffffffffffffffffffffffffffffffff167f5c43e8c5f73190fa7963ac770d275404f5293c5b23be8fad05338417ea6071fd83604051610cee9190611388565b60405180910390a35050505050565b600160009054906101000a900473ffffffffffffffffffffffffffffffffffffffff1673ffffffffffffffffffffffffffffffffffffffff163373ffffffffffffffffffffffffffffffffffffffff1614610d8d576040517f08c379a0000000000000000000000000000000000000000000000000000000008152600401610d8490611348565b60405180910390fd5b60006002600086815260200190815260200160002060008573ffffffffffffffffffffffffffffffffffffffff1673ffffffffffffffffffffffffffffffffffffffff168152602001908152602001600020905082816000016000828254610df59190611406565b92505081905550848473ffffffffffffffffffffffffffffffffffffffff167feacabca1a41e6d0ae73ca044ae56ca67377e50c1a4a94d18d3eedffe8259a6b18585604051610e459291906113cc565b60405180910390a35050505050565b60008054906101000a900473ffffffffffffffffffffffffffffffffffffffff1681565b6000670de0b6b3a764000082610e8e919061145c565b9050919050565b60008060008054906101000a900473ffffffffffffffffffffffffffffffffffffffff1673ffffffffffffffffffffffffffffffffffffffff166393f1a40b84336040518363ffffffff1660e01b8152600401610ef39291906113a3565b60e06040518083038186803b158015610f0b57600080fd5b505afa158015610f1f573d6000803e3d6000fd5b505050506040513d601f19601f82011682018060405250810190610f4391906111a1565b9091929394955090919293509091925090915090505080925050610f6682610e78565b9050915091565b600081359050610f7c816115b1565b92915050565b600081359050610f91816115c8565b92915050565b600081359050610fa6816115df565b92915050565b600081519050610fbb816115df565b92915050565b600060208284031215610fd357600080fd5b6000610fe184828501610f6d565b91505092915050565b600080600080600060a0868803121561100257600080fd5b600061101088828901610f82565b955050602061102188828901610f97565b945050604061103288828901610f6d565b935050606061104388828901610f97565b925050608061105488828901610f97565b9150509295509295909350565b60006020828403121561107357600080fd5b600061108184828501610f97565b91505092915050565b60006020828403121561109c57600080fd5b60006110aa84828501610fac565b91505092915050565b600080604083850312156110c657600080fd5b60006110d485828601610f97565b92505060206110e585828601610f6d565b9150509250929050565b60008060006060848603121561110457600080fd5b600061111286828701610f97565b935050602061112386828701610f6d565b925050604061113486828701610f97565b9150509250925092565b6000806000806080858703121561115457600080fd5b600061116287828801610f97565b945050602061117387828801610f6d565b935050604061118487828801610f97565b925050606061119587828801610f97565b91505092959194509250565b600080600080600080600060e0888a0312156111bc57600080fd5b60006111ca8a828b01610fac565b97505060206111db8a828b01610fac565b96505060406111ec8a828b01610fac565b95505060606111fd8a828b01610fac565b945050608061120e8a828b01610fac565b93505060a061121f8a828b01610fac565b92505060c06112308a828b01610fac565b91505092959891949750929550565b611248816114e7565b82525050565b6112578161152f565b82525050565b600061126a6025836113f5565b91507f6f6e6c7920746865206163636f756e74616e74206d617920757064617465206c60008301527f65646765720000000000000000000000000000000000000000000000000000006020830152604082019050919050565b60006112d0601a836113f5565b91507f6f6e6c79206163636f756e74616e74206d6179207570646174650000000000006000830152602082019050919050565b61130c81611525565b82525050565b6000602082019050611327600083018461123f565b92915050565b6000602082019050611342600083018461124e565b92915050565b600060208201905081810360008301526113618161125d565b9050919050565b60006020820190508181036000830152611381816112c3565b9050919050565b600060208201905061139d6000830184611303565b92915050565b60006040820190506113b86000830185611303565b6113c5602083018461123f565b9392505050565b60006040820190506113e16000830185611303565b6113ee6020830184611303565b9392505050565b600082825260208201905092915050565b600061141182611525565b915061141c83611525565b9250827fffffffffffffffffffffffffffffffffffffffffffffffffffffffffffffffff0382111561145157611450611553565b5b828201905092915050565b600061146782611525565b915061147283611525565b92508261148257611481611582565b5b828204905092915050565b600061149882611525565b91506114a383611525565b9250817fffffffffffffffffffffffffffffffffffffffffffffffffffffffffffffffff04831182151516156114dc576114db611553565b5b828202905092915050565b60006114f282611505565b9050919050565b60008115159050919050565b600073ffffffffffffffffffffffffffffffffffffffff82169050919050565b6000819050919050565b600061153a82611541565b9050919050565b600061154c82611505565b9050919050565b7f4e487b7100000000000000000000000000000000000000000000000000000000600052601160045260246000fd5b7f4e487b7100000000000000000000000000000000000000000000000000000000600052601260045260246000fd5b6115ba816114e7565b81146115c557600080fd5b50565b6115d1816114f9565b81146115dc57600080fd5b50565b6115e881611525565b81146115f357600080fd5b5056fea2646970667358221220baee9aabb344d32bcd2bfc7f27992dcfd91471afbccb6a59156485f0b7fa0be364736f6c63430008000033",
  "immutableReferences": {},
  "source": "// SPDX-License-Identifier: MIT\n\nimport '../interfaces/ISummoner.sol';\n\npragma solidity ^0.8.0;\n\ncontract SoulHarvestDistributor {\n\n    ISummoner public summoner = ISummoner(0xce6ccbB1EdAD497B4d53d829DF491aF70065AB5B);\n    address public accountant = msg.sender;\n\n    mapping (uint => mapping (address => Users)) public userInfo; // staker data\n\n\n    // user info\n    struct Users {\n        uint amount;           // total tokens user has provided.\n        uint rewardDebt;       // reward debt (see below).\n        //   pending reward = (user.amount * pool.accSoulPerShare) - user.rewardDebt\n\n        // the following occurs when a user +/- tokens to a pool:\n        //   1. pool: `accSoulPerShare` and `lastRewardTime` update.\n        //   2. user: receives pending reward.\n        //   3. user: `amount` updates(+/-).\n        //   4. user: `rewardDebt` updates (+/-).\n    }\n\n    event TransactionAdded(address indexed account, uint indexed pid, uint harvested);\n    event DepositAdded(address indexed account, uint indexed pid, uint deposited, uint harvested);\n    event WithdrawAdded(address indexed account, uint indexed pid, uint withdrawn, uint harvested);\n    event HarvestAdded(address indexed account, uint indexed pid, uint harvested);\n    event newAccountant(address accountant);\n    \n    function stakedAmount(uint pid) public view returns (uint bigStaked, uint staked) {\n       (bigStaked,,,,,,) = summoner.userInfo(pid, msg.sender);\n       staked = fromWei(bigStaked);\n\n       return (bigStaked, staked);\n    }\n\n    function stakedAmount(uint pid, address account) public view returns (uint bigStaked, uint staked) {\n        (bigStaked,,,,,,) = summoner.userInfo(pid, account);\n        staked = fromWei(bigStaked);\n\n        return (bigStaked, staked);\n\n    }\n\n    function rewardDebt(uint pid) public view returns (uint bigDebt, uint debt) {\n       (,bigDebt,,,,,) = summoner.userInfo(pid, msg.sender);\n        debt = fromWei(bigDebt);\n\n        return (bigDebt, debt);    \n    }\n\n    function rewardDebt(uint pid, address account) public view returns (uint bigDebt, uint debt) {\n       (,bigDebt,,,,,) = summoner.userInfo(pid, account);\n       debt = fromWei(bigDebt);\n\n        return (bigDebt, debt); \n    }\n\n    function pendingRewards(uint pid) public view returns (uint bigPending, uint pending) {\n       bigPending = summoner.pendingSoul(pid, msg.sender);\n       pending = fromWei(bigPending);\n\n       return (bigPending, pending);\n    }\n\n    function pendingRewards(uint pid, address account) public view returns (uint bigPending, uint pending) {\n        bigPending = summoner.pendingSoul(pid, account);\n        pending = fromWei(bigPending);\n\n       return (bigPending, pending);\n    }\n\n    // update user's ledger with a reported transaction\n    function addTransaction(bool isDeposit, uint pid, address account, uint amount, uint harvested) public {\n        require(msg.sender == accountant, 'only the accountant may update ledger');\n        \n        // case: tokens deposited, else harvested only.\n        isDeposit && amount > 0\n            ? addDeposit(pid, account, amount, harvested)\n            : addHarvest(pid, account, harvested);\n\n        // case: tokens withdrawn, else harvested only. \n        !isDeposit && amount > 0\n            ? addWithdrawal(pid, account, amount, harvested)\n            : addHarvest(pid, account, harvested);\n        \n        emit TransactionAdded(account, pid, harvested);\n    }\n\n    // update user's balance with a reported deposit\n    function addDeposit(uint pid, address account, uint deposited, uint harvested) public {\n        require(msg.sender == accountant, 'only the accountant may update ledger');\n        \n        Users storage user = userInfo[pid][account];\n        user.amount += deposited;\n\n        emit DepositAdded(account, pid, deposited, harvested);\n    }\n\n    // update user's balance with a reported withdrawal\n    function addWithdrawal(uint pid, address account, uint withdrawn, uint harvested) public {\n        require(msg.sender == accountant, 'only the accountant may update ledger');\n        \n        Users storage user = userInfo[pid][account];\n        user.amount += withdrawn;\n\n        emit WithdrawAdded(account, pid, withdrawn, harvested);\n    }\n\n    // update user's balance with a manually-added deposit\n    function addHarvest(uint pid, address account, uint harvested) public {\n        require(msg.sender == accountant, 'only the accountant may update ledger');\n        \n        Users storage user = userInfo[pid][account];\n        user.amount += harvested;\n\n        emit HarvestAdded(account, pid, harvested);\n    }\n\n    function updateAccountant(address _accountant) public {\n        require(msg.sender == accountant, 'only accountant may update');\n        \n        accountant = _accountant;\n\n        emit newAccountant(_accountant);\n    }\n\n    function fromWei(uint bigAmount) public pure returns(uint amount) {\n        return bigAmount / 1E18;\n    }\n\n    function toWei(uint amount) public pure returns(uint bigAmount) {\n        return amount * 1E18;\n    }\n}\n",
  "sourcePath": "/Users/buns/Documents/GitHub/SoulSwapFinance/soulswap-farms/contracts/helpers/SoulHarvestDistributor.sol",
  "compiler": {
    "name": "solc",
    "version": "0.8.0+commit.c7dfd78e.Emscripten.clang"
  },
  "schemaVersion": "3.4.1",
  "updatedAt": "2022-09-18T14:11:59.198Z",
  "devdoc": {
    "kind": "dev",
    "methods": {},
    "version": 1
  },
  "userdoc": {
    "kind": "user",
    "methods": {},
    "version": 1
  }
}