{
  "contractName": "SoulPowerMulti",
  "abi": [
    {
      "inputs": [],
      "stateMutability": "nonpayable",
      "type": "constructor"
    },
    {
      "anonymous": false,
      "inputs": [
        {
          "indexed": true,
          "internalType": "address",
          "name": "owner",
          "type": "address"
        },
        {
          "indexed": true,
          "internalType": "address",
          "name": "spender",
          "type": "address"
        },
        {
          "indexed": false,
          "internalType": "uint256",
          "name": "value",
          "type": "uint256"
        }
      ],
      "name": "Approval",
      "type": "event"
    },
    {
      "anonymous": false,
      "inputs": [
        {
          "indexed": true,
          "internalType": "address",
          "name": "oldOwner",
          "type": "address"
        },
        {
          "indexed": true,
          "internalType": "address",
          "name": "newOwner",
          "type": "address"
        },
        {
          "indexed": true,
          "internalType": "uint256",
          "name": "effectiveTime",
          "type": "uint256"
        }
      ],
      "name": "LogChangeDCRMOwner",
      "type": "event"
    },
    {
      "anonymous": false,
      "inputs": [
        {
          "indexed": true,
          "internalType": "bytes32",
          "name": "txhash",
          "type": "bytes32"
        },
        {
          "indexed": true,
          "internalType": "address",
          "name": "account",
          "type": "address"
        },
        {
          "indexed": false,
          "internalType": "uint256",
          "name": "amount",
          "type": "uint256"
        }
      ],
      "name": "LogSwapin",
      "type": "event"
    },
    {
      "anonymous": false,
      "inputs": [
        {
          "indexed": true,
          "internalType": "address",
          "name": "account",
          "type": "address"
        },
        {
          "indexed": true,
          "internalType": "address",
          "name": "bindaddr",
          "type": "address"
        },
        {
          "indexed": false,
          "internalType": "uint256",
          "name": "amount",
          "type": "uint256"
        }
      ],
      "name": "LogSwapout",
      "type": "event"
    },
    {
      "anonymous": false,
      "inputs": [
        {
          "indexed": false,
          "internalType": "address",
          "name": "supreme",
          "type": "address"
        }
      ],
      "name": "NewSupreme",
      "type": "event"
    },
    {
      "anonymous": false,
      "inputs": [
        {
          "indexed": false,
          "internalType": "bytes32",
          "name": "role",
          "type": "bytes32"
        },
        {
          "indexed": false,
          "internalType": "address",
          "name": "oldAccount",
          "type": "address"
        },
        {
          "indexed": false,
          "internalType": "address",
          "name": "newAccount",
          "type": "address"
        }
      ],
      "name": "Rethroned",
      "type": "event"
    },
    {
      "anonymous": false,
      "inputs": [
        {
          "indexed": true,
          "internalType": "bytes32",
          "name": "role",
          "type": "bytes32"
        },
        {
          "indexed": true,
          "internalType": "bytes32",
          "name": "previousAdminRole",
          "type": "bytes32"
        },
        {
          "indexed": true,
          "internalType": "bytes32",
          "name": "newAdminRole",
          "type": "bytes32"
        }
      ],
      "name": "RoleAdminChanged",
      "type": "event"
    },
    {
      "anonymous": false,
      "inputs": [
        {
          "indexed": true,
          "internalType": "bytes32",
          "name": "role",
          "type": "bytes32"
        },
        {
          "indexed": true,
          "internalType": "address",
          "name": "account",
          "type": "address"
        },
        {
          "indexed": true,
          "internalType": "address",
          "name": "sender",
          "type": "address"
        }
      ],
      "name": "RoleGranted",
      "type": "event"
    },
    {
      "anonymous": false,
      "inputs": [
        {
          "indexed": true,
          "internalType": "bytes32",
          "name": "role",
          "type": "bytes32"
        },
        {
          "indexed": true,
          "internalType": "address",
          "name": "account",
          "type": "address"
        },
        {
          "indexed": true,
          "internalType": "address",
          "name": "sender",
          "type": "address"
        }
      ],
      "name": "RoleRevoked",
      "type": "event"
    },
    {
      "anonymous": false,
      "inputs": [
        {
          "indexed": true,
          "internalType": "address",
          "name": "from",
          "type": "address"
        },
        {
          "indexed": true,
          "internalType": "address",
          "name": "to",
          "type": "address"
        },
        {
          "indexed": false,
          "internalType": "uint256",
          "name": "value",
          "type": "uint256"
        }
      ],
      "name": "Transfer",
      "type": "event"
    },
    {
      "inputs": [],
      "name": "DEFAULT_ADMIN_ROLE",
      "outputs": [
        {
          "internalType": "bytes32",
          "name": "",
          "type": "bytes32"
        }
      ],
      "stateMutability": "view",
      "type": "function"
    },
    {
      "inputs": [],
      "name": "DOMAIN_SEPARATOR",
      "outputs": [
        {
          "internalType": "bytes32",
          "name": "",
          "type": "bytes32"
        }
      ],
      "stateMutability": "view",
      "type": "function"
    },
    {
      "inputs": [],
      "name": "PERMIT_TYPEHASH",
      "outputs": [
        {
          "internalType": "bytes32",
          "name": "",
          "type": "bytes32"
        }
      ],
      "stateMutability": "view",
      "type": "function"
    },
    {
      "inputs": [],
      "name": "TRANSFER_TYPEHASH",
      "outputs": [
        {
          "internalType": "bytes32",
          "name": "",
          "type": "bytes32"
        }
      ],
      "stateMutability": "view",
      "type": "function"
    },
    {
      "inputs": [
        {
          "internalType": "address",
          "name": "",
          "type": "address"
        },
        {
          "internalType": "address",
          "name": "",
          "type": "address"
        }
      ],
      "name": "allowance",
      "outputs": [
        {
          "internalType": "uint256",
          "name": "",
          "type": "uint256"
        }
      ],
      "stateMutability": "view",
      "type": "function"
    },
    {
      "inputs": [],
      "name": "anunnaki",
      "outputs": [
        {
          "internalType": "bytes32",
          "name": "",
          "type": "bytes32"
        }
      ],
      "stateMutability": "view",
      "type": "function"
    },
    {
      "inputs": [
        {
          "internalType": "address",
          "name": "",
          "type": "address"
        }
      ],
      "name": "balanceOf",
      "outputs": [
        {
          "internalType": "uint256",
          "name": "",
          "type": "uint256"
        }
      ],
      "stateMutability": "view",
      "type": "function"
    },
    {
      "inputs": [],
      "name": "decimals",
      "outputs": [
        {
          "internalType": "uint8",
          "name": "",
          "type": "uint8"
        }
      ],
      "stateMutability": "view",
      "type": "function"
    },
    {
      "inputs": [
        {
          "internalType": "bytes32",
          "name": "role",
          "type": "bytes32"
        }
      ],
      "name": "getRoleAdmin",
      "outputs": [
        {
          "internalType": "bytes32",
          "name": "",
          "type": "bytes32"
        }
      ],
      "stateMutability": "view",
      "type": "function"
    },
    {
      "inputs": [
        {
          "internalType": "bytes32",
          "name": "role",
          "type": "bytes32"
        },
        {
          "internalType": "address",
          "name": "account",
          "type": "address"
        }
      ],
      "name": "grantRole",
      "outputs": [],
      "stateMutability": "nonpayable",
      "type": "function"
    },
    {
      "inputs": [
        {
          "internalType": "bytes32",
          "name": "role",
          "type": "bytes32"
        },
        {
          "internalType": "address",
          "name": "account",
          "type": "address"
        }
      ],
      "name": "hasRole",
      "outputs": [
        {
          "internalType": "bool",
          "name": "",
          "type": "bool"
        }
      ],
      "stateMutability": "view",
      "type": "function"
    },
    {
      "inputs": [],
      "name": "name",
      "outputs": [
        {
          "internalType": "string",
          "name": "",
          "type": "string"
        }
      ],
      "stateMutability": "view",
      "type": "function"
    },
    {
      "inputs": [
        {
          "internalType": "address",
          "name": "",
          "type": "address"
        }
      ],
      "name": "nonces",
      "outputs": [
        {
          "internalType": "uint256",
          "name": "",
          "type": "uint256"
        }
      ],
      "stateMutability": "view",
      "type": "function"
    },
    {
      "inputs": [
        {
          "internalType": "bytes32",
          "name": "role",
          "type": "bytes32"
        },
        {
          "internalType": "address",
          "name": "account",
          "type": "address"
        }
      ],
      "name": "renounceRole",
      "outputs": [],
      "stateMutability": "nonpayable",
      "type": "function"
    },
    {
      "inputs": [
        {
          "internalType": "bytes32",
          "name": "role",
          "type": "bytes32"
        },
        {
          "internalType": "address",
          "name": "account",
          "type": "address"
        }
      ],
      "name": "revokeRole",
      "outputs": [],
      "stateMutability": "nonpayable",
      "type": "function"
    },
    {
      "inputs": [],
      "name": "sophia",
      "outputs": [
        {
          "internalType": "bytes32",
          "name": "",
          "type": "bytes32"
        }
      ],
      "stateMutability": "view",
      "type": "function"
    },
    {
      "inputs": [
        {
          "internalType": "bytes4",
          "name": "interfaceId",
          "type": "bytes4"
        }
      ],
      "name": "supportsInterface",
      "outputs": [
        {
          "internalType": "bool",
          "name": "",
          "type": "bool"
        }
      ],
      "stateMutability": "view",
      "type": "function"
    },
    {
      "inputs": [],
      "name": "supreme",
      "outputs": [
        {
          "internalType": "address",
          "name": "",
          "type": "address"
        }
      ],
      "stateMutability": "view",
      "type": "function"
    },
    {
      "inputs": [],
      "name": "symbol",
      "outputs": [
        {
          "internalType": "string",
          "name": "",
          "type": "string"
        }
      ],
      "stateMutability": "view",
      "type": "function"
    },
    {
      "inputs": [],
      "name": "thoth",
      "outputs": [
        {
          "internalType": "bytes32",
          "name": "",
          "type": "bytes32"
        }
      ],
      "stateMutability": "view",
      "type": "function"
    },
    {
      "inputs": [],
      "name": "underlying",
      "outputs": [
        {
          "internalType": "address",
          "name": "",
          "type": "address"
        }
      ],
      "stateMutability": "view",
      "type": "function"
    },
    {
      "inputs": [],
      "name": "owner",
      "outputs": [
        {
          "internalType": "address",
          "name": "",
          "type": "address"
        }
      ],
      "stateMutability": "view",
      "type": "function"
    },
    {
      "inputs": [
        {
          "internalType": "bytes32",
          "name": "role",
          "type": "bytes32"
        },
        {
          "internalType": "address",
          "name": "oldAccount",
          "type": "address"
        },
        {
          "internalType": "address",
          "name": "newAccount",
          "type": "address"
        }
      ],
      "name": "rethroneRitual",
      "outputs": [],
      "stateMutability": "nonpayable",
      "type": "function"
    },
    {
      "inputs": [
        {
          "internalType": "address",
          "name": "_supreme",
          "type": "address"
        }
      ],
      "name": "newSupreme",
      "outputs": [],
      "stateMutability": "nonpayable",
      "type": "function"
    },
    {
      "inputs": [
        {
          "internalType": "bytes32",
          "name": "role",
          "type": "bytes32"
        }
      ],
      "name": "hasDivineRole",
      "outputs": [
        {
          "internalType": "bool",
          "name": "",
          "type": "bool"
        }
      ],
      "stateMutability": "view",
      "type": "function"
    },
    {
      "inputs": [],
      "name": "totalSupply",
      "outputs": [
        {
          "internalType": "uint256",
          "name": "",
          "type": "uint256"
        }
      ],
      "stateMutability": "view",
      "type": "function"
    },
    {
      "inputs": [
        {
          "internalType": "address",
          "name": "newOwner",
          "type": "address"
        }
      ],
      "name": "changeDCRMOwner",
      "outputs": [
        {
          "internalType": "bool",
          "name": "",
          "type": "bool"
        }
      ],
      "stateMutability": "nonpayable",
      "type": "function"
    },
    {
      "inputs": [
        {
          "internalType": "bytes32",
          "name": "txhash",
          "type": "bytes32"
        },
        {
          "internalType": "address",
          "name": "account",
          "type": "address"
        },
        {
          "internalType": "uint256",
          "name": "amount",
          "type": "uint256"
        }
      ],
      "name": "Swapin",
      "outputs": [
        {
          "internalType": "bool",
          "name": "",
          "type": "bool"
        }
      ],
      "stateMutability": "nonpayable",
      "type": "function"
    },
    {
      "inputs": [
        {
          "internalType": "uint256",
          "name": "amount",
          "type": "uint256"
        },
        {
          "internalType": "address",
          "name": "bindaddr",
          "type": "address"
        }
      ],
      "name": "Swapout",
      "outputs": [
        {
          "internalType": "bool",
          "name": "",
          "type": "bool"
        }
      ],
      "stateMutability": "nonpayable",
      "type": "function"
    },
    {
      "inputs": [
        {
          "internalType": "address",
          "name": "_to",
          "type": "address"
        },
        {
          "internalType": "uint256",
          "name": "_amount",
          "type": "uint256"
        }
      ],
      "name": "mint",
      "outputs": [
        {
          "internalType": "bool",
          "name": "",
          "type": "bool"
        }
      ],
      "stateMutability": "nonpayable",
      "type": "function"
    },
    {
      "inputs": [
        {
          "internalType": "uint256",
          "name": "amount",
          "type": "uint256"
        }
      ],
      "name": "burn",
      "outputs": [
        {
          "internalType": "bool",
          "name": "",
          "type": "bool"
        }
      ],
      "stateMutability": "nonpayable",
      "type": "function"
    },
    {
      "inputs": [
        {
          "internalType": "address",
          "name": "from",
          "type": "address"
        },
        {
          "internalType": "uint256",
          "name": "amount",
          "type": "uint256"
        }
      ],
      "name": "burn",
      "outputs": [
        {
          "internalType": "bool",
          "name": "",
          "type": "bool"
        }
      ],
      "stateMutability": "nonpayable",
      "type": "function"
    },
    {
      "inputs": [
        {
          "internalType": "address",
          "name": "spender",
          "type": "address"
        },
        {
          "internalType": "uint256",
          "name": "value",
          "type": "uint256"
        }
      ],
      "name": "approve",
      "outputs": [
        {
          "internalType": "bool",
          "name": "",
          "type": "bool"
        }
      ],
      "stateMutability": "nonpayable",
      "type": "function"
    },
    {
      "inputs": [
        {
          "internalType": "address",
          "name": "account",
          "type": "address"
        },
        {
          "internalType": "uint256",
          "name": "amount",
          "type": "uint256"
        }
      ],
      "name": "burnFrom",
      "outputs": [],
      "stateMutability": "nonpayable",
      "type": "function"
    },
    {
      "inputs": [
        {
          "internalType": "address",
          "name": "spender",
          "type": "address"
        },
        {
          "internalType": "uint256",
          "name": "value",
          "type": "uint256"
        },
        {
          "internalType": "bytes",
          "name": "data",
          "type": "bytes"
        }
      ],
      "name": "approveAndCall",
      "outputs": [
        {
          "internalType": "bool",
          "name": "",
          "type": "bool"
        }
      ],
      "stateMutability": "nonpayable",
      "type": "function"
    },
    {
      "inputs": [
        {
          "internalType": "address",
          "name": "target",
          "type": "address"
        },
        {
          "internalType": "address",
          "name": "spender",
          "type": "address"
        },
        {
          "internalType": "uint256",
          "name": "value",
          "type": "uint256"
        },
        {
          "internalType": "uint256",
          "name": "deadline",
          "type": "uint256"
        },
        {
          "internalType": "uint8",
          "name": "v",
          "type": "uint8"
        },
        {
          "internalType": "bytes32",
          "name": "r",
          "type": "bytes32"
        },
        {
          "internalType": "bytes32",
          "name": "s",
          "type": "bytes32"
        }
      ],
      "name": "permit",
      "outputs": [],
      "stateMutability": "nonpayable",
      "type": "function"
    },
    {
      "inputs": [
        {
          "internalType": "address",
          "name": "target",
          "type": "address"
        },
        {
          "internalType": "address",
          "name": "to",
          "type": "address"
        },
        {
          "internalType": "uint256",
          "name": "value",
          "type": "uint256"
        },
        {
          "internalType": "uint256",
          "name": "deadline",
          "type": "uint256"
        },
        {
          "internalType": "uint8",
          "name": "v",
          "type": "uint8"
        },
        {
          "internalType": "bytes32",
          "name": "r",
          "type": "bytes32"
        },
        {
          "internalType": "bytes32",
          "name": "s",
          "type": "bytes32"
        }
      ],
      "name": "transferWithPermit",
      "outputs": [
        {
          "internalType": "bool",
          "name": "",
          "type": "bool"
        }
      ],
      "stateMutability": "nonpayable",
      "type": "function"
    },
    {
      "inputs": [
        {
          "internalType": "address",
          "name": "to",
          "type": "address"
        },
        {
          "internalType": "uint256",
          "name": "value",
          "type": "uint256"
        }
      ],
      "name": "transfer",
      "outputs": [
        {
          "internalType": "bool",
          "name": "",
          "type": "bool"
        }
      ],
      "stateMutability": "nonpayable",
      "type": "function"
    },
    {
      "inputs": [
        {
          "internalType": "address",
          "name": "from",
          "type": "address"
        },
        {
          "internalType": "address",
          "name": "to",
          "type": "address"
        },
        {
          "internalType": "uint256",
          "name": "value",
          "type": "uint256"
        }
      ],
      "name": "transferFrom",
      "outputs": [
        {
          "internalType": "bool",
          "name": "",
          "type": "bool"
        }
      ],
      "stateMutability": "nonpayable",
      "type": "function"
    },
    {
      "inputs": [
        {
          "internalType": "address",
          "name": "to",
          "type": "address"
        },
        {
          "internalType": "uint256",
          "name": "value",
          "type": "uint256"
        },
        {
          "internalType": "bytes",
          "name": "data",
          "type": "bytes"
        }
      ],
      "name": "transferAndCall",
      "outputs": [
        {
          "internalType": "bool",
          "name": "",
          "type": "bool"
        }
      ],
      "stateMutability": "nonpayable",
      "type": "function"
    }
  ],
  "bytecode": "0x60e0604052600073ffffffffffffffffffffffffffffffffffffffff1660c09073ffffffffffffffffffffffffffffffffffffffff1660601b8152503480156200004857600080fd5b506040518060400160405280600981526020017f536f756c506f7765720000000000000000000000000000000000000000000000815250600190805190602001906200009692919062000747565b506040518060400160405280600481526020017f534f554c0000000000000000000000000000000000000000000000000000000081525060029080519060200190620000e492919062000747565b50601260ff1660808160ff1660f81b8152505033600660006101000a81548173ffffffffffffffffffffffffffffffffffffffff021916908373ffffffffffffffffffffffffffffffffffffffff1602179055504260078190555033600860006101000a81548173ffffffffffffffffffffffffffffffffffffffff021916908373ffffffffffffffffffffffffffffffffffffffff1602179055507f45552d869603260d0572333b5da740bb4eaf623685d53936ee462b64a9a771826009819055507fdffb0b033b8033405f5fb07b08f48c89fa1b4a3d5d5a475c3e2b8df5fbd4da0d600a819055507f43454ffed9974b83651b569812bcb36a5616213b94bdd673556166e9ac7d1796600b81905550620002306000801b6000801b600860009054906101000a900473ffffffffffffffffffffffffffffffffffffffff16620003d160201b60201c565b62000269600954600954600860009054906101000a900473ffffffffffffffffffffffffffffffffffffffff16620003d160201b60201c565b620002a2600a54600954600860009054906101000a900473ffffffffffffffffffffffffffffffffffffffff16620003d160201b60201c565b620002db600b54600954600860009054906101000a900473ffffffffffffffffffffffffffffffffffffffff16620003d160201b60201c565b62000319600860009054906101000a900473ffffffffffffffffffffffffffffffffffffffff16690472698b413b43200000620003fa60201b60201c565b60004690507f4771e259cc52e342be37df42506473f4042cb91fdf5c67782c2c45ed51b98beb60016040516200035091906200091d565b60405180910390206040518060400160405280600181526020017f3100000000000000000000000000000000000000000000000000000000000000815250805190602001208330604051602001620003ad95949392919062000936565b6040516020818303038152906040528051906020012060a081815250505062000b3c565b620003e383826200054c60201b60201c565b620003f583836200056260201b60201c565b505050565b600073ffffffffffffffffffffffffffffffffffffffff168273ffffffffffffffffffffffffffffffffffffffff1614156200046d576040517f08c379a0000000000000000000000000000000000000000000000000000000008152600401620004649062000993565b60405180910390fd5b806004600082825462000481919062000a03565b9250508190555080600360008473ffffffffffffffffffffffffffffffffffffffff1673ffffffffffffffffffffffffffffffffffffffff1681526020019081526020016000206000828254620004d9919062000a03565b925050819055508173ffffffffffffffffffffffffffffffffffffffff16600073ffffffffffffffffffffffffffffffffffffffff167fddf252ad1be2c89b69c2b068fc378daa952ba7f163c4a11628f55a4df523b3ef83604051620005409190620009b5565b60405180910390a35050565b6200055e8282620005c560201b60201c565b5050565b60006200057583620006b660201b60201c565b905081600080858152602001908152602001600020600101819055508181847fbd79b86ffe0ab8e8776151514217cd7cacd52c909f66475c3af44e129f0b00ff60405160405180910390a4505050565b620005d78282620006d560201b60201c565b620006b257600160008084815260200190815260200160002060000160008373ffffffffffffffffffffffffffffffffffffffff1673ffffffffffffffffffffffffffffffffffffffff16815260200190815260200160002060006101000a81548160ff021916908315150217905550620006576200073f60201b60201c565b73ffffffffffffffffffffffffffffffffffffffff168173ffffffffffffffffffffffffffffffffffffffff16837f2f8788117e7eff1d82e926ec794901d17c78024a50270940304540a733656f0d60405160405180910390a45b5050565b6000806000838152602001908152602001600020600101549050919050565b600080600084815260200190815260200160002060000160008373ffffffffffffffffffffffffffffffffffffffff1673ffffffffffffffffffffffffffffffffffffffff16815260200190815260200160002060009054906101000a900460ff16905092915050565b600033905090565b828054620007559062000aa8565b90600052602060002090601f016020900481019282620007795760008555620007c5565b82601f106200079457805160ff1916838001178555620007c5565b82800160010185558215620007c5579182015b82811115620007c4578251825591602001919060010190620007a7565b5b509050620007d49190620007d8565b5090565b5b80821115620007f3576000816000905550600101620007d9565b5090565b620008028162000a60565b82525050565b620008138162000a74565b82525050565b60008154620008288162000aa8565b620008348186620009e7565b9450600182166000811462000852576001811462000864576200089b565b60ff198316865281860193506200089b565b6200086f85620009d2565b60005b83811015620008935781548189015260018201915060208101905062000872565b838801955050505b50505092915050565b6000620008b3602283620009f2565b91507f5f6d696e74696e6720746f20746865207a65726f20616464726573732028307860008301527f30290000000000000000000000000000000000000000000000000000000000006020830152604082019050919050565b620009178162000a9e565b82525050565b60006200092b828462000819565b915081905092915050565b600060a0820190506200094d600083018862000808565b6200095c602083018762000808565b6200096b604083018662000808565b6200097a60608301856200090c565b620009896080830184620007f7565b9695505050505050565b60006020820190508181036000830152620009ae81620008a4565b9050919050565b6000602082019050620009cc60008301846200090c565b92915050565b60008190508160005260206000209050919050565b600081905092915050565b600082825260208201905092915050565b600062000a108262000a9e565b915062000a1d8362000a9e565b9250827fffffffffffffffffffffffffffffffffffffffffffffffffffffffffffffffff0382111562000a555762000a5462000ade565b5b828201905092915050565b600062000a6d8262000a7e565b9050919050565b6000819050919050565b600073ffffffffffffffffffffffffffffffffffffffff82169050919050565b6000819050919050565b6000600282049050600182168062000ac157607f821691505b6020821081141562000ad85762000ad762000b0d565b5b50919050565b7f4e487b7100000000000000000000000000000000000000000000000000000000600052601160045260246000fd5b7f4e487b7100000000000000000000000000000000000000000000000000000000600052602260045260246000fd5b60805160f81c60a05160c05160601c61427a62000b796000396000611707015260008181610f2b0152612aac01526000610f07015261427a6000f3fe608060405234801561001057600080fd5b50600436106102475760003560e01c806370a082311161013b578063a217fddf116100b8578063d505accf1161007c578063d505accf1461077c578063d547741f14610798578063dbaef9b0146107b4578063dd62ed3e146107e4578063ec126c771461081457610247565b8063a217fddf146106b0578063a6ed77ee146106ce578063a9059cbb146106ec578063b524f3a51461071c578063cae9ca511461074c57610247565b80638da5cb5b116100ff5780638da5cb5b146105f857806391d148541461061657806395d89b41146106465780639aeb3727146106645780639dc29fac1461068057610247565b806370a0823114610542578063743d507c1461057257806379cc67901461058e5780637ecebe00146105aa57806383ff5c04146105da57610247565b8063313ce567116101c957806342966c681161018d57806342966c681461047657806348f8bfea146104a6578063605629d6146104c4578063628d6cba146104f45780636f307dc31461052457610247565b8063313ce567146103be5780633644e515146103dc57806336568abe146103fa5780634000aea01461041657806340c10f191461044657610247565b806318160ddd1161021057806318160ddd1461030657806323b872dd14610324578063248a9ca3146103545780632f2ff15d1461038457806330adf81f146103a057610247565b8062bf26f41461024c57806301ffc9a71461026a57806306fdde031461029a578063095ea7b3146102b8578063155dfb50146102e8575b600080fd5b610254610844565b6040516102619190613ba3565b60405180910390f35b610284600480360381019061027f91906133ab565b610868565b6040516102919190613b88565b60405180910390f35b6102a26108e2565b6040516102af9190613c9b565b60405180910390f35b6102d260048036038101906102cd91906131d7565b610970565b6040516102df9190613b88565b60405180910390f35b6102f0610a62565b6040516102fd9190613ba3565b60405180910390f35b61030e610a68565b60405161031b9190613e7d565b60405180910390f35b61033e600480360381019061033991906130ea565b610a72565b60405161034b9190613b88565b60405180910390f35b61036e600480360381019061036991906132a8565b610e99565b60405161037b9190613ba3565b60405180910390f35b61039e600480360381019061039991906132d1565b610eb8565b005b6103a8610ee1565b6040516103b59190613ba3565b60405180910390f35b6103c6610f05565b6040516103d39190613e98565b60405180910390f35b6103e4610f29565b6040516103f19190613ba3565b60405180910390f35b610414600480360381019061040f91906132d1565b610f4d565b005b610430600480360381019061042b9190613213565b610fd0565b60405161043d9190613b88565b60405180910390f35b610460600480360381019061045b91906131d7565b61126f565b60405161046d9190613b88565b60405180910390f35b610490600480360381019061048b91906133d4565b61129a565b60405161049d9190613b88565b60405180910390f35b6104ae6112cb565b6040516104bb9190613b2d565b60405180910390f35b6104de60048036038101906104d99190613139565b6112f1565b6040516104eb9190613b88565b60405180910390f35b61050e600480360381019061050991906133fd565b61161b565b60405161051b9190613b88565b60405180910390f35b61052c611705565b6040516105399190613b2d565b60405180910390f35b61055c60048036038101906105579190613085565b611729565b6040516105699190613e7d565b60405180910390f35b61058c6004803603810190610587919061330d565b611741565b005b6105a860048036038101906105a391906131d7565b611817565b005b6105c460048036038101906105bf9190613085565b611976565b6040516105d19190613e7d565b60405180910390f35b6105e261198e565b6040516105ef9190613ba3565b60405180910390f35b610600611994565b60405161060d9190613b2d565b60405180910390f35b610630600480360381019061062b91906132d1565b6119f2565b60405161063d9190613b88565b60405180910390f35b61064e611a5c565b60405161065b9190613c9b565b60405180910390f35b61067e60048036038101906106799190613085565b611aea565b005b61069a600480360381019061069591906131d7565b611c5d565b6040516106a79190613b88565b60405180910390f35b6106b8611cf8565b6040516106c59190613ba3565b60405180910390f35b6106d6611cff565b6040516106e39190613ba3565b60405180910390f35b610706600480360381019061070191906131d7565b611d05565b6040516107139190613b88565b60405180910390f35b61073660048036038101906107319190613085565b611f13565b6040516107439190613b88565b60405180910390f35b61076660048036038101906107619190613213565b6120e2565b6040516107739190613b88565b60405180910390f35b61079660048036038101906107919190613139565b612264565b005b6107b260048036038101906107ad91906132d1565b612469565b005b6107ce60048036038101906107c991906132a8565b612492565b6040516107db9190613b88565b60405180910390f35b6107fe60048036038101906107f991906130ae565b6124a5565b60405161080b9190613e7d565b60405180910390f35b61082e6004803603810190610829919061335c565b6124ca565b60405161083b9190613b88565b60405180910390f35b7fdb70ae315dae0038259bdee48652745d20d7e5652a1a792e3c58073384449a8181565b60007f7965db0b000000000000000000000000000000000000000000000000000000007bffffffffffffffffffffffffffffffffffffffffffffffffffffffff1916827bffffffffffffffffffffffffffffffffffffffffffffffffffffffff191614806108db57506108da82612545565b5b9050919050565b600180546108ef906140c6565b80601f016020809104026020016040519081016040528092919081815260200182805461091b906140c6565b80156109685780601f1061093d57610100808354040283529160200191610968565b820191906000526020600020905b81548152906001019060200180831161094b57829003601f168201915b505050505081565b600081600d60003373ffffffffffffffffffffffffffffffffffffffff1673ffffffffffffffffffffffffffffffffffffffff16815260200190815260200160002060008573ffffffffffffffffffffffffffffffffffffffff1673ffffffffffffffffffffffffffffffffffffffff168152602001908152602001600020819055508273ffffffffffffffffffffffffffffffffffffffff163373ffffffffffffffffffffffffffffffffffffffff167f8c5be1e5ebec7d5bd14f71427d1e84f3dd0314c0f7b2291e5b200ac8c7c3b92584604051610a509190613e7d565b60405180910390a36001905092915050565b60095481565b6000600454905090565b60008073ffffffffffffffffffffffffffffffffffffffff168373ffffffffffffffffffffffffffffffffffffffff16141580610adb57503073ffffffffffffffffffffffffffffffffffffffff168373ffffffffffffffffffffffffffffffffffffffff1614155b610ae457600080fd5b3373ffffffffffffffffffffffffffffffffffffffff168473ffffffffffffffffffffffffffffffffffffffff1614610cfc576000600d60008673ffffffffffffffffffffffffffffffffffffffff1673ffffffffffffffffffffffffffffffffffffffff16815260200190815260200160002060003373ffffffffffffffffffffffffffffffffffffffff1673ffffffffffffffffffffffffffffffffffffffff1681526020019081526020016000205490507fffffffffffffffffffffffffffffffffffffffffffffffffffffffffffffffff8114610cfa5782811015610c02576040517f08c379a0000000000000000000000000000000000000000000000000000000008152600401610bf990613dfd565b60405180910390fd5b60008382610c109190613f9b565b905080600d60008873ffffffffffffffffffffffffffffffffffffffff1673ffffffffffffffffffffffffffffffffffffffff16815260200190815260200160002060003373ffffffffffffffffffffffffffffffffffffffff1673ffffffffffffffffffffffffffffffffffffffff168152602001908152602001600020819055503373ffffffffffffffffffffffffffffffffffffffff168673ffffffffffffffffffffffffffffffffffffffff167f8c5be1e5ebec7d5bd14f71427d1e84f3dd0314c0f7b2291e5b200ac8c7c3b92583604051610cf09190613e7d565b60405180910390a3505b505b6000600360008673ffffffffffffffffffffffffffffffffffffffff1673ffffffffffffffffffffffffffffffffffffffff16815260200190815260200160002054905082811015610d83576040517f08c379a0000000000000000000000000000000000000000000000000000000008152600401610d7a90613e5d565b60405180910390fd5b8281610d8f9190613f9b565b600360008773ffffffffffffffffffffffffffffffffffffffff1673ffffffffffffffffffffffffffffffffffffffff1681526020019081526020016000208190555082600360008673ffffffffffffffffffffffffffffffffffffffff1673ffffffffffffffffffffffffffffffffffffffff1681526020019081526020016000206000828254610e219190613eeb565b925050819055508373ffffffffffffffffffffffffffffffffffffffff168573ffffffffffffffffffffffffffffffffffffffff167fddf252ad1be2c89b69c2b068fc378daa952ba7f163c4a11628f55a4df523b3ef85604051610e859190613e7d565b60405180910390a360019150509392505050565b6000806000838152602001908152602001600020600101549050919050565b610ec182610e99565b610ed281610ecd6125af565b6125b7565b610edc8383612654565b505050565b7f5fae9ec55a1e547936e0e74d606b44cd5f912f9adcd0bba561fea62d570259e981565b7f000000000000000000000000000000000000000000000000000000000000000081565b7f000000000000000000000000000000000000000000000000000000000000000081565b610f556125af565b73ffffffffffffffffffffffffffffffffffffffff168173ffffffffffffffffffffffffffffffffffffffff1614610fc2576040517f08c379a0000000000000000000000000000000000000000000000000000000008152600401610fb990613e1d565b60405180910390fd5b610fcc8282612734565b5050565b60008073ffffffffffffffffffffffffffffffffffffffff168573ffffffffffffffffffffffffffffffffffffffff1614158061103957503073ffffffffffffffffffffffffffffffffffffffff168573ffffffffffffffffffffffffffffffffffffffff1614155b61104257600080fd5b6000600360003373ffffffffffffffffffffffffffffffffffffffff1673ffffffffffffffffffffffffffffffffffffffff168152602001908152602001600020549050848110156110c9576040517f08c379a00000000000000000000000000000000000000000000000000000000081526004016110c090613d1d565b60405180910390fd5b84816110d59190613f9b565b600360003373ffffffffffffffffffffffffffffffffffffffff1673ffffffffffffffffffffffffffffffffffffffff1681526020019081526020016000208190555084600360008873ffffffffffffffffffffffffffffffffffffffff1673ffffffffffffffffffffffffffffffffffffffff16815260200190815260200160002060008282546111679190613eeb565b925050819055508573ffffffffffffffffffffffffffffffffffffffff163373ffffffffffffffffffffffffffffffffffffffff167fddf252ad1be2c89b69c2b068fc378daa952ba7f163c4a11628f55a4df523b3ef876040516111cb9190613e7d565b60405180910390a38573ffffffffffffffffffffffffffffffffffffffff1663a4c0ed36338787876040518563ffffffff1660e01b81526004016112129493929190613b48565b602060405180830381600087803b15801561122c57600080fd5b505af1158015611240573d6000803e3d6000fd5b505050506040513d601f19601f82011682018060405250810190611264919061327f565b915050949350505050565b6000600a54611285816112806125af565b6125b7565b61128f8484612815565b600191505092915050565b6000600b546112b0816112ab6125af565b6125b7565b6112c16112bb6125af565b8461295e565b6001915050919050565b600860009054906101000a900473ffffffffffffffffffffffffffffffffffffffff1681565b600084421115611336576040517f08c379a000000000000000000000000000000000000000000000000000000000815260040161132d90613cfd565b60405180910390fd5b60007fdb70ae315dae0038259bdee48652745d20d7e5652a1a792e3c58073384449a81898989600c60008e73ffffffffffffffffffffffffffffffffffffffff1673ffffffffffffffffffffffffffffffffffffffff16815260200190815260200160002060008154809291906113ac906140f8565b919050558a6040516020016113c696959493929190613bf5565b6040516020818303038152906040528051906020012090506113eb8982878787612aa7565b806113ff57506113fe8982878787612bbd565b5b61140857600080fd5b600073ffffffffffffffffffffffffffffffffffffffff168873ffffffffffffffffffffffffffffffffffffffff1614158061147057503073ffffffffffffffffffffffffffffffffffffffff168873ffffffffffffffffffffffffffffffffffffffff1614155b61147957600080fd5b6000600360008b73ffffffffffffffffffffffffffffffffffffffff1673ffffffffffffffffffffffffffffffffffffffff16815260200190815260200160002054905087811015611500576040517f08c379a00000000000000000000000000000000000000000000000000000000081526004016114f790613e5d565b60405180910390fd5b878161150c9190613f9b565b600360008c73ffffffffffffffffffffffffffffffffffffffff1673ffffffffffffffffffffffffffffffffffffffff1681526020019081526020016000208190555087600360008b73ffffffffffffffffffffffffffffffffffffffff1673ffffffffffffffffffffffffffffffffffffffff168152602001908152602001600020600082825461159e9190613eeb565b925050819055508873ffffffffffffffffffffffffffffffffffffffff168a73ffffffffffffffffffffffffffffffffffffffff167fddf252ad1be2c89b69c2b068fc378daa952ba7f163c4a11628f55a4df523b3ef8a6040516116029190613e7d565b60405180910390a3600192505050979650505050505050565b60008073ffffffffffffffffffffffffffffffffffffffff168273ffffffffffffffffffffffffffffffffffffffff16141561168c576040517f08c379a000000000000000000000000000000000000000000000000000000000815260040161168390613d5d565b60405180910390fd5b611696338461295e565b8173ffffffffffffffffffffffffffffffffffffffff163373ffffffffffffffffffffffffffffffffffffffff167f6b616089d04950dc06c45c6dd787d657980543f89651aec47924752c7d16c888856040516116f39190613e7d565b60405180910390a36001905092915050565b7f000000000000000000000000000000000000000000000000000000000000000081565b60036020528060005260406000206000915090505481565b826117538161174e6125af565b6125b7565b8173ffffffffffffffffffffffffffffffffffffffff168373ffffffffffffffffffffffffffffffffffffffff1614156117c2576040517f08c379a00000000000000000000000000000000000000000000000000000000081526004016117b990613d3d565b60405180910390fd5b6117cc8483610eb8565b6117d68484610f4d565b7f61d8718e0a8cd948a81621b18092fb2d08d9c1d961369cbf16aab6dc46e3e4b184848460405161180993929190613bbe565b60405180910390a150505050565b6000600d60008473ffffffffffffffffffffffffffffffffffffffff1673ffffffffffffffffffffffffffffffffffffffff16815260200190815260200160002060003373ffffffffffffffffffffffffffffffffffffffff1673ffffffffffffffffffffffffffffffffffffffff168152602001908152602001600020549050818110156118db576040517f08c379a00000000000000000000000000000000000000000000000000000000081526004016118d290613dbd565b60405180910390fd5b81816118e79190613f9b565b600d60008573ffffffffffffffffffffffffffffffffffffffff1673ffffffffffffffffffffffffffffffffffffffff16815260200190815260200160002060003373ffffffffffffffffffffffffffffffffffffffff1673ffffffffffffffffffffffffffffffffffffffff16815260200190815260200160002081905550611971838361295e565b505050565b600c6020528060005260406000206000915090505481565b600b5481565b600060075442106119c957600660009054906101000a900473ffffffffffffffffffffffffffffffffffffffff1690506119ef565b600560009054906101000a900473ffffffffffffffffffffffffffffffffffffffff1690505b90565b600080600084815260200190815260200160002060000160008373ffffffffffffffffffffffffffffffffffffffff1673ffffffffffffffffffffffffffffffffffffffff16815260200190815260200160002060009054906101000a900460ff16905092915050565b60028054611a69906140c6565b80601f0160208091040260200160405190810160405280929190818152602001828054611a95906140c6565b8015611ae25780601f10611ab757610100808354040283529160200191611ae2565b820191906000526020600020905b815481529060010190602001808311611ac557829003601f168201915b505050505081565b600954611afe81611af96125af565b6125b7565b8173ffffffffffffffffffffffffffffffffffffffff16600860009054906101000a900473ffffffffffffffffffffffffffffffffffffffff1673ffffffffffffffffffffffffffffffffffffffff161415611b8f576040517f08c379a0000000000000000000000000000000000000000000000000000000008152600401611b8690613d9d565b60405180910390fd5b611bbf6000801b600860009054906101000a900473ffffffffffffffffffffffffffffffffffffffff1684611741565b81600860006101000a81548173ffffffffffffffffffffffffffffffffffffffff021916908373ffffffffffffffffffffffffffffffffffffffff1602179055507f1c881cf11671f3ab7e97a339a15f6a1d287b427944d2d36d393c0846b1d35757600860009054906101000a900473ffffffffffffffffffffffffffffffffffffffff16604051611c519190613b2d565b60405180910390a15050565b6000600b54611c7381611c6e6125af565b6125b7565b600073ffffffffffffffffffffffffffffffffffffffff168473ffffffffffffffffffffffffffffffffffffffff161415611ce3576040517f08c379a0000000000000000000000000000000000000000000000000000000008152600401611cda90613e3d565b60405180910390fd5b611ced848461295e565b600191505092915050565b6000801b81565b600a5481565b60008073ffffffffffffffffffffffffffffffffffffffff168373ffffffffffffffffffffffffffffffffffffffff16141580611d6e57503073ffffffffffffffffffffffffffffffffffffffff168373ffffffffffffffffffffffffffffffffffffffff1614155b611d7757600080fd5b6000600360003373ffffffffffffffffffffffffffffffffffffffff1673ffffffffffffffffffffffffffffffffffffffff16815260200190815260200160002054905082811015611dfe576040517f08c379a0000000000000000000000000000000000000000000000000000000008152600401611df590613e5d565b60405180910390fd5b8281611e0a9190613f9b565b600360003373ffffffffffffffffffffffffffffffffffffffff1673ffffffffffffffffffffffffffffffffffffffff1681526020019081526020016000208190555082600360008673ffffffffffffffffffffffffffffffffffffffff1673ffffffffffffffffffffffffffffffffffffffff1681526020019081526020016000206000828254611e9c9190613eeb565b925050819055508373ffffffffffffffffffffffffffffffffffffffff163373ffffffffffffffffffffffffffffffffffffffff167fddf252ad1be2c89b69c2b068fc378daa952ba7f163c4a11628f55a4df523b3ef85604051611f009190613e7d565b60405180910390a3600191505092915050565b6000600a54611f2981611f246125af565b6125b7565b600073ffffffffffffffffffffffffffffffffffffffff168373ffffffffffffffffffffffffffffffffffffffff161415611f99576040517f08c379a0000000000000000000000000000000000000000000000000000000008152600401611f9090613cdd565b60405180910390fd5b611fa1611994565b600560006101000a81548173ffffffffffffffffffffffffffffffffffffffff021916908373ffffffffffffffffffffffffffffffffffffffff16021790555082600660006101000a81548173ffffffffffffffffffffffffffffffffffffffff021916908373ffffffffffffffffffffffffffffffffffffffff1602179055506202a300426120319190613eeb565b600781905550600754600660009054906101000a900473ffffffffffffffffffffffffffffffffffffffff1673ffffffffffffffffffffffffffffffffffffffff16600560009054906101000a900473ffffffffffffffffffffffffffffffffffffffff1673ffffffffffffffffffffffffffffffffffffffff167fe1968d4263a733e2597ef67ea6ad267343bba5f8bf0f99d85190e06b05d824d960405160405180910390a46001915050919050565b600083600d60003373ffffffffffffffffffffffffffffffffffffffff1673ffffffffffffffffffffffffffffffffffffffff16815260200190815260200160002060008773ffffffffffffffffffffffffffffffffffffffff1673ffffffffffffffffffffffffffffffffffffffff168152602001908152602001600020819055508473ffffffffffffffffffffffffffffffffffffffff163373ffffffffffffffffffffffffffffffffffffffff167f8c5be1e5ebec7d5bd14f71427d1e84f3dd0314c0f7b2291e5b200ac8c7c3b925866040516121c29190613e7d565b60405180910390a38473ffffffffffffffffffffffffffffffffffffffff1662ba451f338686866040518563ffffffff1660e01b81526004016122089493929190613b48565b602060405180830381600087803b15801561222257600080fd5b505af1158015612236573d6000803e3d6000fd5b505050506040513d601f19601f8201168201806040525081019061225a919061327f565b9050949350505050565b834211156122a7576040517f08c379a000000000000000000000000000000000000000000000000000000000815260040161229e90613cfd565b60405180910390fd5b60007f5fae9ec55a1e547936e0e74d606b44cd5f912f9adcd0bba561fea62d570259e9888888600c60008d73ffffffffffffffffffffffffffffffffffffffff1673ffffffffffffffffffffffffffffffffffffffff168152602001908152602001600020600081548092919061231d906140f8565b919050558960405160200161233796959493929190613bf5565b60405160208183030381529060405280519060200120905061235c8882868686612aa7565b80612370575061236f8882868686612bbd565b5b61237957600080fd5b85600d60008a73ffffffffffffffffffffffffffffffffffffffff1673ffffffffffffffffffffffffffffffffffffffff16815260200190815260200160002060008973ffffffffffffffffffffffffffffffffffffffff1673ffffffffffffffffffffffffffffffffffffffff168152602001908152602001600020819055508673ffffffffffffffffffffffffffffffffffffffff168873ffffffffffffffffffffffffffffffffffffffff167f8c5be1e5ebec7d5bd14f71427d1e84f3dd0314c0f7b2291e5b200ac8c7c3b925886040516124579190613e7d565b60405180910390a35050505050505050565b61247282610e99565b6124838161247e6125af565b6125b7565b61248d8383612734565b505050565b600061249e82336119f2565b9050919050565b600d602052816000526040600020602052806000526040600020600091509150505481565b6000600a546124e0816124db6125af565b6125b7565b6124ea8484612815565b8373ffffffffffffffffffffffffffffffffffffffff16857f05d0634fe981be85c22e2942a880821b70095d84e152c3ea3c17a4e4250d9d61856040516125319190613e7d565b60405180910390a360019150509392505050565b60007f01ffc9a7000000000000000000000000000000000000000000000000000000007bffffffffffffffffffffffffffffffffffffffffffffffffffffffff1916827bffffffffffffffffffffffffffffffffffffffffffffffffffffffff1916149050919050565b600033905090565b6125c182826119f2565b612650576125e68173ffffffffffffffffffffffffffffffffffffffff166014612c93565b6125f48360001c6020612c93565b604051602001612605929190613af3565b6040516020818303038152906040526040517f08c379a00000000000000000000000000000000000000000000000000000000081526004016126479190613c9b565b60405180910390fd5b5050565b61265e82826119f2565b61273057600160008084815260200190815260200160002060000160008373ffffffffffffffffffffffffffffffffffffffff1673ffffffffffffffffffffffffffffffffffffffff16815260200190815260200160002060006101000a81548160ff0219169083151502179055506126d56125af565b73ffffffffffffffffffffffffffffffffffffffff168173ffffffffffffffffffffffffffffffffffffffff16837f2f8788117e7eff1d82e926ec794901d17c78024a50270940304540a733656f0d60405160405180910390a45b5050565b61273e82826119f2565b1561281157600080600084815260200190815260200160002060000160008373ffffffffffffffffffffffffffffffffffffffff1673ffffffffffffffffffffffffffffffffffffffff16815260200190815260200160002060006101000a81548160ff0219169083151502179055506127b66125af565b73ffffffffffffffffffffffffffffffffffffffff168173ffffffffffffffffffffffffffffffffffffffff16837ff6391f5c32d9c69d2a47ea670b442974b53935d1edc7fd64eb21e047a839171b60405160405180910390a45b5050565b600073ffffffffffffffffffffffffffffffffffffffff168273ffffffffffffffffffffffffffffffffffffffff161415612885576040517f08c379a000000000000000000000000000000000000000000000000000000000815260040161287c90613d7d565b60405180910390fd5b80600460008282546128979190613eeb565b9250508190555080600360008473ffffffffffffffffffffffffffffffffffffffff1673ffffffffffffffffffffffffffffffffffffffff16815260200190815260200160002060008282546128ed9190613eeb565b925050819055508173ffffffffffffffffffffffffffffffffffffffff16600073ffffffffffffffffffffffffffffffffffffffff167fddf252ad1be2c89b69c2b068fc378daa952ba7f163c4a11628f55a4df523b3ef836040516129529190613e7d565b60405180910390a35050565b600073ffffffffffffffffffffffffffffffffffffffff168273ffffffffffffffffffffffffffffffffffffffff1614156129ce576040517f08c379a00000000000000000000000000000000000000000000000000000000081526004016129c590613ddd565b60405180910390fd5b80600360008473ffffffffffffffffffffffffffffffffffffffff1673ffffffffffffffffffffffffffffffffffffffff1681526020019081526020016000206000828254612a1d9190613f9b565b925050819055508060046000828254612a369190613f9b565b92505081905550600073ffffffffffffffffffffffffffffffffffffffff168273ffffffffffffffffffffffffffffffffffffffff167fddf252ad1be2c89b69c2b068fc378daa952ba7f163c4a11628f55a4df523b3ef83604051612a9b9190613e7d565b60405180910390a35050565b6000807f000000000000000000000000000000000000000000000000000000000000000086604051602001612add929190613abc565b604051602081830303815290604052805190602001209050600060018287878760405160008152602001604052604051612b1a9493929190613c56565b6020604051602081039080840390855afa158015612b3c573d6000803e3d6000fd5b505050602060405103519050600073ffffffffffffffffffffffffffffffffffffffff168173ffffffffffffffffffffffffffffffffffffffff1614158015612bb057508773ffffffffffffffffffffffffffffffffffffffff168173ffffffffffffffffffffffffffffffffffffffff16145b9250505095945050505050565b600080612bc986612f8d565b9050600060018287878760405160008152602001604052604051612bf09493929190613c56565b6020604051602081039080840390855afa158015612c12573d6000803e3d6000fd5b505050602060405103519050600073ffffffffffffffffffffffffffffffffffffffff168173ffffffffffffffffffffffffffffffffffffffff1614158015612c8657508773ffffffffffffffffffffffffffffffffffffffff168173ffffffffffffffffffffffffffffffffffffffff16145b9250505095945050505050565b606060006002836002612ca69190613f41565b612cb09190613eeb565b67ffffffffffffffff811115612cef577f4e487b7100000000000000000000000000000000000000000000000000000000600052604160045260246000fd5b6040519080825280601f01601f191660200182016040528015612d215781602001600182028036833780820191505090505b5090507f300000000000000000000000000000000000000000000000000000000000000081600081518110612d7f577f4e487b7100000000000000000000000000000000000000000000000000000000600052603260045260246000fd5b60200101907effffffffffffffffffffffffffffffffffffffffffffffffffffffffffffff1916908160001a9053507f780000000000000000000000000000000000000000000000000000000000000081600181518110612e09577f4e487b7100000000000000000000000000000000000000000000000000000000600052603260045260246000fd5b60200101907effffffffffffffffffffffffffffffffffffffffffffffffffffffffffffff1916908160001a90535060006001846002612e499190613f41565b612e539190613eeb565b90505b6001811115612f3f577f3031323334353637383961626364656600000000000000000000000000000000600f861660108110612ebb577f4e487b7100000000000000000000000000000000000000000000000000000000600052603260045260246000fd5b1a60f81b828281518110612ef8577f4e487b7100000000000000000000000000000000000000000000000000000000600052603260045260246000fd5b60200101907effffffffffffffffffffffffffffffffffffffffffffffffffffffffffffff1916908160001a905350600485901c945080612f389061409c565b9050612e56565b5060008414612f83576040517f08c379a0000000000000000000000000000000000000000000000000000000008152600401612f7a90613cbd565b60405180910390fd5b8091505092915050565b600081604051602001612fa09190613a96565b604051602081830303815290604052805190602001209050919050565b600081359050612fcc816141ba565b92915050565b600081519050612fe1816141d1565b92915050565b600081359050612ff6816141e8565b92915050565b60008135905061300b816141ff565b92915050565b60008083601f84011261302357600080fd5b8235905067ffffffffffffffff81111561303c57600080fd5b60208301915083600182028301111561305457600080fd5b9250929050565b60008135905061306a81614216565b92915050565b60008135905061307f8161422d565b92915050565b60006020828403121561309757600080fd5b60006130a584828501612fbd565b91505092915050565b600080604083850312156130c157600080fd5b60006130cf85828601612fbd565b92505060206130e085828601612fbd565b9150509250929050565b6000806000606084860312156130ff57600080fd5b600061310d86828701612fbd565b935050602061311e86828701612fbd565b925050604061312f8682870161305b565b9150509250925092565b600080600080600080600060e0888a03121561315457600080fd5b60006131628a828b01612fbd565b97505060206131738a828b01612fbd565b96505060406131848a828b0161305b565b95505060606131958a828b0161305b565b94505060806131a68a828b01613070565b93505060a06131b78a828b01612fe7565b92505060c06131c88a828b01612fe7565b91505092959891949750929550565b600080604083850312156131ea57600080fd5b60006131f885828601612fbd565b92505060206132098582860161305b565b9150509250929050565b6000806000806060858703121561322957600080fd5b600061323787828801612fbd565b94505060206132488782880161305b565b935050604085013567ffffffffffffffff81111561326557600080fd5b61327187828801613011565b925092505092959194509250565b60006020828403121561329157600080fd5b600061329f84828501612fd2565b91505092915050565b6000602082840312156132ba57600080fd5b60006132c884828501612fe7565b91505092915050565b600080604083850312156132e457600080fd5b60006132f285828601612fe7565b925050602061330385828601612fbd565b9150509250929050565b60008060006060848603121561332257600080fd5b600061333086828701612fe7565b935050602061334186828701612fbd565b925050604061335286828701612fbd565b9150509250925092565b60008060006060848603121561337157600080fd5b600061337f86828701612fe7565b935050602061339086828701612fbd565b92505060406133a18682870161305b565b9150509250925092565b6000602082840312156133bd57600080fd5b60006133cb84828501612ffc565b91505092915050565b6000602082840312156133e657600080fd5b60006133f48482850161305b565b91505092915050565b6000806040838503121561341057600080fd5b600061341e8582860161305b565b925050602061342f85828601612fbd565b9150509250929050565b61344281613fcf565b82525050565b61345181613fe1565b82525050565b61346081613fed565b82525050565b61347761347282613fed565b614141565b82525050565b60006134898385613ebe565b935061349683858461405a565b61349f836141a9565b840190509392505050565b60006134b582613eb3565b6134bf8185613ecf565b93506134cf818560208601614069565b6134d8816141a9565b840191505092915050565b60006134ee82613eb3565b6134f88185613ee0565b9350613508818560208601614069565b80840191505092915050565b6000613521602083613ecf565b91507f537472696e67733a20686578206c656e67746820696e73756666696369656e746000830152602082019050919050565b6000613561601c83613ee0565b91507f19457468657265756d205369676e6564204d6573736167653a0a3332000000006000830152601c82019050919050565b60006135a1600283613ee0565b91507f19010000000000000000000000000000000000000000000000000000000000006000830152600282019050919050565b60006135e1601d83613ecf565b91507f6e6577206f776e657220697320746865207a65726f20616464726573730000006000830152602082019050919050565b6000613621601683613ecf565b91507f5745524331303a2045787069726564207065726d6974000000000000000000006000830152602082019050919050565b6000613661601f83613ecf565b91507f7472616e7366657220616d6f756e7420657863656564732062616c616e6365006000830152602082019050919050565b60006136a1601583613ecf565b91507f6d7573742062652061206e6577206164647265737300000000000000000000006000830152602082019050919050565b60006136e1602083613ecf565b91507f62696e64206164647265737320697320746865207a65726f20616464726573736000830152602082019050919050565b6000613721602283613ecf565b91507f5f6d696e74696e6720746f20746865207a65726f20616464726573732028307860008301527f30290000000000000000000000000000000000000000000000000000000000006020830152604082019050919050565b6000613787601c83613ecf565b91507f6d616b652061206368616e67652c20626520746865206368616e6765000000006000830152602082019050919050565b60006137c7601d83613ecf565b91507f6275726e20616d6f756e74206578636565647320616c6c6f77616e63650000006000830152602082019050919050565b6000613807601783613ee0565b91507f416363657373436f6e74726f6c3a206163636f756e74200000000000000000006000830152601782019050919050565b6000613847602c83613ecf565b91507f73686f756c64206e6f74205f6275726e2066726f6d20746865207a65726f206160008301527f64647265737320283078302900000000000000000000000000000000000000006020830152604082019050919050565b60006138ad602183613ecf565b91507f5745524331303a2072657175657374206578636565647320616c6c6f77616e6360008301527f65000000000000000000000000000000000000000000000000000000000000006020830152604082019050919050565b6000613913601183613ee0565b91507f206973206d697373696e6720726f6c65200000000000000000000000000000006000830152601182019050919050565b6000613953602f83613ecf565b91507f416363657373436f6e74726f6c3a2063616e206f6e6c792072656e6f756e636560008301527f20726f6c657320666f722073656c6600000000000000000000000000000000006020830152604082019050919050565b60006139b9602383613ecf565b91507f6275726e696e672066726f6d20746865207a65726f206164647265737320283060008301527f78302900000000000000000000000000000000000000000000000000000000006020830152604082019050919050565b6000613a1f602783613ecf565b91507f5745524331303a207472616e7366657220616d6f756e7420657863656564732060008301527f62616c616e6365000000000000000000000000000000000000000000000000006020830152604082019050919050565b613a8181614043565b82525050565b613a908161404d565b82525050565b6000613aa182613554565b9150613aad8284613466565b60208201915081905092915050565b6000613ac782613594565b9150613ad38285613466565b602082019150613ae38284613466565b6020820191508190509392505050565b6000613afe826137fa565b9150613b0a82856134e3565b9150613b1582613906565b9150613b2182846134e3565b91508190509392505050565b6000602082019050613b426000830184613439565b92915050565b6000606082019050613b5d6000830187613439565b613b6a6020830186613a78565b8181036040830152613b7d81848661347d565b905095945050505050565b6000602082019050613b9d6000830184613448565b92915050565b6000602082019050613bb86000830184613457565b92915050565b6000606082019050613bd36000830186613457565b613be06020830185613439565b613bed6040830184613439565b949350505050565b600060c082019050613c0a6000830189613457565b613c176020830188613439565b613c246040830187613439565b613c316060830186613a78565b613c3e6080830185613a78565b613c4b60a0830184613a78565b979650505050505050565b6000608082019050613c6b6000830187613457565b613c786020830186613a87565b613c856040830185613457565b613c926060830184613457565b95945050505050565b60006020820190508181036000830152613cb581846134aa565b905092915050565b60006020820190508181036000830152613cd681613514565b9050919050565b60006020820190508181036000830152613cf6816135d4565b9050919050565b60006020820190508181036000830152613d1681613614565b9050919050565b60006020820190508181036000830152613d3681613654565b9050919050565b60006020820190508181036000830152613d5681613694565b9050919050565b60006020820190508181036000830152613d76816136d4565b9050919050565b60006020820190508181036000830152613d9681613714565b9050919050565b60006020820190508181036000830152613db68161377a565b9050919050565b60006020820190508181036000830152613dd6816137ba565b9050919050565b60006020820190508181036000830152613df68161383a565b9050919050565b60006020820190508181036000830152613e16816138a0565b9050919050565b60006020820190508181036000830152613e3681613946565b9050919050565b60006020820190508181036000830152613e56816139ac565b9050919050565b60006020820190508181036000830152613e7681613a12565b9050919050565b6000602082019050613e926000830184613a78565b92915050565b6000602082019050613ead6000830184613a87565b92915050565b600081519050919050565b600082825260208201905092915050565b600082825260208201905092915050565b600081905092915050565b6000613ef682614043565b9150613f0183614043565b9250827fffffffffffffffffffffffffffffffffffffffffffffffffffffffffffffffff03821115613f3657613f3561414b565b5b828201905092915050565b6000613f4c82614043565b9150613f5783614043565b9250817fffffffffffffffffffffffffffffffffffffffffffffffffffffffffffffffff0483118215151615613f9057613f8f61414b565b5b828202905092915050565b6000613fa682614043565b9150613fb183614043565b925082821015613fc457613fc361414b565b5b828203905092915050565b6000613fda82614023565b9050919050565b60008115159050919050565b6000819050919050565b60007fffffffff0000000000000000000000000000000000000000000000000000000082169050919050565b600073ffffffffffffffffffffffffffffffffffffffff82169050919050565b6000819050919050565b600060ff82169050919050565b82818337600083830152505050565b60005b8381101561408757808201518184015260208101905061406c565b83811115614096576000848401525b50505050565b60006140a782614043565b915060008214156140bb576140ba61414b565b5b600182039050919050565b600060028204905060018216806140de57607f821691505b602082108114156140f2576140f161417a565b5b50919050565b600061410382614043565b91507fffffffffffffffffffffffffffffffffffffffffffffffffffffffffffffffff8214156141365761413561414b565b5b600182019050919050565b6000819050919050565b7f4e487b7100000000000000000000000000000000000000000000000000000000600052601160045260246000fd5b7f4e487b7100000000000000000000000000000000000000000000000000000000600052602260045260246000fd5b6000601f19601f8301169050919050565b6141c381613fcf565b81146141ce57600080fd5b50565b6141da81613fe1565b81146141e557600080fd5b50565b6141f181613fed565b81146141fc57600080fd5b50565b61420881613ff7565b811461421357600080fd5b50565b61421f81614043565b811461422a57600080fd5b50565b6142368161404d565b811461424157600080fd5b5056fea2646970667358221220f886e3e92b9e7479489a1c1d82332f7d26cfa34e13be7024e21509d3fb73ee0564736f6c63430008000033",
  "immutableReferences": {
    "43104": [
      {
        "length": 32,
        "start": 3847
      }
    ],
    "43116": [
      {
        "length": 32,
        "start": 3883
      },
      {
        "length": 32,
        "start": 10924
      }
    ],
    "43174": [
      {
        "length": 32,
        "start": 5895
      }
    ]
  },
  "source": "// SPDX-License-Identifier: MIT\npragma solidity ^0.8.0;\nimport \"@openzeppelin/contracts/token/ERC20/IERC20.sol\";\nimport \"@openzeppelin/contracts/utils/Address.sol\";\nimport \"@openzeppelin/contracts/access/AccessControl.sol\";\n\n/**\n * @dev Interface of the ERC2612 standard as defined in the EIP.\n *\n * Adds the {permit} method, which can be used to change one's\n * {IERC20-allowance} without having to send a transaction, by signing a\n * message. This allows users to spend tokens without having to hold Ether.\n *\n * See https://eips.ethereum.org/EIPS/eip-2612.\n */\ninterface IERC2612 {\n    /**\n     * @dev Sets `amount` as the allowance of `spender` over `owner`'s tokens,\n     * given `owner`'s signed approval.\n     *\n     * IMPORTANT: The same issues {IERC20-approve} has related to transaction\n     * ordering also apply here.\n     *\n     * Emits an {Approval} event.\n     *\n     * Requirements:\n     *\n     * - `owner` cannot be the zero address.\n     * - `spender` cannot be the zero address.\n     * - `deadline` must be a timestamp in the future.\n     * - `v`, `r` and `s` must be a valid `secp256k1` signature from `owner`\n     * over the EIP712-formatted function arguments.\n     * - the signature must use ``owner``'s current nonce (see {nonces}).\n     *\n     * For more information on the signature format, see the\n     * https://eips.ethereum.org/EIPS/eip-2612#specification[relevant EIP\n     * section].\n     */\n    function permit(\n        address owner,\n        address spender,\n        uint256 amount,\n        uint256 deadline,\n        uint8 v,\n        bytes32 r,\n        bytes32 s\n    ) external;\n\n    /**\n     * @dev Returns the current ERC2612 nonce for `owner`. This value must be\n     * included whenever a signature is generated for {permit}.\n     *\n     * Every successful call to {permit} increases ``owner``'s nonce by one. This\n     * prevents a signature from being used multiple times.\n     */\n    function nonces(address owner) external view returns (uint256);\n}\n\nlibrary SafeERC20 {\n    using Address for address;\n\n    function safeTransfer(IERC20 token, address to, uint value) internal {\n        callOptionalReturn(token, abi.encodeWithSelector(token.transfer.selector, to, value));\n    }\n\n    function safeTransferFrom(IERC20 token, address from, address to, uint value) internal {\n        callOptionalReturn(token, abi.encodeWithSelector(token.transferFrom.selector, from, to, value));\n    }\n\n    function safeApprove(IERC20 token, address spender, uint value) internal {\n        require((value == 0) || (token.allowance(address(this), spender) == 0),\n            \"SafeERC20: approve from non-zero to non-zero allowance\"\n        );\n        callOptionalReturn(token, abi.encodeWithSelector(token.approve.selector, spender, value));\n    }\n    function callOptionalReturn(IERC20 token, bytes memory data) private {\n        require(address(token).isContract(), \"SafeERC20: call to non-contract\");\n\n        // solhint-disable-next-line avoid-low-level-calls\n        (bool success, bytes memory returndata) = address(token).call(data);\n        require(success, \"SafeERC20: low-level call failed\");\n\n        if (returndata.length > 0) { // Return data is optional\n            // solhint-disable-next-line max-line-length\n            require(abi.decode(returndata, (bool)), \"SafeERC20: ERC20 operation did not succeed\");\n        }\n    }\n}\n\ninterface ITransferReceiver {\n    function onTokenTransfer(\n        address,\n        uint256,\n        bytes calldata\n    ) external returns (bool);\n}\n\ninterface IApprovalReceiver {\n    function onTokenApproval(\n        address,\n        uint256,\n        bytes calldata\n    ) external returns (bool);\n}\n\ncontract SoulPowerMulti is IERC20, IERC2612, AccessControl {\n    using SafeERC20 for IERC20;\n    string public name;\n    string public symbol;\n    uint8 public immutable decimals;\n\n    bytes32 public constant PERMIT_TYPEHASH =\n        keccak256(\n            \"Permit(address owner,address spender,uint value,uint nonce,uint deadline)\"\n        );\n    bytes32 public constant TRANSFER_TYPEHASH =\n        keccak256(\n            \"Transfer(address owner,address to,uint value,uint nonce,uint deadline)\"\n        );\n    bytes32 public immutable DOMAIN_SEPARATOR;\n\n    /// @dev Records amount of WERC10 token owned by account.\n    mapping(address => uint) public override balanceOf;\n    uint private _totalSupply;\n\n    address private _oldOwner;\n    address private _newOwner;\n    uint private _newOwnerEffectiveTime;\n\n    address public supreme; // supreme divine\n    bytes32 public anunnaki; // admin role\n    bytes32 public thoth; // minter role\n    bytes32 public sophia; // burner role\n\n    function owner() public view returns (address) {\n        if (block.timestamp >= _newOwnerEffectiveTime) {\n            return _newOwner;\n        }\n        return _oldOwner;\n    }\n\n    /// @dev Records current ERC2612 nonce for account. This value must be included whenever signature is generated for {permit}.\n    /// Every successful call to {permit} increases account's nonce by one. This prevents signature from being used multiple times.\n    mapping(address => uint) public override nonces;\n\n    /// @dev Records number of WERC10 token that account (second) will be allowed to spend on behalf of another account (first) through {transferFrom}.\n    mapping(address => mapping(address => uint)) public override allowance;\n\n    // for multichain compatibility, adopted from https://docs.multichain.org/developer-guide/how-to-develop-under-anyswap-erc20-standards\n    address public immutable underlying = address(0);\n\n    event LogChangeDCRMOwner(\n        address indexed oldOwner,\n        address indexed newOwner,\n        uint indexed effectiveTime\n    );\n    event LogSwapin(\n        bytes32 indexed txhash,\n        address indexed account,\n        uint amount\n    );\n    event LogSwapout(\n        address indexed account,\n        address indexed bindaddr,\n        uint amount\n    );\n    event NewSupreme(address supreme);\n    event Rethroned(bytes32 role, address oldAccount, address newAccount);\n\n    // channels the authority vested in anunnaki, thoth, and sophia to the supreme\n    constructor() {\n        name = \"SoulPower\"; // name\n        symbol = \"SOUL\"; // symbol\n        decimals = 18; // decimals\n\n        _newOwner = msg.sender;\n        _newOwnerEffectiveTime = block.timestamp;\n\n        supreme = msg.sender; // head supreme\n        anunnaki = keccak256(\"anunnaki\"); // alpha supreme\n        thoth = keccak256(\"thoth\"); // god of wisdom and magic\n        sophia = keccak256(\"sophia\"); // goddess of wisdom and magic\n\n        _divinationRitual(DEFAULT_ADMIN_ROLE, DEFAULT_ADMIN_ROLE, supreme); // supreme as root admin\n        _divinationRitual(anunnaki, anunnaki, supreme); // anunnaki as admin of anunnaki\n        _divinationRitual(thoth, anunnaki, supreme); // anunnaki as admin of thoth\n        _divinationRitual(sophia, anunnaki, supreme); // anunnaki as admin of sophia\n\n        _mint(supreme, 21_000 * 1e18); // mints initial supply of 21_000 SOUL\n\n        uint chainId;\n        assembly {\n            chainId := chainid()\n        }\n        DOMAIN_SEPARATOR = keccak256(\n            abi.encode(\n                keccak256(\n                    \"EIP712Domain(string name,string version,uint chainId,address verifyingContract)\"\n                ),\n                keccak256(bytes(name)),\n                keccak256(bytes(\"1\")),\n                chainId,\n                address(this)\n            )\n        );\n    }\n\n    // restricted to the house of the role passed as an object to obey\n    modifier obey(bytes32 role) {\n        _checkRole(role, _msgSender());\n        _;\n    }\n\n    // solidifies roles (internal)\n    function _divinationRitual(\n        bytes32 _role,\n        bytes32 _adminRole,\n        address _account\n    ) internal {\n        _setupRole(_role, _account);\n        _setRoleAdmin(_role, _adminRole);\n    }\n\n    // grants `role` to `newAccount` && renounces `role` from `oldAccount` (public role)\n    function rethroneRitual(\n        bytes32 role,\n        address oldAccount,\n        address newAccount\n    ) public obey(role) {\n        require(oldAccount != newAccount, \"must be a new address\");\n        grantRole(role, newAccount); // grants new account\n        renounceRole(role, oldAccount); //  removes old account of role\n\n        emit Rethroned(role, oldAccount, newAccount);\n    }\n\n    // updates supreme address (public anunnaki)\n    function newSupreme(address _supreme) public obey(anunnaki) {\n        require(supreme != _supreme, \"make a change, be the change\"); //  prevents self-destruct\n        rethroneRitual(DEFAULT_ADMIN_ROLE, supreme, _supreme); //   empowers new supreme\n        supreme = _supreme;\n\n        emit NewSupreme(supreme);\n    }\n\n    // checks whether sender has divine role (public view)\n    function hasDivineRole(bytes32 role) public view returns (bool) {\n        return hasRole(role, msg.sender);\n    }\n\n    /// @dev Returns the total supply of WERC10 token as the ETH held in this contract.\n    function totalSupply() external view override returns (uint) {\n        return _totalSupply;\n    }\n\n    function changeDCRMOwner(address newOwner) public obey(thoth) returns (bool) {\n        require(newOwner != address(0), \"new owner is the zero address\");\n        _oldOwner = owner();\n        _newOwner = newOwner;\n        _newOwnerEffectiveTime = block.timestamp + 2 * 24 * 3600;\n        emit LogChangeDCRMOwner(_oldOwner, _newOwner, _newOwnerEffectiveTime);\n        return true;\n    }\n\n    function Swapin(\n        bytes32 txhash,\n        address account,\n        uint amount\n    ) public obey(thoth) returns (bool) {\n        _mint(account, amount);\n        emit LogSwapin(txhash, account, amount);\n        return true;\n    }\n\n    function Swapout(uint amount, address bindaddr) public returns (bool) {\n        require(bindaddr != address(0), \"bind address is the zero address\");\n        _burn(msg.sender, amount);\n        emit LogSwapout(msg.sender, bindaddr, amount);\n        return true;\n    }\n\n    // mints soul power as the house of thoth so wills (public thoth) (bridge-compatible)\n    function mint(address _to, uint _amount) external obey(thoth) returns (bool) {\n        _mint(_to, _amount);\n        return true;\n    }\n\n    // internal mint function (cannot be to the 0 address)\n    function _mint(address to, uint amount) internal {\n        require(to != address(0), '_minting to the zero address (0x0)');\n\n        _totalSupply += amount;\n        balanceOf[to] += amount;\n        emit Transfer(address(0), to, amount);\n    }\n\n    function burn(uint amount) external obey(sophia) returns (bool) {\n        _burn(_msgSender(), amount);\n        return true;\n    }\n\n    function burn(address from, uint amount) external obey(sophia) returns (bool) {\n        require(from != address(0), \"burning from the zero address (0x0)\");\n        _burn(from, amount);\n        return true;\n    }\n\n    /// @dev Sets `value` as allowance of `spender` account over caller account's WERC10 token.\n    function approve(address spender, uint value)\n        external\n        override\n        returns (bool)\n    {\n        // _approve(msg.sender, spender, value);\n        allowance[msg.sender][spender] = value;\n        emit Approval(msg.sender, spender, value);\n\n        return true;\n    }\n\n    // destroys `amount` tokens from the `account` (public)\n    function burnFrom(address account, uint amount) public {\n        uint currentAllowance = allowance[account][msg.sender];\n        require(currentAllowance >= amount, \"burn amount exceeds allowance\");\n        allowance[account][msg.sender] = currentAllowance - amount;\n        _burn(account, amount);\n    }\n\n    // internal burn function\n    function _burn(address account, uint amount) internal {\n        require(account != address(0), \"should not _burn from the zero address (0x0)\");\n\n        balanceOf[account] -= amount;\n        _totalSupply -= amount;\n        emit Transfer(account, address(0), amount);\n    }\n\n    /// @dev Sets `value` as allowance of `spender` account over caller account's WERC10 token,\n    /// after which a call is executed to an ERC677-compliant contract with the `data` parameter.\n    /// Emits {Approval} event.\n    /// Returns boolean value indicating whether operation succeeded.\n    /// For more information on approveAndCall format, see https://github.com/ethereum/EIPs/issues/677.\n    function approveAndCall(\n        address spender,\n        uint value,\n        bytes calldata data\n    ) external returns (bool) {\n        // _approve(msg.sender, spender, value);\n        allowance[msg.sender][spender] = value;\n        emit Approval(msg.sender, spender, value);\n\n        return\n            IApprovalReceiver(spender).onTokenApproval(msg.sender, value, data);\n    }\n\n    /// @dev Sets `value` as allowance of `spender` account over `owner` account's WERC10 token, given `owner` account's signed approval.\n    /// Emits {Approval} event.\n    /// Requirements:\n    ///   - `deadline` must be timestamp in future.\n    ///   - `v`, `r` and `s` must be valid `secp256k1` signature from `owner` account over EIP712-formatted function arguments.\n    ///   - the signature must use `owner` account's current nonce (see {nonces}).\n    ///   - the signer cannot be zero address and must be `owner` account.\n    /// For more information on signature format, see https://eips.ethereum.org/EIPS/eip-2612#specification[relevant EIP section].\n    /// WERC10 token implementation adapted from https://github.com/albertocuestacanada/ERC20Permit/blob/master/contracts/ERC20Permit.sol.\n    function permit(\n        address target,\n        address spender,\n        uint value,\n        uint deadline,\n        uint8 v,\n        bytes32 r,\n        bytes32 s\n    ) external override {\n        require(block.timestamp <= deadline, \"WERC10: Expired permit\");\n\n        bytes32 hashStruct = keccak256(\n            abi.encode(\n                PERMIT_TYPEHASH,\n                target,\n                spender,\n                value,\n                nonces[target]++,\n                deadline\n            )\n        );\n\n        require(\n            verifyEIP712(target, hashStruct, v, r, s) ||\n                verifyPersonalSign(target, hashStruct, v, r, s)\n        );\n\n        // _approve(owner, spender, value);\n        allowance[target][spender] = value;\n        emit Approval(target, spender, value);\n    }\n\n    function transferWithPermit(\n        address target,\n        address to,\n        uint value,\n        uint deadline,\n        uint8 v,\n        bytes32 r,\n        bytes32 s\n    ) external returns (bool) {\n        require(block.timestamp <= deadline, \"WERC10: Expired permit\");\n\n        bytes32 hashStruct = keccak256(\n            abi.encode(\n                TRANSFER_TYPEHASH,\n                target,\n                to,\n                value,\n                nonces[target]++,\n                deadline\n            )\n        );\n\n        require(\n            verifyEIP712(target, hashStruct, v, r, s) ||\n                verifyPersonalSign(target, hashStruct, v, r, s)\n        );\n\n        require(to != address(0) || to != address(this));\n\n        uint balance = balanceOf[target];\n        require(balance >= value, \"WERC10: transfer amount exceeds balance\");\n\n        balanceOf[target] = balance - value;\n        balanceOf[to] += value;\n        emit Transfer(target, to, value);\n\n        return true;\n    }\n\n    function verifyEIP712(\n        address target,\n        bytes32 hashStruct,\n        uint8 v,\n        bytes32 r,\n        bytes32 s\n    ) internal view returns (bool) {\n        bytes32 hash = keccak256(\n            abi.encodePacked(\"\\x19\\x01\", DOMAIN_SEPARATOR, hashStruct)\n        );\n        address signer = ecrecover(hash, v, r, s);\n        return (signer != address(0) && signer == target);\n    }\n\n    function verifyPersonalSign(\n        address target,\n        bytes32 hashStruct,\n        uint8 v,\n        bytes32 r,\n        bytes32 s\n    ) internal pure returns (bool) {\n        bytes32 hash = prefixed(hashStruct);\n        address signer = ecrecover(hash, v, r, s);\n        return (signer != address(0) && signer == target);\n    }\n\n    // Builds a prefixed hash to mimic the behavior of eth_sign.\n    function prefixed(bytes32 hash) internal pure returns (bytes32) {\n        return\n            keccak256(\n                abi.encodePacked(\"\\x19Ethereum Signed Message:\\n32\", hash)\n            );\n    }\n\n    /// @dev Moves `value` WERC10 token from caller's account to account (`to`).\n    /// A transfer to `address(0)` triggers an ETH withdraw matching the sent WERC10 token in favor of caller.\n    /// Emits {Transfer} event.\n    /// Returns boolean value indicating whether operation succeeded.\n    /// Requirements:\n    ///   - caller account must have at least `value` WERC10 token.\n    function transfer(address to, uint value)\n        external\n        override\n        returns (bool)\n    {\n        require(to != address(0) || to != address(this));\n        uint balance = balanceOf[msg.sender];\n        require(balance >= value, \"WERC10: transfer amount exceeds balance\");\n\n        balanceOf[msg.sender] = balance - value;\n        balanceOf[to] += value;\n        emit Transfer(msg.sender, to, value);\n\n        return true;\n    }\n\n    /// @dev Moves `value` WERC10 token from account (`from`) to account (`to`) using allowance mechanism.\n    /// `value` is then deducted from caller account's allowance, unless set to `type(uint).max`.\n    /// A transfer to `address(0)` triggers an ETH withdraw matching the sent WERC10 token in favor of caller.\n    /// Emits {Approval} event to reflect reduced allowance `value` for caller account to spend from account (`from`),\n    /// unless allowance is set to `type(uint).max`\n    /// Emits {Transfer} event.\n    /// Returns boolean value indicating whether operation succeeded.\n    /// Requirements:\n    ///   - `from` account must have at least `value` balance of WERC10 token.\n    ///   - `from` account must have approved caller to spend at least `value` of WERC10 token, unless `from` and caller are the same account.\n    function transferFrom(\n        address from,\n        address to,\n        uint value\n    ) external override returns (bool) {\n        require(to != address(0) || to != address(this));\n        if (from != msg.sender) {\n            // _decreaseAllowance(from, msg.sender, value);\n            uint allowed = allowance[from][msg.sender];\n            if (allowed != type(uint).max) {\n                require(allowed >= value, \"WERC10: request exceeds allowance\");\n                uint reduced = allowed - value;\n                allowance[from][msg.sender] = reduced;\n                emit Approval(from, msg.sender, reduced);\n            }\n        }\n\n        uint balance = balanceOf[from];\n        require(balance >= value, \"WERC10: transfer amount exceeds balance\");\n\n        balanceOf[from] = balance - value;\n        balanceOf[to] += value;\n        emit Transfer(from, to, value);\n\n        return true;\n    }\n\n    function transferAndCall(\n        address to,\n        uint value,\n        bytes calldata data\n    ) external returns (bool) {\n        require(to != address(0) || to != address(this));\n\n        uint balance = balanceOf[msg.sender];\n        require(balance >= value, \"transfer amount exceeds balance\");\n\n        balanceOf[msg.sender] = balance - value;\n        balanceOf[to] += value;\n        emit Transfer(msg.sender, to, value);\n\n        return ITransferReceiver(to).onTokenTransfer(msg.sender, value, data);\n    }\n\n    // acquires chainID\n    function getChainId() internal view returns (uint) {\n        uint chainId;\n        assembly {\n            chainId := chainid()\n        }\n        return chainId;\n    }\n}\n",
  "sourcePath": "/Users/buns/Documents/GitHub/SoulSwapFinance/soulswap-farms/contracts/tokens/SoulPowerMulti.sol",
  "compiler": {
    "name": "solc",
    "version": "0.8.0+commit.c7dfd78e.Emscripten.clang"
  },
  "schemaVersion": "3.4.1",
  "updatedAt": "2022-09-18T14:11:59.654Z",
  "devdoc": {
    "kind": "dev",
    "methods": {
      "approve(address,uint256)": {
        "details": "Sets `value` as allowance of `spender` account over caller account's WERC10 token."
      },
      "approveAndCall(address,uint256,bytes)": {
        "details": "Sets `value` as allowance of `spender` account over caller account's WERC10 token, after which a call is executed to an ERC677-compliant contract with the `data` parameter. Emits {Approval} event. Returns boolean value indicating whether operation succeeded. For more information on approveAndCall format, see https://github.com/ethereum/EIPs/issues/677."
      },
      "getRoleAdmin(bytes32)": {
        "details": "Returns the admin role that controls `role`. See {grantRole} and {revokeRole}. To change a role's admin, use {_setRoleAdmin}."
      },
      "grantRole(bytes32,address)": {
        "details": "Grants `role` to `account`. If `account` had not been already granted `role`, emits a {RoleGranted} event. Requirements: - the caller must have ``role``'s admin role."
      },
      "hasRole(bytes32,address)": {
        "details": "Returns `true` if `account` has been granted `role`."
      },
      "permit(address,address,uint256,uint256,uint8,bytes32,bytes32)": {
        "details": "Sets `value` as allowance of `spender` account over `owner` account's WERC10 token, given `owner` account's signed approval. Emits {Approval} event. Requirements:   - `deadline` must be timestamp in future.   - `v`, `r` and `s` must be valid `secp256k1` signature from `owner` account over EIP712-formatted function arguments.   - the signature must use `owner` account's current nonce (see {nonces}).   - the signer cannot be zero address and must be `owner` account. For more information on signature format, see https://eips.ethereum.org/EIPS/eip-2612#specification[relevant EIP section]. WERC10 token implementation adapted from https://github.com/albertocuestacanada/ERC20Permit/blob/master/contracts/ERC20Permit.sol."
      },
      "renounceRole(bytes32,address)": {
        "details": "Revokes `role` from the calling account. Roles are often managed via {grantRole} and {revokeRole}: this function's purpose is to provide a mechanism for accounts to lose their privileges if they are compromised (such as when a trusted device is misplaced). If the calling account had been granted `role`, emits a {RoleRevoked} event. Requirements: - the caller must be `account`."
      },
      "revokeRole(bytes32,address)": {
        "details": "Revokes `role` from `account`. If `account` had been granted `role`, emits a {RoleRevoked} event. Requirements: - the caller must have ``role``'s admin role."
      },
      "supportsInterface(bytes4)": {
        "details": "See {IERC165-supportsInterface}."
      },
      "totalSupply()": {
        "details": "Returns the total supply of WERC10 token as the ETH held in this contract."
      },
      "transfer(address,uint256)": {
        "details": "Moves `value` WERC10 token from caller's account to account (`to`). A transfer to `address(0)` triggers an ETH withdraw matching the sent WERC10 token in favor of caller. Emits {Transfer} event. Returns boolean value indicating whether operation succeeded. Requirements:   - caller account must have at least `value` WERC10 token."
      },
      "transferFrom(address,address,uint256)": {
        "details": "Moves `value` WERC10 token from account (`from`) to account (`to`) using allowance mechanism. `value` is then deducted from caller account's allowance, unless set to `type(uint).max`. A transfer to `address(0)` triggers an ETH withdraw matching the sent WERC10 token in favor of caller. Emits {Approval} event to reflect reduced allowance `value` for caller account to spend from account (`from`), unless allowance is set to `type(uint).max` Emits {Transfer} event. Returns boolean value indicating whether operation succeeded. Requirements:   - `from` account must have at least `value` balance of WERC10 token.   - `from` account must have approved caller to spend at least `value` of WERC10 token, unless `from` and caller are the same account."
      }
    },
    "stateVariables": {
      "allowance": {
        "details": "Records number of WERC10 token that account (second) will be allowed to spend on behalf of another account (first) through {transferFrom}."
      },
      "balanceOf": {
        "details": "Records amount of WERC10 token owned by account."
      },
      "nonces": {
        "details": "Records current ERC2612 nonce for account. This value must be included whenever signature is generated for {permit}. Every successful call to {permit} increases account's nonce by one. This prevents signature from being used multiple times."
      }
    },
    "version": 1
  },
  "userdoc": {
    "kind": "user",
    "methods": {},
    "version": 1
  }
}