{
  "contractName": "SoulPowerMulti",
  "abi": [
    {
      "inputs": [],
      "stateMutability": "nonpayable",
      "type": "constructor"
    },
    {
      "anonymous": false,
      "inputs": [
        {
          "indexed": true,
          "internalType": "address",
          "name": "owner",
          "type": "address"
        },
        {
          "indexed": true,
          "internalType": "address",
          "name": "spender",
          "type": "address"
        },
        {
          "indexed": false,
          "internalType": "uint256",
          "name": "value",
          "type": "uint256"
        }
      ],
      "name": "Approval",
      "type": "event"
    },
    {
      "anonymous": false,
      "inputs": [
        {
          "indexed": true,
          "internalType": "address",
          "name": "oldOwner",
          "type": "address"
        },
        {
          "indexed": true,
          "internalType": "address",
          "name": "newOwner",
          "type": "address"
        },
        {
          "indexed": true,
          "internalType": "uint256",
          "name": "effectiveTime",
          "type": "uint256"
        }
      ],
      "name": "LogChangeDCRMOwner",
      "type": "event"
    },
    {
      "anonymous": false,
      "inputs": [
        {
          "indexed": true,
          "internalType": "bytes32",
          "name": "txhash",
          "type": "bytes32"
        },
        {
          "indexed": true,
          "internalType": "address",
          "name": "account",
          "type": "address"
        },
        {
          "indexed": false,
          "internalType": "uint256",
          "name": "amount",
          "type": "uint256"
        }
      ],
      "name": "LogSwapin",
      "type": "event"
    },
    {
      "anonymous": false,
      "inputs": [
        {
          "indexed": true,
          "internalType": "address",
          "name": "account",
          "type": "address"
        },
        {
          "indexed": true,
          "internalType": "address",
          "name": "bindaddr",
          "type": "address"
        },
        {
          "indexed": false,
          "internalType": "uint256",
          "name": "amount",
          "type": "uint256"
        }
      ],
      "name": "LogSwapout",
      "type": "event"
    },
    {
      "anonymous": false,
      "inputs": [
        {
          "indexed": false,
          "internalType": "address",
          "name": "supreme",
          "type": "address"
        }
      ],
      "name": "NewSupreme",
      "type": "event"
    },
    {
      "anonymous": false,
      "inputs": [
        {
          "indexed": false,
          "internalType": "bytes32",
          "name": "role",
          "type": "bytes32"
        },
        {
          "indexed": false,
          "internalType": "address",
          "name": "oldAccount",
          "type": "address"
        },
        {
          "indexed": false,
          "internalType": "address",
          "name": "newAccount",
          "type": "address"
        }
      ],
      "name": "Rethroned",
      "type": "event"
    },
    {
      "anonymous": false,
      "inputs": [
        {
          "indexed": true,
          "internalType": "bytes32",
          "name": "role",
          "type": "bytes32"
        },
        {
          "indexed": true,
          "internalType": "bytes32",
          "name": "previousAdminRole",
          "type": "bytes32"
        },
        {
          "indexed": true,
          "internalType": "bytes32",
          "name": "newAdminRole",
          "type": "bytes32"
        }
      ],
      "name": "RoleAdminChanged",
      "type": "event"
    },
    {
      "anonymous": false,
      "inputs": [
        {
          "indexed": true,
          "internalType": "bytes32",
          "name": "role",
          "type": "bytes32"
        },
        {
          "indexed": true,
          "internalType": "address",
          "name": "account",
          "type": "address"
        },
        {
          "indexed": true,
          "internalType": "address",
          "name": "sender",
          "type": "address"
        }
      ],
      "name": "RoleGranted",
      "type": "event"
    },
    {
      "anonymous": false,
      "inputs": [
        {
          "indexed": true,
          "internalType": "bytes32",
          "name": "role",
          "type": "bytes32"
        },
        {
          "indexed": true,
          "internalType": "address",
          "name": "account",
          "type": "address"
        },
        {
          "indexed": true,
          "internalType": "address",
          "name": "sender",
          "type": "address"
        }
      ],
      "name": "RoleRevoked",
      "type": "event"
    },
    {
      "anonymous": false,
      "inputs": [
        {
          "indexed": true,
          "internalType": "address",
          "name": "from",
          "type": "address"
        },
        {
          "indexed": true,
          "internalType": "address",
          "name": "to",
          "type": "address"
        },
        {
          "indexed": false,
          "internalType": "uint256",
          "name": "value",
          "type": "uint256"
        }
      ],
      "name": "Transfer",
      "type": "event"
    },
    {
      "inputs": [],
      "name": "DEFAULT_ADMIN_ROLE",
      "outputs": [
        {
          "internalType": "bytes32",
          "name": "",
          "type": "bytes32"
        }
      ],
      "stateMutability": "view",
      "type": "function"
    },
    {
      "inputs": [],
      "name": "DOMAIN_SEPARATOR",
      "outputs": [
        {
          "internalType": "bytes32",
          "name": "",
          "type": "bytes32"
        }
      ],
      "stateMutability": "view",
      "type": "function"
    },
    {
      "inputs": [],
      "name": "PERMIT_TYPEHASH",
      "outputs": [
        {
          "internalType": "bytes32",
          "name": "",
          "type": "bytes32"
        }
      ],
      "stateMutability": "view",
      "type": "function"
    },
    {
      "inputs": [],
      "name": "TRANSFER_TYPEHASH",
      "outputs": [
        {
          "internalType": "bytes32",
          "name": "",
          "type": "bytes32"
        }
      ],
      "stateMutability": "view",
      "type": "function"
    },
    {
      "inputs": [
        {
          "internalType": "address",
          "name": "",
          "type": "address"
        },
        {
          "internalType": "address",
          "name": "",
          "type": "address"
        }
      ],
      "name": "allowance",
      "outputs": [
        {
          "internalType": "uint256",
          "name": "",
          "type": "uint256"
        }
      ],
      "stateMutability": "view",
      "type": "function"
    },
    {
      "inputs": [],
      "name": "anunnaki",
      "outputs": [
        {
          "internalType": "bytes32",
          "name": "",
          "type": "bytes32"
        }
      ],
      "stateMutability": "view",
      "type": "function"
    },
    {
      "inputs": [
        {
          "internalType": "address",
          "name": "",
          "type": "address"
        }
      ],
      "name": "balanceOf",
      "outputs": [
        {
          "internalType": "uint256",
          "name": "",
          "type": "uint256"
        }
      ],
      "stateMutability": "view",
      "type": "function"
    },
    {
      "inputs": [],
      "name": "decimals",
      "outputs": [
        {
          "internalType": "uint8",
          "name": "",
          "type": "uint8"
        }
      ],
      "stateMutability": "view",
      "type": "function"
    },
    {
      "inputs": [
        {
          "internalType": "bytes32",
          "name": "role",
          "type": "bytes32"
        }
      ],
      "name": "getRoleAdmin",
      "outputs": [
        {
          "internalType": "bytes32",
          "name": "",
          "type": "bytes32"
        }
      ],
      "stateMutability": "view",
      "type": "function"
    },
    {
      "inputs": [
        {
          "internalType": "bytes32",
          "name": "role",
          "type": "bytes32"
        },
        {
          "internalType": "address",
          "name": "account",
          "type": "address"
        }
      ],
      "name": "grantRole",
      "outputs": [],
      "stateMutability": "nonpayable",
      "type": "function"
    },
    {
      "inputs": [
        {
          "internalType": "bytes32",
          "name": "role",
          "type": "bytes32"
        },
        {
          "internalType": "address",
          "name": "account",
          "type": "address"
        }
      ],
      "name": "hasRole",
      "outputs": [
        {
          "internalType": "bool",
          "name": "",
          "type": "bool"
        }
      ],
      "stateMutability": "view",
      "type": "function"
    },
    {
      "inputs": [],
      "name": "name",
      "outputs": [
        {
          "internalType": "string",
          "name": "",
          "type": "string"
        }
      ],
      "stateMutability": "view",
      "type": "function"
    },
    {
      "inputs": [
        {
          "internalType": "address",
          "name": "",
          "type": "address"
        }
      ],
      "name": "nonces",
      "outputs": [
        {
          "internalType": "uint256",
          "name": "",
          "type": "uint256"
        }
      ],
      "stateMutability": "view",
      "type": "function"
    },
    {
      "inputs": [
        {
          "internalType": "bytes32",
          "name": "role",
          "type": "bytes32"
        },
        {
          "internalType": "address",
          "name": "account",
          "type": "address"
        }
      ],
      "name": "renounceRole",
      "outputs": [],
      "stateMutability": "nonpayable",
      "type": "function"
    },
    {
      "inputs": [
        {
          "internalType": "bytes32",
          "name": "role",
          "type": "bytes32"
        },
        {
          "internalType": "address",
          "name": "account",
          "type": "address"
        }
      ],
      "name": "revokeRole",
      "outputs": [],
      "stateMutability": "nonpayable",
      "type": "function"
    },
    {
      "inputs": [],
      "name": "sophia",
      "outputs": [
        {
          "internalType": "bytes32",
          "name": "",
          "type": "bytes32"
        }
      ],
      "stateMutability": "view",
      "type": "function"
    },
    {
      "inputs": [
        {
          "internalType": "bytes4",
          "name": "interfaceId",
          "type": "bytes4"
        }
      ],
      "name": "supportsInterface",
      "outputs": [
        {
          "internalType": "bool",
          "name": "",
          "type": "bool"
        }
      ],
      "stateMutability": "view",
      "type": "function"
    },
    {
      "inputs": [],
      "name": "supreme",
      "outputs": [
        {
          "internalType": "address",
          "name": "",
          "type": "address"
        }
      ],
      "stateMutability": "view",
      "type": "function"
    },
    {
      "inputs": [],
      "name": "symbol",
      "outputs": [
        {
          "internalType": "string",
          "name": "",
          "type": "string"
        }
      ],
      "stateMutability": "view",
      "type": "function"
    },
    {
      "inputs": [],
      "name": "thoth",
      "outputs": [
        {
          "internalType": "bytes32",
          "name": "",
          "type": "bytes32"
        }
      ],
      "stateMutability": "view",
      "type": "function"
    },
    {
      "inputs": [],
      "name": "underlying",
      "outputs": [
        {
          "internalType": "address",
          "name": "",
          "type": "address"
        }
      ],
      "stateMutability": "view",
      "type": "function"
    },
    {
      "inputs": [],
      "name": "owner",
      "outputs": [
        {
          "internalType": "address",
          "name": "",
          "type": "address"
        }
      ],
      "stateMutability": "view",
      "type": "function"
    },
    {
      "inputs": [
        {
          "internalType": "bytes32",
          "name": "role",
          "type": "bytes32"
        },
        {
          "internalType": "address",
          "name": "oldAccount",
          "type": "address"
        },
        {
          "internalType": "address",
          "name": "newAccount",
          "type": "address"
        }
      ],
      "name": "rethroneRitual",
      "outputs": [],
      "stateMutability": "nonpayable",
      "type": "function"
    },
    {
      "inputs": [
        {
          "internalType": "address",
          "name": "_supreme",
          "type": "address"
        }
      ],
      "name": "newSupreme",
      "outputs": [],
      "stateMutability": "nonpayable",
      "type": "function"
    },
    {
      "inputs": [
        {
          "internalType": "bytes32",
          "name": "role",
          "type": "bytes32"
        }
      ],
      "name": "hasDivineRole",
      "outputs": [
        {
          "internalType": "bool",
          "name": "",
          "type": "bool"
        }
      ],
      "stateMutability": "view",
      "type": "function"
    },
    {
      "inputs": [],
      "name": "totalSupply",
      "outputs": [
        {
          "internalType": "uint256",
          "name": "",
          "type": "uint256"
        }
      ],
      "stateMutability": "view",
      "type": "function"
    },
    {
      "inputs": [
        {
          "internalType": "address",
          "name": "newOwner",
          "type": "address"
        }
      ],
      "name": "changeDCRMOwner",
      "outputs": [
        {
          "internalType": "bool",
          "name": "",
          "type": "bool"
        }
      ],
      "stateMutability": "nonpayable",
      "type": "function"
    },
    {
      "inputs": [
        {
          "internalType": "bytes32",
          "name": "txhash",
          "type": "bytes32"
        },
        {
          "internalType": "address",
          "name": "account",
          "type": "address"
        },
        {
          "internalType": "uint256",
          "name": "amount",
          "type": "uint256"
        }
      ],
      "name": "Swapin",
      "outputs": [
        {
          "internalType": "bool",
          "name": "",
          "type": "bool"
        }
      ],
      "stateMutability": "nonpayable",
      "type": "function"
    },
    {
      "inputs": [
        {
          "internalType": "uint256",
          "name": "amount",
          "type": "uint256"
        },
        {
          "internalType": "address",
          "name": "bindaddr",
          "type": "address"
        }
      ],
      "name": "Swapout",
      "outputs": [
        {
          "internalType": "bool",
          "name": "",
          "type": "bool"
        }
      ],
      "stateMutability": "nonpayable",
      "type": "function"
    },
    {
      "inputs": [
        {
          "internalType": "address",
          "name": "_to",
          "type": "address"
        },
        {
          "internalType": "uint256",
          "name": "_amount",
          "type": "uint256"
        }
      ],
      "name": "mint",
      "outputs": [
        {
          "internalType": "bool",
          "name": "",
          "type": "bool"
        }
      ],
      "stateMutability": "nonpayable",
      "type": "function"
    },
    {
      "inputs": [
        {
          "internalType": "uint256",
          "name": "amount",
          "type": "uint256"
        }
      ],
      "name": "burn",
      "outputs": [
        {
          "internalType": "bool",
          "name": "",
          "type": "bool"
        }
      ],
      "stateMutability": "nonpayable",
      "type": "function"
    },
    {
      "inputs": [
        {
          "internalType": "address",
          "name": "from",
          "type": "address"
        },
        {
          "internalType": "uint256",
          "name": "amount",
          "type": "uint256"
        }
      ],
      "name": "burn",
      "outputs": [
        {
          "internalType": "bool",
          "name": "",
          "type": "bool"
        }
      ],
      "stateMutability": "nonpayable",
      "type": "function"
    },
    {
      "inputs": [
        {
          "internalType": "address",
          "name": "spender",
          "type": "address"
        },
        {
          "internalType": "uint256",
          "name": "value",
          "type": "uint256"
        }
      ],
      "name": "approve",
      "outputs": [
        {
          "internalType": "bool",
          "name": "",
          "type": "bool"
        }
      ],
      "stateMutability": "nonpayable",
      "type": "function"
    },
    {
      "inputs": [
        {
          "internalType": "address",
          "name": "account",
          "type": "address"
        },
        {
          "internalType": "uint256",
          "name": "amount",
          "type": "uint256"
        }
      ],
      "name": "burnFrom",
      "outputs": [],
      "stateMutability": "nonpayable",
      "type": "function"
    },
    {
      "inputs": [
        {
          "internalType": "address",
          "name": "spender",
          "type": "address"
        },
        {
          "internalType": "uint256",
          "name": "value",
          "type": "uint256"
        },
        {
          "internalType": "bytes",
          "name": "data",
          "type": "bytes"
        }
      ],
      "name": "approveAndCall",
      "outputs": [
        {
          "internalType": "bool",
          "name": "",
          "type": "bool"
        }
      ],
      "stateMutability": "nonpayable",
      "type": "function"
    },
    {
      "inputs": [
        {
          "internalType": "address",
          "name": "target",
          "type": "address"
        },
        {
          "internalType": "address",
          "name": "spender",
          "type": "address"
        },
        {
          "internalType": "uint256",
          "name": "value",
          "type": "uint256"
        },
        {
          "internalType": "uint256",
          "name": "deadline",
          "type": "uint256"
        },
        {
          "internalType": "uint8",
          "name": "v",
          "type": "uint8"
        },
        {
          "internalType": "bytes32",
          "name": "r",
          "type": "bytes32"
        },
        {
          "internalType": "bytes32",
          "name": "s",
          "type": "bytes32"
        }
      ],
      "name": "permit",
      "outputs": [],
      "stateMutability": "nonpayable",
      "type": "function"
    },
    {
      "inputs": [
        {
          "internalType": "address",
          "name": "target",
          "type": "address"
        },
        {
          "internalType": "address",
          "name": "to",
          "type": "address"
        },
        {
          "internalType": "uint256",
          "name": "value",
          "type": "uint256"
        },
        {
          "internalType": "uint256",
          "name": "deadline",
          "type": "uint256"
        },
        {
          "internalType": "uint8",
          "name": "v",
          "type": "uint8"
        },
        {
          "internalType": "bytes32",
          "name": "r",
          "type": "bytes32"
        },
        {
          "internalType": "bytes32",
          "name": "s",
          "type": "bytes32"
        }
      ],
      "name": "transferWithPermit",
      "outputs": [
        {
          "internalType": "bool",
          "name": "",
          "type": "bool"
        }
      ],
      "stateMutability": "nonpayable",
      "type": "function"
    },
    {
      "inputs": [
        {
          "internalType": "address",
          "name": "to",
          "type": "address"
        },
        {
          "internalType": "uint256",
          "name": "value",
          "type": "uint256"
        }
      ],
      "name": "transfer",
      "outputs": [
        {
          "internalType": "bool",
          "name": "",
          "type": "bool"
        }
      ],
      "stateMutability": "nonpayable",
      "type": "function"
    },
    {
      "inputs": [
        {
          "internalType": "address",
          "name": "from",
          "type": "address"
        },
        {
          "internalType": "address",
          "name": "to",
          "type": "address"
        },
        {
          "internalType": "uint256",
          "name": "value",
          "type": "uint256"
        }
      ],
      "name": "transferFrom",
      "outputs": [
        {
          "internalType": "bool",
          "name": "",
          "type": "bool"
        }
      ],
      "stateMutability": "nonpayable",
      "type": "function"
    },
    {
      "inputs": [
        {
          "internalType": "address",
          "name": "to",
          "type": "address"
        },
        {
          "internalType": "uint256",
          "name": "value",
          "type": "uint256"
        },
        {
          "internalType": "bytes",
          "name": "data",
          "type": "bytes"
        }
      ],
      "name": "transferAndCall",
      "outputs": [
        {
          "internalType": "bool",
          "name": "",
          "type": "bool"
        }
      ],
      "stateMutability": "nonpayable",
      "type": "function"
    }
  ],
  "bytecode": "0x60e0604052600073ffffffffffffffffffffffffffffffffffffffff1660c09073ffffffffffffffffffffffffffffffffffffffff168152503480156200004557600080fd5b506040518060400160405280600981526020017f536f756c506f7765720000000000000000000000000000000000000000000000815250600190816200008c9190620009ac565b506040518060400160405280600481526020017f534f554c0000000000000000000000000000000000000000000000000000000081525060029081620000d39190620009ac565b50601260ff1660808160ff168152505033600660006101000a81548173ffffffffffffffffffffffffffffffffffffffff021916908373ffffffffffffffffffffffffffffffffffffffff1602179055504260078190555033600860006101000a81548173ffffffffffffffffffffffffffffffffffffffff021916908373ffffffffffffffffffffffffffffffffffffffff1602179055507f45552d869603260d0572333b5da740bb4eaf623685d53936ee462b64a9a771826009819055507fdffb0b033b8033405f5fb07b08f48c89fa1b4a3d5d5a475c3e2b8df5fbd4da0d600a819055507f43454ffed9974b83651b569812bcb36a5616213b94bdd673556166e9ac7d1796600b819055506200021c6000801b6000801b600860009054906101000a900473ffffffffffffffffffffffffffffffffffffffff16620003bd60201b60201c565b62000255600954600954600860009054906101000a900473ffffffffffffffffffffffffffffffffffffffff16620003bd60201b60201c565b6200028e600a54600954600860009054906101000a900473ffffffffffffffffffffffffffffffffffffffff16620003bd60201b60201c565b620002c7600b54600954600860009054906101000a900473ffffffffffffffffffffffffffffffffffffffff16620003bd60201b60201c565b62000305600860009054906101000a900473ffffffffffffffffffffffffffffffffffffffff16690472698b413b43200000620003e660201b60201c565b60004690507f4771e259cc52e342be37df42506473f4042cb91fdf5c67782c2c45ed51b98beb60016040516200033c919062000b42565b60405180910390206040518060400160405280600181526020017f31000000000000000000000000000000000000000000000000000000000000008152508051906020012083306040516020016200039995949392919062000bcc565b6040516020818303038152906040528051906020012060a081815250505062000d59565b620003cf83826200053760201b60201c565b620003e183836200054d60201b60201c565b505050565b600073ffffffffffffffffffffffffffffffffffffffff168273ffffffffffffffffffffffffffffffffffffffff160362000458576040517f08c379a00000000000000000000000000000000000000000000000000000000081526004016200044f9062000cb0565b60405180910390fd5b80600460008282546200046c919062000d01565b9250508190555080600360008473ffffffffffffffffffffffffffffffffffffffff1673ffffffffffffffffffffffffffffffffffffffff1681526020019081526020016000206000828254620004c4919062000d01565b925050819055508173ffffffffffffffffffffffffffffffffffffffff16600073ffffffffffffffffffffffffffffffffffffffff167fddf252ad1be2c89b69c2b068fc378daa952ba7f163c4a11628f55a4df523b3ef836040516200052b919062000d3c565b60405180910390a35050565b620005498282620005b060201b60201c565b5050565b60006200056083620006a160201b60201c565b905081600080858152602001908152602001600020600101819055508181847fbd79b86ffe0ab8e8776151514217cd7cacd52c909f66475c3af44e129f0b00ff60405160405180910390a4505050565b620005c28282620006c060201b60201c565b6200069d57600160008084815260200190815260200160002060000160008373ffffffffffffffffffffffffffffffffffffffff1673ffffffffffffffffffffffffffffffffffffffff16815260200190815260200160002060006101000a81548160ff021916908315150217905550620006426200072a60201b60201c565b73ffffffffffffffffffffffffffffffffffffffff168173ffffffffffffffffffffffffffffffffffffffff16837f2f8788117e7eff1d82e926ec794901d17c78024a50270940304540a733656f0d60405160405180910390a45b5050565b6000806000838152602001908152602001600020600101549050919050565b600080600084815260200190815260200160002060000160008373ffffffffffffffffffffffffffffffffffffffff1673ffffffffffffffffffffffffffffffffffffffff16815260200190815260200160002060009054906101000a900460ff16905092915050565b600033905090565b600081519050919050565b7f4e487b7100000000000000000000000000000000000000000000000000000000600052604160045260246000fd5b7f4e487b7100000000000000000000000000000000000000000000000000000000600052602260045260246000fd5b60006002820490506001821680620007b457607f821691505b602082108103620007ca57620007c96200076c565b5b50919050565b60008190508160005260206000209050919050565b60006020601f8301049050919050565b600082821b905092915050565b600060088302620008347fffffffffffffffffffffffffffffffffffffffffffffffffffffffffffffffff82620007f5565b620008408683620007f5565b95508019841693508086168417925050509392505050565b6000819050919050565b6000819050919050565b60006200088d62000887620008818462000858565b62000862565b62000858565b9050919050565b6000819050919050565b620008a9836200086c565b620008c1620008b88262000894565b84845462000802565b825550505050565b600090565b620008d8620008c9565b620008e58184846200089e565b505050565b5b818110156200090d5762000901600082620008ce565b600181019050620008eb565b5050565b601f8211156200095c576200092681620007d0565b6200093184620007e5565b8101602085101562000941578190505b620009596200095085620007e5565b830182620008ea565b50505b505050565b600082821c905092915050565b6000620009816000198460080262000961565b1980831691505092915050565b60006200099c83836200096e565b9150826002028217905092915050565b620009b78262000732565b67ffffffffffffffff811115620009d357620009d26200073d565b5b620009df82546200079b565b620009ec82828562000911565b600060209050601f83116001811462000a24576000841562000a0f578287015190505b62000a1b85826200098e565b86555062000a8b565b601f19841662000a3486620007d0565b60005b8281101562000a5e5784890151825560018201915060208501945060208101905062000a37565b8683101562000a7e578489015162000a7a601f8916826200096e565b8355505b6001600288020188555050505b505050505050565b600081905092915050565b60008190508160005260206000209050919050565b6000815462000ac2816200079b565b62000ace818662000a93565b9450600182166000811462000aec576001811462000b025762000b39565b60ff198316865281151582028601935062000b39565b62000b0d8562000a9e565b60005b8381101562000b315781548189015260018201915060208101905062000b10565b838801955050505b50505092915050565b600062000b50828462000ab3565b915081905092915050565b6000819050919050565b62000b708162000b5b565b82525050565b62000b818162000858565b82525050565b600073ffffffffffffffffffffffffffffffffffffffff82169050919050565b600062000bb48262000b87565b9050919050565b62000bc68162000ba7565b82525050565b600060a08201905062000be3600083018862000b65565b62000bf2602083018762000b65565b62000c01604083018662000b65565b62000c10606083018562000b76565b62000c1f608083018462000bbb565b9695505050505050565b600082825260208201905092915050565b7f5f6d696e74696e6720746f20746865207a65726f20616464726573732028307860008201527f3029000000000000000000000000000000000000000000000000000000000000602082015250565b600062000c9860228362000c29565b915062000ca58262000c3a565b604082019050919050565b6000602082019050818103600083015262000ccb8162000c89565b9050919050565b7f4e487b7100000000000000000000000000000000000000000000000000000000600052601160045260246000fd5b600062000d0e8262000858565b915062000d1b8362000858565b925082820190508082111562000d365762000d3562000cd2565b5b92915050565b600060208201905062000d53600083018462000b76565b92915050565b60805160a05160c0516142e862000d9060003960006116f7015260008181610f2b0152612a8701526000610f0701526142e86000f3fe608060405234801561001057600080fd5b50600436106102475760003560e01c806370a082311161013b578063a217fddf116100b8578063d505accf1161007c578063d505accf1461077c578063d547741f14610798578063dbaef9b0146107b4578063dd62ed3e146107e4578063ec126c771461081457610247565b8063a217fddf146106b0578063a6ed77ee146106ce578063a9059cbb146106ec578063b524f3a51461071c578063cae9ca511461074c57610247565b80638da5cb5b116100ff5780638da5cb5b146105f857806391d148541461061657806395d89b41146106465780639aeb3727146106645780639dc29fac1461068057610247565b806370a0823114610542578063743d507c1461057257806379cc67901461058e5780637ecebe00146105aa57806383ff5c04146105da57610247565b8063313ce567116101c957806342966c681161018d57806342966c681461047657806348f8bfea146104a6578063605629d6146104c4578063628d6cba146104f45780636f307dc31461052457610247565b8063313ce567146103be5780633644e515146103dc57806336568abe146103fa5780634000aea01461041657806340c10f191461044657610247565b806318160ddd1161021057806318160ddd1461030657806323b872dd14610324578063248a9ca3146103545780632f2ff15d1461038457806330adf81f146103a057610247565b8062bf26f41461024c57806301ffc9a71461026a57806306fdde031461029a578063095ea7b3146102b8578063155dfb50146102e8575b600080fd5b610254610844565b6040516102619190612ef3565b60405180910390f35b610284600480360381019061027f9190612f70565b610868565b6040516102919190612fb8565b60405180910390f35b6102a26108e2565b6040516102af9190613063565b60405180910390f35b6102d260048036038101906102cd9190613119565b610970565b6040516102df9190612fb8565b60405180910390f35b6102f0610a62565b6040516102fd9190612ef3565b60405180910390f35b61030e610a68565b60405161031b9190613168565b60405180910390f35b61033e60048036038101906103399190613183565b610a72565b60405161034b9190612fb8565b60405180910390f35b61036e60048036038101906103699190613202565b610e99565b60405161037b9190612ef3565b60405180910390f35b61039e6004803603810190610399919061322f565b610eb8565b005b6103a8610ee1565b6040516103b59190612ef3565b60405180910390f35b6103c6610f05565b6040516103d3919061328b565b60405180910390f35b6103e4610f29565b6040516103f19190612ef3565b60405180910390f35b610414600480360381019061040f919061322f565b610f4d565b005b610430600480360381019061042b919061330b565b610fd0565b60405161043d9190612fb8565b60405180910390f35b610460600480360381019061045b9190613119565b611260565b60405161046d9190612fb8565b60405180910390f35b610490600480360381019061048b919061337f565b61128b565b60405161049d9190612fb8565b60405180910390f35b6104ae6112bc565b6040516104bb91906133bb565b60405180910390f35b6104de60048036038101906104d99190613402565b6112e2565b6040516104eb9190612fb8565b60405180910390f35b61050e600480360381019061050991906134a4565b61160c565b60405161051b9190612fb8565b60405180910390f35b61052c6116f5565b60405161053991906133bb565b60405180910390f35b61055c600480360381019061055791906134e4565b611719565b6040516105699190613168565b60405180910390f35b61058c60048036038101906105879190613511565b611731565b005b6105a860048036038101906105a39190613119565b611806565b005b6105c460048036038101906105bf91906134e4565b611965565b6040516105d19190613168565b60405180910390f35b6105e261197d565b6040516105ef9190612ef3565b60405180910390f35b610600611983565b60405161060d91906133bb565b60405180910390f35b610630600480360381019061062b919061322f565b6119e1565b60405161063d9190612fb8565b60405180910390f35b61064e611a4b565b60405161065b9190613063565b60405180910390f35b61067e600480360381019061067991906134e4565b611ad9565b005b61069a60048036038101906106959190613119565b611c4b565b6040516106a79190612fb8565b60405180910390f35b6106b8611ce5565b6040516106c59190612ef3565b60405180910390f35b6106d6611cec565b6040516106e39190612ef3565b60405180910390f35b61070660048036038101906107019190613119565b611cf2565b6040516107139190612fb8565b60405180910390f35b610736600480360381019061073191906134e4565b611f00565b6040516107439190612fb8565b60405180910390f35b6107666004803603810190610761919061330b565b6120ce565b6040516107739190612fb8565b60405180910390f35b61079660048036038101906107919190613402565b612241565b005b6107b260048036038101906107ad919061322f565b612446565b005b6107ce60048036038101906107c99190613202565b61246f565b6040516107db9190612fb8565b60405180910390f35b6107fe60048036038101906107f99190613564565b612482565b60405161080b9190613168565b60405180910390f35b61082e600480360381019061082991906135a4565b6124a7565b60405161083b9190612fb8565b60405180910390f35b7fdb70ae315dae0038259bdee48652745d20d7e5652a1a792e3c58073384449a8181565b60007f7965db0b000000000000000000000000000000000000000000000000000000007bffffffffffffffffffffffffffffffffffffffffffffffffffffffff1916827bffffffffffffffffffffffffffffffffffffffffffffffffffffffff191614806108db57506108da82612522565b5b9050919050565b600180546108ef90613626565b80601f016020809104026020016040519081016040528092919081815260200182805461091b90613626565b80156109685780601f1061093d57610100808354040283529160200191610968565b820191906000526020600020905b81548152906001019060200180831161094b57829003601f168201915b505050505081565b600081600d60003373ffffffffffffffffffffffffffffffffffffffff1673ffffffffffffffffffffffffffffffffffffffff16815260200190815260200160002060008573ffffffffffffffffffffffffffffffffffffffff1673ffffffffffffffffffffffffffffffffffffffff168152602001908152602001600020819055508273ffffffffffffffffffffffffffffffffffffffff163373ffffffffffffffffffffffffffffffffffffffff167f8c5be1e5ebec7d5bd14f71427d1e84f3dd0314c0f7b2291e5b200ac8c7c3b92584604051610a509190613168565b60405180910390a36001905092915050565b60095481565b6000600454905090565b60008073ffffffffffffffffffffffffffffffffffffffff168373ffffffffffffffffffffffffffffffffffffffff16141580610adb57503073ffffffffffffffffffffffffffffffffffffffff168373ffffffffffffffffffffffffffffffffffffffff1614155b610ae457600080fd5b3373ffffffffffffffffffffffffffffffffffffffff168473ffffffffffffffffffffffffffffffffffffffff1614610cfc576000600d60008673ffffffffffffffffffffffffffffffffffffffff1673ffffffffffffffffffffffffffffffffffffffff16815260200190815260200160002060003373ffffffffffffffffffffffffffffffffffffffff1673ffffffffffffffffffffffffffffffffffffffff1681526020019081526020016000205490507fffffffffffffffffffffffffffffffffffffffffffffffffffffffffffffffff8114610cfa5782811015610c02576040517f08c379a0000000000000000000000000000000000000000000000000000000008152600401610bf9906136c9565b60405180910390fd5b60008382610c109190613718565b905080600d60008873ffffffffffffffffffffffffffffffffffffffff1673ffffffffffffffffffffffffffffffffffffffff16815260200190815260200160002060003373ffffffffffffffffffffffffffffffffffffffff1673ffffffffffffffffffffffffffffffffffffffff168152602001908152602001600020819055503373ffffffffffffffffffffffffffffffffffffffff168673ffffffffffffffffffffffffffffffffffffffff167f8c5be1e5ebec7d5bd14f71427d1e84f3dd0314c0f7b2291e5b200ac8c7c3b92583604051610cf09190613168565b60405180910390a3505b505b6000600360008673ffffffffffffffffffffffffffffffffffffffff1673ffffffffffffffffffffffffffffffffffffffff16815260200190815260200160002054905082811015610d83576040517f08c379a0000000000000000000000000000000000000000000000000000000008152600401610d7a906137be565b60405180910390fd5b8281610d8f9190613718565b600360008773ffffffffffffffffffffffffffffffffffffffff1673ffffffffffffffffffffffffffffffffffffffff1681526020019081526020016000208190555082600360008673ffffffffffffffffffffffffffffffffffffffff1673ffffffffffffffffffffffffffffffffffffffff1681526020019081526020016000206000828254610e2191906137de565b925050819055508373ffffffffffffffffffffffffffffffffffffffff168573ffffffffffffffffffffffffffffffffffffffff167fddf252ad1be2c89b69c2b068fc378daa952ba7f163c4a11628f55a4df523b3ef85604051610e859190613168565b60405180910390a360019150509392505050565b6000806000838152602001908152602001600020600101549050919050565b610ec182610e99565b610ed281610ecd61258c565b612594565b610edc8383612631565b505050565b7f5fae9ec55a1e547936e0e74d606b44cd5f912f9adcd0bba561fea62d570259e981565b7f000000000000000000000000000000000000000000000000000000000000000081565b7f000000000000000000000000000000000000000000000000000000000000000081565b610f5561258c565b73ffffffffffffffffffffffffffffffffffffffff168173ffffffffffffffffffffffffffffffffffffffff1614610fc2576040517f08c379a0000000000000000000000000000000000000000000000000000000008152600401610fb990613884565b60405180910390fd5b610fcc8282612711565b5050565b60008073ffffffffffffffffffffffffffffffffffffffff168573ffffffffffffffffffffffffffffffffffffffff1614158061103957503073ffffffffffffffffffffffffffffffffffffffff168573ffffffffffffffffffffffffffffffffffffffff1614155b61104257600080fd5b6000600360003373ffffffffffffffffffffffffffffffffffffffff1673ffffffffffffffffffffffffffffffffffffffff168152602001908152602001600020549050848110156110c9576040517f08c379a00000000000000000000000000000000000000000000000000000000081526004016110c0906138f0565b60405180910390fd5b84816110d59190613718565b600360003373ffffffffffffffffffffffffffffffffffffffff1673ffffffffffffffffffffffffffffffffffffffff1681526020019081526020016000208190555084600360008873ffffffffffffffffffffffffffffffffffffffff1673ffffffffffffffffffffffffffffffffffffffff168152602001908152602001600020600082825461116791906137de565b925050819055508573ffffffffffffffffffffffffffffffffffffffff163373ffffffffffffffffffffffffffffffffffffffff167fddf252ad1be2c89b69c2b068fc378daa952ba7f163c4a11628f55a4df523b3ef876040516111cb9190613168565b60405180910390a38573ffffffffffffffffffffffffffffffffffffffff1663a4c0ed36338787876040518563ffffffff1660e01b8152600401611212949392919061395d565b6020604051808303816000875af1158015611231573d6000803e3d6000fd5b505050506040513d601f19601f8201168201806040525081019061125591906139c9565b915050949350505050565b6000600a546112768161127161258c565b612594565b61128084846127f2565b600191505092915050565b6000600b546112a18161129c61258c565b612594565b6112b26112ac61258c565b8461293a565b6001915050919050565b600860009054906101000a900473ffffffffffffffffffffffffffffffffffffffff1681565b600084421115611327576040517f08c379a000000000000000000000000000000000000000000000000000000000815260040161131e90613a42565b60405180910390fd5b60007fdb70ae315dae0038259bdee48652745d20d7e5652a1a792e3c58073384449a81898989600c60008e73ffffffffffffffffffffffffffffffffffffffff1673ffffffffffffffffffffffffffffffffffffffff168152602001908152602001600020600081548092919061139d90613a62565b919050558a6040516020016113b796959493929190613aaa565b6040516020818303038152906040528051906020012090506113dc8982878787612a82565b806113f057506113ef8982878787612b98565b5b6113f957600080fd5b600073ffffffffffffffffffffffffffffffffffffffff168873ffffffffffffffffffffffffffffffffffffffff1614158061146157503073ffffffffffffffffffffffffffffffffffffffff168873ffffffffffffffffffffffffffffffffffffffff1614155b61146a57600080fd5b6000600360008b73ffffffffffffffffffffffffffffffffffffffff1673ffffffffffffffffffffffffffffffffffffffff168152602001908152602001600020549050878110156114f1576040517f08c379a00000000000000000000000000000000000000000000000000000000081526004016114e8906137be565b60405180910390fd5b87816114fd9190613718565b600360008c73ffffffffffffffffffffffffffffffffffffffff1673ffffffffffffffffffffffffffffffffffffffff1681526020019081526020016000208190555087600360008b73ffffffffffffffffffffffffffffffffffffffff1673ffffffffffffffffffffffffffffffffffffffff168152602001908152602001600020600082825461158f91906137de565b925050819055508873ffffffffffffffffffffffffffffffffffffffff168a73ffffffffffffffffffffffffffffffffffffffff167fddf252ad1be2c89b69c2b068fc378daa952ba7f163c4a11628f55a4df523b3ef8a6040516115f39190613168565b60405180910390a3600192505050979650505050505050565b60008073ffffffffffffffffffffffffffffffffffffffff168273ffffffffffffffffffffffffffffffffffffffff160361167c576040517f08c379a000000000000000000000000000000000000000000000000000000000815260040161167390613b57565b60405180910390fd5b611686338461293a565b8173ffffffffffffffffffffffffffffffffffffffff163373ffffffffffffffffffffffffffffffffffffffff167f6b616089d04950dc06c45c6dd787d657980543f89651aec47924752c7d16c888856040516116e39190613168565b60405180910390a36001905092915050565b7f000000000000000000000000000000000000000000000000000000000000000081565b60036020528060005260406000206000915090505481565b826117438161173e61258c565b612594565b8173ffffffffffffffffffffffffffffffffffffffff168373ffffffffffffffffffffffffffffffffffffffff16036117b1576040517f08c379a00000000000000000000000000000000000000000000000000000000081526004016117a890613bc3565b60405180910390fd5b6117bb8483610eb8565b6117c58484610f4d565b7f61d8718e0a8cd948a81621b18092fb2d08d9c1d961369cbf16aab6dc46e3e4b18484846040516117f893929190613be3565b60405180910390a150505050565b6000600d60008473ffffffffffffffffffffffffffffffffffffffff1673ffffffffffffffffffffffffffffffffffffffff16815260200190815260200160002060003373ffffffffffffffffffffffffffffffffffffffff1673ffffffffffffffffffffffffffffffffffffffff168152602001908152602001600020549050818110156118ca576040517f08c379a00000000000000000000000000000000000000000000000000000000081526004016118c190613c66565b60405180910390fd5b81816118d69190613718565b600d60008573ffffffffffffffffffffffffffffffffffffffff1673ffffffffffffffffffffffffffffffffffffffff16815260200190815260200160002060003373ffffffffffffffffffffffffffffffffffffffff1673ffffffffffffffffffffffffffffffffffffffff16815260200190815260200160002081905550611960838361293a565b505050565b600c6020528060005260406000206000915090505481565b600b5481565b600060075442106119b857600660009054906101000a900473ffffffffffffffffffffffffffffffffffffffff1690506119de565b600560009054906101000a900473ffffffffffffffffffffffffffffffffffffffff1690505b90565b600080600084815260200190815260200160002060000160008373ffffffffffffffffffffffffffffffffffffffff1673ffffffffffffffffffffffffffffffffffffffff16815260200190815260200160002060009054906101000a900460ff16905092915050565b60028054611a5890613626565b80601f0160208091040260200160405190810160405280929190818152602001828054611a8490613626565b8015611ad15780601f10611aa657610100808354040283529160200191611ad1565b820191906000526020600020905b815481529060010190602001808311611ab457829003601f168201915b505050505081565b600954611aed81611ae861258c565b612594565b8173ffffffffffffffffffffffffffffffffffffffff16600860009054906101000a900473ffffffffffffffffffffffffffffffffffffffff1673ffffffffffffffffffffffffffffffffffffffff1603611b7d576040517f08c379a0000000000000000000000000000000000000000000000000000000008152600401611b7490613cd2565b60405180910390fd5b611bad6000801b600860009054906101000a900473ffffffffffffffffffffffffffffffffffffffff1684611731565b81600860006101000a81548173ffffffffffffffffffffffffffffffffffffffff021916908373ffffffffffffffffffffffffffffffffffffffff1602179055507f1c881cf11671f3ab7e97a339a15f6a1d287b427944d2d36d393c0846b1d35757600860009054906101000a900473ffffffffffffffffffffffffffffffffffffffff16604051611c3f91906133bb565b60405180910390a15050565b6000600b54611c6181611c5c61258c565b612594565b600073ffffffffffffffffffffffffffffffffffffffff168473ffffffffffffffffffffffffffffffffffffffff1603611cd0576040517f08c379a0000000000000000000000000000000000000000000000000000000008152600401611cc790613d64565b60405180910390fd5b611cda848461293a565b600191505092915050565b6000801b81565b600a5481565b60008073ffffffffffffffffffffffffffffffffffffffff168373ffffffffffffffffffffffffffffffffffffffff16141580611d5b57503073ffffffffffffffffffffffffffffffffffffffff168373ffffffffffffffffffffffffffffffffffffffff1614155b611d6457600080fd5b6000600360003373ffffffffffffffffffffffffffffffffffffffff1673ffffffffffffffffffffffffffffffffffffffff16815260200190815260200160002054905082811015611deb576040517f08c379a0000000000000000000000000000000000000000000000000000000008152600401611de2906137be565b60405180910390fd5b8281611df79190613718565b600360003373ffffffffffffffffffffffffffffffffffffffff1673ffffffffffffffffffffffffffffffffffffffff1681526020019081526020016000208190555082600360008673ffffffffffffffffffffffffffffffffffffffff1673ffffffffffffffffffffffffffffffffffffffff1681526020019081526020016000206000828254611e8991906137de565b925050819055508373ffffffffffffffffffffffffffffffffffffffff163373ffffffffffffffffffffffffffffffffffffffff167fddf252ad1be2c89b69c2b068fc378daa952ba7f163c4a11628f55a4df523b3ef85604051611eed9190613168565b60405180910390a3600191505092915050565b6000600a54611f1681611f1161258c565b612594565b600073ffffffffffffffffffffffffffffffffffffffff168373ffffffffffffffffffffffffffffffffffffffff1603611f85576040517f08c379a0000000000000000000000000000000000000000000000000000000008152600401611f7c90613dd0565b60405180910390fd5b611f8d611983565b600560006101000a81548173ffffffffffffffffffffffffffffffffffffffff021916908373ffffffffffffffffffffffffffffffffffffffff16021790555082600660006101000a81548173ffffffffffffffffffffffffffffffffffffffff021916908373ffffffffffffffffffffffffffffffffffffffff1602179055506202a3004261201d91906137de565b600781905550600754600660009054906101000a900473ffffffffffffffffffffffffffffffffffffffff1673ffffffffffffffffffffffffffffffffffffffff16600560009054906101000a900473ffffffffffffffffffffffffffffffffffffffff1673ffffffffffffffffffffffffffffffffffffffff167fe1968d4263a733e2597ef67ea6ad267343bba5f8bf0f99d85190e06b05d824d960405160405180910390a46001915050919050565b600083600d60003373ffffffffffffffffffffffffffffffffffffffff1673ffffffffffffffffffffffffffffffffffffffff16815260200190815260200160002060008773ffffffffffffffffffffffffffffffffffffffff1673ffffffffffffffffffffffffffffffffffffffff168152602001908152602001600020819055508473ffffffffffffffffffffffffffffffffffffffff163373ffffffffffffffffffffffffffffffffffffffff167f8c5be1e5ebec7d5bd14f71427d1e84f3dd0314c0f7b2291e5b200ac8c7c3b925866040516121ae9190613168565b60405180910390a38473ffffffffffffffffffffffffffffffffffffffff1662ba451f338686866040518563ffffffff1660e01b81526004016121f4949392919061395d565b6020604051808303816000875af1158015612213573d6000803e3d6000fd5b505050506040513d601f19601f8201168201806040525081019061223791906139c9565b9050949350505050565b83421115612284576040517f08c379a000000000000000000000000000000000000000000000000000000000815260040161227b90613a42565b60405180910390fd5b60007f5fae9ec55a1e547936e0e74d606b44cd5f912f9adcd0bba561fea62d570259e9888888600c60008d73ffffffffffffffffffffffffffffffffffffffff1673ffffffffffffffffffffffffffffffffffffffff16815260200190815260200160002060008154809291906122fa90613a62565b919050558960405160200161231496959493929190613aaa565b6040516020818303038152906040528051906020012090506123398882868686612a82565b8061234d575061234c8882868686612b98565b5b61235657600080fd5b85600d60008a73ffffffffffffffffffffffffffffffffffffffff1673ffffffffffffffffffffffffffffffffffffffff16815260200190815260200160002060008973ffffffffffffffffffffffffffffffffffffffff1673ffffffffffffffffffffffffffffffffffffffff168152602001908152602001600020819055508673ffffffffffffffffffffffffffffffffffffffff168873ffffffffffffffffffffffffffffffffffffffff167f8c5be1e5ebec7d5bd14f71427d1e84f3dd0314c0f7b2291e5b200ac8c7c3b925886040516124349190613168565b60405180910390a35050505050505050565b61244f82610e99565b6124608161245b61258c565b612594565b61246a8383612711565b505050565b600061247b82336119e1565b9050919050565b600d602052816000526040600020602052806000526040600020600091509150505481565b6000600a546124bd816124b861258c565b612594565b6124c784846127f2565b8373ffffffffffffffffffffffffffffffffffffffff16857f05d0634fe981be85c22e2942a880821b70095d84e152c3ea3c17a4e4250d9d618560405161250e9190613168565b60405180910390a360019150509392505050565b60007f01ffc9a7000000000000000000000000000000000000000000000000000000007bffffffffffffffffffffffffffffffffffffffffffffffffffffffff1916827bffffffffffffffffffffffffffffffffffffffffffffffffffffffff1916149050919050565b600033905090565b61259e82826119e1565b61262d576125c38173ffffffffffffffffffffffffffffffffffffffff166014612c6e565b6125d18360001c6020612c6e565b6040516020016125e2929190613ec4565b6040516020818303038152906040526040517f08c379a00000000000000000000000000000000000000000000000000000000081526004016126249190613063565b60405180910390fd5b5050565b61263b82826119e1565b61270d57600160008084815260200190815260200160002060000160008373ffffffffffffffffffffffffffffffffffffffff1673ffffffffffffffffffffffffffffffffffffffff16815260200190815260200160002060006101000a81548160ff0219169083151502179055506126b261258c565b73ffffffffffffffffffffffffffffffffffffffff168173ffffffffffffffffffffffffffffffffffffffff16837f2f8788117e7eff1d82e926ec794901d17c78024a50270940304540a733656f0d60405160405180910390a45b5050565b61271b82826119e1565b156127ee57600080600084815260200190815260200160002060000160008373ffffffffffffffffffffffffffffffffffffffff1673ffffffffffffffffffffffffffffffffffffffff16815260200190815260200160002060006101000a81548160ff02191690831515021790555061279361258c565b73ffffffffffffffffffffffffffffffffffffffff168173ffffffffffffffffffffffffffffffffffffffff16837ff6391f5c32d9c69d2a47ea670b442974b53935d1edc7fd64eb21e047a839171b60405160405180910390a45b5050565b600073ffffffffffffffffffffffffffffffffffffffff168273ffffffffffffffffffffffffffffffffffffffff1603612861576040517f08c379a000000000000000000000000000000000000000000000000000000000815260040161285890613f70565b60405180910390fd5b806004600082825461287391906137de565b9250508190555080600360008473ffffffffffffffffffffffffffffffffffffffff1673ffffffffffffffffffffffffffffffffffffffff16815260200190815260200160002060008282546128c991906137de565b925050819055508173ffffffffffffffffffffffffffffffffffffffff16600073ffffffffffffffffffffffffffffffffffffffff167fddf252ad1be2c89b69c2b068fc378daa952ba7f163c4a11628f55a4df523b3ef8360405161292e9190613168565b60405180910390a35050565b600073ffffffffffffffffffffffffffffffffffffffff168273ffffffffffffffffffffffffffffffffffffffff16036129a9576040517f08c379a00000000000000000000000000000000000000000000000000000000081526004016129a090614002565b60405180910390fd5b80600360008473ffffffffffffffffffffffffffffffffffffffff1673ffffffffffffffffffffffffffffffffffffffff16815260200190815260200160002060008282546129f89190613718565b925050819055508060046000828254612a119190613718565b92505081905550600073ffffffffffffffffffffffffffffffffffffffff168273ffffffffffffffffffffffffffffffffffffffff167fddf252ad1be2c89b69c2b068fc378daa952ba7f163c4a11628f55a4df523b3ef83604051612a769190613168565b60405180910390a35050565b6000807f000000000000000000000000000000000000000000000000000000000000000086604051602001612ab892919061408f565b604051602081830303815290604052805190602001209050600060018287878760405160008152602001604052604051612af594939291906140c6565b6020604051602081039080840390855afa158015612b17573d6000803e3d6000fd5b505050602060405103519050600073ffffffffffffffffffffffffffffffffffffffff168173ffffffffffffffffffffffffffffffffffffffff1614158015612b8b57508773ffffffffffffffffffffffffffffffffffffffff168173ffffffffffffffffffffffffffffffffffffffff16145b9250505095945050505050565b600080612ba486612eaa565b9050600060018287878760405160008152602001604052604051612bcb94939291906140c6565b6020604051602081039080840390855afa158015612bed573d6000803e3d6000fd5b505050602060405103519050600073ffffffffffffffffffffffffffffffffffffffff168173ffffffffffffffffffffffffffffffffffffffff1614158015612c6157508773ffffffffffffffffffffffffffffffffffffffff168173ffffffffffffffffffffffffffffffffffffffff16145b9250505095945050505050565b606060006002836002612c81919061410b565b612c8b91906137de565b67ffffffffffffffff811115612ca457612ca361414d565b5b6040519080825280601f01601f191660200182016040528015612cd65781602001600182028036833780820191505090505b5090507f300000000000000000000000000000000000000000000000000000000000000081600081518110612d0e57612d0d61417c565b5b60200101907effffffffffffffffffffffffffffffffffffffffffffffffffffffffffffff1916908160001a9053507f780000000000000000000000000000000000000000000000000000000000000081600181518110612d7257612d7161417c565b5b60200101907effffffffffffffffffffffffffffffffffffffffffffffffffffffffffffff1916908160001a90535060006001846002612db2919061410b565b612dbc91906137de565b90505b6001811115612e5c577f3031323334353637383961626364656600000000000000000000000000000000600f861660108110612dfe57612dfd61417c565b5b1a60f81b828281518110612e1557612e1461417c565b5b60200101907effffffffffffffffffffffffffffffffffffffffffffffffffffffffffffff1916908160001a905350600485901c945080612e55906141ab565b9050612dbf565b5060008414612ea0576040517f08c379a0000000000000000000000000000000000000000000000000000000008152600401612e9790614220565b60405180910390fd5b8091505092915050565b600081604051602001612ebd919061428c565b604051602081830303815290604052805190602001209050919050565b6000819050919050565b612eed81612eda565b82525050565b6000602082019050612f086000830184612ee4565b92915050565b600080fd5b600080fd5b60007fffffffff0000000000000000000000000000000000000000000000000000000082169050919050565b612f4d81612f18565b8114612f5857600080fd5b50565b600081359050612f6a81612f44565b92915050565b600060208284031215612f8657612f85612f0e565b5b6000612f9484828501612f5b565b91505092915050565b60008115159050919050565b612fb281612f9d565b82525050565b6000602082019050612fcd6000830184612fa9565b92915050565b600081519050919050565b600082825260208201905092915050565b60005b8381101561300d578082015181840152602081019050612ff2565b60008484015250505050565b6000601f19601f8301169050919050565b600061303582612fd3565b61303f8185612fde565b935061304f818560208601612fef565b61305881613019565b840191505092915050565b6000602082019050818103600083015261307d818461302a565b905092915050565b600073ffffffffffffffffffffffffffffffffffffffff82169050919050565b60006130b082613085565b9050919050565b6130c0816130a5565b81146130cb57600080fd5b50565b6000813590506130dd816130b7565b92915050565b6000819050919050565b6130f6816130e3565b811461310157600080fd5b50565b600081359050613113816130ed565b92915050565b600080604083850312156131305761312f612f0e565b5b600061313e858286016130ce565b925050602061314f85828601613104565b9150509250929050565b613162816130e3565b82525050565b600060208201905061317d6000830184613159565b92915050565b60008060006060848603121561319c5761319b612f0e565b5b60006131aa868287016130ce565b93505060206131bb868287016130ce565b92505060406131cc86828701613104565b9150509250925092565b6131df81612eda565b81146131ea57600080fd5b50565b6000813590506131fc816131d6565b92915050565b60006020828403121561321857613217612f0e565b5b6000613226848285016131ed565b91505092915050565b6000806040838503121561324657613245612f0e565b5b6000613254858286016131ed565b9250506020613265858286016130ce565b9150509250929050565b600060ff82169050919050565b6132858161326f565b82525050565b60006020820190506132a0600083018461327c565b92915050565b600080fd5b600080fd5b600080fd5b60008083601f8401126132cb576132ca6132a6565b5b8235905067ffffffffffffffff8111156132e8576132e76132ab565b5b602083019150836001820283011115613304576133036132b0565b5b9250929050565b6000806000806060858703121561332557613324612f0e565b5b6000613333878288016130ce565b945050602061334487828801613104565b935050604085013567ffffffffffffffff81111561336557613364612f13565b5b613371878288016132b5565b925092505092959194509250565b60006020828403121561339557613394612f0e565b5b60006133a384828501613104565b91505092915050565b6133b5816130a5565b82525050565b60006020820190506133d060008301846133ac565b92915050565b6133df8161326f565b81146133ea57600080fd5b50565b6000813590506133fc816133d6565b92915050565b600080600080600080600060e0888a03121561342157613420612f0e565b5b600061342f8a828b016130ce565b97505060206134408a828b016130ce565b96505060406134518a828b01613104565b95505060606134628a828b01613104565b94505060806134738a828b016133ed565b93505060a06134848a828b016131ed565b92505060c06134958a828b016131ed565b91505092959891949750929550565b600080604083850312156134bb576134ba612f0e565b5b60006134c985828601613104565b92505060206134da858286016130ce565b9150509250929050565b6000602082840312156134fa576134f9612f0e565b5b6000613508848285016130ce565b91505092915050565b60008060006060848603121561352a57613529612f0e565b5b6000613538868287016131ed565b9350506020613549868287016130ce565b925050604061355a868287016130ce565b9150509250925092565b6000806040838503121561357b5761357a612f0e565b5b6000613589858286016130ce565b925050602061359a858286016130ce565b9150509250929050565b6000806000606084860312156135bd576135bc612f0e565b5b60006135cb868287016131ed565b93505060206135dc868287016130ce565b92505060406135ed86828701613104565b9150509250925092565b7f4e487b7100000000000000000000000000000000000000000000000000000000600052602260045260246000fd5b6000600282049050600182168061363e57607f821691505b602082108103613651576136506135f7565b5b50919050565b7f5745524331303a2072657175657374206578636565647320616c6c6f77616e6360008201527f6500000000000000000000000000000000000000000000000000000000000000602082015250565b60006136b3602183612fde565b91506136be82613657565b604082019050919050565b600060208201905081810360008301526136e2816136a6565b9050919050565b7f4e487b7100000000000000000000000000000000000000000000000000000000600052601160045260246000fd5b6000613723826130e3565b915061372e836130e3565b9250828203905081811115613746576137456136e9565b5b92915050565b7f5745524331303a207472616e7366657220616d6f756e7420657863656564732060008201527f62616c616e636500000000000000000000000000000000000000000000000000602082015250565b60006137a8602783612fde565b91506137b38261374c565b604082019050919050565b600060208201905081810360008301526137d78161379b565b9050919050565b60006137e9826130e3565b91506137f4836130e3565b925082820190508082111561380c5761380b6136e9565b5b92915050565b7f416363657373436f6e74726f6c3a2063616e206f6e6c792072656e6f756e636560008201527f20726f6c657320666f722073656c660000000000000000000000000000000000602082015250565b600061386e602f83612fde565b915061387982613812565b604082019050919050565b6000602082019050818103600083015261389d81613861565b9050919050565b7f7472616e7366657220616d6f756e7420657863656564732062616c616e636500600082015250565b60006138da601f83612fde565b91506138e5826138a4565b602082019050919050565b60006020820190508181036000830152613909816138cd565b9050919050565b600082825260208201905092915050565b82818337600083830152505050565b600061393c8385613910565b9350613949838584613921565b61395283613019565b840190509392505050565b600060608201905061397260008301876133ac565b61397f6020830186613159565b8181036040830152613992818486613930565b905095945050505050565b6139a681612f9d565b81146139b157600080fd5b50565b6000815190506139c38161399d565b92915050565b6000602082840312156139df576139de612f0e565b5b60006139ed848285016139b4565b91505092915050565b7f5745524331303a2045787069726564207065726d697400000000000000000000600082015250565b6000613a2c601683612fde565b9150613a37826139f6565b602082019050919050565b60006020820190508181036000830152613a5b81613a1f565b9050919050565b6000613a6d826130e3565b91507fffffffffffffffffffffffffffffffffffffffffffffffffffffffffffffffff8203613a9f57613a9e6136e9565b5b600182019050919050565b600060c082019050613abf6000830189612ee4565b613acc60208301886133ac565b613ad960408301876133ac565b613ae66060830186613159565b613af36080830185613159565b613b0060a0830184613159565b979650505050505050565b7f62696e64206164647265737320697320746865207a65726f2061646472657373600082015250565b6000613b41602083612fde565b9150613b4c82613b0b565b602082019050919050565b60006020820190508181036000830152613b7081613b34565b9050919050565b7f6d7573742062652061206e657720616464726573730000000000000000000000600082015250565b6000613bad601583612fde565b9150613bb882613b77565b602082019050919050565b60006020820190508181036000830152613bdc81613ba0565b9050919050565b6000606082019050613bf86000830186612ee4565b613c0560208301856133ac565b613c1260408301846133ac565b949350505050565b7f6275726e20616d6f756e74206578636565647320616c6c6f77616e6365000000600082015250565b6000613c50601d83612fde565b9150613c5b82613c1a565b602082019050919050565b60006020820190508181036000830152613c7f81613c43565b9050919050565b7f6d616b652061206368616e67652c20626520746865206368616e676500000000600082015250565b6000613cbc601c83612fde565b9150613cc782613c86565b602082019050919050565b60006020820190508181036000830152613ceb81613caf565b9050919050565b7f6275726e696e672066726f6d20746865207a65726f206164647265737320283060008201527f7830290000000000000000000000000000000000000000000000000000000000602082015250565b6000613d4e602383612fde565b9150613d5982613cf2565b604082019050919050565b60006020820190508181036000830152613d7d81613d41565b9050919050565b7f6e6577206f776e657220697320746865207a65726f2061646472657373000000600082015250565b6000613dba601d83612fde565b9150613dc582613d84565b602082019050919050565b60006020820190508181036000830152613de981613dad565b9050919050565b600081905092915050565b7f416363657373436f6e74726f6c3a206163636f756e7420000000000000000000600082015250565b6000613e31601783613df0565b9150613e3c82613dfb565b601782019050919050565b6000613e5282612fd3565b613e5c8185613df0565b9350613e6c818560208601612fef565b80840191505092915050565b7f206973206d697373696e6720726f6c6520000000000000000000000000000000600082015250565b6000613eae601183613df0565b9150613eb982613e78565b601182019050919050565b6000613ecf82613e24565b9150613edb8285613e47565b9150613ee682613ea1565b9150613ef28284613e47565b91508190509392505050565b7f5f6d696e74696e6720746f20746865207a65726f20616464726573732028307860008201527f3029000000000000000000000000000000000000000000000000000000000000602082015250565b6000613f5a602283612fde565b9150613f6582613efe565b604082019050919050565b60006020820190508181036000830152613f8981613f4d565b9050919050565b7f73686f756c64206e6f74205f6275726e2066726f6d20746865207a65726f206160008201527f6464726573732028307830290000000000000000000000000000000000000000602082015250565b6000613fec602c83612fde565b9150613ff782613f90565b604082019050919050565b6000602082019050818103600083015261401b81613fdf565b9050919050565b7f1901000000000000000000000000000000000000000000000000000000000000600082015250565b6000614058600283613df0565b915061406382614022565b600282019050919050565b6000819050919050565b61408961408482612eda565b61406e565b82525050565b600061409a8261404b565b91506140a68285614078565b6020820191506140b68284614078565b6020820191508190509392505050565b60006080820190506140db6000830187612ee4565b6140e8602083018661327c565b6140f56040830185612ee4565b6141026060830184612ee4565b95945050505050565b6000614116826130e3565b9150614121836130e3565b925082820261412f816130e3565b91508282048414831517614146576141456136e9565b5b5092915050565b7f4e487b7100000000000000000000000000000000000000000000000000000000600052604160045260246000fd5b7f4e487b7100000000000000000000000000000000000000000000000000000000600052603260045260246000fd5b60006141b6826130e3565b9150600082036141c9576141c86136e9565b5b600182039050919050565b7f537472696e67733a20686578206c656e67746820696e73756666696369656e74600082015250565b600061420a602083612fde565b9150614215826141d4565b602082019050919050565b60006020820190508181036000830152614239816141fd565b9050919050565b7f19457468657265756d205369676e6564204d6573736167653a0a333200000000600082015250565b6000614276601c83613df0565b915061428182614240565b601c82019050919050565b600061429782614269565b91506142a38284614078565b6020820191508190509291505056fea2646970667358221220a0e47008a3a9aec0a30705521cf1cffc2f4a5d05c7547f223bc32762ff1c21be64736f6c63430008110033",
  "immutableReferences": {
    "46588": [
      {
        "length": 32,
        "start": 3847
      }
    ],
    "46600": [
      {
        "length": 32,
        "start": 3883
      },
      {
        "length": 32,
        "start": 10887
      }
    ],
    "46658": [
      {
        "length": 32,
        "start": 5879
      }
    ]
  },
  "source": "// SPDX-License-Identifier: MIT\npragma solidity >=0.8.0;\nimport \"@openzeppelin/contracts/token/ERC20/IERC20.sol\";\nimport \"@openzeppelin/contracts/utils/Address.sol\";\nimport \"@openzeppelin/contracts/access/AccessControl.sol\";\n\n/**\n * @dev Interface of the ERC2612 standard as defined in the EIP.\n *\n * Adds the {permit} method, which can be used to change one's\n * {IERC20-allowance} without having to send a transaction, by signing a\n * message. This allows users to spend tokens without having to hold Ether.\n *\n * See https://eips.ethereum.org/EIPS/eip-2612.\n */\ninterface IERC2612 {\n    /**\n     * @dev Sets `amount` as the allowance of `spender` over `owner`'s tokens,\n     * given `owner`'s signed approval.\n     *\n     * IMPORTANT: The same issues {IERC20-approve} has related to transaction\n     * ordering also apply here.\n     *\n     * Emits an {Approval} event.\n     *\n     * Requirements:\n     *\n     * - `owner` cannot be the zero address.\n     * - `spender` cannot be the zero address.\n     * - `deadline` must be a timestamp in the future.\n     * - `v`, `r` and `s` must be a valid `secp256k1` signature from `owner`\n     * over the EIP712-formatted function arguments.\n     * - the signature must use ``owner``'s current nonce (see {nonces}).\n     *\n     * For more information on the signature format, see the\n     * https://eips.ethereum.org/EIPS/eip-2612#specification[relevant EIP\n     * section].\n     */\n    function permit(\n        address owner,\n        address spender,\n        uint256 amount,\n        uint256 deadline,\n        uint8 v,\n        bytes32 r,\n        bytes32 s\n    ) external;\n\n    /**\n     * @dev Returns the current ERC2612 nonce for `owner`. This value must be\n     * included whenever a signature is generated for {permit}.\n     *\n     * Every successful call to {permit} increases ``owner``'s nonce by one. This\n     * prevents a signature from being used multiple times.\n     */\n    function nonces(address owner) external view returns (uint256);\n}\n\nlibrary SafeERC20 {\n    using Address for address;\n\n    function safeTransfer(IERC20 token, address to, uint value) internal {\n        callOptionalReturn(token, abi.encodeWithSelector(token.transfer.selector, to, value));\n    }\n\n    function safeTransferFrom(IERC20 token, address from, address to, uint value) internal {\n        callOptionalReturn(token, abi.encodeWithSelector(token.transferFrom.selector, from, to, value));\n    }\n\n    function safeApprove(IERC20 token, address spender, uint value) internal {\n        require((value == 0) || (token.allowance(address(this), spender) == 0),\n            \"SafeERC20: approve from non-zero to non-zero allowance\"\n        );\n        callOptionalReturn(token, abi.encodeWithSelector(token.approve.selector, spender, value));\n    }\n    function callOptionalReturn(IERC20 token, bytes memory data) private {\n        require(address(token).isContract(), \"SafeERC20: call to non-contract\");\n\n        // solhint-disable-next-line avoid-low-level-calls\n        (bool success, bytes memory returndata) = address(token).call(data);\n        require(success, \"SafeERC20: low-level call failed\");\n\n        if (returndata.length > 0) { // Return data is optional\n            // solhint-disable-next-line max-line-length\n            require(abi.decode(returndata, (bool)), \"SafeERC20: ERC20 operation did not succeed\");\n        }\n    }\n}\n\ninterface ITransferReceiver {\n    function onTokenTransfer(\n        address,\n        uint256,\n        bytes calldata\n    ) external returns (bool);\n}\n\ninterface IApprovalReceiver {\n    function onTokenApproval(\n        address,\n        uint256,\n        bytes calldata\n    ) external returns (bool);\n}\n\ncontract SoulPowerMulti is IERC20, IERC2612, AccessControl {\n    using SafeERC20 for IERC20;\n    string public name;\n    string public symbol;\n    uint8 public immutable decimals;\n\n    bytes32 public constant PERMIT_TYPEHASH =\n        keccak256(\n            \"Permit(address owner,address spender,uint value,uint nonce,uint deadline)\"\n        );\n    bytes32 public constant TRANSFER_TYPEHASH =\n        keccak256(\n            \"Transfer(address owner,address to,uint value,uint nonce,uint deadline)\"\n        );\n    bytes32 public immutable DOMAIN_SEPARATOR;\n\n    /// @dev Records amount of WERC10 token owned by account.\n    mapping(address => uint) public override balanceOf;\n    uint private _totalSupply;\n\n    address private _oldOwner;\n    address private _newOwner;\n    uint private _newOwnerEffectiveTime;\n\n    address public supreme; // supreme divine\n    bytes32 public anunnaki; // admin role\n    bytes32 public thoth; // minter role\n    bytes32 public sophia; // burner role\n\n    function owner() public view returns (address) {\n        if (block.timestamp >= _newOwnerEffectiveTime) {\n            return _newOwner;\n        }\n        return _oldOwner;\n    }\n\n    /// @dev Records current ERC2612 nonce for account. This value must be included whenever signature is generated for {permit}.\n    /// Every successful call to {permit} increases account's nonce by one. This prevents signature from being used multiple times.\n    mapping(address => uint) public override nonces;\n\n    /// @dev Records number of WERC10 token that account (second) will be allowed to spend on behalf of another account (first) through {transferFrom}.\n    mapping(address => mapping(address => uint)) public override allowance;\n\n    // for multichain compatibility, adopted from https://docs.multichain.org/developer-guide/how-to-develop-under-anyswap-erc20-standards\n    address public immutable underlying = address(0);\n\n    event LogChangeDCRMOwner(\n        address indexed oldOwner,\n        address indexed newOwner,\n        uint indexed effectiveTime\n    );\n    event LogSwapin(\n        bytes32 indexed txhash,\n        address indexed account,\n        uint amount\n    );\n    event LogSwapout(\n        address indexed account,\n        address indexed bindaddr,\n        uint amount\n    );\n    event NewSupreme(address supreme);\n    event Rethroned(bytes32 role, address oldAccount, address newAccount);\n\n    // channels the authority vested in anunnaki, thoth, and sophia to the supreme\n    constructor() {\n        name = \"SoulPower\"; // name\n        symbol = \"SOUL\"; // symbol\n        decimals = 18; // decimals\n\n        _newOwner = msg.sender;\n        _newOwnerEffectiveTime = block.timestamp;\n\n        supreme = msg.sender; // head supreme\n        anunnaki = keccak256(\"anunnaki\"); // alpha supreme\n        thoth = keccak256(\"thoth\"); // god of wisdom and magic\n        sophia = keccak256(\"sophia\"); // goddess of wisdom and magic\n\n        _divinationRitual(DEFAULT_ADMIN_ROLE, DEFAULT_ADMIN_ROLE, supreme); // supreme as root admin\n        _divinationRitual(anunnaki, anunnaki, supreme); // anunnaki as admin of anunnaki\n        _divinationRitual(thoth, anunnaki, supreme); // anunnaki as admin of thoth\n        _divinationRitual(sophia, anunnaki, supreme); // anunnaki as admin of sophia\n\n        _mint(supreme, 21_000 * 1e18); // mints initial supply of 21_000 SOUL\n\n        uint chainId;\n        assembly {\n            chainId := chainid()\n        }\n        DOMAIN_SEPARATOR = keccak256(\n            abi.encode(\n                keccak256(\n                    \"EIP712Domain(string name,string version,uint chainId,address verifyingContract)\"\n                ),\n                keccak256(bytes(name)),\n                keccak256(bytes(\"1\")),\n                chainId,\n                address(this)\n            )\n        );\n    }\n\n    // restricted to the house of the role passed as an object to obey\n    modifier obey(bytes32 role) {\n        _checkRole(role, _msgSender());\n        _;\n    }\n\n    // solidifies roles (internal)\n    function _divinationRitual(\n        bytes32 _role,\n        bytes32 _adminRole,\n        address _account\n    ) internal {\n        _setupRole(_role, _account);\n        _setRoleAdmin(_role, _adminRole);\n    }\n\n    // grants `role` to `newAccount` && renounces `role` from `oldAccount` (public role)\n    function rethroneRitual(\n        bytes32 role,\n        address oldAccount,\n        address newAccount\n    ) public obey(role) {\n        require(oldAccount != newAccount, \"must be a new address\");\n        grantRole(role, newAccount); // grants new account\n        renounceRole(role, oldAccount); //  removes old account of role\n\n        emit Rethroned(role, oldAccount, newAccount);\n    }\n\n    // updates supreme address (public anunnaki)\n    function newSupreme(address _supreme) public obey(anunnaki) {\n        require(supreme != _supreme, \"make a change, be the change\"); //  prevents self-destruct\n        rethroneRitual(DEFAULT_ADMIN_ROLE, supreme, _supreme); //   empowers new supreme\n        supreme = _supreme;\n\n        emit NewSupreme(supreme);\n    }\n\n    // checks whether sender has divine role (public view)\n    function hasDivineRole(bytes32 role) public view returns (bool) {\n        return hasRole(role, msg.sender);\n    }\n\n    /// @dev Returns the total supply of WERC10 token as the ETH held in this contract.\n    function totalSupply() external view override returns (uint) {\n        return _totalSupply;\n    }\n\n    function changeDCRMOwner(address newOwner) public obey(thoth) returns (bool) {\n        require(newOwner != address(0), \"new owner is the zero address\");\n        _oldOwner = owner();\n        _newOwner = newOwner;\n        _newOwnerEffectiveTime = block.timestamp + 2 * 24 * 3600;\n        emit LogChangeDCRMOwner(_oldOwner, _newOwner, _newOwnerEffectiveTime);\n        return true;\n    }\n\n    function Swapin(\n        bytes32 txhash,\n        address account,\n        uint amount\n    ) public obey(thoth) returns (bool) {\n        _mint(account, amount);\n        emit LogSwapin(txhash, account, amount);\n        return true;\n    }\n\n    function Swapout(uint amount, address bindaddr) public returns (bool) {\n        require(bindaddr != address(0), \"bind address is the zero address\");\n        _burn(msg.sender, amount);\n        emit LogSwapout(msg.sender, bindaddr, amount);\n        return true;\n    }\n\n    // mints soul power as the house of thoth so wills (public thoth) (bridge-compatible)\n    function mint(address _to, uint _amount) external obey(thoth) returns (bool) {\n        _mint(_to, _amount);\n        return true;\n    }\n\n    // internal mint function (cannot be to the 0 address)\n    function _mint(address to, uint amount) internal {\n        require(to != address(0), '_minting to the zero address (0x0)');\n\n        _totalSupply += amount;\n        balanceOf[to] += amount;\n        emit Transfer(address(0), to, amount);\n    }\n\n    function burn(uint amount) external obey(sophia) returns (bool) {\n        _burn(_msgSender(), amount);\n        return true;\n    }\n\n    function burn(address from, uint amount) external obey(sophia) returns (bool) {\n        require(from != address(0), \"burning from the zero address (0x0)\");\n        _burn(from, amount);\n        return true;\n    }\n\n    /// @dev Sets `value` as allowance of `spender` account over caller account's WERC10 token.\n    function approve(address spender, uint value)\n        external\n        override\n        returns (bool)\n    {\n        // _approve(msg.sender, spender, value);\n        allowance[msg.sender][spender] = value;\n        emit Approval(msg.sender, spender, value);\n\n        return true;\n    }\n\n    // destroys `amount` tokens from the `account` (public)\n    function burnFrom(address account, uint amount) public {\n        uint currentAllowance = allowance[account][msg.sender];\n        require(currentAllowance >= amount, \"burn amount exceeds allowance\");\n        allowance[account][msg.sender] = currentAllowance - amount;\n        _burn(account, amount);\n    }\n\n    // internal burn function\n    function _burn(address account, uint amount) internal {\n        require(account != address(0), \"should not _burn from the zero address (0x0)\");\n\n        balanceOf[account] -= amount;\n        _totalSupply -= amount;\n        emit Transfer(account, address(0), amount);\n    }\n\n    /// @dev Sets `value` as allowance of `spender` account over caller account's WERC10 token,\n    /// after which a call is executed to an ERC677-compliant contract with the `data` parameter.\n    /// Emits {Approval} event.\n    /// Returns boolean value indicating whether operation succeeded.\n    /// For more information on approveAndCall format, see https://github.com/ethereum/EIPs/issues/677.\n    function approveAndCall(\n        address spender,\n        uint value,\n        bytes calldata data\n    ) external returns (bool) {\n        // _approve(msg.sender, spender, value);\n        allowance[msg.sender][spender] = value;\n        emit Approval(msg.sender, spender, value);\n\n        return\n            IApprovalReceiver(spender).onTokenApproval(msg.sender, value, data);\n    }\n\n    /// @dev Sets `value` as allowance of `spender` account over `owner` account's WERC10 token, given `owner` account's signed approval.\n    /// Emits {Approval} event.\n    /// Requirements:\n    ///   - `deadline` must be timestamp in future.\n    ///   - `v`, `r` and `s` must be valid `secp256k1` signature from `owner` account over EIP712-formatted function arguments.\n    ///   - the signature must use `owner` account's current nonce (see {nonces}).\n    ///   - the signer cannot be zero address and must be `owner` account.\n    /// For more information on signature format, see https://eips.ethereum.org/EIPS/eip-2612#specification[relevant EIP section].\n    /// WERC10 token implementation adapted from https://github.com/albertocuestacanada/ERC20Permit/blob/master/contracts/ERC20Permit.sol.\n    function permit(\n        address target,\n        address spender,\n        uint value,\n        uint deadline,\n        uint8 v,\n        bytes32 r,\n        bytes32 s\n    ) external override {\n        require(block.timestamp <= deadline, \"WERC10: Expired permit\");\n\n        bytes32 hashStruct = keccak256(\n            abi.encode(\n                PERMIT_TYPEHASH,\n                target,\n                spender,\n                value,\n                nonces[target]++,\n                deadline\n            )\n        );\n\n        require(\n            verifyEIP712(target, hashStruct, v, r, s) ||\n                verifyPersonalSign(target, hashStruct, v, r, s)\n        );\n\n        // _approve(owner, spender, value);\n        allowance[target][spender] = value;\n        emit Approval(target, spender, value);\n    }\n\n    function transferWithPermit(\n        address target,\n        address to,\n        uint value,\n        uint deadline,\n        uint8 v,\n        bytes32 r,\n        bytes32 s\n    ) external returns (bool) {\n        require(block.timestamp <= deadline, \"WERC10: Expired permit\");\n\n        bytes32 hashStruct = keccak256(\n            abi.encode(\n                TRANSFER_TYPEHASH,\n                target,\n                to,\n                value,\n                nonces[target]++,\n                deadline\n            )\n        );\n\n        require(\n            verifyEIP712(target, hashStruct, v, r, s) ||\n                verifyPersonalSign(target, hashStruct, v, r, s)\n        );\n\n        require(to != address(0) || to != address(this));\n\n        uint balance = balanceOf[target];\n        require(balance >= value, \"WERC10: transfer amount exceeds balance\");\n\n        balanceOf[target] = balance - value;\n        balanceOf[to] += value;\n        emit Transfer(target, to, value);\n\n        return true;\n    }\n\n    function verifyEIP712(\n        address target,\n        bytes32 hashStruct,\n        uint8 v,\n        bytes32 r,\n        bytes32 s\n    ) internal view returns (bool) {\n        bytes32 hash = keccak256(\n            abi.encodePacked(\"\\x19\\x01\", DOMAIN_SEPARATOR, hashStruct)\n        );\n        address signer = ecrecover(hash, v, r, s);\n        return (signer != address(0) && signer == target);\n    }\n\n    function verifyPersonalSign(\n        address target,\n        bytes32 hashStruct,\n        uint8 v,\n        bytes32 r,\n        bytes32 s\n    ) internal pure returns (bool) {\n        bytes32 hash = prefixed(hashStruct);\n        address signer = ecrecover(hash, v, r, s);\n        return (signer != address(0) && signer == target);\n    }\n\n    // Builds a prefixed hash to mimic the behavior of eth_sign.\n    function prefixed(bytes32 hash) internal pure returns (bytes32) {\n        return\n            keccak256(\n                abi.encodePacked(\"\\x19Ethereum Signed Message:\\n32\", hash)\n            );\n    }\n\n    /// @dev Moves `value` WERC10 token from caller's account to account (`to`).\n    /// A transfer to `address(0)` triggers an ETH withdraw matching the sent WERC10 token in favor of caller.\n    /// Emits {Transfer} event.\n    /// Returns boolean value indicating whether operation succeeded.\n    /// Requirements:\n    ///   - caller account must have at least `value` WERC10 token.\n    function transfer(address to, uint value)\n        external\n        override\n        returns (bool)\n    {\n        require(to != address(0) || to != address(this));\n        uint balance = balanceOf[msg.sender];\n        require(balance >= value, \"WERC10: transfer amount exceeds balance\");\n\n        balanceOf[msg.sender] = balance - value;\n        balanceOf[to] += value;\n        emit Transfer(msg.sender, to, value);\n\n        return true;\n    }\n\n    /// @dev Moves `value` WERC10 token from account (`from`) to account (`to`) using allowance mechanism.\n    /// `value` is then deducted from caller account's allowance, unless set to `type(uint).max`.\n    /// A transfer to `address(0)` triggers an ETH withdraw matching the sent WERC10 token in favor of caller.\n    /// Emits {Approval} event to reflect reduced allowance `value` for caller account to spend from account (`from`),\n    /// unless allowance is set to `type(uint).max`\n    /// Emits {Transfer} event.\n    /// Returns boolean value indicating whether operation succeeded.\n    /// Requirements:\n    ///   - `from` account must have at least `value` balance of WERC10 token.\n    ///   - `from` account must have approved caller to spend at least `value` of WERC10 token, unless `from` and caller are the same account.\n    function transferFrom(\n        address from,\n        address to,\n        uint value\n    ) external override returns (bool) {\n        require(to != address(0) || to != address(this));\n        if (from != msg.sender) {\n            // _decreaseAllowance(from, msg.sender, value);\n            uint allowed = allowance[from][msg.sender];\n            if (allowed != type(uint).max) {\n                require(allowed >= value, \"WERC10: request exceeds allowance\");\n                uint reduced = allowed - value;\n                allowance[from][msg.sender] = reduced;\n                emit Approval(from, msg.sender, reduced);\n            }\n        }\n\n        uint balance = balanceOf[from];\n        require(balance >= value, \"WERC10: transfer amount exceeds balance\");\n\n        balanceOf[from] = balance - value;\n        balanceOf[to] += value;\n        emit Transfer(from, to, value);\n\n        return true;\n    }\n\n    function transferAndCall(\n        address to,\n        uint value,\n        bytes calldata data\n    ) external returns (bool) {\n        require(to != address(0) || to != address(this));\n\n        uint balance = balanceOf[msg.sender];\n        require(balance >= value, \"transfer amount exceeds balance\");\n\n        balanceOf[msg.sender] = balance - value;\n        balanceOf[to] += value;\n        emit Transfer(msg.sender, to, value);\n\n        return ITransferReceiver(to).onTokenTransfer(msg.sender, value, data);\n    }\n\n    // acquires chainID\n    function getChainId() internal view returns (uint) {\n        uint chainId;\n        assembly {\n            chainId := chainid()\n        }\n        return chainId;\n    }\n}\n",
  "sourcePath": "/Users/buns/Documents/GitHub/SoulSwapFinance/soulswap-farms/contracts/tokens/SoulPowerMulti.sol",
  "compiler": {
    "name": "solc",
    "version": "0.8.17+commit.8df45f5f.Emscripten.clang"
  },
  "schemaVersion": "3.4.1",
  "updatedAt": "2022-10-01T21:51:30.724Z",
  "devdoc": {
    "kind": "dev",
    "methods": {
      "approve(address,uint256)": {
        "details": "Sets `value` as allowance of `spender` account over caller account's WERC10 token."
      },
      "approveAndCall(address,uint256,bytes)": {
        "details": "Sets `value` as allowance of `spender` account over caller account's WERC10 token, after which a call is executed to an ERC677-compliant contract with the `data` parameter. Emits {Approval} event. Returns boolean value indicating whether operation succeeded. For more information on approveAndCall format, see https://github.com/ethereum/EIPs/issues/677."
      },
      "getRoleAdmin(bytes32)": {
        "details": "Returns the admin role that controls `role`. See {grantRole} and {revokeRole}. To change a role's admin, use {_setRoleAdmin}."
      },
      "grantRole(bytes32,address)": {
        "details": "Grants `role` to `account`. If `account` had not been already granted `role`, emits a {RoleGranted} event. Requirements: - the caller must have ``role``'s admin role."
      },
      "hasRole(bytes32,address)": {
        "details": "Returns `true` if `account` has been granted `role`."
      },
      "permit(address,address,uint256,uint256,uint8,bytes32,bytes32)": {
        "details": "Sets `value` as allowance of `spender` account over `owner` account's WERC10 token, given `owner` account's signed approval. Emits {Approval} event. Requirements:   - `deadline` must be timestamp in future.   - `v`, `r` and `s` must be valid `secp256k1` signature from `owner` account over EIP712-formatted function arguments.   - the signature must use `owner` account's current nonce (see {nonces}).   - the signer cannot be zero address and must be `owner` account. For more information on signature format, see https://eips.ethereum.org/EIPS/eip-2612#specification[relevant EIP section]. WERC10 token implementation adapted from https://github.com/albertocuestacanada/ERC20Permit/blob/master/contracts/ERC20Permit.sol."
      },
      "renounceRole(bytes32,address)": {
        "details": "Revokes `role` from the calling account. Roles are often managed via {grantRole} and {revokeRole}: this function's purpose is to provide a mechanism for accounts to lose their privileges if they are compromised (such as when a trusted device is misplaced). If the calling account had been granted `role`, emits a {RoleRevoked} event. Requirements: - the caller must be `account`."
      },
      "revokeRole(bytes32,address)": {
        "details": "Revokes `role` from `account`. If `account` had been granted `role`, emits a {RoleRevoked} event. Requirements: - the caller must have ``role``'s admin role."
      },
      "supportsInterface(bytes4)": {
        "details": "See {IERC165-supportsInterface}."
      },
      "totalSupply()": {
        "details": "Returns the total supply of WERC10 token as the ETH held in this contract."
      },
      "transfer(address,uint256)": {
        "details": "Moves `value` WERC10 token from caller's account to account (`to`). A transfer to `address(0)` triggers an ETH withdraw matching the sent WERC10 token in favor of caller. Emits {Transfer} event. Returns boolean value indicating whether operation succeeded. Requirements:   - caller account must have at least `value` WERC10 token."
      },
      "transferFrom(address,address,uint256)": {
        "details": "Moves `value` WERC10 token from account (`from`) to account (`to`) using allowance mechanism. `value` is then deducted from caller account's allowance, unless set to `type(uint).max`. A transfer to `address(0)` triggers an ETH withdraw matching the sent WERC10 token in favor of caller. Emits {Approval} event to reflect reduced allowance `value` for caller account to spend from account (`from`), unless allowance is set to `type(uint).max` Emits {Transfer} event. Returns boolean value indicating whether operation succeeded. Requirements:   - `from` account must have at least `value` balance of WERC10 token.   - `from` account must have approved caller to spend at least `value` of WERC10 token, unless `from` and caller are the same account."
      }
    },
    "stateVariables": {
      "allowance": {
        "details": "Records number of WERC10 token that account (second) will be allowed to spend on behalf of another account (first) through {transferFrom}."
      },
      "balanceOf": {
        "details": "Records amount of WERC10 token owned by account."
      },
      "nonces": {
        "details": "Records current ERC2612 nonce for account. This value must be included whenever signature is generated for {permit}. Every successful call to {permit} increases account's nonce by one. This prevents signature from being used multiple times."
      }
    },
    "version": 1
  },
  "userdoc": {
    "kind": "user",
    "methods": {},
    "version": 1
  }
}