{
  "contractName": "SoulSwapVoterProxy",
  "abi": [
    {
      "inputs": [],
      "stateMutability": "nonpayable",
      "type": "constructor"
    },
    {
      "inputs": [],
      "name": "votes",
      "outputs": [
        {
          "internalType": "address",
          "name": "",
          "type": "address"
        }
      ],
      "stateMutability": "view",
      "type": "function"
    },
    {
      "inputs": [],
      "name": "decimals",
      "outputs": [
        {
          "internalType": "uint8",
          "name": "",
          "type": "uint8"
        }
      ],
      "stateMutability": "pure",
      "type": "function"
    },
    {
      "inputs": [],
      "name": "name",
      "outputs": [
        {
          "internalType": "string",
          "name": "",
          "type": "string"
        }
      ],
      "stateMutability": "pure",
      "type": "function"
    },
    {
      "inputs": [],
      "name": "symbol",
      "outputs": [
        {
          "internalType": "string",
          "name": "",
          "type": "string"
        }
      ],
      "stateMutability": "pure",
      "type": "function"
    },
    {
      "inputs": [],
      "name": "totalSupply",
      "outputs": [
        {
          "internalType": "uint256",
          "name": "",
          "type": "uint256"
        }
      ],
      "stateMutability": "view",
      "type": "function"
    },
    {
      "inputs": [
        {
          "internalType": "address",
          "name": "_voter",
          "type": "address"
        }
      ],
      "name": "balanceOf",
      "outputs": [
        {
          "internalType": "uint256",
          "name": "",
          "type": "uint256"
        }
      ],
      "stateMutability": "view",
      "type": "function"
    }
  ],
  "bytecode": "0x608060405234801561001057600080fd5b50610575806100206000396000f3fe608060405234801561001057600080fd5b50600436106100625760003560e01c806306fdde031461006757806318160ddd14610085578063313ce567146100a357806370a08231146100c157806395d89b41146100f1578063e168c3ec1461010f575b600080fd5b61006f61012d565b60405161007c919061039f565b60405180910390f35b61008d61016a565b60405161009a91906103da565b60405180910390f35b6100ab610201565b6040516100b89190610411565b60405180910390f35b6100db60048036038101906100d6919061048f565b61020a565b6040516100e891906103da565b60405180910390f35b6100f96102ae565b604051610106919061039f565b60405180910390f35b6101176102eb565b60405161012491906104cb565b60405180910390f35b60606040518060400160405280600a81526020017f5345414e4345564f544500000000000000000000000000000000000000000000815250905090565b60008060009054906101000a900473ffffffffffffffffffffffffffffffffffffffff1673ffffffffffffffffffffffffffffffffffffffff166318160ddd6040518163ffffffff1660e01b8152600401602060405180830381865afa1580156101d8573d6000803e3d6000fd5b505050506040513d601f19601f820116820180604052508101906101fc9190610512565b905090565b60006012905090565b60008060009054906101000a900473ffffffffffffffffffffffffffffffffffffffff1673ffffffffffffffffffffffffffffffffffffffff166370a08231836040518263ffffffff1660e01b815260040161026691906104cb565b602060405180830381865afa158015610283573d6000803e3d6000fd5b505050506040513d601f19601f820116820180604052508101906102a79190610512565b9050919050565b60606040518060400160405280600681526020017f5345414e43450000000000000000000000000000000000000000000000000000815250905090565b60008054906101000a900473ffffffffffffffffffffffffffffffffffffffff1681565b600081519050919050565b600082825260208201905092915050565b60005b8381101561034957808201518184015260208101905061032e565b60008484015250505050565b6000601f19601f8301169050919050565b60006103718261030f565b61037b818561031a565b935061038b81856020860161032b565b61039481610355565b840191505092915050565b600060208201905081810360008301526103b98184610366565b905092915050565b6000819050919050565b6103d4816103c1565b82525050565b60006020820190506103ef60008301846103cb565b92915050565b600060ff82169050919050565b61040b816103f5565b82525050565b60006020820190506104266000830184610402565b92915050565b600080fd5b600073ffffffffffffffffffffffffffffffffffffffff82169050919050565b600061045c82610431565b9050919050565b61046c81610451565b811461047757600080fd5b50565b60008135905061048981610463565b92915050565b6000602082840312156104a5576104a461042c565b5b60006104b38482850161047a565b91505092915050565b6104c581610451565b82525050565b60006020820190506104e060008301846104bc565b92915050565b6104ef816103c1565b81146104fa57600080fd5b50565b60008151905061050c816104e6565b92915050565b6000602082840312156105285761052761042c565b5b6000610536848285016104fd565b9150509291505056fea2646970667358221220b6de918da69fc7676a31f9959d338044010d82bd48ed2b53c7c653837db8333164736f6c63430008110033",
  "immutableReferences": {},
  "source": "// SPDX-License-Identifier: MIT\n\npragma solidity >=0.8.0;\n\nimport '@openzeppelin/contracts/token/ERC20/IERC20.sol';\n\ncontract SoulSwapVoterProxy {\n    // SEANCE\n    address public votes; // constant votes = 0x744342261860f01826922ea973ecfecd727a25e0;\n\n    function decimals() external pure returns (uint8) {\n        return uint8(18);\n    }\n\n    function name() external pure returns (string memory) {\n        return 'SEANCEVOTE';\n    }\n\n    function symbol() external pure returns (string memory) {\n        return 'SEANCE';\n    }\n\n    function totalSupply() external view returns (uint256) {\n        return IERC20(votes).totalSupply();\n    }\n\n    function balanceOf(address _voter) external view returns (uint256) {\n        return IERC20(votes).balanceOf(_voter);\n    }\n\n    constructor() {}\n}\n",
  "sourcePath": "/Users/buns/Documents/GitHub/SoulSwapFinance/soulswap-farms/contracts/libraries/SoulSwapVoterProxy.sol",
  "compiler": {
    "name": "solc",
    "version": "0.8.17+commit.8df45f5f.Emscripten.clang"
  },
  "schemaVersion": "3.4.1",
  "updatedAt": "2022-10-01T21:51:29.824Z",
  "devdoc": {
    "kind": "dev",
    "methods": {},
    "version": 1
  },
  "userdoc": {
    "kind": "user",
    "methods": {},
    "version": 1
  }
}