{
  "contractName": "SousSummoner",
  "abi": [
    {
      "inputs": [
        {
          "internalType": "contract IERC20",
          "name": "_seance",
          "type": "address"
        }
      ],
      "stateMutability": "nonpayable",
      "type": "constructor"
    },
    {
      "anonymous": false,
      "inputs": [
        {
          "indexed": true,
          "internalType": "address",
          "name": "user",
          "type": "address"
        },
        {
          "indexed": false,
          "internalType": "uint256",
          "name": "amount",
          "type": "uint256"
        }
      ],
      "name": "Deposit",
      "type": "event"
    },
    {
      "anonymous": false,
      "inputs": [
        {
          "indexed": true,
          "internalType": "address",
          "name": "operator",
          "type": "address"
        },
        {
          "indexed": true,
          "internalType": "bool",
          "name": "access",
          "type": "bool"
        }
      ],
      "name": "OperatorUpdated",
      "type": "event"
    },
    {
      "anonymous": false,
      "inputs": [
        {
          "indexed": true,
          "internalType": "address",
          "name": "previousOwner",
          "type": "address"
        },
        {
          "indexed": true,
          "internalType": "address",
          "name": "newOwner",
          "type": "address"
        }
      ],
      "name": "OwnershipTransferred",
      "type": "event"
    },
    {
      "anonymous": false,
      "inputs": [
        {
          "indexed": true,
          "internalType": "address",
          "name": "user",
          "type": "address"
        },
        {
          "indexed": false,
          "internalType": "uint256",
          "name": "amount",
          "type": "uint256"
        }
      ],
      "name": "Withdraw",
      "type": "event"
    },
    {
      "inputs": [
        {
          "internalType": "address",
          "name": "newOperator",
          "type": "address"
        }
      ],
      "name": "addOperator",
      "outputs": [],
      "stateMutability": "nonpayable",
      "type": "function"
    },
    {
      "inputs": [
        {
          "internalType": "uint256",
          "name": "",
          "type": "uint256"
        }
      ],
      "name": "addressList",
      "outputs": [
        {
          "internalType": "address",
          "name": "",
          "type": "address"
        }
      ],
      "stateMutability": "view",
      "type": "function"
    },
    {
      "inputs": [],
      "name": "bonusEndTime",
      "outputs": [
        {
          "internalType": "uint256",
          "name": "",
          "type": "uint256"
        }
      ],
      "stateMutability": "view",
      "type": "function"
    },
    {
      "inputs": [],
      "name": "chains",
      "outputs": [
        {
          "internalType": "uint32",
          "name": "",
          "type": "uint32"
        }
      ],
      "stateMutability": "view",
      "type": "function"
    },
    {
      "inputs": [],
      "name": "dailyReward",
      "outputs": [
        {
          "internalType": "uint256",
          "name": "",
          "type": "uint256"
        }
      ],
      "stateMutability": "view",
      "type": "function"
    },
    {
      "inputs": [
        {
          "internalType": "address",
          "name": "",
          "type": "address"
        }
      ],
      "name": "operator",
      "outputs": [
        {
          "internalType": "bool",
          "name": "",
          "type": "bool"
        }
      ],
      "stateMutability": "view",
      "type": "function"
    },
    {
      "inputs": [
        {
          "internalType": "uint256",
          "name": "",
          "type": "uint256"
        }
      ],
      "name": "operators",
      "outputs": [
        {
          "internalType": "address",
          "name": "",
          "type": "address"
        }
      ],
      "stateMutability": "view",
      "type": "function"
    },
    {
      "inputs": [],
      "name": "owner",
      "outputs": [
        {
          "internalType": "address",
          "name": "",
          "type": "address"
        }
      ],
      "stateMutability": "view",
      "type": "function"
    },
    {
      "inputs": [],
      "name": "poolInfo",
      "outputs": [
        {
          "internalType": "uint256",
          "name": "lastRewardTime",
          "type": "uint256"
        },
        {
          "internalType": "uint256",
          "name": "accRewardPerShare",
          "type": "uint256"
        }
      ],
      "stateMutability": "view",
      "type": "function"
    },
    {
      "inputs": [
        {
          "internalType": "address",
          "name": "removingOperator",
          "type": "address"
        }
      ],
      "name": "removeOperator",
      "outputs": [],
      "stateMutability": "nonpayable",
      "type": "function"
    },
    {
      "inputs": [],
      "name": "renounceOwnership",
      "outputs": [],
      "stateMutability": "nonpayable",
      "type": "function"
    },
    {
      "inputs": [],
      "name": "rewardPerSecond",
      "outputs": [
        {
          "internalType": "uint256",
          "name": "",
          "type": "uint256"
        }
      ],
      "stateMutability": "view",
      "type": "function"
    },
    {
      "inputs": [],
      "name": "seance",
      "outputs": [
        {
          "internalType": "contract IERC20",
          "name": "",
          "type": "address"
        }
      ],
      "stateMutability": "view",
      "type": "function"
    },
    {
      "inputs": [],
      "name": "startTime",
      "outputs": [
        {
          "internalType": "uint256",
          "name": "",
          "type": "uint256"
        }
      ],
      "stateMutability": "view",
      "type": "function"
    },
    {
      "inputs": [
        {
          "internalType": "address",
          "name": "newOwner",
          "type": "address"
        }
      ],
      "name": "transferOwnership",
      "outputs": [],
      "stateMutability": "nonpayable",
      "type": "function"
    },
    {
      "inputs": [
        {
          "internalType": "address",
          "name": "",
          "type": "address"
        }
      ],
      "name": "userInfo",
      "outputs": [
        {
          "internalType": "uint256",
          "name": "amount",
          "type": "uint256"
        },
        {
          "internalType": "uint256",
          "name": "rewardDebt",
          "type": "uint256"
        },
        {
          "internalType": "uint256",
          "name": "rewardPending",
          "type": "uint256"
        }
      ],
      "stateMutability": "view",
      "type": "function"
    },
    {
      "inputs": [],
      "name": "addressLength",
      "outputs": [
        {
          "internalType": "uint256",
          "name": "",
          "type": "uint256"
        }
      ],
      "stateMutability": "view",
      "type": "function"
    },
    {
      "inputs": [
        {
          "internalType": "uint32",
          "name": "_chains",
          "type": "uint32"
        }
      ],
      "name": "updateChains",
      "outputs": [],
      "stateMutability": "nonpayable",
      "type": "function"
    },
    {
      "inputs": [
        {
          "internalType": "address",
          "name": "_user",
          "type": "address"
        }
      ],
      "name": "pendingReward",
      "outputs": [
        {
          "internalType": "uint256",
          "name": "",
          "type": "uint256"
        }
      ],
      "stateMutability": "view",
      "type": "function"
    },
    {
      "inputs": [],
      "name": "updatePool",
      "outputs": [],
      "stateMutability": "nonpayable",
      "type": "function"
    },
    {
      "inputs": [
        {
          "internalType": "uint256",
          "name": "_amount",
          "type": "uint256"
        }
      ],
      "name": "deposit",
      "outputs": [],
      "stateMutability": "nonpayable",
      "type": "function"
    },
    {
      "inputs": [
        {
          "internalType": "uint256",
          "name": "_amount",
          "type": "uint256"
        }
      ],
      "name": "withdraw",
      "outputs": [],
      "stateMutability": "nonpayable",
      "type": "function"
    }
  ],
  "bytecode": "0x60806040526001600360146101000a81548163ffffffff021916908363ffffffff1602179055506203d09060045562015180600454620000409190620003ab565b60055542600a556312cc0300426200005991906200034e565b600b553480156200006957600080fd5b50604051620026553803806200265583398181016040528101906200008f919062000322565b620000af620000a36200023f60201b60201c565b6200024760201b60201c565b6000620000c16200023f60201b60201c565b90506001600260008373ffffffffffffffffffffffffffffffffffffffff1673ffffffffffffffffffffffffffffffffffffffff16815260200190815260200160002060006101000a81548160ff0219169083151502179055506001819080600181540180825580915050600190039060005260206000200160009091909190916101000a81548173ffffffffffffffffffffffffffffffffffffffff021916908373ffffffffffffffffffffffffffffffffffffffff160217905550600115158173ffffffffffffffffffffffffffffffffffffffff167f966c160e1c4dbc7df8d69af4ace01e9297c3cf016397b7914971f2fbfa32672d60405160405180910390a35080600360006101000a81548173ffffffffffffffffffffffffffffffffffffffff021916908373ffffffffffffffffffffffffffffffffffffffff1602179055506040518060400160405280600a54815260200160008152506006600082015181600001556020820151816001015590505050620004ad565b600033905090565b60008060009054906101000a900473ffffffffffffffffffffffffffffffffffffffff169050816000806101000a81548173ffffffffffffffffffffffffffffffffffffffff021916908373ffffffffffffffffffffffffffffffffffffffff1602179055508173ffffffffffffffffffffffffffffffffffffffff168173ffffffffffffffffffffffffffffffffffffffff167f8be0079c531659141344cd1fd0a4f28419497f9722a3daafe3b4186f6b6457e060405160405180910390a35050565b6000815190506200031c8162000493565b92915050565b6000602082840312156200033557600080fd5b600062000345848285016200030b565b91505092915050565b60006200035b826200042b565b915062000368836200042b565b9250827fffffffffffffffffffffffffffffffffffffffffffffffffffffffffffffffff03821115620003a0576200039f62000435565b5b828201905092915050565b6000620003b8826200042b565b9150620003c5836200042b565b925082620003d857620003d762000464565b5b828204905092915050565b6000620003f0826200040b565b9050919050565b60006200040482620003e3565b9050919050565b600073ffffffffffffffffffffffffffffffffffffffff82169050919050565b6000819050919050565b7f4e487b7100000000000000000000000000000000000000000000000000000000600052601160045260246000fd5b7f4e487b7100000000000000000000000000000000000000000000000000000000600052601260045260246000fd5b6200049e81620003f7565b8114620004aa57600080fd5b50565b61219880620004bd6000396000f3fe608060405234801561001057600080fd5b50600436106101425760003560e01c8063ac8a584a116100b8578063dc8818881161007c578063dc88188814610342578063e28d490614610360578063e3161ddd14610390578063ee1a62951461039a578063f2fde38b146103b8578063f40f0f52146103d457610142565b8063ac8a584a146102a0578063b6b55f25146102bc578063b810fb43146102d8578063bc0a4b9d14610308578063c964ad451461032457610142565b8063715018a61161010a578063715018a6146101f057806378e97925146101fa5780638da5cb5b146102185780638f10369a146102365780639870d7fe146102545780639a3073911461027057610142565b80631959a002146101475780632e1a7d4d146101795780634ca01d451461019557806358a8b85f146101b35780635a2f3d09146101d1575b600080fd5b610161600480360381019061015c9190611855565b610404565b60405161017093929190611e46565b60405180910390f35b610193600480360381019061018e91906118a7565b61042e565b005b61019d610695565b6040516101aa9190611ce7565b60405180910390f35b6101bb6106bb565b6040516101c89190611e7d565b60405180910390f35b6101d96106d1565b6040516101e7929190611e1d565b60405180910390f35b6101f86106e3565b005b61020261076b565b60405161020f9190611e02565b60405180910390f35b610220610771565b60405161022d9190611c51565b60405180910390f35b61023e61079a565b60405161024b9190611e02565b60405180910390f35b61026e60048036038101906102699190611855565b6107a0565b005b61028a60048036038101906102859190611855565b610a3b565b6040516102979190611ccc565b60405180910390f35b6102ba60048036038101906102b59190611855565b610a5b565b005b6102d660048036038101906102d191906118a7565b610e50565b005b6102f260048036038101906102ed91906118a7565b611103565b6040516102ff9190611c51565b60405180910390f35b610322600480360381019061031d91906118f9565b611142565b005b61032c611207565b6040516103399190611e02565b60405180910390f35b61034a61120d565b6040516103579190611e02565b60405180910390f35b61037a600480360381019061037591906118a7565b61121a565b6040516103879190611c51565b60405180910390f35b610398611259565b005b6103a26113bf565b6040516103af9190611e02565b60405180910390f35b6103d260048036038101906103cd9190611855565b6113c5565b005b6103ee60048036038101906103e99190611855565b6114bd565b6040516103fb9190611e02565b60405180910390f35b60086020528060005260406000206000915090508060000154908060010154908060020154905083565b60008111610471576040517f08c379a000000000000000000000000000000000000000000000000000000000815260040161046890611da2565b60405180910390fd5b6000600860003373ffffffffffffffffffffffffffffffffffffffff1673ffffffffffffffffffffffffffffffffffffffff168152602001908152602001600020905081816000015410156104fb576040517f08c379a00000000000000000000000000000000000000000000000000000000081526004016104f290611de2565b60405180910390fd5b610503611259565b600360009054906101000a900473ffffffffffffffffffffffffffffffffffffffff1673ffffffffffffffffffffffffffffffffffffffff1663a9059cbb33846040518363ffffffff1660e01b8152600401610560929190611ca3565b602060405180830381600087803b15801561057a57600080fd5b505af115801561058e573d6000803e3d6000fd5b505050506040513d601f19601f820116820180604052508101906105b2919061187e565b50806002015481600101546105c79190611ea9565b64e8d4a5100060066001015483600001546105e29190611f67565b6105ec9190611f36565b6105f69190611fc1565b816002018190555081816000015461060e9190611fc1565b816000018190555064e8d4a5100060066001015482600001546106319190611f67565b61063b9190611f36565b81600101819055503373ffffffffffffffffffffffffffffffffffffffff167f884edad9ce6fa2440d8a54cc123490eb96d2768479d49ff9c7366125a9424364836040516106899190611e02565b60405180910390a25050565b600360009054906101000a900473ffffffffffffffffffffffffffffffffffffffff1681565b600360149054906101000a900463ffffffff1681565b60068060000154908060010154905082565b6106eb611694565b73ffffffffffffffffffffffffffffffffffffffff16610709610771565b73ffffffffffffffffffffffffffffffffffffffff161461075f576040517f08c379a000000000000000000000000000000000000000000000000000000000815260040161075690611d62565b60405180910390fd5b610769600061169c565b565b600a5481565b60008060009054906101000a900473ffffffffffffffffffffffffffffffffffffffff16905090565b60055481565b60006107aa611694565b9050600260008273ffffffffffffffffffffffffffffffffffffffff1673ffffffffffffffffffffffffffffffffffffffff16815260200190815260200160002060009054906101000a900460ff16610838576040517f08c379a000000000000000000000000000000000000000000000000000000000815260040161082f90611dc2565b60405180910390fd5b600073ffffffffffffffffffffffffffffffffffffffff168273ffffffffffffffffffffffffffffffffffffffff1614156108a8576040517f08c379a000000000000000000000000000000000000000000000000000000000815260040161089f90611d22565b60405180910390fd5b600260008373ffffffffffffffffffffffffffffffffffffffff1673ffffffffffffffffffffffffffffffffffffffff16815260200190815260200160002060009054906101000a900460ff1615610935576040517f08c379a000000000000000000000000000000000000000000000000000000000815260040161092c90611d82565b60405180910390fd5b6001600260008473ffffffffffffffffffffffffffffffffffffffff1673ffffffffffffffffffffffffffffffffffffffff16815260200190815260200160002060006101000a81548160ff0219169083151502179055506001829080600181540180825580915050600190039060005260206000200160009091909190916101000a81548173ffffffffffffffffffffffffffffffffffffffff021916908373ffffffffffffffffffffffffffffffffffffffff160217905550600115158273ffffffffffffffffffffffffffffffffffffffff167f966c160e1c4dbc7df8d69af4ace01e9297c3cf016397b7914971f2fbfa32672d60405160405180910390a35050565b60026020528060005260406000206000915054906101000a900460ff1681565b6000610a65611694565b9050600260008273ffffffffffffffffffffffffffffffffffffffff1673ffffffffffffffffffffffffffffffffffffffff16815260200190815260200160002060009054906101000a900460ff16610af3576040517f08c379a0000000000000000000000000000000000000000000000000000000008152600401610aea90611dc2565b60405180910390fd5b600260008373ffffffffffffffffffffffffffffffffffffffff1673ffffffffffffffffffffffffffffffffffffffff16815260200190815260200160002060009054906101000a900460ff16610b7f576040517f08c379a0000000000000000000000000000000000000000000000000000000008152600401610b7690611d42565b60405180910390fd5b6000600260008473ffffffffffffffffffffffffffffffffffffffff1673ffffffffffffffffffffffffffffffffffffffff16815260200190815260200160002060006101000a81548160ff02191690831515021790555060005b6001805490508160ff161015610e4a578273ffffffffffffffffffffffffffffffffffffffff1660018260ff1681548110610c3e577f4e487b7100000000000000000000000000000000000000000000000000000000600052603260045260246000fd5b9060005260206000200160009054906101000a900473ffffffffffffffffffffffffffffffffffffffff1673ffffffffffffffffffffffffffffffffffffffff161415610e375760018082610c939190611eff565b60ff1681548110610ccd577f4e487b7100000000000000000000000000000000000000000000000000000000600052603260045260246000fd5b9060005260206000200160009054906101000a900473ffffffffffffffffffffffffffffffffffffffff1660018260ff1681548110610d35577f4e487b7100000000000000000000000000000000000000000000000000000000600052603260045260246000fd5b9060005260206000200160006101000a81548173ffffffffffffffffffffffffffffffffffffffff021916908373ffffffffffffffffffffffffffffffffffffffff1602179055506001805480610db5577f4e487b7100000000000000000000000000000000000000000000000000000000600052603160045260246000fd5b6001900381819060005260206000200160006101000a81549073ffffffffffffffffffffffffffffffffffffffff02191690559055600015158373ffffffffffffffffffffffffffffffffffffffff167f966c160e1c4dbc7df8d69af4ace01e9297c3cf016397b7914971f2fbfa32672d60405160405180910390a350610e4c565b8080610e429061207e565b915050610bda565b505b5050565b60008111610e93576040517f08c379a0000000000000000000000000000000000000000000000000000000008152600401610e8a90611da2565b60405180910390fd5b6000600860003373ffffffffffffffffffffffffffffffffffffffff1673ffffffffffffffffffffffffffffffffffffffff1681526020019081526020016000209050610ede611259565b600360009054906101000a900473ffffffffffffffffffffffffffffffffffffffff1673ffffffffffffffffffffffffffffffffffffffff166323b872dd3330856040518463ffffffff1660e01b8152600401610f3d93929190611c6c565b602060405180830381600087803b158015610f5757600080fd5b505af1158015610f6b573d6000803e3d6000fd5b505050506040513d601f19601f82011682018060405250810190610f8f919061187e565b5060008160000154148015610fa8575060008160020154145b8015610fb8575060008160010154145b15611021576009339080600181540180825580915050600190039060005260206000200160009091909190916101000a81548173ffffffffffffffffffffffffffffffffffffffff021916908373ffffffffffffffffffffffffffffffffffffffff1602179055505b806002015481600101546110359190611ea9565b64e8d4a5100060066001015483600001546110509190611f67565b61105a9190611f36565b6110649190611fc1565b816002018190555081816000015461107c9190611ea9565b816000018190555064e8d4a51000600660010154826000015461109f9190611f67565b6110a99190611f36565b81600101819055503373ffffffffffffffffffffffffffffffffffffffff167fe1fffcc4923d04b559f4d29a8bfc6cda04eb5b0d3c460751c2402c5c5cc9109c836040516110f79190611e02565b60405180910390a25050565b6009818154811061111357600080fd5b906000526020600020016000915054906101000a900473ffffffffffffffffffffffffffffffffffffffff1681565b600061114c611694565b9050600260008273ffffffffffffffffffffffffffffffffffffffff1673ffffffffffffffffffffffffffffffffffffffff16815260200190815260200160002060009054906101000a900460ff166111da576040517f08c379a00000000000000000000000000000000000000000000000000000000081526004016111d190611dc2565b60405180910390fd5b81600360146101000a81548163ffffffff021916908363ffffffff160217905550611203611760565b5050565b60045481565b6000600980549050905090565b6001818154811061122a57600080fd5b906000526020600020016000915054906101000a900473ffffffffffffffffffffffffffffffffffffffff1681565b600660000154421161126a576113bd565b6000600360009054906101000a900473ffffffffffffffffffffffffffffffffffffffff1673ffffffffffffffffffffffffffffffffffffffff166370a08231306040518263ffffffff1660e01b81526004016112c79190611c51565b60206040518083038186803b1580156112df57600080fd5b505afa1580156112f3573d6000803e3d6000fd5b505050506040513d601f19601f8201168201806040525081019061131791906118d0565b905060008114156113325742600660000181905550506113bd565b6000611343600660000154426117a5565b90506000600360149054906101000a900463ffffffff1663ffffffff166005548361136e9190611f67565b6113789190611f36565b90508264e8d4a510008261138c9190611f67565b6113969190611f36565b6006600101546113a69190611ea9565b600660010181905550426006600001819055505050505b565b600b5481565b6113cd611694565b73ffffffffffffffffffffffffffffffffffffffff166113eb610771565b73ffffffffffffffffffffffffffffffffffffffff1614611441576040517f08c379a000000000000000000000000000000000000000000000000000000000815260040161143890611d62565b60405180910390fd5b600073ffffffffffffffffffffffffffffffffffffffff168173ffffffffffffffffffffffffffffffffffffffff1614156114b1576040517f08c379a00000000000000000000000000000000000000000000000000000000081526004016114a890611d02565b60405180910390fd5b6114ba8161169c565b50565b600080600690506000600860008573ffffffffffffffffffffffffffffffffffffffff1673ffffffffffffffffffffffffffffffffffffffff16815260200190815260200160002090506000826001015490506000600360009054906101000a900473ffffffffffffffffffffffffffffffffffffffff1673ffffffffffffffffffffffffffffffffffffffff166370a08231306040518263ffffffff1660e01b815260040161156d9190611c51565b60206040518083038186803b15801561158557600080fd5b505afa158015611599573d6000803e3d6000fd5b505050506040513d601f19601f820116820180604052508101906115bd91906118d0565b90508360000154421180156115d3575060008114155b1561164b5760006115e88560000154426117a5565b90506000600360149054906101000a900463ffffffff1663ffffffff166005546116129190611f36565b8261161d9190611f67565b90508264e8d4a51000826116319190611f67565b61163b9190611f36565b846116469190611ea9565b935050505b8260020154836001015464e8d4a5100084866000015461166b9190611f67565b6116759190611f36565b61167f9190611fc1565b6116899190611ea9565b945050505050919050565b600033905090565b60008060009054906101000a900473ffffffffffffffffffffffffffffffffffffffff169050816000806101000a81548173ffffffffffffffffffffffffffffffffffffffff021916908373ffffffffffffffffffffffffffffffffffffffff1602179055508173ffffffffffffffffffffffffffffffffffffffff168173ffffffffffffffffffffffffffffffffffffffff167f8be0079c531659141344cd1fd0a4f28419497f9722a3daafe3b4186f6b6457e060405160405180910390a35050565b600360149054906101000a900463ffffffff1663ffffffff166004546117869190611f36565b6004819055506201518060045461179d9190611f36565b600581905550565b6000600b5482116117c35782826117bc9190611fc1565b90506117e6565b600b5483106117d557600090506117e6565b82600b546117e39190611fc1565b90505b92915050565b6000813590506117fb81612106565b92915050565b6000815190506118108161211d565b92915050565b60008135905061182581612134565b92915050565b60008151905061183a81612134565b92915050565b60008135905061184f8161214b565b92915050565b60006020828403121561186757600080fd5b6000611875848285016117ec565b91505092915050565b60006020828403121561189057600080fd5b600061189e84828501611801565b91505092915050565b6000602082840312156118b957600080fd5b60006118c784828501611816565b91505092915050565b6000602082840312156118e257600080fd5b60006118f08482850161182b565b91505092915050565b60006020828403121561190b57600080fd5b600061191984828501611840565b91505092915050565b61192b81611ff5565b82525050565b61193a81612007565b82525050565b6119498161205a565b82525050565b600061195c602683611e98565b91507f4f776e61626c653a206e6577206f776e657220697320746865207a65726f206160008301527f64647265737300000000000000000000000000000000000000000000000000006020830152604082019050919050565b60006119c2602a83611e98565b91507f4f70657261626c653a206e6577206f70657261746f7220697320746865207a6560008301527f726f2061646472657373000000000000000000000000000000000000000000006020830152604082019050919050565b6000611a28602483611e98565b91507f4f70657261626c653a2061646472657373206973206e6f7420616e206f70657260008301527f61746f72000000000000000000000000000000000000000000000000000000006020830152604082019050919050565b6000611a8e602083611e98565b91507f4f776e61626c653a2063616c6c6572206973206e6f7420746865206f776e65726000830152602082019050919050565b6000611ace602883611e98565b91507f4f70657261626c653a206164647265737320697320616c726561647920616e2060008301527f6f70657261746f720000000000000000000000000000000000000000000000006020830152604082019050919050565b6000611b34600883611e98565b91507f616d6f756e7420300000000000000000000000000000000000000000000000006000830152602082019050919050565b6000611b74602383611e98565b91507f4f70657261746f723a2063616c6c6572206973206e6f7420616e206f7065726160008301527f746f7200000000000000000000000000000000000000000000000000000000006020830152604082019050919050565b6000611bda602f83611e98565b91507f77697468647261773a206f766572647261667420616d6f756e742c20706c656160008301527f73652073656c656374206c6573732e00000000000000000000000000000000006020830152604082019050919050565b611c3c81612033565b82525050565b611c4b8161203d565b82525050565b6000602082019050611c666000830184611922565b92915050565b6000606082019050611c816000830186611922565b611c8e6020830185611922565b611c9b6040830184611c33565b949350505050565b6000604082019050611cb86000830185611922565b611cc56020830184611c33565b9392505050565b6000602082019050611ce16000830184611931565b92915050565b6000602082019050611cfc6000830184611940565b92915050565b60006020820190508181036000830152611d1b8161194f565b9050919050565b60006020820190508181036000830152611d3b816119b5565b9050919050565b60006020820190508181036000830152611d5b81611a1b565b9050919050565b60006020820190508181036000830152611d7b81611a81565b9050919050565b60006020820190508181036000830152611d9b81611ac1565b9050919050565b60006020820190508181036000830152611dbb81611b27565b9050919050565b60006020820190508181036000830152611ddb81611b67565b9050919050565b60006020820190508181036000830152611dfb81611bcd565b9050919050565b6000602082019050611e176000830184611c33565b92915050565b6000604082019050611e326000830185611c33565b611e3f6020830184611c33565b9392505050565b6000606082019050611e5b6000830186611c33565b611e686020830185611c33565b611e756040830184611c33565b949350505050565b6000602082019050611e926000830184611c42565b92915050565b600082825260208201905092915050565b6000611eb482612033565b9150611ebf83612033565b9250827fffffffffffffffffffffffffffffffffffffffffffffffffffffffffffffffff03821115611ef457611ef36120a8565b5b828201905092915050565b6000611f0a8261204d565b9150611f158361204d565b92508260ff03821115611f2b57611f2a6120a8565b5b828201905092915050565b6000611f4182612033565b9150611f4c83612033565b925082611f5c57611f5b6120d7565b5b828204905092915050565b6000611f7282612033565b9150611f7d83612033565b9250817fffffffffffffffffffffffffffffffffffffffffffffffffffffffffffffffff0483118215151615611fb657611fb56120a8565b5b828202905092915050565b6000611fcc82612033565b9150611fd783612033565b925082821015611fea57611fe96120a8565b5b828203905092915050565b600061200082612013565b9050919050565b60008115159050919050565b600073ffffffffffffffffffffffffffffffffffffffff82169050919050565b6000819050919050565b600063ffffffff82169050919050565b600060ff82169050919050565b60006120658261206c565b9050919050565b600061207782612013565b9050919050565b60006120898261204d565b915060ff82141561209d5761209c6120a8565b5b600182019050919050565b7f4e487b7100000000000000000000000000000000000000000000000000000000600052601160045260246000fd5b7f4e487b7100000000000000000000000000000000000000000000000000000000600052601260045260246000fd5b61210f81611ff5565b811461211a57600080fd5b50565b61212681612007565b811461213157600080fd5b50565b61213d81612033565b811461214857600080fd5b50565b6121548161203d565b811461215f57600080fd5b5056fea26469706673582212200a45e74f49297351b0a5f8c5848d85d43948c13af5cc4cde5b008bd85d48fbd564736f6c63430008000033",
  "immutableReferences": {},
  "source": "/// SPDX-License-Identifier: MIT\n\npragma solidity ^0.8.0;\n\nimport '@openzeppelin/contracts/token/ERC20/IERC20.sol';\nimport '@openzeppelin/contracts/utils/Address.sol';\nimport './libraries/Operable.sol';\n\n// import \"@nomiclabs/buidler/console.sol\";\n\n\n// SousSummoner is the summoner of new tokens. She can summon any soul and she is a fair lady as well as a MasterChef.\ncontract SousSummoner is Ownable, Operable {\n\n    // Info of each user.\n    struct UserInfo {\n        uint256 amount;   // How many SEANCE tokens the user has provided.\n        uint256 rewardDebt;  // Reward debt. See explanation below.\n        uint256 rewardPending;\n        //\n        // We do some fancy math here. Basically, any point in time, the amount of SEANCE\n        // entitled to a user but is pending to be distributed is:\n        //\n        //   pending reward = (user.amount * pool.accRewardPerShare) - user.rewardDebt + user.rewardPending\n        //\n        // Whenever a user deposits or withdraws SEANCE tokens to a pool. Here's what happens:\n        //   1. The pool's `accRewardPerShare` (and `lastRewardTime`) gets updated.\n        //   2. User receives the pending reward sent to their address.\n        //   3. User's `amount` gets updated.\n        //   4. User's `rewardDebt` gets updated.\n    }\n\n    // Info of Pool\n    struct PoolInfo {\n        uint256 lastRewardTime;  // Final timestamp (second) that Rewards distribution occurs.\n        uint256 accRewardPerShare; // Accumulated reward per share, times 1e12. See below.\n    }\n\n    // The SEANCE TOKEN!\n    IERC20 public seance;\n\n    // chains containing soussummoner\n    uint32 public chains = 1;\n\n    // rewards [[ / day ]].\n    uint256 public dailyReward = 250000; \n\n    // rewards [[ / second ]].\n    uint256 public rewardPerSecond = dailyReward / 86400;\n\n    // [[ pool ]] info.\n    PoolInfo public poolInfo;\n    // Info of each user that stakes Seance tokens.\n    mapping (address => UserInfo) public userInfo;\n\n    // addresses list\n    address[] public addressList;\n\n    // The timestamp (unix second) when mining starts.\n    uint256 public startTime = block.timestamp;\n    // The timestamp when mining ends.\n    uint256 public bonusEndTime = block.timestamp + 3650 days;\n\n    event Deposit(address indexed user, uint256 amount);\n    event Withdraw(address indexed user, uint256 amount);\n\n    constructor(\n        IERC20 _seance\n    ) {\n        seance = _seance;\n\n        // staking pool\n        poolInfo = PoolInfo({\n            lastRewardTime: startTime,\n            accRewardPerShare: 0\n        });\n    }\n\n    function addressLength() external view returns (uint256) {\n        return addressList.length;\n    }\n\n    // Return reward multiplier over the given _from to _to timestamp.\n    function getMultiplier(uint256 _from, uint256 _to) internal view returns (uint256) {\n        if (_to <= bonusEndTime) {\n            return _to - _from;\n        } else if (_from >= bonusEndTime) {\n            return 0;\n        } else {\n            return bonusEndTime - _from;\n        }\n    }\n\n    function updateRewards() internal {\n        dailyReward = dailyReward / chains;\n        rewardPerSecond = dailyReward / 86400;\n    }\n\n    function updateChains(uint32 _chains) public onlyOperator {\n        chains = _chains;\n        updateRewards();\n    }\n\n    // View function to see pending Tokens on frontend.\n    function pendingReward(address _user) external view returns (uint256) {\n        PoolInfo storage pool = poolInfo;\n        UserInfo storage user = userInfo[_user];\n        uint256 accRewardPerShare = pool.accRewardPerShare;\n        uint256 stakedSupply = seance.balanceOf(address(this));\n        if (block.timestamp > pool.lastRewardTime && stakedSupply != 0) {\n            uint256 multiplier = getMultiplier(pool.lastRewardTime, block.timestamp);\n            uint256 tokenReward = multiplier * (rewardPerSecond / chains); // div(chains)\n            accRewardPerShare = accRewardPerShare + (tokenReward * 1e12 / stakedSupply);\n        }\n        return (user.amount * accRewardPerShare / 1e12) - (user.rewardDebt) + (user.rewardPending);\n    }\n\n    // Update reward variables of the given pool to be up-to-date.\n    function updatePool() public {\n        if (block.timestamp <= poolInfo.lastRewardTime) {\n            return;\n        }\n        uint256 seanceSupply = seance.balanceOf(address(this));\n        if (seanceSupply == 0) {\n            poolInfo.lastRewardTime = block.timestamp;\n            return;\n        }\n        uint256 multiplier = getMultiplier(poolInfo.lastRewardTime, block.timestamp);\n        uint256 tokenReward = multiplier * rewardPerSecond / chains; // div(chains)\n\n        poolInfo.accRewardPerShare = poolInfo.accRewardPerShare + (tokenReward * 1e12 / seanceSupply);\n        poolInfo.lastRewardTime = block.timestamp;\n    }\n\n\n    // Deposit Seance tokens to SousSummoner for Reward allocation.\n    function deposit(uint256 _amount) public {\n        require (_amount > 0, 'amount 0');\n        UserInfo storage user = userInfo[msg.sender];\n        updatePool();\n        seance.transferFrom(address(msg.sender), address(this), _amount);\n        // The deposit behavior before farming will result in duplicate addresses, and thus we will manually remove them when airdropping.\n        if (user.amount == 0 && user.rewardPending == 0 && user.rewardDebt == 0) {\n            addressList.push(address(msg.sender));\n        }\n        user.rewardPending = (user.amount * poolInfo.accRewardPerShare / 1e12) - (user.rewardDebt + user.rewardPending);\n        user.amount = user.amount + _amount;\n        user.rewardDebt = user.amount * poolInfo.accRewardPerShare / 1e12;\n\n        emit Deposit(msg.sender, _amount);\n    }\n\n    // Withdraw Seance tokens from SousSummoner.\n    function withdraw(uint256 _amount) public {\n        require (_amount > 0, 'amount 0');\n        UserInfo storage user = userInfo[msg.sender];\n        require(user.amount >= _amount, \"withdraw: overdraft amount, please select less.\");\n\n        updatePool();\n        seance.transfer(address(msg.sender), _amount);\n\n        user.rewardPending = user.amount * poolInfo.accRewardPerShare / 1e12 - (user.rewardDebt + user.rewardPending);\n        user.amount = user.amount - _amount;\n        user.rewardDebt = user.amount * poolInfo.accRewardPerShare / 1e12;\n\n        emit Withdraw(msg.sender, _amount);\n    }\n\n}",
  "sourcePath": "/Users/Uni/Documents/GitHub/soulswap/soulswap-farms/contracts/SousSummoner.sol",
  "compiler": {
    "name": "solc",
    "version": "0.8.0+commit.c7dfd78e.Emscripten.clang"
  },
  "schemaVersion": "3.4.1",
  "updatedAt": "2021-08-20T08:20:41.084Z",
  "devdoc": {
    "kind": "dev",
    "methods": {
      "addOperator(address)": {
        "details": "Adds address as operator of the contract. Can only be called by an operator."
      },
      "owner()": {
        "details": "Returns the address of the current owner."
      },
      "removeOperator(address)": {
        "details": "Leaves the contract without operator. It will not be possible to call `onlyOperator` functions anymore. Can only be called by an operator."
      },
      "renounceOwnership()": {
        "details": "Leaves the contract without owner. It will not be possible to call `onlyOwner` functions anymore. Can only be called by the current owner. NOTE: Renouncing ownership will leave the contract without an owner, thereby removing any functionality that is only available to the owner."
      },
      "transferOwnership(address)": {
        "details": "Transfers ownership of the contract to a new account (`newOwner`). Can only be called by the current owner."
      }
    },
    "version": 1
  },
  "userdoc": {
    "kind": "user",
    "methods": {},
    "version": 1
  }
}