{
  "contractName": "SousSummoner",
  "abi": [
    {
      "inputs": [
        {
          "internalType": "contract IERC20",
          "name": "_seance",
          "type": "address"
        }
      ],
      "stateMutability": "nonpayable",
      "type": "constructor"
    },
    {
      "anonymous": false,
      "inputs": [
        {
          "indexed": true,
          "internalType": "address",
          "name": "user",
          "type": "address"
        },
        {
          "indexed": false,
          "internalType": "uint256",
          "name": "amount",
          "type": "uint256"
        }
      ],
      "name": "Deposit",
      "type": "event"
    },
    {
      "anonymous": false,
      "inputs": [
        {
          "indexed": true,
          "internalType": "address",
          "name": "operator",
          "type": "address"
        },
        {
          "indexed": true,
          "internalType": "bool",
          "name": "access",
          "type": "bool"
        }
      ],
      "name": "OperatorUpdated",
      "type": "event"
    },
    {
      "anonymous": false,
      "inputs": [
        {
          "indexed": true,
          "internalType": "address",
          "name": "previousOwner",
          "type": "address"
        },
        {
          "indexed": true,
          "internalType": "address",
          "name": "newOwner",
          "type": "address"
        }
      ],
      "name": "OwnershipTransferred",
      "type": "event"
    },
    {
      "anonymous": false,
      "inputs": [
        {
          "indexed": true,
          "internalType": "address",
          "name": "user",
          "type": "address"
        },
        {
          "indexed": false,
          "internalType": "uint256",
          "name": "amount",
          "type": "uint256"
        }
      ],
      "name": "Withdraw",
      "type": "event"
    },
    {
      "inputs": [
        {
          "internalType": "address",
          "name": "newOperator",
          "type": "address"
        }
      ],
      "name": "addOperator",
      "outputs": [],
      "stateMutability": "nonpayable",
      "type": "function"
    },
    {
      "inputs": [
        {
          "internalType": "uint256",
          "name": "",
          "type": "uint256"
        }
      ],
      "name": "addressList",
      "outputs": [
        {
          "internalType": "address",
          "name": "",
          "type": "address"
        }
      ],
      "stateMutability": "view",
      "type": "function"
    },
    {
      "inputs": [],
      "name": "bonusEndTime",
      "outputs": [
        {
          "internalType": "uint256",
          "name": "",
          "type": "uint256"
        }
      ],
      "stateMutability": "view",
      "type": "function"
    },
    {
      "inputs": [],
      "name": "chains",
      "outputs": [
        {
          "internalType": "uint32",
          "name": "",
          "type": "uint32"
        }
      ],
      "stateMutability": "view",
      "type": "function"
    },
    {
      "inputs": [],
      "name": "dailyReward",
      "outputs": [
        {
          "internalType": "uint256",
          "name": "",
          "type": "uint256"
        }
      ],
      "stateMutability": "view",
      "type": "function"
    },
    {
      "inputs": [
        {
          "internalType": "address",
          "name": "",
          "type": "address"
        }
      ],
      "name": "operator",
      "outputs": [
        {
          "internalType": "bool",
          "name": "",
          "type": "bool"
        }
      ],
      "stateMutability": "view",
      "type": "function"
    },
    {
      "inputs": [
        {
          "internalType": "uint256",
          "name": "",
          "type": "uint256"
        }
      ],
      "name": "operators",
      "outputs": [
        {
          "internalType": "address",
          "name": "",
          "type": "address"
        }
      ],
      "stateMutability": "view",
      "type": "function"
    },
    {
      "inputs": [],
      "name": "owner",
      "outputs": [
        {
          "internalType": "address",
          "name": "",
          "type": "address"
        }
      ],
      "stateMutability": "view",
      "type": "function"
    },
    {
      "inputs": [],
      "name": "poolInfo",
      "outputs": [
        {
          "internalType": "uint256",
          "name": "lastRewardTime",
          "type": "uint256"
        },
        {
          "internalType": "uint256",
          "name": "accRewardPerShare",
          "type": "uint256"
        }
      ],
      "stateMutability": "view",
      "type": "function"
    },
    {
      "inputs": [
        {
          "internalType": "address",
          "name": "removingOperator",
          "type": "address"
        }
      ],
      "name": "removeOperator",
      "outputs": [],
      "stateMutability": "nonpayable",
      "type": "function"
    },
    {
      "inputs": [],
      "name": "renounceOwnership",
      "outputs": [],
      "stateMutability": "nonpayable",
      "type": "function"
    },
    {
      "inputs": [],
      "name": "rewardPerSecond",
      "outputs": [
        {
          "internalType": "uint256",
          "name": "",
          "type": "uint256"
        }
      ],
      "stateMutability": "view",
      "type": "function"
    },
    {
      "inputs": [],
      "name": "seance",
      "outputs": [
        {
          "internalType": "contract IERC20",
          "name": "",
          "type": "address"
        }
      ],
      "stateMutability": "view",
      "type": "function"
    },
    {
      "inputs": [],
      "name": "startTime",
      "outputs": [
        {
          "internalType": "uint256",
          "name": "",
          "type": "uint256"
        }
      ],
      "stateMutability": "view",
      "type": "function"
    },
    {
      "inputs": [
        {
          "internalType": "address",
          "name": "newOwner",
          "type": "address"
        }
      ],
      "name": "transferOwnership",
      "outputs": [],
      "stateMutability": "nonpayable",
      "type": "function"
    },
    {
      "inputs": [
        {
          "internalType": "address",
          "name": "",
          "type": "address"
        }
      ],
      "name": "userInfo",
      "outputs": [
        {
          "internalType": "uint256",
          "name": "amount",
          "type": "uint256"
        },
        {
          "internalType": "uint256",
          "name": "rewardDebt",
          "type": "uint256"
        },
        {
          "internalType": "uint256",
          "name": "rewardPending",
          "type": "uint256"
        }
      ],
      "stateMutability": "view",
      "type": "function"
    },
    {
      "inputs": [],
      "name": "addressLength",
      "outputs": [
        {
          "internalType": "uint256",
          "name": "",
          "type": "uint256"
        }
      ],
      "stateMutability": "view",
      "type": "function"
    },
    {
      "inputs": [
        {
          "internalType": "uint32",
          "name": "_chains",
          "type": "uint32"
        }
      ],
      "name": "updateChains",
      "outputs": [],
      "stateMutability": "nonpayable",
      "type": "function"
    },
    {
      "inputs": [
        {
          "internalType": "address",
          "name": "_user",
          "type": "address"
        }
      ],
      "name": "pendingReward",
      "outputs": [
        {
          "internalType": "uint256",
          "name": "",
          "type": "uint256"
        }
      ],
      "stateMutability": "view",
      "type": "function"
    },
    {
      "inputs": [],
      "name": "updatePool",
      "outputs": [],
      "stateMutability": "nonpayable",
      "type": "function"
    },
    {
      "inputs": [
        {
          "internalType": "uint256",
          "name": "_amount",
          "type": "uint256"
        }
      ],
      "name": "deposit",
      "outputs": [],
      "stateMutability": "nonpayable",
      "type": "function"
    },
    {
      "inputs": [
        {
          "internalType": "uint256",
          "name": "_amount",
          "type": "uint256"
        }
      ],
      "name": "withdraw",
      "outputs": [],
      "stateMutability": "nonpayable",
      "type": "function"
    }
  ],
  "bytecode": "0x60806040526001600360146101000a81548163ffffffff021916908363ffffffff1602179055506203d0906004556201518060045462000040919062000373565b60055542600a556312cc030042620000599190620003ab565b600b553480156200006957600080fd5b50604051620026283803806200262883398181016040528101906200008f919062000464565b620000af620000a36200023f60201b60201c565b6200024760201b60201c565b6000620000c16200023f60201b60201c565b90506001600260008373ffffffffffffffffffffffffffffffffffffffff1673ffffffffffffffffffffffffffffffffffffffff16815260200190815260200160002060006101000a81548160ff0219169083151502179055506001819080600181540180825580915050600190039060005260206000200160009091909190916101000a81548173ffffffffffffffffffffffffffffffffffffffff021916908373ffffffffffffffffffffffffffffffffffffffff160217905550600115158173ffffffffffffffffffffffffffffffffffffffff167f966c160e1c4dbc7df8d69af4ace01e9297c3cf016397b7914971f2fbfa32672d60405160405180910390a35080600360006101000a81548173ffffffffffffffffffffffffffffffffffffffff021916908373ffffffffffffffffffffffffffffffffffffffff1602179055506040518060400160405280600a5481526020016000815250600660008201518160000155602082015181600101559050505062000496565b600033905090565b60008060009054906101000a900473ffffffffffffffffffffffffffffffffffffffff169050816000806101000a81548173ffffffffffffffffffffffffffffffffffffffff021916908373ffffffffffffffffffffffffffffffffffffffff1602179055508173ffffffffffffffffffffffffffffffffffffffff168173ffffffffffffffffffffffffffffffffffffffff167f8be0079c531659141344cd1fd0a4f28419497f9722a3daafe3b4186f6b6457e060405160405180910390a35050565b6000819050919050565b7f4e487b7100000000000000000000000000000000000000000000000000000000600052601260045260246000fd5b7f4e487b7100000000000000000000000000000000000000000000000000000000600052601160045260246000fd5b600062000380826200030b565b91506200038d836200030b565b925082620003a0576200039f62000315565b5b828204905092915050565b6000620003b8826200030b565b9150620003c5836200030b565b9250828201905080821115620003e057620003df62000344565b5b92915050565b600080fd5b600073ffffffffffffffffffffffffffffffffffffffff82169050919050565b60006200041882620003eb565b9050919050565b60006200042c826200040b565b9050919050565b6200043e816200041f565b81146200044a57600080fd5b50565b6000815190506200045e8162000433565b92915050565b6000602082840312156200047d576200047c620003e6565b5b60006200048d848285016200044d565b91505092915050565b61218280620004a66000396000f3fe608060405234801561001057600080fd5b50600436106101425760003560e01c8063ac8a584a116100b8578063dc8818881161007c578063dc88188814610342578063e28d490614610360578063e3161ddd14610390578063ee1a62951461039a578063f2fde38b146103b8578063f40f0f52146103d457610142565b8063ac8a584a146102a0578063b6b55f25146102bc578063b810fb43146102d8578063bc0a4b9d14610308578063c964ad451461032457610142565b8063715018a61161010a578063715018a6146101f057806378e97925146101fa5780638da5cb5b146102185780638f10369a146102365780639870d7fe146102545780639a3073911461027057610142565b80631959a002146101475780632e1a7d4d146101795780634ca01d451461019557806358a8b85f146101b35780635a2f3d09146101d1575b600080fd5b610161600480360381019061015c9190611773565b610404565b604051610170939291906117b9565b60405180910390f35b610193600480360381019061018e919061181c565b61042e565b005b61019d610686565b6040516101aa91906118a8565b60405180910390f35b6101bb6106ac565b6040516101c891906118e2565b60405180910390f35b6101d96106c2565b6040516101e79291906118fd565b60405180910390f35b6101f86106d4565b005b61020261075c565b60405161020f9190611926565b60405180910390f35b610220610762565b60405161022d9190611950565b60405180910390f35b61023e61078b565b60405161024b9190611926565b60405180910390f35b61026e60048036038101906102699190611773565b610791565b005b61028a60048036038101906102859190611773565b610a2b565b6040516102979190611986565b60405180910390f35b6102ba60048036038101906102b59190611773565b610a4b565b005b6102d660048036038101906102d1919061181c565b610da7565b005b6102f260048036038101906102ed919061181c565b61104b565b6040516102ff9190611950565b60405180910390f35b610322600480360381019061031d91906119cd565b61108a565b005b61032c61114f565b6040516103399190611926565b60405180910390f35b61034a611155565b6040516103579190611926565b60405180910390f35b61037a6004803603810190610375919061181c565b611162565b6040516103879190611950565b60405180910390f35b6103986111a1565b005b6103a26112f3565b6040516103af9190611926565b60405180910390f35b6103d260048036038101906103cd9190611773565b6112f9565b005b6103ee60048036038101906103e99190611773565b6113f0565b6040516103fb9190611926565b60405180910390f35b60086020528060005260406000206000915090508060000154908060010154908060020154905083565b60008111610471576040517f08c379a000000000000000000000000000000000000000000000000000000000815260040161046890611a57565b60405180910390fd5b6000600860003373ffffffffffffffffffffffffffffffffffffffff1673ffffffffffffffffffffffffffffffffffffffff168152602001908152602001600020905081816000015410156104fb576040517f08c379a00000000000000000000000000000000000000000000000000000000081526004016104f290611ae9565b60405180910390fd5b6105036111a1565b600360009054906101000a900473ffffffffffffffffffffffffffffffffffffffff1673ffffffffffffffffffffffffffffffffffffffff1663a9059cbb33846040518363ffffffff1660e01b8152600401610560929190611b09565b6020604051808303816000875af115801561057f573d6000803e3d6000fd5b505050506040513d601f19601f820116820180604052508101906105a39190611b5e565b50806002015481600101546105b89190611bba565b64e8d4a5100060066001015483600001546105d39190611bee565b6105dd9190611c5f565b6105e79190611c90565b81600201819055508181600001546105ff9190611c90565b816000018190555064e8d4a5100060066001015482600001546106229190611bee565b61062c9190611c5f565b81600101819055503373ffffffffffffffffffffffffffffffffffffffff167f884edad9ce6fa2440d8a54cc123490eb96d2768479d49ff9c7366125a94243648360405161067a9190611926565b60405180910390a25050565b600360009054906101000a900473ffffffffffffffffffffffffffffffffffffffff1681565b600360149054906101000a900463ffffffff1681565b60068060000154908060010154905082565b6106dc6115b8565b73ffffffffffffffffffffffffffffffffffffffff166106fa610762565b73ffffffffffffffffffffffffffffffffffffffff1614610750576040517f08c379a000000000000000000000000000000000000000000000000000000000815260040161074790611d10565b60405180910390fd5b61075a60006115c0565b565b600a5481565b60008060009054906101000a900473ffffffffffffffffffffffffffffffffffffffff16905090565b60055481565b600061079b6115b8565b9050600260008273ffffffffffffffffffffffffffffffffffffffff1673ffffffffffffffffffffffffffffffffffffffff16815260200190815260200160002060009054906101000a900460ff16610829576040517f08c379a000000000000000000000000000000000000000000000000000000000815260040161082090611da2565b60405180910390fd5b600073ffffffffffffffffffffffffffffffffffffffff168273ffffffffffffffffffffffffffffffffffffffff1603610898576040517f08c379a000000000000000000000000000000000000000000000000000000000815260040161088f90611e34565b60405180910390fd5b600260008373ffffffffffffffffffffffffffffffffffffffff1673ffffffffffffffffffffffffffffffffffffffff16815260200190815260200160002060009054906101000a900460ff1615610925576040517f08c379a000000000000000000000000000000000000000000000000000000000815260040161091c90611ec6565b60405180910390fd5b6001600260008473ffffffffffffffffffffffffffffffffffffffff1673ffffffffffffffffffffffffffffffffffffffff16815260200190815260200160002060006101000a81548160ff0219169083151502179055506001829080600181540180825580915050600190039060005260206000200160009091909190916101000a81548173ffffffffffffffffffffffffffffffffffffffff021916908373ffffffffffffffffffffffffffffffffffffffff160217905550600115158273ffffffffffffffffffffffffffffffffffffffff167f966c160e1c4dbc7df8d69af4ace01e9297c3cf016397b7914971f2fbfa32672d60405160405180910390a35050565b60026020528060005260406000206000915054906101000a900460ff1681565b6000610a556115b8565b9050600260008273ffffffffffffffffffffffffffffffffffffffff1673ffffffffffffffffffffffffffffffffffffffff16815260200190815260200160002060009054906101000a900460ff16610ae3576040517f08c379a0000000000000000000000000000000000000000000000000000000008152600401610ada90611da2565b60405180910390fd5b600260008373ffffffffffffffffffffffffffffffffffffffff1673ffffffffffffffffffffffffffffffffffffffff16815260200190815260200160002060009054906101000a900460ff16610b6f576040517f08c379a0000000000000000000000000000000000000000000000000000000008152600401610b6690611f58565b60405180910390fd5b6000600260008473ffffffffffffffffffffffffffffffffffffffff1673ffffffffffffffffffffffffffffffffffffffff16815260200190815260200160002060006101000a81548160ff02191690831515021790555060005b6001805490508160ff161015610da1578273ffffffffffffffffffffffffffffffffffffffff1660018260ff1681548110610c0857610c07611f78565b5b9060005260206000200160009054906101000a900473ffffffffffffffffffffffffffffffffffffffff1673ffffffffffffffffffffffffffffffffffffffff1603610d8e5760018082610c5c9190611fb4565b60ff1681548110610c7057610c6f611f78565b5b9060005260206000200160009054906101000a900473ffffffffffffffffffffffffffffffffffffffff1660018260ff1681548110610cb257610cb1611f78565b5b9060005260206000200160006101000a81548173ffffffffffffffffffffffffffffffffffffffff021916908373ffffffffffffffffffffffffffffffffffffffff1602179055506001805480610d0c57610d0b611fe9565b5b6001900381819060005260206000200160006101000a81549073ffffffffffffffffffffffffffffffffffffffff02191690559055600015158373ffffffffffffffffffffffffffffffffffffffff167f966c160e1c4dbc7df8d69af4ace01e9297c3cf016397b7914971f2fbfa32672d60405160405180910390a350610da3565b8080610d9990612018565b915050610bca565b505b5050565b60008111610dea576040517f08c379a0000000000000000000000000000000000000000000000000000000008152600401610de190611a57565b60405180910390fd5b6000600860003373ffffffffffffffffffffffffffffffffffffffff1673ffffffffffffffffffffffffffffffffffffffff1681526020019081526020016000209050610e356111a1565b600360009054906101000a900473ffffffffffffffffffffffffffffffffffffffff1673ffffffffffffffffffffffffffffffffffffffff166323b872dd3330856040518463ffffffff1660e01b8152600401610e9493929190612041565b6020604051808303816000875af1158015610eb3573d6000803e3d6000fd5b505050506040513d601f19601f82011682018060405250810190610ed79190611b5e565b5060008160000154148015610ef0575060008160020154145b8015610f00575060008160010154145b15610f69576009339080600181540180825580915050600190039060005260206000200160009091909190916101000a81548173ffffffffffffffffffffffffffffffffffffffff021916908373ffffffffffffffffffffffffffffffffffffffff1602179055505b80600201548160010154610f7d9190611bba565b64e8d4a510006006600101548360000154610f989190611bee565b610fa29190611c5f565b610fac9190611c90565b8160020181905550818160000154610fc49190611bba565b816000018190555064e8d4a510006006600101548260000154610fe79190611bee565b610ff19190611c5f565b81600101819055503373ffffffffffffffffffffffffffffffffffffffff167fe1fffcc4923d04b559f4d29a8bfc6cda04eb5b0d3c460751c2402c5c5cc9109c8360405161103f9190611926565b60405180910390a25050565b6009818154811061105b57600080fd5b906000526020600020016000915054906101000a900473ffffffffffffffffffffffffffffffffffffffff1681565b60006110946115b8565b9050600260008273ffffffffffffffffffffffffffffffffffffffff1673ffffffffffffffffffffffffffffffffffffffff16815260200190815260200160002060009054906101000a900460ff16611122576040517f08c379a000000000000000000000000000000000000000000000000000000000815260040161111990611da2565b60405180910390fd5b81600360146101000a81548163ffffffff021916908363ffffffff16021790555061114b611684565b5050565b60045481565b6000600980549050905090565b6001818154811061117257600080fd5b906000526020600020016000915054906101000a900473ffffffffffffffffffffffffffffffffffffffff1681565b6006600001544211156112f1576000600360009054906101000a900473ffffffffffffffffffffffffffffffffffffffff1673ffffffffffffffffffffffffffffffffffffffff166370a08231306040518263ffffffff1660e01b815260040161120b9190611950565b602060405180830381865afa158015611228573d6000803e3d6000fd5b505050506040513d601f19601f8201168201806040525081019061124c919061208d565b9050600081036112665742600660000181905550506112f1565b6000611277600660000154426116c9565b90506000600360149054906101000a900463ffffffff1663ffffffff16600554836112a29190611bee565b6112ac9190611c5f565b90508264e8d4a51000826112c09190611bee565b6112ca9190611c5f565b6006600101546112da9190611bba565b600660010181905550426006600001819055505050505b565b600b5481565b6113016115b8565b73ffffffffffffffffffffffffffffffffffffffff1661131f610762565b73ffffffffffffffffffffffffffffffffffffffff1614611375576040517f08c379a000000000000000000000000000000000000000000000000000000000815260040161136c90611d10565b60405180910390fd5b600073ffffffffffffffffffffffffffffffffffffffff168173ffffffffffffffffffffffffffffffffffffffff16036113e4576040517f08c379a00000000000000000000000000000000000000000000000000000000081526004016113db9061212c565b60405180910390fd5b6113ed816115c0565b50565b600080600690506000600860008573ffffffffffffffffffffffffffffffffffffffff1673ffffffffffffffffffffffffffffffffffffffff16815260200190815260200160002090506000826001015490506000600360009054906101000a900473ffffffffffffffffffffffffffffffffffffffff1673ffffffffffffffffffffffffffffffffffffffff166370a08231306040518263ffffffff1660e01b81526004016114a09190611950565b602060405180830381865afa1580156114bd573d6000803e3d6000fd5b505050506040513d601f19601f820116820180604052508101906114e1919061208d565b90508360000154421180156114f7575060008114155b1561156f57600061150c8560000154426116c9565b90506000600360149054906101000a900463ffffffff1663ffffffff166005546115369190611c5f565b826115419190611bee565b90508264e8d4a51000826115559190611bee565b61155f9190611c5f565b8461156a9190611bba565b935050505b8260020154836001015464e8d4a5100084866000015461158f9190611bee565b6115999190611c5f565b6115a39190611c90565b6115ad9190611bba565b945050505050919050565b600033905090565b60008060009054906101000a900473ffffffffffffffffffffffffffffffffffffffff169050816000806101000a81548173ffffffffffffffffffffffffffffffffffffffff021916908373ffffffffffffffffffffffffffffffffffffffff1602179055508173ffffffffffffffffffffffffffffffffffffffff168173ffffffffffffffffffffffffffffffffffffffff167f8be0079c531659141344cd1fd0a4f28419497f9722a3daafe3b4186f6b6457e060405160405180910390a35050565b600360149054906101000a900463ffffffff1663ffffffff166004546116aa9190611c5f565b600481905550620151806004546116c19190611c5f565b600581905550565b6000600b5482116116e75782826116e09190611c90565b905061170a565b600b5483106116f9576000905061170a565b82600b546117079190611c90565b90505b92915050565b600080fd5b600073ffffffffffffffffffffffffffffffffffffffff82169050919050565b600061174082611715565b9050919050565b61175081611735565b811461175b57600080fd5b50565b60008135905061176d81611747565b92915050565b60006020828403121561178957611788611710565b5b60006117978482850161175e565b91505092915050565b6000819050919050565b6117b3816117a0565b82525050565b60006060820190506117ce60008301866117aa565b6117db60208301856117aa565b6117e860408301846117aa565b949350505050565b6117f9816117a0565b811461180457600080fd5b50565b600081359050611816816117f0565b92915050565b60006020828403121561183257611831611710565b5b600061184084828501611807565b91505092915050565b6000819050919050565b600061186e61186961186484611715565b611849565b611715565b9050919050565b600061188082611853565b9050919050565b600061189282611875565b9050919050565b6118a281611887565b82525050565b60006020820190506118bd6000830184611899565b92915050565b600063ffffffff82169050919050565b6118dc816118c3565b82525050565b60006020820190506118f760008301846118d3565b92915050565b600060408201905061191260008301856117aa565b61191f60208301846117aa565b9392505050565b600060208201905061193b60008301846117aa565b92915050565b61194a81611735565b82525050565b60006020820190506119656000830184611941565b92915050565b60008115159050919050565b6119808161196b565b82525050565b600060208201905061199b6000830184611977565b92915050565b6119aa816118c3565b81146119b557600080fd5b50565b6000813590506119c7816119a1565b92915050565b6000602082840312156119e3576119e2611710565b5b60006119f1848285016119b8565b91505092915050565b600082825260208201905092915050565b7f616d6f756e742030000000000000000000000000000000000000000000000000600082015250565b6000611a416008836119fa565b9150611a4c82611a0b565b602082019050919050565b60006020820190508181036000830152611a7081611a34565b9050919050565b7f77697468647261773a206f766572647261667420616d6f756e742c20706c656160008201527f73652073656c656374206c6573732e0000000000000000000000000000000000602082015250565b6000611ad3602f836119fa565b9150611ade82611a77565b604082019050919050565b60006020820190508181036000830152611b0281611ac6565b9050919050565b6000604082019050611b1e6000830185611941565b611b2b60208301846117aa565b9392505050565b611b3b8161196b565b8114611b4657600080fd5b50565b600081519050611b5881611b32565b92915050565b600060208284031215611b7457611b73611710565b5b6000611b8284828501611b49565b91505092915050565b7f4e487b7100000000000000000000000000000000000000000000000000000000600052601160045260246000fd5b6000611bc5826117a0565b9150611bd0836117a0565b9250828201905080821115611be857611be7611b8b565b5b92915050565b6000611bf9826117a0565b9150611c04836117a0565b9250828202611c12816117a0565b91508282048414831517611c2957611c28611b8b565b5b5092915050565b7f4e487b7100000000000000000000000000000000000000000000000000000000600052601260045260246000fd5b6000611c6a826117a0565b9150611c75836117a0565b925082611c8557611c84611c30565b5b828204905092915050565b6000611c9b826117a0565b9150611ca6836117a0565b9250828203905081811115611cbe57611cbd611b8b565b5b92915050565b7f4f776e61626c653a2063616c6c6572206973206e6f7420746865206f776e6572600082015250565b6000611cfa6020836119fa565b9150611d0582611cc4565b602082019050919050565b60006020820190508181036000830152611d2981611ced565b9050919050565b7f4f70657261746f723a2063616c6c6572206973206e6f7420616e206f7065726160008201527f746f720000000000000000000000000000000000000000000000000000000000602082015250565b6000611d8c6023836119fa565b9150611d9782611d30565b604082019050919050565b60006020820190508181036000830152611dbb81611d7f565b9050919050565b7f4f70657261626c653a206e6577206f70657261746f7220697320746865207a6560008201527f726f206164647265737300000000000000000000000000000000000000000000602082015250565b6000611e1e602a836119fa565b9150611e2982611dc2565b604082019050919050565b60006020820190508181036000830152611e4d81611e11565b9050919050565b7f4f70657261626c653a206164647265737320697320616c726561647920616e2060008201527f6f70657261746f72000000000000000000000000000000000000000000000000602082015250565b6000611eb06028836119fa565b9150611ebb82611e54565b604082019050919050565b60006020820190508181036000830152611edf81611ea3565b9050919050565b7f4f70657261626c653a2061646472657373206973206e6f7420616e206f70657260008201527f61746f7200000000000000000000000000000000000000000000000000000000602082015250565b6000611f426024836119fa565b9150611f4d82611ee6565b604082019050919050565b60006020820190508181036000830152611f7181611f35565b9050919050565b7f4e487b7100000000000000000000000000000000000000000000000000000000600052603260045260246000fd5b600060ff82169050919050565b6000611fbf82611fa7565b9150611fca83611fa7565b9250828201905060ff811115611fe357611fe2611b8b565b5b92915050565b7f4e487b7100000000000000000000000000000000000000000000000000000000600052603160045260246000fd5b600061202382611fa7565b915060ff820361203657612035611b8b565b5b600182019050919050565b60006060820190506120566000830186611941565b6120636020830185611941565b61207060408301846117aa565b949350505050565b600081519050612087816117f0565b92915050565b6000602082840312156120a3576120a2611710565b5b60006120b184828501612078565b91505092915050565b7f4f776e61626c653a206e6577206f776e657220697320746865207a65726f206160008201527f6464726573730000000000000000000000000000000000000000000000000000602082015250565b60006121166026836119fa565b9150612121826120ba565b604082019050919050565b6000602082019050818103600083015261214581612109565b905091905056fea2646970667358221220e744609181ffbd6d9178792865223dbfd57239abb985d8342eb5421b74d35ff064736f6c63430008110033",
  "immutableReferences": {},
  "source": "/// SPDX-License-Identifier: MIT\n\npragma solidity >=0.8.0;\n\nimport '@openzeppelin/contracts/token/ERC20/IERC20.sol';\nimport '@openzeppelin/contracts/utils/Address.sol';\nimport '../libraries/Operable.sol';\n\n// import \"@nomiclabs/buidler/console.sol\";\n\n\n// SousSummoner is the summoner of new tokens. She can summon any soul and she is a fair lady as well as a MasterChef.\ncontract SousSummoner is Ownable, Operable {\n\n    // Info of each user.\n    struct UserInfo {\n        uint256 amount;   // How many SEANCE tokens the user has provided.\n        uint256 rewardDebt;  // Reward debt. See explanation below.\n        uint256 rewardPending;\n        //\n        // We do some fancy math here. Basically, any point in time, the amount of SEANCE\n        // entitled to a user but is pending to be distributed is:\n        //\n        //   pending reward = (user.amount * pool.accRewardPerShare) - user.rewardDebt + user.rewardPending\n        //\n        // Whenever a user deposits or withdraws SEANCE tokens to a pool. Here's what happens:\n        //   1. The pool's `accRewardPerShare` (and `lastRewardTime`) gets updated.\n        //   2. User receives the pending reward sent to their address.\n        //   3. User's `amount` gets updated.\n        //   4. User's `rewardDebt` gets updated.\n    }\n\n    // Info of Pool\n    struct PoolInfo {\n        uint256 lastRewardTime;  // Final timestamp (second) that Rewards distribution occurs.\n        uint256 accRewardPerShare; // Accumulated reward per share, times 1e12. See below.\n    }\n\n    // The SEANCE TOKEN!\n    IERC20 public seance;\n\n    // chains containing soussummoner\n    uint32 public chains = 1;\n\n    // rewards [[ / day ]].\n    uint256 public dailyReward = 250000; \n\n    // rewards [[ / second ]].\n    uint256 public rewardPerSecond = dailyReward / 86400;\n\n    // [[ pool ]] info.\n    PoolInfo public poolInfo;\n    // Info of each user that stakes Seance tokens.\n    mapping (address => UserInfo) public userInfo;\n\n    // addresses list\n    address[] public addressList;\n\n    // The timestamp (unix second) when mining starts.\n    uint256 public startTime = block.timestamp;\n    // The timestamp when mining ends.\n    uint256 public bonusEndTime = block.timestamp + 3650 days;\n\n    event Deposit(address indexed user, uint256 amount);\n    event Withdraw(address indexed user, uint256 amount);\n\n    constructor(\n        IERC20 _seance\n    ) {\n        seance = _seance;\n\n        // staking pool\n        poolInfo = PoolInfo({\n            lastRewardTime: startTime,\n            accRewardPerShare: 0\n        });\n    }\n\n    function addressLength() external view returns (uint256) {\n        return addressList.length;\n    }\n\n    // Return reward multiplier over the given _from to _to timestamp.\n    function getMultiplier(uint256 _from, uint256 _to) internal view returns (uint256) {\n        if (_to <= bonusEndTime) {\n            return _to - _from;\n        } else if (_from >= bonusEndTime) {\n            return 0;\n        } else {\n            return bonusEndTime - _from;\n        }\n    }\n\n    function updateRewards() internal {\n        dailyReward = dailyReward / chains;\n        rewardPerSecond = dailyReward / 86400;\n    }\n\n    function updateChains(uint32 _chains) public onlyOperator {\n        chains = _chains;\n        updateRewards();\n    }\n\n    // View function to see pending Tokens on frontend.\n    function pendingReward(address _user) external view returns (uint256) {\n        PoolInfo storage pool = poolInfo;\n        UserInfo storage user = userInfo[_user];\n        uint256 accRewardPerShare = pool.accRewardPerShare;\n        uint256 stakedSupply = seance.balanceOf(address(this));\n        if (block.timestamp > pool.lastRewardTime && stakedSupply != 0) {\n            uint256 multiplier = getMultiplier(pool.lastRewardTime, block.timestamp);\n            uint256 tokenReward = multiplier * (rewardPerSecond / chains); // div(chains)\n            accRewardPerShare = accRewardPerShare + (tokenReward * 1e12 / stakedSupply);\n        }\n        return (user.amount * accRewardPerShare / 1e12) - (user.rewardDebt) + (user.rewardPending);\n    }\n\n    // Update reward variables of the given pool to be up-to-date.\n    function updatePool() public {\n        if (block.timestamp <= poolInfo.lastRewardTime) {\n            return;\n        }\n        uint256 seanceSupply = seance.balanceOf(address(this));\n        if (seanceSupply == 0) {\n            poolInfo.lastRewardTime = block.timestamp;\n            return;\n        }\n        uint256 multiplier = getMultiplier(poolInfo.lastRewardTime, block.timestamp);\n        uint256 tokenReward = multiplier * rewardPerSecond / chains; // div(chains)\n\n        poolInfo.accRewardPerShare = poolInfo.accRewardPerShare + (tokenReward * 1e12 / seanceSupply);\n        poolInfo.lastRewardTime = block.timestamp;\n    }\n\n\n    // Deposit Seance tokens to SousSummoner for Reward allocation.\n    function deposit(uint256 _amount) public {\n        require (_amount > 0, 'amount 0');\n        UserInfo storage user = userInfo[msg.sender];\n        updatePool();\n        seance.transferFrom(address(msg.sender), address(this), _amount);\n        // The deposit behavior before farming will result in duplicate addresses, and thus we will manually remove them when airdropping.\n        if (user.amount == 0 && user.rewardPending == 0 && user.rewardDebt == 0) {\n            addressList.push(address(msg.sender));\n        }\n        user.rewardPending = (user.amount * poolInfo.accRewardPerShare / 1e12) - (user.rewardDebt + user.rewardPending);\n        user.amount = user.amount + _amount;\n        user.rewardDebt = user.amount * poolInfo.accRewardPerShare / 1e12;\n\n        emit Deposit(msg.sender, _amount);\n    }\n\n    // Withdraw Seance tokens from SousSummoner.\n    function withdraw(uint256 _amount) public {\n        require (_amount > 0, 'amount 0');\n        UserInfo storage user = userInfo[msg.sender];\n        require(user.amount >= _amount, \"withdraw: overdraft amount, please select less.\");\n\n        updatePool();\n        seance.transfer(address(msg.sender), _amount);\n\n        user.rewardPending = user.amount * poolInfo.accRewardPerShare / 1e12 - (user.rewardDebt + user.rewardPending);\n        user.amount = user.amount - _amount;\n        user.rewardDebt = user.amount * poolInfo.accRewardPerShare / 1e12;\n\n        emit Withdraw(msg.sender, _amount);\n    }\n\n}",
  "sourcePath": "/Users/buns/Documents/GitHub/SoulSwapFinance/soulswap-farms/contracts/rewards/SousSummoner.sol",
  "compiler": {
    "name": "solc",
    "version": "0.8.17+commit.8df45f5f.Emscripten.clang"
  },
  "schemaVersion": "3.4.1",
  "updatedAt": "2022-10-01T21:51:30.582Z",
  "devdoc": {
    "kind": "dev",
    "methods": {
      "addOperator(address)": {
        "details": "Adds address as operator of the contract. Can only be called by an operator."
      },
      "owner()": {
        "details": "Returns the address of the current owner."
      },
      "removeOperator(address)": {
        "details": "Leaves the contract without operator. It will not be possible to call `onlyOperator` functions anymore. Can only be called by an operator."
      },
      "renounceOwnership()": {
        "details": "Leaves the contract without owner. It will not be possible to call `onlyOwner` functions anymore. Can only be called by the current owner. NOTE: Renouncing ownership will leave the contract without an owner, thereby removing any functionality that is only available to the owner."
      },
      "transferOwnership(address)": {
        "details": "Transfers ownership of the contract to a new account (`newOwner`). Can only be called by the current owner."
      }
    },
    "version": 1
  },
  "userdoc": {
    "kind": "user",
    "methods": {},
    "version": 1
  }
}