{
  "contractName": "SousChef",
  "abi": [
    {
      "inputs": [
        {
          "internalType": "contract IERC20",
          "name": "_seance",
          "type": "address"
        },
        {
          "internalType": "uint256",
          "name": "_startTime",
          "type": "uint256"
        },
        {
          "internalType": "uint256",
          "name": "_endTime",
          "type": "uint256"
        }
      ],
      "stateMutability": "nonpayable",
      "type": "constructor"
    },
    {
      "anonymous": false,
      "inputs": [
        {
          "indexed": true,
          "internalType": "address",
          "name": "user",
          "type": "address"
        },
        {
          "indexed": false,
          "internalType": "uint256",
          "name": "amount",
          "type": "uint256"
        }
      ],
      "name": "Deposit",
      "type": "event"
    },
    {
      "anonymous": false,
      "inputs": [
        {
          "indexed": true,
          "internalType": "address",
          "name": "user",
          "type": "address"
        },
        {
          "indexed": false,
          "internalType": "uint256",
          "name": "amount",
          "type": "uint256"
        }
      ],
      "name": "EmergencyWithdraw",
      "type": "event"
    },
    {
      "anonymous": false,
      "inputs": [
        {
          "indexed": true,
          "internalType": "address",
          "name": "previousOwner",
          "type": "address"
        },
        {
          "indexed": true,
          "internalType": "address",
          "name": "newOwner",
          "type": "address"
        }
      ],
      "name": "OwnershipTransferred",
      "type": "event"
    },
    {
      "anonymous": false,
      "inputs": [
        {
          "indexed": true,
          "internalType": "address",
          "name": "user",
          "type": "address"
        },
        {
          "indexed": false,
          "internalType": "uint256",
          "name": "amount",
          "type": "uint256"
        }
      ],
      "name": "Withdraw",
      "type": "event"
    },
    {
      "inputs": [
        {
          "internalType": "uint256",
          "name": "",
          "type": "uint256"
        }
      ],
      "name": "addressList",
      "outputs": [
        {
          "internalType": "address",
          "name": "",
          "type": "address"
        }
      ],
      "stateMutability": "view",
      "type": "function"
    },
    {
      "inputs": [],
      "name": "bonusEndTime",
      "outputs": [
        {
          "internalType": "uint256",
          "name": "",
          "type": "uint256"
        }
      ],
      "stateMutability": "view",
      "type": "function"
    },
    {
      "inputs": [],
      "name": "chains",
      "outputs": [
        {
          "internalType": "uint32",
          "name": "",
          "type": "uint32"
        }
      ],
      "stateMutability": "view",
      "type": "function"
    },
    {
      "inputs": [],
      "name": "dailyReward",
      "outputs": [
        {
          "internalType": "uint256",
          "name": "",
          "type": "uint256"
        }
      ],
      "stateMutability": "view",
      "type": "function"
    },
    {
      "inputs": [],
      "name": "owner",
      "outputs": [
        {
          "internalType": "address",
          "name": "",
          "type": "address"
        }
      ],
      "stateMutability": "view",
      "type": "function"
    },
    {
      "inputs": [],
      "name": "poolInfo",
      "outputs": [
        {
          "internalType": "uint256",
          "name": "lastRewardTime",
          "type": "uint256"
        },
        {
          "internalType": "uint256",
          "name": "accRewardPerShare",
          "type": "uint256"
        }
      ],
      "stateMutability": "view",
      "type": "function"
    },
    {
      "inputs": [],
      "name": "renounceOwnership",
      "outputs": [],
      "stateMutability": "nonpayable",
      "type": "function"
    },
    {
      "inputs": [],
      "name": "rewardPerSecond",
      "outputs": [
        {
          "internalType": "uint256",
          "name": "",
          "type": "uint256"
        }
      ],
      "stateMutability": "view",
      "type": "function"
    },
    {
      "inputs": [],
      "name": "seance",
      "outputs": [
        {
          "internalType": "contract IERC20",
          "name": "",
          "type": "address"
        }
      ],
      "stateMutability": "view",
      "type": "function"
    },
    {
      "inputs": [],
      "name": "startTime",
      "outputs": [
        {
          "internalType": "uint256",
          "name": "",
          "type": "uint256"
        }
      ],
      "stateMutability": "view",
      "type": "function"
    },
    {
      "inputs": [
        {
          "internalType": "address",
          "name": "newOwner",
          "type": "address"
        }
      ],
      "name": "transferOwnership",
      "outputs": [],
      "stateMutability": "nonpayable",
      "type": "function"
    },
    {
      "inputs": [
        {
          "internalType": "address",
          "name": "",
          "type": "address"
        }
      ],
      "name": "userInfo",
      "outputs": [
        {
          "internalType": "uint256",
          "name": "amount",
          "type": "uint256"
        },
        {
          "internalType": "uint256",
          "name": "rewardDebt",
          "type": "uint256"
        },
        {
          "internalType": "uint256",
          "name": "rewardPending",
          "type": "uint256"
        }
      ],
      "stateMutability": "view",
      "type": "function"
    },
    {
      "inputs": [],
      "name": "addressLength",
      "outputs": [
        {
          "internalType": "uint256",
          "name": "",
          "type": "uint256"
        }
      ],
      "stateMutability": "view",
      "type": "function"
    },
    {
      "inputs": [
        {
          "internalType": "uint32",
          "name": "_chains",
          "type": "uint32"
        }
      ],
      "name": "updateChains",
      "outputs": [],
      "stateMutability": "nonpayable",
      "type": "function"
    },
    {
      "inputs": [
        {
          "internalType": "address",
          "name": "_user",
          "type": "address"
        }
      ],
      "name": "pendingReward",
      "outputs": [
        {
          "internalType": "uint256",
          "name": "",
          "type": "uint256"
        }
      ],
      "stateMutability": "view",
      "type": "function"
    },
    {
      "inputs": [],
      "name": "updatePool",
      "outputs": [],
      "stateMutability": "nonpayable",
      "type": "function"
    },
    {
      "inputs": [
        {
          "internalType": "uint256",
          "name": "_amount",
          "type": "uint256"
        }
      ],
      "name": "deposit",
      "outputs": [],
      "stateMutability": "nonpayable",
      "type": "function"
    },
    {
      "inputs": [
        {
          "internalType": "uint256",
          "name": "_amount",
          "type": "uint256"
        }
      ],
      "name": "withdraw",
      "outputs": [],
      "stateMutability": "nonpayable",
      "type": "function"
    }
  ],
  "bytecode": "0x608060405260018060146101000a81548163ffffffff021916908363ffffffff1602179055506203d090600255620151806002546200003f91906200026e565b6003553480156200004f57600080fd5b5060405162001a8338038062001a83833981810160405281019062000075919062000218565b62000095620000896200011e60201b60201c565b6200012660201b60201c565b82600160006101000a81548173ffffffffffffffffffffffffffffffffffffffff021916908373ffffffffffffffffffffffffffffffffffffffff1602179055508160088190555080600981905550604051806040016040528060085481526020016000815250600460008201518160000155602082015181600101559050505050506200035b565b600033905090565b60008060009054906101000a900473ffffffffffffffffffffffffffffffffffffffff169050816000806101000a81548173ffffffffffffffffffffffffffffffffffffffff021916908373ffffffffffffffffffffffffffffffffffffffff1602179055508173ffffffffffffffffffffffffffffffffffffffff168173ffffffffffffffffffffffffffffffffffffffff167f8be0079c531659141344cd1fd0a4f28419497f9722a3daafe3b4186f6b6457e060405160405180910390a35050565b600081519050620001fb8162000327565b92915050565b600081519050620002128162000341565b92915050565b6000806000606084860312156200022e57600080fd5b60006200023e86828701620001ea565b9350506020620002518682870162000201565b9250506040620002648682870162000201565b9150509250925092565b60006200027b82620002ee565b91506200028883620002ee565b9250826200029b576200029a620002f8565b5b828204905092915050565b6000620002b382620002ce565b9050919050565b6000620002c782620002a6565b9050919050565b600073ffffffffffffffffffffffffffffffffffffffff82169050919050565b6000819050919050565b7f4e487b7100000000000000000000000000000000000000000000000000000000600052601260045260246000fd5b6200033281620002ba565b81146200033e57600080fd5b50565b6200034c81620002ee565b81146200035857600080fd5b50565b611718806200036b6000396000f3fe608060405234801561001057600080fd5b50600436106101165760003560e01c8063b6b55f25116100a2578063dc88188811610071578063dc881888146102ae578063e3161ddd146102cc578063ee1a6295146102d6578063f2fde38b146102f4578063f40f0f521461031057610116565b8063b6b55f2514610228578063b810fb4314610244578063bc0a4b9d14610274578063c964ad451461029057610116565b80635a2f3d09116100e95780635a2f3d09146101a5578063715018a6146101c457806378e97925146101ce5780638da5cb5b146101ec5780638f10369a1461020a57610116565b80631959a0021461011b5780632e1a7d4d1461014d5780634ca01d451461016957806358a8b85f14610187575b600080fd5b61013560048036038101906101309190611085565b610340565b60405161014493929190611434565b60405180910390f35b610167600480360381019061016291906110d7565b61036a565b005b6101716105d1565b60405161017e9190611355565b60405180910390f35b61018f6105f7565b60405161019c919061146b565b60405180910390f35b6101ad61060d565b6040516101bb92919061140b565b60405180910390f35b6101cc61061f565b005b6101d66106a7565b6040516101e391906113f0565b60405180910390f35b6101f46106ad565b60405161020191906112da565b60405180910390f35b6102126106d6565b60405161021f91906113f0565b60405180910390f35b610242600480360381019061023d91906110d7565b6106dc565b005b61025e600480360381019061025991906110d7565b61098f565b60405161026b91906112da565b60405180910390f35b61028e60048036038101906102899190611129565b6109ce565b005b610298610a76565b6040516102a591906113f0565b60405180910390f35b6102b6610a7c565b6040516102c391906113f0565b60405180910390f35b6102d4610a89565b005b6102de610bef565b6040516102eb91906113f0565b60405180910390f35b61030e60048036038101906103099190611085565b610bf5565b005b61032a60048036038101906103259190611085565b610ced565b60405161033791906113f0565b60405180910390f35b60066020528060005260406000206000915090508060000154908060010154908060020154905083565b600081116103ad576040517f08c379a00000000000000000000000000000000000000000000000000000000081526004016103a4906113b0565b60405180910390fd5b6000600660003373ffffffffffffffffffffffffffffffffffffffff1673ffffffffffffffffffffffffffffffffffffffff16815260200190815260200160002090508181600001541015610437576040517f08c379a000000000000000000000000000000000000000000000000000000000815260040161042e906113d0565b60405180910390fd5b61043f610a89565b600160009054906101000a900473ffffffffffffffffffffffffffffffffffffffff1673ffffffffffffffffffffffffffffffffffffffff1663a9059cbb33846040518363ffffffff1660e01b815260040161049c92919061132c565b602060405180830381600087803b1580156104b657600080fd5b505af11580156104ca573d6000803e3d6000fd5b505050506040513d601f19601f820116820180604052508101906104ee91906110ae565b50806002015481600101546105039190611497565b64e8d4a51000600460010154836000015461051e919061151e565b61052891906114ed565b6105329190611578565b816002018190555081816000015461054a9190611578565b816000018190555064e8d4a51000600460010154826000015461056d919061151e565b61057791906114ed565b81600101819055503373ffffffffffffffffffffffffffffffffffffffff167f884edad9ce6fa2440d8a54cc123490eb96d2768479d49ff9c7366125a9424364836040516105c591906113f0565b60405180910390a25050565b600160009054906101000a900473ffffffffffffffffffffffffffffffffffffffff1681565b600160149054906101000a900463ffffffff1681565b60048060000154908060010154905082565b610627610ec4565b73ffffffffffffffffffffffffffffffffffffffff166106456106ad565b73ffffffffffffffffffffffffffffffffffffffff161461069b576040517f08c379a000000000000000000000000000000000000000000000000000000000815260040161069290611390565b60405180910390fd5b6106a56000610ecc565b565b60085481565b60008060009054906101000a900473ffffffffffffffffffffffffffffffffffffffff16905090565b60035481565b6000811161071f576040517f08c379a0000000000000000000000000000000000000000000000000000000008152600401610716906113b0565b60405180910390fd5b6000600660003373ffffffffffffffffffffffffffffffffffffffff1673ffffffffffffffffffffffffffffffffffffffff168152602001908152602001600020905061076a610a89565b600160009054906101000a900473ffffffffffffffffffffffffffffffffffffffff1673ffffffffffffffffffffffffffffffffffffffff166323b872dd3330856040518463ffffffff1660e01b81526004016107c9939291906112f5565b602060405180830381600087803b1580156107e357600080fd5b505af11580156107f7573d6000803e3d6000fd5b505050506040513d601f19601f8201168201806040525081019061081b91906110ae565b5060008160000154148015610834575060008160020154145b8015610844575060008160010154145b156108ad576007339080600181540180825580915050600190039060005260206000200160009091909190916101000a81548173ffffffffffffffffffffffffffffffffffffffff021916908373ffffffffffffffffffffffffffffffffffffffff1602179055505b806002015481600101546108c19190611497565b64e8d4a5100060046001015483600001546108dc919061151e565b6108e691906114ed565b6108f09190611578565b81600201819055508181600001546109089190611497565b816000018190555064e8d4a51000600460010154826000015461092b919061151e565b61093591906114ed565b81600101819055503373ffffffffffffffffffffffffffffffffffffffff167fe1fffcc4923d04b559f4d29a8bfc6cda04eb5b0d3c460751c2402c5c5cc9109c8360405161098391906113f0565b60405180910390a25050565b6007818154811061099f57600080fd5b906000526020600020016000915054906101000a900473ffffffffffffffffffffffffffffffffffffffff1681565b6109d6610ec4565b73ffffffffffffffffffffffffffffffffffffffff166109f46106ad565b73ffffffffffffffffffffffffffffffffffffffff1614610a4a576040517f08c379a0000000000000000000000000000000000000000000000000000000008152600401610a4190611390565b60405180910390fd5b80600160146101000a81548163ffffffff021916908363ffffffff160217905550610a73610f90565b50565b60025481565b6000600780549050905090565b6004600001544211610a9a57610bed565b6000600160009054906101000a900473ffffffffffffffffffffffffffffffffffffffff1673ffffffffffffffffffffffffffffffffffffffff166370a08231306040518263ffffffff1660e01b8152600401610af791906112da565b60206040518083038186803b158015610b0f57600080fd5b505afa158015610b23573d6000803e3d6000fd5b505050506040513d601f19601f82011682018060405250810190610b479190611100565b90506000811415610b62574260046000018190555050610bed565b6000610b7360046000015442610fd5565b90506000600160149054906101000a900463ffffffff1663ffffffff1660035483610b9e919061151e565b610ba891906114ed565b90508264e8d4a5100082610bbc919061151e565b610bc691906114ed565b600460010154610bd69190611497565b600460010181905550426004600001819055505050505b565b60095481565b610bfd610ec4565b73ffffffffffffffffffffffffffffffffffffffff16610c1b6106ad565b73ffffffffffffffffffffffffffffffffffffffff1614610c71576040517f08c379a0000000000000000000000000000000000000000000000000000000008152600401610c6890611390565b60405180910390fd5b600073ffffffffffffffffffffffffffffffffffffffff168173ffffffffffffffffffffffffffffffffffffffff161415610ce1576040517f08c379a0000000000000000000000000000000000000000000000000000000008152600401610cd890611370565b60405180910390fd5b610cea81610ecc565b50565b600080600490506000600660008573ffffffffffffffffffffffffffffffffffffffff1673ffffffffffffffffffffffffffffffffffffffff16815260200190815260200160002090506000826001015490506000600160009054906101000a900473ffffffffffffffffffffffffffffffffffffffff1673ffffffffffffffffffffffffffffffffffffffff166370a08231306040518263ffffffff1660e01b8152600401610d9d91906112da565b60206040518083038186803b158015610db557600080fd5b505afa158015610dc9573d6000803e3d6000fd5b505050506040513d601f19601f82011682018060405250810190610ded9190611100565b9050836000015442118015610e03575060008114155b15610e7b576000610e18856000015442610fd5565b90506000600160149054906101000a900463ffffffff1663ffffffff16600354610e4291906114ed565b82610e4d919061151e565b90508264e8d4a5100082610e61919061151e565b610e6b91906114ed565b84610e769190611497565b935050505b8260020154836001015464e8d4a51000848660000154610e9b919061151e565b610ea591906114ed565b610eaf9190611578565b610eb99190611497565b945050505050919050565b600033905090565b60008060009054906101000a900473ffffffffffffffffffffffffffffffffffffffff169050816000806101000a81548173ffffffffffffffffffffffffffffffffffffffff021916908373ffffffffffffffffffffffffffffffffffffffff1602179055508173ffffffffffffffffffffffffffffffffffffffff168173ffffffffffffffffffffffffffffffffffffffff167f8be0079c531659141344cd1fd0a4f28419497f9722a3daafe3b4186f6b6457e060405160405180910390a35050565b600160149054906101000a900463ffffffff1663ffffffff16600254610fb691906114ed565b60028190555062015180600254610fcd91906114ed565b600381905550565b60006009548211610ff3578282610fec9190611578565b9050611016565b60095483106110055760009050611016565b826009546110139190611578565b90505b92915050565b60008135905061102b81611686565b92915050565b6000815190506110408161169d565b92915050565b600081359050611055816116b4565b92915050565b60008151905061106a816116b4565b92915050565b60008135905061107f816116cb565b92915050565b60006020828403121561109757600080fd5b60006110a58482850161101c565b91505092915050565b6000602082840312156110c057600080fd5b60006110ce84828501611031565b91505092915050565b6000602082840312156110e957600080fd5b60006110f784828501611046565b91505092915050565b60006020828403121561111257600080fd5b60006111208482850161105b565b91505092915050565b60006020828403121561113b57600080fd5b600061114984828501611070565b91505092915050565b61115b816115ac565b82525050565b61116a81611604565b82525050565b600061117d602683611486565b91507f4f776e61626c653a206e6577206f776e657220697320746865207a65726f206160008301527f64647265737300000000000000000000000000000000000000000000000000006020830152604082019050919050565b60006111e3602083611486565b91507f4f776e61626c653a2063616c6c6572206973206e6f7420746865206f776e65726000830152602082019050919050565b6000611223600883611486565b91507f616d6f756e7420300000000000000000000000000000000000000000000000006000830152602082019050919050565b6000611263602f83611486565b91507f77697468647261773a206f766572647261667420616d6f756e742c20706c656160008301527f73652073656c656374206c6573732e00000000000000000000000000000000006020830152604082019050919050565b6112c5816115ea565b82525050565b6112d4816115f4565b82525050565b60006020820190506112ef6000830184611152565b92915050565b600060608201905061130a6000830186611152565b6113176020830185611152565b61132460408301846112bc565b949350505050565b60006040820190506113416000830185611152565b61134e60208301846112bc565b9392505050565b600060208201905061136a6000830184611161565b92915050565b6000602082019050818103600083015261138981611170565b9050919050565b600060208201905081810360008301526113a9816111d6565b9050919050565b600060208201905081810360008301526113c981611216565b9050919050565b600060208201905081810360008301526113e981611256565b9050919050565b600060208201905061140560008301846112bc565b92915050565b600060408201905061142060008301856112bc565b61142d60208301846112bc565b9392505050565b600060608201905061144960008301866112bc565b61145660208301856112bc565b61146360408301846112bc565b949350505050565b600060208201905061148060008301846112cb565b92915050565b600082825260208201905092915050565b60006114a2826115ea565b91506114ad836115ea565b9250827fffffffffffffffffffffffffffffffffffffffffffffffffffffffffffffffff038211156114e2576114e1611628565b5b828201905092915050565b60006114f8826115ea565b9150611503836115ea565b92508261151357611512611657565b5b828204905092915050565b6000611529826115ea565b9150611534836115ea565b9250817fffffffffffffffffffffffffffffffffffffffffffffffffffffffffffffffff048311821515161561156d5761156c611628565b5b828202905092915050565b6000611583826115ea565b915061158e836115ea565b9250828210156115a1576115a0611628565b5b828203905092915050565b60006115b7826115ca565b9050919050565b60008115159050919050565b600073ffffffffffffffffffffffffffffffffffffffff82169050919050565b6000819050919050565b600063ffffffff82169050919050565b600061160f82611616565b9050919050565b6000611621826115ca565b9050919050565b7f4e487b7100000000000000000000000000000000000000000000000000000000600052601160045260246000fd5b7f4e487b7100000000000000000000000000000000000000000000000000000000600052601260045260246000fd5b61168f816115ac565b811461169a57600080fd5b50565b6116a6816115be565b81146116b157600080fd5b50565b6116bd816115ea565b81146116c857600080fd5b50565b6116d4816115f4565b81146116df57600080fd5b5056fea2646970667358221220fee4bf9694aefb993fd0db7148695fc4fbe8dda788ab5ae46914fe21eed7ee4a64736f6c63430008000033",
  "immutableReferences": {},
  "source": "/// SPDX-License-Identifier: MIT\n\npragma solidity ^0.8.0;\n\nimport '@openzeppelin/contracts/token/ERC20/IERC20.sol';\nimport '@openzeppelin/contracts/access/Ownable.sol';\nimport '@openzeppelin/contracts/utils/Address.sol';\n\n// import \"@nomiclabs/buidler/console.sol\";\n\n\n// SousChef is the chef of new tokens. She can summon any soul and she is a fair lady as well as a MasterChef.\ncontract SousChef is Ownable {\n\n    // Info of each user.\n    struct UserInfo {\n        uint256 amount;   // How many SEANCE tokens the user has provided.\n        uint256 rewardDebt;  // Reward debt. See explanation below.\n        uint256 rewardPending;\n        //\n        // We do some fancy math here. Basically, any point in time, the amount of SEANCEs\n        // entitled to a user but is pending to be distributed is:\n        //\n        //   pending reward = (user.amount * pool.accRewardPerShare) - user.rewardDebt + user.rewardPending\n        //\n        // Whenever a user deposits or withdraws SEANCE tokens to a pool. Here's what happens:\n        //   1. The pool's `accRewardPerShare` (and `lastRewardTime`) gets updated.\n        //   2. User receives the pending reward sent to their address.\n        //   3. User's `amount` gets updated.\n        //   4. User's `rewardDebt` gets updated.\n    }\n\n    // Info of Pool\n    struct PoolInfo {\n        uint256 lastRewardTime;  // Final timestamp (second) that Rewards distribution occurs.\n        uint256 accRewardPerShare; // Accumulated reward per share, times 1e12. See below.\n    }\n\n    // The SEANCE TOKEN!\n    IERC20 public seance;\n\n    // chains containing souschef\n    uint32 public chains = 1;\n\n    // rewards [[ / day ]].\n    uint256 public dailyReward = 250000; \n\n    // rewards [[ / second ]].\n    uint256 public rewardPerSecond = dailyReward / 86400;\n\n    // [[ pool ]] info.\n    PoolInfo public poolInfo;\n    // Info of each user that stakes Seance tokens.\n    mapping (address => UserInfo) public userInfo;\n\n    // addresses list\n    address[] public addressList;\n\n    // The timestamp (unix second) when mining starts.\n    uint256 public startTime;\n    // The timestamp when mining ends.\n    uint256 public bonusEndTime;\n\n    event Deposit(address indexed user, uint256 amount);\n    event Withdraw(address indexed user, uint256 amount);\n    event EmergencyWithdraw(address indexed user, uint256 amount);\n\n    constructor(\n        IERC20 _seance,\n        uint256 _startTime,\n        uint256 _endTime\n    ) {\n        seance = _seance;\n        startTime = _startTime;\n        bonusEndTime = _endTime;\n\n        // staking pool\n        poolInfo = PoolInfo({\n            lastRewardTime: startTime,\n            accRewardPerShare: 0\n        });\n    }\n\n    function addressLength() external view returns (uint256) {\n        return addressList.length;\n    }\n\n    // Return reward multiplier over the given _from to _to timestamp.\n    function getMultiplier(uint256 _from, uint256 _to) internal view returns (uint256) {\n        if (_to <= bonusEndTime) {\n            return _to - _from;\n        } else if (_from >= bonusEndTime) {\n            return 0;\n        } else {\n            return bonusEndTime - _from;\n        }\n    }\n\n    function updateRewards() internal {\n        dailyReward = dailyReward / chains;\n        rewardPerSecond = dailyReward / 86400;\n    }\n\n    function updateChains(uint32 _chains) public onlyOwner {\n        chains = _chains;\n        updateRewards();\n    }\n\n    // View function to see pending Tokens on frontend.\n    function pendingReward(address _user) external view returns (uint256) {\n        PoolInfo storage pool = poolInfo;\n        UserInfo storage user = userInfo[_user];\n        uint256 accRewardPerShare = pool.accRewardPerShare;\n        uint256 stakedSupply = seance.balanceOf(address(this));\n        if (block.timestamp > pool.lastRewardTime && stakedSupply != 0) {\n            uint256 multiplier = getMultiplier(pool.lastRewardTime, block.timestamp);\n            uint256 tokenReward = multiplier * (rewardPerSecond / chains); // div(chains)\n            accRewardPerShare = accRewardPerShare + (tokenReward * 1e12 / stakedSupply);\n        }\n        return (user.amount * accRewardPerShare / 1e12) - (user.rewardDebt) + (user.rewardPending);\n    }\n\n    // Update reward variables of the given pool to be up-to-date.\n    function updatePool() public {\n        if (block.timestamp <= poolInfo.lastRewardTime) {\n            return;\n        }\n        uint256 seanceSupply = seance.balanceOf(address(this));\n        if (seanceSupply == 0) {\n            poolInfo.lastRewardTime = block.timestamp;\n            return;\n        }\n        uint256 multiplier = getMultiplier(poolInfo.lastRewardTime, block.timestamp);\n        uint256 tokenReward = multiplier * rewardPerSecond / chains; // div(chains)\n\n        poolInfo.accRewardPerShare = poolInfo.accRewardPerShare + (tokenReward * 1e12 / seanceSupply);\n        poolInfo.lastRewardTime = block.timestamp;\n    }\n\n\n    // Deposit Seance tokens to SousChef for Reward allocation.\n    function deposit(uint256 _amount) public {\n        require (_amount > 0, 'amount 0');\n        UserInfo storage user = userInfo[msg.sender];\n        updatePool();\n        seance.transferFrom(address(msg.sender), address(this), _amount);\n        // The deposit behavior before farming will result in duplicate addresses, and thus we will manually remove them when airdropping.\n        if (user.amount == 0 && user.rewardPending == 0 && user.rewardDebt == 0) {\n            addressList.push(address(msg.sender));\n        }\n        user.rewardPending = (user.amount * poolInfo.accRewardPerShare / 1e12) - (user.rewardDebt + user.rewardPending);\n        user.amount = user.amount + _amount;\n        user.rewardDebt = user.amount * poolInfo.accRewardPerShare / 1e12;\n\n        emit Deposit(msg.sender, _amount);\n    }\n\n    // Withdraw Seance tokens from SousChef.\n    function withdraw(uint256 _amount) public {\n        require (_amount > 0, 'amount 0');\n        UserInfo storage user = userInfo[msg.sender];\n        require(user.amount >= _amount, \"withdraw: overdraft amount, please select less.\");\n\n        updatePool();\n        seance.transfer(address(msg.sender), _amount);\n\n        user.rewardPending = user.amount * poolInfo.accRewardPerShare / 1e12 - (user.rewardDebt + user.rewardPending);\n        user.amount = user.amount - _amount;\n        user.rewardDebt = user.amount * poolInfo.accRewardPerShare / 1e12;\n\n        emit Withdraw(msg.sender, _amount);\n    }\n\n}",
  "sourcePath": "/Users/unico/Documents/GitHub/SoulSwap/soulswap-farms/contracts/SousChef.sol",
  "compiler": {
    "name": "solc",
    "version": "0.8.0+commit.c7dfd78e.Emscripten.clang"
  },
  "schemaVersion": "3.4.1",
  "updatedAt": "2021-07-04T18:26:02.379Z",
  "devdoc": {
    "kind": "dev",
    "methods": {
      "owner()": {
        "details": "Returns the address of the current owner."
      },
      "renounceOwnership()": {
        "details": "Leaves the contract without owner. It will not be possible to call `onlyOwner` functions anymore. Can only be called by the current owner. NOTE: Renouncing ownership will leave the contract without an owner, thereby removing any functionality that is only available to the owner."
      },
      "transferOwnership(address)": {
        "details": "Transfers ownership of the contract to a new account (`newOwner`). Can only be called by the current owner."
      }
    },
    "version": 1
  },
  "userdoc": {
    "kind": "user",
    "methods": {},
    "version": 1
  }
}