{
  "contractName": "SpellBound",
  "abi": [
    {
      "anonymous": false,
      "inputs": [
        {
          "indexed": true,
          "internalType": "address",
          "name": "owner",
          "type": "address"
        },
        {
          "indexed": true,
          "internalType": "address",
          "name": "spender",
          "type": "address"
        },
        {
          "indexed": false,
          "internalType": "uint256",
          "name": "value",
          "type": "uint256"
        }
      ],
      "name": "Approval",
      "type": "event"
    },
    {
      "anonymous": false,
      "inputs": [
        {
          "indexed": true,
          "internalType": "address",
          "name": "operator",
          "type": "address"
        },
        {
          "indexed": true,
          "internalType": "bool",
          "name": "access",
          "type": "bool"
        }
      ],
      "name": "OperatorUpdated",
      "type": "event"
    },
    {
      "anonymous": false,
      "inputs": [
        {
          "indexed": true,
          "internalType": "address",
          "name": "previousOwner",
          "type": "address"
        },
        {
          "indexed": true,
          "internalType": "address",
          "name": "newOwner",
          "type": "address"
        }
      ],
      "name": "OwnershipTransferred",
      "type": "event"
    },
    {
      "anonymous": false,
      "inputs": [
        {
          "indexed": true,
          "internalType": "address",
          "name": "from",
          "type": "address"
        },
        {
          "indexed": true,
          "internalType": "address",
          "name": "to",
          "type": "address"
        },
        {
          "indexed": false,
          "internalType": "uint256",
          "name": "value",
          "type": "uint256"
        }
      ],
      "name": "Transfer",
      "type": "event"
    },
    {
      "inputs": [
        {
          "internalType": "address",
          "name": "newOperator",
          "type": "address"
        }
      ],
      "name": "addOperator",
      "outputs": [],
      "stateMutability": "nonpayable",
      "type": "function"
    },
    {
      "inputs": [
        {
          "internalType": "address",
          "name": "owner",
          "type": "address"
        },
        {
          "internalType": "address",
          "name": "spender",
          "type": "address"
        }
      ],
      "name": "allowance",
      "outputs": [
        {
          "internalType": "uint256",
          "name": "",
          "type": "uint256"
        }
      ],
      "stateMutability": "view",
      "type": "function",
      "constant": true
    },
    {
      "inputs": [
        {
          "internalType": "address",
          "name": "spender",
          "type": "address"
        },
        {
          "internalType": "uint256",
          "name": "amount",
          "type": "uint256"
        }
      ],
      "name": "approve",
      "outputs": [
        {
          "internalType": "bool",
          "name": "",
          "type": "bool"
        }
      ],
      "stateMutability": "nonpayable",
      "type": "function"
    },
    {
      "inputs": [
        {
          "internalType": "address",
          "name": "account",
          "type": "address"
        }
      ],
      "name": "balanceOf",
      "outputs": [
        {
          "internalType": "uint256",
          "name": "",
          "type": "uint256"
        }
      ],
      "stateMutability": "view",
      "type": "function",
      "constant": true
    },
    {
      "inputs": [],
      "name": "decimals",
      "outputs": [
        {
          "internalType": "uint8",
          "name": "",
          "type": "uint8"
        }
      ],
      "stateMutability": "view",
      "type": "function",
      "constant": true
    },
    {
      "inputs": [
        {
          "internalType": "address",
          "name": "spender",
          "type": "address"
        },
        {
          "internalType": "uint256",
          "name": "subtractedValue",
          "type": "uint256"
        }
      ],
      "name": "decreaseAllowance",
      "outputs": [
        {
          "internalType": "bool",
          "name": "",
          "type": "bool"
        }
      ],
      "stateMutability": "nonpayable",
      "type": "function"
    },
    {
      "inputs": [
        {
          "internalType": "address",
          "name": "spender",
          "type": "address"
        },
        {
          "internalType": "uint256",
          "name": "addedValue",
          "type": "uint256"
        }
      ],
      "name": "increaseAllowance",
      "outputs": [
        {
          "internalType": "bool",
          "name": "",
          "type": "bool"
        }
      ],
      "stateMutability": "nonpayable",
      "type": "function"
    },
    {
      "inputs": [],
      "name": "name",
      "outputs": [
        {
          "internalType": "string",
          "name": "",
          "type": "string"
        }
      ],
      "stateMutability": "view",
      "type": "function",
      "constant": true
    },
    {
      "inputs": [
        {
          "internalType": "address",
          "name": "",
          "type": "address"
        }
      ],
      "name": "operator",
      "outputs": [
        {
          "internalType": "bool",
          "name": "",
          "type": "bool"
        }
      ],
      "stateMutability": "view",
      "type": "function",
      "constant": true
    },
    {
      "inputs": [
        {
          "internalType": "uint256",
          "name": "",
          "type": "uint256"
        }
      ],
      "name": "operators",
      "outputs": [
        {
          "internalType": "address",
          "name": "",
          "type": "address"
        }
      ],
      "stateMutability": "view",
      "type": "function",
      "constant": true
    },
    {
      "inputs": [],
      "name": "owner",
      "outputs": [
        {
          "internalType": "address",
          "name": "",
          "type": "address"
        }
      ],
      "stateMutability": "view",
      "type": "function",
      "constant": true
    },
    {
      "inputs": [
        {
          "internalType": "address",
          "name": "removingOperator",
          "type": "address"
        }
      ],
      "name": "removeOperator",
      "outputs": [],
      "stateMutability": "nonpayable",
      "type": "function"
    },
    {
      "inputs": [],
      "name": "renounceOwnership",
      "outputs": [],
      "stateMutability": "nonpayable",
      "type": "function"
    },
    {
      "inputs": [],
      "name": "soul",
      "outputs": [
        {
          "internalType": "contract IERC20",
          "name": "",
          "type": "address"
        }
      ],
      "stateMutability": "view",
      "type": "function",
      "constant": true
    },
    {
      "inputs": [],
      "name": "symbol",
      "outputs": [
        {
          "internalType": "string",
          "name": "",
          "type": "string"
        }
      ],
      "stateMutability": "view",
      "type": "function",
      "constant": true
    },
    {
      "inputs": [],
      "name": "totalSupply",
      "outputs": [
        {
          "internalType": "uint256",
          "name": "",
          "type": "uint256"
        }
      ],
      "stateMutability": "view",
      "type": "function",
      "constant": true
    },
    {
      "inputs": [
        {
          "internalType": "address",
          "name": "recipient",
          "type": "address"
        },
        {
          "internalType": "uint256",
          "name": "amount",
          "type": "uint256"
        }
      ],
      "name": "transfer",
      "outputs": [
        {
          "internalType": "bool",
          "name": "",
          "type": "bool"
        }
      ],
      "stateMutability": "nonpayable",
      "type": "function"
    },
    {
      "inputs": [
        {
          "internalType": "address",
          "name": "sender",
          "type": "address"
        },
        {
          "internalType": "address",
          "name": "recipient",
          "type": "address"
        },
        {
          "internalType": "uint256",
          "name": "amount",
          "type": "uint256"
        }
      ],
      "name": "transferFrom",
      "outputs": [
        {
          "internalType": "bool",
          "name": "",
          "type": "bool"
        }
      ],
      "stateMutability": "nonpayable",
      "type": "function"
    },
    {
      "inputs": [
        {
          "internalType": "address",
          "name": "newOwner",
          "type": "address"
        }
      ],
      "name": "transferOwnership",
      "outputs": [],
      "stateMutability": "nonpayable",
      "type": "function"
    },
    {
      "inputs": [
        {
          "internalType": "contract IERC20",
          "name": "_soul",
          "type": "address"
        }
      ],
      "name": "initialize",
      "outputs": [],
      "stateMutability": "nonpayable",
      "type": "function"
    },
    {
      "inputs": [
        {
          "internalType": "uint256",
          "name": "soulQty",
          "type": "uint256"
        }
      ],
      "name": "enter",
      "outputs": [],
      "stateMutability": "nonpayable",
      "type": "function"
    },
    {
      "inputs": [
        {
          "internalType": "uint256",
          "name": "spellQty",
          "type": "uint256"
        }
      ],
      "name": "leave",
      "outputs": [],
      "stateMutability": "nonpayable",
      "type": "function"
    },
    {
      "inputs": [
        {
          "internalType": "uint256",
          "name": "soulQty",
          "type": "uint256"
        }
      ],
      "name": "boundSpell",
      "outputs": [],
      "stateMutability": "nonpayable",
      "type": "function"
    }
  ],
  "bytecode": "0x60806040523480156200001157600080fd5b506040518060400160405280600a81526020017f5370656c6c426f756e64000000000000000000000000000000000000000000008152506040518060400160405280600581526020017f5350454c4c000000000000000000000000000000000000000000000000000000815250816003908051906020019062000096929190620002c5565b508060049080519060200190620000af929190620002c5565b505050620000d2620000c6620001f760201b60201c565b620001ff60201b60201c565b6000620000e4620001f760201b60201c565b90506001600760008373ffffffffffffffffffffffffffffffffffffffff1673ffffffffffffffffffffffffffffffffffffffff16815260200190815260200160002060006101000a81548160ff0219169083151502179055506006819080600181540180825580915050600190039060005260206000200160009091909190916101000a81548173ffffffffffffffffffffffffffffffffffffffff021916908373ffffffffffffffffffffffffffffffffffffffff160217905550600115158173ffffffffffffffffffffffffffffffffffffffff167f966c160e1c4dbc7df8d69af4ace01e9297c3cf016397b7914971f2fbfa32672d60405160405180910390a3506001600881905550620003da565b600033905090565b6000600560009054906101000a900473ffffffffffffffffffffffffffffffffffffffff16905081600560006101000a81548173ffffffffffffffffffffffffffffffffffffffff021916908373ffffffffffffffffffffffffffffffffffffffff1602179055508173ffffffffffffffffffffffffffffffffffffffff168173ffffffffffffffffffffffffffffffffffffffff167f8be0079c531659141344cd1fd0a4f28419497f9722a3daafe3b4186f6b6457e060405160405180910390a35050565b828054620002d39062000375565b90600052602060002090601f016020900481019282620002f7576000855562000343565b82601f106200031257805160ff191683800117855562000343565b8280016001018555821562000343579182015b828111156200034257825182559160200191906001019062000325565b5b50905062000352919062000356565b5090565b5b808211156200037157600081600090555060010162000357565b5090565b600060028204905060018216806200038e57607f821691505b60208210811415620003a557620003a4620003ab565b5b50919050565b7f4e487b7100000000000000000000000000000000000000000000000000000000600052602260045260246000fd5b61321480620003ea6000396000f3fe608060405234801561001057600080fd5b506004361061014d5760003560e01c80638da5cb5b116100c3578063a9059cbb1161007c578063a9059cbb146103a0578063ac8a584a146103d0578063c4d66de8146103ec578063dd62ed3e14610408578063e28d490614610438578063f2fde38b146104685761014d565b80638da5cb5b146102cc57806395d89b41146102ea5780639870d7fe146103085780639a30739114610324578063a457c2d714610354578063a59f3e0c146103845761014d565b80633950935111610115578063395093511461020c57806357f965011461023c57806367dfd4c91461025857806370a0823114610274578063715018a6146102a4578063815b7a8c146102ae5761014d565b806306fdde0314610152578063095ea7b31461017057806318160ddd146101a057806323b872dd146101be578063313ce567146101ee575b600080fd5b61015a610484565b6040516101679190612bca565b60405180910390f35b61018a60048036038101906101859190612321565b610516565b6040516101979190612b94565b60405180910390f35b6101a8610534565b6040516101b59190612e2c565b60405180910390f35b6101d860048036038101906101d391906122d2565b61053e565b6040516101e59190612b94565b60405180910390f35b6101f661063f565b6040516102039190612e47565b60405180910390f35b61022660048036038101906102219190612321565b610648565b6040516102339190612b94565b60405180910390f35b610256600480360381019061025191906123af565b6106f4565b005b610272600480360381019061026d91906123af565b6108e7565b005b61028e6004803603810190610289919061226d565b610b22565b60405161029b9190612e2c565b60405180910390f35b6102ac610b6a565b005b6102b6610bf2565b6040516102c39190612baf565b60405180910390f35b6102d4610c18565b6040516102e19190612b19565b60405180910390f35b6102f2610c42565b6040516102ff9190612bca565b60405180910390f35b610322600480360381019061031d919061226d565b610cd4565b005b61033e6004803603810190610339919061226d565b610f6f565b60405161034b9190612b94565b60405180910390f35b61036e60048036038101906103699190612321565b610f8f565b60405161037b9190612b94565b60405180910390f35b61039e600480360381019061039991906123af565b611083565b005b6103ba60048036038101906103b59190612321565b6112ea565b6040516103c79190612b94565b60405180910390f35b6103ea60048036038101906103e5919061226d565b611308565b005b61040660048036038101906104019190612386565b6116fe565b005b610422600480360381019061041d9190612296565b6117d9565b60405161042f9190612e2c565b60405180910390f35b610452600480360381019061044d91906123af565b611860565b60405161045f9190612b19565b60405180910390f35b610482600480360381019061047d919061226d565b61189f565b005b60606003805461049390613088565b80601f01602080910402602001604051908101604052809291908181526020018280546104bf90613088565b801561050c5780601f106104e15761010080835404028352916020019161050c565b820191906000526020600020905b8154815290600101906020018083116104ef57829003601f168201915b5050505050905090565b600061052a610523611997565b848461199f565b6001905092915050565b6000600254905090565b600061054b848484611b6a565b6000600160008673ffffffffffffffffffffffffffffffffffffffff1673ffffffffffffffffffffffffffffffffffffffff1681526020019081526020016000206000610596611997565b73ffffffffffffffffffffffffffffffffffffffff1673ffffffffffffffffffffffffffffffffffffffff16815260200190815260200160002054905082811015610616576040517f08c379a000000000000000000000000000000000000000000000000000000000815260040161060d90612cec565b60405180910390fd5b61063385610622611997565b858461062e9190612f96565b61199f565b60019150509392505050565b60006012905090565b60006106ea610655611997565b848460016000610663611997565b73ffffffffffffffffffffffffffffffffffffffff1673ffffffffffffffffffffffffffffffffffffffff16815260200190815260200160002060008873ffffffffffffffffffffffffffffffffffffffff1673ffffffffffffffffffffffffffffffffffffffff168152602001908152602001600020546106e59190612e7e565b61199f565b6001905092915050565b6002600854141561073a576040517f08c379a000000000000000000000000000000000000000000000000000000000815260040161073190612dcc565b60405180910390fd5b6002600881905550600061074c611997565b9050600760008273ffffffffffffffffffffffffffffffffffffffff1673ffffffffffffffffffffffffffffffffffffffff16815260200190815260200160002060009054906101000a900460ff166107da576040517f08c379a00000000000000000000000000000000000000000000000000000000081526004016107d190612d8c565b60405180910390fd5b600960149054906101000a900460ff16610829576040517f08c379a000000000000000000000000000000000000000000000000000000000815260040161082090612c8c565b60405180910390fd5b600960009054906101000a900473ffffffffffffffffffffffffffffffffffffffff1673ffffffffffffffffffffffffffffffffffffffff166323b872dd3330856040518463ffffffff1660e01b815260040161088893929190612b34565b602060405180830381600087803b1580156108a257600080fd5b505af11580156108b6573d6000803e3d6000fd5b505050506040513d601f19601f820116820180604052508101906108da919061235d565b5050600160088190555050565b6002600854141561092d576040517f08c379a000000000000000000000000000000000000000000000000000000000815260040161092490612dcc565b60405180910390fd5b6002600881905550600960149054906101000a900460ff16610984576040517f08c379a000000000000000000000000000000000000000000000000000000000815260040161097b90612c8c565b60405180910390fd5b600061098e610534565b9050600081600960009054906101000a900473ffffffffffffffffffffffffffffffffffffffff1673ffffffffffffffffffffffffffffffffffffffff166370a08231306040518263ffffffff1660e01b81526004016109ee9190612b19565b60206040518083038186803b158015610a0657600080fd5b505afa158015610a1a573d6000803e3d6000fd5b505050506040513d601f19601f82011682018060405250810190610a3e91906123d8565b610a489190612f0b565b905060008184610a589190612f3c565b9050610a643385611df4565b600960009054906101000a900473ffffffffffffffffffffffffffffffffffffffff1673ffffffffffffffffffffffffffffffffffffffff1663a9059cbb33836040518363ffffffff1660e01b8152600401610ac1929190612b6b565b602060405180830381600087803b158015610adb57600080fd5b505af1158015610aef573d6000803e3d6000fd5b505050506040513d601f19601f82011682018060405250810190610b13919061235d565b50505050600160088190555050565b60008060008373ffffffffffffffffffffffffffffffffffffffff1673ffffffffffffffffffffffffffffffffffffffff168152602001908152602001600020549050919050565b610b72611997565b73ffffffffffffffffffffffffffffffffffffffff16610b90610c18565b73ffffffffffffffffffffffffffffffffffffffff1614610be6576040517f08c379a0000000000000000000000000000000000000000000000000000000008152600401610bdd90612d0c565b60405180910390fd5b610bf06000611fd4565b565b600960009054906101000a900473ffffffffffffffffffffffffffffffffffffffff1681565b6000600560009054906101000a900473ffffffffffffffffffffffffffffffffffffffff16905090565b606060048054610c5190613088565b80601f0160208091040260200160405190810160405280929190818152602001828054610c7d90613088565b8015610cca5780601f10610c9f57610100808354040283529160200191610cca565b820191906000526020600020905b815481529060010190602001808311610cad57829003601f168201915b5050505050905090565b6000610cde611997565b9050600760008273ffffffffffffffffffffffffffffffffffffffff1673ffffffffffffffffffffffffffffffffffffffff16815260200190815260200160002060009054906101000a900460ff16610d6c576040517f08c379a0000000000000000000000000000000000000000000000000000000008152600401610d6390612d8c565b60405180910390fd5b600073ffffffffffffffffffffffffffffffffffffffff168273ffffffffffffffffffffffffffffffffffffffff161415610ddc576040517f08c379a0000000000000000000000000000000000000000000000000000000008152600401610dd390612c6c565b60405180910390fd5b600760008373ffffffffffffffffffffffffffffffffffffffff1673ffffffffffffffffffffffffffffffffffffffff16815260200190815260200160002060009054906101000a900460ff1615610e69576040517f08c379a0000000000000000000000000000000000000000000000000000000008152600401610e6090612d2c565b60405180910390fd5b6001600760008473ffffffffffffffffffffffffffffffffffffffff1673ffffffffffffffffffffffffffffffffffffffff16815260200190815260200160002060006101000a81548160ff0219169083151502179055506006829080600181540180825580915050600190039060005260206000200160009091909190916101000a81548173ffffffffffffffffffffffffffffffffffffffff021916908373ffffffffffffffffffffffffffffffffffffffff160217905550600115158273ffffffffffffffffffffffffffffffffffffffff167f966c160e1c4dbc7df8d69af4ace01e9297c3cf016397b7914971f2fbfa32672d60405160405180910390a35050565b60076020528060005260406000206000915054906101000a900460ff1681565b60008060016000610f9e611997565b73ffffffffffffffffffffffffffffffffffffffff1673ffffffffffffffffffffffffffffffffffffffff16815260200190815260200160002060008573ffffffffffffffffffffffffffffffffffffffff1673ffffffffffffffffffffffffffffffffffffffff1681526020019081526020016000205490508281101561105b576040517f08c379a000000000000000000000000000000000000000000000000000000000815260040161105290612dec565b60405180910390fd5b611078611066611997565b8585846110739190612f96565b61199f565b600191505092915050565b600260085414156110c9576040517f08c379a00000000000000000000000000000000000000000000000000000000081526004016110c090612dcc565b60405180910390fd5b6002600881905550600960149054906101000a900460ff16611120576040517f08c379a000000000000000000000000000000000000000000000000000000000815260040161111790612c8c565b60405180910390fd5b6000600960009054906101000a900473ffffffffffffffffffffffffffffffffffffffff1673ffffffffffffffffffffffffffffffffffffffff166370a08231306040518263ffffffff1660e01b815260040161117d9190612b19565b60206040518083038186803b15801561119557600080fd5b505afa1580156111a9573d6000803e3d6000fd5b505050506040513d601f19601f820116820180604052508101906111cd91906123d8565b905060006111d9610534565b905060008114806111ea5750600082145b156111fe576111f9338461209a565b61122b565b6000828261120c9190612f0b565b90506000818561121c9190612f3c565b9050611228338261209a565b50505b600960009054906101000a900473ffffffffffffffffffffffffffffffffffffffff1673ffffffffffffffffffffffffffffffffffffffff166323b872dd3330866040518463ffffffff1660e01b815260040161128a93929190612b34565b602060405180830381600087803b1580156112a457600080fd5b505af11580156112b8573d6000803e3d6000fd5b505050506040513d601f19601f820116820180604052508101906112dc919061235d565b505050600160088190555050565b60006112fe6112f7611997565b8484611b6a565b6001905092915050565b6000611312611997565b9050600760008273ffffffffffffffffffffffffffffffffffffffff1673ffffffffffffffffffffffffffffffffffffffff16815260200190815260200160002060009054906101000a900460ff166113a0576040517f08c379a000000000000000000000000000000000000000000000000000000000815260040161139790612d8c565b60405180910390fd5b600760008373ffffffffffffffffffffffffffffffffffffffff1673ffffffffffffffffffffffffffffffffffffffff16815260200190815260200160002060009054906101000a900460ff1661142c576040517f08c379a000000000000000000000000000000000000000000000000000000000815260040161142390612ccc565b60405180910390fd5b6000600760008473ffffffffffffffffffffffffffffffffffffffff1673ffffffffffffffffffffffffffffffffffffffff16815260200190815260200160002060006101000a81548160ff02191690831515021790555060005b6006805490508160ff1610156116f8578273ffffffffffffffffffffffffffffffffffffffff1660068260ff16815481106114eb577f4e487b7100000000000000000000000000000000000000000000000000000000600052603260045260246000fd5b9060005260206000200160009054906101000a900473ffffffffffffffffffffffffffffffffffffffff1673ffffffffffffffffffffffffffffffffffffffff1614156116e55760066001826115419190612ed4565b60ff168154811061157b577f4e487b7100000000000000000000000000000000000000000000000000000000600052603260045260246000fd5b9060005260206000200160009054906101000a900473ffffffffffffffffffffffffffffffffffffffff1660068260ff16815481106115e3577f4e487b7100000000000000000000000000000000000000000000000000000000600052603260045260246000fd5b9060005260206000200160006101000a81548173ffffffffffffffffffffffffffffffffffffffff021916908373ffffffffffffffffffffffffffffffffffffffff1602179055506006805480611663577f4e487b7100000000000000000000000000000000000000000000000000000000600052603160045260246000fd5b6001900381819060005260206000200160006101000a81549073ffffffffffffffffffffffffffffffffffffffff02191690559055600015158373ffffffffffffffffffffffffffffffffffffffff167f966c160e1c4dbc7df8d69af4ace01e9297c3cf016397b7914971f2fbfa32672d60405160405180910390a3506116fa565b80806116f0906130ba565b915050611487565b505b5050565b611706611997565b73ffffffffffffffffffffffffffffffffffffffff16611724610c18565b73ffffffffffffffffffffffffffffffffffffffff161461177a576040517f08c379a000000000000000000000000000000000000000000000000000000000815260040161177190612d0c565b60405180910390fd5b80600960006101000a81548173ffffffffffffffffffffffffffffffffffffffff021916908373ffffffffffffffffffffffffffffffffffffffff1602179055506001600960146101000a81548160ff02191690831515021790555050565b6000600160008473ffffffffffffffffffffffffffffffffffffffff1673ffffffffffffffffffffffffffffffffffffffff16815260200190815260200160002060008373ffffffffffffffffffffffffffffffffffffffff1673ffffffffffffffffffffffffffffffffffffffff16815260200190815260200160002054905092915050565b6006818154811061187057600080fd5b906000526020600020016000915054906101000a900473ffffffffffffffffffffffffffffffffffffffff1681565b6118a7611997565b73ffffffffffffffffffffffffffffffffffffffff166118c5610c18565b73ffffffffffffffffffffffffffffffffffffffff161461191b576040517f08c379a000000000000000000000000000000000000000000000000000000000815260040161191290612d0c565b60405180910390fd5b600073ffffffffffffffffffffffffffffffffffffffff168173ffffffffffffffffffffffffffffffffffffffff16141561198b576040517f08c379a000000000000000000000000000000000000000000000000000000000815260040161198290612c2c565b60405180910390fd5b61199481611fd4565b50565b600033905090565b600073ffffffffffffffffffffffffffffffffffffffff168373ffffffffffffffffffffffffffffffffffffffff161415611a0f576040517f08c379a0000000000000000000000000000000000000000000000000000000008152600401611a0690612dac565b60405180910390fd5b600073ffffffffffffffffffffffffffffffffffffffff168273ffffffffffffffffffffffffffffffffffffffff161415611a7f576040517f08c379a0000000000000000000000000000000000000000000000000000000008152600401611a7690612c4c565b60405180910390fd5b80600160008573ffffffffffffffffffffffffffffffffffffffff1673ffffffffffffffffffffffffffffffffffffffff16815260200190815260200160002060008473ffffffffffffffffffffffffffffffffffffffff1673ffffffffffffffffffffffffffffffffffffffff168152602001908152602001600020819055508173ffffffffffffffffffffffffffffffffffffffff168373ffffffffffffffffffffffffffffffffffffffff167f8c5be1e5ebec7d5bd14f71427d1e84f3dd0314c0f7b2291e5b200ac8c7c3b92583604051611b5d9190612e2c565b60405180910390a3505050565b600073ffffffffffffffffffffffffffffffffffffffff168373ffffffffffffffffffffffffffffffffffffffff161415611bda576040517f08c379a0000000000000000000000000000000000000000000000000000000008152600401611bd190612d6c565b60405180910390fd5b600073ffffffffffffffffffffffffffffffffffffffff168273ffffffffffffffffffffffffffffffffffffffff161415611c4a576040517f08c379a0000000000000000000000000000000000000000000000000000000008152600401611c4190612bec565b60405180910390fd5b611c558383836121fa565b60008060008573ffffffffffffffffffffffffffffffffffffffff1673ffffffffffffffffffffffffffffffffffffffff16815260200190815260200160002054905081811015611cdb576040517f08c379a0000000000000000000000000000000000000000000000000000000008152600401611cd290612cac565b60405180910390fd5b8181611ce79190612f96565b6000808673ffffffffffffffffffffffffffffffffffffffff1673ffffffffffffffffffffffffffffffffffffffff16815260200190815260200160002081905550816000808573ffffffffffffffffffffffffffffffffffffffff1673ffffffffffffffffffffffffffffffffffffffff1681526020019081526020016000206000828254611d779190612e7e565b925050819055508273ffffffffffffffffffffffffffffffffffffffff168473ffffffffffffffffffffffffffffffffffffffff167fddf252ad1be2c89b69c2b068fc378daa952ba7f163c4a11628f55a4df523b3ef84604051611ddb9190612e2c565b60405180910390a3611dee8484846121ff565b50505050565b600073ffffffffffffffffffffffffffffffffffffffff168273ffffffffffffffffffffffffffffffffffffffff161415611e64576040517f08c379a0000000000000000000000000000000000000000000000000000000008152600401611e5b90612d4c565b60405180910390fd5b611e70826000836121fa565b60008060008473ffffffffffffffffffffffffffffffffffffffff1673ffffffffffffffffffffffffffffffffffffffff16815260200190815260200160002054905081811015611ef6576040517f08c379a0000000000000000000000000000000000000000000000000000000008152600401611eed90612c0c565b60405180910390fd5b8181611f029190612f96565b6000808573ffffffffffffffffffffffffffffffffffffffff1673ffffffffffffffffffffffffffffffffffffffff168152602001908152602001600020819055508160026000828254611f569190612f96565b92505081905550600073ffffffffffffffffffffffffffffffffffffffff168373ffffffffffffffffffffffffffffffffffffffff167fddf252ad1be2c89b69c2b068fc378daa952ba7f163c4a11628f55a4df523b3ef84604051611fbb9190612e2c565b60405180910390a3611fcf836000846121ff565b505050565b6000600560009054906101000a900473ffffffffffffffffffffffffffffffffffffffff16905081600560006101000a81548173ffffffffffffffffffffffffffffffffffffffff021916908373ffffffffffffffffffffffffffffffffffffffff1602179055508173ffffffffffffffffffffffffffffffffffffffff168173ffffffffffffffffffffffffffffffffffffffff167f8be0079c531659141344cd1fd0a4f28419497f9722a3daafe3b4186f6b6457e060405160405180910390a35050565b600073ffffffffffffffffffffffffffffffffffffffff168273ffffffffffffffffffffffffffffffffffffffff16141561210a576040517f08c379a000000000000000000000000000000000000000000000000000000000815260040161210190612e0c565b60405180910390fd5b612116600083836121fa565b80600260008282546121289190612e7e565b92505081905550806000808473ffffffffffffffffffffffffffffffffffffffff1673ffffffffffffffffffffffffffffffffffffffff168152602001908152602001600020600082825461217d9190612e7e565b925050819055508173ffffffffffffffffffffffffffffffffffffffff16600073ffffffffffffffffffffffffffffffffffffffff167fddf252ad1be2c89b69c2b068fc378daa952ba7f163c4a11628f55a4df523b3ef836040516121e29190612e2c565b60405180910390a36121f6600083836121ff565b5050565b505050565b505050565b60008135905061221381613182565b92915050565b60008151905061222881613199565b92915050565b60008135905061223d816131b0565b92915050565b600081359050612252816131c7565b92915050565b600081519050612267816131c7565b92915050565b60006020828403121561227f57600080fd5b600061228d84828501612204565b91505092915050565b600080604083850312156122a957600080fd5b60006122b785828601612204565b92505060206122c885828601612204565b9150509250929050565b6000806000606084860312156122e757600080fd5b60006122f586828701612204565b935050602061230686828701612204565b925050604061231786828701612243565b9150509250925092565b6000806040838503121561233457600080fd5b600061234285828601612204565b925050602061235385828601612243565b9150509250929050565b60006020828403121561236f57600080fd5b600061237d84828501612219565b91505092915050565b60006020828403121561239857600080fd5b60006123a68482850161222e565b91505092915050565b6000602082840312156123c157600080fd5b60006123cf84828501612243565b91505092915050565b6000602082840312156123ea57600080fd5b60006123f884828501612258565b91505092915050565b61240a81612fca565b82525050565b61241981612fdc565b82525050565b61242881613031565b82525050565b600061243982612e62565b6124438185612e6d565b9350612453818560208601613055565b61245c81613171565b840191505092915050565b6000612474602383612e6d565b91507f45524332303a207472616e7366657220746f20746865207a65726f206164647260008301527f65737300000000000000000000000000000000000000000000000000000000006020830152604082019050919050565b60006124da602283612e6d565b91507f45524332303a206275726e20616d6f756e7420657863656564732062616c616e60008301527f63650000000000000000000000000000000000000000000000000000000000006020830152604082019050919050565b6000612540602683612e6d565b91507f4f776e61626c653a206e6577206f776e657220697320746865207a65726f206160008301527f64647265737300000000000000000000000000000000000000000000000000006020830152604082019050919050565b60006125a6602283612e6d565b91507f45524332303a20617070726f766520746f20746865207a65726f20616464726560008301527f73730000000000000000000000000000000000000000000000000000000000006020830152604082019050919050565b600061260c602a83612e6d565b91507f4f70657261626c653a206e6577206f70657261746f7220697320746865207a6560008301527f726f2061646472657373000000000000000000000000000000000000000000006020830152604082019050919050565b6000612672601983612e6d565b91507f7374616b696e6720686173206e6f742079657420626567756e000000000000006000830152602082019050919050565b60006126b2602683612e6d565b91507f45524332303a207472616e7366657220616d6f756e742065786365656473206260008301527f616c616e636500000000000000000000000000000000000000000000000000006020830152604082019050919050565b6000612718602483612e6d565b91507f4f70657261626c653a2061646472657373206973206e6f7420616e206f70657260008301527f61746f72000000000000000000000000000000000000000000000000000000006020830152604082019050919050565b600061277e602883612e6d565b91507f45524332303a207472616e7366657220616d6f756e742065786365656473206160008301527f6c6c6f77616e63650000000000000000000000000000000000000000000000006020830152604082019050919050565b60006127e4602083612e6d565b91507f4f776e61626c653a2063616c6c6572206973206e6f7420746865206f776e65726000830152602082019050919050565b6000612824602883612e6d565b91507f4f70657261626c653a206164647265737320697320616c726561647920616e2060008301527f6f70657261746f720000000000000000000000000000000000000000000000006020830152604082019050919050565b600061288a602183612e6d565b91507f45524332303a206275726e2066726f6d20746865207a65726f2061646472657360008301527f73000000000000000000000000000000000000000000000000000000000000006020830152604082019050919050565b60006128f0602583612e6d565b91507f45524332303a207472616e736665722066726f6d20746865207a65726f20616460008301527f64726573730000000000000000000000000000000000000000000000000000006020830152604082019050919050565b6000612956602383612e6d565b91507f4f70657261746f723a2063616c6c6572206973206e6f7420616e206f7065726160008301527f746f7200000000000000000000000000000000000000000000000000000000006020830152604082019050919050565b60006129bc602483612e6d565b91507f45524332303a20617070726f76652066726f6d20746865207a65726f2061646460008301527f72657373000000000000000000000000000000000000000000000000000000006020830152604082019050919050565b6000612a22601f83612e6d565b91507f5265656e7472616e637947756172643a207265656e7472616e742063616c6c006000830152602082019050919050565b6000612a62602583612e6d565b91507f45524332303a2064656372656173656420616c6c6f77616e63652062656c6f7760008301527f207a65726f0000000000000000000000000000000000000000000000000000006020830152604082019050919050565b6000612ac8601f83612e6d565b91507f45524332303a206d696e7420746f20746865207a65726f2061646472657373006000830152602082019050919050565b612b048161301a565b82525050565b612b1381613024565b82525050565b6000602082019050612b2e6000830184612401565b92915050565b6000606082019050612b496000830186612401565b612b566020830185612401565b612b636040830184612afb565b949350505050565b6000604082019050612b806000830185612401565b612b8d6020830184612afb565b9392505050565b6000602082019050612ba96000830184612410565b92915050565b6000602082019050612bc4600083018461241f565b92915050565b60006020820190508181036000830152612be4818461242e565b905092915050565b60006020820190508181036000830152612c0581612467565b9050919050565b60006020820190508181036000830152612c25816124cd565b9050919050565b60006020820190508181036000830152612c4581612533565b9050919050565b60006020820190508181036000830152612c6581612599565b9050919050565b60006020820190508181036000830152612c85816125ff565b9050919050565b60006020820190508181036000830152612ca581612665565b9050919050565b60006020820190508181036000830152612cc5816126a5565b9050919050565b60006020820190508181036000830152612ce58161270b565b9050919050565b60006020820190508181036000830152612d0581612771565b9050919050565b60006020820190508181036000830152612d25816127d7565b9050919050565b60006020820190508181036000830152612d4581612817565b9050919050565b60006020820190508181036000830152612d658161287d565b9050919050565b60006020820190508181036000830152612d85816128e3565b9050919050565b60006020820190508181036000830152612da581612949565b9050919050565b60006020820190508181036000830152612dc5816129af565b9050919050565b60006020820190508181036000830152612de581612a15565b9050919050565b60006020820190508181036000830152612e0581612a55565b9050919050565b60006020820190508181036000830152612e2581612abb565b9050919050565b6000602082019050612e416000830184612afb565b92915050565b6000602082019050612e5c6000830184612b0a565b92915050565b600081519050919050565b600082825260208201905092915050565b6000612e898261301a565b9150612e948361301a565b9250827fffffffffffffffffffffffffffffffffffffffffffffffffffffffffffffffff03821115612ec957612ec86130e4565b5b828201905092915050565b6000612edf82613024565b9150612eea83613024565b92508260ff03821115612f0057612eff6130e4565b5b828201905092915050565b6000612f168261301a565b9150612f218361301a565b925082612f3157612f30613113565b5b828204905092915050565b6000612f478261301a565b9150612f528361301a565b9250817fffffffffffffffffffffffffffffffffffffffffffffffffffffffffffffffff0483118215151615612f8b57612f8a6130e4565b5b828202905092915050565b6000612fa18261301a565b9150612fac8361301a565b925082821015612fbf57612fbe6130e4565b5b828203905092915050565b6000612fd582612ffa565b9050919050565b60008115159050919050565b6000612ff382612fca565b9050919050565b600073ffffffffffffffffffffffffffffffffffffffff82169050919050565b6000819050919050565b600060ff82169050919050565b600061303c82613043565b9050919050565b600061304e82612ffa565b9050919050565b60005b83811015613073578082015181840152602081019050613058565b83811115613082576000848401525b50505050565b600060028204905060018216806130a057607f821691505b602082108114156130b4576130b3613142565b5b50919050565b60006130c582613024565b915060ff8214156130d9576130d86130e4565b5b600182019050919050565b7f4e487b7100000000000000000000000000000000000000000000000000000000600052601160045260246000fd5b7f4e487b7100000000000000000000000000000000000000000000000000000000600052601260045260246000fd5b7f4e487b7100000000000000000000000000000000000000000000000000000000600052602260045260246000fd5b6000601f19601f8301169050919050565b61318b81612fca565b811461319657600080fd5b50565b6131a281612fdc565b81146131ad57600080fd5b50565b6131b981612fe8565b81146131c457600080fd5b50565b6131d08161301a565b81146131db57600080fd5b5056fea2646970667358221220a7da29de58eb57b934be793eba235023222bcecaf5e75f5966e8b4c1272d284864736f6c63430008000033",
  "immutableReferences": {},
  "source": "// SPDX-License-Identifier: MIT\n\npragma solidity ^0.8.0;\nimport './libs/ERC20.sol';\nimport '@openzeppelin/contracts/security/ReentrancyGuard.sol';\nimport './libs/Operable.sol';\n\n// spell is the neatest bound around. come in with some soul, and leave with some more! \n// handles swapping to and from spell -- our dex reward token.\n\ncontract SpellBound is ERC20(\"SpellBound\", \"SPELL\"), Operable, ReentrancyGuard {\n    IERC20 public soul;\n\n    bool isInitialized; // stores whether contract has been initialized\n\n    // the soul token contract\n    function initialize(IERC20 _soul) external onlyOwner {\n        soul = _soul;\n        isInitialized = true;\n    }\n\n    // locks soul, mints spell at bound rate\n    function enter(uint soulQty) external nonReentrant {\n        require(isInitialized, 'staking has not yet begun');\n        // acquires soul locked in the contract\n        uint totalSoul = soul.balanceOf(address(this));\n        // acquires spellBound in existence\n        uint totalBound = totalSupply();\n        // if no spellBound exists, mint it 1:1 to soul recieves\n        if (totalBound == 0 || totalSoul == 0) { _mint(msg.sender, soulQty); }\n        // calc & mint spellBound qty the soul is worth\n        // the ratio will change overtime\n            // spellBound is burned / minted\n            // soul fees deposited + deposited soul + withdrawn soul\n        else {\n            uint boundRate = totalBound / totalSoul; // qty of bound : quantity of soul in contract\n            uint boundQty = soulQty * boundRate;\n            _mint(msg.sender, boundQty);\n        }\n        // locks the soul in the contract\n        soul.transferFrom(msg.sender, address(this), soulQty);\n    }\n\n    // leaves the spellbound. reclaims soul.\n    // unlocks soul rewards + staked | burns bounded spell\n    function leave(uint spellQty) external nonReentrant {\n        require(isInitialized, 'staking has not yet begun');\n        // qty of spellBound in existence\n        uint totalBound = totalSupply();\n        // calcs the qty of soul the spell is worth\n        uint boundRate = soul.balanceOf(address(this)) / totalBound;\n        uint rewards = spellQty * boundRate;\n        _burn(msg.sender, spellQty);\n        soul.transfer(msg.sender, rewards);\n    }\n\n    // sends over soul that is shared across all spell bounded | operators-only, ywc\n    // does not mint new spell\n    function boundSpell(uint soulQty) external nonReentrant onlyOperator {\n        require(isInitialized, 'staking has not yet begun');\n        // locks the soul in the contract\n        soul.transferFrom(msg.sender, address(this), soulQty);\n    }\n\n}\n",
  "sourcePath": "/Users/unico/Documents/GitHub/SoulSwap/soulswap-farms/contracts/SpellBound.sol",
  "compiler": {
    "name": "solc",
    "version": "0.8.0+commit.c7dfd78e.Emscripten.clang"
  },
  "schemaVersion": "3.4.1",
  "updatedAt": "2021-07-26T00:00:03.617Z",
  "networkType": "ethereum",
  "devdoc": {
    "kind": "dev",
    "methods": {
      "addOperator(address)": {
        "details": "Adds address as operator of the contract. Can only be called by an operator."
      },
      "allowance(address,address)": {
        "details": "See {IERC20-allowance}."
      },
      "approve(address,uint256)": {
        "details": "See {IERC20-approve}. Requirements: - `spender` cannot be the zero address."
      },
      "balanceOf(address)": {
        "details": "See {IERC20-balanceOf}."
      },
      "decimals()": {
        "details": "Returns the number of decimals used to get its user representation. For example, if `decimals` equals `2`, a balance of `505` tokens should be displayed to a user as `5,05` (`505 / 10 ** 2`). Tokens usually opt for a value of 18, imitating the relationship between Ether and Wei. This is the value {ERC20} uses, unless this function is overridden; NOTE: This information is only used for _display_ purposes: it in no way affects any of the arithmetic of the contract, including {IERC20-balanceOf} and {IERC20-transfer}."
      },
      "decreaseAllowance(address,uint256)": {
        "details": "Atomically decreases the allowance granted to `spender` by the caller. This is an alternative to {approve} that can be used as a mitigation for problems described in {IERC20-approve}. Emits an {Approval} event indicating the updated allowance. Requirements: - `spender` cannot be the zero address. - `spender` must have allowance for the caller of at least `subtractedValue`."
      },
      "increaseAllowance(address,uint256)": {
        "details": "Atomically increases the allowance granted to `spender` by the caller. This is an alternative to {approve} that can be used as a mitigation for problems described in {IERC20-approve}. Emits an {Approval} event indicating the updated allowance. Requirements: - `spender` cannot be the zero address."
      },
      "name()": {
        "details": "Returns the name of the token."
      },
      "owner()": {
        "details": "Returns the address of the current owner."
      },
      "removeOperator(address)": {
        "details": "Leaves the contract without operator. It will not be possible to call `onlyOperator` functions anymore. Can only be called by an operator."
      },
      "renounceOwnership()": {
        "details": "Leaves the contract without owner. It will not be possible to call `onlyOwner` functions anymore. Can only be called by the current owner. NOTE: Renouncing ownership will leave the contract without an owner, thereby removing any functionality that is only available to the owner."
      },
      "symbol()": {
        "details": "Returns the symbol of the token, usually a shorter version of the name."
      },
      "totalSupply()": {
        "details": "See {IERC20-totalSupply}."
      },
      "transfer(address,uint256)": {
        "details": "See {IERC20-transfer}. Requirements: - `recipient` cannot be the zero address. - the caller must have a balance of at least `amount`."
      },
      "transferFrom(address,address,uint256)": {
        "details": "See {IERC20-transferFrom}. Emits an {Approval} event indicating the updated allowance. This is not required by the EIP. See the note at the beginning of {ERC20}. Requirements: - `sender` and `recipient` cannot be the zero address. - `sender` must have a balance of at least `amount`. - the caller must have allowance for ``sender``'s tokens of at least `amount`."
      },
      "transferOwnership(address)": {
        "details": "Transfers ownership of the contract to a new account (`newOwner`). Can only be called by the current owner."
      }
    },
    "version": 1
  },
  "userdoc": {
    "kind": "user",
    "methods": {},
    "version": 1
  }
}