{
  "contractName": "SpellBound",
  "abi": [
    {
      "anonymous": false,
      "inputs": [
        {
          "indexed": true,
          "internalType": "address",
          "name": "owner",
          "type": "address"
        },
        {
          "indexed": true,
          "internalType": "address",
          "name": "spender",
          "type": "address"
        },
        {
          "indexed": false,
          "internalType": "uint256",
          "name": "value",
          "type": "uint256"
        }
      ],
      "name": "Approval",
      "type": "event"
    },
    {
      "anonymous": false,
      "inputs": [
        {
          "indexed": true,
          "internalType": "address",
          "name": "previousOwner",
          "type": "address"
        },
        {
          "indexed": true,
          "internalType": "address",
          "name": "newOwner",
          "type": "address"
        }
      ],
      "name": "OwnershipTransferred",
      "type": "event"
    },
    {
      "anonymous": false,
      "inputs": [
        {
          "indexed": true,
          "internalType": "address",
          "name": "from",
          "type": "address"
        },
        {
          "indexed": true,
          "internalType": "address",
          "name": "to",
          "type": "address"
        },
        {
          "indexed": false,
          "internalType": "uint256",
          "name": "value",
          "type": "uint256"
        }
      ],
      "name": "Transfer",
      "type": "event"
    },
    {
      "inputs": [
        {
          "internalType": "address",
          "name": "owner",
          "type": "address"
        },
        {
          "internalType": "address",
          "name": "spender",
          "type": "address"
        }
      ],
      "name": "allowance",
      "outputs": [
        {
          "internalType": "uint256",
          "name": "",
          "type": "uint256"
        }
      ],
      "stateMutability": "view",
      "type": "function"
    },
    {
      "inputs": [
        {
          "internalType": "address",
          "name": "spender",
          "type": "address"
        },
        {
          "internalType": "uint256",
          "name": "amount",
          "type": "uint256"
        }
      ],
      "name": "approve",
      "outputs": [
        {
          "internalType": "bool",
          "name": "",
          "type": "bool"
        }
      ],
      "stateMutability": "nonpayable",
      "type": "function"
    },
    {
      "inputs": [
        {
          "internalType": "address",
          "name": "account",
          "type": "address"
        }
      ],
      "name": "balanceOf",
      "outputs": [
        {
          "internalType": "uint256",
          "name": "",
          "type": "uint256"
        }
      ],
      "stateMutability": "view",
      "type": "function"
    },
    {
      "inputs": [],
      "name": "decimals",
      "outputs": [
        {
          "internalType": "uint8",
          "name": "",
          "type": "uint8"
        }
      ],
      "stateMutability": "view",
      "type": "function"
    },
    {
      "inputs": [
        {
          "internalType": "address",
          "name": "spender",
          "type": "address"
        },
        {
          "internalType": "uint256",
          "name": "subtractedValue",
          "type": "uint256"
        }
      ],
      "name": "decreaseAllowance",
      "outputs": [
        {
          "internalType": "bool",
          "name": "",
          "type": "bool"
        }
      ],
      "stateMutability": "nonpayable",
      "type": "function"
    },
    {
      "inputs": [
        {
          "internalType": "address",
          "name": "spender",
          "type": "address"
        },
        {
          "internalType": "uint256",
          "name": "addedValue",
          "type": "uint256"
        }
      ],
      "name": "increaseAllowance",
      "outputs": [
        {
          "internalType": "bool",
          "name": "",
          "type": "bool"
        }
      ],
      "stateMutability": "nonpayable",
      "type": "function"
    },
    {
      "inputs": [],
      "name": "name",
      "outputs": [
        {
          "internalType": "string",
          "name": "",
          "type": "string"
        }
      ],
      "stateMutability": "view",
      "type": "function"
    },
    {
      "inputs": [],
      "name": "owner",
      "outputs": [
        {
          "internalType": "address",
          "name": "",
          "type": "address"
        }
      ],
      "stateMutability": "view",
      "type": "function"
    },
    {
      "inputs": [],
      "name": "renounceOwnership",
      "outputs": [],
      "stateMutability": "nonpayable",
      "type": "function"
    },
    {
      "inputs": [],
      "name": "soul",
      "outputs": [
        {
          "internalType": "contract IERC20",
          "name": "",
          "type": "address"
        }
      ],
      "stateMutability": "view",
      "type": "function"
    },
    {
      "inputs": [],
      "name": "symbol",
      "outputs": [
        {
          "internalType": "string",
          "name": "",
          "type": "string"
        }
      ],
      "stateMutability": "view",
      "type": "function"
    },
    {
      "inputs": [],
      "name": "totalSupply",
      "outputs": [
        {
          "internalType": "uint256",
          "name": "",
          "type": "uint256"
        }
      ],
      "stateMutability": "view",
      "type": "function"
    },
    {
      "inputs": [
        {
          "internalType": "address",
          "name": "recipient",
          "type": "address"
        },
        {
          "internalType": "uint256",
          "name": "amount",
          "type": "uint256"
        }
      ],
      "name": "transfer",
      "outputs": [
        {
          "internalType": "bool",
          "name": "",
          "type": "bool"
        }
      ],
      "stateMutability": "nonpayable",
      "type": "function"
    },
    {
      "inputs": [
        {
          "internalType": "address",
          "name": "sender",
          "type": "address"
        },
        {
          "internalType": "address",
          "name": "recipient",
          "type": "address"
        },
        {
          "internalType": "uint256",
          "name": "amount",
          "type": "uint256"
        }
      ],
      "name": "transferFrom",
      "outputs": [
        {
          "internalType": "bool",
          "name": "",
          "type": "bool"
        }
      ],
      "stateMutability": "nonpayable",
      "type": "function"
    },
    {
      "inputs": [
        {
          "internalType": "address",
          "name": "newOwner",
          "type": "address"
        }
      ],
      "name": "transferOwnership",
      "outputs": [],
      "stateMutability": "nonpayable",
      "type": "function"
    },
    {
      "inputs": [
        {
          "internalType": "contract IERC20",
          "name": "_soul",
          "type": "address"
        }
      ],
      "name": "initialize",
      "outputs": [],
      "stateMutability": "nonpayable",
      "type": "function"
    },
    {
      "inputs": [
        {
          "internalType": "uint256",
          "name": "soulQty",
          "type": "uint256"
        }
      ],
      "name": "enter",
      "outputs": [],
      "stateMutability": "nonpayable",
      "type": "function"
    },
    {
      "inputs": [
        {
          "internalType": "uint256",
          "name": "spellQty",
          "type": "uint256"
        }
      ],
      "name": "leave",
      "outputs": [],
      "stateMutability": "nonpayable",
      "type": "function"
    }
  ],
  "bytecode": "0x60806040523480156200001157600080fd5b506040518060400160405280600a81526020017f5370656c6c426f756e64000000000000000000000000000000000000000000008152506040518060400160405280600581526020017f5350454c4c000000000000000000000000000000000000000000000000000000815250816003908051906020019062000096929190620001ae565b508060049080519060200190620000af929190620001ae565b505050620000d2620000c6620000e060201b60201c565b620000e860201b60201c565b6001600681905550620002c3565b600033905090565b6000600560009054906101000a900473ffffffffffffffffffffffffffffffffffffffff16905081600560006101000a81548173ffffffffffffffffffffffffffffffffffffffff021916908373ffffffffffffffffffffffffffffffffffffffff1602179055508173ffffffffffffffffffffffffffffffffffffffff168173ffffffffffffffffffffffffffffffffffffffff167f8be0079c531659141344cd1fd0a4f28419497f9722a3daafe3b4186f6b6457e060405160405180910390a35050565b828054620001bc906200025e565b90600052602060002090601f016020900481019282620001e057600085556200022c565b82601f10620001fb57805160ff19168380011785556200022c565b828001600101855582156200022c579182015b828111156200022b5782518255916020019190600101906200020e565b5b5090506200023b91906200023f565b5090565b5b808211156200025a57600081600090555060010162000240565b5090565b600060028204905060018216806200027757607f821691505b602082108114156200028e576200028d62000294565b5b50919050565b7f4e487b7100000000000000000000000000000000000000000000000000000000600052602260045260246000fd5b6125cd80620002d36000396000f3fe608060405234801561001057600080fd5b50600436106101165760003560e01c8063815b7a8c116100a2578063a59f3e0c11610071578063a59f3e0c146102e5578063a9059cbb14610301578063c4d66de814610331578063dd62ed3e1461034d578063f2fde38b1461037d57610116565b8063815b7a8c1461025b5780638da5cb5b1461027957806395d89b4114610297578063a457c2d7146102b557610116565b8063313ce567116100e9578063313ce567146101b757806339509351146101d557806367dfd4c91461020557806370a0823114610221578063715018a61461025157610116565b806306fdde031461011b578063095ea7b31461013957806318160ddd1461016957806323b872dd14610187575b600080fd5b610123610399565b6040516101309190612064565b60405180910390f35b610153600480360381019061014e9190611953565b61042b565b604051610160919061202e565b60405180910390f35b610171610449565b60405161017e9190612246565b60405180910390f35b6101a1600480360381019061019c9190611904565b610453565b6040516101ae919061202e565b60405180910390f35b6101bf610554565b6040516101cc9190612261565b60405180910390f35b6101ef60048036038101906101ea9190611953565b61055d565b6040516101fc919061202e565b60405180910390f35b61021f600480360381019061021a91906119e1565b610609565b005b61023b6004803603810190610236919061189f565b610844565b6040516102489190612246565b60405180910390f35b61025961088c565b005b610263610914565b6040516102709190612049565b60405180910390f35b61028161093a565b60405161028e9190611fb3565b60405180910390f35b61029f610964565b6040516102ac9190612064565b60405180910390f35b6102cf60048036038101906102ca9190611953565b6109f6565b6040516102dc919061202e565b60405180910390f35b6102ff60048036038101906102fa91906119e1565b610aea565b005b61031b60048036038101906103169190611953565b610d51565b604051610328919061202e565b60405180910390f35b61034b600480360381019061034691906119b8565b610d6f565b005b610367600480360381019061036291906118c8565b610e4a565b6040516103749190612246565b60405180910390f35b6103976004803603810190610392919061189f565b610ed1565b005b6060600380546103a89061246b565b80601f01602080910402602001604051908101604052809291908181526020018280546103d49061246b565b80156104215780601f106103f657610100808354040283529160200191610421565b820191906000526020600020905b81548152906001019060200180831161040457829003601f168201915b5050505050905090565b600061043f610438610fc9565b8484610fd1565b6001905092915050565b6000600254905090565b600061046084848461119c565b6000600160008673ffffffffffffffffffffffffffffffffffffffff1673ffffffffffffffffffffffffffffffffffffffff16815260200190815260200160002060006104ab610fc9565b73ffffffffffffffffffffffffffffffffffffffff1673ffffffffffffffffffffffffffffffffffffffff1681526020019081526020016000205490508281101561052b576040517f08c379a000000000000000000000000000000000000000000000000000000000815260040161052290612146565b60405180910390fd5b61054885610537610fc9565b85846105439190612379565b610fd1565b60019150509392505050565b60006012905090565b60006105ff61056a610fc9565b848460016000610578610fc9565b73ffffffffffffffffffffffffffffffffffffffff1673ffffffffffffffffffffffffffffffffffffffff16815260200190815260200160002060008873ffffffffffffffffffffffffffffffffffffffff1673ffffffffffffffffffffffffffffffffffffffff168152602001908152602001600020546105fa9190612298565b610fd1565b6001905092915050565b6002600654141561064f576040517f08c379a0000000000000000000000000000000000000000000000000000000008152600401610646906121e6565b60405180910390fd5b6002600681905550600760149054906101000a900460ff166106a6576040517f08c379a000000000000000000000000000000000000000000000000000000000815260040161069d90612106565b60405180910390fd5b60006106b0610449565b9050600081600760009054906101000a900473ffffffffffffffffffffffffffffffffffffffff1673ffffffffffffffffffffffffffffffffffffffff166370a08231306040518263ffffffff1660e01b81526004016107109190611fb3565b60206040518083038186803b15801561072857600080fd5b505afa15801561073c573d6000803e3d6000fd5b505050506040513d601f19601f820116820180604052508101906107609190611a0a565b61076a91906122ee565b90506000818461077a919061231f565b90506107863385611426565b600760009054906101000a900473ffffffffffffffffffffffffffffffffffffffff1673ffffffffffffffffffffffffffffffffffffffff1663a9059cbb33836040518363ffffffff1660e01b81526004016107e3929190612005565b602060405180830381600087803b1580156107fd57600080fd5b505af1158015610811573d6000803e3d6000fd5b505050506040513d601f19601f82011682018060405250810190610835919061198f565b50505050600160068190555050565b60008060008373ffffffffffffffffffffffffffffffffffffffff1673ffffffffffffffffffffffffffffffffffffffff168152602001908152602001600020549050919050565b610894610fc9565b73ffffffffffffffffffffffffffffffffffffffff166108b261093a565b73ffffffffffffffffffffffffffffffffffffffff1614610908576040517f08c379a00000000000000000000000000000000000000000000000000000000081526004016108ff90612166565b60405180910390fd5b6109126000611606565b565b600760009054906101000a900473ffffffffffffffffffffffffffffffffffffffff1681565b6000600560009054906101000a900473ffffffffffffffffffffffffffffffffffffffff16905090565b6060600480546109739061246b565b80601f016020809104026020016040519081016040528092919081815260200182805461099f9061246b565b80156109ec5780601f106109c1576101008083540402835291602001916109ec565b820191906000526020600020905b8154815290600101906020018083116109cf57829003601f168201915b5050505050905090565b60008060016000610a05610fc9565b73ffffffffffffffffffffffffffffffffffffffff1673ffffffffffffffffffffffffffffffffffffffff16815260200190815260200160002060008573ffffffffffffffffffffffffffffffffffffffff1673ffffffffffffffffffffffffffffffffffffffff16815260200190815260200160002054905082811015610ac2576040517f08c379a0000000000000000000000000000000000000000000000000000000008152600401610ab990612206565b60405180910390fd5b610adf610acd610fc9565b858584610ada9190612379565b610fd1565b600191505092915050565b60026006541415610b30576040517f08c379a0000000000000000000000000000000000000000000000000000000008152600401610b27906121e6565b60405180910390fd5b6002600681905550600760149054906101000a900460ff16610b87576040517f08c379a0000000000000000000000000000000000000000000000000000000008152600401610b7e90612106565b60405180910390fd5b6000600760009054906101000a900473ffffffffffffffffffffffffffffffffffffffff1673ffffffffffffffffffffffffffffffffffffffff166370a08231306040518263ffffffff1660e01b8152600401610be49190611fb3565b60206040518083038186803b158015610bfc57600080fd5b505afa158015610c10573d6000803e3d6000fd5b505050506040513d601f19601f82011682018060405250810190610c349190611a0a565b90506000610c40610449565b90506000811480610c515750600082145b15610c6557610c6033846116cc565b610c92565b60008282610c7391906122ee565b905060008185610c83919061231f565b9050610c8f33826116cc565b50505b600760009054906101000a900473ffffffffffffffffffffffffffffffffffffffff1673ffffffffffffffffffffffffffffffffffffffff166323b872dd3330866040518463ffffffff1660e01b8152600401610cf193929190611fce565b602060405180830381600087803b158015610d0b57600080fd5b505af1158015610d1f573d6000803e3d6000fd5b505050506040513d601f19601f82011682018060405250810190610d43919061198f565b505050600160068190555050565b6000610d65610d5e610fc9565b848461119c565b6001905092915050565b610d77610fc9565b73ffffffffffffffffffffffffffffffffffffffff16610d9561093a565b73ffffffffffffffffffffffffffffffffffffffff1614610deb576040517f08c379a0000000000000000000000000000000000000000000000000000000008152600401610de290612166565b60405180910390fd5b80600760006101000a81548173ffffffffffffffffffffffffffffffffffffffff021916908373ffffffffffffffffffffffffffffffffffffffff1602179055506001600760146101000a81548160ff02191690831515021790555050565b6000600160008473ffffffffffffffffffffffffffffffffffffffff1673ffffffffffffffffffffffffffffffffffffffff16815260200190815260200160002060008373ffffffffffffffffffffffffffffffffffffffff1673ffffffffffffffffffffffffffffffffffffffff16815260200190815260200160002054905092915050565b610ed9610fc9565b73ffffffffffffffffffffffffffffffffffffffff16610ef761093a565b73ffffffffffffffffffffffffffffffffffffffff1614610f4d576040517f08c379a0000000000000000000000000000000000000000000000000000000008152600401610f4490612166565b60405180910390fd5b600073ffffffffffffffffffffffffffffffffffffffff168173ffffffffffffffffffffffffffffffffffffffff161415610fbd576040517f08c379a0000000000000000000000000000000000000000000000000000000008152600401610fb4906120c6565b60405180910390fd5b610fc681611606565b50565b600033905090565b600073ffffffffffffffffffffffffffffffffffffffff168373ffffffffffffffffffffffffffffffffffffffff161415611041576040517f08c379a0000000000000000000000000000000000000000000000000000000008152600401611038906121c6565b60405180910390fd5b600073ffffffffffffffffffffffffffffffffffffffff168273ffffffffffffffffffffffffffffffffffffffff1614156110b1576040517f08c379a00000000000000000000000000000000000000000000000000000000081526004016110a8906120e6565b60405180910390fd5b80600160008573ffffffffffffffffffffffffffffffffffffffff1673ffffffffffffffffffffffffffffffffffffffff16815260200190815260200160002060008473ffffffffffffffffffffffffffffffffffffffff1673ffffffffffffffffffffffffffffffffffffffff168152602001908152602001600020819055508173ffffffffffffffffffffffffffffffffffffffff168373ffffffffffffffffffffffffffffffffffffffff167f8c5be1e5ebec7d5bd14f71427d1e84f3dd0314c0f7b2291e5b200ac8c7c3b9258360405161118f9190612246565b60405180910390a3505050565b600073ffffffffffffffffffffffffffffffffffffffff168373ffffffffffffffffffffffffffffffffffffffff16141561120c576040517f08c379a0000000000000000000000000000000000000000000000000000000008152600401611203906121a6565b60405180910390fd5b600073ffffffffffffffffffffffffffffffffffffffff168273ffffffffffffffffffffffffffffffffffffffff16141561127c576040517f08c379a000000000000000000000000000000000000000000000000000000000815260040161127390612086565b60405180910390fd5b61128783838361182c565b60008060008573ffffffffffffffffffffffffffffffffffffffff1673ffffffffffffffffffffffffffffffffffffffff1681526020019081526020016000205490508181101561130d576040517f08c379a000000000000000000000000000000000000000000000000000000000815260040161130490612126565b60405180910390fd5b81816113199190612379565b6000808673ffffffffffffffffffffffffffffffffffffffff1673ffffffffffffffffffffffffffffffffffffffff16815260200190815260200160002081905550816000808573ffffffffffffffffffffffffffffffffffffffff1673ffffffffffffffffffffffffffffffffffffffff16815260200190815260200160002060008282546113a99190612298565b925050819055508273ffffffffffffffffffffffffffffffffffffffff168473ffffffffffffffffffffffffffffffffffffffff167fddf252ad1be2c89b69c2b068fc378daa952ba7f163c4a11628f55a4df523b3ef8460405161140d9190612246565b60405180910390a3611420848484611831565b50505050565b600073ffffffffffffffffffffffffffffffffffffffff168273ffffffffffffffffffffffffffffffffffffffff161415611496576040517f08c379a000000000000000000000000000000000000000000000000000000000815260040161148d90612186565b60405180910390fd5b6114a28260008361182c565b60008060008473ffffffffffffffffffffffffffffffffffffffff1673ffffffffffffffffffffffffffffffffffffffff16815260200190815260200160002054905081811015611528576040517f08c379a000000000000000000000000000000000000000000000000000000000815260040161151f906120a6565b60405180910390fd5b81816115349190612379565b6000808573ffffffffffffffffffffffffffffffffffffffff1673ffffffffffffffffffffffffffffffffffffffff1681526020019081526020016000208190555081600260008282546115889190612379565b92505081905550600073ffffffffffffffffffffffffffffffffffffffff168373ffffffffffffffffffffffffffffffffffffffff167fddf252ad1be2c89b69c2b068fc378daa952ba7f163c4a11628f55a4df523b3ef846040516115ed9190612246565b60405180910390a361160183600084611831565b505050565b6000600560009054906101000a900473ffffffffffffffffffffffffffffffffffffffff16905081600560006101000a81548173ffffffffffffffffffffffffffffffffffffffff021916908373ffffffffffffffffffffffffffffffffffffffff1602179055508173ffffffffffffffffffffffffffffffffffffffff168173ffffffffffffffffffffffffffffffffffffffff167f8be0079c531659141344cd1fd0a4f28419497f9722a3daafe3b4186f6b6457e060405160405180910390a35050565b600073ffffffffffffffffffffffffffffffffffffffff168273ffffffffffffffffffffffffffffffffffffffff16141561173c576040517f08c379a000000000000000000000000000000000000000000000000000000000815260040161173390612226565b60405180910390fd5b6117486000838361182c565b806002600082825461175a9190612298565b92505081905550806000808473ffffffffffffffffffffffffffffffffffffffff1673ffffffffffffffffffffffffffffffffffffffff16815260200190815260200160002060008282546117af9190612298565b925050819055508173ffffffffffffffffffffffffffffffffffffffff16600073ffffffffffffffffffffffffffffffffffffffff167fddf252ad1be2c89b69c2b068fc378daa952ba7f163c4a11628f55a4df523b3ef836040516118149190612246565b60405180910390a361182860008383611831565b5050565b505050565b505050565b6000813590506118458161253b565b92915050565b60008151905061185a81612552565b92915050565b60008135905061186f81612569565b92915050565b60008135905061188481612580565b92915050565b60008151905061189981612580565b92915050565b6000602082840312156118b157600080fd5b60006118bf84828501611836565b91505092915050565b600080604083850312156118db57600080fd5b60006118e985828601611836565b92505060206118fa85828601611836565b9150509250929050565b60008060006060848603121561191957600080fd5b600061192786828701611836565b935050602061193886828701611836565b925050604061194986828701611875565b9150509250925092565b6000806040838503121561196657600080fd5b600061197485828601611836565b925050602061198585828601611875565b9150509250929050565b6000602082840312156119a157600080fd5b60006119af8482850161184b565b91505092915050565b6000602082840312156119ca57600080fd5b60006119d884828501611860565b91505092915050565b6000602082840312156119f357600080fd5b6000611a0184828501611875565b91505092915050565b600060208284031215611a1c57600080fd5b6000611a2a8482850161188a565b91505092915050565b611a3c816123ad565b82525050565b611a4b816123bf565b82525050565b611a5a81612414565b82525050565b6000611a6b8261227c565b611a758185612287565b9350611a85818560208601612438565b611a8e8161252a565b840191505092915050565b6000611aa6602383612287565b91507f45524332303a207472616e7366657220746f20746865207a65726f206164647260008301527f65737300000000000000000000000000000000000000000000000000000000006020830152604082019050919050565b6000611b0c602283612287565b91507f45524332303a206275726e20616d6f756e7420657863656564732062616c616e60008301527f63650000000000000000000000000000000000000000000000000000000000006020830152604082019050919050565b6000611b72602683612287565b91507f4f776e61626c653a206e6577206f776e657220697320746865207a65726f206160008301527f64647265737300000000000000000000000000000000000000000000000000006020830152604082019050919050565b6000611bd8602283612287565b91507f45524332303a20617070726f766520746f20746865207a65726f20616464726560008301527f73730000000000000000000000000000000000000000000000000000000000006020830152604082019050919050565b6000611c3e601983612287565b91507f7374616b696e6720686173206e6f742079657420626567756e000000000000006000830152602082019050919050565b6000611c7e602683612287565b91507f45524332303a207472616e7366657220616d6f756e742065786365656473206260008301527f616c616e636500000000000000000000000000000000000000000000000000006020830152604082019050919050565b6000611ce4602883612287565b91507f45524332303a207472616e7366657220616d6f756e742065786365656473206160008301527f6c6c6f77616e63650000000000000000000000000000000000000000000000006020830152604082019050919050565b6000611d4a602083612287565b91507f4f776e61626c653a2063616c6c6572206973206e6f7420746865206f776e65726000830152602082019050919050565b6000611d8a602183612287565b91507f45524332303a206275726e2066726f6d20746865207a65726f2061646472657360008301527f73000000000000000000000000000000000000000000000000000000000000006020830152604082019050919050565b6000611df0602583612287565b91507f45524332303a207472616e736665722066726f6d20746865207a65726f20616460008301527f64726573730000000000000000000000000000000000000000000000000000006020830152604082019050919050565b6000611e56602483612287565b91507f45524332303a20617070726f76652066726f6d20746865207a65726f2061646460008301527f72657373000000000000000000000000000000000000000000000000000000006020830152604082019050919050565b6000611ebc601f83612287565b91507f5265656e7472616e637947756172643a207265656e7472616e742063616c6c006000830152602082019050919050565b6000611efc602583612287565b91507f45524332303a2064656372656173656420616c6c6f77616e63652062656c6f7760008301527f207a65726f0000000000000000000000000000000000000000000000000000006020830152604082019050919050565b6000611f62601f83612287565b91507f45524332303a206d696e7420746f20746865207a65726f2061646472657373006000830152602082019050919050565b611f9e816123fd565b82525050565b611fad81612407565b82525050565b6000602082019050611fc86000830184611a33565b92915050565b6000606082019050611fe36000830186611a33565b611ff06020830185611a33565b611ffd6040830184611f95565b949350505050565b600060408201905061201a6000830185611a33565b6120276020830184611f95565b9392505050565b60006020820190506120436000830184611a42565b92915050565b600060208201905061205e6000830184611a51565b92915050565b6000602082019050818103600083015261207e8184611a60565b905092915050565b6000602082019050818103600083015261209f81611a99565b9050919050565b600060208201905081810360008301526120bf81611aff565b9050919050565b600060208201905081810360008301526120df81611b65565b9050919050565b600060208201905081810360008301526120ff81611bcb565b9050919050565b6000602082019050818103600083015261211f81611c31565b9050919050565b6000602082019050818103600083015261213f81611c71565b9050919050565b6000602082019050818103600083015261215f81611cd7565b9050919050565b6000602082019050818103600083015261217f81611d3d565b9050919050565b6000602082019050818103600083015261219f81611d7d565b9050919050565b600060208201905081810360008301526121bf81611de3565b9050919050565b600060208201905081810360008301526121df81611e49565b9050919050565b600060208201905081810360008301526121ff81611eaf565b9050919050565b6000602082019050818103600083015261221f81611eef565b9050919050565b6000602082019050818103600083015261223f81611f55565b9050919050565b600060208201905061225b6000830184611f95565b92915050565b60006020820190506122766000830184611fa4565b92915050565b600081519050919050565b600082825260208201905092915050565b60006122a3826123fd565b91506122ae836123fd565b9250827fffffffffffffffffffffffffffffffffffffffffffffffffffffffffffffffff038211156122e3576122e261249d565b5b828201905092915050565b60006122f9826123fd565b9150612304836123fd565b925082612314576123136124cc565b5b828204905092915050565b600061232a826123fd565b9150612335836123fd565b9250817fffffffffffffffffffffffffffffffffffffffffffffffffffffffffffffffff048311821515161561236e5761236d61249d565b5b828202905092915050565b6000612384826123fd565b915061238f836123fd565b9250828210156123a2576123a161249d565b5b828203905092915050565b60006123b8826123dd565b9050919050565b60008115159050919050565b60006123d6826123ad565b9050919050565b600073ffffffffffffffffffffffffffffffffffffffff82169050919050565b6000819050919050565b600060ff82169050919050565b600061241f82612426565b9050919050565b6000612431826123dd565b9050919050565b60005b8381101561245657808201518184015260208101905061243b565b83811115612465576000848401525b50505050565b6000600282049050600182168061248357607f821691505b60208210811415612497576124966124fb565b5b50919050565b7f4e487b7100000000000000000000000000000000000000000000000000000000600052601160045260246000fd5b7f4e487b7100000000000000000000000000000000000000000000000000000000600052601260045260246000fd5b7f4e487b7100000000000000000000000000000000000000000000000000000000600052602260045260246000fd5b6000601f19601f8301169050919050565b612544816123ad565b811461254f57600080fd5b50565b61255b816123bf565b811461256657600080fd5b50565b612572816123cb565b811461257d57600080fd5b50565b612589816123fd565b811461259457600080fd5b5056fea26469706673582212206ab79d37ca4ec3d3803bd60d89e897fd82e0f4587ba4598e41a75f32c012ff8864736f6c63430008000033",
  "immutableReferences": {},
  "source": "// SPDX-License-Identifier: MIT\n\npragma solidity ^0.8.0;\nimport './libraries/ERC20.sol';\nimport '@openzeppelin/contracts/access/Ownable.sol';\nimport '@openzeppelin/contracts/security/ReentrancyGuard.sol';\n\n// spell is the neatest bound around. come in with some soul, and leave with some more! \n// handles swapping to and from spell -- our dex reward token.\n\ncontract SpellBound is ERC20(\"SpellBound\", \"SPELL\"), Ownable, ReentrancyGuard {\n    IERC20 public soul;\n\n    bool isInitialized; // stores whether contract has been initialized\n\n    // the soul token contract\n    function initialize(IERC20 _soul) external onlyOwner {\n        soul = _soul;\n        isInitialized = true;\n    }\n\n    // locks soul, mints spell at bound rate\n    function enter(uint soulQty) external nonReentrant {\n        require(isInitialized, 'staking has not yet begun');\n        // acquires soul locked in the contract\n        uint totalSoul = soul.balanceOf(address(this));\n        // acquires spellBound in existence\n        uint totalBound = totalSupply();\n        // if no spellBound exists, mint it 1:1 to soul recieves\n        if (totalBound == 0 || totalSoul == 0) { _mint(msg.sender, soulQty); }\n        // calc & mint spellBound qty the soul is worth\n        // the ratio will change overtime\n            // spellBound is burned / minted\n            // soul fees deposited + deposited soul + withdrawn soul\n        else {\n            uint boundRate = totalBound / totalSoul; // qty of bound : quantity of soul in contract\n            uint boundQty = soulQty * boundRate;\n            _mint(msg.sender, boundQty);\n        }\n        // locks the soul in the contract\n        soul.transferFrom(msg.sender, address(this), soulQty);\n    }\n\n    // leaves the spellbound. reclaims soul.\n    // unlocks soul rewards + staked | burns bounded spell\n    function leave(uint spellQty) external nonReentrant {\n        require(isInitialized, 'staking has not yet begun');\n        // qty of spellBound in existence\n        uint totalBound = totalSupply();\n        // calcs the qty of soul the spell is worth\n        uint boundRate = soul.balanceOf(address(this)) / totalBound;\n        uint rewards = spellQty * boundRate;\n        _burn(msg.sender, spellQty);\n        soul.transfer(msg.sender, rewards);\n    }\n\n}",
  "sourcePath": "/Users/unico/Documents/GitHub/soulswap/soulswap-farms/contracts/SpellBound.sol",
  "compiler": {
    "name": "solc",
    "version": "0.8.0+commit.c7dfd78e.Emscripten.clang"
  },
  "schemaVersion": "3.4.1",
  "updatedAt": "2021-09-14T09:12:22.443Z",
  "devdoc": {
    "kind": "dev",
    "methods": {
      "allowance(address,address)": {
        "details": "See {IERC20-allowance}."
      },
      "approve(address,uint256)": {
        "details": "See {IERC20-approve}. Requirements: - `spender` cannot be the zero address."
      },
      "balanceOf(address)": {
        "details": "See {IERC20-balanceOf}."
      },
      "decimals()": {
        "details": "Returns the number of decimals used to get its user representation. For example, if `decimals` equals `2`, a balance of `505` tokens should be displayed to a user as `5,05` (`505 / 10 ** 2`). Tokens usually opt for a value of 18, imitating the relationship between Ether and Wei. This is the value {ERC20} uses, unless this function is overridden; NOTE: This information is only used for _display_ purposes: it in no way affects any of the arithmetic of the contract, including {IERC20-balanceOf} and {IERC20-transfer}."
      },
      "decreaseAllowance(address,uint256)": {
        "details": "Atomically decreases the allowance granted to `spender` by the caller. This is an alternative to {approve} that can be used as a mitigation for problems described in {IERC20-approve}. Emits an {Approval} event indicating the updated allowance. Requirements: - `spender` cannot be the zero address. - `spender` must have allowance for the caller of at least `subtractedValue`."
      },
      "increaseAllowance(address,uint256)": {
        "details": "Atomically increases the allowance granted to `spender` by the caller. This is an alternative to {approve} that can be used as a mitigation for problems described in {IERC20-approve}. Emits an {Approval} event indicating the updated allowance. Requirements: - `spender` cannot be the zero address."
      },
      "name()": {
        "details": "Returns the name of the token."
      },
      "owner()": {
        "details": "Returns the address of the current owner."
      },
      "renounceOwnership()": {
        "details": "Leaves the contract without owner. It will not be possible to call `onlyOwner` functions anymore. Can only be called by the current owner. NOTE: Renouncing ownership will leave the contract without an owner, thereby removing any functionality that is only available to the owner."
      },
      "symbol()": {
        "details": "Returns the symbol of the token, usually a shorter version of the name."
      },
      "totalSupply()": {
        "details": "See {IERC20-totalSupply}."
      },
      "transfer(address,uint256)": {
        "details": "See {IERC20-transfer}. Requirements: - `recipient` cannot be the zero address. - the caller must have a balance of at least `amount`."
      },
      "transferFrom(address,address,uint256)": {
        "details": "See {IERC20-transferFrom}. Emits an {Approval} event indicating the updated allowance. This is not required by the EIP. See the note at the beginning of {ERC20}. Requirements: - `sender` and `recipient` cannot be the zero address. - `sender` must have a balance of at least `amount`. - the caller must have allowance for ``sender``'s tokens of at least `amount`."
      },
      "transferOwnership(address)": {
        "details": "Transfers ownership of the contract to a new account (`newOwner`). Can only be called by the current owner."
      }
    },
    "version": 1
  },
  "userdoc": {
    "kind": "user",
    "methods": {},
    "version": 1
  }
}