{
  "contractName": "SpellBoundV2",
  "abi": [
    {
      "anonymous": false,
      "inputs": [
        {
          "indexed": true,
          "internalType": "address",
          "name": "owner",
          "type": "address"
        },
        {
          "indexed": true,
          "internalType": "address",
          "name": "spender",
          "type": "address"
        },
        {
          "indexed": false,
          "internalType": "uint256",
          "name": "value",
          "type": "uint256"
        }
      ],
      "name": "Approval",
      "type": "event"
    },
    {
      "anonymous": false,
      "inputs": [
        {
          "indexed": true,
          "internalType": "address",
          "name": "previousOwner",
          "type": "address"
        },
        {
          "indexed": true,
          "internalType": "address",
          "name": "newOwner",
          "type": "address"
        }
      ],
      "name": "OwnershipTransferred",
      "type": "event"
    },
    {
      "anonymous": false,
      "inputs": [
        {
          "indexed": true,
          "internalType": "address",
          "name": "from",
          "type": "address"
        },
        {
          "indexed": true,
          "internalType": "address",
          "name": "to",
          "type": "address"
        },
        {
          "indexed": false,
          "internalType": "uint256",
          "name": "value",
          "type": "uint256"
        }
      ],
      "name": "Transfer",
      "type": "event"
    },
    {
      "inputs": [
        {
          "internalType": "address",
          "name": "owner",
          "type": "address"
        },
        {
          "internalType": "address",
          "name": "spender",
          "type": "address"
        }
      ],
      "name": "allowance",
      "outputs": [
        {
          "internalType": "uint256",
          "name": "",
          "type": "uint256"
        }
      ],
      "stateMutability": "view",
      "type": "function"
    },
    {
      "inputs": [
        {
          "internalType": "address",
          "name": "spender",
          "type": "address"
        },
        {
          "internalType": "uint256",
          "name": "amount",
          "type": "uint256"
        }
      ],
      "name": "approve",
      "outputs": [
        {
          "internalType": "bool",
          "name": "",
          "type": "bool"
        }
      ],
      "stateMutability": "nonpayable",
      "type": "function"
    },
    {
      "inputs": [
        {
          "internalType": "address",
          "name": "account",
          "type": "address"
        }
      ],
      "name": "balanceOf",
      "outputs": [
        {
          "internalType": "uint256",
          "name": "",
          "type": "uint256"
        }
      ],
      "stateMutability": "view",
      "type": "function"
    },
    {
      "inputs": [],
      "name": "decimals",
      "outputs": [
        {
          "internalType": "uint8",
          "name": "",
          "type": "uint8"
        }
      ],
      "stateMutability": "view",
      "type": "function"
    },
    {
      "inputs": [
        {
          "internalType": "address",
          "name": "spender",
          "type": "address"
        },
        {
          "internalType": "uint256",
          "name": "subtractedValue",
          "type": "uint256"
        }
      ],
      "name": "decreaseAllowance",
      "outputs": [
        {
          "internalType": "bool",
          "name": "",
          "type": "bool"
        }
      ],
      "stateMutability": "nonpayable",
      "type": "function"
    },
    {
      "inputs": [
        {
          "internalType": "address",
          "name": "spender",
          "type": "address"
        },
        {
          "internalType": "uint256",
          "name": "addedValue",
          "type": "uint256"
        }
      ],
      "name": "increaseAllowance",
      "outputs": [
        {
          "internalType": "bool",
          "name": "",
          "type": "bool"
        }
      ],
      "stateMutability": "nonpayable",
      "type": "function"
    },
    {
      "inputs": [],
      "name": "name",
      "outputs": [
        {
          "internalType": "string",
          "name": "",
          "type": "string"
        }
      ],
      "stateMutability": "view",
      "type": "function"
    },
    {
      "inputs": [],
      "name": "owner",
      "outputs": [
        {
          "internalType": "address",
          "name": "",
          "type": "address"
        }
      ],
      "stateMutability": "view",
      "type": "function"
    },
    {
      "inputs": [],
      "name": "renounceOwnership",
      "outputs": [],
      "stateMutability": "nonpayable",
      "type": "function"
    },
    {
      "inputs": [],
      "name": "seance",
      "outputs": [
        {
          "internalType": "contract IERC20",
          "name": "",
          "type": "address"
        }
      ],
      "stateMutability": "view",
      "type": "function"
    },
    {
      "inputs": [],
      "name": "soul",
      "outputs": [
        {
          "internalType": "contract IERC20",
          "name": "",
          "type": "address"
        }
      ],
      "stateMutability": "view",
      "type": "function"
    },
    {
      "inputs": [],
      "name": "symbol",
      "outputs": [
        {
          "internalType": "string",
          "name": "",
          "type": "string"
        }
      ],
      "stateMutability": "view",
      "type": "function"
    },
    {
      "inputs": [],
      "name": "totalSupply",
      "outputs": [
        {
          "internalType": "uint256",
          "name": "",
          "type": "uint256"
        }
      ],
      "stateMutability": "view",
      "type": "function"
    },
    {
      "inputs": [
        {
          "internalType": "address",
          "name": "recipient",
          "type": "address"
        },
        {
          "internalType": "uint256",
          "name": "amount",
          "type": "uint256"
        }
      ],
      "name": "transfer",
      "outputs": [
        {
          "internalType": "bool",
          "name": "",
          "type": "bool"
        }
      ],
      "stateMutability": "nonpayable",
      "type": "function"
    },
    {
      "inputs": [
        {
          "internalType": "address",
          "name": "sender",
          "type": "address"
        },
        {
          "internalType": "address",
          "name": "recipient",
          "type": "address"
        },
        {
          "internalType": "uint256",
          "name": "amount",
          "type": "uint256"
        }
      ],
      "name": "transferFrom",
      "outputs": [
        {
          "internalType": "bool",
          "name": "",
          "type": "bool"
        }
      ],
      "stateMutability": "nonpayable",
      "type": "function"
    },
    {
      "inputs": [
        {
          "internalType": "address",
          "name": "newOwner",
          "type": "address"
        }
      ],
      "name": "transferOwnership",
      "outputs": [],
      "stateMutability": "nonpayable",
      "type": "function"
    },
    {
      "inputs": [
        {
          "internalType": "contract IERC20",
          "name": "_soul",
          "type": "address"
        },
        {
          "internalType": "contract IERC20",
          "name": "_seance",
          "type": "address"
        }
      ],
      "name": "initialize",
      "outputs": [],
      "stateMutability": "nonpayable",
      "type": "function"
    },
    {
      "inputs": [],
      "name": "totalSeance",
      "outputs": [
        {
          "internalType": "uint256",
          "name": "",
          "type": "uint256"
        }
      ],
      "stateMutability": "view",
      "type": "function"
    },
    {
      "inputs": [],
      "name": "totalSoul",
      "outputs": [
        {
          "internalType": "uint256",
          "name": "",
          "type": "uint256"
        }
      ],
      "stateMutability": "view",
      "type": "function"
    },
    {
      "inputs": [],
      "name": "totalPayable",
      "outputs": [
        {
          "internalType": "uint256",
          "name": "",
          "type": "uint256"
        }
      ],
      "stateMutability": "view",
      "type": "function"
    },
    {
      "inputs": [
        {
          "internalType": "uint256",
          "name": "seanceStakable",
          "type": "uint256"
        }
      ],
      "name": "enter",
      "outputs": [],
      "stateMutability": "nonpayable",
      "type": "function"
    },
    {
      "inputs": [
        {
          "internalType": "uint256",
          "name": "spellShare",
          "type": "uint256"
        }
      ],
      "name": "leave",
      "outputs": [],
      "stateMutability": "nonpayable",
      "type": "function"
    }
  ],
  "bytecode": "0x60806040523480156200001157600080fd5b506040518060400160405280600a81526020017f5370656c6c426f756e64000000000000000000000000000000000000000000008152506040518060400160405280600581526020017f5350454c4c000000000000000000000000000000000000000000000000000000815250816003908051906020019062000096929190620001ae565b508060049080519060200190620000af929190620001ae565b505050620000d2620000c6620000e060201b60201c565b620000e860201b60201c565b6001600681905550620002c3565b600033905090565b6000600560009054906101000a900473ffffffffffffffffffffffffffffffffffffffff16905081600560006101000a81548173ffffffffffffffffffffffffffffffffffffffff021916908373ffffffffffffffffffffffffffffffffffffffff1602179055508173ffffffffffffffffffffffffffffffffffffffff168173ffffffffffffffffffffffffffffffffffffffff167f8be0079c531659141344cd1fd0a4f28419497f9722a3daafe3b4186f6b6457e060405160405180910390a35050565b828054620001bc906200025e565b90600052602060002090601f016020900481019282620001e057600085556200022c565b82601f10620001fb57805160ff19168380011785556200022c565b828001600101855582156200022c579182015b828111156200022b5782518255916020019190600101906200020e565b5b5090506200023b91906200023f565b5090565b5b808211156200025a57600081600090555060010162000240565b5090565b600060028204905060018216806200027757607f821691505b602082108114156200028e576200028d62000294565b5b50919050565b7f4e487b7100000000000000000000000000000000000000000000000000000000600052602260045260246000fd5b61286c80620002d36000396000f3fe608060405234801561001057600080fd5b50600436106101425760003560e01c8063715018a6116100b8578063a457c2d71161007c578063a457c2d714610357578063a59f3e0c14610387578063a9059cbb146103a3578063dd62ed3e146103d3578063e3b1970314610403578063f2fde38b1461042157610142565b8063715018a6146102d5578063815b7a8c146102df5780638da5cb5b146102fd57806395d89b411461031b578063a2eafc811461033957610142565b8063395093511161010a57806339509351146102015780634853772d14610231578063485cc9551461024f5780634ca01d451461026b57806367dfd4c91461028957806370a08231146102a557610142565b806306fdde0314610147578063095ea7b31461016557806318160ddd1461019557806323b872dd146101b3578063313ce567146101e3575b600080fd5b61014f61043d565b60405161015c91906122e3565b60405180910390f35b61017f600480360381019061017a9190611b7f565b6104cf565b60405161018c91906122ad565b60405180910390f35b61019d6104ed565b6040516101aa91906124e5565b60405180910390f35b6101cd60048036038101906101c89190611b30565b6104f7565b6040516101da91906122ad565b60405180910390f35b6101eb6105f8565b6040516101f89190612500565b60405180910390f35b61021b60048036038101906102169190611b7f565b610601565b60405161022891906122ad565b60405180910390f35b6102396106ad565b60405161024691906124e5565b60405180910390f35b61026960048036038101906102649190611be4565b61075f565b005b6102736108cc565b60405161028091906122c8565b60405180910390f35b6102a3600480360381019061029e9190611c20565b6108f2565b005b6102bf60048036038101906102ba9190611acb565b610b15565b6040516102cc91906124e5565b60405180910390f35b6102dd610b5d565b005b6102e7610be5565b6040516102f491906122c8565b60405180910390f35b610305610c0b565b6040516103129190612232565b60405180910390f35b610323610c35565b60405161033091906122e3565b60405180910390f35b610341610cc7565b60405161034e91906124e5565b60405180910390f35b610371600480360381019061036c9190611b7f565b610cf3565b60405161037e91906122ad565b60405180910390f35b6103a1600480360381019061039c9190611c20565b610de7565b005b6103bd60048036038101906103b89190611b7f565b610f59565b6040516103ca91906122ad565b60405180910390f35b6103ed60048036038101906103e89190611af4565b610f77565b6040516103fa91906124e5565b60405180910390f35b61040b610ffe565b60405161041891906124e5565b60405180910390f35b61043b60048036038101906104369190611acb565b6110b0565b005b60606003805461044c9061270a565b80601f01602080910402602001604051908101604052809291908181526020018280546104789061270a565b80156104c55780601f1061049a576101008083540402835291602001916104c5565b820191906000526020600020905b8154815290600101906020018083116104a857829003601f168201915b5050505050905090565b60006104e36104dc6111a8565b84846111b0565b6001905092915050565b6000600254905090565b600061050484848461137b565b6000600160008673ffffffffffffffffffffffffffffffffffffffff1673ffffffffffffffffffffffffffffffffffffffff168152602001908152602001600020600061054f6111a8565b73ffffffffffffffffffffffffffffffffffffffff1673ffffffffffffffffffffffffffffffffffffffff168152602001908152602001600020549050828110156105cf576040517f08c379a00000000000000000000000000000000000000000000000000000000081526004016105c6906123e5565b60405180910390fd5b6105ec856105db6111a8565b85846105e79190612618565b6111b0565b60019150509392505050565b60006012905090565b60006106a361060e6111a8565b84846001600061061c6111a8565b73ffffffffffffffffffffffffffffffffffffffff1673ffffffffffffffffffffffffffffffffffffffff16815260200190815260200160002060008873ffffffffffffffffffffffffffffffffffffffff1673ffffffffffffffffffffffffffffffffffffffff1681526020019081526020016000205461069e9190612537565b6111b0565b6001905092915050565b6000600860009054906101000a900473ffffffffffffffffffffffffffffffffffffffff1673ffffffffffffffffffffffffffffffffffffffff166370a08231306040518263ffffffff1660e01b815260040161070a9190612232565b60206040518083038186803b15801561072257600080fd5b505afa158015610736573d6000803e3d6000fd5b505050506040513d601f19601f8201168201806040525081019061075a9190611c49565b905090565b6107676111a8565b73ffffffffffffffffffffffffffffffffffffffff16610785610c0b565b73ffffffffffffffffffffffffffffffffffffffff16146107db576040517f08c379a00000000000000000000000000000000000000000000000000000000081526004016107d290612405565b60405180910390fd5b600860149054906101000a900460ff161561082b576040517f08c379a0000000000000000000000000000000000000000000000000000000008152600401610822906123c5565b60405180910390fd5b81600760006101000a81548173ffffffffffffffffffffffffffffffffffffffff021916908373ffffffffffffffffffffffffffffffffffffffff16021790555080600860006101000a81548173ffffffffffffffffffffffffffffffffffffffff021916908373ffffffffffffffffffffffffffffffffffffffff1602179055506001600860146101000a81548160ff0219169083151502179055505050565b600860009054906101000a900473ffffffffffffffffffffffffffffffffffffffff1681565b60026006541415610938576040517f08c379a000000000000000000000000000000000000000000000000000000000815260040161092f90612485565b60405180910390fd5b6002600681905550600061094a6104ed565b610952610ffe565b61095c919061258d565b905060006109686104ed565b6109706106ad565b61097a919061258d565b90506000828461098a91906125be565b90506000828561099a91906125be565b90506109a63386611605565b600760009054906101000a900473ffffffffffffffffffffffffffffffffffffffff1673ffffffffffffffffffffffffffffffffffffffff1663a9059cbb33846040518363ffffffff1660e01b8152600401610a03929190612284565b602060405180830381600087803b158015610a1d57600080fd5b505af1158015610a31573d6000803e3d6000fd5b505050506040513d601f19601f82011682018060405250810190610a559190611bbb565b50600860009054906101000a900473ffffffffffffffffffffffffffffffffffffffff1673ffffffffffffffffffffffffffffffffffffffff1663a9059cbb33836040518363ffffffff1660e01b8152600401610ab3929190612284565b602060405180830381600087803b158015610acd57600080fd5b505af1158015610ae1573d6000803e3d6000fd5b505050506040513d601f19601f82011682018060405250810190610b059190611bbb565b5050505050600160068190555050565b60008060008373ffffffffffffffffffffffffffffffffffffffff1673ffffffffffffffffffffffffffffffffffffffff168152602001908152602001600020549050919050565b610b656111a8565b73ffffffffffffffffffffffffffffffffffffffff16610b83610c0b565b73ffffffffffffffffffffffffffffffffffffffff1614610bd9576040517f08c379a0000000000000000000000000000000000000000000000000000000008152600401610bd090612405565b60405180910390fd5b610be360006117e5565b565b600760009054906101000a900473ffffffffffffffffffffffffffffffffffffffff1681565b6000600560009054906101000a900473ffffffffffffffffffffffffffffffffffffffff16905090565b606060048054610c449061270a565b80601f0160208091040260200160405190810160405280929190818152602001828054610c709061270a565b8015610cbd5780601f10610c9257610100808354040283529160200191610cbd565b820191906000526020600020905b815481529060010190602001808311610ca057829003601f168201915b5050505050905090565b600080610cd2610ffe565b90506000610cde6106ad565b90508181610cec9190612537565b9250505090565b60008060016000610d026111a8565b73ffffffffffffffffffffffffffffffffffffffff1673ffffffffffffffffffffffffffffffffffffffff16815260200190815260200160002060008573ffffffffffffffffffffffffffffffffffffffff1673ffffffffffffffffffffffffffffffffffffffff16815260200190815260200160002054905082811015610dbf576040517f08c379a0000000000000000000000000000000000000000000000000000000008152600401610db6906124a5565b60405180910390fd5b610ddc610dca6111a8565b858584610dd79190612618565b6111b0565b600191505092915050565b60026006541415610e2d576040517f08c379a0000000000000000000000000000000000000000000000000000000008152600401610e2490612485565b60405180910390fd5b6002600681905550600860149054906101000a900460ff16610e84576040517f08c379a0000000000000000000000000000000000000000000000000000000008152600401610e7b90612385565b60405180910390fd5b6000610e8f826118ab565b9050600860009054906101000a900473ffffffffffffffffffffffffffffffffffffffff1673ffffffffffffffffffffffffffffffffffffffff166323b872dd3330856040518463ffffffff1660e01b8152600401610ef09392919061224d565b602060405180830381600087803b158015610f0a57600080fd5b505af1158015610f1e573d6000803e3d6000fd5b505050506040513d601f19601f82011682018060405250810190610f429190611bbb565b50610f4d33826118f8565b50600160068190555050565b6000610f6d610f666111a8565b848461137b565b6001905092915050565b6000600160008473ffffffffffffffffffffffffffffffffffffffff1673ffffffffffffffffffffffffffffffffffffffff16815260200190815260200160002060008373ffffffffffffffffffffffffffffffffffffffff1673ffffffffffffffffffffffffffffffffffffffff16815260200190815260200160002054905092915050565b6000600760009054906101000a900473ffffffffffffffffffffffffffffffffffffffff1673ffffffffffffffffffffffffffffffffffffffff166370a08231306040518263ffffffff1660e01b815260040161105b9190612232565b60206040518083038186803b15801561107357600080fd5b505afa158015611087573d6000803e3d6000fd5b505050506040513d601f19601f820116820180604052508101906110ab9190611c49565b905090565b6110b86111a8565b73ffffffffffffffffffffffffffffffffffffffff166110d6610c0b565b73ffffffffffffffffffffffffffffffffffffffff161461112c576040517f08c379a000000000000000000000000000000000000000000000000000000000815260040161112390612405565b60405180910390fd5b600073ffffffffffffffffffffffffffffffffffffffff168173ffffffffffffffffffffffffffffffffffffffff16141561119c576040517f08c379a000000000000000000000000000000000000000000000000000000000815260040161119390612345565b60405180910390fd5b6111a5816117e5565b50565b600033905090565b600073ffffffffffffffffffffffffffffffffffffffff168373ffffffffffffffffffffffffffffffffffffffff161415611220576040517f08c379a000000000000000000000000000000000000000000000000000000000815260040161121790612465565b60405180910390fd5b600073ffffffffffffffffffffffffffffffffffffffff168273ffffffffffffffffffffffffffffffffffffffff161415611290576040517f08c379a000000000000000000000000000000000000000000000000000000000815260040161128790612365565b60405180910390fd5b80600160008573ffffffffffffffffffffffffffffffffffffffff1673ffffffffffffffffffffffffffffffffffffffff16815260200190815260200160002060008473ffffffffffffffffffffffffffffffffffffffff1673ffffffffffffffffffffffffffffffffffffffff168152602001908152602001600020819055508173ffffffffffffffffffffffffffffffffffffffff168373ffffffffffffffffffffffffffffffffffffffff167f8c5be1e5ebec7d5bd14f71427d1e84f3dd0314c0f7b2291e5b200ac8c7c3b9258360405161136e91906124e5565b60405180910390a3505050565b600073ffffffffffffffffffffffffffffffffffffffff168373ffffffffffffffffffffffffffffffffffffffff1614156113eb576040517f08c379a00000000000000000000000000000000000000000000000000000000081526004016113e290612445565b60405180910390fd5b600073ffffffffffffffffffffffffffffffffffffffff168273ffffffffffffffffffffffffffffffffffffffff16141561145b576040517f08c379a000000000000000000000000000000000000000000000000000000000815260040161145290612305565b60405180910390fd5b611466838383611a58565b60008060008573ffffffffffffffffffffffffffffffffffffffff1673ffffffffffffffffffffffffffffffffffffffff168152602001908152602001600020549050818110156114ec576040517f08c379a00000000000000000000000000000000000000000000000000000000081526004016114e3906123a5565b60405180910390fd5b81816114f89190612618565b6000808673ffffffffffffffffffffffffffffffffffffffff1673ffffffffffffffffffffffffffffffffffffffff16815260200190815260200160002081905550816000808573ffffffffffffffffffffffffffffffffffffffff1673ffffffffffffffffffffffffffffffffffffffff16815260200190815260200160002060008282546115889190612537565b925050819055508273ffffffffffffffffffffffffffffffffffffffff168473ffffffffffffffffffffffffffffffffffffffff167fddf252ad1be2c89b69c2b068fc378daa952ba7f163c4a11628f55a4df523b3ef846040516115ec91906124e5565b60405180910390a36115ff848484611a5d565b50505050565b600073ffffffffffffffffffffffffffffffffffffffff168273ffffffffffffffffffffffffffffffffffffffff161415611675576040517f08c379a000000000000000000000000000000000000000000000000000000000815260040161166c90612425565b60405180910390fd5b61168182600083611a58565b60008060008473ffffffffffffffffffffffffffffffffffffffff1673ffffffffffffffffffffffffffffffffffffffff16815260200190815260200160002054905081811015611707576040517f08c379a00000000000000000000000000000000000000000000000000000000081526004016116fe90612325565b60405180910390fd5b81816117139190612618565b6000808573ffffffffffffffffffffffffffffffffffffffff1673ffffffffffffffffffffffffffffffffffffffff1681526020019081526020016000208190555081600260008282546117679190612618565b92505081905550600073ffffffffffffffffffffffffffffffffffffffff168373ffffffffffffffffffffffffffffffffffffffff167fddf252ad1be2c89b69c2b068fc378daa952ba7f163c4a11628f55a4df523b3ef846040516117cc91906124e5565b60405180910390a36117e083600084611a5d565b505050565b6000600560009054906101000a900473ffffffffffffffffffffffffffffffffffffffff16905081600560006101000a81548173ffffffffffffffffffffffffffffffffffffffff021916908373ffffffffffffffffffffffffffffffffffffffff1602179055508173ffffffffffffffffffffffffffffffffffffffff168173ffffffffffffffffffffffffffffffffffffffff167f8be0079c531659141344cd1fd0a4f28419497f9722a3daafe3b4186f6b6457e060405160405180910390a35050565b60008060006118b8610cc7565b14156118c757600190506118e4565b6118cf610cc7565b6118d76104ed565b6118e1919061258d565b90505b80836118f091906125be565b915050919050565b600073ffffffffffffffffffffffffffffffffffffffff168273ffffffffffffffffffffffffffffffffffffffff161415611968576040517f08c379a000000000000000000000000000000000000000000000000000000000815260040161195f906124c5565b60405180910390fd5b61197460008383611a58565b80600260008282546119869190612537565b92505081905550806000808473ffffffffffffffffffffffffffffffffffffffff1673ffffffffffffffffffffffffffffffffffffffff16815260200190815260200160002060008282546119db9190612537565b925050819055508173ffffffffffffffffffffffffffffffffffffffff16600073ffffffffffffffffffffffffffffffffffffffff167fddf252ad1be2c89b69c2b068fc378daa952ba7f163c4a11628f55a4df523b3ef83604051611a4091906124e5565b60405180910390a3611a5460008383611a5d565b5050565b505050565b505050565b600081359050611a71816127da565b92915050565b600081519050611a86816127f1565b92915050565b600081359050611a9b81612808565b92915050565b600081359050611ab08161281f565b92915050565b600081519050611ac58161281f565b92915050565b600060208284031215611add57600080fd5b6000611aeb84828501611a62565b91505092915050565b60008060408385031215611b0757600080fd5b6000611b1585828601611a62565b9250506020611b2685828601611a62565b9150509250929050565b600080600060608486031215611b4557600080fd5b6000611b5386828701611a62565b9350506020611b6486828701611a62565b9250506040611b7586828701611aa1565b9150509250925092565b60008060408385031215611b9257600080fd5b6000611ba085828601611a62565b9250506020611bb185828601611aa1565b9150509250929050565b600060208284031215611bcd57600080fd5b6000611bdb84828501611a77565b91505092915050565b60008060408385031215611bf757600080fd5b6000611c0585828601611a8c565b9250506020611c1685828601611a8c565b9150509250929050565b600060208284031215611c3257600080fd5b6000611c4084828501611aa1565b91505092915050565b600060208284031215611c5b57600080fd5b6000611c6984828501611ab6565b91505092915050565b611c7b8161264c565b82525050565b611c8a8161265e565b82525050565b611c99816126b3565b82525050565b6000611caa8261251b565b611cb48185612526565b9350611cc48185602086016126d7565b611ccd816127c9565b840191505092915050565b6000611ce5602383612526565b91507f45524332303a207472616e7366657220746f20746865207a65726f206164647260008301527f65737300000000000000000000000000000000000000000000000000000000006020830152604082019050919050565b6000611d4b602283612526565b91507f45524332303a206275726e20616d6f756e7420657863656564732062616c616e60008301527f63650000000000000000000000000000000000000000000000000000000000006020830152604082019050919050565b6000611db1602683612526565b91507f4f776e61626c653a206e6577206f776e657220697320746865207a65726f206160008301527f64647265737300000000000000000000000000000000000000000000000000006020830152604082019050919050565b6000611e17602283612526565b91507f45524332303a20617070726f766520746f20746865207a65726f20616464726560008301527f73730000000000000000000000000000000000000000000000000000000000006020830152604082019050919050565b6000611e7d601983612526565b91507f7374616b696e6720686173206e6f742079657420626567756e000000000000006000830152602082019050919050565b6000611ebd602683612526565b91507f45524332303a207472616e7366657220616d6f756e742065786365656473206260008301527f616c616e636500000000000000000000000000000000000000000000000000006020830152604082019050919050565b6000611f23600f83612526565b91507f616c7265616479207374617274656400000000000000000000000000000000006000830152602082019050919050565b6000611f63602883612526565b91507f45524332303a207472616e7366657220616d6f756e742065786365656473206160008301527f6c6c6f77616e63650000000000000000000000000000000000000000000000006020830152604082019050919050565b6000611fc9602083612526565b91507f4f776e61626c653a2063616c6c6572206973206e6f7420746865206f776e65726000830152602082019050919050565b6000612009602183612526565b91507f45524332303a206275726e2066726f6d20746865207a65726f2061646472657360008301527f73000000000000000000000000000000000000000000000000000000000000006020830152604082019050919050565b600061206f602583612526565b91507f45524332303a207472616e736665722066726f6d20746865207a65726f20616460008301527f64726573730000000000000000000000000000000000000000000000000000006020830152604082019050919050565b60006120d5602483612526565b91507f45524332303a20617070726f76652066726f6d20746865207a65726f2061646460008301527f72657373000000000000000000000000000000000000000000000000000000006020830152604082019050919050565b600061213b601f83612526565b91507f5265656e7472616e637947756172643a207265656e7472616e742063616c6c006000830152602082019050919050565b600061217b602583612526565b91507f45524332303a2064656372656173656420616c6c6f77616e63652062656c6f7760008301527f207a65726f0000000000000000000000000000000000000000000000000000006020830152604082019050919050565b60006121e1601f83612526565b91507f45524332303a206d696e7420746f20746865207a65726f2061646472657373006000830152602082019050919050565b61221d8161269c565b82525050565b61222c816126a6565b82525050565b60006020820190506122476000830184611c72565b92915050565b60006060820190506122626000830186611c72565b61226f6020830185611c72565b61227c6040830184612214565b949350505050565b60006040820190506122996000830185611c72565b6122a66020830184612214565b9392505050565b60006020820190506122c26000830184611c81565b92915050565b60006020820190506122dd6000830184611c90565b92915050565b600060208201905081810360008301526122fd8184611c9f565b905092915050565b6000602082019050818103600083015261231e81611cd8565b9050919050565b6000602082019050818103600083015261233e81611d3e565b9050919050565b6000602082019050818103600083015261235e81611da4565b9050919050565b6000602082019050818103600083015261237e81611e0a565b9050919050565b6000602082019050818103600083015261239e81611e70565b9050919050565b600060208201905081810360008301526123be81611eb0565b9050919050565b600060208201905081810360008301526123de81611f16565b9050919050565b600060208201905081810360008301526123fe81611f56565b9050919050565b6000602082019050818103600083015261241e81611fbc565b9050919050565b6000602082019050818103600083015261243e81611ffc565b9050919050565b6000602082019050818103600083015261245e81612062565b9050919050565b6000602082019050818103600083015261247e816120c8565b9050919050565b6000602082019050818103600083015261249e8161212e565b9050919050565b600060208201905081810360008301526124be8161216e565b9050919050565b600060208201905081810360008301526124de816121d4565b9050919050565b60006020820190506124fa6000830184612214565b92915050565b60006020820190506125156000830184612223565b92915050565b600081519050919050565b600082825260208201905092915050565b60006125428261269c565b915061254d8361269c565b9250827fffffffffffffffffffffffffffffffffffffffffffffffffffffffffffffffff038211156125825761258161273c565b5b828201905092915050565b60006125988261269c565b91506125a38361269c565b9250826125b3576125b261276b565b5b828204905092915050565b60006125c98261269c565b91506125d48361269c565b9250817fffffffffffffffffffffffffffffffffffffffffffffffffffffffffffffffff048311821515161561260d5761260c61273c565b5b828202905092915050565b60006126238261269c565b915061262e8361269c565b9250828210156126415761264061273c565b5b828203905092915050565b60006126578261267c565b9050919050565b60008115159050919050565b60006126758261264c565b9050919050565b600073ffffffffffffffffffffffffffffffffffffffff82169050919050565b6000819050919050565b600060ff82169050919050565b60006126be826126c5565b9050919050565b60006126d08261267c565b9050919050565b60005b838110156126f55780820151818401526020810190506126da565b83811115612704576000848401525b50505050565b6000600282049050600182168061272257607f821691505b602082108114156127365761273561279a565b5b50919050565b7f4e487b7100000000000000000000000000000000000000000000000000000000600052601160045260246000fd5b7f4e487b7100000000000000000000000000000000000000000000000000000000600052601260045260246000fd5b7f4e487b7100000000000000000000000000000000000000000000000000000000600052602260045260246000fd5b6000601f19601f8301169050919050565b6127e38161264c565b81146127ee57600080fd5b50565b6127fa8161265e565b811461280557600080fd5b50565b6128118161266a565b811461281c57600080fd5b50565b6128288161269c565b811461283357600080fd5b5056fea26469706673582212203104ac126fab1c4968243488bc3af939f157cab54d92a574fe067676a44c004d64736f6c63430008000033",
  "immutableReferences": {},
  "source": "// SPDX-License-Identifier: MIT\n\npragma solidity ^0.8.0;\n\nimport './libraries/ERC20.sol';\nimport '@openzeppelin/contracts/security/ReentrancyGuard.sol';\nimport '@openzeppelin/contracts/access/Ownable.sol';\nimport '@openzeppelin/contracts/security/ReentrancyGuard.sol';\n\n// spell is the neatest bound around. come in with some soul, and leave with some more! \n// handles swapping to and from spell -- our dex reward token.\n\ncontract SpellBoundV2 is ERC20(\"SpellBound\", \"SPELL\"), Ownable, ReentrancyGuard {\n    IERC20 public soul;\n    IERC20 public seance;\n    bool isInitialized; // stores whether contract has been initialized\n\n    // the soul token contract\n    function initialize(IERC20 _soul, IERC20 _seance) external onlyOwner {\n        require(!isInitialized, 'already started');\n        soul = _soul;\n        seance = _seance;\n        isInitialized = true;\n    }\n\n    function totalSeance() public view returns (uint) {\n        return seance.balanceOf(address(this));\n    }\n\n    function totalSoul() public view returns (uint) {\n        return soul.balanceOf(address(this));\n    }\n\n    // (total) soul + seance owed to stakers\n    function totalPayable() public view returns (uint) {\n        uint soulTotal = totalSoul();\n        uint seanceTotal = totalSeance();\n\n        return seanceTotal + soulTotal;\n    }\n\n    function mintableSpell(uint _seanceStakable) internal view returns (uint) {\n        uint spellPower; // initiates spell power\n\n        if (totalPayable() == 0) { spellPower = 1; } // sets a spell power of 1\n        else { spellPower = totalSupply() / totalPayable(); } // sets weight for spell power\n\n        return _seanceStakable * spellPower; // sets spell to mint\n    }\n\n    // locks soul, mints spell at spell rate\n    function enter(uint seanceStakable) external nonReentrant {\n        require(isInitialized, 'staking has not yet begun');\n        uint spellMintable = mintableSpell(seanceStakable); // total spell to mine to sender\n        \n        seance.transferFrom(msg.sender, address(this), seanceStakable); // transfers seance from sender\n        _mint(msg.sender, spellMintable); // mints spell to sender\n    }\n\n    // leaves the spellbound. reclaims soul.\n    // unlocks soul rewards + staked seance | burns bounded spell\n    function leave(uint spellShare) external nonReentrant {\n\n        // exchange rates\n        uint soulRate = totalSoul() / totalSupply(); // soul per spell (exchange rate)\n        uint seanceRate = totalSeance() / totalSupply(); // seance per spell (exchange rate)\n\n        // payable component shares\n        uint soulShare = spellShare * soulRate; // exchanges spell for soul (at soul rate)\n        uint seanceShare = spellShare * seanceRate; // exchanges spell for seance (at soul rate)\n\n        _burn(msg.sender, spellShare);\n        soul.transfer(msg.sender, soulShare);\n        seance.transfer(msg.sender, seanceShare);\n    }\n\n\n\n}\n",
  "sourcePath": "/Users/unico/Documents/GitHub/soulswap/soulswap-farms/contracts/SpellBoundV2.sol",
  "compiler": {
    "name": "solc",
    "version": "0.8.0+commit.c7dfd78e.Emscripten.clang"
  },
  "schemaVersion": "3.4.1",
  "updatedAt": "2021-09-16T16:34:59.637Z",
  "devdoc": {
    "kind": "dev",
    "methods": {
      "allowance(address,address)": {
        "details": "See {IERC20-allowance}."
      },
      "approve(address,uint256)": {
        "details": "See {IERC20-approve}. Requirements: - `spender` cannot be the zero address."
      },
      "balanceOf(address)": {
        "details": "See {IERC20-balanceOf}."
      },
      "decimals()": {
        "details": "Returns the number of decimals used to get its user representation. For example, if `decimals` equals `2`, a balance of `505` tokens should be displayed to a user as `5,05` (`505 / 10 ** 2`). Tokens usually opt for a value of 18, imitating the relationship between Ether and Wei. This is the value {ERC20} uses, unless this function is overridden; NOTE: This information is only used for _display_ purposes: it in no way affects any of the arithmetic of the contract, including {IERC20-balanceOf} and {IERC20-transfer}."
      },
      "decreaseAllowance(address,uint256)": {
        "details": "Atomically decreases the allowance granted to `spender` by the caller. This is an alternative to {approve} that can be used as a mitigation for problems described in {IERC20-approve}. Emits an {Approval} event indicating the updated allowance. Requirements: - `spender` cannot be the zero address. - `spender` must have allowance for the caller of at least `subtractedValue`."
      },
      "increaseAllowance(address,uint256)": {
        "details": "Atomically increases the allowance granted to `spender` by the caller. This is an alternative to {approve} that can be used as a mitigation for problems described in {IERC20-approve}. Emits an {Approval} event indicating the updated allowance. Requirements: - `spender` cannot be the zero address."
      },
      "name()": {
        "details": "Returns the name of the token."
      },
      "owner()": {
        "details": "Returns the address of the current owner."
      },
      "renounceOwnership()": {
        "details": "Leaves the contract without owner. It will not be possible to call `onlyOwner` functions anymore. Can only be called by the current owner. NOTE: Renouncing ownership will leave the contract without an owner, thereby removing any functionality that is only available to the owner."
      },
      "symbol()": {
        "details": "Returns the symbol of the token, usually a shorter version of the name."
      },
      "totalSupply()": {
        "details": "See {IERC20-totalSupply}."
      },
      "transfer(address,uint256)": {
        "details": "See {IERC20-transfer}. Requirements: - `recipient` cannot be the zero address. - the caller must have a balance of at least `amount`."
      },
      "transferFrom(address,address,uint256)": {
        "details": "See {IERC20-transferFrom}. Emits an {Approval} event indicating the updated allowance. This is not required by the EIP. See the note at the beginning of {ERC20}. Requirements: - `sender` and `recipient` cannot be the zero address. - `sender` must have a balance of at least `amount`. - the caller must have allowance for ``sender``'s tokens of at least `amount`."
      },
      "transferOwnership(address)": {
        "details": "Transfers ownership of the contract to a new account (`newOwner`). Can only be called by the current owner."
      }
    },
    "version": 1
  },
  "userdoc": {
    "kind": "user",
    "methods": {},
    "version": 1
  }
}