{
  "contractName": "SpellBound",
  "abi": [
    {
      "anonymous": false,
      "inputs": [
        {
          "indexed": true,
          "internalType": "address",
          "name": "owner",
          "type": "address"
        },
        {
          "indexed": true,
          "internalType": "address",
          "name": "spender",
          "type": "address"
        },
        {
          "indexed": false,
          "internalType": "uint256",
          "name": "value",
          "type": "uint256"
        }
      ],
      "name": "Approval",
      "type": "event"
    },
    {
      "anonymous": false,
      "inputs": [
        {
          "indexed": true,
          "internalType": "address",
          "name": "operator",
          "type": "address"
        },
        {
          "indexed": true,
          "internalType": "bool",
          "name": "access",
          "type": "bool"
        }
      ],
      "name": "OperatorUpdated",
      "type": "event"
    },
    {
      "anonymous": false,
      "inputs": [
        {
          "indexed": true,
          "internalType": "address",
          "name": "previousOwner",
          "type": "address"
        },
        {
          "indexed": true,
          "internalType": "address",
          "name": "newOwner",
          "type": "address"
        }
      ],
      "name": "OwnershipTransferred",
      "type": "event"
    },
    {
      "anonymous": false,
      "inputs": [
        {
          "indexed": true,
          "internalType": "address",
          "name": "from",
          "type": "address"
        },
        {
          "indexed": true,
          "internalType": "address",
          "name": "to",
          "type": "address"
        },
        {
          "indexed": false,
          "internalType": "uint256",
          "name": "value",
          "type": "uint256"
        }
      ],
      "name": "Transfer",
      "type": "event"
    },
    {
      "inputs": [
        {
          "internalType": "address",
          "name": "newOperator",
          "type": "address"
        }
      ],
      "name": "addOperator",
      "outputs": [],
      "stateMutability": "nonpayable",
      "type": "function"
    },
    {
      "inputs": [
        {
          "internalType": "address",
          "name": "owner",
          "type": "address"
        },
        {
          "internalType": "address",
          "name": "spender",
          "type": "address"
        }
      ],
      "name": "allowance",
      "outputs": [
        {
          "internalType": "uint256",
          "name": "",
          "type": "uint256"
        }
      ],
      "stateMutability": "view",
      "type": "function",
      "constant": true
    },
    {
      "inputs": [
        {
          "internalType": "address",
          "name": "spender",
          "type": "address"
        },
        {
          "internalType": "uint256",
          "name": "amount",
          "type": "uint256"
        }
      ],
      "name": "approve",
      "outputs": [
        {
          "internalType": "bool",
          "name": "",
          "type": "bool"
        }
      ],
      "stateMutability": "nonpayable",
      "type": "function"
    },
    {
      "inputs": [
        {
          "internalType": "address",
          "name": "account",
          "type": "address"
        }
      ],
      "name": "balanceOf",
      "outputs": [
        {
          "internalType": "uint256",
          "name": "",
          "type": "uint256"
        }
      ],
      "stateMutability": "view",
      "type": "function",
      "constant": true
    },
    {
      "inputs": [],
      "name": "decimals",
      "outputs": [
        {
          "internalType": "uint8",
          "name": "",
          "type": "uint8"
        }
      ],
      "stateMutability": "view",
      "type": "function",
      "constant": true
    },
    {
      "inputs": [
        {
          "internalType": "address",
          "name": "spender",
          "type": "address"
        },
        {
          "internalType": "uint256",
          "name": "subtractedValue",
          "type": "uint256"
        }
      ],
      "name": "decreaseAllowance",
      "outputs": [
        {
          "internalType": "bool",
          "name": "",
          "type": "bool"
        }
      ],
      "stateMutability": "nonpayable",
      "type": "function"
    },
    {
      "inputs": [
        {
          "internalType": "address",
          "name": "spender",
          "type": "address"
        },
        {
          "internalType": "uint256",
          "name": "addedValue",
          "type": "uint256"
        }
      ],
      "name": "increaseAllowance",
      "outputs": [
        {
          "internalType": "bool",
          "name": "",
          "type": "bool"
        }
      ],
      "stateMutability": "nonpayable",
      "type": "function"
    },
    {
      "inputs": [],
      "name": "name",
      "outputs": [
        {
          "internalType": "string",
          "name": "",
          "type": "string"
        }
      ],
      "stateMutability": "view",
      "type": "function",
      "constant": true
    },
    {
      "inputs": [
        {
          "internalType": "address",
          "name": "",
          "type": "address"
        }
      ],
      "name": "operator",
      "outputs": [
        {
          "internalType": "bool",
          "name": "",
          "type": "bool"
        }
      ],
      "stateMutability": "view",
      "type": "function",
      "constant": true
    },
    {
      "inputs": [
        {
          "internalType": "uint256",
          "name": "",
          "type": "uint256"
        }
      ],
      "name": "operators",
      "outputs": [
        {
          "internalType": "address",
          "name": "",
          "type": "address"
        }
      ],
      "stateMutability": "view",
      "type": "function",
      "constant": true
    },
    {
      "inputs": [],
      "name": "owner",
      "outputs": [
        {
          "internalType": "address",
          "name": "",
          "type": "address"
        }
      ],
      "stateMutability": "view",
      "type": "function",
      "constant": true
    },
    {
      "inputs": [
        {
          "internalType": "address",
          "name": "removingOperator",
          "type": "address"
        }
      ],
      "name": "removeOperator",
      "outputs": [],
      "stateMutability": "nonpayable",
      "type": "function"
    },
    {
      "inputs": [],
      "name": "renounceOwnership",
      "outputs": [],
      "stateMutability": "nonpayable",
      "type": "function"
    },
    {
      "inputs": [],
      "name": "soul",
      "outputs": [
        {
          "internalType": "contract IERC20",
          "name": "",
          "type": "address"
        }
      ],
      "stateMutability": "view",
      "type": "function",
      "constant": true
    },
    {
      "inputs": [],
      "name": "symbol",
      "outputs": [
        {
          "internalType": "string",
          "name": "",
          "type": "string"
        }
      ],
      "stateMutability": "view",
      "type": "function",
      "constant": true
    },
    {
      "inputs": [],
      "name": "totalSupply",
      "outputs": [
        {
          "internalType": "uint256",
          "name": "",
          "type": "uint256"
        }
      ],
      "stateMutability": "view",
      "type": "function",
      "constant": true
    },
    {
      "inputs": [
        {
          "internalType": "address",
          "name": "recipient",
          "type": "address"
        },
        {
          "internalType": "uint256",
          "name": "amount",
          "type": "uint256"
        }
      ],
      "name": "transfer",
      "outputs": [
        {
          "internalType": "bool",
          "name": "",
          "type": "bool"
        }
      ],
      "stateMutability": "nonpayable",
      "type": "function"
    },
    {
      "inputs": [
        {
          "internalType": "address",
          "name": "sender",
          "type": "address"
        },
        {
          "internalType": "address",
          "name": "recipient",
          "type": "address"
        },
        {
          "internalType": "uint256",
          "name": "amount",
          "type": "uint256"
        }
      ],
      "name": "transferFrom",
      "outputs": [
        {
          "internalType": "bool",
          "name": "",
          "type": "bool"
        }
      ],
      "stateMutability": "nonpayable",
      "type": "function"
    },
    {
      "inputs": [
        {
          "internalType": "address",
          "name": "newOwner",
          "type": "address"
        }
      ],
      "name": "transferOwnership",
      "outputs": [],
      "stateMutability": "nonpayable",
      "type": "function"
    },
    {
      "inputs": [
        {
          "internalType": "contract IERC20",
          "name": "_soul",
          "type": "address"
        }
      ],
      "name": "initialize",
      "outputs": [],
      "stateMutability": "nonpayable",
      "type": "function"
    },
    {
      "inputs": [
        {
          "internalType": "uint256",
          "name": "soulQty",
          "type": "uint256"
        }
      ],
      "name": "enter",
      "outputs": [],
      "stateMutability": "nonpayable",
      "type": "function"
    },
    {
      "inputs": [
        {
          "internalType": "uint256",
          "name": "spellQty",
          "type": "uint256"
        }
      ],
      "name": "leave",
      "outputs": [],
      "stateMutability": "nonpayable",
      "type": "function"
    }
  ],
  "bytecode": "0x60806040523480156200001157600080fd5b506040518060400160405280600a81526020017f5370656c6c426f756e64000000000000000000000000000000000000000000008152506040518060400160405280600581526020017f5350454c4c000000000000000000000000000000000000000000000000000000815250816003908051906020019062000096929190620002c5565b508060049080519060200190620000af929190620002c5565b505050620000d2620000c6620001f760201b60201c565b620001ff60201b60201c565b6000620000e4620001f760201b60201c565b90506001600760008373ffffffffffffffffffffffffffffffffffffffff1673ffffffffffffffffffffffffffffffffffffffff16815260200190815260200160002060006101000a81548160ff0219169083151502179055506006819080600181540180825580915050600190039060005260206000200160009091909190916101000a81548173ffffffffffffffffffffffffffffffffffffffff021916908373ffffffffffffffffffffffffffffffffffffffff160217905550600115158173ffffffffffffffffffffffffffffffffffffffff167f966c160e1c4dbc7df8d69af4ace01e9297c3cf016397b7914971f2fbfa32672d60405160405180910390a3506001600881905550620003da565b600033905090565b6000600560009054906101000a900473ffffffffffffffffffffffffffffffffffffffff16905081600560006101000a81548173ffffffffffffffffffffffffffffffffffffffff021916908373ffffffffffffffffffffffffffffffffffffffff1602179055508173ffffffffffffffffffffffffffffffffffffffff168173ffffffffffffffffffffffffffffffffffffffff167f8be0079c531659141344cd1fd0a4f28419497f9722a3daafe3b4186f6b6457e060405160405180910390a35050565b828054620002d39062000375565b90600052602060002090601f016020900481019282620002f7576000855562000343565b82601f106200031257805160ff191683800117855562000343565b8280016001018555821562000343579182015b828111156200034257825182559160200191906001019062000325565b5b50905062000352919062000356565b5090565b5b808211156200037157600081600090555060010162000357565b5090565b600060028204905060018216806200038e57607f821691505b60208210811415620003a557620003a4620003ab565b5b50919050565b7f4e487b7100000000000000000000000000000000000000000000000000000000600052602260045260246000fd5b612ffa80620003ea6000396000f3fe608060405234801561001057600080fd5b50600436106101425760003560e01c806395d89b41116100b8578063a9059cbb1161007c578063a9059cbb14610379578063ac8a584a146103a9578063c4d66de8146103c5578063dd62ed3e146103e1578063e28d490614610411578063f2fde38b1461044157610142565b806395d89b41146102c35780639870d7fe146102e15780639a307391146102fd578063a457c2d71461032d578063a59f3e0c1461035d57610142565b8063395093511161010a578063395093511461020157806367dfd4c91461023157806370a082311461024d578063715018a61461027d578063815b7a8c146102875780638da5cb5b146102a557610142565b806306fdde0314610147578063095ea7b31461016557806318160ddd1461019557806323b872dd146101b3578063313ce567146101e3575b600080fd5b61014f61045d565b60405161015c91906129b0565b60405180910390f35b61017f600480360381019061017a9190612107565b6104ef565b60405161018c919061297a565b60405180910390f35b61019d61050d565b6040516101aa9190612c12565b60405180910390f35b6101cd60048036038101906101c891906120b8565b610517565b6040516101da919061297a565b60405180910390f35b6101eb610618565b6040516101f89190612c2d565b60405180910390f35b61021b60048036038101906102169190612107565b610621565b604051610228919061297a565b60405180910390f35b61024b60048036038101906102469190612195565b6106cd565b005b61026760048036038101906102629190612053565b610908565b6040516102749190612c12565b60405180910390f35b610285610950565b005b61028f6109d8565b60405161029c9190612995565b60405180910390f35b6102ad6109fe565b6040516102ba91906128ff565b60405180910390f35b6102cb610a28565b6040516102d891906129b0565b60405180910390f35b6102fb60048036038101906102f69190612053565b610aba565b005b61031760048036038101906103129190612053565b610d55565b604051610324919061297a565b60405180910390f35b61034760048036038101906103429190612107565b610d75565b604051610354919061297a565b60405180910390f35b61037760048036038101906103729190612195565b610e69565b005b610393600480360381019061038e9190612107565b6110d0565b6040516103a0919061297a565b60405180910390f35b6103c360048036038101906103be9190612053565b6110ee565b005b6103df60048036038101906103da919061216c565b6114e4565b005b6103fb60048036038101906103f6919061207c565b6115bf565b6040516104089190612c12565b60405180910390f35b61042b60048036038101906104269190612195565b611646565b60405161043891906128ff565b60405180910390f35b61045b60048036038101906104569190612053565b611685565b005b60606003805461046c90612e6e565b80601f016020809104026020016040519081016040528092919081815260200182805461049890612e6e565b80156104e55780601f106104ba576101008083540402835291602001916104e5565b820191906000526020600020905b8154815290600101906020018083116104c857829003601f168201915b5050505050905090565b60006105036104fc61177d565b8484611785565b6001905092915050565b6000600254905090565b6000610524848484611950565b6000600160008673ffffffffffffffffffffffffffffffffffffffff1673ffffffffffffffffffffffffffffffffffffffff168152602001908152602001600020600061056f61177d565b73ffffffffffffffffffffffffffffffffffffffff1673ffffffffffffffffffffffffffffffffffffffff168152602001908152602001600020549050828110156105ef576040517f08c379a00000000000000000000000000000000000000000000000000000000081526004016105e690612ad2565b60405180910390fd5b61060c856105fb61177d565b85846106079190612d7c565b611785565b60019150509392505050565b60006012905090565b60006106c361062e61177d565b84846001600061063c61177d565b73ffffffffffffffffffffffffffffffffffffffff1673ffffffffffffffffffffffffffffffffffffffff16815260200190815260200160002060008873ffffffffffffffffffffffffffffffffffffffff1673ffffffffffffffffffffffffffffffffffffffff168152602001908152602001600020546106be9190612c64565b611785565b6001905092915050565b60026008541415610713576040517f08c379a000000000000000000000000000000000000000000000000000000000815260040161070a90612bb2565b60405180910390fd5b6002600881905550600960149054906101000a900460ff1661076a576040517f08c379a000000000000000000000000000000000000000000000000000000000815260040161076190612a72565b60405180910390fd5b600061077461050d565b9050600081600960009054906101000a900473ffffffffffffffffffffffffffffffffffffffff1673ffffffffffffffffffffffffffffffffffffffff166370a08231306040518263ffffffff1660e01b81526004016107d491906128ff565b60206040518083038186803b1580156107ec57600080fd5b505afa158015610800573d6000803e3d6000fd5b505050506040513d601f19601f8201168201806040525081019061082491906121be565b61082e9190612cf1565b90506000818461083e9190612d22565b905061084a3385611bda565b600960009054906101000a900473ffffffffffffffffffffffffffffffffffffffff1673ffffffffffffffffffffffffffffffffffffffff1663a9059cbb33836040518363ffffffff1660e01b81526004016108a7929190612951565b602060405180830381600087803b1580156108c157600080fd5b505af11580156108d5573d6000803e3d6000fd5b505050506040513d601f19601f820116820180604052508101906108f99190612143565b50505050600160088190555050565b60008060008373ffffffffffffffffffffffffffffffffffffffff1673ffffffffffffffffffffffffffffffffffffffff168152602001908152602001600020549050919050565b61095861177d565b73ffffffffffffffffffffffffffffffffffffffff166109766109fe565b73ffffffffffffffffffffffffffffffffffffffff16146109cc576040517f08c379a00000000000000000000000000000000000000000000000000000000081526004016109c390612af2565b60405180910390fd5b6109d66000611dba565b565b600960009054906101000a900473ffffffffffffffffffffffffffffffffffffffff1681565b6000600560009054906101000a900473ffffffffffffffffffffffffffffffffffffffff16905090565b606060048054610a3790612e6e565b80601f0160208091040260200160405190810160405280929190818152602001828054610a6390612e6e565b8015610ab05780601f10610a8557610100808354040283529160200191610ab0565b820191906000526020600020905b815481529060010190602001808311610a9357829003601f168201915b5050505050905090565b6000610ac461177d565b9050600760008273ffffffffffffffffffffffffffffffffffffffff1673ffffffffffffffffffffffffffffffffffffffff16815260200190815260200160002060009054906101000a900460ff16610b52576040517f08c379a0000000000000000000000000000000000000000000000000000000008152600401610b4990612b72565b60405180910390fd5b600073ffffffffffffffffffffffffffffffffffffffff168273ffffffffffffffffffffffffffffffffffffffff161415610bc2576040517f08c379a0000000000000000000000000000000000000000000000000000000008152600401610bb990612a52565b60405180910390fd5b600760008373ffffffffffffffffffffffffffffffffffffffff1673ffffffffffffffffffffffffffffffffffffffff16815260200190815260200160002060009054906101000a900460ff1615610c4f576040517f08c379a0000000000000000000000000000000000000000000000000000000008152600401610c4690612b12565b60405180910390fd5b6001600760008473ffffffffffffffffffffffffffffffffffffffff1673ffffffffffffffffffffffffffffffffffffffff16815260200190815260200160002060006101000a81548160ff0219169083151502179055506006829080600181540180825580915050600190039060005260206000200160009091909190916101000a81548173ffffffffffffffffffffffffffffffffffffffff021916908373ffffffffffffffffffffffffffffffffffffffff160217905550600115158273ffffffffffffffffffffffffffffffffffffffff167f966c160e1c4dbc7df8d69af4ace01e9297c3cf016397b7914971f2fbfa32672d60405160405180910390a35050565b60076020528060005260406000206000915054906101000a900460ff1681565b60008060016000610d8461177d565b73ffffffffffffffffffffffffffffffffffffffff1673ffffffffffffffffffffffffffffffffffffffff16815260200190815260200160002060008573ffffffffffffffffffffffffffffffffffffffff1673ffffffffffffffffffffffffffffffffffffffff16815260200190815260200160002054905082811015610e41576040517f08c379a0000000000000000000000000000000000000000000000000000000008152600401610e3890612bd2565b60405180910390fd5b610e5e610e4c61177d565b858584610e599190612d7c565b611785565b600191505092915050565b60026008541415610eaf576040517f08c379a0000000000000000000000000000000000000000000000000000000008152600401610ea690612bb2565b60405180910390fd5b6002600881905550600960149054906101000a900460ff16610f06576040517f08c379a0000000000000000000000000000000000000000000000000000000008152600401610efd90612a72565b60405180910390fd5b6000600960009054906101000a900473ffffffffffffffffffffffffffffffffffffffff1673ffffffffffffffffffffffffffffffffffffffff166370a08231306040518263ffffffff1660e01b8152600401610f6391906128ff565b60206040518083038186803b158015610f7b57600080fd5b505afa158015610f8f573d6000803e3d6000fd5b505050506040513d601f19601f82011682018060405250810190610fb391906121be565b90506000610fbf61050d565b90506000811480610fd05750600082145b15610fe457610fdf3384611e80565b611011565b60008282610ff29190612cf1565b9050600081856110029190612d22565b905061100e3382611e80565b50505b600960009054906101000a900473ffffffffffffffffffffffffffffffffffffffff1673ffffffffffffffffffffffffffffffffffffffff166323b872dd3330866040518463ffffffff1660e01b81526004016110709392919061291a565b602060405180830381600087803b15801561108a57600080fd5b505af115801561109e573d6000803e3d6000fd5b505050506040513d601f19601f820116820180604052508101906110c29190612143565b505050600160088190555050565b60006110e46110dd61177d565b8484611950565b6001905092915050565b60006110f861177d565b9050600760008273ffffffffffffffffffffffffffffffffffffffff1673ffffffffffffffffffffffffffffffffffffffff16815260200190815260200160002060009054906101000a900460ff16611186576040517f08c379a000000000000000000000000000000000000000000000000000000000815260040161117d90612b72565b60405180910390fd5b600760008373ffffffffffffffffffffffffffffffffffffffff1673ffffffffffffffffffffffffffffffffffffffff16815260200190815260200160002060009054906101000a900460ff16611212576040517f08c379a000000000000000000000000000000000000000000000000000000000815260040161120990612ab2565b60405180910390fd5b6000600760008473ffffffffffffffffffffffffffffffffffffffff1673ffffffffffffffffffffffffffffffffffffffff16815260200190815260200160002060006101000a81548160ff02191690831515021790555060005b6006805490508160ff1610156114de578273ffffffffffffffffffffffffffffffffffffffff1660068260ff16815481106112d1577f4e487b7100000000000000000000000000000000000000000000000000000000600052603260045260246000fd5b9060005260206000200160009054906101000a900473ffffffffffffffffffffffffffffffffffffffff1673ffffffffffffffffffffffffffffffffffffffff1614156114cb5760066001826113279190612cba565b60ff1681548110611361577f4e487b7100000000000000000000000000000000000000000000000000000000600052603260045260246000fd5b9060005260206000200160009054906101000a900473ffffffffffffffffffffffffffffffffffffffff1660068260ff16815481106113c9577f4e487b7100000000000000000000000000000000000000000000000000000000600052603260045260246000fd5b9060005260206000200160006101000a81548173ffffffffffffffffffffffffffffffffffffffff021916908373ffffffffffffffffffffffffffffffffffffffff1602179055506006805480611449577f4e487b7100000000000000000000000000000000000000000000000000000000600052603160045260246000fd5b6001900381819060005260206000200160006101000a81549073ffffffffffffffffffffffffffffffffffffffff02191690559055600015158373ffffffffffffffffffffffffffffffffffffffff167f966c160e1c4dbc7df8d69af4ace01e9297c3cf016397b7914971f2fbfa32672d60405160405180910390a3506114e0565b80806114d690612ea0565b91505061126d565b505b5050565b6114ec61177d565b73ffffffffffffffffffffffffffffffffffffffff1661150a6109fe565b73ffffffffffffffffffffffffffffffffffffffff1614611560576040517f08c379a000000000000000000000000000000000000000000000000000000000815260040161155790612af2565b60405180910390fd5b80600960006101000a81548173ffffffffffffffffffffffffffffffffffffffff021916908373ffffffffffffffffffffffffffffffffffffffff1602179055506001600960146101000a81548160ff02191690831515021790555050565b6000600160008473ffffffffffffffffffffffffffffffffffffffff1673ffffffffffffffffffffffffffffffffffffffff16815260200190815260200160002060008373ffffffffffffffffffffffffffffffffffffffff1673ffffffffffffffffffffffffffffffffffffffff16815260200190815260200160002054905092915050565b6006818154811061165657600080fd5b906000526020600020016000915054906101000a900473ffffffffffffffffffffffffffffffffffffffff1681565b61168d61177d565b73ffffffffffffffffffffffffffffffffffffffff166116ab6109fe565b73ffffffffffffffffffffffffffffffffffffffff1614611701576040517f08c379a00000000000000000000000000000000000000000000000000000000081526004016116f890612af2565b60405180910390fd5b600073ffffffffffffffffffffffffffffffffffffffff168173ffffffffffffffffffffffffffffffffffffffff161415611771576040517f08c379a000000000000000000000000000000000000000000000000000000000815260040161176890612a12565b60405180910390fd5b61177a81611dba565b50565b600033905090565b600073ffffffffffffffffffffffffffffffffffffffff168373ffffffffffffffffffffffffffffffffffffffff1614156117f5576040517f08c379a00000000000000000000000000000000000000000000000000000000081526004016117ec90612b92565b60405180910390fd5b600073ffffffffffffffffffffffffffffffffffffffff168273ffffffffffffffffffffffffffffffffffffffff161415611865576040517f08c379a000000000000000000000000000000000000000000000000000000000815260040161185c90612a32565b60405180910390fd5b80600160008573ffffffffffffffffffffffffffffffffffffffff1673ffffffffffffffffffffffffffffffffffffffff16815260200190815260200160002060008473ffffffffffffffffffffffffffffffffffffffff1673ffffffffffffffffffffffffffffffffffffffff168152602001908152602001600020819055508173ffffffffffffffffffffffffffffffffffffffff168373ffffffffffffffffffffffffffffffffffffffff167f8c5be1e5ebec7d5bd14f71427d1e84f3dd0314c0f7b2291e5b200ac8c7c3b925836040516119439190612c12565b60405180910390a3505050565b600073ffffffffffffffffffffffffffffffffffffffff168373ffffffffffffffffffffffffffffffffffffffff1614156119c0576040517f08c379a00000000000000000000000000000000000000000000000000000000081526004016119b790612b52565b60405180910390fd5b600073ffffffffffffffffffffffffffffffffffffffff168273ffffffffffffffffffffffffffffffffffffffff161415611a30576040517f08c379a0000000000000000000000000000000000000000000000000000000008152600401611a27906129d2565b60405180910390fd5b611a3b838383611fe0565b60008060008573ffffffffffffffffffffffffffffffffffffffff1673ffffffffffffffffffffffffffffffffffffffff16815260200190815260200160002054905081811015611ac1576040517f08c379a0000000000000000000000000000000000000000000000000000000008152600401611ab890612a92565b60405180910390fd5b8181611acd9190612d7c565b6000808673ffffffffffffffffffffffffffffffffffffffff1673ffffffffffffffffffffffffffffffffffffffff16815260200190815260200160002081905550816000808573ffffffffffffffffffffffffffffffffffffffff1673ffffffffffffffffffffffffffffffffffffffff1681526020019081526020016000206000828254611b5d9190612c64565b925050819055508273ffffffffffffffffffffffffffffffffffffffff168473ffffffffffffffffffffffffffffffffffffffff167fddf252ad1be2c89b69c2b068fc378daa952ba7f163c4a11628f55a4df523b3ef84604051611bc19190612c12565b60405180910390a3611bd4848484611fe5565b50505050565b600073ffffffffffffffffffffffffffffffffffffffff168273ffffffffffffffffffffffffffffffffffffffff161415611c4a576040517f08c379a0000000000000000000000000000000000000000000000000000000008152600401611c4190612b32565b60405180910390fd5b611c5682600083611fe0565b60008060008473ffffffffffffffffffffffffffffffffffffffff1673ffffffffffffffffffffffffffffffffffffffff16815260200190815260200160002054905081811015611cdc576040517f08c379a0000000000000000000000000000000000000000000000000000000008152600401611cd3906129f2565b60405180910390fd5b8181611ce89190612d7c565b6000808573ffffffffffffffffffffffffffffffffffffffff1673ffffffffffffffffffffffffffffffffffffffff168152602001908152602001600020819055508160026000828254611d3c9190612d7c565b92505081905550600073ffffffffffffffffffffffffffffffffffffffff168373ffffffffffffffffffffffffffffffffffffffff167fddf252ad1be2c89b69c2b068fc378daa952ba7f163c4a11628f55a4df523b3ef84604051611da19190612c12565b60405180910390a3611db583600084611fe5565b505050565b6000600560009054906101000a900473ffffffffffffffffffffffffffffffffffffffff16905081600560006101000a81548173ffffffffffffffffffffffffffffffffffffffff021916908373ffffffffffffffffffffffffffffffffffffffff1602179055508173ffffffffffffffffffffffffffffffffffffffff168173ffffffffffffffffffffffffffffffffffffffff167f8be0079c531659141344cd1fd0a4f28419497f9722a3daafe3b4186f6b6457e060405160405180910390a35050565b600073ffffffffffffffffffffffffffffffffffffffff168273ffffffffffffffffffffffffffffffffffffffff161415611ef0576040517f08c379a0000000000000000000000000000000000000000000000000000000008152600401611ee790612bf2565b60405180910390fd5b611efc60008383611fe0565b8060026000828254611f0e9190612c64565b92505081905550806000808473ffffffffffffffffffffffffffffffffffffffff1673ffffffffffffffffffffffffffffffffffffffff1681526020019081526020016000206000828254611f639190612c64565b925050819055508173ffffffffffffffffffffffffffffffffffffffff16600073ffffffffffffffffffffffffffffffffffffffff167fddf252ad1be2c89b69c2b068fc378daa952ba7f163c4a11628f55a4df523b3ef83604051611fc89190612c12565b60405180910390a3611fdc60008383611fe5565b5050565b505050565b505050565b600081359050611ff981612f68565b92915050565b60008151905061200e81612f7f565b92915050565b60008135905061202381612f96565b92915050565b60008135905061203881612fad565b92915050565b60008151905061204d81612fad565b92915050565b60006020828403121561206557600080fd5b600061207384828501611fea565b91505092915050565b6000806040838503121561208f57600080fd5b600061209d85828601611fea565b92505060206120ae85828601611fea565b9150509250929050565b6000806000606084860312156120cd57600080fd5b60006120db86828701611fea565b93505060206120ec86828701611fea565b92505060406120fd86828701612029565b9150509250925092565b6000806040838503121561211a57600080fd5b600061212885828601611fea565b925050602061213985828601612029565b9150509250929050565b60006020828403121561215557600080fd5b600061216384828501611fff565b91505092915050565b60006020828403121561217e57600080fd5b600061218c84828501612014565b91505092915050565b6000602082840312156121a757600080fd5b60006121b584828501612029565b91505092915050565b6000602082840312156121d057600080fd5b60006121de8482850161203e565b91505092915050565b6121f081612db0565b82525050565b6121ff81612dc2565b82525050565b61220e81612e17565b82525050565b600061221f82612c48565b6122298185612c53565b9350612239818560208601612e3b565b61224281612f57565b840191505092915050565b600061225a602383612c53565b91507f45524332303a207472616e7366657220746f20746865207a65726f206164647260008301527f65737300000000000000000000000000000000000000000000000000000000006020830152604082019050919050565b60006122c0602283612c53565b91507f45524332303a206275726e20616d6f756e7420657863656564732062616c616e60008301527f63650000000000000000000000000000000000000000000000000000000000006020830152604082019050919050565b6000612326602683612c53565b91507f4f776e61626c653a206e6577206f776e657220697320746865207a65726f206160008301527f64647265737300000000000000000000000000000000000000000000000000006020830152604082019050919050565b600061238c602283612c53565b91507f45524332303a20617070726f766520746f20746865207a65726f20616464726560008301527f73730000000000000000000000000000000000000000000000000000000000006020830152604082019050919050565b60006123f2602a83612c53565b91507f4f70657261626c653a206e6577206f70657261746f7220697320746865207a6560008301527f726f2061646472657373000000000000000000000000000000000000000000006020830152604082019050919050565b6000612458601983612c53565b91507f7374616b696e6720686173206e6f742079657420626567756e000000000000006000830152602082019050919050565b6000612498602683612c53565b91507f45524332303a207472616e7366657220616d6f756e742065786365656473206260008301527f616c616e636500000000000000000000000000000000000000000000000000006020830152604082019050919050565b60006124fe602483612c53565b91507f4f70657261626c653a2061646472657373206973206e6f7420616e206f70657260008301527f61746f72000000000000000000000000000000000000000000000000000000006020830152604082019050919050565b6000612564602883612c53565b91507f45524332303a207472616e7366657220616d6f756e742065786365656473206160008301527f6c6c6f77616e63650000000000000000000000000000000000000000000000006020830152604082019050919050565b60006125ca602083612c53565b91507f4f776e61626c653a2063616c6c6572206973206e6f7420746865206f776e65726000830152602082019050919050565b600061260a602883612c53565b91507f4f70657261626c653a206164647265737320697320616c726561647920616e2060008301527f6f70657261746f720000000000000000000000000000000000000000000000006020830152604082019050919050565b6000612670602183612c53565b91507f45524332303a206275726e2066726f6d20746865207a65726f2061646472657360008301527f73000000000000000000000000000000000000000000000000000000000000006020830152604082019050919050565b60006126d6602583612c53565b91507f45524332303a207472616e736665722066726f6d20746865207a65726f20616460008301527f64726573730000000000000000000000000000000000000000000000000000006020830152604082019050919050565b600061273c602383612c53565b91507f4f70657261746f723a2063616c6c6572206973206e6f7420616e206f7065726160008301527f746f7200000000000000000000000000000000000000000000000000000000006020830152604082019050919050565b60006127a2602483612c53565b91507f45524332303a20617070726f76652066726f6d20746865207a65726f2061646460008301527f72657373000000000000000000000000000000000000000000000000000000006020830152604082019050919050565b6000612808601f83612c53565b91507f5265656e7472616e637947756172643a207265656e7472616e742063616c6c006000830152602082019050919050565b6000612848602583612c53565b91507f45524332303a2064656372656173656420616c6c6f77616e63652062656c6f7760008301527f207a65726f0000000000000000000000000000000000000000000000000000006020830152604082019050919050565b60006128ae601f83612c53565b91507f45524332303a206d696e7420746f20746865207a65726f2061646472657373006000830152602082019050919050565b6128ea81612e00565b82525050565b6128f981612e0a565b82525050565b600060208201905061291460008301846121e7565b92915050565b600060608201905061292f60008301866121e7565b61293c60208301856121e7565b61294960408301846128e1565b949350505050565b600060408201905061296660008301856121e7565b61297360208301846128e1565b9392505050565b600060208201905061298f60008301846121f6565b92915050565b60006020820190506129aa6000830184612205565b92915050565b600060208201905081810360008301526129ca8184612214565b905092915050565b600060208201905081810360008301526129eb8161224d565b9050919050565b60006020820190508181036000830152612a0b816122b3565b9050919050565b60006020820190508181036000830152612a2b81612319565b9050919050565b60006020820190508181036000830152612a4b8161237f565b9050919050565b60006020820190508181036000830152612a6b816123e5565b9050919050565b60006020820190508181036000830152612a8b8161244b565b9050919050565b60006020820190508181036000830152612aab8161248b565b9050919050565b60006020820190508181036000830152612acb816124f1565b9050919050565b60006020820190508181036000830152612aeb81612557565b9050919050565b60006020820190508181036000830152612b0b816125bd565b9050919050565b60006020820190508181036000830152612b2b816125fd565b9050919050565b60006020820190508181036000830152612b4b81612663565b9050919050565b60006020820190508181036000830152612b6b816126c9565b9050919050565b60006020820190508181036000830152612b8b8161272f565b9050919050565b60006020820190508181036000830152612bab81612795565b9050919050565b60006020820190508181036000830152612bcb816127fb565b9050919050565b60006020820190508181036000830152612beb8161283b565b9050919050565b60006020820190508181036000830152612c0b816128a1565b9050919050565b6000602082019050612c2760008301846128e1565b92915050565b6000602082019050612c4260008301846128f0565b92915050565b600081519050919050565b600082825260208201905092915050565b6000612c6f82612e00565b9150612c7a83612e00565b9250827fffffffffffffffffffffffffffffffffffffffffffffffffffffffffffffffff03821115612caf57612cae612eca565b5b828201905092915050565b6000612cc582612e0a565b9150612cd083612e0a565b92508260ff03821115612ce657612ce5612eca565b5b828201905092915050565b6000612cfc82612e00565b9150612d0783612e00565b925082612d1757612d16612ef9565b5b828204905092915050565b6000612d2d82612e00565b9150612d3883612e00565b9250817fffffffffffffffffffffffffffffffffffffffffffffffffffffffffffffffff0483118215151615612d7157612d70612eca565b5b828202905092915050565b6000612d8782612e00565b9150612d9283612e00565b925082821015612da557612da4612eca565b5b828203905092915050565b6000612dbb82612de0565b9050919050565b60008115159050919050565b6000612dd982612db0565b9050919050565b600073ffffffffffffffffffffffffffffffffffffffff82169050919050565b6000819050919050565b600060ff82169050919050565b6000612e2282612e29565b9050919050565b6000612e3482612de0565b9050919050565b60005b83811015612e59578082015181840152602081019050612e3e565b83811115612e68576000848401525b50505050565b60006002820490506001821680612e8657607f821691505b60208210811415612e9a57612e99612f28565b5b50919050565b6000612eab82612e0a565b915060ff821415612ebf57612ebe612eca565b5b600182019050919050565b7f4e487b7100000000000000000000000000000000000000000000000000000000600052601160045260246000fd5b7f4e487b7100000000000000000000000000000000000000000000000000000000600052601260045260246000fd5b7f4e487b7100000000000000000000000000000000000000000000000000000000600052602260045260246000fd5b6000601f19601f8301169050919050565b612f7181612db0565b8114612f7c57600080fd5b50565b612f8881612dc2565b8114612f9357600080fd5b50565b612f9f81612dce565b8114612faa57600080fd5b50565b612fb681612e00565b8114612fc157600080fd5b5056fea26469706673582212203ea1ad075a9e68bf621ae89191b62676394e717bcfcdc0dbf12a8c140e73432b64736f6c63430008000033",
  "immutableReferences": {},
  "source": "// SPDX-License-Identifier: MIT\n\npragma solidity ^0.8.0;\nimport './libraries/ERC20.sol';\nimport '@openzeppelin/contracts/security/ReentrancyGuard.sol';\nimport './libraries/Operable.sol';\n\n// spell is the neatest bound around. come in with some soul, and leave with some more! \n// handles swapping to and from spell -- our dex reward token.\n\ncontract SpellBound is ERC20(\"SpellBound\", \"SPELL\"), Operable, ReentrancyGuard {\n    IERC20 public soul;\n\n    bool isInitialized; // stores whether contract has been initialized\n\n    // the soul token contract\n    function initialize(IERC20 _soul) external onlyOwner {\n        soul = _soul;\n        isInitialized = true;\n    }\n\n    // locks soul, mints spell at bound rate\n    function enter(uint soulQty) external nonReentrant {\n        require(isInitialized, 'staking has not yet begun');\n        // acquires soul locked in the contract\n        uint totalSoul = soul.balanceOf(address(this));\n        // acquires spellBound in existence\n        uint totalBound = totalSupply();\n        // if no spellBound exists, mint it 1:1 to soul recieves\n        if (totalBound == 0 || totalSoul == 0) { _mint(msg.sender, soulQty); }\n        // calc & mint spellBound qty the soul is worth\n        // the ratio will change overtime\n            // spellBound is burned / minted\n            // soul fees deposited + deposited soul + withdrawn soul\n        else {\n            uint boundRate = totalBound / totalSoul; // qty of bound : quantity of soul in contract\n            uint boundQty = soulQty * boundRate;\n            _mint(msg.sender, boundQty);\n        }\n        // locks the soul in the contract\n        soul.transferFrom(msg.sender, address(this), soulQty);\n    }\n\n    // leaves the spellbound. reclaims soul.\n    // unlocks soul rewards + staked | burns bounded spell\n    function leave(uint spellQty) external nonReentrant {\n        require(isInitialized, 'staking has not yet begun');\n        // qty of spellBound in existence\n        uint totalBound = totalSupply();\n        // calcs the qty of soul the spell is worth\n        uint boundRate = soul.balanceOf(address(this)) / totalBound;\n        uint rewards = spellQty * boundRate;\n        _burn(msg.sender, spellQty);\n        soul.transfer(msg.sender, rewards);\n    }\n\n}\n",
  "sourcePath": "/Users/unico/Documents/GitHub/soulswap/soulswap-farms/contracts/SpellBound.sol",
  "compiler": {
    "name": "solc",
    "version": "0.8.0+commit.c7dfd78e.Emscripten.clang"
  },
  "schemaVersion": "3.4.1",
  "updatedAt": "2021-07-29T15:14:17.266Z",
  "networkType": "ethereum",
  "devdoc": {
    "kind": "dev",
    "methods": {
      "addOperator(address)": {
        "details": "Adds address as operator of the contract. Can only be called by an operator."
      },
      "allowance(address,address)": {
        "details": "See {IERC20-allowance}."
      },
      "approve(address,uint256)": {
        "details": "See {IERC20-approve}. Requirements: - `spender` cannot be the zero address."
      },
      "balanceOf(address)": {
        "details": "See {IERC20-balanceOf}."
      },
      "decimals()": {
        "details": "Returns the number of decimals used to get its user representation. For example, if `decimals` equals `2`, a balance of `505` tokens should be displayed to a user as `5,05` (`505 / 10 ** 2`). Tokens usually opt for a value of 18, imitating the relationship between Ether and Wei. This is the value {ERC20} uses, unless this function is overridden; NOTE: This information is only used for _display_ purposes: it in no way affects any of the arithmetic of the contract, including {IERC20-balanceOf} and {IERC20-transfer}."
      },
      "decreaseAllowance(address,uint256)": {
        "details": "Atomically decreases the allowance granted to `spender` by the caller. This is an alternative to {approve} that can be used as a mitigation for problems described in {IERC20-approve}. Emits an {Approval} event indicating the updated allowance. Requirements: - `spender` cannot be the zero address. - `spender` must have allowance for the caller of at least `subtractedValue`."
      },
      "increaseAllowance(address,uint256)": {
        "details": "Atomically increases the allowance granted to `spender` by the caller. This is an alternative to {approve} that can be used as a mitigation for problems described in {IERC20-approve}. Emits an {Approval} event indicating the updated allowance. Requirements: - `spender` cannot be the zero address."
      },
      "name()": {
        "details": "Returns the name of the token."
      },
      "owner()": {
        "details": "Returns the address of the current owner."
      },
      "removeOperator(address)": {
        "details": "Leaves the contract without operator. It will not be possible to call `onlyOperator` functions anymore. Can only be called by an operator."
      },
      "renounceOwnership()": {
        "details": "Leaves the contract without owner. It will not be possible to call `onlyOwner` functions anymore. Can only be called by the current owner. NOTE: Renouncing ownership will leave the contract without an owner, thereby removing any functionality that is only available to the owner."
      },
      "symbol()": {
        "details": "Returns the symbol of the token, usually a shorter version of the name."
      },
      "totalSupply()": {
        "details": "See {IERC20-totalSupply}."
      },
      "transfer(address,uint256)": {
        "details": "See {IERC20-transfer}. Requirements: - `recipient` cannot be the zero address. - the caller must have a balance of at least `amount`."
      },
      "transferFrom(address,address,uint256)": {
        "details": "See {IERC20-transferFrom}. Emits an {Approval} event indicating the updated allowance. This is not required by the EIP. See the note at the beginning of {ERC20}. Requirements: - `sender` and `recipient` cannot be the zero address. - `sender` must have a balance of at least `amount`. - the caller must have allowance for ``sender``'s tokens of at least `amount`."
      },
      "transferOwnership(address)": {
        "details": "Transfers ownership of the contract to a new account (`newOwner`). Can only be called by the current owner."
      }
    },
    "version": 1
  },
  "userdoc": {
    "kind": "user",
    "methods": {},
    "version": 1
  }
}